{
  "address": "0x38eCfCfA0BB0949f66F403F1FA56082c1b4DDE94",
  "abi": [
    {
      "inputs": [
        {
          "internalType": "address",
          "name": "senderAddress",
          "type": "address"
        }
      ],
      "name": "AccessDenied",
      "type": "error"
    },
    {
      "inputs": [
        {
          "internalType": "uint256",
          "name": "length",
          "type": "uint256"
        },
        {
          "internalType": "uint256",
          "name": "limit",
          "type": "uint256"
        }
      ],
      "name": "CalldataLengthExceeded",
      "type": "error"
    },
    {
      "inputs": [
        {
          "internalType": "uint256",
          "name": "gasUsedClaim",
          "type": "uint256"
        },
        {
          "internalType": "uint256",
          "name": "gasUsedActual",
          "type": "uint256"
        }
      ],
      "name": "ExcessGasUsedClaim",
      "type": "error"
    },
    {
      "inputs": [
        {
          "internalType": "uint256",
          "name": "txGasPrice",
          "type": "uint256"
        },
        {
          "internalType": "uint256",
          "name": "limit",
          "type": "uint256"
        }
      ],
      "name": "ExcessTxGasPrice",
      "type": "error"
    },
    {
      "inputs": [
        {
          "internalType": "uint160",
          "name": "sqrtPriceX96",
          "type": "uint160"
        }
      ],
      "name": "IllegalSqrtPrice",
      "type": "error"
    },
    {
      "inputs": [
        {
          "internalType": "uint32",
          "name": "period",
          "type": "uint32"
        }
      ],
      "name": "IllegalTwapDuration",
      "type": "error"
    },
    {
      "inputs": [
        {
          "internalType": "contract IERC20",
          "name": "incorrectAddress",
          "type": "address"
        },
        {
          "internalType": "contract IERC20",
          "name": "correctAddress",
          "type": "address"
        }
      ],
      "name": "IncorrectCollateralAddress",
      "type": "error"
    },
    {
      "inputs": [
        {
          "internalType": "address",
          "name": "invalidAddress",
          "type": "address"
        }
      ],
      "name": "InvalidCollateralAddress",
      "type": "error"
    },
    {
      "inputs": [
        {
          "internalType": "enum IClearingHouseEnums.MulticallOperationType",
          "name": "multicallOperationType",
          "type": "uint8"
        }
      ],
      "name": "InvalidMulticallOperationType",
      "type": "error"
    },
    {
      "inputs": [],
      "name": "InvalidTokenLiquidationParameters",
      "type": "error"
    },
    {
      "inputs": [
        {
          "internalType": "int256",
          "name": "keeperFee",
          "type": "int256"
        }
      ],
      "name": "KeeperFeeNotPositive",
      "type": "error"
    },
    {
      "inputs": [
        {
          "internalType": "uint256",
          "name": "notionalValue",
          "type": "uint256"
        }
      ],
      "name": "LowNotionalValue",
      "type": "error"
    },
    {
      "inputs": [],
      "name": "NotRageTradeFactory",
      "type": "error"
    },
    {
      "inputs": [],
      "name": "Paused",
      "type": "error"
    },
    {
      "inputs": [],
      "name": "SlippageBeyondTolerance",
      "type": "error"
    },
    {
      "inputs": [],
      "name": "Unauthorised",
      "type": "error"
    },
    {
      "inputs": [
        {
          "internalType": "uint32",
          "name": "poolId",
          "type": "uint32"
        }
      ],
      "name": "UninitializedToken",
      "type": "error"
    },
    {
      "inputs": [
        {
          "internalType": "address",
          "name": "cTokenAddress",
          "type": "address"
        }
      ],
      "name": "UnsupportedCToken",
      "type": "error"
    },
    {
      "inputs": [
        {
          "internalType": "contract IVToken",
          "name": "vToken",
          "type": "address"
        }
      ],
      "name": "UnsupportedVToken",
      "type": "error"
    },
    {
      "inputs": [],
      "name": "ZeroAddress",
      "type": "error"
    },
    {
      "anonymous": false,
      "inputs": [
        {
          "indexed": true,
          "internalType": "address",
          "name": "ownerAddress",
          "type": "address"
        },
        {
          "indexed": false,
          "internalType": "uint256",
          "name": "accountId",
          "type": "uint256"
        }
      ],
      "name": "AccountCreated",
      "type": "event"
    },
    {
      "anonymous": false,
      "inputs": [
        {
          "indexed": false,
          "internalType": "contract IERC20",
          "name": "cToken",
          "type": "address"
        },
        {
          "components": [
            {
              "internalType": "contract IOracle",
              "name": "oracle",
              "type": "address"
            },
            {
              "internalType": "uint32",
              "name": "twapDuration",
              "type": "uint32"
            },
            {
              "internalType": "bool",
              "name": "supported",
              "type": "bool"
            }
          ],
          "indexed": false,
          "internalType": "struct IClearingHouseStructures.CollateralSettings",
          "name": "cTokenInfo",
          "type": "tuple"
        }
      ],
      "name": "CollateralSettingsUpdated",
      "type": "event"
    },
    {
      "anonymous": false,
      "inputs": [
        {
          "indexed": true,
          "internalType": "address",
          "name": "previousGovernance",
          "type": "address"
        },
        {
          "indexed": true,
          "internalType": "address",
          "name": "newGovernance",
          "type": "address"
        }
      ],
      "name": "GovernanceTransferred",
      "type": "event"
    },
    {
      "anonymous": false,
      "inputs": [
        {
          "indexed": true,
          "internalType": "uint256",
          "name": "accountId",
          "type": "uint256"
        },
        {
          "indexed": true,
          "internalType": "uint32",
          "name": "collateralId",
          "type": "uint32"
        },
        {
          "indexed": false,
          "internalType": "uint256",
          "name": "amount",
          "type": "uint256"
        }
      ],
      "name": "MarginAdded",
      "type": "event"
    },
    {
      "anonymous": false,
      "inputs": [
        {
          "indexed": true,
          "internalType": "uint256",
          "name": "accountId",
          "type": "uint256"
        },
        {
          "indexed": true,
          "internalType": "uint32",
          "name": "collateralId",
          "type": "uint32"
        },
        {
          "indexed": false,
          "internalType": "uint256",
          "name": "amount",
          "type": "uint256"
        }
      ],
      "name": "MarginRemoved",
      "type": "event"
    },
    {
      "anonymous": false,
      "inputs": [
        {
          "indexed": false,
          "internalType": "bool",
          "name": "paused",
          "type": "bool"
        }
      ],
      "name": "PausedUpdated",
      "type": "event"
    },
    {
      "anonymous": false,
      "inputs": [
        {
          "indexed": false,
          "internalType": "uint32",
          "name": "poolId",
          "type": "uint32"
        },
        {
          "components": [
            {
              "internalType": "uint16",
              "name": "initialMarginRatio",
              "type": "uint16"
            },
            {
              "internalType": "uint16",
              "name": "maintainanceMarginRatio",
              "type": "uint16"
            },
            {
              "internalType": "uint32",
              "name": "twapDuration",
              "type": "uint32"
            },
            {
              "internalType": "bool",
              "name": "supported",
              "type": "bool"
            },
            {
              "internalType": "bool",
              "name": "isCrossMargined",
              "type": "bool"
            },
            {
              "internalType": "contract IOracle",
              "name": "oracle",
              "type": "address"
            }
          ],
          "indexed": false,
          "internalType": "struct IClearingHouseStructures.PoolSettings",
          "name": "settings",
          "type": "tuple"
        }
      ],
      "name": "PoolSettingsUpdated",
      "type": "event"
    },
    {
      "anonymous": false,
      "inputs": [
        {
          "components": [
            {
              "internalType": "uint16",
              "name": "liquidationFeeFraction",
              "type": "uint16"
            },
            {
              "internalType": "uint16",
              "name": "tokenLiquidationPriceDeltaBps",
              "type": "uint16"
            },
            {
              "internalType": "uint16",
              "name": "insuranceFundFeeShareBps",
              "type": "uint16"
            },
            {
              "internalType": "uint128",
              "name": "maxRangeLiquidationFees",
              "type": "uint128"
            }
          ],
          "indexed": false,
          "internalType": "struct IClearingHouseStructures.LiquidationParams",
          "name": "liquidationParams",
          "type": "tuple"
        },
        {
          "indexed": false,
          "internalType": "uint256",
          "name": "removeLimitOrderFee",
          "type": "uint256"
        },
        {
          "indexed": false,
          "internalType": "uint256",
          "name": "minimumOrderNotional",
          "type": "uint256"
        },
        {
          "indexed": false,
          "internalType": "uint256",
          "name": "minRequiredMargin",
          "type": "uint256"
        }
      ],
      "name": "ProtocolSettingsUpdated",
      "type": "event"
    },
    {
      "anonymous": false,
      "inputs": [
        {
          "indexed": true,
          "internalType": "address",
          "name": "previousTeamMultisig",
          "type": "address"
        },
        {
          "indexed": true,
          "internalType": "address",
          "name": "newTeamMultisig",
          "type": "address"
        }
      ],
      "name": "TeamMultisigTransferred",
      "type": "event"
    },
    {
      "inputs": [
        {
          "internalType": "address",
          "name": "_rageTradeFactoryAddress",
          "type": "address"
        },
        {
          "internalType": "contract IERC20",
          "name": "_defaultCollateralToken",
          "type": "address"
        },
        {
          "internalType": "contract IOracle",
          "name": "_defaultCollateralTokenOracle",
          "type": "address"
        },
        {
          "internalType": "contract IInsuranceFund",
          "name": "_insuranceFund",
          "type": "address"
        },
        {
          "internalType": "contract IVBase",
          "name": "_vBase",
          "type": "address"
        },
        {
          "internalType": "contract IOracle",
          "name": "_nativeOracle",
          "type": "address"
        }
      ],
      "name": "__initialize_ClearingHouse",
      "outputs": [],
      "stateMutability": "nonpayable",
      "type": "function"
    },
    {
      "inputs": [
        {
          "internalType": "uint256",
          "name": "accountId",
          "type": "uint256"
        },
        {
          "internalType": "uint32",
          "name": "cTokenTruncatedAddress",
          "type": "uint32"
        },
        {
          "internalType": "uint256",
          "name": "amount",
          "type": "uint256"
        }
      ],
      "name": "addMargin",
      "outputs": [],
      "stateMutability": "nonpayable",
      "type": "function"
    },
    {
      "inputs": [],
      "name": "createAccount",
      "outputs": [
        {
          "internalType": "uint256",
          "name": "newAccountId",
          "type": "uint256"
        }
      ],
      "stateMutability": "nonpayable",
      "type": "function"
    },
    {
      "inputs": [
        {
          "internalType": "uint32",
          "name": "poolId",
          "type": "uint32"
        },
        {
          "internalType": "uint256",
          "name": "amount",
          "type": "uint256"
        }
      ],
      "name": "createAccountAndAddMargin",
      "outputs": [
        {
          "internalType": "uint256",
          "name": "newAccountId",
          "type": "uint256"
        }
      ],
      "stateMutability": "nonpayable",
      "type": "function"
    },
    {
      "inputs": [
        {
          "internalType": "bytes32",
          "name": "slot",
          "type": "bytes32"
        }
      ],
      "name": "extsload",
      "outputs": [
        {
          "internalType": "bytes32",
          "name": "val",
          "type": "bytes32"
        }
      ],
      "stateMutability": "view",
      "type": "function"
    },
    {
      "inputs": [
        {
          "internalType": "bytes32[]",
          "name": "slots",
          "type": "bytes32[]"
        }
      ],
      "name": "extsload",
      "outputs": [
        {
          "internalType": "bytes32[]",
          "name": "",
          "type": "bytes32[]"
        }
      ],
      "stateMutability": "view",
      "type": "function"
    },
    {
      "inputs": [
        {
          "internalType": "uint256",
          "name": "accountId",
          "type": "uint256"
        }
      ],
      "name": "getAccountInfo",
      "outputs": [
        {
          "internalType": "address",
          "name": "owner",
          "type": "address"
        },
        {
          "internalType": "int256",
          "name": "vBaseBalance",
          "type": "int256"
        },
        {
          "components": [
            {
              "internalType": "address",
              "name": "cTokenAddress",
              "type": "address"
            },
            {
              "internalType": "uint256",
              "name": "balance",
              "type": "uint256"
            }
          ],
          "internalType": "struct IClearingHouseStructures.DepositTokenView[]",
          "name": "tokenDeposits",
          "type": "tuple[]"
        },
        {
          "components": [
            {
              "internalType": "address",
              "name": "vTokenAddress",
              "type": "address"
            },
            {
              "internalType": "int256",
              "name": "balance",
              "type": "int256"
            },
            {
              "internalType": "int256",
              "name": "netTraderPosition",
              "type": "int256"
            },
            {
              "internalType": "int256",
              "name": "sumAX128Ckpt",
              "type": "int256"
            },
            {
              "components": [
                {
                  "internalType": "enum IClearingHouseEnums.LimitOrderType",
                  "name": "limitOrderType",
                  "type": "uint8"
                },
                {
                  "internalType": "int24",
                  "name": "tickLower",
                  "type": "int24"
                },
                {
                  "internalType": "int24",
                  "name": "tickUpper",
                  "type": "int24"
                },
                {
                  "internalType": "uint128",
                  "name": "liquidity",
                  "type": "uint128"
                },
                {
                  "internalType": "int256",
                  "name": "vTokenAmountIn",
                  "type": "int256"
                },
                {
                  "internalType": "int256",
                  "name": "sumALastX128",
                  "type": "int256"
                },
                {
                  "internalType": "int256",
                  "name": "sumBInsideLastX128",
                  "type": "int256"
                },
                {
                  "internalType": "int256",
                  "name": "sumFpInsideLastX128",
                  "type": "int256"
                },
                {
                  "internalType": "uint256",
                  "name": "sumFeeInsideLastX128",
                  "type": "uint256"
                }
              ],
              "internalType": "struct IClearingHouseStructures.LiquidityPositionView[]",
              "name": "liquidityPositions",
              "type": "tuple[]"
            }
          ],
          "internalType": "struct IClearingHouseStructures.VTokenPositionView[]",
          "name": "tokenPositions",
          "type": "tuple[]"
        }
      ],
      "stateMutability": "view",
      "type": "function"
    },
    {
      "inputs": [
        {
          "internalType": "uint256",
          "name": "accountId",
          "type": "uint256"
        },
        {
          "internalType": "bool",
          "name": "isInitialMargin",
          "type": "bool"
        }
      ],
      "name": "getAccountMarketValueAndRequiredMargin",
      "outputs": [
        {
          "internalType": "int256",
          "name": "accountMarketValue",
          "type": "int256"
        },
        {
          "internalType": "int256",
          "name": "requiredMargin",
          "type": "int256"
        }
      ],
      "stateMutability": "view",
      "type": "function"
    },
    {
      "inputs": [
        {
          "internalType": "uint256",
          "name": "accountId",
          "type": "uint256"
        }
      ],
      "name": "getAccountNetProfit",
      "outputs": [
        {
          "internalType": "int256",
          "name": "accountNetProfit",
          "type": "int256"
        }
      ],
      "stateMutability": "view",
      "type": "function"
    },
    {
      "inputs": [
        {
          "internalType": "uint32",
          "name": "collateralId",
          "type": "uint32"
        }
      ],
      "name": "getCollateralInfo",
      "outputs": [
        {
          "components": [
            {
              "internalType": "contract IERC20",
              "name": "token",
              "type": "address"
            },
            {
              "components": [
                {
                  "internalType": "contract IOracle",
                  "name": "oracle",
                  "type": "address"
                },
                {
                  "internalType": "uint32",
                  "name": "twapDuration",
                  "type": "uint32"
                },
                {
                  "internalType": "bool",
                  "name": "supported",
                  "type": "bool"
                }
              ],
              "internalType": "struct IClearingHouseStructures.CollateralSettings",
              "name": "settings",
              "type": "tuple"
            }
          ],
          "internalType": "struct IClearingHouseStructures.Collateral",
          "name": "",
          "type": "tuple"
        }
      ],
      "stateMutability": "view",
      "type": "function"
    },
    {
      "inputs": [
        {
          "internalType": "uint256",
          "name": "accountId",
          "type": "uint256"
        },
        {
          "internalType": "uint32",
          "name": "poolId",
          "type": "uint32"
        }
      ],
      "name": "getNetTokenPosition",
      "outputs": [
        {
          "internalType": "int256",
          "name": "netPosition",
          "type": "int256"
        }
      ],
      "stateMutability": "view",
      "type": "function"
    },
    {
      "inputs": [
        {
          "internalType": "uint32",
          "name": "poolId",
          "type": "uint32"
        }
      ],
      "name": "getPoolInfo",
      "outputs": [
        {
          "components": [
            {
              "internalType": "contract IVToken",
              "name": "vToken",
              "type": "address"
            },
            {
              "internalType": "contract IUniswapV3Pool",
              "name": "vPool",
              "type": "address"
            },
            {
              "internalType": "contract IVPoolWrapper",
              "name": "vPoolWrapper",
              "type": "address"
            },
            {
              "components": [
                {
                  "internalType": "uint16",
                  "name": "initialMarginRatio",
                  "type": "uint16"
                },
                {
                  "internalType": "uint16",
                  "name": "maintainanceMarginRatio",
                  "type": "uint16"
                },
                {
                  "internalType": "uint32",
                  "name": "twapDuration",
                  "type": "uint32"
                },
                {
                  "internalType": "bool",
                  "name": "supported",
                  "type": "bool"
                },
                {
                  "internalType": "bool",
                  "name": "isCrossMargined",
                  "type": "bool"
                },
                {
                  "internalType": "contract IOracle",
                  "name": "oracle",
                  "type": "address"
                }
              ],
              "internalType": "struct IClearingHouseStructures.PoolSettings",
              "name": "settings",
              "type": "tuple"
            }
          ],
          "internalType": "struct IClearingHouseStructures.Pool",
          "name": "",
          "type": "tuple"
        }
      ],
      "stateMutability": "view",
      "type": "function"
    },
    {
      "inputs": [
        {
          "internalType": "contract IVToken",
          "name": "vToken",
          "type": "address"
        }
      ],
      "name": "getTwapSqrtPricesForSetDuration",
      "outputs": [
        {
          "internalType": "uint256",
          "name": "realPriceX128",
          "type": "uint256"
        },
        {
          "internalType": "uint256",
          "name": "virtualPriceX128",
          "type": "uint256"
        }
      ],
      "stateMutability": "view",
      "type": "function"
    },
    {
      "inputs": [],
      "name": "governance",
      "outputs": [
        {
          "internalType": "address",
          "name": "",
          "type": "address"
        }
      ],
      "stateMutability": "view",
      "type": "function"
    },
    {
      "inputs": [],
      "name": "insuranceFund",
      "outputs": [
        {
          "internalType": "contract IInsuranceFund",
          "name": "",
          "type": "address"
        }
      ],
      "stateMutability": "view",
      "type": "function"
    },
    {
      "inputs": [
        {
          "internalType": "uint32",
          "name": "poolId",
          "type": "uint32"
        }
      ],
      "name": "isVTokenAddressAvailable",
      "outputs": [
        {
          "internalType": "bool",
          "name": "",
          "type": "bool"
        }
      ],
      "stateMutability": "view",
      "type": "function"
    },
    {
      "inputs": [
        {
          "internalType": "uint256",
          "name": "accountId",
          "type": "uint256"
        }
      ],
      "name": "liquidateLiquidityPositions",
      "outputs": [],
      "stateMutability": "nonpayable",
      "type": "function"
    },
    {
      "inputs": [
        {
          "internalType": "uint256",
          "name": "accountId",
          "type": "uint256"
        },
        {
          "internalType": "uint256",
          "name": "gasComputationUnitsClaim",
          "type": "uint256"
        }
      ],
      "name": "liquidateLiquidityPositionsWithGasClaim",
      "outputs": [
        {
          "internalType": "int256",
          "name": "keeperFee",
          "type": "int256"
        }
      ],
      "stateMutability": "nonpayable",
      "type": "function"
    },
    {
      "inputs": [
        {
          "internalType": "uint256",
          "name": "liquidatorAccountId",
          "type": "uint256"
        },
        {
          "internalType": "uint256",
          "name": "targetAccountId",
          "type": "uint256"
        },
        {
          "internalType": "uint32",
          "name": "poolId",
          "type": "uint32"
        },
        {
          "internalType": "uint16",
          "name": "liquidationBps",
          "type": "uint16"
        }
      ],
      "name": "liquidateTokenPosition",
      "outputs": [
        {
          "components": [
            {
              "internalType": "int256",
              "name": "vBaseIncrease",
              "type": "int256"
            },
            {
              "internalType": "int256",
              "name": "vTokenIncrease",
              "type": "int256"
            },
            {
              "internalType": "int256",
              "name": "traderPositionIncrease",
              "type": "int256"
            }
          ],
          "internalType": "struct IClearingHouseStructures.BalanceAdjustments",
          "name": "liquidatorBalanceAdjustments",
          "type": "tuple"
        }
      ],
      "stateMutability": "nonpayable",
      "type": "function"
    },
    {
      "inputs": [
        {
          "internalType": "uint256",
          "name": "liquidatorAccountId",
          "type": "uint256"
        },
        {
          "internalType": "uint256",
          "name": "targetAccountId",
          "type": "uint256"
        },
        {
          "internalType": "uint32",
          "name": "poolId",
          "type": "uint32"
        },
        {
          "internalType": "uint16",
          "name": "liquidationBps",
          "type": "uint16"
        },
        {
          "internalType": "uint256",
          "name": "gasComputationUnitsClaim",
          "type": "uint256"
        }
      ],
      "name": "liquidateTokenPositionWithGasClaim",
      "outputs": [
        {
          "components": [
            {
              "internalType": "int256",
              "name": "vBaseIncrease",
              "type": "int256"
            },
            {
              "internalType": "int256",
              "name": "vTokenIncrease",
              "type": "int256"
            },
            {
              "internalType": "int256",
              "name": "traderPositionIncrease",
              "type": "int256"
            }
          ],
          "internalType": "struct IClearingHouseStructures.BalanceAdjustments",
          "name": "liquidatorBalanceAdjustments",
          "type": "tuple"
        }
      ],
      "stateMutability": "nonpayable",
      "type": "function"
    },
    {
      "inputs": [
        {
          "internalType": "bytes[]",
          "name": "data",
          "type": "bytes[]"
        }
      ],
      "name": "multicall",
      "outputs": [
        {
          "internalType": "bytes[]",
          "name": "results",
          "type": "bytes[]"
        }
      ],
      "stateMutability": "payable",
      "type": "function"
    },
    {
      "inputs": [
        {
          "internalType": "uint256",
          "name": "accountId",
          "type": "uint256"
        },
        {
          "components": [
            {
              "internalType": "enum IClearingHouseEnums.MulticallOperationType",
              "name": "operationType",
              "type": "uint8"
            },
            {
              "internalType": "bytes",
              "name": "data",
              "type": "bytes"
            }
          ],
          "internalType": "struct IClearingHouseStructures.MulticallOperation[]",
          "name": "operations",
          "type": "tuple[]"
        }
      ],
      "name": "multicallWithSingleMarginCheck",
      "outputs": [
        {
          "internalType": "bytes[]",
          "name": "results",
          "type": "bytes[]"
        }
      ],
      "stateMutability": "nonpayable",
      "type": "function"
    },
    {
      "inputs": [],
      "name": "nativeOracle",
      "outputs": [
        {
          "internalType": "contract IOracle",
          "name": "",
          "type": "address"
        }
      ],
      "stateMutability": "view",
      "type": "function"
    },
    {
      "inputs": [],
      "name": "numAccounts",
      "outputs": [
        {
          "internalType": "uint256",
          "name": "",
          "type": "uint256"
        }
      ],
      "stateMutability": "view",
      "type": "function"
    },
    {
      "inputs": [],
      "name": "paused",
      "outputs": [
        {
          "internalType": "bool",
          "name": "",
          "type": "bool"
        }
      ],
      "stateMutability": "view",
      "type": "function"
    },
    {
      "inputs": [],
      "name": "protocolInfo",
      "outputs": [
        {
          "internalType": "contract IVBase",
          "name": "vBase",
          "type": "address"
        },
        {
          "components": [
            {
              "internalType": "uint16",
              "name": "liquidationFeeFraction",
              "type": "uint16"
            },
            {
              "internalType": "uint16",
              "name": "tokenLiquidationPriceDeltaBps",
              "type": "uint16"
            },
            {
              "internalType": "uint16",
              "name": "insuranceFundFeeShareBps",
              "type": "uint16"
            },
            {
              "internalType": "uint128",
              "name": "maxRangeLiquidationFees",
              "type": "uint128"
            }
          ],
          "internalType": "struct IClearingHouseStructures.LiquidationParams",
          "name": "liquidationParams",
          "type": "tuple"
        },
        {
          "internalType": "uint256",
          "name": "minRequiredMargin",
          "type": "uint256"
        },
        {
          "internalType": "uint256",
          "name": "removeLimitOrderFee",
          "type": "uint256"
        },
        {
          "internalType": "uint256",
          "name": "minimumOrderNotional",
          "type": "uint256"
        }
      ],
      "stateMutability": "view",
      "type": "function"
    },
    {
      "inputs": [],
      "name": "rageTradeFactoryAddress",
      "outputs": [
        {
          "internalType": "address",
          "name": "",
          "type": "address"
        }
      ],
      "stateMutability": "view",
      "type": "function"
    },
    {
      "inputs": [
        {
          "components": [
            {
              "internalType": "contract IVToken",
              "name": "vToken",
              "type": "address"
            },
            {
              "internalType": "contract IUniswapV3Pool",
              "name": "vPool",
              "type": "address"
            },
            {
              "internalType": "contract IVPoolWrapper",
              "name": "vPoolWrapper",
              "type": "address"
            },
            {
              "components": [
                {
                  "internalType": "uint16",
                  "name": "initialMarginRatio",
                  "type": "uint16"
                },
                {
                  "internalType": "uint16",
                  "name": "maintainanceMarginRatio",
                  "type": "uint16"
                },
                {
                  "internalType": "uint32",
                  "name": "twapDuration",
                  "type": "uint32"
                },
                {
                  "internalType": "bool",
                  "name": "supported",
                  "type": "bool"
                },
                {
                  "internalType": "bool",
                  "name": "isCrossMargined",
                  "type": "bool"
                },
                {
                  "internalType": "contract IOracle",
                  "name": "oracle",
                  "type": "address"
                }
              ],
              "internalType": "struct IClearingHouseStructures.PoolSettings",
              "name": "settings",
              "type": "tuple"
            }
          ],
          "internalType": "struct IClearingHouseStructures.Pool",
          "name": "poolInfo",
          "type": "tuple"
        }
      ],
      "name": "registerPool",
      "outputs": [],
      "stateMutability": "nonpayable",
      "type": "function"
    },
    {
      "inputs": [
        {
          "internalType": "uint256",
          "name": "accountId",
          "type": "uint256"
        },
        {
          "internalType": "uint32",
          "name": "poolId",
          "type": "uint32"
        },
        {
          "internalType": "int24",
          "name": "tickLower",
          "type": "int24"
        },
        {
          "internalType": "int24",
          "name": "tickUpper",
          "type": "int24"
        }
      ],
      "name": "removeLimitOrder",
      "outputs": [],
      "stateMutability": "nonpayable",
      "type": "function"
    },
    {
      "inputs": [
        {
          "internalType": "uint256",
          "name": "accountId",
          "type": "uint256"
        },
        {
          "internalType": "uint32",
          "name": "poolId",
          "type": "uint32"
        },
        {
          "internalType": "int24",
          "name": "tickLower",
          "type": "int24"
        },
        {
          "internalType": "int24",
          "name": "tickUpper",
          "type": "int24"
        },
        {
          "internalType": "uint256",
          "name": "gasComputationUnitsClaim",
          "type": "uint256"
        }
      ],
      "name": "removeLimitOrderWithGasClaim",
      "outputs": [
        {
          "internalType": "uint256",
          "name": "keeperFee",
          "type": "uint256"
        }
      ],
      "stateMutability": "nonpayable",
      "type": "function"
    },
    {
      "inputs": [
        {
          "internalType": "uint256",
          "name": "accountId",
          "type": "uint256"
        },
        {
          "internalType": "uint32",
          "name": "cTokenTruncatedAddress",
          "type": "uint32"
        },
        {
          "internalType": "uint256",
          "name": "amount",
          "type": "uint256"
        }
      ],
      "name": "removeMargin",
      "outputs": [],
      "stateMutability": "nonpayable",
      "type": "function"
    },
    {
      "inputs": [
        {
          "internalType": "bool",
          "name": "_pause",
          "type": "bool"
        }
      ],
      "name": "setPaused",
      "outputs": [],
      "stateMutability": "nonpayable",
      "type": "function"
    },
    {
      "inputs": [
        {
          "internalType": "uint256",
          "name": "_txGasPriceLimit",
          "type": "uint256"
        }
      ],
      "name": "setTxGasPriceLimit",
      "outputs": [],
      "stateMutability": "nonpayable",
      "type": "function"
    },
    {
      "inputs": [
        {
          "internalType": "uint256",
          "name": "accountId",
          "type": "uint256"
        },
        {
          "internalType": "uint32",
          "name": "poolId",
          "type": "uint32"
        },
        {
          "components": [
            {
              "internalType": "int256",
              "name": "amount",
              "type": "int256"
            },
            {
              "internalType": "uint160",
              "name": "sqrtPriceLimit",
              "type": "uint160"
            },
            {
              "internalType": "bool",
              "name": "isNotional",
              "type": "bool"
            },
            {
              "internalType": "bool",
              "name": "isPartialAllowed",
              "type": "bool"
            }
          ],
          "internalType": "struct IClearingHouseStructures.SwapParams",
          "name": "swapParams",
          "type": "tuple"
        }
      ],
      "name": "swapToken",
      "outputs": [
        {
          "internalType": "int256",
          "name": "vTokenAmountOut",
          "type": "int256"
        },
        {
          "internalType": "int256",
          "name": "vBaseAmountOut",
          "type": "int256"
        }
      ],
      "stateMutability": "nonpayable",
      "type": "function"
    },
    {
      "inputs": [],
      "name": "teamMultisig",
      "outputs": [
        {
          "internalType": "address",
          "name": "",
          "type": "address"
        }
      ],
      "stateMutability": "view",
      "type": "function"
    },
    {
      "inputs": [
        {
          "internalType": "address",
          "name": "newGovernance",
          "type": "address"
        }
      ],
      "name": "transferGovernance",
      "outputs": [],
      "stateMutability": "nonpayable",
      "type": "function"
    },
    {
      "inputs": [
        {
          "internalType": "address",
          "name": "newTeamMultisig",
          "type": "address"
        }
      ],
      "name": "transferTeamMultisig",
      "outputs": [],
      "stateMutability": "nonpayable",
      "type": "function"
    },
    {
      "inputs": [],
      "name": "txGasPriceLimit",
      "outputs": [
        {
          "internalType": "uint256",
          "name": "",
          "type": "uint256"
        }
      ],
      "stateMutability": "view",
      "type": "function"
    },
    {
      "inputs": [
        {
          "internalType": "contract IERC20",
          "name": "cToken",
          "type": "address"
        },
        {
          "components": [
            {
              "internalType": "contract IOracle",
              "name": "oracle",
              "type": "address"
            },
            {
              "internalType": "uint32",
              "name": "twapDuration",
              "type": "uint32"
            },
            {
              "internalType": "bool",
              "name": "supported",
              "type": "bool"
            }
          ],
          "internalType": "struct IClearingHouseStructures.CollateralSettings",
          "name": "collateralSettings",
          "type": "tuple"
        }
      ],
      "name": "updateCollateralSettings",
      "outputs": [],
      "stateMutability": "nonpayable",
      "type": "function"
    },
    {
      "inputs": [
        {
          "internalType": "uint32",
          "name": "poolId",
          "type": "uint32"
        },
        {
          "components": [
            {
              "internalType": "uint16",
              "name": "initialMarginRatio",
              "type": "uint16"
            },
            {
              "internalType": "uint16",
              "name": "maintainanceMarginRatio",
              "type": "uint16"
            },
            {
              "internalType": "uint32",
              "name": "twapDuration",
              "type": "uint32"
            },
            {
              "internalType": "bool",
              "name": "supported",
              "type": "bool"
            },
            {
              "internalType": "bool",
              "name": "isCrossMargined",
              "type": "bool"
            },
            {
              "internalType": "contract IOracle",
              "name": "oracle",
              "type": "address"
            }
          ],
          "internalType": "struct IClearingHouseStructures.PoolSettings",
          "name": "newSettings",
          "type": "tuple"
        }
      ],
      "name": "updatePoolSettings",
      "outputs": [],
      "stateMutability": "nonpayable",
      "type": "function"
    },
    {
      "inputs": [
        {
          "internalType": "uint256",
          "name": "accountId",
          "type": "uint256"
        },
        {
          "internalType": "int256",
          "name": "amount",
          "type": "int256"
        }
      ],
      "name": "updateProfit",
      "outputs": [],
      "stateMutability": "nonpayable",
      "type": "function"
    },
    {
      "inputs": [
        {
          "components": [
            {
              "internalType": "uint16",
              "name": "liquidationFeeFraction",
              "type": "uint16"
            },
            {
              "internalType": "uint16",
              "name": "tokenLiquidationPriceDeltaBps",
              "type": "uint16"
            },
            {
              "internalType": "uint16",
              "name": "insuranceFundFeeShareBps",
              "type": "uint16"
            },
            {
              "internalType": "uint128",
              "name": "maxRangeLiquidationFees",
              "type": "uint128"
            }
          ],
          "internalType": "struct IClearingHouseStructures.LiquidationParams",
          "name": "_liquidationParams",
          "type": "tuple"
        },
        {
          "internalType": "uint256",
          "name": "_removeLimitOrderFee",
          "type": "uint256"
        },
        {
          "internalType": "uint256",
          "name": "_minimumOrderNotional",
          "type": "uint256"
        },
        {
          "internalType": "uint256",
          "name": "_minRequiredMargin",
          "type": "uint256"
        }
      ],
      "name": "updateProtocolSettings",
      "outputs": [],
      "stateMutability": "nonpayable",
      "type": "function"
    },
    {
      "inputs": [
        {
          "internalType": "uint256",
          "name": "accountId",
          "type": "uint256"
        },
        {
          "internalType": "uint32",
          "name": "poolId",
          "type": "uint32"
        },
        {
          "components": [
            {
              "internalType": "int24",
              "name": "tickLower",
              "type": "int24"
            },
            {
              "internalType": "int24",
              "name": "tickUpper",
              "type": "int24"
            },
            {
              "internalType": "int128",
              "name": "liquidityDelta",
              "type": "int128"
            },
            {
              "internalType": "uint160",
              "name": "sqrtPriceCurrent",
              "type": "uint160"
            },
            {
              "internalType": "uint16",
              "name": "slippageToleranceBps",
              "type": "uint16"
            },
            {
              "internalType": "bool",
              "name": "closeTokenPosition",
              "type": "bool"
            },
            {
              "internalType": "enum IClearingHouseEnums.LimitOrderType",
              "name": "limitOrderType",
              "type": "uint8"
            }
          ],
          "internalType": "struct IClearingHouseStructures.LiquidityChangeParams",
          "name": "liquidityChangeParams",
          "type": "tuple"
        }
      ],
      "name": "updateRangeOrder",
      "outputs": [
        {
          "internalType": "int256",
          "name": "vTokenAmountOut",
          "type": "int256"
        },
        {
          "internalType": "int256",
          "name": "vBaseAmountOut",
          "type": "int256"
        }
      ],
      "stateMutability": "nonpayable",
      "type": "function"
    },
    {
      "inputs": [
        {
          "internalType": "address[]",
          "name": "wrapperAddresses",
          "type": "address[]"
        }
      ],
      "name": "withdrawProtocolFee",
      "outputs": [],
      "stateMutability": "nonpayable",
      "type": "function"
    }
  ],
  "transactionHash": "0x4f56aed7a0d63579ddb89a5f376fce89cef7b09f0d0f3f61bf5cfd4f46d8082c",
  "args": [],
  "solcInputHash": "b610aa6e689876642b3952c8de631e3b",
  "bytecode": "0x60806040523480156200001157600080fd5b506200001c62000022565b6200018a565b336200002f818062000032565b50565b600054610100900460ff16806200004c575060005460ff16155b620000b45760405162461bcd60e51b815260206004820152602e60248201527f496e697469616c697a61626c653a20636f6e747261637420697320616c72656160448201526d191e481a5b9a5d1a585b1a5e995960921b606482015260840160405180910390fd5b600054610100900460ff16158015620000d7576000805461ffff19166101011790555b6000805462010000600160b01b031916620100006001600160a01b0386169081029190911782556040519091907f5f56bee8cffbe9a78652a74a60705edede02af10b0bbb888ca44b79a0d42ce80908290a3600180546001600160a01b0319166001600160a01b0384169081179091556040516000907f39355f2f5c8206286978f443aa8126bbd29fa09c53c04569502647f3a59c8cb2908290a3801562000185576000805461ff00191690555b505050565b615bf1806200019a6000396000f3fe6080604052600436106102675760003560e01c806384088b6511610144578063d257be2b116100b6578063e1f167131161007a578063e1f1671314610a1c578063e3d41c1814610a3c578063e450f6f414610a5c578063e67ed1df14610a7c578063ee6cd5ee14610a9c578063fe6f083a14610abc57600080fd5b8063d257be2b14610971578063d38bfff414610991578063dac42a96146109b1578063dbc0c085146109d1578063dbd035ff146109ef57600080fd5b80639cd1be58116101085780639cd1be58146107335780639dca362f14610753578063ac9650d814610768578063b670ed521461077b578063b790230314610924578063bc38d5421461094457600080fd5b806384088b6514610594578063847e07a6146105d65780638ce25a93146105f657806393420cf41461060c57806394c8c71d1461071357600080fd5b80633d0aea3d116101dd578063569634d3116101a1578063569634d3146104c65780635aa6e675146104e65780635c975abb1461050a5780637cc2f4f5146105345780637ec6ba31146105545780637f64d6631461057457600080fd5b80633d0aea3d146104145780633d56a35e1461043457806340c4f69b1461045957806342be9fca1461048657806349fbd58d146104a657600080fd5b80631f84fa981161022f5780631f84fa981461032f5780632afaea371461034f57806332a72d981461036f57806339359029146103a45780633a64c245146103c45780633b561afc146103e457600080fd5b806302860bac1461026c578063127fec131461028e57806316c38b3c146102cb5780631a1feae1146102eb5780631e2eaeaf14610310575b600080fd5b34801561027857600080fd5b5061028c610287366004613fca565b610adc565b005b34801561029a57600080fd5b5060d4546102ae906001600160a01b031681565b6040516001600160a01b0390911681526020015b60405180910390f35b3480156102d757600080fd5b5061028c6102e6366004614025565b610b89565b3480156102f757600080fd5b506103026101395481565b6040519081526020016102c2565b34801561031c57600080fd5b5061030261032b366004614042565b5490565b34801561033b57600080fd5b5061028c61034a36600461406d565b610c1b565b34801561035b57600080fd5b5061028c61036a3660046140ae565b610cca565b34801561037b57600080fd5b5061038f61038a36600461427c565b610d0d565b604080519283526020830191909152016102c2565b3480156103b057600080fd5b5061028c6103bf3660046140ae565b610d5d565b3480156103d057600080fd5b5061028c6103df3660046142bb565b610d9c565b3480156103f057600080fd5b506104046103ff366004614042565b610e6e565b6040516102c294939291906142f8565b34801561042057600080fd5b5061028c61042f366004614485565b610f12565b34801561044057600080fd5b5060d2546102ae9061010090046001600160a01b031681565b34801561046557600080fd5b5061047961047436600461454d565b610f6b565b6040516102c291906145f0565b34801561049257600080fd5b506103026104a1366004614652565b6116ba565b3480156104b257600080fd5b5061028c6104c1366004614674565b611761565b3480156104d257600080fd5b5061028c6104e1366004614042565b611866565b3480156104f257600080fd5b506000546201000090046001600160a01b03166102ae565b34801561051657600080fd5b5060d2546105249060ff1681565b60405190151581526020016102c2565b34801561054057600080fd5b5061028c61054f366004614705565b611871565b34801561056057600080fd5b5061028c61056f366004614042565b611886565b34801561058057600080fd5b5061028c61058f366004614758565b6118d7565b3480156105a057600080fd5b506105b46105af366004614790565b6119a5565b60408051825181526020808401519082015291810151908201526060016102c2565b3480156105e257600080fd5b506103026105f13660046147cf565b6119f4565b34801561060257600080fd5b5061030260d05481565b34801561061857600080fd5b506106ad604080516080810182526000808252602082018190529181018290526060810182905250506066546040805160808101825260685461ffff8082168352620100008204811660208401526401000000008204169282019290925266010000000000009091046001600160801b03166060820152606954606a54606b546001600160a01b039094169492939192909190565b604080516001600160a01b039096168652845161ffff9081166020808901919091528601518116878301529085015116606080870191909152909301516001600160801b0316608085015260a084019190915260c083015260e0820152610100016102c2565b34801561071f57600080fd5b506105b461072e3660046147ff565b611a93565b34801561073f57600080fd5b5061028c61074e366004614652565b611b8d565b34801561075f57600080fd5b50610302611bcf565b610479610776366004614851565b611c7d565b34801561078757600080fd5b5061089b610796366004614892565b604080516080808201835260008083526020808401829052838501829052845160c08082018752838252818301849052818701849052606080830185905282860185905260a08084018690529681019290925263ffffffff978816845260648352928690208651808601885281546001600160a01b039081168252600183015481168286015260028301548116828a01528851958601895260039092015461ffff8082168752620100008204169486019490945264010000000084049098169684019690965260ff600160401b830481161515848301526901000000000000000000830416151593830193909352600160501b90049093169183019190915282015290565b6040805182516001600160a01b03908116825260208085015182168184015284840151821683850152606094850151805161ffff90811687860152918101519091166080808501919091529381015163ffffffff1660a08085019190915294810151151560c084015292830151151560e0830152919092015116610100820152610120016102c2565b34801561093057600080fd5b5060d3546102ae906001600160a01b031681565b34801561095057600080fd5b5061096461095f366004614892565b611dcd565b6040516102c291906148af565b34801561097d57600080fd5b5061038f61098c366004614758565b611e6c565b34801561099d57600080fd5b5061028c6109ac366004614758565b611e96565b3480156109bd57600080fd5b506105246109cc366004614892565b611f58565b3480156109dd57600080fd5b506001546001600160a01b03166102ae565b3480156109fb57600080fd5b50610a0f610a0a36600461491b565b611f7d565b6040516102c291906149a5565b348015610a2857600080fd5b5061028c610a37366004614851565b611fab565b348015610a4857600080fd5b50610302610a57366004614042565b6120f7565b348015610a6857600080fd5b50610302610a773660046149e9565b612181565b348015610a8857600080fd5b5061038f610a97366004614a15565b612198565b348015610aa857600080fd5b5061038f610ab7366004614a3a565b612236565b348015610ac857600080fd5b50610302610ad7366004614a85565b612287565b6001546001600160a01b03163314801590610b0957506000546001600160a01b0362010000909104163314155b15610b2757604051636bd1573560e11b815260040160405180910390fd5b836068610b348282614ae4565b5050606a839055606b82905560698190556040517f9b7ffeda0929d0ea3dfe5fb734043c56bf81827477ac95216f2b700fb921f03f90610b7b908690869086908690614ba1565b60405180910390a150505050565b6001546001600160a01b03163314801590610bb657506000546001600160a01b0362010000909104163314155b15610bd457604051636bd1573560e11b815260040160405180910390fd5b60d2805460ff19168215159081179091556040519081527f31311016d7204faff81880133e3db244ae8a8b9ce15e83e2432258226d15f9429060200160405180910390a150565b6001546001600160a01b03163314801590610c4857506000546001600160a01b0362010000909104163314155b15610c6657604051636bd1573560e11b815260040160405180910390fd5b63ffffffff821660009081526064602052604090208190600301610c8a8282614c73565b9050507ff924257f2f033f654a9c9dab9dc1725c901932a7187872fda504e76a9b6412de8282604051610cbe929190614d52565b60405180910390a15050565b60d25460ff1615610cee576040516313d0ff5960e31b815260040160405180910390fd5b6000610cf9846122d5565b9050610d078482858561231b565b50505050565b60d254600090819060ff1615610d36576040516313d0ff5960e31b815260040160405180910390fd5b6000610d41866122d5565b9050610d508186866001612424565b9250925050935093915050565b60d25460ff1615610d81576040516313d0ff5960e31b815260040160405180910390fd5b6000610d8c846122d5565b9050610d078482858560016125ea565b60d25461010090046001600160a01b03163314610dcc576040516385734f3160e01b815260040160405180910390fd5b6000610de7610dde6020840184614758565b63ffffffff1690565b63ffffffff81166000908152606460205260409020549091506001600160a01b031615610e1657610e16614df6565b63ffffffff811660009081526064602052604090208290610e378282614e2c565b9050507ff924257f2f033f654a9c9dab9dc1725c901932a7187872fda504e76a9b6412de8183606001604051610cbe929190614d52565b600081815260d16020526040808220905163a0ba775760e01b81526004810191909152606460248201528190606090819073B61cC2D139ff51B2d20D4d683B80ce723C9CE6e59063a0ba775790604401600060405180830381865af4158015610edb573d6000803e3d6000fd5b505050506040513d6000823e601f3d908101601f19168201604052610f039190810190615167565b93509350935093509193509193565b6001546001600160a01b03163314801590610f3f57506000546001600160a01b0362010000909104163314155b15610f5d57604051636bd1573560e11b815260040160405180910390fd5b610f678282612702565b5050565b6060816001600160401b03811115610f8557610f856140e6565b604051908082528060200260200182016040528015610fb857816020015b6060815260200190600190039081610fa35790505b5090506000610fc6856122d5565b90506000805b848110156115cd576000868683818110610fe857610fe861526d565b9050602002810190610ffa9190615283565b6110089060208101906152a3565b6007811115611019576110196142ce565b1415611078576000808787848181106110345761103461526d565b90506020028101906110469190615283565b6110549060208101906152c4565b81019061106191906149e9565b915091506110718986848461231b565b50506115bb565b600186868381811061108c5761108c61526d565b905060200281019061109e9190615283565b6110ac9060208101906152a3565b60078111156110bd576110bd6142ce565b1415611117576000808787848181106110d8576110d861526d565b90506020028101906110ea9190615283565b6110f89060208101906152c4565b81019061110591906149e9565b915091506110718986848460006125ea565b600286868381811061112b5761112b61526d565b905060200281019061113d9190615283565b61114b9060208101906152a3565b600781111561115c5761115c6142ce565b14156111bb5760008686838181106111765761117661526d565b90506020028101906111889190615283565b6111969060208101906152c4565b8101906111a39190614042565b90506111b1848260006128a6565b60019250506115bb565b60038686838181106111cf576111cf61526d565b90506020028101906111e19190615283565b6111ef9060208101906152a3565b6007811115611200576112006142ce565b14156112aa5760008087878481811061121b5761121b61526d565b905060200281019061122d9190615283565b61123b9060208101906152c4565b810190611248919061530a565b9150915060008061125c8785856000612424565b604080516020810184905290810182905291935091506060016040516020818303038152906040528886815181106112965761129661526d565b6020026020010181905250505050506115bb565b60048686838181106112be576112be61526d565b90506020028101906112d09190615283565b6112de9060208101906152a3565b60078111156112ef576112ef6142ce565b141561134b5760008087878481811061130a5761130a61526d565b905060200281019061131c9190615283565b61132a9060208101906152c4565b81019061133791906153eb565b9150915060008061125c8785856000612a0c565b600586868381811061135f5761135f61526d565b90506020028101906113719190615283565b61137f9060208101906152a3565b6007811115611390576113906142ce565b14156113fa576000806000808989868181106113ae576113ae61526d565b90506020028101906113c09190615283565b6113ce9060208101906152c4565b8101906113db9190615419565b93509350935093506113f08b85858585612b21565b50505050506115bb565b600686868381811061140e5761140e61526d565b90506020028101906114209190615283565b61142e9060208101906152a3565b600781111561143f5761143f6142ce565b141561145657611450876000612c21565b506115bb565b600786868381811061146a5761146a61526d565b905060200281019061147c9190615283565b61148a9060208101906152a3565b600781111561149b5761149b6142ce565b14156115665760008060008888858181106114b8576114b861526d565b90506020028101906114ca9190615283565b6114d89060208101906152c4565b8101906114e5919061546a565b60008d815260d16020526040808220858352908220949750929550909350611511929085908590612d8b565b6040805182516020808301919091528301518183015291015160608201526080016040516020818303038152906040528785815181106115535761155361526d565b60200260200101819052505050506115bb565b8585828181106115785761157861526d565b905060200281019061158a9190615283565b6115989060208101906152a3565b604051633164e52160e11b81526004016115b291906154ac565b60405180910390fd5b806115c5816154dc565b915050610fcc565b50801561163f5760405163651524ed60e01b8152600481018390526064602482015273B61cC2D139ff51B2d20D4d683B80ce723C9CE6e59063651524ed9060440160006040518083038186803b15801561162657600080fd5b505af415801561163a573d6000803e3d6000fd5b505050505b60405163998c533560e01b8152600481018390526001602482015260646044820181905273B61cC2D139ff51B2d20D4d683B80ce723C9CE6e59163998c5335910160006040518083038186803b15801561169857600080fd5b505af41580156116ac573d6000803e3d6000fd5b5050505050505b9392505050565b60008180156117435760006116cd612ecf565b5a6116d891906154f7565b90506116e46044612f87565b6116ee8585612c21565b925060006116fa612ecf565b5a61170591906154f7565b61170f908361550f565b90508083111561173c57604051634010928f60e01b815260048101849052602481018290526044016115b2565b505061175a565b61174d6044612f87565b6117578484612c21565b91505b5092915050565b600054610100900460ff168061177a575060005460ff16155b6117965760405162461bcd60e51b81526004016115b290615526565b600054610100900460ff161580156117b8576000805461ffff19166101011790555b60d28054610100600160a81b0319166101006001600160a01b038a81169190910291909117909155606780546001600160a01b03199081168984161790915560d38054821687841617905560d48054821685841617905560668054909116858316179055604080516060810182529187168252603c6020830152600190820152611843908790612702565b61184b612fb4565b801561185d576000805461ff00191690555b50505050505050565b610f67816000612c21565b61187f848484846000612b21565b5050505050565b6001546001600160a01b031633148015906118b357506000546001600160a01b0362010000909104163314155b156118d157604051636bd1573560e11b815260040160405180910390fd5b61013955565b6001546001600160a01b0316331480159061190457506000546001600160a01b0362010000909104163314155b1561192257604051636bd1573560e11b815260040160405180910390fd5b6001600160a01b0381166119495760405163d92e233d60e01b815260040160405180910390fd5b6001546040516001600160a01b038084169216907f39355f2f5c8206286978f443aa8126bbd29fa09c53c04569502647f3a59c8cb290600090a3600180546001600160a01b0319166001600160a01b0392909216919091179055565b6119c960405180606001604052806000815260200160008152602001600081525090565b600085815260d160205260408082208683529082206119eb9286908690612d8b565b95945050505050565b600082815260d160205260408082209051637188a1ed60e01b8152600481019190915263ffffffff8316602482015260646044820181905273B61cC2D139ff51B2d20D4d683B80ce723C9CE6e591637188a1ed9101602060405180830381865af4158015611a66573d6000803e3d6000fd5b505050506040513d601f19601f82011682018060405250810190611a8a9190615574565b90505b92915050565b611ab760405180606001604052806000815260200160008152602001600081525090565b818015611b55576000611ac8612ecf565b5a611ad391906154f7565b9050611adf60a4612f87565b600088815260d160205260408082208983529120611b009190888888612d8b565b92506000611b0c612ecf565b5a611b1791906154f7565b611b21908361550f565b905080831115611b4e57604051634010928f60e01b815260048101849052602481018290526044016115b2565b5050611b83565b611b5f60a4612f87565b600087815260d160205260408082208883529120611b809190878787612d8b565b91505b5095945050505050565b60d25460ff1615611bb1576040516313d0ff5960e31b815260040160405180910390fd5b6000611bbc836122d5565b9050611bca818360016128a6565b505050565b60d25460009060ff1615611bf6576040516313d0ff5960e31b815260040160405180910390fd5b5060d054611c058160016154f7565b60d055600081815260d160209081526040918290206bffffffffffffffffffffffff1933600160601b8102919091166bffffffffffffffffffffffff861617825592518481529092917f7325fb14450d3e5eb288c620b4ff1d6b43a41b33b4a4f143ae88cd4c12f99ea3910160405180910390a25090565b6060816001600160401b03811115611c9757611c976140e6565b604051908082528060200260200182016040528015611cca57816020015b6060815260200190600190039081611cb55790505b50905060005b8281101561175a5760008030868685818110611cee57611cee61526d565b9050602002810190611d0091906152c4565b604051611d0e92919061558d565b600060405180830381855af49150503d8060008114611d49576040519150601f19603f3d011682016040523d82523d6000602084013e611d4e565b606091505b509150915081611d9a57604481511015611d6757600080fd5b60048101905080806020019051810190611d81919061559d565b60405162461bcd60e51b81526004016115b29190615630565b80848481518110611dad57611dad61526d565b602002602001018190525050508080611dc5906154dc565b915050611cd0565b611e0060408051808201825260008082528251606081018452818152602081810183905293810191909152909182015290565b5063ffffffff9081166000908152606560209081526040918290208251808401845281546001600160a01b03908116825284516060810186526001909301549081168352600160a01b810490951682840152600160c01b90940460ff1615159281019290925282015290565b60008063ffffffff8316611e81606482612fbf565b9250611e8e606482613030565b915050915091565b6000546001600160a01b0362010000909104163314611ec857604051636bd1573560e11b815260040160405180910390fd5b6001600160a01b038116611eef5760405163d92e233d60e01b815260040160405180910390fd5b600080546040516001600160a01b03808516936201000090930416917f5f56bee8cffbe9a78652a74a60705edede02af10b0bbb888ca44b79a0d42ce8091a3600080546001600160a01b03909216620100000262010000600160b01b0319909216919091179055565b63ffffffff81166000908152606460205260408120546001600160a01b031615611a8d565b606060208251028201602001602083015b81811015611fa3578051548152602001611f8e565b509192915050565b6000805b828110156120ce576000848483818110611fcb57611fcb61526d565b9050602002016020810190611fe09190614758565b6001600160a01b0316635e622abc6040518163ffffffff1660e01b81526004016020604051808303816000875af115801561201f573d6000803e3d6000fd5b505050506040513d601f19601f820116820180604052508101906120439190615574565b90508484838181106120575761205761526d565b905060200201602081019061206c9190614758565b6001600160a01b03167fa087657e3d85162090ffd700fbfdf5070d816f63aa5da00063f6ffd369c8a6db826040516120a691815260200190565b60405180910390a26120b881846154f7565b92505080806120c6906154dc565b915050611faf565b50611bca6120e46001546001600160a01b031690565b6067546001600160a01b0316908361304d565b600081815260d16020526040808220905163625915c360e11b815260048101919091526064602482015273B61cC2D139ff51B2d20D4d683B80ce723C9CE6e59063c4b22b8690604401602060405180830381865af415801561215d573d6000803e3d6000fd5b505050506040513d601f19601f82011682018060405250810190611a8d9190615574565b600061218b611bcf565b9050611a8d818484610cca565b600082815260d16020526040808220905163031b5fcd60e21b815260048101919091528215156024820152606460448201819052829173B61cC2D139ff51B2d20D4d683B80ce723C9CE6e591630c6d7f3491016040805180830381865af4158015612207573d6000803e3d6000fd5b505050506040513d601f19601f8201168201806040525081019061222b9190615643565b909590945092505050565b60d254600090819060ff161561225f576040516313d0ff5960e31b815260040160405180910390fd5b600061226a866122d5565b9050610d50818661228036889003880188615667565b6001612a0c565b60008180156122be57600061229a612ecf565b5a6122a591906154f7565b90506122b160a4612f87565b611b008888888888612b21565b6122c860a4612f87565b611b808787878787612b21565b600081815260d1602052604090208054600160601b90046001600160a01b0316331461231657604051630504a20d60e01b81523360048201526024016115b2565b919050565b60d25460ff161561233f576040516313d0ff5960e31b815260040160405180910390fd5b600061234c8360016130b0565b8054909150612366906001600160a01b031633308561313a565b604051637ef9c64360e11b81526004810185905263ffffffff841660248201526044810183905273B61cC2D139ff51B2d20D4d683B80ce723C9CE6e59063fdf38c869060640160006040518083038186803b1580156123c457600080fd5b505af41580156123d8573d6000803e3d6000fd5b505050508263ffffffff16857f8ad78786fd90bf16daca318ca19c5c1f8b0e4b6a666538a76d128092d48514c28460405161241591815260200190565b60405180910390a35050505050565b60d254600090819060ff161561244d576040516313d0ff5960e31b815260040160405180910390fd5b61245685613172565b60408051630a067b0f60e11b81526004810188905263ffffffff871660248201528551604482015260208601516001600160a01b031660648083019190915291860151151560848201526060860151151560a482015260c481019190915283151560e482015273B61cC2D139ff51B2d20D4d683B80ce723C9CE6e59063140cf61e90610104016040805180830381865af41580156124f8573d6000803e3d6000fd5b505050506040513d601f19601f8201168201806040525081019061251c9190615643565b9092509050600061252c82613202565b606b54909150811015612555576040516312b6b5cd60e11b8152600481018290526024016115b2565b60208501516001600160a01b03161580159061257357508460600151155b156125e0578460400151801561259a5750845161258f90613202565b61259883613202565b145b806125c3575084604001511580156125c3575084516125b890613202565b6125c184613202565b145b6125e0576040516307a1db0760e01b815260040160405180910390fd5b5094509492505050565b60d25460ff161561260e576040516313d0ff5960e31b815260040160405180910390fd5b600061261b8460006130b0565b6040516362b3b6bb60e11b81526004810187905263ffffffff8616602482015260448101859052606480820152831515608482015290915073B61cC2D139ff51B2d20D4d683B80ce723C9CE6e59063c5676d769060a40160006040518083038186803b15801561268a57600080fd5b505af415801561269e573d6000803e3d6000fd5b505082546126b992506001600160a01b03169050338561304d565b8363ffffffff16867fe0c7ec5663c36969e5662da59bc1ede9566e08300e34eb2da7746d9f262c5d80856040516126f291815260200190565b60405180910390a3505050505050565b63ffffffff82166001600160a01b038316612733576040516376d8a93160e01b8152600060048201526024016115b2565b63ffffffff81166000908152606560205260409020546001600160a01b03161515801561278c575063ffffffff80821660009081526065602052604090205461278a916001600160a01b0390911690859061321d16565b155b156127d55763ffffffff81166000908152606560205260409081902054905163a5d4d0b560e01b81526001600160a01b03808616600483015290911660248201526044016115b2565b6040805180820182526001600160a01b038581168252602080830186815263ffffffff868116600090815260658452869020945185546001600160a01b03191690851617855590518051600190950180549382015191870151959094166001600160c01b031990931692909217600160a01b92909116919091021760ff60c01b1916600160c01b92151592909202919091179055517f52983c04d8ccd4808cd0fcb24e6e48106ecb41e803d6270c6c94a15e3ebd08d2906128999085908590615683565b60405180910390a1505050565b60d25460ff16156128ca576040516313d0ff5960e31b815260040160405180910390fd5b816129015760405162461bcd60e51b815260206004820152600760248201526608585b5bdd5b9d60ca1b60448201526064016115b2565b60405163d25c4a6f60e01b815260048101849052602481018390526064604482018190528215159082015273B61cC2D139ff51B2d20D4d683B80ce723C9CE6e59063d25c4a6f9060840160006040518083038186803b15801561296357600080fd5b505af4158015612977573d6000803e3d6000fd5b5050505060008213156129a15760675461299c906001600160a01b031633308561313a565b6129c1565b6129c1336129ae846156c5565b6067546001600160a01b0316919061304d565b82546040518381526bffffffffffffffffffffffff909116907f34e55ef9f5cf05f9a666ce27e7dcee31bb2a4e21eccaa3ea58a8358117b1547a9060200160405180910390a2505050565b60d254600090819060ff1615612a35576040516313d0ff5960e31b815260040160405180910390fd5b612a3e85613172565b60608401516001600160a01b031615612a6457612a64858560600151866080015161322e565b60405163c27789d160e01b815273B61cC2D139ff51B2d20D4d683B80ce723C9CE6e59063c27789d190612aa4908990899089906064908a906004016156e2565b6040805180830381865af4158015612ac0573d6000803e3d6000fd5b505050506040513d601f19601f82011682018060405250810190612ae49190615643565b90925090506000612af886848460646132c0565b606b549091508110156125e0576040516312b6b5cd60e11b8152600481018290526024016115b2565b60d25460009060ff1615612b48576040516313d0ff5960e31b815260040160405180910390fd5b600086815260d160205260409020612b5f86613172565b612b68836132f7565b606a54612b7591906154f7565b604051637022478560e11b81526004810183905263ffffffff88166024820152600287810b604483015286900b6064808301919091526084820183905260a482015290925073B61cC2D139ff51B2d20D4d683B80ce723C9CE6e59063e0448f0a9060c40160006040518083038186803b158015612bf157600080fd5b505af4158015612c05573d6000803e3d6000fd5b5050606754611b8392506001600160a01b03169050338461304d565b60d25460009060ff1615612c48576040516313d0ff5960e31b815260040160405180910390fd5b600083815260d1602052604081209073B61cC2D139ff51B2d20D4d683B80ce723C9CE6e56322e440c483612c7b876132f7565b6040516001600160e01b031960e085901b16815260048101929092526024820152606460448201819052016040805180830381865af4158015612cc2573d6000803e3d6000fd5b505050506040513d601f19601f82011682018060405250810190612ce69190615643565b90935090506000612cf78285615786565b905060008413612d1d5760405163ef37dcc760e01b8152600481018590526024016115b2565b606754612d34906001600160a01b0316338661304d565b612d3d82613407565b6040805182815260208101869052908101839052339087907fcfb6806c7e1accb0c7e5835aded9e714525c0588e5609d5ae1a3c8f6b68586a79060600160405180910390a350505092915050565b612daf60405180606001604052806000815260200160008152602001600081525090565b60d25460ff1615612dd3576040516313d0ff5960e31b815260040160405180910390fd5b6127108361ffff161115612dfa576040516348d69f3560e01b815260040160405180910390fd5b612e0384613172565b600073B61cC2D139ff51B2d20D4d683B80ce723C9CE6e5632a2d44e587898789612e2c896132f7565b6040516001600160e01b031960e088901b1681526004810195909552602485019390935261ffff909116604484015263ffffffff16606483810191909152608483019190915260a4820152600160c482015260e401608060405180830381865af4158015612e9e573d6000803e3d6000fd5b505050506040513d601f19601f82011682018060405250810190612ec291906157c7565b92509050611b8381613407565b60408051600481526024810182526020810180516001600160e01b031663a94597ff60e01b179052905160009182918291606491612f0d9190615820565b600060405180830381855afa9150503d8060008114612f48576040519150601f19603f3d011682016040523d82523d6000602084013e612f4d565b606091505b5091509150811580612f5e57508051155b15612f6c5760009250505090565b80806020019051810190612f809190615574565b9250505090565b36811015612fb157604051634219202560e01b8152366004820152602481018290526044016115b2565b50565b33612fb18180613493565b63ffffffff81811660009081526020849052604080822060030154905163dd86c10160e01b8152640100000000820490931660048401529091600160501b9091046001600160a01b03169063dd86c10190602401602060405180830381865afa158015611a66573d6000803e3d6000fd5b6000611a8a61303f848461359b565b6001600160a01b03166135dd565b6040516001600160a01b038316602482015260448101829052611bca90849063a9059cbb60e01b906064015b60408051601f198184030181529190526020810180516001600160e01b03166001600160e01b03199093169290921790915261364a565b63ffffffff8216600090815260656020526040902080546001600160a01b03166130f55760405163b087c8c360e01b815263ffffffff841660048201526024016115b2565b81801561310e57506001810154600160c01b900460ff16155b15611a8d57805460405163a006afaf60e01b81526001600160a01b0390911660048201526024016115b2565b6040516001600160a01b0380851660248301528316604482015260648101829052610d079085906323b872dd60e01b90608401613079565b63ffffffff81166000908152606460205260409020546001600160a01b0316806131b75760405163b087c8c360e01b815263ffffffff831660048201526024016115b2565b63ffffffff8216600090815260646020526040902060030154600160401b900460ff16610f6757604051631079472960e21b81526001600160a01b03821660048201526024016115b2565b600080821361321957613214826156c5565b611a8d565b5090565b6001600160a01b0390811691161490565b600061323b60648561371c565b90506000836001600160a01b0316826001600160a01b031611613267576132628285615832565b613271565b6132718483615832565b90506127106132848561ffff861661585a565b61328e919061589f565b6001600160a01b0316816001600160a01b0316111561187f576040516307a1db0760e01b815260040160405180910390fd5b60006132cb83613747565b6132ed6132d88488613030565b600160801b6132e688613747565b9190613752565b6119eb91906154f7565b60003a6101395481111561332d5761013954604051638dfe587d60e01b81526115b2918391600401918252602082015260400190565b821580613343575060d4546001600160a01b0316155b156133515760009150613401565b60003332141561336657613363613800565b90505b60006133723a866158c5565b60d45460405163dd86c10160e01b815261012c60048201529192506000916001600160a01b039091169063dd86c10190602401602060405180830381865afa1580156133c2573d6000803e3d6000fd5b505050506040513d601f19601f820116820180604052508101906133e69190615574565b90506133fb81600160801b6132e685876154f7565b94505050505b50919050565b600081131561342d5760d354606754612fb1916001600160a01b0391821691168361304d565b60d3546001600160a01b031663379607f5613447836156c5565b6040518263ffffffff1660e01b815260040161346591815260200190565b600060405180830381600087803b15801561347f57600080fd5b505af115801561187f573d6000803e3d6000fd5b600054610100900460ff16806134ac575060005460ff16155b6134c85760405162461bcd60e51b81526004016115b290615526565b600054610100900460ff161580156134ea576000805461ffff19166101011790555b6000805462010000600160b01b031916620100006001600160a01b0386169081029190911782556040519091907f5f56bee8cffbe9a78652a74a60705edede02af10b0bbb888ca44b79a0d42ce80908290a3600180546001600160a01b0319166001600160a01b0384169081179091556040516000907f39355f2f5c8206286978f443aa8126bbd29fa09c53c04569502647f3a59c8cb2908290a38015611bca576000805461ff0019169055505050565b63ffffffff808216600090815260208490526040812060038101546001909101549192611a8a926001600160a01b031691640100000000900481169061383e16565b60006401000276a36001600160a01b0383161080613618575073fffd8963efd1fc6a506488495d951d5263988d266001600160a01b03831610155b1561364157604051635d236c4560e01b81526001600160a01b03831660048201526024016115b2565b611a8d8261385f565b600061369f826040518060400160405280602081526020017f5361666545524332303a206c6f772d6c6576656c2063616c6c206661696c6564815250856001600160a01b03166138799092919063ffffffff16565b805190915015611bca57808060200190518101906136bd91906158e4565b611bca5760405162461bcd60e51b815260206004820152602a60248201527f5361666545524332303a204552433230206f7065726174696f6e20646964206e6044820152691bdd081cdd58d8d9595960b21b60648201526084016115b2565b63ffffffff8116600090815260208390526040812060010154611a8a906001600160a01b0316613890565b6000611a8d82613202565b60008080600019858709858702925082811083820303915050806000141561378c576000841161378157600080fd5b5082900490506116b3565b80841161379857600080fd5b600084868809851960019081018716968790046003810260029081188083028203028083028203028083028203028083028203028083028203029182029003026000889003889004909101858311909403939093029303949094049190911702949350505050565b60408051600481526024810182526020810180516001600160e01b031663637bef0760e11b179052905160009182918291606491612f0d9190615820565b6000806138546001600160a01b0385168461391a565b905061175781613b36565b6000611a8d6001600160a01b03831680600160401b613752565b60606138888484600085613e69565b949350505050565b600080826001600160a01b0316633850c7bd6040518163ffffffff1660e01b815260040160e060405180830381865afa1580156138d1573d6000803e3d6000fd5b505050506040513d601f19601f820116820180604052508101906138f59190615901565b509496509294505050506001600160a01b03831615159050613401576116b381613b36565b600063ffffffff8216613943576040516351a4d88160e01b8152600060048201526024016115b2565b60408051600280825260608201835260009260208301908036833701905050905082816000815181106139785761397861526d565b602002602001019063ffffffff16908163ffffffff16815250506000816001815181106139a7576139a761526d565b63ffffffff9092166020928302919091019091015260405163883bdbfd60e01b81526001600160a01b0385169063883bdbfd906139e89084906004016159a3565b600060405180830381865afa925050508015613a2657506040513d6000823e601f3d908101601f19168201604052613a239190810190615a45565b60015b613a9b57836001600160a01b0316633850c7bd6040518163ffffffff1660e01b815260040160e060405180830381865afa158015613a68573d6000803e3d6000fd5b505050506040513d601f19601f82011682018060405250810190613a8c9190615901565b5093965061175a945050505050565b600082600081518110613ab057613ab061526d565b602002602001015183600181518110613acb57613acb61526d565b6020026020010151613add9190615b10565b90506000613af163ffffffff881683615b60565b905060008260060b128015613b175750613b1163ffffffff881683615b9e565b60060b15155b15613b2a5780613b2681615bc0565b9150505b9450611a8d9350505050565b60008060008360020b12613b4d578260020b613b55565b8260020b6000035b9050620d89e8811115613b8e5760405162461bcd60e51b81526020600482015260016024820152601560fa1b60448201526064016115b2565b600060018216613ba257600160801b613bb4565b6ffffcb933bd6fad37aa2d162d1a5940015b70ffffffffffffffffffffffffffffffffff1690506002821615613be8576ffff97272373d413259a46990580e213a0260801c5b6004821615613c07576ffff2e50f5f656932ef12357cf3c7fdcc0260801c5b6008821615613c26576fffe5caca7e10e4e61c3624eaa0941cd00260801c5b6010821615613c45576fffcb9843d60f6159c9db58835c9266440260801c5b6020821615613c64576fff973b41fa98c081472e6896dfb254c00260801c5b6040821615613c83576fff2ea16466c96a3843ec78b326b528610260801c5b6080821615613ca2576ffe5dee046a99a2a811c461f1969c30530260801c5b610100821615613cc2576ffcbe86c7900a88aedcffc83b479aa3a40260801c5b610200821615613ce2576ff987a7253ac413176f2b074cf7815e540260801c5b610400821615613d02576ff3392b0822b70005940c7a398e4b70f30260801c5b610800821615613d22576fe7159475a2c29b7443b29c7fa6e889d90260801c5b611000821615613d42576fd097f3bdfd2022b8845ad8f792aa58250260801c5b612000821615613d62576fa9f746462d870fdf8a65dc1f90e061e50260801c5b614000821615613d82576f70d869a156d2a1b890bb3df62baf32f70260801c5b618000821615613da2576f31be135f97d08fd981231505542fcfa60260801c5b62010000821615613dc3576f09aa508b5b7a84e1c677de54f3e99bc90260801c5b62020000821615613de3576e5d6af8dedb81196699c329225ee6040260801c5b62040000821615613e02576d2216e584f5fa1ea926041bedfe980260801c5b62080000821615613e1f576b048a170391f7dc42444e8fa20260801c5b60008460020b1315613e40578060001981613e3c57613e3c615889565b0490505b640100000000810615613e54576001613e57565b60005b60ff16602082901c0192505050919050565b606082471015613eca5760405162461bcd60e51b815260206004820152602660248201527f416464726573733a20696e73756666696369656e742062616c616e636520666f6044820152651c8818d85b1b60d21b60648201526084016115b2565b843b613f185760405162461bcd60e51b815260206004820152601d60248201527f416464726573733a2063616c6c20746f206e6f6e2d636f6e747261637400000060448201526064016115b2565b600080866001600160a01b03168587604051613f349190615820565b60006040518083038185875af1925050503d8060008114613f71576040519150601f19603f3d011682016040523d82523d6000602084013e613f76565b606091505b5091509150613f86828286613f91565b979650505050505050565b60608315613fa05750816116b3565b825115613fb05782518084602001fd5b8160405162461bcd60e51b81526004016115b29190615630565b60008060008084860360e0811215613fe157600080fd5b6080811215613fef57600080fd5b5093956080870135955060a0870135945060c08701359350915050565b8015158114612fb157600080fd5b80356123168161400c565b60006020828403121561403757600080fd5b81356116b38161400c565b60006020828403121561405457600080fd5b5035919050565b63ffffffff81168114612fb157600080fd5b60008082840360e081121561408157600080fd5b833561408c8161405b565b925060c0601f19820112156140a057600080fd5b506020830190509250929050565b6000806000606084860312156140c357600080fd5b8335925060208401356140d58161405b565b929592945050506040919091013590565b634e487b7160e01b600052604160045260246000fd5b604051606081016001600160401b038111828210171561411e5761411e6140e6565b60405290565b60405160a081016001600160401b038111828210171561411e5761411e6140e6565b60405161012081016001600160401b038111828210171561411e5761411e6140e6565b604080519081016001600160401b038111828210171561411e5761411e6140e6565b60405160e081016001600160401b038111828210171561411e5761411e6140e6565b604051601f8201601f191681016001600160401b03811182821017156141d5576141d56140e6565b604052919050565b6001600160a01b0381168114612fb157600080fd5b8035612316816141dd565b60006080828403121561420f57600080fd5b604051608081018181106001600160401b0382111715614231576142316140e6565b604052823581529050806020830135614249816141dd565b6020820152604083013561425c8161400c565b6040820152606083013561426f8161400c565b6060919091015292915050565b600080600060c0848603121561429157600080fd5b8335925060208401356142a38161405b565b91506142b285604086016141fd565b90509250925092565b6000610120828403121561340157600080fd5b634e487b7160e01b600052602160045260246000fd5b600381106142f4576142f46142ce565b9052565b6000608080830160018060a01b038089168552602088818701526040848188015283895180865260a089019150838b01955060005b8181101561435457865180518716845285015185840152958401959183019160010161432d565b5050878103606089015288518082528382019550600581901b82018401848b0160005b8381101561447157848303601f19018952815180518916845287810151888501528681015187850152606080820151908501528a015160a08b850181905281519085018190529088019060009060c08601905b8083101561445c5783516143df8382516142e4565b8b8101518060020b8d850152508a81015160020b8b840152606081015161441160608501826001600160801b03169052565b508e8101518f84015260a081015160a084015260c081015160c084015260e081015160e084015261010080820151818501525050610120820191508a840193506001830192506143ca565b509a89019a9450505090860190600101614377565b50909e9d5050505050505050505050505050565b600080828403608081121561449957600080fd5b83356144a4816141dd565b92506060601f19820112156144b857600080fd5b506144c16140fc565b60208401356144cf816141dd565b815260408401356144df8161405b565b602082015260608401356144f28161400c565b6040820152919491935090915050565b60008083601f84011261451457600080fd5b5081356001600160401b0381111561452b57600080fd5b6020830191508360208260051b850101111561454657600080fd5b9250929050565b60008060006040848603121561456257600080fd5b8335925060208401356001600160401b0381111561457f57600080fd5b61458b86828701614502565b9497909650939450505050565b60005b838110156145b357818101518382015260200161459b565b83811115610d075750506000910152565b600081518084526145dc816020860160208601614598565b601f01601f19169290920160200192915050565b6000602080830181845280855180835260408601915060408160051b870101925083870160005b8281101561464557603f198886030184526146338583516145c4565b94509285019290850190600101614617565b5092979650505050505050565b6000806040838503121561466557600080fd5b50508035926020909101359150565b60008060008060008060c0878903121561468d57600080fd5b8635614698816141dd565b955060208701356146a8816141dd565b945060408701356146b8816141dd565b935060608701356146c8816141dd565b925060808701356146d8816141dd565b915060a08701356146e8816141dd565b809150509295509295509295565b8060020b8114612fb157600080fd5b6000806000806080858703121561471b57600080fd5b84359350602085013561472d8161405b565b9250604085013561473d816146f6565b9150606085013561474d816146f6565b939692955090935050565b60006020828403121561476a57600080fd5b81356116b3816141dd565b61ffff81168114612fb157600080fd5b803561231681614775565b600080600080608085870312156147a657600080fd5b843593506020850135925060408501356147bf8161405b565b9150606085013561474d81614775565b600080604083850312156147e257600080fd5b8235915060208301356147f48161405b565b809150509250929050565b600080600080600060a0868803121561481757600080fd5b853594506020860135935060408601356148308161405b565b9250606086013561484081614775565b949793965091946080013592915050565b6000806020838503121561486457600080fd5b82356001600160401b0381111561487a57600080fd5b61488685828601614502565b90969095509350505050565b6000602082840312156148a457600080fd5b81356116b38161405b565b81516001600160a01b03168152602080830151608083019161175a9084018280516001600160a01b0316825260208082015163ffffffff16908301526040908101511515910152565b60006001600160401b03821115614911576149116140e6565b5060051b60200190565b6000602080838503121561492e57600080fd5b82356001600160401b0381111561494457600080fd5b8301601f8101851361495557600080fd5b8035614968614963826148f8565b6141ad565b81815260059190911b8201830190838101908783111561498757600080fd5b928401925b82841015613f865783358252928401929084019061498c565b6020808252825182820181905260009190848201906040850190845b818110156149dd578351835292840192918401916001016149c1565b50909695505050505050565b600080604083850312156149fc57600080fd5b8235614a078161405b565b946020939093013593505050565b60008060408385031215614a2857600080fd5b8235915060208301356147f48161400c565b6000806000838503610120811215614a5157600080fd5b843593506020850135614a638161405b565b925060e0603f1982011215614a7757600080fd5b506040840190509250925092565b600080600080600060a08688031215614a9d57600080fd5b853594506020860135614aaf8161405b565b93506040860135614abf816146f6565b92506060860135614840816146f6565b6001600160801b0381168114612fb157600080fd5b8135614aef81614775565b815461ffff191661ffff8216178255506020820135614b0d81614775565b815463ffff00001916601082901b63ffff000016178255506040820135614b3381614775565b815465ffff000000008260201b1691508165ffff000000001982161783556060840135614b5f81614acf565b75ffffffffffffffffffffffffffffffff0000000000008160301b168375ffffffffffffffffffffffffffffffffffff00000000198416171784555050505050565b60e081018535614bb081614775565b61ffff9081168352602087013590614bc782614775565b9081166020840152604087013590614bde82614775565b1660408301526060860135614bf281614acf565b6001600160801b03166060830152608082019490945260a081019290925260c090910152919050565b60008135611a8d8161400c565b60008135611a8d816141dd565b80547fffff0000000000000000000000000000000000000000ffffffffffffffffffff1660509290921b600160501b600160f01b0316919091179055565b8135614c7e81614775565b815461ffff191661ffff8216178255506020820135614c9c81614775565b815463ffff00001916601082901b63ffff000016178255506040820135614cc28161405b565b815467ffffffff000000008260201b1691508167ffffffff000000001982161783556060840135614cf28161400c565b68ffffffffff00000000199190911690911790151560401b60ff60401b161781556080820135614d218161400c565b815460ff60481b191681151560481b60ff60481b161782555060a0820135614d48816141dd565b611bca8183614c35565b63ffffffff838116825260e08201908335614d6c81614775565b61ffff808216602086015260208601359150614d8782614775565b16604084810191909152840135614d9d8161405b565b16606083810191909152830135614db38161400c565b8015156080840152506080830135614dca8161400c565b80151560a084015250614ddf60a084016141f2565b6001600160a01b03811660c0840152509392505050565b634e487b7160e01b600052600160045260246000fd5b80546001600160a01b0319166001600160a01b0392909216919091179055565b8135614e37816141dd565b614e418183614e0c565b506020820135614e50816141dd565b614e5d8160018401614e0c565b506040820135614e6c816141dd565b614e798160028401614e0c565b50600381016060830135614e8c81614775565b815461ffff191661ffff8216178255506080830135614eaa81614775565b815463ffff00001916601082901b63ffff0000161782555060a0830135614ed08161405b565b815467ffffffff000000008260201b1691508167ffffffff0000000019821617835560c0850135614f008161400c565b68ffffffffff00000000199190911690911790151560401b60ff60401b16178155614f4e614f3060e08501614c1b565b82805460ff60481b191691151560481b60ff60481b16919091179055565b611bca614f5e6101008501614c28565b82614c35565b60038110612fb157600080fd5b805161231681614f64565b8051612316816146f6565b805161231681614acf565b600082601f830112614fa357600080fd5b81516020614fb3614963836148f8565b82815260059290921b84018101918181019086841115614fd257600080fd5b8286015b8481101561515c5780516001600160401b0380821115614ff557600080fd5b9088019060a0828b03601f1901121561500d57600080fd5b615015614124565b86830151615022816141dd565b80825250604083015187820152606083015160408201526080830151606082015260a08301518281111561505557600080fd5b8084019350508a603f84011261506a57600080fd5b86830151915061507c614963836148f8565b82815261012092830284016040019288820191908d85111561509d57600080fd5b6040860195505b848610156151465780868f0312156150bb57600080fd5b6150c3614146565b6150cc87614f71565b81526150d98b8801614f7c565b8b8201526150e960408801614f7c565b60408201526150fa60608801614f87565b60608201526080870151608082015260a087015160a082015260c087015160c082015260e087015160e082015261010087015161010082015280845250898301925080860195506150a4565b5060808301525085525050918301918301614fd6565b509695505050505050565b6000806000806080858703121561517d57600080fd5b8451615188816141dd565b8094505060208086015193506040808701516001600160401b03808211156151af57600080fd5b818901915089601f8301126151c357600080fd5b81516151d1614963826148f8565b81815260069190911b8301850190858101908c8311156151f057600080fd5b938601935b828510156152395785858e03121561520d5760008081fd5b615215614169565b8551615220816141dd565b81528588015188820152825293850193908601906151f5565b60608c0151909850955050508084111561525257600080fd5b50505061526187828801614f92565b91505092959194509250565b634e487b7160e01b600052603260045260246000fd5b60008235603e1983360301811261529957600080fd5b9190910192915050565b6000602082840312156152b557600080fd5b8135600881106116b357600080fd5b6000808335601e198436030181126152db57600080fd5b8301803591506001600160401b038211156152f557600080fd5b60200191503681900382131561454657600080fd5b60008060a0838503121561531d57600080fd5b82356153288161405b565b915061533784602085016141fd565b90509250929050565b803561231681614f64565b600060e0828403121561535d57600080fd5b61536561418b565b90508135615372816146f6565b81526020820135615382816146f6565b60208201526040820135600f81900b811461539c57600080fd5b60408201526153ad606083016141f2565b60608201526153be60808301614785565b60808201526153cf60a0830161401a565b60a08201526153e060c08301615340565b60c082015292915050565b60008061010083850312156153ff57600080fd5b823561540a8161405b565b9150615337846020850161534b565b6000806000806080858703121561542f57600080fd5b843561543a8161405b565b9350602085013561544a816146f6565b9250604085013561545a816146f6565b9396929550929360600135925050565b60008060006060848603121561547f57600080fd5b8335925060208401356154918161405b565b915060408401356154a181614775565b809150509250925092565b60208101600883106154c0576154c06142ce565b91905290565b634e487b7160e01b600052601160045260246000fd5b60006000198214156154f0576154f06154c6565b5060010190565b6000821982111561550a5761550a6154c6565b500190565b600082821015615521576155216154c6565b500390565b6020808252602e908201527f496e697469616c697a61626c653a20636f6e747261637420697320616c72656160408201526d191e481a5b9a5d1a585b1a5e995960921b606082015260800190565b60006020828403121561558657600080fd5b5051919050565b8183823760009101908152919050565b6000602082840312156155af57600080fd5b81516001600160401b03808211156155c657600080fd5b818401915084601f8301126155da57600080fd5b8151818111156155ec576155ec6140e6565b6155ff601f8201601f19166020016141ad565b915080825285602082850101111561561657600080fd5b615627816020840160208601614598565b50949350505050565b602081526000611a8a60208301846145c4565b6000806040838503121561565657600080fd5b505080516020909101519092909150565b600060e0828403121561567957600080fd5b611a8a838361534b565b6001600160a01b0383168152608081016116b3602083018480516001600160a01b0316825260208082015163ffffffff16908301526040908101511515910152565b6000600160ff1b8214156156db576156db6154c6565b5060000390565b60006101608201905086825263ffffffff86166020830152845160020b6040830152602085015160020b60608301526040850151600f0b608083015260018060a01b0360608601511660a083015261ffff60808601511660c083015260a085015161575160e084018215159052565b5060c08501516157656101008401826142e4565b508361012083015261577c61014083018415159052565b9695505050505050565b600080821280156001600160ff1b03849003851316156157a8576157a86154c6565b600160ff1b83900384128116156157c1576157c16154c6565b50500190565b60008082840360808112156157db57600080fd5b835192506060601f19820112156157f157600080fd5b506157fa6140fc565b602084015181526040840151602082015260608401516040820152809150509250929050565b60008251615299818460208701614598565b60006001600160a01b0383811690831681811015615852576158526154c6565b039392505050565b60006001600160a01b0382811684821681151582840482111615615880576158806154c6565b02949350505050565b634e487b7160e01b600052601260045260246000fd5b60006001600160a01b03838116806158b9576158b9615889565b92169190910492915050565b60008160001904831182151516156158df576158df6154c6565b500290565b6000602082840312156158f657600080fd5b81516116b38161400c565b600080600080600080600060e0888a03121561591c57600080fd5b8751615927816141dd565b6020890151909750615938816146f6565b604089015190965061594981614775565b606089015190955061595a81614775565b608089015190945061596b81614775565b60a089015190935060ff8116811461598257600080fd5b60c08901519092506159938161400c565b8091505092959891949750929550565b6020808252825182820181905260009190848201906040850190845b818110156149dd57835163ffffffff16835292840192918401916001016159bf565b600082601f8301126159f257600080fd5b81516020615a02614963836148f8565b82815260059290921b84018101918181019086841115615a2157600080fd5b8286015b8481101561515c578051615a38816141dd565b8352918301918301615a25565b60008060408385031215615a5857600080fd5b82516001600160401b0380821115615a6f57600080fd5b818501915085601f830112615a8357600080fd5b81516020615a93614963836148f8565b82815260059290921b84018101918181019089841115615ab257600080fd5b948201945b83861015615ae05785518060060b8114615ad15760008081fd5b82529482019490820190615ab7565b91880151919650909350505080821115615af957600080fd5b50615b06858286016159e1565b9150509250929050565b60008160060b8360060b6000811281667fffffffffffff1901831281151615615b3b57615b3b6154c6565b81667fffffffffffff018313811615615b5657615b566154c6565b5090039392505050565b60008160060b8360060b80615b7757615b77615889565b667fffffffffffff19821460001982141615615b9557615b956154c6565b90059392505050565b60008260060b80615bb157615bb1615889565b808360060b0791505092915050565b60008160020b627fffff19811415615bda57615bda6154c6565b600019019291505056fea164736f6c634300080c000a",
  "deployedBytecode": "0x6080604052600436106102675760003560e01c806384088b6511610144578063d257be2b116100b6578063e1f167131161007a578063e1f1671314610a1c578063e3d41c1814610a3c578063e450f6f414610a5c578063e67ed1df14610a7c578063ee6cd5ee14610a9c578063fe6f083a14610abc57600080fd5b8063d257be2b14610971578063d38bfff414610991578063dac42a96146109b1578063dbc0c085146109d1578063dbd035ff146109ef57600080fd5b80639cd1be58116101085780639cd1be58146107335780639dca362f14610753578063ac9650d814610768578063b670ed521461077b578063b790230314610924578063bc38d5421461094457600080fd5b806384088b6514610594578063847e07a6146105d65780638ce25a93146105f657806393420cf41461060c57806394c8c71d1461071357600080fd5b80633d0aea3d116101dd578063569634d3116101a1578063569634d3146104c65780635aa6e675146104e65780635c975abb1461050a5780637cc2f4f5146105345780637ec6ba31146105545780637f64d6631461057457600080fd5b80633d0aea3d146104145780633d56a35e1461043457806340c4f69b1461045957806342be9fca1461048657806349fbd58d146104a657600080fd5b80631f84fa981161022f5780631f84fa981461032f5780632afaea371461034f57806332a72d981461036f57806339359029146103a45780633a64c245146103c45780633b561afc146103e457600080fd5b806302860bac1461026c578063127fec131461028e57806316c38b3c146102cb5780631a1feae1146102eb5780631e2eaeaf14610310575b600080fd5b34801561027857600080fd5b5061028c610287366004613fca565b610adc565b005b34801561029a57600080fd5b5060d4546102ae906001600160a01b031681565b6040516001600160a01b0390911681526020015b60405180910390f35b3480156102d757600080fd5b5061028c6102e6366004614025565b610b89565b3480156102f757600080fd5b506103026101395481565b6040519081526020016102c2565b34801561031c57600080fd5b5061030261032b366004614042565b5490565b34801561033b57600080fd5b5061028c61034a36600461406d565b610c1b565b34801561035b57600080fd5b5061028c61036a3660046140ae565b610cca565b34801561037b57600080fd5b5061038f61038a36600461427c565b610d0d565b604080519283526020830191909152016102c2565b3480156103b057600080fd5b5061028c6103bf3660046140ae565b610d5d565b3480156103d057600080fd5b5061028c6103df3660046142bb565b610d9c565b3480156103f057600080fd5b506104046103ff366004614042565b610e6e565b6040516102c294939291906142f8565b34801561042057600080fd5b5061028c61042f366004614485565b610f12565b34801561044057600080fd5b5060d2546102ae9061010090046001600160a01b031681565b34801561046557600080fd5b5061047961047436600461454d565b610f6b565b6040516102c291906145f0565b34801561049257600080fd5b506103026104a1366004614652565b6116ba565b3480156104b257600080fd5b5061028c6104c1366004614674565b611761565b3480156104d257600080fd5b5061028c6104e1366004614042565b611866565b3480156104f257600080fd5b506000546201000090046001600160a01b03166102ae565b34801561051657600080fd5b5060d2546105249060ff1681565b60405190151581526020016102c2565b34801561054057600080fd5b5061028c61054f366004614705565b611871565b34801561056057600080fd5b5061028c61056f366004614042565b611886565b34801561058057600080fd5b5061028c61058f366004614758565b6118d7565b3480156105a057600080fd5b506105b46105af366004614790565b6119a5565b60408051825181526020808401519082015291810151908201526060016102c2565b3480156105e257600080fd5b506103026105f13660046147cf565b6119f4565b34801561060257600080fd5b5061030260d05481565b34801561061857600080fd5b506106ad604080516080810182526000808252602082018190529181018290526060810182905250506066546040805160808101825260685461ffff8082168352620100008204811660208401526401000000008204169282019290925266010000000000009091046001600160801b03166060820152606954606a54606b546001600160a01b039094169492939192909190565b604080516001600160a01b039096168652845161ffff9081166020808901919091528601518116878301529085015116606080870191909152909301516001600160801b0316608085015260a084019190915260c083015260e0820152610100016102c2565b34801561071f57600080fd5b506105b461072e3660046147ff565b611a93565b34801561073f57600080fd5b5061028c61074e366004614652565b611b8d565b34801561075f57600080fd5b50610302611bcf565b610479610776366004614851565b611c7d565b34801561078757600080fd5b5061089b610796366004614892565b604080516080808201835260008083526020808401829052838501829052845160c08082018752838252818301849052818701849052606080830185905282860185905260a08084018690529681019290925263ffffffff978816845260648352928690208651808601885281546001600160a01b039081168252600183015481168286015260028301548116828a01528851958601895260039092015461ffff8082168752620100008204169486019490945264010000000084049098169684019690965260ff600160401b830481161515848301526901000000000000000000830416151593830193909352600160501b90049093169183019190915282015290565b6040805182516001600160a01b03908116825260208085015182168184015284840151821683850152606094850151805161ffff90811687860152918101519091166080808501919091529381015163ffffffff1660a08085019190915294810151151560c084015292830151151560e0830152919092015116610100820152610120016102c2565b34801561093057600080fd5b5060d3546102ae906001600160a01b031681565b34801561095057600080fd5b5061096461095f366004614892565b611dcd565b6040516102c291906148af565b34801561097d57600080fd5b5061038f61098c366004614758565b611e6c565b34801561099d57600080fd5b5061028c6109ac366004614758565b611e96565b3480156109bd57600080fd5b506105246109cc366004614892565b611f58565b3480156109dd57600080fd5b506001546001600160a01b03166102ae565b3480156109fb57600080fd5b50610a0f610a0a36600461491b565b611f7d565b6040516102c291906149a5565b348015610a2857600080fd5b5061028c610a37366004614851565b611fab565b348015610a4857600080fd5b50610302610a57366004614042565b6120f7565b348015610a6857600080fd5b50610302610a773660046149e9565b612181565b348015610a8857600080fd5b5061038f610a97366004614a15565b612198565b348015610aa857600080fd5b5061038f610ab7366004614a3a565b612236565b348015610ac857600080fd5b50610302610ad7366004614a85565b612287565b6001546001600160a01b03163314801590610b0957506000546001600160a01b0362010000909104163314155b15610b2757604051636bd1573560e11b815260040160405180910390fd5b836068610b348282614ae4565b5050606a839055606b82905560698190556040517f9b7ffeda0929d0ea3dfe5fb734043c56bf81827477ac95216f2b700fb921f03f90610b7b908690869086908690614ba1565b60405180910390a150505050565b6001546001600160a01b03163314801590610bb657506000546001600160a01b0362010000909104163314155b15610bd457604051636bd1573560e11b815260040160405180910390fd5b60d2805460ff19168215159081179091556040519081527f31311016d7204faff81880133e3db244ae8a8b9ce15e83e2432258226d15f9429060200160405180910390a150565b6001546001600160a01b03163314801590610c4857506000546001600160a01b0362010000909104163314155b15610c6657604051636bd1573560e11b815260040160405180910390fd5b63ffffffff821660009081526064602052604090208190600301610c8a8282614c73565b9050507ff924257f2f033f654a9c9dab9dc1725c901932a7187872fda504e76a9b6412de8282604051610cbe929190614d52565b60405180910390a15050565b60d25460ff1615610cee576040516313d0ff5960e31b815260040160405180910390fd5b6000610cf9846122d5565b9050610d078482858561231b565b50505050565b60d254600090819060ff1615610d36576040516313d0ff5960e31b815260040160405180910390fd5b6000610d41866122d5565b9050610d508186866001612424565b9250925050935093915050565b60d25460ff1615610d81576040516313d0ff5960e31b815260040160405180910390fd5b6000610d8c846122d5565b9050610d078482858560016125ea565b60d25461010090046001600160a01b03163314610dcc576040516385734f3160e01b815260040160405180910390fd5b6000610de7610dde6020840184614758565b63ffffffff1690565b63ffffffff81166000908152606460205260409020549091506001600160a01b031615610e1657610e16614df6565b63ffffffff811660009081526064602052604090208290610e378282614e2c565b9050507ff924257f2f033f654a9c9dab9dc1725c901932a7187872fda504e76a9b6412de8183606001604051610cbe929190614d52565b600081815260d16020526040808220905163a0ba775760e01b81526004810191909152606460248201528190606090819073__$86182d6e9eac51236f2aa8dd2a3ddeab6c$__9063a0ba775790604401600060405180830381865af4158015610edb573d6000803e3d6000fd5b505050506040513d6000823e601f3d908101601f19168201604052610f039190810190615167565b93509350935093509193509193565b6001546001600160a01b03163314801590610f3f57506000546001600160a01b0362010000909104163314155b15610f5d57604051636bd1573560e11b815260040160405180910390fd5b610f678282612702565b5050565b6060816001600160401b03811115610f8557610f856140e6565b604051908082528060200260200182016040528015610fb857816020015b6060815260200190600190039081610fa35790505b5090506000610fc6856122d5565b90506000805b848110156115cd576000868683818110610fe857610fe861526d565b9050602002810190610ffa9190615283565b6110089060208101906152a3565b6007811115611019576110196142ce565b1415611078576000808787848181106110345761103461526d565b90506020028101906110469190615283565b6110549060208101906152c4565b81019061106191906149e9565b915091506110718986848461231b565b50506115bb565b600186868381811061108c5761108c61526d565b905060200281019061109e9190615283565b6110ac9060208101906152a3565b60078111156110bd576110bd6142ce565b1415611117576000808787848181106110d8576110d861526d565b90506020028101906110ea9190615283565b6110f89060208101906152c4565b81019061110591906149e9565b915091506110718986848460006125ea565b600286868381811061112b5761112b61526d565b905060200281019061113d9190615283565b61114b9060208101906152a3565b600781111561115c5761115c6142ce565b14156111bb5760008686838181106111765761117661526d565b90506020028101906111889190615283565b6111969060208101906152c4565b8101906111a39190614042565b90506111b1848260006128a6565b60019250506115bb565b60038686838181106111cf576111cf61526d565b90506020028101906111e19190615283565b6111ef9060208101906152a3565b6007811115611200576112006142ce565b14156112aa5760008087878481811061121b5761121b61526d565b905060200281019061122d9190615283565b61123b9060208101906152c4565b810190611248919061530a565b9150915060008061125c8785856000612424565b604080516020810184905290810182905291935091506060016040516020818303038152906040528886815181106112965761129661526d565b6020026020010181905250505050506115bb565b60048686838181106112be576112be61526d565b90506020028101906112d09190615283565b6112de9060208101906152a3565b60078111156112ef576112ef6142ce565b141561134b5760008087878481811061130a5761130a61526d565b905060200281019061131c9190615283565b61132a9060208101906152c4565b81019061133791906153eb565b9150915060008061125c8785856000612a0c565b600586868381811061135f5761135f61526d565b90506020028101906113719190615283565b61137f9060208101906152a3565b6007811115611390576113906142ce565b14156113fa576000806000808989868181106113ae576113ae61526d565b90506020028101906113c09190615283565b6113ce9060208101906152c4565b8101906113db9190615419565b93509350935093506113f08b85858585612b21565b50505050506115bb565b600686868381811061140e5761140e61526d565b90506020028101906114209190615283565b61142e9060208101906152a3565b600781111561143f5761143f6142ce565b141561145657611450876000612c21565b506115bb565b600786868381811061146a5761146a61526d565b905060200281019061147c9190615283565b61148a9060208101906152a3565b600781111561149b5761149b6142ce565b14156115665760008060008888858181106114b8576114b861526d565b90506020028101906114ca9190615283565b6114d89060208101906152c4565b8101906114e5919061546a565b60008d815260d16020526040808220858352908220949750929550909350611511929085908590612d8b565b6040805182516020808301919091528301518183015291015160608201526080016040516020818303038152906040528785815181106115535761155361526d565b60200260200101819052505050506115bb565b8585828181106115785761157861526d565b905060200281019061158a9190615283565b6115989060208101906152a3565b604051633164e52160e11b81526004016115b291906154ac565b60405180910390fd5b806115c5816154dc565b915050610fcc565b50801561163f5760405163651524ed60e01b8152600481018390526064602482015273__$86182d6e9eac51236f2aa8dd2a3ddeab6c$__9063651524ed9060440160006040518083038186803b15801561162657600080fd5b505af415801561163a573d6000803e3d6000fd5b505050505b60405163998c533560e01b8152600481018390526001602482015260646044820181905273__$86182d6e9eac51236f2aa8dd2a3ddeab6c$__9163998c5335910160006040518083038186803b15801561169857600080fd5b505af41580156116ac573d6000803e3d6000fd5b5050505050505b9392505050565b60008180156117435760006116cd612ecf565b5a6116d891906154f7565b90506116e46044612f87565b6116ee8585612c21565b925060006116fa612ecf565b5a61170591906154f7565b61170f908361550f565b90508083111561173c57604051634010928f60e01b815260048101849052602481018290526044016115b2565b505061175a565b61174d6044612f87565b6117578484612c21565b91505b5092915050565b600054610100900460ff168061177a575060005460ff16155b6117965760405162461bcd60e51b81526004016115b290615526565b600054610100900460ff161580156117b8576000805461ffff19166101011790555b60d28054610100600160a81b0319166101006001600160a01b038a81169190910291909117909155606780546001600160a01b03199081168984161790915560d38054821687841617905560d48054821685841617905560668054909116858316179055604080516060810182529187168252603c6020830152600190820152611843908790612702565b61184b612fb4565b801561185d576000805461ff00191690555b50505050505050565b610f67816000612c21565b61187f848484846000612b21565b5050505050565b6001546001600160a01b031633148015906118b357506000546001600160a01b0362010000909104163314155b156118d157604051636bd1573560e11b815260040160405180910390fd5b61013955565b6001546001600160a01b0316331480159061190457506000546001600160a01b0362010000909104163314155b1561192257604051636bd1573560e11b815260040160405180910390fd5b6001600160a01b0381166119495760405163d92e233d60e01b815260040160405180910390fd5b6001546040516001600160a01b038084169216907f39355f2f5c8206286978f443aa8126bbd29fa09c53c04569502647f3a59c8cb290600090a3600180546001600160a01b0319166001600160a01b0392909216919091179055565b6119c960405180606001604052806000815260200160008152602001600081525090565b600085815260d160205260408082208683529082206119eb9286908690612d8b565b95945050505050565b600082815260d160205260408082209051637188a1ed60e01b8152600481019190915263ffffffff8316602482015260646044820181905273__$86182d6e9eac51236f2aa8dd2a3ddeab6c$__91637188a1ed9101602060405180830381865af4158015611a66573d6000803e3d6000fd5b505050506040513d601f19601f82011682018060405250810190611a8a9190615574565b90505b92915050565b611ab760405180606001604052806000815260200160008152602001600081525090565b818015611b55576000611ac8612ecf565b5a611ad391906154f7565b9050611adf60a4612f87565b600088815260d160205260408082208983529120611b009190888888612d8b565b92506000611b0c612ecf565b5a611b1791906154f7565b611b21908361550f565b905080831115611b4e57604051634010928f60e01b815260048101849052602481018290526044016115b2565b5050611b83565b611b5f60a4612f87565b600087815260d160205260408082208883529120611b809190878787612d8b565b91505b5095945050505050565b60d25460ff1615611bb1576040516313d0ff5960e31b815260040160405180910390fd5b6000611bbc836122d5565b9050611bca818360016128a6565b505050565b60d25460009060ff1615611bf6576040516313d0ff5960e31b815260040160405180910390fd5b5060d054611c058160016154f7565b60d055600081815260d160209081526040918290206bffffffffffffffffffffffff1933600160601b8102919091166bffffffffffffffffffffffff861617825592518481529092917f7325fb14450d3e5eb288c620b4ff1d6b43a41b33b4a4f143ae88cd4c12f99ea3910160405180910390a25090565b6060816001600160401b03811115611c9757611c976140e6565b604051908082528060200260200182016040528015611cca57816020015b6060815260200190600190039081611cb55790505b50905060005b8281101561175a5760008030868685818110611cee57611cee61526d565b9050602002810190611d0091906152c4565b604051611d0e92919061558d565b600060405180830381855af49150503d8060008114611d49576040519150601f19603f3d011682016040523d82523d6000602084013e611d4e565b606091505b509150915081611d9a57604481511015611d6757600080fd5b60048101905080806020019051810190611d81919061559d565b60405162461bcd60e51b81526004016115b29190615630565b80848481518110611dad57611dad61526d565b602002602001018190525050508080611dc5906154dc565b915050611cd0565b611e0060408051808201825260008082528251606081018452818152602081810183905293810191909152909182015290565b5063ffffffff9081166000908152606560209081526040918290208251808401845281546001600160a01b03908116825284516060810186526001909301549081168352600160a01b810490951682840152600160c01b90940460ff1615159281019290925282015290565b60008063ffffffff8316611e81606482612fbf565b9250611e8e606482613030565b915050915091565b6000546001600160a01b0362010000909104163314611ec857604051636bd1573560e11b815260040160405180910390fd5b6001600160a01b038116611eef5760405163d92e233d60e01b815260040160405180910390fd5b600080546040516001600160a01b03808516936201000090930416917f5f56bee8cffbe9a78652a74a60705edede02af10b0bbb888ca44b79a0d42ce8091a3600080546001600160a01b03909216620100000262010000600160b01b0319909216919091179055565b63ffffffff81166000908152606460205260408120546001600160a01b031615611a8d565b606060208251028201602001602083015b81811015611fa3578051548152602001611f8e565b509192915050565b6000805b828110156120ce576000848483818110611fcb57611fcb61526d565b9050602002016020810190611fe09190614758565b6001600160a01b0316635e622abc6040518163ffffffff1660e01b81526004016020604051808303816000875af115801561201f573d6000803e3d6000fd5b505050506040513d601f19601f820116820180604052508101906120439190615574565b90508484838181106120575761205761526d565b905060200201602081019061206c9190614758565b6001600160a01b03167fa087657e3d85162090ffd700fbfdf5070d816f63aa5da00063f6ffd369c8a6db826040516120a691815260200190565b60405180910390a26120b881846154f7565b92505080806120c6906154dc565b915050611faf565b50611bca6120e46001546001600160a01b031690565b6067546001600160a01b0316908361304d565b600081815260d16020526040808220905163625915c360e11b815260048101919091526064602482015273__$86182d6e9eac51236f2aa8dd2a3ddeab6c$__9063c4b22b8690604401602060405180830381865af415801561215d573d6000803e3d6000fd5b505050506040513d601f19601f82011682018060405250810190611a8d9190615574565b600061218b611bcf565b9050611a8d818484610cca565b600082815260d16020526040808220905163031b5fcd60e21b815260048101919091528215156024820152606460448201819052829173__$86182d6e9eac51236f2aa8dd2a3ddeab6c$__91630c6d7f3491016040805180830381865af4158015612207573d6000803e3d6000fd5b505050506040513d601f19601f8201168201806040525081019061222b9190615643565b909590945092505050565b60d254600090819060ff161561225f576040516313d0ff5960e31b815260040160405180910390fd5b600061226a866122d5565b9050610d50818661228036889003880188615667565b6001612a0c565b60008180156122be57600061229a612ecf565b5a6122a591906154f7565b90506122b160a4612f87565b611b008888888888612b21565b6122c860a4612f87565b611b808787878787612b21565b600081815260d1602052604090208054600160601b90046001600160a01b0316331461231657604051630504a20d60e01b81523360048201526024016115b2565b919050565b60d25460ff161561233f576040516313d0ff5960e31b815260040160405180910390fd5b600061234c8360016130b0565b8054909150612366906001600160a01b031633308561313a565b604051637ef9c64360e11b81526004810185905263ffffffff841660248201526044810183905273__$86182d6e9eac51236f2aa8dd2a3ddeab6c$__9063fdf38c869060640160006040518083038186803b1580156123c457600080fd5b505af41580156123d8573d6000803e3d6000fd5b505050508263ffffffff16857f8ad78786fd90bf16daca318ca19c5c1f8b0e4b6a666538a76d128092d48514c28460405161241591815260200190565b60405180910390a35050505050565b60d254600090819060ff161561244d576040516313d0ff5960e31b815260040160405180910390fd5b61245685613172565b60408051630a067b0f60e11b81526004810188905263ffffffff871660248201528551604482015260208601516001600160a01b031660648083019190915291860151151560848201526060860151151560a482015260c481019190915283151560e482015273__$86182d6e9eac51236f2aa8dd2a3ddeab6c$__9063140cf61e90610104016040805180830381865af41580156124f8573d6000803e3d6000fd5b505050506040513d601f19601f8201168201806040525081019061251c9190615643565b9092509050600061252c82613202565b606b54909150811015612555576040516312b6b5cd60e11b8152600481018290526024016115b2565b60208501516001600160a01b03161580159061257357508460600151155b156125e0578460400151801561259a5750845161258f90613202565b61259883613202565b145b806125c3575084604001511580156125c3575084516125b890613202565b6125c184613202565b145b6125e0576040516307a1db0760e01b815260040160405180910390fd5b5094509492505050565b60d25460ff161561260e576040516313d0ff5960e31b815260040160405180910390fd5b600061261b8460006130b0565b6040516362b3b6bb60e11b81526004810187905263ffffffff8616602482015260448101859052606480820152831515608482015290915073__$86182d6e9eac51236f2aa8dd2a3ddeab6c$__9063c5676d769060a40160006040518083038186803b15801561268a57600080fd5b505af415801561269e573d6000803e3d6000fd5b505082546126b992506001600160a01b03169050338561304d565b8363ffffffff16867fe0c7ec5663c36969e5662da59bc1ede9566e08300e34eb2da7746d9f262c5d80856040516126f291815260200190565b60405180910390a3505050505050565b63ffffffff82166001600160a01b038316612733576040516376d8a93160e01b8152600060048201526024016115b2565b63ffffffff81166000908152606560205260409020546001600160a01b03161515801561278c575063ffffffff80821660009081526065602052604090205461278a916001600160a01b0390911690859061321d16565b155b156127d55763ffffffff81166000908152606560205260409081902054905163a5d4d0b560e01b81526001600160a01b03808616600483015290911660248201526044016115b2565b6040805180820182526001600160a01b038581168252602080830186815263ffffffff868116600090815260658452869020945185546001600160a01b03191690851617855590518051600190950180549382015191870151959094166001600160c01b031990931692909217600160a01b92909116919091021760ff60c01b1916600160c01b92151592909202919091179055517f52983c04d8ccd4808cd0fcb24e6e48106ecb41e803d6270c6c94a15e3ebd08d2906128999085908590615683565b60405180910390a1505050565b60d25460ff16156128ca576040516313d0ff5960e31b815260040160405180910390fd5b816129015760405162461bcd60e51b815260206004820152600760248201526608585b5bdd5b9d60ca1b60448201526064016115b2565b60405163d25c4a6f60e01b815260048101849052602481018390526064604482018190528215159082015273__$86182d6e9eac51236f2aa8dd2a3ddeab6c$__9063d25c4a6f9060840160006040518083038186803b15801561296357600080fd5b505af4158015612977573d6000803e3d6000fd5b5050505060008213156129a15760675461299c906001600160a01b031633308561313a565b6129c1565b6129c1336129ae846156c5565b6067546001600160a01b0316919061304d565b82546040518381526bffffffffffffffffffffffff909116907f34e55ef9f5cf05f9a666ce27e7dcee31bb2a4e21eccaa3ea58a8358117b1547a9060200160405180910390a2505050565b60d254600090819060ff1615612a35576040516313d0ff5960e31b815260040160405180910390fd5b612a3e85613172565b60608401516001600160a01b031615612a6457612a64858560600151866080015161322e565b60405163c27789d160e01b815273__$86182d6e9eac51236f2aa8dd2a3ddeab6c$__9063c27789d190612aa4908990899089906064908a906004016156e2565b6040805180830381865af4158015612ac0573d6000803e3d6000fd5b505050506040513d601f19601f82011682018060405250810190612ae49190615643565b90925090506000612af886848460646132c0565b606b549091508110156125e0576040516312b6b5cd60e11b8152600481018290526024016115b2565b60d25460009060ff1615612b48576040516313d0ff5960e31b815260040160405180910390fd5b600086815260d160205260409020612b5f86613172565b612b68836132f7565b606a54612b7591906154f7565b604051637022478560e11b81526004810183905263ffffffff88166024820152600287810b604483015286900b6064808301919091526084820183905260a482015290925073__$86182d6e9eac51236f2aa8dd2a3ddeab6c$__9063e0448f0a9060c40160006040518083038186803b158015612bf157600080fd5b505af4158015612c05573d6000803e3d6000fd5b5050606754611b8392506001600160a01b03169050338461304d565b60d25460009060ff1615612c48576040516313d0ff5960e31b815260040160405180910390fd5b600083815260d1602052604081209073__$86182d6e9eac51236f2aa8dd2a3ddeab6c$__6322e440c483612c7b876132f7565b6040516001600160e01b031960e085901b16815260048101929092526024820152606460448201819052016040805180830381865af4158015612cc2573d6000803e3d6000fd5b505050506040513d601f19601f82011682018060405250810190612ce69190615643565b90935090506000612cf78285615786565b905060008413612d1d5760405163ef37dcc760e01b8152600481018590526024016115b2565b606754612d34906001600160a01b0316338661304d565b612d3d82613407565b6040805182815260208101869052908101839052339087907fcfb6806c7e1accb0c7e5835aded9e714525c0588e5609d5ae1a3c8f6b68586a79060600160405180910390a350505092915050565b612daf60405180606001604052806000815260200160008152602001600081525090565b60d25460ff1615612dd3576040516313d0ff5960e31b815260040160405180910390fd5b6127108361ffff161115612dfa576040516348d69f3560e01b815260040160405180910390fd5b612e0384613172565b600073__$86182d6e9eac51236f2aa8dd2a3ddeab6c$__632a2d44e587898789612e2c896132f7565b6040516001600160e01b031960e088901b1681526004810195909552602485019390935261ffff909116604484015263ffffffff16606483810191909152608483019190915260a4820152600160c482015260e401608060405180830381865af4158015612e9e573d6000803e3d6000fd5b505050506040513d601f19601f82011682018060405250810190612ec291906157c7565b92509050611b8381613407565b60408051600481526024810182526020810180516001600160e01b031663a94597ff60e01b179052905160009182918291606491612f0d9190615820565b600060405180830381855afa9150503d8060008114612f48576040519150601f19603f3d011682016040523d82523d6000602084013e612f4d565b606091505b5091509150811580612f5e57508051155b15612f6c5760009250505090565b80806020019051810190612f809190615574565b9250505090565b36811015612fb157604051634219202560e01b8152366004820152602481018290526044016115b2565b50565b33612fb18180613493565b63ffffffff81811660009081526020849052604080822060030154905163dd86c10160e01b8152640100000000820490931660048401529091600160501b9091046001600160a01b03169063dd86c10190602401602060405180830381865afa158015611a66573d6000803e3d6000fd5b6000611a8a61303f848461359b565b6001600160a01b03166135dd565b6040516001600160a01b038316602482015260448101829052611bca90849063a9059cbb60e01b906064015b60408051601f198184030181529190526020810180516001600160e01b03166001600160e01b03199093169290921790915261364a565b63ffffffff8216600090815260656020526040902080546001600160a01b03166130f55760405163b087c8c360e01b815263ffffffff841660048201526024016115b2565b81801561310e57506001810154600160c01b900460ff16155b15611a8d57805460405163a006afaf60e01b81526001600160a01b0390911660048201526024016115b2565b6040516001600160a01b0380851660248301528316604482015260648101829052610d079085906323b872dd60e01b90608401613079565b63ffffffff81166000908152606460205260409020546001600160a01b0316806131b75760405163b087c8c360e01b815263ffffffff831660048201526024016115b2565b63ffffffff8216600090815260646020526040902060030154600160401b900460ff16610f6757604051631079472960e21b81526001600160a01b03821660048201526024016115b2565b600080821361321957613214826156c5565b611a8d565b5090565b6001600160a01b0390811691161490565b600061323b60648561371c565b90506000836001600160a01b0316826001600160a01b031611613267576132628285615832565b613271565b6132718483615832565b90506127106132848561ffff861661585a565b61328e919061589f565b6001600160a01b0316816001600160a01b0316111561187f576040516307a1db0760e01b815260040160405180910390fd5b60006132cb83613747565b6132ed6132d88488613030565b600160801b6132e688613747565b9190613752565b6119eb91906154f7565b60003a6101395481111561332d5761013954604051638dfe587d60e01b81526115b2918391600401918252602082015260400190565b821580613343575060d4546001600160a01b0316155b156133515760009150613401565b60003332141561336657613363613800565b90505b60006133723a866158c5565b60d45460405163dd86c10160e01b815261012c60048201529192506000916001600160a01b039091169063dd86c10190602401602060405180830381865afa1580156133c2573d6000803e3d6000fd5b505050506040513d601f19601f820116820180604052508101906133e69190615574565b90506133fb81600160801b6132e685876154f7565b94505050505b50919050565b600081131561342d5760d354606754612fb1916001600160a01b0391821691168361304d565b60d3546001600160a01b031663379607f5613447836156c5565b6040518263ffffffff1660e01b815260040161346591815260200190565b600060405180830381600087803b15801561347f57600080fd5b505af115801561187f573d6000803e3d6000fd5b600054610100900460ff16806134ac575060005460ff16155b6134c85760405162461bcd60e51b81526004016115b290615526565b600054610100900460ff161580156134ea576000805461ffff19166101011790555b6000805462010000600160b01b031916620100006001600160a01b0386169081029190911782556040519091907f5f56bee8cffbe9a78652a74a60705edede02af10b0bbb888ca44b79a0d42ce80908290a3600180546001600160a01b0319166001600160a01b0384169081179091556040516000907f39355f2f5c8206286978f443aa8126bbd29fa09c53c04569502647f3a59c8cb2908290a38015611bca576000805461ff0019169055505050565b63ffffffff808216600090815260208490526040812060038101546001909101549192611a8a926001600160a01b031691640100000000900481169061383e16565b60006401000276a36001600160a01b0383161080613618575073fffd8963efd1fc6a506488495d951d5263988d266001600160a01b03831610155b1561364157604051635d236c4560e01b81526001600160a01b03831660048201526024016115b2565b611a8d8261385f565b600061369f826040518060400160405280602081526020017f5361666545524332303a206c6f772d6c6576656c2063616c6c206661696c6564815250856001600160a01b03166138799092919063ffffffff16565b805190915015611bca57808060200190518101906136bd91906158e4565b611bca5760405162461bcd60e51b815260206004820152602a60248201527f5361666545524332303a204552433230206f7065726174696f6e20646964206e6044820152691bdd081cdd58d8d9595960b21b60648201526084016115b2565b63ffffffff8116600090815260208390526040812060010154611a8a906001600160a01b0316613890565b6000611a8d82613202565b60008080600019858709858702925082811083820303915050806000141561378c576000841161378157600080fd5b5082900490506116b3565b80841161379857600080fd5b600084868809851960019081018716968790046003810260029081188083028203028083028203028083028203028083028203028083028203029182029003026000889003889004909101858311909403939093029303949094049190911702949350505050565b60408051600481526024810182526020810180516001600160e01b031663637bef0760e11b179052905160009182918291606491612f0d9190615820565b6000806138546001600160a01b0385168461391a565b905061175781613b36565b6000611a8d6001600160a01b03831680600160401b613752565b60606138888484600085613e69565b949350505050565b600080826001600160a01b0316633850c7bd6040518163ffffffff1660e01b815260040160e060405180830381865afa1580156138d1573d6000803e3d6000fd5b505050506040513d601f19601f820116820180604052508101906138f59190615901565b509496509294505050506001600160a01b03831615159050613401576116b381613b36565b600063ffffffff8216613943576040516351a4d88160e01b8152600060048201526024016115b2565b60408051600280825260608201835260009260208301908036833701905050905082816000815181106139785761397861526d565b602002602001019063ffffffff16908163ffffffff16815250506000816001815181106139a7576139a761526d565b63ffffffff9092166020928302919091019091015260405163883bdbfd60e01b81526001600160a01b0385169063883bdbfd906139e89084906004016159a3565b600060405180830381865afa925050508015613a2657506040513d6000823e601f3d908101601f19168201604052613a239190810190615a45565b60015b613a9b57836001600160a01b0316633850c7bd6040518163ffffffff1660e01b815260040160e060405180830381865afa158015613a68573d6000803e3d6000fd5b505050506040513d601f19601f82011682018060405250810190613a8c9190615901565b5093965061175a945050505050565b600082600081518110613ab057613ab061526d565b602002602001015183600181518110613acb57613acb61526d565b6020026020010151613add9190615b10565b90506000613af163ffffffff881683615b60565b905060008260060b128015613b175750613b1163ffffffff881683615b9e565b60060b15155b15613b2a5780613b2681615bc0565b9150505b9450611a8d9350505050565b60008060008360020b12613b4d578260020b613b55565b8260020b6000035b9050620d89e8811115613b8e5760405162461bcd60e51b81526020600482015260016024820152601560fa1b60448201526064016115b2565b600060018216613ba257600160801b613bb4565b6ffffcb933bd6fad37aa2d162d1a5940015b70ffffffffffffffffffffffffffffffffff1690506002821615613be8576ffff97272373d413259a46990580e213a0260801c5b6004821615613c07576ffff2e50f5f656932ef12357cf3c7fdcc0260801c5b6008821615613c26576fffe5caca7e10e4e61c3624eaa0941cd00260801c5b6010821615613c45576fffcb9843d60f6159c9db58835c9266440260801c5b6020821615613c64576fff973b41fa98c081472e6896dfb254c00260801c5b6040821615613c83576fff2ea16466c96a3843ec78b326b528610260801c5b6080821615613ca2576ffe5dee046a99a2a811c461f1969c30530260801c5b610100821615613cc2576ffcbe86c7900a88aedcffc83b479aa3a40260801c5b610200821615613ce2576ff987a7253ac413176f2b074cf7815e540260801c5b610400821615613d02576ff3392b0822b70005940c7a398e4b70f30260801c5b610800821615613d22576fe7159475a2c29b7443b29c7fa6e889d90260801c5b611000821615613d42576fd097f3bdfd2022b8845ad8f792aa58250260801c5b612000821615613d62576fa9f746462d870fdf8a65dc1f90e061e50260801c5b614000821615613d82576f70d869a156d2a1b890bb3df62baf32f70260801c5b618000821615613da2576f31be135f97d08fd981231505542fcfa60260801c5b62010000821615613dc3576f09aa508b5b7a84e1c677de54f3e99bc90260801c5b62020000821615613de3576e5d6af8dedb81196699c329225ee6040260801c5b62040000821615613e02576d2216e584f5fa1ea926041bedfe980260801c5b62080000821615613e1f576b048a170391f7dc42444e8fa20260801c5b60008460020b1315613e40578060001981613e3c57613e3c615889565b0490505b640100000000810615613e54576001613e57565b60005b60ff16602082901c0192505050919050565b606082471015613eca5760405162461bcd60e51b815260206004820152602660248201527f416464726573733a20696e73756666696369656e742062616c616e636520666f6044820152651c8818d85b1b60d21b60648201526084016115b2565b843b613f185760405162461bcd60e51b815260206004820152601d60248201527f416464726573733a2063616c6c20746f206e6f6e2d636f6e747261637400000060448201526064016115b2565b600080866001600160a01b03168587604051613f349190615820565b60006040518083038185875af1925050503d8060008114613f71576040519150601f19603f3d011682016040523d82523d6000602084013e613f76565b606091505b5091509150613f86828286613f91565b979650505050505050565b60608315613fa05750816116b3565b825115613fb05782518084602001fd5b8160405162461bcd60e51b81526004016115b29190615630565b60008060008084860360e0811215613fe157600080fd5b6080811215613fef57600080fd5b5093956080870135955060a0870135945060c08701359350915050565b8015158114612fb157600080fd5b80356123168161400c565b60006020828403121561403757600080fd5b81356116b38161400c565b60006020828403121561405457600080fd5b5035919050565b63ffffffff81168114612fb157600080fd5b60008082840360e081121561408157600080fd5b833561408c8161405b565b925060c0601f19820112156140a057600080fd5b506020830190509250929050565b6000806000606084860312156140c357600080fd5b8335925060208401356140d58161405b565b929592945050506040919091013590565b634e487b7160e01b600052604160045260246000fd5b604051606081016001600160401b038111828210171561411e5761411e6140e6565b60405290565b60405160a081016001600160401b038111828210171561411e5761411e6140e6565b60405161012081016001600160401b038111828210171561411e5761411e6140e6565b604080519081016001600160401b038111828210171561411e5761411e6140e6565b60405160e081016001600160401b038111828210171561411e5761411e6140e6565b604051601f8201601f191681016001600160401b03811182821017156141d5576141d56140e6565b604052919050565b6001600160a01b0381168114612fb157600080fd5b8035612316816141dd565b60006080828403121561420f57600080fd5b604051608081018181106001600160401b0382111715614231576142316140e6565b604052823581529050806020830135614249816141dd565b6020820152604083013561425c8161400c565b6040820152606083013561426f8161400c565b6060919091015292915050565b600080600060c0848603121561429157600080fd5b8335925060208401356142a38161405b565b91506142b285604086016141fd565b90509250925092565b6000610120828403121561340157600080fd5b634e487b7160e01b600052602160045260246000fd5b600381106142f4576142f46142ce565b9052565b6000608080830160018060a01b038089168552602088818701526040848188015283895180865260a089019150838b01955060005b8181101561435457865180518716845285015185840152958401959183019160010161432d565b5050878103606089015288518082528382019550600581901b82018401848b0160005b8381101561447157848303601f19018952815180518916845287810151888501528681015187850152606080820151908501528a015160a08b850181905281519085018190529088019060009060c08601905b8083101561445c5783516143df8382516142e4565b8b8101518060020b8d850152508a81015160020b8b840152606081015161441160608501826001600160801b03169052565b508e8101518f84015260a081015160a084015260c081015160c084015260e081015160e084015261010080820151818501525050610120820191508a840193506001830192506143ca565b509a89019a9450505090860190600101614377565b50909e9d5050505050505050505050505050565b600080828403608081121561449957600080fd5b83356144a4816141dd565b92506060601f19820112156144b857600080fd5b506144c16140fc565b60208401356144cf816141dd565b815260408401356144df8161405b565b602082015260608401356144f28161400c565b6040820152919491935090915050565b60008083601f84011261451457600080fd5b5081356001600160401b0381111561452b57600080fd5b6020830191508360208260051b850101111561454657600080fd5b9250929050565b60008060006040848603121561456257600080fd5b8335925060208401356001600160401b0381111561457f57600080fd5b61458b86828701614502565b9497909650939450505050565b60005b838110156145b357818101518382015260200161459b565b83811115610d075750506000910152565b600081518084526145dc816020860160208601614598565b601f01601f19169290920160200192915050565b6000602080830181845280855180835260408601915060408160051b870101925083870160005b8281101561464557603f198886030184526146338583516145c4565b94509285019290850190600101614617565b5092979650505050505050565b6000806040838503121561466557600080fd5b50508035926020909101359150565b60008060008060008060c0878903121561468d57600080fd5b8635614698816141dd565b955060208701356146a8816141dd565b945060408701356146b8816141dd565b935060608701356146c8816141dd565b925060808701356146d8816141dd565b915060a08701356146e8816141dd565b809150509295509295509295565b8060020b8114612fb157600080fd5b6000806000806080858703121561471b57600080fd5b84359350602085013561472d8161405b565b9250604085013561473d816146f6565b9150606085013561474d816146f6565b939692955090935050565b60006020828403121561476a57600080fd5b81356116b3816141dd565b61ffff81168114612fb157600080fd5b803561231681614775565b600080600080608085870312156147a657600080fd5b843593506020850135925060408501356147bf8161405b565b9150606085013561474d81614775565b600080604083850312156147e257600080fd5b8235915060208301356147f48161405b565b809150509250929050565b600080600080600060a0868803121561481757600080fd5b853594506020860135935060408601356148308161405b565b9250606086013561484081614775565b949793965091946080013592915050565b6000806020838503121561486457600080fd5b82356001600160401b0381111561487a57600080fd5b61488685828601614502565b90969095509350505050565b6000602082840312156148a457600080fd5b81356116b38161405b565b81516001600160a01b03168152602080830151608083019161175a9084018280516001600160a01b0316825260208082015163ffffffff16908301526040908101511515910152565b60006001600160401b03821115614911576149116140e6565b5060051b60200190565b6000602080838503121561492e57600080fd5b82356001600160401b0381111561494457600080fd5b8301601f8101851361495557600080fd5b8035614968614963826148f8565b6141ad565b81815260059190911b8201830190838101908783111561498757600080fd5b928401925b82841015613f865783358252928401929084019061498c565b6020808252825182820181905260009190848201906040850190845b818110156149dd578351835292840192918401916001016149c1565b50909695505050505050565b600080604083850312156149fc57600080fd5b8235614a078161405b565b946020939093013593505050565b60008060408385031215614a2857600080fd5b8235915060208301356147f48161400c565b6000806000838503610120811215614a5157600080fd5b843593506020850135614a638161405b565b925060e0603f1982011215614a7757600080fd5b506040840190509250925092565b600080600080600060a08688031215614a9d57600080fd5b853594506020860135614aaf8161405b565b93506040860135614abf816146f6565b92506060860135614840816146f6565b6001600160801b0381168114612fb157600080fd5b8135614aef81614775565b815461ffff191661ffff8216178255506020820135614b0d81614775565b815463ffff00001916601082901b63ffff000016178255506040820135614b3381614775565b815465ffff000000008260201b1691508165ffff000000001982161783556060840135614b5f81614acf565b75ffffffffffffffffffffffffffffffff0000000000008160301b168375ffffffffffffffffffffffffffffffffffff00000000198416171784555050505050565b60e081018535614bb081614775565b61ffff9081168352602087013590614bc782614775565b9081166020840152604087013590614bde82614775565b1660408301526060860135614bf281614acf565b6001600160801b03166060830152608082019490945260a081019290925260c090910152919050565b60008135611a8d8161400c565b60008135611a8d816141dd565b80547fffff0000000000000000000000000000000000000000ffffffffffffffffffff1660509290921b600160501b600160f01b0316919091179055565b8135614c7e81614775565b815461ffff191661ffff8216178255506020820135614c9c81614775565b815463ffff00001916601082901b63ffff000016178255506040820135614cc28161405b565b815467ffffffff000000008260201b1691508167ffffffff000000001982161783556060840135614cf28161400c565b68ffffffffff00000000199190911690911790151560401b60ff60401b161781556080820135614d218161400c565b815460ff60481b191681151560481b60ff60481b161782555060a0820135614d48816141dd565b611bca8183614c35565b63ffffffff838116825260e08201908335614d6c81614775565b61ffff808216602086015260208601359150614d8782614775565b16604084810191909152840135614d9d8161405b565b16606083810191909152830135614db38161400c565b8015156080840152506080830135614dca8161400c565b80151560a084015250614ddf60a084016141f2565b6001600160a01b03811660c0840152509392505050565b634e487b7160e01b600052600160045260246000fd5b80546001600160a01b0319166001600160a01b0392909216919091179055565b8135614e37816141dd565b614e418183614e0c565b506020820135614e50816141dd565b614e5d8160018401614e0c565b506040820135614e6c816141dd565b614e798160028401614e0c565b50600381016060830135614e8c81614775565b815461ffff191661ffff8216178255506080830135614eaa81614775565b815463ffff00001916601082901b63ffff0000161782555060a0830135614ed08161405b565b815467ffffffff000000008260201b1691508167ffffffff0000000019821617835560c0850135614f008161400c565b68ffffffffff00000000199190911690911790151560401b60ff60401b16178155614f4e614f3060e08501614c1b565b82805460ff60481b191691151560481b60ff60481b16919091179055565b611bca614f5e6101008501614c28565b82614c35565b60038110612fb157600080fd5b805161231681614f64565b8051612316816146f6565b805161231681614acf565b600082601f830112614fa357600080fd5b81516020614fb3614963836148f8565b82815260059290921b84018101918181019086841115614fd257600080fd5b8286015b8481101561515c5780516001600160401b0380821115614ff557600080fd5b9088019060a0828b03601f1901121561500d57600080fd5b615015614124565b86830151615022816141dd565b80825250604083015187820152606083015160408201526080830151606082015260a08301518281111561505557600080fd5b8084019350508a603f84011261506a57600080fd5b86830151915061507c614963836148f8565b82815261012092830284016040019288820191908d85111561509d57600080fd5b6040860195505b848610156151465780868f0312156150bb57600080fd5b6150c3614146565b6150cc87614f71565b81526150d98b8801614f7c565b8b8201526150e960408801614f7c565b60408201526150fa60608801614f87565b60608201526080870151608082015260a087015160a082015260c087015160c082015260e087015160e082015261010087015161010082015280845250898301925080860195506150a4565b5060808301525085525050918301918301614fd6565b509695505050505050565b6000806000806080858703121561517d57600080fd5b8451615188816141dd565b8094505060208086015193506040808701516001600160401b03808211156151af57600080fd5b818901915089601f8301126151c357600080fd5b81516151d1614963826148f8565b81815260069190911b8301850190858101908c8311156151f057600080fd5b938601935b828510156152395785858e03121561520d5760008081fd5b615215614169565b8551615220816141dd565b81528588015188820152825293850193908601906151f5565b60608c0151909850955050508084111561525257600080fd5b50505061526187828801614f92565b91505092959194509250565b634e487b7160e01b600052603260045260246000fd5b60008235603e1983360301811261529957600080fd5b9190910192915050565b6000602082840312156152b557600080fd5b8135600881106116b357600080fd5b6000808335601e198436030181126152db57600080fd5b8301803591506001600160401b038211156152f557600080fd5b60200191503681900382131561454657600080fd5b60008060a0838503121561531d57600080fd5b82356153288161405b565b915061533784602085016141fd565b90509250929050565b803561231681614f64565b600060e0828403121561535d57600080fd5b61536561418b565b90508135615372816146f6565b81526020820135615382816146f6565b60208201526040820135600f81900b811461539c57600080fd5b60408201526153ad606083016141f2565b60608201526153be60808301614785565b60808201526153cf60a0830161401a565b60a08201526153e060c08301615340565b60c082015292915050565b60008061010083850312156153ff57600080fd5b823561540a8161405b565b9150615337846020850161534b565b6000806000806080858703121561542f57600080fd5b843561543a8161405b565b9350602085013561544a816146f6565b9250604085013561545a816146f6565b9396929550929360600135925050565b60008060006060848603121561547f57600080fd5b8335925060208401356154918161405b565b915060408401356154a181614775565b809150509250925092565b60208101600883106154c0576154c06142ce565b91905290565b634e487b7160e01b600052601160045260246000fd5b60006000198214156154f0576154f06154c6565b5060010190565b6000821982111561550a5761550a6154c6565b500190565b600082821015615521576155216154c6565b500390565b6020808252602e908201527f496e697469616c697a61626c653a20636f6e747261637420697320616c72656160408201526d191e481a5b9a5d1a585b1a5e995960921b606082015260800190565b60006020828403121561558657600080fd5b5051919050565b8183823760009101908152919050565b6000602082840312156155af57600080fd5b81516001600160401b03808211156155c657600080fd5b818401915084601f8301126155da57600080fd5b8151818111156155ec576155ec6140e6565b6155ff601f8201601f19166020016141ad565b915080825285602082850101111561561657600080fd5b615627816020840160208601614598565b50949350505050565b602081526000611a8a60208301846145c4565b6000806040838503121561565657600080fd5b505080516020909101519092909150565b600060e0828403121561567957600080fd5b611a8a838361534b565b6001600160a01b0383168152608081016116b3602083018480516001600160a01b0316825260208082015163ffffffff16908301526040908101511515910152565b6000600160ff1b8214156156db576156db6154c6565b5060000390565b60006101608201905086825263ffffffff86166020830152845160020b6040830152602085015160020b60608301526040850151600f0b608083015260018060a01b0360608601511660a083015261ffff60808601511660c083015260a085015161575160e084018215159052565b5060c08501516157656101008401826142e4565b508361012083015261577c61014083018415159052565b9695505050505050565b600080821280156001600160ff1b03849003851316156157a8576157a86154c6565b600160ff1b83900384128116156157c1576157c16154c6565b50500190565b60008082840360808112156157db57600080fd5b835192506060601f19820112156157f157600080fd5b506157fa6140fc565b602084015181526040840151602082015260608401516040820152809150509250929050565b60008251615299818460208701614598565b60006001600160a01b0383811690831681811015615852576158526154c6565b039392505050565b60006001600160a01b0382811684821681151582840482111615615880576158806154c6565b02949350505050565b634e487b7160e01b600052601260045260246000fd5b60006001600160a01b03838116806158b9576158b9615889565b92169190910492915050565b60008160001904831182151516156158df576158df6154c6565b500290565b6000602082840312156158f657600080fd5b81516116b38161400c565b600080600080600080600060e0888a03121561591c57600080fd5b8751615927816141dd565b6020890151909750615938816146f6565b604089015190965061594981614775565b606089015190955061595a81614775565b608089015190945061596b81614775565b60a089015190935060ff8116811461598257600080fd5b60c08901519092506159938161400c565b8091505092959891949750929550565b6020808252825182820181905260009190848201906040850190845b818110156149dd57835163ffffffff16835292840192918401916001016159bf565b600082601f8301126159f257600080fd5b81516020615a02614963836148f8565b82815260059290921b84018101918181019086841115615a2157600080fd5b8286015b8481101561515c578051615a38816141dd565b8352918301918301615a25565b60008060408385031215615a5857600080fd5b82516001600160401b0380821115615a6f57600080fd5b818501915085601f830112615a8357600080fd5b81516020615a93614963836148f8565b82815260059290921b84018101918181019089841115615ab257600080fd5b948201945b83861015615ae05785518060060b8114615ad15760008081fd5b82529482019490820190615ab7565b91880151919650909350505080821115615af957600080fd5b50615b06858286016159e1565b9150509250929050565b60008160060b8360060b6000811281667fffffffffffff1901831281151615615b3b57615b3b6154c6565b81667fffffffffffff018313811615615b5657615b566154c6565b5090039392505050565b60008160060b8360060b80615b7757615b77615889565b667fffffffffffff19821460001982141615615b9557615b956154c6565b90059392505050565b60008260060b80615bb157615bb1615889565b808360060b0791505092915050565b60008160020b627fffff19811415615bda57615bda6154c6565b600019019291505056fea164736f6c634300080c000a",
  "libraries": {
    "Account": "0xB61cC2D139ff51B2d20D4d683B80ce723C9CE6e5"
  },
  "devdoc": {
    "errors": {
      "AccessDenied(address)": [
        {
          "params": {
            "senderAddress": "address of msg sender"
          }
        }
      ],
      "IncorrectCollateralAddress(address,address)": [
        {
          "params": {
            "correctAddress": "correct address of collateral token",
            "incorrectAddress": "incorrect address of collateral token"
          }
        }
      ],
      "InvalidCollateralAddress(address)": [
        {
          "params": {
            "invalidAddress": "invalid address of collateral token"
          }
        }
      ],
      "InvalidMulticallOperationType(uint8)": [
        {
          "params": {
            "multicallOperationType": "is the value that is out of bounds"
          }
        }
      ],
      "LowNotionalValue(uint256)": [
        {
          "params": {
            "notionalValue": "notional value of txn"
          }
        }
      ],
      "UninitializedToken(uint32)": [
        {
          "params": {
            "poolId": "unitialized truncated address supplied"
          }
        }
      ],
      "UnsupportedCToken(address)": [
        {
          "params": {
            "cTokenAddress": "address of token"
          }
        }
      ],
      "UnsupportedVToken(address)": [
        {
          "params": {
            "vToken": "address of token"
          }
        }
      ]
    },
    "kind": "dev",
    "methods": {
      "addMargin(uint256,uint32,uint256)": {
        "params": {
          "accountId": "account id",
          "amount": "amount of token to deposit",
          "poolId": "truncated address of token to deposit"
        }
      },
      "createAccount()": {
        "returns": {
          "newAccountId": "- serial number of the new account created"
        }
      },
      "createAccountAndAddMargin(uint32,uint256)": {
        "params": {
          "amount": "amount of token to deposit",
          "poolId": "truncated address of token to deposit"
        },
        "returns": {
          "newAccountId": "- serial number of the new account created"
        }
      },
      "governance()": {
        "details": "Returns the address of the current governance."
      },
      "liquidateLiquidityPositions(uint256)": {
        "details": "removes all the active range positions and gives liquidator a percent of notional amount closed + fixedFee",
        "params": {
          "accountId": "account id"
        }
      },
      "liquidateLiquidityPositionsWithGasClaim(uint256,uint256)": {
        "details": "removes all the active range positions and gives liquidator a percent of notional amount closed + fixedFee",
        "params": {
          "accountId": "account id",
          "gasComputationUnitsClaim": "estimated computation gas units, if more than actual, tx will revert"
        },
        "returns": {
          "keeperFee": ": amount of fees paid to caller"
        }
      },
      "liquidateTokenPosition(uint256,uint256,uint32,uint16)": {
        "details": "transfers the fraction of token position at a discount to current price to liquidators account and gives liquidator some fixedFee",
        "params": {
          "liquidationBps": "fraction of the token position to be transferred in BPS",
          "liquidatorAccountId": "liquidator account id",
          "poolId": "truncated address of token to withdraw",
          "targetAccountId": "account id"
        },
        "returns": {
          "liquidatorBalanceAdjustments": "- balance changes in liquidator base and token balance and net token position"
        }
      },
      "liquidateTokenPositionWithGasClaim(uint256,uint256,uint32,uint16,uint256)": {
        "details": "transfers the fraction of token position at a discount to current price to liquidators account and gives liquidator some fixedFee",
        "params": {
          "gasComputationUnitsClaim": "estimated computation gas units, if more than actual, tx will revert",
          "liquidationBps": "fraction of the token position to be transferred in BPS",
          "liquidatorAccountId": "liquidator account id",
          "poolId": "truncated address of token to withdraw",
          "targetAccountId": "account id"
        },
        "returns": {
          "liquidatorBalanceAdjustments": "- balance changes in liquidator base and token balance and net token position"
        }
      },
      "multicall(bytes[])": {
        "details": "The `msg.value` should not be trusted for any method callable from multicall.",
        "params": {
          "data": "The encoded function data for each of the calls to make to this contract"
        },
        "returns": {
          "results": "The results from each of the calls passed in via data"
        }
      },
      "removeLimitOrder(uint256,uint32,int24,int24)": {
        "details": "checks the position of current price relative to limit order and checks limitOrderType",
        "params": {
          "accountId": "account id",
          "poolId": "truncated address of token to withdraw",
          "tickLower": "liquidity change parameters",
          "tickUpper": "liquidity change parameters"
        }
      },
      "removeMargin(uint256,uint32,uint256)": {
        "params": {
          "accountId": "account id",
          "amount": "amount of token to withdraw",
          "poolId": "truncated address of token to withdraw"
        }
      },
      "swapToken(uint256,uint32,(int256,uint160,bool,bool))": {
        "params": {
          "accountId": "account id",
          "poolId": "truncated address of token to withdraw",
          "swapParams": "swap parameters"
        }
      },
      "teamMultisig()": {
        "details": "Returns the address of the current team multisig.transferTeamMultisig"
      },
      "transferGovernance(address)": {
        "details": "Transfers governance to a new account (`newGovernance`). Can only be called by the current governance."
      },
      "transferTeamMultisig(address)": {
        "details": "Transfers teamMultisig to a new account (`newTeamMultisig`). Can only be called by the current teamMultisig or current governance."
      },
      "updatePoolSettings(uint32,(uint16,uint16,uint32,bool,bool,address))": {
        "params": {
          "newSettings": "updated rage trade pool settings",
          "poolId": "rage trade pool id"
        }
      },
      "updateProfit(uint256,int256)": {
        "params": {
          "accountId": "account id",
          "amount": "amount of token to withdraw"
        }
      },
      "updateRangeOrder(uint256,uint32,(int24,int24,int128,uint160,uint16,bool,uint8))": {
        "params": {
          "accountId": "account id",
          "liquidityChangeParams": "liquidity change parameters",
          "poolId": "truncated address of token to withdraw"
        }
      },
      "withdrawProtocolFee(address[])": {
        "params": {
          "wrapperAddresses": "list of wrapper addresses to collect fees from"
        }
      }
    },
    "version": 1
  },
  "userdoc": {
    "errors": {
      "AccessDenied(address)": [
        {
          "notice": "error to denote invalid account access"
        }
      ],
      "IncorrectCollateralAddress(address,address)": [
        {
          "notice": "error to denote incorrect address is supplied while updating collateral settings"
        }
      ],
      "InvalidCollateralAddress(address)": [
        {
          "notice": "error to denote invalid address supplied as a collateral token"
        }
      ],
      "InvalidMulticallOperationType(uint8)": [
        {
          "notice": "this is errored when the enum (uint8) value is out of bounds"
        }
      ],
      "InvalidTokenLiquidationParameters()": [
        {
          "notice": "error to denote invalid token liquidation (fraction to liquidate> 1)"
        }
      ],
      "KeeperFeeNotPositive(int256)": [
        {
          "notice": "error to denote that keeper fee is negative or zero"
        }
      ],
      "LowNotionalValue(uint256)": [
        {
          "notice": "error to denote low notional value of txn"
        }
      ],
      "SlippageBeyondTolerance()": [
        {
          "notice": "error to denote slippage of txn beyond set threshold"
        }
      ],
      "UninitializedToken(uint32)": [
        {
          "notice": "error to denote usage of unitialized token"
        }
      ],
      "UnsupportedCToken(address)": [
        {
          "notice": "error to denote usage of unsupported token"
        }
      ],
      "UnsupportedVToken(address)": [
        {
          "notice": "error to denote usage of unsupported token"
        }
      ]
    },
    "events": {
      "AccountCreated(address,uint256)": {
        "notice": "denotes new account creation"
      },
      "CollateralSettingsUpdated(address,(address,uint32,bool))": {
        "notice": "new collateral supported as margin"
      },
      "MarginAdded(uint256,uint32,uint256)": {
        "notice": "denotes deposit of margin"
      },
      "MarginRemoved(uint256,uint32,uint256)": {
        "notice": "denotes withdrawal of margin"
      },
      "PoolSettingsUpdated(uint32,(uint16,uint16,uint32,bool,bool,address))": {
        "notice": "maintainance margin ratio of a pool changed"
      },
      "ProtocolSettingsUpdated((uint16,uint16,uint16,uint128),uint256,uint256,uint256)": {
        "notice": "protocol settings changed"
      }
    },
    "kind": "user",
    "methods": {
      "__initialize_ClearingHouse(address,address,address,address,address,address)": {
        "notice": "SYSTEM FUNCTIONS"
      },
      "addMargin(uint256,uint32,uint256)": {
        "notice": "deposits 'amount' of token associated with 'poolId'"
      },
      "createAccount()": {
        "notice": "creates a new account and adds it to the accounts map"
      },
      "createAccountAndAddMargin(uint32,uint256)": {
        "notice": "creates a new account and deposits 'amount' of token associated with 'poolId'"
      },
      "getAccountInfo(uint256)": {
        "notice": "Account.Info VIEW"
      },
      "liquidateLiquidityPositions(uint256)": {
        "notice": "keeper call for liquidation of range position"
      },
      "liquidateLiquidityPositionsWithGasClaim(uint256,uint256)": {
        "notice": "keeper call for liquidation of range position"
      },
      "liquidateTokenPosition(uint256,uint256,uint32,uint16)": {
        "notice": "keeper call for liquidation of token position"
      },
      "liquidateTokenPositionWithGasClaim(uint256,uint256,uint32,uint16,uint256)": {
        "notice": "keeper call for liquidation of token position"
      },
      "multicall(bytes[])": {
        "notice": "Call multiple functions in the current contract and return the data from all of them if they all succeed"
      },
      "multicallWithSingleMarginCheck(uint256,(uint8,bytes)[])": {
        "notice": "MULTICALL"
      },
      "protocolInfo()": {
        "notice": "Protocol.Info VIEW"
      },
      "removeLimitOrder(uint256,uint32,int24,int24)": {
        "notice": "keeper call to remove a limit order"
      },
      "removeLimitOrderWithGasClaim(uint256,uint32,int24,int24,uint256)": {
        "notice": "ALTERNATE LIQUIDATION METHODS FOR FIX FEE CLAIM"
      },
      "removeMargin(uint256,uint32,uint256)": {
        "notice": "withdraws 'amount' of token associated with 'poolId'"
      },
      "swapToken(uint256,uint32,(int256,uint160,bool,bool))": {
        "notice": "swaps token associated with 'poolId' by 'amount' (Long if amount>0 else Short)"
      },
      "updateCollateralSettings(address,(address,uint32,bool))": {
        "notice": "ADMIN FUNCTIONS"
      },
      "updatePoolSettings(uint32,(uint16,uint16,uint32,bool,bool,address))": {
        "notice": "updates the rage trade pool settings"
      },
      "updateProfit(uint256,int256)": {
        "notice": "withdraws 'amount' of base token from the profit made"
      },
      "updateRangeOrder(uint256,uint32,(int24,int24,int128,uint160,uint16,bool,uint8))": {
        "notice": "updates range order of token associated with 'poolId' by 'liquidityDelta' (Adds if amount>0 else Removes)also can be used to update limitOrderType"
      },
      "withdrawProtocolFee(address[])": {
        "notice": "withdraws protocol fees collected in the supplied wrappers to team multisig"
      }
    },
    "version": 1
  },
  "storageLayout": {
    "storage": [
      {
        "astId": 298,
        "contract": "contracts/protocol/clearinghouse/ClearingHouseArbitrum.sol:ClearingHouseArbitrum",
        "label": "_initialized",
        "offset": 0,
        "slot": "0",
        "type": "t_bool"
      },
      {
        "astId": 301,
        "contract": "contracts/protocol/clearinghouse/ClearingHouseArbitrum.sol:ClearingHouseArbitrum",
        "label": "_initializing",
        "offset": 1,
        "slot": "0",
        "type": "t_bool"
      },
      {
        "astId": 28502,
        "contract": "contracts/protocol/clearinghouse/ClearingHouseArbitrum.sol:ClearingHouseArbitrum",
        "label": "_governance",
        "offset": 2,
        "slot": "0",
        "type": "t_address"
      },
      {
        "astId": 28504,
        "contract": "contracts/protocol/clearinghouse/ClearingHouseArbitrum.sol:ClearingHouseArbitrum",
        "label": "_teamMultisig",
        "offset": 0,
        "slot": "1",
        "type": "t_address"
      },
      {
        "astId": 21241,
        "contract": "contracts/protocol/clearinghouse/ClearingHouseArbitrum.sol:ClearingHouseArbitrum",
        "label": "_emptySlots1",
        "offset": 0,
        "slot": "2",
        "type": "t_array(t_uint256)98_storage"
      },
      {
        "astId": 21244,
        "contract": "contracts/protocol/clearinghouse/ClearingHouseArbitrum.sol:ClearingHouseArbitrum",
        "label": "protocol",
        "offset": 0,
        "slot": "100",
        "type": "t_struct(Info)13161_storage"
      },
      {
        "astId": 21246,
        "contract": "contracts/protocol/clearinghouse/ClearingHouseArbitrum.sol:ClearingHouseArbitrum",
        "label": "numAccounts",
        "offset": 0,
        "slot": "208",
        "type": "t_uint256"
      },
      {
        "astId": 21251,
        "contract": "contracts/protocol/clearinghouse/ClearingHouseArbitrum.sol:ClearingHouseArbitrum",
        "label": "accounts",
        "offset": 0,
        "slot": "209",
        "type": "t_mapping(t_uint256,t_struct(Info)8729_storage)"
      },
      {
        "astId": 21253,
        "contract": "contracts/protocol/clearinghouse/ClearingHouseArbitrum.sol:ClearingHouseArbitrum",
        "label": "paused",
        "offset": 0,
        "slot": "210",
        "type": "t_bool"
      },
      {
        "astId": 21255,
        "contract": "contracts/protocol/clearinghouse/ClearingHouseArbitrum.sol:ClearingHouseArbitrum",
        "label": "rageTradeFactoryAddress",
        "offset": 1,
        "slot": "210",
        "type": "t_address"
      },
      {
        "astId": 21258,
        "contract": "contracts/protocol/clearinghouse/ClearingHouseArbitrum.sol:ClearingHouseArbitrum",
        "label": "insuranceFund",
        "offset": 0,
        "slot": "211",
        "type": "t_contract(IInsuranceFund)7720"
      },
      {
        "astId": 21261,
        "contract": "contracts/protocol/clearinghouse/ClearingHouseArbitrum.sol:ClearingHouseArbitrum",
        "label": "nativeOracle",
        "offset": 0,
        "slot": "212",
        "type": "t_contract(IOracle)7730"
      },
      {
        "astId": 21265,
        "contract": "contracts/protocol/clearinghouse/ClearingHouseArbitrum.sol:ClearingHouseArbitrum",
        "label": "_emptySlots2",
        "offset": 0,
        "slot": "213",
        "type": "t_array(t_uint256)100_storage"
      },
      {
        "astId": 29124,
        "contract": "contracts/protocol/clearinghouse/ClearingHouseArbitrum.sol:ClearingHouseArbitrum",
        "label": "txGasPriceLimit",
        "offset": 0,
        "slot": "313",
        "type": "t_uint256"
      }
    ],
    "types": {
      "t_address": {
        "encoding": "inplace",
        "label": "address",
        "numberOfBytes": "20"
      },
      "t_array(t_uint256)100_storage": {
        "base": "t_uint256",
        "encoding": "inplace",
        "label": "uint256[100]",
        "numberOfBytes": "3200"
      },
      "t_array(t_uint256)98_storage": {
        "base": "t_uint256",
        "encoding": "inplace",
        "label": "uint256[98]",
        "numberOfBytes": "3136"
      },
      "t_array(t_uint32)8_storage": {
        "base": "t_uint32",
        "encoding": "inplace",
        "label": "uint32[8]",
        "numberOfBytes": "32"
      },
      "t_array(t_uint48)5_storage": {
        "base": "t_uint48",
        "encoding": "inplace",
        "label": "uint48[5]",
        "numberOfBytes": "32"
      },
      "t_bool": {
        "encoding": "inplace",
        "label": "bool",
        "numberOfBytes": "1"
      },
      "t_contract(IERC20)3226": {
        "encoding": "inplace",
        "label": "contract IERC20",
        "numberOfBytes": "20"
      },
      "t_contract(IInsuranceFund)7720": {
        "encoding": "inplace",
        "label": "contract IInsuranceFund",
        "numberOfBytes": "20"
      },
      "t_contract(IOracle)7730": {
        "encoding": "inplace",
        "label": "contract IOracle",
        "numberOfBytes": "20"
      },
      "t_contract(IUniswapV3Pool)5143": {
        "encoding": "inplace",
        "label": "contract IUniswapV3Pool",
        "numberOfBytes": "20"
      },
      "t_contract(IVBase)7754": {
        "encoding": "inplace",
        "label": "contract IVBase",
        "numberOfBytes": "20"
      },
      "t_contract(IVPoolWrapper)7949": {
        "encoding": "inplace",
        "label": "contract IVPoolWrapper",
        "numberOfBytes": "20"
      },
      "t_contract(IVToken)7973": {
        "encoding": "inplace",
        "label": "contract IVToken",
        "numberOfBytes": "20"
      },
      "t_enum(LimitOrderType)8204": {
        "encoding": "inplace",
        "label": "enum IClearingHouseEnums.LimitOrderType",
        "numberOfBytes": "1"
      },
      "t_int24": {
        "encoding": "inplace",
        "label": "int24",
        "numberOfBytes": "3"
      },
      "t_int256": {
        "encoding": "inplace",
        "label": "int256",
        "numberOfBytes": "32"
      },
      "t_mapping(t_uint256,t_struct(Info)8729_storage)": {
        "encoding": "mapping",
        "key": "t_uint256",
        "label": "mapping(uint256 => struct Account.Info)",
        "numberOfBytes": "32",
        "value": "t_struct(Info)8729_storage"
      },
      "t_mapping(t_uint32,t_struct(Collateral)8356_storage)": {
        "encoding": "mapping",
        "key": "t_uint32",
        "label": "mapping(uint32 => struct IClearingHouseStructures.Collateral)",
        "numberOfBytes": "32",
        "value": "t_struct(Collateral)8356_storage"
      },
      "t_mapping(t_uint32,t_struct(Info)16408_storage)": {
        "encoding": "mapping",
        "key": "t_uint32",
        "label": "mapping(uint32 => struct VTokenPosition.Info)",
        "numberOfBytes": "32",
        "value": "t_struct(Info)16408_storage"
      },
      "t_mapping(t_uint32,t_struct(Pool)8377_storage)": {
        "encoding": "mapping",
        "key": "t_uint32",
        "label": "mapping(uint32 => struct IClearingHouseStructures.Pool)",
        "numberOfBytes": "32",
        "value": "t_struct(Pool)8377_storage"
      },
      "t_mapping(t_uint32,t_uint256)": {
        "encoding": "mapping",
        "key": "t_uint32",
        "label": "mapping(uint32 => uint256)",
        "numberOfBytes": "32",
        "value": "t_uint256"
      },
      "t_mapping(t_uint48,t_struct(Info)11184_storage)": {
        "encoding": "mapping",
        "key": "t_uint48",
        "label": "mapping(uint48 => struct LiquidityPosition.Info)",
        "numberOfBytes": "32",
        "value": "t_struct(Info)11184_storage"
      },
      "t_struct(Collateral)8356_storage": {
        "encoding": "inplace",
        "label": "struct IClearingHouseStructures.Collateral",
        "members": [
          {
            "astId": 8352,
            "contract": "contracts/protocol/clearinghouse/ClearingHouseArbitrum.sol:ClearingHouseArbitrum",
            "label": "token",
            "offset": 0,
            "slot": "0",
            "type": "t_contract(IERC20)3226"
          },
          {
            "astId": 8355,
            "contract": "contracts/protocol/clearinghouse/ClearingHouseArbitrum.sol:ClearingHouseArbitrum",
            "label": "settings",
            "offset": 0,
            "slot": "1",
            "type": "t_struct(CollateralSettings)8364_storage"
          }
        ],
        "numberOfBytes": "64"
      },
      "t_struct(CollateralSettings)8364_storage": {
        "encoding": "inplace",
        "label": "struct IClearingHouseStructures.CollateralSettings",
        "members": [
          {
            "astId": 8359,
            "contract": "contracts/protocol/clearinghouse/ClearingHouseArbitrum.sol:ClearingHouseArbitrum",
            "label": "oracle",
            "offset": 0,
            "slot": "0",
            "type": "t_contract(IOracle)7730"
          },
          {
            "astId": 8361,
            "contract": "contracts/protocol/clearinghouse/ClearingHouseArbitrum.sol:ClearingHouseArbitrum",
            "label": "twapDuration",
            "offset": 20,
            "slot": "0",
            "type": "t_uint32"
          },
          {
            "astId": 8363,
            "contract": "contracts/protocol/clearinghouse/ClearingHouseArbitrum.sol:ClearingHouseArbitrum",
            "label": "supported",
            "offset": 24,
            "slot": "0",
            "type": "t_bool"
          }
        ],
        "numberOfBytes": "32"
      },
      "t_struct(Info)11184_storage": {
        "encoding": "inplace",
        "label": "struct LiquidityPosition.Info",
        "members": [
          {
            "astId": 11163,
            "contract": "contracts/protocol/clearinghouse/ClearingHouseArbitrum.sol:ClearingHouseArbitrum",
            "label": "limitOrderType",
            "offset": 0,
            "slot": "0",
            "type": "t_enum(LimitOrderType)8204"
          },
          {
            "astId": 11165,
            "contract": "contracts/protocol/clearinghouse/ClearingHouseArbitrum.sol:ClearingHouseArbitrum",
            "label": "tickLower",
            "offset": 1,
            "slot": "0",
            "type": "t_int24"
          },
          {
            "astId": 11167,
            "contract": "contracts/protocol/clearinghouse/ClearingHouseArbitrum.sol:ClearingHouseArbitrum",
            "label": "tickUpper",
            "offset": 4,
            "slot": "0",
            "type": "t_int24"
          },
          {
            "astId": 11169,
            "contract": "contracts/protocol/clearinghouse/ClearingHouseArbitrum.sol:ClearingHouseArbitrum",
            "label": "liquidity",
            "offset": 7,
            "slot": "0",
            "type": "t_uint128"
          },
          {
            "astId": 11171,
            "contract": "contracts/protocol/clearinghouse/ClearingHouseArbitrum.sol:ClearingHouseArbitrum",
            "label": "vTokenAmountIn",
            "offset": 0,
            "slot": "1",
            "type": "t_int256"
          },
          {
            "astId": 11173,
            "contract": "contracts/protocol/clearinghouse/ClearingHouseArbitrum.sol:ClearingHouseArbitrum",
            "label": "sumALastX128",
            "offset": 0,
            "slot": "2",
            "type": "t_int256"
          },
          {
            "astId": 11175,
            "contract": "contracts/protocol/clearinghouse/ClearingHouseArbitrum.sol:ClearingHouseArbitrum",
            "label": "sumBInsideLastX128",
            "offset": 0,
            "slot": "3",
            "type": "t_int256"
          },
          {
            "astId": 11177,
            "contract": "contracts/protocol/clearinghouse/ClearingHouseArbitrum.sol:ClearingHouseArbitrum",
            "label": "sumFpInsideLastX128",
            "offset": 0,
            "slot": "4",
            "type": "t_int256"
          },
          {
            "astId": 11179,
            "contract": "contracts/protocol/clearinghouse/ClearingHouseArbitrum.sol:ClearingHouseArbitrum",
            "label": "sumFeeInsideLastX128",
            "offset": 0,
            "slot": "5",
            "type": "t_uint256"
          },
          {
            "astId": 11183,
            "contract": "contracts/protocol/clearinghouse/ClearingHouseArbitrum.sol:ClearingHouseArbitrum",
            "label": "_emptySlots",
            "offset": 0,
            "slot": "6",
            "type": "t_array(t_uint256)100_storage"
          }
        ],
        "numberOfBytes": "3392"
      },
      "t_struct(Info)13161_storage": {
        "encoding": "inplace",
        "label": "struct Protocol.Info",
        "members": [
          {
            "astId": 13136,
            "contract": "contracts/protocol/clearinghouse/ClearingHouseArbitrum.sol:ClearingHouseArbitrum",
            "label": "pools",
            "offset": 0,
            "slot": "0",
            "type": "t_mapping(t_uint32,t_struct(Pool)8377_storage)"
          },
          {
            "astId": 13141,
            "contract": "contracts/protocol/clearinghouse/ClearingHouseArbitrum.sol:ClearingHouseArbitrum",
            "label": "collaterals",
            "offset": 0,
            "slot": "1",
            "type": "t_mapping(t_uint32,t_struct(Collateral)8356_storage)"
          },
          {
            "astId": 13144,
            "contract": "contracts/protocol/clearinghouse/ClearingHouseArbitrum.sol:ClearingHouseArbitrum",
            "label": "vBase",
            "offset": 0,
            "slot": "2",
            "type": "t_contract(IVBase)7754"
          },
          {
            "astId": 13147,
            "contract": "contracts/protocol/clearinghouse/ClearingHouseArbitrum.sol:ClearingHouseArbitrum",
            "label": "cBase",
            "offset": 0,
            "slot": "3",
            "type": "t_contract(IERC20)3226"
          },
          {
            "astId": 13150,
            "contract": "contracts/protocol/clearinghouse/ClearingHouseArbitrum.sol:ClearingHouseArbitrum",
            "label": "liquidationParams",
            "offset": 0,
            "slot": "4",
            "type": "t_struct(LiquidationParams)8432_storage"
          },
          {
            "astId": 13152,
            "contract": "contracts/protocol/clearinghouse/ClearingHouseArbitrum.sol:ClearingHouseArbitrum",
            "label": "minRequiredMargin",
            "offset": 0,
            "slot": "5",
            "type": "t_uint256"
          },
          {
            "astId": 13154,
            "contract": "contracts/protocol/clearinghouse/ClearingHouseArbitrum.sol:ClearingHouseArbitrum",
            "label": "removeLimitOrderFee",
            "offset": 0,
            "slot": "6",
            "type": "t_uint256"
          },
          {
            "astId": 13156,
            "contract": "contracts/protocol/clearinghouse/ClearingHouseArbitrum.sol:ClearingHouseArbitrum",
            "label": "minimumOrderNotional",
            "offset": 0,
            "slot": "7",
            "type": "t_uint256"
          },
          {
            "astId": 13160,
            "contract": "contracts/protocol/clearinghouse/ClearingHouseArbitrum.sol:ClearingHouseArbitrum",
            "label": "_emptySlots",
            "offset": 0,
            "slot": "8",
            "type": "t_array(t_uint256)100_storage"
          }
        ],
        "numberOfBytes": "3456"
      },
      "t_struct(Info)16408_storage": {
        "encoding": "inplace",
        "label": "struct VTokenPosition.Info",
        "members": [
          {
            "astId": 16396,
            "contract": "contracts/protocol/clearinghouse/ClearingHouseArbitrum.sol:ClearingHouseArbitrum",
            "label": "balance",
            "offset": 0,
            "slot": "0",
            "type": "t_int256"
          },
          {
            "astId": 16398,
            "contract": "contracts/protocol/clearinghouse/ClearingHouseArbitrum.sol:ClearingHouseArbitrum",
            "label": "netTraderPosition",
            "offset": 0,
            "slot": "1",
            "type": "t_int256"
          },
          {
            "astId": 16400,
            "contract": "contracts/protocol/clearinghouse/ClearingHouseArbitrum.sol:ClearingHouseArbitrum",
            "label": "sumAX128Ckpt",
            "offset": 0,
            "slot": "2",
            "type": "t_int256"
          },
          {
            "astId": 16403,
            "contract": "contracts/protocol/clearinghouse/ClearingHouseArbitrum.sol:ClearingHouseArbitrum",
            "label": "liquidityPositions",
            "offset": 0,
            "slot": "3",
            "type": "t_struct(Set)11160_storage"
          },
          {
            "astId": 16407,
            "contract": "contracts/protocol/clearinghouse/ClearingHouseArbitrum.sol:ClearingHouseArbitrum",
            "label": "_emptySlots",
            "offset": 0,
            "slot": "105",
            "type": "t_array(t_uint256)100_storage"
          }
        ],
        "numberOfBytes": "6560"
      },
      "t_struct(Info)8729_storage": {
        "encoding": "inplace",
        "label": "struct Account.Info",
        "members": [
          {
            "astId": 8716,
            "contract": "contracts/protocol/clearinghouse/ClearingHouseArbitrum.sol:ClearingHouseArbitrum",
            "label": "id",
            "offset": 0,
            "slot": "0",
            "type": "t_uint96"
          },
          {
            "astId": 8718,
            "contract": "contracts/protocol/clearinghouse/ClearingHouseArbitrum.sol:ClearingHouseArbitrum",
            "label": "owner",
            "offset": 12,
            "slot": "0",
            "type": "t_address"
          },
          {
            "astId": 8721,
            "contract": "contracts/protocol/clearinghouse/ClearingHouseArbitrum.sol:ClearingHouseArbitrum",
            "label": "tokenPositions",
            "offset": 0,
            "slot": "1",
            "type": "t_struct(Set)16394_storage"
          },
          {
            "astId": 8724,
            "contract": "contracts/protocol/clearinghouse/ClearingHouseArbitrum.sol:ClearingHouseArbitrum",
            "label": "tokenDeposits",
            "offset": 0,
            "slot": "103",
            "type": "t_struct(Set)10502_storage"
          },
          {
            "astId": 8728,
            "contract": "contracts/protocol/clearinghouse/ClearingHouseArbitrum.sol:ClearingHouseArbitrum",
            "label": "_emptySlots",
            "offset": 0,
            "slot": "205",
            "type": "t_array(t_uint256)100_storage"
          }
        ],
        "numberOfBytes": "9760"
      },
      "t_struct(LiquidationParams)8432_storage": {
        "encoding": "inplace",
        "label": "struct IClearingHouseStructures.LiquidationParams",
        "members": [
          {
            "astId": 8425,
            "contract": "contracts/protocol/clearinghouse/ClearingHouseArbitrum.sol:ClearingHouseArbitrum",
            "label": "liquidationFeeFraction",
            "offset": 0,
            "slot": "0",
            "type": "t_uint16"
          },
          {
            "astId": 8427,
            "contract": "contracts/protocol/clearinghouse/ClearingHouseArbitrum.sol:ClearingHouseArbitrum",
            "label": "tokenLiquidationPriceDeltaBps",
            "offset": 2,
            "slot": "0",
            "type": "t_uint16"
          },
          {
            "astId": 8429,
            "contract": "contracts/protocol/clearinghouse/ClearingHouseArbitrum.sol:ClearingHouseArbitrum",
            "label": "insuranceFundFeeShareBps",
            "offset": 4,
            "slot": "0",
            "type": "t_uint16"
          },
          {
            "astId": 8431,
            "contract": "contracts/protocol/clearinghouse/ClearingHouseArbitrum.sol:ClearingHouseArbitrum",
            "label": "maxRangeLiquidationFees",
            "offset": 6,
            "slot": "0",
            "type": "t_uint128"
          }
        ],
        "numberOfBytes": "32"
      },
      "t_struct(Pool)8377_storage": {
        "encoding": "inplace",
        "label": "struct IClearingHouseStructures.Pool",
        "members": [
          {
            "astId": 8367,
            "contract": "contracts/protocol/clearinghouse/ClearingHouseArbitrum.sol:ClearingHouseArbitrum",
            "label": "vToken",
            "offset": 0,
            "slot": "0",
            "type": "t_contract(IVToken)7973"
          },
          {
            "astId": 8370,
            "contract": "contracts/protocol/clearinghouse/ClearingHouseArbitrum.sol:ClearingHouseArbitrum",
            "label": "vPool",
            "offset": 0,
            "slot": "1",
            "type": "t_contract(IUniswapV3Pool)5143"
          },
          {
            "astId": 8373,
            "contract": "contracts/protocol/clearinghouse/ClearingHouseArbitrum.sol:ClearingHouseArbitrum",
            "label": "vPoolWrapper",
            "offset": 0,
            "slot": "2",
            "type": "t_contract(IVPoolWrapper)7949"
          },
          {
            "astId": 8376,
            "contract": "contracts/protocol/clearinghouse/ClearingHouseArbitrum.sol:ClearingHouseArbitrum",
            "label": "settings",
            "offset": 0,
            "slot": "3",
            "type": "t_struct(PoolSettings)8391_storage"
          }
        ],
        "numberOfBytes": "128"
      },
      "t_struct(PoolSettings)8391_storage": {
        "encoding": "inplace",
        "label": "struct IClearingHouseStructures.PoolSettings",
        "members": [
          {
            "astId": 8379,
            "contract": "contracts/protocol/clearinghouse/ClearingHouseArbitrum.sol:ClearingHouseArbitrum",
            "label": "initialMarginRatio",
            "offset": 0,
            "slot": "0",
            "type": "t_uint16"
          },
          {
            "astId": 8381,
            "contract": "contracts/protocol/clearinghouse/ClearingHouseArbitrum.sol:ClearingHouseArbitrum",
            "label": "maintainanceMarginRatio",
            "offset": 2,
            "slot": "0",
            "type": "t_uint16"
          },
          {
            "astId": 8383,
            "contract": "contracts/protocol/clearinghouse/ClearingHouseArbitrum.sol:ClearingHouseArbitrum",
            "label": "twapDuration",
            "offset": 4,
            "slot": "0",
            "type": "t_uint32"
          },
          {
            "astId": 8385,
            "contract": "contracts/protocol/clearinghouse/ClearingHouseArbitrum.sol:ClearingHouseArbitrum",
            "label": "supported",
            "offset": 8,
            "slot": "0",
            "type": "t_bool"
          },
          {
            "astId": 8387,
            "contract": "contracts/protocol/clearinghouse/ClearingHouseArbitrum.sol:ClearingHouseArbitrum",
            "label": "isCrossMargined",
            "offset": 9,
            "slot": "0",
            "type": "t_bool"
          },
          {
            "astId": 8390,
            "contract": "contracts/protocol/clearinghouse/ClearingHouseArbitrum.sol:ClearingHouseArbitrum",
            "label": "oracle",
            "offset": 10,
            "slot": "0",
            "type": "t_contract(IOracle)7730"
          }
        ],
        "numberOfBytes": "32"
      },
      "t_struct(Set)10502_storage": {
        "encoding": "inplace",
        "label": "struct CollateralDeposit.Set",
        "members": [
          {
            "astId": 10493,
            "contract": "contracts/protocol/clearinghouse/ClearingHouseArbitrum.sol:ClearingHouseArbitrum",
            "label": "active",
            "offset": 0,
            "slot": "0",
            "type": "t_array(t_uint32)8_storage"
          },
          {
            "astId": 10497,
            "contract": "contracts/protocol/clearinghouse/ClearingHouseArbitrum.sol:ClearingHouseArbitrum",
            "label": "deposits",
            "offset": 0,
            "slot": "1",
            "type": "t_mapping(t_uint32,t_uint256)"
          },
          {
            "astId": 10501,
            "contract": "contracts/protocol/clearinghouse/ClearingHouseArbitrum.sol:ClearingHouseArbitrum",
            "label": "_emptySlots",
            "offset": 0,
            "slot": "2",
            "type": "t_array(t_uint256)100_storage"
          }
        ],
        "numberOfBytes": "3264"
      },
      "t_struct(Set)11160_storage": {
        "encoding": "inplace",
        "label": "struct LiquidityPosition.Set",
        "members": [
          {
            "astId": 11150,
            "contract": "contracts/protocol/clearinghouse/ClearingHouseArbitrum.sol:ClearingHouseArbitrum",
            "label": "active",
            "offset": 0,
            "slot": "0",
            "type": "t_array(t_uint48)5_storage"
          },
          {
            "astId": 11155,
            "contract": "contracts/protocol/clearinghouse/ClearingHouseArbitrum.sol:ClearingHouseArbitrum",
            "label": "positions",
            "offset": 0,
            "slot": "1",
            "type": "t_mapping(t_uint48,t_struct(Info)11184_storage)"
          },
          {
            "astId": 11159,
            "contract": "contracts/protocol/clearinghouse/ClearingHouseArbitrum.sol:ClearingHouseArbitrum",
            "label": "_emptySlots",
            "offset": 0,
            "slot": "2",
            "type": "t_array(t_uint256)100_storage"
          }
        ],
        "numberOfBytes": "3264"
      },
      "t_struct(Set)16394_storage": {
        "encoding": "inplace",
        "label": "struct VTokenPosition.Set",
        "members": [
          {
            "astId": 16384,
            "contract": "contracts/protocol/clearinghouse/ClearingHouseArbitrum.sol:ClearingHouseArbitrum",
            "label": "active",
            "offset": 0,
            "slot": "0",
            "type": "t_array(t_uint32)8_storage"
          },
          {
            "astId": 16389,
            "contract": "contracts/protocol/clearinghouse/ClearingHouseArbitrum.sol:ClearingHouseArbitrum",
            "label": "positions",
            "offset": 0,
            "slot": "1",
            "type": "t_mapping(t_uint32,t_struct(Info)16408_storage)"
          },
          {
            "astId": 16393,
            "contract": "contracts/protocol/clearinghouse/ClearingHouseArbitrum.sol:ClearingHouseArbitrum",
            "label": "_emptySlots",
            "offset": 0,
            "slot": "2",
            "type": "t_array(t_uint256)100_storage"
          }
        ],
        "numberOfBytes": "3264"
      },
      "t_uint128": {
        "encoding": "inplace",
        "label": "uint128",
        "numberOfBytes": "16"
      },
      "t_uint16": {
        "encoding": "inplace",
        "label": "uint16",
        "numberOfBytes": "2"
      },
      "t_uint256": {
        "encoding": "inplace",
        "label": "uint256",
        "numberOfBytes": "32"
      },
      "t_uint32": {
        "encoding": "inplace",
        "label": "uint32",
        "numberOfBytes": "4"
      },
      "t_uint48": {
        "encoding": "inplace",
        "label": "uint48",
        "numberOfBytes": "6"
      },
      "t_uint96": {
        "encoding": "inplace",
        "label": "uint96",
        "numberOfBytes": "12"
      }
    }
  }
}