{
  "address": "0x28D24201B18840D9811C4726b7AbcBA2cAd8afF8",
  "abi": [
    {
      "inputs": [
        {
          "internalType": "address",
          "name": "senderAddress",
          "type": "address"
        }
      ],
      "name": "AccessDenied",
      "type": "error"
    },
    {
      "inputs": [
        {
          "internalType": "uint32",
          "name": "collateralId",
          "type": "uint32"
        }
      ],
      "name": "CollateralDoesNotExist",
      "type": "error"
    },
    {
      "inputs": [
        {
          "internalType": "uint32",
          "name": "collateralId",
          "type": "uint32"
        }
      ],
      "name": "CollateralNotAllowedForUse",
      "type": "error"
    },
    {
      "inputs": [
        {
          "internalType": "uint160",
          "name": "sqrtPriceX96",
          "type": "uint160"
        }
      ],
      "name": "IllegalSqrtPrice",
      "type": "error"
    },
    {
      "inputs": [
        {
          "internalType": "contract IERC20",
          "name": "incorrectAddress",
          "type": "address"
        },
        {
          "internalType": "contract IERC20",
          "name": "correctAddress",
          "type": "address"
        }
      ],
      "name": "IncorrectCollateralAddress",
      "type": "error"
    },
    {
      "inputs": [
        {
          "internalType": "address",
          "name": "invalidAddress",
          "type": "address"
        }
      ],
      "name": "InvalidCollateralAddress",
      "type": "error"
    },
    {
      "inputs": [
        {
          "internalType": "enum IClearingHouseEnums.MulticallOperationType",
          "name": "multicallOperationType",
          "type": "uint8"
        }
      ],
      "name": "InvalidMulticallOperationType",
      "type": "error"
    },
    {
      "inputs": [],
      "name": "InvalidTokenLiquidationParameters",
      "type": "error"
    },
    {
      "inputs": [
        {
          "internalType": "int256",
          "name": "keeperFee",
          "type": "int256"
        }
      ],
      "name": "KeeperFeeNotPositive",
      "type": "error"
    },
    {
      "inputs": [
        {
          "internalType": "uint256",
          "name": "notionalValue",
          "type": "uint256"
        }
      ],
      "name": "LowNotionalValue",
      "type": "error"
    },
    {
      "inputs": [],
      "name": "NotRageTradeFactory",
      "type": "error"
    },
    {
      "inputs": [
        {
          "internalType": "uint32",
          "name": "poolId",
          "type": "uint32"
        }
      ],
      "name": "PoolDoesNotExist",
      "type": "error"
    },
    {
      "inputs": [
        {
          "internalType": "uint32",
          "name": "poolId",
          "type": "uint32"
        }
      ],
      "name": "PoolNotAllowedForTrade",
      "type": "error"
    },
    {
      "inputs": [],
      "name": "SlippageBeyondTolerance",
      "type": "error"
    },
    {
      "inputs": [],
      "name": "T",
      "type": "error"
    },
    {
      "inputs": [],
      "name": "Unauthorised",
      "type": "error"
    },
    {
      "inputs": [],
      "name": "ZeroAddress",
      "type": "error"
    },
    {
      "inputs": [],
      "name": "ZeroAmount",
      "type": "error"
    },
    {
      "anonymous": false,
      "inputs": [
        {
          "indexed": true,
          "internalType": "address",
          "name": "ownerAddress",
          "type": "address"
        },
        {
          "indexed": false,
          "internalType": "uint256",
          "name": "accountId",
          "type": "uint256"
        }
      ],
      "name": "AccountCreated",
      "type": "event"
    },
    {
      "anonymous": false,
      "inputs": [
        {
          "indexed": false,
          "internalType": "contract IERC20",
          "name": "cToken",
          "type": "address"
        },
        {
          "components": [
            {
              "internalType": "contract IOracle",
              "name": "oracle",
              "type": "address"
            },
            {
              "internalType": "uint32",
              "name": "twapDuration",
              "type": "uint32"
            },
            {
              "internalType": "bool",
              "name": "isAllowedForDeposit",
              "type": "bool"
            }
          ],
          "indexed": false,
          "internalType": "struct IClearingHouseStructures.CollateralSettings",
          "name": "cTokenInfo",
          "type": "tuple"
        }
      ],
      "name": "CollateralSettingsUpdated",
      "type": "event"
    },
    {
      "anonymous": false,
      "inputs": [
        {
          "indexed": true,
          "internalType": "address",
          "name": "previousGovernance",
          "type": "address"
        },
        {
          "indexed": true,
          "internalType": "address",
          "name": "newGovernance",
          "type": "address"
        }
      ],
      "name": "GovernanceTransferred",
      "type": "event"
    },
    {
      "anonymous": false,
      "inputs": [
        {
          "indexed": false,
          "internalType": "address",
          "name": "account",
          "type": "address"
        }
      ],
      "name": "Paused",
      "type": "event"
    },
    {
      "anonymous": false,
      "inputs": [
        {
          "indexed": false,
          "internalType": "bool",
          "name": "paused",
          "type": "bool"
        }
      ],
      "name": "PausedUpdated",
      "type": "event"
    },
    {
      "anonymous": false,
      "inputs": [
        {
          "indexed": false,
          "internalType": "uint32",
          "name": "poolId",
          "type": "uint32"
        },
        {
          "components": [
            {
              "internalType": "uint16",
              "name": "initialMarginRatioBps",
              "type": "uint16"
            },
            {
              "internalType": "uint16",
              "name": "maintainanceMarginRatioBps",
              "type": "uint16"
            },
            {
              "internalType": "uint16",
              "name": "maxVirtualPriceDeviationRatioBps",
              "type": "uint16"
            },
            {
              "internalType": "uint32",
              "name": "twapDuration",
              "type": "uint32"
            },
            {
              "internalType": "bool",
              "name": "isAllowedForTrade",
              "type": "bool"
            },
            {
              "internalType": "bool",
              "name": "isCrossMargined",
              "type": "bool"
            },
            {
              "internalType": "contract IOracle",
              "name": "oracle",
              "type": "address"
            }
          ],
          "indexed": false,
          "internalType": "struct IClearingHouseStructures.PoolSettings",
          "name": "settings",
          "type": "tuple"
        }
      ],
      "name": "PoolSettingsUpdated",
      "type": "event"
    },
    {
      "anonymous": false,
      "inputs": [
        {
          "components": [
            {
              "internalType": "uint16",
              "name": "rangeLiquidationFeeFraction",
              "type": "uint16"
            },
            {
              "internalType": "uint16",
              "name": "tokenLiquidationFeeFraction",
              "type": "uint16"
            },
            {
              "internalType": "uint16",
              "name": "closeFactorMMThresholdBps",
              "type": "uint16"
            },
            {
              "internalType": "uint16",
              "name": "partialLiquidationCloseFactorBps",
              "type": "uint16"
            },
            {
              "internalType": "uint16",
              "name": "insuranceFundFeeShareBps",
              "type": "uint16"
            },
            {
              "internalType": "uint16",
              "name": "liquidationSlippageSqrtToleranceBps",
              "type": "uint16"
            },
            {
              "internalType": "uint64",
              "name": "maxRangeLiquidationFees",
              "type": "uint64"
            },
            {
              "internalType": "uint64",
              "name": "minNotionalLiquidatable",
              "type": "uint64"
            }
          ],
          "indexed": false,
          "internalType": "struct IClearingHouseStructures.LiquidationParams",
          "name": "liquidationParams",
          "type": "tuple"
        },
        {
          "indexed": false,
          "internalType": "uint256",
          "name": "removeLimitOrderFee",
          "type": "uint256"
        },
        {
          "indexed": false,
          "internalType": "uint256",
          "name": "minimumOrderNotional",
          "type": "uint256"
        },
        {
          "indexed": false,
          "internalType": "uint256",
          "name": "minRequiredMargin",
          "type": "uint256"
        }
      ],
      "name": "ProtocolSettingsUpdated",
      "type": "event"
    },
    {
      "anonymous": false,
      "inputs": [
        {
          "indexed": true,
          "internalType": "address",
          "name": "previousTeamMultisig",
          "type": "address"
        },
        {
          "indexed": true,
          "internalType": "address",
          "name": "newTeamMultisig",
          "type": "address"
        }
      ],
      "name": "TeamMultisigTransferred",
      "type": "event"
    },
    {
      "anonymous": false,
      "inputs": [
        {
          "indexed": false,
          "internalType": "address",
          "name": "account",
          "type": "address"
        }
      ],
      "name": "Unpaused",
      "type": "event"
    },
    {
      "inputs": [],
      "name": "createAccount",
      "outputs": [
        {
          "internalType": "uint256",
          "name": "newAccountId",
          "type": "uint256"
        }
      ],
      "stateMutability": "nonpayable",
      "type": "function"
    },
    {
      "inputs": [
        {
          "internalType": "uint32",
          "name": "collateralId",
          "type": "uint32"
        },
        {
          "internalType": "uint256",
          "name": "amount",
          "type": "uint256"
        }
      ],
      "name": "createAccountAndAddMargin",
      "outputs": [
        {
          "internalType": "uint256",
          "name": "newAccountId",
          "type": "uint256"
        }
      ],
      "stateMutability": "nonpayable",
      "type": "function"
    },
    {
      "inputs": [
        {
          "internalType": "bytes32",
          "name": "slot",
          "type": "bytes32"
        }
      ],
      "name": "extsload",
      "outputs": [
        {
          "internalType": "bytes32",
          "name": "val",
          "type": "bytes32"
        }
      ],
      "stateMutability": "view",
      "type": "function"
    },
    {
      "inputs": [
        {
          "internalType": "bytes32[]",
          "name": "slots",
          "type": "bytes32[]"
        }
      ],
      "name": "extsload",
      "outputs": [
        {
          "internalType": "bytes32[]",
          "name": "",
          "type": "bytes32[]"
        }
      ],
      "stateMutability": "view",
      "type": "function"
    },
    {
      "inputs": [
        {
          "internalType": "uint256",
          "name": "accountId",
          "type": "uint256"
        }
      ],
      "name": "getAccountInfo",
      "outputs": [
        {
          "internalType": "address",
          "name": "owner",
          "type": "address"
        },
        {
          "internalType": "int256",
          "name": "vQuoteBalance",
          "type": "int256"
        },
        {
          "components": [
            {
              "internalType": "contract IERC20",
              "name": "collateral",
              "type": "address"
            },
            {
              "internalType": "uint256",
              "name": "balance",
              "type": "uint256"
            }
          ],
          "internalType": "struct IClearingHouseStructures.CollateralDepositView[]",
          "name": "collateralDeposits",
          "type": "tuple[]"
        },
        {
          "components": [
            {
              "internalType": "uint32",
              "name": "poolId",
              "type": "uint32"
            },
            {
              "internalType": "int256",
              "name": "balance",
              "type": "int256"
            },
            {
              "internalType": "int256",
              "name": "netTraderPosition",
              "type": "int256"
            },
            {
              "internalType": "int256",
              "name": "sumALastX128",
              "type": "int256"
            },
            {
              "components": [
                {
                  "internalType": "int24",
                  "name": "tickLower",
                  "type": "int24"
                },
                {
                  "internalType": "int24",
                  "name": "tickUpper",
                  "type": "int24"
                },
                {
                  "internalType": "uint128",
                  "name": "liquidity",
                  "type": "uint128"
                },
                {
                  "internalType": "int256",
                  "name": "vTokenAmountIn",
                  "type": "int256"
                },
                {
                  "internalType": "int256",
                  "name": "sumALastX128",
                  "type": "int256"
                },
                {
                  "internalType": "int256",
                  "name": "sumBInsideLastX128",
                  "type": "int256"
                },
                {
                  "internalType": "int256",
                  "name": "sumFpInsideLastX128",
                  "type": "int256"
                },
                {
                  "internalType": "uint256",
                  "name": "sumFeeInsideLastX128",
                  "type": "uint256"
                },
                {
                  "internalType": "enum IClearingHouseEnums.LimitOrderType",
                  "name": "limitOrderType",
                  "type": "uint8"
                }
              ],
              "internalType": "struct IClearingHouseStructures.LiquidityPositionView[]",
              "name": "liquidityPositions",
              "type": "tuple[]"
            }
          ],
          "internalType": "struct IClearingHouseStructures.VTokenPositionView[]",
          "name": "tokenPositions",
          "type": "tuple[]"
        }
      ],
      "stateMutability": "view",
      "type": "function"
    },
    {
      "inputs": [
        {
          "internalType": "uint256",
          "name": "accountId",
          "type": "uint256"
        },
        {
          "internalType": "bool",
          "name": "isInitialMargin",
          "type": "bool"
        }
      ],
      "name": "getAccountMarketValueAndRequiredMargin",
      "outputs": [
        {
          "internalType": "int256",
          "name": "marketValue",
          "type": "int256"
        },
        {
          "internalType": "int256",
          "name": "requiredMargin",
          "type": "int256"
        }
      ],
      "stateMutability": "view",
      "type": "function"
    },
    {
      "inputs": [
        {
          "internalType": "uint256",
          "name": "accountId",
          "type": "uint256"
        }
      ],
      "name": "getAccountNetProfit",
      "outputs": [
        {
          "internalType": "int256",
          "name": "accountNetProfit",
          "type": "int256"
        }
      ],
      "stateMutability": "view",
      "type": "function"
    },
    {
      "inputs": [
        {
          "internalType": "uint256",
          "name": "accountId",
          "type": "uint256"
        },
        {
          "internalType": "uint32",
          "name": "poolId",
          "type": "uint32"
        }
      ],
      "name": "getAccountNetTokenPosition",
      "outputs": [
        {
          "internalType": "int256",
          "name": "netPosition",
          "type": "int256"
        }
      ],
      "stateMutability": "view",
      "type": "function"
    },
    {
      "inputs": [
        {
          "internalType": "uint32",
          "name": "collateralId",
          "type": "uint32"
        }
      ],
      "name": "getCollateralInfo",
      "outputs": [
        {
          "components": [
            {
              "internalType": "contract IERC20",
              "name": "token",
              "type": "address"
            },
            {
              "components": [
                {
                  "internalType": "contract IOracle",
                  "name": "oracle",
                  "type": "address"
                },
                {
                  "internalType": "uint32",
                  "name": "twapDuration",
                  "type": "uint32"
                },
                {
                  "internalType": "bool",
                  "name": "isAllowedForDeposit",
                  "type": "bool"
                }
              ],
              "internalType": "struct IClearingHouseStructures.CollateralSettings",
              "name": "settings",
              "type": "tuple"
            }
          ],
          "internalType": "struct IClearingHouseStructures.Collateral",
          "name": "",
          "type": "tuple"
        }
      ],
      "stateMutability": "view",
      "type": "function"
    },
    {
      "inputs": [
        {
          "internalType": "uint32",
          "name": "poolId",
          "type": "uint32"
        }
      ],
      "name": "getPoolInfo",
      "outputs": [
        {
          "components": [
            {
              "internalType": "contract IVToken",
              "name": "vToken",
              "type": "address"
            },
            {
              "internalType": "contract IUniswapV3Pool",
              "name": "vPool",
              "type": "address"
            },
            {
              "internalType": "contract IVPoolWrapper",
              "name": "vPoolWrapper",
              "type": "address"
            },
            {
              "components": [
                {
                  "internalType": "uint16",
                  "name": "initialMarginRatioBps",
                  "type": "uint16"
                },
                {
                  "internalType": "uint16",
                  "name": "maintainanceMarginRatioBps",
                  "type": "uint16"
                },
                {
                  "internalType": "uint16",
                  "name": "maxVirtualPriceDeviationRatioBps",
                  "type": "uint16"
                },
                {
                  "internalType": "uint32",
                  "name": "twapDuration",
                  "type": "uint32"
                },
                {
                  "internalType": "bool",
                  "name": "isAllowedForTrade",
                  "type": "bool"
                },
                {
                  "internalType": "bool",
                  "name": "isCrossMargined",
                  "type": "bool"
                },
                {
                  "internalType": "contract IOracle",
                  "name": "oracle",
                  "type": "address"
                }
              ],
              "internalType": "struct IClearingHouseStructures.PoolSettings",
              "name": "settings",
              "type": "tuple"
            }
          ],
          "internalType": "struct IClearingHouseStructures.Pool",
          "name": "",
          "type": "tuple"
        }
      ],
      "stateMutability": "view",
      "type": "function"
    },
    {
      "inputs": [],
      "name": "getProtocolInfo",
      "outputs": [
        {
          "internalType": "contract IERC20",
          "name": "settlementToken",
          "type": "address"
        },
        {
          "internalType": "contract IVQuote",
          "name": "vQuote",
          "type": "address"
        },
        {
          "components": [
            {
              "internalType": "uint16",
              "name": "rangeLiquidationFeeFraction",
              "type": "uint16"
            },
            {
              "internalType": "uint16",
              "name": "tokenLiquidationFeeFraction",
              "type": "uint16"
            },
            {
              "internalType": "uint16",
              "name": "closeFactorMMThresholdBps",
              "type": "uint16"
            },
            {
              "internalType": "uint16",
              "name": "partialLiquidationCloseFactorBps",
              "type": "uint16"
            },
            {
              "internalType": "uint16",
              "name": "insuranceFundFeeShareBps",
              "type": "uint16"
            },
            {
              "internalType": "uint16",
              "name": "liquidationSlippageSqrtToleranceBps",
              "type": "uint16"
            },
            {
              "internalType": "uint64",
              "name": "maxRangeLiquidationFees",
              "type": "uint64"
            },
            {
              "internalType": "uint64",
              "name": "minNotionalLiquidatable",
              "type": "uint64"
            }
          ],
          "internalType": "struct IClearingHouseStructures.LiquidationParams",
          "name": "liquidationParams",
          "type": "tuple"
        },
        {
          "internalType": "uint256",
          "name": "minRequiredMargin",
          "type": "uint256"
        },
        {
          "internalType": "uint256",
          "name": "removeLimitOrderFee",
          "type": "uint256"
        },
        {
          "internalType": "uint256",
          "name": "minimumOrderNotional",
          "type": "uint256"
        }
      ],
      "stateMutability": "view",
      "type": "function"
    },
    {
      "inputs": [
        {
          "internalType": "uint32",
          "name": "poolId",
          "type": "uint32"
        }
      ],
      "name": "getRealTwapPriceX128",
      "outputs": [
        {
          "internalType": "uint256",
          "name": "realPriceX128",
          "type": "uint256"
        }
      ],
      "stateMutability": "view",
      "type": "function"
    },
    {
      "inputs": [
        {
          "internalType": "uint32",
          "name": "poolId",
          "type": "uint32"
        }
      ],
      "name": "getVirtualTwapPriceX128",
      "outputs": [
        {
          "internalType": "uint256",
          "name": "virtualPriceX128",
          "type": "uint256"
        }
      ],
      "stateMutability": "view",
      "type": "function"
    },
    {
      "inputs": [],
      "name": "governance",
      "outputs": [
        {
          "internalType": "address",
          "name": "",
          "type": "address"
        }
      ],
      "stateMutability": "view",
      "type": "function"
    },
    {
      "inputs": [
        {
          "internalType": "address",
          "name": "_rageTradeFactoryAddress",
          "type": "address"
        },
        {
          "internalType": "contract IERC20",
          "name": "_defaultCollateralToken",
          "type": "address"
        },
        {
          "internalType": "contract IOracle",
          "name": "_defaultCollateralTokenOracle",
          "type": "address"
        },
        {
          "internalType": "contract IInsuranceFund",
          "name": "_insuranceFund",
          "type": "address"
        },
        {
          "internalType": "contract IVQuote",
          "name": "_vQuote",
          "type": "address"
        }
      ],
      "name": "initialize",
      "outputs": [],
      "stateMutability": "nonpayable",
      "type": "function"
    },
    {
      "inputs": [],
      "name": "insuranceFund",
      "outputs": [
        {
          "internalType": "contract IInsuranceFund",
          "name": "",
          "type": "address"
        }
      ],
      "stateMutability": "view",
      "type": "function"
    },
    {
      "inputs": [
        {
          "internalType": "uint32",
          "name": "poolId",
          "type": "uint32"
        }
      ],
      "name": "isPoolIdAvailable",
      "outputs": [
        {
          "internalType": "bool",
          "name": "",
          "type": "bool"
        }
      ],
      "stateMutability": "view",
      "type": "function"
    },
    {
      "inputs": [
        {
          "internalType": "uint256",
          "name": "accountId",
          "type": "uint256"
        }
      ],
      "name": "liquidateLiquidityPositions",
      "outputs": [],
      "stateMutability": "nonpayable",
      "type": "function"
    },
    {
      "inputs": [
        {
          "internalType": "uint256",
          "name": "targetAccountId",
          "type": "uint256"
        },
        {
          "internalType": "uint32",
          "name": "poolId",
          "type": "uint32"
        }
      ],
      "name": "liquidateTokenPosition",
      "outputs": [
        {
          "internalType": "int256",
          "name": "keeperFee",
          "type": "int256"
        }
      ],
      "stateMutability": "nonpayable",
      "type": "function"
    },
    {
      "inputs": [
        {
          "internalType": "bytes[]",
          "name": "data",
          "type": "bytes[]"
        }
      ],
      "name": "multicall",
      "outputs": [
        {
          "internalType": "bytes[]",
          "name": "results",
          "type": "bytes[]"
        }
      ],
      "stateMutability": "payable",
      "type": "function"
    },
    {
      "inputs": [
        {
          "internalType": "uint256",
          "name": "accountId",
          "type": "uint256"
        },
        {
          "components": [
            {
              "internalType": "enum IClearingHouseEnums.MulticallOperationType",
              "name": "operationType",
              "type": "uint8"
            },
            {
              "internalType": "bytes",
              "name": "data",
              "type": "bytes"
            }
          ],
          "internalType": "struct IClearingHouseStructures.MulticallOperation[]",
          "name": "operations",
          "type": "tuple[]"
        }
      ],
      "name": "multicallWithSingleMarginCheck",
      "outputs": [
        {
          "internalType": "bytes[]",
          "name": "results",
          "type": "bytes[]"
        }
      ],
      "stateMutability": "nonpayable",
      "type": "function"
    },
    {
      "inputs": [],
      "name": "numAccounts",
      "outputs": [
        {
          "internalType": "uint256",
          "name": "",
          "type": "uint256"
        }
      ],
      "stateMutability": "view",
      "type": "function"
    },
    {
      "inputs": [
        {
          "internalType": "uint32[]",
          "name": "allPoolIds",
          "type": "uint32[]"
        }
      ],
      "name": "pause",
      "outputs": [],
      "stateMutability": "nonpayable",
      "type": "function"
    },
    {
      "inputs": [],
      "name": "paused",
      "outputs": [
        {
          "internalType": "bool",
          "name": "",
          "type": "bool"
        }
      ],
      "stateMutability": "view",
      "type": "function"
    },
    {
      "inputs": [],
      "name": "rageTradeFactoryAddress",
      "outputs": [
        {
          "internalType": "address",
          "name": "",
          "type": "address"
        }
      ],
      "stateMutability": "view",
      "type": "function"
    },
    {
      "inputs": [
        {
          "components": [
            {
              "internalType": "contract IVToken",
              "name": "vToken",
              "type": "address"
            },
            {
              "internalType": "contract IUniswapV3Pool",
              "name": "vPool",
              "type": "address"
            },
            {
              "internalType": "contract IVPoolWrapper",
              "name": "vPoolWrapper",
              "type": "address"
            },
            {
              "components": [
                {
                  "internalType": "uint16",
                  "name": "initialMarginRatioBps",
                  "type": "uint16"
                },
                {
                  "internalType": "uint16",
                  "name": "maintainanceMarginRatioBps",
                  "type": "uint16"
                },
                {
                  "internalType": "uint16",
                  "name": "maxVirtualPriceDeviationRatioBps",
                  "type": "uint16"
                },
                {
                  "internalType": "uint32",
                  "name": "twapDuration",
                  "type": "uint32"
                },
                {
                  "internalType": "bool",
                  "name": "isAllowedForTrade",
                  "type": "bool"
                },
                {
                  "internalType": "bool",
                  "name": "isCrossMargined",
                  "type": "bool"
                },
                {
                  "internalType": "contract IOracle",
                  "name": "oracle",
                  "type": "address"
                }
              ],
              "internalType": "struct IClearingHouseStructures.PoolSettings",
              "name": "settings",
              "type": "tuple"
            }
          ],
          "internalType": "struct IClearingHouseStructures.Pool",
          "name": "poolInfo",
          "type": "tuple"
        }
      ],
      "name": "registerPool",
      "outputs": [],
      "stateMutability": "nonpayable",
      "type": "function"
    },
    {
      "inputs": [
        {
          "internalType": "uint256",
          "name": "accountId",
          "type": "uint256"
        },
        {
          "internalType": "uint32",
          "name": "poolId",
          "type": "uint32"
        },
        {
          "internalType": "int24",
          "name": "tickLower",
          "type": "int24"
        },
        {
          "internalType": "int24",
          "name": "tickUpper",
          "type": "int24"
        }
      ],
      "name": "removeLimitOrder",
      "outputs": [],
      "stateMutability": "nonpayable",
      "type": "function"
    },
    {
      "inputs": [
        {
          "internalType": "uint256",
          "name": "accountId",
          "type": "uint256"
        }
      ],
      "name": "settleProfit",
      "outputs": [],
      "stateMutability": "nonpayable",
      "type": "function"
    },
    {
      "inputs": [
        {
          "internalType": "uint256",
          "name": "accountId",
          "type": "uint256"
        },
        {
          "internalType": "uint32",
          "name": "poolId",
          "type": "uint32"
        },
        {
          "components": [
            {
              "internalType": "int256",
              "name": "amount",
              "type": "int256"
            },
            {
              "internalType": "uint160",
              "name": "sqrtPriceLimit",
              "type": "uint160"
            },
            {
              "internalType": "bool",
              "name": "isNotional",
              "type": "bool"
            },
            {
              "internalType": "bool",
              "name": "isPartialAllowed",
              "type": "bool"
            },
            {
              "internalType": "bool",
              "name": "settleProfit",
              "type": "bool"
            }
          ],
          "internalType": "struct IClearingHouseStructures.SwapParams",
          "name": "swapParams",
          "type": "tuple"
        }
      ],
      "name": "swapToken",
      "outputs": [
        {
          "internalType": "int256",
          "name": "vTokenAmountOut",
          "type": "int256"
        },
        {
          "internalType": "int256",
          "name": "vQuoteAmountOut",
          "type": "int256"
        }
      ],
      "stateMutability": "nonpayable",
      "type": "function"
    },
    {
      "inputs": [],
      "name": "teamMultisig",
      "outputs": [
        {
          "internalType": "address",
          "name": "",
          "type": "address"
        }
      ],
      "stateMutability": "view",
      "type": "function"
    },
    {
      "inputs": [
        {
          "internalType": "address",
          "name": "newGovernance",
          "type": "address"
        }
      ],
      "name": "transferGovernance",
      "outputs": [],
      "stateMutability": "nonpayable",
      "type": "function"
    },
    {
      "inputs": [
        {
          "internalType": "address",
          "name": "newTeamMultisig",
          "type": "address"
        }
      ],
      "name": "transferTeamMultisig",
      "outputs": [],
      "stateMutability": "nonpayable",
      "type": "function"
    },
    {
      "inputs": [
        {
          "internalType": "uint32[]",
          "name": "allPoolIds",
          "type": "uint32[]"
        }
      ],
      "name": "unpause",
      "outputs": [],
      "stateMutability": "nonpayable",
      "type": "function"
    },
    {
      "inputs": [
        {
          "internalType": "contract IERC20",
          "name": "cToken",
          "type": "address"
        },
        {
          "components": [
            {
              "internalType": "contract IOracle",
              "name": "oracle",
              "type": "address"
            },
            {
              "internalType": "uint32",
              "name": "twapDuration",
              "type": "uint32"
            },
            {
              "internalType": "bool",
              "name": "isAllowedForDeposit",
              "type": "bool"
            }
          ],
          "internalType": "struct IClearingHouseStructures.CollateralSettings",
          "name": "collateralSettings",
          "type": "tuple"
        }
      ],
      "name": "updateCollateralSettings",
      "outputs": [],
      "stateMutability": "nonpayable",
      "type": "function"
    },
    {
      "inputs": [
        {
          "internalType": "uint256",
          "name": "accountId",
          "type": "uint256"
        },
        {
          "internalType": "uint32",
          "name": "collateralId",
          "type": "uint32"
        },
        {
          "internalType": "int256",
          "name": "amount",
          "type": "int256"
        }
      ],
      "name": "updateMargin",
      "outputs": [],
      "stateMutability": "nonpayable",
      "type": "function"
    },
    {
      "inputs": [
        {
          "internalType": "uint32",
          "name": "poolId",
          "type": "uint32"
        },
        {
          "components": [
            {
              "internalType": "uint16",
              "name": "initialMarginRatioBps",
              "type": "uint16"
            },
            {
              "internalType": "uint16",
              "name": "maintainanceMarginRatioBps",
              "type": "uint16"
            },
            {
              "internalType": "uint16",
              "name": "maxVirtualPriceDeviationRatioBps",
              "type": "uint16"
            },
            {
              "internalType": "uint32",
              "name": "twapDuration",
              "type": "uint32"
            },
            {
              "internalType": "bool",
              "name": "isAllowedForTrade",
              "type": "bool"
            },
            {
              "internalType": "bool",
              "name": "isCrossMargined",
              "type": "bool"
            },
            {
              "internalType": "contract IOracle",
              "name": "oracle",
              "type": "address"
            }
          ],
          "internalType": "struct IClearingHouseStructures.PoolSettings",
          "name": "newSettings",
          "type": "tuple"
        }
      ],
      "name": "updatePoolSettings",
      "outputs": [],
      "stateMutability": "nonpayable",
      "type": "function"
    },
    {
      "inputs": [
        {
          "internalType": "uint256",
          "name": "accountId",
          "type": "uint256"
        },
        {
          "internalType": "int256",
          "name": "amount",
          "type": "int256"
        }
      ],
      "name": "updateProfit",
      "outputs": [],
      "stateMutability": "nonpayable",
      "type": "function"
    },
    {
      "inputs": [
        {
          "components": [
            {
              "internalType": "uint16",
              "name": "rangeLiquidationFeeFraction",
              "type": "uint16"
            },
            {
              "internalType": "uint16",
              "name": "tokenLiquidationFeeFraction",
              "type": "uint16"
            },
            {
              "internalType": "uint16",
              "name": "closeFactorMMThresholdBps",
              "type": "uint16"
            },
            {
              "internalType": "uint16",
              "name": "partialLiquidationCloseFactorBps",
              "type": "uint16"
            },
            {
              "internalType": "uint16",
              "name": "insuranceFundFeeShareBps",
              "type": "uint16"
            },
            {
              "internalType": "uint16",
              "name": "liquidationSlippageSqrtToleranceBps",
              "type": "uint16"
            },
            {
              "internalType": "uint64",
              "name": "maxRangeLiquidationFees",
              "type": "uint64"
            },
            {
              "internalType": "uint64",
              "name": "minNotionalLiquidatable",
              "type": "uint64"
            }
          ],
          "internalType": "struct IClearingHouseStructures.LiquidationParams",
          "name": "_liquidationParams",
          "type": "tuple"
        },
        {
          "internalType": "uint256",
          "name": "_removeLimitOrderFee",
          "type": "uint256"
        },
        {
          "internalType": "uint256",
          "name": "_minimumOrderNotional",
          "type": "uint256"
        },
        {
          "internalType": "uint256",
          "name": "_minRequiredMargin",
          "type": "uint256"
        }
      ],
      "name": "updateProtocolSettings",
      "outputs": [],
      "stateMutability": "nonpayable",
      "type": "function"
    },
    {
      "inputs": [
        {
          "internalType": "uint256",
          "name": "accountId",
          "type": "uint256"
        },
        {
          "internalType": "uint32",
          "name": "poolId",
          "type": "uint32"
        },
        {
          "components": [
            {
              "internalType": "int24",
              "name": "tickLower",
              "type": "int24"
            },
            {
              "internalType": "int24",
              "name": "tickUpper",
              "type": "int24"
            },
            {
              "internalType": "int128",
              "name": "liquidityDelta",
              "type": "int128"
            },
            {
              "internalType": "uint160",
              "name": "sqrtPriceCurrent",
              "type": "uint160"
            },
            {
              "internalType": "uint16",
              "name": "slippageToleranceBps",
              "type": "uint16"
            },
            {
              "internalType": "bool",
              "name": "closeTokenPosition",
              "type": "bool"
            },
            {
              "internalType": "enum IClearingHouseEnums.LimitOrderType",
              "name": "limitOrderType",
              "type": "uint8"
            },
            {
              "internalType": "bool",
              "name": "settleProfit",
              "type": "bool"
            }
          ],
          "internalType": "struct IClearingHouseStructures.LiquidityChangeParams",
          "name": "liquidityChangeParams",
          "type": "tuple"
        }
      ],
      "name": "updateRangeOrder",
      "outputs": [
        {
          "internalType": "int256",
          "name": "vTokenAmountOut",
          "type": "int256"
        },
        {
          "internalType": "int256",
          "name": "vQuoteAmountOut",
          "type": "int256"
        }
      ],
      "stateMutability": "nonpayable",
      "type": "function"
    },
    {
      "inputs": [
        {
          "internalType": "address[]",
          "name": "wrapperAddresses",
          "type": "address[]"
        }
      ],
      "name": "withdrawProtocolFee",
      "outputs": [],
      "stateMutability": "nonpayable",
      "type": "function"
    },
    {
      "inputs": [],
      "name": "InsufficientCollateralBalance",
      "type": "error"
    },
    {
      "inputs": [
        {
          "internalType": "int256",
          "name": "accountMarketValue",
          "type": "int256"
        },
        {
          "internalType": "int256",
          "name": "totalRequiredMargin",
          "type": "int256"
        }
      ],
      "name": "InvalidLiquidationAccountAboveWater",
      "type": "error"
    },
    {
      "inputs": [
        {
          "internalType": "uint32",
          "name": "poolId",
          "type": "uint32"
        }
      ],
      "name": "InvalidLiquidationActiveRangePresent",
      "type": "error"
    },
    {
      "inputs": [
        {
          "internalType": "int256",
          "name": "accountMarketValue",
          "type": "int256"
        },
        {
          "internalType": "int256",
          "name": "totalRequiredMargin",
          "type": "int256"
        }
      ],
      "name": "InvalidTransactionNotEnoughMargin",
      "type": "error"
    },
    {
      "inputs": [
        {
          "internalType": "int256",
          "name": "totalProfit",
          "type": "int256"
        }
      ],
      "name": "InvalidTransactionNotEnoughProfit",
      "type": "error"
    },
    {
      "inputs": [
        {
          "internalType": "int24",
          "name": "tickLower",
          "type": "int24"
        },
        {
          "internalType": "int24",
          "name": "tickUpper",
          "type": "int24"
        },
        {
          "internalType": "uint256",
          "name": "liquidity",
          "type": "uint256"
        }
      ],
      "name": "LPS_DeactivationFailed",
      "type": "error"
    },
    {
      "inputs": [
        {
          "internalType": "int24",
          "name": "tickLower",
          "type": "int24"
        },
        {
          "internalType": "int24",
          "name": "tickUpper",
          "type": "int24"
        }
      ],
      "name": "LPS_IllegalTicks",
      "type": "error"
    },
    {
      "inputs": [],
      "name": "LPS_InactiveRange",
      "type": "error"
    },
    {
      "inputs": [],
      "name": "LP_AlreadyInitialized",
      "type": "error"
    },
    {
      "inputs": [],
      "name": "LP_IneligibleLimitOrderRemoval",
      "type": "error"
    },
    {
      "inputs": [
        {
          "internalType": "uint256",
          "name": "y_target",
          "type": "uint256"
        },
        {
          "internalType": "uint160",
          "name": "x_lower",
          "type": "uint160"
        },
        {
          "internalType": "uint160",
          "name": "x_upper",
          "type": "uint160"
        }
      ],
      "name": "SolutionOutOfBounds",
      "type": "error"
    },
    {
      "inputs": [
        {
          "internalType": "uint32",
          "name": "element",
          "type": "uint32"
        }
      ],
      "name": "U32L8_IllegalElement",
      "type": "error"
    },
    {
      "inputs": [
        {
          "internalType": "uint32",
          "name": "element",
          "type": "uint32"
        }
      ],
      "name": "U32L8_NoSpaceLeftToInsert",
      "type": "error"
    },
    {
      "inputs": [
        {
          "internalType": "uint48",
          "name": "element",
          "type": "uint48"
        }
      ],
      "name": "U48L5_IllegalElement",
      "type": "error"
    },
    {
      "inputs": [
        {
          "internalType": "uint48",
          "name": "element",
          "type": "uint48"
        }
      ],
      "name": "U48L5_NoSpaceLeftToInsert",
      "type": "error"
    },
    {
      "inputs": [
        {
          "internalType": "uint32",
          "name": "poolId",
          "type": "uint32"
        }
      ],
      "name": "VPS_DeactivationFailed",
      "type": "error"
    },
    {
      "inputs": [
        {
          "internalType": "uint32",
          "name": "poolId",
          "type": "uint32"
        }
      ],
      "name": "VPS_TokenInactive",
      "type": "error"
    },
    {
      "anonymous": false,
      "inputs": [
        {
          "indexed": true,
          "internalType": "uint256",
          "name": "accountId",
          "type": "uint256"
        },
        {
          "indexed": true,
          "internalType": "uint32",
          "name": "poolId",
          "type": "uint32"
        },
        {
          "indexed": false,
          "internalType": "int24",
          "name": "tickLower",
          "type": "int24"
        },
        {
          "indexed": false,
          "internalType": "int24",
          "name": "tickUpper",
          "type": "int24"
        },
        {
          "indexed": false,
          "internalType": "int128",
          "name": "liquidityDelta",
          "type": "int128"
        },
        {
          "indexed": false,
          "internalType": "enum IClearingHouseEnums.LimitOrderType",
          "name": "limitOrderType",
          "type": "uint8"
        },
        {
          "indexed": false,
          "internalType": "int256",
          "name": "vTokenAmountOut",
          "type": "int256"
        },
        {
          "indexed": false,
          "internalType": "int256",
          "name": "vQuoteAmountOut",
          "type": "int256"
        },
        {
          "indexed": false,
          "internalType": "uint160",
          "name": "sqrtPriceX96",
          "type": "uint160"
        }
      ],
      "name": "LiquidityChanged",
      "type": "event"
    },
    {
      "anonymous": false,
      "inputs": [
        {
          "indexed": true,
          "internalType": "uint256",
          "name": "accountId",
          "type": "uint256"
        },
        {
          "indexed": true,
          "internalType": "uint32",
          "name": "poolId",
          "type": "uint32"
        },
        {
          "indexed": false,
          "internalType": "int24",
          "name": "tickLower",
          "type": "int24"
        },
        {
          "indexed": false,
          "internalType": "int24",
          "name": "tickUpper",
          "type": "int24"
        },
        {
          "indexed": false,
          "internalType": "int256",
          "name": "amount",
          "type": "int256"
        }
      ],
      "name": "LiquidityPositionEarningsRealized",
      "type": "event"
    },
    {
      "anonymous": false,
      "inputs": [
        {
          "indexed": true,
          "internalType": "uint256",
          "name": "accountId",
          "type": "uint256"
        },
        {
          "indexed": true,
          "internalType": "uint32",
          "name": "poolId",
          "type": "uint32"
        },
        {
          "indexed": false,
          "internalType": "int24",
          "name": "tickLower",
          "type": "int24"
        },
        {
          "indexed": false,
          "internalType": "int24",
          "name": "tickUpper",
          "type": "int24"
        },
        {
          "indexed": false,
          "internalType": "int256",
          "name": "amount",
          "type": "int256"
        },
        {
          "indexed": false,
          "internalType": "int256",
          "name": "sumALastX128",
          "type": "int256"
        },
        {
          "indexed": false,
          "internalType": "int256",
          "name": "sumBInsideLastX128",
          "type": "int256"
        },
        {
          "indexed": false,
          "internalType": "int256",
          "name": "sumFpInsideLastX128",
          "type": "int256"
        },
        {
          "indexed": false,
          "internalType": "uint256",
          "name": "sumFeeInsideLastX128",
          "type": "uint256"
        }
      ],
      "name": "LiquidityPositionFundingPaymentRealized",
      "type": "event"
    },
    {
      "anonymous": false,
      "inputs": [
        {
          "indexed": true,
          "internalType": "uint256",
          "name": "accountId",
          "type": "uint256"
        },
        {
          "indexed": true,
          "internalType": "address",
          "name": "keeperAddress",
          "type": "address"
        },
        {
          "indexed": false,
          "internalType": "int256",
          "name": "liquidationFee",
          "type": "int256"
        },
        {
          "indexed": false,
          "internalType": "int256",
          "name": "keeperFee",
          "type": "int256"
        },
        {
          "indexed": false,
          "internalType": "int256",
          "name": "insuranceFundFee",
          "type": "int256"
        },
        {
          "indexed": false,
          "internalType": "int256",
          "name": "accountMarketValueFinal",
          "type": "int256"
        }
      ],
      "name": "LiquidityPositionsLiquidated",
      "type": "event"
    },
    {
      "anonymous": false,
      "inputs": [
        {
          "indexed": true,
          "internalType": "uint256",
          "name": "accountId",
          "type": "uint256"
        },
        {
          "indexed": true,
          "internalType": "uint32",
          "name": "collateralId",
          "type": "uint32"
        },
        {
          "indexed": false,
          "internalType": "int256",
          "name": "amount",
          "type": "int256"
        },
        {
          "indexed": false,
          "internalType": "bool",
          "name": "isSettleProfit",
          "type": "bool"
        }
      ],
      "name": "MarginUpdated",
      "type": "event"
    },
    {
      "anonymous": false,
      "inputs": [
        {
          "indexed": true,
          "internalType": "uint256",
          "name": "accountId",
          "type": "uint256"
        },
        {
          "indexed": false,
          "internalType": "int256",
          "name": "amount",
          "type": "int256"
        }
      ],
      "name": "ProfitUpdated",
      "type": "event"
    },
    {
      "anonymous": false,
      "inputs": [
        {
          "indexed": true,
          "internalType": "address",
          "name": "wrapperAddress",
          "type": "address"
        },
        {
          "indexed": false,
          "internalType": "uint256",
          "name": "feeAmount",
          "type": "uint256"
        }
      ],
      "name": "ProtocolFeesWithdrawn",
      "type": "event"
    },
    {
      "anonymous": false,
      "inputs": [
        {
          "indexed": true,
          "internalType": "uint256",
          "name": "accountId",
          "type": "uint256"
        },
        {
          "indexed": true,
          "internalType": "uint32",
          "name": "poolId",
          "type": "uint32"
        },
        {
          "indexed": false,
          "internalType": "int256",
          "name": "vTokenAmountOut",
          "type": "int256"
        },
        {
          "indexed": false,
          "internalType": "int256",
          "name": "vQuoteAmountOut",
          "type": "int256"
        },
        {
          "indexed": false,
          "internalType": "uint160",
          "name": "sqrtPriceX96Start",
          "type": "uint160"
        },
        {
          "indexed": false,
          "internalType": "uint160",
          "name": "sqrtPriceX96End",
          "type": "uint160"
        }
      ],
      "name": "TokenPositionChanged",
      "type": "event"
    },
    {
      "anonymous": false,
      "inputs": [
        {
          "indexed": true,
          "internalType": "uint256",
          "name": "accountId",
          "type": "uint256"
        },
        {
          "indexed": true,
          "internalType": "uint32",
          "name": "poolId",
          "type": "uint32"
        },
        {
          "indexed": false,
          "internalType": "int24",
          "name": "tickLower",
          "type": "int24"
        },
        {
          "indexed": false,
          "internalType": "int24",
          "name": "tickUpper",
          "type": "int24"
        },
        {
          "indexed": false,
          "internalType": "int256",
          "name": "vTokenAmountOut",
          "type": "int256"
        }
      ],
      "name": "TokenPositionChangedDueToLiquidityChanged",
      "type": "event"
    },
    {
      "anonymous": false,
      "inputs": [
        {
          "indexed": true,
          "internalType": "uint256",
          "name": "accountId",
          "type": "uint256"
        },
        {
          "indexed": true,
          "internalType": "uint32",
          "name": "poolId",
          "type": "uint32"
        },
        {
          "indexed": false,
          "internalType": "int256",
          "name": "amount",
          "type": "int256"
        },
        {
          "indexed": false,
          "internalType": "int256",
          "name": "sumALastX128",
          "type": "int256"
        }
      ],
      "name": "TokenPositionFundingPaymentRealized",
      "type": "event"
    },
    {
      "anonymous": false,
      "inputs": [
        {
          "indexed": true,
          "internalType": "uint256",
          "name": "accountId",
          "type": "uint256"
        },
        {
          "indexed": true,
          "internalType": "uint256",
          "name": "liquidatorAccountId",
          "type": "uint256"
        },
        {
          "indexed": true,
          "internalType": "uint32",
          "name": "poolId",
          "type": "uint32"
        },
        {
          "indexed": false,
          "internalType": "int256",
          "name": "keeperFee",
          "type": "int256"
        },
        {
          "indexed": false,
          "internalType": "int256",
          "name": "insuranceFundFee",
          "type": "int256"
        },
        {
          "indexed": false,
          "internalType": "int256",
          "name": "accountMarketValueFinal",
          "type": "int256"
        }
      ],
      "name": "TokenPositionLiquidated",
      "type": "event"
    }
  ],
  "transactionHash": "0xe2f37ca2b616da1b946e0c80ab2dd540ae3f89fb99ad9f63fee0cc1b49c979eb",
  "args": [],
  "numDeployments": 1,
  "solcInputHash": "2c50e072ceda0977404e9919cebb71fa",
  "bytecode": "0x60806040523480156200001157600080fd5b506200001c62000022565b620002e3565b61013854610100900460ff1662000041576101385460ff16156200004b565b6200004b620000f7565b620000a35760405162461bcd60e51b815260206004820152602e6024820152600080516020620061cc83398151915260448201526d191e481a5b9a5d1a585b1a5e995960921b60648201526084015b60405180910390fd5b61013854610100900460ff16158015620000c857610138805461ffff19166101011790555b620000d262000115565b33620000df818062000185565b508015620000f457610138805461ff00191690555b50565b60006200010f30620002d460201b620021f51760201c565b15905090565b61013854610100900460ff16620001835760405162461bcd60e51b815260206004820152602b60248201527f496e697469616c697a61626c653a20636f6e7472616374206973206e6f74206960448201526a6e697469616c697a696e6760a81b60648201526084016200009a565b565b61013854610100900460ff16620001a4576101385460ff1615620001ae565b620001ae620000f7565b620002025760405162461bcd60e51b815260206004820152602e6024820152600080516020620061cc83398151915260448201526d191e481a5b9a5d1a585b1a5e995960921b60648201526084016200009a565b61013854610100900460ff161580156200022757610138805461ffff19166101011790555b61019d80546001600160a01b0319166001600160a01b0385169081179091556040516000907f5f56bee8cffbe9a78652a74a60705edede02af10b0bbb888ca44b79a0d42ce80908290a361019e80546001600160a01b0319166001600160a01b0384169081179091556040516000907f39355f2f5c8206286978f443aa8126bbd29fa09c53c04569502647f3a59c8cb2908290a38015620002cf57610138805461ff00191690555b505050565b6001600160a01b03163b151590565b615ed980620002f36000396000f3fe6080604052600436106102bb5760003560e01c806385ff7cbd1161016e578063bc38d542116100cb578063dbd035ff1161007f578063e3d41c1811610064578063e3d41c1814610a01578063e450f6f414610a21578063e67ed1df14610a4157600080fd5b8063dbd035ff146109b4578063e1f16713146109e157600080fd5b8063ce4c18de116100b0578063ce4c18de14610955578063d38bfff414610975578063dbc0c0851461099557600080fd5b8063bc38d54214610908578063c7505c151461093557600080fd5b8063a05c8baf11610122578063ac9650d811610107578063ac9650d814610777578063b670ed521461078a578063b7902303146108e857600080fd5b8063a05c8baf14610737578063a9b0a9341461075757600080fd5b80638f24ab11116101535780638f24ab11146106e25780639cd1be58146107025780639dca362f1461072257600080fd5b806385ff7cbd146106ac5780638ce25a93146106cc57600080fd5b8063440ab7451161021c578063706bdd25116101d05780637d2efe07116101b55780637d2efe07146106375780637f64d6631461065757806383d778eb1461067757600080fd5b8063706bdd25146105f75780637cc2f4f51461061757600080fd5b80635aa6e675116102015780635aa6e6751461059f5780635c975abb146105be5780636a486482146105d757600080fd5b8063440ab7451461054f578063569634d31461057f57600080fd5b80633d0aea3d116102735780633ffe794c116102585780633ffe794c146104e257806340c4f69b1461050257806343afafba1461052f57600080fd5b80633d0aea3d1461048a5780633d56a35e146104aa57600080fd5b80631459457a116102a45780631459457a1461040d5780631e2eaeaf1461042d5780633b561afc1461045a57600080fd5b80630dca69f9146102c05780630df181ea146103eb575b600080fd5b3480156102cc57600080fd5b506103d06040805161010081018252600080825260208201819052918101829052606081018290526080810182905260a0810182905260c0810182905260e0810182905281905050606654606754604080516101008101825260685461ffff80821683526201000082048116602084015264010000000082048116938301939093526601000000000000810483166060830152680100000000000000008104831660808301526a0100000000000000000000810490921660a082015267ffffffffffffffff600160601b8304811660c0830152600160a01b90920490911660e0820152606954606a54606b546001600160a01b039586169794909516955091939092565b6040516103e296959493929190614012565b60405180910390f35b3480156103f757600080fd5b5061040b6104063660046140da565b610a61565b005b34801561041957600080fd5b5061040b610428366004614113565b610b29565b34801561043957600080fd5b5061044c6104483660046140da565b5490565b6040519081526020016103e2565b34801561046657600080fd5b5061047a6104753660046140da565b610c69565b6040516103e294939291906141ae565b34801561049657600080fd5b5061040b6104a5366004614433565b610d0d565b3480156104b657600080fd5b5060d2546104ca906001600160a01b031681565b6040516001600160a01b0390911681526020016103e2565b3480156104ee57600080fd5b5061040b6104fd3660046144ce565b610d61565b34801561050e57600080fd5b5061052261051d366004614533565b610e47565b6040516103e291906145d7565b34801561053b57600080fd5b5061044c61054a366004614639565b6114d1565b34801561055b57600080fd5b5061056f61056a366004614669565b6114e6565b60405190151581526020016103e2565b34801561058b57600080fd5b5061040b61059a3660046140da565b61150e565b3480156105ab57600080fd5b5061019d546001600160a01b03166104ca565b3480156105ca57600080fd5b5061016b5460ff1661056f565b3480156105e357600080fd5b5061044c6105f2366004614639565b611517565b34801561060357600080fd5b5061044c610612366004614669565b6115ad565b34801561062357600080fd5b5061040b6106323660046146a0565b6115ba565b34801561064357600080fd5b5061040b6106523660046146f3565b6115cd565b34801561066357600080fd5b5061040b61067236600461472b565b611630565b34801561068357600080fd5b506106976106923660046147ba565b6116fb565b604080519283526020830191909152016103e2565b3480156106b857600080fd5b5061040b6106c73660046147f9565b611772565b3480156106d857600080fd5b5061044c60d05481565b3480156106ee57600080fd5b5061040b6106fd36600461483b565b611885565b34801561070e57600080fd5b5061040b61071d36600461487d565b611923565b34801561072e57600080fd5b5061044c611983565b34801561074357600080fd5b5061040b6107523660046148b2565b611a59565b34801561076357600080fd5b5061040b6107723660046147f9565b611b01565b6105226107853660046147f9565b611c0e565b34801561079657600080fd5b506108db6107a5366004614669565b604080516080808201835260008083526020808401829052838501829052845160e081018652828152908101829052938401819052606080850182905291840181905260a0840181905260c08401528101919091525063ffffffff90811660009081526064602090815260409182902082516080808201855282546001600160a01b03908116835260018401548116838601526002840154811683870152855160e08101875260039094015461ffff80821686526201000082048116968601969096526401000000008104909516958401959095526601000000000000840490951660608381019190915260ff6a0100000000000000000000850481161515968401969096526b0100000000000000000000008404909516151560a0830152600160601b90920490921660c08301529182015290565b6040516103e291906148f0565b3480156108f457600080fd5b5060d3546104ca906001600160a01b031681565b34801561091457600080fd5b50610928610923366004614669565b611d66565b6040516103e29190614994565b34801561094157600080fd5b506106976109503660046149dd565b611e05565b34801561096157600080fd5b5061044c610970366004614669565b611e7d565b34801561098157600080fd5b5061040b61099036600461472b565b611e8a565b3480156109a157600080fd5b5061019e546001600160a01b03166104ca565b3480156109c057600080fd5b506109d46109cf366004614a38565b611f3b565b6040516103e29190614ac3565b3480156109ed57600080fd5b5061040b6109fc3660046147f9565b611f69565b348015610a0d57600080fd5b5061044c610a1c3660046140da565b6120b6565b348015610a2d57600080fd5b5061044c610a3c366004614b07565b612140565b348015610a4d57600080fd5b50610697610a5c366004614b33565b612157565b61016b5460ff1615610aad5760405162461bcd60e51b815260206004820152601060248201526f14185d5cd8589b194e881c185d5cd95960821b60448201526064015b60405180910390fd5b6000610ab882612204565b604051637579c99360e11b815260048101829052606460248201529091507305dE8aA303c33b59c292Bca27f2d60c8C8141a5E9063eaf393269060440160006040518083038186803b158015610b0d57600080fd5b505af4158015610b21573d6000803e3d6000fd5b505050505050565b61013854610100900460ff16610b46576101385460ff1615610b4a565b303b155b610bad5760405162461bcd60e51b815260206004820152602e60248201527f496e697469616c697a61626c653a20636f6e747261637420697320616c72656160448201526d191e481a5b9a5d1a585b1a5e995960921b6064820152608401610aa4565b61013854610100900460ff16158015610bd157610138805461ffff19166101011790555b60d280546001600160a01b03199081166001600160a01b038981169190911790925560668054821688841617905560d38054821686841617905560678054909116848316179055604080516060810182529186168252603c6020830152600190820152610c3f90869061224a565b610c47612441565b610c4f612513565b8015610b2157610138805461ff0019169055505050505050565b600081815260d16020526040808220905163a0ba775760e01b8152600481019190915260646024820152819060609081907305dE8aA303c33b59c292Bca27f2d60c8C8141a5E9063a0ba775790604401600060405180830381865af4158015610cd6573d6000803e3d6000fd5b505050506040513d6000823e601f3d908101601f19168201604052610cfe9190810190614d6d565b93509350935093509193509193565b61019e546001600160a01b03163314801590610d35575061019d546001600160a01b03163314155b15610d5357604051636bd1573560e11b815260040160405180910390fd5b610d5d828261224a565b5050565b60d2546001600160a01b03163314610d8c576040516385734f3160e01b815260040160405180910390fd5b6000610dac610d9e602084018461472b565b6001600160a01b031661258c565b63ffffffff8116600090815260646020526040902054909150610dd7906001600160a01b031661259a565b610de357610de3614e74565b63ffffffff811660009081526064602052604090208290610e048282615004565b9050507f4182acc9c169391ef7e765eb446fc15c9d49bc73060c678bf4c424a5c0dbdbcb8183606001604051610e3b9291906151e3565b60405180910390a15050565b60608167ffffffffffffffff811115610e6257610e62614346565b604051908082528060200260200182016040528015610e9557816020015b6060815260200190600190039081610e805790505b5090506000610ea385612204565b905060008060005b858110156113dc576000878783818110610ec757610ec761529f565b9050602002810190610ed991906152b5565b610ee79060208101906152d5565b6006811115610ef857610ef8614184565b03610f6457600080888884818110610f1257610f1261529f565b9050602002810190610f2491906152b5565b610f329060208101906152f6565b810190610f3f9190614b07565b915091508380610f4f5750600081125b9350610f5d868383876125ac565b50506113ca565b6001878783818110610f7857610f7861529f565b9050602002810190610f8a91906152b5565b610f989060208101906152d5565b6006811115610fa957610fa9614184565b03611015576000878783818110610fc257610fc261529f565b9050602002810190610fd491906152b5565b610fe29060208101906152f6565b810190610fef91906140da565b9050610ffd858260006126d6565b600081121561100f5760019350600192505b506113ca565b60028787838181106110295761102961529f565b905060200281019061103b91906152b5565b6110499060208101906152d5565b600681111561105a5761105a614184565b03611107576000808888848181106110745761107461529f565b905060200281019061108691906152b5565b6110949060208101906152f6565b8101906110a1919061533d565b915091506000806110b588858560006127f9565b604080516020810184905290810182905291935091506060016040516020818303038152906040528986815181106110ef576110ef61529f565b602002602001018190525060019550505050506113ca565b600387878381811061111b5761111b61529f565b905060200281019061112d91906152b5565b61113b9060208101906152d5565b600681111561114c5761114c614184565b036111a7576000808888848181106111665761116661529f565b905060200281019061117891906152b5565b6111869060208101906152f6565b810190611193919061545d565b915091506000806110b588858560006129a0565b60048787838181106111bb576111bb61529f565b90506020028101906111cd91906152b5565b6111db9060208101906152d5565b60068111156111ec576111ec614184565b036112505760008060008989858181106112085761120861529f565b905060200281019061121a91906152b5565b6112289060208101906152f6565b810190611235919061548b565b9250925092506112478b848484612ad1565b505050506113ca565b60058787838181106112645761126461529f565b905060200281019061127691906152b5565b6112849060208101906152d5565b600681111561129557611295614184565b036112a35761100f88612bef565b60068787838181106112b7576112b761529f565b90506020028101906112c991906152b5565b6112d79060208101906152d5565b60068111156112e8576112e8614184565b0361137e5760008787838181106113015761130161529f565b905060200281019061131391906152b5565b6113219060208101906152f6565b81019061132e9190614669565b905061133a8982612d85565b60405160200161134c91815260200190565b60405160208183030381529060405286838151811061136d5761136d61529f565b6020026020010181905250506113ca565b8686828181106113905761139061529f565b90506020028101906113a291906152b5565b6113b09060208101906152d5565b604051633164e52160e11b8152600401610aa491906154d6565b806113d481615506565b915050610eab565b50811561144e5760405163651524ed60e01b815260048101849052606460248201527305dE8aA303c33b59c292Bca27f2d60c8C8141a5E9063651524ed9060440160006040518083038186803b15801561143557600080fd5b505af4158015611449573d6000803e3d6000fd5b505050505b80156114c65760405163998c533560e01b815260048101849052600160248201526064604482018190527305dE8aA303c33b59c292Bca27f2d60c8C8141a5E9163998c5335910160006040518083038186803b1580156114ad57600080fd5b505af41580156114c1573d6000803e3d6000fd5b505050505b5050505b9392505050565b60006114dd8383612d85565b90505b92915050565b63ffffffff81166000908152606460205260408120546114e0906001600160a01b031661259a565b610d5d81612bef565b600082815260d160205260408082209051637188a1ed60e01b8152600481019190915263ffffffff831660248201526064604482018190527305dE8aA303c33b59c292Bca27f2d60c8C8141a5E91637188a1ed9101602060405180830381865af4158015611589573d6000803e3d6000fd5b505050506040513d601f19601f820116820180604052508101906114dd919061551f565b60006114e0606483612ecb565b6115c684848484612ad1565b5050505050565b61016b5460ff16156116145760405162461bcd60e51b815260206004820152601060248201526f14185d5cd8589b194e881c185d5cd95960821b6044820152606401610aa4565b61162b61162084612204565b8383600085126125ac565b505050565b61019e546001600160a01b03163314801590611658575061019d546001600160a01b03163314155b1561167657604051636bd1573560e11b815260040160405180910390fd5b6001600160a01b03811661169d5760405163d92e233d60e01b815260040160405180910390fd5b61019e546040516001600160a01b038084169216907f39355f2f5c8206286978f443aa8126bbd29fa09c53c04569502647f3a59c8cb290600090a361019e80546001600160a01b0319166001600160a01b0392909216919091179055565b60008061170b61016b5460ff1690565b1561174b5760405162461bcd60e51b815260206004820152601060248201526f14185d5cd8589b194e881c185d5cd95960821b6044820152606401610aa4565b600061175686612204565b905061176581868660016127f9565b9250925050935093915050565b61019e546001600160a01b0316331480159061179a575061019d546001600160a01b03163314155b156117b857604051636bd1573560e11b815260040160405180910390fd5b6117c0612f6b565b60005b8181101561162b5760008383838181106117df576117df61529f565b90506020020160208101906117f49190614669565b63ffffffff8116600090815260646020526040808220600201549051632892019b60e11b81529293506001600160a01b03169163512403369161183f91600401901515815260200190565b600060405180830381600087803b15801561185957600080fd5b505af115801561186d573d6000803e3d6000fd5b5050505050808061187d90615506565b9150506117c3565b61019e546001600160a01b031633148015906118ad575061019d546001600160a01b03163314155b156118cb57604051636bd1573560e11b815260040160405180910390fd5b63ffffffff8216600090815260646020526040902081906003016118ef8282614ec1565b9050507f4182acc9c169391ef7e765eb446fc15c9d49bc73060c678bf4c424a5c0dbdbcb8282604051610e3b9291906151e3565b61016b5460ff161561196a5760405162461bcd60e51b815260206004820152601060248201526f14185d5cd8589b194e881c185d5cd95960821b6044820152606401610aa4565b600061197583612204565b905061162b818360016126d6565b600061199261016b5460ff1690565b156119d25760405162461bcd60e51b815260206004820152601060248201526f14185d5cd8589b194e881c185d5cd95960821b6044820152606401610aa4565b5060d0546119e1816001615538565b60d055600081815260d160209081526040918290206bffffffffffffffffffffffff1933600160601b8102919091166bffffffffffffffffffffffff861617825592518481529092917f7325fb14450d3e5eb288c620b4ff1d6b43a41b33b4a4f143ae88cd4c12f99ea3910160405180910390a25090565b61019e546001600160a01b03163314801590611a81575061019d546001600160a01b03163314155b15611a9f57604051636bd1573560e11b815260040160405180910390fd5b836068611aac8282615573565b5050606a839055606b82905560698190556040517f697aec6e94e319190380ab0f1f10018d81b64da2479eb874be92c9a733e0a83790611af3908690869086908690615736565b60405180910390a150505050565b61019e546001600160a01b03163314801590611b29575061019d546001600160a01b03163314155b15611b4757604051636bd1573560e11b815260040160405180910390fd5b611b4f613005565b60005b8181101561162b5760646000848484818110611b7057611b7061529f565b9050602002016020810190611b859190614669565b63ffffffff16815260208101919091526040908101600020600201549051632892019b60e11b8152600160048201526001600160a01b0390911690635124033690602401600060405180830381600087803b158015611be357600080fd5b505af1158015611bf7573d6000803e3d6000fd5b505050508080611c0690615506565b915050611b52565b60608167ffffffffffffffff811115611c2957611c29614346565b604051908082528060200260200182016040528015611c5c57816020015b6060815260200190600190039081611c475790505b50905060005b82811015611d5f5760008030868685818110611c8057611c8061529f565b9050602002810190611c9291906152f6565b604051611ca092919061580b565b600060405180830381855af49150503d8060008114611cdb576040519150601f19603f3d011682016040523d82523d6000602084013e611ce0565b606091505b509150915081611d2c57604481511015611cf957600080fd5b60048101905080806020019051810190611d13919061581b565b60405162461bcd60e51b8152600401610aa491906158a6565b80848481518110611d3f57611d3f61529f565b602002602001018190525050508080611d5790615506565b915050611c62565b5092915050565b611d9960408051808201825260008082528251606081018452818152602081810183905293810191909152909182015290565b5063ffffffff9081166000908152606560209081526040918290208251808401845281546001600160a01b03908116825284516060810186526001909301549081168352600160a01b810490951682840152600160c01b90940460ff1615159281019290925282015290565b600080611e1561016b5460ff1690565b15611e555760405162461bcd60e51b815260206004820152601060248201526f14185d5cd8589b194e881c185d5cd95960821b6044820152606401610aa4565b6000611e6086612204565b90506117658186611e76368890038801886158b9565b60016129a0565b60006114e060648361308a565b61019d546001600160a01b03163314611eb657604051636bd1573560e11b815260040160405180910390fd5b6001600160a01b038116611edd5760405163d92e233d60e01b815260040160405180910390fd5b61019d546040516001600160a01b038084169216907f5f56bee8cffbe9a78652a74a60705edede02af10b0bbb888ca44b79a0d42ce8090600090a361019d80546001600160a01b0319166001600160a01b0392909216919091179055565b606060208251028201602001602083015b81811015611f61578051548152602001611f4c565b509192915050565b6000805b8281101561208c576000848483818110611f8957611f8961529f565b9050602002016020810190611f9e919061472b565b6001600160a01b0316635e622abc6040518163ffffffff1660e01b81526004016020604051808303816000875af1158015611fdd573d6000803e3d6000fd5b505050506040513d601f19601f82011682018060405250810190612001919061551f565b90508484838181106120155761201561529f565b905060200201602081019061202a919061472b565b6001600160a01b03167fa087657e3d85162090ffd700fbfdf5070d816f63aa5da00063f6ffd369c8a6db8260405161206491815260200190565b60405180910390a26120768184615538565b925050808061208490615506565b915050611f6d565b5061162b6120a361019e546001600160a01b031690565b6066546001600160a01b031690836130a7565b600081815260d16020526040808220905163625915c360e11b81526004810191909152606460248201527305dE8aA303c33b59c292Bca27f2d60c8C8141a5E9063c4b22b8690604401602060405180830381865af415801561211c573d6000803e3d6000fd5b505050506040513d601f19601f820116820180604052508101906114e0919061551f565b600061214a611983565b90506114e08184846115cd565b600082815260d16020526040808220905163031b5fcd60e21b81526004810191909152821515602482015260646044820181905282917305dE8aA303c33b59c292Bca27f2d60c8C8141a5E91630c6d7f3491016040805180830381865af41580156121c6573d6000803e3d6000fd5b505050506040513d601f19601f820116820180604052508101906121ea91906158d6565b909590945092505050565b6001600160a01b03163b151590565b600081815260d1602052604090208054600160601b90046001600160a01b0316331461224557604051630504a20d60e01b8152336004820152602401610aa4565b919050565b600061225e836001600160a01b031661258c565b9050612272836001600160a01b031661259a565b15612293576040516376d8a93160e01b815260006004820152602401610aa4565b63ffffffff81166000908152606560205260409020546122bb906001600160a01b031661259a565b1580156122f4575063ffffffff8082166000908152606560205260409020546122f2916001600160a01b0390911690859061313716565b155b1561233d5763ffffffff81166000908152606560205260409081902054905163a5d4d0b560e01b81526001600160a01b0380861660048301529091166024820152604401610aa4565b6040805180820182526001600160a01b038581168252602080830186815263ffffffff868116600090815260658452869020945185546001600160a01b03191690851617855590518051600190950180549382015191870151959094167fffffffffffffffff00000000000000000000000000000000000000000000000090931692909217600160a01b9290911691909102177fffffffffffffff00ffffffffffffffffffffffffffffffffffffffffffffffff16600160c01b92151592909202919091179055517f52983c04d8ccd4808cd0fcb24e6e48106ecb41e803d6270c6c94a15e3ebd08d29061243490859085906158fa565b60405180910390a1505050565b61013854610100900460ff1661245e576101385460ff1615612462565b303b155b6124c55760405162461bcd60e51b815260206004820152602e60248201527f496e697469616c697a61626c653a20636f6e747261637420697320616c72656160448201526d191e481a5b9a5d1a585b1a5e995960921b6064820152608401610aa4565b61013854610100900460ff161580156124e957610138805461ffff19166101011790555b6124f161314d565b336124fc81806131bb565b50801561251057610138805461ff00191690555b50565b61013854610100900460ff1661257f5760405162461bcd60e51b815260206004820152602b60248201527f496e697469616c697a61626c653a20636f6e7472616374206973206e6f74206960448201526a6e697469616c697a696e6760a81b6064820152608401610aa4565b61016b805460ff19169055565b600063ffffffff82166114e0565b60006001600160a01b038216156114e0565b61016b5460ff16156125f35760405162461bcd60e51b815260206004820152601060248201526f14185d5cd8589b194e881c185d5cd95960821b6044820152606401610aa4565b6000612602846000851261330e565b60405163f5a284a160e01b81526004810187905263ffffffff861660248201526044810185905260648082015283151560848201529091507305dE8aA303c33b59c292Bca27f2d60c8C8141a5E9063f5a284a19060a40160006040518083038186803b15801561267157600080fd5b505af4158015612685573d6000803e3d6000fd5b5050505060008313156126ae5780546126a9906001600160a01b031633308661339d565b6115c6565b60008312156115c6576115c6336126c48561593c565b83546001600160a01b031691906130a7565b61016b5460ff161561271d5760405162461bcd60e51b815260206004820152601060248201526f14185d5cd8589b194e881c185d5cd95960821b6044820152606401610aa4565b8160000361273e57604051631f2a200560e01b815260040160405180910390fd5b60405163d25c4a6f60e01b81526004810184905260248101839052606460448201819052821515908201527305dE8aA303c33b59c292Bca27f2d60c8C8141a5E9063d25c4a6f9060840160006040518083038186803b1580156127a057600080fd5b505af41580156127b4573d6000803e3d6000fd5b5050505060008213156127d95760665461162b906001600160a01b031633308561339d565b61162b336127e68461593c565b6066546001600160a01b031691906130a7565b60008061280961016b5460ff1690565b156128495760405162461bcd60e51b815260206004820152601060248201526f14185d5cd8589b194e881c185d5cd95960821b6044820152606401610aa4565b612852856133db565b604051630a067b0f60e11b81527305dE8aA303c33b59c292Bca27f2d60c8C8141a5E9063140cf61e90612892908990899089906064908a90600401615958565b6040805180830381865af41580156128ae573d6000803e3d6000fd5b505050506040513d601f19601f820116820180604052508101906128d291906158d6565b909250905060006128e282613465565b606b5490915081101561290b576040516312b6b5cd60e11b815260048101829052602401610aa4565b60208501516001600160a01b03161580159061292957508460600151155b1561299657846040015180156129505750845161294590613465565b61294e83613465565b145b80612979575084604001511580156129795750845161296e90613465565b61297784613465565b145b612996576040516307a1db0760e01b815260040160405180910390fd5b5094509492505050565b6000806129b061016b5460ff1690565b156129f05760405162461bcd60e51b815260206004820152601060248201526f14185d5cd8589b194e881c185d5cd95960821b6044820152606401610aa4565b6129f9856133db565b60608401516001600160a01b031615612a1f57612a1f8585606001518660800151613480565b60405163c27789d160e01b81526000907305dE8aA303c33b59c292Bca27f2d60c8C8141a5E9063c27789d190612a62908a908a908a906064908b906004016159cd565b606060405180830381865af4158015612a7f573d6000803e3d6000fd5b505050506040513d601f19601f82011682018060405250810190612aa39190615a77565b606b549295509093509150811015612996576040516312b6b5cd60e11b815260048101829052602401610aa4565b6000612ae061016b5460ff1690565b15612b205760405162461bcd60e51b815260206004820152601060248201526f14185d5cd8589b194e881c185d5cd95960821b6044820152606401610aa4565b600085815260d160205260409020612b37856133db565b606a54604051637022478560e11b81526004810183905263ffffffff87166024820152600286810b604483015285900b6064808301919091526084820183905260a48201529092507305dE8aA303c33b59c292Bca27f2d60c8C8141a5E9063e0448f0a9060c40160006040518083038186803b158015612bb657600080fd5b505af4158015612bca573d6000803e3d6000fd5b5050606654612be692506001600160a01b0316905033846130a7565b50949350505050565b6000612bfe61016b5460ff1690565b15612c3e5760405162461bcd60e51b815260206004820152601060248201526f14185d5cd8589b194e881c185d5cd95960821b6044820152606401610aa4565b600082815260d1602052604080822090516308b9103160e21b81526004810182905260248101839052606460448201819052919291829182917305dE8aA303c33b59c292Bca27f2d60c8C8141a5E916322e440c49101606060405180830381865af4158015612cb1573d6000803e3d6000fd5b505050506040513d601f19601f82011682018060405250810190612cd59190615a77565b919450925090506000612ce88385615aa5565b905060008413612d0e5760405163ef37dcc760e01b815260048101859052602401610aa4565b606654612d25906001600160a01b031633866130a7565b612d2e83613512565b604080518281526020810186905290810184905260608101839052339088907f688f0846fe2852572c467d5e769db101b0fea55e8849406d85c9fb322b95299b9060800160405180910390a3509195945050505050565b6000612d9461016b5460ff1690565b15612dd45760405162461bcd60e51b815260206004820152601060248201526f14185d5cd8589b194e881c185d5cd95960821b6044820152606401610aa4565b600083815260d160205260409020612deb836133db565b6040516377f3beb560e01b81526004810182905263ffffffff84166024820152600060448201819052606480830152907305dE8aA303c33b59c292Bca27f2d60c8C8141a5E906377f3beb5906084016040805180830381865af4158015612e56573d6000803e3d6000fd5b505050506040513d601f19601f82011682018060405250810190612e7a91906158d6565b909350905060008313612ea35760405163ef37dcc760e01b815260048101849052602401610aa4565b606654612eba906001600160a01b031633856130a7565b612ec381613512565b505092915050565b63ffffffff8181166000908152602084905260408082206003810154915163dd86c10160e01b81526601000000000000830490941660048501529192600160601b9091046001600160a01b03169063dd86c10190602401602060405180830381865afa158015612f3f573d6000803e3d6000fd5b505050506040513d601f19601f82011682018060405250810190612f63919061551f565b949350505050565b61016b5460ff1615612fb25760405162461bcd60e51b815260206004820152601060248201526f14185d5cd8589b194e881c185d5cd95960821b6044820152606401610aa4565b61016b805460ff191660011790557f62e78cea01bee320cd4e420270b5ea74000d11b0c9f74754ebdbfc544b05a258612fe83390565b6040516001600160a01b03909116815260200160405180910390a1565b61016b5460ff166130585760405162461bcd60e51b815260206004820152601460248201527f5061757361626c653a206e6f74207061757365640000000000000000000000006044820152606401610aa4565b61016b805460ff191690557f5db9ee0a495bf2e6ff9c91a7834c1ba4fdd244a5e8aa4e537bd38aeae4b073aa33612fe8565b60006114dd613099848461359e565b6001600160a01b03166135e5565b6040516001600160a01b03831660248201526044810182905261162b90849063a9059cbb60e01b906064015b60408051601f198184030181529190526020810180517bffffffffffffffffffffffffffffffffffffffffffffffffffffffff167fffffffff0000000000000000000000000000000000000000000000000000000090931692909217909152613652565b60006001600160a01b03808416908316146114dd565b61013854610100900460ff166131b95760405162461bcd60e51b815260206004820152602b60248201527f496e697469616c697a61626c653a20636f6e7472616374206973206e6f74206960448201526a6e697469616c697a696e6760a81b6064820152608401610aa4565b565b61013854610100900460ff166131d8576101385460ff16156131dc565b303b155b61323f5760405162461bcd60e51b815260206004820152602e60248201527f496e697469616c697a61626c653a20636f6e747261637420697320616c72656160448201526d191e481a5b9a5d1a585b1a5e995960921b6064820152608401610aa4565b61013854610100900460ff1615801561326357610138805461ffff19166101011790555b61019d80546001600160a01b0319166001600160a01b0385169081179091556040516000907f5f56bee8cffbe9a78652a74a60705edede02af10b0bbb888ca44b79a0d42ce80908290a361019e80546001600160a01b0319166001600160a01b0384169081179091556040516000907f39355f2f5c8206286978f443aa8126bbd29fa09c53c04569502647f3a59c8cb2908290a3801561162b57610138805461ff0019169055505050565b63ffffffff821660009081526065602052604090208054613337906001600160a01b031661259a565b1561335d57604051636b9c1a9d60e01b815263ffffffff84166004820152602401610aa4565b8115801561337757506001810154600160c01b900460ff16155b156114e05760405163122a1f1960e31b815263ffffffff84166004820152602401610aa4565b6040516001600160a01b03808516602483015283166044820152606481018290526133d59085906323b872dd60e01b906084016130d3565b50505050565b63ffffffff811660009081526064602052604090208054613404906001600160a01b031661259a565b1561342a5760405163b842f5a760e01b815263ffffffff83166004820152602401610aa4565b60038101546a0100000000000000000000900460ff16610d5d5760405163587ee90160e11b815263ffffffff83166004820152602401610aa4565b600080821361347c576134778261593c565b6114e0565b5090565b600061348d606485613737565b90506000836001600160a01b0316826001600160a01b0316116134b9576134b48285615afe565b6134c3565b6134c38483615afe565b90506127106134d68561ffff8616615b26565b6134e09190615b6b565b6001600160a01b0316816001600160a01b031611156115c6576040516307a1db0760e01b815260040160405180910390fd5b60008113156135385760d354606654612510916001600160a01b039182169116836130a7565b60d3546001600160a01b031663379607f56135528361593c565b6040518263ffffffff1660e01b815260040161357091815260200190565b600060405180830381600087803b15801561358a57600080fd5b505af11580156115c6573d6000803e3d6000fd5b63ffffffff80821660009081526020849052604081206003810154600182015492939192612f63926001600160a01b03909116916601000000000000900481169061376216565b60006401000276a36001600160a01b0383161080613620575073fffd8963efd1fc6a506488495d951d5263988d266001600160a01b03831610155b1561364957604051635d236c4560e01b81526001600160a01b0383166004820152602401610aa4565b6114e082613783565b60006136a7826040518060400160405280602081526020017f5361666545524332303a206c6f772d6c6576656c2063616c6c206661696c6564815250856001600160a01b03166137a29092919063ffffffff16565b80519091501561162b57808060200190518101906136c59190615b91565b61162b5760405162461bcd60e51b815260206004820152602a60248201527f5361666545524332303a204552433230206f7065726174696f6e20646964206e60448201527f6f742073756363656564000000000000000000000000000000000000000000006064820152608401610aa4565b63ffffffff81166000908152602083905260408120600101546114dd906001600160a01b03166137b1565b6000806137786001600160a01b03851684613822565b9050612f6381613a3e565b60006114e06001600160a01b0383168068010000000000000000613d6e565b6060612f638484600085613e20565b6000816001600160a01b0316633850c7bd6040518163ffffffff1660e01b815260040160e060405180830381865afa1580156137f1573d6000803e3d6000fd5b505050506040513d601f19601f820116820180604052508101906138159190615bae565b5094979650505050505050565b60008163ffffffff1660000361384b57613844836001600160a01b0316613f68565b90506114e0565b60408051600280825260608201835260009260208301908036833701905050905082816000815181106138805761388061529f565b602002602001019063ffffffff16908163ffffffff16815250506000816001815181106138af576138af61529f565b63ffffffff9092166020928302919091019091015260405163883bdbfd60e01b81526001600160a01b0385169063883bdbfd906138f0908490600401615c50565b600060405180830381865afa92505050801561392e57506040513d6000823e601f3d908101601f1916820160405261392b9190810190615cf2565b60015b6139a357836001600160a01b0316633850c7bd6040518163ffffffff1660e01b815260040160e060405180830381865afa158015613970573d6000803e3d6000fd5b505050506040513d601f19601f820116820180604052508101906139949190615bae565b50939650611d5f945050505050565b6000826000815181106139b8576139b861529f565b6020026020010151836001815181106139d3576139d361529f565b60200260200101516139e59190615dbe565b905060006139f963ffffffff881683615e0e565b905060008260060b128015613a1f5750613a1963ffffffff881683615e4c565b60060b15155b15613a325780613a2e81615e6e565b9150505b94506114e09350505050565b60008060008360020b12613a55578260020b613a5d565b8260020b6000035b9050620d89e8811115613a83576040516315e4079d60e11b815260040160405180910390fd5b600081600116600003613aa757700100000000000000000000000000000000613ab9565b6ffffcb933bd6fad37aa2d162d1a5940015b70ffffffffffffffffffffffffffffffffff1690506002821615613aed576ffff97272373d413259a46990580e213a0260801c5b6004821615613b0c576ffff2e50f5f656932ef12357cf3c7fdcc0260801c5b6008821615613b2b576fffe5caca7e10e4e61c3624eaa0941cd00260801c5b6010821615613b4a576fffcb9843d60f6159c9db58835c9266440260801c5b6020821615613b69576fff973b41fa98c081472e6896dfb254c00260801c5b6040821615613b88576fff2ea16466c96a3843ec78b326b528610260801c5b6080821615613ba7576ffe5dee046a99a2a811c461f1969c30530260801c5b610100821615613bc7576ffcbe86c7900a88aedcffc83b479aa3a40260801c5b610200821615613be7576ff987a7253ac413176f2b074cf7815e540260801c5b610400821615613c07576ff3392b0822b70005940c7a398e4b70f30260801c5b610800821615613c27576fe7159475a2c29b7443b29c7fa6e889d90260801c5b611000821615613c47576fd097f3bdfd2022b8845ad8f792aa58250260801c5b612000821615613c67576fa9f746462d870fdf8a65dc1f90e061e50260801c5b614000821615613c87576f70d869a156d2a1b890bb3df62baf32f70260801c5b618000821615613ca7576f31be135f97d08fd981231505542fcfa60260801c5b62010000821615613cc8576f09aa508b5b7a84e1c677de54f3e99bc90260801c5b62020000821615613ce8576e5d6af8dedb81196699c329225ee6040260801c5b62040000821615613d07576d2216e584f5fa1ea926041bedfe980260801c5b62080000821615613d24576b048a170391f7dc42444e8fa20260801c5b60008460020b1315613d45578060001981613d4157613d41615b55565b0490505b640100000000810615613d59576001613d5c565b60005b60ff16602082901c0192505050919050565b6000808060001985870985870292508281108382030391505080600003613da75760008411613d9c57600080fd5b5082900490506114ca565b808411613db357600080fd5b6000848688096000868103871696879004966002600389028118808a02820302808a02820302808a02820302808a02820302808a02820302808a02909103029181900381900460010186841190950394909402919094039290920491909117919091029150509392505050565b606082471015613e985760405162461bcd60e51b815260206004820152602660248201527f416464726573733a20696e73756666696369656e742062616c616e636520666f60448201527f722063616c6c00000000000000000000000000000000000000000000000000006064820152608401610aa4565b6001600160a01b0385163b613eef5760405162461bcd60e51b815260206004820152601d60248201527f416464726573733a2063616c6c20746f206e6f6e2d636f6e74726163740000006044820152606401610aa4565b600080866001600160a01b03168587604051613f0b9190615e91565b60006040518083038185875af1925050503d8060008114613f48576040519150601f19603f3d011682016040523d82523d6000602084013e613f4d565b606091505b5091509150613f5d828286613fd9565b979650505050505050565b6000816001600160a01b0316633850c7bd6040518163ffffffff1660e01b815260040160e060405180830381865afa158015613fa8573d6000803e3d6000fd5b505050506040513d601f19601f82011682018060405250810190613fcc9190615bae565b5093979650505050505050565b60608315613fe85750816114ca565b825115613ff85782518084602001fd5b8160405162461bcd60e51b8152600401610aa491906158a6565b60006101a0820190506001600160a01b03808916835280881660208401525061ffff80875116604084015280602088015116606084015280604088015116608084015250606086015161406b60a084018261ffff169052565b50608086015161ffff811660c08401525060a086015161ffff811660e08401525060c086015167ffffffffffffffff81166101008401525060e086015167ffffffffffffffff811661012084015250846101408301528361016083015282610180830152979650505050505050565b6000602082840312156140ec57600080fd5b5035919050565b6001600160a01b038116811461251057600080fd5b8035612245816140f3565b600080600080600060a0868803121561412b57600080fd5b8535614136816140f3565b94506020860135614146816140f3565b93506040860135614156816140f3565b92506060860135614166816140f3565b91506080860135614176816140f3565b809150509295509295909350565b634e487b7160e01b600052602160045260246000fd5b600381106141aa576141aa614184565b9052565b600060808083016001600160a01b038089168552602088818701526040848188015283895180865260a089019150838b01955060005b8181101561420b5786518051871684528501518584015295840195918301916001016141e4565b5050606094508781038589015280935088518082528382019450838160051b830101848b0160005b8381101561433257848303601f190188528151805163ffffffff16845287810151888501528681015187850152898101518a8501528a015160a08b850181905281519085018190529088019060009060c08601905b8083101561431d5783518051600290810b84528c820151900b8c8401528a8101516fffffffffffffffffffffffffffffffff81168c850152508d8101518e8401528e8101518f84015260a081015160a084015260c081015160c084015260e081015160e08401526101008082015191506143048185018361419a565b5050610120820191508a84019350600183019250614288565b50998901999450505090860190600101614233565b50909e9d5050505050505050505050505050565b634e487b7160e01b600052604160045260246000fd5b60405160a0810167ffffffffffffffff8111828210171561437f5761437f614346565b60405290565b604051610120810167ffffffffffffffff8111828210171561437f5761437f614346565b6040805190810167ffffffffffffffff8111828210171561437f5761437f614346565b604051601f8201601f1916810167ffffffffffffffff811182821017156143f5576143f5614346565b604052919050565b63ffffffff8116811461251057600080fd5b8035612245816143fd565b801515811461251057600080fd5b80356122458161441a565b600080828403608081121561444757600080fd5b8335614452816140f3565b92506060601f198201121561446657600080fd5b506040516060810181811067ffffffffffffffff8211171561448a5761448a614346565b604052602084013561449b816140f3565b815260408401356144ab816143fd565b602082015260608401356144be8161441a565b6040820152919491935090915050565b600061014082840312156144e157600080fd5b50919050565b60008083601f8401126144f957600080fd5b50813567ffffffffffffffff81111561451157600080fd5b6020830191508360208260051b850101111561452c57600080fd5b9250929050565b60008060006040848603121561454857600080fd5b83359250602084013567ffffffffffffffff81111561456657600080fd5b614572868287016144e7565b9497909650939450505050565b60005b8381101561459a578181015183820152602001614582565b838111156133d55750506000910152565b600081518084526145c381602086016020860161457f565b601f01601f19169290920160200192915050565b6000602080830181845280855180835260408601915060408160051b870101925083870160005b8281101561462c57603f1988860301845261461a8583516145ab565b945092850192908501906001016145fe565b5092979650505050505050565b6000806040838503121561464c57600080fd5b82359150602083013561465e816143fd565b809150509250929050565b60006020828403121561467b57600080fd5b81356114ca816143fd565b8060020b811461251057600080fd5b803561224581614686565b600080600080608085870312156146b657600080fd5b8435935060208501356146c8816143fd565b925060408501356146d881614686565b915060608501356146e881614686565b939692955090935050565b60008060006060848603121561470857600080fd5b83359250602084013561471a816143fd565b929592945050506040919091013590565b60006020828403121561473d57600080fd5b81356114ca816140f3565b600060a0828403121561475a57600080fd5b61476261435c565b9050813581526020820135614776816140f3565b602082015260408201356147898161441a565b6040820152606082013561479c8161441a565b606082015260808201356147af8161441a565b608082015292915050565b600080600060e084860312156147cf57600080fd5b8335925060208401356147e1816143fd565b91506147f08560408601614748565b90509250925092565b6000806020838503121561480c57600080fd5b823567ffffffffffffffff81111561482357600080fd5b61482f858286016144e7565b90969095509350505050565b60008082840361010081121561485057600080fd5b833561485b816143fd565b925060e0601f198201121561486f57600080fd5b506020830190509250929050565b6000806040838503121561489057600080fd5b50508035926020909101359150565b600061010082840312156144e157600080fd5b60008060008061016085870312156148c957600080fd5b6148d3868661489f565b966101008601359650610120860135956101400135945092505050565b6000610140820190506001600160a01b0380845116835280602085015116602084015280604085015116604084015250606083015161ffff8082511660608501528060208301511660808501528060408301511660a08501525063ffffffff60608201511660c08401526080810151151560e084015260a081015161497a61010085018215159052565b5060c001516001600160a01b038116610120840152611d5f565b81516001600160a01b031681526020808301516080830191611d5f9084018280516001600160a01b0316825260208082015163ffffffff16908301526040908101511515910152565b600080600061014084860312156149f357600080fd5b833592506020840135614a05816143fd565b91506147f0856040860161489f565b600067ffffffffffffffff821115614a2e57614a2e614346565b5060051b60200190565b60006020808385031215614a4b57600080fd5b823567ffffffffffffffff811115614a6257600080fd5b8301601f81018513614a7357600080fd5b8035614a86614a8182614a14565b6143cc565b81815260059190911b82018301908381019087831115614aa557600080fd5b928401925b82841015613f5d57833582529284019290840190614aaa565b6020808252825182820181905260009190848201906040850190845b81811015614afb57835183529284019291840191600101614adf565b50909695505050505050565b60008060408385031215614b1a57600080fd5b8235614b25816143fd565b946020939093013593505050565b60008060408385031215614b4657600080fd5b82359150602083013561465e8161441a565b805161224581614686565b80516fffffffffffffffffffffffffffffffff8116811461224557600080fd5b6003811061251057600080fd5b805161224581614b83565b600082601f830112614bac57600080fd5b81516020614bbc614a8183614a14565b82815260059290921b84018101918181019086841115614bdb57600080fd5b8286015b84811015614d6257805167ffffffffffffffff80821115614bff57600080fd5b9088019060a0828b03601f19011215614c1757600080fd5b614c1f61435c565b86830151614c2c816143fd565b80825250604083015187820152606083015160408201526080830151606082015260a083015182811115614c5f57600080fd5b8084019350508a603f840112614c7457600080fd5b868301519150614c86614a8183614a14565b82815261012092830284016040019288820191908d851115614ca757600080fd5b6040860195505b84861015614d4c5780868f031215614cc557600080fd5b614ccd614385565b614cd687614b58565b8152614ce38b8801614b58565b8b820152614cf360408801614b63565b6040820152606087015160608201526080870151608082015260a087015160a082015260c087015160c082015260e087015160e0820152614d376101008801614b90565b61010082015283529485019491890191614cae565b5060808301525085525050918301918301614bdf565b509695505050505050565b60008060008060808587031215614d8357600080fd5b8451614d8e816140f3565b80945050602080860151935060408087015167ffffffffffffffff80821115614db657600080fd5b818901915089601f830112614dca57600080fd5b8151614dd8614a8182614a14565b81815260069190911b8301850190858101908c831115614df757600080fd5b938601935b82851015614e405785858e031215614e145760008081fd5b614e1c6143a9565b8551614e27816140f3565b8152858801518882015282529385019390860190614dfc565b60608c01519098509550505080841115614e5957600080fd5b505050614e6887828801614b9b565b91505092959194509250565b634e487b7160e01b600052600160045260246000fd5b61ffff8116811461251057600080fd5b600081356114e081614e8a565b600081356114e08161441a565b600081356114e0816140f3565b8135614ecc81614e8a565b815461ffff191661ffff8216178255506020820135614eea81614e8a565b815463ffff00001916601082901b63ffff000016178255506040820135614f1081614e8a565b815465ffff000000001916602082901b65ffff0000000016178255506060820135614f3a816143fd565b815469ffffffff000000000000191660309190911b69ffffffff000000000000161781556080820135614f6c8161441a565b81546aff00000000000000000000191681151560501b6aff00000000000000000000161782555060a0820135614fa18161441a565b81546bff0000000000000000000000191681151560581b6bff0000000000000000000000161782555060c0820135614fd8816140f3565b81546bffffffffffffffffffffffff16606082901b6bffffffffffffffffffffffff1916178255505050565b813561500f816140f3565b81546001600160a01b0319166001600160a01b038216178255506020820135615037816140f3565b6001820180546001600160a01b0319166001600160a01b038316179055506040820135615063816140f3565b6002820180546001600160a01b0319166001600160a01b0383161790555060038101606083013561509381614e8a565b815461ffff191661ffff82161782555060808301356150b181614e8a565b815463ffff00001916601082901b63ffff0000161782555060a08301356150d781614e8a565b815465ffff000000001916602082901b65ffff00000000161782555060c0830135615101816143fd565b815469ffffffff000000000000191660309190911b69ffffffff0000000000001617815561516061513460e08501614ea7565b8280546aff00000000000000000000191691151560501b6aff0000000000000000000016919091179055565b61519e6151706101008501614ea7565b8280546bff0000000000000000000000191691151560581b6bff000000000000000000000016919091179055565b61162b6151ae6101208501614eb4565b82546bffffffffffffffffffffffff1660609190911b6bffffffffffffffffffffffff1916178255565b803561224581614e8a565b63ffffffff83168152610100810182356151fc81614e8a565b61ffff80821660208501526020850135915061521782614e8a565b80821660408501526040850135915061522f82614e8a565b808216606085015250506152456060840161440f565b63ffffffff811660808401525061525e60808401614428565b80151560a08401525061527360a08401614428565b80151560c08401525061528860c08401614108565b6001600160a01b03811660e0840152509392505050565b634e487b7160e01b600052603260045260246000fd5b60008235603e198336030181126152cb57600080fd5b9190910192915050565b6000602082840312156152e757600080fd5b8135600781106114ca57600080fd5b6000808335601e1984360301811261530d57600080fd5b83018035915067ffffffffffffffff82111561532857600080fd5b60200191503681900382131561452c57600080fd5b60008060c0838503121561535057600080fd5b823561535b816143fd565b915061536a8460208501614748565b90509250929050565b8035600f81900b811461224557600080fd5b803561224581614b83565b60006101008083850312156153a457600080fd5b6040519081019067ffffffffffffffff821181831017156153c7576153c7614346565b81604052809250833591506153db82614686565b8181526153ea60208501614695565b60208201526153fb60408501615373565b604082015261540c60608501614108565b606082015261541d608085016151d8565b608082015261542e60a08501614428565b60a082015261543f60c08501615385565b60c082015261545060e08501614428565b60e0820152505092915050565b600080610120838503121561547157600080fd5b823561547c816143fd565b915061536a8460208501615390565b6000806000606084860312156154a057600080fd5b83356154ab816143fd565b925060208401356154bb81614686565b915060408401356154cb81614686565b809150509250925092565b60208101600783106154ea576154ea614184565b91905290565b634e487b7160e01b600052601160045260246000fd5b600060018201615518576155186154f0565b5060010190565b60006020828403121561553157600080fd5b5051919050565b6000821982111561554b5761554b6154f0565b500190565b67ffffffffffffffff8116811461251057600080fd5b600081356114e081615550565b813561557e81614e8a565b815461ffff191661ffff821617825550602082013561559c81614e8a565b815463ffff00001916601082901b63ffff0000161782555060408201356155c281614e8a565b815465ffff000000001916602082901b65ffff00000000161782555060608201356155ec81614e8a565b815467ffff0000000000008260301b1691508167ffff000000000000198216178355608084013561561c81614e8a565b69ffff00000000000000008160401b168369ffffffff0000000000001984161717845550505061567b61565160a08401614e9a565b82546bffff00000000000000000000191660509190911b6bffff0000000000000000000016178255565b6156cf61568a60c08401615566565b82547fffffffffffffffffffffffff0000000000000000ffffffffffffffffffffffff1660609190911b73ffffffffffffffff00000000000000000000000016178255565b610d5d6156de60e08401615566565b82547fffffffff0000000000000000ffffffffffffffffffffffffffffffffffffffff1660a09190911b7bffffffffffffffff000000000000000000000000000000000000000016178255565b803561224581615550565b6101608101853561574681614e8a565b61ffff908116835260208701359061575d82614e8a565b16602083015261576f604087016151d8565b61ffff166040830152615784606087016151d8565b61ffff166060830152615799608087016151d8565b61ffff1660808301526157ae60a087016151d8565b61ffff1660a08301526157c360c0870161572b565b67ffffffffffffffff1660c08301526157de60e0870161572b565b67ffffffffffffffff1660e083015261010082019490945261012081019290925261014090910152919050565b8183823760009101908152919050565b60006020828403121561582d57600080fd5b815167ffffffffffffffff8082111561584557600080fd5b818401915084601f83011261585957600080fd5b81518181111561586b5761586b614346565b61587e601f8201601f19166020016143cc565b915080825285602082850101111561589557600080fd5b612be681602084016020860161457f565b6020815260006114dd60208301846145ab565b600061010082840312156158cc57600080fd5b6114dd8383615390565b600080604083850312156158e957600080fd5b505080516020909101519092909150565b6001600160a01b0383168152608081016114ca602083018480516001600160a01b0316825260208082015163ffffffff16908301526040908101511515910152565b6000600160ff1b8201615951576159516154f0565b5060000390565b60006101208201905086825263ffffffff86166020830152845160408301526001600160a01b0360208601511660608301526040850151151560808301526060850151151560a08301526080850151151560c08301528360e08301526159c361010083018415159052565b9695505050505050565b60006101808201905086825263ffffffff86166020830152845160020b6040830152602085015160020b60608301526040850151600f0b60808301526060850151615a2360a08401826001600160a01b03169052565b50608085015161ffff1660c08381019190915260a0860151151560e0840152850151615a5361010084018261419a565b5060e0850151151561012083015261014082018490528215156101608301526159c3565b600080600060608486031215615a8c57600080fd5b8351925060208401519150604084015190509250925092565b6000808212827f7fffffffffffffffffffffffffffffffffffffffffffffffffffffffffffffff03841381151615615adf57615adf6154f0565b600160ff1b8390038412811615615af857615af86154f0565b50500190565b60006001600160a01b0383811690831681811015615b1e57615b1e6154f0565b039392505050565b60006001600160a01b0380831681851681830481118215151615615b4c57615b4c6154f0565b02949350505050565b634e487b7160e01b600052601260045260246000fd5b60006001600160a01b0380841680615b8557615b85615b55565b92169190910492915050565b600060208284031215615ba357600080fd5b81516114ca8161441a565b600080600080600080600060e0888a031215615bc957600080fd5b8751615bd4816140f3565b6020890151909750615be581614686565b6040890151909650615bf681614e8a565b6060890151909550615c0781614e8a565b6080890151909450615c1881614e8a565b60a089015190935060ff81168114615c2f57600080fd5b60c0890151909250615c408161441a565b8091505092959891949750929550565b6020808252825182820181905260009190848201906040850190845b81811015614afb57835163ffffffff1683529284019291840191600101615c6c565b600082601f830112615c9f57600080fd5b81516020615caf614a8183614a14565b82815260059290921b84018101918181019086841115615cce57600080fd5b8286015b84811015614d62578051615ce5816140f3565b8352918301918301615cd2565b60008060408385031215615d0557600080fd5b825167ffffffffffffffff80821115615d1d57600080fd5b818501915085601f830112615d3157600080fd5b81516020615d41614a8183614a14565b82815260059290921b84018101918181019089841115615d6057600080fd5b948201945b83861015615d8e5785518060060b8114615d7f5760008081fd5b82529482019490820190615d65565b91880151919650909350505080821115615da757600080fd5b50615db485828601615c8e565b9150509250929050565b60008160060b8360060b6000811281667fffffffffffff1901831281151615615de957615de96154f0565b81667fffffffffffff018313811615615e0457615e046154f0565b5090039392505050565b60008160060b8360060b80615e2557615e25615b55565b667fffffffffffff19821460001982141615615e4357615e436154f0565b90059392505050565b60008260060b80615e5f57615e5f615b55565b808360060b0791505092915050565b60008160020b627fffff198103615e8757615e876154f0565b6000190192915050565b600082516152cb81846020870161457f56fea2646970667358221220b866105a8e0a03a01124faac62b070e0c6ca98824a9421e6f7607eb2c68334b164736f6c634300080d0033496e697469616c697a61626c653a20636f6e747261637420697320616c726561",
  "deployedBytecode": "0x6080604052600436106102bb5760003560e01c806385ff7cbd1161016e578063bc38d542116100cb578063dbd035ff1161007f578063e3d41c1811610064578063e3d41c1814610a01578063e450f6f414610a21578063e67ed1df14610a4157600080fd5b8063dbd035ff146109b4578063e1f16713146109e157600080fd5b8063ce4c18de116100b0578063ce4c18de14610955578063d38bfff414610975578063dbc0c0851461099557600080fd5b8063bc38d54214610908578063c7505c151461093557600080fd5b8063a05c8baf11610122578063ac9650d811610107578063ac9650d814610777578063b670ed521461078a578063b7902303146108e857600080fd5b8063a05c8baf14610737578063a9b0a9341461075757600080fd5b80638f24ab11116101535780638f24ab11146106e25780639cd1be58146107025780639dca362f1461072257600080fd5b806385ff7cbd146106ac5780638ce25a93146106cc57600080fd5b8063440ab7451161021c578063706bdd25116101d05780637d2efe07116101b55780637d2efe07146106375780637f64d6631461065757806383d778eb1461067757600080fd5b8063706bdd25146105f75780637cc2f4f51461061757600080fd5b80635aa6e675116102015780635aa6e6751461059f5780635c975abb146105be5780636a486482146105d757600080fd5b8063440ab7451461054f578063569634d31461057f57600080fd5b80633d0aea3d116102735780633ffe794c116102585780633ffe794c146104e257806340c4f69b1461050257806343afafba1461052f57600080fd5b80633d0aea3d1461048a5780633d56a35e146104aa57600080fd5b80631459457a116102a45780631459457a1461040d5780631e2eaeaf1461042d5780633b561afc1461045a57600080fd5b80630dca69f9146102c05780630df181ea146103eb575b600080fd5b3480156102cc57600080fd5b506103d06040805161010081018252600080825260208201819052918101829052606081018290526080810182905260a0810182905260c0810182905260e0810182905281905050606654606754604080516101008101825260685461ffff80821683526201000082048116602084015264010000000082048116938301939093526601000000000000810483166060830152680100000000000000008104831660808301526a0100000000000000000000810490921660a082015267ffffffffffffffff600160601b8304811660c0830152600160a01b90920490911660e0820152606954606a54606b546001600160a01b039586169794909516955091939092565b6040516103e296959493929190614012565b60405180910390f35b3480156103f757600080fd5b5061040b6104063660046140da565b610a61565b005b34801561041957600080fd5b5061040b610428366004614113565b610b29565b34801561043957600080fd5b5061044c6104483660046140da565b5490565b6040519081526020016103e2565b34801561046657600080fd5b5061047a6104753660046140da565b610c69565b6040516103e294939291906141ae565b34801561049657600080fd5b5061040b6104a5366004614433565b610d0d565b3480156104b657600080fd5b5060d2546104ca906001600160a01b031681565b6040516001600160a01b0390911681526020016103e2565b3480156104ee57600080fd5b5061040b6104fd3660046144ce565b610d61565b34801561050e57600080fd5b5061052261051d366004614533565b610e47565b6040516103e291906145d7565b34801561053b57600080fd5b5061044c61054a366004614639565b6114d1565b34801561055b57600080fd5b5061056f61056a366004614669565b6114e6565b60405190151581526020016103e2565b34801561058b57600080fd5b5061040b61059a3660046140da565b61150e565b3480156105ab57600080fd5b5061019d546001600160a01b03166104ca565b3480156105ca57600080fd5b5061016b5460ff1661056f565b3480156105e357600080fd5b5061044c6105f2366004614639565b611517565b34801561060357600080fd5b5061044c610612366004614669565b6115ad565b34801561062357600080fd5b5061040b6106323660046146a0565b6115ba565b34801561064357600080fd5b5061040b6106523660046146f3565b6115cd565b34801561066357600080fd5b5061040b61067236600461472b565b611630565b34801561068357600080fd5b506106976106923660046147ba565b6116fb565b604080519283526020830191909152016103e2565b3480156106b857600080fd5b5061040b6106c73660046147f9565b611772565b3480156106d857600080fd5b5061044c60d05481565b3480156106ee57600080fd5b5061040b6106fd36600461483b565b611885565b34801561070e57600080fd5b5061040b61071d36600461487d565b611923565b34801561072e57600080fd5b5061044c611983565b34801561074357600080fd5b5061040b6107523660046148b2565b611a59565b34801561076357600080fd5b5061040b6107723660046147f9565b611b01565b6105226107853660046147f9565b611c0e565b34801561079657600080fd5b506108db6107a5366004614669565b604080516080808201835260008083526020808401829052838501829052845160e081018652828152908101829052938401819052606080850182905291840181905260a0840181905260c08401528101919091525063ffffffff90811660009081526064602090815260409182902082516080808201855282546001600160a01b03908116835260018401548116838601526002840154811683870152855160e08101875260039094015461ffff80821686526201000082048116968601969096526401000000008104909516958401959095526601000000000000840490951660608381019190915260ff6a0100000000000000000000850481161515968401969096526b0100000000000000000000008404909516151560a0830152600160601b90920490921660c08301529182015290565b6040516103e291906148f0565b3480156108f457600080fd5b5060d3546104ca906001600160a01b031681565b34801561091457600080fd5b50610928610923366004614669565b611d66565b6040516103e29190614994565b34801561094157600080fd5b506106976109503660046149dd565b611e05565b34801561096157600080fd5b5061044c610970366004614669565b611e7d565b34801561098157600080fd5b5061040b61099036600461472b565b611e8a565b3480156109a157600080fd5b5061019e546001600160a01b03166104ca565b3480156109c057600080fd5b506109d46109cf366004614a38565b611f3b565b6040516103e29190614ac3565b3480156109ed57600080fd5b5061040b6109fc3660046147f9565b611f69565b348015610a0d57600080fd5b5061044c610a1c3660046140da565b6120b6565b348015610a2d57600080fd5b5061044c610a3c366004614b07565b612140565b348015610a4d57600080fd5b50610697610a5c366004614b33565b612157565b61016b5460ff1615610aad5760405162461bcd60e51b815260206004820152601060248201526f14185d5cd8589b194e881c185d5cd95960821b60448201526064015b60405180910390fd5b6000610ab882612204565b604051637579c99360e11b8152600481018290526064602482015290915073__$86182d6e9eac51236f2aa8dd2a3ddeab6c$__9063eaf393269060440160006040518083038186803b158015610b0d57600080fd5b505af4158015610b21573d6000803e3d6000fd5b505050505050565b61013854610100900460ff16610b46576101385460ff1615610b4a565b303b155b610bad5760405162461bcd60e51b815260206004820152602e60248201527f496e697469616c697a61626c653a20636f6e747261637420697320616c72656160448201526d191e481a5b9a5d1a585b1a5e995960921b6064820152608401610aa4565b61013854610100900460ff16158015610bd157610138805461ffff19166101011790555b60d280546001600160a01b03199081166001600160a01b038981169190911790925560668054821688841617905560d38054821686841617905560678054909116848316179055604080516060810182529186168252603c6020830152600190820152610c3f90869061224a565b610c47612441565b610c4f612513565b8015610b2157610138805461ff0019169055505050505050565b600081815260d16020526040808220905163a0ba775760e01b81526004810191909152606460248201528190606090819073__$86182d6e9eac51236f2aa8dd2a3ddeab6c$__9063a0ba775790604401600060405180830381865af4158015610cd6573d6000803e3d6000fd5b505050506040513d6000823e601f3d908101601f19168201604052610cfe9190810190614d6d565b93509350935093509193509193565b61019e546001600160a01b03163314801590610d35575061019d546001600160a01b03163314155b15610d5357604051636bd1573560e11b815260040160405180910390fd5b610d5d828261224a565b5050565b60d2546001600160a01b03163314610d8c576040516385734f3160e01b815260040160405180910390fd5b6000610dac610d9e602084018461472b565b6001600160a01b031661258c565b63ffffffff8116600090815260646020526040902054909150610dd7906001600160a01b031661259a565b610de357610de3614e74565b63ffffffff811660009081526064602052604090208290610e048282615004565b9050507f4182acc9c169391ef7e765eb446fc15c9d49bc73060c678bf4c424a5c0dbdbcb8183606001604051610e3b9291906151e3565b60405180910390a15050565b60608167ffffffffffffffff811115610e6257610e62614346565b604051908082528060200260200182016040528015610e9557816020015b6060815260200190600190039081610e805790505b5090506000610ea385612204565b905060008060005b858110156113dc576000878783818110610ec757610ec761529f565b9050602002810190610ed991906152b5565b610ee79060208101906152d5565b6006811115610ef857610ef8614184565b03610f6457600080888884818110610f1257610f1261529f565b9050602002810190610f2491906152b5565b610f329060208101906152f6565b810190610f3f9190614b07565b915091508380610f4f5750600081125b9350610f5d868383876125ac565b50506113ca565b6001878783818110610f7857610f7861529f565b9050602002810190610f8a91906152b5565b610f989060208101906152d5565b6006811115610fa957610fa9614184565b03611015576000878783818110610fc257610fc261529f565b9050602002810190610fd491906152b5565b610fe29060208101906152f6565b810190610fef91906140da565b9050610ffd858260006126d6565b600081121561100f5760019350600192505b506113ca565b60028787838181106110295761102961529f565b905060200281019061103b91906152b5565b6110499060208101906152d5565b600681111561105a5761105a614184565b03611107576000808888848181106110745761107461529f565b905060200281019061108691906152b5565b6110949060208101906152f6565b8101906110a1919061533d565b915091506000806110b588858560006127f9565b604080516020810184905290810182905291935091506060016040516020818303038152906040528986815181106110ef576110ef61529f565b602002602001018190525060019550505050506113ca565b600387878381811061111b5761111b61529f565b905060200281019061112d91906152b5565b61113b9060208101906152d5565b600681111561114c5761114c614184565b036111a7576000808888848181106111665761116661529f565b905060200281019061117891906152b5565b6111869060208101906152f6565b810190611193919061545d565b915091506000806110b588858560006129a0565b60048787838181106111bb576111bb61529f565b90506020028101906111cd91906152b5565b6111db9060208101906152d5565b60068111156111ec576111ec614184565b036112505760008060008989858181106112085761120861529f565b905060200281019061121a91906152b5565b6112289060208101906152f6565b810190611235919061548b565b9250925092506112478b848484612ad1565b505050506113ca565b60058787838181106112645761126461529f565b905060200281019061127691906152b5565b6112849060208101906152d5565b600681111561129557611295614184565b036112a35761100f88612bef565b60068787838181106112b7576112b761529f565b90506020028101906112c991906152b5565b6112d79060208101906152d5565b60068111156112e8576112e8614184565b0361137e5760008787838181106113015761130161529f565b905060200281019061131391906152b5565b6113219060208101906152f6565b81019061132e9190614669565b905061133a8982612d85565b60405160200161134c91815260200190565b60405160208183030381529060405286838151811061136d5761136d61529f565b6020026020010181905250506113ca565b8686828181106113905761139061529f565b90506020028101906113a291906152b5565b6113b09060208101906152d5565b604051633164e52160e11b8152600401610aa491906154d6565b806113d481615506565b915050610eab565b50811561144e5760405163651524ed60e01b8152600481018490526064602482015273__$86182d6e9eac51236f2aa8dd2a3ddeab6c$__9063651524ed9060440160006040518083038186803b15801561143557600080fd5b505af4158015611449573d6000803e3d6000fd5b505050505b80156114c65760405163998c533560e01b8152600481018490526001602482015260646044820181905273__$86182d6e9eac51236f2aa8dd2a3ddeab6c$__9163998c5335910160006040518083038186803b1580156114ad57600080fd5b505af41580156114c1573d6000803e3d6000fd5b505050505b5050505b9392505050565b60006114dd8383612d85565b90505b92915050565b63ffffffff81166000908152606460205260408120546114e0906001600160a01b031661259a565b610d5d81612bef565b600082815260d160205260408082209051637188a1ed60e01b8152600481019190915263ffffffff8316602482015260646044820181905273__$86182d6e9eac51236f2aa8dd2a3ddeab6c$__91637188a1ed9101602060405180830381865af4158015611589573d6000803e3d6000fd5b505050506040513d601f19601f820116820180604052508101906114dd919061551f565b60006114e0606483612ecb565b6115c684848484612ad1565b5050505050565b61016b5460ff16156116145760405162461bcd60e51b815260206004820152601060248201526f14185d5cd8589b194e881c185d5cd95960821b6044820152606401610aa4565b61162b61162084612204565b8383600085126125ac565b505050565b61019e546001600160a01b03163314801590611658575061019d546001600160a01b03163314155b1561167657604051636bd1573560e11b815260040160405180910390fd5b6001600160a01b03811661169d5760405163d92e233d60e01b815260040160405180910390fd5b61019e546040516001600160a01b038084169216907f39355f2f5c8206286978f443aa8126bbd29fa09c53c04569502647f3a59c8cb290600090a361019e80546001600160a01b0319166001600160a01b0392909216919091179055565b60008061170b61016b5460ff1690565b1561174b5760405162461bcd60e51b815260206004820152601060248201526f14185d5cd8589b194e881c185d5cd95960821b6044820152606401610aa4565b600061175686612204565b905061176581868660016127f9565b9250925050935093915050565b61019e546001600160a01b0316331480159061179a575061019d546001600160a01b03163314155b156117b857604051636bd1573560e11b815260040160405180910390fd5b6117c0612f6b565b60005b8181101561162b5760008383838181106117df576117df61529f565b90506020020160208101906117f49190614669565b63ffffffff8116600090815260646020526040808220600201549051632892019b60e11b81529293506001600160a01b03169163512403369161183f91600401901515815260200190565b600060405180830381600087803b15801561185957600080fd5b505af115801561186d573d6000803e3d6000fd5b5050505050808061187d90615506565b9150506117c3565b61019e546001600160a01b031633148015906118ad575061019d546001600160a01b03163314155b156118cb57604051636bd1573560e11b815260040160405180910390fd5b63ffffffff8216600090815260646020526040902081906003016118ef8282614ec1565b9050507f4182acc9c169391ef7e765eb446fc15c9d49bc73060c678bf4c424a5c0dbdbcb8282604051610e3b9291906151e3565b61016b5460ff161561196a5760405162461bcd60e51b815260206004820152601060248201526f14185d5cd8589b194e881c185d5cd95960821b6044820152606401610aa4565b600061197583612204565b905061162b818360016126d6565b600061199261016b5460ff1690565b156119d25760405162461bcd60e51b815260206004820152601060248201526f14185d5cd8589b194e881c185d5cd95960821b6044820152606401610aa4565b5060d0546119e1816001615538565b60d055600081815260d160209081526040918290206bffffffffffffffffffffffff1933600160601b8102919091166bffffffffffffffffffffffff861617825592518481529092917f7325fb14450d3e5eb288c620b4ff1d6b43a41b33b4a4f143ae88cd4c12f99ea3910160405180910390a25090565b61019e546001600160a01b03163314801590611a81575061019d546001600160a01b03163314155b15611a9f57604051636bd1573560e11b815260040160405180910390fd5b836068611aac8282615573565b5050606a839055606b82905560698190556040517f697aec6e94e319190380ab0f1f10018d81b64da2479eb874be92c9a733e0a83790611af3908690869086908690615736565b60405180910390a150505050565b61019e546001600160a01b03163314801590611b29575061019d546001600160a01b03163314155b15611b4757604051636bd1573560e11b815260040160405180910390fd5b611b4f613005565b60005b8181101561162b5760646000848484818110611b7057611b7061529f565b9050602002016020810190611b859190614669565b63ffffffff16815260208101919091526040908101600020600201549051632892019b60e11b8152600160048201526001600160a01b0390911690635124033690602401600060405180830381600087803b158015611be357600080fd5b505af1158015611bf7573d6000803e3d6000fd5b505050508080611c0690615506565b915050611b52565b60608167ffffffffffffffff811115611c2957611c29614346565b604051908082528060200260200182016040528015611c5c57816020015b6060815260200190600190039081611c475790505b50905060005b82811015611d5f5760008030868685818110611c8057611c8061529f565b9050602002810190611c9291906152f6565b604051611ca092919061580b565b600060405180830381855af49150503d8060008114611cdb576040519150601f19603f3d011682016040523d82523d6000602084013e611ce0565b606091505b509150915081611d2c57604481511015611cf957600080fd5b60048101905080806020019051810190611d13919061581b565b60405162461bcd60e51b8152600401610aa491906158a6565b80848481518110611d3f57611d3f61529f565b602002602001018190525050508080611d5790615506565b915050611c62565b5092915050565b611d9960408051808201825260008082528251606081018452818152602081810183905293810191909152909182015290565b5063ffffffff9081166000908152606560209081526040918290208251808401845281546001600160a01b03908116825284516060810186526001909301549081168352600160a01b810490951682840152600160c01b90940460ff1615159281019290925282015290565b600080611e1561016b5460ff1690565b15611e555760405162461bcd60e51b815260206004820152601060248201526f14185d5cd8589b194e881c185d5cd95960821b6044820152606401610aa4565b6000611e6086612204565b90506117658186611e76368890038801886158b9565b60016129a0565b60006114e060648361308a565b61019d546001600160a01b03163314611eb657604051636bd1573560e11b815260040160405180910390fd5b6001600160a01b038116611edd5760405163d92e233d60e01b815260040160405180910390fd5b61019d546040516001600160a01b038084169216907f5f56bee8cffbe9a78652a74a60705edede02af10b0bbb888ca44b79a0d42ce8090600090a361019d80546001600160a01b0319166001600160a01b0392909216919091179055565b606060208251028201602001602083015b81811015611f61578051548152602001611f4c565b509192915050565b6000805b8281101561208c576000848483818110611f8957611f8961529f565b9050602002016020810190611f9e919061472b565b6001600160a01b0316635e622abc6040518163ffffffff1660e01b81526004016020604051808303816000875af1158015611fdd573d6000803e3d6000fd5b505050506040513d601f19601f82011682018060405250810190612001919061551f565b90508484838181106120155761201561529f565b905060200201602081019061202a919061472b565b6001600160a01b03167fa087657e3d85162090ffd700fbfdf5070d816f63aa5da00063f6ffd369c8a6db8260405161206491815260200190565b60405180910390a26120768184615538565b925050808061208490615506565b915050611f6d565b5061162b6120a361019e546001600160a01b031690565b6066546001600160a01b031690836130a7565b600081815260d16020526040808220905163625915c360e11b815260048101919091526064602482015273__$86182d6e9eac51236f2aa8dd2a3ddeab6c$__9063c4b22b8690604401602060405180830381865af415801561211c573d6000803e3d6000fd5b505050506040513d601f19601f820116820180604052508101906114e0919061551f565b600061214a611983565b90506114e08184846115cd565b600082815260d16020526040808220905163031b5fcd60e21b815260048101919091528215156024820152606460448201819052829173__$86182d6e9eac51236f2aa8dd2a3ddeab6c$__91630c6d7f3491016040805180830381865af41580156121c6573d6000803e3d6000fd5b505050506040513d601f19601f820116820180604052508101906121ea91906158d6565b909590945092505050565b6001600160a01b03163b151590565b600081815260d1602052604090208054600160601b90046001600160a01b0316331461224557604051630504a20d60e01b8152336004820152602401610aa4565b919050565b600061225e836001600160a01b031661258c565b9050612272836001600160a01b031661259a565b15612293576040516376d8a93160e01b815260006004820152602401610aa4565b63ffffffff81166000908152606560205260409020546122bb906001600160a01b031661259a565b1580156122f4575063ffffffff8082166000908152606560205260409020546122f2916001600160a01b0390911690859061313716565b155b1561233d5763ffffffff81166000908152606560205260409081902054905163a5d4d0b560e01b81526001600160a01b0380861660048301529091166024820152604401610aa4565b6040805180820182526001600160a01b038581168252602080830186815263ffffffff868116600090815260658452869020945185546001600160a01b03191690851617855590518051600190950180549382015191870151959094167fffffffffffffffff00000000000000000000000000000000000000000000000090931692909217600160a01b9290911691909102177fffffffffffffff00ffffffffffffffffffffffffffffffffffffffffffffffff16600160c01b92151592909202919091179055517f52983c04d8ccd4808cd0fcb24e6e48106ecb41e803d6270c6c94a15e3ebd08d29061243490859085906158fa565b60405180910390a1505050565b61013854610100900460ff1661245e576101385460ff1615612462565b303b155b6124c55760405162461bcd60e51b815260206004820152602e60248201527f496e697469616c697a61626c653a20636f6e747261637420697320616c72656160448201526d191e481a5b9a5d1a585b1a5e995960921b6064820152608401610aa4565b61013854610100900460ff161580156124e957610138805461ffff19166101011790555b6124f161314d565b336124fc81806131bb565b50801561251057610138805461ff00191690555b50565b61013854610100900460ff1661257f5760405162461bcd60e51b815260206004820152602b60248201527f496e697469616c697a61626c653a20636f6e7472616374206973206e6f74206960448201526a6e697469616c697a696e6760a81b6064820152608401610aa4565b61016b805460ff19169055565b600063ffffffff82166114e0565b60006001600160a01b038216156114e0565b61016b5460ff16156125f35760405162461bcd60e51b815260206004820152601060248201526f14185d5cd8589b194e881c185d5cd95960821b6044820152606401610aa4565b6000612602846000851261330e565b60405163f5a284a160e01b81526004810187905263ffffffff8616602482015260448101859052606480820152831515608482015290915073__$86182d6e9eac51236f2aa8dd2a3ddeab6c$__9063f5a284a19060a40160006040518083038186803b15801561267157600080fd5b505af4158015612685573d6000803e3d6000fd5b5050505060008313156126ae5780546126a9906001600160a01b031633308661339d565b6115c6565b60008312156115c6576115c6336126c48561593c565b83546001600160a01b031691906130a7565b61016b5460ff161561271d5760405162461bcd60e51b815260206004820152601060248201526f14185d5cd8589b194e881c185d5cd95960821b6044820152606401610aa4565b8160000361273e57604051631f2a200560e01b815260040160405180910390fd5b60405163d25c4a6f60e01b815260048101849052602481018390526064604482018190528215159082015273__$86182d6e9eac51236f2aa8dd2a3ddeab6c$__9063d25c4a6f9060840160006040518083038186803b1580156127a057600080fd5b505af41580156127b4573d6000803e3d6000fd5b5050505060008213156127d95760665461162b906001600160a01b031633308561339d565b61162b336127e68461593c565b6066546001600160a01b031691906130a7565b60008061280961016b5460ff1690565b156128495760405162461bcd60e51b815260206004820152601060248201526f14185d5cd8589b194e881c185d5cd95960821b6044820152606401610aa4565b612852856133db565b604051630a067b0f60e11b815273__$86182d6e9eac51236f2aa8dd2a3ddeab6c$__9063140cf61e90612892908990899089906064908a90600401615958565b6040805180830381865af41580156128ae573d6000803e3d6000fd5b505050506040513d601f19601f820116820180604052508101906128d291906158d6565b909250905060006128e282613465565b606b5490915081101561290b576040516312b6b5cd60e11b815260048101829052602401610aa4565b60208501516001600160a01b03161580159061292957508460600151155b1561299657846040015180156129505750845161294590613465565b61294e83613465565b145b80612979575084604001511580156129795750845161296e90613465565b61297784613465565b145b612996576040516307a1db0760e01b815260040160405180910390fd5b5094509492505050565b6000806129b061016b5460ff1690565b156129f05760405162461bcd60e51b815260206004820152601060248201526f14185d5cd8589b194e881c185d5cd95960821b6044820152606401610aa4565b6129f9856133db565b60608401516001600160a01b031615612a1f57612a1f8585606001518660800151613480565b60405163c27789d160e01b815260009073__$86182d6e9eac51236f2aa8dd2a3ddeab6c$__9063c27789d190612a62908a908a908a906064908b906004016159cd565b606060405180830381865af4158015612a7f573d6000803e3d6000fd5b505050506040513d601f19601f82011682018060405250810190612aa39190615a77565b606b549295509093509150811015612996576040516312b6b5cd60e11b815260048101829052602401610aa4565b6000612ae061016b5460ff1690565b15612b205760405162461bcd60e51b815260206004820152601060248201526f14185d5cd8589b194e881c185d5cd95960821b6044820152606401610aa4565b600085815260d160205260409020612b37856133db565b606a54604051637022478560e11b81526004810183905263ffffffff87166024820152600286810b604483015285900b6064808301919091526084820183905260a482015290925073__$86182d6e9eac51236f2aa8dd2a3ddeab6c$__9063e0448f0a9060c40160006040518083038186803b158015612bb657600080fd5b505af4158015612bca573d6000803e3d6000fd5b5050606654612be692506001600160a01b0316905033846130a7565b50949350505050565b6000612bfe61016b5460ff1690565b15612c3e5760405162461bcd60e51b815260206004820152601060248201526f14185d5cd8589b194e881c185d5cd95960821b6044820152606401610aa4565b600082815260d1602052604080822090516308b9103160e21b815260048101829052602481018390526064604482018190529192918291829173__$86182d6e9eac51236f2aa8dd2a3ddeab6c$__916322e440c49101606060405180830381865af4158015612cb1573d6000803e3d6000fd5b505050506040513d601f19601f82011682018060405250810190612cd59190615a77565b919450925090506000612ce88385615aa5565b905060008413612d0e5760405163ef37dcc760e01b815260048101859052602401610aa4565b606654612d25906001600160a01b031633866130a7565b612d2e83613512565b604080518281526020810186905290810184905260608101839052339088907f688f0846fe2852572c467d5e769db101b0fea55e8849406d85c9fb322b95299b9060800160405180910390a3509195945050505050565b6000612d9461016b5460ff1690565b15612dd45760405162461bcd60e51b815260206004820152601060248201526f14185d5cd8589b194e881c185d5cd95960821b6044820152606401610aa4565b600083815260d160205260409020612deb836133db565b6040516377f3beb560e01b81526004810182905263ffffffff841660248201526000604482018190526064808301529073__$86182d6e9eac51236f2aa8dd2a3ddeab6c$__906377f3beb5906084016040805180830381865af4158015612e56573d6000803e3d6000fd5b505050506040513d601f19601f82011682018060405250810190612e7a91906158d6565b909350905060008313612ea35760405163ef37dcc760e01b815260048101849052602401610aa4565b606654612eba906001600160a01b031633856130a7565b612ec381613512565b505092915050565b63ffffffff8181166000908152602084905260408082206003810154915163dd86c10160e01b81526601000000000000830490941660048501529192600160601b9091046001600160a01b03169063dd86c10190602401602060405180830381865afa158015612f3f573d6000803e3d6000fd5b505050506040513d601f19601f82011682018060405250810190612f63919061551f565b949350505050565b61016b5460ff1615612fb25760405162461bcd60e51b815260206004820152601060248201526f14185d5cd8589b194e881c185d5cd95960821b6044820152606401610aa4565b61016b805460ff191660011790557f62e78cea01bee320cd4e420270b5ea74000d11b0c9f74754ebdbfc544b05a258612fe83390565b6040516001600160a01b03909116815260200160405180910390a1565b61016b5460ff166130585760405162461bcd60e51b815260206004820152601460248201527f5061757361626c653a206e6f74207061757365640000000000000000000000006044820152606401610aa4565b61016b805460ff191690557f5db9ee0a495bf2e6ff9c91a7834c1ba4fdd244a5e8aa4e537bd38aeae4b073aa33612fe8565b60006114dd613099848461359e565b6001600160a01b03166135e5565b6040516001600160a01b03831660248201526044810182905261162b90849063a9059cbb60e01b906064015b60408051601f198184030181529190526020810180517bffffffffffffffffffffffffffffffffffffffffffffffffffffffff167fffffffff0000000000000000000000000000000000000000000000000000000090931692909217909152613652565b60006001600160a01b03808416908316146114dd565b61013854610100900460ff166131b95760405162461bcd60e51b815260206004820152602b60248201527f496e697469616c697a61626c653a20636f6e7472616374206973206e6f74206960448201526a6e697469616c697a696e6760a81b6064820152608401610aa4565b565b61013854610100900460ff166131d8576101385460ff16156131dc565b303b155b61323f5760405162461bcd60e51b815260206004820152602e60248201527f496e697469616c697a61626c653a20636f6e747261637420697320616c72656160448201526d191e481a5b9a5d1a585b1a5e995960921b6064820152608401610aa4565b61013854610100900460ff1615801561326357610138805461ffff19166101011790555b61019d80546001600160a01b0319166001600160a01b0385169081179091556040516000907f5f56bee8cffbe9a78652a74a60705edede02af10b0bbb888ca44b79a0d42ce80908290a361019e80546001600160a01b0319166001600160a01b0384169081179091556040516000907f39355f2f5c8206286978f443aa8126bbd29fa09c53c04569502647f3a59c8cb2908290a3801561162b57610138805461ff0019169055505050565b63ffffffff821660009081526065602052604090208054613337906001600160a01b031661259a565b1561335d57604051636b9c1a9d60e01b815263ffffffff84166004820152602401610aa4565b8115801561337757506001810154600160c01b900460ff16155b156114e05760405163122a1f1960e31b815263ffffffff84166004820152602401610aa4565b6040516001600160a01b03808516602483015283166044820152606481018290526133d59085906323b872dd60e01b906084016130d3565b50505050565b63ffffffff811660009081526064602052604090208054613404906001600160a01b031661259a565b1561342a5760405163b842f5a760e01b815263ffffffff83166004820152602401610aa4565b60038101546a0100000000000000000000900460ff16610d5d5760405163587ee90160e11b815263ffffffff83166004820152602401610aa4565b600080821361347c576134778261593c565b6114e0565b5090565b600061348d606485613737565b90506000836001600160a01b0316826001600160a01b0316116134b9576134b48285615afe565b6134c3565b6134c38483615afe565b90506127106134d68561ffff8616615b26565b6134e09190615b6b565b6001600160a01b0316816001600160a01b031611156115c6576040516307a1db0760e01b815260040160405180910390fd5b60008113156135385760d354606654612510916001600160a01b039182169116836130a7565b60d3546001600160a01b031663379607f56135528361593c565b6040518263ffffffff1660e01b815260040161357091815260200190565b600060405180830381600087803b15801561358a57600080fd5b505af11580156115c6573d6000803e3d6000fd5b63ffffffff80821660009081526020849052604081206003810154600182015492939192612f63926001600160a01b03909116916601000000000000900481169061376216565b60006401000276a36001600160a01b0383161080613620575073fffd8963efd1fc6a506488495d951d5263988d266001600160a01b03831610155b1561364957604051635d236c4560e01b81526001600160a01b0383166004820152602401610aa4565b6114e082613783565b60006136a7826040518060400160405280602081526020017f5361666545524332303a206c6f772d6c6576656c2063616c6c206661696c6564815250856001600160a01b03166137a29092919063ffffffff16565b80519091501561162b57808060200190518101906136c59190615b91565b61162b5760405162461bcd60e51b815260206004820152602a60248201527f5361666545524332303a204552433230206f7065726174696f6e20646964206e60448201527f6f742073756363656564000000000000000000000000000000000000000000006064820152608401610aa4565b63ffffffff81166000908152602083905260408120600101546114dd906001600160a01b03166137b1565b6000806137786001600160a01b03851684613822565b9050612f6381613a3e565b60006114e06001600160a01b0383168068010000000000000000613d6e565b6060612f638484600085613e20565b6000816001600160a01b0316633850c7bd6040518163ffffffff1660e01b815260040160e060405180830381865afa1580156137f1573d6000803e3d6000fd5b505050506040513d601f19601f820116820180604052508101906138159190615bae565b5094979650505050505050565b60008163ffffffff1660000361384b57613844836001600160a01b0316613f68565b90506114e0565b60408051600280825260608201835260009260208301908036833701905050905082816000815181106138805761388061529f565b602002602001019063ffffffff16908163ffffffff16815250506000816001815181106138af576138af61529f565b63ffffffff9092166020928302919091019091015260405163883bdbfd60e01b81526001600160a01b0385169063883bdbfd906138f0908490600401615c50565b600060405180830381865afa92505050801561392e57506040513d6000823e601f3d908101601f1916820160405261392b9190810190615cf2565b60015b6139a357836001600160a01b0316633850c7bd6040518163ffffffff1660e01b815260040160e060405180830381865afa158015613970573d6000803e3d6000fd5b505050506040513d601f19601f820116820180604052508101906139949190615bae565b50939650611d5f945050505050565b6000826000815181106139b8576139b861529f565b6020026020010151836001815181106139d3576139d361529f565b60200260200101516139e59190615dbe565b905060006139f963ffffffff881683615e0e565b905060008260060b128015613a1f5750613a1963ffffffff881683615e4c565b60060b15155b15613a325780613a2e81615e6e565b9150505b94506114e09350505050565b60008060008360020b12613a55578260020b613a5d565b8260020b6000035b9050620d89e8811115613a83576040516315e4079d60e11b815260040160405180910390fd5b600081600116600003613aa757700100000000000000000000000000000000613ab9565b6ffffcb933bd6fad37aa2d162d1a5940015b70ffffffffffffffffffffffffffffffffff1690506002821615613aed576ffff97272373d413259a46990580e213a0260801c5b6004821615613b0c576ffff2e50f5f656932ef12357cf3c7fdcc0260801c5b6008821615613b2b576fffe5caca7e10e4e61c3624eaa0941cd00260801c5b6010821615613b4a576fffcb9843d60f6159c9db58835c9266440260801c5b6020821615613b69576fff973b41fa98c081472e6896dfb254c00260801c5b6040821615613b88576fff2ea16466c96a3843ec78b326b528610260801c5b6080821615613ba7576ffe5dee046a99a2a811c461f1969c30530260801c5b610100821615613bc7576ffcbe86c7900a88aedcffc83b479aa3a40260801c5b610200821615613be7576ff987a7253ac413176f2b074cf7815e540260801c5b610400821615613c07576ff3392b0822b70005940c7a398e4b70f30260801c5b610800821615613c27576fe7159475a2c29b7443b29c7fa6e889d90260801c5b611000821615613c47576fd097f3bdfd2022b8845ad8f792aa58250260801c5b612000821615613c67576fa9f746462d870fdf8a65dc1f90e061e50260801c5b614000821615613c87576f70d869a156d2a1b890bb3df62baf32f70260801c5b618000821615613ca7576f31be135f97d08fd981231505542fcfa60260801c5b62010000821615613cc8576f09aa508b5b7a84e1c677de54f3e99bc90260801c5b62020000821615613ce8576e5d6af8dedb81196699c329225ee6040260801c5b62040000821615613d07576d2216e584f5fa1ea926041bedfe980260801c5b62080000821615613d24576b048a170391f7dc42444e8fa20260801c5b60008460020b1315613d45578060001981613d4157613d41615b55565b0490505b640100000000810615613d59576001613d5c565b60005b60ff16602082901c0192505050919050565b6000808060001985870985870292508281108382030391505080600003613da75760008411613d9c57600080fd5b5082900490506114ca565b808411613db357600080fd5b6000848688096000868103871696879004966002600389028118808a02820302808a02820302808a02820302808a02820302808a02820302808a02909103029181900381900460010186841190950394909402919094039290920491909117919091029150509392505050565b606082471015613e985760405162461bcd60e51b815260206004820152602660248201527f416464726573733a20696e73756666696369656e742062616c616e636520666f60448201527f722063616c6c00000000000000000000000000000000000000000000000000006064820152608401610aa4565b6001600160a01b0385163b613eef5760405162461bcd60e51b815260206004820152601d60248201527f416464726573733a2063616c6c20746f206e6f6e2d636f6e74726163740000006044820152606401610aa4565b600080866001600160a01b03168587604051613f0b9190615e91565b60006040518083038185875af1925050503d8060008114613f48576040519150601f19603f3d011682016040523d82523d6000602084013e613f4d565b606091505b5091509150613f5d828286613fd9565b979650505050505050565b6000816001600160a01b0316633850c7bd6040518163ffffffff1660e01b815260040160e060405180830381865afa158015613fa8573d6000803e3d6000fd5b505050506040513d601f19601f82011682018060405250810190613fcc9190615bae565b5093979650505050505050565b60608315613fe85750816114ca565b825115613ff85782518084602001fd5b8160405162461bcd60e51b8152600401610aa491906158a6565b60006101a0820190506001600160a01b03808916835280881660208401525061ffff80875116604084015280602088015116606084015280604088015116608084015250606086015161406b60a084018261ffff169052565b50608086015161ffff811660c08401525060a086015161ffff811660e08401525060c086015167ffffffffffffffff81166101008401525060e086015167ffffffffffffffff811661012084015250846101408301528361016083015282610180830152979650505050505050565b6000602082840312156140ec57600080fd5b5035919050565b6001600160a01b038116811461251057600080fd5b8035612245816140f3565b600080600080600060a0868803121561412b57600080fd5b8535614136816140f3565b94506020860135614146816140f3565b93506040860135614156816140f3565b92506060860135614166816140f3565b91506080860135614176816140f3565b809150509295509295909350565b634e487b7160e01b600052602160045260246000fd5b600381106141aa576141aa614184565b9052565b600060808083016001600160a01b038089168552602088818701526040848188015283895180865260a089019150838b01955060005b8181101561420b5786518051871684528501518584015295840195918301916001016141e4565b5050606094508781038589015280935088518082528382019450838160051b830101848b0160005b8381101561433257848303601f190188528151805163ffffffff16845287810151888501528681015187850152898101518a8501528a015160a08b850181905281519085018190529088019060009060c08601905b8083101561431d5783518051600290810b84528c820151900b8c8401528a8101516fffffffffffffffffffffffffffffffff81168c850152508d8101518e8401528e8101518f84015260a081015160a084015260c081015160c084015260e081015160e08401526101008082015191506143048185018361419a565b5050610120820191508a84019350600183019250614288565b50998901999450505090860190600101614233565b50909e9d5050505050505050505050505050565b634e487b7160e01b600052604160045260246000fd5b60405160a0810167ffffffffffffffff8111828210171561437f5761437f614346565b60405290565b604051610120810167ffffffffffffffff8111828210171561437f5761437f614346565b6040805190810167ffffffffffffffff8111828210171561437f5761437f614346565b604051601f8201601f1916810167ffffffffffffffff811182821017156143f5576143f5614346565b604052919050565b63ffffffff8116811461251057600080fd5b8035612245816143fd565b801515811461251057600080fd5b80356122458161441a565b600080828403608081121561444757600080fd5b8335614452816140f3565b92506060601f198201121561446657600080fd5b506040516060810181811067ffffffffffffffff8211171561448a5761448a614346565b604052602084013561449b816140f3565b815260408401356144ab816143fd565b602082015260608401356144be8161441a565b6040820152919491935090915050565b600061014082840312156144e157600080fd5b50919050565b60008083601f8401126144f957600080fd5b50813567ffffffffffffffff81111561451157600080fd5b6020830191508360208260051b850101111561452c57600080fd5b9250929050565b60008060006040848603121561454857600080fd5b83359250602084013567ffffffffffffffff81111561456657600080fd5b614572868287016144e7565b9497909650939450505050565b60005b8381101561459a578181015183820152602001614582565b838111156133d55750506000910152565b600081518084526145c381602086016020860161457f565b601f01601f19169290920160200192915050565b6000602080830181845280855180835260408601915060408160051b870101925083870160005b8281101561462c57603f1988860301845261461a8583516145ab565b945092850192908501906001016145fe565b5092979650505050505050565b6000806040838503121561464c57600080fd5b82359150602083013561465e816143fd565b809150509250929050565b60006020828403121561467b57600080fd5b81356114ca816143fd565b8060020b811461251057600080fd5b803561224581614686565b600080600080608085870312156146b657600080fd5b8435935060208501356146c8816143fd565b925060408501356146d881614686565b915060608501356146e881614686565b939692955090935050565b60008060006060848603121561470857600080fd5b83359250602084013561471a816143fd565b929592945050506040919091013590565b60006020828403121561473d57600080fd5b81356114ca816140f3565b600060a0828403121561475a57600080fd5b61476261435c565b9050813581526020820135614776816140f3565b602082015260408201356147898161441a565b6040820152606082013561479c8161441a565b606082015260808201356147af8161441a565b608082015292915050565b600080600060e084860312156147cf57600080fd5b8335925060208401356147e1816143fd565b91506147f08560408601614748565b90509250925092565b6000806020838503121561480c57600080fd5b823567ffffffffffffffff81111561482357600080fd5b61482f858286016144e7565b90969095509350505050565b60008082840361010081121561485057600080fd5b833561485b816143fd565b925060e0601f198201121561486f57600080fd5b506020830190509250929050565b6000806040838503121561489057600080fd5b50508035926020909101359150565b600061010082840312156144e157600080fd5b60008060008061016085870312156148c957600080fd5b6148d3868661489f565b966101008601359650610120860135956101400135945092505050565b6000610140820190506001600160a01b0380845116835280602085015116602084015280604085015116604084015250606083015161ffff8082511660608501528060208301511660808501528060408301511660a08501525063ffffffff60608201511660c08401526080810151151560e084015260a081015161497a61010085018215159052565b5060c001516001600160a01b038116610120840152611d5f565b81516001600160a01b031681526020808301516080830191611d5f9084018280516001600160a01b0316825260208082015163ffffffff16908301526040908101511515910152565b600080600061014084860312156149f357600080fd5b833592506020840135614a05816143fd565b91506147f0856040860161489f565b600067ffffffffffffffff821115614a2e57614a2e614346565b5060051b60200190565b60006020808385031215614a4b57600080fd5b823567ffffffffffffffff811115614a6257600080fd5b8301601f81018513614a7357600080fd5b8035614a86614a8182614a14565b6143cc565b81815260059190911b82018301908381019087831115614aa557600080fd5b928401925b82841015613f5d57833582529284019290840190614aaa565b6020808252825182820181905260009190848201906040850190845b81811015614afb57835183529284019291840191600101614adf565b50909695505050505050565b60008060408385031215614b1a57600080fd5b8235614b25816143fd565b946020939093013593505050565b60008060408385031215614b4657600080fd5b82359150602083013561465e8161441a565b805161224581614686565b80516fffffffffffffffffffffffffffffffff8116811461224557600080fd5b6003811061251057600080fd5b805161224581614b83565b600082601f830112614bac57600080fd5b81516020614bbc614a8183614a14565b82815260059290921b84018101918181019086841115614bdb57600080fd5b8286015b84811015614d6257805167ffffffffffffffff80821115614bff57600080fd5b9088019060a0828b03601f19011215614c1757600080fd5b614c1f61435c565b86830151614c2c816143fd565b80825250604083015187820152606083015160408201526080830151606082015260a083015182811115614c5f57600080fd5b8084019350508a603f840112614c7457600080fd5b868301519150614c86614a8183614a14565b82815261012092830284016040019288820191908d851115614ca757600080fd5b6040860195505b84861015614d4c5780868f031215614cc557600080fd5b614ccd614385565b614cd687614b58565b8152614ce38b8801614b58565b8b820152614cf360408801614b63565b6040820152606087015160608201526080870151608082015260a087015160a082015260c087015160c082015260e087015160e0820152614d376101008801614b90565b61010082015283529485019491890191614cae565b5060808301525085525050918301918301614bdf565b509695505050505050565b60008060008060808587031215614d8357600080fd5b8451614d8e816140f3565b80945050602080860151935060408087015167ffffffffffffffff80821115614db657600080fd5b818901915089601f830112614dca57600080fd5b8151614dd8614a8182614a14565b81815260069190911b8301850190858101908c831115614df757600080fd5b938601935b82851015614e405785858e031215614e145760008081fd5b614e1c6143a9565b8551614e27816140f3565b8152858801518882015282529385019390860190614dfc565b60608c01519098509550505080841115614e5957600080fd5b505050614e6887828801614b9b565b91505092959194509250565b634e487b7160e01b600052600160045260246000fd5b61ffff8116811461251057600080fd5b600081356114e081614e8a565b600081356114e08161441a565b600081356114e0816140f3565b8135614ecc81614e8a565b815461ffff191661ffff8216178255506020820135614eea81614e8a565b815463ffff00001916601082901b63ffff000016178255506040820135614f1081614e8a565b815465ffff000000001916602082901b65ffff0000000016178255506060820135614f3a816143fd565b815469ffffffff000000000000191660309190911b69ffffffff000000000000161781556080820135614f6c8161441a565b81546aff00000000000000000000191681151560501b6aff00000000000000000000161782555060a0820135614fa18161441a565b81546bff0000000000000000000000191681151560581b6bff0000000000000000000000161782555060c0820135614fd8816140f3565b81546bffffffffffffffffffffffff16606082901b6bffffffffffffffffffffffff1916178255505050565b813561500f816140f3565b81546001600160a01b0319166001600160a01b038216178255506020820135615037816140f3565b6001820180546001600160a01b0319166001600160a01b038316179055506040820135615063816140f3565b6002820180546001600160a01b0319166001600160a01b0383161790555060038101606083013561509381614e8a565b815461ffff191661ffff82161782555060808301356150b181614e8a565b815463ffff00001916601082901b63ffff0000161782555060a08301356150d781614e8a565b815465ffff000000001916602082901b65ffff00000000161782555060c0830135615101816143fd565b815469ffffffff000000000000191660309190911b69ffffffff0000000000001617815561516061513460e08501614ea7565b8280546aff00000000000000000000191691151560501b6aff0000000000000000000016919091179055565b61519e6151706101008501614ea7565b8280546bff0000000000000000000000191691151560581b6bff000000000000000000000016919091179055565b61162b6151ae6101208501614eb4565b82546bffffffffffffffffffffffff1660609190911b6bffffffffffffffffffffffff1916178255565b803561224581614e8a565b63ffffffff83168152610100810182356151fc81614e8a565b61ffff80821660208501526020850135915061521782614e8a565b80821660408501526040850135915061522f82614e8a565b808216606085015250506152456060840161440f565b63ffffffff811660808401525061525e60808401614428565b80151560a08401525061527360a08401614428565b80151560c08401525061528860c08401614108565b6001600160a01b03811660e0840152509392505050565b634e487b7160e01b600052603260045260246000fd5b60008235603e198336030181126152cb57600080fd5b9190910192915050565b6000602082840312156152e757600080fd5b8135600781106114ca57600080fd5b6000808335601e1984360301811261530d57600080fd5b83018035915067ffffffffffffffff82111561532857600080fd5b60200191503681900382131561452c57600080fd5b60008060c0838503121561535057600080fd5b823561535b816143fd565b915061536a8460208501614748565b90509250929050565b8035600f81900b811461224557600080fd5b803561224581614b83565b60006101008083850312156153a457600080fd5b6040519081019067ffffffffffffffff821181831017156153c7576153c7614346565b81604052809250833591506153db82614686565b8181526153ea60208501614695565b60208201526153fb60408501615373565b604082015261540c60608501614108565b606082015261541d608085016151d8565b608082015261542e60a08501614428565b60a082015261543f60c08501615385565b60c082015261545060e08501614428565b60e0820152505092915050565b600080610120838503121561547157600080fd5b823561547c816143fd565b915061536a8460208501615390565b6000806000606084860312156154a057600080fd5b83356154ab816143fd565b925060208401356154bb81614686565b915060408401356154cb81614686565b809150509250925092565b60208101600783106154ea576154ea614184565b91905290565b634e487b7160e01b600052601160045260246000fd5b600060018201615518576155186154f0565b5060010190565b60006020828403121561553157600080fd5b5051919050565b6000821982111561554b5761554b6154f0565b500190565b67ffffffffffffffff8116811461251057600080fd5b600081356114e081615550565b813561557e81614e8a565b815461ffff191661ffff821617825550602082013561559c81614e8a565b815463ffff00001916601082901b63ffff0000161782555060408201356155c281614e8a565b815465ffff000000001916602082901b65ffff00000000161782555060608201356155ec81614e8a565b815467ffff0000000000008260301b1691508167ffff000000000000198216178355608084013561561c81614e8a565b69ffff00000000000000008160401b168369ffffffff0000000000001984161717845550505061567b61565160a08401614e9a565b82546bffff00000000000000000000191660509190911b6bffff0000000000000000000016178255565b6156cf61568a60c08401615566565b82547fffffffffffffffffffffffff0000000000000000ffffffffffffffffffffffff1660609190911b73ffffffffffffffff00000000000000000000000016178255565b610d5d6156de60e08401615566565b82547fffffffff0000000000000000ffffffffffffffffffffffffffffffffffffffff1660a09190911b7bffffffffffffffff000000000000000000000000000000000000000016178255565b803561224581615550565b6101608101853561574681614e8a565b61ffff908116835260208701359061575d82614e8a565b16602083015261576f604087016151d8565b61ffff166040830152615784606087016151d8565b61ffff166060830152615799608087016151d8565b61ffff1660808301526157ae60a087016151d8565b61ffff1660a08301526157c360c0870161572b565b67ffffffffffffffff1660c08301526157de60e0870161572b565b67ffffffffffffffff1660e083015261010082019490945261012081019290925261014090910152919050565b8183823760009101908152919050565b60006020828403121561582d57600080fd5b815167ffffffffffffffff8082111561584557600080fd5b818401915084601f83011261585957600080fd5b81518181111561586b5761586b614346565b61587e601f8201601f19166020016143cc565b915080825285602082850101111561589557600080fd5b612be681602084016020860161457f565b6020815260006114dd60208301846145ab565b600061010082840312156158cc57600080fd5b6114dd8383615390565b600080604083850312156158e957600080fd5b505080516020909101519092909150565b6001600160a01b0383168152608081016114ca602083018480516001600160a01b0316825260208082015163ffffffff16908301526040908101511515910152565b6000600160ff1b8201615951576159516154f0565b5060000390565b60006101208201905086825263ffffffff86166020830152845160408301526001600160a01b0360208601511660608301526040850151151560808301526060850151151560a08301526080850151151560c08301528360e08301526159c361010083018415159052565b9695505050505050565b60006101808201905086825263ffffffff86166020830152845160020b6040830152602085015160020b60608301526040850151600f0b60808301526060850151615a2360a08401826001600160a01b03169052565b50608085015161ffff1660c08381019190915260a0860151151560e0840152850151615a5361010084018261419a565b5060e0850151151561012083015261014082018490528215156101608301526159c3565b600080600060608486031215615a8c57600080fd5b8351925060208401519150604084015190509250925092565b6000808212827f7fffffffffffffffffffffffffffffffffffffffffffffffffffffffffffffff03841381151615615adf57615adf6154f0565b600160ff1b8390038412811615615af857615af86154f0565b50500190565b60006001600160a01b0383811690831681811015615b1e57615b1e6154f0565b039392505050565b60006001600160a01b0380831681851681830481118215151615615b4c57615b4c6154f0565b02949350505050565b634e487b7160e01b600052601260045260246000fd5b60006001600160a01b0380841680615b8557615b85615b55565b92169190910492915050565b600060208284031215615ba357600080fd5b81516114ca8161441a565b600080600080600080600060e0888a031215615bc957600080fd5b8751615bd4816140f3565b6020890151909750615be581614686565b6040890151909650615bf681614e8a565b6060890151909550615c0781614e8a565b6080890151909450615c1881614e8a565b60a089015190935060ff81168114615c2f57600080fd5b60c0890151909250615c408161441a565b8091505092959891949750929550565b6020808252825182820181905260009190848201906040850190845b81811015614afb57835163ffffffff1683529284019291840191600101615c6c565b600082601f830112615c9f57600080fd5b81516020615caf614a8183614a14565b82815260059290921b84018101918181019086841115615cce57600080fd5b8286015b84811015614d62578051615ce5816140f3565b8352918301918301615cd2565b60008060408385031215615d0557600080fd5b825167ffffffffffffffff80821115615d1d57600080fd5b818501915085601f830112615d3157600080fd5b81516020615d41614a8183614a14565b82815260059290921b84018101918181019089841115615d6057600080fd5b948201945b83861015615d8e5785518060060b8114615d7f5760008081fd5b82529482019490820190615d65565b91880151919650909350505080821115615da757600080fd5b50615db485828601615c8e565b9150509250929050565b60008160060b8360060b6000811281667fffffffffffff1901831281151615615de957615de96154f0565b81667fffffffffffff018313811615615e0457615e046154f0565b5090039392505050565b60008160060b8360060b80615e2557615e25615b55565b667fffffffffffff19821460001982141615615e4357615e436154f0565b90059392505050565b60008260060b80615e5f57615e5f615b55565b808360060b0791505092915050565b60008160020b627fffff198103615e8757615e876154f0565b6000190192915050565b600082516152cb81846020870161457f56fea2646970667358221220b866105a8e0a03a01124faac62b070e0c6ca98824a9421e6f7607eb2c68334b164736f6c634300080d0033",
  "libraries": {
    "Account": "0x05dE8aA303c33b59c292Bca27f2d60c8C8141a5E"
  },
  "devdoc": {
    "errors": {
      "AccessDenied(address)": [
        {
          "params": {
            "senderAddress": "address of msg sender"
          }
        }
      ],
      "CollateralDoesNotExist(uint32)": [
        {
          "params": {
            "collateralId": "address of token"
          }
        }
      ],
      "CollateralNotAllowedForUse(uint32)": [
        {
          "params": {
            "collateralId": "address of token"
          }
        }
      ],
      "IncorrectCollateralAddress(address,address)": [
        {
          "params": {
            "correctAddress": "correct address of collateral token",
            "incorrectAddress": "incorrect address of collateral token"
          }
        }
      ],
      "InvalidCollateralAddress(address)": [
        {
          "params": {
            "invalidAddress": "invalid address of collateral token"
          }
        }
      ],
      "InvalidMulticallOperationType(uint8)": [
        {
          "params": {
            "multicallOperationType": "is the value that is out of bounds"
          }
        }
      ],
      "LowNotionalValue(uint256)": [
        {
          "params": {
            "notionalValue": "notional value of txn"
          }
        }
      ],
      "PoolDoesNotExist(uint32)": [
        {
          "params": {
            "poolId": "unitialized truncated address supplied"
          }
        }
      ],
      "PoolNotAllowedForTrade(uint32)": [
        {
          "params": {
            "poolId": "address of token"
          }
        }
      ]
    },
    "kind": "dev",
    "methods": {
      "createAccount()": {
        "returns": {
          "newAccountId": "- serial number of the new account created"
        }
      },
      "createAccountAndAddMargin(uint32,uint256)": {
        "params": {
          "amount": "amount of token to deposit",
          "collateralId": "truncated address of collateral token to deposit"
        },
        "returns": {
          "newAccountId": "- serial number of the new account created"
        }
      },
      "extsload(bytes32)": {
        "params": {
          "slot": "to read from."
        },
        "returns": {
          "val": "stored at the slot."
        }
      },
      "extsload(bytes32[])": {
        "params": {
          "slots": "to read from."
        },
        "returns": {
          "_0": "values stored at the slots."
        }
      },
      "getAccountInfo(uint256)": {
        "params": {
          "accountId": "the account id"
        },
        "returns": {
          "collateralDeposits": "the collateral deposits of the account",
          "owner": "address of the account creator",
          "tokenPositions": "the token positions of the account along with liquidity positions",
          "vQuoteBalance": "the vQuote balance of the account"
        }
      },
      "getAccountMarketValueAndRequiredMargin(uint256,bool)": {
        "details": "This method can be used to check if an account is under water or not.     If accountMarketValue < requiredMargin then liquidation can take place.",
        "params": {
          "accountId": "the account id",
          "isInitialMargin": "true is initial margin, false is maintainance margin"
        },
        "returns": {
          "marketValue": "the market value of the account, due to collateral and positions",
          "requiredMargin": "margin needed due to positions"
        }
      },
      "getAccountNetProfit(uint256)": {
        "params": {
          "accountId": "the account id"
        },
        "returns": {
          "accountNetProfit": "the net profit of the account"
        }
      },
      "getAccountNetTokenPosition(uint256,uint32)": {
        "params": {
          "accountId": "the account id",
          "poolId": "the id of the pool (vETH, ... etc)"
        },
        "returns": {
          "netPosition": "the net position of the account"
        }
      },
      "getCollateralInfo(uint32)": {
        "params": {
          "collateralId": "the id of the collateral"
        },
        "returns": {
          "_0": "collateral the Collateral struct"
        }
      },
      "getPoolInfo(uint32)": {
        "params": {
          "poolId": "the id of the pool"
        },
        "returns": {
          "_0": "pool the Pool struct"
        }
      },
      "getProtocolInfo()": {
        "returns": {
          "liquidationParams": "the liquidation parameters",
          "minRequiredMargin": "minimum required margin an account has to keep with non-zero netPosition",
          "minimumOrderNotional": "the minimum order notional",
          "removeLimitOrderFee": "the fee charged for using removeLimitOrder service",
          "settlementToken": "the token in which profit is settled",
          "vQuote": "the vQuote token contract"
        }
      },
      "getRealTwapPriceX128(uint32)": {
        "params": {
          "poolId": "the id of the pool"
        },
        "returns": {
          "realPriceX128": "the real price of the pool"
        }
      },
      "getVirtualTwapPriceX128(uint32)": {
        "params": {
          "poolId": "the id of the pool"
        },
        "returns": {
          "virtualPriceX128": "the virtual price of the pool"
        }
      },
      "governance()": {
        "details": "Returns the address of the current governance."
      },
      "isPoolIdAvailable(uint32)": {
        "params": {
          "poolId": "the id of the pool"
        },
        "returns": {
          "_0": "true if the poolId is unused, false otherwise"
        }
      },
      "liquidateLiquidityPositions(uint256)": {
        "details": "removes all the active range positions and gives liquidator a percent of notional amount closed + fixedFee",
        "params": {
          "accountId": "account id"
        }
      },
      "liquidateTokenPosition(uint256,uint32)": {
        "details": "transfers the fraction of token position at a discount to current price to liquidators account and gives liquidator some fixedFee",
        "params": {
          "poolId": "truncated address of token to withdraw",
          "targetAccountId": "account id"
        },
        "returns": {
          "keeperFee": "- amount of fees transferred to keeper"
        }
      },
      "multicall(bytes[])": {
        "details": "The `msg.value` should not be trusted for any method callable from multicall.",
        "params": {
          "data": "The encoded function data for each of the calls to make to this contract"
        },
        "returns": {
          "results": "The results from each of the calls passed in via data"
        }
      },
      "paused()": {
        "details": "Returns true if the contract is paused, and false otherwise."
      },
      "removeLimitOrder(uint256,uint32,int24,int24)": {
        "details": "checks the position of current price relative to limit order and checks limitOrderType",
        "params": {
          "accountId": "account id",
          "poolId": "truncated address of token to withdraw",
          "tickLower": "liquidity change parameters",
          "tickUpper": "liquidity change parameters"
        }
      },
      "settleProfit(uint256)": {
        "params": {
          "accountId": "account id"
        }
      },
      "swapToken(uint256,uint32,(int256,uint160,bool,bool,bool))": {
        "params": {
          "accountId": "account id",
          "poolId": "truncated address of token to withdraw",
          "swapParams": "swap parameters"
        }
      },
      "teamMultisig()": {
        "details": "Returns the address of the current team multisig.transferTeamMultisig"
      },
      "transferGovernance(address)": {
        "details": "Transfers governance to a new account (`newGovernance`). Can only be called by the current governance."
      },
      "transferTeamMultisig(address)": {
        "details": "Transfers teamMultisig to a new account (`newTeamMultisig`). Can only be called by the current teamMultisig or current governance."
      },
      "updateMargin(uint256,uint32,int256)": {
        "params": {
          "accountId": "account id",
          "amount": "amount of token to deposit",
          "collateralId": "truncated address of token to deposit"
        }
      },
      "updatePoolSettings(uint32,(uint16,uint16,uint16,uint32,bool,bool,address))": {
        "params": {
          "newSettings": "updated rage trade pool settings",
          "poolId": "rage trade pool id"
        }
      },
      "updateProfit(uint256,int256)": {
        "params": {
          "accountId": "account id",
          "amount": "amount of token to withdraw"
        }
      },
      "updateRangeOrder(uint256,uint32,(int24,int24,int128,uint160,uint16,bool,uint8,bool))": {
        "params": {
          "accountId": "account id",
          "liquidityChangeParams": "liquidity change parameters",
          "poolId": "truncated address of token to withdraw"
        }
      },
      "withdrawProtocolFee(address[])": {
        "params": {
          "wrapperAddresses": "list of wrapper addresses to collect fees from"
        }
      }
    },
    "version": 1
  },
  "userdoc": {
    "errors": {
      "AccessDenied(address)": [
        {
          "notice": "error to denote invalid account access"
        }
      ],
      "CollateralDoesNotExist(uint32)": [
        {
          "notice": "error to denote usage of uninitialized token"
        }
      ],
      "CollateralNotAllowedForUse(uint32)": [
        {
          "notice": "error to denote usage of unsupported collateral token"
        }
      ],
      "IncorrectCollateralAddress(address,address)": [
        {
          "notice": "error to denote incorrect address is supplied while updating collateral settings"
        }
      ],
      "InvalidCollateralAddress(address)": [
        {
          "notice": "error to denote invalid address supplied as a collateral token"
        }
      ],
      "InvalidMulticallOperationType(uint8)": [
        {
          "notice": "this is errored when the enum (uint8) value is out of bounds"
        }
      ],
      "InvalidTokenLiquidationParameters()": [
        {
          "notice": "error to denote invalid token liquidation (fraction to liquidate> 1)"
        }
      ],
      "KeeperFeeNotPositive(int256)": [
        {
          "notice": "error to denote that keeper fee is negative or zero"
        }
      ],
      "LowNotionalValue(uint256)": [
        {
          "notice": "error to denote low notional value of txn"
        }
      ],
      "PoolDoesNotExist(uint32)": [
        {
          "notice": "error to denote usage of uninitialized pool"
        }
      ],
      "PoolNotAllowedForTrade(uint32)": [
        {
          "notice": "error to denote usage of unsupported pool"
        }
      ],
      "SlippageBeyondTolerance()": [
        {
          "notice": "error to denote slippage of txn beyond set threshold"
        }
      ]
    },
    "events": {
      "AccountCreated(address,uint256)": {
        "notice": "denotes new account creation"
      },
      "CollateralSettingsUpdated(address,(address,uint32,bool))": {
        "notice": "new collateral supported as margin"
      },
      "PoolSettingsUpdated(uint32,(uint16,uint16,uint16,uint32,bool,bool,address))": {
        "notice": "maintainance margin ratio of a pool changed"
      },
      "ProtocolSettingsUpdated((uint16,uint16,uint16,uint16,uint16,uint16,uint64,uint64),uint256,uint256,uint256)": {
        "notice": "protocol settings changed"
      }
    },
    "kind": "user",
    "methods": {
      "createAccount()": {
        "notice": "creates a new account and adds it to the accounts map"
      },
      "createAccountAndAddMargin(uint32,uint256)": {
        "notice": "creates a new account and deposits 'amount' of token associated with 'poolId'"
      },
      "extsload(bytes32)": {
        "notice": "Returns a value from the storage."
      },
      "extsload(bytes32[])": {
        "notice": "Returns multiple values from storage."
      },
      "getAccountInfo(uint256)": {
        "notice": "Gets details about account id"
      },
      "getAccountMarketValueAndRequiredMargin(uint256,bool)": {
        "notice": "Gets the market value and required margin of an account"
      },
      "getAccountNetProfit(uint256)": {
        "notice": "Gets the net profit of an account"
      },
      "getAccountNetTokenPosition(uint256,uint32)": {
        "notice": "Gets the net position of an account"
      },
      "getCollateralInfo(uint32)": {
        "notice": "Gets the info about a supported collateral in the protocol"
      },
      "getPoolInfo(uint32)": {
        "notice": "Gets the info about a supported pool in the protocol"
      },
      "getProtocolInfo()": {
        "notice": "Gets the protocol info, global protocol settings"
      },
      "getRealTwapPriceX128(uint32)": {
        "notice": "Gets the real twap price from the respective oracle of the given poolId"
      },
      "getVirtualTwapPriceX128(uint32)": {
        "notice": "Gets the virtual twap price from the respective oracle of the given poolId"
      },
      "initialize(address,address,address,address,address)": {
        "notice": "SYSTEM FUNCTIONS"
      },
      "isPoolIdAvailable(uint32)": {
        "notice": "Checks if a poolId is unused"
      },
      "liquidateLiquidityPositions(uint256)": {
        "notice": "keeper call for liquidation of range position"
      },
      "liquidateTokenPosition(uint256,uint32)": {
        "notice": "keeper call for liquidation of token position"
      },
      "multicall(bytes[])": {
        "notice": "Call multiple functions in the current contract and return the data from all of them if they all succeed"
      },
      "multicallWithSingleMarginCheck(uint256,(uint8,bytes)[])": {
        "notice": "MULTICALL"
      },
      "removeLimitOrder(uint256,uint32,int24,int24)": {
        "notice": "keeper call to remove a limit order"
      },
      "settleProfit(uint256)": {
        "notice": "settles the profit/loss made with the settlement token collateral deposits"
      },
      "swapToken(uint256,uint32,(int256,uint160,bool,bool,bool))": {
        "notice": "swaps token associated with 'poolId' by 'amount' (Long if amount>0 else Short)"
      },
      "updateCollateralSettings(address,(address,uint32,bool))": {
        "notice": "ADMIN FUNCTIONS"
      },
      "updateMargin(uint256,uint32,int256)": {
        "notice": "deposits 'amount' of token associated with 'poolId'"
      },
      "updatePoolSettings(uint32,(uint16,uint16,uint16,uint32,bool,bool,address))": {
        "notice": "updates the rage trade pool settings"
      },
      "updateProfit(uint256,int256)": {
        "notice": "withdraws 'amount' of settlement token from the profit made"
      },
      "updateRangeOrder(uint256,uint32,(int24,int24,int128,uint160,uint16,bool,uint8,bool))": {
        "notice": "updates range order of token associated with 'poolId' by 'liquidityDelta' (Adds if amount>0 else Removes)also can be used to update limitOrderType"
      },
      "withdrawProtocolFee(address[])": {
        "notice": "withdraws protocol fees collected in the supplied wrappers to team multisig"
      }
    },
    "version": 1
  },
  "storageLayout": {
    "storage": [
      {
        "astId": 22096,
        "contract": "contracts/protocol/clearinghouse/ClearingHouse.sol:ClearingHouse",
        "label": "_emptySlots1",
        "offset": 0,
        "slot": "0",
        "type": "t_array(t_uint256)100_storage"
      },
      {
        "astId": 22099,
        "contract": "contracts/protocol/clearinghouse/ClearingHouse.sol:ClearingHouse",
        "label": "protocol",
        "offset": 0,
        "slot": "100",
        "type": "t_struct(Info)14501_storage"
      },
      {
        "astId": 22101,
        "contract": "contracts/protocol/clearinghouse/ClearingHouse.sol:ClearingHouse",
        "label": "numAccounts",
        "offset": 0,
        "slot": "208",
        "type": "t_uint256"
      },
      {
        "astId": 22106,
        "contract": "contracts/protocol/clearinghouse/ClearingHouse.sol:ClearingHouse",
        "label": "accounts",
        "offset": 0,
        "slot": "209",
        "type": "t_mapping(t_uint256,t_struct(Info)9959_storage)"
      },
      {
        "astId": 22108,
        "contract": "contracts/protocol/clearinghouse/ClearingHouse.sol:ClearingHouse",
        "label": "rageTradeFactoryAddress",
        "offset": 0,
        "slot": "210",
        "type": "t_address"
      },
      {
        "astId": 22111,
        "contract": "contracts/protocol/clearinghouse/ClearingHouse.sol:ClearingHouse",
        "label": "insuranceFund",
        "offset": 0,
        "slot": "211",
        "type": "t_contract(IInsuranceFund)8981"
      },
      {
        "astId": 22115,
        "contract": "contracts/protocol/clearinghouse/ClearingHouse.sol:ClearingHouse",
        "label": "_emptySlots2",
        "offset": 0,
        "slot": "212",
        "type": "t_array(t_uint256)100_storage"
      },
      {
        "astId": 93,
        "contract": "contracts/protocol/clearinghouse/ClearingHouse.sol:ClearingHouse",
        "label": "_initialized",
        "offset": 0,
        "slot": "312",
        "type": "t_bool"
      },
      {
        "astId": 96,
        "contract": "contracts/protocol/clearinghouse/ClearingHouse.sol:ClearingHouse",
        "label": "_initializing",
        "offset": 1,
        "slot": "312",
        "type": "t_bool"
      },
      {
        "astId": 1271,
        "contract": "contracts/protocol/clearinghouse/ClearingHouse.sol:ClearingHouse",
        "label": "__gap",
        "offset": 0,
        "slot": "313",
        "type": "t_array(t_uint256)50_storage"
      },
      {
        "astId": 181,
        "contract": "contracts/protocol/clearinghouse/ClearingHouse.sol:ClearingHouse",
        "label": "_paused",
        "offset": 0,
        "slot": "363",
        "type": "t_bool"
      },
      {
        "astId": 270,
        "contract": "contracts/protocol/clearinghouse/ClearingHouse.sol:ClearingHouse",
        "label": "__gap",
        "offset": 0,
        "slot": "364",
        "type": "t_array(t_uint256)49_storage"
      },
      {
        "astId": 29823,
        "contract": "contracts/protocol/clearinghouse/ClearingHouse.sol:ClearingHouse",
        "label": "_governance",
        "offset": 0,
        "slot": "413",
        "type": "t_address"
      },
      {
        "astId": 29825,
        "contract": "contracts/protocol/clearinghouse/ClearingHouse.sol:ClearingHouse",
        "label": "_teamMultisig",
        "offset": 0,
        "slot": "414",
        "type": "t_address"
      }
    ],
    "types": {
      "t_address": {
        "encoding": "inplace",
        "label": "address",
        "numberOfBytes": "20"
      },
      "t_array(t_uint256)100_storage": {
        "base": "t_uint256",
        "encoding": "inplace",
        "label": "uint256[100]",
        "numberOfBytes": "3200"
      },
      "t_array(t_uint256)49_storage": {
        "base": "t_uint256",
        "encoding": "inplace",
        "label": "uint256[49]",
        "numberOfBytes": "1568"
      },
      "t_array(t_uint256)50_storage": {
        "base": "t_uint256",
        "encoding": "inplace",
        "label": "uint256[50]",
        "numberOfBytes": "1600"
      },
      "t_array(t_uint32)8_storage": {
        "base": "t_uint32",
        "encoding": "inplace",
        "label": "uint32[8]",
        "numberOfBytes": "32"
      },
      "t_array(t_uint48)5_storage": {
        "base": "t_uint48",
        "encoding": "inplace",
        "label": "uint48[5]",
        "numberOfBytes": "32"
      },
      "t_bool": {
        "encoding": "inplace",
        "label": "bool",
        "numberOfBytes": "1"
      },
      "t_contract(IERC20)4189": {
        "encoding": "inplace",
        "label": "contract IERC20",
        "numberOfBytes": "20"
      },
      "t_contract(IInsuranceFund)8981": {
        "encoding": "inplace",
        "label": "contract IInsuranceFund",
        "numberOfBytes": "20"
      },
      "t_contract(IOracle)8991": {
        "encoding": "inplace",
        "label": "contract IOracle",
        "numberOfBytes": "20"
      },
      "t_contract(IUniswapV3Pool)6184": {
        "encoding": "inplace",
        "label": "contract IUniswapV3Pool",
        "numberOfBytes": "20"
      },
      "t_contract(IVPoolWrapper)9203": {
        "encoding": "inplace",
        "label": "contract IVPoolWrapper",
        "numberOfBytes": "20"
      },
      "t_contract(IVQuote)9227": {
        "encoding": "inplace",
        "label": "contract IVQuote",
        "numberOfBytes": "20"
      },
      "t_contract(IVToken)9251": {
        "encoding": "inplace",
        "label": "contract IVToken",
        "numberOfBytes": "20"
      },
      "t_enum(LimitOrderType)9434": {
        "encoding": "inplace",
        "label": "enum IClearingHouseEnums.LimitOrderType",
        "numberOfBytes": "1"
      },
      "t_int24": {
        "encoding": "inplace",
        "label": "int24",
        "numberOfBytes": "3"
      },
      "t_int256": {
        "encoding": "inplace",
        "label": "int256",
        "numberOfBytes": "32"
      },
      "t_mapping(t_uint256,t_struct(Info)9959_storage)": {
        "encoding": "mapping",
        "key": "t_uint256",
        "label": "mapping(uint256 => struct Account.Info)",
        "numberOfBytes": "32",
        "value": "t_struct(Info)9959_storage"
      },
      "t_mapping(t_uint32,t_struct(Collateral)9574_storage)": {
        "encoding": "mapping",
        "key": "t_uint32",
        "label": "mapping(uint32 => struct IClearingHouseStructures.Collateral)",
        "numberOfBytes": "32",
        "value": "t_struct(Collateral)9574_storage"
      },
      "t_mapping(t_uint32,t_struct(Info)17886_storage)": {
        "encoding": "mapping",
        "key": "t_uint32",
        "label": "mapping(uint32 => struct VTokenPosition.Info)",
        "numberOfBytes": "32",
        "value": "t_struct(Info)17886_storage"
      },
      "t_mapping(t_uint32,t_struct(Pool)9662_storage)": {
        "encoding": "mapping",
        "key": "t_uint32",
        "label": "mapping(uint32 => struct IClearingHouseStructures.Pool)",
        "numberOfBytes": "32",
        "value": "t_struct(Pool)9662_storage"
      },
      "t_mapping(t_uint32,t_uint256)": {
        "encoding": "mapping",
        "key": "t_uint32",
        "label": "mapping(uint32 => uint256)",
        "numberOfBytes": "32",
        "value": "t_uint256"
      },
      "t_mapping(t_uint48,t_struct(Info)12554_storage)": {
        "encoding": "mapping",
        "key": "t_uint48",
        "label": "mapping(uint48 => struct LiquidityPosition.Info)",
        "numberOfBytes": "32",
        "value": "t_struct(Info)12554_storage"
      },
      "t_struct(Collateral)9574_storage": {
        "encoding": "inplace",
        "label": "struct IClearingHouseStructures.Collateral",
        "members": [
          {
            "astId": 9570,
            "contract": "contracts/protocol/clearinghouse/ClearingHouse.sol:ClearingHouse",
            "label": "token",
            "offset": 0,
            "slot": "0",
            "type": "t_contract(IERC20)4189"
          },
          {
            "astId": 9573,
            "contract": "contracts/protocol/clearinghouse/ClearingHouse.sol:ClearingHouse",
            "label": "settings",
            "offset": 0,
            "slot": "1",
            "type": "t_struct(CollateralSettings)9582_storage"
          }
        ],
        "numberOfBytes": "64"
      },
      "t_struct(CollateralSettings)9582_storage": {
        "encoding": "inplace",
        "label": "struct IClearingHouseStructures.CollateralSettings",
        "members": [
          {
            "astId": 9577,
            "contract": "contracts/protocol/clearinghouse/ClearingHouse.sol:ClearingHouse",
            "label": "oracle",
            "offset": 0,
            "slot": "0",
            "type": "t_contract(IOracle)8991"
          },
          {
            "astId": 9579,
            "contract": "contracts/protocol/clearinghouse/ClearingHouse.sol:ClearingHouse",
            "label": "twapDuration",
            "offset": 20,
            "slot": "0",
            "type": "t_uint32"
          },
          {
            "astId": 9581,
            "contract": "contracts/protocol/clearinghouse/ClearingHouse.sol:ClearingHouse",
            "label": "isAllowedForDeposit",
            "offset": 24,
            "slot": "0",
            "type": "t_bool"
          }
        ],
        "numberOfBytes": "32"
      },
      "t_struct(Info)12554_storage": {
        "encoding": "inplace",
        "label": "struct LiquidityPosition.Info",
        "members": [
          {
            "astId": 12533,
            "contract": "contracts/protocol/clearinghouse/ClearingHouse.sol:ClearingHouse",
            "label": "limitOrderType",
            "offset": 0,
            "slot": "0",
            "type": "t_enum(LimitOrderType)9434"
          },
          {
            "astId": 12535,
            "contract": "contracts/protocol/clearinghouse/ClearingHouse.sol:ClearingHouse",
            "label": "tickLower",
            "offset": 1,
            "slot": "0",
            "type": "t_int24"
          },
          {
            "astId": 12537,
            "contract": "contracts/protocol/clearinghouse/ClearingHouse.sol:ClearingHouse",
            "label": "tickUpper",
            "offset": 4,
            "slot": "0",
            "type": "t_int24"
          },
          {
            "astId": 12539,
            "contract": "contracts/protocol/clearinghouse/ClearingHouse.sol:ClearingHouse",
            "label": "liquidity",
            "offset": 7,
            "slot": "0",
            "type": "t_uint128"
          },
          {
            "astId": 12541,
            "contract": "contracts/protocol/clearinghouse/ClearingHouse.sol:ClearingHouse",
            "label": "vTokenAmountIn",
            "offset": 0,
            "slot": "1",
            "type": "t_int256"
          },
          {
            "astId": 12543,
            "contract": "contracts/protocol/clearinghouse/ClearingHouse.sol:ClearingHouse",
            "label": "sumALastX128",
            "offset": 0,
            "slot": "2",
            "type": "t_int256"
          },
          {
            "astId": 12545,
            "contract": "contracts/protocol/clearinghouse/ClearingHouse.sol:ClearingHouse",
            "label": "sumBInsideLastX128",
            "offset": 0,
            "slot": "3",
            "type": "t_int256"
          },
          {
            "astId": 12547,
            "contract": "contracts/protocol/clearinghouse/ClearingHouse.sol:ClearingHouse",
            "label": "sumFpInsideLastX128",
            "offset": 0,
            "slot": "4",
            "type": "t_int256"
          },
          {
            "astId": 12549,
            "contract": "contracts/protocol/clearinghouse/ClearingHouse.sol:ClearingHouse",
            "label": "sumFeeInsideLastX128",
            "offset": 0,
            "slot": "5",
            "type": "t_uint256"
          },
          {
            "astId": 12553,
            "contract": "contracts/protocol/clearinghouse/ClearingHouse.sol:ClearingHouse",
            "label": "_emptySlots",
            "offset": 0,
            "slot": "6",
            "type": "t_array(t_uint256)100_storage"
          }
        ],
        "numberOfBytes": "3392"
      },
      "t_struct(Info)14501_storage": {
        "encoding": "inplace",
        "label": "struct Protocol.Info",
        "members": [
          {
            "astId": 14476,
            "contract": "contracts/protocol/clearinghouse/ClearingHouse.sol:ClearingHouse",
            "label": "pools",
            "offset": 0,
            "slot": "0",
            "type": "t_mapping(t_uint32,t_struct(Pool)9662_storage)"
          },
          {
            "astId": 14481,
            "contract": "contracts/protocol/clearinghouse/ClearingHouse.sol:ClearingHouse",
            "label": "collaterals",
            "offset": 0,
            "slot": "1",
            "type": "t_mapping(t_uint32,t_struct(Collateral)9574_storage)"
          },
          {
            "astId": 14484,
            "contract": "contracts/protocol/clearinghouse/ClearingHouse.sol:ClearingHouse",
            "label": "settlementToken",
            "offset": 0,
            "slot": "2",
            "type": "t_contract(IERC20)4189"
          },
          {
            "astId": 14487,
            "contract": "contracts/protocol/clearinghouse/ClearingHouse.sol:ClearingHouse",
            "label": "vQuote",
            "offset": 0,
            "slot": "3",
            "type": "t_contract(IVQuote)9227"
          },
          {
            "astId": 14490,
            "contract": "contracts/protocol/clearinghouse/ClearingHouse.sol:ClearingHouse",
            "label": "liquidationParams",
            "offset": 0,
            "slot": "4",
            "type": "t_struct(LiquidationParams)9643_storage"
          },
          {
            "astId": 14492,
            "contract": "contracts/protocol/clearinghouse/ClearingHouse.sol:ClearingHouse",
            "label": "minRequiredMargin",
            "offset": 0,
            "slot": "5",
            "type": "t_uint256"
          },
          {
            "astId": 14494,
            "contract": "contracts/protocol/clearinghouse/ClearingHouse.sol:ClearingHouse",
            "label": "removeLimitOrderFee",
            "offset": 0,
            "slot": "6",
            "type": "t_uint256"
          },
          {
            "astId": 14496,
            "contract": "contracts/protocol/clearinghouse/ClearingHouse.sol:ClearingHouse",
            "label": "minimumOrderNotional",
            "offset": 0,
            "slot": "7",
            "type": "t_uint256"
          },
          {
            "astId": 14500,
            "contract": "contracts/protocol/clearinghouse/ClearingHouse.sol:ClearingHouse",
            "label": "_emptySlots",
            "offset": 0,
            "slot": "8",
            "type": "t_array(t_uint256)100_storage"
          }
        ],
        "numberOfBytes": "3456"
      },
      "t_struct(Info)17886_storage": {
        "encoding": "inplace",
        "label": "struct VTokenPosition.Info",
        "members": [
          {
            "astId": 17874,
            "contract": "contracts/protocol/clearinghouse/ClearingHouse.sol:ClearingHouse",
            "label": "balance",
            "offset": 0,
            "slot": "0",
            "type": "t_int256"
          },
          {
            "astId": 17876,
            "contract": "contracts/protocol/clearinghouse/ClearingHouse.sol:ClearingHouse",
            "label": "netTraderPosition",
            "offset": 0,
            "slot": "1",
            "type": "t_int256"
          },
          {
            "astId": 17878,
            "contract": "contracts/protocol/clearinghouse/ClearingHouse.sol:ClearingHouse",
            "label": "sumALastX128",
            "offset": 0,
            "slot": "2",
            "type": "t_int256"
          },
          {
            "astId": 17881,
            "contract": "contracts/protocol/clearinghouse/ClearingHouse.sol:ClearingHouse",
            "label": "liquidityPositions",
            "offset": 0,
            "slot": "3",
            "type": "t_struct(Set)12530_storage"
          },
          {
            "astId": 17885,
            "contract": "contracts/protocol/clearinghouse/ClearingHouse.sol:ClearingHouse",
            "label": "_emptySlots",
            "offset": 0,
            "slot": "105",
            "type": "t_array(t_uint256)100_storage"
          }
        ],
        "numberOfBytes": "6560"
      },
      "t_struct(Info)9959_storage": {
        "encoding": "inplace",
        "label": "struct Account.Info",
        "members": [
          {
            "astId": 9946,
            "contract": "contracts/protocol/clearinghouse/ClearingHouse.sol:ClearingHouse",
            "label": "id",
            "offset": 0,
            "slot": "0",
            "type": "t_uint96"
          },
          {
            "astId": 9948,
            "contract": "contracts/protocol/clearinghouse/ClearingHouse.sol:ClearingHouse",
            "label": "owner",
            "offset": 12,
            "slot": "0",
            "type": "t_address"
          },
          {
            "astId": 9951,
            "contract": "contracts/protocol/clearinghouse/ClearingHouse.sol:ClearingHouse",
            "label": "tokenPositions",
            "offset": 0,
            "slot": "1",
            "type": "t_struct(Set)17872_storage"
          },
          {
            "astId": 9954,
            "contract": "contracts/protocol/clearinghouse/ClearingHouse.sol:ClearingHouse",
            "label": "collateralDeposits",
            "offset": 0,
            "slot": "104",
            "type": "t_struct(Set)11827_storage"
          },
          {
            "astId": 9958,
            "contract": "contracts/protocol/clearinghouse/ClearingHouse.sol:ClearingHouse",
            "label": "_emptySlots",
            "offset": 0,
            "slot": "206",
            "type": "t_array(t_uint256)100_storage"
          }
        ],
        "numberOfBytes": "9792"
      },
      "t_struct(LiquidationParams)9643_storage": {
        "encoding": "inplace",
        "label": "struct IClearingHouseStructures.LiquidationParams",
        "members": [
          {
            "astId": 9628,
            "contract": "contracts/protocol/clearinghouse/ClearingHouse.sol:ClearingHouse",
            "label": "rangeLiquidationFeeFraction",
            "offset": 0,
            "slot": "0",
            "type": "t_uint16"
          },
          {
            "astId": 9630,
            "contract": "contracts/protocol/clearinghouse/ClearingHouse.sol:ClearingHouse",
            "label": "tokenLiquidationFeeFraction",
            "offset": 2,
            "slot": "0",
            "type": "t_uint16"
          },
          {
            "astId": 9632,
            "contract": "contracts/protocol/clearinghouse/ClearingHouse.sol:ClearingHouse",
            "label": "closeFactorMMThresholdBps",
            "offset": 4,
            "slot": "0",
            "type": "t_uint16"
          },
          {
            "astId": 9634,
            "contract": "contracts/protocol/clearinghouse/ClearingHouse.sol:ClearingHouse",
            "label": "partialLiquidationCloseFactorBps",
            "offset": 6,
            "slot": "0",
            "type": "t_uint16"
          },
          {
            "astId": 9636,
            "contract": "contracts/protocol/clearinghouse/ClearingHouse.sol:ClearingHouse",
            "label": "insuranceFundFeeShareBps",
            "offset": 8,
            "slot": "0",
            "type": "t_uint16"
          },
          {
            "astId": 9638,
            "contract": "contracts/protocol/clearinghouse/ClearingHouse.sol:ClearingHouse",
            "label": "liquidationSlippageSqrtToleranceBps",
            "offset": 10,
            "slot": "0",
            "type": "t_uint16"
          },
          {
            "astId": 9640,
            "contract": "contracts/protocol/clearinghouse/ClearingHouse.sol:ClearingHouse",
            "label": "maxRangeLiquidationFees",
            "offset": 12,
            "slot": "0",
            "type": "t_uint64"
          },
          {
            "astId": 9642,
            "contract": "contracts/protocol/clearinghouse/ClearingHouse.sol:ClearingHouse",
            "label": "minNotionalLiquidatable",
            "offset": 20,
            "slot": "0",
            "type": "t_uint64"
          }
        ],
        "numberOfBytes": "32"
      },
      "t_struct(Pool)9662_storage": {
        "encoding": "inplace",
        "label": "struct IClearingHouseStructures.Pool",
        "members": [
          {
            "astId": 9652,
            "contract": "contracts/protocol/clearinghouse/ClearingHouse.sol:ClearingHouse",
            "label": "vToken",
            "offset": 0,
            "slot": "0",
            "type": "t_contract(IVToken)9251"
          },
          {
            "astId": 9655,
            "contract": "contracts/protocol/clearinghouse/ClearingHouse.sol:ClearingHouse",
            "label": "vPool",
            "offset": 0,
            "slot": "1",
            "type": "t_contract(IUniswapV3Pool)6184"
          },
          {
            "astId": 9658,
            "contract": "contracts/protocol/clearinghouse/ClearingHouse.sol:ClearingHouse",
            "label": "vPoolWrapper",
            "offset": 0,
            "slot": "2",
            "type": "t_contract(IVPoolWrapper)9203"
          },
          {
            "astId": 9661,
            "contract": "contracts/protocol/clearinghouse/ClearingHouse.sol:ClearingHouse",
            "label": "settings",
            "offset": 0,
            "slot": "3",
            "type": "t_struct(PoolSettings)9678_storage"
          }
        ],
        "numberOfBytes": "128"
      },
      "t_struct(PoolSettings)9678_storage": {
        "encoding": "inplace",
        "label": "struct IClearingHouseStructures.PoolSettings",
        "members": [
          {
            "astId": 9664,
            "contract": "contracts/protocol/clearinghouse/ClearingHouse.sol:ClearingHouse",
            "label": "initialMarginRatioBps",
            "offset": 0,
            "slot": "0",
            "type": "t_uint16"
          },
          {
            "astId": 9666,
            "contract": "contracts/protocol/clearinghouse/ClearingHouse.sol:ClearingHouse",
            "label": "maintainanceMarginRatioBps",
            "offset": 2,
            "slot": "0",
            "type": "t_uint16"
          },
          {
            "astId": 9668,
            "contract": "contracts/protocol/clearinghouse/ClearingHouse.sol:ClearingHouse",
            "label": "maxVirtualPriceDeviationRatioBps",
            "offset": 4,
            "slot": "0",
            "type": "t_uint16"
          },
          {
            "astId": 9670,
            "contract": "contracts/protocol/clearinghouse/ClearingHouse.sol:ClearingHouse",
            "label": "twapDuration",
            "offset": 6,
            "slot": "0",
            "type": "t_uint32"
          },
          {
            "astId": 9672,
            "contract": "contracts/protocol/clearinghouse/ClearingHouse.sol:ClearingHouse",
            "label": "isAllowedForTrade",
            "offset": 10,
            "slot": "0",
            "type": "t_bool"
          },
          {
            "astId": 9674,
            "contract": "contracts/protocol/clearinghouse/ClearingHouse.sol:ClearingHouse",
            "label": "isCrossMargined",
            "offset": 11,
            "slot": "0",
            "type": "t_bool"
          },
          {
            "astId": 9677,
            "contract": "contracts/protocol/clearinghouse/ClearingHouse.sol:ClearingHouse",
            "label": "oracle",
            "offset": 12,
            "slot": "0",
            "type": "t_contract(IOracle)8991"
          }
        ],
        "numberOfBytes": "32"
      },
      "t_struct(Set)11827_storage": {
        "encoding": "inplace",
        "label": "struct CollateralDeposit.Set",
        "members": [
          {
            "astId": 11818,
            "contract": "contracts/protocol/clearinghouse/ClearingHouse.sol:ClearingHouse",
            "label": "active",
            "offset": 0,
            "slot": "0",
            "type": "t_array(t_uint32)8_storage"
          },
          {
            "astId": 11822,
            "contract": "contracts/protocol/clearinghouse/ClearingHouse.sol:ClearingHouse",
            "label": "deposits",
            "offset": 0,
            "slot": "1",
            "type": "t_mapping(t_uint32,t_uint256)"
          },
          {
            "astId": 11826,
            "contract": "contracts/protocol/clearinghouse/ClearingHouse.sol:ClearingHouse",
            "label": "_emptySlots",
            "offset": 0,
            "slot": "2",
            "type": "t_array(t_uint256)100_storage"
          }
        ],
        "numberOfBytes": "3264"
      },
      "t_struct(Set)12530_storage": {
        "encoding": "inplace",
        "label": "struct LiquidityPosition.Set",
        "members": [
          {
            "astId": 12520,
            "contract": "contracts/protocol/clearinghouse/ClearingHouse.sol:ClearingHouse",
            "label": "active",
            "offset": 0,
            "slot": "0",
            "type": "t_array(t_uint48)5_storage"
          },
          {
            "astId": 12525,
            "contract": "contracts/protocol/clearinghouse/ClearingHouse.sol:ClearingHouse",
            "label": "positions",
            "offset": 0,
            "slot": "1",
            "type": "t_mapping(t_uint48,t_struct(Info)12554_storage)"
          },
          {
            "astId": 12529,
            "contract": "contracts/protocol/clearinghouse/ClearingHouse.sol:ClearingHouse",
            "label": "_emptySlots",
            "offset": 0,
            "slot": "2",
            "type": "t_array(t_uint256)100_storage"
          }
        ],
        "numberOfBytes": "3264"
      },
      "t_struct(Set)17872_storage": {
        "encoding": "inplace",
        "label": "struct VTokenPosition.Set",
        "members": [
          {
            "astId": 17860,
            "contract": "contracts/protocol/clearinghouse/ClearingHouse.sol:ClearingHouse",
            "label": "active",
            "offset": 0,
            "slot": "0",
            "type": "t_array(t_uint32)8_storage"
          },
          {
            "astId": 17865,
            "contract": "contracts/protocol/clearinghouse/ClearingHouse.sol:ClearingHouse",
            "label": "positions",
            "offset": 0,
            "slot": "1",
            "type": "t_mapping(t_uint32,t_struct(Info)17886_storage)"
          },
          {
            "astId": 17867,
            "contract": "contracts/protocol/clearinghouse/ClearingHouse.sol:ClearingHouse",
            "label": "vQuoteBalance",
            "offset": 0,
            "slot": "2",
            "type": "t_int256"
          },
          {
            "astId": 17871,
            "contract": "contracts/protocol/clearinghouse/ClearingHouse.sol:ClearingHouse",
            "label": "_emptySlots",
            "offset": 0,
            "slot": "3",
            "type": "t_array(t_uint256)100_storage"
          }
        ],
        "numberOfBytes": "3296"
      },
      "t_uint128": {
        "encoding": "inplace",
        "label": "uint128",
        "numberOfBytes": "16"
      },
      "t_uint16": {
        "encoding": "inplace",
        "label": "uint16",
        "numberOfBytes": "2"
      },
      "t_uint256": {
        "encoding": "inplace",
        "label": "uint256",
        "numberOfBytes": "32"
      },
      "t_uint32": {
        "encoding": "inplace",
        "label": "uint32",
        "numberOfBytes": "4"
      },
      "t_uint48": {
        "encoding": "inplace",
        "label": "uint48",
        "numberOfBytes": "6"
      },
      "t_uint64": {
        "encoding": "inplace",
        "label": "uint64",
        "numberOfBytes": "8"
      },
      "t_uint96": {
        "encoding": "inplace",
        "label": "uint96",
        "numberOfBytes": "12"
      }
    }
  }
}