{
  "address": "0x0630D84797139c558B43988Dcb3bB8982731C1fb",
  "abi": [
    {
      "inputs": [
        {
          "internalType": "address",
          "name": "senderAddress",
          "type": "address"
        }
      ],
      "name": "AccessDenied",
      "type": "error"
    },
    {
      "inputs": [
        {
          "internalType": "uint256",
          "name": "length",
          "type": "uint256"
        },
        {
          "internalType": "uint256",
          "name": "limit",
          "type": "uint256"
        }
      ],
      "name": "CalldataLengthExceeded",
      "type": "error"
    },
    {
      "inputs": [
        {
          "internalType": "uint256",
          "name": "gasUsedClaim",
          "type": "uint256"
        },
        {
          "internalType": "uint256",
          "name": "gasUsedActual",
          "type": "uint256"
        }
      ],
      "name": "ExcessGasUsedClaim",
      "type": "error"
    },
    {
      "inputs": [
        {
          "internalType": "uint256",
          "name": "txGasPrice",
          "type": "uint256"
        },
        {
          "internalType": "uint256",
          "name": "limit",
          "type": "uint256"
        }
      ],
      "name": "ExcessTxGasPrice",
      "type": "error"
    },
    {
      "inputs": [
        {
          "internalType": "uint160",
          "name": "sqrtPriceX96",
          "type": "uint160"
        }
      ],
      "name": "IllegalSqrtPrice",
      "type": "error"
    },
    {
      "inputs": [
        {
          "internalType": "uint32",
          "name": "period",
          "type": "uint32"
        }
      ],
      "name": "IllegalTwapDuration",
      "type": "error"
    },
    {
      "inputs": [],
      "name": "InvalidTokenLiquidationParameters",
      "type": "error"
    },
    {
      "inputs": [
        {
          "internalType": "uint256",
          "name": "notionalValue",
          "type": "uint256"
        }
      ],
      "name": "LowNotionalValue",
      "type": "error"
    },
    {
      "inputs": [],
      "name": "NotRageTradeFactory",
      "type": "error"
    },
    {
      "inputs": [],
      "name": "Paused",
      "type": "error"
    },
    {
      "inputs": [],
      "name": "SlippageBeyondTolerance",
      "type": "error"
    },
    {
      "inputs": [],
      "name": "Unauthorised",
      "type": "error"
    },
    {
      "inputs": [
        {
          "internalType": "uint32",
          "name": "vTokenTruncatedAddress",
          "type": "uint32"
        }
      ],
      "name": "UninitializedToken",
      "type": "error"
    },
    {
      "inputs": [
        {
          "internalType": "address",
          "name": "rTokenAddress",
          "type": "address"
        }
      ],
      "name": "UnsupportedRToken",
      "type": "error"
    },
    {
      "inputs": [
        {
          "internalType": "contract IVToken",
          "name": "vToken",
          "type": "address"
        }
      ],
      "name": "UnsupportedVToken",
      "type": "error"
    },
    {
      "inputs": [],
      "name": "ZeroAddress",
      "type": "error"
    },
    {
      "anonymous": false,
      "inputs": [
        {
          "indexed": true,
          "internalType": "address",
          "name": "previousGovernance",
          "type": "address"
        },
        {
          "indexed": true,
          "internalType": "address",
          "name": "newGovernance",
          "type": "address"
        }
      ],
      "name": "GovernanceTransferred",
      "type": "event"
    },
    {
      "anonymous": false,
      "inputs": [
        {
          "indexed": true,
          "internalType": "address",
          "name": "previousTeamMultisig",
          "type": "address"
        },
        {
          "indexed": true,
          "internalType": "address",
          "name": "newTeamMultisig",
          "type": "address"
        }
      ],
      "name": "TeamMultisigTransferred",
      "type": "event"
    },
    {
      "inputs": [
        {
          "internalType": "address",
          "name": "_rageTradeFactoryAddress",
          "type": "address"
        },
        {
          "internalType": "contract IERC20",
          "name": "_rBase",
          "type": "address"
        },
        {
          "internalType": "contract IInsuranceFund",
          "name": "_insuranceFund",
          "type": "address"
        },
        {
          "internalType": "contract IVBase",
          "name": "_vBase",
          "type": "address"
        },
        {
          "internalType": "contract IOracle",
          "name": "_nativeOracle",
          "type": "address"
        }
      ],
      "name": "__ClearingHouse_init",
      "outputs": [],
      "stateMutability": "nonpayable",
      "type": "function"
    },
    {
      "inputs": [
        {
          "internalType": "address",
          "name": "rTokenAddress",
          "type": "address"
        },
        {
          "internalType": "address",
          "name": "oracleAddress",
          "type": "address"
        },
        {
          "internalType": "uint32",
          "name": "twapDuration",
          "type": "uint32"
        }
      ],
      "name": "addCollateralSupport",
      "outputs": [],
      "stateMutability": "nonpayable",
      "type": "function"
    },
    {
      "inputs": [
        {
          "internalType": "uint256",
          "name": "accountNo",
          "type": "uint256"
        },
        {
          "internalType": "uint32",
          "name": "rTokenTruncatedAddress",
          "type": "uint32"
        },
        {
          "internalType": "uint256",
          "name": "amount",
          "type": "uint256"
        }
      ],
      "name": "addMargin",
      "outputs": [],
      "stateMutability": "nonpayable",
      "type": "function"
    },
    {
      "inputs": [],
      "name": "createAccount",
      "outputs": [
        {
          "internalType": "uint256",
          "name": "newAccountId",
          "type": "uint256"
        }
      ],
      "stateMutability": "nonpayable",
      "type": "function"
    },
    {
      "inputs": [
        {
          "internalType": "bytes32",
          "name": "slot",
          "type": "bytes32"
        }
      ],
      "name": "extsload",
      "outputs": [
        {
          "internalType": "bytes32",
          "name": "val",
          "type": "bytes32"
        }
      ],
      "stateMutability": "view",
      "type": "function"
    },
    {
      "inputs": [
        {
          "internalType": "bytes32[]",
          "name": "slots",
          "type": "bytes32[]"
        }
      ],
      "name": "extsload",
      "outputs": [
        {
          "internalType": "bytes32[]",
          "name": "",
          "type": "bytes32[]"
        }
      ],
      "stateMutability": "view",
      "type": "function"
    },
    {
      "inputs": [
        {
          "internalType": "uint256",
          "name": "accountNo",
          "type": "uint256"
        },
        {
          "internalType": "bool",
          "name": "isInitialMargin",
          "type": "bool"
        }
      ],
      "name": "getAccountMarketValueAndRequiredMargin",
      "outputs": [
        {
          "internalType": "int256",
          "name": "accountMarketValue",
          "type": "int256"
        },
        {
          "internalType": "int256",
          "name": "requiredMargin",
          "type": "int256"
        }
      ],
      "stateMutability": "view",
      "type": "function"
    },
    {
      "inputs": [
        {
          "internalType": "uint256",
          "name": "accountNo",
          "type": "uint256"
        }
      ],
      "name": "getAccountNetProfit",
      "outputs": [
        {
          "internalType": "int256",
          "name": "accountNetProfit",
          "type": "int256"
        }
      ],
      "stateMutability": "view",
      "type": "function"
    },
    {
      "inputs": [
        {
          "internalType": "uint256",
          "name": "accountNo",
          "type": "uint256"
        }
      ],
      "name": "getAccountView",
      "outputs": [
        {
          "internalType": "address",
          "name": "owner",
          "type": "address"
        },
        {
          "internalType": "int256",
          "name": "vBaseBalance",
          "type": "int256"
        },
        {
          "components": [
            {
              "internalType": "address",
              "name": "rTokenAddress",
              "type": "address"
            },
            {
              "internalType": "uint256",
              "name": "balance",
              "type": "uint256"
            }
          ],
          "internalType": "struct IClearingHouse.DepositTokenView[]",
          "name": "tokenDeposits",
          "type": "tuple[]"
        },
        {
          "components": [
            {
              "internalType": "address",
              "name": "vTokenAddress",
              "type": "address"
            },
            {
              "internalType": "int256",
              "name": "balance",
              "type": "int256"
            },
            {
              "internalType": "int256",
              "name": "netTraderPosition",
              "type": "int256"
            },
            {
              "internalType": "int256",
              "name": "sumAX128Ckpt",
              "type": "int256"
            },
            {
              "components": [
                {
                  "internalType": "enum IClearingHouse.LimitOrderType",
                  "name": "limitOrderType",
                  "type": "uint8"
                },
                {
                  "internalType": "int24",
                  "name": "tickLower",
                  "type": "int24"
                },
                {
                  "internalType": "int24",
                  "name": "tickUpper",
                  "type": "int24"
                },
                {
                  "internalType": "uint128",
                  "name": "liquidity",
                  "type": "uint128"
                },
                {
                  "internalType": "int256",
                  "name": "vTokenAmountIn",
                  "type": "int256"
                },
                {
                  "internalType": "int256",
                  "name": "sumALastX128",
                  "type": "int256"
                },
                {
                  "internalType": "int256",
                  "name": "sumBInsideLastX128",
                  "type": "int256"
                },
                {
                  "internalType": "int256",
                  "name": "sumFpInsideLastX128",
                  "type": "int256"
                },
                {
                  "internalType": "uint256",
                  "name": "sumFeeInsideLastX128",
                  "type": "uint256"
                }
              ],
              "internalType": "struct IClearingHouse.LiquidityPositionView[]",
              "name": "liquidityPositions",
              "type": "tuple[]"
            }
          ],
          "internalType": "struct IClearingHouse.VTokenPositionView[]",
          "name": "tokenPositions",
          "type": "tuple[]"
        }
      ],
      "stateMutability": "view",
      "type": "function"
    },
    {
      "inputs": [
        {
          "internalType": "contract IVToken",
          "name": "vToken",
          "type": "address"
        }
      ],
      "name": "getTwapSqrtPricesForSetDuration",
      "outputs": [
        {
          "internalType": "uint256",
          "name": "realPriceX128",
          "type": "uint256"
        },
        {
          "internalType": "uint256",
          "name": "virtualPriceX128",
          "type": "uint256"
        }
      ],
      "stateMutability": "view",
      "type": "function"
    },
    {
      "inputs": [],
      "name": "governance",
      "outputs": [
        {
          "internalType": "address",
          "name": "",
          "type": "address"
        }
      ],
      "stateMutability": "view",
      "type": "function"
    },
    {
      "inputs": [],
      "name": "insuranceFund",
      "outputs": [
        {
          "internalType": "contract IInsuranceFund",
          "name": "",
          "type": "address"
        }
      ],
      "stateMutability": "view",
      "type": "function"
    },
    {
      "inputs": [
        {
          "internalType": "uint32",
          "name": "truncated",
          "type": "uint32"
        }
      ],
      "name": "isVTokenAddressAvailable",
      "outputs": [
        {
          "internalType": "bool",
          "name": "",
          "type": "bool"
        }
      ],
      "stateMutability": "view",
      "type": "function"
    },
    {
      "inputs": [
        {
          "internalType": "uint256",
          "name": "accountNo",
          "type": "uint256"
        }
      ],
      "name": "liquidateLiquidityPositions",
      "outputs": [],
      "stateMutability": "nonpayable",
      "type": "function"
    },
    {
      "inputs": [
        {
          "internalType": "uint256",
          "name": "accountNo",
          "type": "uint256"
        },
        {
          "internalType": "uint256",
          "name": "gasComputationUnitsClaim",
          "type": "uint256"
        }
      ],
      "name": "liquidateLiquidityPositionsWithGasClaim",
      "outputs": [
        {
          "internalType": "int256",
          "name": "keeperFee",
          "type": "int256"
        }
      ],
      "stateMutability": "nonpayable",
      "type": "function"
    },
    {
      "inputs": [
        {
          "internalType": "uint256",
          "name": "liquidatorAccountNo",
          "type": "uint256"
        },
        {
          "internalType": "uint256",
          "name": "accountNo",
          "type": "uint256"
        },
        {
          "internalType": "uint32",
          "name": "vTokenTruncatedAddress",
          "type": "uint32"
        },
        {
          "internalType": "uint16",
          "name": "liquidationBps",
          "type": "uint16"
        }
      ],
      "name": "liquidateTokenPosition",
      "outputs": [
        {
          "components": [
            {
              "internalType": "int256",
              "name": "vBaseIncrease",
              "type": "int256"
            },
            {
              "internalType": "int256",
              "name": "vTokenIncrease",
              "type": "int256"
            },
            {
              "internalType": "int256",
              "name": "traderPositionIncrease",
              "type": "int256"
            }
          ],
          "internalType": "struct IClearingHouse.BalanceAdjustments",
          "name": "liquidatorBalanceAdjustments",
          "type": "tuple"
        }
      ],
      "stateMutability": "nonpayable",
      "type": "function"
    },
    {
      "inputs": [
        {
          "internalType": "uint256",
          "name": "liquidatorAccountNo",
          "type": "uint256"
        },
        {
          "internalType": "uint256",
          "name": "accountNo",
          "type": "uint256"
        },
        {
          "internalType": "uint32",
          "name": "vTokenTruncatedAddress",
          "type": "uint32"
        },
        {
          "internalType": "uint16",
          "name": "liquidationBps",
          "type": "uint16"
        },
        {
          "internalType": "uint256",
          "name": "gasComputationUnitsClaim",
          "type": "uint256"
        }
      ],
      "name": "liquidateTokenPositionWithGasClaim",
      "outputs": [
        {
          "components": [
            {
              "internalType": "int256",
              "name": "vBaseIncrease",
              "type": "int256"
            },
            {
              "internalType": "int256",
              "name": "vTokenIncrease",
              "type": "int256"
            },
            {
              "internalType": "int256",
              "name": "traderPositionIncrease",
              "type": "int256"
            }
          ],
          "internalType": "struct IClearingHouse.BalanceAdjustments",
          "name": "liquidatorBalanceAdjustments",
          "type": "tuple"
        }
      ],
      "stateMutability": "nonpayable",
      "type": "function"
    },
    {
      "inputs": [],
      "name": "nativeOracle",
      "outputs": [
        {
          "internalType": "contract IOracle",
          "name": "",
          "type": "address"
        }
      ],
      "stateMutability": "view",
      "type": "function"
    },
    {
      "inputs": [],
      "name": "numAccounts",
      "outputs": [
        {
          "internalType": "uint256",
          "name": "",
          "type": "uint256"
        }
      ],
      "stateMutability": "view",
      "type": "function"
    },
    {
      "inputs": [],
      "name": "paused",
      "outputs": [
        {
          "internalType": "bool",
          "name": "",
          "type": "bool"
        }
      ],
      "stateMutability": "view",
      "type": "function"
    },
    {
      "inputs": [
        {
          "internalType": "contract IVToken",
          "name": "vToken",
          "type": "address"
        }
      ],
      "name": "pools",
      "outputs": [
        {
          "components": [
            {
              "internalType": "contract IUniswapV3Pool",
              "name": "vPool",
              "type": "address"
            },
            {
              "internalType": "contract IVPoolWrapper",
              "name": "vPoolWrapper",
              "type": "address"
            },
            {
              "components": [
                {
                  "internalType": "uint16",
                  "name": "initialMarginRatio",
                  "type": "uint16"
                },
                {
                  "internalType": "uint16",
                  "name": "maintainanceMarginRatio",
                  "type": "uint16"
                },
                {
                  "internalType": "uint32",
                  "name": "twapDuration",
                  "type": "uint32"
                },
                {
                  "internalType": "bool",
                  "name": "whitelisted",
                  "type": "bool"
                },
                {
                  "internalType": "contract IOracle",
                  "name": "oracle",
                  "type": "address"
                }
              ],
              "internalType": "struct IClearingHouse.RageTradePoolSettings",
              "name": "settings",
              "type": "tuple"
            }
          ],
          "internalType": "struct IClearingHouse.RageTradePool",
          "name": "",
          "type": "tuple"
        }
      ],
      "stateMutability": "view",
      "type": "function"
    },
    {
      "inputs": [],
      "name": "protocolInfo",
      "outputs": [
        {
          "internalType": "contract IVBase",
          "name": "vBase",
          "type": "address"
        },
        {
          "components": [
            {
              "internalType": "uint16",
              "name": "liquidationFeeFraction",
              "type": "uint16"
            },
            {
              "internalType": "uint16",
              "name": "tokenLiquidationPriceDeltaBps",
              "type": "uint16"
            },
            {
              "internalType": "uint16",
              "name": "insuranceFundFeeShareBps",
              "type": "uint16"
            }
          ],
          "internalType": "struct Account.LiquidationParams",
          "name": "liquidationParams",
          "type": "tuple"
        },
        {
          "internalType": "uint256",
          "name": "minRequiredMargin",
          "type": "uint256"
        },
        {
          "internalType": "uint256",
          "name": "removeLimitOrderFee",
          "type": "uint256"
        },
        {
          "internalType": "uint256",
          "name": "minimumOrderNotional",
          "type": "uint256"
        }
      ],
      "stateMutability": "view",
      "type": "function"
    },
    {
      "inputs": [],
      "name": "rBase",
      "outputs": [
        {
          "internalType": "contract IERC20",
          "name": "",
          "type": "address"
        }
      ],
      "stateMutability": "view",
      "type": "function"
    },
    {
      "inputs": [
        {
          "internalType": "uint32",
          "name": "rTokenId",
          "type": "uint32"
        }
      ],
      "name": "rTokens",
      "outputs": [
        {
          "components": [
            {
              "internalType": "address",
              "name": "tokenAddress",
              "type": "address"
            },
            {
              "internalType": "address",
              "name": "oracleAddress",
              "type": "address"
            },
            {
              "internalType": "uint32",
              "name": "oracleTimeHorizon",
              "type": "uint32"
            }
          ],
          "internalType": "struct RTokenLib.RToken",
          "name": "",
          "type": "tuple"
        }
      ],
      "stateMutability": "view",
      "type": "function"
    },
    {
      "inputs": [],
      "name": "rageTradeFactoryAddress",
      "outputs": [
        {
          "internalType": "address",
          "name": "",
          "type": "address"
        }
      ],
      "stateMutability": "view",
      "type": "function"
    },
    {
      "inputs": [
        {
          "internalType": "address",
          "name": "full",
          "type": "address"
        },
        {
          "components": [
            {
              "internalType": "contract IUniswapV3Pool",
              "name": "vPool",
              "type": "address"
            },
            {
              "internalType": "contract IVPoolWrapper",
              "name": "vPoolWrapper",
              "type": "address"
            },
            {
              "components": [
                {
                  "internalType": "uint16",
                  "name": "initialMarginRatio",
                  "type": "uint16"
                },
                {
                  "internalType": "uint16",
                  "name": "maintainanceMarginRatio",
                  "type": "uint16"
                },
                {
                  "internalType": "uint32",
                  "name": "twapDuration",
                  "type": "uint32"
                },
                {
                  "internalType": "bool",
                  "name": "whitelisted",
                  "type": "bool"
                },
                {
                  "internalType": "contract IOracle",
                  "name": "oracle",
                  "type": "address"
                }
              ],
              "internalType": "struct IClearingHouse.RageTradePoolSettings",
              "name": "settings",
              "type": "tuple"
            }
          ],
          "internalType": "struct IClearingHouse.RageTradePool",
          "name": "rageTradePool",
          "type": "tuple"
        }
      ],
      "name": "registerPool",
      "outputs": [],
      "stateMutability": "nonpayable",
      "type": "function"
    },
    {
      "inputs": [
        {
          "internalType": "uint256",
          "name": "accountNo",
          "type": "uint256"
        },
        {
          "internalType": "uint32",
          "name": "vTokenTruncatedAddress",
          "type": "uint32"
        },
        {
          "internalType": "int24",
          "name": "tickLower",
          "type": "int24"
        },
        {
          "internalType": "int24",
          "name": "tickUpper",
          "type": "int24"
        }
      ],
      "name": "removeLimitOrder",
      "outputs": [],
      "stateMutability": "nonpayable",
      "type": "function"
    },
    {
      "inputs": [
        {
          "internalType": "uint256",
          "name": "accountNo",
          "type": "uint256"
        },
        {
          "internalType": "uint32",
          "name": "vTokenTruncatedAddress",
          "type": "uint32"
        },
        {
          "internalType": "int24",
          "name": "tickLower",
          "type": "int24"
        },
        {
          "internalType": "int24",
          "name": "tickUpper",
          "type": "int24"
        },
        {
          "internalType": "uint256",
          "name": "gasComputationUnitsClaim",
          "type": "uint256"
        }
      ],
      "name": "removeLimitOrderWithGasClaim",
      "outputs": [
        {
          "internalType": "uint256",
          "name": "keeperFee",
          "type": "uint256"
        }
      ],
      "stateMutability": "nonpayable",
      "type": "function"
    },
    {
      "inputs": [
        {
          "internalType": "uint256",
          "name": "accountNo",
          "type": "uint256"
        },
        {
          "internalType": "uint32",
          "name": "rTokenTruncatedAddress",
          "type": "uint32"
        },
        {
          "internalType": "uint256",
          "name": "amount",
          "type": "uint256"
        }
      ],
      "name": "removeMargin",
      "outputs": [],
      "stateMutability": "nonpayable",
      "type": "function"
    },
    {
      "inputs": [
        {
          "internalType": "bool",
          "name": "_pause",
          "type": "bool"
        }
      ],
      "name": "setPaused",
      "outputs": [],
      "stateMutability": "nonpayable",
      "type": "function"
    },
    {
      "inputs": [
        {
          "components": [
            {
              "internalType": "uint16",
              "name": "liquidationFeeFraction",
              "type": "uint16"
            },
            {
              "internalType": "uint16",
              "name": "tokenLiquidationPriceDeltaBps",
              "type": "uint16"
            },
            {
              "internalType": "uint16",
              "name": "insuranceFundFeeShareBps",
              "type": "uint16"
            }
          ],
          "internalType": "struct Account.LiquidationParams",
          "name": "_liquidationParams",
          "type": "tuple"
        },
        {
          "internalType": "uint256",
          "name": "_removeLimitOrderFee",
          "type": "uint256"
        },
        {
          "internalType": "uint256",
          "name": "_minimumOrderNotional",
          "type": "uint256"
        },
        {
          "internalType": "uint256",
          "name": "_minRequiredMargin",
          "type": "uint256"
        }
      ],
      "name": "setPlatformParameters",
      "outputs": [],
      "stateMutability": "nonpayable",
      "type": "function"
    },
    {
      "inputs": [
        {
          "internalType": "uint256",
          "name": "_txGasPriceLimit",
          "type": "uint256"
        }
      ],
      "name": "setTxGasPriceLimit",
      "outputs": [],
      "stateMutability": "nonpayable",
      "type": "function"
    },
    {
      "inputs": [
        {
          "internalType": "address",
          "name": "",
          "type": "address"
        }
      ],
      "name": "supportedDeposits",
      "outputs": [
        {
          "internalType": "bool",
          "name": "",
          "type": "bool"
        }
      ],
      "stateMutability": "view",
      "type": "function"
    },
    {
      "inputs": [
        {
          "internalType": "contract IVToken",
          "name": "",
          "type": "address"
        }
      ],
      "name": "supportedVTokens",
      "outputs": [
        {
          "internalType": "bool",
          "name": "",
          "type": "bool"
        }
      ],
      "stateMutability": "view",
      "type": "function"
    },
    {
      "inputs": [
        {
          "internalType": "uint256",
          "name": "accountNo",
          "type": "uint256"
        },
        {
          "internalType": "uint32",
          "name": "vTokenTruncatedAddress",
          "type": "uint32"
        },
        {
          "components": [
            {
              "internalType": "int256",
              "name": "amount",
              "type": "int256"
            },
            {
              "internalType": "uint160",
              "name": "sqrtPriceLimit",
              "type": "uint160"
            },
            {
              "internalType": "bool",
              "name": "isNotional",
              "type": "bool"
            },
            {
              "internalType": "bool",
              "name": "isPartialAllowed",
              "type": "bool"
            }
          ],
          "internalType": "struct IClearingHouse.SwapParams",
          "name": "swapParams",
          "type": "tuple"
        }
      ],
      "name": "swapToken",
      "outputs": [
        {
          "internalType": "int256",
          "name": "vTokenAmountOut",
          "type": "int256"
        },
        {
          "internalType": "int256",
          "name": "vBaseAmountOut",
          "type": "int256"
        }
      ],
      "stateMutability": "nonpayable",
      "type": "function"
    },
    {
      "inputs": [],
      "name": "teamMultisig",
      "outputs": [
        {
          "internalType": "address",
          "name": "",
          "type": "address"
        }
      ],
      "stateMutability": "view",
      "type": "function"
    },
    {
      "inputs": [
        {
          "internalType": "address",
          "name": "newGovernance",
          "type": "address"
        }
      ],
      "name": "transferGovernance",
      "outputs": [],
      "stateMutability": "nonpayable",
      "type": "function"
    },
    {
      "inputs": [
        {
          "internalType": "address",
          "name": "newTeamMultisig",
          "type": "address"
        }
      ],
      "name": "transferTeamMultisig",
      "outputs": [],
      "stateMutability": "nonpayable",
      "type": "function"
    },
    {
      "inputs": [],
      "name": "txGasPriceLimit",
      "outputs": [
        {
          "internalType": "uint256",
          "name": "",
          "type": "uint256"
        }
      ],
      "stateMutability": "view",
      "type": "function"
    },
    {
      "inputs": [
        {
          "internalType": "uint256",
          "name": "accountNo",
          "type": "uint256"
        },
        {
          "internalType": "int256",
          "name": "amount",
          "type": "int256"
        }
      ],
      "name": "updateProfit",
      "outputs": [],
      "stateMutability": "nonpayable",
      "type": "function"
    },
    {
      "inputs": [
        {
          "internalType": "contract IVToken",
          "name": "vToken",
          "type": "address"
        },
        {
          "components": [
            {
              "internalType": "uint16",
              "name": "initialMarginRatio",
              "type": "uint16"
            },
            {
              "internalType": "uint16",
              "name": "maintainanceMarginRatio",
              "type": "uint16"
            },
            {
              "internalType": "uint32",
              "name": "twapDuration",
              "type": "uint32"
            },
            {
              "internalType": "bool",
              "name": "whitelisted",
              "type": "bool"
            },
            {
              "internalType": "contract IOracle",
              "name": "oracle",
              "type": "address"
            }
          ],
          "internalType": "struct IClearingHouse.RageTradePoolSettings",
          "name": "newSettings",
          "type": "tuple"
        }
      ],
      "name": "updateRageTradePoolSettings",
      "outputs": [],
      "stateMutability": "nonpayable",
      "type": "function"
    },
    {
      "inputs": [
        {
          "internalType": "uint256",
          "name": "accountNo",
          "type": "uint256"
        },
        {
          "internalType": "uint32",
          "name": "vTokenTruncatedAddress",
          "type": "uint32"
        },
        {
          "components": [
            {
              "internalType": "int24",
              "name": "tickLower",
              "type": "int24"
            },
            {
              "internalType": "int24",
              "name": "tickUpper",
              "type": "int24"
            },
            {
              "internalType": "int128",
              "name": "liquidityDelta",
              "type": "int128"
            },
            {
              "internalType": "uint160",
              "name": "sqrtPriceCurrent",
              "type": "uint160"
            },
            {
              "internalType": "uint16",
              "name": "slippageToleranceBps",
              "type": "uint16"
            },
            {
              "internalType": "bool",
              "name": "closeTokenPosition",
              "type": "bool"
            },
            {
              "internalType": "enum IClearingHouse.LimitOrderType",
              "name": "limitOrderType",
              "type": "uint8"
            }
          ],
          "internalType": "struct IClearingHouse.LiquidityChangeParams",
          "name": "liquidityChangeParams",
          "type": "tuple"
        }
      ],
      "name": "updateRangeOrder",
      "outputs": [
        {
          "internalType": "int256",
          "name": "vTokenAmountOut",
          "type": "int256"
        },
        {
          "internalType": "int256",
          "name": "vBaseAmountOut",
          "type": "int256"
        }
      ],
      "stateMutability": "nonpayable",
      "type": "function"
    },
    {
      "inputs": [
        {
          "internalType": "address",
          "name": "add",
          "type": "address"
        },
        {
          "internalType": "bool",
          "name": "status",
          "type": "bool"
        }
      ],
      "name": "updateSupportedDeposits",
      "outputs": [],
      "stateMutability": "nonpayable",
      "type": "function"
    },
    {
      "inputs": [
        {
          "internalType": "contract IVToken",
          "name": "add",
          "type": "address"
        },
        {
          "internalType": "bool",
          "name": "status",
          "type": "bool"
        }
      ],
      "name": "updateSupportedVTokens",
      "outputs": [],
      "stateMutability": "nonpayable",
      "type": "function"
    },
    {
      "inputs": [
        {
          "internalType": "uint32",
          "name": "vTokenAddressTruncated",
          "type": "uint32"
        }
      ],
      "name": "vTokens",
      "outputs": [
        {
          "internalType": "contract IVToken",
          "name": "",
          "type": "address"
        }
      ],
      "stateMutability": "view",
      "type": "function"
    },
    {
      "inputs": [
        {
          "internalType": "address[]",
          "name": "wrapperAddresses",
          "type": "address[]"
        }
      ],
      "name": "withdrawProtocolFee",
      "outputs": [],
      "stateMutability": "nonpayable",
      "type": "function"
    }
  ],
  "transactionHash": "0x72ccb7cd46c33a9386b2c0ff2ff8a2b2821ac24d2dd812c979713452f1c8d086",
  "args": [],
  "solcInputHash": "a4f86ba0634cd1c18bcd3c42ff526506",
  "bytecode": "0x60806040523480156200001157600080fd5b506200001c62000022565b6200018a565b336200002f818062000032565b50565b600054610100900460ff16806200004c575060005460ff16155b620000b45760405162461bcd60e51b815260206004820152602e60248201527f496e697469616c697a61626c653a20636f6e747261637420697320616c72656160448201526d191e481a5b9a5d1a585b1a5e995960921b606482015260840160405180910390fd5b600054610100900460ff16158015620000d7576000805461ffff19166101011790555b6000805462010000600160b01b031916620100006001600160a01b0386169081029190911782556040519091907f5f56bee8cffbe9a78652a74a60705edede02af10b0bbb888ca44b79a0d42ce80908290a3600180546001600160a01b0319166001600160a01b0384169081179091556040516000907f39355f2f5c8206286978f443aa8126bbd29fa09c53c04569502647f3a59c8cb2908290a3801562000185576000805461ff00191690555b505050565b615730806200019a6000396000f3fe608060405234801561001057600080fd5b506004361061028a5760003560e01c806384088b651161015c578063d257be2b116100ce578063e3d41c1811610087578063e3d41c1814610739578063e67ed1df1461074c578063eb7c987d1461075f578063ee6cd5ee1461080a578063fcd0a5061461081d578063fe6f083a1461083057600080fd5b8063d257be2b146106bc578063d38bfff4146106cf578063dac42a96146106e2578063dbc0c085146106f5578063dbd035ff14610706578063e1f167131461072657600080fd5b80639cd1be58116101205780639cd1be58146105e05780639dca362f146105f3578063a26f7ca7146105fb578063a4063dbc1461060e578063a5cf768814610691578063b7902303146106a957600080fd5b806384088b65146104d65780638ce25a931461050b57806393420cf41461051457806394c8c71d146105ba57806398f5c527146105cd57600080fd5b80633fc42d80116102005780635c975abb116101b95780635c975abb1461045a57806364f368011461046757806373cceb9d1461047a5780637cc2f4f51461049d5780637ec6ba31146104b05780637f64d663146104c357600080fd5b80633fc42d80146103a857806342be9fca146103db57806343233d2e146103ee578063569634d31461041d5780635aa6e675146104305780635c318ad91461044757600080fd5b80632a66e9ca116102525780632a66e9ca146103215780632afaea371461033457806332a72d981461034757806336fadead1461036f57806339359029146103825780633d56a35e1461039557600080fd5b8063127fec131461028f57806316c38b3c146102bf5780631a1feae1146102d45780631e2eaeaf146102ec57806321df4c0e146102fe575b600080fd5b60d7546102a2906001600160a01b031681565b6040516001600160a01b0390911681526020015b60405180910390f35b6102d26102cd366004614020565b610843565b005b6102de61013c5481565b6040519081526020016102b6565b6102de6102fa36600461403d565b5490565b61031161030c36600461403d565b6108a1565b6040516102b69493929190614078565b6102d261032f36600461422c565b610945565b6102d2610342366004614275565b610a08565b61035a61035536600461436b565b610b69565b604080519283526020830191909152016102b6565b6102d261037d366004614419565b610d62565b6102d2610390366004614275565b610dd8565b60d5546102a2906001600160a01b031681565b6103cb6103b6366004614452565b60d16020526000908152604090205460ff1681565b60405190151581526020016102b6565b6102de6103e936600461446f565b610f2e565b6102a26103fc366004614491565b63ffffffff166000908152606660205260409020546001600160a01b031690565b6102d261042b36600461403d565b610fd5565b6000546201000090046001600160a01b03166102a2565b6102d26104553660046144ae565b610fe4565b60d4546103cb9060ff1681565b6102d2610475366004614419565b61104d565b6103cb610488366004614452565b60d06020526000908152604090205460ff1681565b6102d26104ab3660046144ff565b6110c3565b6102d26104be36600461403d565b6110d8565b6102d26104d1366004614452565b611129565b6104e96104e436600461456d565b6111f7565b60408051825181526020808401519082015291810151908201526060016102b6565b6102de60d25481565b604080516060808201835260008083526020808401829052928401526067548351808301855260685461ffff80821683526201000082048116838701908152600160201b9092048116838801908152606954606a54606b548a516001600160a01b03909816885295518416988701989098529251821697850197909752955190951692820192909252608081019390935260a083019190915260c082015260e0016102b6565b6104e96105c83660046145ac565b611232565b6102d26105db3660046145fe565b611304565b6102d26105ee36600461446f565b6113df565b6102de611574565b6102d261060936600461466f565b611616565b61062161061c366004614452565b61168e565b6040805182516001600160a01b03908116825260208085015182168184015293830151805161ffff90811684860152948101519094166060808401919091529284015163ffffffff1660808084019190915292840151151560a083015291909201511660c082015260e0016102b6565b60d4546102a29061010090046001600160a01b031681565b60d6546102a2906001600160a01b031681565b61035a6106ca366004614452565b61176a565b6102d26106dd366004614452565b61179e565b6103cb6106f0366004614491565b611860565b6001546001600160a01b03166102a2565b6107196107143660046146d3565b611895565b6040516102b6919061475d565b6102d26107343660046147a1565b6118c3565b6102de61074736600461403d565b611a19565b61035a61075a366004614815565b611a32565b6107d461076d366004614491565b60408051606080820183526000808352602080840182905292840181905263ffffffff9485168152606583528390208351918201845280546001600160a01b03908116835260019091015490811692820192909252600160a01b9091049092169082015290565b6040805182516001600160a01b039081168252602080850151909116908201529181015163ffffffff16908201526060016102b6565b61035a61081836600461483a565b611a59565b6102d261082b36600461487a565b611bcb565b6102de61083e3660046148c5565b611c9c565b6001546001600160a01b0316331480159061087057506000546001600160a01b0362010000909104163314155b1561088e57604051636bd1573560e11b815260040160405180910390fd5b60d4805460ff1916911515919091179055565b600081815260d3602052604080822090516330977c6d60e21b81526004810191909152606460248201528190606090819073ab05b9A355B46bA8c12E0444956a775c103732739063c25df1b490604401600060405180830381865af415801561090e573d6000803e3d6000fd5b505050506040513d6000823e601f3d908101601f191682016040526109369190810190614b1e565b93509350935093509193509193565b60d5546001600160a01b03163314610970576040516385734f3160e01b815260040160405180910390fd5b8160006001600160a01b03821663ffffffff8082166000908152606660205260408120549293506109ab926001600160a01b031691611cea16565b6109b7576109b7614c24565b63ffffffff8116600090815260666020908152604080832080546001600160a01b0319166001600160a01b0387169081179091558352606490915290208390610a008282614d63565b505050505050565b60d45460ff1615610a2c576040516313d0ff5960e31b815260040160405180910390fd5b600083815260d36020526040902080546001600160a01b03163314610a6b57604051630504a20d60e01b81523360048201526024015b60405180910390fd5b6000610a78846001611cfb565b9050610aa2333085610a9185546001600160a01b031690565b6001600160a01b0316929190611d97565b8054604051631b2d4e8960e01b8152600481018490526001600160a01b0390911660248201526044810184905273ab05b9A355B46bA8c12E0444956a775c1037327390631b2d4e899060640160006040518083038186803b158015610b0657600080fd5b505af4158015610b1a573d6000803e3d6000fd5b505082546040518681526001600160a01b0390911692508791507fdce3cf2323481f6a4ecd26864872ec536609f1ad0788710e5786c65b8e51ee75906020015b60405180910390a35050505050565b60d454600090819060ff1615610b92576040516313d0ff5960e31b815260040160405180910390fd5b600085815260d36020526040902080546001600160a01b03163314610bcc57604051630504a20d60e01b8152336004820152602401610a62565b6000610bd786611e02565b6040805163edd75e2160e01b8152600481018590526001600160a01b0380841660248301528851604483015260208901511660648083019190915291880151151560848201526060880151151560a482015260c481019190915290915073ab05b9A355B46bA8c12E0444956a775c103732739063edd75e219060e4016040805180830381865af4158015610c6f573d6000803e3d6000fd5b505050506040513d601f19601f82011682018060405250810190610c939190614e51565b90945092506000610ca384611e9e565b606b54909150811015610ccc576040516312b6b5cd60e11b815260048101829052602401610a62565b60208601516001600160a01b031615801590610cea57508560600151155b15610d575785604001518015610d1157508551610d0690611e9e565b610d0f85611e9e565b145b80610d3a57508560400151158015610d3a57508551610d2f90611e9e565b610d3886611e9e565b145b610d57576040516307a1db0760e01b815260040160405180910390fd5b505050935093915050565b6001546001600160a01b03163314801590610d8f57506000546001600160a01b0362010000909104163314155b15610dad57604051636bd1573560e11b815260040160405180910390fd5b6001600160a01b0391909116600090815260d060205260409020805460ff1916911515919091179055565b60d45460ff1615610dfc576040516313d0ff5960e31b815260040160405180910390fd5b600083815260d36020526040902080546001600160a01b03163314610e3657604051630504a20d60e01b8152336004820152602401610a62565b6000610e43846000611cfb565b8054604051634de2913360e11b8152600481018590526001600160a01b0390911660248201526044810185905260648082015290915073ab05b9A355B46bA8c12E0444956a775c1037327390639bc522669060840160006040518083038186803b158015610eb057600080fd5b505af4158015610ec4573d6000803e3d6000fd5b50505050610eee3384610ede84546001600160a01b031690565b6001600160a01b03169190611eb9565b80546040518481526001600160a01b039091169086907fbe29a6b389df4dde99b5e61c229ee4fcb393f7f54c362aa57d8c92200183094690602001610b5a565b6000818015610fb7576000610f41611ee9565b5a610f4c9190614e8b565b9050610f586044611fa1565b610f628585611fce565b92506000610f6e611ee9565b5a610f799190614e8b565b610f839083614ea3565b905080831115610fb057604051634010928f60e01b81526004810184905260248101829052604401610a62565b5050610fce565b610fc16044611fa1565b610fcb8484611fce565b91505b5092915050565b610fe0816000611fce565b5050565b6001546001600160a01b0316331480159061101157506000546001600160a01b0362010000909104163314155b1561102f57604051636bd1573560e11b815260040160405180910390fd5b83606861103c8282614eba565b5050606a92909255606b5560695550565b6001546001600160a01b0316331480159061107a57506000546001600160a01b0362010000909104163314155b1561109857604051636bd1573560e11b815260040160405180910390fd5b6001600160a01b0391909116600090815260d160205260409020805460ff1916911515919091179055565b6110d184848484600061211a565b5050505050565b6001546001600160a01b0316331480159061110557506000546001600160a01b0362010000909104163314155b1561112357604051636bd1573560e11b815260040160405180910390fd5b61013c55565b6001546001600160a01b0316331480159061115657506000546001600160a01b0362010000909104163314155b1561117457604051636bd1573560e11b815260040160405180910390fd5b6001600160a01b03811661119b5760405163d92e233d60e01b815260040160405180910390fd5b6001546040516001600160a01b038084169216907f39355f2f5c8206286978f443aa8126bbd29fa09c53c04569502647f3a59c8cb290600090a3600180546001600160a01b0319166001600160a01b0392909216919091179055565b61121b60405180606001604052806000815260200160008152602001600081525090565b611229858585856000612230565b95945050505050565b61125660405180606001604052806000815260200160008152602001600081525090565b8180156112e0576000611267611ee9565b5a6112729190614e8b565b905061127e60a4611fa1565b61128b8888888888612230565b92506000611297611ee9565b5a6112a29190614e8b565b6112ac9083614ea3565b9050808311156112d957604051634010928f60e01b81526004810184905260248101829052604401610a62565b50506112fa565b6112ea60a4611fa1565b6112f78787878787612230565b91505b5095945050505050565b600054610100900460ff168061131d575060005460ff16155b6113395760405162461bcd60e51b8152600401610a6290614f28565b600054610100900460ff1615801561135b576000805461ffff19166101011790555b60d580546001600160a01b03199081166001600160a01b038981169190911790925560d48054610100600160a81b0319166101008985160217905560d68054821687841617905560d780548216858416179055606780549091169185169190911790556113c661239f565b8015610a00576000805461ff0019169055505050505050565b60d45460ff1615611403576040516313d0ff5960e31b815260040160405180910390fd5b8061143a5760405162461bcd60e51b815260206004820152600760248201526608585b5bdd5b9d60ca1b6044820152606401610a62565b600082815260d36020526040902080546001600160a01b0316331461147457604051630504a20d60e01b8152336004820152602401610a62565b60405163f632b1e360e01b8152600481018290526024810183905260646044820181905273ab05b9A355B46bA8c12E0444956a775c103732739163f632b1e3910160006040518083038186803b1580156114cd57600080fd5b505af41580156114e1573d6000803e3d6000fd5b5050505060008213156115105760d45461150b9061010090046001600160a01b0316333085611d97565b611535565b6115353361151d84614f76565b60d45461010090046001600160a01b03169190611eb9565b827fb4604a31ce2914796ae6383c67cee47a3cb969b59a7dba0d06edcab53ff96a848360405161156791815260200190565b60405180910390a2505050565b60d45460009060ff161561159b576040516313d0ff5960e31b815260040160405180910390fd5b5060d2546115aa816001614e8b565b60d255600081815260d360205260409081902080546001600160a01b0319163390811782556001820184905591519091907f7325fb14450d3e5eb288c620b4ff1d6b43a41b33b4a4f143ae88cd4c12f99ea39061160a9085815260200190565b60405180910390a25090565b6001546001600160a01b0316331480159061164357506000546001600160a01b0362010000909104163314155b1561166157604051636bd1573560e11b815260040160405180910390fd5b6001600160a01b038216600090815260646020526040902081906002016116888282614cab565b50505050565b6116d3604080516060808201835260008083526020808401829052845160a0810186528281529081018290528085018290529182018190526080820152909182015290565b506001600160a01b039081166000908152606460209081526040918290208251606080820185528254861682526001830154861682850152845160a08101865260029093015461ffff8082168552620100008204169484019490945263ffffffff600160201b8504168386015260ff600160401b850416151590830152600160481b90920490931660808401529081019190915290565b6000806117816001600160a01b03841660646123aa565b91506117976001600160a01b03841660646123d7565b9050915091565b6000546001600160a01b03620100009091041633146117d057604051636bd1573560e11b815260040160405180910390fd5b6001600160a01b0381166117f75760405163d92e233d60e01b815260040160405180910390fd5b600080546040516001600160a01b03808516936201000090930416917f5f56bee8cffbe9a78652a74a60705edede02af10b0bbb888ca44b79a0d42ce8091a3600080546001600160a01b03909216620100000262010000600160b01b0319909216919091179055565b63ffffffff808216600090815260666020526040812054909161188f916001600160a01b0316908390611cea16565b92915050565b606060208251028201602001602083015b818110156118bb5780515481526020016118a6565b509192915050565b6000805b828110156119e65760008484838181106118e3576118e3614f93565b90506020020160208101906118f89190614452565b6001600160a01b0316635e622abc6040518163ffffffff1660e01b81526004016020604051808303816000875af1158015611937573d6000803e3d6000fd5b505050506040513d601f19601f8201168201806040525081019061195b9190614fa9565b905084848381811061196f5761196f614f93565b90506020020160208101906119849190614452565b6001600160a01b03167f4b5237f428d31406cf0f93a4ab5fd11482f2fe9a1420271368d67e83496346c4826040516119be91815260200190565b60405180910390a26119d08184614e8b565b92505080806119de90614fc2565b9150506118c7565b50611a146119fc6001546001600160a01b031690565b60d45461010090046001600160a01b03169083611eb9565b505050565b600081815260d36020526040812061188f9060646123ef565b600082815260d3602052604081208190611a4e90846064612402565b909590945092505050565b60d454600090819060ff1615611a82576040516313d0ff5960e31b815260040160405180910390fd5b600085815260d36020526040902080546001600160a01b03163314611abc57604051630504a20d60e01b8152336004820152602401610a62565b6000611ac786611e02565b9050611ad96080860160608701614452565b6001600160a01b031615611b1057611b1081611afb6080880160608901614452565b611b0b60a0890160808a01614fdd565b612458565b6040516349e373d360e01b815273ab05b9A355B46bA8c12E0444956a775c10373273906349e373d390611b4e90859085908a90606490600401615005565b6040805180830381865af4158015611b6a573d6000803e3d6000fd5b505050506040513d601f19601f82011682018060405250810190611b8e9190614e51565b90945092506000611ba282868660646124f3565b606b54909150811015610d57576040516312b6b5cd60e11b815260048101829052602401610a62565b6001546001600160a01b03163314801590611bf857506000546001600160a01b0362010000909104163314155b15611c1657604051636bd1573560e11b815260040160405180910390fd5b604080516060810182526001600160a01b038086168252938416602080830191825263ffffffff9485168385019081529685166000908152606590915292909220905181549085166001600160a01b0319909116178155905160019190910180549451909216600160a01b026001600160c01b0319909416921691909117919091179055565b6000818015611cd3576000611caf611ee9565b5a611cba9190614e8b565b9050611cc660a4611fa1565b61128b888888888861211a565b611cdd60a4611fa1565b6112f7878787878761211a565b6001600160a01b0390811691161490565b63ffffffff808316600090815260656020526040812091611d1e91839161253316565b15611d445760405163b087c8c360e01b815263ffffffff84166004820152602401610a62565b818015611d6b575080546001600160a01b0316600090815260d1602052604090205460ff16155b1561188f57805460405163340e1b9160e21b81526001600160a01b039091166004820152602401610a62565b6040516001600160a01b03808516602483015283166044820152606481018290526116889085906323b872dd60e01b906084015b60408051601f198184030181529190526020810180516001600160e01b03166001600160e01b031990931692909217909152612546565b63ffffffff8082166000908152606660205260408120546001600160a01b031691611e2f918391611cea16565b15611e555760405163b087c8c360e01b815263ffffffff83166004820152602401610a62565b6001600160a01b038116600090815260d0602052604090205460ff16611e9957604051631079472960e21b81526001600160a01b0382166004820152602401610a62565b919050565b6000808213611eb557611eb082614f76565b61188f565b5090565b6040516001600160a01b038316602482015260448101829052611a1490849063a9059cbb60e01b90606401611dcb565b60408051600481526024810182526020810180516001600160e01b031663a94597ff60e01b179052905160009182918291606491611f279190615103565b600060405180830381855afa9150503d8060008114611f62576040519150601f19603f3d011682016040523d82523d6000602084013e611f67565b606091505b5091509150811580611f7857508051155b15611f865760009250505090565b80806020019051810190611f9a9190614fa9565b9250505090565b36811015611fcb57604051634219202560e01b815236600482015260248101829052604401610a62565b50565b60d45460009060ff1615611ff5576040516313d0ff5960e31b815260040160405180910390fd5b600083815260d3602052604081209073ab05b9A355B46bA8c12E0444956a775c103732736379452b238361202887612618565b6040516001600160e01b031960e085901b16815260048101929092526024820152606460448201819052016040805180830381865af415801561206f573d6000803e3d6000fd5b505050506040513d601f19601f820116820180604052508101906120939190614e51565b909350905060006120a4828561511f565b60d4549091506120c39061010090046001600160a01b03163386611eb9565b6120cc82612731565b6040805182815260208101869052908101839052339087907f914a6aef8c0c1a591157ee7d71dfbd71d1d7df090d3ec047f8eac01fc21b2f439060600160405180910390a350505092915050565b60d45460009060ff1615612141576040516313d0ff5960e31b815260040160405180910390fd5b600086815260d3602052604081209061215987611e02565b905061216484612618565b606a546121719190614e8b565b6040516343c74e9360e01b8152600481018490526001600160a01b0383166024820152600288810b604483015287900b6064808301919091526084820183905260a482015290935073ab05b9A355B46bA8c12E0444956a775c10373273906343c74e939060c40160006040518083038186803b1580156121f057600080fd5b505af4158015612204573d6000803e3d6000fd5b505060d454612225925061010090046001600160a01b031690503385611eb9565b505095945050505050565b61225460405180606001604052806000815260200160008152602001600081525090565b60d45460ff1615612278576040516313d0ff5960e31b815260040160405180910390fd5b6127108361ffff16111561229f576040516348d69f3560e01b815260040160405180910390fd5b600085815260d360205260408120906122b786611e02565b600089815260d3602052604081209192509073ab05b9A355B46bA8c12E0444956a775c103732739063487e8af190859089866122f28b612618565b60646040518763ffffffff1660e01b815260040161234596959493929190958652602086019490945261ffff9290921660408501526001600160a01b03166060840152608083015260a082015260c00190565b608060405180830381865af4158015612362573d6000803e3d6000fd5b505050506040513d601f19601f820116820180604052508101906123869190615160565b9450905061239381612731565b50505095945050505050565b33611fcb81806127c2565b60006123d06123c26001600160a01b038516846128ca565b6001600160a01b031661295c565b9392505050565b60006123d06123c26001600160a01b038516846129d8565b60006123d0600184016002840184612a16565b60008061240f8584612b2c565b915061242360018601856002860186612b51565b600286015490915063ffffffff16156124505782600501548112612447578061244d565b82600501545b90505b935093915050565b600061246e6001600160a01b0385166064612ca6565b90506000836001600160a01b0316826001600160a01b03161161249a5761249582856151d8565b6124a4565b6124a484836151d8565b90506127106124b78561ffff8616615200565b6124c19190615245565b6001600160a01b0316816001600160a01b031611156110d1576040516307a1db0760e01b815260040160405180910390fd5b60006124fe83611e9e565b6125296125146001600160a01b038816856123d7565b600160801b61252288611e9e565b9190612ccc565b611229919061511f565b90546001600160a01b0391821691161490565b600061259b826040518060400160405280602081526020017f5361666545524332303a206c6f772d6c6576656c2063616c6c206661696c6564815250856001600160a01b0316612d069092919063ffffffff16565b805190915015611a1457808060200190518101906125b9919061526b565b611a145760405162461bcd60e51b815260206004820152602a60248201527f5361666545524332303a204552433230206f7065726174696f6e20646964206e6044820152691bdd081cdd58d8d9595960b21b6064820152608401610a62565b60003a61013c5481111561264e5761013c54604051638dfe587d60e01b8152610a62918391600401918252602082015260400190565b821580612664575060d7546001600160a01b0316155b15612672576000915061272b565b60003332141561268757612684612d15565b90505b60006126933a86615288565b60d754604051630e56d76760e31b815261012c6004820152919250600091612709916001600160a01b0316906372b6bb3890602401602060405180830381865afa1580156126e5573d6000803e3d6000fd5b505050506040513d601f19601f820116820180604052508101906123c291906152a7565b905061272581600160801b61271e8587614e8b565b9190612d53565b94505050505b50919050565b600081131561275c5760d65460d454611fcb916001600160a01b036101009092048216911683611eb9565b60d6546001600160a01b031663379607f561277683614f76565b6040518263ffffffff1660e01b815260040161279491815260200190565b600060405180830381600087803b1580156127ae57600080fd5b505af11580156110d1573d6000803e3d6000fd5b600054610100900460ff16806127db575060005460ff16155b6127f75760405162461bcd60e51b8152600401610a6290614f28565b600054610100900460ff16158015612819576000805461ffff19166101011790555b6000805462010000600160b01b031916620100006001600160a01b0386169081029190911782556040519091907f5f56bee8cffbe9a78652a74a60705edede02af10b0bbb888ca44b79a0d42ce80908290a3600180546001600160a01b0319166001600160a01b0384169081179091556040516000907f39355f2f5c8206286978f443aa8126bbd29fa09c53c04569502647f3a59c8cb2908290a38015611a14576000805461ff0019169055505050565b6001600160a01b03828116600090815260208390526040808220600201549051630e56d76760e31b8152600160201b820463ffffffff1660048201529192600160481b90910416906372b6bb3890602401602060405180830381865afa158015612938573d6000803e3d6000fd5b505050506040513d601f19601f820116820180604052508101906123d091906152a7565b60006401000276a36001600160a01b0383161080612997575073fffd8963efd1fc6a506488495d951d5263988d266001600160a01b03831610155b156129c057604051635d236c4560e01b81526001600160a01b0383166004820152602401610a62565b61188f6001600160a01b03831680600160401b612d53565b6001600160a01b0380831660009081526020839052604081206002810154905491926123d092169063ffffffff600160201b909104811690612e0116565b6000805b60088160ff161015612afd576000856001018260ff1660088110612a4057612a40614f93565b60088104919091015460079091166004026101000a900463ffffffff16905080612a6a5750612afd565b63ffffffff8082166000908152602087815260408083205460028b019092529091206001600160a01b0390911691612aa890829084908990612e2216565b612ab2908661511f565b94506000612ac96001600160a01b038416886129d8565b9050612ada6003830182858a612e46565b612ae4908761511f565b9550505050508080612af5906152c4565b915050612a1a565b50600382015463ffffffff166000908152600285016020526040902054612b24908261511f565b949350505050565b6000612b3883836123ef565b9050612b476068840183612e73565b6123d0908261511f565b600080808080805b60088160ff161015612c8457896001018160ff1660088110612b7d57612b7d614f93565b60088104919091015460079091166004026101000a900463ffffffff16612ba357612c84565b60008860008c6001018460ff1660088110612bc057612bc0614f93565b60088104919091015460079091166004026101000a900463ffffffff90811682526020820192909252604001600020546001600160a01b03169150612c0d908c908c9084908c90612f3916565b6001600160a01b038316600090815260208b905260409020600201549195509350600160401b900460ff1615612c5a57612c47848761511f565b9550612c53838661511f565b9450612c71565b612c648484612ff4565b612c6e908861511f565b96505b5080612c7c816152c4565b915050612b59565b50612c8f8484612ff4565b612c99908661511f565b9998505050505050505050565b6001600160a01b0380831660009081526020839052604081205490916123d09116613005565b6000612cf260008512612cdf5784612ceb565b612ceb856000196152e4565b8484612d53565b905060008412156123d057612b2481614f76565b6060612b24848460008561308f565b60408051600481526024810182526020810180516001600160e01b031663637bef0760e11b179052905160009182918291606491611f279190615103565b600080806000198587098587029250828110838203039150508060001415612d8d5760008411612d8257600080fd5b5082900490506123d0565b808411612d9957600080fd5b600084868809851960019081018716968790046003810260029081188083028203028083028203028083028203028083028203028083028203029182029003026000889003889004909101858311909403939093029303949094049190911702949350505050565b600080612e176001600160a01b038516846131b7565b9050610fcb816133d3565b600080612e386001600160a01b038516846123d7565b905061122985858386613705565b6001600160a01b038281166000908152602083905260408120600101549091611229918791879116613732565b60008060005b60088160ff161015612f315760008560ff831660088110612e9c57612e9c614f93565b60088104919091015460079091166004026101000a900463ffffffff16905080612ec65750612f31565b63ffffffff811660009081526001860160205260409020612f10612ee9826137ce565b63ffffffff808516600090815260018b0160205260409020549190600160801b90612ccc16565b612f1a908561511f565b935050508080612f29906152c4565b915050612e79565b509392505050565b63ffffffff8083166000908152600286016020526040812090918291908290612f6f906001600160a01b0388169087906123d716565b90506000612f876001600160a01b03881689886137dc565b83549091506000612f9a60038601613836565b9050612fc361ffff8416620186a061252287600160801b82612fbc888a61511f565b6000612ff4565b9650612fe461ffff8416620186a061252287600160801b82612fbc89614f76565b9550505050505094509492505050565b60008183131561272b57508161188f565b600080826001600160a01b0316633850c7bd6040518163ffffffff1660e01b815260040160e060405180830381865afa158015613046573d6000803e3d6000fd5b505050506040513d601f19601f8201168201806040525081019061306a9190615369565b509496509294505050506001600160a01b0383161515905061272b576123d0816133d3565b6060824710156130f05760405162461bcd60e51b815260206004820152602660248201527f416464726573733a20696e73756666696369656e742062616c616e636520666f6044820152651c8818d85b1b60d21b6064820152608401610a62565b843b61313e5760405162461bcd60e51b815260206004820152601d60248201527f416464726573733a2063616c6c20746f206e6f6e2d636f6e74726163740000006044820152606401610a62565b600080866001600160a01b0316858760405161315a9190615103565b60006040518083038185875af1925050503d8060008114613197576040519150601f19603f3d011682016040523d82523d6000602084013e61319c565b606091505b50915091506131ac8282866138b1565b979650505050505050565b600063ffffffff82166131e0576040516351a4d88160e01b815260006004820152602401610a62565b604080516002808252606082018352600092602083019080368337019050509050828160008151811061321557613215614f93565b602002602001019063ffffffff16908163ffffffff168152505060008160018151811061324457613244614f93565b63ffffffff9092166020928302919091019091015260405163883bdbfd60e01b81526001600160a01b0385169063883bdbfd9061328590849060040161540b565b600060405180830381865afa9250505080156132c357506040513d6000823e601f3d908101601f191682016040526132c091908101906154ad565b60015b61333857836001600160a01b0316633850c7bd6040518163ffffffff1660e01b815260040160e060405180830381865afa158015613305573d6000803e3d6000fd5b505050506040513d601f19601f820116820180604052508101906133299190615369565b50939650610fce945050505050565b60008260008151811061334d5761334d614f93565b60200260200101518360018151811061336857613368614f93565b602002602001015161337a9190615578565b9050600061338e63ffffffff8816836155c8565b905060008260060b1280156133b457506133ae63ffffffff881683615606565b60060b15155b156133c757806133c381615628565b9150505b945061188f9350505050565b60008060008360020b126133ea578260020b6133f2565b8260020b6000035b9050620d89e881111561342b5760405162461bcd60e51b81526020600482015260016024820152601560fa1b6044820152606401610a62565b60006001821661343f57600160801b613451565b6ffffcb933bd6fad37aa2d162d1a5940015b70ffffffffffffffffffffffffffffffffff1690506002821615613485576ffff97272373d413259a46990580e213a0260801c5b60048216156134a4576ffff2e50f5f656932ef12357cf3c7fdcc0260801c5b60088216156134c3576fffe5caca7e10e4e61c3624eaa0941cd00260801c5b60108216156134e2576fffcb9843d60f6159c9db58835c9266440260801c5b6020821615613501576fff973b41fa98c081472e6896dfb254c00260801c5b6040821615613520576fff2ea16466c96a3843ec78b326b528610260801c5b608082161561353f576ffe5dee046a99a2a811c461f1969c30530260801c5b61010082161561355f576ffcbe86c7900a88aedcffc83b479aa3a40260801c5b61020082161561357f576ff987a7253ac413176f2b074cf7815e540260801c5b61040082161561359f576ff3392b0822b70005940c7a398e4b70f30260801c5b6108008216156135bf576fe7159475a2c29b7443b29c7fa6e889d90260801c5b6110008216156135df576fd097f3bdfd2022b8845ad8f792aa58250260801c5b6120008216156135ff576fa9f746462d870fdf8a65dc1f90e061e50260801c5b61400082161561361f576f70d869a156d2a1b890bb3df62baf32f70260801c5b61800082161561363f576f31be135f97d08fd981231505542fcfa60260801c5b62010000821615613660576f09aa508b5b7a84e1c677de54f3e99bc90260801c5b62020000821615613680576e5d6af8dedb81196699c329225ee6040260801c5b6204000082161561369f576d2216e584f5fa1ea926041bedfe980260801c5b620800008216156136bc576b048a170391f7dc42444e8fa20260801c5b60008460020b13156136dd5780600019816136d9576136d961522f565b0490505b600160201b8106156136f05760016136f3565b60005b60ff16602082901c0192505050919050565b6001600160a01b0383811660009081526020839052604081206001015490916112299187918691166138ea565b6000805b6005811015612f3157600085826005811061375357613753614f93565b600591828204019190066006029054906101000a900465ffffffffffff1690508065ffffffffffff166000141561378a5750612f31565b65ffffffffffff8116600090815260018701602052604090206137ae908686613914565b6137b8908461511f565b92505080806137c690614fc2565b915050613736565b600061188f6123c283613aa3565b6000821561380a57506001600160a01b03831660009081526020829052604090206002015461ffff166123d0565b506001600160a01b03831660009081526020829052604090206002015462010000900461ffff166123d0565b6000805b600581101561272b57600083826005811061385757613857614f93565b600580820492909201549190066006026101000a900465ffffffffffff166000818152600186016020526040902090915061389190613b35565b61389b9084614e8b565b92505080806138a990614fc2565b91505061383a565b606083156138c05750816123d0565b8251156138d05782518084602001fd5b8160405162461bcd60e51b8152600401610a62919061564c565b82546000906138fe9084600160801b612ccc565b905061390a8483613b8c565b612b24908261511f565b600080600061399861398f856001600160a01b0316636719578c6040518163ffffffff1660e01b8152600401602060405180830381865afa15801561395d573d6000803e3d6000fd5b505050506040513d601f19601f8201168201806040525081019061398191906152a7565b6001600160a01b0316613005565b87906000613c11565b9150915060006139b0866001600160a01b031661295c565b9050816139c28483600160801b612ccc565b6139cc919061511f565b875460405163154cd3c960e11b81526101008204600290810b6004830152600160201b90920490910b6024820152909450600093506001600160a01b0386169250632a99a7929150604401608060405180830381865afa158015613a34573d6000803e3d6000fd5b505050506040513d601f19601f82011682018060405250810190613a58919061567f565b9050613a79613a74826060015187613cda90919063ffffffff16565b613d0a565b613a83908361511f565b81516040830151919350613a9991879190613d1c565b611229908361511f565b6000613ab982600101546001600160a01b031690565b6001830154604051630e56d76760e31b8152600160a01b90910463ffffffff1660048201526001600160a01b0391909116906372b6bb3890602401602060405180830381865afa158015613b11573d6000803e3d6000fd5b505050506040513d601f19601f8201168201806040525081019061188f91906152a7565b80546000908190613b4d90610100900460020b6133d3565b8354909150600090613b6890600160201b900460020b6133d3565b8454909150612b249083908390600160381b90046001600160801b03166001613d56565b600080826001600160a01b031663a3a1e7e96040518163ffffffff1660e01b8152600401602060405180830381865afa158015613bcd573d6000803e3d6000fd5b505050506040513d601f19601f82011682018060405250810190613bf19190614fa9565b90506000613c088286600201548760010154613e0b565b61122990614f76565b825460009081908190613c2b90610100900460020b6133d3565b8654909150600090613c4690600160201b900460020b6133d3565b9050856001600160a01b038084169082161015613c64575081613c81565b816001600160a01b0316876001600160a01b03161115613c815750805b8754613ca590613a749083908590600160381b90046001600160801b03168a613d56565b9450613ccd613a7484838b60000160079054906101000a90046001600160801b03168a613e26565b9350505050935093915050565b815460058301546000916123d091600160381b9091046001600160801b031690600160801b9061271e9086614ea3565b6000600160ff1b8210611eb557600080fd5b6002830154600384015460048501548554600093613d4d9387938793600160381b90046001600160801b0316613e96565b612b2490614f76565b6000836001600160a01b0316856001600160a01b03161115613d76579293925b6fffffffffffffffffffffffffffffffff60601b606084901b166001600160a01b038686038116908716613da957600080fd5b83613ddf57866001600160a01b0316613dcc8383896001600160a01b0316612d53565b81613dd957613dd961522f565b046131ac565b6131ac613df68383896001600160a01b0316613ebe565b886001600160a01b0316808204910615150190565b6000612b24613e1a84866156e4565b8390600160801b613efe565b6000836001600160a01b0316856001600160a01b03161115613e46579293925b81613e7357613e6e836001600160801b03168686036001600160a01b0316600160601b612d53565b611229565b611229836001600160801b03168686036001600160a01b0316600160601b613ebe565b60006131ac82600160801b613ead8888888d613f58565b613eb7908a6156e4565b9190613f7d565b6000613ecb848484612d53565b905060008280613edd57613edd61522f565b84860911156123d0576000198110613ef457600080fd5b6001019392505050565b60006001818080613f0f8885613fbb565b94509250613f1d8785613fbb565b94509150613f2b8685613fbb565b94509050613f3a838383612d53565b945083613f4d57613f4a85614f76565b94505b505050509392505050565b6000613f73613f6786846156e4565b8590600160801b613efe565b611229908461511f565b6000613f8a848484612ccc565b9050600081128015613faa5750613faa613fa385613fe5565b8484613ff0565b156123d057612b246000198261511f565b6000806000841215613fda57911591613fd384614f76565b9150613fde565b8391505b5092909150565b600061188f82611e9e565b6000818385098015612f3157506001949350505050565b8015158114611fcb57600080fd5b8035611e9981614007565b60006020828403121561403257600080fd5b81356123d081614007565b60006020828403121561404f57600080fd5b5035919050565b6003811061407457634e487b7160e01b600052602160045260246000fd5b9052565b6000608080830160018060a01b038089168552602088818701526040848188015283895180865260a089019150838b01955060005b818110156140d45786518051871684528501518584015295840195918301916001016140ad565b5050878103606089015288518082528382019550600581901b82018401848b0160005b838110156141f157848303601f19018952815180518916845287810151888501528681015187850152606080820151908501528a015160a08b850181905281519085018190529088019060009060c08601905b808310156141dc57835161415f838251614056565b8b8101518060020b8d850152508a81015160020b8b840152606081015161419160608501826001600160801b03169052565b508e8101518f84015260a081015160a084015260c081015160c084015260e081015160e084015261010080820151818501525050610120820191508a8401935060018301925061414a565b509a89019a94505050908601906001016140f7565b50909e9d5050505050505050505050505050565b6001600160a01b0381168114611fcb57600080fd5b600060e0828403121561272b57600080fd5b600080610100838503121561424057600080fd5b823561424b81614205565b915061425a846020850161421a565b90509250929050565b63ffffffff81168114611fcb57600080fd5b60008060006060848603121561428a57600080fd5b83359250602084013561429c81614263565b929592945050506040919091013590565b634e487b7160e01b600052604160045260246000fd5b60405160a081016001600160401b03811182821017156142e5576142e56142ad565b60405290565b60405161012081016001600160401b03811182821017156142e5576142e56142ad565b604080519081016001600160401b03811182821017156142e5576142e56142ad565b604051601f8201601f191681016001600160401b0381118282101715614358576143586142ad565b604052919050565b8035611e9981614205565b600080600083850360c081121561438157600080fd5b84359350602085013561439381614263565b92506080603f19820112156143a757600080fd5b50604051608081018181106001600160401b03821117156143ca576143ca6142ad565b6040908152850135815260608501356143e281614205565b602082015260808501356143f581614007565b604082015260a085013561440881614007565b606082015292959194509192509050565b6000806040838503121561442c57600080fd5b823561443781614205565b9150602083013561444781614007565b809150509250929050565b60006020828403121561446457600080fd5b81356123d081614205565b6000806040838503121561448257600080fd5b50508035926020909101359150565b6000602082840312156144a357600080fd5b81356123d081614263565b60008060008084860360c08112156144c557600080fd5b60608112156144d357600080fd5b509395606087013595506080870135945060a08701359350915050565b8060020b8114611fcb57600080fd5b6000806000806080858703121561451557600080fd5b84359350602085013561452781614263565b92506040850135614537816144f0565b91506060850135614547816144f0565b939692955090935050565b61ffff81168114611fcb57600080fd5b8035611e9981614552565b6000806000806080858703121561458357600080fd5b8435935060208501359250604085013561459c81614263565b9150606085013561454781614552565b600080600080600060a086880312156145c457600080fd5b853594506020860135935060408601356145dd81614263565b925060608601356145ed81614552565b949793965091946080013592915050565b600080600080600060a0868803121561461657600080fd5b853561462181614205565b9450602086013561463181614205565b9350604086013561464181614205565b9250606086013561465181614205565b9150608086013561466181614205565b809150509295509295909350565b60008082840360c081121561468357600080fd5b833561468e81614205565b925060a0601f19820112156146a257600080fd5b506020830190509250929050565b60006001600160401b038211156146c9576146c96142ad565b5060051b60200190565b600060208083850312156146e657600080fd5b82356001600160401b038111156146fc57600080fd5b8301601f8101851361470d57600080fd5b803561472061471b826146b0565b614330565b81815260059190911b8201830190838101908783111561473f57600080fd5b928401925b828410156131ac57833582529284019290840190614744565b6020808252825182820181905260009190848201906040850190845b8181101561479557835183529284019291840191600101614779565b50909695505050505050565b600080602083850312156147b457600080fd5b82356001600160401b03808211156147cb57600080fd5b818501915085601f8301126147df57600080fd5b8135818111156147ee57600080fd5b8660208260051b850101111561480357600080fd5b60209290920196919550909350505050565b6000806040838503121561482857600080fd5b82359150602083013561444781614007565b6000806000610120848603121561485057600080fd5b83359250602084013561486281614263565b9150614871856040860161421a565b90509250925092565b60008060006060848603121561488f57600080fd5b833561489a81614205565b925060208401356148aa81614205565b915060408401356148ba81614263565b809150509250925092565b600080600080600060a086880312156148dd57600080fd5b8535945060208601356148ef81614263565b935060408601356148ff816144f0565b925060608601356145ed816144f0565b60038110611fcb57600080fd5b8051611e998161490f565b8051611e99816144f0565b80516001600160801b0381168114611e9957600080fd5b600082601f83011261495a57600080fd5b8151602061496a61471b836146b0565b82815260059290921b8401810191818101908684111561498957600080fd5b8286015b84811015614b135780516001600160401b03808211156149ac57600080fd5b9088019060a0828b03601f190112156149c457600080fd5b6149cc6142c3565b868301516149d981614205565b80825250604083015187820152606083015160408201526080830151606082015260a083015182811115614a0c57600080fd5b8084019350508a603f840112614a2157600080fd5b868301519150614a3361471b836146b0565b82815261012092830284016040019288820191908d851115614a5457600080fd5b6040860195505b84861015614afd5780868f031215614a7257600080fd5b614a7a6142eb565b614a838761491c565b8152614a908b8801614927565b8b820152614aa060408801614927565b6040820152614ab160608801614932565b60608201526080870151608082015260a087015160a082015260c087015160c082015260e087015160e08201526101008701516101008201528084525089830192508086019550614a5b565b506080830152508552505091830191830161498d565b509695505050505050565b60008060008060808587031215614b3457600080fd5b8451614b3f81614205565b8094505060208086015193506040808701516001600160401b0380821115614b6657600080fd5b818901915089601f830112614b7a57600080fd5b8151614b8861471b826146b0565b81815260069190911b8301850190858101908c831115614ba757600080fd5b938601935b82851015614bf05785858e031215614bc45760008081fd5b614bcc61430e565b8551614bd781614205565b8152858801518882015282529385019390860190614bac565b60608c01519098509550505080841115614c0957600080fd5b505050614c1887828801614949565b91505092959194509250565b634e487b7160e01b600052600160045260246000fd5b80546001600160a01b0319166001600160a01b0392909216919091179055565b6000813561188f81614205565b80547fffffff0000000000000000000000000000000000000000ffffffffffffffffff1660489290921b6901000000000000000000600160e81b0316919091179055565b8135614cb681614552565b815461ffff191661ffff8216178255506020820135614cd481614552565b815463ffff00001916601082901b63ffff000016178255506040820135614cfa81614263565b815467ffffffff000000008260201b1691508167ffffffff000000001982161783556060840135614d2a81614007565b68ffffffffff00000000199190911690911790151560401b60ff60401b161781556080820135614d5981614205565b611a148183614c67565b8135614d6e81614205565b614d788183614c3a565b506020820135614d8781614205565b614d948160018401614c3a565b50600281016040830135614da781614552565b815461ffff191661ffff8216178255506060830135614dc581614552565b815463ffff00001916601082901b63ffff000016178255506080830135614deb81614263565b815467ffffffff000000008260201b1691508167ffffffff0000000019821617835560a0850135614e1b81614007565b68ffffffffff00000000199190911690911790151560401b60ff60401b16178155611a14614e4b60c08501614c5a565b82614c67565b60008060408385031215614e6457600080fd5b505080516020909101519092909150565b634e487b7160e01b600052601160045260246000fd5b60008219821115614e9e57614e9e614e75565b500190565b600082821015614eb557614eb5614e75565b500390565b8135614ec581614552565b815461ffff191661ffff8216178255506020820135614ee381614552565b815463ffff00001916601082901b63ffff000016178255506040820135614f0981614552565b815465ffff00000000191660209190911b65ffff000000001617905550565b6020808252602e908201527f496e697469616c697a61626c653a20636f6e747261637420697320616c72656160408201526d191e481a5b9a5d1a585b1a5e995960921b606082015260800190565b6000600160ff1b821415614f8c57614f8c614e75565b5060000390565b634e487b7160e01b600052603260045260246000fd5b600060208284031215614fbb57600080fd5b5051919050565b6000600019821415614fd657614fd6614e75565b5060010190565b600060208284031215614fef57600080fd5b81356123d081614552565b8035611e998161490f565b8481526001600160a01b038416602082015261014081018335615027816144f0565b60020b6040830152602084013561503d816144f0565b60020b60608301526040840135600f81900b811461505a57600080fd5b6150696080840182600f0b9052565b5061507660608501614360565b6001600160a01b031660a083015261509060808501614562565b61ffff1660c08301526150a560a08501614015565b151560e08301526150b860c08501614ffa565b6150c6610100840182614056565b508261012083015295945050505050565b60005b838110156150f25781810151838201526020016150da565b838111156116885750506000910152565b600082516151158184602087016150d7565b9190910192915050565b600080821280156001600160ff1b038490038513161561514157615141614e75565b600160ff1b839003841281161561515a5761515a614e75565b50500190565b600080828403608081121561517457600080fd5b835192506060601f198201121561518a57600080fd5b50604051606081018181106001600160401b03821117156151ad576151ad6142ad565b8060405250602084015181526040840151602082015260608401516040820152809150509250929050565b60006001600160a01b03838116908316818110156151f8576151f8614e75565b039392505050565b60006001600160a01b038281168482168115158284048211161561522657615226614e75565b02949350505050565b634e487b7160e01b600052601260045260246000fd5b60006001600160a01b038381168061525f5761525f61522f565b92169190910492915050565b60006020828403121561527d57600080fd5b81516123d081614007565b60008160001904831182151516156152a2576152a2614e75565b500290565b6000602082840312156152b957600080fd5b81516123d081614205565b600060ff821660ff8114156152db576152db614e75565b60010192915050565b60006001600160ff1b038184138284138082168684048611161561530a5761530a614e75565b600160ff1b600087128281168783058912161561532957615329614e75565b6000871292508782058712848416161561534557615345614e75565b8785058712818416161561535b5761535b614e75565b505050929093029392505050565b600080600080600080600060e0888a03121561538457600080fd5b875161538f81614205565b60208901519097506153a0816144f0565b60408901519096506153b181614552565b60608901519095506153c281614552565b60808901519094506153d381614552565b60a089015190935060ff811681146153ea57600080fd5b60c08901519092506153fb81614007565b8091505092959891949750929550565b6020808252825182820181905260009190848201906040850190845b8181101561479557835163ffffffff1683529284019291840191600101615427565b600082601f83011261545a57600080fd5b8151602061546a61471b836146b0565b82815260059290921b8401810191818101908684111561548957600080fd5b8286015b84811015614b135780516154a081614205565b835291830191830161548d565b600080604083850312156154c057600080fd5b82516001600160401b03808211156154d757600080fd5b818501915085601f8301126154eb57600080fd5b815160206154fb61471b836146b0565b82815260059290921b8401810191818101908984111561551a57600080fd5b948201945b838610156155485785518060060b81146155395760008081fd5b8252948201949082019061551f565b9188015191965090935050508082111561556157600080fd5b5061556e85828601615449565b9150509250929050565b60008160060b8360060b6000811281667fffffffffffff19018312811516156155a3576155a3614e75565b81667fffffffffffff0183138116156155be576155be614e75565b5090039392505050565b60008160060b8360060b806155df576155df61522f565b667fffffffffffff198214600019821416156155fd576155fd614e75565b90059392505050565b60008260060b806156195761561961522f565b808360060b0791505092915050565b60008160020b627fffff1981141561564257615642614e75565b6000190192915050565b602081526000825180602084015261566b8160408501602087016150d7565b601f01601f19169190910160400192915050565b60006080828403121561569157600080fd5b604051608081018181106001600160401b03821117156156b3576156b36142ad565b8060405250825181526020830151602082015260408301516040820152606083015160608201528091505092915050565b60008083128015600160ff1b85018412161561570257615702614e75565b6001600160ff1b038401831381161561571d5761571d614e75565b5050039056fea164736f6c634300080a000a",
  "deployedBytecode": "0x608060405234801561001057600080fd5b506004361061028a5760003560e01c806384088b651161015c578063d257be2b116100ce578063e3d41c1811610087578063e3d41c1814610739578063e67ed1df1461074c578063eb7c987d1461075f578063ee6cd5ee1461080a578063fcd0a5061461081d578063fe6f083a1461083057600080fd5b8063d257be2b146106bc578063d38bfff4146106cf578063dac42a96146106e2578063dbc0c085146106f5578063dbd035ff14610706578063e1f167131461072657600080fd5b80639cd1be58116101205780639cd1be58146105e05780639dca362f146105f3578063a26f7ca7146105fb578063a4063dbc1461060e578063a5cf768814610691578063b7902303146106a957600080fd5b806384088b65146104d65780638ce25a931461050b57806393420cf41461051457806394c8c71d146105ba57806398f5c527146105cd57600080fd5b80633fc42d80116102005780635c975abb116101b95780635c975abb1461045a57806364f368011461046757806373cceb9d1461047a5780637cc2f4f51461049d5780637ec6ba31146104b05780637f64d663146104c357600080fd5b80633fc42d80146103a857806342be9fca146103db57806343233d2e146103ee578063569634d31461041d5780635aa6e675146104305780635c318ad91461044757600080fd5b80632a66e9ca116102525780632a66e9ca146103215780632afaea371461033457806332a72d981461034757806336fadead1461036f57806339359029146103825780633d56a35e1461039557600080fd5b8063127fec131461028f57806316c38b3c146102bf5780631a1feae1146102d45780631e2eaeaf146102ec57806321df4c0e146102fe575b600080fd5b60d7546102a2906001600160a01b031681565b6040516001600160a01b0390911681526020015b60405180910390f35b6102d26102cd366004614020565b610843565b005b6102de61013c5481565b6040519081526020016102b6565b6102de6102fa36600461403d565b5490565b61031161030c36600461403d565b6108a1565b6040516102b69493929190614078565b6102d261032f36600461422c565b610945565b6102d2610342366004614275565b610a08565b61035a61035536600461436b565b610b69565b604080519283526020830191909152016102b6565b6102d261037d366004614419565b610d62565b6102d2610390366004614275565b610dd8565b60d5546102a2906001600160a01b031681565b6103cb6103b6366004614452565b60d16020526000908152604090205460ff1681565b60405190151581526020016102b6565b6102de6103e936600461446f565b610f2e565b6102a26103fc366004614491565b63ffffffff166000908152606660205260409020546001600160a01b031690565b6102d261042b36600461403d565b610fd5565b6000546201000090046001600160a01b03166102a2565b6102d26104553660046144ae565b610fe4565b60d4546103cb9060ff1681565b6102d2610475366004614419565b61104d565b6103cb610488366004614452565b60d06020526000908152604090205460ff1681565b6102d26104ab3660046144ff565b6110c3565b6102d26104be36600461403d565b6110d8565b6102d26104d1366004614452565b611129565b6104e96104e436600461456d565b6111f7565b60408051825181526020808401519082015291810151908201526060016102b6565b6102de60d25481565b604080516060808201835260008083526020808401829052928401526067548351808301855260685461ffff80821683526201000082048116838701908152600160201b9092048116838801908152606954606a54606b548a516001600160a01b03909816885295518416988701989098529251821697850197909752955190951692820192909252608081019390935260a083019190915260c082015260e0016102b6565b6104e96105c83660046145ac565b611232565b6102d26105db3660046145fe565b611304565b6102d26105ee36600461446f565b6113df565b6102de611574565b6102d261060936600461466f565b611616565b61062161061c366004614452565b61168e565b6040805182516001600160a01b03908116825260208085015182168184015293830151805161ffff90811684860152948101519094166060808401919091529284015163ffffffff1660808084019190915292840151151560a083015291909201511660c082015260e0016102b6565b60d4546102a29061010090046001600160a01b031681565b60d6546102a2906001600160a01b031681565b61035a6106ca366004614452565b61176a565b6102d26106dd366004614452565b61179e565b6103cb6106f0366004614491565b611860565b6001546001600160a01b03166102a2565b6107196107143660046146d3565b611895565b6040516102b6919061475d565b6102d26107343660046147a1565b6118c3565b6102de61074736600461403d565b611a19565b61035a61075a366004614815565b611a32565b6107d461076d366004614491565b60408051606080820183526000808352602080840182905292840181905263ffffffff9485168152606583528390208351918201845280546001600160a01b03908116835260019091015490811692820192909252600160a01b9091049092169082015290565b6040805182516001600160a01b039081168252602080850151909116908201529181015163ffffffff16908201526060016102b6565b61035a61081836600461483a565b611a59565b6102d261082b36600461487a565b611bcb565b6102de61083e3660046148c5565b611c9c565b6001546001600160a01b0316331480159061087057506000546001600160a01b0362010000909104163314155b1561088e57604051636bd1573560e11b815260040160405180910390fd5b60d4805460ff1916911515919091179055565b600081815260d3602052604080822090516330977c6d60e21b81526004810191909152606460248201528190606090819073__$86182d6e9eac51236f2aa8dd2a3ddeab6c$__9063c25df1b490604401600060405180830381865af415801561090e573d6000803e3d6000fd5b505050506040513d6000823e601f3d908101601f191682016040526109369190810190614b1e565b93509350935093509193509193565b60d5546001600160a01b03163314610970576040516385734f3160e01b815260040160405180910390fd5b8160006001600160a01b03821663ffffffff8082166000908152606660205260408120549293506109ab926001600160a01b031691611cea16565b6109b7576109b7614c24565b63ffffffff8116600090815260666020908152604080832080546001600160a01b0319166001600160a01b0387169081179091558352606490915290208390610a008282614d63565b505050505050565b60d45460ff1615610a2c576040516313d0ff5960e31b815260040160405180910390fd5b600083815260d36020526040902080546001600160a01b03163314610a6b57604051630504a20d60e01b81523360048201526024015b60405180910390fd5b6000610a78846001611cfb565b9050610aa2333085610a9185546001600160a01b031690565b6001600160a01b0316929190611d97565b8054604051631b2d4e8960e01b8152600481018490526001600160a01b0390911660248201526044810184905273__$86182d6e9eac51236f2aa8dd2a3ddeab6c$__90631b2d4e899060640160006040518083038186803b158015610b0657600080fd5b505af4158015610b1a573d6000803e3d6000fd5b505082546040518681526001600160a01b0390911692508791507fdce3cf2323481f6a4ecd26864872ec536609f1ad0788710e5786c65b8e51ee75906020015b60405180910390a35050505050565b60d454600090819060ff1615610b92576040516313d0ff5960e31b815260040160405180910390fd5b600085815260d36020526040902080546001600160a01b03163314610bcc57604051630504a20d60e01b8152336004820152602401610a62565b6000610bd786611e02565b6040805163edd75e2160e01b8152600481018590526001600160a01b0380841660248301528851604483015260208901511660648083019190915291880151151560848201526060880151151560a482015260c481019190915290915073__$86182d6e9eac51236f2aa8dd2a3ddeab6c$__9063edd75e219060e4016040805180830381865af4158015610c6f573d6000803e3d6000fd5b505050506040513d601f19601f82011682018060405250810190610c939190614e51565b90945092506000610ca384611e9e565b606b54909150811015610ccc576040516312b6b5cd60e11b815260048101829052602401610a62565b60208601516001600160a01b031615801590610cea57508560600151155b15610d575785604001518015610d1157508551610d0690611e9e565b610d0f85611e9e565b145b80610d3a57508560400151158015610d3a57508551610d2f90611e9e565b610d3886611e9e565b145b610d57576040516307a1db0760e01b815260040160405180910390fd5b505050935093915050565b6001546001600160a01b03163314801590610d8f57506000546001600160a01b0362010000909104163314155b15610dad57604051636bd1573560e11b815260040160405180910390fd5b6001600160a01b0391909116600090815260d060205260409020805460ff1916911515919091179055565b60d45460ff1615610dfc576040516313d0ff5960e31b815260040160405180910390fd5b600083815260d36020526040902080546001600160a01b03163314610e3657604051630504a20d60e01b8152336004820152602401610a62565b6000610e43846000611cfb565b8054604051634de2913360e11b8152600481018590526001600160a01b0390911660248201526044810185905260648082015290915073__$86182d6e9eac51236f2aa8dd2a3ddeab6c$__90639bc522669060840160006040518083038186803b158015610eb057600080fd5b505af4158015610ec4573d6000803e3d6000fd5b50505050610eee3384610ede84546001600160a01b031690565b6001600160a01b03169190611eb9565b80546040518481526001600160a01b039091169086907fbe29a6b389df4dde99b5e61c229ee4fcb393f7f54c362aa57d8c92200183094690602001610b5a565b6000818015610fb7576000610f41611ee9565b5a610f4c9190614e8b565b9050610f586044611fa1565b610f628585611fce565b92506000610f6e611ee9565b5a610f799190614e8b565b610f839083614ea3565b905080831115610fb057604051634010928f60e01b81526004810184905260248101829052604401610a62565b5050610fce565b610fc16044611fa1565b610fcb8484611fce565b91505b5092915050565b610fe0816000611fce565b5050565b6001546001600160a01b0316331480159061101157506000546001600160a01b0362010000909104163314155b1561102f57604051636bd1573560e11b815260040160405180910390fd5b83606861103c8282614eba565b5050606a92909255606b5560695550565b6001546001600160a01b0316331480159061107a57506000546001600160a01b0362010000909104163314155b1561109857604051636bd1573560e11b815260040160405180910390fd5b6001600160a01b0391909116600090815260d160205260409020805460ff1916911515919091179055565b6110d184848484600061211a565b5050505050565b6001546001600160a01b0316331480159061110557506000546001600160a01b0362010000909104163314155b1561112357604051636bd1573560e11b815260040160405180910390fd5b61013c55565b6001546001600160a01b0316331480159061115657506000546001600160a01b0362010000909104163314155b1561117457604051636bd1573560e11b815260040160405180910390fd5b6001600160a01b03811661119b5760405163d92e233d60e01b815260040160405180910390fd5b6001546040516001600160a01b038084169216907f39355f2f5c8206286978f443aa8126bbd29fa09c53c04569502647f3a59c8cb290600090a3600180546001600160a01b0319166001600160a01b0392909216919091179055565b61121b60405180606001604052806000815260200160008152602001600081525090565b611229858585856000612230565b95945050505050565b61125660405180606001604052806000815260200160008152602001600081525090565b8180156112e0576000611267611ee9565b5a6112729190614e8b565b905061127e60a4611fa1565b61128b8888888888612230565b92506000611297611ee9565b5a6112a29190614e8b565b6112ac9083614ea3565b9050808311156112d957604051634010928f60e01b81526004810184905260248101829052604401610a62565b50506112fa565b6112ea60a4611fa1565b6112f78787878787612230565b91505b5095945050505050565b600054610100900460ff168061131d575060005460ff16155b6113395760405162461bcd60e51b8152600401610a6290614f28565b600054610100900460ff1615801561135b576000805461ffff19166101011790555b60d580546001600160a01b03199081166001600160a01b038981169190911790925560d48054610100600160a81b0319166101008985160217905560d68054821687841617905560d780548216858416179055606780549091169185169190911790556113c661239f565b8015610a00576000805461ff0019169055505050505050565b60d45460ff1615611403576040516313d0ff5960e31b815260040160405180910390fd5b8061143a5760405162461bcd60e51b815260206004820152600760248201526608585b5bdd5b9d60ca1b6044820152606401610a62565b600082815260d36020526040902080546001600160a01b0316331461147457604051630504a20d60e01b8152336004820152602401610a62565b60405163f632b1e360e01b8152600481018290526024810183905260646044820181905273__$86182d6e9eac51236f2aa8dd2a3ddeab6c$__9163f632b1e3910160006040518083038186803b1580156114cd57600080fd5b505af41580156114e1573d6000803e3d6000fd5b5050505060008213156115105760d45461150b9061010090046001600160a01b0316333085611d97565b611535565b6115353361151d84614f76565b60d45461010090046001600160a01b03169190611eb9565b827fb4604a31ce2914796ae6383c67cee47a3cb969b59a7dba0d06edcab53ff96a848360405161156791815260200190565b60405180910390a2505050565b60d45460009060ff161561159b576040516313d0ff5960e31b815260040160405180910390fd5b5060d2546115aa816001614e8b565b60d255600081815260d360205260409081902080546001600160a01b0319163390811782556001820184905591519091907f7325fb14450d3e5eb288c620b4ff1d6b43a41b33b4a4f143ae88cd4c12f99ea39061160a9085815260200190565b60405180910390a25090565b6001546001600160a01b0316331480159061164357506000546001600160a01b0362010000909104163314155b1561166157604051636bd1573560e11b815260040160405180910390fd5b6001600160a01b038216600090815260646020526040902081906002016116888282614cab565b50505050565b6116d3604080516060808201835260008083526020808401829052845160a0810186528281529081018290528085018290529182018190526080820152909182015290565b506001600160a01b039081166000908152606460209081526040918290208251606080820185528254861682526001830154861682850152845160a08101865260029093015461ffff8082168552620100008204169484019490945263ffffffff600160201b8504168386015260ff600160401b850416151590830152600160481b90920490931660808401529081019190915290565b6000806117816001600160a01b03841660646123aa565b91506117976001600160a01b03841660646123d7565b9050915091565b6000546001600160a01b03620100009091041633146117d057604051636bd1573560e11b815260040160405180910390fd5b6001600160a01b0381166117f75760405163d92e233d60e01b815260040160405180910390fd5b600080546040516001600160a01b03808516936201000090930416917f5f56bee8cffbe9a78652a74a60705edede02af10b0bbb888ca44b79a0d42ce8091a3600080546001600160a01b03909216620100000262010000600160b01b0319909216919091179055565b63ffffffff808216600090815260666020526040812054909161188f916001600160a01b0316908390611cea16565b92915050565b606060208251028201602001602083015b818110156118bb5780515481526020016118a6565b509192915050565b6000805b828110156119e65760008484838181106118e3576118e3614f93565b90506020020160208101906118f89190614452565b6001600160a01b0316635e622abc6040518163ffffffff1660e01b81526004016020604051808303816000875af1158015611937573d6000803e3d6000fd5b505050506040513d601f19601f8201168201806040525081019061195b9190614fa9565b905084848381811061196f5761196f614f93565b90506020020160208101906119849190614452565b6001600160a01b03167f4b5237f428d31406cf0f93a4ab5fd11482f2fe9a1420271368d67e83496346c4826040516119be91815260200190565b60405180910390a26119d08184614e8b565b92505080806119de90614fc2565b9150506118c7565b50611a146119fc6001546001600160a01b031690565b60d45461010090046001600160a01b03169083611eb9565b505050565b600081815260d36020526040812061188f9060646123ef565b600082815260d3602052604081208190611a4e90846064612402565b909590945092505050565b60d454600090819060ff1615611a82576040516313d0ff5960e31b815260040160405180910390fd5b600085815260d36020526040902080546001600160a01b03163314611abc57604051630504a20d60e01b8152336004820152602401610a62565b6000611ac786611e02565b9050611ad96080860160608701614452565b6001600160a01b031615611b1057611b1081611afb6080880160608901614452565b611b0b60a0890160808a01614fdd565b612458565b6040516349e373d360e01b815273__$86182d6e9eac51236f2aa8dd2a3ddeab6c$__906349e373d390611b4e90859085908a90606490600401615005565b6040805180830381865af4158015611b6a573d6000803e3d6000fd5b505050506040513d601f19601f82011682018060405250810190611b8e9190614e51565b90945092506000611ba282868660646124f3565b606b54909150811015610d57576040516312b6b5cd60e11b815260048101829052602401610a62565b6001546001600160a01b03163314801590611bf857506000546001600160a01b0362010000909104163314155b15611c1657604051636bd1573560e11b815260040160405180910390fd5b604080516060810182526001600160a01b038086168252938416602080830191825263ffffffff9485168385019081529685166000908152606590915292909220905181549085166001600160a01b0319909116178155905160019190910180549451909216600160a01b026001600160c01b0319909416921691909117919091179055565b6000818015611cd3576000611caf611ee9565b5a611cba9190614e8b565b9050611cc660a4611fa1565b61128b888888888861211a565b611cdd60a4611fa1565b6112f7878787878761211a565b6001600160a01b0390811691161490565b63ffffffff808316600090815260656020526040812091611d1e91839161253316565b15611d445760405163b087c8c360e01b815263ffffffff84166004820152602401610a62565b818015611d6b575080546001600160a01b0316600090815260d1602052604090205460ff16155b1561188f57805460405163340e1b9160e21b81526001600160a01b039091166004820152602401610a62565b6040516001600160a01b03808516602483015283166044820152606481018290526116889085906323b872dd60e01b906084015b60408051601f198184030181529190526020810180516001600160e01b03166001600160e01b031990931692909217909152612546565b63ffffffff8082166000908152606660205260408120546001600160a01b031691611e2f918391611cea16565b15611e555760405163b087c8c360e01b815263ffffffff83166004820152602401610a62565b6001600160a01b038116600090815260d0602052604090205460ff16611e9957604051631079472960e21b81526001600160a01b0382166004820152602401610a62565b919050565b6000808213611eb557611eb082614f76565b61188f565b5090565b6040516001600160a01b038316602482015260448101829052611a1490849063a9059cbb60e01b90606401611dcb565b60408051600481526024810182526020810180516001600160e01b031663a94597ff60e01b179052905160009182918291606491611f279190615103565b600060405180830381855afa9150503d8060008114611f62576040519150601f19603f3d011682016040523d82523d6000602084013e611f67565b606091505b5091509150811580611f7857508051155b15611f865760009250505090565b80806020019051810190611f9a9190614fa9565b9250505090565b36811015611fcb57604051634219202560e01b815236600482015260248101829052604401610a62565b50565b60d45460009060ff1615611ff5576040516313d0ff5960e31b815260040160405180910390fd5b600083815260d3602052604081209073__$86182d6e9eac51236f2aa8dd2a3ddeab6c$__6379452b238361202887612618565b6040516001600160e01b031960e085901b16815260048101929092526024820152606460448201819052016040805180830381865af415801561206f573d6000803e3d6000fd5b505050506040513d601f19601f820116820180604052508101906120939190614e51565b909350905060006120a4828561511f565b60d4549091506120c39061010090046001600160a01b03163386611eb9565b6120cc82612731565b6040805182815260208101869052908101839052339087907f914a6aef8c0c1a591157ee7d71dfbd71d1d7df090d3ec047f8eac01fc21b2f439060600160405180910390a350505092915050565b60d45460009060ff1615612141576040516313d0ff5960e31b815260040160405180910390fd5b600086815260d3602052604081209061215987611e02565b905061216484612618565b606a546121719190614e8b565b6040516343c74e9360e01b8152600481018490526001600160a01b0383166024820152600288810b604483015287900b6064808301919091526084820183905260a482015290935073__$86182d6e9eac51236f2aa8dd2a3ddeab6c$__906343c74e939060c40160006040518083038186803b1580156121f057600080fd5b505af4158015612204573d6000803e3d6000fd5b505060d454612225925061010090046001600160a01b031690503385611eb9565b505095945050505050565b61225460405180606001604052806000815260200160008152602001600081525090565b60d45460ff1615612278576040516313d0ff5960e31b815260040160405180910390fd5b6127108361ffff16111561229f576040516348d69f3560e01b815260040160405180910390fd5b600085815260d360205260408120906122b786611e02565b600089815260d3602052604081209192509073__$86182d6e9eac51236f2aa8dd2a3ddeab6c$__9063487e8af190859089866122f28b612618565b60646040518763ffffffff1660e01b815260040161234596959493929190958652602086019490945261ffff9290921660408501526001600160a01b03166060840152608083015260a082015260c00190565b608060405180830381865af4158015612362573d6000803e3d6000fd5b505050506040513d601f19601f820116820180604052508101906123869190615160565b9450905061239381612731565b50505095945050505050565b33611fcb81806127c2565b60006123d06123c26001600160a01b038516846128ca565b6001600160a01b031661295c565b9392505050565b60006123d06123c26001600160a01b038516846129d8565b60006123d0600184016002840184612a16565b60008061240f8584612b2c565b915061242360018601856002860186612b51565b600286015490915063ffffffff16156124505782600501548112612447578061244d565b82600501545b90505b935093915050565b600061246e6001600160a01b0385166064612ca6565b90506000836001600160a01b0316826001600160a01b03161161249a5761249582856151d8565b6124a4565b6124a484836151d8565b90506127106124b78561ffff8616615200565b6124c19190615245565b6001600160a01b0316816001600160a01b031611156110d1576040516307a1db0760e01b815260040160405180910390fd5b60006124fe83611e9e565b6125296125146001600160a01b038816856123d7565b600160801b61252288611e9e565b9190612ccc565b611229919061511f565b90546001600160a01b0391821691161490565b600061259b826040518060400160405280602081526020017f5361666545524332303a206c6f772d6c6576656c2063616c6c206661696c6564815250856001600160a01b0316612d069092919063ffffffff16565b805190915015611a1457808060200190518101906125b9919061526b565b611a145760405162461bcd60e51b815260206004820152602a60248201527f5361666545524332303a204552433230206f7065726174696f6e20646964206e6044820152691bdd081cdd58d8d9595960b21b6064820152608401610a62565b60003a61013c5481111561264e5761013c54604051638dfe587d60e01b8152610a62918391600401918252602082015260400190565b821580612664575060d7546001600160a01b0316155b15612672576000915061272b565b60003332141561268757612684612d15565b90505b60006126933a86615288565b60d754604051630e56d76760e31b815261012c6004820152919250600091612709916001600160a01b0316906372b6bb3890602401602060405180830381865afa1580156126e5573d6000803e3d6000fd5b505050506040513d601f19601f820116820180604052508101906123c291906152a7565b905061272581600160801b61271e8587614e8b565b9190612d53565b94505050505b50919050565b600081131561275c5760d65460d454611fcb916001600160a01b036101009092048216911683611eb9565b60d6546001600160a01b031663379607f561277683614f76565b6040518263ffffffff1660e01b815260040161279491815260200190565b600060405180830381600087803b1580156127ae57600080fd5b505af11580156110d1573d6000803e3d6000fd5b600054610100900460ff16806127db575060005460ff16155b6127f75760405162461bcd60e51b8152600401610a6290614f28565b600054610100900460ff16158015612819576000805461ffff19166101011790555b6000805462010000600160b01b031916620100006001600160a01b0386169081029190911782556040519091907f5f56bee8cffbe9a78652a74a60705edede02af10b0bbb888ca44b79a0d42ce80908290a3600180546001600160a01b0319166001600160a01b0384169081179091556040516000907f39355f2f5c8206286978f443aa8126bbd29fa09c53c04569502647f3a59c8cb2908290a38015611a14576000805461ff0019169055505050565b6001600160a01b03828116600090815260208390526040808220600201549051630e56d76760e31b8152600160201b820463ffffffff1660048201529192600160481b90910416906372b6bb3890602401602060405180830381865afa158015612938573d6000803e3d6000fd5b505050506040513d601f19601f820116820180604052508101906123d091906152a7565b60006401000276a36001600160a01b0383161080612997575073fffd8963efd1fc6a506488495d951d5263988d266001600160a01b03831610155b156129c057604051635d236c4560e01b81526001600160a01b0383166004820152602401610a62565b61188f6001600160a01b03831680600160401b612d53565b6001600160a01b0380831660009081526020839052604081206002810154905491926123d092169063ffffffff600160201b909104811690612e0116565b6000805b60088160ff161015612afd576000856001018260ff1660088110612a4057612a40614f93565b60088104919091015460079091166004026101000a900463ffffffff16905080612a6a5750612afd565b63ffffffff8082166000908152602087815260408083205460028b019092529091206001600160a01b0390911691612aa890829084908990612e2216565b612ab2908661511f565b94506000612ac96001600160a01b038416886129d8565b9050612ada6003830182858a612e46565b612ae4908761511f565b9550505050508080612af5906152c4565b915050612a1a565b50600382015463ffffffff166000908152600285016020526040902054612b24908261511f565b949350505050565b6000612b3883836123ef565b9050612b476068840183612e73565b6123d0908261511f565b600080808080805b60088160ff161015612c8457896001018160ff1660088110612b7d57612b7d614f93565b60088104919091015460079091166004026101000a900463ffffffff16612ba357612c84565b60008860008c6001018460ff1660088110612bc057612bc0614f93565b60088104919091015460079091166004026101000a900463ffffffff90811682526020820192909252604001600020546001600160a01b03169150612c0d908c908c9084908c90612f3916565b6001600160a01b038316600090815260208b905260409020600201549195509350600160401b900460ff1615612c5a57612c47848761511f565b9550612c53838661511f565b9450612c71565b612c648484612ff4565b612c6e908861511f565b96505b5080612c7c816152c4565b915050612b59565b50612c8f8484612ff4565b612c99908661511f565b9998505050505050505050565b6001600160a01b0380831660009081526020839052604081205490916123d09116613005565b6000612cf260008512612cdf5784612ceb565b612ceb856000196152e4565b8484612d53565b905060008412156123d057612b2481614f76565b6060612b24848460008561308f565b60408051600481526024810182526020810180516001600160e01b031663637bef0760e11b179052905160009182918291606491611f279190615103565b600080806000198587098587029250828110838203039150508060001415612d8d5760008411612d8257600080fd5b5082900490506123d0565b808411612d9957600080fd5b600084868809851960019081018716968790046003810260029081188083028203028083028203028083028203028083028203028083028203029182029003026000889003889004909101858311909403939093029303949094049190911702949350505050565b600080612e176001600160a01b038516846131b7565b9050610fcb816133d3565b600080612e386001600160a01b038516846123d7565b905061122985858386613705565b6001600160a01b038281166000908152602083905260408120600101549091611229918791879116613732565b60008060005b60088160ff161015612f315760008560ff831660088110612e9c57612e9c614f93565b60088104919091015460079091166004026101000a900463ffffffff16905080612ec65750612f31565b63ffffffff811660009081526001860160205260409020612f10612ee9826137ce565b63ffffffff808516600090815260018b0160205260409020549190600160801b90612ccc16565b612f1a908561511f565b935050508080612f29906152c4565b915050612e79565b509392505050565b63ffffffff8083166000908152600286016020526040812090918291908290612f6f906001600160a01b0388169087906123d716565b90506000612f876001600160a01b03881689886137dc565b83549091506000612f9a60038601613836565b9050612fc361ffff8416620186a061252287600160801b82612fbc888a61511f565b6000612ff4565b9650612fe461ffff8416620186a061252287600160801b82612fbc89614f76565b9550505050505094509492505050565b60008183131561272b57508161188f565b600080826001600160a01b0316633850c7bd6040518163ffffffff1660e01b815260040160e060405180830381865afa158015613046573d6000803e3d6000fd5b505050506040513d601f19601f8201168201806040525081019061306a9190615369565b509496509294505050506001600160a01b0383161515905061272b576123d0816133d3565b6060824710156130f05760405162461bcd60e51b815260206004820152602660248201527f416464726573733a20696e73756666696369656e742062616c616e636520666f6044820152651c8818d85b1b60d21b6064820152608401610a62565b843b61313e5760405162461bcd60e51b815260206004820152601d60248201527f416464726573733a2063616c6c20746f206e6f6e2d636f6e74726163740000006044820152606401610a62565b600080866001600160a01b0316858760405161315a9190615103565b60006040518083038185875af1925050503d8060008114613197576040519150601f19603f3d011682016040523d82523d6000602084013e61319c565b606091505b50915091506131ac8282866138b1565b979650505050505050565b600063ffffffff82166131e0576040516351a4d88160e01b815260006004820152602401610a62565b604080516002808252606082018352600092602083019080368337019050509050828160008151811061321557613215614f93565b602002602001019063ffffffff16908163ffffffff168152505060008160018151811061324457613244614f93565b63ffffffff9092166020928302919091019091015260405163883bdbfd60e01b81526001600160a01b0385169063883bdbfd9061328590849060040161540b565b600060405180830381865afa9250505080156132c357506040513d6000823e601f3d908101601f191682016040526132c091908101906154ad565b60015b61333857836001600160a01b0316633850c7bd6040518163ffffffff1660e01b815260040160e060405180830381865afa158015613305573d6000803e3d6000fd5b505050506040513d601f19601f820116820180604052508101906133299190615369565b50939650610fce945050505050565b60008260008151811061334d5761334d614f93565b60200260200101518360018151811061336857613368614f93565b602002602001015161337a9190615578565b9050600061338e63ffffffff8816836155c8565b905060008260060b1280156133b457506133ae63ffffffff881683615606565b60060b15155b156133c757806133c381615628565b9150505b945061188f9350505050565b60008060008360020b126133ea578260020b6133f2565b8260020b6000035b9050620d89e881111561342b5760405162461bcd60e51b81526020600482015260016024820152601560fa1b6044820152606401610a62565b60006001821661343f57600160801b613451565b6ffffcb933bd6fad37aa2d162d1a5940015b70ffffffffffffffffffffffffffffffffff1690506002821615613485576ffff97272373d413259a46990580e213a0260801c5b60048216156134a4576ffff2e50f5f656932ef12357cf3c7fdcc0260801c5b60088216156134c3576fffe5caca7e10e4e61c3624eaa0941cd00260801c5b60108216156134e2576fffcb9843d60f6159c9db58835c9266440260801c5b6020821615613501576fff973b41fa98c081472e6896dfb254c00260801c5b6040821615613520576fff2ea16466c96a3843ec78b326b528610260801c5b608082161561353f576ffe5dee046a99a2a811c461f1969c30530260801c5b61010082161561355f576ffcbe86c7900a88aedcffc83b479aa3a40260801c5b61020082161561357f576ff987a7253ac413176f2b074cf7815e540260801c5b61040082161561359f576ff3392b0822b70005940c7a398e4b70f30260801c5b6108008216156135bf576fe7159475a2c29b7443b29c7fa6e889d90260801c5b6110008216156135df576fd097f3bdfd2022b8845ad8f792aa58250260801c5b6120008216156135ff576fa9f746462d870fdf8a65dc1f90e061e50260801c5b61400082161561361f576f70d869a156d2a1b890bb3df62baf32f70260801c5b61800082161561363f576f31be135f97d08fd981231505542fcfa60260801c5b62010000821615613660576f09aa508b5b7a84e1c677de54f3e99bc90260801c5b62020000821615613680576e5d6af8dedb81196699c329225ee6040260801c5b6204000082161561369f576d2216e584f5fa1ea926041bedfe980260801c5b620800008216156136bc576b048a170391f7dc42444e8fa20260801c5b60008460020b13156136dd5780600019816136d9576136d961522f565b0490505b600160201b8106156136f05760016136f3565b60005b60ff16602082901c0192505050919050565b6001600160a01b0383811660009081526020839052604081206001015490916112299187918691166138ea565b6000805b6005811015612f3157600085826005811061375357613753614f93565b600591828204019190066006029054906101000a900465ffffffffffff1690508065ffffffffffff166000141561378a5750612f31565b65ffffffffffff8116600090815260018701602052604090206137ae908686613914565b6137b8908461511f565b92505080806137c690614fc2565b915050613736565b600061188f6123c283613aa3565b6000821561380a57506001600160a01b03831660009081526020829052604090206002015461ffff166123d0565b506001600160a01b03831660009081526020829052604090206002015462010000900461ffff166123d0565b6000805b600581101561272b57600083826005811061385757613857614f93565b600580820492909201549190066006026101000a900465ffffffffffff166000818152600186016020526040902090915061389190613b35565b61389b9084614e8b565b92505080806138a990614fc2565b91505061383a565b606083156138c05750816123d0565b8251156138d05782518084602001fd5b8160405162461bcd60e51b8152600401610a62919061564c565b82546000906138fe9084600160801b612ccc565b905061390a8483613b8c565b612b24908261511f565b600080600061399861398f856001600160a01b0316636719578c6040518163ffffffff1660e01b8152600401602060405180830381865afa15801561395d573d6000803e3d6000fd5b505050506040513d601f19601f8201168201806040525081019061398191906152a7565b6001600160a01b0316613005565b87906000613c11565b9150915060006139b0866001600160a01b031661295c565b9050816139c28483600160801b612ccc565b6139cc919061511f565b875460405163154cd3c960e11b81526101008204600290810b6004830152600160201b90920490910b6024820152909450600093506001600160a01b0386169250632a99a7929150604401608060405180830381865afa158015613a34573d6000803e3d6000fd5b505050506040513d601f19601f82011682018060405250810190613a58919061567f565b9050613a79613a74826060015187613cda90919063ffffffff16565b613d0a565b613a83908361511f565b81516040830151919350613a9991879190613d1c565b611229908361511f565b6000613ab982600101546001600160a01b031690565b6001830154604051630e56d76760e31b8152600160a01b90910463ffffffff1660048201526001600160a01b0391909116906372b6bb3890602401602060405180830381865afa158015613b11573d6000803e3d6000fd5b505050506040513d601f19601f8201168201806040525081019061188f91906152a7565b80546000908190613b4d90610100900460020b6133d3565b8354909150600090613b6890600160201b900460020b6133d3565b8454909150612b249083908390600160381b90046001600160801b03166001613d56565b600080826001600160a01b031663a3a1e7e96040518163ffffffff1660e01b8152600401602060405180830381865afa158015613bcd573d6000803e3d6000fd5b505050506040513d601f19601f82011682018060405250810190613bf19190614fa9565b90506000613c088286600201548760010154613e0b565b61122990614f76565b825460009081908190613c2b90610100900460020b6133d3565b8654909150600090613c4690600160201b900460020b6133d3565b9050856001600160a01b038084169082161015613c64575081613c81565b816001600160a01b0316876001600160a01b03161115613c815750805b8754613ca590613a749083908590600160381b90046001600160801b03168a613d56565b9450613ccd613a7484838b60000160079054906101000a90046001600160801b03168a613e26565b9350505050935093915050565b815460058301546000916123d091600160381b9091046001600160801b031690600160801b9061271e9086614ea3565b6000600160ff1b8210611eb557600080fd5b6002830154600384015460048501548554600093613d4d9387938793600160381b90046001600160801b0316613e96565b612b2490614f76565b6000836001600160a01b0316856001600160a01b03161115613d76579293925b6fffffffffffffffffffffffffffffffff60601b606084901b166001600160a01b038686038116908716613da957600080fd5b83613ddf57866001600160a01b0316613dcc8383896001600160a01b0316612d53565b81613dd957613dd961522f565b046131ac565b6131ac613df68383896001600160a01b0316613ebe565b886001600160a01b0316808204910615150190565b6000612b24613e1a84866156e4565b8390600160801b613efe565b6000836001600160a01b0316856001600160a01b03161115613e46579293925b81613e7357613e6e836001600160801b03168686036001600160a01b0316600160601b612d53565b611229565b611229836001600160801b03168686036001600160a01b0316600160601b613ebe565b60006131ac82600160801b613ead8888888d613f58565b613eb7908a6156e4565b9190613f7d565b6000613ecb848484612d53565b905060008280613edd57613edd61522f565b84860911156123d0576000198110613ef457600080fd5b6001019392505050565b60006001818080613f0f8885613fbb565b94509250613f1d8785613fbb565b94509150613f2b8685613fbb565b94509050613f3a838383612d53565b945083613f4d57613f4a85614f76565b94505b505050509392505050565b6000613f73613f6786846156e4565b8590600160801b613efe565b611229908461511f565b6000613f8a848484612ccc565b9050600081128015613faa5750613faa613fa385613fe5565b8484613ff0565b156123d057612b246000198261511f565b6000806000841215613fda57911591613fd384614f76565b9150613fde565b8391505b5092909150565b600061188f82611e9e565b6000818385098015612f3157506001949350505050565b8015158114611fcb57600080fd5b8035611e9981614007565b60006020828403121561403257600080fd5b81356123d081614007565b60006020828403121561404f57600080fd5b5035919050565b6003811061407457634e487b7160e01b600052602160045260246000fd5b9052565b6000608080830160018060a01b038089168552602088818701526040848188015283895180865260a089019150838b01955060005b818110156140d45786518051871684528501518584015295840195918301916001016140ad565b5050878103606089015288518082528382019550600581901b82018401848b0160005b838110156141f157848303601f19018952815180518916845287810151888501528681015187850152606080820151908501528a015160a08b850181905281519085018190529088019060009060c08601905b808310156141dc57835161415f838251614056565b8b8101518060020b8d850152508a81015160020b8b840152606081015161419160608501826001600160801b03169052565b508e8101518f84015260a081015160a084015260c081015160c084015260e081015160e084015261010080820151818501525050610120820191508a8401935060018301925061414a565b509a89019a94505050908601906001016140f7565b50909e9d5050505050505050505050505050565b6001600160a01b0381168114611fcb57600080fd5b600060e0828403121561272b57600080fd5b600080610100838503121561424057600080fd5b823561424b81614205565b915061425a846020850161421a565b90509250929050565b63ffffffff81168114611fcb57600080fd5b60008060006060848603121561428a57600080fd5b83359250602084013561429c81614263565b929592945050506040919091013590565b634e487b7160e01b600052604160045260246000fd5b60405160a081016001600160401b03811182821017156142e5576142e56142ad565b60405290565b60405161012081016001600160401b03811182821017156142e5576142e56142ad565b604080519081016001600160401b03811182821017156142e5576142e56142ad565b604051601f8201601f191681016001600160401b0381118282101715614358576143586142ad565b604052919050565b8035611e9981614205565b600080600083850360c081121561438157600080fd5b84359350602085013561439381614263565b92506080603f19820112156143a757600080fd5b50604051608081018181106001600160401b03821117156143ca576143ca6142ad565b6040908152850135815260608501356143e281614205565b602082015260808501356143f581614007565b604082015260a085013561440881614007565b606082015292959194509192509050565b6000806040838503121561442c57600080fd5b823561443781614205565b9150602083013561444781614007565b809150509250929050565b60006020828403121561446457600080fd5b81356123d081614205565b6000806040838503121561448257600080fd5b50508035926020909101359150565b6000602082840312156144a357600080fd5b81356123d081614263565b60008060008084860360c08112156144c557600080fd5b60608112156144d357600080fd5b509395606087013595506080870135945060a08701359350915050565b8060020b8114611fcb57600080fd5b6000806000806080858703121561451557600080fd5b84359350602085013561452781614263565b92506040850135614537816144f0565b91506060850135614547816144f0565b939692955090935050565b61ffff81168114611fcb57600080fd5b8035611e9981614552565b6000806000806080858703121561458357600080fd5b8435935060208501359250604085013561459c81614263565b9150606085013561454781614552565b600080600080600060a086880312156145c457600080fd5b853594506020860135935060408601356145dd81614263565b925060608601356145ed81614552565b949793965091946080013592915050565b600080600080600060a0868803121561461657600080fd5b853561462181614205565b9450602086013561463181614205565b9350604086013561464181614205565b9250606086013561465181614205565b9150608086013561466181614205565b809150509295509295909350565b60008082840360c081121561468357600080fd5b833561468e81614205565b925060a0601f19820112156146a257600080fd5b506020830190509250929050565b60006001600160401b038211156146c9576146c96142ad565b5060051b60200190565b600060208083850312156146e657600080fd5b82356001600160401b038111156146fc57600080fd5b8301601f8101851361470d57600080fd5b803561472061471b826146b0565b614330565b81815260059190911b8201830190838101908783111561473f57600080fd5b928401925b828410156131ac57833582529284019290840190614744565b6020808252825182820181905260009190848201906040850190845b8181101561479557835183529284019291840191600101614779565b50909695505050505050565b600080602083850312156147b457600080fd5b82356001600160401b03808211156147cb57600080fd5b818501915085601f8301126147df57600080fd5b8135818111156147ee57600080fd5b8660208260051b850101111561480357600080fd5b60209290920196919550909350505050565b6000806040838503121561482857600080fd5b82359150602083013561444781614007565b6000806000610120848603121561485057600080fd5b83359250602084013561486281614263565b9150614871856040860161421a565b90509250925092565b60008060006060848603121561488f57600080fd5b833561489a81614205565b925060208401356148aa81614205565b915060408401356148ba81614263565b809150509250925092565b600080600080600060a086880312156148dd57600080fd5b8535945060208601356148ef81614263565b935060408601356148ff816144f0565b925060608601356145ed816144f0565b60038110611fcb57600080fd5b8051611e998161490f565b8051611e99816144f0565b80516001600160801b0381168114611e9957600080fd5b600082601f83011261495a57600080fd5b8151602061496a61471b836146b0565b82815260059290921b8401810191818101908684111561498957600080fd5b8286015b84811015614b135780516001600160401b03808211156149ac57600080fd5b9088019060a0828b03601f190112156149c457600080fd5b6149cc6142c3565b868301516149d981614205565b80825250604083015187820152606083015160408201526080830151606082015260a083015182811115614a0c57600080fd5b8084019350508a603f840112614a2157600080fd5b868301519150614a3361471b836146b0565b82815261012092830284016040019288820191908d851115614a5457600080fd5b6040860195505b84861015614afd5780868f031215614a7257600080fd5b614a7a6142eb565b614a838761491c565b8152614a908b8801614927565b8b820152614aa060408801614927565b6040820152614ab160608801614932565b60608201526080870151608082015260a087015160a082015260c087015160c082015260e087015160e08201526101008701516101008201528084525089830192508086019550614a5b565b506080830152508552505091830191830161498d565b509695505050505050565b60008060008060808587031215614b3457600080fd5b8451614b3f81614205565b8094505060208086015193506040808701516001600160401b0380821115614b6657600080fd5b818901915089601f830112614b7a57600080fd5b8151614b8861471b826146b0565b81815260069190911b8301850190858101908c831115614ba757600080fd5b938601935b82851015614bf05785858e031215614bc45760008081fd5b614bcc61430e565b8551614bd781614205565b8152858801518882015282529385019390860190614bac565b60608c01519098509550505080841115614c0957600080fd5b505050614c1887828801614949565b91505092959194509250565b634e487b7160e01b600052600160045260246000fd5b80546001600160a01b0319166001600160a01b0392909216919091179055565b6000813561188f81614205565b80547fffffff0000000000000000000000000000000000000000ffffffffffffffffff1660489290921b6901000000000000000000600160e81b0316919091179055565b8135614cb681614552565b815461ffff191661ffff8216178255506020820135614cd481614552565b815463ffff00001916601082901b63ffff000016178255506040820135614cfa81614263565b815467ffffffff000000008260201b1691508167ffffffff000000001982161783556060840135614d2a81614007565b68ffffffffff00000000199190911690911790151560401b60ff60401b161781556080820135614d5981614205565b611a148183614c67565b8135614d6e81614205565b614d788183614c3a565b506020820135614d8781614205565b614d948160018401614c3a565b50600281016040830135614da781614552565b815461ffff191661ffff8216178255506060830135614dc581614552565b815463ffff00001916601082901b63ffff000016178255506080830135614deb81614263565b815467ffffffff000000008260201b1691508167ffffffff0000000019821617835560a0850135614e1b81614007565b68ffffffffff00000000199190911690911790151560401b60ff60401b16178155611a14614e4b60c08501614c5a565b82614c67565b60008060408385031215614e6457600080fd5b505080516020909101519092909150565b634e487b7160e01b600052601160045260246000fd5b60008219821115614e9e57614e9e614e75565b500190565b600082821015614eb557614eb5614e75565b500390565b8135614ec581614552565b815461ffff191661ffff8216178255506020820135614ee381614552565b815463ffff00001916601082901b63ffff000016178255506040820135614f0981614552565b815465ffff00000000191660209190911b65ffff000000001617905550565b6020808252602e908201527f496e697469616c697a61626c653a20636f6e747261637420697320616c72656160408201526d191e481a5b9a5d1a585b1a5e995960921b606082015260800190565b6000600160ff1b821415614f8c57614f8c614e75565b5060000390565b634e487b7160e01b600052603260045260246000fd5b600060208284031215614fbb57600080fd5b5051919050565b6000600019821415614fd657614fd6614e75565b5060010190565b600060208284031215614fef57600080fd5b81356123d081614552565b8035611e998161490f565b8481526001600160a01b038416602082015261014081018335615027816144f0565b60020b6040830152602084013561503d816144f0565b60020b60608301526040840135600f81900b811461505a57600080fd5b6150696080840182600f0b9052565b5061507660608501614360565b6001600160a01b031660a083015261509060808501614562565b61ffff1660c08301526150a560a08501614015565b151560e08301526150b860c08501614ffa565b6150c6610100840182614056565b508261012083015295945050505050565b60005b838110156150f25781810151838201526020016150da565b838111156116885750506000910152565b600082516151158184602087016150d7565b9190910192915050565b600080821280156001600160ff1b038490038513161561514157615141614e75565b600160ff1b839003841281161561515a5761515a614e75565b50500190565b600080828403608081121561517457600080fd5b835192506060601f198201121561518a57600080fd5b50604051606081018181106001600160401b03821117156151ad576151ad6142ad565b8060405250602084015181526040840151602082015260608401516040820152809150509250929050565b60006001600160a01b03838116908316818110156151f8576151f8614e75565b039392505050565b60006001600160a01b038281168482168115158284048211161561522657615226614e75565b02949350505050565b634e487b7160e01b600052601260045260246000fd5b60006001600160a01b038381168061525f5761525f61522f565b92169190910492915050565b60006020828403121561527d57600080fd5b81516123d081614007565b60008160001904831182151516156152a2576152a2614e75565b500290565b6000602082840312156152b957600080fd5b81516123d081614205565b600060ff821660ff8114156152db576152db614e75565b60010192915050565b60006001600160ff1b038184138284138082168684048611161561530a5761530a614e75565b600160ff1b600087128281168783058912161561532957615329614e75565b6000871292508782058712848416161561534557615345614e75565b8785058712818416161561535b5761535b614e75565b505050929093029392505050565b600080600080600080600060e0888a03121561538457600080fd5b875161538f81614205565b60208901519097506153a0816144f0565b60408901519096506153b181614552565b60608901519095506153c281614552565b60808901519094506153d381614552565b60a089015190935060ff811681146153ea57600080fd5b60c08901519092506153fb81614007565b8091505092959891949750929550565b6020808252825182820181905260009190848201906040850190845b8181101561479557835163ffffffff1683529284019291840191600101615427565b600082601f83011261545a57600080fd5b8151602061546a61471b836146b0565b82815260059290921b8401810191818101908684111561548957600080fd5b8286015b84811015614b135780516154a081614205565b835291830191830161548d565b600080604083850312156154c057600080fd5b82516001600160401b03808211156154d757600080fd5b818501915085601f8301126154eb57600080fd5b815160206154fb61471b836146b0565b82815260059290921b8401810191818101908984111561551a57600080fd5b948201945b838610156155485785518060060b81146155395760008081fd5b8252948201949082019061551f565b9188015191965090935050508082111561556157600080fd5b5061556e85828601615449565b9150509250929050565b60008160060b8360060b6000811281667fffffffffffff19018312811516156155a3576155a3614e75565b81667fffffffffffff0183138116156155be576155be614e75565b5090039392505050565b60008160060b8360060b806155df576155df61522f565b667fffffffffffff198214600019821416156155fd576155fd614e75565b90059392505050565b60008260060b806156195761561961522f565b808360060b0791505092915050565b60008160020b627fffff1981141561564257615642614e75565b6000190192915050565b602081526000825180602084015261566b8160408501602087016150d7565b601f01601f19169190910160400192915050565b60006080828403121561569157600080fd5b604051608081018181106001600160401b03821117156156b3576156b36142ad565b8060405250825181526020830151602082015260408301516040820152606083015160608201528091505092915050565b60008083128015600160ff1b85018412161561570257615702614e75565b6001600160ff1b038401831381161561571d5761571d614e75565b5050039056fea164736f6c634300080a000a",
  "libraries": {
    "Account": "0xab05b9A355B46bA8c12E0444956a775c10373273"
  },
  "devdoc": {
    "errors": {
      "AccessDenied(address)": [
        {
          "params": {
            "senderAddress": "address of msg sender"
          }
        }
      ],
      "LowNotionalValue(uint256)": [
        {
          "params": {
            "notionalValue": "notional value of txn"
          }
        }
      ],
      "UninitializedToken(uint32)": [
        {
          "params": {
            "vTokenTruncatedAddress": "unitialized truncated address supplied"
          }
        }
      ],
      "UnsupportedRToken(address)": [
        {
          "params": {
            "rTokenAddress": "address of token"
          }
        }
      ],
      "UnsupportedVToken(address)": [
        {
          "params": {
            "vToken": "address of token"
          }
        }
      ]
    },
    "kind": "dev",
    "methods": {
      "addMargin(uint256,uint32,uint256)": {
        "params": {
          "accountNo": "account number",
          "amount": "amount of token to deposit",
          "vTokenTruncatedAddress": "truncated address of token to deposit"
        }
      },
      "createAccount()": {
        "returns": {
          "newAccountId": "- serial number of the new account created"
        }
      },
      "governance()": {
        "details": "Returns the address of the current governance."
      },
      "liquidateLiquidityPositions(uint256)": {
        "details": "removes all the active range positions and gives liquidator a percent of notional amount closed + fixedFee",
        "params": {
          "accountNo": "account number"
        }
      },
      "liquidateLiquidityPositionsWithGasClaim(uint256,uint256)": {
        "details": "removes all the active range positions and gives liquidator a percent of notional amount closed + fixedFee",
        "params": {
          "accountNo": "account number",
          "gasComputationUnitsClaim": "estimated computation gas units, if more than actual, tx will revert"
        },
        "returns": {
          "keeperFee": ": amount of fees paid to caller"
        }
      },
      "liquidateTokenPosition(uint256,uint256,uint32,uint16)": {
        "details": "transfers the fraction of token position at a discount to current price to liquidators account and gives liquidator some fixedFee",
        "params": {
          "accountNo": "account number",
          "liquidationBps": "fraction of the token position to be transferred in BPS",
          "liquidatorAccountNo": "liquidator account number",
          "vTokenTruncatedAddress": "truncated address of token to withdraw"
        },
        "returns": {
          "liquidatorBalanceAdjustments": "- balance changes in liquidator base and token balance and net token position"
        }
      },
      "liquidateTokenPositionWithGasClaim(uint256,uint256,uint32,uint16,uint256)": {
        "details": "transfers the fraction of token position at a discount to current price to liquidators account and gives liquidator some fixedFee",
        "params": {
          "accountNo": "account number",
          "gasComputationUnitsClaim": "estimated computation gas units, if more than actual, tx will revert",
          "liquidationBps": "fraction of the token position to be transferred in BPS",
          "liquidatorAccountNo": "liquidator account number",
          "vTokenTruncatedAddress": "truncated address of token to withdraw"
        },
        "returns": {
          "liquidatorBalanceAdjustments": "- balance changes in liquidator base and token balance and net token position"
        }
      },
      "removeLimitOrder(uint256,uint32,int24,int24)": {
        "details": "checks the position of current price relative to limit order and checks limitOrderType",
        "params": {
          "accountNo": "account number",
          "tickLower": "liquidity change parameters",
          "tickUpper": "liquidity change parameters",
          "vTokenTruncatedAddress": "truncated address of token to withdraw"
        }
      },
      "removeMargin(uint256,uint32,uint256)": {
        "params": {
          "accountNo": "account number",
          "amount": "amount of token to withdraw",
          "vTokenTruncatedAddress": "truncated address of token to withdraw"
        }
      },
      "swapToken(uint256,uint32,(int256,uint160,bool,bool))": {
        "params": {
          "accountNo": "account number",
          "swapParams": "swap parameters",
          "vTokenTruncatedAddress": "truncated address of token to withdraw"
        }
      },
      "teamMultisig()": {
        "details": "Returns the address of the current team multisig.transferTeamMultisig"
      },
      "transferGovernance(address)": {
        "details": "Transfers governance to a new account (`newGovernance`). Can only be called by the current governance."
      },
      "transferTeamMultisig(address)": {
        "details": "Transfers teamMultisig to a new account (`newTeamMultisig`). Can only be called by the current teamMultisig or current governance."
      },
      "updateProfit(uint256,int256)": {
        "params": {
          "accountNo": "account number",
          "amount": "amount of token to withdraw"
        }
      },
      "updateRangeOrder(uint256,uint32,(int24,int24,int128,uint160,uint16,bool,uint8))": {
        "params": {
          "accountNo": "account number",
          "liquidityChangeParams": "liquidity change parameters",
          "vTokenTruncatedAddress": "truncated address of token to withdraw"
        }
      },
      "withdrawProtocolFee(address[])": {
        "params": {
          "wrapperAddresses": "list of wrapper addresses to collect fees from"
        }
      }
    },
    "version": 1
  },
  "userdoc": {
    "errors": {
      "AccessDenied(address)": [
        {
          "notice": "error to denote invalid account access"
        }
      ],
      "InvalidTokenLiquidationParameters()": [
        {
          "notice": "error to denote invalid token liquidation (fraction to liquidate> 1)"
        }
      ],
      "LowNotionalValue(uint256)": [
        {
          "notice": "error to denote low notional value of txn"
        }
      ],
      "SlippageBeyondTolerance()": [
        {
          "notice": "error to denote slippage of txn beyond set threshold"
        }
      ],
      "UninitializedToken(uint32)": [
        {
          "notice": "error to denote usage of unitialized token"
        }
      ],
      "UnsupportedRToken(address)": [
        {
          "notice": "error to denote usage of unsupported token"
        }
      ],
      "UnsupportedVToken(address)": [
        {
          "notice": "error to denote usage of unsupported token"
        }
      ]
    },
    "kind": "user",
    "methods": {
      "__ClearingHouse_init(address,address,address,address,address)": {
        "notice": "PLATFORM FUNCTIONS"
      },
      "addCollateralSupport(address,address,uint32)": {
        "notice": "ADMIN FUNCTIONS"
      },
      "addMargin(uint256,uint32,uint256)": {
        "notice": "deposits 'amount' of token associated with 'vTokenTruncatedAddress'"
      },
      "createAccount()": {
        "notice": "creates a new account and adds it to the accounts map"
      },
      "getAccountView(uint256)": {
        "notice": "Account.UserInfo VIEW"
      },
      "liquidateLiquidityPositions(uint256)": {
        "notice": "keeper call for liquidation of range position"
      },
      "liquidateLiquidityPositionsWithGasClaim(uint256,uint256)": {
        "notice": "keeper call for liquidation of range position"
      },
      "liquidateTokenPosition(uint256,uint256,uint32,uint16)": {
        "notice": "keeper call for liquidation of token position"
      },
      "liquidateTokenPositionWithGasClaim(uint256,uint256,uint32,uint16,uint256)": {
        "notice": "keeper call for liquidation of token position"
      },
      "protocolInfo()": {
        "notice": "Account.ProtocolInfo VIEW"
      },
      "removeLimitOrder(uint256,uint32,int24,int24)": {
        "notice": "keeper call to remove a limit order"
      },
      "removeLimitOrderWithGasClaim(uint256,uint32,int24,int24,uint256)": {
        "notice": "ALTERNATE LIQUIDATION METHODS FOR FIX FEE CLAIM"
      },
      "removeMargin(uint256,uint32,uint256)": {
        "notice": "withdraws 'amount' of token associated with 'vTokenTruncatedAddress'"
      },
      "swapToken(uint256,uint32,(int256,uint160,bool,bool))": {
        "notice": "swaps token associated with 'vTokenTruncatedAddress' by 'amount' (Long if amount>0 else Short)"
      },
      "updateProfit(uint256,int256)": {
        "notice": "withdraws 'amount' of base token from the profit made"
      },
      "updateRangeOrder(uint256,uint32,(int24,int24,int128,uint160,uint16,bool,uint8))": {
        "notice": "updates range order of token associated with 'vTokenTruncatedAddress' by 'liquidityDelta' (Adds if amount>0 else Removes)also can be used to update limitOrderType"
      },
      "withdrawProtocolFee(address[])": {
        "notice": "withdraws protocol fees collected in the supplied wrappers to team multisig"
      }
    },
    "version": 1
  },
  "storageLayout": {
    "storage": [
      {
        "astId": 252,
        "contract": "contracts/protocol/clearinghouse/ClearingHouseArbitrum.sol:ClearingHouseArbitrum",
        "label": "_initialized",
        "offset": 0,
        "slot": "0",
        "type": "t_bool"
      },
      {
        "astId": 255,
        "contract": "contracts/protocol/clearinghouse/ClearingHouseArbitrum.sol:ClearingHouseArbitrum",
        "label": "_initializing",
        "offset": 1,
        "slot": "0",
        "type": "t_bool"
      },
      {
        "astId": 26745,
        "contract": "contracts/protocol/clearinghouse/ClearingHouseArbitrum.sol:ClearingHouseArbitrum",
        "label": "_governance",
        "offset": 2,
        "slot": "0",
        "type": "t_address"
      },
      {
        "astId": 26747,
        "contract": "contracts/protocol/clearinghouse/ClearingHouseArbitrum.sol:ClearingHouseArbitrum",
        "label": "_teamMultisig",
        "offset": 0,
        "slot": "1",
        "type": "t_address"
      },
      {
        "astId": 19565,
        "contract": "contracts/protocol/clearinghouse/ClearingHouseArbitrum.sol:ClearingHouseArbitrum",
        "label": "_emptySlots1",
        "offset": 0,
        "slot": "2",
        "type": "t_array(t_uint256)98_storage"
      },
      {
        "astId": 19568,
        "contract": "contracts/protocol/clearinghouse/ClearingHouseArbitrum.sol:ClearingHouseArbitrum",
        "label": "protocol",
        "offset": 0,
        "slot": "100",
        "type": "t_struct(ProtocolInfo)8369_storage"
      },
      {
        "astId": 19573,
        "contract": "contracts/protocol/clearinghouse/ClearingHouseArbitrum.sol:ClearingHouseArbitrum",
        "label": "supportedVTokens",
        "offset": 0,
        "slot": "208",
        "type": "t_mapping(t_contract(IVToken)8253,t_bool)"
      },
      {
        "astId": 19577,
        "contract": "contracts/protocol/clearinghouse/ClearingHouseArbitrum.sol:ClearingHouseArbitrum",
        "label": "supportedDeposits",
        "offset": 0,
        "slot": "209",
        "type": "t_mapping(t_address,t_bool)"
      },
      {
        "astId": 19579,
        "contract": "contracts/protocol/clearinghouse/ClearingHouseArbitrum.sol:ClearingHouseArbitrum",
        "label": "numAccounts",
        "offset": 0,
        "slot": "210",
        "type": "t_uint256"
      },
      {
        "astId": 19584,
        "contract": "contracts/protocol/clearinghouse/ClearingHouseArbitrum.sol:ClearingHouseArbitrum",
        "label": "accounts",
        "offset": 0,
        "slot": "211",
        "type": "t_mapping(t_uint256,t_struct(UserInfo)8336_storage)"
      },
      {
        "astId": 19586,
        "contract": "contracts/protocol/clearinghouse/ClearingHouseArbitrum.sol:ClearingHouseArbitrum",
        "label": "paused",
        "offset": 0,
        "slot": "212",
        "type": "t_bool"
      },
      {
        "astId": 19589,
        "contract": "contracts/protocol/clearinghouse/ClearingHouseArbitrum.sol:ClearingHouseArbitrum",
        "label": "rBase",
        "offset": 1,
        "slot": "212",
        "type": "t_contract(IERC20)3180"
      },
      {
        "astId": 19591,
        "contract": "contracts/protocol/clearinghouse/ClearingHouseArbitrum.sol:ClearingHouseArbitrum",
        "label": "rageTradeFactoryAddress",
        "offset": 0,
        "slot": "213",
        "type": "t_address"
      },
      {
        "astId": 19594,
        "contract": "contracts/protocol/clearinghouse/ClearingHouseArbitrum.sol:ClearingHouseArbitrum",
        "label": "insuranceFund",
        "offset": 0,
        "slot": "214",
        "type": "t_contract(IInsuranceFund)8050"
      },
      {
        "astId": 19597,
        "contract": "contracts/protocol/clearinghouse/ClearingHouseArbitrum.sol:ClearingHouseArbitrum",
        "label": "nativeOracle",
        "offset": 0,
        "slot": "215",
        "type": "t_contract(IOracle)8060"
      },
      {
        "astId": 19601,
        "contract": "contracts/protocol/clearinghouse/ClearingHouseArbitrum.sol:ClearingHouseArbitrum",
        "label": "_emptySlots2",
        "offset": 0,
        "slot": "216",
        "type": "t_array(t_uint256)100_storage"
      },
      {
        "astId": 27310,
        "contract": "contracts/protocol/clearinghouse/ClearingHouseArbitrum.sol:ClearingHouseArbitrum",
        "label": "txGasPriceLimit",
        "offset": 0,
        "slot": "316",
        "type": "t_uint256"
      }
    ],
    "types": {
      "t_address": {
        "encoding": "inplace",
        "label": "address",
        "numberOfBytes": "20"
      },
      "t_array(t_uint256)100_storage": {
        "base": "t_uint256",
        "encoding": "inplace",
        "label": "uint256[100]",
        "numberOfBytes": "3200"
      },
      "t_array(t_uint256)98_storage": {
        "base": "t_uint256",
        "encoding": "inplace",
        "label": "uint256[98]",
        "numberOfBytes": "3136"
      },
      "t_array(t_uint32)8_storage": {
        "base": "t_uint32",
        "encoding": "inplace",
        "label": "uint32[8]",
        "numberOfBytes": "32"
      },
      "t_array(t_uint48)5_storage": {
        "base": "t_uint48",
        "encoding": "inplace",
        "label": "uint48[5]",
        "numberOfBytes": "32"
      },
      "t_bool": {
        "encoding": "inplace",
        "label": "bool",
        "numberOfBytes": "1"
      },
      "t_contract(IERC20)3180": {
        "encoding": "inplace",
        "label": "contract IERC20",
        "numberOfBytes": "20"
      },
      "t_contract(IInsuranceFund)8050": {
        "encoding": "inplace",
        "label": "contract IInsuranceFund",
        "numberOfBytes": "20"
      },
      "t_contract(IOracle)8060": {
        "encoding": "inplace",
        "label": "contract IOracle",
        "numberOfBytes": "20"
      },
      "t_contract(IUniswapV3Pool)5097": {
        "encoding": "inplace",
        "label": "contract IUniswapV3Pool",
        "numberOfBytes": "20"
      },
      "t_contract(IVBase)8084": {
        "encoding": "inplace",
        "label": "contract IVBase",
        "numberOfBytes": "20"
      },
      "t_contract(IVPoolWrapper)8229": {
        "encoding": "inplace",
        "label": "contract IVPoolWrapper",
        "numberOfBytes": "20"
      },
      "t_contract(IVToken)8253": {
        "encoding": "inplace",
        "label": "contract IVToken",
        "numberOfBytes": "20"
      },
      "t_enum(LimitOrderType)7622": {
        "encoding": "inplace",
        "label": "enum IClearingHouse.LimitOrderType",
        "numberOfBytes": "1"
      },
      "t_int24": {
        "encoding": "inplace",
        "label": "int24",
        "numberOfBytes": "3"
      },
      "t_int256": {
        "encoding": "inplace",
        "label": "int256",
        "numberOfBytes": "32"
      },
      "t_mapping(t_address,t_bool)": {
        "encoding": "mapping",
        "key": "t_address",
        "label": "mapping(address => bool)",
        "numberOfBytes": "32",
        "value": "t_bool"
      },
      "t_mapping(t_contract(IVToken)8253,t_bool)": {
        "encoding": "mapping",
        "key": "t_contract(IVToken)8253",
        "label": "mapping(contract IVToken => bool)",
        "numberOfBytes": "32",
        "value": "t_bool"
      },
      "t_mapping(t_contract(IVToken)8253,t_struct(RageTradePool)7606_storage)": {
        "encoding": "mapping",
        "key": "t_contract(IVToken)8253",
        "label": "mapping(contract IVToken => struct IClearingHouse.RageTradePool)",
        "numberOfBytes": "32",
        "value": "t_struct(RageTradePool)7606_storage"
      },
      "t_mapping(t_uint256,t_struct(UserInfo)8336_storage)": {
        "encoding": "mapping",
        "key": "t_uint256",
        "label": "mapping(uint256 => struct Account.UserInfo)",
        "numberOfBytes": "32",
        "value": "t_struct(UserInfo)8336_storage"
      },
      "t_mapping(t_uint32,t_contract(IVToken)8253)": {
        "encoding": "mapping",
        "key": "t_uint32",
        "label": "mapping(uint32 => contract IVToken)",
        "numberOfBytes": "32",
        "value": "t_contract(IVToken)8253"
      },
      "t_mapping(t_uint32,t_struct(Position)15685_storage)": {
        "encoding": "mapping",
        "key": "t_uint32",
        "label": "mapping(uint32 => struct VTokenPosition.Position)",
        "numberOfBytes": "32",
        "value": "t_struct(Position)15685_storage"
      },
      "t_mapping(t_uint32,t_struct(RToken)12301_storage)": {
        "encoding": "mapping",
        "key": "t_uint32",
        "label": "mapping(uint32 => struct RTokenLib.RToken)",
        "numberOfBytes": "32",
        "value": "t_struct(RToken)12301_storage"
      },
      "t_mapping(t_uint32,t_uint256)": {
        "encoding": "mapping",
        "key": "t_uint32",
        "label": "mapping(uint32 => uint256)",
        "numberOfBytes": "32",
        "value": "t_uint256"
      },
      "t_mapping(t_uint48,t_struct(Info)10619_storage)": {
        "encoding": "mapping",
        "key": "t_uint48",
        "label": "mapping(uint48 => struct LiquidityPosition.Info)",
        "numberOfBytes": "32",
        "value": "t_struct(Info)10619_storage"
      },
      "t_struct(Info)10619_storage": {
        "encoding": "inplace",
        "label": "struct LiquidityPosition.Info",
        "members": [
          {
            "astId": 10598,
            "contract": "contracts/protocol/clearinghouse/ClearingHouseArbitrum.sol:ClearingHouseArbitrum",
            "label": "limitOrderType",
            "offset": 0,
            "slot": "0",
            "type": "t_enum(LimitOrderType)7622"
          },
          {
            "astId": 10600,
            "contract": "contracts/protocol/clearinghouse/ClearingHouseArbitrum.sol:ClearingHouseArbitrum",
            "label": "tickLower",
            "offset": 1,
            "slot": "0",
            "type": "t_int24"
          },
          {
            "astId": 10602,
            "contract": "contracts/protocol/clearinghouse/ClearingHouseArbitrum.sol:ClearingHouseArbitrum",
            "label": "tickUpper",
            "offset": 4,
            "slot": "0",
            "type": "t_int24"
          },
          {
            "astId": 10604,
            "contract": "contracts/protocol/clearinghouse/ClearingHouseArbitrum.sol:ClearingHouseArbitrum",
            "label": "liquidity",
            "offset": 7,
            "slot": "0",
            "type": "t_uint128"
          },
          {
            "astId": 10606,
            "contract": "contracts/protocol/clearinghouse/ClearingHouseArbitrum.sol:ClearingHouseArbitrum",
            "label": "vTokenAmountIn",
            "offset": 0,
            "slot": "1",
            "type": "t_int256"
          },
          {
            "astId": 10608,
            "contract": "contracts/protocol/clearinghouse/ClearingHouseArbitrum.sol:ClearingHouseArbitrum",
            "label": "sumALastX128",
            "offset": 0,
            "slot": "2",
            "type": "t_int256"
          },
          {
            "astId": 10610,
            "contract": "contracts/protocol/clearinghouse/ClearingHouseArbitrum.sol:ClearingHouseArbitrum",
            "label": "sumBInsideLastX128",
            "offset": 0,
            "slot": "3",
            "type": "t_int256"
          },
          {
            "astId": 10612,
            "contract": "contracts/protocol/clearinghouse/ClearingHouseArbitrum.sol:ClearingHouseArbitrum",
            "label": "sumFpInsideLastX128",
            "offset": 0,
            "slot": "4",
            "type": "t_int256"
          },
          {
            "astId": 10614,
            "contract": "contracts/protocol/clearinghouse/ClearingHouseArbitrum.sol:ClearingHouseArbitrum",
            "label": "sumFeeInsideLastX128",
            "offset": 0,
            "slot": "5",
            "type": "t_uint256"
          },
          {
            "astId": 10618,
            "contract": "contracts/protocol/clearinghouse/ClearingHouseArbitrum.sol:ClearingHouseArbitrum",
            "label": "_emptySlots",
            "offset": 0,
            "slot": "6",
            "type": "t_array(t_uint256)100_storage"
          }
        ],
        "numberOfBytes": "3392"
      },
      "t_struct(Info)11340_storage": {
        "encoding": "inplace",
        "label": "struct LiquidityPositionSet.Info",
        "members": [
          {
            "astId": 11330,
            "contract": "contracts/protocol/clearinghouse/ClearingHouseArbitrum.sol:ClearingHouseArbitrum",
            "label": "active",
            "offset": 0,
            "slot": "0",
            "type": "t_array(t_uint48)5_storage"
          },
          {
            "astId": 11335,
            "contract": "contracts/protocol/clearinghouse/ClearingHouseArbitrum.sol:ClearingHouseArbitrum",
            "label": "positions",
            "offset": 0,
            "slot": "1",
            "type": "t_mapping(t_uint48,t_struct(Info)10619_storage)"
          },
          {
            "astId": 11339,
            "contract": "contracts/protocol/clearinghouse/ClearingHouseArbitrum.sol:ClearingHouseArbitrum",
            "label": "_emptySlots",
            "offset": 0,
            "slot": "2",
            "type": "t_array(t_uint256)100_storage"
          }
        ],
        "numberOfBytes": "3264"
      },
      "t_struct(Info)9949_storage": {
        "encoding": "inplace",
        "label": "struct DepositTokenSet.Info",
        "members": [
          {
            "astId": 9940,
            "contract": "contracts/protocol/clearinghouse/ClearingHouseArbitrum.sol:ClearingHouseArbitrum",
            "label": "active",
            "offset": 0,
            "slot": "0",
            "type": "t_array(t_uint32)8_storage"
          },
          {
            "astId": 9944,
            "contract": "contracts/protocol/clearinghouse/ClearingHouseArbitrum.sol:ClearingHouseArbitrum",
            "label": "deposits",
            "offset": 0,
            "slot": "1",
            "type": "t_mapping(t_uint32,t_uint256)"
          },
          {
            "astId": 9948,
            "contract": "contracts/protocol/clearinghouse/ClearingHouseArbitrum.sol:ClearingHouseArbitrum",
            "label": "_emptySlots",
            "offset": 0,
            "slot": "2",
            "type": "t_array(t_uint256)100_storage"
          }
        ],
        "numberOfBytes": "3264"
      },
      "t_struct(LiquidationParams)8376_storage": {
        "encoding": "inplace",
        "label": "struct Account.LiquidationParams",
        "members": [
          {
            "astId": 8371,
            "contract": "contracts/protocol/clearinghouse/ClearingHouseArbitrum.sol:ClearingHouseArbitrum",
            "label": "liquidationFeeFraction",
            "offset": 0,
            "slot": "0",
            "type": "t_uint16"
          },
          {
            "astId": 8373,
            "contract": "contracts/protocol/clearinghouse/ClearingHouseArbitrum.sol:ClearingHouseArbitrum",
            "label": "tokenLiquidationPriceDeltaBps",
            "offset": 2,
            "slot": "0",
            "type": "t_uint16"
          },
          {
            "astId": 8375,
            "contract": "contracts/protocol/clearinghouse/ClearingHouseArbitrum.sol:ClearingHouseArbitrum",
            "label": "insuranceFundFeeShareBps",
            "offset": 4,
            "slot": "0",
            "type": "t_uint16"
          }
        ],
        "numberOfBytes": "32"
      },
      "t_struct(Position)15685_storage": {
        "encoding": "inplace",
        "label": "struct VTokenPosition.Position",
        "members": [
          {
            "astId": 15673,
            "contract": "contracts/protocol/clearinghouse/ClearingHouseArbitrum.sol:ClearingHouseArbitrum",
            "label": "balance",
            "offset": 0,
            "slot": "0",
            "type": "t_int256"
          },
          {
            "astId": 15675,
            "contract": "contracts/protocol/clearinghouse/ClearingHouseArbitrum.sol:ClearingHouseArbitrum",
            "label": "netTraderPosition",
            "offset": 0,
            "slot": "1",
            "type": "t_int256"
          },
          {
            "astId": 15677,
            "contract": "contracts/protocol/clearinghouse/ClearingHouseArbitrum.sol:ClearingHouseArbitrum",
            "label": "sumAX128Ckpt",
            "offset": 0,
            "slot": "2",
            "type": "t_int256"
          },
          {
            "astId": 15680,
            "contract": "contracts/protocol/clearinghouse/ClearingHouseArbitrum.sol:ClearingHouseArbitrum",
            "label": "liquidityPositions",
            "offset": 0,
            "slot": "3",
            "type": "t_struct(Info)11340_storage"
          },
          {
            "astId": 15684,
            "contract": "contracts/protocol/clearinghouse/ClearingHouseArbitrum.sol:ClearingHouseArbitrum",
            "label": "_emptySlots",
            "offset": 0,
            "slot": "105",
            "type": "t_array(t_uint256)100_storage"
          }
        ],
        "numberOfBytes": "6560"
      },
      "t_struct(ProtocolInfo)8369_storage": {
        "encoding": "inplace",
        "label": "struct Account.ProtocolInfo",
        "members": [
          {
            "astId": 8342,
            "contract": "contracts/protocol/clearinghouse/ClearingHouseArbitrum.sol:ClearingHouseArbitrum",
            "label": "pools",
            "offset": 0,
            "slot": "0",
            "type": "t_mapping(t_contract(IVToken)8253,t_struct(RageTradePool)7606_storage)"
          },
          {
            "astId": 8347,
            "contract": "contracts/protocol/clearinghouse/ClearingHouseArbitrum.sol:ClearingHouseArbitrum",
            "label": "rTokens",
            "offset": 0,
            "slot": "1",
            "type": "t_mapping(t_uint32,t_struct(RToken)12301_storage)"
          },
          {
            "astId": 8352,
            "contract": "contracts/protocol/clearinghouse/ClearingHouseArbitrum.sol:ClearingHouseArbitrum",
            "label": "vTokens",
            "offset": 0,
            "slot": "2",
            "type": "t_mapping(t_uint32,t_contract(IVToken)8253)"
          },
          {
            "astId": 8355,
            "contract": "contracts/protocol/clearinghouse/ClearingHouseArbitrum.sol:ClearingHouseArbitrum",
            "label": "vBase",
            "offset": 0,
            "slot": "3",
            "type": "t_contract(IVBase)8084"
          },
          {
            "astId": 8358,
            "contract": "contracts/protocol/clearinghouse/ClearingHouseArbitrum.sol:ClearingHouseArbitrum",
            "label": "liquidationParams",
            "offset": 0,
            "slot": "4",
            "type": "t_struct(LiquidationParams)8376_storage"
          },
          {
            "astId": 8360,
            "contract": "contracts/protocol/clearinghouse/ClearingHouseArbitrum.sol:ClearingHouseArbitrum",
            "label": "minRequiredMargin",
            "offset": 0,
            "slot": "5",
            "type": "t_uint256"
          },
          {
            "astId": 8362,
            "contract": "contracts/protocol/clearinghouse/ClearingHouseArbitrum.sol:ClearingHouseArbitrum",
            "label": "removeLimitOrderFee",
            "offset": 0,
            "slot": "6",
            "type": "t_uint256"
          },
          {
            "astId": 8364,
            "contract": "contracts/protocol/clearinghouse/ClearingHouseArbitrum.sol:ClearingHouseArbitrum",
            "label": "minimumOrderNotional",
            "offset": 0,
            "slot": "7",
            "type": "t_uint256"
          },
          {
            "astId": 8368,
            "contract": "contracts/protocol/clearinghouse/ClearingHouseArbitrum.sol:ClearingHouseArbitrum",
            "label": "_emptySlots",
            "offset": 0,
            "slot": "8",
            "type": "t_array(t_uint256)100_storage"
          }
        ],
        "numberOfBytes": "3456"
      },
      "t_struct(RToken)12301_storage": {
        "encoding": "inplace",
        "label": "struct RTokenLib.RToken",
        "members": [
          {
            "astId": 12296,
            "contract": "contracts/protocol/clearinghouse/ClearingHouseArbitrum.sol:ClearingHouseArbitrum",
            "label": "tokenAddress",
            "offset": 0,
            "slot": "0",
            "type": "t_address"
          },
          {
            "astId": 12298,
            "contract": "contracts/protocol/clearinghouse/ClearingHouseArbitrum.sol:ClearingHouseArbitrum",
            "label": "oracleAddress",
            "offset": 0,
            "slot": "1",
            "type": "t_address"
          },
          {
            "astId": 12300,
            "contract": "contracts/protocol/clearinghouse/ClearingHouseArbitrum.sol:ClearingHouseArbitrum",
            "label": "oracleTimeHorizon",
            "offset": 20,
            "slot": "1",
            "type": "t_uint32"
          }
        ],
        "numberOfBytes": "64"
      },
      "t_struct(RageTradePool)7606_storage": {
        "encoding": "inplace",
        "label": "struct IClearingHouse.RageTradePool",
        "members": [
          {
            "astId": 7599,
            "contract": "contracts/protocol/clearinghouse/ClearingHouseArbitrum.sol:ClearingHouseArbitrum",
            "label": "vPool",
            "offset": 0,
            "slot": "0",
            "type": "t_contract(IUniswapV3Pool)5097"
          },
          {
            "astId": 7602,
            "contract": "contracts/protocol/clearinghouse/ClearingHouseArbitrum.sol:ClearingHouseArbitrum",
            "label": "vPoolWrapper",
            "offset": 0,
            "slot": "1",
            "type": "t_contract(IVPoolWrapper)8229"
          },
          {
            "astId": 7605,
            "contract": "contracts/protocol/clearinghouse/ClearingHouseArbitrum.sol:ClearingHouseArbitrum",
            "label": "settings",
            "offset": 0,
            "slot": "2",
            "type": "t_struct(RageTradePoolSettings)7618_storage"
          }
        ],
        "numberOfBytes": "96"
      },
      "t_struct(RageTradePoolSettings)7618_storage": {
        "encoding": "inplace",
        "label": "struct IClearingHouse.RageTradePoolSettings",
        "members": [
          {
            "astId": 7608,
            "contract": "contracts/protocol/clearinghouse/ClearingHouseArbitrum.sol:ClearingHouseArbitrum",
            "label": "initialMarginRatio",
            "offset": 0,
            "slot": "0",
            "type": "t_uint16"
          },
          {
            "astId": 7610,
            "contract": "contracts/protocol/clearinghouse/ClearingHouseArbitrum.sol:ClearingHouseArbitrum",
            "label": "maintainanceMarginRatio",
            "offset": 2,
            "slot": "0",
            "type": "t_uint16"
          },
          {
            "astId": 7612,
            "contract": "contracts/protocol/clearinghouse/ClearingHouseArbitrum.sol:ClearingHouseArbitrum",
            "label": "twapDuration",
            "offset": 4,
            "slot": "0",
            "type": "t_uint32"
          },
          {
            "astId": 7614,
            "contract": "contracts/protocol/clearinghouse/ClearingHouseArbitrum.sol:ClearingHouseArbitrum",
            "label": "whitelisted",
            "offset": 8,
            "slot": "0",
            "type": "t_bool"
          },
          {
            "astId": 7617,
            "contract": "contracts/protocol/clearinghouse/ClearingHouseArbitrum.sol:ClearingHouseArbitrum",
            "label": "oracle",
            "offset": 9,
            "slot": "0",
            "type": "t_contract(IOracle)8060"
          }
        ],
        "numberOfBytes": "32"
      },
      "t_struct(Set)15946_storage": {
        "encoding": "inplace",
        "label": "struct VTokenPositionSet.Set",
        "members": [
          {
            "astId": 15932,
            "contract": "contracts/protocol/clearinghouse/ClearingHouseArbitrum.sol:ClearingHouseArbitrum",
            "label": "accountNo",
            "offset": 0,
            "slot": "0",
            "type": "t_uint256"
          },
          {
            "astId": 15936,
            "contract": "contracts/protocol/clearinghouse/ClearingHouseArbitrum.sol:ClearingHouseArbitrum",
            "label": "active",
            "offset": 0,
            "slot": "1",
            "type": "t_array(t_uint32)8_storage"
          },
          {
            "astId": 15941,
            "contract": "contracts/protocol/clearinghouse/ClearingHouseArbitrum.sol:ClearingHouseArbitrum",
            "label": "positions",
            "offset": 0,
            "slot": "2",
            "type": "t_mapping(t_uint32,t_struct(Position)15685_storage)"
          },
          {
            "astId": 15945,
            "contract": "contracts/protocol/clearinghouse/ClearingHouseArbitrum.sol:ClearingHouseArbitrum",
            "label": "_emptySlots",
            "offset": 0,
            "slot": "3",
            "type": "t_array(t_uint256)100_storage"
          }
        ],
        "numberOfBytes": "3296"
      },
      "t_struct(UserInfo)8336_storage": {
        "encoding": "inplace",
        "label": "struct Account.UserInfo",
        "members": [
          {
            "astId": 8325,
            "contract": "contracts/protocol/clearinghouse/ClearingHouseArbitrum.sol:ClearingHouseArbitrum",
            "label": "owner",
            "offset": 0,
            "slot": "0",
            "type": "t_address"
          },
          {
            "astId": 8328,
            "contract": "contracts/protocol/clearinghouse/ClearingHouseArbitrum.sol:ClearingHouseArbitrum",
            "label": "tokenPositions",
            "offset": 0,
            "slot": "1",
            "type": "t_struct(Set)15946_storage"
          },
          {
            "astId": 8331,
            "contract": "contracts/protocol/clearinghouse/ClearingHouseArbitrum.sol:ClearingHouseArbitrum",
            "label": "tokenDeposits",
            "offset": 0,
            "slot": "104",
            "type": "t_struct(Info)9949_storage"
          },
          {
            "astId": 8335,
            "contract": "contracts/protocol/clearinghouse/ClearingHouseArbitrum.sol:ClearingHouseArbitrum",
            "label": "_emptySlots",
            "offset": 0,
            "slot": "206",
            "type": "t_array(t_uint256)100_storage"
          }
        ],
        "numberOfBytes": "9792"
      },
      "t_uint128": {
        "encoding": "inplace",
        "label": "uint128",
        "numberOfBytes": "16"
      },
      "t_uint16": {
        "encoding": "inplace",
        "label": "uint16",
        "numberOfBytes": "2"
      },
      "t_uint256": {
        "encoding": "inplace",
        "label": "uint256",
        "numberOfBytes": "32"
      },
      "t_uint32": {
        "encoding": "inplace",
        "label": "uint32",
        "numberOfBytes": "4"
      },
      "t_uint48": {
        "encoding": "inplace",
        "label": "uint48",
        "numberOfBytes": "6"
      }
    }
  }
}