{
  "address": "0x939A2a4eB2BD12106E81E3B7B822202DFd9b5bc1",
  "abi": [
    {
      "inputs": [
        {
          "internalType": "address",
          "name": "senderAddress",
          "type": "address"
        }
      ],
      "name": "AccessDenied",
      "type": "error"
    },
    {
      "inputs": [
        {
          "internalType": "uint32",
          "name": "collateralId",
          "type": "uint32"
        }
      ],
      "name": "CollateralDoesNotExist",
      "type": "error"
    },
    {
      "inputs": [
        {
          "internalType": "uint32",
          "name": "collateralId",
          "type": "uint32"
        }
      ],
      "name": "CollateralNotAllowedForUse",
      "type": "error"
    },
    {
      "inputs": [
        {
          "internalType": "uint160",
          "name": "sqrtPriceX96",
          "type": "uint160"
        }
      ],
      "name": "IllegalSqrtPrice",
      "type": "error"
    },
    {
      "inputs": [
        {
          "internalType": "contract IERC20",
          "name": "incorrectAddress",
          "type": "address"
        },
        {
          "internalType": "contract IERC20",
          "name": "correctAddress",
          "type": "address"
        }
      ],
      "name": "IncorrectCollateralAddress",
      "type": "error"
    },
    {
      "inputs": [
        {
          "internalType": "address",
          "name": "invalidAddress",
          "type": "address"
        }
      ],
      "name": "InvalidCollateralAddress",
      "type": "error"
    },
    {
      "inputs": [
        {
          "internalType": "enum IClearingHouseEnums.MulticallOperationType",
          "name": "multicallOperationType",
          "type": "uint8"
        }
      ],
      "name": "InvalidMulticallOperationType",
      "type": "error"
    },
    {
      "inputs": [],
      "name": "InvalidTokenLiquidationParameters",
      "type": "error"
    },
    {
      "inputs": [
        {
          "internalType": "int256",
          "name": "keeperFee",
          "type": "int256"
        }
      ],
      "name": "KeeperFeeNotPositive",
      "type": "error"
    },
    {
      "inputs": [
        {
          "internalType": "uint256",
          "name": "notionalValue",
          "type": "uint256"
        }
      ],
      "name": "LowNotionalValue",
      "type": "error"
    },
    {
      "inputs": [],
      "name": "NotRageTradeFactory",
      "type": "error"
    },
    {
      "inputs": [
        {
          "internalType": "uint32",
          "name": "poolId",
          "type": "uint32"
        }
      ],
      "name": "PoolDoesNotExist",
      "type": "error"
    },
    {
      "inputs": [
        {
          "internalType": "uint32",
          "name": "poolId",
          "type": "uint32"
        }
      ],
      "name": "PoolNotAllowedForTrade",
      "type": "error"
    },
    {
      "inputs": [
        {
          "internalType": "uint256",
          "name": "value",
          "type": "uint256"
        }
      ],
      "name": "SafeCast_UInt224Overflow",
      "type": "error"
    },
    {
      "inputs": [],
      "name": "SlippageBeyondTolerance",
      "type": "error"
    },
    {
      "inputs": [],
      "name": "T",
      "type": "error"
    },
    {
      "inputs": [],
      "name": "Unauthorised",
      "type": "error"
    },
    {
      "inputs": [],
      "name": "ZeroAddress",
      "type": "error"
    },
    {
      "inputs": [],
      "name": "ZeroAmount",
      "type": "error"
    },
    {
      "anonymous": false,
      "inputs": [
        {
          "indexed": true,
          "internalType": "address",
          "name": "ownerAddress",
          "type": "address"
        },
        {
          "indexed": false,
          "internalType": "uint256",
          "name": "accountId",
          "type": "uint256"
        }
      ],
      "name": "AccountCreated",
      "type": "event"
    },
    {
      "anonymous": false,
      "inputs": [
        {
          "indexed": false,
          "internalType": "contract IERC20",
          "name": "cToken",
          "type": "address"
        },
        {
          "components": [
            {
              "internalType": "contract IOracle",
              "name": "oracle",
              "type": "address"
            },
            {
              "internalType": "uint32",
              "name": "twapDuration",
              "type": "uint32"
            },
            {
              "internalType": "bool",
              "name": "isAllowedForDeposit",
              "type": "bool"
            }
          ],
          "indexed": false,
          "internalType": "struct IClearingHouseStructures.CollateralSettings",
          "name": "cTokenInfo",
          "type": "tuple"
        }
      ],
      "name": "CollateralSettingsUpdated",
      "type": "event"
    },
    {
      "anonymous": false,
      "inputs": [
        {
          "indexed": true,
          "internalType": "address",
          "name": "previousGovernance",
          "type": "address"
        },
        {
          "indexed": true,
          "internalType": "address",
          "name": "newGovernance",
          "type": "address"
        }
      ],
      "name": "GovernanceTransferred",
      "type": "event"
    },
    {
      "anonymous": false,
      "inputs": [
        {
          "indexed": false,
          "internalType": "address",
          "name": "account",
          "type": "address"
        }
      ],
      "name": "Paused",
      "type": "event"
    },
    {
      "anonymous": false,
      "inputs": [
        {
          "indexed": false,
          "internalType": "bool",
          "name": "paused",
          "type": "bool"
        }
      ],
      "name": "PausedUpdated",
      "type": "event"
    },
    {
      "anonymous": false,
      "inputs": [
        {
          "indexed": false,
          "internalType": "uint32",
          "name": "poolId",
          "type": "uint32"
        },
        {
          "components": [
            {
              "internalType": "uint16",
              "name": "initialMarginRatioBps",
              "type": "uint16"
            },
            {
              "internalType": "uint16",
              "name": "maintainanceMarginRatioBps",
              "type": "uint16"
            },
            {
              "internalType": "uint16",
              "name": "maxVirtualPriceDeviationRatioBps",
              "type": "uint16"
            },
            {
              "internalType": "uint32",
              "name": "twapDuration",
              "type": "uint32"
            },
            {
              "internalType": "bool",
              "name": "isAllowedForTrade",
              "type": "bool"
            },
            {
              "internalType": "bool",
              "name": "isCrossMargined",
              "type": "bool"
            },
            {
              "internalType": "contract IOracle",
              "name": "oracle",
              "type": "address"
            }
          ],
          "indexed": false,
          "internalType": "struct IClearingHouseStructures.PoolSettings",
          "name": "settings",
          "type": "tuple"
        }
      ],
      "name": "PoolSettingsUpdated",
      "type": "event"
    },
    {
      "anonymous": false,
      "inputs": [
        {
          "components": [
            {
              "internalType": "uint16",
              "name": "rangeLiquidationFeeFraction",
              "type": "uint16"
            },
            {
              "internalType": "uint16",
              "name": "tokenLiquidationFeeFraction",
              "type": "uint16"
            },
            {
              "internalType": "uint16",
              "name": "closeFactorMMThresholdBps",
              "type": "uint16"
            },
            {
              "internalType": "uint16",
              "name": "partialLiquidationCloseFactorBps",
              "type": "uint16"
            },
            {
              "internalType": "uint16",
              "name": "insuranceFundFeeShareBps",
              "type": "uint16"
            },
            {
              "internalType": "uint16",
              "name": "liquidationSlippageSqrtToleranceBps",
              "type": "uint16"
            },
            {
              "internalType": "uint64",
              "name": "maxRangeLiquidationFees",
              "type": "uint64"
            },
            {
              "internalType": "uint64",
              "name": "minNotionalLiquidatable",
              "type": "uint64"
            }
          ],
          "indexed": false,
          "internalType": "struct IClearingHouseStructures.LiquidationParams",
          "name": "liquidationParams",
          "type": "tuple"
        },
        {
          "indexed": false,
          "internalType": "uint256",
          "name": "removeLimitOrderFee",
          "type": "uint256"
        },
        {
          "indexed": false,
          "internalType": "uint256",
          "name": "minimumOrderNotional",
          "type": "uint256"
        },
        {
          "indexed": false,
          "internalType": "uint256",
          "name": "minRequiredMargin",
          "type": "uint256"
        }
      ],
      "name": "ProtocolSettingsUpdated",
      "type": "event"
    },
    {
      "anonymous": false,
      "inputs": [
        {
          "indexed": true,
          "internalType": "address",
          "name": "previousTeamMultisig",
          "type": "address"
        },
        {
          "indexed": true,
          "internalType": "address",
          "name": "newTeamMultisig",
          "type": "address"
        }
      ],
      "name": "TeamMultisigTransferred",
      "type": "event"
    },
    {
      "anonymous": false,
      "inputs": [
        {
          "indexed": false,
          "internalType": "address",
          "name": "account",
          "type": "address"
        }
      ],
      "name": "Unpaused",
      "type": "event"
    },
    {
      "inputs": [],
      "name": "createAccount",
      "outputs": [
        {
          "internalType": "uint256",
          "name": "newAccountId",
          "type": "uint256"
        }
      ],
      "stateMutability": "nonpayable",
      "type": "function"
    },
    {
      "inputs": [
        {
          "internalType": "uint32",
          "name": "collateralId",
          "type": "uint32"
        },
        {
          "internalType": "uint256",
          "name": "amount",
          "type": "uint256"
        }
      ],
      "name": "createAccountAndAddMargin",
      "outputs": [
        {
          "internalType": "uint256",
          "name": "newAccountId",
          "type": "uint256"
        }
      ],
      "stateMutability": "nonpayable",
      "type": "function"
    },
    {
      "inputs": [
        {
          "internalType": "bytes32",
          "name": "slot",
          "type": "bytes32"
        }
      ],
      "name": "extsload",
      "outputs": [
        {
          "internalType": "bytes32",
          "name": "val",
          "type": "bytes32"
        }
      ],
      "stateMutability": "view",
      "type": "function"
    },
    {
      "inputs": [
        {
          "internalType": "bytes32[]",
          "name": "slots",
          "type": "bytes32[]"
        }
      ],
      "name": "extsload",
      "outputs": [
        {
          "internalType": "bytes32[]",
          "name": "",
          "type": "bytes32[]"
        }
      ],
      "stateMutability": "view",
      "type": "function"
    },
    {
      "inputs": [
        {
          "internalType": "uint256",
          "name": "accountId",
          "type": "uint256"
        }
      ],
      "name": "getAccountInfo",
      "outputs": [
        {
          "internalType": "address",
          "name": "owner",
          "type": "address"
        },
        {
          "internalType": "int256",
          "name": "vQuoteBalance",
          "type": "int256"
        },
        {
          "components": [
            {
              "internalType": "contract IERC20",
              "name": "collateral",
              "type": "address"
            },
            {
              "internalType": "uint256",
              "name": "balance",
              "type": "uint256"
            }
          ],
          "internalType": "struct IClearingHouseStructures.CollateralDepositView[]",
          "name": "collateralDeposits",
          "type": "tuple[]"
        },
        {
          "components": [
            {
              "internalType": "uint32",
              "name": "poolId",
              "type": "uint32"
            },
            {
              "internalType": "int256",
              "name": "balance",
              "type": "int256"
            },
            {
              "internalType": "int256",
              "name": "netTraderPosition",
              "type": "int256"
            },
            {
              "internalType": "int256",
              "name": "sumALastX128",
              "type": "int256"
            },
            {
              "components": [
                {
                  "internalType": "int24",
                  "name": "tickLower",
                  "type": "int24"
                },
                {
                  "internalType": "int24",
                  "name": "tickUpper",
                  "type": "int24"
                },
                {
                  "internalType": "uint128",
                  "name": "liquidity",
                  "type": "uint128"
                },
                {
                  "internalType": "int256",
                  "name": "vTokenAmountIn",
                  "type": "int256"
                },
                {
                  "internalType": "int256",
                  "name": "sumALastX128",
                  "type": "int256"
                },
                {
                  "internalType": "int256",
                  "name": "sumBInsideLastX128",
                  "type": "int256"
                },
                {
                  "internalType": "int256",
                  "name": "sumFpInsideLastX128",
                  "type": "int256"
                },
                {
                  "internalType": "uint256",
                  "name": "sumFeeInsideLastX128",
                  "type": "uint256"
                },
                {
                  "internalType": "enum IClearingHouseEnums.LimitOrderType",
                  "name": "limitOrderType",
                  "type": "uint8"
                }
              ],
              "internalType": "struct IClearingHouseStructures.LiquidityPositionView[]",
              "name": "liquidityPositions",
              "type": "tuple[]"
            }
          ],
          "internalType": "struct IClearingHouseStructures.VTokenPositionView[]",
          "name": "tokenPositions",
          "type": "tuple[]"
        }
      ],
      "stateMutability": "view",
      "type": "function"
    },
    {
      "inputs": [
        {
          "internalType": "uint256",
          "name": "accountId",
          "type": "uint256"
        },
        {
          "internalType": "bool",
          "name": "isInitialMargin",
          "type": "bool"
        }
      ],
      "name": "getAccountMarketValueAndRequiredMargin",
      "outputs": [
        {
          "internalType": "int256",
          "name": "marketValue",
          "type": "int256"
        },
        {
          "internalType": "int256",
          "name": "requiredMargin",
          "type": "int256"
        }
      ],
      "stateMutability": "view",
      "type": "function"
    },
    {
      "inputs": [
        {
          "internalType": "uint256",
          "name": "accountId",
          "type": "uint256"
        }
      ],
      "name": "getAccountNetProfit",
      "outputs": [
        {
          "internalType": "int256",
          "name": "accountNetProfit",
          "type": "int256"
        }
      ],
      "stateMutability": "view",
      "type": "function"
    },
    {
      "inputs": [
        {
          "internalType": "uint256",
          "name": "accountId",
          "type": "uint256"
        },
        {
          "internalType": "uint32",
          "name": "poolId",
          "type": "uint32"
        }
      ],
      "name": "getAccountNetTokenPosition",
      "outputs": [
        {
          "internalType": "int256",
          "name": "netPosition",
          "type": "int256"
        }
      ],
      "stateMutability": "view",
      "type": "function"
    },
    {
      "inputs": [
        {
          "internalType": "uint32",
          "name": "collateralId",
          "type": "uint32"
        }
      ],
      "name": "getCollateralInfo",
      "outputs": [
        {
          "components": [
            {
              "internalType": "contract IERC20",
              "name": "token",
              "type": "address"
            },
            {
              "components": [
                {
                  "internalType": "contract IOracle",
                  "name": "oracle",
                  "type": "address"
                },
                {
                  "internalType": "uint32",
                  "name": "twapDuration",
                  "type": "uint32"
                },
                {
                  "internalType": "bool",
                  "name": "isAllowedForDeposit",
                  "type": "bool"
                }
              ],
              "internalType": "struct IClearingHouseStructures.CollateralSettings",
              "name": "settings",
              "type": "tuple"
            }
          ],
          "internalType": "struct IClearingHouseStructures.Collateral",
          "name": "",
          "type": "tuple"
        }
      ],
      "stateMutability": "view",
      "type": "function"
    },
    {
      "inputs": [
        {
          "internalType": "uint32",
          "name": "poolId",
          "type": "uint32"
        }
      ],
      "name": "getPoolInfo",
      "outputs": [
        {
          "components": [
            {
              "internalType": "contract IVToken",
              "name": "vToken",
              "type": "address"
            },
            {
              "internalType": "contract IUniswapV3Pool",
              "name": "vPool",
              "type": "address"
            },
            {
              "internalType": "contract IVPoolWrapper",
              "name": "vPoolWrapper",
              "type": "address"
            },
            {
              "components": [
                {
                  "internalType": "uint16",
                  "name": "initialMarginRatioBps",
                  "type": "uint16"
                },
                {
                  "internalType": "uint16",
                  "name": "maintainanceMarginRatioBps",
                  "type": "uint16"
                },
                {
                  "internalType": "uint16",
                  "name": "maxVirtualPriceDeviationRatioBps",
                  "type": "uint16"
                },
                {
                  "internalType": "uint32",
                  "name": "twapDuration",
                  "type": "uint32"
                },
                {
                  "internalType": "bool",
                  "name": "isAllowedForTrade",
                  "type": "bool"
                },
                {
                  "internalType": "bool",
                  "name": "isCrossMargined",
                  "type": "bool"
                },
                {
                  "internalType": "contract IOracle",
                  "name": "oracle",
                  "type": "address"
                }
              ],
              "internalType": "struct IClearingHouseStructures.PoolSettings",
              "name": "settings",
              "type": "tuple"
            }
          ],
          "internalType": "struct IClearingHouseStructures.Pool",
          "name": "",
          "type": "tuple"
        }
      ],
      "stateMutability": "view",
      "type": "function"
    },
    {
      "inputs": [],
      "name": "getProtocolInfo",
      "outputs": [
        {
          "internalType": "contract IERC20",
          "name": "settlementToken",
          "type": "address"
        },
        {
          "internalType": "contract IVQuote",
          "name": "vQuote",
          "type": "address"
        },
        {
          "components": [
            {
              "internalType": "uint16",
              "name": "rangeLiquidationFeeFraction",
              "type": "uint16"
            },
            {
              "internalType": "uint16",
              "name": "tokenLiquidationFeeFraction",
              "type": "uint16"
            },
            {
              "internalType": "uint16",
              "name": "closeFactorMMThresholdBps",
              "type": "uint16"
            },
            {
              "internalType": "uint16",
              "name": "partialLiquidationCloseFactorBps",
              "type": "uint16"
            },
            {
              "internalType": "uint16",
              "name": "insuranceFundFeeShareBps",
              "type": "uint16"
            },
            {
              "internalType": "uint16",
              "name": "liquidationSlippageSqrtToleranceBps",
              "type": "uint16"
            },
            {
              "internalType": "uint64",
              "name": "maxRangeLiquidationFees",
              "type": "uint64"
            },
            {
              "internalType": "uint64",
              "name": "minNotionalLiquidatable",
              "type": "uint64"
            }
          ],
          "internalType": "struct IClearingHouseStructures.LiquidationParams",
          "name": "liquidationParams",
          "type": "tuple"
        },
        {
          "internalType": "uint256",
          "name": "minRequiredMargin",
          "type": "uint256"
        },
        {
          "internalType": "uint256",
          "name": "removeLimitOrderFee",
          "type": "uint256"
        },
        {
          "internalType": "uint256",
          "name": "minimumOrderNotional",
          "type": "uint256"
        }
      ],
      "stateMutability": "view",
      "type": "function"
    },
    {
      "inputs": [
        {
          "internalType": "uint32",
          "name": "poolId",
          "type": "uint32"
        }
      ],
      "name": "getRealTwapPriceX128",
      "outputs": [
        {
          "internalType": "uint256",
          "name": "realPriceX128",
          "type": "uint256"
        }
      ],
      "stateMutability": "view",
      "type": "function"
    },
    {
      "inputs": [
        {
          "internalType": "uint32",
          "name": "poolId",
          "type": "uint32"
        }
      ],
      "name": "getVirtualTwapPriceX128",
      "outputs": [
        {
          "internalType": "uint256",
          "name": "virtualPriceX128",
          "type": "uint256"
        }
      ],
      "stateMutability": "view",
      "type": "function"
    },
    {
      "inputs": [],
      "name": "governance",
      "outputs": [
        {
          "internalType": "address",
          "name": "",
          "type": "address"
        }
      ],
      "stateMutability": "view",
      "type": "function"
    },
    {
      "inputs": [
        {
          "internalType": "address",
          "name": "_rageTradeFactoryAddress",
          "type": "address"
        },
        {
          "internalType": "contract IERC20",
          "name": "_defaultCollateralToken",
          "type": "address"
        },
        {
          "internalType": "contract IOracle",
          "name": "_defaultCollateralTokenOracle",
          "type": "address"
        },
        {
          "internalType": "contract IInsuranceFund",
          "name": "_insuranceFund",
          "type": "address"
        },
        {
          "internalType": "contract IVQuote",
          "name": "_vQuote",
          "type": "address"
        }
      ],
      "name": "initialize",
      "outputs": [],
      "stateMutability": "nonpayable",
      "type": "function"
    },
    {
      "inputs": [],
      "name": "insuranceFund",
      "outputs": [
        {
          "internalType": "contract IInsuranceFund",
          "name": "",
          "type": "address"
        }
      ],
      "stateMutability": "view",
      "type": "function"
    },
    {
      "inputs": [
        {
          "internalType": "uint32",
          "name": "poolId",
          "type": "uint32"
        }
      ],
      "name": "isPoolIdAvailable",
      "outputs": [
        {
          "internalType": "bool",
          "name": "",
          "type": "bool"
        }
      ],
      "stateMutability": "view",
      "type": "function"
    },
    {
      "inputs": [
        {
          "internalType": "uint256",
          "name": "accountId",
          "type": "uint256"
        }
      ],
      "name": "liquidateLiquidityPositions",
      "outputs": [],
      "stateMutability": "nonpayable",
      "type": "function"
    },
    {
      "inputs": [
        {
          "internalType": "uint256",
          "name": "targetAccountId",
          "type": "uint256"
        },
        {
          "internalType": "uint32",
          "name": "poolId",
          "type": "uint32"
        }
      ],
      "name": "liquidateTokenPosition",
      "outputs": [
        {
          "internalType": "int256",
          "name": "keeperFee",
          "type": "int256"
        }
      ],
      "stateMutability": "nonpayable",
      "type": "function"
    },
    {
      "inputs": [
        {
          "internalType": "bytes[]",
          "name": "data",
          "type": "bytes[]"
        }
      ],
      "name": "multicall",
      "outputs": [
        {
          "internalType": "bytes[]",
          "name": "results",
          "type": "bytes[]"
        }
      ],
      "stateMutability": "payable",
      "type": "function"
    },
    {
      "inputs": [
        {
          "internalType": "uint256",
          "name": "accountId",
          "type": "uint256"
        },
        {
          "components": [
            {
              "internalType": "enum IClearingHouseEnums.MulticallOperationType",
              "name": "operationType",
              "type": "uint8"
            },
            {
              "internalType": "bytes",
              "name": "data",
              "type": "bytes"
            }
          ],
          "internalType": "struct IClearingHouseStructures.MulticallOperation[]",
          "name": "operations",
          "type": "tuple[]"
        }
      ],
      "name": "multicallWithSingleMarginCheck",
      "outputs": [
        {
          "internalType": "bytes[]",
          "name": "results",
          "type": "bytes[]"
        }
      ],
      "stateMutability": "nonpayable",
      "type": "function"
    },
    {
      "inputs": [],
      "name": "numAccounts",
      "outputs": [
        {
          "internalType": "uint256",
          "name": "",
          "type": "uint256"
        }
      ],
      "stateMutability": "view",
      "type": "function"
    },
    {
      "inputs": [
        {
          "internalType": "uint32[]",
          "name": "allPoolIds",
          "type": "uint32[]"
        }
      ],
      "name": "pause",
      "outputs": [],
      "stateMutability": "nonpayable",
      "type": "function"
    },
    {
      "inputs": [],
      "name": "paused",
      "outputs": [
        {
          "internalType": "bool",
          "name": "",
          "type": "bool"
        }
      ],
      "stateMutability": "view",
      "type": "function"
    },
    {
      "inputs": [],
      "name": "rageTradeFactoryAddress",
      "outputs": [
        {
          "internalType": "address",
          "name": "",
          "type": "address"
        }
      ],
      "stateMutability": "view",
      "type": "function"
    },
    {
      "inputs": [
        {
          "components": [
            {
              "internalType": "contract IVToken",
              "name": "vToken",
              "type": "address"
            },
            {
              "internalType": "contract IUniswapV3Pool",
              "name": "vPool",
              "type": "address"
            },
            {
              "internalType": "contract IVPoolWrapper",
              "name": "vPoolWrapper",
              "type": "address"
            },
            {
              "components": [
                {
                  "internalType": "uint16",
                  "name": "initialMarginRatioBps",
                  "type": "uint16"
                },
                {
                  "internalType": "uint16",
                  "name": "maintainanceMarginRatioBps",
                  "type": "uint16"
                },
                {
                  "internalType": "uint16",
                  "name": "maxVirtualPriceDeviationRatioBps",
                  "type": "uint16"
                },
                {
                  "internalType": "uint32",
                  "name": "twapDuration",
                  "type": "uint32"
                },
                {
                  "internalType": "bool",
                  "name": "isAllowedForTrade",
                  "type": "bool"
                },
                {
                  "internalType": "bool",
                  "name": "isCrossMargined",
                  "type": "bool"
                },
                {
                  "internalType": "contract IOracle",
                  "name": "oracle",
                  "type": "address"
                }
              ],
              "internalType": "struct IClearingHouseStructures.PoolSettings",
              "name": "settings",
              "type": "tuple"
            }
          ],
          "internalType": "struct IClearingHouseStructures.Pool",
          "name": "poolInfo",
          "type": "tuple"
        }
      ],
      "name": "registerPool",
      "outputs": [],
      "stateMutability": "nonpayable",
      "type": "function"
    },
    {
      "inputs": [
        {
          "internalType": "uint256",
          "name": "accountId",
          "type": "uint256"
        },
        {
          "internalType": "uint32",
          "name": "poolId",
          "type": "uint32"
        },
        {
          "internalType": "int24",
          "name": "tickLower",
          "type": "int24"
        },
        {
          "internalType": "int24",
          "name": "tickUpper",
          "type": "int24"
        }
      ],
      "name": "removeLimitOrder",
      "outputs": [],
      "stateMutability": "nonpayable",
      "type": "function"
    },
    {
      "inputs": [
        {
          "internalType": "uint256",
          "name": "accountId",
          "type": "uint256"
        }
      ],
      "name": "settleProfit",
      "outputs": [],
      "stateMutability": "nonpayable",
      "type": "function"
    },
    {
      "inputs": [
        {
          "internalType": "uint256",
          "name": "accountId",
          "type": "uint256"
        },
        {
          "internalType": "uint32",
          "name": "poolId",
          "type": "uint32"
        },
        {
          "components": [
            {
              "internalType": "int256",
              "name": "amount",
              "type": "int256"
            },
            {
              "internalType": "uint160",
              "name": "sqrtPriceLimit",
              "type": "uint160"
            },
            {
              "internalType": "bool",
              "name": "isNotional",
              "type": "bool"
            },
            {
              "internalType": "bool",
              "name": "isPartialAllowed",
              "type": "bool"
            },
            {
              "internalType": "bool",
              "name": "settleProfit",
              "type": "bool"
            }
          ],
          "internalType": "struct IClearingHouseStructures.SwapParams",
          "name": "swapParams",
          "type": "tuple"
        }
      ],
      "name": "swapToken",
      "outputs": [
        {
          "internalType": "int256",
          "name": "vTokenAmountOut",
          "type": "int256"
        },
        {
          "internalType": "int256",
          "name": "vQuoteAmountOut",
          "type": "int256"
        }
      ],
      "stateMutability": "nonpayable",
      "type": "function"
    },
    {
      "inputs": [],
      "name": "teamMultisig",
      "outputs": [
        {
          "internalType": "address",
          "name": "",
          "type": "address"
        }
      ],
      "stateMutability": "view",
      "type": "function"
    },
    {
      "inputs": [
        {
          "internalType": "address",
          "name": "newGovernance",
          "type": "address"
        }
      ],
      "name": "transferGovernance",
      "outputs": [],
      "stateMutability": "nonpayable",
      "type": "function"
    },
    {
      "inputs": [
        {
          "internalType": "address",
          "name": "newTeamMultisig",
          "type": "address"
        }
      ],
      "name": "transferTeamMultisig",
      "outputs": [],
      "stateMutability": "nonpayable",
      "type": "function"
    },
    {
      "inputs": [
        {
          "internalType": "uint32[]",
          "name": "allPoolIds",
          "type": "uint32[]"
        }
      ],
      "name": "unpause",
      "outputs": [],
      "stateMutability": "nonpayable",
      "type": "function"
    },
    {
      "inputs": [
        {
          "internalType": "contract IERC20",
          "name": "cToken",
          "type": "address"
        },
        {
          "components": [
            {
              "internalType": "contract IOracle",
              "name": "oracle",
              "type": "address"
            },
            {
              "internalType": "uint32",
              "name": "twapDuration",
              "type": "uint32"
            },
            {
              "internalType": "bool",
              "name": "isAllowedForDeposit",
              "type": "bool"
            }
          ],
          "internalType": "struct IClearingHouseStructures.CollateralSettings",
          "name": "collateralSettings",
          "type": "tuple"
        }
      ],
      "name": "updateCollateralSettings",
      "outputs": [],
      "stateMutability": "nonpayable",
      "type": "function"
    },
    {
      "inputs": [
        {
          "internalType": "uint256",
          "name": "accountId",
          "type": "uint256"
        },
        {
          "internalType": "uint32",
          "name": "collateralId",
          "type": "uint32"
        },
        {
          "internalType": "int256",
          "name": "amount",
          "type": "int256"
        }
      ],
      "name": "updateMargin",
      "outputs": [],
      "stateMutability": "nonpayable",
      "type": "function"
    },
    {
      "inputs": [
        {
          "internalType": "uint32",
          "name": "poolId",
          "type": "uint32"
        },
        {
          "components": [
            {
              "internalType": "uint16",
              "name": "initialMarginRatioBps",
              "type": "uint16"
            },
            {
              "internalType": "uint16",
              "name": "maintainanceMarginRatioBps",
              "type": "uint16"
            },
            {
              "internalType": "uint16",
              "name": "maxVirtualPriceDeviationRatioBps",
              "type": "uint16"
            },
            {
              "internalType": "uint32",
              "name": "twapDuration",
              "type": "uint32"
            },
            {
              "internalType": "bool",
              "name": "isAllowedForTrade",
              "type": "bool"
            },
            {
              "internalType": "bool",
              "name": "isCrossMargined",
              "type": "bool"
            },
            {
              "internalType": "contract IOracle",
              "name": "oracle",
              "type": "address"
            }
          ],
          "internalType": "struct IClearingHouseStructures.PoolSettings",
          "name": "newSettings",
          "type": "tuple"
        }
      ],
      "name": "updatePoolSettings",
      "outputs": [],
      "stateMutability": "nonpayable",
      "type": "function"
    },
    {
      "inputs": [
        {
          "internalType": "uint256",
          "name": "accountId",
          "type": "uint256"
        },
        {
          "internalType": "int256",
          "name": "amount",
          "type": "int256"
        }
      ],
      "name": "updateProfit",
      "outputs": [],
      "stateMutability": "nonpayable",
      "type": "function"
    },
    {
      "inputs": [
        {
          "components": [
            {
              "internalType": "uint16",
              "name": "rangeLiquidationFeeFraction",
              "type": "uint16"
            },
            {
              "internalType": "uint16",
              "name": "tokenLiquidationFeeFraction",
              "type": "uint16"
            },
            {
              "internalType": "uint16",
              "name": "closeFactorMMThresholdBps",
              "type": "uint16"
            },
            {
              "internalType": "uint16",
              "name": "partialLiquidationCloseFactorBps",
              "type": "uint16"
            },
            {
              "internalType": "uint16",
              "name": "insuranceFundFeeShareBps",
              "type": "uint16"
            },
            {
              "internalType": "uint16",
              "name": "liquidationSlippageSqrtToleranceBps",
              "type": "uint16"
            },
            {
              "internalType": "uint64",
              "name": "maxRangeLiquidationFees",
              "type": "uint64"
            },
            {
              "internalType": "uint64",
              "name": "minNotionalLiquidatable",
              "type": "uint64"
            }
          ],
          "internalType": "struct IClearingHouseStructures.LiquidationParams",
          "name": "_liquidationParams",
          "type": "tuple"
        },
        {
          "internalType": "uint256",
          "name": "_removeLimitOrderFee",
          "type": "uint256"
        },
        {
          "internalType": "uint256",
          "name": "_minimumOrderNotional",
          "type": "uint256"
        },
        {
          "internalType": "uint256",
          "name": "_minRequiredMargin",
          "type": "uint256"
        }
      ],
      "name": "updateProtocolSettings",
      "outputs": [],
      "stateMutability": "nonpayable",
      "type": "function"
    },
    {
      "inputs": [
        {
          "internalType": "uint256",
          "name": "accountId",
          "type": "uint256"
        },
        {
          "internalType": "uint32",
          "name": "poolId",
          "type": "uint32"
        },
        {
          "components": [
            {
              "internalType": "int24",
              "name": "tickLower",
              "type": "int24"
            },
            {
              "internalType": "int24",
              "name": "tickUpper",
              "type": "int24"
            },
            {
              "internalType": "int128",
              "name": "liquidityDelta",
              "type": "int128"
            },
            {
              "internalType": "uint160",
              "name": "sqrtPriceCurrent",
              "type": "uint160"
            },
            {
              "internalType": "uint16",
              "name": "slippageToleranceBps",
              "type": "uint16"
            },
            {
              "internalType": "bool",
              "name": "closeTokenPosition",
              "type": "bool"
            },
            {
              "internalType": "enum IClearingHouseEnums.LimitOrderType",
              "name": "limitOrderType",
              "type": "uint8"
            },
            {
              "internalType": "bool",
              "name": "settleProfit",
              "type": "bool"
            }
          ],
          "internalType": "struct IClearingHouseStructures.LiquidityChangeParams",
          "name": "liquidityChangeParams",
          "type": "tuple"
        }
      ],
      "name": "updateRangeOrder",
      "outputs": [
        {
          "internalType": "int256",
          "name": "vTokenAmountOut",
          "type": "int256"
        },
        {
          "internalType": "int256",
          "name": "vQuoteAmountOut",
          "type": "int256"
        }
      ],
      "stateMutability": "nonpayable",
      "type": "function"
    },
    {
      "inputs": [
        {
          "internalType": "address[]",
          "name": "wrapperAddresses",
          "type": "address[]"
        }
      ],
      "name": "withdrawProtocolFee",
      "outputs": [],
      "stateMutability": "nonpayable",
      "type": "function"
    },
    {
      "inputs": [],
      "name": "InsufficientCollateralBalance",
      "type": "error"
    },
    {
      "inputs": [
        {
          "internalType": "int256",
          "name": "accountMarketValue",
          "type": "int256"
        },
        {
          "internalType": "int256",
          "name": "totalRequiredMargin",
          "type": "int256"
        }
      ],
      "name": "InvalidLiquidationAccountAboveWater",
      "type": "error"
    },
    {
      "inputs": [
        {
          "internalType": "uint32",
          "name": "poolId",
          "type": "uint32"
        }
      ],
      "name": "InvalidLiquidationActiveRangePresent",
      "type": "error"
    },
    {
      "inputs": [
        {
          "internalType": "int256",
          "name": "accountMarketValue",
          "type": "int256"
        },
        {
          "internalType": "int256",
          "name": "totalRequiredMargin",
          "type": "int256"
        }
      ],
      "name": "InvalidTransactionNotEnoughMargin",
      "type": "error"
    },
    {
      "inputs": [
        {
          "internalType": "int256",
          "name": "totalProfit",
          "type": "int256"
        }
      ],
      "name": "InvalidTransactionNotEnoughProfit",
      "type": "error"
    },
    {
      "inputs": [
        {
          "internalType": "int24",
          "name": "tickLower",
          "type": "int24"
        },
        {
          "internalType": "int24",
          "name": "tickUpper",
          "type": "int24"
        },
        {
          "internalType": "uint256",
          "name": "liquidity",
          "type": "uint256"
        }
      ],
      "name": "LPS_DeactivationFailed",
      "type": "error"
    },
    {
      "inputs": [
        {
          "internalType": "int24",
          "name": "tickLower",
          "type": "int24"
        },
        {
          "internalType": "int24",
          "name": "tickUpper",
          "type": "int24"
        }
      ],
      "name": "LPS_IllegalTicks",
      "type": "error"
    },
    {
      "inputs": [],
      "name": "LPS_InactiveRange",
      "type": "error"
    },
    {
      "inputs": [],
      "name": "LP_AlreadyInitialized",
      "type": "error"
    },
    {
      "inputs": [],
      "name": "LP_IneligibleLimitOrderRemoval",
      "type": "error"
    },
    {
      "inputs": [
        {
          "internalType": "uint256",
          "name": "y_target",
          "type": "uint256"
        },
        {
          "internalType": "uint160",
          "name": "x_lower",
          "type": "uint160"
        },
        {
          "internalType": "uint160",
          "name": "x_upper",
          "type": "uint160"
        }
      ],
      "name": "SolutionOutOfBounds",
      "type": "error"
    },
    {
      "inputs": [
        {
          "internalType": "uint32",
          "name": "element",
          "type": "uint32"
        }
      ],
      "name": "U32L8_IllegalElement",
      "type": "error"
    },
    {
      "inputs": [
        {
          "internalType": "uint32",
          "name": "element",
          "type": "uint32"
        }
      ],
      "name": "U32L8_NoSpaceLeftToInsert",
      "type": "error"
    },
    {
      "inputs": [
        {
          "internalType": "uint48",
          "name": "element",
          "type": "uint48"
        }
      ],
      "name": "U48L5_IllegalElement",
      "type": "error"
    },
    {
      "inputs": [
        {
          "internalType": "uint48",
          "name": "element",
          "type": "uint48"
        }
      ],
      "name": "U48L5_NoSpaceLeftToInsert",
      "type": "error"
    },
    {
      "inputs": [
        {
          "internalType": "uint32",
          "name": "poolId",
          "type": "uint32"
        }
      ],
      "name": "VPS_DeactivationFailed",
      "type": "error"
    },
    {
      "inputs": [
        {
          "internalType": "uint32",
          "name": "poolId",
          "type": "uint32"
        }
      ],
      "name": "VPS_TokenInactive",
      "type": "error"
    },
    {
      "anonymous": false,
      "inputs": [
        {
          "indexed": true,
          "internalType": "uint256",
          "name": "accountId",
          "type": "uint256"
        },
        {
          "indexed": true,
          "internalType": "uint32",
          "name": "poolId",
          "type": "uint32"
        },
        {
          "indexed": false,
          "internalType": "int24",
          "name": "tickLower",
          "type": "int24"
        },
        {
          "indexed": false,
          "internalType": "int24",
          "name": "tickUpper",
          "type": "int24"
        },
        {
          "indexed": false,
          "internalType": "int128",
          "name": "liquidityDelta",
          "type": "int128"
        },
        {
          "indexed": false,
          "internalType": "enum IClearingHouseEnums.LimitOrderType",
          "name": "limitOrderType",
          "type": "uint8"
        },
        {
          "indexed": false,
          "internalType": "int256",
          "name": "vTokenAmountOut",
          "type": "int256"
        },
        {
          "indexed": false,
          "internalType": "int256",
          "name": "vQuoteAmountOut",
          "type": "int256"
        },
        {
          "indexed": false,
          "internalType": "uint160",
          "name": "sqrtPriceX96",
          "type": "uint160"
        }
      ],
      "name": "LiquidityChanged",
      "type": "event"
    },
    {
      "anonymous": false,
      "inputs": [
        {
          "indexed": true,
          "internalType": "uint256",
          "name": "accountId",
          "type": "uint256"
        },
        {
          "indexed": true,
          "internalType": "uint32",
          "name": "poolId",
          "type": "uint32"
        },
        {
          "indexed": false,
          "internalType": "int24",
          "name": "tickLower",
          "type": "int24"
        },
        {
          "indexed": false,
          "internalType": "int24",
          "name": "tickUpper",
          "type": "int24"
        },
        {
          "indexed": false,
          "internalType": "int256",
          "name": "amount",
          "type": "int256"
        }
      ],
      "name": "LiquidityPositionEarningsRealized",
      "type": "event"
    },
    {
      "anonymous": false,
      "inputs": [
        {
          "indexed": true,
          "internalType": "uint256",
          "name": "accountId",
          "type": "uint256"
        },
        {
          "indexed": true,
          "internalType": "uint32",
          "name": "poolId",
          "type": "uint32"
        },
        {
          "indexed": false,
          "internalType": "int24",
          "name": "tickLower",
          "type": "int24"
        },
        {
          "indexed": false,
          "internalType": "int24",
          "name": "tickUpper",
          "type": "int24"
        },
        {
          "indexed": false,
          "internalType": "int256",
          "name": "amount",
          "type": "int256"
        },
        {
          "indexed": false,
          "internalType": "int256",
          "name": "sumALastX128",
          "type": "int256"
        },
        {
          "indexed": false,
          "internalType": "int256",
          "name": "sumBInsideLastX128",
          "type": "int256"
        },
        {
          "indexed": false,
          "internalType": "int256",
          "name": "sumFpInsideLastX128",
          "type": "int256"
        },
        {
          "indexed": false,
          "internalType": "uint256",
          "name": "sumFeeInsideLastX128",
          "type": "uint256"
        }
      ],
      "name": "LiquidityPositionFundingPaymentRealized",
      "type": "event"
    },
    {
      "anonymous": false,
      "inputs": [
        {
          "indexed": true,
          "internalType": "uint256",
          "name": "accountId",
          "type": "uint256"
        },
        {
          "indexed": true,
          "internalType": "address",
          "name": "keeperAddress",
          "type": "address"
        },
        {
          "indexed": false,
          "internalType": "int256",
          "name": "liquidationFee",
          "type": "int256"
        },
        {
          "indexed": false,
          "internalType": "int256",
          "name": "keeperFee",
          "type": "int256"
        },
        {
          "indexed": false,
          "internalType": "int256",
          "name": "insuranceFundFee",
          "type": "int256"
        },
        {
          "indexed": false,
          "internalType": "int256",
          "name": "accountMarketValueFinal",
          "type": "int256"
        }
      ],
      "name": "LiquidityPositionsLiquidated",
      "type": "event"
    },
    {
      "anonymous": false,
      "inputs": [
        {
          "indexed": true,
          "internalType": "uint256",
          "name": "accountId",
          "type": "uint256"
        },
        {
          "indexed": true,
          "internalType": "uint32",
          "name": "collateralId",
          "type": "uint32"
        },
        {
          "indexed": false,
          "internalType": "int256",
          "name": "amount",
          "type": "int256"
        },
        {
          "indexed": false,
          "internalType": "bool",
          "name": "isSettleProfit",
          "type": "bool"
        }
      ],
      "name": "MarginUpdated",
      "type": "event"
    },
    {
      "anonymous": false,
      "inputs": [
        {
          "indexed": true,
          "internalType": "uint256",
          "name": "accountId",
          "type": "uint256"
        },
        {
          "indexed": false,
          "internalType": "int256",
          "name": "amount",
          "type": "int256"
        }
      ],
      "name": "ProfitUpdated",
      "type": "event"
    },
    {
      "anonymous": false,
      "inputs": [
        {
          "indexed": true,
          "internalType": "address",
          "name": "wrapperAddress",
          "type": "address"
        },
        {
          "indexed": false,
          "internalType": "uint256",
          "name": "feeAmount",
          "type": "uint256"
        }
      ],
      "name": "ProtocolFeesWithdrawn",
      "type": "event"
    },
    {
      "anonymous": false,
      "inputs": [
        {
          "indexed": true,
          "internalType": "uint256",
          "name": "accountId",
          "type": "uint256"
        },
        {
          "indexed": true,
          "internalType": "uint32",
          "name": "poolId",
          "type": "uint32"
        },
        {
          "indexed": false,
          "internalType": "int256",
          "name": "vTokenAmountOut",
          "type": "int256"
        },
        {
          "indexed": false,
          "internalType": "int256",
          "name": "vQuoteAmountOut",
          "type": "int256"
        },
        {
          "indexed": false,
          "internalType": "uint160",
          "name": "sqrtPriceX96Start",
          "type": "uint160"
        },
        {
          "indexed": false,
          "internalType": "uint160",
          "name": "sqrtPriceX96End",
          "type": "uint160"
        }
      ],
      "name": "TokenPositionChanged",
      "type": "event"
    },
    {
      "anonymous": false,
      "inputs": [
        {
          "indexed": true,
          "internalType": "uint256",
          "name": "accountId",
          "type": "uint256"
        },
        {
          "indexed": true,
          "internalType": "uint32",
          "name": "poolId",
          "type": "uint32"
        },
        {
          "indexed": false,
          "internalType": "int24",
          "name": "tickLower",
          "type": "int24"
        },
        {
          "indexed": false,
          "internalType": "int24",
          "name": "tickUpper",
          "type": "int24"
        },
        {
          "indexed": false,
          "internalType": "int256",
          "name": "vTokenAmountOut",
          "type": "int256"
        }
      ],
      "name": "TokenPositionChangedDueToLiquidityChanged",
      "type": "event"
    },
    {
      "anonymous": false,
      "inputs": [
        {
          "indexed": true,
          "internalType": "uint256",
          "name": "accountId",
          "type": "uint256"
        },
        {
          "indexed": true,
          "internalType": "uint32",
          "name": "poolId",
          "type": "uint32"
        },
        {
          "indexed": false,
          "internalType": "int256",
          "name": "amount",
          "type": "int256"
        },
        {
          "indexed": false,
          "internalType": "int256",
          "name": "sumALastX128",
          "type": "int256"
        }
      ],
      "name": "TokenPositionFundingPaymentRealized",
      "type": "event"
    },
    {
      "anonymous": false,
      "inputs": [
        {
          "indexed": true,
          "internalType": "uint256",
          "name": "accountId",
          "type": "uint256"
        },
        {
          "indexed": true,
          "internalType": "uint256",
          "name": "liquidatorAccountId",
          "type": "uint256"
        },
        {
          "indexed": true,
          "internalType": "uint32",
          "name": "poolId",
          "type": "uint32"
        },
        {
          "indexed": false,
          "internalType": "int256",
          "name": "keeperFee",
          "type": "int256"
        },
        {
          "indexed": false,
          "internalType": "int256",
          "name": "insuranceFundFee",
          "type": "int256"
        },
        {
          "indexed": false,
          "internalType": "int256",
          "name": "accountMarketValueFinal",
          "type": "int256"
        }
      ],
      "name": "TokenPositionLiquidated",
      "type": "event"
    }
  ],
  "transactionHash": "0x3e5cc56e9c3962361b623f297c6a2d848df454619d979c168ad4fd9ae508bedb",
  "args": [],
  "numDeployments": 2,
  "solcInputHash": "06cfea34cf9a5f70e7b31fa148ea9b65",
  "bytecode": "0x60806040523480156200001157600080fd5b506200001c62000022565b620002e3565b61013954610100900460ff1662000041576101395460ff16156200004b565b6200004b620000f7565b620000a35760405162461bcd60e51b815260206004820152602e6024820152600080516020620060f083398151915260448201526d191e481a5b9a5d1a585b1a5e995960921b60648201526084015b60405180910390fd5b61013954610100900460ff16158015620000c857610139805461ffff19166101011790555b620000d262000115565b33620000df818062000185565b508015620000f457610139805461ff00191690555b50565b60006200010f30620002d460201b620020b51760201c565b15905090565b61013954610100900460ff16620001835760405162461bcd60e51b815260206004820152602b60248201527f496e697469616c697a61626c653a20636f6e7472616374206973206e6f74206960448201526a6e697469616c697a696e6760a81b60648201526084016200009a565b565b61013954610100900460ff16620001a4576101395460ff1615620001ae565b620001ae620000f7565b620002025760405162461bcd60e51b815260206004820152602e6024820152600080516020620060f083398151915260448201526d191e481a5b9a5d1a585b1a5e995960921b60648201526084016200009a565b61013954610100900460ff161580156200022757610139805461ffff19166101011790555b61019e80546001600160a01b0319166001600160a01b0385169081179091556040516000907f5f56bee8cffbe9a78652a74a60705edede02af10b0bbb888ca44b79a0d42ce80908290a361019f80546001600160a01b0319166001600160a01b0384169081179091556040516000907f39355f2f5c8206286978f443aa8126bbd29fa09c53c04569502647f3a59c8cb2908290a38015620002cf57610139805461ff00191690555b505050565b6001600160a01b03163b151590565b615dfd80620002f36000396000f3fe60806040526004361061023b5760003560e01c806385ff7cbd1161012e578063bc38d542116100ab578063dbd035ff1161006f578063dbd035ff14610912578063e1f167131461093f578063e3d41c181461095f578063e450f6f41461097f578063e67ed1df1461099f57600080fd5b8063bc38d54214610866578063c7505c1514610893578063ce4c18de146108b3578063d38bfff4146108d3578063dbc0c085146108f357600080fd5b8063a05c8baf116100f2578063a05c8baf146106a7578063a9b0a934146106c7578063ac9650d8146106e7578063b670ed52146106fa578063b79023031461084657600080fd5b806385ff7cbd1461061c5780638ce25a931461063c5780638f24ab11146106525780639cd1be58146106725780639dca362f1461069257600080fd5b8063440ab745116101bc578063706bdd2511610180578063706bdd25146105675780637cc2f4f5146105875780637d2efe07146105a75780637f64d663146105c757806383d778eb146105e757600080fd5b8063440ab745146104bf578063569634d3146104ef5780635aa6e6751461050f5780635c975abb1461052e5780636a4864821461054757600080fd5b80633d0aea3d116102035780633d0aea3d146103fa5780633d56a35e1461041a5780633ffe794c1461045257806340c4f69b1461047257806343afafba1461049f57600080fd5b80630dca69f9146102405780630df181ea1461035b5780631459457a1461037d5780631e2eaeaf1461039d5780633b561afc146103ca575b600080fd5b34801561024c57600080fd5b506103406040805161010081018252600080825260208201819052918101829052606081018290526080810182905260a0810182905260c0810182905260e0810182905281905050606654606754604080516101008101825260685461ffff8082168352620100008204811660208401526401000000008204811693830193909352600160301b810483166060830152600160401b810483166080830152600160501b810490921660a08201526001600160401b03600160601b8304811660c0830152600160a01b90920490911660e0820152606954606a54606b546001600160a01b039586169794909516955091939092565b60405161035296959493929190613f04565b60405180910390f35b34801561036757600080fd5b5061037b610376366004613fc9565b6109bf565b005b34801561038957600080fd5b5061037b610398366004614002565b610a70565b3480156103a957600080fd5b506103bc6103b8366004613fc9565b5490565b604051908152602001610352565b3480156103d657600080fd5b506103ea6103e5366004613fc9565b610b69565b604051610352949392919061409d565b34801561040657600080fd5b5061037b610415366004614314565b610c0d565b34801561042657600080fd5b5060d35461043a906001600160a01b031681565b6040516001600160a01b039091168152602001610352565b34801561045e57600080fd5b5061037b61046d3660046143ae565b610c61565b34801561047e57600080fd5b5061049261048d366004614412565b610d47565b60405161035291906144b5565b3480156104ab57600080fd5b506103bc6104ba366004614517565b6113d9565b3480156104cb57600080fd5b506104df6104da366004614547565b611403565b6040519015158152602001610352565b3480156104fb57600080fd5b5061037b61050a366004613fc9565b61142b565b34801561051b57600080fd5b5061019e546001600160a01b031661043a565b34801561053a57600080fd5b5061016c5460ff166104df565b34801561055357600080fd5b506103bc610562366004614517565b61144b565b34801561057357600080fd5b506103bc610582366004614547565b6114e1565b34801561059357600080fd5b5061037b6105a236600461457e565b6114ee565b3480156105b357600080fd5b5061037b6105c23660046145d1565b611518565b3480156105d357600080fd5b5061037b6105e2366004614609565b611567565b3480156105f357600080fd5b50610607610602366004614698565b611632565b60408051928352602083019190915201610352565b34801561062857600080fd5b5061037b6106373660046146d7565b61168f565b34801561064857600080fd5b506103bc60d15481565b34801561065e57600080fd5b5061037b61066d366004614718565b6117a7565b34801561067e57600080fd5b5061037b61068d36600461475a565b611845565b34801561069e57600080fd5b506103bc61188b565b3480156106b357600080fd5b5061037b6106c236600461478f565b611934565b3480156106d357600080fd5b5061037b6106e23660046146d7565b6119dc565b6104926106f53660046146d7565b611ae9565b34801561070657600080fd5b50610839610715366004614547565b604080516080808201835260008083526020808401829052838501829052845160e081018652828152908101829052938401819052606080850182905291840181905260a0840181905260c08401528101919091525063ffffffff90811660009081526064602090815260409182902082516080808201855282546001600160a01b03908116835260018401548116838601526002840154811683870152855160e08101875260039094015461ffff8082168652620100008204811696860196909652640100000000810490951695840195909552600160301b840490951660608381019190915260ff600160501b85048116151596840196909652600160581b8404909516151560a0830152600160601b90920490921660c08301529182015290565b60405161035291906147cd565b34801561085257600080fd5b5060d45461043a906001600160a01b031681565b34801561087257600080fd5b50610886610881366004614547565b611c40565b6040516103529190614870565b34801561089f57600080fd5b506106076108ae3660046148b9565b611cdf565b3480156108bf57600080fd5b506103bc6108ce366004614547565b611d3d565b3480156108df57600080fd5b5061037b6108ee366004614609565b611d4a565b3480156108ff57600080fd5b5061019f546001600160a01b031661043a565b34801561091e57600080fd5b5061093261092d366004614913565b611dfb565b604051610352919061499d565b34801561094b57600080fd5b5061037b61095a3660046146d7565b611e29565b34801561096b57600080fd5b506103bc61097a366004613fc9565b611f76565b34801561098b57600080fd5b506103bc61099a3660046149e1565b612000565b3480156109ab57600080fd5b506106076109ba366004614a0d565b612017565b61016c5460ff16156109ec5760405162461bcd60e51b81526004016109e390614a32565b60405180910390fd5b60006109f7826120c4565b9050610a028161210a565b604051637579c99360e11b81526004810182905260646024820152739cF9a63Bc26d0F8E04FDd74218edF3B1e68F5dA59063eaf393269060440160006040518083038186803b158015610a5457600080fd5b505af4158015610a68573d6000803e3d6000fd5b505050505050565b61013954610100900460ff16610a8d576101395460ff1615610a91565b303b155b610aad5760405162461bcd60e51b81526004016109e390614a5c565b61013954610100900460ff16158015610ad157610139805461ffff19166101011790555b60d380546001600160a01b03199081166001600160a01b038981169190911790925560668054821688841617905560d48054821686841617905560678054909116848316179055604080516060810182529186168252603c6020830152600190820152610b3f908690612118565b610b476122dc565b610b4f612366565b8015610a6857610139805461ff0019169055505050505050565b600081815260d26020526040808220905163a0ba775760e01b815260048101919091526064602482015281906060908190739cF9a63Bc26d0F8E04FDd74218edF3B1e68F5dA59063a0ba775790604401600060405180830381865af4158015610bd6573d6000803e3d6000fd5b505050506040513d6000823e601f3d908101601f19168201604052610bfe9190810190614cb5565b93509350935093509193509193565b61019f546001600160a01b03163314801590610c35575061019e546001600160a01b03163314155b15610c5357604051636bd1573560e11b815260040160405180910390fd5b610c5d8282612118565b5050565b60d3546001600160a01b03163314610c8c576040516385734f3160e01b815260040160405180910390fd5b6000610cac610c9e6020840184614609565b6001600160a01b031661239b565b63ffffffff8116600090815260646020526040902054909150610cd7906001600160a01b03166123a9565b610ce357610ce3614dbb565b63ffffffff811660009081526064602052604090208290610d048282614f40565b9050507f4182acc9c169391ef7e765eb446fc15c9d49bc73060c678bf4c424a5c0dbdbcb8183606001604051610d3b9291906150c5565b60405180910390a15050565b6060816001600160401b03811115610d6157610d6161422b565b604051908082528060200260200182016040528015610d9457816020015b6060815260200190600190039081610d7f5790505b5090506000610da2856120c4565b9050610dad8161210a565b60008060005b858110156112e4576000878783818110610dcf57610dcf615181565b9050602002810190610de19190615197565b610def9060208101906151b7565b6006811115610e0057610e00614073565b03610e6c57600080888884818110610e1a57610e1a615181565b9050602002810190610e2c9190615197565b610e3a9060208101906151d8565b810190610e4791906149e1565b915091508380610e575750600081125b9350610e65868383876123bb565b50506112d2565b6001878783818110610e8057610e80615181565b9050602002810190610e929190615197565b610ea09060208101906151b7565b6006811115610eb157610eb1614073565b03610f1d576000878783818110610eca57610eca615181565b9050602002810190610edc9190615197565b610eea9060208101906151d8565b810190610ef79190613fc9565b9050610f05858260006124c2565b6000811215610f175760019350600192505b506112d2565b6002878783818110610f3157610f31615181565b9050602002810190610f439190615197565b610f519060208101906151b7565b6006811115610f6257610f62614073565b0361100f57600080888884818110610f7c57610f7c615181565b9050602002810190610f8e9190615197565b610f9c9060208101906151d8565b810190610fa9919061521e565b91509150600080610fbd88858560006125c2565b60408051602081018490529081018290529193509150606001604051602081830303815290604052898681518110610ff757610ff7615181565b602002602001018190525060019550505050506112d2565b600387878381811061102357611023615181565b90506020028101906110359190615197565b6110439060208101906151b7565b600681111561105457611054614073565b036110af5760008088888481811061106e5761106e615181565b90506020028101906110809190615197565b61108e9060208101906151d8565b81019061109b919061533d565b91509150600080610fbd8885856000612746565b60048787838181106110c3576110c3615181565b90506020028101906110d59190615197565b6110e39060208101906151b7565b60068111156110f4576110f4614073565b0361115857600080600089898581811061111057611110615181565b90506020028101906111229190615197565b6111309060208101906151d8565b81019061113d919061536b565b92509250925061114f8b848484612854565b505050506112d2565b600587878381811061116c5761116c615181565b905060200281019061117e9190615197565b61118c9060208101906151b7565b600681111561119d5761119d614073565b036111ab57610f178861294f565b60068787838181106111bf576111bf615181565b90506020028101906111d19190615197565b6111df9060208101906151b7565b60068111156111f0576111f0614073565b0361128657600087878381811061120957611209615181565b905060200281019061121b9190615197565b6112299060208101906151d8565b8101906112369190614547565b90506112428982612ac2565b60405160200161125491815260200190565b60405160208183030381529060405286838151811061127557611275615181565b6020026020010181905250506112d2565b86868281811061129857611298615181565b90506020028101906112aa9190615197565b6112b89060208101906151b7565b604051633164e52160e11b81526004016109e391906153b6565b806112dc816153e6565b915050610db3565b5081156113565760405163651524ed60e01b81526004810184905260646024820152739cF9a63Bc26d0F8E04FDd74218edF3B1e68F5dA59063651524ed9060440160006040518083038186803b15801561133d57600080fd5b505af4158015611351573d6000803e3d6000fd5b505050505b80156113ce5760405163998c533560e01b81526004810184905260016024820152606460448201819052739cF9a63Bc26d0F8E04FDd74218edF3B1e68F5dA59163998c5335910160006040518083038186803b1580156113b557600080fd5b505af41580156113c9573d6000803e3d6000fd5b505050505b5050505b9392505050565b600082815260d2602052604081206113f09061210a565b6113fa8383612ac2565b90505b92915050565b63ffffffff81166000908152606460205260408120546113fd906001600160a01b03166123a9565b600081815260d2602052604090206114429061210a565b610c5d8161294f565b600082815260d260205260408082209051637188a1ed60e01b8152600481019190915263ffffffff83166024820152606460448201819052739cF9a63Bc26d0F8E04FDd74218edF3B1e68F5dA591637188a1ed9101602060405180830381865af41580156114bd573d6000803e3d6000fd5b505050506040513d601f19601f820116820180604052508101906113fa91906153ff565b60006113fd606483612be5565b600084815260d2602052604090206115059061210a565b61151184848484612854565b5050505050565b61016c5460ff161561153c5760405162461bcd60e51b81526004016109e390614a32565b6000611547846120c4565b90506115528161210a565b611561818484600086126123bb565b50505050565b61019f546001600160a01b0316331480159061158f575061019e546001600160a01b03163314155b156115ad57604051636bd1573560e11b815260040160405180910390fd5b6001600160a01b0381166115d45760405163d92e233d60e01b815260040160405180910390fd5b61019f546040516001600160a01b038084169216907f39355f2f5c8206286978f443aa8126bbd29fa09c53c04569502647f3a59c8cb290600090a361019f80546001600160a01b0319166001600160a01b0392909216919091179055565b60008061164261016c5460ff1690565b1561165f5760405162461bcd60e51b81526004016109e390614a32565b600061166a866120c4565b90506116758161210a565b61168281868660016125c2565b9250925050935093915050565b61019f546001600160a01b031633148015906116b7575061019e546001600160a01b03163314155b156116d557604051636bd1573560e11b815260040160405180910390fd5b6116dd612c41565b60005b818110156117a25760008383838181106116fc576116fc615181565b90506020020160208101906117119190614547565b63ffffffff8116600090815260646020526040808220600201549051632892019b60e11b81529293506001600160a01b03169163512403369161175c91600401901515815260200190565b600060405180830381600087803b15801561177657600080fd5b505af115801561178a573d6000803e3d6000fd5b5050505050808061179a906153e6565b9150506116e0565b505050565b61019f546001600160a01b031633148015906117cf575061019e546001600160a01b03163314155b156117ed57604051636bd1573560e11b815260040160405180910390fd5b63ffffffff8216600090815260646020526040902081906003016118118282614e28565b9050507f4182acc9c169391ef7e765eb446fc15c9d49bc73060c678bf4c424a5c0dbdbcb8282604051610d3b9291906150c5565b61016c5460ff16156118695760405162461bcd60e51b81526004016109e390614a32565b6000611874836120c4565b905061187f8161210a565b6117a2818360016124c2565b600061189a61016c5460ff1690565b156118b75760405162461bcd60e51b81526004016109e390614a32565b5060d1546118c6816001615418565b60d155600081815260d260209081526040918290206001600160601b031933600160601b8102919091166001600160601b03861617825592518481529092917f7325fb14450d3e5eb288c620b4ff1d6b43a41b33b4a4f143ae88cd4c12f99ea3910160405180910390a25090565b61019f546001600160a01b0316331480159061195c575061019e546001600160a01b03163314155b1561197a57604051636bd1573560e11b815260040160405180910390fd5b8360686119878282615452565b5050606a839055606b82905560698190556040517f697aec6e94e319190380ab0f1f10018d81b64da2479eb874be92c9a733e0a837906119ce9086908690869086906155ce565b60405180910390a150505050565b61019f546001600160a01b03163314801590611a04575061019e546001600160a01b03163314155b15611a2257604051636bd1573560e11b815260040160405180910390fd5b611a2a612cb8565b60005b818110156117a25760646000848484818110611a4b57611a4b615181565b9050602002016020810190611a609190614547565b63ffffffff16815260208101919091526040908101600020600201549051632892019b60e11b8152600160048201526001600160a01b0390911690635124033690602401600060405180830381600087803b158015611abe57600080fd5b505af1158015611ad2573d6000803e3d6000fd5b505050508080611ae1906153e6565b915050611a2d565b6060816001600160401b03811115611b0357611b0361422b565b604051908082528060200260200182016040528015611b3657816020015b6060815260200190600190039081611b215790505b50905060005b82811015611c395760008030868685818110611b5a57611b5a615181565b9050602002810190611b6c91906151d8565b604051611b7a9291906156a1565b600060405180830381855af49150503d8060008114611bb5576040519150601f19603f3d011682016040523d82523d6000602084013e611bba565b606091505b509150915081611c0657604481511015611bd357600080fd5b60048101905080806020019051810190611bed91906156b1565b60405162461bcd60e51b81526004016109e3919061573b565b80848481518110611c1957611c19615181565b602002602001018190525050508080611c31906153e6565b915050611b3c565b5092915050565b611c7360408051808201825260008082528251606081018452818152602081810183905293810191909152909182015290565b5063ffffffff9081166000908152606560209081526040918290208251808401845281546001600160a01b03908116825284516060810186526001909301549081168352600160a01b810490951682840152600160c01b90940460ff1615159281019290925282015290565b600080611cef61016c5460ff1690565b15611d0c5760405162461bcd60e51b81526004016109e390614a32565b6000611d17866120c4565b9050611d228161210a565b6116828186611d363688900388018861574e565b6001612746565b60006113fd606483612d34565b61019e546001600160a01b03163314611d7657604051636bd1573560e11b815260040160405180910390fd5b6001600160a01b038116611d9d5760405163d92e233d60e01b815260040160405180910390fd5b61019e546040516001600160a01b038084169216907f5f56bee8cffbe9a78652a74a60705edede02af10b0bbb888ca44b79a0d42ce8090600090a361019e80546001600160a01b0319166001600160a01b0392909216919091179055565b606060208251028201602001602083015b81811015611e21578051548152602001611e0c565b509192915050565b6000805b82811015611f4c576000848483818110611e4957611e49615181565b9050602002016020810190611e5e9190614609565b6001600160a01b0316635e622abc6040518163ffffffff1660e01b81526004016020604051808303816000875af1158015611e9d573d6000803e3d6000fd5b505050506040513d601f19601f82011682018060405250810190611ec191906153ff565b9050848483818110611ed557611ed5615181565b9050602002016020810190611eea9190614609565b6001600160a01b03167fa087657e3d85162090ffd700fbfdf5070d816f63aa5da00063f6ffd369c8a6db82604051611f2491815260200190565b60405180910390a2611f368184615418565b9250508080611f44906153e6565b915050611e2d565b506117a2611f6361019f546001600160a01b031690565b6066546001600160a01b03169083612d8c565b600081815260d26020526040808220905163625915c360e11b8152600481019190915260646024820152739cF9a63Bc26d0F8E04FDd74218edF3B1e68F5dA59063c4b22b8690604401602060405180830381865af4158015611fdc573d6000803e3d6000fd5b505050506040513d601f19601f820116820180604052508101906113fd91906153ff565b600061200a61188b565b90506113fd818484611518565b600082815260d26020526040808220905163031b5fcd60e21b8152600481019190915282151560248201526064604482018190528291739cF9a63Bc26d0F8E04FDd74218edF3B1e68F5dA591630c6d7f3491016040805180830381865af4158015612086573d6000803e3d6000fd5b505050506040513d601f19601f820116820180604052508101906120aa919061576b565b909590945092505050565b6001600160a01b03163b151590565b600081815260d2602052604090208054600160601b90046001600160a01b0316331461210557604051630504a20d60e01b81523360048201526024016109e3565b919050565b612115816064612def565b50565b600061212c836001600160a01b031661239b565b9050612140836001600160a01b03166123a9565b15612161576040516376d8a93160e01b8152600060048201526024016109e3565b63ffffffff8116600090815260656020526040902054612189906001600160a01b03166123a9565b1580156121c2575063ffffffff8082166000908152606560205260409020546121c0916001600160a01b03909116908590612dfc16565b155b1561220b5763ffffffff81166000908152606560205260409081902054905163a5d4d0b560e01b81526001600160a01b03808616600483015290911660248201526044016109e3565b6040805180820182526001600160a01b038581168252602080830186815263ffffffff868116600090815260658452869020945185546001600160a01b03191690851617855590518051600190950180549382015191870151959094166001600160c01b031990931692909217600160a01b92909116919091021760ff60c01b1916600160c01b92151592909202919091179055517f52983c04d8ccd4808cd0fcb24e6e48106ecb41e803d6270c6c94a15e3ebd08d2906122cf908590859061578f565b60405180910390a1505050565b61013954610100900460ff166122f9576101395460ff16156122fd565b303b155b6123195760405162461bcd60e51b81526004016109e390614a5c565b61013954610100900460ff1615801561233d57610139805461ffff19166101011790555b612345612e12565b336123508180612e3c565b50801561211557610139805461ff001916905550565b61013954610100900460ff1661238e5760405162461bcd60e51b81526004016109e3906157d1565b61016c805460ff19169055565b600063ffffffff82166113fd565b60006001600160a01b038216156113fd565b61016c5460ff16156123df5760405162461bcd60e51b81526004016109e390614a32565b60006123ee8460008512612f48565b60405163f5a284a160e01b81526004810187905263ffffffff86166024820152604481018590526064808201528315156084820152909150739cF9a63Bc26d0F8E04FDd74218edF3B1e68F5dA59063f5a284a19060a40160006040518083038186803b15801561245d57600080fd5b505af4158015612471573d6000803e3d6000fd5b50505050600083131561249a578054612495906001600160a01b0316333086612fd7565b611511565b600083121561151157611511336124b08561581c565b83546001600160a01b03169190612d8c565b61016c5460ff16156124e65760405162461bcd60e51b81526004016109e390614a32565b8160000361250757604051631f2a200560e01b815260040160405180910390fd5b60405163d25c4a6f60e01b8152600481018490526024810183905260646044820181905282151590820152739cF9a63Bc26d0F8E04FDd74218edF3B1e68F5dA59063d25c4a6f9060840160006040518083038186803b15801561256957600080fd5b505af415801561257d573d6000803e3d6000fd5b5050505060008213156125a2576066546117a2906001600160a01b0316333085612fd7565b6117a2336125af8461581c565b6066546001600160a01b03169190612d8c565b6000806125d261016c5460ff1690565b156125ef5760405162461bcd60e51b81526004016109e390614a32565b6125f88561300f565b604051630a067b0f60e11b8152739cF9a63Bc26d0F8E04FDd74218edF3B1e68F5dA59063140cf61e90612638908990899089906064908a90600401615838565b6040805180830381865af4158015612654573d6000803e3d6000fd5b505050506040513d601f19601f82011682018060405250810190612678919061576b565b9092509050600061268882613092565b606b549091508110156126b1576040516312b6b5cd60e11b8152600481018290526024016109e3565b60208501516001600160a01b0316158015906126cf57508460600151155b1561273c57846040015180156126f6575084516126eb90613092565b6126f483613092565b145b8061271f5750846040015115801561271f5750845161271490613092565b61271d84613092565b145b61273c576040516307a1db0760e01b815260040160405180910390fd5b5094509492505050565b60008061275661016c5460ff1690565b156127735760405162461bcd60e51b81526004016109e390614a32565b61277c8561300f565b60608401516001600160a01b0316156127a2576127a285856060015186608001516130ad565b60405163c27789d160e01b8152600090739cF9a63Bc26d0F8E04FDd74218edF3B1e68F5dA59063c27789d1906127e5908a908a908a906064908b906004016158ac565b606060405180830381865af4158015612802573d6000803e3d6000fd5b505050506040513d601f19601f820116820180604052508101906128269190615956565b606b54929550909350915081101561273c576040516312b6b5cd60e11b8152600481018290526024016109e3565b600061286361016c5460ff1690565b156128805760405162461bcd60e51b81526004016109e390614a32565b600085815260d2602052604090206128978561300f565b606a54604051637022478560e11b81526004810183905263ffffffff87166024820152600286810b604483015285900b6064808301919091526084820183905260a4820152909250739cF9a63Bc26d0F8E04FDd74218edF3B1e68F5dA59063e0448f0a9060c40160006040518083038186803b15801561291657600080fd5b505af415801561292a573d6000803e3d6000fd5b505060665461294692506001600160a01b031690503384612d8c565b50949350505050565b600061295e61016c5460ff1690565b1561297b5760405162461bcd60e51b81526004016109e390614a32565b600082815260d2602052604080822090516308b9103160e21b8152600481018290526024810183905260646044820181905291929182918291739cF9a63Bc26d0F8E04FDd74218edF3B1e68F5dA5916322e440c49101606060405180830381865af41580156129ee573d6000803e3d6000fd5b505050506040513d601f19601f82011682018060405250810190612a129190615956565b919450925090506000612a258385615984565b905060008413612a4b5760405163ef37dcc760e01b8152600481018590526024016109e3565b606654612a62906001600160a01b03163386612d8c565b612a6b8361313f565b604080518281526020810186905290810184905260608101839052339088907f688f0846fe2852572c467d5e769db101b0fea55e8849406d85c9fb322b95299b9060800160405180910390a3509195945050505050565b6000612ad161016c5460ff1690565b15612aee5760405162461bcd60e51b81526004016109e390614a32565b600083815260d260205260409020612b058361300f565b6040516377f3beb560e01b81526004810182905263ffffffff8416602482015260006044820181905260648083015290739cF9a63Bc26d0F8E04FDd74218edF3B1e68F5dA5906377f3beb5906084016040805180830381865af4158015612b70573d6000803e3d6000fd5b505050506040513d601f19601f82011682018060405250810190612b94919061576b565b909350905060008313612bbd5760405163ef37dcc760e01b8152600481018490526024016109e3565b606654612bd4906001600160a01b03163385612d8c565b612bdd8161313f565b505092915050565b600080612bf06131cb565b63ffffffff80851660009081526008870160205260409020805492935091818416911603612c2e57600101546001600160e01b031691506113fd9050565b612c388585613235565b925050506113fd565b61016c5460ff1615612c655760405162461bcd60e51b81526004016109e390614a32565b61016c805460ff191660011790557f62e78cea01bee320cd4e420270b5ea74000d11b0c9f74754ebdbfc544b05a258612c9b3390565b6040516001600160a01b03909116815260200160405180910390a1565b61016c5460ff16612d025760405162461bcd60e51b815260206004820152601460248201527314185d5cd8589b194e881b9bdd081c185d5cd95960621b60448201526064016109e3565b61016c805460ff191690557f5db9ee0a495bf2e6ff9c91a7834c1ba4fdd244a5e8aa4e537bd38aeae4b073aa33612c9b565b600080612d3f6131cb565b63ffffffff80851660009081526008870160205260409020805492935091818416911603612d82575464010000000090046001600160e01b031691506113fd9050565b612c3885856132d2565b6040516001600160a01b0383166024820152604481018290526117a290849063a9059cbb60e01b906064015b60408051601f198184030181529190526020810180516001600160e01b03166001600160e01b0319909316929092179091526132ef565b610c5d60018301826133c1565b60006001600160a01b03808416908316146113fa565b61013954610100900460ff16612e3a5760405162461bcd60e51b81526004016109e3906157d1565b565b61013954610100900460ff16612e59576101395460ff1615612e5d565b303b155b612e795760405162461bcd60e51b81526004016109e390614a5c565b61013954610100900460ff16158015612e9d57610139805461ffff19166101011790555b61019e80546001600160a01b0319166001600160a01b0385169081179091556040516000907f5f56bee8cffbe9a78652a74a60705edede02af10b0bbb888ca44b79a0d42ce80908290a361019f80546001600160a01b0319166001600160a01b0384169081179091556040516000907f39355f2f5c8206286978f443aa8126bbd29fa09c53c04569502647f3a59c8cb2908290a380156117a257610139805461ff0019169055505050565b63ffffffff821660009081526065602052604090208054612f71906001600160a01b03166123a9565b15612f9757604051636b9c1a9d60e01b815263ffffffff841660048201526024016109e3565b81158015612fb157506001810154600160c01b900460ff16155b156113fd5760405163122a1f1960e31b815263ffffffff841660048201526024016109e3565b6040516001600160a01b03808516602483015283166044820152606481018290526115619085906323b872dd60e01b90608401612db8565b63ffffffff811660009081526064602052604090208054613038906001600160a01b03166123a9565b1561305e5760405163b842f5a760e01b815263ffffffff831660048201526024016109e3565b6003810154600160501b900460ff16610c5d5760405163587ee90160e11b815263ffffffff831660048201526024016109e3565b60008082136130a9576130a48261581c565b6113fd565b5090565b60006130ba606485613436565b90506000836001600160a01b0316826001600160a01b0316116130e6576130e182856159c5565b6130f0565b6130f084836159c5565b90506127106131038561ffff86166159ed565b61310d9190615a32565b6001600160a01b0316816001600160a01b03161115611511576040516307a1db0760e01b815260040160405180910390fd5b60008113156131655760d454606654612115916001600160a01b03918216911683612d8c565b60d4546001600160a01b031663379607f561317f8361581c565b6040518263ffffffff1660e01b815260040161319d91815260200190565b600060405180830381600087803b1580156131b757600080fd5b505af1158015611511573d6000803e3d6000fd5b600060646001600160a01b031663a3b1b31d6040518163ffffffff1660e01b8152600401602060405180830381865afa15801561320c573d6000803e3d6000fd5b505050506040513d601f19601f8201168201806040525081019061323091906153ff565b905090565b63ffffffff8181166000908152602084905260408082206003810154915163dd86c10160e01b8152600160301b830490941660048501529192600160601b9091046001600160a01b03169063dd86c10190602401602060405180830381865afa1580156132a6573d6000803e3d6000fd5b505050506040513d601f19601f820116820180604052508101906132ca91906153ff565b949350505050565b60006113fa6132e18484613461565b6001600160a01b03166134a5565b6000613344826040518060400160405280602081526020017f5361666545524332303a206c6f772d6c6576656c2063616c6c206661696c6564815250856001600160a01b03166135129092919063ffffffff16565b8051909150156117a257808060200190518101906133629190615a58565b6117a25760405162461bcd60e51b815260206004820152602a60248201527f5361666545524332303a204552433230206f7065726174696f6e20646964206e6044820152691bdd081cdd58d8d9595960b21b60648201526084016109e3565b60005b60088160ff1610156117a25760008360ff8316600881106133e7576133e7615181565b600891828204019190066004029054906101000a900463ffffffff1690508063ffffffff166000036134195750505050565b6134238382613521565b508061342e81615a75565b9150506133c4565b63ffffffff81166000908152602083905260408120600101546113fa906001600160a01b0316613657565b63ffffffff808216600090815260208490526040812060038101546001820154929391926132ca926001600160a01b0390911691600160301b90048116906136c816565b60006401000276a36001600160a01b03831610806134e0575073fffd8963efd1fc6a506488495d951d5263988d266001600160a01b03831610155b1561350957604051635d236c4560e01b81526001600160a01b03831660048201526024016109e3565b6113fd826136e9565b60606132ca8484600085613703565b600061352b6131cb565b63ffffffff808416600090815260088601602052604090208054929350918184169116036135595750505050565b60006135658585613235565b9050600061357386866132d2565b63ffffffff86811660009081526020899052604090206003015491925064010000000090910461ffff16906135b090849083906127109061383416565b6135c26135bd8486615a94565b6138e6565b11156135e25760018401805460ff60e01b1916600160e01b1790556135f2565b60018401805460ff60e01b191690555b6135fb836138f1565b6001850180546001600160e01b0319166001600160e01b0392909216919091179055613626826138f1565b63ffffffff959095166001600160e01b03959095166401000000000263ffffffff1916949094179092555050505050565b6000816001600160a01b0316633850c7bd6040518163ffffffff1660e01b815260040160e060405180830381865afa158015613697573d6000803e3d6000fd5b505050506040513d601f19601f820116820180604052508101906136bb9190615ad3565b5094979650505050505050565b6000806136de6001600160a01b0385168461391b565b90506132ca81613b37565b60006113fd6001600160a01b03831680600160401b613834565b6060824710156137645760405162461bcd60e51b815260206004820152602660248201527f416464726573733a20696e73756666696369656e742062616c616e636520666f6044820152651c8818d85b1b60d21b60648201526084016109e3565b6001600160a01b0385163b6137bb5760405162461bcd60e51b815260206004820152601d60248201527f416464726573733a2063616c6c20746f206e6f6e2d636f6e747261637400000060448201526064016109e3565b600080866001600160a01b031685876040516137d79190615b75565b60006040518083038185875af1925050503d8060008114613814576040519150601f19603f3d011682016040523d82523d6000602084013e613819565b606091505b5091509150613829828286613e5a565b979650505050505050565b600080806000198587098587029250828110838203039150508060000361386d576000841161386257600080fd5b5082900490506113d2565b80841161387957600080fd5b6000848688096000868103871696879004966002600389028118808a02820302808a02820302808a02820302808a02820302808a02820302808a02909103029181900381900460010186841190950394909402919094039290920491909117919091029150509392505050565b60006113fd82613092565b6000600160e01b8211156130a957604051631ba3445360e01b8152600481018390526024016109e3565b60008163ffffffff166000036139445761393d836001600160a01b0316613e93565b90506113fd565b604080516002808252606082018352600092602083019080368337019050509050828160008151811061397957613979615181565b602002602001019063ffffffff16908163ffffffff16815250506000816001815181106139a8576139a8615181565b63ffffffff9092166020928302919091019091015260405163883bdbfd60e01b81526001600160a01b0385169063883bdbfd906139e9908490600401615b87565b600060405180830381865afa925050508015613a2757506040513d6000823e601f3d908101601f19168201604052613a249190810190615c29565b60015b613a9c57836001600160a01b0316633850c7bd6040518163ffffffff1660e01b815260040160e060405180830381865afa158015613a69573d6000803e3d6000fd5b505050506040513d601f19601f82011682018060405250810190613a8d9190615ad3565b50939650611c39945050505050565b600082600081518110613ab157613ab1615181565b602002602001015183600181518110613acc57613acc615181565b6020026020010151613ade9190615cf4565b90506000613af263ffffffff881683615d44565b905060008260060b128015613b185750613b1263ffffffff881683615d82565b60060b15155b15613b2b5780613b2781615da4565b9150505b94506113fd9350505050565b60008060008360020b12613b4e578260020b613b56565b8260020b6000035b9050620d89e8811115613b7c576040516315e4079d60e11b815260040160405180910390fd5b600081600116600003613b9357600160801b613ba5565b6ffffcb933bd6fad37aa2d162d1a5940015b70ffffffffffffffffffffffffffffffffff1690506002821615613bd9576ffff97272373d413259a46990580e213a0260801c5b6004821615613bf8576ffff2e50f5f656932ef12357cf3c7fdcc0260801c5b6008821615613c17576fffe5caca7e10e4e61c3624eaa0941cd00260801c5b6010821615613c36576fffcb9843d60f6159c9db58835c9266440260801c5b6020821615613c55576fff973b41fa98c081472e6896dfb254c00260801c5b6040821615613c74576fff2ea16466c96a3843ec78b326b528610260801c5b6080821615613c93576ffe5dee046a99a2a811c461f1969c30530260801c5b610100821615613cb3576ffcbe86c7900a88aedcffc83b479aa3a40260801c5b610200821615613cd3576ff987a7253ac413176f2b074cf7815e540260801c5b610400821615613cf3576ff3392b0822b70005940c7a398e4b70f30260801c5b610800821615613d13576fe7159475a2c29b7443b29c7fa6e889d90260801c5b611000821615613d33576fd097f3bdfd2022b8845ad8f792aa58250260801c5b612000821615613d53576fa9f746462d870fdf8a65dc1f90e061e50260801c5b614000821615613d73576f70d869a156d2a1b890bb3df62baf32f70260801c5b618000821615613d93576f31be135f97d08fd981231505542fcfa60260801c5b62010000821615613db4576f09aa508b5b7a84e1c677de54f3e99bc90260801c5b62020000821615613dd4576e5d6af8dedb81196699c329225ee6040260801c5b62040000821615613df3576d2216e584f5fa1ea926041bedfe980260801c5b62080000821615613e10576b048a170391f7dc42444e8fa20260801c5b60008460020b1315613e31578060001981613e2d57613e2d615a1c565b0490505b640100000000810615613e45576001613e48565b60005b60ff16602082901c0192505050919050565b60608315613e695750816113d2565b825115613e795782518084602001fd5b8160405162461bcd60e51b81526004016109e3919061573b565b6000816001600160a01b0316633850c7bd6040518163ffffffff1660e01b815260040160e060405180830381865afa158015613ed3573d6000803e3d6000fd5b505050506040513d601f19601f82011682018060405250810190613ef79190615ad3565b5093979650505050505050565b60006101a08201905060018060a01b03808916835280881660208401525061ffff808751166040840152806020880151166060840152806040880151166080840152506060860151613f5c60a084018261ffff169052565b50608086015161ffff811660c08401525060a086015161ffff811660e08401525060c08601516001600160401b0381166101008401525060e08601516001600160401b03811661012084015250846101408301528361016083015282610180830152979650505050505050565b600060208284031215613fdb57600080fd5b5035919050565b6001600160a01b038116811461211557600080fd5b803561210581613fe2565b600080600080600060a0868803121561401a57600080fd5b853561402581613fe2565b9450602086013561403581613fe2565b9350604086013561404581613fe2565b9250606086013561405581613fe2565b9150608086013561406581613fe2565b809150509295509295909350565b634e487b7160e01b600052602160045260246000fd5b6003811061409957614099614073565b9052565b6000608080830160018060a01b038089168552602088818701526040848188015283895180865260a089019150838b01955060005b818110156140f95786518051871684528501518584015295840195918301916001016140d2565b5050606094508781038589015280935088518082528382019450838160051b830101848b0160005b8381101561421757848303601f190188528151805163ffffffff16845287810151888501528681015187850152898101518a8501528a015160a08b850181905281519085018190529088019060009060c08601905b808310156142025783518051600290810b84528c820151900b8c8401528a8101516001600160801b0381168c850152508d8101518e8401528e8101518f84015260a081015160a084015260c081015160c084015260e081015160e08401526101008082015191506141e981850183614089565b5050610120820191508a84019350600183019250614176565b50998901999450505090860190600101614121565b50909e9d5050505050505050505050505050565b634e487b7160e01b600052604160045260246000fd5b60405160a081016001600160401b03811182821017156142635761426361422b565b60405290565b60405161012081016001600160401b03811182821017156142635761426361422b565b604080519081016001600160401b03811182821017156142635761426361422b565b604051601f8201601f191681016001600160401b03811182821017156142d6576142d661422b565b604052919050565b63ffffffff8116811461211557600080fd5b8035612105816142de565b801515811461211557600080fd5b8035612105816142fb565b600080828403608081121561432857600080fd5b833561433381613fe2565b92506060601f198201121561434757600080fd5b50604051606081018181106001600160401b038211171561436a5761436a61422b565b604052602084013561437b81613fe2565b8152604084013561438b816142de565b6020820152606084013561439e816142fb565b6040820152919491935090915050565b600061014082840312156143c157600080fd5b50919050565b60008083601f8401126143d957600080fd5b5081356001600160401b038111156143f057600080fd5b6020830191508360208260051b850101111561440b57600080fd5b9250929050565b60008060006040848603121561442757600080fd5b8335925060208401356001600160401b0381111561444457600080fd5b614450868287016143c7565b9497909650939450505050565b60005b83811015614478578181015183820152602001614460565b838111156115615750506000910152565b600081518084526144a181602086016020860161445d565b601f01601f19169290920160200192915050565b6000602080830181845280855180835260408601915060408160051b870101925083870160005b8281101561450a57603f198886030184526144f8858351614489565b945092850192908501906001016144dc565b5092979650505050505050565b6000806040838503121561452a57600080fd5b82359150602083013561453c816142de565b809150509250929050565b60006020828403121561455957600080fd5b81356113d2816142de565b8060020b811461211557600080fd5b803561210581614564565b6000806000806080858703121561459457600080fd5b8435935060208501356145a6816142de565b925060408501356145b681614564565b915060608501356145c681614564565b939692955090935050565b6000806000606084860312156145e657600080fd5b8335925060208401356145f8816142de565b929592945050506040919091013590565b60006020828403121561461b57600080fd5b81356113d281613fe2565b600060a0828403121561463857600080fd5b614640614241565b905081358152602082013561465481613fe2565b60208201526040820135614667816142fb565b6040820152606082013561467a816142fb565b6060820152608082013561468d816142fb565b608082015292915050565b600080600060e084860312156146ad57600080fd5b8335925060208401356146bf816142de565b91506146ce8560408601614626565b90509250925092565b600080602083850312156146ea57600080fd5b82356001600160401b0381111561470057600080fd5b61470c858286016143c7565b90969095509350505050565b60008082840361010081121561472d57600080fd5b8335614738816142de565b925060e0601f198201121561474c57600080fd5b506020830190509250929050565b6000806040838503121561476d57600080fd5b50508035926020909101359150565b600061010082840312156143c157600080fd5b60008060008061016085870312156147a657600080fd5b6147b0868661477c565b966101008601359650610120860135956101400135945092505050565b60006101408201905060018060a01b0380845116835280602085015116602084015280604085015116604084015250606083015161ffff8082511660608501528060208301511660808501528060408301511660a08501525063ffffffff60608201511660c08401526080810151151560e084015260a081015161485661010085018215159052565b5060c001516001600160a01b038116610120840152611c39565b81516001600160a01b031681526020808301516080830191611c399084018280516001600160a01b0316825260208082015163ffffffff16908301526040908101511515910152565b600080600061014084860312156148cf57600080fd5b8335925060208401356148e1816142de565b91506146ce856040860161477c565b60006001600160401b038211156149095761490961422b565b5060051b60200190565b6000602080838503121561492657600080fd5b82356001600160401b0381111561493c57600080fd5b8301601f8101851361494d57600080fd5b803561496061495b826148f0565b6142ae565b81815260059190911b8201830190838101908783111561497f57600080fd5b928401925b8284101561382957833582529284019290840190614984565b6020808252825182820181905260009190848201906040850190845b818110156149d5578351835292840192918401916001016149b9565b50909695505050505050565b600080604083850312156149f457600080fd5b82356149ff816142de565b946020939093013593505050565b60008060408385031215614a2057600080fd5b82359150602083013561453c816142fb565b60208082526010908201526f14185d5cd8589b194e881c185d5cd95960821b604082015260600190565b6020808252602e908201527f496e697469616c697a61626c653a20636f6e747261637420697320616c72656160408201526d191e481a5b9a5d1a585b1a5e995960921b606082015260800190565b805161210581614564565b80516001600160801b038116811461210557600080fd5b6003811061211557600080fd5b805161210581614acc565b600082601f830112614af557600080fd5b81516020614b0561495b836148f0565b82815260059290921b84018101918181019086841115614b2457600080fd5b8286015b84811015614caa5780516001600160401b0380821115614b4757600080fd5b9088019060a0828b03601f19011215614b5f57600080fd5b614b67614241565b86830151614b74816142de565b80825250604083015187820152606083015160408201526080830151606082015260a083015182811115614ba757600080fd5b8084019350508a603f840112614bbc57600080fd5b868301519150614bce61495b836148f0565b82815261012092830284016040019288820191908d851115614bef57600080fd5b6040860195505b84861015614c945780868f031215614c0d57600080fd5b614c15614269565b614c1e87614aaa565b8152614c2b8b8801614aaa565b8b820152614c3b60408801614ab5565b6040820152606087015160608201526080870151608082015260a087015160a082015260c087015160c082015260e087015160e0820152614c7f6101008801614ad9565b61010082015283529485019491890191614bf6565b5060808301525085525050918301918301614b28565b509695505050505050565b60008060008060808587031215614ccb57600080fd5b8451614cd681613fe2565b8094505060208086015193506040808701516001600160401b0380821115614cfd57600080fd5b818901915089601f830112614d1157600080fd5b8151614d1f61495b826148f0565b81815260069190911b8301850190858101908c831115614d3e57600080fd5b938601935b82851015614d875785858e031215614d5b5760008081fd5b614d6361428c565b8551614d6e81613fe2565b8152858801518882015282529385019390860190614d43565b60608c01519098509550505080841115614da057600080fd5b505050614daf87828801614ae4565b91505092959194509250565b634e487b7160e01b600052600160045260246000fd5b80546001600160a01b0319166001600160a01b0392909216919091179055565b61ffff8116811461211557600080fd5b600081356113fd81614df1565b600081356113fd816142fb565b600081356113fd81613fe2565b8135614e3381614df1565b815461ffff191661ffff8216178255506020820135614e5181614df1565b815463ffff00001916601082901b63ffff000016178255506040820135614e7781614df1565b815465ffff000000001916602082901b65ffff0000000016178255506060820135614ea1816142de565b815469ffffffff000000000000191660309190911b63ffffffff60301b161781556080820135614ed0816142fb565b815460ff60501b191681151560501b60ff60501b161782555060a0820135614ef7816142fb565b815460ff60581b191681151560581b60ff60581b161782555060c0820135614f1e81613fe2565b81546001600160601b0316606082901b6001600160601b031916178255505050565b8135614f4b81613fe2565b614f558183614dd1565b506020820135614f6481613fe2565b614f718160018401614dd1565b506040820135614f8081613fe2565b614f8d8160028401614dd1565b50600381016060830135614fa081614df1565b815461ffff191661ffff8216178255506080830135614fbe81614df1565b815463ffff00001916601082901b63ffff0000161782555060a0830135614fe481614df1565b815465ffff000000001916602082901b65ffff00000000161782555060c083013561500e816142de565b815469ffffffff000000000000191660309190911b63ffffffff60301b1617815561505c61503e60e08501614e0e565b82805460ff60501b191691151560501b60ff60501b16919091179055565b61508a61506c6101008501614e0e565b82805460ff60581b191691151560581b60ff60581b16919091179055565b6117a261509a6101208501614e1b565b82546001600160601b031660609190911b6001600160601b031916178255565b803561210581614df1565b63ffffffff83168152610100810182356150de81614df1565b61ffff8082166020850152602085013591506150f982614df1565b80821660408501526040850135915061511182614df1565b80821660608501525050615127606084016142f0565b63ffffffff811660808401525061514060808401614309565b80151560a08401525061515560a08401614309565b80151560c08401525061516a60c08401613ff7565b6001600160a01b03811660e0840152509392505050565b634e487b7160e01b600052603260045260246000fd5b60008235603e198336030181126151ad57600080fd5b9190910192915050565b6000602082840312156151c957600080fd5b8135600781106113d257600080fd5b6000808335601e198436030181126151ef57600080fd5b8301803591506001600160401b0382111561520957600080fd5b60200191503681900382131561440b57600080fd5b60008060c0838503121561523157600080fd5b823561523c816142de565b915061524b8460208501614626565b90509250929050565b8035600f81900b811461210557600080fd5b803561210581614acc565b600061010080838503121561528557600080fd5b604051908101906001600160401b03821181831017156152a7576152a761422b565b81604052809250833591506152bb82614564565b8181526152ca60208501614573565b60208201526152db60408501615254565b60408201526152ec60608501613ff7565b60608201526152fd608085016150ba565b608082015261530e60a08501614309565b60a082015261531f60c08501615266565b60c082015261533060e08501614309565b60e0820152505092915050565b600080610120838503121561535157600080fd5b823561535c816142de565b915061524b8460208501615271565b60008060006060848603121561538057600080fd5b833561538b816142de565b9250602084013561539b81614564565b915060408401356153ab81614564565b809150509250925092565b60208101600783106153ca576153ca614073565b91905290565b634e487b7160e01b600052601160045260246000fd5b6000600182016153f8576153f86153d0565b5060010190565b60006020828403121561541157600080fd5b5051919050565b6000821982111561542b5761542b6153d0565b500190565b6001600160401b038116811461211557600080fd5b600081356113fd81615430565b813561545d81614df1565b815461ffff191661ffff821617825550602082013561547b81614df1565b815463ffff00001916601082901b63ffff0000161782555060408201356154a181614df1565b815465ffff000000001916602082901b65ffff00000000161782555060608201356154cb81614df1565b815467ffff0000000000008260301b1691508167ffff00000000000019821617835560808401356154fb81614df1565b69ffff00000000000000008160401b168363ffffffff60301b1984161717845550505061554d61552d60a08401614e01565b82805461ffff60501b191660509290921b61ffff60501b16919091179055565b61558861555c60c08401615445565b82805467ffffffffffffffff60601b191660609290921b67ffffffffffffffff60601b16919091179055565b610c5d61559760e08401615445565b82805467ffffffffffffffff60a01b191660a09290921b67ffffffffffffffff60a01b16919091179055565b803561210581615430565b610160810185356155de81614df1565b61ffff90811683526020870135906155f582614df1565b166020830152615607604087016150ba565b61ffff16604083015261561c606087016150ba565b61ffff166060830152615631608087016150ba565b61ffff16608083015261564660a087016150ba565b61ffff1660a083015261565b60c087016155c3565b6001600160401b031660c083015261567560e087016155c3565b6001600160401b031660e083015261010082019490945261012081019290925261014090910152919050565b8183823760009101908152919050565b6000602082840312156156c357600080fd5b81516001600160401b03808211156156da57600080fd5b818401915084601f8301126156ee57600080fd5b8151818111156157005761570061422b565b615713601f8201601f19166020016142ae565b915080825285602082850101111561572a57600080fd5b61294681602084016020860161445d565b6020815260006113fa6020830184614489565b6000610100828403121561576157600080fd5b6113fa8383615271565b6000806040838503121561577e57600080fd5b505080516020909101519092909150565b6001600160a01b0383168152608081016113d2602083018480516001600160a01b0316825260208082015163ffffffff16908301526040908101511515910152565b6020808252602b908201527f496e697469616c697a61626c653a20636f6e7472616374206973206e6f74206960408201526a6e697469616c697a696e6760a81b606082015260800190565b6000600160ff1b8201615831576158316153d0565b5060000390565b60006101208201905086825263ffffffff861660208301528451604083015260018060a01b0360208601511660608301526040850151151560808301526060850151151560a08301526080850151151560c08301528360e08301526158a261010083018415159052565b9695505050505050565b60006101808201905086825263ffffffff86166020830152845160020b6040830152602085015160020b60608301526040850151600f0b6080830152606085015161590260a08401826001600160a01b03169052565b50608085015161ffff1660c08381019190915260a0860151151560e0840152850151615932610100840182614089565b5060e0850151151561012083015261014082018490528215156101608301526158a2565b60008060006060848603121561596b57600080fd5b8351925060208401519150604084015190509250925092565b600080821280156001600160ff1b03849003851316156159a6576159a66153d0565b600160ff1b83900384128116156159bf576159bf6153d0565b50500190565b60006001600160a01b03838116908316818110156159e5576159e56153d0565b039392505050565b60006001600160a01b0382811684821681151582840482111615615a1357615a136153d0565b02949350505050565b634e487b7160e01b600052601260045260246000fd5b60006001600160a01b0383811680615a4c57615a4c615a1c565b92169190910492915050565b600060208284031215615a6a57600080fd5b81516113d2816142fb565b600060ff821660ff8103615a8b57615a8b6153d0565b60010192915050565b60008083128015600160ff1b850184121615615ab257615ab26153d0565b6001600160ff1b0384018313811615615acd57615acd6153d0565b50500390565b600080600080600080600060e0888a031215615aee57600080fd5b8751615af981613fe2565b6020890151909750615b0a81614564565b6040890151909650615b1b81614df1565b6060890151909550615b2c81614df1565b6080890151909450615b3d81614df1565b60a089015190935060ff81168114615b5457600080fd5b60c0890151909250615b65816142fb565b8091505092959891949750929550565b600082516151ad81846020870161445d565b6020808252825182820181905260009190848201906040850190845b818110156149d557835163ffffffff1683529284019291840191600101615ba3565b600082601f830112615bd657600080fd5b81516020615be661495b836148f0565b82815260059290921b84018101918181019086841115615c0557600080fd5b8286015b84811015614caa578051615c1c81613fe2565b8352918301918301615c09565b60008060408385031215615c3c57600080fd5b82516001600160401b0380821115615c5357600080fd5b818501915085601f830112615c6757600080fd5b81516020615c7761495b836148f0565b82815260059290921b84018101918181019089841115615c9657600080fd5b948201945b83861015615cc45785518060060b8114615cb55760008081fd5b82529482019490820190615c9b565b91880151919650909350505080821115615cdd57600080fd5b50615cea85828601615bc5565b9150509250929050565b60008160060b8360060b6000811281667fffffffffffff1901831281151615615d1f57615d1f6153d0565b81667fffffffffffff018313811615615d3a57615d3a6153d0565b5090039392505050565b60008160060b8360060b80615d5b57615d5b615a1c565b667fffffffffffff19821460001982141615615d7957615d796153d0565b90059392505050565b60008260060b80615d9557615d95615a1c565b808360060b0791505092915050565b60008160020b627fffff198103615dbd57615dbd6153d0565b600019019291505056fea2646970667358221220e28d0963b2bd1c9e2deec42c9ae5d5cd85d0d23a764ed707d364e3ede93f60b364736f6c634300080d0033496e697469616c697a61626c653a20636f6e747261637420697320616c726561",
  "deployedBytecode": "0x60806040526004361061023b5760003560e01c806385ff7cbd1161012e578063bc38d542116100ab578063dbd035ff1161006f578063dbd035ff14610912578063e1f167131461093f578063e3d41c181461095f578063e450f6f41461097f578063e67ed1df1461099f57600080fd5b8063bc38d54214610866578063c7505c1514610893578063ce4c18de146108b3578063d38bfff4146108d3578063dbc0c085146108f357600080fd5b8063a05c8baf116100f2578063a05c8baf146106a7578063a9b0a934146106c7578063ac9650d8146106e7578063b670ed52146106fa578063b79023031461084657600080fd5b806385ff7cbd1461061c5780638ce25a931461063c5780638f24ab11146106525780639cd1be58146106725780639dca362f1461069257600080fd5b8063440ab745116101bc578063706bdd2511610180578063706bdd25146105675780637cc2f4f5146105875780637d2efe07146105a75780637f64d663146105c757806383d778eb146105e757600080fd5b8063440ab745146104bf578063569634d3146104ef5780635aa6e6751461050f5780635c975abb1461052e5780636a4864821461054757600080fd5b80633d0aea3d116102035780633d0aea3d146103fa5780633d56a35e1461041a5780633ffe794c1461045257806340c4f69b1461047257806343afafba1461049f57600080fd5b80630dca69f9146102405780630df181ea1461035b5780631459457a1461037d5780631e2eaeaf1461039d5780633b561afc146103ca575b600080fd5b34801561024c57600080fd5b506103406040805161010081018252600080825260208201819052918101829052606081018290526080810182905260a0810182905260c0810182905260e0810182905281905050606654606754604080516101008101825260685461ffff8082168352620100008204811660208401526401000000008204811693830193909352600160301b810483166060830152600160401b810483166080830152600160501b810490921660a08201526001600160401b03600160601b8304811660c0830152600160a01b90920490911660e0820152606954606a54606b546001600160a01b039586169794909516955091939092565b60405161035296959493929190613f04565b60405180910390f35b34801561036757600080fd5b5061037b610376366004613fc9565b6109bf565b005b34801561038957600080fd5b5061037b610398366004614002565b610a70565b3480156103a957600080fd5b506103bc6103b8366004613fc9565b5490565b604051908152602001610352565b3480156103d657600080fd5b506103ea6103e5366004613fc9565b610b69565b604051610352949392919061409d565b34801561040657600080fd5b5061037b610415366004614314565b610c0d565b34801561042657600080fd5b5060d35461043a906001600160a01b031681565b6040516001600160a01b039091168152602001610352565b34801561045e57600080fd5b5061037b61046d3660046143ae565b610c61565b34801561047e57600080fd5b5061049261048d366004614412565b610d47565b60405161035291906144b5565b3480156104ab57600080fd5b506103bc6104ba366004614517565b6113d9565b3480156104cb57600080fd5b506104df6104da366004614547565b611403565b6040519015158152602001610352565b3480156104fb57600080fd5b5061037b61050a366004613fc9565b61142b565b34801561051b57600080fd5b5061019e546001600160a01b031661043a565b34801561053a57600080fd5b5061016c5460ff166104df565b34801561055357600080fd5b506103bc610562366004614517565b61144b565b34801561057357600080fd5b506103bc610582366004614547565b6114e1565b34801561059357600080fd5b5061037b6105a236600461457e565b6114ee565b3480156105b357600080fd5b5061037b6105c23660046145d1565b611518565b3480156105d357600080fd5b5061037b6105e2366004614609565b611567565b3480156105f357600080fd5b50610607610602366004614698565b611632565b60408051928352602083019190915201610352565b34801561062857600080fd5b5061037b6106373660046146d7565b61168f565b34801561064857600080fd5b506103bc60d15481565b34801561065e57600080fd5b5061037b61066d366004614718565b6117a7565b34801561067e57600080fd5b5061037b61068d36600461475a565b611845565b34801561069e57600080fd5b506103bc61188b565b3480156106b357600080fd5b5061037b6106c236600461478f565b611934565b3480156106d357600080fd5b5061037b6106e23660046146d7565b6119dc565b6104926106f53660046146d7565b611ae9565b34801561070657600080fd5b50610839610715366004614547565b604080516080808201835260008083526020808401829052838501829052845160e081018652828152908101829052938401819052606080850182905291840181905260a0840181905260c08401528101919091525063ffffffff90811660009081526064602090815260409182902082516080808201855282546001600160a01b03908116835260018401548116838601526002840154811683870152855160e08101875260039094015461ffff8082168652620100008204811696860196909652640100000000810490951695840195909552600160301b840490951660608381019190915260ff600160501b85048116151596840196909652600160581b8404909516151560a0830152600160601b90920490921660c08301529182015290565b60405161035291906147cd565b34801561085257600080fd5b5060d45461043a906001600160a01b031681565b34801561087257600080fd5b50610886610881366004614547565b611c40565b6040516103529190614870565b34801561089f57600080fd5b506106076108ae3660046148b9565b611cdf565b3480156108bf57600080fd5b506103bc6108ce366004614547565b611d3d565b3480156108df57600080fd5b5061037b6108ee366004614609565b611d4a565b3480156108ff57600080fd5b5061019f546001600160a01b031661043a565b34801561091e57600080fd5b5061093261092d366004614913565b611dfb565b604051610352919061499d565b34801561094b57600080fd5b5061037b61095a3660046146d7565b611e29565b34801561096b57600080fd5b506103bc61097a366004613fc9565b611f76565b34801561098b57600080fd5b506103bc61099a3660046149e1565b612000565b3480156109ab57600080fd5b506106076109ba366004614a0d565b612017565b61016c5460ff16156109ec5760405162461bcd60e51b81526004016109e390614a32565b60405180910390fd5b60006109f7826120c4565b9050610a028161210a565b604051637579c99360e11b8152600481018290526064602482015273__$86182d6e9eac51236f2aa8dd2a3ddeab6c$__9063eaf393269060440160006040518083038186803b158015610a5457600080fd5b505af4158015610a68573d6000803e3d6000fd5b505050505050565b61013954610100900460ff16610a8d576101395460ff1615610a91565b303b155b610aad5760405162461bcd60e51b81526004016109e390614a5c565b61013954610100900460ff16158015610ad157610139805461ffff19166101011790555b60d380546001600160a01b03199081166001600160a01b038981169190911790925560668054821688841617905560d48054821686841617905560678054909116848316179055604080516060810182529186168252603c6020830152600190820152610b3f908690612118565b610b476122dc565b610b4f612366565b8015610a6857610139805461ff0019169055505050505050565b600081815260d26020526040808220905163a0ba775760e01b81526004810191909152606460248201528190606090819073__$86182d6e9eac51236f2aa8dd2a3ddeab6c$__9063a0ba775790604401600060405180830381865af4158015610bd6573d6000803e3d6000fd5b505050506040513d6000823e601f3d908101601f19168201604052610bfe9190810190614cb5565b93509350935093509193509193565b61019f546001600160a01b03163314801590610c35575061019e546001600160a01b03163314155b15610c5357604051636bd1573560e11b815260040160405180910390fd5b610c5d8282612118565b5050565b60d3546001600160a01b03163314610c8c576040516385734f3160e01b815260040160405180910390fd5b6000610cac610c9e6020840184614609565b6001600160a01b031661239b565b63ffffffff8116600090815260646020526040902054909150610cd7906001600160a01b03166123a9565b610ce357610ce3614dbb565b63ffffffff811660009081526064602052604090208290610d048282614f40565b9050507f4182acc9c169391ef7e765eb446fc15c9d49bc73060c678bf4c424a5c0dbdbcb8183606001604051610d3b9291906150c5565b60405180910390a15050565b6060816001600160401b03811115610d6157610d6161422b565b604051908082528060200260200182016040528015610d9457816020015b6060815260200190600190039081610d7f5790505b5090506000610da2856120c4565b9050610dad8161210a565b60008060005b858110156112e4576000878783818110610dcf57610dcf615181565b9050602002810190610de19190615197565b610def9060208101906151b7565b6006811115610e0057610e00614073565b03610e6c57600080888884818110610e1a57610e1a615181565b9050602002810190610e2c9190615197565b610e3a9060208101906151d8565b810190610e4791906149e1565b915091508380610e575750600081125b9350610e65868383876123bb565b50506112d2565b6001878783818110610e8057610e80615181565b9050602002810190610e929190615197565b610ea09060208101906151b7565b6006811115610eb157610eb1614073565b03610f1d576000878783818110610eca57610eca615181565b9050602002810190610edc9190615197565b610eea9060208101906151d8565b810190610ef79190613fc9565b9050610f05858260006124c2565b6000811215610f175760019350600192505b506112d2565b6002878783818110610f3157610f31615181565b9050602002810190610f439190615197565b610f519060208101906151b7565b6006811115610f6257610f62614073565b0361100f57600080888884818110610f7c57610f7c615181565b9050602002810190610f8e9190615197565b610f9c9060208101906151d8565b810190610fa9919061521e565b91509150600080610fbd88858560006125c2565b60408051602081018490529081018290529193509150606001604051602081830303815290604052898681518110610ff757610ff7615181565b602002602001018190525060019550505050506112d2565b600387878381811061102357611023615181565b90506020028101906110359190615197565b6110439060208101906151b7565b600681111561105457611054614073565b036110af5760008088888481811061106e5761106e615181565b90506020028101906110809190615197565b61108e9060208101906151d8565b81019061109b919061533d565b91509150600080610fbd8885856000612746565b60048787838181106110c3576110c3615181565b90506020028101906110d59190615197565b6110e39060208101906151b7565b60068111156110f4576110f4614073565b0361115857600080600089898581811061111057611110615181565b90506020028101906111229190615197565b6111309060208101906151d8565b81019061113d919061536b565b92509250925061114f8b848484612854565b505050506112d2565b600587878381811061116c5761116c615181565b905060200281019061117e9190615197565b61118c9060208101906151b7565b600681111561119d5761119d614073565b036111ab57610f178861294f565b60068787838181106111bf576111bf615181565b90506020028101906111d19190615197565b6111df9060208101906151b7565b60068111156111f0576111f0614073565b0361128657600087878381811061120957611209615181565b905060200281019061121b9190615197565b6112299060208101906151d8565b8101906112369190614547565b90506112428982612ac2565b60405160200161125491815260200190565b60405160208183030381529060405286838151811061127557611275615181565b6020026020010181905250506112d2565b86868281811061129857611298615181565b90506020028101906112aa9190615197565b6112b89060208101906151b7565b604051633164e52160e11b81526004016109e391906153b6565b806112dc816153e6565b915050610db3565b5081156113565760405163651524ed60e01b8152600481018490526064602482015273__$86182d6e9eac51236f2aa8dd2a3ddeab6c$__9063651524ed9060440160006040518083038186803b15801561133d57600080fd5b505af4158015611351573d6000803e3d6000fd5b505050505b80156113ce5760405163998c533560e01b8152600481018490526001602482015260646044820181905273__$86182d6e9eac51236f2aa8dd2a3ddeab6c$__9163998c5335910160006040518083038186803b1580156113b557600080fd5b505af41580156113c9573d6000803e3d6000fd5b505050505b5050505b9392505050565b600082815260d2602052604081206113f09061210a565b6113fa8383612ac2565b90505b92915050565b63ffffffff81166000908152606460205260408120546113fd906001600160a01b03166123a9565b600081815260d2602052604090206114429061210a565b610c5d8161294f565b600082815260d260205260408082209051637188a1ed60e01b8152600481019190915263ffffffff8316602482015260646044820181905273__$86182d6e9eac51236f2aa8dd2a3ddeab6c$__91637188a1ed9101602060405180830381865af41580156114bd573d6000803e3d6000fd5b505050506040513d601f19601f820116820180604052508101906113fa91906153ff565b60006113fd606483612be5565b600084815260d2602052604090206115059061210a565b61151184848484612854565b5050505050565b61016c5460ff161561153c5760405162461bcd60e51b81526004016109e390614a32565b6000611547846120c4565b90506115528161210a565b611561818484600086126123bb565b50505050565b61019f546001600160a01b0316331480159061158f575061019e546001600160a01b03163314155b156115ad57604051636bd1573560e11b815260040160405180910390fd5b6001600160a01b0381166115d45760405163d92e233d60e01b815260040160405180910390fd5b61019f546040516001600160a01b038084169216907f39355f2f5c8206286978f443aa8126bbd29fa09c53c04569502647f3a59c8cb290600090a361019f80546001600160a01b0319166001600160a01b0392909216919091179055565b60008061164261016c5460ff1690565b1561165f5760405162461bcd60e51b81526004016109e390614a32565b600061166a866120c4565b90506116758161210a565b61168281868660016125c2565b9250925050935093915050565b61019f546001600160a01b031633148015906116b7575061019e546001600160a01b03163314155b156116d557604051636bd1573560e11b815260040160405180910390fd5b6116dd612c41565b60005b818110156117a25760008383838181106116fc576116fc615181565b90506020020160208101906117119190614547565b63ffffffff8116600090815260646020526040808220600201549051632892019b60e11b81529293506001600160a01b03169163512403369161175c91600401901515815260200190565b600060405180830381600087803b15801561177657600080fd5b505af115801561178a573d6000803e3d6000fd5b5050505050808061179a906153e6565b9150506116e0565b505050565b61019f546001600160a01b031633148015906117cf575061019e546001600160a01b03163314155b156117ed57604051636bd1573560e11b815260040160405180910390fd5b63ffffffff8216600090815260646020526040902081906003016118118282614e28565b9050507f4182acc9c169391ef7e765eb446fc15c9d49bc73060c678bf4c424a5c0dbdbcb8282604051610d3b9291906150c5565b61016c5460ff16156118695760405162461bcd60e51b81526004016109e390614a32565b6000611874836120c4565b905061187f8161210a565b6117a2818360016124c2565b600061189a61016c5460ff1690565b156118b75760405162461bcd60e51b81526004016109e390614a32565b5060d1546118c6816001615418565b60d155600081815260d260209081526040918290206001600160601b031933600160601b8102919091166001600160601b03861617825592518481529092917f7325fb14450d3e5eb288c620b4ff1d6b43a41b33b4a4f143ae88cd4c12f99ea3910160405180910390a25090565b61019f546001600160a01b0316331480159061195c575061019e546001600160a01b03163314155b1561197a57604051636bd1573560e11b815260040160405180910390fd5b8360686119878282615452565b5050606a839055606b82905560698190556040517f697aec6e94e319190380ab0f1f10018d81b64da2479eb874be92c9a733e0a837906119ce9086908690869086906155ce565b60405180910390a150505050565b61019f546001600160a01b03163314801590611a04575061019e546001600160a01b03163314155b15611a2257604051636bd1573560e11b815260040160405180910390fd5b611a2a612cb8565b60005b818110156117a25760646000848484818110611a4b57611a4b615181565b9050602002016020810190611a609190614547565b63ffffffff16815260208101919091526040908101600020600201549051632892019b60e11b8152600160048201526001600160a01b0390911690635124033690602401600060405180830381600087803b158015611abe57600080fd5b505af1158015611ad2573d6000803e3d6000fd5b505050508080611ae1906153e6565b915050611a2d565b6060816001600160401b03811115611b0357611b0361422b565b604051908082528060200260200182016040528015611b3657816020015b6060815260200190600190039081611b215790505b50905060005b82811015611c395760008030868685818110611b5a57611b5a615181565b9050602002810190611b6c91906151d8565b604051611b7a9291906156a1565b600060405180830381855af49150503d8060008114611bb5576040519150601f19603f3d011682016040523d82523d6000602084013e611bba565b606091505b509150915081611c0657604481511015611bd357600080fd5b60048101905080806020019051810190611bed91906156b1565b60405162461bcd60e51b81526004016109e3919061573b565b80848481518110611c1957611c19615181565b602002602001018190525050508080611c31906153e6565b915050611b3c565b5092915050565b611c7360408051808201825260008082528251606081018452818152602081810183905293810191909152909182015290565b5063ffffffff9081166000908152606560209081526040918290208251808401845281546001600160a01b03908116825284516060810186526001909301549081168352600160a01b810490951682840152600160c01b90940460ff1615159281019290925282015290565b600080611cef61016c5460ff1690565b15611d0c5760405162461bcd60e51b81526004016109e390614a32565b6000611d17866120c4565b9050611d228161210a565b6116828186611d363688900388018861574e565b6001612746565b60006113fd606483612d34565b61019e546001600160a01b03163314611d7657604051636bd1573560e11b815260040160405180910390fd5b6001600160a01b038116611d9d5760405163d92e233d60e01b815260040160405180910390fd5b61019e546040516001600160a01b038084169216907f5f56bee8cffbe9a78652a74a60705edede02af10b0bbb888ca44b79a0d42ce8090600090a361019e80546001600160a01b0319166001600160a01b0392909216919091179055565b606060208251028201602001602083015b81811015611e21578051548152602001611e0c565b509192915050565b6000805b82811015611f4c576000848483818110611e4957611e49615181565b9050602002016020810190611e5e9190614609565b6001600160a01b0316635e622abc6040518163ffffffff1660e01b81526004016020604051808303816000875af1158015611e9d573d6000803e3d6000fd5b505050506040513d601f19601f82011682018060405250810190611ec191906153ff565b9050848483818110611ed557611ed5615181565b9050602002016020810190611eea9190614609565b6001600160a01b03167fa087657e3d85162090ffd700fbfdf5070d816f63aa5da00063f6ffd369c8a6db82604051611f2491815260200190565b60405180910390a2611f368184615418565b9250508080611f44906153e6565b915050611e2d565b506117a2611f6361019f546001600160a01b031690565b6066546001600160a01b03169083612d8c565b600081815260d26020526040808220905163625915c360e11b815260048101919091526064602482015273__$86182d6e9eac51236f2aa8dd2a3ddeab6c$__9063c4b22b8690604401602060405180830381865af4158015611fdc573d6000803e3d6000fd5b505050506040513d601f19601f820116820180604052508101906113fd91906153ff565b600061200a61188b565b90506113fd818484611518565b600082815260d26020526040808220905163031b5fcd60e21b815260048101919091528215156024820152606460448201819052829173__$86182d6e9eac51236f2aa8dd2a3ddeab6c$__91630c6d7f3491016040805180830381865af4158015612086573d6000803e3d6000fd5b505050506040513d601f19601f820116820180604052508101906120aa919061576b565b909590945092505050565b6001600160a01b03163b151590565b600081815260d2602052604090208054600160601b90046001600160a01b0316331461210557604051630504a20d60e01b81523360048201526024016109e3565b919050565b612115816064612def565b50565b600061212c836001600160a01b031661239b565b9050612140836001600160a01b03166123a9565b15612161576040516376d8a93160e01b8152600060048201526024016109e3565b63ffffffff8116600090815260656020526040902054612189906001600160a01b03166123a9565b1580156121c2575063ffffffff8082166000908152606560205260409020546121c0916001600160a01b03909116908590612dfc16565b155b1561220b5763ffffffff81166000908152606560205260409081902054905163a5d4d0b560e01b81526001600160a01b03808616600483015290911660248201526044016109e3565b6040805180820182526001600160a01b038581168252602080830186815263ffffffff868116600090815260658452869020945185546001600160a01b03191690851617855590518051600190950180549382015191870151959094166001600160c01b031990931692909217600160a01b92909116919091021760ff60c01b1916600160c01b92151592909202919091179055517f52983c04d8ccd4808cd0fcb24e6e48106ecb41e803d6270c6c94a15e3ebd08d2906122cf908590859061578f565b60405180910390a1505050565b61013954610100900460ff166122f9576101395460ff16156122fd565b303b155b6123195760405162461bcd60e51b81526004016109e390614a5c565b61013954610100900460ff1615801561233d57610139805461ffff19166101011790555b612345612e12565b336123508180612e3c565b50801561211557610139805461ff001916905550565b61013954610100900460ff1661238e5760405162461bcd60e51b81526004016109e3906157d1565b61016c805460ff19169055565b600063ffffffff82166113fd565b60006001600160a01b038216156113fd565b61016c5460ff16156123df5760405162461bcd60e51b81526004016109e390614a32565b60006123ee8460008512612f48565b60405163f5a284a160e01b81526004810187905263ffffffff8616602482015260448101859052606480820152831515608482015290915073__$86182d6e9eac51236f2aa8dd2a3ddeab6c$__9063f5a284a19060a40160006040518083038186803b15801561245d57600080fd5b505af4158015612471573d6000803e3d6000fd5b50505050600083131561249a578054612495906001600160a01b0316333086612fd7565b611511565b600083121561151157611511336124b08561581c565b83546001600160a01b03169190612d8c565b61016c5460ff16156124e65760405162461bcd60e51b81526004016109e390614a32565b8160000361250757604051631f2a200560e01b815260040160405180910390fd5b60405163d25c4a6f60e01b815260048101849052602481018390526064604482018190528215159082015273__$86182d6e9eac51236f2aa8dd2a3ddeab6c$__9063d25c4a6f9060840160006040518083038186803b15801561256957600080fd5b505af415801561257d573d6000803e3d6000fd5b5050505060008213156125a2576066546117a2906001600160a01b0316333085612fd7565b6117a2336125af8461581c565b6066546001600160a01b03169190612d8c565b6000806125d261016c5460ff1690565b156125ef5760405162461bcd60e51b81526004016109e390614a32565b6125f88561300f565b604051630a067b0f60e11b815273__$86182d6e9eac51236f2aa8dd2a3ddeab6c$__9063140cf61e90612638908990899089906064908a90600401615838565b6040805180830381865af4158015612654573d6000803e3d6000fd5b505050506040513d601f19601f82011682018060405250810190612678919061576b565b9092509050600061268882613092565b606b549091508110156126b1576040516312b6b5cd60e11b8152600481018290526024016109e3565b60208501516001600160a01b0316158015906126cf57508460600151155b1561273c57846040015180156126f6575084516126eb90613092565b6126f483613092565b145b8061271f5750846040015115801561271f5750845161271490613092565b61271d84613092565b145b61273c576040516307a1db0760e01b815260040160405180910390fd5b5094509492505050565b60008061275661016c5460ff1690565b156127735760405162461bcd60e51b81526004016109e390614a32565b61277c8561300f565b60608401516001600160a01b0316156127a2576127a285856060015186608001516130ad565b60405163c27789d160e01b815260009073__$86182d6e9eac51236f2aa8dd2a3ddeab6c$__9063c27789d1906127e5908a908a908a906064908b906004016158ac565b606060405180830381865af4158015612802573d6000803e3d6000fd5b505050506040513d601f19601f820116820180604052508101906128269190615956565b606b54929550909350915081101561273c576040516312b6b5cd60e11b8152600481018290526024016109e3565b600061286361016c5460ff1690565b156128805760405162461bcd60e51b81526004016109e390614a32565b600085815260d2602052604090206128978561300f565b606a54604051637022478560e11b81526004810183905263ffffffff87166024820152600286810b604483015285900b6064808301919091526084820183905260a482015290925073__$86182d6e9eac51236f2aa8dd2a3ddeab6c$__9063e0448f0a9060c40160006040518083038186803b15801561291657600080fd5b505af415801561292a573d6000803e3d6000fd5b505060665461294692506001600160a01b031690503384612d8c565b50949350505050565b600061295e61016c5460ff1690565b1561297b5760405162461bcd60e51b81526004016109e390614a32565b600082815260d2602052604080822090516308b9103160e21b815260048101829052602481018390526064604482018190529192918291829173__$86182d6e9eac51236f2aa8dd2a3ddeab6c$__916322e440c49101606060405180830381865af41580156129ee573d6000803e3d6000fd5b505050506040513d601f19601f82011682018060405250810190612a129190615956565b919450925090506000612a258385615984565b905060008413612a4b5760405163ef37dcc760e01b8152600481018590526024016109e3565b606654612a62906001600160a01b03163386612d8c565b612a6b8361313f565b604080518281526020810186905290810184905260608101839052339088907f688f0846fe2852572c467d5e769db101b0fea55e8849406d85c9fb322b95299b9060800160405180910390a3509195945050505050565b6000612ad161016c5460ff1690565b15612aee5760405162461bcd60e51b81526004016109e390614a32565b600083815260d260205260409020612b058361300f565b6040516377f3beb560e01b81526004810182905263ffffffff841660248201526000604482018190526064808301529073__$86182d6e9eac51236f2aa8dd2a3ddeab6c$__906377f3beb5906084016040805180830381865af4158015612b70573d6000803e3d6000fd5b505050506040513d601f19601f82011682018060405250810190612b94919061576b565b909350905060008313612bbd5760405163ef37dcc760e01b8152600481018490526024016109e3565b606654612bd4906001600160a01b03163385612d8c565b612bdd8161313f565b505092915050565b600080612bf06131cb565b63ffffffff80851660009081526008870160205260409020805492935091818416911603612c2e57600101546001600160e01b031691506113fd9050565b612c388585613235565b925050506113fd565b61016c5460ff1615612c655760405162461bcd60e51b81526004016109e390614a32565b61016c805460ff191660011790557f62e78cea01bee320cd4e420270b5ea74000d11b0c9f74754ebdbfc544b05a258612c9b3390565b6040516001600160a01b03909116815260200160405180910390a1565b61016c5460ff16612d025760405162461bcd60e51b815260206004820152601460248201527314185d5cd8589b194e881b9bdd081c185d5cd95960621b60448201526064016109e3565b61016c805460ff191690557f5db9ee0a495bf2e6ff9c91a7834c1ba4fdd244a5e8aa4e537bd38aeae4b073aa33612c9b565b600080612d3f6131cb565b63ffffffff80851660009081526008870160205260409020805492935091818416911603612d82575464010000000090046001600160e01b031691506113fd9050565b612c3885856132d2565b6040516001600160a01b0383166024820152604481018290526117a290849063a9059cbb60e01b906064015b60408051601f198184030181529190526020810180516001600160e01b03166001600160e01b0319909316929092179091526132ef565b610c5d60018301826133c1565b60006001600160a01b03808416908316146113fa565b61013954610100900460ff16612e3a5760405162461bcd60e51b81526004016109e3906157d1565b565b61013954610100900460ff16612e59576101395460ff1615612e5d565b303b155b612e795760405162461bcd60e51b81526004016109e390614a5c565b61013954610100900460ff16158015612e9d57610139805461ffff19166101011790555b61019e80546001600160a01b0319166001600160a01b0385169081179091556040516000907f5f56bee8cffbe9a78652a74a60705edede02af10b0bbb888ca44b79a0d42ce80908290a361019f80546001600160a01b0319166001600160a01b0384169081179091556040516000907f39355f2f5c8206286978f443aa8126bbd29fa09c53c04569502647f3a59c8cb2908290a380156117a257610139805461ff0019169055505050565b63ffffffff821660009081526065602052604090208054612f71906001600160a01b03166123a9565b15612f9757604051636b9c1a9d60e01b815263ffffffff841660048201526024016109e3565b81158015612fb157506001810154600160c01b900460ff16155b156113fd5760405163122a1f1960e31b815263ffffffff841660048201526024016109e3565b6040516001600160a01b03808516602483015283166044820152606481018290526115619085906323b872dd60e01b90608401612db8565b63ffffffff811660009081526064602052604090208054613038906001600160a01b03166123a9565b1561305e5760405163b842f5a760e01b815263ffffffff831660048201526024016109e3565b6003810154600160501b900460ff16610c5d5760405163587ee90160e11b815263ffffffff831660048201526024016109e3565b60008082136130a9576130a48261581c565b6113fd565b5090565b60006130ba606485613436565b90506000836001600160a01b0316826001600160a01b0316116130e6576130e182856159c5565b6130f0565b6130f084836159c5565b90506127106131038561ffff86166159ed565b61310d9190615a32565b6001600160a01b0316816001600160a01b03161115611511576040516307a1db0760e01b815260040160405180910390fd5b60008113156131655760d454606654612115916001600160a01b03918216911683612d8c565b60d4546001600160a01b031663379607f561317f8361581c565b6040518263ffffffff1660e01b815260040161319d91815260200190565b600060405180830381600087803b1580156131b757600080fd5b505af1158015611511573d6000803e3d6000fd5b600060646001600160a01b031663a3b1b31d6040518163ffffffff1660e01b8152600401602060405180830381865afa15801561320c573d6000803e3d6000fd5b505050506040513d601f19601f8201168201806040525081019061323091906153ff565b905090565b63ffffffff8181166000908152602084905260408082206003810154915163dd86c10160e01b8152600160301b830490941660048501529192600160601b9091046001600160a01b03169063dd86c10190602401602060405180830381865afa1580156132a6573d6000803e3d6000fd5b505050506040513d601f19601f820116820180604052508101906132ca91906153ff565b949350505050565b60006113fa6132e18484613461565b6001600160a01b03166134a5565b6000613344826040518060400160405280602081526020017f5361666545524332303a206c6f772d6c6576656c2063616c6c206661696c6564815250856001600160a01b03166135129092919063ffffffff16565b8051909150156117a257808060200190518101906133629190615a58565b6117a25760405162461bcd60e51b815260206004820152602a60248201527f5361666545524332303a204552433230206f7065726174696f6e20646964206e6044820152691bdd081cdd58d8d9595960b21b60648201526084016109e3565b60005b60088160ff1610156117a25760008360ff8316600881106133e7576133e7615181565b600891828204019190066004029054906101000a900463ffffffff1690508063ffffffff166000036134195750505050565b6134238382613521565b508061342e81615a75565b9150506133c4565b63ffffffff81166000908152602083905260408120600101546113fa906001600160a01b0316613657565b63ffffffff808216600090815260208490526040812060038101546001820154929391926132ca926001600160a01b0390911691600160301b90048116906136c816565b60006401000276a36001600160a01b03831610806134e0575073fffd8963efd1fc6a506488495d951d5263988d266001600160a01b03831610155b1561350957604051635d236c4560e01b81526001600160a01b03831660048201526024016109e3565b6113fd826136e9565b60606132ca8484600085613703565b600061352b6131cb565b63ffffffff808416600090815260088601602052604090208054929350918184169116036135595750505050565b60006135658585613235565b9050600061357386866132d2565b63ffffffff86811660009081526020899052604090206003015491925064010000000090910461ffff16906135b090849083906127109061383416565b6135c26135bd8486615a94565b6138e6565b11156135e25760018401805460ff60e01b1916600160e01b1790556135f2565b60018401805460ff60e01b191690555b6135fb836138f1565b6001850180546001600160e01b0319166001600160e01b0392909216919091179055613626826138f1565b63ffffffff959095166001600160e01b03959095166401000000000263ffffffff1916949094179092555050505050565b6000816001600160a01b0316633850c7bd6040518163ffffffff1660e01b815260040160e060405180830381865afa158015613697573d6000803e3d6000fd5b505050506040513d601f19601f820116820180604052508101906136bb9190615ad3565b5094979650505050505050565b6000806136de6001600160a01b0385168461391b565b90506132ca81613b37565b60006113fd6001600160a01b03831680600160401b613834565b6060824710156137645760405162461bcd60e51b815260206004820152602660248201527f416464726573733a20696e73756666696369656e742062616c616e636520666f6044820152651c8818d85b1b60d21b60648201526084016109e3565b6001600160a01b0385163b6137bb5760405162461bcd60e51b815260206004820152601d60248201527f416464726573733a2063616c6c20746f206e6f6e2d636f6e747261637400000060448201526064016109e3565b600080866001600160a01b031685876040516137d79190615b75565b60006040518083038185875af1925050503d8060008114613814576040519150601f19603f3d011682016040523d82523d6000602084013e613819565b606091505b5091509150613829828286613e5a565b979650505050505050565b600080806000198587098587029250828110838203039150508060000361386d576000841161386257600080fd5b5082900490506113d2565b80841161387957600080fd5b6000848688096000868103871696879004966002600389028118808a02820302808a02820302808a02820302808a02820302808a02820302808a02909103029181900381900460010186841190950394909402919094039290920491909117919091029150509392505050565b60006113fd82613092565b6000600160e01b8211156130a957604051631ba3445360e01b8152600481018390526024016109e3565b60008163ffffffff166000036139445761393d836001600160a01b0316613e93565b90506113fd565b604080516002808252606082018352600092602083019080368337019050509050828160008151811061397957613979615181565b602002602001019063ffffffff16908163ffffffff16815250506000816001815181106139a8576139a8615181565b63ffffffff9092166020928302919091019091015260405163883bdbfd60e01b81526001600160a01b0385169063883bdbfd906139e9908490600401615b87565b600060405180830381865afa925050508015613a2757506040513d6000823e601f3d908101601f19168201604052613a249190810190615c29565b60015b613a9c57836001600160a01b0316633850c7bd6040518163ffffffff1660e01b815260040160e060405180830381865afa158015613a69573d6000803e3d6000fd5b505050506040513d601f19601f82011682018060405250810190613a8d9190615ad3565b50939650611c39945050505050565b600082600081518110613ab157613ab1615181565b602002602001015183600181518110613acc57613acc615181565b6020026020010151613ade9190615cf4565b90506000613af263ffffffff881683615d44565b905060008260060b128015613b185750613b1263ffffffff881683615d82565b60060b15155b15613b2b5780613b2781615da4565b9150505b94506113fd9350505050565b60008060008360020b12613b4e578260020b613b56565b8260020b6000035b9050620d89e8811115613b7c576040516315e4079d60e11b815260040160405180910390fd5b600081600116600003613b9357600160801b613ba5565b6ffffcb933bd6fad37aa2d162d1a5940015b70ffffffffffffffffffffffffffffffffff1690506002821615613bd9576ffff97272373d413259a46990580e213a0260801c5b6004821615613bf8576ffff2e50f5f656932ef12357cf3c7fdcc0260801c5b6008821615613c17576fffe5caca7e10e4e61c3624eaa0941cd00260801c5b6010821615613c36576fffcb9843d60f6159c9db58835c9266440260801c5b6020821615613c55576fff973b41fa98c081472e6896dfb254c00260801c5b6040821615613c74576fff2ea16466c96a3843ec78b326b528610260801c5b6080821615613c93576ffe5dee046a99a2a811c461f1969c30530260801c5b610100821615613cb3576ffcbe86c7900a88aedcffc83b479aa3a40260801c5b610200821615613cd3576ff987a7253ac413176f2b074cf7815e540260801c5b610400821615613cf3576ff3392b0822b70005940c7a398e4b70f30260801c5b610800821615613d13576fe7159475a2c29b7443b29c7fa6e889d90260801c5b611000821615613d33576fd097f3bdfd2022b8845ad8f792aa58250260801c5b612000821615613d53576fa9f746462d870fdf8a65dc1f90e061e50260801c5b614000821615613d73576f70d869a156d2a1b890bb3df62baf32f70260801c5b618000821615613d93576f31be135f97d08fd981231505542fcfa60260801c5b62010000821615613db4576f09aa508b5b7a84e1c677de54f3e99bc90260801c5b62020000821615613dd4576e5d6af8dedb81196699c329225ee6040260801c5b62040000821615613df3576d2216e584f5fa1ea926041bedfe980260801c5b62080000821615613e10576b048a170391f7dc42444e8fa20260801c5b60008460020b1315613e31578060001981613e2d57613e2d615a1c565b0490505b640100000000810615613e45576001613e48565b60005b60ff16602082901c0192505050919050565b60608315613e695750816113d2565b825115613e795782518084602001fd5b8160405162461bcd60e51b81526004016109e3919061573b565b6000816001600160a01b0316633850c7bd6040518163ffffffff1660e01b815260040160e060405180830381865afa158015613ed3573d6000803e3d6000fd5b505050506040513d601f19601f82011682018060405250810190613ef79190615ad3565b5093979650505050505050565b60006101a08201905060018060a01b03808916835280881660208401525061ffff808751166040840152806020880151166060840152806040880151166080840152506060860151613f5c60a084018261ffff169052565b50608086015161ffff811660c08401525060a086015161ffff811660e08401525060c08601516001600160401b0381166101008401525060e08601516001600160401b03811661012084015250846101408301528361016083015282610180830152979650505050505050565b600060208284031215613fdb57600080fd5b5035919050565b6001600160a01b038116811461211557600080fd5b803561210581613fe2565b600080600080600060a0868803121561401a57600080fd5b853561402581613fe2565b9450602086013561403581613fe2565b9350604086013561404581613fe2565b9250606086013561405581613fe2565b9150608086013561406581613fe2565b809150509295509295909350565b634e487b7160e01b600052602160045260246000fd5b6003811061409957614099614073565b9052565b6000608080830160018060a01b038089168552602088818701526040848188015283895180865260a089019150838b01955060005b818110156140f95786518051871684528501518584015295840195918301916001016140d2565b5050606094508781038589015280935088518082528382019450838160051b830101848b0160005b8381101561421757848303601f190188528151805163ffffffff16845287810151888501528681015187850152898101518a8501528a015160a08b850181905281519085018190529088019060009060c08601905b808310156142025783518051600290810b84528c820151900b8c8401528a8101516001600160801b0381168c850152508d8101518e8401528e8101518f84015260a081015160a084015260c081015160c084015260e081015160e08401526101008082015191506141e981850183614089565b5050610120820191508a84019350600183019250614176565b50998901999450505090860190600101614121565b50909e9d5050505050505050505050505050565b634e487b7160e01b600052604160045260246000fd5b60405160a081016001600160401b03811182821017156142635761426361422b565b60405290565b60405161012081016001600160401b03811182821017156142635761426361422b565b604080519081016001600160401b03811182821017156142635761426361422b565b604051601f8201601f191681016001600160401b03811182821017156142d6576142d661422b565b604052919050565b63ffffffff8116811461211557600080fd5b8035612105816142de565b801515811461211557600080fd5b8035612105816142fb565b600080828403608081121561432857600080fd5b833561433381613fe2565b92506060601f198201121561434757600080fd5b50604051606081018181106001600160401b038211171561436a5761436a61422b565b604052602084013561437b81613fe2565b8152604084013561438b816142de565b6020820152606084013561439e816142fb565b6040820152919491935090915050565b600061014082840312156143c157600080fd5b50919050565b60008083601f8401126143d957600080fd5b5081356001600160401b038111156143f057600080fd5b6020830191508360208260051b850101111561440b57600080fd5b9250929050565b60008060006040848603121561442757600080fd5b8335925060208401356001600160401b0381111561444457600080fd5b614450868287016143c7565b9497909650939450505050565b60005b83811015614478578181015183820152602001614460565b838111156115615750506000910152565b600081518084526144a181602086016020860161445d565b601f01601f19169290920160200192915050565b6000602080830181845280855180835260408601915060408160051b870101925083870160005b8281101561450a57603f198886030184526144f8858351614489565b945092850192908501906001016144dc565b5092979650505050505050565b6000806040838503121561452a57600080fd5b82359150602083013561453c816142de565b809150509250929050565b60006020828403121561455957600080fd5b81356113d2816142de565b8060020b811461211557600080fd5b803561210581614564565b6000806000806080858703121561459457600080fd5b8435935060208501356145a6816142de565b925060408501356145b681614564565b915060608501356145c681614564565b939692955090935050565b6000806000606084860312156145e657600080fd5b8335925060208401356145f8816142de565b929592945050506040919091013590565b60006020828403121561461b57600080fd5b81356113d281613fe2565b600060a0828403121561463857600080fd5b614640614241565b905081358152602082013561465481613fe2565b60208201526040820135614667816142fb565b6040820152606082013561467a816142fb565b6060820152608082013561468d816142fb565b608082015292915050565b600080600060e084860312156146ad57600080fd5b8335925060208401356146bf816142de565b91506146ce8560408601614626565b90509250925092565b600080602083850312156146ea57600080fd5b82356001600160401b0381111561470057600080fd5b61470c858286016143c7565b90969095509350505050565b60008082840361010081121561472d57600080fd5b8335614738816142de565b925060e0601f198201121561474c57600080fd5b506020830190509250929050565b6000806040838503121561476d57600080fd5b50508035926020909101359150565b600061010082840312156143c157600080fd5b60008060008061016085870312156147a657600080fd5b6147b0868661477c565b966101008601359650610120860135956101400135945092505050565b60006101408201905060018060a01b0380845116835280602085015116602084015280604085015116604084015250606083015161ffff8082511660608501528060208301511660808501528060408301511660a08501525063ffffffff60608201511660c08401526080810151151560e084015260a081015161485661010085018215159052565b5060c001516001600160a01b038116610120840152611c39565b81516001600160a01b031681526020808301516080830191611c399084018280516001600160a01b0316825260208082015163ffffffff16908301526040908101511515910152565b600080600061014084860312156148cf57600080fd5b8335925060208401356148e1816142de565b91506146ce856040860161477c565b60006001600160401b038211156149095761490961422b565b5060051b60200190565b6000602080838503121561492657600080fd5b82356001600160401b0381111561493c57600080fd5b8301601f8101851361494d57600080fd5b803561496061495b826148f0565b6142ae565b81815260059190911b8201830190838101908783111561497f57600080fd5b928401925b8284101561382957833582529284019290840190614984565b6020808252825182820181905260009190848201906040850190845b818110156149d5578351835292840192918401916001016149b9565b50909695505050505050565b600080604083850312156149f457600080fd5b82356149ff816142de565b946020939093013593505050565b60008060408385031215614a2057600080fd5b82359150602083013561453c816142fb565b60208082526010908201526f14185d5cd8589b194e881c185d5cd95960821b604082015260600190565b6020808252602e908201527f496e697469616c697a61626c653a20636f6e747261637420697320616c72656160408201526d191e481a5b9a5d1a585b1a5e995960921b606082015260800190565b805161210581614564565b80516001600160801b038116811461210557600080fd5b6003811061211557600080fd5b805161210581614acc565b600082601f830112614af557600080fd5b81516020614b0561495b836148f0565b82815260059290921b84018101918181019086841115614b2457600080fd5b8286015b84811015614caa5780516001600160401b0380821115614b4757600080fd5b9088019060a0828b03601f19011215614b5f57600080fd5b614b67614241565b86830151614b74816142de565b80825250604083015187820152606083015160408201526080830151606082015260a083015182811115614ba757600080fd5b8084019350508a603f840112614bbc57600080fd5b868301519150614bce61495b836148f0565b82815261012092830284016040019288820191908d851115614bef57600080fd5b6040860195505b84861015614c945780868f031215614c0d57600080fd5b614c15614269565b614c1e87614aaa565b8152614c2b8b8801614aaa565b8b820152614c3b60408801614ab5565b6040820152606087015160608201526080870151608082015260a087015160a082015260c087015160c082015260e087015160e0820152614c7f6101008801614ad9565b61010082015283529485019491890191614bf6565b5060808301525085525050918301918301614b28565b509695505050505050565b60008060008060808587031215614ccb57600080fd5b8451614cd681613fe2565b8094505060208086015193506040808701516001600160401b0380821115614cfd57600080fd5b818901915089601f830112614d1157600080fd5b8151614d1f61495b826148f0565b81815260069190911b8301850190858101908c831115614d3e57600080fd5b938601935b82851015614d875785858e031215614d5b5760008081fd5b614d6361428c565b8551614d6e81613fe2565b8152858801518882015282529385019390860190614d43565b60608c01519098509550505080841115614da057600080fd5b505050614daf87828801614ae4565b91505092959194509250565b634e487b7160e01b600052600160045260246000fd5b80546001600160a01b0319166001600160a01b0392909216919091179055565b61ffff8116811461211557600080fd5b600081356113fd81614df1565b600081356113fd816142fb565b600081356113fd81613fe2565b8135614e3381614df1565b815461ffff191661ffff8216178255506020820135614e5181614df1565b815463ffff00001916601082901b63ffff000016178255506040820135614e7781614df1565b815465ffff000000001916602082901b65ffff0000000016178255506060820135614ea1816142de565b815469ffffffff000000000000191660309190911b63ffffffff60301b161781556080820135614ed0816142fb565b815460ff60501b191681151560501b60ff60501b161782555060a0820135614ef7816142fb565b815460ff60581b191681151560581b60ff60581b161782555060c0820135614f1e81613fe2565b81546001600160601b0316606082901b6001600160601b031916178255505050565b8135614f4b81613fe2565b614f558183614dd1565b506020820135614f6481613fe2565b614f718160018401614dd1565b506040820135614f8081613fe2565b614f8d8160028401614dd1565b50600381016060830135614fa081614df1565b815461ffff191661ffff8216178255506080830135614fbe81614df1565b815463ffff00001916601082901b63ffff0000161782555060a0830135614fe481614df1565b815465ffff000000001916602082901b65ffff00000000161782555060c083013561500e816142de565b815469ffffffff000000000000191660309190911b63ffffffff60301b1617815561505c61503e60e08501614e0e565b82805460ff60501b191691151560501b60ff60501b16919091179055565b61508a61506c6101008501614e0e565b82805460ff60581b191691151560581b60ff60581b16919091179055565b6117a261509a6101208501614e1b565b82546001600160601b031660609190911b6001600160601b031916178255565b803561210581614df1565b63ffffffff83168152610100810182356150de81614df1565b61ffff8082166020850152602085013591506150f982614df1565b80821660408501526040850135915061511182614df1565b80821660608501525050615127606084016142f0565b63ffffffff811660808401525061514060808401614309565b80151560a08401525061515560a08401614309565b80151560c08401525061516a60c08401613ff7565b6001600160a01b03811660e0840152509392505050565b634e487b7160e01b600052603260045260246000fd5b60008235603e198336030181126151ad57600080fd5b9190910192915050565b6000602082840312156151c957600080fd5b8135600781106113d257600080fd5b6000808335601e198436030181126151ef57600080fd5b8301803591506001600160401b0382111561520957600080fd5b60200191503681900382131561440b57600080fd5b60008060c0838503121561523157600080fd5b823561523c816142de565b915061524b8460208501614626565b90509250929050565b8035600f81900b811461210557600080fd5b803561210581614acc565b600061010080838503121561528557600080fd5b604051908101906001600160401b03821181831017156152a7576152a761422b565b81604052809250833591506152bb82614564565b8181526152ca60208501614573565b60208201526152db60408501615254565b60408201526152ec60608501613ff7565b60608201526152fd608085016150ba565b608082015261530e60a08501614309565b60a082015261531f60c08501615266565b60c082015261533060e08501614309565b60e0820152505092915050565b600080610120838503121561535157600080fd5b823561535c816142de565b915061524b8460208501615271565b60008060006060848603121561538057600080fd5b833561538b816142de565b9250602084013561539b81614564565b915060408401356153ab81614564565b809150509250925092565b60208101600783106153ca576153ca614073565b91905290565b634e487b7160e01b600052601160045260246000fd5b6000600182016153f8576153f86153d0565b5060010190565b60006020828403121561541157600080fd5b5051919050565b6000821982111561542b5761542b6153d0565b500190565b6001600160401b038116811461211557600080fd5b600081356113fd81615430565b813561545d81614df1565b815461ffff191661ffff821617825550602082013561547b81614df1565b815463ffff00001916601082901b63ffff0000161782555060408201356154a181614df1565b815465ffff000000001916602082901b65ffff00000000161782555060608201356154cb81614df1565b815467ffff0000000000008260301b1691508167ffff00000000000019821617835560808401356154fb81614df1565b69ffff00000000000000008160401b168363ffffffff60301b1984161717845550505061554d61552d60a08401614e01565b82805461ffff60501b191660509290921b61ffff60501b16919091179055565b61558861555c60c08401615445565b82805467ffffffffffffffff60601b191660609290921b67ffffffffffffffff60601b16919091179055565b610c5d61559760e08401615445565b82805467ffffffffffffffff60a01b191660a09290921b67ffffffffffffffff60a01b16919091179055565b803561210581615430565b610160810185356155de81614df1565b61ffff90811683526020870135906155f582614df1565b166020830152615607604087016150ba565b61ffff16604083015261561c606087016150ba565b61ffff166060830152615631608087016150ba565b61ffff16608083015261564660a087016150ba565b61ffff1660a083015261565b60c087016155c3565b6001600160401b031660c083015261567560e087016155c3565b6001600160401b031660e083015261010082019490945261012081019290925261014090910152919050565b8183823760009101908152919050565b6000602082840312156156c357600080fd5b81516001600160401b03808211156156da57600080fd5b818401915084601f8301126156ee57600080fd5b8151818111156157005761570061422b565b615713601f8201601f19166020016142ae565b915080825285602082850101111561572a57600080fd5b61294681602084016020860161445d565b6020815260006113fa6020830184614489565b6000610100828403121561576157600080fd5b6113fa8383615271565b6000806040838503121561577e57600080fd5b505080516020909101519092909150565b6001600160a01b0383168152608081016113d2602083018480516001600160a01b0316825260208082015163ffffffff16908301526040908101511515910152565b6020808252602b908201527f496e697469616c697a61626c653a20636f6e7472616374206973206e6f74206960408201526a6e697469616c697a696e6760a81b606082015260800190565b6000600160ff1b8201615831576158316153d0565b5060000390565b60006101208201905086825263ffffffff861660208301528451604083015260018060a01b0360208601511660608301526040850151151560808301526060850151151560a08301526080850151151560c08301528360e08301526158a261010083018415159052565b9695505050505050565b60006101808201905086825263ffffffff86166020830152845160020b6040830152602085015160020b60608301526040850151600f0b6080830152606085015161590260a08401826001600160a01b03169052565b50608085015161ffff1660c08381019190915260a0860151151560e0840152850151615932610100840182614089565b5060e0850151151561012083015261014082018490528215156101608301526158a2565b60008060006060848603121561596b57600080fd5b8351925060208401519150604084015190509250925092565b600080821280156001600160ff1b03849003851316156159a6576159a66153d0565b600160ff1b83900384128116156159bf576159bf6153d0565b50500190565b60006001600160a01b03838116908316818110156159e5576159e56153d0565b039392505050565b60006001600160a01b0382811684821681151582840482111615615a1357615a136153d0565b02949350505050565b634e487b7160e01b600052601260045260246000fd5b60006001600160a01b0383811680615a4c57615a4c615a1c565b92169190910492915050565b600060208284031215615a6a57600080fd5b81516113d2816142fb565b600060ff821660ff8103615a8b57615a8b6153d0565b60010192915050565b60008083128015600160ff1b850184121615615ab257615ab26153d0565b6001600160ff1b0384018313811615615acd57615acd6153d0565b50500390565b600080600080600080600060e0888a031215615aee57600080fd5b8751615af981613fe2565b6020890151909750615b0a81614564565b6040890151909650615b1b81614df1565b6060890151909550615b2c81614df1565b6080890151909450615b3d81614df1565b60a089015190935060ff81168114615b5457600080fd5b60c0890151909250615b65816142fb565b8091505092959891949750929550565b600082516151ad81846020870161445d565b6020808252825182820181905260009190848201906040850190845b818110156149d557835163ffffffff1683529284019291840191600101615ba3565b600082601f830112615bd657600080fd5b81516020615be661495b836148f0565b82815260059290921b84018101918181019086841115615c0557600080fd5b8286015b84811015614caa578051615c1c81613fe2565b8352918301918301615c09565b60008060408385031215615c3c57600080fd5b82516001600160401b0380821115615c5357600080fd5b818501915085601f830112615c6757600080fd5b81516020615c7761495b836148f0565b82815260059290921b84018101918181019089841115615c9657600080fd5b948201945b83861015615cc45785518060060b8114615cb55760008081fd5b82529482019490820190615c9b565b91880151919650909350505080821115615cdd57600080fd5b50615cea85828601615bc5565b9150509250929050565b60008160060b8360060b6000811281667fffffffffffff1901831281151615615d1f57615d1f6153d0565b81667fffffffffffff018313811615615d3a57615d3a6153d0565b5090039392505050565b60008160060b8360060b80615d5b57615d5b615a1c565b667fffffffffffff19821460001982141615615d7957615d796153d0565b90059392505050565b60008260060b80615d9557615d95615a1c565b808360060b0791505092915050565b60008160020b627fffff198103615dbd57615dbd6153d0565b600019019291505056fea2646970667358221220e28d0963b2bd1c9e2deec42c9ae5d5cd85d0d23a764ed707d364e3ede93f60b364736f6c634300080d0033",
  "libraries": {
    "Account": "0x9cF9a63Bc26d0F8E04FDd74218edF3B1e68F5dA5"
  },
  "userdoc": {
    "errors": {
      "AccessDenied(address)": [
        {
          "notice": "error to denote invalid account access"
        }
      ],
      "CollateralDoesNotExist(uint32)": [
        {
          "notice": "error to denote usage of uninitialized token"
        }
      ],
      "CollateralNotAllowedForUse(uint32)": [
        {
          "notice": "error to denote usage of unsupported collateral token"
        }
      ],
      "IncorrectCollateralAddress(address,address)": [
        {
          "notice": "error to denote incorrect address is supplied while updating collateral settings"
        }
      ],
      "InvalidCollateralAddress(address)": [
        {
          "notice": "error to denote invalid address supplied as a collateral token"
        }
      ],
      "InvalidMulticallOperationType(uint8)": [
        {
          "notice": "this is errored when the enum (uint8) value is out of bounds"
        }
      ],
      "InvalidTokenLiquidationParameters()": [
        {
          "notice": "error to denote invalid token liquidation (fraction to liquidate> 1)"
        }
      ],
      "KeeperFeeNotPositive(int256)": [
        {
          "notice": "error to denote that keeper fee is negative or zero"
        }
      ],
      "LowNotionalValue(uint256)": [
        {
          "notice": "error to denote low notional value of txn"
        }
      ],
      "PoolDoesNotExist(uint32)": [
        {
          "notice": "error to denote usage of uninitialized pool"
        }
      ],
      "PoolNotAllowedForTrade(uint32)": [
        {
          "notice": "error to denote usage of unsupported pool"
        }
      ],
      "SlippageBeyondTolerance()": [
        {
          "notice": "error to denote slippage of txn beyond set threshold"
        }
      ]
    },
    "events": {
      "AccountCreated(address,uint256)": {
        "notice": "denotes new account creation"
      },
      "CollateralSettingsUpdated(address,(address,uint32,bool))": {
        "notice": "new collateral supported as margin"
      },
      "PoolSettingsUpdated(uint32,(uint16,uint16,uint16,uint32,bool,bool,address))": {
        "notice": "maintainance margin ratio of a pool changed"
      },
      "ProtocolSettingsUpdated((uint16,uint16,uint16,uint16,uint16,uint16,uint64,uint64),uint256,uint256,uint256)": {
        "notice": "protocol settings changed"
      }
    },
    "kind": "user",
    "methods": {
      "createAccount()": {
        "notice": "creates a new account and adds it to the accounts map"
      },
      "createAccountAndAddMargin(uint32,uint256)": {
        "notice": "creates a new account and deposits 'amount' of token associated with 'poolId'"
      },
      "extsload(bytes32)": {
        "notice": "Returns a value from the storage."
      },
      "extsload(bytes32[])": {
        "notice": "Returns multiple values from storage."
      },
      "getAccountInfo(uint256)": {
        "notice": "Gets details about account id"
      },
      "getAccountMarketValueAndRequiredMargin(uint256,bool)": {
        "notice": "Gets the market value and required margin of an account"
      },
      "getAccountNetProfit(uint256)": {
        "notice": "Gets the net profit of an account"
      },
      "getAccountNetTokenPosition(uint256,uint32)": {
        "notice": "Gets the net position of an account"
      },
      "getCollateralInfo(uint32)": {
        "notice": "Gets the info about a supported collateral in the protocol"
      },
      "getPoolInfo(uint32)": {
        "notice": "Gets the info about a supported pool in the protocol"
      },
      "getProtocolInfo()": {
        "notice": "Gets the protocol info, global protocol settings"
      },
      "getRealTwapPriceX128(uint32)": {
        "notice": "Gets the real twap price from the respective oracle of the given poolId"
      },
      "getVirtualTwapPriceX128(uint32)": {
        "notice": "Gets the virtual twap price from the respective oracle of the given poolId"
      },
      "initialize(address,address,address,address,address)": {
        "notice": "SYSTEM FUNCTIONS"
      },
      "isPoolIdAvailable(uint32)": {
        "notice": "Checks if a poolId is unused"
      },
      "liquidateLiquidityPositions(uint256)": {
        "notice": "keeper call for liquidation of range position"
      },
      "liquidateTokenPosition(uint256,uint32)": {
        "notice": "keeper call for liquidation of token position"
      },
      "multicall(bytes[])": {
        "notice": "Call multiple functions in the current contract and return the data from all of them if they all succeed"
      },
      "multicallWithSingleMarginCheck(uint256,(uint8,bytes)[])": {
        "notice": "MULTICALL"
      },
      "removeLimitOrder(uint256,uint32,int24,int24)": {
        "notice": "keeper call to remove a limit order"
      },
      "settleProfit(uint256)": {
        "notice": "settles the profit/loss made with the settlement token collateral deposits"
      },
      "swapToken(uint256,uint32,(int256,uint160,bool,bool,bool))": {
        "notice": "swaps token associated with 'poolId' by 'amount' (Long if amount>0 else Short)"
      },
      "updateCollateralSettings(address,(address,uint32,bool))": {
        "notice": "ADMIN FUNCTIONS"
      },
      "updateMargin(uint256,uint32,int256)": {
        "notice": "deposits 'amount' of token associated with 'poolId'"
      },
      "updatePoolSettings(uint32,(uint16,uint16,uint16,uint32,bool,bool,address))": {
        "notice": "updates the rage trade pool settings"
      },
      "updateProfit(uint256,int256)": {
        "notice": "withdraws 'amount' of settlement token from the profit made"
      },
      "updateRangeOrder(uint256,uint32,(int24,int24,int128,uint160,uint16,bool,uint8,bool))": {
        "notice": "updates range order of token associated with 'poolId' by 'liquidityDelta' (Adds if amount>0 else Removes)also can be used to update limitOrderType"
      },
      "withdrawProtocolFee(address[])": {
        "notice": "withdraws protocol fees collected in the supplied wrappers to team multisig"
      }
    },
    "version": 1
  },
  "storageLayout": {
    "storage": [
      {
        "astId": 22580,
        "contract": "contracts/protocol/clearinghouse/ClearingHouse.sol:ClearingHouse",
        "label": "_emptySlots1",
        "offset": 0,
        "slot": "0",
        "type": "t_array(t_uint256)100_storage"
      },
      {
        "astId": 22583,
        "contract": "contracts/protocol/clearinghouse/ClearingHouse.sol:ClearingHouse",
        "label": "protocol",
        "offset": 0,
        "slot": "100",
        "type": "t_struct(Info)14594_storage"
      },
      {
        "astId": 22585,
        "contract": "contracts/protocol/clearinghouse/ClearingHouse.sol:ClearingHouse",
        "label": "numAccounts",
        "offset": 0,
        "slot": "209",
        "type": "t_uint256"
      },
      {
        "astId": 22590,
        "contract": "contracts/protocol/clearinghouse/ClearingHouse.sol:ClearingHouse",
        "label": "accounts",
        "offset": 0,
        "slot": "210",
        "type": "t_mapping(t_uint256,t_struct(Info)9959_storage)"
      },
      {
        "astId": 22592,
        "contract": "contracts/protocol/clearinghouse/ClearingHouse.sol:ClearingHouse",
        "label": "rageTradeFactoryAddress",
        "offset": 0,
        "slot": "211",
        "type": "t_address"
      },
      {
        "astId": 22595,
        "contract": "contracts/protocol/clearinghouse/ClearingHouse.sol:ClearingHouse",
        "label": "insuranceFund",
        "offset": 0,
        "slot": "212",
        "type": "t_contract(IInsuranceFund)8981"
      },
      {
        "astId": 22599,
        "contract": "contracts/protocol/clearinghouse/ClearingHouse.sol:ClearingHouse",
        "label": "_emptySlots2",
        "offset": 0,
        "slot": "213",
        "type": "t_array(t_uint256)100_storage"
      },
      {
        "astId": 93,
        "contract": "contracts/protocol/clearinghouse/ClearingHouse.sol:ClearingHouse",
        "label": "_initialized",
        "offset": 0,
        "slot": "313",
        "type": "t_bool"
      },
      {
        "astId": 96,
        "contract": "contracts/protocol/clearinghouse/ClearingHouse.sol:ClearingHouse",
        "label": "_initializing",
        "offset": 1,
        "slot": "313",
        "type": "t_bool"
      },
      {
        "astId": 1271,
        "contract": "contracts/protocol/clearinghouse/ClearingHouse.sol:ClearingHouse",
        "label": "__gap",
        "offset": 0,
        "slot": "314",
        "type": "t_array(t_uint256)50_storage"
      },
      {
        "astId": 181,
        "contract": "contracts/protocol/clearinghouse/ClearingHouse.sol:ClearingHouse",
        "label": "_paused",
        "offset": 0,
        "slot": "364",
        "type": "t_bool"
      },
      {
        "astId": 270,
        "contract": "contracts/protocol/clearinghouse/ClearingHouse.sol:ClearingHouse",
        "label": "__gap",
        "offset": 0,
        "slot": "365",
        "type": "t_array(t_uint256)49_storage"
      },
      {
        "astId": 30340,
        "contract": "contracts/protocol/clearinghouse/ClearingHouse.sol:ClearingHouse",
        "label": "_governance",
        "offset": 0,
        "slot": "414",
        "type": "t_address"
      },
      {
        "astId": 30342,
        "contract": "contracts/protocol/clearinghouse/ClearingHouse.sol:ClearingHouse",
        "label": "_teamMultisig",
        "offset": 0,
        "slot": "415",
        "type": "t_address"
      }
    ],
    "types": {
      "t_address": {
        "encoding": "inplace",
        "label": "address",
        "numberOfBytes": "20"
      },
      "t_array(t_uint256)100_storage": {
        "base": "t_uint256",
        "encoding": "inplace",
        "label": "uint256[100]",
        "numberOfBytes": "3200"
      },
      "t_array(t_uint256)49_storage": {
        "base": "t_uint256",
        "encoding": "inplace",
        "label": "uint256[49]",
        "numberOfBytes": "1568"
      },
      "t_array(t_uint256)50_storage": {
        "base": "t_uint256",
        "encoding": "inplace",
        "label": "uint256[50]",
        "numberOfBytes": "1600"
      },
      "t_array(t_uint32)8_storage": {
        "base": "t_uint32",
        "encoding": "inplace",
        "label": "uint32[8]",
        "numberOfBytes": "32"
      },
      "t_array(t_uint48)5_storage": {
        "base": "t_uint48",
        "encoding": "inplace",
        "label": "uint48[5]",
        "numberOfBytes": "32"
      },
      "t_bool": {
        "encoding": "inplace",
        "label": "bool",
        "numberOfBytes": "1"
      },
      "t_contract(IERC20)4189": {
        "encoding": "inplace",
        "label": "contract IERC20",
        "numberOfBytes": "20"
      },
      "t_contract(IInsuranceFund)8981": {
        "encoding": "inplace",
        "label": "contract IInsuranceFund",
        "numberOfBytes": "20"
      },
      "t_contract(IOracle)8991": {
        "encoding": "inplace",
        "label": "contract IOracle",
        "numberOfBytes": "20"
      },
      "t_contract(IUniswapV3Pool)6184": {
        "encoding": "inplace",
        "label": "contract IUniswapV3Pool",
        "numberOfBytes": "20"
      },
      "t_contract(IVPoolWrapper)9203": {
        "encoding": "inplace",
        "label": "contract IVPoolWrapper",
        "numberOfBytes": "20"
      },
      "t_contract(IVQuote)9227": {
        "encoding": "inplace",
        "label": "contract IVQuote",
        "numberOfBytes": "20"
      },
      "t_contract(IVToken)9251": {
        "encoding": "inplace",
        "label": "contract IVToken",
        "numberOfBytes": "20"
      },
      "t_enum(LimitOrderType)9434": {
        "encoding": "inplace",
        "label": "enum IClearingHouseEnums.LimitOrderType",
        "numberOfBytes": "1"
      },
      "t_int24": {
        "encoding": "inplace",
        "label": "int24",
        "numberOfBytes": "3"
      },
      "t_int256": {
        "encoding": "inplace",
        "label": "int256",
        "numberOfBytes": "32"
      },
      "t_mapping(t_uint256,t_struct(Info)9959_storage)": {
        "encoding": "mapping",
        "key": "t_uint256",
        "label": "mapping(uint256 => struct Account.Info)",
        "numberOfBytes": "32",
        "value": "t_struct(Info)9959_storage"
      },
      "t_mapping(t_uint32,t_struct(Collateral)9574_storage)": {
        "encoding": "mapping",
        "key": "t_uint32",
        "label": "mapping(uint32 => struct IClearingHouseStructures.Collateral)",
        "numberOfBytes": "32",
        "value": "t_struct(Collateral)9574_storage"
      },
      "t_mapping(t_uint32,t_struct(Info)18266_storage)": {
        "encoding": "mapping",
        "key": "t_uint32",
        "label": "mapping(uint32 => struct VTokenPosition.Info)",
        "numberOfBytes": "32",
        "value": "t_struct(Info)18266_storage"
      },
      "t_mapping(t_uint32,t_struct(Pool)9662_storage)": {
        "encoding": "mapping",
        "key": "t_uint32",
        "label": "mapping(uint32 => struct IClearingHouseStructures.Pool)",
        "numberOfBytes": "32",
        "value": "t_struct(Pool)9662_storage"
      },
      "t_mapping(t_uint32,t_struct(PriceCache)14559_storage)": {
        "encoding": "mapping",
        "key": "t_uint32",
        "label": "mapping(uint32 => struct Protocol.PriceCache)",
        "numberOfBytes": "32",
        "value": "t_struct(PriceCache)14559_storage"
      },
      "t_mapping(t_uint32,t_uint256)": {
        "encoding": "mapping",
        "key": "t_uint32",
        "label": "mapping(uint32 => uint256)",
        "numberOfBytes": "32",
        "value": "t_uint256"
      },
      "t_mapping(t_uint48,t_struct(Info)12572_storage)": {
        "encoding": "mapping",
        "key": "t_uint48",
        "label": "mapping(uint48 => struct LiquidityPosition.Info)",
        "numberOfBytes": "32",
        "value": "t_struct(Info)12572_storage"
      },
      "t_struct(Collateral)9574_storage": {
        "encoding": "inplace",
        "label": "struct IClearingHouseStructures.Collateral",
        "members": [
          {
            "astId": 9570,
            "contract": "contracts/protocol/clearinghouse/ClearingHouse.sol:ClearingHouse",
            "label": "token",
            "offset": 0,
            "slot": "0",
            "type": "t_contract(IERC20)4189"
          },
          {
            "astId": 9573,
            "contract": "contracts/protocol/clearinghouse/ClearingHouse.sol:ClearingHouse",
            "label": "settings",
            "offset": 0,
            "slot": "1",
            "type": "t_struct(CollateralSettings)9582_storage"
          }
        ],
        "numberOfBytes": "64"
      },
      "t_struct(CollateralSettings)9582_storage": {
        "encoding": "inplace",
        "label": "struct IClearingHouseStructures.CollateralSettings",
        "members": [
          {
            "astId": 9577,
            "contract": "contracts/protocol/clearinghouse/ClearingHouse.sol:ClearingHouse",
            "label": "oracle",
            "offset": 0,
            "slot": "0",
            "type": "t_contract(IOracle)8991"
          },
          {
            "astId": 9579,
            "contract": "contracts/protocol/clearinghouse/ClearingHouse.sol:ClearingHouse",
            "label": "twapDuration",
            "offset": 20,
            "slot": "0",
            "type": "t_uint32"
          },
          {
            "astId": 9581,
            "contract": "contracts/protocol/clearinghouse/ClearingHouse.sol:ClearingHouse",
            "label": "isAllowedForDeposit",
            "offset": 24,
            "slot": "0",
            "type": "t_bool"
          }
        ],
        "numberOfBytes": "32"
      },
      "t_struct(Info)12572_storage": {
        "encoding": "inplace",
        "label": "struct LiquidityPosition.Info",
        "members": [
          {
            "astId": 12551,
            "contract": "contracts/protocol/clearinghouse/ClearingHouse.sol:ClearingHouse",
            "label": "limitOrderType",
            "offset": 0,
            "slot": "0",
            "type": "t_enum(LimitOrderType)9434"
          },
          {
            "astId": 12553,
            "contract": "contracts/protocol/clearinghouse/ClearingHouse.sol:ClearingHouse",
            "label": "tickLower",
            "offset": 1,
            "slot": "0",
            "type": "t_int24"
          },
          {
            "astId": 12555,
            "contract": "contracts/protocol/clearinghouse/ClearingHouse.sol:ClearingHouse",
            "label": "tickUpper",
            "offset": 4,
            "slot": "0",
            "type": "t_int24"
          },
          {
            "astId": 12557,
            "contract": "contracts/protocol/clearinghouse/ClearingHouse.sol:ClearingHouse",
            "label": "liquidity",
            "offset": 7,
            "slot": "0",
            "type": "t_uint128"
          },
          {
            "astId": 12559,
            "contract": "contracts/protocol/clearinghouse/ClearingHouse.sol:ClearingHouse",
            "label": "vTokenAmountIn",
            "offset": 0,
            "slot": "1",
            "type": "t_int256"
          },
          {
            "astId": 12561,
            "contract": "contracts/protocol/clearinghouse/ClearingHouse.sol:ClearingHouse",
            "label": "sumALastX128",
            "offset": 0,
            "slot": "2",
            "type": "t_int256"
          },
          {
            "astId": 12563,
            "contract": "contracts/protocol/clearinghouse/ClearingHouse.sol:ClearingHouse",
            "label": "sumBInsideLastX128",
            "offset": 0,
            "slot": "3",
            "type": "t_int256"
          },
          {
            "astId": 12565,
            "contract": "contracts/protocol/clearinghouse/ClearingHouse.sol:ClearingHouse",
            "label": "sumFpInsideLastX128",
            "offset": 0,
            "slot": "4",
            "type": "t_int256"
          },
          {
            "astId": 12567,
            "contract": "contracts/protocol/clearinghouse/ClearingHouse.sol:ClearingHouse",
            "label": "sumFeeInsideLastX128",
            "offset": 0,
            "slot": "5",
            "type": "t_uint256"
          },
          {
            "astId": 12571,
            "contract": "contracts/protocol/clearinghouse/ClearingHouse.sol:ClearingHouse",
            "label": "_emptySlots",
            "offset": 0,
            "slot": "6",
            "type": "t_array(t_uint256)100_storage"
          }
        ],
        "numberOfBytes": "3392"
      },
      "t_struct(Info)14594_storage": {
        "encoding": "inplace",
        "label": "struct Protocol.Info",
        "members": [
          {
            "astId": 14564,
            "contract": "contracts/protocol/clearinghouse/ClearingHouse.sol:ClearingHouse",
            "label": "pools",
            "offset": 0,
            "slot": "0",
            "type": "t_mapping(t_uint32,t_struct(Pool)9662_storage)"
          },
          {
            "astId": 14569,
            "contract": "contracts/protocol/clearinghouse/ClearingHouse.sol:ClearingHouse",
            "label": "collaterals",
            "offset": 0,
            "slot": "1",
            "type": "t_mapping(t_uint32,t_struct(Collateral)9574_storage)"
          },
          {
            "astId": 14572,
            "contract": "contracts/protocol/clearinghouse/ClearingHouse.sol:ClearingHouse",
            "label": "settlementToken",
            "offset": 0,
            "slot": "2",
            "type": "t_contract(IERC20)4189"
          },
          {
            "astId": 14575,
            "contract": "contracts/protocol/clearinghouse/ClearingHouse.sol:ClearingHouse",
            "label": "vQuote",
            "offset": 0,
            "slot": "3",
            "type": "t_contract(IVQuote)9227"
          },
          {
            "astId": 14578,
            "contract": "contracts/protocol/clearinghouse/ClearingHouse.sol:ClearingHouse",
            "label": "liquidationParams",
            "offset": 0,
            "slot": "4",
            "type": "t_struct(LiquidationParams)9643_storage"
          },
          {
            "astId": 14580,
            "contract": "contracts/protocol/clearinghouse/ClearingHouse.sol:ClearingHouse",
            "label": "minRequiredMargin",
            "offset": 0,
            "slot": "5",
            "type": "t_uint256"
          },
          {
            "astId": 14582,
            "contract": "contracts/protocol/clearinghouse/ClearingHouse.sol:ClearingHouse",
            "label": "removeLimitOrderFee",
            "offset": 0,
            "slot": "6",
            "type": "t_uint256"
          },
          {
            "astId": 14584,
            "contract": "contracts/protocol/clearinghouse/ClearingHouse.sol:ClearingHouse",
            "label": "minimumOrderNotional",
            "offset": 0,
            "slot": "7",
            "type": "t_uint256"
          },
          {
            "astId": 14589,
            "contract": "contracts/protocol/clearinghouse/ClearingHouse.sol:ClearingHouse",
            "label": "priceCache",
            "offset": 0,
            "slot": "8",
            "type": "t_mapping(t_uint32,t_struct(PriceCache)14559_storage)"
          },
          {
            "astId": 14593,
            "contract": "contracts/protocol/clearinghouse/ClearingHouse.sol:ClearingHouse",
            "label": "_emptySlots",
            "offset": 0,
            "slot": "9",
            "type": "t_array(t_uint256)100_storage"
          }
        ],
        "numberOfBytes": "3488"
      },
      "t_struct(Info)18266_storage": {
        "encoding": "inplace",
        "label": "struct VTokenPosition.Info",
        "members": [
          {
            "astId": 18254,
            "contract": "contracts/protocol/clearinghouse/ClearingHouse.sol:ClearingHouse",
            "label": "balance",
            "offset": 0,
            "slot": "0",
            "type": "t_int256"
          },
          {
            "astId": 18256,
            "contract": "contracts/protocol/clearinghouse/ClearingHouse.sol:ClearingHouse",
            "label": "netTraderPosition",
            "offset": 0,
            "slot": "1",
            "type": "t_int256"
          },
          {
            "astId": 18258,
            "contract": "contracts/protocol/clearinghouse/ClearingHouse.sol:ClearingHouse",
            "label": "sumALastX128",
            "offset": 0,
            "slot": "2",
            "type": "t_int256"
          },
          {
            "astId": 18261,
            "contract": "contracts/protocol/clearinghouse/ClearingHouse.sol:ClearingHouse",
            "label": "liquidityPositions",
            "offset": 0,
            "slot": "3",
            "type": "t_struct(Set)12548_storage"
          },
          {
            "astId": 18265,
            "contract": "contracts/protocol/clearinghouse/ClearingHouse.sol:ClearingHouse",
            "label": "_emptySlots",
            "offset": 0,
            "slot": "105",
            "type": "t_array(t_uint256)100_storage"
          }
        ],
        "numberOfBytes": "6560"
      },
      "t_struct(Info)9959_storage": {
        "encoding": "inplace",
        "label": "struct Account.Info",
        "members": [
          {
            "astId": 9946,
            "contract": "contracts/protocol/clearinghouse/ClearingHouse.sol:ClearingHouse",
            "label": "id",
            "offset": 0,
            "slot": "0",
            "type": "t_uint96"
          },
          {
            "astId": 9948,
            "contract": "contracts/protocol/clearinghouse/ClearingHouse.sol:ClearingHouse",
            "label": "owner",
            "offset": 12,
            "slot": "0",
            "type": "t_address"
          },
          {
            "astId": 9951,
            "contract": "contracts/protocol/clearinghouse/ClearingHouse.sol:ClearingHouse",
            "label": "tokenPositions",
            "offset": 0,
            "slot": "1",
            "type": "t_struct(Set)18252_storage"
          },
          {
            "astId": 9954,
            "contract": "contracts/protocol/clearinghouse/ClearingHouse.sol:ClearingHouse",
            "label": "collateralDeposits",
            "offset": 0,
            "slot": "104",
            "type": "t_struct(Set)11845_storage"
          },
          {
            "astId": 9958,
            "contract": "contracts/protocol/clearinghouse/ClearingHouse.sol:ClearingHouse",
            "label": "_emptySlots",
            "offset": 0,
            "slot": "206",
            "type": "t_array(t_uint256)100_storage"
          }
        ],
        "numberOfBytes": "9792"
      },
      "t_struct(LiquidationParams)9643_storage": {
        "encoding": "inplace",
        "label": "struct IClearingHouseStructures.LiquidationParams",
        "members": [
          {
            "astId": 9628,
            "contract": "contracts/protocol/clearinghouse/ClearingHouse.sol:ClearingHouse",
            "label": "rangeLiquidationFeeFraction",
            "offset": 0,
            "slot": "0",
            "type": "t_uint16"
          },
          {
            "astId": 9630,
            "contract": "contracts/protocol/clearinghouse/ClearingHouse.sol:ClearingHouse",
            "label": "tokenLiquidationFeeFraction",
            "offset": 2,
            "slot": "0",
            "type": "t_uint16"
          },
          {
            "astId": 9632,
            "contract": "contracts/protocol/clearinghouse/ClearingHouse.sol:ClearingHouse",
            "label": "closeFactorMMThresholdBps",
            "offset": 4,
            "slot": "0",
            "type": "t_uint16"
          },
          {
            "astId": 9634,
            "contract": "contracts/protocol/clearinghouse/ClearingHouse.sol:ClearingHouse",
            "label": "partialLiquidationCloseFactorBps",
            "offset": 6,
            "slot": "0",
            "type": "t_uint16"
          },
          {
            "astId": 9636,
            "contract": "contracts/protocol/clearinghouse/ClearingHouse.sol:ClearingHouse",
            "label": "insuranceFundFeeShareBps",
            "offset": 8,
            "slot": "0",
            "type": "t_uint16"
          },
          {
            "astId": 9638,
            "contract": "contracts/protocol/clearinghouse/ClearingHouse.sol:ClearingHouse",
            "label": "liquidationSlippageSqrtToleranceBps",
            "offset": 10,
            "slot": "0",
            "type": "t_uint16"
          },
          {
            "astId": 9640,
            "contract": "contracts/protocol/clearinghouse/ClearingHouse.sol:ClearingHouse",
            "label": "maxRangeLiquidationFees",
            "offset": 12,
            "slot": "0",
            "type": "t_uint64"
          },
          {
            "astId": 9642,
            "contract": "contracts/protocol/clearinghouse/ClearingHouse.sol:ClearingHouse",
            "label": "minNotionalLiquidatable",
            "offset": 20,
            "slot": "0",
            "type": "t_uint64"
          }
        ],
        "numberOfBytes": "32"
      },
      "t_struct(Pool)9662_storage": {
        "encoding": "inplace",
        "label": "struct IClearingHouseStructures.Pool",
        "members": [
          {
            "astId": 9652,
            "contract": "contracts/protocol/clearinghouse/ClearingHouse.sol:ClearingHouse",
            "label": "vToken",
            "offset": 0,
            "slot": "0",
            "type": "t_contract(IVToken)9251"
          },
          {
            "astId": 9655,
            "contract": "contracts/protocol/clearinghouse/ClearingHouse.sol:ClearingHouse",
            "label": "vPool",
            "offset": 0,
            "slot": "1",
            "type": "t_contract(IUniswapV3Pool)6184"
          },
          {
            "astId": 9658,
            "contract": "contracts/protocol/clearinghouse/ClearingHouse.sol:ClearingHouse",
            "label": "vPoolWrapper",
            "offset": 0,
            "slot": "2",
            "type": "t_contract(IVPoolWrapper)9203"
          },
          {
            "astId": 9661,
            "contract": "contracts/protocol/clearinghouse/ClearingHouse.sol:ClearingHouse",
            "label": "settings",
            "offset": 0,
            "slot": "3",
            "type": "t_struct(PoolSettings)9678_storage"
          }
        ],
        "numberOfBytes": "128"
      },
      "t_struct(PoolSettings)9678_storage": {
        "encoding": "inplace",
        "label": "struct IClearingHouseStructures.PoolSettings",
        "members": [
          {
            "astId": 9664,
            "contract": "contracts/protocol/clearinghouse/ClearingHouse.sol:ClearingHouse",
            "label": "initialMarginRatioBps",
            "offset": 0,
            "slot": "0",
            "type": "t_uint16"
          },
          {
            "astId": 9666,
            "contract": "contracts/protocol/clearinghouse/ClearingHouse.sol:ClearingHouse",
            "label": "maintainanceMarginRatioBps",
            "offset": 2,
            "slot": "0",
            "type": "t_uint16"
          },
          {
            "astId": 9668,
            "contract": "contracts/protocol/clearinghouse/ClearingHouse.sol:ClearingHouse",
            "label": "maxVirtualPriceDeviationRatioBps",
            "offset": 4,
            "slot": "0",
            "type": "t_uint16"
          },
          {
            "astId": 9670,
            "contract": "contracts/protocol/clearinghouse/ClearingHouse.sol:ClearingHouse",
            "label": "twapDuration",
            "offset": 6,
            "slot": "0",
            "type": "t_uint32"
          },
          {
            "astId": 9672,
            "contract": "contracts/protocol/clearinghouse/ClearingHouse.sol:ClearingHouse",
            "label": "isAllowedForTrade",
            "offset": 10,
            "slot": "0",
            "type": "t_bool"
          },
          {
            "astId": 9674,
            "contract": "contracts/protocol/clearinghouse/ClearingHouse.sol:ClearingHouse",
            "label": "isCrossMargined",
            "offset": 11,
            "slot": "0",
            "type": "t_bool"
          },
          {
            "astId": 9677,
            "contract": "contracts/protocol/clearinghouse/ClearingHouse.sol:ClearingHouse",
            "label": "oracle",
            "offset": 12,
            "slot": "0",
            "type": "t_contract(IOracle)8991"
          }
        ],
        "numberOfBytes": "32"
      },
      "t_struct(PriceCache)14559_storage": {
        "encoding": "inplace",
        "label": "struct Protocol.PriceCache",
        "members": [
          {
            "astId": 14552,
            "contract": "contracts/protocol/clearinghouse/ClearingHouse.sol:ClearingHouse",
            "label": "updateBlockNum",
            "offset": 0,
            "slot": "0",
            "type": "t_uint32"
          },
          {
            "astId": 14554,
            "contract": "contracts/protocol/clearinghouse/ClearingHouse.sol:ClearingHouse",
            "label": "virtualPriceX128",
            "offset": 4,
            "slot": "0",
            "type": "t_uint224"
          },
          {
            "astId": 14556,
            "contract": "contracts/protocol/clearinghouse/ClearingHouse.sol:ClearingHouse",
            "label": "realPriceX128",
            "offset": 0,
            "slot": "1",
            "type": "t_uint224"
          },
          {
            "astId": 14558,
            "contract": "contracts/protocol/clearinghouse/ClearingHouse.sol:ClearingHouse",
            "label": "isDeviationBreached",
            "offset": 28,
            "slot": "1",
            "type": "t_bool"
          }
        ],
        "numberOfBytes": "64"
      },
      "t_struct(Set)11845_storage": {
        "encoding": "inplace",
        "label": "struct CollateralDeposit.Set",
        "members": [
          {
            "astId": 11836,
            "contract": "contracts/protocol/clearinghouse/ClearingHouse.sol:ClearingHouse",
            "label": "active",
            "offset": 0,
            "slot": "0",
            "type": "t_array(t_uint32)8_storage"
          },
          {
            "astId": 11840,
            "contract": "contracts/protocol/clearinghouse/ClearingHouse.sol:ClearingHouse",
            "label": "deposits",
            "offset": 0,
            "slot": "1",
            "type": "t_mapping(t_uint32,t_uint256)"
          },
          {
            "astId": 11844,
            "contract": "contracts/protocol/clearinghouse/ClearingHouse.sol:ClearingHouse",
            "label": "_emptySlots",
            "offset": 0,
            "slot": "2",
            "type": "t_array(t_uint256)100_storage"
          }
        ],
        "numberOfBytes": "3264"
      },
      "t_struct(Set)12548_storage": {
        "encoding": "inplace",
        "label": "struct LiquidityPosition.Set",
        "members": [
          {
            "astId": 12538,
            "contract": "contracts/protocol/clearinghouse/ClearingHouse.sol:ClearingHouse",
            "label": "active",
            "offset": 0,
            "slot": "0",
            "type": "t_array(t_uint48)5_storage"
          },
          {
            "astId": 12543,
            "contract": "contracts/protocol/clearinghouse/ClearingHouse.sol:ClearingHouse",
            "label": "positions",
            "offset": 0,
            "slot": "1",
            "type": "t_mapping(t_uint48,t_struct(Info)12572_storage)"
          },
          {
            "astId": 12547,
            "contract": "contracts/protocol/clearinghouse/ClearingHouse.sol:ClearingHouse",
            "label": "_emptySlots",
            "offset": 0,
            "slot": "2",
            "type": "t_array(t_uint256)100_storage"
          }
        ],
        "numberOfBytes": "3264"
      },
      "t_struct(Set)18252_storage": {
        "encoding": "inplace",
        "label": "struct VTokenPosition.Set",
        "members": [
          {
            "astId": 18240,
            "contract": "contracts/protocol/clearinghouse/ClearingHouse.sol:ClearingHouse",
            "label": "active",
            "offset": 0,
            "slot": "0",
            "type": "t_array(t_uint32)8_storage"
          },
          {
            "astId": 18245,
            "contract": "contracts/protocol/clearinghouse/ClearingHouse.sol:ClearingHouse",
            "label": "positions",
            "offset": 0,
            "slot": "1",
            "type": "t_mapping(t_uint32,t_struct(Info)18266_storage)"
          },
          {
            "astId": 18247,
            "contract": "contracts/protocol/clearinghouse/ClearingHouse.sol:ClearingHouse",
            "label": "vQuoteBalance",
            "offset": 0,
            "slot": "2",
            "type": "t_int256"
          },
          {
            "astId": 18251,
            "contract": "contracts/protocol/clearinghouse/ClearingHouse.sol:ClearingHouse",
            "label": "_emptySlots",
            "offset": 0,
            "slot": "3",
            "type": "t_array(t_uint256)100_storage"
          }
        ],
        "numberOfBytes": "3296"
      },
      "t_uint128": {
        "encoding": "inplace",
        "label": "uint128",
        "numberOfBytes": "16"
      },
      "t_uint16": {
        "encoding": "inplace",
        "label": "uint16",
        "numberOfBytes": "2"
      },
      "t_uint224": {
        "encoding": "inplace",
        "label": "uint224",
        "numberOfBytes": "28"
      },
      "t_uint256": {
        "encoding": "inplace",
        "label": "uint256",
        "numberOfBytes": "32"
      },
      "t_uint32": {
        "encoding": "inplace",
        "label": "uint32",
        "numberOfBytes": "4"
      },
      "t_uint48": {
        "encoding": "inplace",
        "label": "uint48",
        "numberOfBytes": "6"
      },
      "t_uint64": {
        "encoding": "inplace",
        "label": "uint64",
        "numberOfBytes": "8"
      },
      "t_uint96": {
        "encoding": "inplace",
        "label": "uint96",
        "numberOfBytes": "12"
      }
    }
  }
}