{
  "address": "0xe96250D353F86D0BdF2774899eDBBd1827d61E9e",
  "abi": [
    {
      "inputs": [
        {
          "internalType": "address",
          "name": "senderAddress",
          "type": "address"
        }
      ],
      "name": "AccessDenied",
      "type": "error"
    },
    {
      "inputs": [
        {
          "internalType": "uint256",
          "name": "length",
          "type": "uint256"
        },
        {
          "internalType": "uint256",
          "name": "limit",
          "type": "uint256"
        }
      ],
      "name": "CalldataLengthExceeded",
      "type": "error"
    },
    {
      "inputs": [
        {
          "internalType": "uint256",
          "name": "gasUsedClaim",
          "type": "uint256"
        },
        {
          "internalType": "uint256",
          "name": "gasUsedActual",
          "type": "uint256"
        }
      ],
      "name": "ExcessGasUsedClaim",
      "type": "error"
    },
    {
      "inputs": [
        {
          "internalType": "uint256",
          "name": "txGasPrice",
          "type": "uint256"
        },
        {
          "internalType": "uint256",
          "name": "limit",
          "type": "uint256"
        }
      ],
      "name": "ExcessTxGasPrice",
      "type": "error"
    },
    {
      "inputs": [
        {
          "internalType": "uint160",
          "name": "sqrtPriceX96",
          "type": "uint160"
        }
      ],
      "name": "IllegalSqrtPrice",
      "type": "error"
    },
    {
      "inputs": [
        {
          "internalType": "uint32",
          "name": "period",
          "type": "uint32"
        }
      ],
      "name": "IllegalTwapDuration",
      "type": "error"
    },
    {
      "inputs": [],
      "name": "InvalidTokenLiquidationParameters",
      "type": "error"
    },
    {
      "inputs": [
        {
          "internalType": "uint256",
          "name": "notionalValue",
          "type": "uint256"
        }
      ],
      "name": "LowNotionalValue",
      "type": "error"
    },
    {
      "inputs": [],
      "name": "NotRageTradeFactory",
      "type": "error"
    },
    {
      "inputs": [],
      "name": "Paused",
      "type": "error"
    },
    {
      "inputs": [],
      "name": "SlippageBeyondTolerance",
      "type": "error"
    },
    {
      "inputs": [],
      "name": "Unauthorised",
      "type": "error"
    },
    {
      "inputs": [
        {
          "internalType": "uint32",
          "name": "vTokenTruncatedAddress",
          "type": "uint32"
        }
      ],
      "name": "UninitializedToken",
      "type": "error"
    },
    {
      "inputs": [
        {
          "internalType": "address",
          "name": "rTokenAddress",
          "type": "address"
        }
      ],
      "name": "UnsupportedRToken",
      "type": "error"
    },
    {
      "inputs": [
        {
          "internalType": "contract IVToken",
          "name": "vToken",
          "type": "address"
        }
      ],
      "name": "UnsupportedVToken",
      "type": "error"
    },
    {
      "inputs": [],
      "name": "ZeroAddress",
      "type": "error"
    },
    {
      "anonymous": false,
      "inputs": [
        {
          "indexed": true,
          "internalType": "address",
          "name": "previousGovernance",
          "type": "address"
        },
        {
          "indexed": true,
          "internalType": "address",
          "name": "newGovernance",
          "type": "address"
        }
      ],
      "name": "GovernanceTransferred",
      "type": "event"
    },
    {
      "anonymous": false,
      "inputs": [
        {
          "indexed": true,
          "internalType": "address",
          "name": "previousTeamMultisig",
          "type": "address"
        },
        {
          "indexed": true,
          "internalType": "address",
          "name": "newTeamMultisig",
          "type": "address"
        }
      ],
      "name": "TeamMultisigTransferred",
      "type": "event"
    },
    {
      "inputs": [
        {
          "internalType": "address",
          "name": "_rageTradeFactoryAddress",
          "type": "address"
        },
        {
          "internalType": "contract IERC20",
          "name": "_rBase",
          "type": "address"
        },
        {
          "internalType": "contract IInsuranceFund",
          "name": "_insuranceFund",
          "type": "address"
        },
        {
          "internalType": "contract IVBase",
          "name": "_vBase",
          "type": "address"
        },
        {
          "internalType": "contract IOracle",
          "name": "_nativeOracle",
          "type": "address"
        }
      ],
      "name": "__ClearingHouse_init",
      "outputs": [],
      "stateMutability": "nonpayable",
      "type": "function"
    },
    {
      "inputs": [
        {
          "internalType": "address",
          "name": "rTokenAddress",
          "type": "address"
        },
        {
          "internalType": "address",
          "name": "oracleAddress",
          "type": "address"
        },
        {
          "internalType": "uint32",
          "name": "twapDuration",
          "type": "uint32"
        }
      ],
      "name": "addCollateralSupport",
      "outputs": [],
      "stateMutability": "nonpayable",
      "type": "function"
    },
    {
      "inputs": [
        {
          "internalType": "uint256",
          "name": "accountNo",
          "type": "uint256"
        },
        {
          "internalType": "uint32",
          "name": "rTokenTruncatedAddress",
          "type": "uint32"
        },
        {
          "internalType": "uint256",
          "name": "amount",
          "type": "uint256"
        }
      ],
      "name": "addMargin",
      "outputs": [],
      "stateMutability": "nonpayable",
      "type": "function"
    },
    {
      "inputs": [],
      "name": "createAccount",
      "outputs": [
        {
          "internalType": "uint256",
          "name": "newAccountId",
          "type": "uint256"
        }
      ],
      "stateMutability": "nonpayable",
      "type": "function"
    },
    {
      "inputs": [
        {
          "internalType": "bytes32",
          "name": "slot",
          "type": "bytes32"
        }
      ],
      "name": "extsload",
      "outputs": [
        {
          "internalType": "bytes32",
          "name": "val",
          "type": "bytes32"
        }
      ],
      "stateMutability": "view",
      "type": "function"
    },
    {
      "inputs": [
        {
          "internalType": "bytes32[]",
          "name": "slots",
          "type": "bytes32[]"
        }
      ],
      "name": "extsload",
      "outputs": [
        {
          "internalType": "bytes32[]",
          "name": "",
          "type": "bytes32[]"
        }
      ],
      "stateMutability": "view",
      "type": "function"
    },
    {
      "inputs": [
        {
          "internalType": "uint256",
          "name": "accountNo",
          "type": "uint256"
        }
      ],
      "name": "getAccountView",
      "outputs": [
        {
          "internalType": "address",
          "name": "owner",
          "type": "address"
        },
        {
          "components": [
            {
              "internalType": "address",
              "name": "rTokenAddress",
              "type": "address"
            },
            {
              "internalType": "uint256",
              "name": "balance",
              "type": "uint256"
            }
          ],
          "internalType": "struct IClearingHouse.DepositTokenView[]",
          "name": "tokenDeposits",
          "type": "tuple[]"
        },
        {
          "components": [
            {
              "internalType": "address",
              "name": "vTokenAddress",
              "type": "address"
            },
            {
              "internalType": "int256",
              "name": "balance",
              "type": "int256"
            },
            {
              "internalType": "int256",
              "name": "netTraderPosition",
              "type": "int256"
            },
            {
              "internalType": "int256",
              "name": "sumAX128Ckpt",
              "type": "int256"
            },
            {
              "components": [
                {
                  "internalType": "enum IClearingHouse.LimitOrderType",
                  "name": "limitOrderType",
                  "type": "uint8"
                },
                {
                  "internalType": "int24",
                  "name": "tickLower",
                  "type": "int24"
                },
                {
                  "internalType": "int24",
                  "name": "tickUpper",
                  "type": "int24"
                },
                {
                  "internalType": "uint128",
                  "name": "liquidity",
                  "type": "uint128"
                },
                {
                  "internalType": "int256",
                  "name": "vTokenAmountIn",
                  "type": "int256"
                },
                {
                  "internalType": "int256",
                  "name": "sumALastX128",
                  "type": "int256"
                },
                {
                  "internalType": "int256",
                  "name": "sumBInsideLastX128",
                  "type": "int256"
                },
                {
                  "internalType": "int256",
                  "name": "sumFpInsideLastX128",
                  "type": "int256"
                },
                {
                  "internalType": "uint256",
                  "name": "sumFeeInsideLastX128",
                  "type": "uint256"
                }
              ],
              "internalType": "struct IClearingHouse.LiquidityPositionView[]",
              "name": "liquidityPositions",
              "type": "tuple[]"
            }
          ],
          "internalType": "struct IClearingHouse.VTokenPositionView[]",
          "name": "tokenPositions",
          "type": "tuple[]"
        }
      ],
      "stateMutability": "view",
      "type": "function"
    },
    {
      "inputs": [
        {
          "internalType": "contract IVToken",
          "name": "vToken",
          "type": "address"
        }
      ],
      "name": "getTwapSqrtPricesForSetDuration",
      "outputs": [
        {
          "internalType": "uint256",
          "name": "realPriceX128",
          "type": "uint256"
        },
        {
          "internalType": "uint256",
          "name": "virtualPriceX128",
          "type": "uint256"
        }
      ],
      "stateMutability": "view",
      "type": "function"
    },
    {
      "inputs": [],
      "name": "governance",
      "outputs": [
        {
          "internalType": "address",
          "name": "",
          "type": "address"
        }
      ],
      "stateMutability": "view",
      "type": "function"
    },
    {
      "inputs": [
        {
          "internalType": "address",
          "name": "realToken",
          "type": "address"
        }
      ],
      "name": "initRealToken",
      "outputs": [],
      "stateMutability": "nonpayable",
      "type": "function"
    },
    {
      "inputs": [],
      "name": "insuranceFund",
      "outputs": [
        {
          "internalType": "contract IInsuranceFund",
          "name": "",
          "type": "address"
        }
      ],
      "stateMutability": "view",
      "type": "function"
    },
    {
      "inputs": [
        {
          "internalType": "address",
          "name": "realToken",
          "type": "address"
        }
      ],
      "name": "isRealTokenAlreadyInitilized",
      "outputs": [
        {
          "internalType": "bool",
          "name": "",
          "type": "bool"
        }
      ],
      "stateMutability": "view",
      "type": "function"
    },
    {
      "inputs": [
        {
          "internalType": "uint32",
          "name": "truncated",
          "type": "uint32"
        }
      ],
      "name": "isVTokenAddressAvailable",
      "outputs": [
        {
          "internalType": "bool",
          "name": "",
          "type": "bool"
        }
      ],
      "stateMutability": "view",
      "type": "function"
    },
    {
      "inputs": [
        {
          "internalType": "uint256",
          "name": "accountNo",
          "type": "uint256"
        }
      ],
      "name": "liquidateLiquidityPositions",
      "outputs": [
        {
          "internalType": "int256",
          "name": "keeperFee",
          "type": "int256"
        }
      ],
      "stateMutability": "nonpayable",
      "type": "function"
    },
    {
      "inputs": [
        {
          "internalType": "uint256",
          "name": "accountNo",
          "type": "uint256"
        },
        {
          "internalType": "uint256",
          "name": "gasComputationUnitsClaim",
          "type": "uint256"
        }
      ],
      "name": "liquidateLiquidityPositionsWithGasClaim",
      "outputs": [
        {
          "internalType": "int256",
          "name": "keeperFee",
          "type": "int256"
        }
      ],
      "stateMutability": "nonpayable",
      "type": "function"
    },
    {
      "inputs": [
        {
          "internalType": "uint256",
          "name": "liquidatorAccountNo",
          "type": "uint256"
        },
        {
          "internalType": "uint256",
          "name": "accountNo",
          "type": "uint256"
        },
        {
          "internalType": "uint32",
          "name": "vTokenTruncatedAddress",
          "type": "uint32"
        },
        {
          "internalType": "uint16",
          "name": "liquidationBps",
          "type": "uint16"
        }
      ],
      "name": "liquidateTokenPosition",
      "outputs": [
        {
          "components": [
            {
              "internalType": "int256",
              "name": "vBaseIncrease",
              "type": "int256"
            },
            {
              "internalType": "int256",
              "name": "vTokenIncrease",
              "type": "int256"
            },
            {
              "internalType": "int256",
              "name": "traderPositionIncrease",
              "type": "int256"
            }
          ],
          "internalType": "struct IClearingHouse.BalanceAdjustments",
          "name": "liquidatorBalanceAdjustments",
          "type": "tuple"
        }
      ],
      "stateMutability": "nonpayable",
      "type": "function"
    },
    {
      "inputs": [
        {
          "internalType": "uint256",
          "name": "liquidatorAccountNo",
          "type": "uint256"
        },
        {
          "internalType": "uint256",
          "name": "accountNo",
          "type": "uint256"
        },
        {
          "internalType": "uint32",
          "name": "vTokenTruncatedAddress",
          "type": "uint32"
        },
        {
          "internalType": "uint16",
          "name": "liquidationBps",
          "type": "uint16"
        },
        {
          "internalType": "uint256",
          "name": "gasComputationUnitsClaim",
          "type": "uint256"
        }
      ],
      "name": "liquidateTokenPositionWithGasClaim",
      "outputs": [
        {
          "components": [
            {
              "internalType": "int256",
              "name": "vBaseIncrease",
              "type": "int256"
            },
            {
              "internalType": "int256",
              "name": "vTokenIncrease",
              "type": "int256"
            },
            {
              "internalType": "int256",
              "name": "traderPositionIncrease",
              "type": "int256"
            }
          ],
          "internalType": "struct IClearingHouse.BalanceAdjustments",
          "name": "liquidatorBalanceAdjustments",
          "type": "tuple"
        }
      ],
      "stateMutability": "nonpayable",
      "type": "function"
    },
    {
      "inputs": [],
      "name": "nativeOracle",
      "outputs": [
        {
          "internalType": "contract IOracle",
          "name": "",
          "type": "address"
        }
      ],
      "stateMutability": "view",
      "type": "function"
    },
    {
      "inputs": [],
      "name": "numAccounts",
      "outputs": [
        {
          "internalType": "uint256",
          "name": "",
          "type": "uint256"
        }
      ],
      "stateMutability": "view",
      "type": "function"
    },
    {
      "inputs": [],
      "name": "paused",
      "outputs": [
        {
          "internalType": "bool",
          "name": "",
          "type": "bool"
        }
      ],
      "stateMutability": "view",
      "type": "function"
    },
    {
      "inputs": [
        {
          "internalType": "contract IVToken",
          "name": "vToken",
          "type": "address"
        }
      ],
      "name": "pools",
      "outputs": [
        {
          "components": [
            {
              "internalType": "contract IUniswapV3Pool",
              "name": "vPool",
              "type": "address"
            },
            {
              "internalType": "contract IVPoolWrapper",
              "name": "vPoolWrapper",
              "type": "address"
            },
            {
              "components": [
                {
                  "internalType": "uint16",
                  "name": "initialMarginRatio",
                  "type": "uint16"
                },
                {
                  "internalType": "uint16",
                  "name": "maintainanceMarginRatio",
                  "type": "uint16"
                },
                {
                  "internalType": "uint32",
                  "name": "twapDuration",
                  "type": "uint32"
                },
                {
                  "internalType": "bool",
                  "name": "whitelisted",
                  "type": "bool"
                },
                {
                  "internalType": "contract IOracle",
                  "name": "oracle",
                  "type": "address"
                }
              ],
              "internalType": "struct IClearingHouse.RageTradePoolSettings",
              "name": "settings",
              "type": "tuple"
            }
          ],
          "internalType": "struct IClearingHouse.RageTradePool",
          "name": "",
          "type": "tuple"
        }
      ],
      "stateMutability": "view",
      "type": "function"
    },
    {
      "inputs": [],
      "name": "protocolInfo",
      "outputs": [
        {
          "internalType": "contract IVBase",
          "name": "vBase",
          "type": "address"
        },
        {
          "components": [
            {
              "internalType": "uint16",
              "name": "liquidationFeeFraction",
              "type": "uint16"
            },
            {
              "internalType": "uint16",
              "name": "tokenLiquidationPriceDeltaBps",
              "type": "uint16"
            },
            {
              "internalType": "uint16",
              "name": "insuranceFundFeeShareBps",
              "type": "uint16"
            }
          ],
          "internalType": "struct Account.LiquidationParams",
          "name": "liquidationParams",
          "type": "tuple"
        },
        {
          "internalType": "uint256",
          "name": "minRequiredMargin",
          "type": "uint256"
        },
        {
          "internalType": "uint256",
          "name": "removeLimitOrderFee",
          "type": "uint256"
        },
        {
          "internalType": "uint256",
          "name": "minimumOrderNotional",
          "type": "uint256"
        }
      ],
      "stateMutability": "view",
      "type": "function"
    },
    {
      "inputs": [],
      "name": "rBase",
      "outputs": [
        {
          "internalType": "contract IERC20",
          "name": "",
          "type": "address"
        }
      ],
      "stateMutability": "view",
      "type": "function"
    },
    {
      "inputs": [
        {
          "internalType": "uint32",
          "name": "rTokenId",
          "type": "uint32"
        }
      ],
      "name": "rTokens",
      "outputs": [
        {
          "components": [
            {
              "internalType": "address",
              "name": "tokenAddress",
              "type": "address"
            },
            {
              "internalType": "address",
              "name": "oracleAddress",
              "type": "address"
            },
            {
              "internalType": "uint32",
              "name": "oracleTimeHorizon",
              "type": "uint32"
            }
          ],
          "internalType": "struct RTokenLib.RToken",
          "name": "",
          "type": "tuple"
        }
      ],
      "stateMutability": "view",
      "type": "function"
    },
    {
      "inputs": [],
      "name": "rageTradeFactoryAddress",
      "outputs": [
        {
          "internalType": "address",
          "name": "",
          "type": "address"
        }
      ],
      "stateMutability": "view",
      "type": "function"
    },
    {
      "inputs": [
        {
          "internalType": "address",
          "name": "",
          "type": "address"
        }
      ],
      "name": "realTokenInitilized",
      "outputs": [
        {
          "internalType": "bool",
          "name": "",
          "type": "bool"
        }
      ],
      "stateMutability": "view",
      "type": "function"
    },
    {
      "inputs": [
        {
          "internalType": "address",
          "name": "full",
          "type": "address"
        },
        {
          "components": [
            {
              "internalType": "contract IUniswapV3Pool",
              "name": "vPool",
              "type": "address"
            },
            {
              "internalType": "contract IVPoolWrapper",
              "name": "vPoolWrapper",
              "type": "address"
            },
            {
              "components": [
                {
                  "internalType": "uint16",
                  "name": "initialMarginRatio",
                  "type": "uint16"
                },
                {
                  "internalType": "uint16",
                  "name": "maintainanceMarginRatio",
                  "type": "uint16"
                },
                {
                  "internalType": "uint32",
                  "name": "twapDuration",
                  "type": "uint32"
                },
                {
                  "internalType": "bool",
                  "name": "whitelisted",
                  "type": "bool"
                },
                {
                  "internalType": "contract IOracle",
                  "name": "oracle",
                  "type": "address"
                }
              ],
              "internalType": "struct IClearingHouse.RageTradePoolSettings",
              "name": "settings",
              "type": "tuple"
            }
          ],
          "internalType": "struct IClearingHouse.RageTradePool",
          "name": "rageTradePool",
          "type": "tuple"
        }
      ],
      "name": "registerPool",
      "outputs": [],
      "stateMutability": "nonpayable",
      "type": "function"
    },
    {
      "inputs": [
        {
          "internalType": "uint256",
          "name": "accountNo",
          "type": "uint256"
        },
        {
          "internalType": "uint32",
          "name": "vTokenTruncatedAddress",
          "type": "uint32"
        },
        {
          "internalType": "int24",
          "name": "tickLower",
          "type": "int24"
        },
        {
          "internalType": "int24",
          "name": "tickUpper",
          "type": "int24"
        }
      ],
      "name": "removeLimitOrder",
      "outputs": [
        {
          "internalType": "uint256",
          "name": "keeperFee",
          "type": "uint256"
        }
      ],
      "stateMutability": "nonpayable",
      "type": "function"
    },
    {
      "inputs": [
        {
          "internalType": "uint256",
          "name": "accountNo",
          "type": "uint256"
        },
        {
          "internalType": "uint32",
          "name": "vTokenTruncatedAddress",
          "type": "uint32"
        },
        {
          "internalType": "int24",
          "name": "tickLower",
          "type": "int24"
        },
        {
          "internalType": "int24",
          "name": "tickUpper",
          "type": "int24"
        },
        {
          "internalType": "uint256",
          "name": "gasComputationUnitsClaim",
          "type": "uint256"
        }
      ],
      "name": "removeLimitOrderWithGasClaim",
      "outputs": [
        {
          "internalType": "uint256",
          "name": "keeperFee",
          "type": "uint256"
        }
      ],
      "stateMutability": "nonpayable",
      "type": "function"
    },
    {
      "inputs": [
        {
          "internalType": "uint256",
          "name": "accountNo",
          "type": "uint256"
        },
        {
          "internalType": "uint32",
          "name": "rTokenTruncatedAddress",
          "type": "uint32"
        },
        {
          "internalType": "uint256",
          "name": "amount",
          "type": "uint256"
        }
      ],
      "name": "removeMargin",
      "outputs": [],
      "stateMutability": "nonpayable",
      "type": "function"
    },
    {
      "inputs": [
        {
          "internalType": "uint256",
          "name": "accountNo",
          "type": "uint256"
        },
        {
          "internalType": "uint256",
          "name": "amount",
          "type": "uint256"
        }
      ],
      "name": "removeProfit",
      "outputs": [],
      "stateMutability": "nonpayable",
      "type": "function"
    },
    {
      "inputs": [
        {
          "internalType": "bool",
          "name": "_pause",
          "type": "bool"
        }
      ],
      "name": "setPaused",
      "outputs": [],
      "stateMutability": "nonpayable",
      "type": "function"
    },
    {
      "inputs": [
        {
          "components": [
            {
              "internalType": "uint16",
              "name": "liquidationFeeFraction",
              "type": "uint16"
            },
            {
              "internalType": "uint16",
              "name": "tokenLiquidationPriceDeltaBps",
              "type": "uint16"
            },
            {
              "internalType": "uint16",
              "name": "insuranceFundFeeShareBps",
              "type": "uint16"
            }
          ],
          "internalType": "struct Account.LiquidationParams",
          "name": "_liquidationParams",
          "type": "tuple"
        },
        {
          "internalType": "uint256",
          "name": "_removeLimitOrderFee",
          "type": "uint256"
        },
        {
          "internalType": "uint256",
          "name": "_minimumOrderNotional",
          "type": "uint256"
        },
        {
          "internalType": "uint256",
          "name": "_minRequiredMargin",
          "type": "uint256"
        }
      ],
      "name": "setPlatformParameters",
      "outputs": [],
      "stateMutability": "nonpayable",
      "type": "function"
    },
    {
      "inputs": [
        {
          "internalType": "uint256",
          "name": "_txGasPriceLimit",
          "type": "uint256"
        }
      ],
      "name": "setTxGasPriceLimit",
      "outputs": [],
      "stateMutability": "nonpayable",
      "type": "function"
    },
    {
      "inputs": [
        {
          "internalType": "address",
          "name": "",
          "type": "address"
        }
      ],
      "name": "supportedDeposits",
      "outputs": [
        {
          "internalType": "bool",
          "name": "",
          "type": "bool"
        }
      ],
      "stateMutability": "view",
      "type": "function"
    },
    {
      "inputs": [
        {
          "internalType": "contract IVToken",
          "name": "",
          "type": "address"
        }
      ],
      "name": "supportedVTokens",
      "outputs": [
        {
          "internalType": "bool",
          "name": "",
          "type": "bool"
        }
      ],
      "stateMutability": "view",
      "type": "function"
    },
    {
      "inputs": [
        {
          "internalType": "uint256",
          "name": "accountNo",
          "type": "uint256"
        },
        {
          "internalType": "uint32",
          "name": "vTokenTruncatedAddress",
          "type": "uint32"
        },
        {
          "components": [
            {
              "internalType": "int256",
              "name": "amount",
              "type": "int256"
            },
            {
              "internalType": "uint160",
              "name": "sqrtPriceLimit",
              "type": "uint160"
            },
            {
              "internalType": "bool",
              "name": "isNotional",
              "type": "bool"
            },
            {
              "internalType": "bool",
              "name": "isPartialAllowed",
              "type": "bool"
            }
          ],
          "internalType": "struct IClearingHouse.SwapParams",
          "name": "swapParams",
          "type": "tuple"
        }
      ],
      "name": "swapToken",
      "outputs": [
        {
          "internalType": "int256",
          "name": "vTokenAmountOut",
          "type": "int256"
        },
        {
          "internalType": "int256",
          "name": "vBaseAmountOut",
          "type": "int256"
        }
      ],
      "stateMutability": "nonpayable",
      "type": "function"
    },
    {
      "inputs": [],
      "name": "teamMultisig",
      "outputs": [
        {
          "internalType": "address",
          "name": "",
          "type": "address"
        }
      ],
      "stateMutability": "view",
      "type": "function"
    },
    {
      "inputs": [
        {
          "internalType": "address",
          "name": "newGovernance",
          "type": "address"
        }
      ],
      "name": "transferGovernance",
      "outputs": [],
      "stateMutability": "nonpayable",
      "type": "function"
    },
    {
      "inputs": [
        {
          "internalType": "address",
          "name": "newTeamMultisig",
          "type": "address"
        }
      ],
      "name": "transferTeamMultisig",
      "outputs": [],
      "stateMutability": "nonpayable",
      "type": "function"
    },
    {
      "inputs": [],
      "name": "txGasPriceLimit",
      "outputs": [
        {
          "internalType": "uint256",
          "name": "",
          "type": "uint256"
        }
      ],
      "stateMutability": "view",
      "type": "function"
    },
    {
      "inputs": [
        {
          "internalType": "contract IVToken",
          "name": "vToken",
          "type": "address"
        },
        {
          "components": [
            {
              "internalType": "uint16",
              "name": "initialMarginRatio",
              "type": "uint16"
            },
            {
              "internalType": "uint16",
              "name": "maintainanceMarginRatio",
              "type": "uint16"
            },
            {
              "internalType": "uint32",
              "name": "twapDuration",
              "type": "uint32"
            },
            {
              "internalType": "bool",
              "name": "whitelisted",
              "type": "bool"
            },
            {
              "internalType": "contract IOracle",
              "name": "oracle",
              "type": "address"
            }
          ],
          "internalType": "struct IClearingHouse.RageTradePoolSettings",
          "name": "newSettings",
          "type": "tuple"
        }
      ],
      "name": "updateRageTradePoolSettings",
      "outputs": [],
      "stateMutability": "nonpayable",
      "type": "function"
    },
    {
      "inputs": [
        {
          "internalType": "uint256",
          "name": "accountNo",
          "type": "uint256"
        },
        {
          "internalType": "uint32",
          "name": "vTokenTruncatedAddress",
          "type": "uint32"
        },
        {
          "components": [
            {
              "internalType": "int24",
              "name": "tickLower",
              "type": "int24"
            },
            {
              "internalType": "int24",
              "name": "tickUpper",
              "type": "int24"
            },
            {
              "internalType": "int128",
              "name": "liquidityDelta",
              "type": "int128"
            },
            {
              "internalType": "uint160",
              "name": "sqrtPriceCurrent",
              "type": "uint160"
            },
            {
              "internalType": "uint16",
              "name": "slippageToleranceBps",
              "type": "uint16"
            },
            {
              "internalType": "bool",
              "name": "closeTokenPosition",
              "type": "bool"
            },
            {
              "internalType": "enum IClearingHouse.LimitOrderType",
              "name": "limitOrderType",
              "type": "uint8"
            }
          ],
          "internalType": "struct IClearingHouse.LiquidityChangeParams",
          "name": "liquidityChangeParams",
          "type": "tuple"
        }
      ],
      "name": "updateRangeOrder",
      "outputs": [
        {
          "internalType": "int256",
          "name": "vTokenAmountOut",
          "type": "int256"
        },
        {
          "internalType": "int256",
          "name": "vBaseAmountOut",
          "type": "int256"
        }
      ],
      "stateMutability": "nonpayable",
      "type": "function"
    },
    {
      "inputs": [
        {
          "internalType": "address",
          "name": "add",
          "type": "address"
        },
        {
          "internalType": "bool",
          "name": "status",
          "type": "bool"
        }
      ],
      "name": "updateSupportedDeposits",
      "outputs": [],
      "stateMutability": "nonpayable",
      "type": "function"
    },
    {
      "inputs": [
        {
          "internalType": "contract IVToken",
          "name": "add",
          "type": "address"
        },
        {
          "internalType": "bool",
          "name": "status",
          "type": "bool"
        }
      ],
      "name": "updateSupportedVTokens",
      "outputs": [],
      "stateMutability": "nonpayable",
      "type": "function"
    },
    {
      "inputs": [
        {
          "internalType": "uint32",
          "name": "vTokenAddressTruncated",
          "type": "uint32"
        }
      ],
      "name": "vTokens",
      "outputs": [
        {
          "internalType": "contract IVToken",
          "name": "",
          "type": "address"
        }
      ],
      "stateMutability": "view",
      "type": "function"
    },
    {
      "inputs": [
        {
          "internalType": "address[]",
          "name": "wrapperAddresses",
          "type": "address[]"
        }
      ],
      "name": "withdrawProtocolFee",
      "outputs": [],
      "stateMutability": "nonpayable",
      "type": "function"
    }
  ],
  "transactionHash": "0xb5d3ca6b8b4d4041f9a2bed0413f8946701ff97dfcd942096db5f6215f0d0954",
  "args": [],
  "solcInputHash": "b225563770ed7d05adfa2828fcb3b8d6",
  "bytecode": "0x60806040523480156200001157600080fd5b506200001c62000022565b6200018a565b336200002f818062000032565b50565b600054610100900460ff16806200004c575060005460ff16155b620000b45760405162461bcd60e51b815260206004820152602e60248201527f496e697469616c697a61626c653a20636f6e747261637420697320616c72656160448201526d191e481a5b9a5d1a585b1a5e995960921b606482015260840160405180910390fd5b600054610100900460ff16158015620000d7576000805461ffff19166101011790555b6000805462010000600160b01b031916620100006001600160a01b0386169081029190911782556040519091907f5f56bee8cffbe9a78652a74a60705edede02af10b0bbb888ca44b79a0d42ce80908290a3600180546001600160a01b0319166001600160a01b0384169081179091556040516000907f39355f2f5c8206286978f443aa8126bbd29fa09c53c04569502647f3a59c8cb2908290a3801562000185576000805461ff00191690555b505050565b615009806200019a6000396000f3fe608060405234801561001057600080fd5b50600436106102955760003560e01c80637938d8a311610167578063a5cf7688116100ce578063dbd035ff11610087578063dbd035ff14610773578063e1f1671314610793578063eb7c987d146107a6578063ee6cd5ee14610851578063fcd0a50614610864578063fe6f083a1461087757600080fd5b8063a5cf7688146106fe578063b790230314610716578063d257be2b14610729578063d38bfff41461073c578063dac42a961461074f578063dbc0c0851461076257600080fd5b806393420cf41161012057806393420cf41461059357806394c8c71d1461063a57806398f5c5271461064d5780639dca362f14610660578063a26f7ca714610668578063a4063dbc1461067b57600080fd5b80637938d8a3146105095780637cc2f4f51461051c5780637ec6ba311461052f5780637f64d6631461054257806384088b65146105555780638ce25a931461058a57600080fd5b80633d56a35e1161020b578063569634d3116101c4578063569634d3146104895780635aa6e6751461049c5780635c318ad9146104b35780635c975abb146104c657806364f36801146104d357806373cceb9d146104e657600080fd5b80633d56a35e146103b25780633fc42d80146103c557806342be9fca146103f857806343233d2e1461040b5780634e10b6e31461043a578063561684761461045d57600080fd5b8063261f80671161025d578063261f80671461032b5780632a66e9ca1461033e5780632afaea371461035157806332a72d981461036457806336fadead1461038c578063393590291461039f57600080fd5b8063127fec131461029a57806316c38b3c146102ca5780631a1feae1146102df5780631e2eaeaf146102f757806321df4c0e14610309575b600080fd5b60d8546102ad906001600160a01b031681565b6040516001600160a01b0390911681526020015b60405180910390f35b6102dd6102d8366004613d1a565b61088a565b005b6102e961013d5481565b6040519081526020016102c1565b6102e9610305366004613d37565b5490565b61031c610317366004613d37565b6108e8565b6040516102c193929190613d88565b6102dd610339366004613f28565b61092e565b6102dd61034c366004613f57565b61097d565b6102dd61035f366004613fa0565b610a40565b61037761037236600461402a565b610ba8565b604080519283526020830191909152016102c1565b6102dd61039a3660046140d9565b610da1565b6102dd6103ad366004613fa0565b610e17565b60d6546102ad906001600160a01b031681565b6103e86103d3366004613f28565b60d26020526000908152604090205460ff1681565b60405190151581526020016102c1565b6102e9610406366004614112565b610f73565b6102ad610419366004614134565b63ffffffff166000908152606660205260409020546001600160a01b031690565b6103e8610448366004613f28565b60d06020526000908152604090205460ff1681565b6103e861046b366004613f28565b6001600160a01b0316600090815260d0602052604090205460ff1690565b6102e9610497366004613d37565b61101a565b6000546201000090046001600160a01b03166102ad565b6102dd6104c1366004614151565b61102d565b60d5546103e89060ff1681565b6102dd6104e13660046140d9565b611096565b6103e86104f4366004613f28565b60d16020526000908152604090205460ff1681565b6102dd610517366004614112565b61110c565b6102e961052a3660046141a2565b611236565b6102dd61053d366004613d37565b61124f565b6102dd610550366004613f28565b6112a0565b610568610563366004614210565b61136e565b60408051825181526020808401519082015291810151908201526060016102c1565b6102e960d35481565b604080516060808201835260008083526020808401829052928401526067548351808301855260685461ffff808216835262010000820481168387019081526401000000009092048116838801908152606954606a54606b548a516001600160a01b03909816885295518416988701989098529251821697850197909752955190951692820192909252608081019390935260a083019190915260c082015260e0016102c1565b61056861064836600461424f565b6113a0565b6102dd61065b3660046142a1565b611472565b6102e961154d565b6102dd610676366004614312565b6115ec565b61068e610689366004613f28565b611664565b6040805182516001600160a01b03908116825260208085015182168184015293830151805161ffff90811684860152948101519094166060808401919091529284015163ffffffff1660808084019190915292840151151560a083015291909201511660c082015260e0016102c1565b60d5546102ad9061010090046001600160a01b031681565b60d7546102ad906001600160a01b031681565b610377610737366004613f28565b611741565b6102dd61074a366004613f28565b611775565b6103e861075d366004614134565b611837565b6001546001600160a01b03166102ad565b610786610781366004614377565b611866565b6040516102c19190614402565b6102dd6107a1366004614446565b611891565b61081b6107b4366004614134565b60408051606080820183526000808352602080840182905292840181905263ffffffff9485168152606583528390208351918201845280546001600160a01b03908116835260019091015490811692820192909252600160a01b9091049092169082015290565b6040805182516001600160a01b039081168252602080850151909116908201529181015163ffffffff16908201526060016102c1565b61037761085f3660046144bb565b6119e7565b6102dd6108723660046144fb565b611b59565b6102e9610885366004614546565b611c2a565b6001546001600160a01b031633148015906108b757506000546001600160a01b0362010000909104163314155b156108d557604051636bd1573560e11b815260040160405180910390fd5b60d5805460ff1916911515919091179055565b600081815260d46020526040902080546001600160a01b0316906060908190610915606882016064611c78565b9250610925600182016064611dfa565b93959294505050565b60d6546001600160a01b03163314610959576040516385734f3160e01b815260040160405180910390fd5b6001600160a01b0316600090815260d060205260409020805460ff19166001179055565b60d6546001600160a01b031633146109a8576040516385734f3160e01b815260040160405180910390fd5b8160006001600160a01b03821663ffffffff8082166000908152606660205260408120549293506109e3926001600160a01b03169161211516565b6109ef576109ef614590565b63ffffffff8116600090815260666020908152604080832080546001600160a01b0319166001600160a01b0387169081179091558352606490915290208390610a3882826146cf565b505050505050565b60d55460ff1615610a64576040516313d0ff5960e31b815260040160405180910390fd5b600083815260d46020526040902080546001600160a01b03163314610aa357604051630504a20d60e01b81523360048201526024015b60405180910390fd5b6000610aae84612126565b9050610ad8333085610ac785546001600160a01b031690565b6001600160a01b03169291906121bc565b8054604051631b2d4e8960e01b8152600481018490526001600160a01b03909116602482015260448101849052730D0DF62aA9f3D950e6B8a2aECb70E3Fff03E217A90631b2d4e899060640160006040518083038186803b158015610b3c57600080fd5b505af4158015610b50573d6000803e3d6000fd5b50508254604080518981526001600160a01b03909216602083015281018690527fdce3cf2323481f6a4ecd26864872ec536609f1ad0788710e5786c65b8e51ee75925060600190505b60405180910390a15050505050565b60d554600090819060ff1615610bd1576040516313d0ff5960e31b815260040160405180910390fd5b600085815260d46020526040902080546001600160a01b03163314610c0b57604051630504a20d60e01b8152336004820152602401610a9a565b6000610c1686612227565b6040805163edd75e2160e01b8152600481018590526001600160a01b0380841660248301528851604483015260208901511660648083019190915291880151151560848201526060880151151560a482015260c4810191909152909150730D0DF62aA9f3D950e6B8a2aECb70E3Fff03E217A9063edd75e219060e4016040805180830381865af4158015610cae573d6000803e3d6000fd5b505050506040513d601f19601f82011682018060405250810190610cd291906147bd565b90945092506000610ce2846122be565b606b54909150811015610d0b576040516312b6b5cd60e11b815260048101829052602401610a9a565b60208601516001600160a01b031615801590610d2957508560600151155b15610d965785604001518015610d5057508551610d45906122be565b610d4e856122be565b145b80610d7957508560400151158015610d7957508551610d6e906122be565b610d77866122be565b145b610d96576040516307a1db0760e01b815260040160405180910390fd5b505050935093915050565b6001546001600160a01b03163314801590610dce57506000546001600160a01b0362010000909104163314155b15610dec57604051636bd1573560e11b815260040160405180910390fd5b6001600160a01b0391909116600090815260d160205260409020805460ff1916911515919091179055565b60d55460ff1615610e3b576040516313d0ff5960e31b815260040160405180910390fd5b600083815260d46020526040902080546001600160a01b03163314610e7557604051630504a20d60e01b8152336004820152602401610a9a565b6000610e8084612126565b8054604051634de2913360e11b8152600481018590526001600160a01b03909116602482015260448101859052606480820152909150730D0DF62aA9f3D950e6B8a2aECb70E3Fff03E217A90639bc522669060840160006040518083038186803b158015610eed57600080fd5b505af4158015610f01573d6000803e3d6000fd5b50505050610f2b3384610f1b84546001600160a01b031690565b6001600160a01b031691906122d9565b8054604080518781526001600160a01b03909216602083015281018490527fbe29a6b389df4dde99b5e61c229ee4fcb393f7f54c362aa57d8c92200183094690606001610b99565b6000818015610ffc576000610f86612309565b5a610f9191906147f7565b9050610f9d60446123c1565b610fa785856123ed565b92506000610fb3612309565b5a610fbe91906147f7565b610fc8908361480f565b905080831115610ff557604051634010928f60e01b81526004810184905260248101829052604401610a9a565b5050611013565b61100660446123c1565b61101084846123ed565b91505b5092915050565b60006110278260006123ed565b92915050565b6001546001600160a01b0316331480159061105a57506000546001600160a01b0362010000909104163314155b1561107857604051636bd1573560e11b815260040160405180910390fd5b8360686110858282614826565b5050606a92909255606b5560695550565b6001546001600160a01b031633148015906110c357506000546001600160a01b0362010000909104163314155b156110e157604051636bd1573560e11b815260040160405180910390fd5b6001600160a01b0391909116600090815260d260205260409020805460ff1916911515919091179055565b60d55460ff1615611130576040516313d0ff5960e31b815260040160405180910390fd5b600082815260d46020526040902080546001600160a01b0316331461116a57604051630504a20d60e01b8152336004820152602401610a9a565b604051634042e78f60e01b81526004810182905260248101839052606460448201819052730D0DF62aA9f3D950e6B8a2aECb70E3Fff03E217A91634042e78f910160006040518083038186803b1580156111c357600080fd5b505af41580156111d7573d6000803e3d6000fd5b505060d5546111f8925061010090046001600160a01b0316905033846122d9565b60408051848152602081018490527fb8635fe5938466cc626f7c214bf818f090e2b736368828f448cd2b379cf0174e910160405180910390a1505050565b6000611246858585856000612542565b95945050505050565b6001546001600160a01b0316331480159061127c57506000546001600160a01b0362010000909104163314155b1561129a57604051636bd1573560e11b815260040160405180910390fd5b61013d55565b6001546001600160a01b031633148015906112cd57506000546001600160a01b0362010000909104163314155b156112eb57604051636bd1573560e11b815260040160405180910390fd5b6001600160a01b0381166113125760405163d92e233d60e01b815260040160405180910390fd5b6001546040516001600160a01b038084169216907f39355f2f5c8206286978f443aa8126bbd29fa09c53c04569502647f3a59c8cb290600090a3600180546001600160a01b0319166001600160a01b0392909216919091179055565b61139260405180606001604052806000815260200160008152602001600081525090565b611246858585856000612658565b6113c460405180606001604052806000815260200160008152602001600081525090565b81801561144e5760006113d5612309565b5a6113e091906147f7565b90506113ec60a46123c1565b6113f98888888888612658565b92506000611405612309565b5a61141091906147f7565b61141a908361480f565b90508083111561144757604051634010928f60e01b81526004810184905260248101829052604401610a9a565b5050611468565b61145860a46123c1565b6114658787878787612658565b91505b5095945050505050565b600054610100900460ff168061148b575060005460ff16155b6114a75760405162461bcd60e51b8152600401610a9a90614894565b600054610100900460ff161580156114c9576000805461ffff19166101011790555b60d680546001600160a01b03199081166001600160a01b038981169190911790925560d58054610100600160a81b0319166101008985160217905560d78054821687841617905560d880548216858416179055606780549091169185169190911790556115346127c7565b8015610a38576000805461ff0019169055505050505050565b60d55460009060ff1615611574576040516313d0ff5960e31b815260040160405180910390fd5b5060d3546115838160016147f7565b60d355600081815260d4602090815260409182902080546001600160a01b031916339081178255600182018590558351908152918201849052917f7325fb14450d3e5eb288c620b4ff1d6b43a41b33b4a4f143ae88cd4c12f99ea3910160405180910390a15090565b6001546001600160a01b0316331480159061161957506000546001600160a01b0362010000909104163314155b1561163757604051636bd1573560e11b815260040160405180910390fd5b6001600160a01b0382166000908152606460205260409020819060020161165e8282614617565b50505050565b6116a9604080516060808201835260008083526020808401829052845160a0810186528281529081018290528085018290529182018190526080820152909182015290565b506001600160a01b039081166000908152606460209081526040918290208251606080820185528254861682526001830154861682850152845160a08101865260029093015461ffff8082168552620100008204169484019490945263ffffffff6401000000008504168386015260ff600160401b850416151590830152600160481b90920490931660808401529081019190915290565b6000806117586001600160a01b03841660646127d2565b915061176e6001600160a01b03841660646127ff565b9050915091565b6000546001600160a01b03620100009091041633146117a757604051636bd1573560e11b815260040160405180910390fd5b6001600160a01b0381166117ce5760405163d92e233d60e01b815260040160405180910390fd5b600080546040516001600160a01b03808516936201000090930416917f5f56bee8cffbe9a78652a74a60705edede02af10b0bbb888ca44b79a0d42ce8091a3600080546001600160a01b03909216620100000262010000600160b01b0319909216919091179055565b63ffffffff8082166000908152606660205260408120549091611027916001600160a01b031690839061211516565b606060208251028201602001825b81811015611889576020018051548152611874565b509192915050565b6000805b828110156119b45760008484838181106118b1576118b16148e2565b90506020020160208101906118c69190613f28565b6001600160a01b0316635e622abc6040518163ffffffff1660e01b81526004016020604051808303816000875af1158015611905573d6000803e3d6000fd5b505050506040513d601f19601f8201168201806040525081019061192991906148f8565b90507f4b5237f428d31406cf0f93a4ab5fd11482f2fe9a1420271368d67e83496346c485858481811061195e5761195e6148e2565b90506020020160208101906119739190613f28565b604080516001600160a01b039092168252602082018490520160405180910390a161199e81846147f7565b92505080806119ac90614911565b915050611895565b506119e26119ca6001546001600160a01b031690565b60d55461010090046001600160a01b031690836122d9565b505050565b60d554600090819060ff1615611a10576040516313d0ff5960e31b815260040160405180910390fd5b600085815260d46020526040902080546001600160a01b03163314611a4a57604051630504a20d60e01b8152336004820152602401610a9a565b6000611a5586612227565b9050611a676080860160608701613f28565b6001600160a01b031615611a9e57611a9e81611a896080880160608901613f28565b611a9960a0890160808a0161492c565b612817565b6040516349e373d360e01b8152730D0DF62aA9f3D950e6B8a2aECb70E3Fff03E217A906349e373d390611adc90859085908a90606490600401614958565b6040805180830381865af4158015611af8573d6000803e3d6000fd5b505050506040513d601f19601f82011682018060405250810190611b1c91906147bd565b90945092506000611b3082868660646128b9565b606b54909150811015610d96576040516312b6b5cd60e11b815260048101829052602401610a9a565b6001546001600160a01b03163314801590611b8657506000546001600160a01b0362010000909104163314155b15611ba457604051636bd1573560e11b815260040160405180910390fd5b604080516060810182526001600160a01b038086168252938416602080830191825263ffffffff9485168385019081529685166000908152606590915292909220905181549085166001600160a01b0319909116178155905160019190910180549451909216600160a01b026001600160c01b0319909416921691909117919091179055565b6000818015611c61576000611c3d612309565b5a611c4891906147f7565b9050611c5460a46123c1565b6113f98888888888612542565b611c6b60a46123c1565b6114658787878787612542565b60606000611c85846128f9565b90508067ffffffffffffffff811115611ca057611ca0613fd8565b604051908082528060200260200182016040528015611ce557816020015b6040805180820190915260008082526020820152815260200190600190039081611cbe5790505b50915060005b81811015611df257600184016000868360088110611d0b57611d0b6148e2565b60088104919091015460079091166004026101000a900463ffffffff16815260208101919091526040016000205483516001600160a01b0390911690849083908110611d5957611d596148e2565b60209081029190910101516001600160a01b039091169052600185016000868360088110611d8957611d896148e2565b600891828204019190066004029054906101000a900463ffffffff1663ffffffff1663ffffffff16815260200190815260200160002054838281518110611dd257611dd26148e2565b602090810291909101810151015280611dea81614911565b915050611ceb565b505092915050565b60606000611e0a846001016128f9565b90508067ffffffffffffffff811115611e2557611e25613fd8565b604051908082528060200260200182016040528015611e9157816020015b611e7e6040518060a0016040528060006001600160a01b03168152602001600081526020016000815260200160008152602001606081525090565b815260200190600190039081611e435790505b50915060005b81811015611df257836002016000866001018360088110611eba57611eba6148e2565b60088104919091015460079091166004026101000a900463ffffffff16815260208101919091526040016000205483516001600160a01b0390911690849083908110611f0857611f086148e2565b60209081029190910101516001600160a01b039091169052600285016000600187018360088110611f3b57611f3b6148e2565b600891828204019190066004029054906101000a900463ffffffff1663ffffffff1663ffffffff16815260200190815260200160002060000154838281518110611f8757611f876148e2565b60200260200101516020018181525050846002016000866001018360088110611fb257611fb26148e2565b600891828204019190066004029054906101000a900463ffffffff1663ffffffff1663ffffffff16815260200190815260200160002060010154838281518110611ffe57611ffe6148e2565b60200260200101516040018181525050846002016000866001018360088110612029576120296148e2565b600891828204019190066004029054906101000a900463ffffffff1663ffffffff1663ffffffff16815260200190815260200160002060020154838281518110612075576120756148e2565b602002602001015160600181815250506120e18560020160008760010184600881106120a3576120a36148e2565b600891828204019190066004029054906101000a900463ffffffff1663ffffffff1663ffffffff168152602001908152602001600020600301612963565b8382815181106120f3576120f36148e2565b602002602001015160800181905250808061210d90614911565b915050611e97565b6001600160a01b0390811691161490565b63ffffffff808216600090815260656020526040812091612149918391612ee716565b1561216f5760405163b087c8c360e01b815263ffffffff83166004820152602401610a9a565b80546001600160a01b0316600090815260d2602052604090205460ff166121b757805460405163340e1b9160e21b81526001600160a01b039091166004820152602401610a9a565b919050565b6040516001600160a01b038085166024830152831660448201526064810182905261165e9085906323b872dd60e01b906084015b60408051601f198184030181529190526020810180516001600160e01b03166001600160e01b031990931692909217909152612efa565b63ffffffff8082166000908152606660205260408120546001600160a01b03169161225491839161211516565b1561227a5760405163b087c8c360e01b815263ffffffff83166004820152602401610a9a565b6001600160a01b038116600090815260d1602052604090205460ff166121b757604051631079472960e21b81526001600160a01b0382166004820152602401610a9a565b60008082136122d5576122d082614a2a565b611027565b5090565b6040516001600160a01b0383166024820152604481018290526119e290849063a9059cbb60e01b906064016121f0565b60408051600481526024810182526020810180516001600160e01b031663a94597ff60e01b1790529051600091829182916064916123479190614a73565b600060405180830381855afa9150503d8060008114612382576040519150601f19603f3d011682016040523d82523d6000602084013e612387565b606091505b509150915081158061239857508051155b156123a65760009250505090565b808060200190518101906123ba91906148f8565b9250505090565b3681106123ea57604051634219202560e01b815236600482015260248101829052604401610a9a565b50565b60d55460009060ff1615612414576040516313d0ff5960e31b815260040160405180910390fd5b600083815260d46020526040812090730D0DF62aA9f3D950e6B8a2aECb70E3Fff03E217A6379452b238361244787612fcc565b6040516001600160e01b031960e085901b16815260048101929092526024820152606460448201819052016040805180830381865af415801561248e573d6000803e3d6000fd5b505050506040513d601f19601f820116820180604052508101906124b291906147bd565b909350905060006124c38285614a8f565b60d5549091506124e29061010090046001600160a01b031633866122d9565b6124eb826130e5565b6040805187815233602082015290810182905260608101859052608081018390527f914a6aef8c0c1a591157ee7d71dfbd71d1d7df090d3ec047f8eac01fc21b2f439060a00160405180910390a150505092915050565b60d55460009060ff1615612569576040516313d0ff5960e31b815260040160405180910390fd5b600086815260d4602052604081209061258187612227565b905061258c84612fcc565b606a5461259991906147f7565b6040516343c74e9360e01b8152600481018490526001600160a01b0383166024820152600288810b604483015287900b6064808301919091526084820183905260a4820152909350730D0DF62aA9f3D950e6B8a2aECb70E3Fff03E217A906343c74e939060c40160006040518083038186803b15801561261857600080fd5b505af415801561262c573d6000803e3d6000fd5b505060d55461264d925061010090046001600160a01b0316905033856122d9565b505095945050505050565b61267c60405180606001604052806000815260200160008152602001600081525090565b60d55460ff16156126a0576040516313d0ff5960e31b815260040160405180910390fd5b6127108361ffff1611156126c7576040516348d69f3560e01b815260040160405180910390fd5b600085815260d460205260408120906126df86612227565b600089815260d46020526040812091925090730D0DF62aA9f3D950e6B8a2aECb70E3Fff03E217A9063487e8af1908590898661271a8b612fcc565b60646040518763ffffffff1660e01b815260040161276d96959493929190958652602086019490945261ffff9290921660408501526001600160a01b03166060840152608083015260a082015260c00190565b608060405180830381865af415801561278a573d6000803e3d6000fd5b505050506040513d601f19601f820116820180604052508101906127ae9190614ad0565b945090506127bb816130e5565b50505095945050505050565b336123ea8180613176565b60006127f86127ea6001600160a01b0385168461327e565b6001600160a01b0316613311565b9392505050565b60006127f86127ea6001600160a01b0385168461338d565b600061282d6001600160a01b03851660646133cc565b90506000836001600160a01b0316826001600160a01b031611612859576128548285614b49565b612863565b6128638483614b49565b90506127106128768561ffff8616614b71565b6128809190614bb6565b6001600160a01b0316816001600160a01b031611156128b2576040516307a1db0760e01b815260040160405180910390fd5b5050505050565b60006128c4836122be565b6128ef6128da6001600160a01b038816856127ff565b600160801b6128e8886122be565b91906133f2565b6112469190614a8f565b6000805b60088160ff16101561295a57828160ff166008811061291e5761291e6148e2565b60088104919091015460079091166004026101000a900463ffffffff166129485760ff1692915050565b8061295281614bdc565b9150506128fd565b50600892915050565b6060600061297083613434565b90508067ffffffffffffffff81111561298b5761298b613fd8565b604051908082528060200260200182016040528015612a1b57816020015b612a086040805161012081019091528060008152602001600060020b8152602001600060020b815260200160006001600160801b0316815260200160008152602001600081526020016000815260200160008152602001600081525090565b8152602001906001900390816129a95790505b50915060005b81811015612ee057600184016000858360058110612a4157612a416148e2565b600580820492909201549190066006026101000a900465ffffffffffff168152602081019190915260400160002054835160ff90911690849083908110612a8a57612a8a6148e2565b6020026020010151600001906002811115612aa757612aa7613d50565b90816002811115612aba57612aba613d50565b905250600184016000858360058110612ad557612ad56148e2565b600591828204019190066006029054906101000a900465ffffffffffff1665ffffffffffff1665ffffffffffff16815260200190815260200160002060000160019054906101000a900460020b838281518110612b3457612b346148e2565b60209081029190910181015160029290920b910152600184016000858360058110612b6157612b616148e2565b600591828204019190066006029054906101000a900465ffffffffffff1665ffffffffffff1665ffffffffffff16815260200190815260200160002060000160049054906101000a900460020b838281518110612bc057612bc06148e2565b602090810291909101015160029190910b604090910152600184016000858360058110612bef57612bef6148e2565b600591828204019190066006029054906101000a900465ffffffffffff1665ffffffffffff1665ffffffffffff16815260200190815260200160002060000160079054906101000a90046001600160801b0316838281518110612c5457612c546148e2565b60209081029190910101516001600160801b03909116606090910152600184016000858360058110612c8857612c886148e2565b600591828204019190066006029054906101000a900465ffffffffffff1665ffffffffffff1665ffffffffffff16815260200190815260200160002060010154838281518110612cda57612cda6148e2565b602090810291909101015160800152600184016000858360058110612d0157612d016148e2565b600591828204019190066006029054906101000a900465ffffffffffff1665ffffffffffff1665ffffffffffff16815260200190815260200160002060020154838281518110612d5357612d536148e2565b602090810291909101015160a00152600184016000858360058110612d7a57612d7a6148e2565b600591828204019190066006029054906101000a900465ffffffffffff1665ffffffffffff1665ffffffffffff16815260200190815260200160002060030154838281518110612dcc57612dcc6148e2565b602090810291909101015160c00152600184016000858360058110612df357612df36148e2565b600591828204019190066006029054906101000a900465ffffffffffff1665ffffffffffff1665ffffffffffff16815260200190815260200160002060040154838281518110612e4557612e456148e2565b602090810291909101015160e00152600184016000858360058110612e6c57612e6c6148e2565b600591828204019190066006029054906101000a900465ffffffffffff1665ffffffffffff1665ffffffffffff16815260200190815260200160002060050154838281518110612ebe57612ebe6148e2565b6020908102919091010151610100015280612ed881614911565b915050612a21565b5050919050565b90546001600160a01b0391821691161490565b6000612f4f826040518060400160405280602081526020017f5361666545524332303a206c6f772d6c6576656c2063616c6c206661696c6564815250856001600160a01b03166134ab9092919063ffffffff16565b8051909150156119e25780806020019051810190612f6d9190614bfc565b6119e25760405162461bcd60e51b815260206004820152602a60248201527f5361666545524332303a204552433230206f7065726174696f6e20646964206e6044820152691bdd081cdd58d8d9595960b21b6064820152608401610a9a565b60003a61013d548111156130025761013d54604051638dfe587d60e01b8152610a9a918391600401918252602082015260400190565b821580613018575060d8546001600160a01b0316155b1561302657600091506130df565b60003332141561303b576130386134ba565b90505b60006130473a86614c19565b60d854604051630e56d76760e31b815261012c60048201529192506000916130bd916001600160a01b0316906372b6bb3890602401602060405180830381865afa158015613099573d6000803e3d6000fd5b505050506040513d601f19601f820116820180604052508101906127ea9190614c38565b90506130d981600160801b6130d285876147f7565b91906134f8565b94505050505b50919050565b60008113156131105760d75460d5546123ea916001600160a01b0361010090920482169116836122d9565b60d7546001600160a01b031663379607f561312a83614a2a565b6040518263ffffffff1660e01b815260040161314891815260200190565b600060405180830381600087803b15801561316257600080fd5b505af11580156128b2573d6000803e3d6000fd5b600054610100900460ff168061318f575060005460ff16155b6131ab5760405162461bcd60e51b8152600401610a9a90614894565b600054610100900460ff161580156131cd576000805461ffff19166101011790555b6000805462010000600160b01b031916620100006001600160a01b0386169081029190911782556040519091907f5f56bee8cffbe9a78652a74a60705edede02af10b0bbb888ca44b79a0d42ce80908290a3600180546001600160a01b0319166001600160a01b0384169081179091556040516000907f39355f2f5c8206286978f443aa8126bbd29fa09c53c04569502647f3a59c8cb2908290a380156119e2576000805461ff0019169055505050565b6001600160a01b03828116600090815260208390526040808220600201549051630e56d76760e31b8152640100000000820463ffffffff1660048201529192600160481b90910416906372b6bb3890602401602060405180830381865afa1580156132ed573d6000803e3d6000fd5b505050506040513d601f19601f820116820180604052508101906127f89190614c38565b60006401000276a36001600160a01b038316108061334c575073fffd8963efd1fc6a506488495d951d5263988d266001600160a01b03831610155b1561337557604051635d236c4560e01b81526001600160a01b0383166004820152602401610a9a565b6110276001600160a01b03831680600160401b6134f8565b6001600160a01b0380831660009081526020839052604081206002810154905491926127f892169063ffffffff6401000000009091048116906135a616565b6001600160a01b0380831660009081526020839052604081205490916127f891166135c7565b6000613418600085126134055784613411565b61341185600019614c55565b84846134f8565b905060008412156127f85761342c81614a2a565b949350505050565b6000805b60058160ff1610156134a257828160ff1660058110613459576134596148e2565b600591828204019190066006029054906101000a900465ffffffffffff1665ffffffffffff16600014156134905760ff1692915050565b8061349a81614bdc565b915050613438565b50600592915050565b606061342c8484600085613651565b60408051600481526024810182526020810180516001600160e01b031663637bef0760e11b1790529051600091829182916064916123479190614a73565b600080806000198587098587029250828110838203039150508060001415613532576000841161352757600080fd5b5082900490506127f8565b80841161353e57600080fd5b600084868809851960019081018716968790046003810260029081188083028203028083028203028083028203028083028203028083028203029182029003026000889003889004909101858311909403939093029303949094049190911702949350505050565b6000806135bc6001600160a01b03851684613779565b905061101081613995565b600080826001600160a01b0316633850c7bd6040518163ffffffff1660e01b815260040160e060405180830381865afa158015613608573d6000803e3d6000fd5b505050506040513d601f19601f8201168201806040525081019061362c9190614cda565b509496509294505050506001600160a01b038316151590506130df576127f881613995565b6060824710156136b25760405162461bcd60e51b815260206004820152602660248201527f416464726573733a20696e73756666696369656e742062616c616e636520666f6044820152651c8818d85b1b60d21b6064820152608401610a9a565b843b6137005760405162461bcd60e51b815260206004820152601d60248201527f416464726573733a2063616c6c20746f206e6f6e2d636f6e74726163740000006044820152606401610a9a565b600080866001600160a01b0316858760405161371c9190614a73565b60006040518083038185875af1925050503d8060008114613759576040519150601f19603f3d011682016040523d82523d6000602084013e61375e565b606091505b509150915061376e828286613cc8565b979650505050505050565b600063ffffffff82166137a2576040516351a4d88160e01b815260006004820152602401610a9a565b60408051600280825260608201835260009260208301908036833701905050905082816000815181106137d7576137d76148e2565b602002602001019063ffffffff16908163ffffffff1681525050600081600181518110613806576138066148e2565b63ffffffff9092166020928302919091019091015260405163883bdbfd60e01b81526001600160a01b0385169063883bdbfd90613847908490600401614d7c565b600060405180830381865afa92505050801561388557506040513d6000823e601f3d908101601f191682016040526138829190810190614e29565b60015b6138fa57836001600160a01b0316633850c7bd6040518163ffffffff1660e01b815260040160e060405180830381865afa1580156138c7573d6000803e3d6000fd5b505050506040513d601f19601f820116820180604052508101906138eb9190614cda565b50939650611013945050505050565b60008260008151811061390f5761390f6148e2565b60200260200101518360018151811061392a5761392a6148e2565b602002602001015161393c9190614ef5565b9050600061395063ffffffff881683614f45565b905060008260060b128015613976575061397063ffffffff881683614f83565b60060b15155b15613989578061398581614fa5565b9150505b94506110279350505050565b60008060008360020b126139ac578260020b6139b4565b8260020b6000035b9050620d89e88111156139ed5760405162461bcd60e51b81526020600482015260016024820152601560fa1b6044820152606401610a9a565b600060018216613a0157600160801b613a13565b6ffffcb933bd6fad37aa2d162d1a5940015b70ffffffffffffffffffffffffffffffffff1690506002821615613a47576ffff97272373d413259a46990580e213a0260801c5b6004821615613a66576ffff2e50f5f656932ef12357cf3c7fdcc0260801c5b6008821615613a85576fffe5caca7e10e4e61c3624eaa0941cd00260801c5b6010821615613aa4576fffcb9843d60f6159c9db58835c9266440260801c5b6020821615613ac3576fff973b41fa98c081472e6896dfb254c00260801c5b6040821615613ae2576fff2ea16466c96a3843ec78b326b528610260801c5b6080821615613b01576ffe5dee046a99a2a811c461f1969c30530260801c5b610100821615613b21576ffcbe86c7900a88aedcffc83b479aa3a40260801c5b610200821615613b41576ff987a7253ac413176f2b074cf7815e540260801c5b610400821615613b61576ff3392b0822b70005940c7a398e4b70f30260801c5b610800821615613b81576fe7159475a2c29b7443b29c7fa6e889d90260801c5b611000821615613ba1576fd097f3bdfd2022b8845ad8f792aa58250260801c5b612000821615613bc1576fa9f746462d870fdf8a65dc1f90e061e50260801c5b614000821615613be1576f70d869a156d2a1b890bb3df62baf32f70260801c5b618000821615613c01576f31be135f97d08fd981231505542fcfa60260801c5b62010000821615613c22576f09aa508b5b7a84e1c677de54f3e99bc90260801c5b62020000821615613c42576e5d6af8dedb81196699c329225ee6040260801c5b62040000821615613c61576d2216e584f5fa1ea926041bedfe980260801c5b62080000821615613c7e576b048a170391f7dc42444e8fa20260801c5b60008460020b1315613c9f578060001981613c9b57613c9b614ba0565b0490505b640100000000810615613cb3576001613cb6565b60005b60ff16602082901c0192505050919050565b60608315613cd75750816127f8565b825115613ce75782518084602001fd5b8160405162461bcd60e51b8152600401610a9a9190614fc9565b80151581146123ea57600080fd5b80356121b781613d01565b600060208284031215613d2c57600080fd5b81356127f881613d01565b600060208284031215613d4957600080fd5b5035919050565b634e487b7160e01b600052602160045260246000fd5b60038110613d8457634e487b7160e01b600052602160045260246000fd5b9052565b6001600160a01b0384811682526060602080840182905285518483018190526000938783019290916080870190865b81811015613de05785518051861684528401518484015294830194604090920191600101613db7565b5050868103604088015287518082528282019450600581901b82018301838a0160005b83811015613f0157848303601f190188528151805188168452868101518785015260408082015190850152898101518a85015260809081015160a0918501829052805191850182905287019060009060c08601905b80831015613eec578351613e6d838251613d66565b8a8101518060020b8c85015250604081015160020b60408401528d810151613e9f8f8501826001600160801b03169052565b506080810151608084015260a081015160a084015260c081015160c084015260e081015160e084015261010080820151818501525050610120820191508984019350600183019250613e58565b50998801999450505090850190600101613e03565b50909c9b505050505050505050505050565b6001600160a01b03811681146123ea57600080fd5b600060208284031215613f3a57600080fd5b81356127f881613f13565b600060e082840312156130df57600080fd5b6000806101008385031215613f6b57600080fd5b8235613f7681613f13565b9150613f858460208501613f45565b90509250929050565b63ffffffff811681146123ea57600080fd5b600080600060608486031215613fb557600080fd5b833592506020840135613fc781613f8e565b929592945050506040919091013590565b634e487b7160e01b600052604160045260246000fd5b604051601f8201601f1916810167ffffffffffffffff8111828210171561401757614017613fd8565b604052919050565b80356121b781613f13565b600080600083850360c081121561404057600080fd5b84359350602085013561405281613f8e565b92506080603f198201121561406657600080fd5b506040516080810181811067ffffffffffffffff8211171561408a5761408a613fd8565b6040908152850135815260608501356140a281613f13565b602082015260808501356140b581613d01565b604082015260a08501356140c881613d01565b606082015292959194509192509050565b600080604083850312156140ec57600080fd5b82356140f781613f13565b9150602083013561410781613d01565b809150509250929050565b6000806040838503121561412557600080fd5b50508035926020909101359150565b60006020828403121561414657600080fd5b81356127f881613f8e565b60008060008084860360c081121561416857600080fd5b606081121561417657600080fd5b509395606087013595506080870135945060a08701359350915050565b8060020b81146123ea57600080fd5b600080600080608085870312156141b857600080fd5b8435935060208501356141ca81613f8e565b925060408501356141da81614193565b915060608501356141ea81614193565b939692955090935050565b61ffff811681146123ea57600080fd5b80356121b7816141f5565b6000806000806080858703121561422657600080fd5b8435935060208501359250604085013561423f81613f8e565b915060608501356141ea816141f5565b600080600080600060a0868803121561426757600080fd5b8535945060208601359350604086013561428081613f8e565b92506060860135614290816141f5565b949793965091946080013592915050565b600080600080600060a086880312156142b957600080fd5b85356142c481613f13565b945060208601356142d481613f13565b935060408601356142e481613f13565b925060608601356142f481613f13565b9150608086013561430481613f13565b809150509295509295909350565b60008082840360c081121561432657600080fd5b833561433181613f13565b925060a0601f198201121561434557600080fd5b506020830190509250929050565b600067ffffffffffffffff82111561436d5761436d613fd8565b5060051b60200190565b6000602080838503121561438a57600080fd5b823567ffffffffffffffff8111156143a157600080fd5b8301601f810185136143b257600080fd5b80356143c56143c082614353565b613fee565b81815260059190911b820183019083810190878311156143e457600080fd5b928401925b8284101561376e578335825292840192908401906143e9565b6020808252825182820181905260009190848201906040850190845b8181101561443a5783518352928401929184019160010161441e565b50909695505050505050565b6000806020838503121561445957600080fd5b823567ffffffffffffffff8082111561447157600080fd5b818501915085601f83011261448557600080fd5b81358181111561449457600080fd5b8660208260051b85010111156144a957600080fd5b60209290920196919550909350505050565b600080600061012084860312156144d157600080fd5b8335925060208401356144e381613f8e565b91506144f28560408601613f45565b90509250925092565b60008060006060848603121561451057600080fd5b833561451b81613f13565b9250602084013561452b81613f13565b9150604084013561453b81613f8e565b809150509250925092565b600080600080600060a0868803121561455e57600080fd5b85359450602086013561457081613f8e565b9350604086013561458081614193565b9250606086013561429081614193565b634e487b7160e01b600052600160045260246000fd5b80546001600160a01b0319166001600160a01b0392909216919091179055565b6000813561102781613f13565b80547fffffff0000000000000000000000000000000000000000ffffffffffffffffff1660489290921b6901000000000000000000600160e81b0316919091179055565b8135614622816141f5565b815461ffff191661ffff8216178255506020820135614640816141f5565b815463ffff00001916601082901b63ffff00001617825550604082013561466681613f8e565b815467ffffffff000000008260201b1691508167ffffffff00000000198216178355606084013561469681613d01565b68ffffffffff00000000199190911690911790151560401b60ff60401b1617815560808201356146c581613f13565b6119e281836145d3565b81356146da81613f13565b6146e481836145a6565b5060208201356146f381613f13565b61470081600184016145a6565b50600281016040830135614713816141f5565b815461ffff191661ffff8216178255506060830135614731816141f5565b815463ffff00001916601082901b63ffff00001617825550608083013561475781613f8e565b815467ffffffff000000008260201b1691508167ffffffff0000000019821617835560a085013561478781613d01565b68ffffffffff00000000199190911690911790151560401b60ff60401b161781556119e26147b760c085016145c6565b826145d3565b600080604083850312156147d057600080fd5b505080516020909101519092909150565b634e487b7160e01b600052601160045260246000fd5b6000821982111561480a5761480a6147e1565b500190565b600082821015614821576148216147e1565b500390565b8135614831816141f5565b815461ffff191661ffff821617825550602082013561484f816141f5565b815463ffff00001916601082901b63ffff000016178255506040820135614875816141f5565b815465ffff00000000191660209190911b65ffff000000001617905550565b6020808252602e908201527f496e697469616c697a61626c653a20636f6e747261637420697320616c72656160408201526d191e481a5b9a5d1a585b1a5e995960921b606082015260800190565b634e487b7160e01b600052603260045260246000fd5b60006020828403121561490a57600080fd5b5051919050565b6000600019821415614925576149256147e1565b5060010190565b60006020828403121561493e57600080fd5b81356127f8816141f5565b8035600381106121b757600080fd5b8481526001600160a01b03841660208201526101408101833561497a81614193565b60020b6040830152602084013561499081614193565b60020b60608301526040840135600f81900b81146149ad57600080fd5b6149bc6080840182600f0b9052565b506149c96060850161401f565b6001600160a01b031660a08301526149e360808501614205565b61ffff1660c08301526149f860a08501613d0f565b151560e0830152614a0b60c08501614949565b614a19610100840182613d66565b508261012083015295945050505050565b6000600160ff1b821415614a4057614a406147e1565b5060000390565b60005b83811015614a62578181015183820152602001614a4a565b8381111561165e5750506000910152565b60008251614a85818460208701614a47565b9190910192915050565b600080821280156001600160ff1b0384900385131615614ab157614ab16147e1565b600160ff1b8390038412811615614aca57614aca6147e1565b50500190565b6000808284036080811215614ae457600080fd5b835192506060601f1982011215614afa57600080fd5b506040516060810181811067ffffffffffffffff82111715614b1e57614b1e613fd8565b8060405250602084015181526040840151602082015260608401516040820152809150509250929050565b60006001600160a01b0383811690831681811015614b6957614b696147e1565b039392505050565b60006001600160a01b0382811684821681151582840482111615614b9757614b976147e1565b02949350505050565b634e487b7160e01b600052601260045260246000fd5b60006001600160a01b0383811680614bd057614bd0614ba0565b92169190910492915050565b600060ff821660ff811415614bf357614bf36147e1565b60010192915050565b600060208284031215614c0e57600080fd5b81516127f881613d01565b6000816000190483118215151615614c3357614c336147e1565b500290565b600060208284031215614c4a57600080fd5b81516127f881613f13565b60006001600160ff1b0381841382841380821686840486111615614c7b57614c7b6147e1565b600160ff1b6000871282811687830589121615614c9a57614c9a6147e1565b60008712925087820587128484161615614cb657614cb66147e1565b87850587128184161615614ccc57614ccc6147e1565b505050929093029392505050565b600080600080600080600060e0888a031215614cf557600080fd5b8751614d0081613f13565b6020890151909750614d1181614193565b6040890151909650614d22816141f5565b6060890151909550614d33816141f5565b6080890151909450614d44816141f5565b60a089015190935060ff81168114614d5b57600080fd5b60c0890151909250614d6c81613d01565b8091505092959891949750929550565b6020808252825182820181905260009190848201906040850190845b8181101561443a57835163ffffffff1683529284019291840191600101614d98565b600082601f830112614dcb57600080fd5b81516020614ddb6143c083614353565b82815260059290921b84018101918181019086841115614dfa57600080fd5b8286015b84811015614e1e578051614e1181613f13565b8352918301918301614dfe565b509695505050505050565b60008060408385031215614e3c57600080fd5b825167ffffffffffffffff80821115614e5457600080fd5b818501915085601f830112614e6857600080fd5b81516020614e786143c083614353565b82815260059290921b84018101918181019089841115614e9757600080fd5b948201945b83861015614ec55785518060060b8114614eb65760008081fd5b82529482019490820190614e9c565b91880151919650909350505080821115614ede57600080fd5b50614eeb85828601614dba565b9150509250929050565b60008160060b8360060b6000811281667fffffffffffff1901831281151615614f2057614f206147e1565b81667fffffffffffff018313811615614f3b57614f3b6147e1565b5090039392505050565b60008160060b8360060b80614f5c57614f5c614ba0565b667fffffffffffff19821460001982141615614f7a57614f7a6147e1565b90059392505050565b60008260060b80614f9657614f96614ba0565b808360060b0791505092915050565b60008160020b627fffff19811415614fbf57614fbf6147e1565b6000190192915050565b6020815260008251806020840152614fe8816040850160208701614a47565b601f01601f1916919091016040019291505056fea164736f6c634300080a000a",
  "deployedBytecode": "0x608060405234801561001057600080fd5b50600436106102955760003560e01c80637938d8a311610167578063a5cf7688116100ce578063dbd035ff11610087578063dbd035ff14610773578063e1f1671314610793578063eb7c987d146107a6578063ee6cd5ee14610851578063fcd0a50614610864578063fe6f083a1461087757600080fd5b8063a5cf7688146106fe578063b790230314610716578063d257be2b14610729578063d38bfff41461073c578063dac42a961461074f578063dbc0c0851461076257600080fd5b806393420cf41161012057806393420cf41461059357806394c8c71d1461063a57806398f5c5271461064d5780639dca362f14610660578063a26f7ca714610668578063a4063dbc1461067b57600080fd5b80637938d8a3146105095780637cc2f4f51461051c5780637ec6ba311461052f5780637f64d6631461054257806384088b65146105555780638ce25a931461058a57600080fd5b80633d56a35e1161020b578063569634d3116101c4578063569634d3146104895780635aa6e6751461049c5780635c318ad9146104b35780635c975abb146104c657806364f36801146104d357806373cceb9d146104e657600080fd5b80633d56a35e146103b25780633fc42d80146103c557806342be9fca146103f857806343233d2e1461040b5780634e10b6e31461043a578063561684761461045d57600080fd5b8063261f80671161025d578063261f80671461032b5780632a66e9ca1461033e5780632afaea371461035157806332a72d981461036457806336fadead1461038c578063393590291461039f57600080fd5b8063127fec131461029a57806316c38b3c146102ca5780631a1feae1146102df5780631e2eaeaf146102f757806321df4c0e14610309575b600080fd5b60d8546102ad906001600160a01b031681565b6040516001600160a01b0390911681526020015b60405180910390f35b6102dd6102d8366004613d1a565b61088a565b005b6102e961013d5481565b6040519081526020016102c1565b6102e9610305366004613d37565b5490565b61031c610317366004613d37565b6108e8565b6040516102c193929190613d88565b6102dd610339366004613f28565b61092e565b6102dd61034c366004613f57565b61097d565b6102dd61035f366004613fa0565b610a40565b61037761037236600461402a565b610ba8565b604080519283526020830191909152016102c1565b6102dd61039a3660046140d9565b610da1565b6102dd6103ad366004613fa0565b610e17565b60d6546102ad906001600160a01b031681565b6103e86103d3366004613f28565b60d26020526000908152604090205460ff1681565b60405190151581526020016102c1565b6102e9610406366004614112565b610f73565b6102ad610419366004614134565b63ffffffff166000908152606660205260409020546001600160a01b031690565b6103e8610448366004613f28565b60d06020526000908152604090205460ff1681565b6103e861046b366004613f28565b6001600160a01b0316600090815260d0602052604090205460ff1690565b6102e9610497366004613d37565b61101a565b6000546201000090046001600160a01b03166102ad565b6102dd6104c1366004614151565b61102d565b60d5546103e89060ff1681565b6102dd6104e13660046140d9565b611096565b6103e86104f4366004613f28565b60d16020526000908152604090205460ff1681565b6102dd610517366004614112565b61110c565b6102e961052a3660046141a2565b611236565b6102dd61053d366004613d37565b61124f565b6102dd610550366004613f28565b6112a0565b610568610563366004614210565b61136e565b60408051825181526020808401519082015291810151908201526060016102c1565b6102e960d35481565b604080516060808201835260008083526020808401829052928401526067548351808301855260685461ffff808216835262010000820481168387019081526401000000009092048116838801908152606954606a54606b548a516001600160a01b03909816885295518416988701989098529251821697850197909752955190951692820192909252608081019390935260a083019190915260c082015260e0016102c1565b61056861064836600461424f565b6113a0565b6102dd61065b3660046142a1565b611472565b6102e961154d565b6102dd610676366004614312565b6115ec565b61068e610689366004613f28565b611664565b6040805182516001600160a01b03908116825260208085015182168184015293830151805161ffff90811684860152948101519094166060808401919091529284015163ffffffff1660808084019190915292840151151560a083015291909201511660c082015260e0016102c1565b60d5546102ad9061010090046001600160a01b031681565b60d7546102ad906001600160a01b031681565b610377610737366004613f28565b611741565b6102dd61074a366004613f28565b611775565b6103e861075d366004614134565b611837565b6001546001600160a01b03166102ad565b610786610781366004614377565b611866565b6040516102c19190614402565b6102dd6107a1366004614446565b611891565b61081b6107b4366004614134565b60408051606080820183526000808352602080840182905292840181905263ffffffff9485168152606583528390208351918201845280546001600160a01b03908116835260019091015490811692820192909252600160a01b9091049092169082015290565b6040805182516001600160a01b039081168252602080850151909116908201529181015163ffffffff16908201526060016102c1565b61037761085f3660046144bb565b6119e7565b6102dd6108723660046144fb565b611b59565b6102e9610885366004614546565b611c2a565b6001546001600160a01b031633148015906108b757506000546001600160a01b0362010000909104163314155b156108d557604051636bd1573560e11b815260040160405180910390fd5b60d5805460ff1916911515919091179055565b600081815260d46020526040902080546001600160a01b0316906060908190610915606882016064611c78565b9250610925600182016064611dfa565b93959294505050565b60d6546001600160a01b03163314610959576040516385734f3160e01b815260040160405180910390fd5b6001600160a01b0316600090815260d060205260409020805460ff19166001179055565b60d6546001600160a01b031633146109a8576040516385734f3160e01b815260040160405180910390fd5b8160006001600160a01b03821663ffffffff8082166000908152606660205260408120549293506109e3926001600160a01b03169161211516565b6109ef576109ef614590565b63ffffffff8116600090815260666020908152604080832080546001600160a01b0319166001600160a01b0387169081179091558352606490915290208390610a3882826146cf565b505050505050565b60d55460ff1615610a64576040516313d0ff5960e31b815260040160405180910390fd5b600083815260d46020526040902080546001600160a01b03163314610aa357604051630504a20d60e01b81523360048201526024015b60405180910390fd5b6000610aae84612126565b9050610ad8333085610ac785546001600160a01b031690565b6001600160a01b03169291906121bc565b8054604051631b2d4e8960e01b8152600481018490526001600160a01b0390911660248201526044810184905273__$86182d6e9eac51236f2aa8dd2a3ddeab6c$__90631b2d4e899060640160006040518083038186803b158015610b3c57600080fd5b505af4158015610b50573d6000803e3d6000fd5b50508254604080518981526001600160a01b03909216602083015281018690527fdce3cf2323481f6a4ecd26864872ec536609f1ad0788710e5786c65b8e51ee75925060600190505b60405180910390a15050505050565b60d554600090819060ff1615610bd1576040516313d0ff5960e31b815260040160405180910390fd5b600085815260d46020526040902080546001600160a01b03163314610c0b57604051630504a20d60e01b8152336004820152602401610a9a565b6000610c1686612227565b6040805163edd75e2160e01b8152600481018590526001600160a01b0380841660248301528851604483015260208901511660648083019190915291880151151560848201526060880151151560a482015260c481019190915290915073__$86182d6e9eac51236f2aa8dd2a3ddeab6c$__9063edd75e219060e4016040805180830381865af4158015610cae573d6000803e3d6000fd5b505050506040513d601f19601f82011682018060405250810190610cd291906147bd565b90945092506000610ce2846122be565b606b54909150811015610d0b576040516312b6b5cd60e11b815260048101829052602401610a9a565b60208601516001600160a01b031615801590610d2957508560600151155b15610d965785604001518015610d5057508551610d45906122be565b610d4e856122be565b145b80610d7957508560400151158015610d7957508551610d6e906122be565b610d77866122be565b145b610d96576040516307a1db0760e01b815260040160405180910390fd5b505050935093915050565b6001546001600160a01b03163314801590610dce57506000546001600160a01b0362010000909104163314155b15610dec57604051636bd1573560e11b815260040160405180910390fd5b6001600160a01b0391909116600090815260d160205260409020805460ff1916911515919091179055565b60d55460ff1615610e3b576040516313d0ff5960e31b815260040160405180910390fd5b600083815260d46020526040902080546001600160a01b03163314610e7557604051630504a20d60e01b8152336004820152602401610a9a565b6000610e8084612126565b8054604051634de2913360e11b8152600481018590526001600160a01b0390911660248201526044810185905260648082015290915073__$86182d6e9eac51236f2aa8dd2a3ddeab6c$__90639bc522669060840160006040518083038186803b158015610eed57600080fd5b505af4158015610f01573d6000803e3d6000fd5b50505050610f2b3384610f1b84546001600160a01b031690565b6001600160a01b031691906122d9565b8054604080518781526001600160a01b03909216602083015281018490527fbe29a6b389df4dde99b5e61c229ee4fcb393f7f54c362aa57d8c92200183094690606001610b99565b6000818015610ffc576000610f86612309565b5a610f9191906147f7565b9050610f9d60446123c1565b610fa785856123ed565b92506000610fb3612309565b5a610fbe91906147f7565b610fc8908361480f565b905080831115610ff557604051634010928f60e01b81526004810184905260248101829052604401610a9a565b5050611013565b61100660446123c1565b61101084846123ed565b91505b5092915050565b60006110278260006123ed565b92915050565b6001546001600160a01b0316331480159061105a57506000546001600160a01b0362010000909104163314155b1561107857604051636bd1573560e11b815260040160405180910390fd5b8360686110858282614826565b5050606a92909255606b5560695550565b6001546001600160a01b031633148015906110c357506000546001600160a01b0362010000909104163314155b156110e157604051636bd1573560e11b815260040160405180910390fd5b6001600160a01b0391909116600090815260d260205260409020805460ff1916911515919091179055565b60d55460ff1615611130576040516313d0ff5960e31b815260040160405180910390fd5b600082815260d46020526040902080546001600160a01b0316331461116a57604051630504a20d60e01b8152336004820152602401610a9a565b604051634042e78f60e01b8152600481018290526024810183905260646044820181905273__$86182d6e9eac51236f2aa8dd2a3ddeab6c$__91634042e78f910160006040518083038186803b1580156111c357600080fd5b505af41580156111d7573d6000803e3d6000fd5b505060d5546111f8925061010090046001600160a01b0316905033846122d9565b60408051848152602081018490527fb8635fe5938466cc626f7c214bf818f090e2b736368828f448cd2b379cf0174e910160405180910390a1505050565b6000611246858585856000612542565b95945050505050565b6001546001600160a01b0316331480159061127c57506000546001600160a01b0362010000909104163314155b1561129a57604051636bd1573560e11b815260040160405180910390fd5b61013d55565b6001546001600160a01b031633148015906112cd57506000546001600160a01b0362010000909104163314155b156112eb57604051636bd1573560e11b815260040160405180910390fd5b6001600160a01b0381166113125760405163d92e233d60e01b815260040160405180910390fd5b6001546040516001600160a01b038084169216907f39355f2f5c8206286978f443aa8126bbd29fa09c53c04569502647f3a59c8cb290600090a3600180546001600160a01b0319166001600160a01b0392909216919091179055565b61139260405180606001604052806000815260200160008152602001600081525090565b611246858585856000612658565b6113c460405180606001604052806000815260200160008152602001600081525090565b81801561144e5760006113d5612309565b5a6113e091906147f7565b90506113ec60a46123c1565b6113f98888888888612658565b92506000611405612309565b5a61141091906147f7565b61141a908361480f565b90508083111561144757604051634010928f60e01b81526004810184905260248101829052604401610a9a565b5050611468565b61145860a46123c1565b6114658787878787612658565b91505b5095945050505050565b600054610100900460ff168061148b575060005460ff16155b6114a75760405162461bcd60e51b8152600401610a9a90614894565b600054610100900460ff161580156114c9576000805461ffff19166101011790555b60d680546001600160a01b03199081166001600160a01b038981169190911790925560d58054610100600160a81b0319166101008985160217905560d78054821687841617905560d880548216858416179055606780549091169185169190911790556115346127c7565b8015610a38576000805461ff0019169055505050505050565b60d55460009060ff1615611574576040516313d0ff5960e31b815260040160405180910390fd5b5060d3546115838160016147f7565b60d355600081815260d4602090815260409182902080546001600160a01b031916339081178255600182018590558351908152918201849052917f7325fb14450d3e5eb288c620b4ff1d6b43a41b33b4a4f143ae88cd4c12f99ea3910160405180910390a15090565b6001546001600160a01b0316331480159061161957506000546001600160a01b0362010000909104163314155b1561163757604051636bd1573560e11b815260040160405180910390fd5b6001600160a01b0382166000908152606460205260409020819060020161165e8282614617565b50505050565b6116a9604080516060808201835260008083526020808401829052845160a0810186528281529081018290528085018290529182018190526080820152909182015290565b506001600160a01b039081166000908152606460209081526040918290208251606080820185528254861682526001830154861682850152845160a08101865260029093015461ffff8082168552620100008204169484019490945263ffffffff6401000000008504168386015260ff600160401b850416151590830152600160481b90920490931660808401529081019190915290565b6000806117586001600160a01b03841660646127d2565b915061176e6001600160a01b03841660646127ff565b9050915091565b6000546001600160a01b03620100009091041633146117a757604051636bd1573560e11b815260040160405180910390fd5b6001600160a01b0381166117ce5760405163d92e233d60e01b815260040160405180910390fd5b600080546040516001600160a01b03808516936201000090930416917f5f56bee8cffbe9a78652a74a60705edede02af10b0bbb888ca44b79a0d42ce8091a3600080546001600160a01b03909216620100000262010000600160b01b0319909216919091179055565b63ffffffff8082166000908152606660205260408120549091611027916001600160a01b031690839061211516565b606060208251028201602001825b81811015611889576020018051548152611874565b509192915050565b6000805b828110156119b45760008484838181106118b1576118b16148e2565b90506020020160208101906118c69190613f28565b6001600160a01b0316635e622abc6040518163ffffffff1660e01b81526004016020604051808303816000875af1158015611905573d6000803e3d6000fd5b505050506040513d601f19601f8201168201806040525081019061192991906148f8565b90507f4b5237f428d31406cf0f93a4ab5fd11482f2fe9a1420271368d67e83496346c485858481811061195e5761195e6148e2565b90506020020160208101906119739190613f28565b604080516001600160a01b039092168252602082018490520160405180910390a161199e81846147f7565b92505080806119ac90614911565b915050611895565b506119e26119ca6001546001600160a01b031690565b60d55461010090046001600160a01b031690836122d9565b505050565b60d554600090819060ff1615611a10576040516313d0ff5960e31b815260040160405180910390fd5b600085815260d46020526040902080546001600160a01b03163314611a4a57604051630504a20d60e01b8152336004820152602401610a9a565b6000611a5586612227565b9050611a676080860160608701613f28565b6001600160a01b031615611a9e57611a9e81611a896080880160608901613f28565b611a9960a0890160808a0161492c565b612817565b6040516349e373d360e01b815273__$86182d6e9eac51236f2aa8dd2a3ddeab6c$__906349e373d390611adc90859085908a90606490600401614958565b6040805180830381865af4158015611af8573d6000803e3d6000fd5b505050506040513d601f19601f82011682018060405250810190611b1c91906147bd565b90945092506000611b3082868660646128b9565b606b54909150811015610d96576040516312b6b5cd60e11b815260048101829052602401610a9a565b6001546001600160a01b03163314801590611b8657506000546001600160a01b0362010000909104163314155b15611ba457604051636bd1573560e11b815260040160405180910390fd5b604080516060810182526001600160a01b038086168252938416602080830191825263ffffffff9485168385019081529685166000908152606590915292909220905181549085166001600160a01b0319909116178155905160019190910180549451909216600160a01b026001600160c01b0319909416921691909117919091179055565b6000818015611c61576000611c3d612309565b5a611c4891906147f7565b9050611c5460a46123c1565b6113f98888888888612542565b611c6b60a46123c1565b6114658787878787612542565b60606000611c85846128f9565b90508067ffffffffffffffff811115611ca057611ca0613fd8565b604051908082528060200260200182016040528015611ce557816020015b6040805180820190915260008082526020820152815260200190600190039081611cbe5790505b50915060005b81811015611df257600184016000868360088110611d0b57611d0b6148e2565b60088104919091015460079091166004026101000a900463ffffffff16815260208101919091526040016000205483516001600160a01b0390911690849083908110611d5957611d596148e2565b60209081029190910101516001600160a01b039091169052600185016000868360088110611d8957611d896148e2565b600891828204019190066004029054906101000a900463ffffffff1663ffffffff1663ffffffff16815260200190815260200160002054838281518110611dd257611dd26148e2565b602090810291909101810151015280611dea81614911565b915050611ceb565b505092915050565b60606000611e0a846001016128f9565b90508067ffffffffffffffff811115611e2557611e25613fd8565b604051908082528060200260200182016040528015611e9157816020015b611e7e6040518060a0016040528060006001600160a01b03168152602001600081526020016000815260200160008152602001606081525090565b815260200190600190039081611e435790505b50915060005b81811015611df257836002016000866001018360088110611eba57611eba6148e2565b60088104919091015460079091166004026101000a900463ffffffff16815260208101919091526040016000205483516001600160a01b0390911690849083908110611f0857611f086148e2565b60209081029190910101516001600160a01b039091169052600285016000600187018360088110611f3b57611f3b6148e2565b600891828204019190066004029054906101000a900463ffffffff1663ffffffff1663ffffffff16815260200190815260200160002060000154838281518110611f8757611f876148e2565b60200260200101516020018181525050846002016000866001018360088110611fb257611fb26148e2565b600891828204019190066004029054906101000a900463ffffffff1663ffffffff1663ffffffff16815260200190815260200160002060010154838281518110611ffe57611ffe6148e2565b60200260200101516040018181525050846002016000866001018360088110612029576120296148e2565b600891828204019190066004029054906101000a900463ffffffff1663ffffffff1663ffffffff16815260200190815260200160002060020154838281518110612075576120756148e2565b602002602001015160600181815250506120e18560020160008760010184600881106120a3576120a36148e2565b600891828204019190066004029054906101000a900463ffffffff1663ffffffff1663ffffffff168152602001908152602001600020600301612963565b8382815181106120f3576120f36148e2565b602002602001015160800181905250808061210d90614911565b915050611e97565b6001600160a01b0390811691161490565b63ffffffff808216600090815260656020526040812091612149918391612ee716565b1561216f5760405163b087c8c360e01b815263ffffffff83166004820152602401610a9a565b80546001600160a01b0316600090815260d2602052604090205460ff166121b757805460405163340e1b9160e21b81526001600160a01b039091166004820152602401610a9a565b919050565b6040516001600160a01b038085166024830152831660448201526064810182905261165e9085906323b872dd60e01b906084015b60408051601f198184030181529190526020810180516001600160e01b03166001600160e01b031990931692909217909152612efa565b63ffffffff8082166000908152606660205260408120546001600160a01b03169161225491839161211516565b1561227a5760405163b087c8c360e01b815263ffffffff83166004820152602401610a9a565b6001600160a01b038116600090815260d1602052604090205460ff166121b757604051631079472960e21b81526001600160a01b0382166004820152602401610a9a565b60008082136122d5576122d082614a2a565b611027565b5090565b6040516001600160a01b0383166024820152604481018290526119e290849063a9059cbb60e01b906064016121f0565b60408051600481526024810182526020810180516001600160e01b031663a94597ff60e01b1790529051600091829182916064916123479190614a73565b600060405180830381855afa9150503d8060008114612382576040519150601f19603f3d011682016040523d82523d6000602084013e612387565b606091505b509150915081158061239857508051155b156123a65760009250505090565b808060200190518101906123ba91906148f8565b9250505090565b3681106123ea57604051634219202560e01b815236600482015260248101829052604401610a9a565b50565b60d55460009060ff1615612414576040516313d0ff5960e31b815260040160405180910390fd5b600083815260d4602052604081209073__$86182d6e9eac51236f2aa8dd2a3ddeab6c$__6379452b238361244787612fcc565b6040516001600160e01b031960e085901b16815260048101929092526024820152606460448201819052016040805180830381865af415801561248e573d6000803e3d6000fd5b505050506040513d601f19601f820116820180604052508101906124b291906147bd565b909350905060006124c38285614a8f565b60d5549091506124e29061010090046001600160a01b031633866122d9565b6124eb826130e5565b6040805187815233602082015290810182905260608101859052608081018390527f914a6aef8c0c1a591157ee7d71dfbd71d1d7df090d3ec047f8eac01fc21b2f439060a00160405180910390a150505092915050565b60d55460009060ff1615612569576040516313d0ff5960e31b815260040160405180910390fd5b600086815260d4602052604081209061258187612227565b905061258c84612fcc565b606a5461259991906147f7565b6040516343c74e9360e01b8152600481018490526001600160a01b0383166024820152600288810b604483015287900b6064808301919091526084820183905260a482015290935073__$86182d6e9eac51236f2aa8dd2a3ddeab6c$__906343c74e939060c40160006040518083038186803b15801561261857600080fd5b505af415801561262c573d6000803e3d6000fd5b505060d55461264d925061010090046001600160a01b0316905033856122d9565b505095945050505050565b61267c60405180606001604052806000815260200160008152602001600081525090565b60d55460ff16156126a0576040516313d0ff5960e31b815260040160405180910390fd5b6127108361ffff1611156126c7576040516348d69f3560e01b815260040160405180910390fd5b600085815260d460205260408120906126df86612227565b600089815260d4602052604081209192509073__$86182d6e9eac51236f2aa8dd2a3ddeab6c$__9063487e8af1908590898661271a8b612fcc565b60646040518763ffffffff1660e01b815260040161276d96959493929190958652602086019490945261ffff9290921660408501526001600160a01b03166060840152608083015260a082015260c00190565b608060405180830381865af415801561278a573d6000803e3d6000fd5b505050506040513d601f19601f820116820180604052508101906127ae9190614ad0565b945090506127bb816130e5565b50505095945050505050565b336123ea8180613176565b60006127f86127ea6001600160a01b0385168461327e565b6001600160a01b0316613311565b9392505050565b60006127f86127ea6001600160a01b0385168461338d565b600061282d6001600160a01b03851660646133cc565b90506000836001600160a01b0316826001600160a01b031611612859576128548285614b49565b612863565b6128638483614b49565b90506127106128768561ffff8616614b71565b6128809190614bb6565b6001600160a01b0316816001600160a01b031611156128b2576040516307a1db0760e01b815260040160405180910390fd5b5050505050565b60006128c4836122be565b6128ef6128da6001600160a01b038816856127ff565b600160801b6128e8886122be565b91906133f2565b6112469190614a8f565b6000805b60088160ff16101561295a57828160ff166008811061291e5761291e6148e2565b60088104919091015460079091166004026101000a900463ffffffff166129485760ff1692915050565b8061295281614bdc565b9150506128fd565b50600892915050565b6060600061297083613434565b90508067ffffffffffffffff81111561298b5761298b613fd8565b604051908082528060200260200182016040528015612a1b57816020015b612a086040805161012081019091528060008152602001600060020b8152602001600060020b815260200160006001600160801b0316815260200160008152602001600081526020016000815260200160008152602001600081525090565b8152602001906001900390816129a95790505b50915060005b81811015612ee057600184016000858360058110612a4157612a416148e2565b600580820492909201549190066006026101000a900465ffffffffffff168152602081019190915260400160002054835160ff90911690849083908110612a8a57612a8a6148e2565b6020026020010151600001906002811115612aa757612aa7613d50565b90816002811115612aba57612aba613d50565b905250600184016000858360058110612ad557612ad56148e2565b600591828204019190066006029054906101000a900465ffffffffffff1665ffffffffffff1665ffffffffffff16815260200190815260200160002060000160019054906101000a900460020b838281518110612b3457612b346148e2565b60209081029190910181015160029290920b910152600184016000858360058110612b6157612b616148e2565b600591828204019190066006029054906101000a900465ffffffffffff1665ffffffffffff1665ffffffffffff16815260200190815260200160002060000160049054906101000a900460020b838281518110612bc057612bc06148e2565b602090810291909101015160029190910b604090910152600184016000858360058110612bef57612bef6148e2565b600591828204019190066006029054906101000a900465ffffffffffff1665ffffffffffff1665ffffffffffff16815260200190815260200160002060000160079054906101000a90046001600160801b0316838281518110612c5457612c546148e2565b60209081029190910101516001600160801b03909116606090910152600184016000858360058110612c8857612c886148e2565b600591828204019190066006029054906101000a900465ffffffffffff1665ffffffffffff1665ffffffffffff16815260200190815260200160002060010154838281518110612cda57612cda6148e2565b602090810291909101015160800152600184016000858360058110612d0157612d016148e2565b600591828204019190066006029054906101000a900465ffffffffffff1665ffffffffffff1665ffffffffffff16815260200190815260200160002060020154838281518110612d5357612d536148e2565b602090810291909101015160a00152600184016000858360058110612d7a57612d7a6148e2565b600591828204019190066006029054906101000a900465ffffffffffff1665ffffffffffff1665ffffffffffff16815260200190815260200160002060030154838281518110612dcc57612dcc6148e2565b602090810291909101015160c00152600184016000858360058110612df357612df36148e2565b600591828204019190066006029054906101000a900465ffffffffffff1665ffffffffffff1665ffffffffffff16815260200190815260200160002060040154838281518110612e4557612e456148e2565b602090810291909101015160e00152600184016000858360058110612e6c57612e6c6148e2565b600591828204019190066006029054906101000a900465ffffffffffff1665ffffffffffff1665ffffffffffff16815260200190815260200160002060050154838281518110612ebe57612ebe6148e2565b6020908102919091010151610100015280612ed881614911565b915050612a21565b5050919050565b90546001600160a01b0391821691161490565b6000612f4f826040518060400160405280602081526020017f5361666545524332303a206c6f772d6c6576656c2063616c6c206661696c6564815250856001600160a01b03166134ab9092919063ffffffff16565b8051909150156119e25780806020019051810190612f6d9190614bfc565b6119e25760405162461bcd60e51b815260206004820152602a60248201527f5361666545524332303a204552433230206f7065726174696f6e20646964206e6044820152691bdd081cdd58d8d9595960b21b6064820152608401610a9a565b60003a61013d548111156130025761013d54604051638dfe587d60e01b8152610a9a918391600401918252602082015260400190565b821580613018575060d8546001600160a01b0316155b1561302657600091506130df565b60003332141561303b576130386134ba565b90505b60006130473a86614c19565b60d854604051630e56d76760e31b815261012c60048201529192506000916130bd916001600160a01b0316906372b6bb3890602401602060405180830381865afa158015613099573d6000803e3d6000fd5b505050506040513d601f19601f820116820180604052508101906127ea9190614c38565b90506130d981600160801b6130d285876147f7565b91906134f8565b94505050505b50919050565b60008113156131105760d75460d5546123ea916001600160a01b0361010090920482169116836122d9565b60d7546001600160a01b031663379607f561312a83614a2a565b6040518263ffffffff1660e01b815260040161314891815260200190565b600060405180830381600087803b15801561316257600080fd5b505af11580156128b2573d6000803e3d6000fd5b600054610100900460ff168061318f575060005460ff16155b6131ab5760405162461bcd60e51b8152600401610a9a90614894565b600054610100900460ff161580156131cd576000805461ffff19166101011790555b6000805462010000600160b01b031916620100006001600160a01b0386169081029190911782556040519091907f5f56bee8cffbe9a78652a74a60705edede02af10b0bbb888ca44b79a0d42ce80908290a3600180546001600160a01b0319166001600160a01b0384169081179091556040516000907f39355f2f5c8206286978f443aa8126bbd29fa09c53c04569502647f3a59c8cb2908290a380156119e2576000805461ff0019169055505050565b6001600160a01b03828116600090815260208390526040808220600201549051630e56d76760e31b8152640100000000820463ffffffff1660048201529192600160481b90910416906372b6bb3890602401602060405180830381865afa1580156132ed573d6000803e3d6000fd5b505050506040513d601f19601f820116820180604052508101906127f89190614c38565b60006401000276a36001600160a01b038316108061334c575073fffd8963efd1fc6a506488495d951d5263988d266001600160a01b03831610155b1561337557604051635d236c4560e01b81526001600160a01b0383166004820152602401610a9a565b6110276001600160a01b03831680600160401b6134f8565b6001600160a01b0380831660009081526020839052604081206002810154905491926127f892169063ffffffff6401000000009091048116906135a616565b6001600160a01b0380831660009081526020839052604081205490916127f891166135c7565b6000613418600085126134055784613411565b61341185600019614c55565b84846134f8565b905060008412156127f85761342c81614a2a565b949350505050565b6000805b60058160ff1610156134a257828160ff1660058110613459576134596148e2565b600591828204019190066006029054906101000a900465ffffffffffff1665ffffffffffff16600014156134905760ff1692915050565b8061349a81614bdc565b915050613438565b50600592915050565b606061342c8484600085613651565b60408051600481526024810182526020810180516001600160e01b031663637bef0760e11b1790529051600091829182916064916123479190614a73565b600080806000198587098587029250828110838203039150508060001415613532576000841161352757600080fd5b5082900490506127f8565b80841161353e57600080fd5b600084868809851960019081018716968790046003810260029081188083028203028083028203028083028203028083028203028083028203029182029003026000889003889004909101858311909403939093029303949094049190911702949350505050565b6000806135bc6001600160a01b03851684613779565b905061101081613995565b600080826001600160a01b0316633850c7bd6040518163ffffffff1660e01b815260040160e060405180830381865afa158015613608573d6000803e3d6000fd5b505050506040513d601f19601f8201168201806040525081019061362c9190614cda565b509496509294505050506001600160a01b038316151590506130df576127f881613995565b6060824710156136b25760405162461bcd60e51b815260206004820152602660248201527f416464726573733a20696e73756666696369656e742062616c616e636520666f6044820152651c8818d85b1b60d21b6064820152608401610a9a565b843b6137005760405162461bcd60e51b815260206004820152601d60248201527f416464726573733a2063616c6c20746f206e6f6e2d636f6e74726163740000006044820152606401610a9a565b600080866001600160a01b0316858760405161371c9190614a73565b60006040518083038185875af1925050503d8060008114613759576040519150601f19603f3d011682016040523d82523d6000602084013e61375e565b606091505b509150915061376e828286613cc8565b979650505050505050565b600063ffffffff82166137a2576040516351a4d88160e01b815260006004820152602401610a9a565b60408051600280825260608201835260009260208301908036833701905050905082816000815181106137d7576137d76148e2565b602002602001019063ffffffff16908163ffffffff1681525050600081600181518110613806576138066148e2565b63ffffffff9092166020928302919091019091015260405163883bdbfd60e01b81526001600160a01b0385169063883bdbfd90613847908490600401614d7c565b600060405180830381865afa92505050801561388557506040513d6000823e601f3d908101601f191682016040526138829190810190614e29565b60015b6138fa57836001600160a01b0316633850c7bd6040518163ffffffff1660e01b815260040160e060405180830381865afa1580156138c7573d6000803e3d6000fd5b505050506040513d601f19601f820116820180604052508101906138eb9190614cda565b50939650611013945050505050565b60008260008151811061390f5761390f6148e2565b60200260200101518360018151811061392a5761392a6148e2565b602002602001015161393c9190614ef5565b9050600061395063ffffffff881683614f45565b905060008260060b128015613976575061397063ffffffff881683614f83565b60060b15155b15613989578061398581614fa5565b9150505b94506110279350505050565b60008060008360020b126139ac578260020b6139b4565b8260020b6000035b9050620d89e88111156139ed5760405162461bcd60e51b81526020600482015260016024820152601560fa1b6044820152606401610a9a565b600060018216613a0157600160801b613a13565b6ffffcb933bd6fad37aa2d162d1a5940015b70ffffffffffffffffffffffffffffffffff1690506002821615613a47576ffff97272373d413259a46990580e213a0260801c5b6004821615613a66576ffff2e50f5f656932ef12357cf3c7fdcc0260801c5b6008821615613a85576fffe5caca7e10e4e61c3624eaa0941cd00260801c5b6010821615613aa4576fffcb9843d60f6159c9db58835c9266440260801c5b6020821615613ac3576fff973b41fa98c081472e6896dfb254c00260801c5b6040821615613ae2576fff2ea16466c96a3843ec78b326b528610260801c5b6080821615613b01576ffe5dee046a99a2a811c461f1969c30530260801c5b610100821615613b21576ffcbe86c7900a88aedcffc83b479aa3a40260801c5b610200821615613b41576ff987a7253ac413176f2b074cf7815e540260801c5b610400821615613b61576ff3392b0822b70005940c7a398e4b70f30260801c5b610800821615613b81576fe7159475a2c29b7443b29c7fa6e889d90260801c5b611000821615613ba1576fd097f3bdfd2022b8845ad8f792aa58250260801c5b612000821615613bc1576fa9f746462d870fdf8a65dc1f90e061e50260801c5b614000821615613be1576f70d869a156d2a1b890bb3df62baf32f70260801c5b618000821615613c01576f31be135f97d08fd981231505542fcfa60260801c5b62010000821615613c22576f09aa508b5b7a84e1c677de54f3e99bc90260801c5b62020000821615613c42576e5d6af8dedb81196699c329225ee6040260801c5b62040000821615613c61576d2216e584f5fa1ea926041bedfe980260801c5b62080000821615613c7e576b048a170391f7dc42444e8fa20260801c5b60008460020b1315613c9f578060001981613c9b57613c9b614ba0565b0490505b640100000000810615613cb3576001613cb6565b60005b60ff16602082901c0192505050919050565b60608315613cd75750816127f8565b825115613ce75782518084602001fd5b8160405162461bcd60e51b8152600401610a9a9190614fc9565b80151581146123ea57600080fd5b80356121b781613d01565b600060208284031215613d2c57600080fd5b81356127f881613d01565b600060208284031215613d4957600080fd5b5035919050565b634e487b7160e01b600052602160045260246000fd5b60038110613d8457634e487b7160e01b600052602160045260246000fd5b9052565b6001600160a01b0384811682526060602080840182905285518483018190526000938783019290916080870190865b81811015613de05785518051861684528401518484015294830194604090920191600101613db7565b5050868103604088015287518082528282019450600581901b82018301838a0160005b83811015613f0157848303601f190188528151805188168452868101518785015260408082015190850152898101518a85015260809081015160a0918501829052805191850182905287019060009060c08601905b80831015613eec578351613e6d838251613d66565b8a8101518060020b8c85015250604081015160020b60408401528d810151613e9f8f8501826001600160801b03169052565b506080810151608084015260a081015160a084015260c081015160c084015260e081015160e084015261010080820151818501525050610120820191508984019350600183019250613e58565b50998801999450505090850190600101613e03565b50909c9b505050505050505050505050565b6001600160a01b03811681146123ea57600080fd5b600060208284031215613f3a57600080fd5b81356127f881613f13565b600060e082840312156130df57600080fd5b6000806101008385031215613f6b57600080fd5b8235613f7681613f13565b9150613f858460208501613f45565b90509250929050565b63ffffffff811681146123ea57600080fd5b600080600060608486031215613fb557600080fd5b833592506020840135613fc781613f8e565b929592945050506040919091013590565b634e487b7160e01b600052604160045260246000fd5b604051601f8201601f1916810167ffffffffffffffff8111828210171561401757614017613fd8565b604052919050565b80356121b781613f13565b600080600083850360c081121561404057600080fd5b84359350602085013561405281613f8e565b92506080603f198201121561406657600080fd5b506040516080810181811067ffffffffffffffff8211171561408a5761408a613fd8565b6040908152850135815260608501356140a281613f13565b602082015260808501356140b581613d01565b604082015260a08501356140c881613d01565b606082015292959194509192509050565b600080604083850312156140ec57600080fd5b82356140f781613f13565b9150602083013561410781613d01565b809150509250929050565b6000806040838503121561412557600080fd5b50508035926020909101359150565b60006020828403121561414657600080fd5b81356127f881613f8e565b60008060008084860360c081121561416857600080fd5b606081121561417657600080fd5b509395606087013595506080870135945060a08701359350915050565b8060020b81146123ea57600080fd5b600080600080608085870312156141b857600080fd5b8435935060208501356141ca81613f8e565b925060408501356141da81614193565b915060608501356141ea81614193565b939692955090935050565b61ffff811681146123ea57600080fd5b80356121b7816141f5565b6000806000806080858703121561422657600080fd5b8435935060208501359250604085013561423f81613f8e565b915060608501356141ea816141f5565b600080600080600060a0868803121561426757600080fd5b8535945060208601359350604086013561428081613f8e565b92506060860135614290816141f5565b949793965091946080013592915050565b600080600080600060a086880312156142b957600080fd5b85356142c481613f13565b945060208601356142d481613f13565b935060408601356142e481613f13565b925060608601356142f481613f13565b9150608086013561430481613f13565b809150509295509295909350565b60008082840360c081121561432657600080fd5b833561433181613f13565b925060a0601f198201121561434557600080fd5b506020830190509250929050565b600067ffffffffffffffff82111561436d5761436d613fd8565b5060051b60200190565b6000602080838503121561438a57600080fd5b823567ffffffffffffffff8111156143a157600080fd5b8301601f810185136143b257600080fd5b80356143c56143c082614353565b613fee565b81815260059190911b820183019083810190878311156143e457600080fd5b928401925b8284101561376e578335825292840192908401906143e9565b6020808252825182820181905260009190848201906040850190845b8181101561443a5783518352928401929184019160010161441e565b50909695505050505050565b6000806020838503121561445957600080fd5b823567ffffffffffffffff8082111561447157600080fd5b818501915085601f83011261448557600080fd5b81358181111561449457600080fd5b8660208260051b85010111156144a957600080fd5b60209290920196919550909350505050565b600080600061012084860312156144d157600080fd5b8335925060208401356144e381613f8e565b91506144f28560408601613f45565b90509250925092565b60008060006060848603121561451057600080fd5b833561451b81613f13565b9250602084013561452b81613f13565b9150604084013561453b81613f8e565b809150509250925092565b600080600080600060a0868803121561455e57600080fd5b85359450602086013561457081613f8e565b9350604086013561458081614193565b9250606086013561429081614193565b634e487b7160e01b600052600160045260246000fd5b80546001600160a01b0319166001600160a01b0392909216919091179055565b6000813561102781613f13565b80547fffffff0000000000000000000000000000000000000000ffffffffffffffffff1660489290921b6901000000000000000000600160e81b0316919091179055565b8135614622816141f5565b815461ffff191661ffff8216178255506020820135614640816141f5565b815463ffff00001916601082901b63ffff00001617825550604082013561466681613f8e565b815467ffffffff000000008260201b1691508167ffffffff00000000198216178355606084013561469681613d01565b68ffffffffff00000000199190911690911790151560401b60ff60401b1617815560808201356146c581613f13565b6119e281836145d3565b81356146da81613f13565b6146e481836145a6565b5060208201356146f381613f13565b61470081600184016145a6565b50600281016040830135614713816141f5565b815461ffff191661ffff8216178255506060830135614731816141f5565b815463ffff00001916601082901b63ffff00001617825550608083013561475781613f8e565b815467ffffffff000000008260201b1691508167ffffffff0000000019821617835560a085013561478781613d01565b68ffffffffff00000000199190911690911790151560401b60ff60401b161781556119e26147b760c085016145c6565b826145d3565b600080604083850312156147d057600080fd5b505080516020909101519092909150565b634e487b7160e01b600052601160045260246000fd5b6000821982111561480a5761480a6147e1565b500190565b600082821015614821576148216147e1565b500390565b8135614831816141f5565b815461ffff191661ffff821617825550602082013561484f816141f5565b815463ffff00001916601082901b63ffff000016178255506040820135614875816141f5565b815465ffff00000000191660209190911b65ffff000000001617905550565b6020808252602e908201527f496e697469616c697a61626c653a20636f6e747261637420697320616c72656160408201526d191e481a5b9a5d1a585b1a5e995960921b606082015260800190565b634e487b7160e01b600052603260045260246000fd5b60006020828403121561490a57600080fd5b5051919050565b6000600019821415614925576149256147e1565b5060010190565b60006020828403121561493e57600080fd5b81356127f8816141f5565b8035600381106121b757600080fd5b8481526001600160a01b03841660208201526101408101833561497a81614193565b60020b6040830152602084013561499081614193565b60020b60608301526040840135600f81900b81146149ad57600080fd5b6149bc6080840182600f0b9052565b506149c96060850161401f565b6001600160a01b031660a08301526149e360808501614205565b61ffff1660c08301526149f860a08501613d0f565b151560e0830152614a0b60c08501614949565b614a19610100840182613d66565b508261012083015295945050505050565b6000600160ff1b821415614a4057614a406147e1565b5060000390565b60005b83811015614a62578181015183820152602001614a4a565b8381111561165e5750506000910152565b60008251614a85818460208701614a47565b9190910192915050565b600080821280156001600160ff1b0384900385131615614ab157614ab16147e1565b600160ff1b8390038412811615614aca57614aca6147e1565b50500190565b6000808284036080811215614ae457600080fd5b835192506060601f1982011215614afa57600080fd5b506040516060810181811067ffffffffffffffff82111715614b1e57614b1e613fd8565b8060405250602084015181526040840151602082015260608401516040820152809150509250929050565b60006001600160a01b0383811690831681811015614b6957614b696147e1565b039392505050565b60006001600160a01b0382811684821681151582840482111615614b9757614b976147e1565b02949350505050565b634e487b7160e01b600052601260045260246000fd5b60006001600160a01b0383811680614bd057614bd0614ba0565b92169190910492915050565b600060ff821660ff811415614bf357614bf36147e1565b60010192915050565b600060208284031215614c0e57600080fd5b81516127f881613d01565b6000816000190483118215151615614c3357614c336147e1565b500290565b600060208284031215614c4a57600080fd5b81516127f881613f13565b60006001600160ff1b0381841382841380821686840486111615614c7b57614c7b6147e1565b600160ff1b6000871282811687830589121615614c9a57614c9a6147e1565b60008712925087820587128484161615614cb657614cb66147e1565b87850587128184161615614ccc57614ccc6147e1565b505050929093029392505050565b600080600080600080600060e0888a031215614cf557600080fd5b8751614d0081613f13565b6020890151909750614d1181614193565b6040890151909650614d22816141f5565b6060890151909550614d33816141f5565b6080890151909450614d44816141f5565b60a089015190935060ff81168114614d5b57600080fd5b60c0890151909250614d6c81613d01565b8091505092959891949750929550565b6020808252825182820181905260009190848201906040850190845b8181101561443a57835163ffffffff1683529284019291840191600101614d98565b600082601f830112614dcb57600080fd5b81516020614ddb6143c083614353565b82815260059290921b84018101918181019086841115614dfa57600080fd5b8286015b84811015614e1e578051614e1181613f13565b8352918301918301614dfe565b509695505050505050565b60008060408385031215614e3c57600080fd5b825167ffffffffffffffff80821115614e5457600080fd5b818501915085601f830112614e6857600080fd5b81516020614e786143c083614353565b82815260059290921b84018101918181019089841115614e9757600080fd5b948201945b83861015614ec55785518060060b8114614eb65760008081fd5b82529482019490820190614e9c565b91880151919650909350505080821115614ede57600080fd5b50614eeb85828601614dba565b9150509250929050565b60008160060b8360060b6000811281667fffffffffffff1901831281151615614f2057614f206147e1565b81667fffffffffffff018313811615614f3b57614f3b6147e1565b5090039392505050565b60008160060b8360060b80614f5c57614f5c614ba0565b667fffffffffffff19821460001982141615614f7a57614f7a6147e1565b90059392505050565b60008260060b80614f9657614f96614ba0565b808360060b0791505092915050565b60008160020b627fffff19811415614fbf57614fbf6147e1565b6000190192915050565b6020815260008251806020840152614fe8816040850160208701614a47565b601f01601f1916919091016040019291505056fea164736f6c634300080a000a",
  "libraries": {
    "Account": "0x0D0DF62aA9f3D950e6B8a2aECb70E3Fff03E217A"
  },
  "devdoc": {
    "errors": {
      "AccessDenied(address)": [
        {
          "params": {
            "senderAddress": "address of msg sender"
          }
        }
      ],
      "LowNotionalValue(uint256)": [
        {
          "params": {
            "notionalValue": "notional value of txn"
          }
        }
      ],
      "UninitializedToken(uint32)": [
        {
          "params": {
            "vTokenTruncatedAddress": "unitialized truncated address supplied"
          }
        }
      ],
      "UnsupportedRToken(address)": [
        {
          "params": {
            "rTokenAddress": "address of token"
          }
        }
      ],
      "UnsupportedVToken(address)": [
        {
          "params": {
            "vToken": "address of token"
          }
        }
      ]
    },
    "kind": "dev",
    "methods": {
      "addMargin(uint256,uint32,uint256)": {
        "params": {
          "accountNo": "account number",
          "amount": "amount of token to deposit",
          "vTokenTruncatedAddress": "truncated address of token to deposit"
        }
      },
      "createAccount()": {
        "returns": {
          "newAccountId": "- serial number of the new account created"
        }
      },
      "governance()": {
        "details": "Returns the address of the current governance."
      },
      "liquidateLiquidityPositions(uint256)": {
        "details": "removes all the active range positions and gives liquidator a percent of notional amount closed + fixedFee",
        "params": {
          "accountNo": "account number"
        }
      },
      "liquidateTokenPosition(uint256,uint256,uint32,uint16)": {
        "returns": {
          "liquidatorBalanceAdjustments": "- balance changes in liquidator base and token balance and net token position"
        }
      },
      "removeLimitOrder(uint256,uint32,int24,int24)": {
        "details": "checks the position of current price relative to limit order and checks limitOrderType",
        "params": {
          "accountNo": "account number",
          "tickLower": "liquidity change parameters",
          "tickUpper": "liquidity change parameters",
          "vTokenTruncatedAddress": "truncated address of token to withdraw"
        }
      },
      "removeMargin(uint256,uint32,uint256)": {
        "params": {
          "accountNo": "account number",
          "amount": "amount of token to withdraw",
          "vTokenTruncatedAddress": "truncated address of token to withdraw"
        }
      },
      "removeProfit(uint256,uint256)": {
        "params": {
          "accountNo": "account number",
          "amount": "amount of token to withdraw"
        }
      },
      "swapToken(uint256,uint32,(int256,uint160,bool,bool))": {
        "params": {
          "accountNo": "account number",
          "swapParams": "swap parameters",
          "vTokenTruncatedAddress": "truncated address of token to withdraw"
        }
      },
      "teamMultisig()": {
        "details": "Returns the address of the current team multisig.transferTeamMultisig"
      },
      "transferGovernance(address)": {
        "details": "Transfers governance to a new account (`newGovernance`). Can only be called by the current governance."
      },
      "transferTeamMultisig(address)": {
        "details": "Transfers teamMultisig to a new account (`newTeamMultisig`). Can only be called by the current teamMultisig or current governance."
      },
      "updateRangeOrder(uint256,uint32,(int24,int24,int128,uint160,uint16,bool,uint8))": {
        "params": {
          "accountNo": "account number",
          "liquidityChangeParams": "liquidity change parameters",
          "vTokenTruncatedAddress": "truncated address of token to withdraw"
        }
      },
      "withdrawProtocolFee(address[])": {
        "params": {
          "wrapperAddresses": "list of wrapper addresses to collect fees from"
        }
      }
    },
    "version": 1
  },
  "userdoc": {
    "errors": {
      "AccessDenied(address)": [
        {
          "notice": "error to denote invalid account access"
        }
      ],
      "InvalidTokenLiquidationParameters()": [
        {
          "notice": "error to denote invalid token liquidation (fraction to liquidate> 1)"
        }
      ],
      "LowNotionalValue(uint256)": [
        {
          "notice": "error to denote low notional value of txn"
        }
      ],
      "SlippageBeyondTolerance()": [
        {
          "notice": "error to denote slippage of txn beyond set threshold"
        }
      ],
      "UninitializedToken(uint32)": [
        {
          "notice": "error to denote usage of unitialized token"
        }
      ],
      "UnsupportedRToken(address)": [
        {
          "notice": "error to denote usage of unsupported token"
        }
      ],
      "UnsupportedVToken(address)": [
        {
          "notice": "error to denote usage of unsupported token"
        }
      ]
    },
    "kind": "user",
    "methods": {
      "__ClearingHouse_init(address,address,address,address,address)": {
        "notice": "PLATFORM FUNCTIONS"
      },
      "addCollateralSupport(address,address,uint32)": {
        "notice": "ADMIN FUNCTIONS"
      },
      "addMargin(uint256,uint32,uint256)": {
        "notice": "deposits 'amount' of token associated with 'vTokenTruncatedAddress'"
      },
      "createAccount()": {
        "notice": "creates a new account and adds it to the accounts map"
      },
      "getAccountView(uint256)": {
        "notice": "Account.UserInfo VIEW"
      },
      "liquidateLiquidityPositions(uint256)": {
        "notice": "keeper call for liquidation of range position"
      },
      "protocolInfo()": {
        "notice": "Account.ProtocolInfo VIEW"
      },
      "removeLimitOrder(uint256,uint32,int24,int24)": {
        "notice": "keeper call to remove a limit order"
      },
      "removeLimitOrderWithGasClaim(uint256,uint32,int24,int24,uint256)": {
        "notice": "ALTERNATE LIQUIDATION METHODS FOR FIX FEE CLAIM"
      },
      "removeMargin(uint256,uint32,uint256)": {
        "notice": "withdraws 'amount' of token associated with 'vTokenTruncatedAddress'"
      },
      "removeProfit(uint256,uint256)": {
        "notice": "withdraws 'amount' of base token from the profit made"
      },
      "swapToken(uint256,uint32,(int256,uint160,bool,bool))": {
        "notice": "swaps token associated with 'vTokenTruncatedAddress' by 'amount' (Long if amount>0 else Short)"
      },
      "updateRangeOrder(uint256,uint32,(int24,int24,int128,uint160,uint16,bool,uint8))": {
        "notice": "updates range order of token associated with 'vTokenTruncatedAddress' by 'liquidityDelta' (Adds if amount>0 else Removes)also can be used to update limitOrderType"
      },
      "withdrawProtocolFee(address[])": {
        "notice": "withdraws protocol fees collected in the supplied wrappers to team multisig"
      }
    },
    "version": 1
  },
  "storageLayout": {
    "storage": [
      {
        "astId": 252,
        "contract": "contracts/protocol/clearinghouse/ClearingHouseArbitrum.sol:ClearingHouseArbitrum",
        "label": "_initialized",
        "offset": 0,
        "slot": "0",
        "type": "t_bool"
      },
      {
        "astId": 255,
        "contract": "contracts/protocol/clearinghouse/ClearingHouseArbitrum.sol:ClearingHouseArbitrum",
        "label": "_initializing",
        "offset": 1,
        "slot": "0",
        "type": "t_bool"
      },
      {
        "astId": 26599,
        "contract": "contracts/protocol/clearinghouse/ClearingHouseArbitrum.sol:ClearingHouseArbitrum",
        "label": "_governance",
        "offset": 2,
        "slot": "0",
        "type": "t_address"
      },
      {
        "astId": 26601,
        "contract": "contracts/protocol/clearinghouse/ClearingHouseArbitrum.sol:ClearingHouseArbitrum",
        "label": "_teamMultisig",
        "offset": 0,
        "slot": "1",
        "type": "t_address"
      },
      {
        "astId": 19197,
        "contract": "contracts/protocol/clearinghouse/ClearingHouseArbitrum.sol:ClearingHouseArbitrum",
        "label": "_emptySlots1",
        "offset": 0,
        "slot": "2",
        "type": "t_array(t_uint256)98_storage"
      },
      {
        "astId": 19200,
        "contract": "contracts/protocol/clearinghouse/ClearingHouseArbitrum.sol:ClearingHouseArbitrum",
        "label": "protocol",
        "offset": 0,
        "slot": "100",
        "type": "t_struct(ProtocolInfo)8237_storage"
      },
      {
        "astId": 19204,
        "contract": "contracts/protocol/clearinghouse/ClearingHouseArbitrum.sol:ClearingHouseArbitrum",
        "label": "realTokenInitilized",
        "offset": 0,
        "slot": "208",
        "type": "t_mapping(t_address,t_bool)"
      },
      {
        "astId": 19209,
        "contract": "contracts/protocol/clearinghouse/ClearingHouseArbitrum.sol:ClearingHouseArbitrum",
        "label": "supportedVTokens",
        "offset": 0,
        "slot": "209",
        "type": "t_mapping(t_contract(IVToken)8121,t_bool)"
      },
      {
        "astId": 19213,
        "contract": "contracts/protocol/clearinghouse/ClearingHouseArbitrum.sol:ClearingHouseArbitrum",
        "label": "supportedDeposits",
        "offset": 0,
        "slot": "210",
        "type": "t_mapping(t_address,t_bool)"
      },
      {
        "astId": 19215,
        "contract": "contracts/protocol/clearinghouse/ClearingHouseArbitrum.sol:ClearingHouseArbitrum",
        "label": "numAccounts",
        "offset": 0,
        "slot": "211",
        "type": "t_uint256"
      },
      {
        "astId": 19220,
        "contract": "contracts/protocol/clearinghouse/ClearingHouseArbitrum.sol:ClearingHouseArbitrum",
        "label": "accounts",
        "offset": 0,
        "slot": "212",
        "type": "t_mapping(t_uint256,t_struct(UserInfo)8204_storage)"
      },
      {
        "astId": 19222,
        "contract": "contracts/protocol/clearinghouse/ClearingHouseArbitrum.sol:ClearingHouseArbitrum",
        "label": "paused",
        "offset": 0,
        "slot": "213",
        "type": "t_bool"
      },
      {
        "astId": 19225,
        "contract": "contracts/protocol/clearinghouse/ClearingHouseArbitrum.sol:ClearingHouseArbitrum",
        "label": "rBase",
        "offset": 1,
        "slot": "213",
        "type": "t_contract(IERC20)3180"
      },
      {
        "astId": 19227,
        "contract": "contracts/protocol/clearinghouse/ClearingHouseArbitrum.sol:ClearingHouseArbitrum",
        "label": "rageTradeFactoryAddress",
        "offset": 0,
        "slot": "214",
        "type": "t_address"
      },
      {
        "astId": 19230,
        "contract": "contracts/protocol/clearinghouse/ClearingHouseArbitrum.sol:ClearingHouseArbitrum",
        "label": "insuranceFund",
        "offset": 0,
        "slot": "215",
        "type": "t_contract(IInsuranceFund)7933"
      },
      {
        "astId": 19233,
        "contract": "contracts/protocol/clearinghouse/ClearingHouseArbitrum.sol:ClearingHouseArbitrum",
        "label": "nativeOracle",
        "offset": 0,
        "slot": "216",
        "type": "t_contract(IOracle)7943"
      },
      {
        "astId": 19237,
        "contract": "contracts/protocol/clearinghouse/ClearingHouseArbitrum.sol:ClearingHouseArbitrum",
        "label": "_emptySlots2",
        "offset": 0,
        "slot": "217",
        "type": "t_array(t_uint256)100_storage"
      },
      {
        "astId": 26864,
        "contract": "contracts/protocol/clearinghouse/ClearingHouseArbitrum.sol:ClearingHouseArbitrum",
        "label": "txGasPriceLimit",
        "offset": 0,
        "slot": "317",
        "type": "t_uint256"
      }
    ],
    "types": {
      "t_address": {
        "encoding": "inplace",
        "label": "address",
        "numberOfBytes": "20"
      },
      "t_array(t_uint256)100_storage": {
        "base": "t_uint256",
        "encoding": "inplace",
        "label": "uint256[100]",
        "numberOfBytes": "3200"
      },
      "t_array(t_uint256)98_storage": {
        "base": "t_uint256",
        "encoding": "inplace",
        "label": "uint256[98]",
        "numberOfBytes": "3136"
      },
      "t_array(t_uint32)8_storage": {
        "base": "t_uint32",
        "encoding": "inplace",
        "label": "uint32[8]",
        "numberOfBytes": "32"
      },
      "t_array(t_uint48)5_storage": {
        "base": "t_uint48",
        "encoding": "inplace",
        "label": "uint48[5]",
        "numberOfBytes": "32"
      },
      "t_bool": {
        "encoding": "inplace",
        "label": "bool",
        "numberOfBytes": "1"
      },
      "t_contract(IERC20)3180": {
        "encoding": "inplace",
        "label": "contract IERC20",
        "numberOfBytes": "20"
      },
      "t_contract(IInsuranceFund)7933": {
        "encoding": "inplace",
        "label": "contract IInsuranceFund",
        "numberOfBytes": "20"
      },
      "t_contract(IOracle)7943": {
        "encoding": "inplace",
        "label": "contract IOracle",
        "numberOfBytes": "20"
      },
      "t_contract(IUniswapV3Pool)5097": {
        "encoding": "inplace",
        "label": "contract IUniswapV3Pool",
        "numberOfBytes": "20"
      },
      "t_contract(IVBase)7967": {
        "encoding": "inplace",
        "label": "contract IVBase",
        "numberOfBytes": "20"
      },
      "t_contract(IVPoolWrapper)8097": {
        "encoding": "inplace",
        "label": "contract IVPoolWrapper",
        "numberOfBytes": "20"
      },
      "t_contract(IVToken)8121": {
        "encoding": "inplace",
        "label": "contract IVToken",
        "numberOfBytes": "20"
      },
      "t_enum(LimitOrderType)7620": {
        "encoding": "inplace",
        "label": "enum IClearingHouse.LimitOrderType",
        "numberOfBytes": "1"
      },
      "t_int24": {
        "encoding": "inplace",
        "label": "int24",
        "numberOfBytes": "3"
      },
      "t_int256": {
        "encoding": "inplace",
        "label": "int256",
        "numberOfBytes": "32"
      },
      "t_mapping(t_address,t_bool)": {
        "encoding": "mapping",
        "key": "t_address",
        "label": "mapping(address => bool)",
        "numberOfBytes": "32",
        "value": "t_bool"
      },
      "t_mapping(t_contract(IVToken)8121,t_bool)": {
        "encoding": "mapping",
        "key": "t_contract(IVToken)8121",
        "label": "mapping(contract IVToken => bool)",
        "numberOfBytes": "32",
        "value": "t_bool"
      },
      "t_mapping(t_contract(IVToken)8121,t_struct(RageTradePool)7604_storage)": {
        "encoding": "mapping",
        "key": "t_contract(IVToken)8121",
        "label": "mapping(contract IVToken => struct IClearingHouse.RageTradePool)",
        "numberOfBytes": "32",
        "value": "t_struct(RageTradePool)7604_storage"
      },
      "t_mapping(t_uint256,t_struct(UserInfo)8204_storage)": {
        "encoding": "mapping",
        "key": "t_uint256",
        "label": "mapping(uint256 => struct Account.UserInfo)",
        "numberOfBytes": "32",
        "value": "t_struct(UserInfo)8204_storage"
      },
      "t_mapping(t_uint32,t_contract(IVToken)8121)": {
        "encoding": "mapping",
        "key": "t_uint32",
        "label": "mapping(uint32 => contract IVToken)",
        "numberOfBytes": "32",
        "value": "t_contract(IVToken)8121"
      },
      "t_mapping(t_uint32,t_struct(Position)15343_storage)": {
        "encoding": "mapping",
        "key": "t_uint32",
        "label": "mapping(uint32 => struct VTokenPosition.Position)",
        "numberOfBytes": "32",
        "value": "t_struct(Position)15343_storage"
      },
      "t_mapping(t_uint32,t_struct(RToken)11933_storage)": {
        "encoding": "mapping",
        "key": "t_uint32",
        "label": "mapping(uint32 => struct RTokenLib.RToken)",
        "numberOfBytes": "32",
        "value": "t_struct(RToken)11933_storage"
      },
      "t_mapping(t_uint32,t_uint256)": {
        "encoding": "mapping",
        "key": "t_uint32",
        "label": "mapping(uint32 => uint256)",
        "numberOfBytes": "32",
        "value": "t_uint256"
      },
      "t_mapping(t_uint48,t_struct(Info)10300_storage)": {
        "encoding": "mapping",
        "key": "t_uint48",
        "label": "mapping(uint48 => struct LiquidityPosition.Info)",
        "numberOfBytes": "32",
        "value": "t_struct(Info)10300_storage"
      },
      "t_struct(Info)10300_storage": {
        "encoding": "inplace",
        "label": "struct LiquidityPosition.Info",
        "members": [
          {
            "astId": 10279,
            "contract": "contracts/protocol/clearinghouse/ClearingHouseArbitrum.sol:ClearingHouseArbitrum",
            "label": "limitOrderType",
            "offset": 0,
            "slot": "0",
            "type": "t_enum(LimitOrderType)7620"
          },
          {
            "astId": 10281,
            "contract": "contracts/protocol/clearinghouse/ClearingHouseArbitrum.sol:ClearingHouseArbitrum",
            "label": "tickLower",
            "offset": 1,
            "slot": "0",
            "type": "t_int24"
          },
          {
            "astId": 10283,
            "contract": "contracts/protocol/clearinghouse/ClearingHouseArbitrum.sol:ClearingHouseArbitrum",
            "label": "tickUpper",
            "offset": 4,
            "slot": "0",
            "type": "t_int24"
          },
          {
            "astId": 10285,
            "contract": "contracts/protocol/clearinghouse/ClearingHouseArbitrum.sol:ClearingHouseArbitrum",
            "label": "liquidity",
            "offset": 7,
            "slot": "0",
            "type": "t_uint128"
          },
          {
            "astId": 10287,
            "contract": "contracts/protocol/clearinghouse/ClearingHouseArbitrum.sol:ClearingHouseArbitrum",
            "label": "vTokenAmountIn",
            "offset": 0,
            "slot": "1",
            "type": "t_int256"
          },
          {
            "astId": 10289,
            "contract": "contracts/protocol/clearinghouse/ClearingHouseArbitrum.sol:ClearingHouseArbitrum",
            "label": "sumALastX128",
            "offset": 0,
            "slot": "2",
            "type": "t_int256"
          },
          {
            "astId": 10291,
            "contract": "contracts/protocol/clearinghouse/ClearingHouseArbitrum.sol:ClearingHouseArbitrum",
            "label": "sumBInsideLastX128",
            "offset": 0,
            "slot": "3",
            "type": "t_int256"
          },
          {
            "astId": 10293,
            "contract": "contracts/protocol/clearinghouse/ClearingHouseArbitrum.sol:ClearingHouseArbitrum",
            "label": "sumFpInsideLastX128",
            "offset": 0,
            "slot": "4",
            "type": "t_int256"
          },
          {
            "astId": 10295,
            "contract": "contracts/protocol/clearinghouse/ClearingHouseArbitrum.sol:ClearingHouseArbitrum",
            "label": "sumFeeInsideLastX128",
            "offset": 0,
            "slot": "5",
            "type": "t_uint256"
          },
          {
            "astId": 10299,
            "contract": "contracts/protocol/clearinghouse/ClearingHouseArbitrum.sol:ClearingHouseArbitrum",
            "label": "_emptySlots",
            "offset": 0,
            "slot": "6",
            "type": "t_array(t_uint256)100_storage"
          }
        ],
        "numberOfBytes": "3392"
      },
      "t_struct(Info)11012_storage": {
        "encoding": "inplace",
        "label": "struct LiquidityPositionSet.Info",
        "members": [
          {
            "astId": 11002,
            "contract": "contracts/protocol/clearinghouse/ClearingHouseArbitrum.sol:ClearingHouseArbitrum",
            "label": "active",
            "offset": 0,
            "slot": "0",
            "type": "t_array(t_uint48)5_storage"
          },
          {
            "astId": 11007,
            "contract": "contracts/protocol/clearinghouse/ClearingHouseArbitrum.sol:ClearingHouseArbitrum",
            "label": "positions",
            "offset": 0,
            "slot": "1",
            "type": "t_mapping(t_uint48,t_struct(Info)10300_storage)"
          },
          {
            "astId": 11011,
            "contract": "contracts/protocol/clearinghouse/ClearingHouseArbitrum.sol:ClearingHouseArbitrum",
            "label": "_emptySlots",
            "offset": 0,
            "slot": "2",
            "type": "t_array(t_uint256)100_storage"
          }
        ],
        "numberOfBytes": "3264"
      },
      "t_struct(Info)9630_storage": {
        "encoding": "inplace",
        "label": "struct DepositTokenSet.Info",
        "members": [
          {
            "astId": 9621,
            "contract": "contracts/protocol/clearinghouse/ClearingHouseArbitrum.sol:ClearingHouseArbitrum",
            "label": "active",
            "offset": 0,
            "slot": "0",
            "type": "t_array(t_uint32)8_storage"
          },
          {
            "astId": 9625,
            "contract": "contracts/protocol/clearinghouse/ClearingHouseArbitrum.sol:ClearingHouseArbitrum",
            "label": "deposits",
            "offset": 0,
            "slot": "1",
            "type": "t_mapping(t_uint32,t_uint256)"
          },
          {
            "astId": 9629,
            "contract": "contracts/protocol/clearinghouse/ClearingHouseArbitrum.sol:ClearingHouseArbitrum",
            "label": "_emptySlots",
            "offset": 0,
            "slot": "2",
            "type": "t_array(t_uint256)100_storage"
          }
        ],
        "numberOfBytes": "3264"
      },
      "t_struct(LiquidationParams)8244_storage": {
        "encoding": "inplace",
        "label": "struct Account.LiquidationParams",
        "members": [
          {
            "astId": 8239,
            "contract": "contracts/protocol/clearinghouse/ClearingHouseArbitrum.sol:ClearingHouseArbitrum",
            "label": "liquidationFeeFraction",
            "offset": 0,
            "slot": "0",
            "type": "t_uint16"
          },
          {
            "astId": 8241,
            "contract": "contracts/protocol/clearinghouse/ClearingHouseArbitrum.sol:ClearingHouseArbitrum",
            "label": "tokenLiquidationPriceDeltaBps",
            "offset": 2,
            "slot": "0",
            "type": "t_uint16"
          },
          {
            "astId": 8243,
            "contract": "contracts/protocol/clearinghouse/ClearingHouseArbitrum.sol:ClearingHouseArbitrum",
            "label": "insuranceFundFeeShareBps",
            "offset": 4,
            "slot": "0",
            "type": "t_uint16"
          }
        ],
        "numberOfBytes": "32"
      },
      "t_struct(Position)15343_storage": {
        "encoding": "inplace",
        "label": "struct VTokenPosition.Position",
        "members": [
          {
            "astId": 15331,
            "contract": "contracts/protocol/clearinghouse/ClearingHouseArbitrum.sol:ClearingHouseArbitrum",
            "label": "balance",
            "offset": 0,
            "slot": "0",
            "type": "t_int256"
          },
          {
            "astId": 15333,
            "contract": "contracts/protocol/clearinghouse/ClearingHouseArbitrum.sol:ClearingHouseArbitrum",
            "label": "netTraderPosition",
            "offset": 0,
            "slot": "1",
            "type": "t_int256"
          },
          {
            "astId": 15335,
            "contract": "contracts/protocol/clearinghouse/ClearingHouseArbitrum.sol:ClearingHouseArbitrum",
            "label": "sumAX128Ckpt",
            "offset": 0,
            "slot": "2",
            "type": "t_int256"
          },
          {
            "astId": 15338,
            "contract": "contracts/protocol/clearinghouse/ClearingHouseArbitrum.sol:ClearingHouseArbitrum",
            "label": "liquidityPositions",
            "offset": 0,
            "slot": "3",
            "type": "t_struct(Info)11012_storage"
          },
          {
            "astId": 15342,
            "contract": "contracts/protocol/clearinghouse/ClearingHouseArbitrum.sol:ClearingHouseArbitrum",
            "label": "_emptySlots",
            "offset": 0,
            "slot": "105",
            "type": "t_array(t_uint256)100_storage"
          }
        ],
        "numberOfBytes": "6560"
      },
      "t_struct(ProtocolInfo)8237_storage": {
        "encoding": "inplace",
        "label": "struct Account.ProtocolInfo",
        "members": [
          {
            "astId": 8210,
            "contract": "contracts/protocol/clearinghouse/ClearingHouseArbitrum.sol:ClearingHouseArbitrum",
            "label": "pools",
            "offset": 0,
            "slot": "0",
            "type": "t_mapping(t_contract(IVToken)8121,t_struct(RageTradePool)7604_storage)"
          },
          {
            "astId": 8215,
            "contract": "contracts/protocol/clearinghouse/ClearingHouseArbitrum.sol:ClearingHouseArbitrum",
            "label": "rTokens",
            "offset": 0,
            "slot": "1",
            "type": "t_mapping(t_uint32,t_struct(RToken)11933_storage)"
          },
          {
            "astId": 8220,
            "contract": "contracts/protocol/clearinghouse/ClearingHouseArbitrum.sol:ClearingHouseArbitrum",
            "label": "vTokens",
            "offset": 0,
            "slot": "2",
            "type": "t_mapping(t_uint32,t_contract(IVToken)8121)"
          },
          {
            "astId": 8223,
            "contract": "contracts/protocol/clearinghouse/ClearingHouseArbitrum.sol:ClearingHouseArbitrum",
            "label": "vBase",
            "offset": 0,
            "slot": "3",
            "type": "t_contract(IVBase)7967"
          },
          {
            "astId": 8226,
            "contract": "contracts/protocol/clearinghouse/ClearingHouseArbitrum.sol:ClearingHouseArbitrum",
            "label": "liquidationParams",
            "offset": 0,
            "slot": "4",
            "type": "t_struct(LiquidationParams)8244_storage"
          },
          {
            "astId": 8228,
            "contract": "contracts/protocol/clearinghouse/ClearingHouseArbitrum.sol:ClearingHouseArbitrum",
            "label": "minRequiredMargin",
            "offset": 0,
            "slot": "5",
            "type": "t_uint256"
          },
          {
            "astId": 8230,
            "contract": "contracts/protocol/clearinghouse/ClearingHouseArbitrum.sol:ClearingHouseArbitrum",
            "label": "removeLimitOrderFee",
            "offset": 0,
            "slot": "6",
            "type": "t_uint256"
          },
          {
            "astId": 8232,
            "contract": "contracts/protocol/clearinghouse/ClearingHouseArbitrum.sol:ClearingHouseArbitrum",
            "label": "minimumOrderNotional",
            "offset": 0,
            "slot": "7",
            "type": "t_uint256"
          },
          {
            "astId": 8236,
            "contract": "contracts/protocol/clearinghouse/ClearingHouseArbitrum.sol:ClearingHouseArbitrum",
            "label": "_emptySlots",
            "offset": 0,
            "slot": "8",
            "type": "t_array(t_uint256)100_storage"
          }
        ],
        "numberOfBytes": "3456"
      },
      "t_struct(RToken)11933_storage": {
        "encoding": "inplace",
        "label": "struct RTokenLib.RToken",
        "members": [
          {
            "astId": 11928,
            "contract": "contracts/protocol/clearinghouse/ClearingHouseArbitrum.sol:ClearingHouseArbitrum",
            "label": "tokenAddress",
            "offset": 0,
            "slot": "0",
            "type": "t_address"
          },
          {
            "astId": 11930,
            "contract": "contracts/protocol/clearinghouse/ClearingHouseArbitrum.sol:ClearingHouseArbitrum",
            "label": "oracleAddress",
            "offset": 0,
            "slot": "1",
            "type": "t_address"
          },
          {
            "astId": 11932,
            "contract": "contracts/protocol/clearinghouse/ClearingHouseArbitrum.sol:ClearingHouseArbitrum",
            "label": "oracleTimeHorizon",
            "offset": 20,
            "slot": "1",
            "type": "t_uint32"
          }
        ],
        "numberOfBytes": "64"
      },
      "t_struct(RageTradePool)7604_storage": {
        "encoding": "inplace",
        "label": "struct IClearingHouse.RageTradePool",
        "members": [
          {
            "astId": 7597,
            "contract": "contracts/protocol/clearinghouse/ClearingHouseArbitrum.sol:ClearingHouseArbitrum",
            "label": "vPool",
            "offset": 0,
            "slot": "0",
            "type": "t_contract(IUniswapV3Pool)5097"
          },
          {
            "astId": 7600,
            "contract": "contracts/protocol/clearinghouse/ClearingHouseArbitrum.sol:ClearingHouseArbitrum",
            "label": "vPoolWrapper",
            "offset": 0,
            "slot": "1",
            "type": "t_contract(IVPoolWrapper)8097"
          },
          {
            "astId": 7603,
            "contract": "contracts/protocol/clearinghouse/ClearingHouseArbitrum.sol:ClearingHouseArbitrum",
            "label": "settings",
            "offset": 0,
            "slot": "2",
            "type": "t_struct(RageTradePoolSettings)7616_storage"
          }
        ],
        "numberOfBytes": "96"
      },
      "t_struct(RageTradePoolSettings)7616_storage": {
        "encoding": "inplace",
        "label": "struct IClearingHouse.RageTradePoolSettings",
        "members": [
          {
            "astId": 7606,
            "contract": "contracts/protocol/clearinghouse/ClearingHouseArbitrum.sol:ClearingHouseArbitrum",
            "label": "initialMarginRatio",
            "offset": 0,
            "slot": "0",
            "type": "t_uint16"
          },
          {
            "astId": 7608,
            "contract": "contracts/protocol/clearinghouse/ClearingHouseArbitrum.sol:ClearingHouseArbitrum",
            "label": "maintainanceMarginRatio",
            "offset": 2,
            "slot": "0",
            "type": "t_uint16"
          },
          {
            "astId": 7610,
            "contract": "contracts/protocol/clearinghouse/ClearingHouseArbitrum.sol:ClearingHouseArbitrum",
            "label": "twapDuration",
            "offset": 4,
            "slot": "0",
            "type": "t_uint32"
          },
          {
            "astId": 7612,
            "contract": "contracts/protocol/clearinghouse/ClearingHouseArbitrum.sol:ClearingHouseArbitrum",
            "label": "whitelisted",
            "offset": 8,
            "slot": "0",
            "type": "t_bool"
          },
          {
            "astId": 7615,
            "contract": "contracts/protocol/clearinghouse/ClearingHouseArbitrum.sol:ClearingHouseArbitrum",
            "label": "oracle",
            "offset": 9,
            "slot": "0",
            "type": "t_contract(IOracle)7943"
          }
        ],
        "numberOfBytes": "32"
      },
      "t_struct(Set)15604_storage": {
        "encoding": "inplace",
        "label": "struct VTokenPositionSet.Set",
        "members": [
          {
            "astId": 15590,
            "contract": "contracts/protocol/clearinghouse/ClearingHouseArbitrum.sol:ClearingHouseArbitrum",
            "label": "accountNo",
            "offset": 0,
            "slot": "0",
            "type": "t_uint256"
          },
          {
            "astId": 15594,
            "contract": "contracts/protocol/clearinghouse/ClearingHouseArbitrum.sol:ClearingHouseArbitrum",
            "label": "active",
            "offset": 0,
            "slot": "1",
            "type": "t_array(t_uint32)8_storage"
          },
          {
            "astId": 15599,
            "contract": "contracts/protocol/clearinghouse/ClearingHouseArbitrum.sol:ClearingHouseArbitrum",
            "label": "positions",
            "offset": 0,
            "slot": "2",
            "type": "t_mapping(t_uint32,t_struct(Position)15343_storage)"
          },
          {
            "astId": 15603,
            "contract": "contracts/protocol/clearinghouse/ClearingHouseArbitrum.sol:ClearingHouseArbitrum",
            "label": "_emptySlots",
            "offset": 0,
            "slot": "3",
            "type": "t_array(t_uint256)100_storage"
          }
        ],
        "numberOfBytes": "3296"
      },
      "t_struct(UserInfo)8204_storage": {
        "encoding": "inplace",
        "label": "struct Account.UserInfo",
        "members": [
          {
            "astId": 8193,
            "contract": "contracts/protocol/clearinghouse/ClearingHouseArbitrum.sol:ClearingHouseArbitrum",
            "label": "owner",
            "offset": 0,
            "slot": "0",
            "type": "t_address"
          },
          {
            "astId": 8196,
            "contract": "contracts/protocol/clearinghouse/ClearingHouseArbitrum.sol:ClearingHouseArbitrum",
            "label": "tokenPositions",
            "offset": 0,
            "slot": "1",
            "type": "t_struct(Set)15604_storage"
          },
          {
            "astId": 8199,
            "contract": "contracts/protocol/clearinghouse/ClearingHouseArbitrum.sol:ClearingHouseArbitrum",
            "label": "tokenDeposits",
            "offset": 0,
            "slot": "104",
            "type": "t_struct(Info)9630_storage"
          },
          {
            "astId": 8203,
            "contract": "contracts/protocol/clearinghouse/ClearingHouseArbitrum.sol:ClearingHouseArbitrum",
            "label": "_emptySlots",
            "offset": 0,
            "slot": "206",
            "type": "t_array(t_uint256)100_storage"
          }
        ],
        "numberOfBytes": "9792"
      },
      "t_uint128": {
        "encoding": "inplace",
        "label": "uint128",
        "numberOfBytes": "16"
      },
      "t_uint16": {
        "encoding": "inplace",
        "label": "uint16",
        "numberOfBytes": "2"
      },
      "t_uint256": {
        "encoding": "inplace",
        "label": "uint256",
        "numberOfBytes": "32"
      },
      "t_uint32": {
        "encoding": "inplace",
        "label": "uint32",
        "numberOfBytes": "4"
      },
      "t_uint48": {
        "encoding": "inplace",
        "label": "uint48",
        "numberOfBytes": "6"
      }
    }
  }
}