{
  "address": "0x0a349f5EA2E4f9C7aA327CaBBCb68f4C6ab5a284",
  "abi": [
    {
      "inputs": [
        {
          "internalType": "address",
          "name": "senderAddress",
          "type": "address"
        }
      ],
      "name": "AccessDenied",
      "type": "error"
    },
    {
      "inputs": [
        {
          "internalType": "uint256",
          "name": "length",
          "type": "uint256"
        },
        {
          "internalType": "uint256",
          "name": "limit",
          "type": "uint256"
        }
      ],
      "name": "CalldataLengthExceeded",
      "type": "error"
    },
    {
      "inputs": [
        {
          "internalType": "uint256",
          "name": "gasUsedClaim",
          "type": "uint256"
        },
        {
          "internalType": "uint256",
          "name": "gasUsedActual",
          "type": "uint256"
        }
      ],
      "name": "ExcessGasUsedClaim",
      "type": "error"
    },
    {
      "inputs": [
        {
          "internalType": "uint256",
          "name": "txGasPrice",
          "type": "uint256"
        },
        {
          "internalType": "uint256",
          "name": "limit",
          "type": "uint256"
        }
      ],
      "name": "ExcessTxGasPrice",
      "type": "error"
    },
    {
      "inputs": [
        {
          "internalType": "uint160",
          "name": "sqrtPriceX96",
          "type": "uint160"
        }
      ],
      "name": "IllegalSqrtPrice",
      "type": "error"
    },
    {
      "inputs": [
        {
          "internalType": "uint32",
          "name": "period",
          "type": "uint32"
        }
      ],
      "name": "IllegalTwapDuration",
      "type": "error"
    },
    {
      "inputs": [],
      "name": "InvalidTokenLiquidationParameters",
      "type": "error"
    },
    {
      "inputs": [
        {
          "internalType": "uint256",
          "name": "notionalValue",
          "type": "uint256"
        }
      ],
      "name": "LowNotionalValue",
      "type": "error"
    },
    {
      "inputs": [],
      "name": "NotRageTradeFactory",
      "type": "error"
    },
    {
      "inputs": [],
      "name": "Paused",
      "type": "error"
    },
    {
      "inputs": [],
      "name": "SlippageBeyondTolerance",
      "type": "error"
    },
    {
      "inputs": [],
      "name": "Unauthorised",
      "type": "error"
    },
    {
      "inputs": [
        {
          "internalType": "uint32",
          "name": "vTokenTruncatedAddress",
          "type": "uint32"
        }
      ],
      "name": "UninitializedToken",
      "type": "error"
    },
    {
      "inputs": [
        {
          "internalType": "address",
          "name": "rTokenAddress",
          "type": "address"
        }
      ],
      "name": "UnsupportedRToken",
      "type": "error"
    },
    {
      "inputs": [
        {
          "internalType": "contract IVToken",
          "name": "vToken",
          "type": "address"
        }
      ],
      "name": "UnsupportedVToken",
      "type": "error"
    },
    {
      "inputs": [],
      "name": "ZeroAddress",
      "type": "error"
    },
    {
      "anonymous": false,
      "inputs": [
        {
          "indexed": true,
          "internalType": "address",
          "name": "previousGovernance",
          "type": "address"
        },
        {
          "indexed": true,
          "internalType": "address",
          "name": "newGovernance",
          "type": "address"
        }
      ],
      "name": "GovernanceTransferred",
      "type": "event"
    },
    {
      "anonymous": false,
      "inputs": [
        {
          "indexed": true,
          "internalType": "address",
          "name": "previousTeamMultisig",
          "type": "address"
        },
        {
          "indexed": true,
          "internalType": "address",
          "name": "newTeamMultisig",
          "type": "address"
        }
      ],
      "name": "TeamMultisigTransferred",
      "type": "event"
    },
    {
      "inputs": [
        {
          "internalType": "address",
          "name": "_rageTradeFactoryAddress",
          "type": "address"
        },
        {
          "internalType": "contract IERC20",
          "name": "_rBase",
          "type": "address"
        },
        {
          "internalType": "contract IInsuranceFund",
          "name": "_insuranceFund",
          "type": "address"
        },
        {
          "internalType": "contract IVBase",
          "name": "_vBase",
          "type": "address"
        },
        {
          "internalType": "contract IOracle",
          "name": "_nativeOracle",
          "type": "address"
        }
      ],
      "name": "__ClearingHouse_init",
      "outputs": [],
      "stateMutability": "nonpayable",
      "type": "function"
    },
    {
      "inputs": [
        {
          "internalType": "address",
          "name": "rTokenAddress",
          "type": "address"
        },
        {
          "internalType": "address",
          "name": "oracleAddress",
          "type": "address"
        },
        {
          "internalType": "uint32",
          "name": "twapDuration",
          "type": "uint32"
        }
      ],
      "name": "addCollateralSupport",
      "outputs": [],
      "stateMutability": "nonpayable",
      "type": "function"
    },
    {
      "inputs": [
        {
          "internalType": "uint256",
          "name": "accountNo",
          "type": "uint256"
        },
        {
          "internalType": "uint32",
          "name": "rTokenTruncatedAddress",
          "type": "uint32"
        },
        {
          "internalType": "uint256",
          "name": "amount",
          "type": "uint256"
        }
      ],
      "name": "addMargin",
      "outputs": [],
      "stateMutability": "nonpayable",
      "type": "function"
    },
    {
      "inputs": [],
      "name": "createAccount",
      "outputs": [
        {
          "internalType": "uint256",
          "name": "newAccountId",
          "type": "uint256"
        }
      ],
      "stateMutability": "nonpayable",
      "type": "function"
    },
    {
      "inputs": [
        {
          "internalType": "bytes32",
          "name": "slot",
          "type": "bytes32"
        }
      ],
      "name": "extsload",
      "outputs": [
        {
          "internalType": "bytes32",
          "name": "val",
          "type": "bytes32"
        }
      ],
      "stateMutability": "view",
      "type": "function"
    },
    {
      "inputs": [
        {
          "internalType": "bytes32[]",
          "name": "slots",
          "type": "bytes32[]"
        }
      ],
      "name": "extsload",
      "outputs": [
        {
          "internalType": "bytes32[]",
          "name": "",
          "type": "bytes32[]"
        }
      ],
      "stateMutability": "view",
      "type": "function"
    },
    {
      "inputs": [
        {
          "internalType": "uint256",
          "name": "accountNo",
          "type": "uint256"
        },
        {
          "internalType": "bool",
          "name": "isInitialMargin",
          "type": "bool"
        }
      ],
      "name": "getAccountMarketValueAndRequiredMargin",
      "outputs": [
        {
          "internalType": "int256",
          "name": "accountMarketValue",
          "type": "int256"
        },
        {
          "internalType": "int256",
          "name": "requiredMargin",
          "type": "int256"
        }
      ],
      "stateMutability": "view",
      "type": "function"
    },
    {
      "inputs": [
        {
          "internalType": "uint256",
          "name": "accountNo",
          "type": "uint256"
        }
      ],
      "name": "getAccountView",
      "outputs": [
        {
          "internalType": "address",
          "name": "owner",
          "type": "address"
        },
        {
          "internalType": "int256",
          "name": "vBaseBalance",
          "type": "int256"
        },
        {
          "components": [
            {
              "internalType": "address",
              "name": "rTokenAddress",
              "type": "address"
            },
            {
              "internalType": "uint256",
              "name": "balance",
              "type": "uint256"
            }
          ],
          "internalType": "struct IClearingHouse.DepositTokenView[]",
          "name": "tokenDeposits",
          "type": "tuple[]"
        },
        {
          "components": [
            {
              "internalType": "address",
              "name": "vTokenAddress",
              "type": "address"
            },
            {
              "internalType": "int256",
              "name": "balance",
              "type": "int256"
            },
            {
              "internalType": "int256",
              "name": "netTraderPosition",
              "type": "int256"
            },
            {
              "internalType": "int256",
              "name": "sumAX128Ckpt",
              "type": "int256"
            },
            {
              "components": [
                {
                  "internalType": "enum IClearingHouse.LimitOrderType",
                  "name": "limitOrderType",
                  "type": "uint8"
                },
                {
                  "internalType": "int24",
                  "name": "tickLower",
                  "type": "int24"
                },
                {
                  "internalType": "int24",
                  "name": "tickUpper",
                  "type": "int24"
                },
                {
                  "internalType": "uint128",
                  "name": "liquidity",
                  "type": "uint128"
                },
                {
                  "internalType": "int256",
                  "name": "vTokenAmountIn",
                  "type": "int256"
                },
                {
                  "internalType": "int256",
                  "name": "sumALastX128",
                  "type": "int256"
                },
                {
                  "internalType": "int256",
                  "name": "sumBInsideLastX128",
                  "type": "int256"
                },
                {
                  "internalType": "int256",
                  "name": "sumFpInsideLastX128",
                  "type": "int256"
                },
                {
                  "internalType": "uint256",
                  "name": "sumFeeInsideLastX128",
                  "type": "uint256"
                }
              ],
              "internalType": "struct IClearingHouse.LiquidityPositionView[]",
              "name": "liquidityPositions",
              "type": "tuple[]"
            }
          ],
          "internalType": "struct IClearingHouse.VTokenPositionView[]",
          "name": "tokenPositions",
          "type": "tuple[]"
        }
      ],
      "stateMutability": "view",
      "type": "function"
    },
    {
      "inputs": [
        {
          "internalType": "contract IVToken",
          "name": "vToken",
          "type": "address"
        }
      ],
      "name": "getTwapSqrtPricesForSetDuration",
      "outputs": [
        {
          "internalType": "uint256",
          "name": "realPriceX128",
          "type": "uint256"
        },
        {
          "internalType": "uint256",
          "name": "virtualPriceX128",
          "type": "uint256"
        }
      ],
      "stateMutability": "view",
      "type": "function"
    },
    {
      "inputs": [],
      "name": "governance",
      "outputs": [
        {
          "internalType": "address",
          "name": "",
          "type": "address"
        }
      ],
      "stateMutability": "view",
      "type": "function"
    },
    {
      "inputs": [
        {
          "internalType": "address",
          "name": "realToken",
          "type": "address"
        }
      ],
      "name": "initRealToken",
      "outputs": [],
      "stateMutability": "nonpayable",
      "type": "function"
    },
    {
      "inputs": [],
      "name": "insuranceFund",
      "outputs": [
        {
          "internalType": "contract IInsuranceFund",
          "name": "",
          "type": "address"
        }
      ],
      "stateMutability": "view",
      "type": "function"
    },
    {
      "inputs": [
        {
          "internalType": "address",
          "name": "realToken",
          "type": "address"
        }
      ],
      "name": "isRealTokenAlreadyInitilized",
      "outputs": [
        {
          "internalType": "bool",
          "name": "",
          "type": "bool"
        }
      ],
      "stateMutability": "view",
      "type": "function"
    },
    {
      "inputs": [
        {
          "internalType": "uint32",
          "name": "truncated",
          "type": "uint32"
        }
      ],
      "name": "isVTokenAddressAvailable",
      "outputs": [
        {
          "internalType": "bool",
          "name": "",
          "type": "bool"
        }
      ],
      "stateMutability": "view",
      "type": "function"
    },
    {
      "inputs": [
        {
          "internalType": "uint256",
          "name": "accountNo",
          "type": "uint256"
        }
      ],
      "name": "liquidateLiquidityPositions",
      "outputs": [
        {
          "internalType": "int256",
          "name": "keeperFee",
          "type": "int256"
        }
      ],
      "stateMutability": "nonpayable",
      "type": "function"
    },
    {
      "inputs": [
        {
          "internalType": "uint256",
          "name": "accountNo",
          "type": "uint256"
        },
        {
          "internalType": "uint256",
          "name": "gasComputationUnitsClaim",
          "type": "uint256"
        }
      ],
      "name": "liquidateLiquidityPositionsWithGasClaim",
      "outputs": [
        {
          "internalType": "int256",
          "name": "keeperFee",
          "type": "int256"
        }
      ],
      "stateMutability": "nonpayable",
      "type": "function"
    },
    {
      "inputs": [
        {
          "internalType": "uint256",
          "name": "liquidatorAccountNo",
          "type": "uint256"
        },
        {
          "internalType": "uint256",
          "name": "accountNo",
          "type": "uint256"
        },
        {
          "internalType": "uint32",
          "name": "vTokenTruncatedAddress",
          "type": "uint32"
        },
        {
          "internalType": "uint16",
          "name": "liquidationBps",
          "type": "uint16"
        }
      ],
      "name": "liquidateTokenPosition",
      "outputs": [
        {
          "components": [
            {
              "internalType": "int256",
              "name": "vBaseIncrease",
              "type": "int256"
            },
            {
              "internalType": "int256",
              "name": "vTokenIncrease",
              "type": "int256"
            },
            {
              "internalType": "int256",
              "name": "traderPositionIncrease",
              "type": "int256"
            }
          ],
          "internalType": "struct IClearingHouse.BalanceAdjustments",
          "name": "liquidatorBalanceAdjustments",
          "type": "tuple"
        }
      ],
      "stateMutability": "nonpayable",
      "type": "function"
    },
    {
      "inputs": [
        {
          "internalType": "uint256",
          "name": "liquidatorAccountNo",
          "type": "uint256"
        },
        {
          "internalType": "uint256",
          "name": "accountNo",
          "type": "uint256"
        },
        {
          "internalType": "uint32",
          "name": "vTokenTruncatedAddress",
          "type": "uint32"
        },
        {
          "internalType": "uint16",
          "name": "liquidationBps",
          "type": "uint16"
        },
        {
          "internalType": "uint256",
          "name": "gasComputationUnitsClaim",
          "type": "uint256"
        }
      ],
      "name": "liquidateTokenPositionWithGasClaim",
      "outputs": [
        {
          "components": [
            {
              "internalType": "int256",
              "name": "vBaseIncrease",
              "type": "int256"
            },
            {
              "internalType": "int256",
              "name": "vTokenIncrease",
              "type": "int256"
            },
            {
              "internalType": "int256",
              "name": "traderPositionIncrease",
              "type": "int256"
            }
          ],
          "internalType": "struct IClearingHouse.BalanceAdjustments",
          "name": "liquidatorBalanceAdjustments",
          "type": "tuple"
        }
      ],
      "stateMutability": "nonpayable",
      "type": "function"
    },
    {
      "inputs": [],
      "name": "nativeOracle",
      "outputs": [
        {
          "internalType": "contract IOracle",
          "name": "",
          "type": "address"
        }
      ],
      "stateMutability": "view",
      "type": "function"
    },
    {
      "inputs": [],
      "name": "numAccounts",
      "outputs": [
        {
          "internalType": "uint256",
          "name": "",
          "type": "uint256"
        }
      ],
      "stateMutability": "view",
      "type": "function"
    },
    {
      "inputs": [],
      "name": "paused",
      "outputs": [
        {
          "internalType": "bool",
          "name": "",
          "type": "bool"
        }
      ],
      "stateMutability": "view",
      "type": "function"
    },
    {
      "inputs": [
        {
          "internalType": "contract IVToken",
          "name": "vToken",
          "type": "address"
        }
      ],
      "name": "pools",
      "outputs": [
        {
          "components": [
            {
              "internalType": "contract IUniswapV3Pool",
              "name": "vPool",
              "type": "address"
            },
            {
              "internalType": "contract IVPoolWrapper",
              "name": "vPoolWrapper",
              "type": "address"
            },
            {
              "components": [
                {
                  "internalType": "uint16",
                  "name": "initialMarginRatio",
                  "type": "uint16"
                },
                {
                  "internalType": "uint16",
                  "name": "maintainanceMarginRatio",
                  "type": "uint16"
                },
                {
                  "internalType": "uint32",
                  "name": "twapDuration",
                  "type": "uint32"
                },
                {
                  "internalType": "bool",
                  "name": "whitelisted",
                  "type": "bool"
                },
                {
                  "internalType": "contract IOracle",
                  "name": "oracle",
                  "type": "address"
                }
              ],
              "internalType": "struct IClearingHouse.RageTradePoolSettings",
              "name": "settings",
              "type": "tuple"
            }
          ],
          "internalType": "struct IClearingHouse.RageTradePool",
          "name": "",
          "type": "tuple"
        }
      ],
      "stateMutability": "view",
      "type": "function"
    },
    {
      "inputs": [],
      "name": "protocolInfo",
      "outputs": [
        {
          "internalType": "contract IVBase",
          "name": "vBase",
          "type": "address"
        },
        {
          "components": [
            {
              "internalType": "uint16",
              "name": "liquidationFeeFraction",
              "type": "uint16"
            },
            {
              "internalType": "uint16",
              "name": "tokenLiquidationPriceDeltaBps",
              "type": "uint16"
            },
            {
              "internalType": "uint16",
              "name": "insuranceFundFeeShareBps",
              "type": "uint16"
            }
          ],
          "internalType": "struct Account.LiquidationParams",
          "name": "liquidationParams",
          "type": "tuple"
        },
        {
          "internalType": "uint256",
          "name": "minRequiredMargin",
          "type": "uint256"
        },
        {
          "internalType": "uint256",
          "name": "removeLimitOrderFee",
          "type": "uint256"
        },
        {
          "internalType": "uint256",
          "name": "minimumOrderNotional",
          "type": "uint256"
        }
      ],
      "stateMutability": "view",
      "type": "function"
    },
    {
      "inputs": [],
      "name": "rBase",
      "outputs": [
        {
          "internalType": "contract IERC20",
          "name": "",
          "type": "address"
        }
      ],
      "stateMutability": "view",
      "type": "function"
    },
    {
      "inputs": [
        {
          "internalType": "uint32",
          "name": "rTokenId",
          "type": "uint32"
        }
      ],
      "name": "rTokens",
      "outputs": [
        {
          "components": [
            {
              "internalType": "address",
              "name": "tokenAddress",
              "type": "address"
            },
            {
              "internalType": "address",
              "name": "oracleAddress",
              "type": "address"
            },
            {
              "internalType": "uint32",
              "name": "oracleTimeHorizon",
              "type": "uint32"
            }
          ],
          "internalType": "struct RTokenLib.RToken",
          "name": "",
          "type": "tuple"
        }
      ],
      "stateMutability": "view",
      "type": "function"
    },
    {
      "inputs": [],
      "name": "rageTradeFactoryAddress",
      "outputs": [
        {
          "internalType": "address",
          "name": "",
          "type": "address"
        }
      ],
      "stateMutability": "view",
      "type": "function"
    },
    {
      "inputs": [
        {
          "internalType": "address",
          "name": "",
          "type": "address"
        }
      ],
      "name": "realTokenInitilized",
      "outputs": [
        {
          "internalType": "bool",
          "name": "",
          "type": "bool"
        }
      ],
      "stateMutability": "view",
      "type": "function"
    },
    {
      "inputs": [
        {
          "internalType": "address",
          "name": "full",
          "type": "address"
        },
        {
          "components": [
            {
              "internalType": "contract IUniswapV3Pool",
              "name": "vPool",
              "type": "address"
            },
            {
              "internalType": "contract IVPoolWrapper",
              "name": "vPoolWrapper",
              "type": "address"
            },
            {
              "components": [
                {
                  "internalType": "uint16",
                  "name": "initialMarginRatio",
                  "type": "uint16"
                },
                {
                  "internalType": "uint16",
                  "name": "maintainanceMarginRatio",
                  "type": "uint16"
                },
                {
                  "internalType": "uint32",
                  "name": "twapDuration",
                  "type": "uint32"
                },
                {
                  "internalType": "bool",
                  "name": "whitelisted",
                  "type": "bool"
                },
                {
                  "internalType": "contract IOracle",
                  "name": "oracle",
                  "type": "address"
                }
              ],
              "internalType": "struct IClearingHouse.RageTradePoolSettings",
              "name": "settings",
              "type": "tuple"
            }
          ],
          "internalType": "struct IClearingHouse.RageTradePool",
          "name": "rageTradePool",
          "type": "tuple"
        }
      ],
      "name": "registerPool",
      "outputs": [],
      "stateMutability": "nonpayable",
      "type": "function"
    },
    {
      "inputs": [
        {
          "internalType": "uint256",
          "name": "accountNo",
          "type": "uint256"
        },
        {
          "internalType": "uint32",
          "name": "vTokenTruncatedAddress",
          "type": "uint32"
        },
        {
          "internalType": "int24",
          "name": "tickLower",
          "type": "int24"
        },
        {
          "internalType": "int24",
          "name": "tickUpper",
          "type": "int24"
        }
      ],
      "name": "removeLimitOrder",
      "outputs": [
        {
          "internalType": "uint256",
          "name": "keeperFee",
          "type": "uint256"
        }
      ],
      "stateMutability": "nonpayable",
      "type": "function"
    },
    {
      "inputs": [
        {
          "internalType": "uint256",
          "name": "accountNo",
          "type": "uint256"
        },
        {
          "internalType": "uint32",
          "name": "vTokenTruncatedAddress",
          "type": "uint32"
        },
        {
          "internalType": "int24",
          "name": "tickLower",
          "type": "int24"
        },
        {
          "internalType": "int24",
          "name": "tickUpper",
          "type": "int24"
        },
        {
          "internalType": "uint256",
          "name": "gasComputationUnitsClaim",
          "type": "uint256"
        }
      ],
      "name": "removeLimitOrderWithGasClaim",
      "outputs": [
        {
          "internalType": "uint256",
          "name": "keeperFee",
          "type": "uint256"
        }
      ],
      "stateMutability": "nonpayable",
      "type": "function"
    },
    {
      "inputs": [
        {
          "internalType": "uint256",
          "name": "accountNo",
          "type": "uint256"
        },
        {
          "internalType": "uint32",
          "name": "rTokenTruncatedAddress",
          "type": "uint32"
        },
        {
          "internalType": "uint256",
          "name": "amount",
          "type": "uint256"
        }
      ],
      "name": "removeMargin",
      "outputs": [],
      "stateMutability": "nonpayable",
      "type": "function"
    },
    {
      "inputs": [
        {
          "internalType": "uint256",
          "name": "accountNo",
          "type": "uint256"
        },
        {
          "internalType": "uint256",
          "name": "amount",
          "type": "uint256"
        }
      ],
      "name": "removeProfit",
      "outputs": [],
      "stateMutability": "nonpayable",
      "type": "function"
    },
    {
      "inputs": [
        {
          "internalType": "bool",
          "name": "_pause",
          "type": "bool"
        }
      ],
      "name": "setPaused",
      "outputs": [],
      "stateMutability": "nonpayable",
      "type": "function"
    },
    {
      "inputs": [
        {
          "components": [
            {
              "internalType": "uint16",
              "name": "liquidationFeeFraction",
              "type": "uint16"
            },
            {
              "internalType": "uint16",
              "name": "tokenLiquidationPriceDeltaBps",
              "type": "uint16"
            },
            {
              "internalType": "uint16",
              "name": "insuranceFundFeeShareBps",
              "type": "uint16"
            }
          ],
          "internalType": "struct Account.LiquidationParams",
          "name": "_liquidationParams",
          "type": "tuple"
        },
        {
          "internalType": "uint256",
          "name": "_removeLimitOrderFee",
          "type": "uint256"
        },
        {
          "internalType": "uint256",
          "name": "_minimumOrderNotional",
          "type": "uint256"
        },
        {
          "internalType": "uint256",
          "name": "_minRequiredMargin",
          "type": "uint256"
        }
      ],
      "name": "setPlatformParameters",
      "outputs": [],
      "stateMutability": "nonpayable",
      "type": "function"
    },
    {
      "inputs": [
        {
          "internalType": "uint256",
          "name": "_txGasPriceLimit",
          "type": "uint256"
        }
      ],
      "name": "setTxGasPriceLimit",
      "outputs": [],
      "stateMutability": "nonpayable",
      "type": "function"
    },
    {
      "inputs": [
        {
          "internalType": "address",
          "name": "",
          "type": "address"
        }
      ],
      "name": "supportedDeposits",
      "outputs": [
        {
          "internalType": "bool",
          "name": "",
          "type": "bool"
        }
      ],
      "stateMutability": "view",
      "type": "function"
    },
    {
      "inputs": [
        {
          "internalType": "contract IVToken",
          "name": "",
          "type": "address"
        }
      ],
      "name": "supportedVTokens",
      "outputs": [
        {
          "internalType": "bool",
          "name": "",
          "type": "bool"
        }
      ],
      "stateMutability": "view",
      "type": "function"
    },
    {
      "inputs": [
        {
          "internalType": "uint256",
          "name": "accountNo",
          "type": "uint256"
        },
        {
          "internalType": "uint32",
          "name": "vTokenTruncatedAddress",
          "type": "uint32"
        },
        {
          "components": [
            {
              "internalType": "int256",
              "name": "amount",
              "type": "int256"
            },
            {
              "internalType": "uint160",
              "name": "sqrtPriceLimit",
              "type": "uint160"
            },
            {
              "internalType": "bool",
              "name": "isNotional",
              "type": "bool"
            },
            {
              "internalType": "bool",
              "name": "isPartialAllowed",
              "type": "bool"
            }
          ],
          "internalType": "struct IClearingHouse.SwapParams",
          "name": "swapParams",
          "type": "tuple"
        }
      ],
      "name": "swapToken",
      "outputs": [
        {
          "internalType": "int256",
          "name": "vTokenAmountOut",
          "type": "int256"
        },
        {
          "internalType": "int256",
          "name": "vBaseAmountOut",
          "type": "int256"
        }
      ],
      "stateMutability": "nonpayable",
      "type": "function"
    },
    {
      "inputs": [],
      "name": "teamMultisig",
      "outputs": [
        {
          "internalType": "address",
          "name": "",
          "type": "address"
        }
      ],
      "stateMutability": "view",
      "type": "function"
    },
    {
      "inputs": [
        {
          "internalType": "address",
          "name": "newGovernance",
          "type": "address"
        }
      ],
      "name": "transferGovernance",
      "outputs": [],
      "stateMutability": "nonpayable",
      "type": "function"
    },
    {
      "inputs": [
        {
          "internalType": "address",
          "name": "newTeamMultisig",
          "type": "address"
        }
      ],
      "name": "transferTeamMultisig",
      "outputs": [],
      "stateMutability": "nonpayable",
      "type": "function"
    },
    {
      "inputs": [],
      "name": "txGasPriceLimit",
      "outputs": [
        {
          "internalType": "uint256",
          "name": "",
          "type": "uint256"
        }
      ],
      "stateMutability": "view",
      "type": "function"
    },
    {
      "inputs": [
        {
          "internalType": "contract IVToken",
          "name": "vToken",
          "type": "address"
        },
        {
          "components": [
            {
              "internalType": "uint16",
              "name": "initialMarginRatio",
              "type": "uint16"
            },
            {
              "internalType": "uint16",
              "name": "maintainanceMarginRatio",
              "type": "uint16"
            },
            {
              "internalType": "uint32",
              "name": "twapDuration",
              "type": "uint32"
            },
            {
              "internalType": "bool",
              "name": "whitelisted",
              "type": "bool"
            },
            {
              "internalType": "contract IOracle",
              "name": "oracle",
              "type": "address"
            }
          ],
          "internalType": "struct IClearingHouse.RageTradePoolSettings",
          "name": "newSettings",
          "type": "tuple"
        }
      ],
      "name": "updateRageTradePoolSettings",
      "outputs": [],
      "stateMutability": "nonpayable",
      "type": "function"
    },
    {
      "inputs": [
        {
          "internalType": "uint256",
          "name": "accountNo",
          "type": "uint256"
        },
        {
          "internalType": "uint32",
          "name": "vTokenTruncatedAddress",
          "type": "uint32"
        },
        {
          "components": [
            {
              "internalType": "int24",
              "name": "tickLower",
              "type": "int24"
            },
            {
              "internalType": "int24",
              "name": "tickUpper",
              "type": "int24"
            },
            {
              "internalType": "int128",
              "name": "liquidityDelta",
              "type": "int128"
            },
            {
              "internalType": "uint160",
              "name": "sqrtPriceCurrent",
              "type": "uint160"
            },
            {
              "internalType": "uint16",
              "name": "slippageToleranceBps",
              "type": "uint16"
            },
            {
              "internalType": "bool",
              "name": "closeTokenPosition",
              "type": "bool"
            },
            {
              "internalType": "enum IClearingHouse.LimitOrderType",
              "name": "limitOrderType",
              "type": "uint8"
            }
          ],
          "internalType": "struct IClearingHouse.LiquidityChangeParams",
          "name": "liquidityChangeParams",
          "type": "tuple"
        }
      ],
      "name": "updateRangeOrder",
      "outputs": [
        {
          "internalType": "int256",
          "name": "vTokenAmountOut",
          "type": "int256"
        },
        {
          "internalType": "int256",
          "name": "vBaseAmountOut",
          "type": "int256"
        }
      ],
      "stateMutability": "nonpayable",
      "type": "function"
    },
    {
      "inputs": [
        {
          "internalType": "address",
          "name": "add",
          "type": "address"
        },
        {
          "internalType": "bool",
          "name": "status",
          "type": "bool"
        }
      ],
      "name": "updateSupportedDeposits",
      "outputs": [],
      "stateMutability": "nonpayable",
      "type": "function"
    },
    {
      "inputs": [
        {
          "internalType": "contract IVToken",
          "name": "add",
          "type": "address"
        },
        {
          "internalType": "bool",
          "name": "status",
          "type": "bool"
        }
      ],
      "name": "updateSupportedVTokens",
      "outputs": [],
      "stateMutability": "nonpayable",
      "type": "function"
    },
    {
      "inputs": [
        {
          "internalType": "uint32",
          "name": "vTokenAddressTruncated",
          "type": "uint32"
        }
      ],
      "name": "vTokens",
      "outputs": [
        {
          "internalType": "contract IVToken",
          "name": "",
          "type": "address"
        }
      ],
      "stateMutability": "view",
      "type": "function"
    },
    {
      "inputs": [
        {
          "internalType": "address[]",
          "name": "wrapperAddresses",
          "type": "address[]"
        }
      ],
      "name": "withdrawProtocolFee",
      "outputs": [],
      "stateMutability": "nonpayable",
      "type": "function"
    }
  ],
  "transactionHash": "0x0ac45e8d073991ed5c8c55199fb196afd334d3cebac990640fc39c694a2b5588",
  "args": [],
  "solcInputHash": "11fe70ca772ffd2defe9ec97f4437e59",
  "bytecode": "0x60806040523480156200001157600080fd5b506200001c62000022565b6200018a565b336200002f818062000032565b50565b600054610100900460ff16806200004c575060005460ff16155b620000b45760405162461bcd60e51b815260206004820152602e60248201527f496e697469616c697a61626c653a20636f6e747261637420697320616c72656160448201526d191e481a5b9a5d1a585b1a5e995960921b606482015260840160405180910390fd5b600054610100900460ff16158015620000d7576000805461ffff19166101011790555b6000805462010000600160b01b031916620100006001600160a01b0386169081029190911782556040519091907f5f56bee8cffbe9a78652a74a60705edede02af10b0bbb888ca44b79a0d42ce80908290a3600180546001600160a01b0319166001600160a01b0384169081179091556040516000907f39355f2f5c8206286978f443aa8126bbd29fa09c53c04569502647f3a59c8cb2908290a3801562000185576000805461ff00191690555b505050565b615e30806200019a6000396000f3fe608060405234801561001057600080fd5b50600436106102a05760003560e01c80637cc2f4f511610167578063b7902303116100ce578063e1f1671311610087578063e1f167131461079e578063e67ed1df146107b1578063eb7c987d146107c4578063ee6cd5ee1461086f578063fcd0a50614610882578063fe6f083a1461089557600080fd5b8063b790230314610721578063d257be2b14610734578063d38bfff414610747578063dac42a961461075a578063dbc0c0851461076d578063dbd035ff1461077e57600080fd5b806394c8c71d1161012057806394c8c71d1461064557806398f5c527146106585780639dca362f1461066b578063a26f7ca714610673578063a4063dbc14610686578063a5cf76881461070957600080fd5b80637cc2f4f5146105285780637ec6ba311461053b5780637f64d6631461054e57806384088b65146105615780638ce25a931461059657806393420cf41461059f57600080fd5b80633fc42d801161020b5780635aa6e675116101c45780635aa6e675146104a85780635c318ad9146104bf5780635c975abb146104d257806364f36801146104df57806373cceb9d146104f25780637938d8a31461051557600080fd5b80633fc42d80146103d157806342be9fca1461040457806343233d2e146104175780634e10b6e3146104465780635616847614610469578063569634d31461049557600080fd5b80632a66e9ca1161025d5780632a66e9ca1461034a5780632afaea371461035d57806332a72d981461037057806336fadead1461039857806339359029146103ab5780633d56a35e146103be57600080fd5b8063127fec13146102a557806316c38b3c146102d55780631a1feae1146102ea5780631e2eaeaf1461030257806321df4c0e14610314578063261f806714610337575b600080fd5b60d8546102b8906001600160a01b031681565b6040516001600160a01b0390911681526020015b60405180910390f35b6102e86102e3366004614a75565b6108a8565b005b6102f461013d5481565b6040519081526020016102cc565b6102f4610310366004614a92565b5490565b610327610322366004614a92565b610906565b6040516102cc9493929190614ae3565b6102e8610345366004614c85565b610951565b6102e8610358366004614cb4565b6109a0565b6102e861036b366004614cfd565b610a63565b61038361037e366004614d87565b610bcb565b604080519283526020830191909152016102cc565b6102e86103a6366004614e36565b610dc4565b6102e86103b9366004614cfd565b610e3a565b60d6546102b8906001600160a01b031681565b6103f46103df366004614c85565b60d26020526000908152604090205460ff1681565b60405190151581526020016102cc565b6102f4610412366004614e6f565b610f96565b6102b8610425366004614e91565b63ffffffff166000908152606660205260409020546001600160a01b031690565b6103f4610454366004614c85565b60d06020526000908152604090205460ff1681565b6103f4610477366004614c85565b6001600160a01b0316600090815260d0602052604090205460ff1690565b6102f46104a3366004614a92565b61103d565b6000546201000090046001600160a01b03166102b8565b6102e86104cd366004614eae565b611050565b60d5546103f49060ff1681565b6102e86104ed366004614e36565b6110b9565b6103f4610500366004614c85565b60d16020526000908152604090205460ff1681565b6102e8610523366004614e6f565b61112f565b6102f4610536366004614eff565b611259565b6102e8610549366004614a92565b611272565b6102e861055c366004614c85565b6112c3565b61057461056f366004614f6d565b611391565b60408051825181526020808401519082015291810151908201526060016102cc565b6102f460d35481565b604080516060808201835260008083526020808401829052928401526067548351808301855260685461ffff80821683526201000082048116838701908152600160201b9092048116838801908152606954606a54606b548a516001600160a01b03909816885295518416988701989098529251821697850197909752955190951692820192909252608081019390935260a083019190915260c082015260e0016102cc565b610574610653366004614fac565b6113c3565b6102e8610666366004614ffe565b611495565b6102f4611570565b6102e861068136600461506f565b611612565b610699610694366004614c85565b61168a565b6040805182516001600160a01b03908116825260208085015182168184015293830151805161ffff90811684860152948101519094166060808401919091529284015163ffffffff1660808084019190915292840151151560a083015291909201511660c082015260e0016102cc565b60d5546102b89061010090046001600160a01b031681565b60d7546102b8906001600160a01b031681565b610383610742366004614c85565b611766565b6102e8610755366004614c85565b61179a565b6103f4610768366004614e91565b61185c565b6001546001600160a01b03166102b8565b61079161078c3660046150d4565b61188b565b6040516102cc919061515f565b6102e86107ac3660046151a3565b6118b6565b6103836107bf366004615218565b611a0c565b6108396107d2366004614e91565b60408051606080820183526000808352602080840182905292840181905263ffffffff9485168152606583528390208351918201845280546001600160a01b03908116835260019091015490811692820192909252600160a01b9091049092169082015290565b6040805182516001600160a01b039081168252602080850151909116908201529181015163ffffffff16908201526060016102cc565b61038361087d36600461523d565b611a33565b6102e861089036600461527d565b611ba5565b6102f46108a33660046152c8565b611c76565b6001546001600160a01b031633148015906108d557506000546001600160a01b0362010000909104163314155b156108f357604051636bd1573560e11b815260040160405180910390fd5b60d5805460ff1916911515919091179055565b600081815260d46020526040812080546001600160a01b031691906060908190610934606882016064611cc4565b9250610944600182016064611e46565b9597909650929493505050565b60d6546001600160a01b0316331461097c576040516385734f3160e01b815260040160405180910390fd5b6001600160a01b0316600090815260d060205260409020805460ff19166001179055565b60d6546001600160a01b031633146109cb576040516385734f3160e01b815260040160405180910390fd5b8160006001600160a01b03821663ffffffff808216600090815260666020526040812054929350610a06926001600160a01b03169161218616565b610a1257610a12615312565b63ffffffff8116600090815260666020908152604080832080546001600160a01b0319166001600160a01b0387169081179091558352606490915290208390610a5b8282615451565b505050505050565b60d55460ff1615610a87576040516313d0ff5960e31b815260040160405180910390fd5b600083815260d46020526040902080546001600160a01b03163314610ac657604051630504a20d60e01b81523360048201526024015b60405180910390fd5b6000610ad184612197565b9050610afb333085610aea85546001600160a01b031690565b6001600160a01b031692919061222d565b8054604051631b2d4e8960e01b8152600481018490526001600160a01b039091166024820152604481018490527312858C66B0e9744f933b9e2cC8Eea50A975D2e8090631b2d4e899060640160006040518083038186803b158015610b5f57600080fd5b505af4158015610b73573d6000803e3d6000fd5b50508254604080518981526001600160a01b03909216602083015281018690527fdce3cf2323481f6a4ecd26864872ec536609f1ad0788710e5786c65b8e51ee75925060600190505b60405180910390a15050505050565b60d554600090819060ff1615610bf4576040516313d0ff5960e31b815260040160405180910390fd5b600085815260d46020526040902080546001600160a01b03163314610c2e57604051630504a20d60e01b8152336004820152602401610abd565b6000610c3986612298565b6040805163edd75e2160e01b8152600481018590526001600160a01b0380841660248301528851604483015260208901511660648083019190915291880151151560848201526060880151151560a482015260c48101919091529091507312858C66B0e9744f933b9e2cC8Eea50A975D2e809063edd75e219060e4016040805180830381865af4158015610cd1573d6000803e3d6000fd5b505050506040513d601f19601f82011682018060405250810190610cf5919061553f565b90945092506000610d058461232f565b606b54909150811015610d2e576040516312b6b5cd60e11b815260048101829052602401610abd565b60208601516001600160a01b031615801590610d4c57508560600151155b15610db95785604001518015610d7357508551610d689061232f565b610d718561232f565b145b80610d9c57508560400151158015610d9c57508551610d919061232f565b610d9a8661232f565b145b610db9576040516307a1db0760e01b815260040160405180910390fd5b505050935093915050565b6001546001600160a01b03163314801590610df157506000546001600160a01b0362010000909104163314155b15610e0f57604051636bd1573560e11b815260040160405180910390fd5b6001600160a01b0391909116600090815260d160205260409020805460ff1916911515919091179055565b60d55460ff1615610e5e576040516313d0ff5960e31b815260040160405180910390fd5b600083815260d46020526040902080546001600160a01b03163314610e9857604051630504a20d60e01b8152336004820152602401610abd565b6000610ea384612197565b8054604051634de2913360e11b8152600481018590526001600160a01b039091166024820152604481018590526064808201529091507312858C66B0e9744f933b9e2cC8Eea50A975D2e8090639bc522669060840160006040518083038186803b158015610f1057600080fd5b505af4158015610f24573d6000803e3d6000fd5b50505050610f4e3384610f3e84546001600160a01b031690565b6001600160a01b0316919061234a565b8054604080518781526001600160a01b03909216602083015281018490527fbe29a6b389df4dde99b5e61c229ee4fcb393f7f54c362aa57d8c92200183094690606001610bbc565b600081801561101f576000610fa961237a565b5a610fb49190615579565b9050610fc06044612432565b610fca858561245e565b92506000610fd661237a565b5a610fe19190615579565b610feb9083615591565b90508083111561101857604051634010928f60e01b81526004810184905260248101829052604401610abd565b5050611036565b6110296044612432565b611033848461245e565b91505b5092915050565b600061104a82600061245e565b92915050565b6001546001600160a01b0316331480159061107d57506000546001600160a01b0362010000909104163314155b1561109b57604051636bd1573560e11b815260040160405180910390fd5b8360686110a882826155a8565b5050606a92909255606b5560695550565b6001546001600160a01b031633148015906110e657506000546001600160a01b0362010000909104163314155b1561110457604051636bd1573560e11b815260040160405180910390fd5b6001600160a01b0391909116600090815260d260205260409020805460ff1916911515919091179055565b60d55460ff1615611153576040516313d0ff5960e31b815260040160405180910390fd5b600082815260d46020526040902080546001600160a01b0316331461118d57604051630504a20d60e01b8152336004820152602401610abd565b604051634042e78f60e01b815260048101829052602481018390526064604482018190527312858C66B0e9744f933b9e2cC8Eea50A975D2e8091634042e78f910160006040518083038186803b1580156111e657600080fd5b505af41580156111fa573d6000803e3d6000fd5b505060d55461121b925061010090046001600160a01b03169050338461234a565b60408051848152602081018490527fb8635fe5938466cc626f7c214bf818f090e2b736368828f448cd2b379cf0174e910160405180910390a1505050565b60006112698585858560006125b3565b95945050505050565b6001546001600160a01b0316331480159061129f57506000546001600160a01b0362010000909104163314155b156112bd57604051636bd1573560e11b815260040160405180910390fd5b61013d55565b6001546001600160a01b031633148015906112f057506000546001600160a01b0362010000909104163314155b1561130e57604051636bd1573560e11b815260040160405180910390fd5b6001600160a01b0381166113355760405163d92e233d60e01b815260040160405180910390fd5b6001546040516001600160a01b038084169216907f39355f2f5c8206286978f443aa8126bbd29fa09c53c04569502647f3a59c8cb290600090a3600180546001600160a01b0319166001600160a01b0392909216919091179055565b6113b560405180606001604052806000815260200160008152602001600081525090565b6112698585858560006126c9565b6113e760405180606001604052806000815260200160008152602001600081525090565b8180156114715760006113f861237a565b5a6114039190615579565b905061140f60a4612432565b61141c88888888886126c9565b9250600061142861237a565b5a6114339190615579565b61143d9083615591565b90508083111561146a57604051634010928f60e01b81526004810184905260248101829052604401610abd565b505061148b565b61147b60a4612432565b61148887878787876126c9565b91505b5095945050505050565b600054610100900460ff16806114ae575060005460ff16155b6114ca5760405162461bcd60e51b8152600401610abd90615616565b600054610100900460ff161580156114ec576000805461ffff19166101011790555b60d680546001600160a01b03199081166001600160a01b038981169190911790925560d58054610100600160a81b0319166101008985160217905560d78054821687841617905560d88054821685841617905560678054909116918516919091179055611557612838565b8015610a5b576000805461ff0019169055505050505050565b60d55460009060ff1615611597576040516313d0ff5960e31b815260040160405180910390fd5b5060d3546115a6816001615579565b60d355600081815260d460205260409081902080546001600160a01b0319163390811782556001820184905591519091907f7325fb14450d3e5eb288c620b4ff1d6b43a41b33b4a4f143ae88cd4c12f99ea3906116069085815260200190565b60405180910390a25090565b6001546001600160a01b0316331480159061163f57506000546001600160a01b0362010000909104163314155b1561165d57604051636bd1573560e11b815260040160405180910390fd5b6001600160a01b038216600090815260646020526040902081906002016116848282615399565b50505050565b6116cf604080516060808201835260008083526020808401829052845160a0810186528281529081018290528085018290529182018190526080820152909182015290565b506001600160a01b039081166000908152606460209081526040918290208251606080820185528254861682526001830154861682850152845160a08101865260029093015461ffff8082168552620100008204169484019490945263ffffffff600160201b8504168386015260ff600160401b850416151590830152600160481b90920490931660808401529081019190915290565b60008061177d6001600160a01b0384166064612843565b91506117936001600160a01b0384166064612870565b9050915091565b6000546001600160a01b03620100009091041633146117cc57604051636bd1573560e11b815260040160405180910390fd5b6001600160a01b0381166117f35760405163d92e233d60e01b815260040160405180910390fd5b600080546040516001600160a01b03808516936201000090930416917f5f56bee8cffbe9a78652a74a60705edede02af10b0bbb888ca44b79a0d42ce8091a3600080546001600160a01b03909216620100000262010000600160b01b0319909216919091179055565b63ffffffff808216600090815260666020526040812054909161104a916001600160a01b031690839061218616565b606060208251028201602001825b818110156118ae576020018051548152611899565b509192915050565b6000805b828110156119d95760008484838181106118d6576118d6615664565b90506020020160208101906118eb9190614c85565b6001600160a01b0316635e622abc6040518163ffffffff1660e01b81526004016020604051808303816000875af115801561192a573d6000803e3d6000fd5b505050506040513d601f19601f8201168201806040525081019061194e919061567a565b90507f4b5237f428d31406cf0f93a4ab5fd11482f2fe9a1420271368d67e83496346c485858481811061198357611983615664565b90506020020160208101906119989190614c85565b604080516001600160a01b039092168252602082018490520160405180910390a16119c38184615579565b92505080806119d190615693565b9150506118ba565b50611a076119ef6001546001600160a01b031690565b60d55461010090046001600160a01b0316908361234a565b505050565b600082815260d4602052604081208190611a2890846064612888565b909590945092505050565b60d554600090819060ff1615611a5c576040516313d0ff5960e31b815260040160405180910390fd5b600085815260d46020526040902080546001600160a01b03163314611a9657604051630504a20d60e01b8152336004820152602401610abd565b6000611aa186612298565b9050611ab36080860160608701614c85565b6001600160a01b031615611aea57611aea81611ad56080880160608901614c85565b611ae560a0890160808a016156ae565b6128de565b6040516349e373d360e01b81527312858C66B0e9744f933b9e2cC8Eea50A975D2e80906349e373d390611b2890859085908a906064906004016156da565b6040805180830381865af4158015611b44573d6000803e3d6000fd5b505050506040513d601f19601f82011682018060405250810190611b68919061553f565b90945092506000611b7c8286866064612980565b606b54909150811015610db9576040516312b6b5cd60e11b815260048101829052602401610abd565b6001546001600160a01b03163314801590611bd257506000546001600160a01b0362010000909104163314155b15611bf057604051636bd1573560e11b815260040160405180910390fd5b604080516060810182526001600160a01b038086168252938416602080830191825263ffffffff9485168385019081529685166000908152606590915292909220905181549085166001600160a01b0319909116178155905160019190910180549451909216600160a01b026001600160c01b0319909416921691909117919091179055565b6000818015611cad576000611c8961237a565b5a611c949190615579565b9050611ca060a4612432565b61141c88888888886125b3565b611cb760a4612432565b61148887878787876125b3565b60606000611cd1846129c0565b90508067ffffffffffffffff811115611cec57611cec614d35565b604051908082528060200260200182016040528015611d3157816020015b6040805180820190915260008082526020820152815260200190600190039081611d0a5790505b50915060005b81811015611e3e57600184016000868360088110611d5757611d57615664565b60088104919091015460079091166004026101000a900463ffffffff16815260208101919091526040016000205483516001600160a01b0390911690849083908110611da557611da5615664565b60209081029190910101516001600160a01b039091169052600185016000868360088110611dd557611dd5615664565b600891828204019190066004029054906101000a900463ffffffff1663ffffffff1663ffffffff16815260200190815260200160002054838281518110611e1e57611e1e615664565b602090810291909101810151015280611e3681615693565b915050611d37565b505092915050565b600381015463ffffffff16600090815260028301602052604081205490606090611e72600186016129c0565b90508067ffffffffffffffff811115611e8d57611e8d614d35565b604051908082528060200260200182016040528015611ef957816020015b611ee66040518060a0016040528060006001600160a01b03168152602001600081526020016000815260200160008152602001606081525090565b815260200190600190039081611eab5790505b50915060005b8181101561217d57846002016000876001018360088110611f2257611f22615664565b60088104919091015460079091166004026101000a900463ffffffff16815260208101919091526040016000205483516001600160a01b0390911690849083908110611f7057611f70615664565b60209081029190910101516001600160a01b039091169052600286016000600188018360088110611fa357611fa3615664565b600891828204019190066004029054906101000a900463ffffffff1663ffffffff1663ffffffff16815260200190815260200160002060000154838281518110611fef57611fef615664565b6020026020010151602001818152505085600201600087600101836008811061201a5761201a615664565b600891828204019190066004029054906101000a900463ffffffff1663ffffffff1663ffffffff1681526020019081526020016000206001015483828151811061206657612066615664565b6020026020010151604001818152505085600201600087600101836008811061209157612091615664565b600891828204019190066004029054906101000a900463ffffffff1663ffffffff1663ffffffff168152602001908152602001600020600201548382815181106120dd576120dd615664565b6020026020010151606001818152505061214986600201600088600101846008811061210b5761210b615664565b600891828204019190066004029054906101000a900463ffffffff1663ffffffff1663ffffffff168152602001908152602001600020600301612a2a565b83828151811061215b5761215b615664565b602002602001015160800181905250808061217590615693565b915050611eff565b50509250929050565b6001600160a01b0390811691161490565b63ffffffff8082166000908152606560205260408120916121ba918391612fae16565b156121e05760405163b087c8c360e01b815263ffffffff83166004820152602401610abd565b80546001600160a01b0316600090815260d2602052604090205460ff1661222857805460405163340e1b9160e21b81526001600160a01b039091166004820152602401610abd565b919050565b6040516001600160a01b03808516602483015283166044820152606481018290526116849085906323b872dd60e01b906084015b60408051601f198184030181529190526020810180516001600160e01b03166001600160e01b031990931692909217909152612fc1565b63ffffffff8082166000908152606660205260408120546001600160a01b0316916122c591839161218616565b156122eb5760405163b087c8c360e01b815263ffffffff83166004820152602401610abd565b6001600160a01b038116600090815260d1602052604090205460ff1661222857604051631079472960e21b81526001600160a01b0382166004820152602401610abd565b600080821361234657612341826157ac565b61104a565b5090565b6040516001600160a01b038316602482015260448101829052611a0790849063a9059cbb60e01b90606401612261565b60408051600481526024810182526020810180516001600160e01b031663a94597ff60e01b1790529051600091829182916064916123b891906157f5565b600060405180830381855afa9150503d80600081146123f3576040519150601f19603f3d011682016040523d82523d6000602084013e6123f8565b606091505b509150915081158061240957508051155b156124175760009250505090565b8080602001905181019061242b919061567a565b9250505090565b36811061245b57604051634219202560e01b815236600482015260248101829052604401610abd565b50565b60d55460009060ff1615612485576040516313d0ff5960e31b815260040160405180910390fd5b600083815260d460205260408120907312858C66B0e9744f933b9e2cC8Eea50A975D2e806379452b23836124b887613093565b6040516001600160e01b031960e085901b16815260048101929092526024820152606460448201819052016040805180830381865af41580156124ff573d6000803e3d6000fd5b505050506040513d601f19601f82011682018060405250810190612523919061553f565b909350905060006125348285615811565b60d5549091506125539061010090046001600160a01b0316338661234a565b61255c826131ac565b6040805187815233602082015290810182905260608101859052608081018390527f914a6aef8c0c1a591157ee7d71dfbd71d1d7df090d3ec047f8eac01fc21b2f439060a00160405180910390a150505092915050565b60d55460009060ff16156125da576040516313d0ff5960e31b815260040160405180910390fd5b600086815260d460205260408120906125f287612298565b90506125fd84613093565b606a5461260a9190615579565b6040516343c74e9360e01b8152600481018490526001600160a01b0383166024820152600288810b604483015287900b6064808301919091526084820183905260a48201529093507312858C66B0e9744f933b9e2cC8Eea50A975D2e80906343c74e939060c40160006040518083038186803b15801561268957600080fd5b505af415801561269d573d6000803e3d6000fd5b505060d5546126be925061010090046001600160a01b03169050338561234a565b505095945050505050565b6126ed60405180606001604052806000815260200160008152602001600081525090565b60d55460ff1615612711576040516313d0ff5960e31b815260040160405180910390fd5b6127108361ffff161115612738576040516348d69f3560e01b815260040160405180910390fd5b600085815260d4602052604081209061275086612298565b600089815260d460205260408120919250907312858C66B0e9744f933b9e2cC8Eea50A975D2e809063487e8af1908590898661278b8b613093565b60646040518763ffffffff1660e01b81526004016127de96959493929190958652602086019490945261ffff9290921660408501526001600160a01b03166060840152608083015260a082015260c00190565b608060405180830381865af41580156127fb573d6000803e3d6000fd5b505050506040513d601f19601f8201168201806040525081019061281f9190615852565b9450905061282c816131ac565b50505095945050505050565b3361245b818061323d565b600061286961285b6001600160a01b03851684613345565b6001600160a01b03166133d7565b9392505050565b600061286961285b6001600160a01b03851684613453565b6000806128958584613491565b91506128a9600186018560028601866134bd565b600286015490915063ffffffff16156128d657826005015481126128cd57806128d3565b82600501545b90505b935093915050565b60006128f46001600160a01b0385166064613612565b90506000836001600160a01b0316826001600160a01b0316116129205761291b82856158cb565b61292a565b61292a84836158cb565b905061271061293d8561ffff86166158f3565b6129479190615938565b6001600160a01b0316816001600160a01b03161115612979576040516307a1db0760e01b815260040160405180910390fd5b5050505050565b600061298b8361232f565b6129b66129a16001600160a01b03881685612870565b600160801b6129af8861232f565b9190613638565b6112699190615811565b6000805b60088160ff161015612a2157828160ff16600881106129e5576129e5615664565b60088104919091015460079091166004026101000a900463ffffffff16612a0f5760ff1692915050565b80612a198161595e565b9150506129c4565b50600892915050565b60606000612a378361367a565b90508067ffffffffffffffff811115612a5257612a52614d35565b604051908082528060200260200182016040528015612ae257816020015b612acf6040805161012081019091528060008152602001600060020b8152602001600060020b815260200160006001600160801b0316815260200160008152602001600081526020016000815260200160008152602001600081525090565b815260200190600190039081612a705790505b50915060005b81811015612fa757600184016000858360058110612b0857612b08615664565b600580820492909201549190066006026101000a900465ffffffffffff168152602081019190915260400160002054835160ff90911690849083908110612b5157612b51615664565b6020026020010151600001906002811115612b6e57612b6e614aab565b90816002811115612b8157612b81614aab565b905250600184016000858360058110612b9c57612b9c615664565b600591828204019190066006029054906101000a900465ffffffffffff1665ffffffffffff1665ffffffffffff16815260200190815260200160002060000160019054906101000a900460020b838281518110612bfb57612bfb615664565b60209081029190910181015160029290920b910152600184016000858360058110612c2857612c28615664565b600591828204019190066006029054906101000a900465ffffffffffff1665ffffffffffff1665ffffffffffff16815260200190815260200160002060000160049054906101000a900460020b838281518110612c8757612c87615664565b602090810291909101015160029190910b604090910152600184016000858360058110612cb657612cb6615664565b600591828204019190066006029054906101000a900465ffffffffffff1665ffffffffffff1665ffffffffffff16815260200190815260200160002060000160079054906101000a90046001600160801b0316838281518110612d1b57612d1b615664565b60209081029190910101516001600160801b03909116606090910152600184016000858360058110612d4f57612d4f615664565b600591828204019190066006029054906101000a900465ffffffffffff1665ffffffffffff1665ffffffffffff16815260200190815260200160002060010154838281518110612da157612da1615664565b602090810291909101015160800152600184016000858360058110612dc857612dc8615664565b600591828204019190066006029054906101000a900465ffffffffffff1665ffffffffffff1665ffffffffffff16815260200190815260200160002060020154838281518110612e1a57612e1a615664565b602090810291909101015160a00152600184016000858360058110612e4157612e41615664565b600591828204019190066006029054906101000a900465ffffffffffff1665ffffffffffff1665ffffffffffff16815260200190815260200160002060030154838281518110612e9357612e93615664565b602090810291909101015160c00152600184016000858360058110612eba57612eba615664565b600591828204019190066006029054906101000a900465ffffffffffff1665ffffffffffff1665ffffffffffff16815260200190815260200160002060040154838281518110612f0c57612f0c615664565b602090810291909101015160e00152600184016000858360058110612f3357612f33615664565b600591828204019190066006029054906101000a900465ffffffffffff1665ffffffffffff1665ffffffffffff16815260200190815260200160002060050154838281518110612f8557612f85615664565b6020908102919091010151610100015280612f9f81615693565b915050612ae8565b5050919050565b90546001600160a01b0391821691161490565b6000613016826040518060400160405280602081526020017f5361666545524332303a206c6f772d6c6576656c2063616c6c206661696c6564815250856001600160a01b03166136f19092919063ffffffff16565b805190915015611a075780806020019051810190613034919061597e565b611a075760405162461bcd60e51b815260206004820152602a60248201527f5361666545524332303a204552433230206f7065726174696f6e20646964206e6044820152691bdd081cdd58d8d9595960b21b6064820152608401610abd565b60003a61013d548111156130c95761013d54604051638dfe587d60e01b8152610abd918391600401918252602082015260400190565b8215806130df575060d8546001600160a01b0316155b156130ed57600091506131a6565b600033321415613102576130ff613700565b90505b600061310e3a8661599b565b60d854604051630e56d76760e31b815261012c6004820152919250600091613184916001600160a01b0316906372b6bb3890602401602060405180830381865afa158015613160573d6000803e3d6000fd5b505050506040513d601f19601f8201168201806040525081019061285b91906159ba565b90506131a081600160801b6131998587615579565b919061373e565b94505050505b50919050565b60008113156131d75760d75460d55461245b916001600160a01b03610100909204821691168361234a565b60d7546001600160a01b031663379607f56131f1836157ac565b6040518263ffffffff1660e01b815260040161320f91815260200190565b600060405180830381600087803b15801561322957600080fd5b505af1158015612979573d6000803e3d6000fd5b600054610100900460ff1680613256575060005460ff16155b6132725760405162461bcd60e51b8152600401610abd90615616565b600054610100900460ff16158015613294576000805461ffff19166101011790555b6000805462010000600160b01b031916620100006001600160a01b0386169081029190911782556040519091907f5f56bee8cffbe9a78652a74a60705edede02af10b0bbb888ca44b79a0d42ce80908290a3600180546001600160a01b0319166001600160a01b0384169081179091556040516000907f39355f2f5c8206286978f443aa8126bbd29fa09c53c04569502647f3a59c8cb2908290a38015611a07576000805461ff0019169055505050565b6001600160a01b03828116600090815260208390526040808220600201549051630e56d76760e31b8152600160201b820463ffffffff1660048201529192600160481b90910416906372b6bb3890602401602060405180830381865afa1580156133b3573d6000803e3d6000fd5b505050506040513d601f19601f8201168201806040525081019061286991906159ba565b60006401000276a36001600160a01b0383161080613412575073fffd8963efd1fc6a506488495d951d5263988d266001600160a01b03831610155b1561343b57604051635d236c4560e01b81526001600160a01b0383166004820152602401610abd565b61104a6001600160a01b03831680600160401b61373e565b6001600160a01b03808316600090815260208390526040812060028101549054919261286992169063ffffffff600160201b9091048116906137ec16565b60006134a460018401600284018461380d565b90506134b3606884018361391b565b6128699082615811565b600080808080805b60088160ff1610156135f057896001018160ff16600881106134e9576134e9615664565b60088104919091015460079091166004026101000a900463ffffffff1661350f576135f0565b60008860008c6001018460ff166008811061352c5761352c615664565b60088104919091015460079091166004026101000a900463ffffffff90811682526020820192909252604001600020546001600160a01b03169150613579908c908c9084908c906139e116565b6001600160a01b038316600090815260208b905260409020600201549195509350600160401b900460ff16156135c6576135b38487615811565b95506135bf8386615811565b94506135dd565b6135d08484613a9c565b6135da9088615811565b96505b50806135e88161595e565b9150506134c5565b506135fb8484613a9c565b6136059086615811565b9998505050505050505050565b6001600160a01b0380831660009081526020839052604081205490916128699116613aad565b600061365e6000851261364b5784613657565b613657856000196159d7565b848461373e565b9050600084121561286957613672816157ac565b949350505050565b6000805b60058160ff1610156136e857828160ff166005811061369f5761369f615664565b600591828204019190066006029054906101000a900465ffffffffffff1665ffffffffffff16600014156136d65760ff1692915050565b806136e08161595e565b91505061367e565b50600592915050565b60606136728484600085613b37565b60408051600481526024810182526020810180516001600160e01b031663637bef0760e11b1790529051600091829182916064916123b891906157f5565b600080806000198587098587029250828110838203039150508060001415613778576000841161376d57600080fd5b508290049050612869565b80841161378457600080fd5b600084868809851960019081018716968790046003810260029081188083028203028083028203028083028203028083028203028083028203029182029003026000889003889004909101858311909403939093029303949094049190911702949350505050565b6000806138026001600160a01b03851684613c5f565b905061103381613e7b565b6000805b60088160ff1610156138f4576000856001018260ff166008811061383757613837615664565b60088104919091015460079091166004026101000a900463ffffffff1690508061386157506138f4565b63ffffffff8082166000908152602087815260408083205460028b019092529091206001600160a01b039091169161389f908290849089906141ad16565b6138a99086615811565b945060006138c06001600160a01b03841688613453565b90506138d16003830182858a6141d1565b6138db9087615811565b95505050505080806138ec9061595e565b915050613811565b50600382015463ffffffff1660009081526002850160205260409020546136729082615811565b60008060005b60088160ff1610156139d95760008560ff83166008811061394457613944615664565b60088104919091015460079091166004026101000a900463ffffffff1690508061396e57506139d9565b63ffffffff8116600090815260018601602052604090206139b8613991826141fe565b63ffffffff808516600090815260018b0160205260409020549190600160801b9061363816565b6139c29085615811565b9350505080806139d19061595e565b915050613921565b509392505050565b63ffffffff8083166000908152600286016020526040812090918291908290613a17906001600160a01b03881690879061287016565b90506000613a2f6001600160a01b038816898861420c565b83549091506000613a4260038601614266565b9050613a6b61ffff8416620186a06129af87600160801b82613a64888a615811565b6000613a9c565b9650613a8c61ffff8416620186a06129af87600160801b82613a64896157ac565b9550505050505094509492505050565b6000818313156131a657508161104a565b600080826001600160a01b0316633850c7bd6040518163ffffffff1660e01b815260040160e060405180830381865afa158015613aee573d6000803e3d6000fd5b505050506040513d601f19601f82011682018060405250810190613b129190615a5c565b509496509294505050506001600160a01b038316151590506131a65761286981613e7b565b606082471015613b985760405162461bcd60e51b815260206004820152602660248201527f416464726573733a20696e73756666696369656e742062616c616e636520666f6044820152651c8818d85b1b60d21b6064820152608401610abd565b843b613be65760405162461bcd60e51b815260206004820152601d60248201527f416464726573733a2063616c6c20746f206e6f6e2d636f6e74726163740000006044820152606401610abd565b600080866001600160a01b03168587604051613c0291906157f5565b60006040518083038185875af1925050503d8060008114613c3f576040519150601f19603f3d011682016040523d82523d6000602084013e613c44565b606091505b5091509150613c548282866142e1565b979650505050505050565b600063ffffffff8216613c88576040516351a4d88160e01b815260006004820152602401610abd565b6040805160028082526060820183526000926020830190803683370190505090508281600081518110613cbd57613cbd615664565b602002602001019063ffffffff16908163ffffffff1681525050600081600181518110613cec57613cec615664565b63ffffffff9092166020928302919091019091015260405163883bdbfd60e01b81526001600160a01b0385169063883bdbfd90613d2d908490600401615afe565b600060405180830381865afa925050508015613d6b57506040513d6000823e601f3d908101601f19168201604052613d689190810190615bab565b60015b613de057836001600160a01b0316633850c7bd6040518163ffffffff1660e01b815260040160e060405180830381865afa158015613dad573d6000803e3d6000fd5b505050506040513d601f19601f82011682018060405250810190613dd19190615a5c565b50939650611036945050505050565b600082600081518110613df557613df5615664565b602002602001015183600181518110613e1057613e10615664565b6020026020010151613e229190615c77565b90506000613e3663ffffffff881683615cc7565b905060008260060b128015613e5c5750613e5663ffffffff881683615d05565b60060b15155b15613e6f5780613e6b81615d27565b9150505b945061104a9350505050565b60008060008360020b12613e92578260020b613e9a565b8260020b6000035b9050620d89e8811115613ed35760405162461bcd60e51b81526020600482015260016024820152601560fa1b6044820152606401610abd565b600060018216613ee757600160801b613ef9565b6ffffcb933bd6fad37aa2d162d1a5940015b70ffffffffffffffffffffffffffffffffff1690506002821615613f2d576ffff97272373d413259a46990580e213a0260801c5b6004821615613f4c576ffff2e50f5f656932ef12357cf3c7fdcc0260801c5b6008821615613f6b576fffe5caca7e10e4e61c3624eaa0941cd00260801c5b6010821615613f8a576fffcb9843d60f6159c9db58835c9266440260801c5b6020821615613fa9576fff973b41fa98c081472e6896dfb254c00260801c5b6040821615613fc8576fff2ea16466c96a3843ec78b326b528610260801c5b6080821615613fe7576ffe5dee046a99a2a811c461f1969c30530260801c5b610100821615614007576ffcbe86c7900a88aedcffc83b479aa3a40260801c5b610200821615614027576ff987a7253ac413176f2b074cf7815e540260801c5b610400821615614047576ff3392b0822b70005940c7a398e4b70f30260801c5b610800821615614067576fe7159475a2c29b7443b29c7fa6e889d90260801c5b611000821615614087576fd097f3bdfd2022b8845ad8f792aa58250260801c5b6120008216156140a7576fa9f746462d870fdf8a65dc1f90e061e50260801c5b6140008216156140c7576f70d869a156d2a1b890bb3df62baf32f70260801c5b6180008216156140e7576f31be135f97d08fd981231505542fcfa60260801c5b62010000821615614108576f09aa508b5b7a84e1c677de54f3e99bc90260801c5b62020000821615614128576e5d6af8dedb81196699c329225ee6040260801c5b62040000821615614147576d2216e584f5fa1ea926041bedfe980260801c5b62080000821615614164576b048a170391f7dc42444e8fa20260801c5b60008460020b131561418557806000198161418157614181615922565b0490505b600160201b81061561419857600161419b565b60005b60ff16602082901c0192505050919050565b6000806141c36001600160a01b03851684612870565b90506112698585838661431a565b6001600160a01b038281166000908152602083905260408120600101549091611269918791879116614347565b600061104a61285b836143e3565b6000821561423a57506001600160a01b03831660009081526020829052604090206002015461ffff16612869565b506001600160a01b03831660009081526020829052604090206002015462010000900461ffff16612869565b6000805b60058110156131a657600083826005811061428757614287615664565b600580820492909201549190066006026101000a900465ffffffffffff16600081815260018601602052604090209091506142c190614475565b6142cb9084615579565b92505080806142d990615693565b91505061426a565b606083156142f0575081612869565b8251156143005782518084602001fd5b8160405162461bcd60e51b8152600401610abd9190615d4b565b6001600160a01b0383811660009081526020839052604081206001015490916112699187918691166144cc565b6000805b60058110156139d957600085826005811061436857614368615664565b600591828204019190066006029054906101000a900465ffffffffffff1690508065ffffffffffff166000141561439f57506139d9565b65ffffffffffff8116600090815260018701602052604090206143c39086866144f6565b6143cd9084615811565b92505080806143db90615693565b91505061434b565b60006143f982600101546001600160a01b031690565b6001830154604051630e56d76760e31b8152600160a01b90910463ffffffff1660048201526001600160a01b0391909116906372b6bb3890602401602060405180830381865afa158015614451573d6000803e3d6000fd5b505050506040513d601f19601f8201168201806040525081019061104a91906159ba565b8054600090819061448d90610100900460020b613e7b565b83549091506000906144a890600160201b900460020b613e7b565b84549091506136729083908390600160381b90046001600160801b0316600161460f565b82546000906144e09084600160801b613638565b90506144ec84836146c4565b6136729082615811565b600080806145048686614749565b91509150600061451c866001600160a01b03166133d7565b90508161452e8483600160801b613638565b6145389190615811565b875460405163154cd3c960e11b81526101008204600290810b6004830152600160201b90920490910b6024820152909450600093506001600160a01b0386169250632a99a7929150604401608060405180830381865afa1580156145a0573d6000803e3d6000fd5b505050506040513d601f19601f820116820180604052508101906145c49190615d7e565b90506145e56145e082606001518761481390919063ffffffff16565b614843565b6145ef9083615811565b8151604083015191935061460591879190614855565b6112699083615811565b6000836001600160a01b0316856001600160a01b0316111561462f579293925b6fffffffffffffffffffffffffffffffff60601b606084901b166001600160a01b03868603811690871661466257600080fd5b8361469857866001600160a01b03166146858383896001600160a01b031661373e565b8161469257614692615922565b04613c54565b613c546146af8383896001600160a01b031661488f565b886001600160a01b0316808204910615150190565b600080826001600160a01b031663a3a1e7e96040518163ffffffff1660e01b8152600401602060405180830381865afa158015614705573d6000803e3d6000fd5b505050506040513d601f19601f82011682018060405250810190614729919061567a565b9050600061474082866002015487600101546148cf565b611269906157ac565b81546000908190819061476390610100900460020b613e7b565b855490915060009061477e90600160201b900460020b613e7b565b9050846001600160a01b03808416908216101561479c5750816147b9565b816001600160a01b0316866001600160a01b031611156147b95750805b86546147de906145e09083908590600160381b90046001600160801b0316600061460f565b94506148076145e084838a60000160079054906101000a90046001600160801b031660006148ea565b93505050509250929050565b8154600583015460009161286991600160381b9091046001600160801b031690600160801b906131999086615591565b6000600160ff1b821061234657600080fd5b60028301546003840154600485015485546000936148869387938793600160381b90046001600160801b031661495a565b613672906157ac565b600061489c84848461373e565b9050600082806148ae576148ae615922565b84860911156128695760001981106148c557600080fd5b6001019392505050565b60006136726148de8486615de4565b8390600160801b614982565b6000836001600160a01b0316856001600160a01b0316111561490a579293925b8161493757614932836001600160801b03168686036001600160a01b0316600160601b61373e565b611269565b611269836001600160801b03168686036001600160a01b0316600160601b61488f565b6000613c5482600160801b6149718888888d614a13565b61497b908a615de4565b9190614a38565b60006001818080808812156149a45792159261499d886157ac565b92506149a8565b8792505b60008712156149c4579215926149bd876157ac565b91506149c8565b8691505b60008612156149e7579215926149e0866000196159d7565b90506149ea565b50845b6149f583838361373e565b945083614a0857614a05856157ac565b94505b505050509392505050565b6000614a2e614a228684615de4565b8590600160801b614982565b6112699084615811565b6000614a45848484613638565b905060008112156128695761367260001982615811565b801515811461245b57600080fd5b803561222881614a5c565b600060208284031215614a8757600080fd5b813561286981614a5c565b600060208284031215614aa457600080fd5b5035919050565b634e487b7160e01b600052602160045260246000fd5b60038110614adf57634e487b7160e01b600052602160045260246000fd5b9052565b6000608080830160018060a01b038089168552602088818701526040848188015283895180865260a089019150838b01955060005b81811015614b3f578651805187168452850151858401529584019591830191600101614b18565b5050878103606089015288518082528382019550600581901b82018401848b0160005b83811015614c5c57848303601f19018952815180518916845287810151888501528681015187850152606080820151908501528a015160a08b850181905281519085018190529088019060009060c08601905b80831015614c47578351614bca838251614ac1565b8b8101518060020b8d850152508a81015160020b8b8401526060810151614bfc60608501826001600160801b03169052565b508e8101518f84015260a081015160a084015260c081015160c084015260e081015160e084015261010080820151818501525050610120820191508a84019350600183019250614bb5565b509a89019a9450505090860190600101614b62565b50909e9d5050505050505050505050505050565b6001600160a01b038116811461245b57600080fd5b600060208284031215614c9757600080fd5b813561286981614c70565b600060e082840312156131a657600080fd5b6000806101008385031215614cc857600080fd5b8235614cd381614c70565b9150614ce28460208501614ca2565b90509250929050565b63ffffffff8116811461245b57600080fd5b600080600060608486031215614d1257600080fd5b833592506020840135614d2481614ceb565b929592945050506040919091013590565b634e487b7160e01b600052604160045260246000fd5b604051601f8201601f1916810167ffffffffffffffff81118282101715614d7457614d74614d35565b604052919050565b803561222881614c70565b600080600083850360c0811215614d9d57600080fd5b843593506020850135614daf81614ceb565b92506080603f1982011215614dc357600080fd5b506040516080810181811067ffffffffffffffff82111715614de757614de7614d35565b604090815285013581526060850135614dff81614c70565b60208201526080850135614e1281614a5c565b604082015260a0850135614e2581614a5c565b606082015292959194509192509050565b60008060408385031215614e4957600080fd5b8235614e5481614c70565b91506020830135614e6481614a5c565b809150509250929050565b60008060408385031215614e8257600080fd5b50508035926020909101359150565b600060208284031215614ea357600080fd5b813561286981614ceb565b60008060008084860360c0811215614ec557600080fd5b6060811215614ed357600080fd5b509395606087013595506080870135945060a08701359350915050565b8060020b811461245b57600080fd5b60008060008060808587031215614f1557600080fd5b843593506020850135614f2781614ceb565b92506040850135614f3781614ef0565b91506060850135614f4781614ef0565b939692955090935050565b61ffff8116811461245b57600080fd5b803561222881614f52565b60008060008060808587031215614f8357600080fd5b84359350602085013592506040850135614f9c81614ceb565b91506060850135614f4781614f52565b600080600080600060a08688031215614fc457600080fd5b85359450602086013593506040860135614fdd81614ceb565b92506060860135614fed81614f52565b949793965091946080013592915050565b600080600080600060a0868803121561501657600080fd5b853561502181614c70565b9450602086013561503181614c70565b9350604086013561504181614c70565b9250606086013561505181614c70565b9150608086013561506181614c70565b809150509295509295909350565b60008082840360c081121561508357600080fd5b833561508e81614c70565b925060a0601f19820112156150a257600080fd5b506020830190509250929050565b600067ffffffffffffffff8211156150ca576150ca614d35565b5060051b60200190565b600060208083850312156150e757600080fd5b823567ffffffffffffffff8111156150fe57600080fd5b8301601f8101851361510f57600080fd5b803561512261511d826150b0565b614d4b565b81815260059190911b8201830190838101908783111561514157600080fd5b928401925b82841015613c5457833582529284019290840190615146565b6020808252825182820181905260009190848201906040850190845b818110156151975783518352928401929184019160010161517b565b50909695505050505050565b600080602083850312156151b657600080fd5b823567ffffffffffffffff808211156151ce57600080fd5b818501915085601f8301126151e257600080fd5b8135818111156151f157600080fd5b8660208260051b850101111561520657600080fd5b60209290920196919550909350505050565b6000806040838503121561522b57600080fd5b823591506020830135614e6481614a5c565b6000806000610120848603121561525357600080fd5b83359250602084013561526581614ceb565b91506152748560408601614ca2565b90509250925092565b60008060006060848603121561529257600080fd5b833561529d81614c70565b925060208401356152ad81614c70565b915060408401356152bd81614ceb565b809150509250925092565b600080600080600060a086880312156152e057600080fd5b8535945060208601356152f281614ceb565b9350604086013561530281614ef0565b92506060860135614fed81614ef0565b634e487b7160e01b600052600160045260246000fd5b80546001600160a01b0319166001600160a01b0392909216919091179055565b6000813561104a81614c70565b80547fffffff0000000000000000000000000000000000000000ffffffffffffffffff1660489290921b6901000000000000000000600160e81b0316919091179055565b81356153a481614f52565b815461ffff191661ffff82161782555060208201356153c281614f52565b815463ffff00001916601082901b63ffff0000161782555060408201356153e881614ceb565b815467ffffffff000000008260201b1691508167ffffffff00000000198216178355606084013561541881614a5c565b68ffffffffff00000000199190911690911790151560401b60ff60401b16178155608082013561544781614c70565b611a078183615355565b813561545c81614c70565b6154668183615328565b50602082013561547581614c70565b6154828160018401615328565b5060028101604083013561549581614f52565b815461ffff191661ffff82161782555060608301356154b381614f52565b815463ffff00001916601082901b63ffff0000161782555060808301356154d981614ceb565b815467ffffffff000000008260201b1691508167ffffffff0000000019821617835560a085013561550981614a5c565b68ffffffffff00000000199190911690911790151560401b60ff60401b16178155611a0761553960c08501615348565b82615355565b6000806040838503121561555257600080fd5b505080516020909101519092909150565b634e487b7160e01b600052601160045260246000fd5b6000821982111561558c5761558c615563565b500190565b6000828210156155a3576155a3615563565b500390565b81356155b381614f52565b815461ffff191661ffff82161782555060208201356155d181614f52565b815463ffff00001916601082901b63ffff0000161782555060408201356155f781614f52565b815465ffff00000000191660209190911b65ffff000000001617905550565b6020808252602e908201527f496e697469616c697a61626c653a20636f6e747261637420697320616c72656160408201526d191e481a5b9a5d1a585b1a5e995960921b606082015260800190565b634e487b7160e01b600052603260045260246000fd5b60006020828403121561568c57600080fd5b5051919050565b60006000198214156156a7576156a7615563565b5060010190565b6000602082840312156156c057600080fd5b813561286981614f52565b80356003811061222857600080fd5b8481526001600160a01b0384166020820152610140810183356156fc81614ef0565b60020b6040830152602084013561571281614ef0565b60020b60608301526040840135600f81900b811461572f57600080fd5b61573e6080840182600f0b9052565b5061574b60608501614d7c565b6001600160a01b031660a083015261576560808501614f62565b61ffff1660c083015261577a60a08501614a6a565b151560e083015261578d60c085016156cb565b61579b610100840182614ac1565b508261012083015295945050505050565b6000600160ff1b8214156157c2576157c2615563565b5060000390565b60005b838110156157e45781810151838201526020016157cc565b838111156116845750506000910152565b600082516158078184602087016157c9565b9190910192915050565b600080821280156001600160ff1b038490038513161561583357615833615563565b600160ff1b839003841281161561584c5761584c615563565b50500190565b600080828403608081121561586657600080fd5b835192506060601f198201121561587c57600080fd5b506040516060810181811067ffffffffffffffff821117156158a0576158a0614d35565b8060405250602084015181526040840151602082015260608401516040820152809150509250929050565b60006001600160a01b03838116908316818110156158eb576158eb615563565b039392505050565b60006001600160a01b038281168482168115158284048211161561591957615919615563565b02949350505050565b634e487b7160e01b600052601260045260246000fd5b60006001600160a01b038381168061595257615952615922565b92169190910492915050565b600060ff821660ff81141561597557615975615563565b60010192915050565b60006020828403121561599057600080fd5b815161286981614a5c565b60008160001904831182151516156159b5576159b5615563565b500290565b6000602082840312156159cc57600080fd5b815161286981614c70565b60006001600160ff1b03818413828413808216868404861116156159fd576159fd615563565b600160ff1b6000871282811687830589121615615a1c57615a1c615563565b60008712925087820587128484161615615a3857615a38615563565b87850587128184161615615a4e57615a4e615563565b505050929093029392505050565b600080600080600080600060e0888a031215615a7757600080fd5b8751615a8281614c70565b6020890151909750615a9381614ef0565b6040890151909650615aa481614f52565b6060890151909550615ab581614f52565b6080890151909450615ac681614f52565b60a089015190935060ff81168114615add57600080fd5b60c0890151909250615aee81614a5c565b8091505092959891949750929550565b6020808252825182820181905260009190848201906040850190845b8181101561519757835163ffffffff1683529284019291840191600101615b1a565b600082601f830112615b4d57600080fd5b81516020615b5d61511d836150b0565b82815260059290921b84018101918181019086841115615b7c57600080fd5b8286015b84811015615ba0578051615b9381614c70565b8352918301918301615b80565b509695505050505050565b60008060408385031215615bbe57600080fd5b825167ffffffffffffffff80821115615bd657600080fd5b818501915085601f830112615bea57600080fd5b81516020615bfa61511d836150b0565b82815260059290921b84018101918181019089841115615c1957600080fd5b948201945b83861015615c475785518060060b8114615c385760008081fd5b82529482019490820190615c1e565b91880151919650909350505080821115615c6057600080fd5b50615c6d85828601615b3c565b9150509250929050565b60008160060b8360060b6000811281667fffffffffffff1901831281151615615ca257615ca2615563565b81667fffffffffffff018313811615615cbd57615cbd615563565b5090039392505050565b60008160060b8360060b80615cde57615cde615922565b667fffffffffffff19821460001982141615615cfc57615cfc615563565b90059392505050565b60008260060b80615d1857615d18615922565b808360060b0791505092915050565b60008160020b627fffff19811415615d4157615d41615563565b6000190192915050565b6020815260008251806020840152615d6a8160408501602087016157c9565b601f01601f19169190910160400192915050565b600060808284031215615d9057600080fd5b6040516080810181811067ffffffffffffffff82111715615db357615db3614d35565b8060405250825181526020830151602082015260408301516040820152606083015160608201528091505092915050565b60008083128015600160ff1b850184121615615e0257615e02615563565b6001600160ff1b0384018313811615615e1d57615e1d615563565b5050039056fea164736f6c634300080a000a",
  "deployedBytecode": "0x608060405234801561001057600080fd5b50600436106102a05760003560e01c80637cc2f4f511610167578063b7902303116100ce578063e1f1671311610087578063e1f167131461079e578063e67ed1df146107b1578063eb7c987d146107c4578063ee6cd5ee1461086f578063fcd0a50614610882578063fe6f083a1461089557600080fd5b8063b790230314610721578063d257be2b14610734578063d38bfff414610747578063dac42a961461075a578063dbc0c0851461076d578063dbd035ff1461077e57600080fd5b806394c8c71d1161012057806394c8c71d1461064557806398f5c527146106585780639dca362f1461066b578063a26f7ca714610673578063a4063dbc14610686578063a5cf76881461070957600080fd5b80637cc2f4f5146105285780637ec6ba311461053b5780637f64d6631461054e57806384088b65146105615780638ce25a931461059657806393420cf41461059f57600080fd5b80633fc42d801161020b5780635aa6e675116101c45780635aa6e675146104a85780635c318ad9146104bf5780635c975abb146104d257806364f36801146104df57806373cceb9d146104f25780637938d8a31461051557600080fd5b80633fc42d80146103d157806342be9fca1461040457806343233d2e146104175780634e10b6e3146104465780635616847614610469578063569634d31461049557600080fd5b80632a66e9ca1161025d5780632a66e9ca1461034a5780632afaea371461035d57806332a72d981461037057806336fadead1461039857806339359029146103ab5780633d56a35e146103be57600080fd5b8063127fec13146102a557806316c38b3c146102d55780631a1feae1146102ea5780631e2eaeaf1461030257806321df4c0e14610314578063261f806714610337575b600080fd5b60d8546102b8906001600160a01b031681565b6040516001600160a01b0390911681526020015b60405180910390f35b6102e86102e3366004614a75565b6108a8565b005b6102f461013d5481565b6040519081526020016102cc565b6102f4610310366004614a92565b5490565b610327610322366004614a92565b610906565b6040516102cc9493929190614ae3565b6102e8610345366004614c85565b610951565b6102e8610358366004614cb4565b6109a0565b6102e861036b366004614cfd565b610a63565b61038361037e366004614d87565b610bcb565b604080519283526020830191909152016102cc565b6102e86103a6366004614e36565b610dc4565b6102e86103b9366004614cfd565b610e3a565b60d6546102b8906001600160a01b031681565b6103f46103df366004614c85565b60d26020526000908152604090205460ff1681565b60405190151581526020016102cc565b6102f4610412366004614e6f565b610f96565b6102b8610425366004614e91565b63ffffffff166000908152606660205260409020546001600160a01b031690565b6103f4610454366004614c85565b60d06020526000908152604090205460ff1681565b6103f4610477366004614c85565b6001600160a01b0316600090815260d0602052604090205460ff1690565b6102f46104a3366004614a92565b61103d565b6000546201000090046001600160a01b03166102b8565b6102e86104cd366004614eae565b611050565b60d5546103f49060ff1681565b6102e86104ed366004614e36565b6110b9565b6103f4610500366004614c85565b60d16020526000908152604090205460ff1681565b6102e8610523366004614e6f565b61112f565b6102f4610536366004614eff565b611259565b6102e8610549366004614a92565b611272565b6102e861055c366004614c85565b6112c3565b61057461056f366004614f6d565b611391565b60408051825181526020808401519082015291810151908201526060016102cc565b6102f460d35481565b604080516060808201835260008083526020808401829052928401526067548351808301855260685461ffff80821683526201000082048116838701908152600160201b9092048116838801908152606954606a54606b548a516001600160a01b03909816885295518416988701989098529251821697850197909752955190951692820192909252608081019390935260a083019190915260c082015260e0016102cc565b610574610653366004614fac565b6113c3565b6102e8610666366004614ffe565b611495565b6102f4611570565b6102e861068136600461506f565b611612565b610699610694366004614c85565b61168a565b6040805182516001600160a01b03908116825260208085015182168184015293830151805161ffff90811684860152948101519094166060808401919091529284015163ffffffff1660808084019190915292840151151560a083015291909201511660c082015260e0016102cc565b60d5546102b89061010090046001600160a01b031681565b60d7546102b8906001600160a01b031681565b610383610742366004614c85565b611766565b6102e8610755366004614c85565b61179a565b6103f4610768366004614e91565b61185c565b6001546001600160a01b03166102b8565b61079161078c3660046150d4565b61188b565b6040516102cc919061515f565b6102e86107ac3660046151a3565b6118b6565b6103836107bf366004615218565b611a0c565b6108396107d2366004614e91565b60408051606080820183526000808352602080840182905292840181905263ffffffff9485168152606583528390208351918201845280546001600160a01b03908116835260019091015490811692820192909252600160a01b9091049092169082015290565b6040805182516001600160a01b039081168252602080850151909116908201529181015163ffffffff16908201526060016102cc565b61038361087d36600461523d565b611a33565b6102e861089036600461527d565b611ba5565b6102f46108a33660046152c8565b611c76565b6001546001600160a01b031633148015906108d557506000546001600160a01b0362010000909104163314155b156108f357604051636bd1573560e11b815260040160405180910390fd5b60d5805460ff1916911515919091179055565b600081815260d46020526040812080546001600160a01b031691906060908190610934606882016064611cc4565b9250610944600182016064611e46565b9597909650929493505050565b60d6546001600160a01b0316331461097c576040516385734f3160e01b815260040160405180910390fd5b6001600160a01b0316600090815260d060205260409020805460ff19166001179055565b60d6546001600160a01b031633146109cb576040516385734f3160e01b815260040160405180910390fd5b8160006001600160a01b03821663ffffffff808216600090815260666020526040812054929350610a06926001600160a01b03169161218616565b610a1257610a12615312565b63ffffffff8116600090815260666020908152604080832080546001600160a01b0319166001600160a01b0387169081179091558352606490915290208390610a5b8282615451565b505050505050565b60d55460ff1615610a87576040516313d0ff5960e31b815260040160405180910390fd5b600083815260d46020526040902080546001600160a01b03163314610ac657604051630504a20d60e01b81523360048201526024015b60405180910390fd5b6000610ad184612197565b9050610afb333085610aea85546001600160a01b031690565b6001600160a01b031692919061222d565b8054604051631b2d4e8960e01b8152600481018490526001600160a01b0390911660248201526044810184905273__$86182d6e9eac51236f2aa8dd2a3ddeab6c$__90631b2d4e899060640160006040518083038186803b158015610b5f57600080fd5b505af4158015610b73573d6000803e3d6000fd5b50508254604080518981526001600160a01b03909216602083015281018690527fdce3cf2323481f6a4ecd26864872ec536609f1ad0788710e5786c65b8e51ee75925060600190505b60405180910390a15050505050565b60d554600090819060ff1615610bf4576040516313d0ff5960e31b815260040160405180910390fd5b600085815260d46020526040902080546001600160a01b03163314610c2e57604051630504a20d60e01b8152336004820152602401610abd565b6000610c3986612298565b6040805163edd75e2160e01b8152600481018590526001600160a01b0380841660248301528851604483015260208901511660648083019190915291880151151560848201526060880151151560a482015260c481019190915290915073__$86182d6e9eac51236f2aa8dd2a3ddeab6c$__9063edd75e219060e4016040805180830381865af4158015610cd1573d6000803e3d6000fd5b505050506040513d601f19601f82011682018060405250810190610cf5919061553f565b90945092506000610d058461232f565b606b54909150811015610d2e576040516312b6b5cd60e11b815260048101829052602401610abd565b60208601516001600160a01b031615801590610d4c57508560600151155b15610db95785604001518015610d7357508551610d689061232f565b610d718561232f565b145b80610d9c57508560400151158015610d9c57508551610d919061232f565b610d9a8661232f565b145b610db9576040516307a1db0760e01b815260040160405180910390fd5b505050935093915050565b6001546001600160a01b03163314801590610df157506000546001600160a01b0362010000909104163314155b15610e0f57604051636bd1573560e11b815260040160405180910390fd5b6001600160a01b0391909116600090815260d160205260409020805460ff1916911515919091179055565b60d55460ff1615610e5e576040516313d0ff5960e31b815260040160405180910390fd5b600083815260d46020526040902080546001600160a01b03163314610e9857604051630504a20d60e01b8152336004820152602401610abd565b6000610ea384612197565b8054604051634de2913360e11b8152600481018590526001600160a01b0390911660248201526044810185905260648082015290915073__$86182d6e9eac51236f2aa8dd2a3ddeab6c$__90639bc522669060840160006040518083038186803b158015610f1057600080fd5b505af4158015610f24573d6000803e3d6000fd5b50505050610f4e3384610f3e84546001600160a01b031690565b6001600160a01b0316919061234a565b8054604080518781526001600160a01b03909216602083015281018490527fbe29a6b389df4dde99b5e61c229ee4fcb393f7f54c362aa57d8c92200183094690606001610bbc565b600081801561101f576000610fa961237a565b5a610fb49190615579565b9050610fc06044612432565b610fca858561245e565b92506000610fd661237a565b5a610fe19190615579565b610feb9083615591565b90508083111561101857604051634010928f60e01b81526004810184905260248101829052604401610abd565b5050611036565b6110296044612432565b611033848461245e565b91505b5092915050565b600061104a82600061245e565b92915050565b6001546001600160a01b0316331480159061107d57506000546001600160a01b0362010000909104163314155b1561109b57604051636bd1573560e11b815260040160405180910390fd5b8360686110a882826155a8565b5050606a92909255606b5560695550565b6001546001600160a01b031633148015906110e657506000546001600160a01b0362010000909104163314155b1561110457604051636bd1573560e11b815260040160405180910390fd5b6001600160a01b0391909116600090815260d260205260409020805460ff1916911515919091179055565b60d55460ff1615611153576040516313d0ff5960e31b815260040160405180910390fd5b600082815260d46020526040902080546001600160a01b0316331461118d57604051630504a20d60e01b8152336004820152602401610abd565b604051634042e78f60e01b8152600481018290526024810183905260646044820181905273__$86182d6e9eac51236f2aa8dd2a3ddeab6c$__91634042e78f910160006040518083038186803b1580156111e657600080fd5b505af41580156111fa573d6000803e3d6000fd5b505060d55461121b925061010090046001600160a01b03169050338461234a565b60408051848152602081018490527fb8635fe5938466cc626f7c214bf818f090e2b736368828f448cd2b379cf0174e910160405180910390a1505050565b60006112698585858560006125b3565b95945050505050565b6001546001600160a01b0316331480159061129f57506000546001600160a01b0362010000909104163314155b156112bd57604051636bd1573560e11b815260040160405180910390fd5b61013d55565b6001546001600160a01b031633148015906112f057506000546001600160a01b0362010000909104163314155b1561130e57604051636bd1573560e11b815260040160405180910390fd5b6001600160a01b0381166113355760405163d92e233d60e01b815260040160405180910390fd5b6001546040516001600160a01b038084169216907f39355f2f5c8206286978f443aa8126bbd29fa09c53c04569502647f3a59c8cb290600090a3600180546001600160a01b0319166001600160a01b0392909216919091179055565b6113b560405180606001604052806000815260200160008152602001600081525090565b6112698585858560006126c9565b6113e760405180606001604052806000815260200160008152602001600081525090565b8180156114715760006113f861237a565b5a6114039190615579565b905061140f60a4612432565b61141c88888888886126c9565b9250600061142861237a565b5a6114339190615579565b61143d9083615591565b90508083111561146a57604051634010928f60e01b81526004810184905260248101829052604401610abd565b505061148b565b61147b60a4612432565b61148887878787876126c9565b91505b5095945050505050565b600054610100900460ff16806114ae575060005460ff16155b6114ca5760405162461bcd60e51b8152600401610abd90615616565b600054610100900460ff161580156114ec576000805461ffff19166101011790555b60d680546001600160a01b03199081166001600160a01b038981169190911790925560d58054610100600160a81b0319166101008985160217905560d78054821687841617905560d88054821685841617905560678054909116918516919091179055611557612838565b8015610a5b576000805461ff0019169055505050505050565b60d55460009060ff1615611597576040516313d0ff5960e31b815260040160405180910390fd5b5060d3546115a6816001615579565b60d355600081815260d460205260409081902080546001600160a01b0319163390811782556001820184905591519091907f7325fb14450d3e5eb288c620b4ff1d6b43a41b33b4a4f143ae88cd4c12f99ea3906116069085815260200190565b60405180910390a25090565b6001546001600160a01b0316331480159061163f57506000546001600160a01b0362010000909104163314155b1561165d57604051636bd1573560e11b815260040160405180910390fd5b6001600160a01b038216600090815260646020526040902081906002016116848282615399565b50505050565b6116cf604080516060808201835260008083526020808401829052845160a0810186528281529081018290528085018290529182018190526080820152909182015290565b506001600160a01b039081166000908152606460209081526040918290208251606080820185528254861682526001830154861682850152845160a08101865260029093015461ffff8082168552620100008204169484019490945263ffffffff600160201b8504168386015260ff600160401b850416151590830152600160481b90920490931660808401529081019190915290565b60008061177d6001600160a01b0384166064612843565b91506117936001600160a01b0384166064612870565b9050915091565b6000546001600160a01b03620100009091041633146117cc57604051636bd1573560e11b815260040160405180910390fd5b6001600160a01b0381166117f35760405163d92e233d60e01b815260040160405180910390fd5b600080546040516001600160a01b03808516936201000090930416917f5f56bee8cffbe9a78652a74a60705edede02af10b0bbb888ca44b79a0d42ce8091a3600080546001600160a01b03909216620100000262010000600160b01b0319909216919091179055565b63ffffffff808216600090815260666020526040812054909161104a916001600160a01b031690839061218616565b606060208251028201602001825b818110156118ae576020018051548152611899565b509192915050565b6000805b828110156119d95760008484838181106118d6576118d6615664565b90506020020160208101906118eb9190614c85565b6001600160a01b0316635e622abc6040518163ffffffff1660e01b81526004016020604051808303816000875af115801561192a573d6000803e3d6000fd5b505050506040513d601f19601f8201168201806040525081019061194e919061567a565b90507f4b5237f428d31406cf0f93a4ab5fd11482f2fe9a1420271368d67e83496346c485858481811061198357611983615664565b90506020020160208101906119989190614c85565b604080516001600160a01b039092168252602082018490520160405180910390a16119c38184615579565b92505080806119d190615693565b9150506118ba565b50611a076119ef6001546001600160a01b031690565b60d55461010090046001600160a01b0316908361234a565b505050565b600082815260d4602052604081208190611a2890846064612888565b909590945092505050565b60d554600090819060ff1615611a5c576040516313d0ff5960e31b815260040160405180910390fd5b600085815260d46020526040902080546001600160a01b03163314611a9657604051630504a20d60e01b8152336004820152602401610abd565b6000611aa186612298565b9050611ab36080860160608701614c85565b6001600160a01b031615611aea57611aea81611ad56080880160608901614c85565b611ae560a0890160808a016156ae565b6128de565b6040516349e373d360e01b815273__$86182d6e9eac51236f2aa8dd2a3ddeab6c$__906349e373d390611b2890859085908a906064906004016156da565b6040805180830381865af4158015611b44573d6000803e3d6000fd5b505050506040513d601f19601f82011682018060405250810190611b68919061553f565b90945092506000611b7c8286866064612980565b606b54909150811015610db9576040516312b6b5cd60e11b815260048101829052602401610abd565b6001546001600160a01b03163314801590611bd257506000546001600160a01b0362010000909104163314155b15611bf057604051636bd1573560e11b815260040160405180910390fd5b604080516060810182526001600160a01b038086168252938416602080830191825263ffffffff9485168385019081529685166000908152606590915292909220905181549085166001600160a01b0319909116178155905160019190910180549451909216600160a01b026001600160c01b0319909416921691909117919091179055565b6000818015611cad576000611c8961237a565b5a611c949190615579565b9050611ca060a4612432565b61141c88888888886125b3565b611cb760a4612432565b61148887878787876125b3565b60606000611cd1846129c0565b90508067ffffffffffffffff811115611cec57611cec614d35565b604051908082528060200260200182016040528015611d3157816020015b6040805180820190915260008082526020820152815260200190600190039081611d0a5790505b50915060005b81811015611e3e57600184016000868360088110611d5757611d57615664565b60088104919091015460079091166004026101000a900463ffffffff16815260208101919091526040016000205483516001600160a01b0390911690849083908110611da557611da5615664565b60209081029190910101516001600160a01b039091169052600185016000868360088110611dd557611dd5615664565b600891828204019190066004029054906101000a900463ffffffff1663ffffffff1663ffffffff16815260200190815260200160002054838281518110611e1e57611e1e615664565b602090810291909101810151015280611e3681615693565b915050611d37565b505092915050565b600381015463ffffffff16600090815260028301602052604081205490606090611e72600186016129c0565b90508067ffffffffffffffff811115611e8d57611e8d614d35565b604051908082528060200260200182016040528015611ef957816020015b611ee66040518060a0016040528060006001600160a01b03168152602001600081526020016000815260200160008152602001606081525090565b815260200190600190039081611eab5790505b50915060005b8181101561217d57846002016000876001018360088110611f2257611f22615664565b60088104919091015460079091166004026101000a900463ffffffff16815260208101919091526040016000205483516001600160a01b0390911690849083908110611f7057611f70615664565b60209081029190910101516001600160a01b039091169052600286016000600188018360088110611fa357611fa3615664565b600891828204019190066004029054906101000a900463ffffffff1663ffffffff1663ffffffff16815260200190815260200160002060000154838281518110611fef57611fef615664565b6020026020010151602001818152505085600201600087600101836008811061201a5761201a615664565b600891828204019190066004029054906101000a900463ffffffff1663ffffffff1663ffffffff1681526020019081526020016000206001015483828151811061206657612066615664565b6020026020010151604001818152505085600201600087600101836008811061209157612091615664565b600891828204019190066004029054906101000a900463ffffffff1663ffffffff1663ffffffff168152602001908152602001600020600201548382815181106120dd576120dd615664565b6020026020010151606001818152505061214986600201600088600101846008811061210b5761210b615664565b600891828204019190066004029054906101000a900463ffffffff1663ffffffff1663ffffffff168152602001908152602001600020600301612a2a565b83828151811061215b5761215b615664565b602002602001015160800181905250808061217590615693565b915050611eff565b50509250929050565b6001600160a01b0390811691161490565b63ffffffff8082166000908152606560205260408120916121ba918391612fae16565b156121e05760405163b087c8c360e01b815263ffffffff83166004820152602401610abd565b80546001600160a01b0316600090815260d2602052604090205460ff1661222857805460405163340e1b9160e21b81526001600160a01b039091166004820152602401610abd565b919050565b6040516001600160a01b03808516602483015283166044820152606481018290526116849085906323b872dd60e01b906084015b60408051601f198184030181529190526020810180516001600160e01b03166001600160e01b031990931692909217909152612fc1565b63ffffffff8082166000908152606660205260408120546001600160a01b0316916122c591839161218616565b156122eb5760405163b087c8c360e01b815263ffffffff83166004820152602401610abd565b6001600160a01b038116600090815260d1602052604090205460ff1661222857604051631079472960e21b81526001600160a01b0382166004820152602401610abd565b600080821361234657612341826157ac565b61104a565b5090565b6040516001600160a01b038316602482015260448101829052611a0790849063a9059cbb60e01b90606401612261565b60408051600481526024810182526020810180516001600160e01b031663a94597ff60e01b1790529051600091829182916064916123b891906157f5565b600060405180830381855afa9150503d80600081146123f3576040519150601f19603f3d011682016040523d82523d6000602084013e6123f8565b606091505b509150915081158061240957508051155b156124175760009250505090565b8080602001905181019061242b919061567a565b9250505090565b36811061245b57604051634219202560e01b815236600482015260248101829052604401610abd565b50565b60d55460009060ff1615612485576040516313d0ff5960e31b815260040160405180910390fd5b600083815260d4602052604081209073__$86182d6e9eac51236f2aa8dd2a3ddeab6c$__6379452b23836124b887613093565b6040516001600160e01b031960e085901b16815260048101929092526024820152606460448201819052016040805180830381865af41580156124ff573d6000803e3d6000fd5b505050506040513d601f19601f82011682018060405250810190612523919061553f565b909350905060006125348285615811565b60d5549091506125539061010090046001600160a01b0316338661234a565b61255c826131ac565b6040805187815233602082015290810182905260608101859052608081018390527f914a6aef8c0c1a591157ee7d71dfbd71d1d7df090d3ec047f8eac01fc21b2f439060a00160405180910390a150505092915050565b60d55460009060ff16156125da576040516313d0ff5960e31b815260040160405180910390fd5b600086815260d460205260408120906125f287612298565b90506125fd84613093565b606a5461260a9190615579565b6040516343c74e9360e01b8152600481018490526001600160a01b0383166024820152600288810b604483015287900b6064808301919091526084820183905260a482015290935073__$86182d6e9eac51236f2aa8dd2a3ddeab6c$__906343c74e939060c40160006040518083038186803b15801561268957600080fd5b505af415801561269d573d6000803e3d6000fd5b505060d5546126be925061010090046001600160a01b03169050338561234a565b505095945050505050565b6126ed60405180606001604052806000815260200160008152602001600081525090565b60d55460ff1615612711576040516313d0ff5960e31b815260040160405180910390fd5b6127108361ffff161115612738576040516348d69f3560e01b815260040160405180910390fd5b600085815260d4602052604081209061275086612298565b600089815260d4602052604081209192509073__$86182d6e9eac51236f2aa8dd2a3ddeab6c$__9063487e8af1908590898661278b8b613093565b60646040518763ffffffff1660e01b81526004016127de96959493929190958652602086019490945261ffff9290921660408501526001600160a01b03166060840152608083015260a082015260c00190565b608060405180830381865af41580156127fb573d6000803e3d6000fd5b505050506040513d601f19601f8201168201806040525081019061281f9190615852565b9450905061282c816131ac565b50505095945050505050565b3361245b818061323d565b600061286961285b6001600160a01b03851684613345565b6001600160a01b03166133d7565b9392505050565b600061286961285b6001600160a01b03851684613453565b6000806128958584613491565b91506128a9600186018560028601866134bd565b600286015490915063ffffffff16156128d657826005015481126128cd57806128d3565b82600501545b90505b935093915050565b60006128f46001600160a01b0385166064613612565b90506000836001600160a01b0316826001600160a01b0316116129205761291b82856158cb565b61292a565b61292a84836158cb565b905061271061293d8561ffff86166158f3565b6129479190615938565b6001600160a01b0316816001600160a01b03161115612979576040516307a1db0760e01b815260040160405180910390fd5b5050505050565b600061298b8361232f565b6129b66129a16001600160a01b03881685612870565b600160801b6129af8861232f565b9190613638565b6112699190615811565b6000805b60088160ff161015612a2157828160ff16600881106129e5576129e5615664565b60088104919091015460079091166004026101000a900463ffffffff16612a0f5760ff1692915050565b80612a198161595e565b9150506129c4565b50600892915050565b60606000612a378361367a565b90508067ffffffffffffffff811115612a5257612a52614d35565b604051908082528060200260200182016040528015612ae257816020015b612acf6040805161012081019091528060008152602001600060020b8152602001600060020b815260200160006001600160801b0316815260200160008152602001600081526020016000815260200160008152602001600081525090565b815260200190600190039081612a705790505b50915060005b81811015612fa757600184016000858360058110612b0857612b08615664565b600580820492909201549190066006026101000a900465ffffffffffff168152602081019190915260400160002054835160ff90911690849083908110612b5157612b51615664565b6020026020010151600001906002811115612b6e57612b6e614aab565b90816002811115612b8157612b81614aab565b905250600184016000858360058110612b9c57612b9c615664565b600591828204019190066006029054906101000a900465ffffffffffff1665ffffffffffff1665ffffffffffff16815260200190815260200160002060000160019054906101000a900460020b838281518110612bfb57612bfb615664565b60209081029190910181015160029290920b910152600184016000858360058110612c2857612c28615664565b600591828204019190066006029054906101000a900465ffffffffffff1665ffffffffffff1665ffffffffffff16815260200190815260200160002060000160049054906101000a900460020b838281518110612c8757612c87615664565b602090810291909101015160029190910b604090910152600184016000858360058110612cb657612cb6615664565b600591828204019190066006029054906101000a900465ffffffffffff1665ffffffffffff1665ffffffffffff16815260200190815260200160002060000160079054906101000a90046001600160801b0316838281518110612d1b57612d1b615664565b60209081029190910101516001600160801b03909116606090910152600184016000858360058110612d4f57612d4f615664565b600591828204019190066006029054906101000a900465ffffffffffff1665ffffffffffff1665ffffffffffff16815260200190815260200160002060010154838281518110612da157612da1615664565b602090810291909101015160800152600184016000858360058110612dc857612dc8615664565b600591828204019190066006029054906101000a900465ffffffffffff1665ffffffffffff1665ffffffffffff16815260200190815260200160002060020154838281518110612e1a57612e1a615664565b602090810291909101015160a00152600184016000858360058110612e4157612e41615664565b600591828204019190066006029054906101000a900465ffffffffffff1665ffffffffffff1665ffffffffffff16815260200190815260200160002060030154838281518110612e9357612e93615664565b602090810291909101015160c00152600184016000858360058110612eba57612eba615664565b600591828204019190066006029054906101000a900465ffffffffffff1665ffffffffffff1665ffffffffffff16815260200190815260200160002060040154838281518110612f0c57612f0c615664565b602090810291909101015160e00152600184016000858360058110612f3357612f33615664565b600591828204019190066006029054906101000a900465ffffffffffff1665ffffffffffff1665ffffffffffff16815260200190815260200160002060050154838281518110612f8557612f85615664565b6020908102919091010151610100015280612f9f81615693565b915050612ae8565b5050919050565b90546001600160a01b0391821691161490565b6000613016826040518060400160405280602081526020017f5361666545524332303a206c6f772d6c6576656c2063616c6c206661696c6564815250856001600160a01b03166136f19092919063ffffffff16565b805190915015611a075780806020019051810190613034919061597e565b611a075760405162461bcd60e51b815260206004820152602a60248201527f5361666545524332303a204552433230206f7065726174696f6e20646964206e6044820152691bdd081cdd58d8d9595960b21b6064820152608401610abd565b60003a61013d548111156130c95761013d54604051638dfe587d60e01b8152610abd918391600401918252602082015260400190565b8215806130df575060d8546001600160a01b0316155b156130ed57600091506131a6565b600033321415613102576130ff613700565b90505b600061310e3a8661599b565b60d854604051630e56d76760e31b815261012c6004820152919250600091613184916001600160a01b0316906372b6bb3890602401602060405180830381865afa158015613160573d6000803e3d6000fd5b505050506040513d601f19601f8201168201806040525081019061285b91906159ba565b90506131a081600160801b6131998587615579565b919061373e565b94505050505b50919050565b60008113156131d75760d75460d55461245b916001600160a01b03610100909204821691168361234a565b60d7546001600160a01b031663379607f56131f1836157ac565b6040518263ffffffff1660e01b815260040161320f91815260200190565b600060405180830381600087803b15801561322957600080fd5b505af1158015612979573d6000803e3d6000fd5b600054610100900460ff1680613256575060005460ff16155b6132725760405162461bcd60e51b8152600401610abd90615616565b600054610100900460ff16158015613294576000805461ffff19166101011790555b6000805462010000600160b01b031916620100006001600160a01b0386169081029190911782556040519091907f5f56bee8cffbe9a78652a74a60705edede02af10b0bbb888ca44b79a0d42ce80908290a3600180546001600160a01b0319166001600160a01b0384169081179091556040516000907f39355f2f5c8206286978f443aa8126bbd29fa09c53c04569502647f3a59c8cb2908290a38015611a07576000805461ff0019169055505050565b6001600160a01b03828116600090815260208390526040808220600201549051630e56d76760e31b8152600160201b820463ffffffff1660048201529192600160481b90910416906372b6bb3890602401602060405180830381865afa1580156133b3573d6000803e3d6000fd5b505050506040513d601f19601f8201168201806040525081019061286991906159ba565b60006401000276a36001600160a01b0383161080613412575073fffd8963efd1fc6a506488495d951d5263988d266001600160a01b03831610155b1561343b57604051635d236c4560e01b81526001600160a01b0383166004820152602401610abd565b61104a6001600160a01b03831680600160401b61373e565b6001600160a01b03808316600090815260208390526040812060028101549054919261286992169063ffffffff600160201b9091048116906137ec16565b60006134a460018401600284018461380d565b90506134b3606884018361391b565b6128699082615811565b600080808080805b60088160ff1610156135f057896001018160ff16600881106134e9576134e9615664565b60088104919091015460079091166004026101000a900463ffffffff1661350f576135f0565b60008860008c6001018460ff166008811061352c5761352c615664565b60088104919091015460079091166004026101000a900463ffffffff90811682526020820192909252604001600020546001600160a01b03169150613579908c908c9084908c906139e116565b6001600160a01b038316600090815260208b905260409020600201549195509350600160401b900460ff16156135c6576135b38487615811565b95506135bf8386615811565b94506135dd565b6135d08484613a9c565b6135da9088615811565b96505b50806135e88161595e565b9150506134c5565b506135fb8484613a9c565b6136059086615811565b9998505050505050505050565b6001600160a01b0380831660009081526020839052604081205490916128699116613aad565b600061365e6000851261364b5784613657565b613657856000196159d7565b848461373e565b9050600084121561286957613672816157ac565b949350505050565b6000805b60058160ff1610156136e857828160ff166005811061369f5761369f615664565b600591828204019190066006029054906101000a900465ffffffffffff1665ffffffffffff16600014156136d65760ff1692915050565b806136e08161595e565b91505061367e565b50600592915050565b60606136728484600085613b37565b60408051600481526024810182526020810180516001600160e01b031663637bef0760e11b1790529051600091829182916064916123b891906157f5565b600080806000198587098587029250828110838203039150508060001415613778576000841161376d57600080fd5b508290049050612869565b80841161378457600080fd5b600084868809851960019081018716968790046003810260029081188083028203028083028203028083028203028083028203028083028203029182029003026000889003889004909101858311909403939093029303949094049190911702949350505050565b6000806138026001600160a01b03851684613c5f565b905061103381613e7b565b6000805b60088160ff1610156138f4576000856001018260ff166008811061383757613837615664565b60088104919091015460079091166004026101000a900463ffffffff1690508061386157506138f4565b63ffffffff8082166000908152602087815260408083205460028b019092529091206001600160a01b039091169161389f908290849089906141ad16565b6138a99086615811565b945060006138c06001600160a01b03841688613453565b90506138d16003830182858a6141d1565b6138db9087615811565b95505050505080806138ec9061595e565b915050613811565b50600382015463ffffffff1660009081526002850160205260409020546136729082615811565b60008060005b60088160ff1610156139d95760008560ff83166008811061394457613944615664565b60088104919091015460079091166004026101000a900463ffffffff1690508061396e57506139d9565b63ffffffff8116600090815260018601602052604090206139b8613991826141fe565b63ffffffff808516600090815260018b0160205260409020549190600160801b9061363816565b6139c29085615811565b9350505080806139d19061595e565b915050613921565b509392505050565b63ffffffff8083166000908152600286016020526040812090918291908290613a17906001600160a01b03881690879061287016565b90506000613a2f6001600160a01b038816898861420c565b83549091506000613a4260038601614266565b9050613a6b61ffff8416620186a06129af87600160801b82613a64888a615811565b6000613a9c565b9650613a8c61ffff8416620186a06129af87600160801b82613a64896157ac565b9550505050505094509492505050565b6000818313156131a657508161104a565b600080826001600160a01b0316633850c7bd6040518163ffffffff1660e01b815260040160e060405180830381865afa158015613aee573d6000803e3d6000fd5b505050506040513d601f19601f82011682018060405250810190613b129190615a5c565b509496509294505050506001600160a01b038316151590506131a65761286981613e7b565b606082471015613b985760405162461bcd60e51b815260206004820152602660248201527f416464726573733a20696e73756666696369656e742062616c616e636520666f6044820152651c8818d85b1b60d21b6064820152608401610abd565b843b613be65760405162461bcd60e51b815260206004820152601d60248201527f416464726573733a2063616c6c20746f206e6f6e2d636f6e74726163740000006044820152606401610abd565b600080866001600160a01b03168587604051613c0291906157f5565b60006040518083038185875af1925050503d8060008114613c3f576040519150601f19603f3d011682016040523d82523d6000602084013e613c44565b606091505b5091509150613c548282866142e1565b979650505050505050565b600063ffffffff8216613c88576040516351a4d88160e01b815260006004820152602401610abd565b6040805160028082526060820183526000926020830190803683370190505090508281600081518110613cbd57613cbd615664565b602002602001019063ffffffff16908163ffffffff1681525050600081600181518110613cec57613cec615664565b63ffffffff9092166020928302919091019091015260405163883bdbfd60e01b81526001600160a01b0385169063883bdbfd90613d2d908490600401615afe565b600060405180830381865afa925050508015613d6b57506040513d6000823e601f3d908101601f19168201604052613d689190810190615bab565b60015b613de057836001600160a01b0316633850c7bd6040518163ffffffff1660e01b815260040160e060405180830381865afa158015613dad573d6000803e3d6000fd5b505050506040513d601f19601f82011682018060405250810190613dd19190615a5c565b50939650611036945050505050565b600082600081518110613df557613df5615664565b602002602001015183600181518110613e1057613e10615664565b6020026020010151613e229190615c77565b90506000613e3663ffffffff881683615cc7565b905060008260060b128015613e5c5750613e5663ffffffff881683615d05565b60060b15155b15613e6f5780613e6b81615d27565b9150505b945061104a9350505050565b60008060008360020b12613e92578260020b613e9a565b8260020b6000035b9050620d89e8811115613ed35760405162461bcd60e51b81526020600482015260016024820152601560fa1b6044820152606401610abd565b600060018216613ee757600160801b613ef9565b6ffffcb933bd6fad37aa2d162d1a5940015b70ffffffffffffffffffffffffffffffffff1690506002821615613f2d576ffff97272373d413259a46990580e213a0260801c5b6004821615613f4c576ffff2e50f5f656932ef12357cf3c7fdcc0260801c5b6008821615613f6b576fffe5caca7e10e4e61c3624eaa0941cd00260801c5b6010821615613f8a576fffcb9843d60f6159c9db58835c9266440260801c5b6020821615613fa9576fff973b41fa98c081472e6896dfb254c00260801c5b6040821615613fc8576fff2ea16466c96a3843ec78b326b528610260801c5b6080821615613fe7576ffe5dee046a99a2a811c461f1969c30530260801c5b610100821615614007576ffcbe86c7900a88aedcffc83b479aa3a40260801c5b610200821615614027576ff987a7253ac413176f2b074cf7815e540260801c5b610400821615614047576ff3392b0822b70005940c7a398e4b70f30260801c5b610800821615614067576fe7159475a2c29b7443b29c7fa6e889d90260801c5b611000821615614087576fd097f3bdfd2022b8845ad8f792aa58250260801c5b6120008216156140a7576fa9f746462d870fdf8a65dc1f90e061e50260801c5b6140008216156140c7576f70d869a156d2a1b890bb3df62baf32f70260801c5b6180008216156140e7576f31be135f97d08fd981231505542fcfa60260801c5b62010000821615614108576f09aa508b5b7a84e1c677de54f3e99bc90260801c5b62020000821615614128576e5d6af8dedb81196699c329225ee6040260801c5b62040000821615614147576d2216e584f5fa1ea926041bedfe980260801c5b62080000821615614164576b048a170391f7dc42444e8fa20260801c5b60008460020b131561418557806000198161418157614181615922565b0490505b600160201b81061561419857600161419b565b60005b60ff16602082901c0192505050919050565b6000806141c36001600160a01b03851684612870565b90506112698585838661431a565b6001600160a01b038281166000908152602083905260408120600101549091611269918791879116614347565b600061104a61285b836143e3565b6000821561423a57506001600160a01b03831660009081526020829052604090206002015461ffff16612869565b506001600160a01b03831660009081526020829052604090206002015462010000900461ffff16612869565b6000805b60058110156131a657600083826005811061428757614287615664565b600580820492909201549190066006026101000a900465ffffffffffff16600081815260018601602052604090209091506142c190614475565b6142cb9084615579565b92505080806142d990615693565b91505061426a565b606083156142f0575081612869565b8251156143005782518084602001fd5b8160405162461bcd60e51b8152600401610abd9190615d4b565b6001600160a01b0383811660009081526020839052604081206001015490916112699187918691166144cc565b6000805b60058110156139d957600085826005811061436857614368615664565b600591828204019190066006029054906101000a900465ffffffffffff1690508065ffffffffffff166000141561439f57506139d9565b65ffffffffffff8116600090815260018701602052604090206143c39086866144f6565b6143cd9084615811565b92505080806143db90615693565b91505061434b565b60006143f982600101546001600160a01b031690565b6001830154604051630e56d76760e31b8152600160a01b90910463ffffffff1660048201526001600160a01b0391909116906372b6bb3890602401602060405180830381865afa158015614451573d6000803e3d6000fd5b505050506040513d601f19601f8201168201806040525081019061104a91906159ba565b8054600090819061448d90610100900460020b613e7b565b83549091506000906144a890600160201b900460020b613e7b565b84549091506136729083908390600160381b90046001600160801b0316600161460f565b82546000906144e09084600160801b613638565b90506144ec84836146c4565b6136729082615811565b600080806145048686614749565b91509150600061451c866001600160a01b03166133d7565b90508161452e8483600160801b613638565b6145389190615811565b875460405163154cd3c960e11b81526101008204600290810b6004830152600160201b90920490910b6024820152909450600093506001600160a01b0386169250632a99a7929150604401608060405180830381865afa1580156145a0573d6000803e3d6000fd5b505050506040513d601f19601f820116820180604052508101906145c49190615d7e565b90506145e56145e082606001518761481390919063ffffffff16565b614843565b6145ef9083615811565b8151604083015191935061460591879190614855565b6112699083615811565b6000836001600160a01b0316856001600160a01b0316111561462f579293925b6fffffffffffffffffffffffffffffffff60601b606084901b166001600160a01b03868603811690871661466257600080fd5b8361469857866001600160a01b03166146858383896001600160a01b031661373e565b8161469257614692615922565b04613c54565b613c546146af8383896001600160a01b031661488f565b886001600160a01b0316808204910615150190565b600080826001600160a01b031663a3a1e7e96040518163ffffffff1660e01b8152600401602060405180830381865afa158015614705573d6000803e3d6000fd5b505050506040513d601f19601f82011682018060405250810190614729919061567a565b9050600061474082866002015487600101546148cf565b611269906157ac565b81546000908190819061476390610100900460020b613e7b565b855490915060009061477e90600160201b900460020b613e7b565b9050846001600160a01b03808416908216101561479c5750816147b9565b816001600160a01b0316866001600160a01b031611156147b95750805b86546147de906145e09083908590600160381b90046001600160801b0316600061460f565b94506148076145e084838a60000160079054906101000a90046001600160801b031660006148ea565b93505050509250929050565b8154600583015460009161286991600160381b9091046001600160801b031690600160801b906131999086615591565b6000600160ff1b821061234657600080fd5b60028301546003840154600485015485546000936148869387938793600160381b90046001600160801b031661495a565b613672906157ac565b600061489c84848461373e565b9050600082806148ae576148ae615922565b84860911156128695760001981106148c557600080fd5b6001019392505050565b60006136726148de8486615de4565b8390600160801b614982565b6000836001600160a01b0316856001600160a01b0316111561490a579293925b8161493757614932836001600160801b03168686036001600160a01b0316600160601b61373e565b611269565b611269836001600160801b03168686036001600160a01b0316600160601b61488f565b6000613c5482600160801b6149718888888d614a13565b61497b908a615de4565b9190614a38565b60006001818080808812156149a45792159261499d886157ac565b92506149a8565b8792505b60008712156149c4579215926149bd876157ac565b91506149c8565b8691505b60008612156149e7579215926149e0866000196159d7565b90506149ea565b50845b6149f583838361373e565b945083614a0857614a05856157ac565b94505b505050509392505050565b6000614a2e614a228684615de4565b8590600160801b614982565b6112699084615811565b6000614a45848484613638565b905060008112156128695761367260001982615811565b801515811461245b57600080fd5b803561222881614a5c565b600060208284031215614a8757600080fd5b813561286981614a5c565b600060208284031215614aa457600080fd5b5035919050565b634e487b7160e01b600052602160045260246000fd5b60038110614adf57634e487b7160e01b600052602160045260246000fd5b9052565b6000608080830160018060a01b038089168552602088818701526040848188015283895180865260a089019150838b01955060005b81811015614b3f578651805187168452850151858401529584019591830191600101614b18565b5050878103606089015288518082528382019550600581901b82018401848b0160005b83811015614c5c57848303601f19018952815180518916845287810151888501528681015187850152606080820151908501528a015160a08b850181905281519085018190529088019060009060c08601905b80831015614c47578351614bca838251614ac1565b8b8101518060020b8d850152508a81015160020b8b8401526060810151614bfc60608501826001600160801b03169052565b508e8101518f84015260a081015160a084015260c081015160c084015260e081015160e084015261010080820151818501525050610120820191508a84019350600183019250614bb5565b509a89019a9450505090860190600101614b62565b50909e9d5050505050505050505050505050565b6001600160a01b038116811461245b57600080fd5b600060208284031215614c9757600080fd5b813561286981614c70565b600060e082840312156131a657600080fd5b6000806101008385031215614cc857600080fd5b8235614cd381614c70565b9150614ce28460208501614ca2565b90509250929050565b63ffffffff8116811461245b57600080fd5b600080600060608486031215614d1257600080fd5b833592506020840135614d2481614ceb565b929592945050506040919091013590565b634e487b7160e01b600052604160045260246000fd5b604051601f8201601f1916810167ffffffffffffffff81118282101715614d7457614d74614d35565b604052919050565b803561222881614c70565b600080600083850360c0811215614d9d57600080fd5b843593506020850135614daf81614ceb565b92506080603f1982011215614dc357600080fd5b506040516080810181811067ffffffffffffffff82111715614de757614de7614d35565b604090815285013581526060850135614dff81614c70565b60208201526080850135614e1281614a5c565b604082015260a0850135614e2581614a5c565b606082015292959194509192509050565b60008060408385031215614e4957600080fd5b8235614e5481614c70565b91506020830135614e6481614a5c565b809150509250929050565b60008060408385031215614e8257600080fd5b50508035926020909101359150565b600060208284031215614ea357600080fd5b813561286981614ceb565b60008060008084860360c0811215614ec557600080fd5b6060811215614ed357600080fd5b509395606087013595506080870135945060a08701359350915050565b8060020b811461245b57600080fd5b60008060008060808587031215614f1557600080fd5b843593506020850135614f2781614ceb565b92506040850135614f3781614ef0565b91506060850135614f4781614ef0565b939692955090935050565b61ffff8116811461245b57600080fd5b803561222881614f52565b60008060008060808587031215614f8357600080fd5b84359350602085013592506040850135614f9c81614ceb565b91506060850135614f4781614f52565b600080600080600060a08688031215614fc457600080fd5b85359450602086013593506040860135614fdd81614ceb565b92506060860135614fed81614f52565b949793965091946080013592915050565b600080600080600060a0868803121561501657600080fd5b853561502181614c70565b9450602086013561503181614c70565b9350604086013561504181614c70565b9250606086013561505181614c70565b9150608086013561506181614c70565b809150509295509295909350565b60008082840360c081121561508357600080fd5b833561508e81614c70565b925060a0601f19820112156150a257600080fd5b506020830190509250929050565b600067ffffffffffffffff8211156150ca576150ca614d35565b5060051b60200190565b600060208083850312156150e757600080fd5b823567ffffffffffffffff8111156150fe57600080fd5b8301601f8101851361510f57600080fd5b803561512261511d826150b0565b614d4b565b81815260059190911b8201830190838101908783111561514157600080fd5b928401925b82841015613c5457833582529284019290840190615146565b6020808252825182820181905260009190848201906040850190845b818110156151975783518352928401929184019160010161517b565b50909695505050505050565b600080602083850312156151b657600080fd5b823567ffffffffffffffff808211156151ce57600080fd5b818501915085601f8301126151e257600080fd5b8135818111156151f157600080fd5b8660208260051b850101111561520657600080fd5b60209290920196919550909350505050565b6000806040838503121561522b57600080fd5b823591506020830135614e6481614a5c565b6000806000610120848603121561525357600080fd5b83359250602084013561526581614ceb565b91506152748560408601614ca2565b90509250925092565b60008060006060848603121561529257600080fd5b833561529d81614c70565b925060208401356152ad81614c70565b915060408401356152bd81614ceb565b809150509250925092565b600080600080600060a086880312156152e057600080fd5b8535945060208601356152f281614ceb565b9350604086013561530281614ef0565b92506060860135614fed81614ef0565b634e487b7160e01b600052600160045260246000fd5b80546001600160a01b0319166001600160a01b0392909216919091179055565b6000813561104a81614c70565b80547fffffff0000000000000000000000000000000000000000ffffffffffffffffff1660489290921b6901000000000000000000600160e81b0316919091179055565b81356153a481614f52565b815461ffff191661ffff82161782555060208201356153c281614f52565b815463ffff00001916601082901b63ffff0000161782555060408201356153e881614ceb565b815467ffffffff000000008260201b1691508167ffffffff00000000198216178355606084013561541881614a5c565b68ffffffffff00000000199190911690911790151560401b60ff60401b16178155608082013561544781614c70565b611a078183615355565b813561545c81614c70565b6154668183615328565b50602082013561547581614c70565b6154828160018401615328565b5060028101604083013561549581614f52565b815461ffff191661ffff82161782555060608301356154b381614f52565b815463ffff00001916601082901b63ffff0000161782555060808301356154d981614ceb565b815467ffffffff000000008260201b1691508167ffffffff0000000019821617835560a085013561550981614a5c565b68ffffffffff00000000199190911690911790151560401b60ff60401b16178155611a0761553960c08501615348565b82615355565b6000806040838503121561555257600080fd5b505080516020909101519092909150565b634e487b7160e01b600052601160045260246000fd5b6000821982111561558c5761558c615563565b500190565b6000828210156155a3576155a3615563565b500390565b81356155b381614f52565b815461ffff191661ffff82161782555060208201356155d181614f52565b815463ffff00001916601082901b63ffff0000161782555060408201356155f781614f52565b815465ffff00000000191660209190911b65ffff000000001617905550565b6020808252602e908201527f496e697469616c697a61626c653a20636f6e747261637420697320616c72656160408201526d191e481a5b9a5d1a585b1a5e995960921b606082015260800190565b634e487b7160e01b600052603260045260246000fd5b60006020828403121561568c57600080fd5b5051919050565b60006000198214156156a7576156a7615563565b5060010190565b6000602082840312156156c057600080fd5b813561286981614f52565b80356003811061222857600080fd5b8481526001600160a01b0384166020820152610140810183356156fc81614ef0565b60020b6040830152602084013561571281614ef0565b60020b60608301526040840135600f81900b811461572f57600080fd5b61573e6080840182600f0b9052565b5061574b60608501614d7c565b6001600160a01b031660a083015261576560808501614f62565b61ffff1660c083015261577a60a08501614a6a565b151560e083015261578d60c085016156cb565b61579b610100840182614ac1565b508261012083015295945050505050565b6000600160ff1b8214156157c2576157c2615563565b5060000390565b60005b838110156157e45781810151838201526020016157cc565b838111156116845750506000910152565b600082516158078184602087016157c9565b9190910192915050565b600080821280156001600160ff1b038490038513161561583357615833615563565b600160ff1b839003841281161561584c5761584c615563565b50500190565b600080828403608081121561586657600080fd5b835192506060601f198201121561587c57600080fd5b506040516060810181811067ffffffffffffffff821117156158a0576158a0614d35565b8060405250602084015181526040840151602082015260608401516040820152809150509250929050565b60006001600160a01b03838116908316818110156158eb576158eb615563565b039392505050565b60006001600160a01b038281168482168115158284048211161561591957615919615563565b02949350505050565b634e487b7160e01b600052601260045260246000fd5b60006001600160a01b038381168061595257615952615922565b92169190910492915050565b600060ff821660ff81141561597557615975615563565b60010192915050565b60006020828403121561599057600080fd5b815161286981614a5c565b60008160001904831182151516156159b5576159b5615563565b500290565b6000602082840312156159cc57600080fd5b815161286981614c70565b60006001600160ff1b03818413828413808216868404861116156159fd576159fd615563565b600160ff1b6000871282811687830589121615615a1c57615a1c615563565b60008712925087820587128484161615615a3857615a38615563565b87850587128184161615615a4e57615a4e615563565b505050929093029392505050565b600080600080600080600060e0888a031215615a7757600080fd5b8751615a8281614c70565b6020890151909750615a9381614ef0565b6040890151909650615aa481614f52565b6060890151909550615ab581614f52565b6080890151909450615ac681614f52565b60a089015190935060ff81168114615add57600080fd5b60c0890151909250615aee81614a5c565b8091505092959891949750929550565b6020808252825182820181905260009190848201906040850190845b8181101561519757835163ffffffff1683529284019291840191600101615b1a565b600082601f830112615b4d57600080fd5b81516020615b5d61511d836150b0565b82815260059290921b84018101918181019086841115615b7c57600080fd5b8286015b84811015615ba0578051615b9381614c70565b8352918301918301615b80565b509695505050505050565b60008060408385031215615bbe57600080fd5b825167ffffffffffffffff80821115615bd657600080fd5b818501915085601f830112615bea57600080fd5b81516020615bfa61511d836150b0565b82815260059290921b84018101918181019089841115615c1957600080fd5b948201945b83861015615c475785518060060b8114615c385760008081fd5b82529482019490820190615c1e565b91880151919650909350505080821115615c6057600080fd5b50615c6d85828601615b3c565b9150509250929050565b60008160060b8360060b6000811281667fffffffffffff1901831281151615615ca257615ca2615563565b81667fffffffffffff018313811615615cbd57615cbd615563565b5090039392505050565b60008160060b8360060b80615cde57615cde615922565b667fffffffffffff19821460001982141615615cfc57615cfc615563565b90059392505050565b60008260060b80615d1857615d18615922565b808360060b0791505092915050565b60008160020b627fffff19811415615d4157615d41615563565b6000190192915050565b6020815260008251806020840152615d6a8160408501602087016157c9565b601f01601f19169190910160400192915050565b600060808284031215615d9057600080fd5b6040516080810181811067ffffffffffffffff82111715615db357615db3614d35565b8060405250825181526020830151602082015260408301516040820152606083015160608201528091505092915050565b60008083128015600160ff1b850184121615615e0257615e02615563565b6001600160ff1b0384018313811615615e1d57615e1d615563565b5050039056fea164736f6c634300080a000a",
  "libraries": {
    "Account": "0x12858C66B0e9744f933b9e2cC8Eea50A975D2e80"
  },
  "devdoc": {
    "errors": {
      "AccessDenied(address)": [
        {
          "params": {
            "senderAddress": "address of msg sender"
          }
        }
      ],
      "LowNotionalValue(uint256)": [
        {
          "params": {
            "notionalValue": "notional value of txn"
          }
        }
      ],
      "UninitializedToken(uint32)": [
        {
          "params": {
            "vTokenTruncatedAddress": "unitialized truncated address supplied"
          }
        }
      ],
      "UnsupportedRToken(address)": [
        {
          "params": {
            "rTokenAddress": "address of token"
          }
        }
      ],
      "UnsupportedVToken(address)": [
        {
          "params": {
            "vToken": "address of token"
          }
        }
      ]
    },
    "kind": "dev",
    "methods": {
      "addMargin(uint256,uint32,uint256)": {
        "params": {
          "accountNo": "account number",
          "amount": "amount of token to deposit",
          "vTokenTruncatedAddress": "truncated address of token to deposit"
        }
      },
      "createAccount()": {
        "returns": {
          "newAccountId": "- serial number of the new account created"
        }
      },
      "governance()": {
        "details": "Returns the address of the current governance."
      },
      "liquidateLiquidityPositions(uint256)": {
        "details": "removes all the active range positions and gives liquidator a percent of notional amount closed + fixedFee",
        "params": {
          "accountNo": "account number"
        }
      },
      "liquidateTokenPosition(uint256,uint256,uint32,uint16)": {
        "returns": {
          "liquidatorBalanceAdjustments": "- balance changes in liquidator base and token balance and net token position"
        }
      },
      "removeLimitOrder(uint256,uint32,int24,int24)": {
        "details": "checks the position of current price relative to limit order and checks limitOrderType",
        "params": {
          "accountNo": "account number",
          "tickLower": "liquidity change parameters",
          "tickUpper": "liquidity change parameters",
          "vTokenTruncatedAddress": "truncated address of token to withdraw"
        }
      },
      "removeMargin(uint256,uint32,uint256)": {
        "params": {
          "accountNo": "account number",
          "amount": "amount of token to withdraw",
          "vTokenTruncatedAddress": "truncated address of token to withdraw"
        }
      },
      "removeProfit(uint256,uint256)": {
        "params": {
          "accountNo": "account number",
          "amount": "amount of token to withdraw"
        }
      },
      "swapToken(uint256,uint32,(int256,uint160,bool,bool))": {
        "params": {
          "accountNo": "account number",
          "swapParams": "swap parameters",
          "vTokenTruncatedAddress": "truncated address of token to withdraw"
        }
      },
      "teamMultisig()": {
        "details": "Returns the address of the current team multisig.transferTeamMultisig"
      },
      "transferGovernance(address)": {
        "details": "Transfers governance to a new account (`newGovernance`). Can only be called by the current governance."
      },
      "transferTeamMultisig(address)": {
        "details": "Transfers teamMultisig to a new account (`newTeamMultisig`). Can only be called by the current teamMultisig or current governance."
      },
      "updateRangeOrder(uint256,uint32,(int24,int24,int128,uint160,uint16,bool,uint8))": {
        "params": {
          "accountNo": "account number",
          "liquidityChangeParams": "liquidity change parameters",
          "vTokenTruncatedAddress": "truncated address of token to withdraw"
        }
      },
      "withdrawProtocolFee(address[])": {
        "params": {
          "wrapperAddresses": "list of wrapper addresses to collect fees from"
        }
      }
    },
    "version": 1
  },
  "userdoc": {
    "errors": {
      "AccessDenied(address)": [
        {
          "notice": "error to denote invalid account access"
        }
      ],
      "InvalidTokenLiquidationParameters()": [
        {
          "notice": "error to denote invalid token liquidation (fraction to liquidate> 1)"
        }
      ],
      "LowNotionalValue(uint256)": [
        {
          "notice": "error to denote low notional value of txn"
        }
      ],
      "SlippageBeyondTolerance()": [
        {
          "notice": "error to denote slippage of txn beyond set threshold"
        }
      ],
      "UninitializedToken(uint32)": [
        {
          "notice": "error to denote usage of unitialized token"
        }
      ],
      "UnsupportedRToken(address)": [
        {
          "notice": "error to denote usage of unsupported token"
        }
      ],
      "UnsupportedVToken(address)": [
        {
          "notice": "error to denote usage of unsupported token"
        }
      ]
    },
    "kind": "user",
    "methods": {
      "__ClearingHouse_init(address,address,address,address,address)": {
        "notice": "PLATFORM FUNCTIONS"
      },
      "addCollateralSupport(address,address,uint32)": {
        "notice": "ADMIN FUNCTIONS"
      },
      "addMargin(uint256,uint32,uint256)": {
        "notice": "deposits 'amount' of token associated with 'vTokenTruncatedAddress'"
      },
      "createAccount()": {
        "notice": "creates a new account and adds it to the accounts map"
      },
      "getAccountView(uint256)": {
        "notice": "Account.UserInfo VIEW"
      },
      "liquidateLiquidityPositions(uint256)": {
        "notice": "keeper call for liquidation of range position"
      },
      "protocolInfo()": {
        "notice": "Account.ProtocolInfo VIEW"
      },
      "removeLimitOrder(uint256,uint32,int24,int24)": {
        "notice": "keeper call to remove a limit order"
      },
      "removeLimitOrderWithGasClaim(uint256,uint32,int24,int24,uint256)": {
        "notice": "ALTERNATE LIQUIDATION METHODS FOR FIX FEE CLAIM"
      },
      "removeMargin(uint256,uint32,uint256)": {
        "notice": "withdraws 'amount' of token associated with 'vTokenTruncatedAddress'"
      },
      "removeProfit(uint256,uint256)": {
        "notice": "withdraws 'amount' of base token from the profit made"
      },
      "swapToken(uint256,uint32,(int256,uint160,bool,bool))": {
        "notice": "swaps token associated with 'vTokenTruncatedAddress' by 'amount' (Long if amount>0 else Short)"
      },
      "updateRangeOrder(uint256,uint32,(int24,int24,int128,uint160,uint16,bool,uint8))": {
        "notice": "updates range order of token associated with 'vTokenTruncatedAddress' by 'liquidityDelta' (Adds if amount>0 else Removes)also can be used to update limitOrderType"
      },
      "withdrawProtocolFee(address[])": {
        "notice": "withdraws protocol fees collected in the supplied wrappers to team multisig"
      }
    },
    "version": 1
  },
  "storageLayout": {
    "storage": [
      {
        "astId": 252,
        "contract": "contracts/protocol/clearinghouse/ClearingHouseArbitrum.sol:ClearingHouseArbitrum",
        "label": "_initialized",
        "offset": 0,
        "slot": "0",
        "type": "t_bool"
      },
      {
        "astId": 255,
        "contract": "contracts/protocol/clearinghouse/ClearingHouseArbitrum.sol:ClearingHouseArbitrum",
        "label": "_initializing",
        "offset": 1,
        "slot": "0",
        "type": "t_bool"
      },
      {
        "astId": 26649,
        "contract": "contracts/protocol/clearinghouse/ClearingHouseArbitrum.sol:ClearingHouseArbitrum",
        "label": "_governance",
        "offset": 2,
        "slot": "0",
        "type": "t_address"
      },
      {
        "astId": 26651,
        "contract": "contracts/protocol/clearinghouse/ClearingHouseArbitrum.sol:ClearingHouseArbitrum",
        "label": "_teamMultisig",
        "offset": 0,
        "slot": "1",
        "type": "t_address"
      },
      {
        "astId": 19215,
        "contract": "contracts/protocol/clearinghouse/ClearingHouseArbitrum.sol:ClearingHouseArbitrum",
        "label": "_emptySlots1",
        "offset": 0,
        "slot": "2",
        "type": "t_array(t_uint256)98_storage"
      },
      {
        "astId": 19218,
        "contract": "contracts/protocol/clearinghouse/ClearingHouseArbitrum.sol:ClearingHouseArbitrum",
        "label": "protocol",
        "offset": 0,
        "slot": "100",
        "type": "t_struct(ProtocolInfo)8237_storage"
      },
      {
        "astId": 19222,
        "contract": "contracts/protocol/clearinghouse/ClearingHouseArbitrum.sol:ClearingHouseArbitrum",
        "label": "realTokenInitilized",
        "offset": 0,
        "slot": "208",
        "type": "t_mapping(t_address,t_bool)"
      },
      {
        "astId": 19227,
        "contract": "contracts/protocol/clearinghouse/ClearingHouseArbitrum.sol:ClearingHouseArbitrum",
        "label": "supportedVTokens",
        "offset": 0,
        "slot": "209",
        "type": "t_mapping(t_contract(IVToken)8121,t_bool)"
      },
      {
        "astId": 19231,
        "contract": "contracts/protocol/clearinghouse/ClearingHouseArbitrum.sol:ClearingHouseArbitrum",
        "label": "supportedDeposits",
        "offset": 0,
        "slot": "210",
        "type": "t_mapping(t_address,t_bool)"
      },
      {
        "astId": 19233,
        "contract": "contracts/protocol/clearinghouse/ClearingHouseArbitrum.sol:ClearingHouseArbitrum",
        "label": "numAccounts",
        "offset": 0,
        "slot": "211",
        "type": "t_uint256"
      },
      {
        "astId": 19238,
        "contract": "contracts/protocol/clearinghouse/ClearingHouseArbitrum.sol:ClearingHouseArbitrum",
        "label": "accounts",
        "offset": 0,
        "slot": "212",
        "type": "t_mapping(t_uint256,t_struct(UserInfo)8204_storage)"
      },
      {
        "astId": 19240,
        "contract": "contracts/protocol/clearinghouse/ClearingHouseArbitrum.sol:ClearingHouseArbitrum",
        "label": "paused",
        "offset": 0,
        "slot": "213",
        "type": "t_bool"
      },
      {
        "astId": 19243,
        "contract": "contracts/protocol/clearinghouse/ClearingHouseArbitrum.sol:ClearingHouseArbitrum",
        "label": "rBase",
        "offset": 1,
        "slot": "213",
        "type": "t_contract(IERC20)3180"
      },
      {
        "astId": 19245,
        "contract": "contracts/protocol/clearinghouse/ClearingHouseArbitrum.sol:ClearingHouseArbitrum",
        "label": "rageTradeFactoryAddress",
        "offset": 0,
        "slot": "214",
        "type": "t_address"
      },
      {
        "astId": 19248,
        "contract": "contracts/protocol/clearinghouse/ClearingHouseArbitrum.sol:ClearingHouseArbitrum",
        "label": "insuranceFund",
        "offset": 0,
        "slot": "215",
        "type": "t_contract(IInsuranceFund)7933"
      },
      {
        "astId": 19251,
        "contract": "contracts/protocol/clearinghouse/ClearingHouseArbitrum.sol:ClearingHouseArbitrum",
        "label": "nativeOracle",
        "offset": 0,
        "slot": "216",
        "type": "t_contract(IOracle)7943"
      },
      {
        "astId": 19255,
        "contract": "contracts/protocol/clearinghouse/ClearingHouseArbitrum.sol:ClearingHouseArbitrum",
        "label": "_emptySlots2",
        "offset": 0,
        "slot": "217",
        "type": "t_array(t_uint256)100_storage"
      },
      {
        "astId": 26914,
        "contract": "contracts/protocol/clearinghouse/ClearingHouseArbitrum.sol:ClearingHouseArbitrum",
        "label": "txGasPriceLimit",
        "offset": 0,
        "slot": "317",
        "type": "t_uint256"
      }
    ],
    "types": {
      "t_address": {
        "encoding": "inplace",
        "label": "address",
        "numberOfBytes": "20"
      },
      "t_array(t_uint256)100_storage": {
        "base": "t_uint256",
        "encoding": "inplace",
        "label": "uint256[100]",
        "numberOfBytes": "3200"
      },
      "t_array(t_uint256)98_storage": {
        "base": "t_uint256",
        "encoding": "inplace",
        "label": "uint256[98]",
        "numberOfBytes": "3136"
      },
      "t_array(t_uint32)8_storage": {
        "base": "t_uint32",
        "encoding": "inplace",
        "label": "uint32[8]",
        "numberOfBytes": "32"
      },
      "t_array(t_uint48)5_storage": {
        "base": "t_uint48",
        "encoding": "inplace",
        "label": "uint48[5]",
        "numberOfBytes": "32"
      },
      "t_bool": {
        "encoding": "inplace",
        "label": "bool",
        "numberOfBytes": "1"
      },
      "t_contract(IERC20)3180": {
        "encoding": "inplace",
        "label": "contract IERC20",
        "numberOfBytes": "20"
      },
      "t_contract(IInsuranceFund)7933": {
        "encoding": "inplace",
        "label": "contract IInsuranceFund",
        "numberOfBytes": "20"
      },
      "t_contract(IOracle)7943": {
        "encoding": "inplace",
        "label": "contract IOracle",
        "numberOfBytes": "20"
      },
      "t_contract(IUniswapV3Pool)5097": {
        "encoding": "inplace",
        "label": "contract IUniswapV3Pool",
        "numberOfBytes": "20"
      },
      "t_contract(IVBase)7967": {
        "encoding": "inplace",
        "label": "contract IVBase",
        "numberOfBytes": "20"
      },
      "t_contract(IVPoolWrapper)8097": {
        "encoding": "inplace",
        "label": "contract IVPoolWrapper",
        "numberOfBytes": "20"
      },
      "t_contract(IVToken)8121": {
        "encoding": "inplace",
        "label": "contract IVToken",
        "numberOfBytes": "20"
      },
      "t_enum(LimitOrderType)7620": {
        "encoding": "inplace",
        "label": "enum IClearingHouse.LimitOrderType",
        "numberOfBytes": "1"
      },
      "t_int24": {
        "encoding": "inplace",
        "label": "int24",
        "numberOfBytes": "3"
      },
      "t_int256": {
        "encoding": "inplace",
        "label": "int256",
        "numberOfBytes": "32"
      },
      "t_mapping(t_address,t_bool)": {
        "encoding": "mapping",
        "key": "t_address",
        "label": "mapping(address => bool)",
        "numberOfBytes": "32",
        "value": "t_bool"
      },
      "t_mapping(t_contract(IVToken)8121,t_bool)": {
        "encoding": "mapping",
        "key": "t_contract(IVToken)8121",
        "label": "mapping(contract IVToken => bool)",
        "numberOfBytes": "32",
        "value": "t_bool"
      },
      "t_mapping(t_contract(IVToken)8121,t_struct(RageTradePool)7604_storage)": {
        "encoding": "mapping",
        "key": "t_contract(IVToken)8121",
        "label": "mapping(contract IVToken => struct IClearingHouse.RageTradePool)",
        "numberOfBytes": "32",
        "value": "t_struct(RageTradePool)7604_storage"
      },
      "t_mapping(t_uint256,t_struct(UserInfo)8204_storage)": {
        "encoding": "mapping",
        "key": "t_uint256",
        "label": "mapping(uint256 => struct Account.UserInfo)",
        "numberOfBytes": "32",
        "value": "t_struct(UserInfo)8204_storage"
      },
      "t_mapping(t_uint32,t_contract(IVToken)8121)": {
        "encoding": "mapping",
        "key": "t_uint32",
        "label": "mapping(uint32 => contract IVToken)",
        "numberOfBytes": "32",
        "value": "t_contract(IVToken)8121"
      },
      "t_mapping(t_uint32,t_struct(Position)15343_storage)": {
        "encoding": "mapping",
        "key": "t_uint32",
        "label": "mapping(uint32 => struct VTokenPosition.Position)",
        "numberOfBytes": "32",
        "value": "t_struct(Position)15343_storage"
      },
      "t_mapping(t_uint32,t_struct(RToken)11933_storage)": {
        "encoding": "mapping",
        "key": "t_uint32",
        "label": "mapping(uint32 => struct RTokenLib.RToken)",
        "numberOfBytes": "32",
        "value": "t_struct(RToken)11933_storage"
      },
      "t_mapping(t_uint32,t_uint256)": {
        "encoding": "mapping",
        "key": "t_uint32",
        "label": "mapping(uint32 => uint256)",
        "numberOfBytes": "32",
        "value": "t_uint256"
      },
      "t_mapping(t_uint48,t_struct(Info)10300_storage)": {
        "encoding": "mapping",
        "key": "t_uint48",
        "label": "mapping(uint48 => struct LiquidityPosition.Info)",
        "numberOfBytes": "32",
        "value": "t_struct(Info)10300_storage"
      },
      "t_struct(Info)10300_storage": {
        "encoding": "inplace",
        "label": "struct LiquidityPosition.Info",
        "members": [
          {
            "astId": 10279,
            "contract": "contracts/protocol/clearinghouse/ClearingHouseArbitrum.sol:ClearingHouseArbitrum",
            "label": "limitOrderType",
            "offset": 0,
            "slot": "0",
            "type": "t_enum(LimitOrderType)7620"
          },
          {
            "astId": 10281,
            "contract": "contracts/protocol/clearinghouse/ClearingHouseArbitrum.sol:ClearingHouseArbitrum",
            "label": "tickLower",
            "offset": 1,
            "slot": "0",
            "type": "t_int24"
          },
          {
            "astId": 10283,
            "contract": "contracts/protocol/clearinghouse/ClearingHouseArbitrum.sol:ClearingHouseArbitrum",
            "label": "tickUpper",
            "offset": 4,
            "slot": "0",
            "type": "t_int24"
          },
          {
            "astId": 10285,
            "contract": "contracts/protocol/clearinghouse/ClearingHouseArbitrum.sol:ClearingHouseArbitrum",
            "label": "liquidity",
            "offset": 7,
            "slot": "0",
            "type": "t_uint128"
          },
          {
            "astId": 10287,
            "contract": "contracts/protocol/clearinghouse/ClearingHouseArbitrum.sol:ClearingHouseArbitrum",
            "label": "vTokenAmountIn",
            "offset": 0,
            "slot": "1",
            "type": "t_int256"
          },
          {
            "astId": 10289,
            "contract": "contracts/protocol/clearinghouse/ClearingHouseArbitrum.sol:ClearingHouseArbitrum",
            "label": "sumALastX128",
            "offset": 0,
            "slot": "2",
            "type": "t_int256"
          },
          {
            "astId": 10291,
            "contract": "contracts/protocol/clearinghouse/ClearingHouseArbitrum.sol:ClearingHouseArbitrum",
            "label": "sumBInsideLastX128",
            "offset": 0,
            "slot": "3",
            "type": "t_int256"
          },
          {
            "astId": 10293,
            "contract": "contracts/protocol/clearinghouse/ClearingHouseArbitrum.sol:ClearingHouseArbitrum",
            "label": "sumFpInsideLastX128",
            "offset": 0,
            "slot": "4",
            "type": "t_int256"
          },
          {
            "astId": 10295,
            "contract": "contracts/protocol/clearinghouse/ClearingHouseArbitrum.sol:ClearingHouseArbitrum",
            "label": "sumFeeInsideLastX128",
            "offset": 0,
            "slot": "5",
            "type": "t_uint256"
          },
          {
            "astId": 10299,
            "contract": "contracts/protocol/clearinghouse/ClearingHouseArbitrum.sol:ClearingHouseArbitrum",
            "label": "_emptySlots",
            "offset": 0,
            "slot": "6",
            "type": "t_array(t_uint256)100_storage"
          }
        ],
        "numberOfBytes": "3392"
      },
      "t_struct(Info)11012_storage": {
        "encoding": "inplace",
        "label": "struct LiquidityPositionSet.Info",
        "members": [
          {
            "astId": 11002,
            "contract": "contracts/protocol/clearinghouse/ClearingHouseArbitrum.sol:ClearingHouseArbitrum",
            "label": "active",
            "offset": 0,
            "slot": "0",
            "type": "t_array(t_uint48)5_storage"
          },
          {
            "astId": 11007,
            "contract": "contracts/protocol/clearinghouse/ClearingHouseArbitrum.sol:ClearingHouseArbitrum",
            "label": "positions",
            "offset": 0,
            "slot": "1",
            "type": "t_mapping(t_uint48,t_struct(Info)10300_storage)"
          },
          {
            "astId": 11011,
            "contract": "contracts/protocol/clearinghouse/ClearingHouseArbitrum.sol:ClearingHouseArbitrum",
            "label": "_emptySlots",
            "offset": 0,
            "slot": "2",
            "type": "t_array(t_uint256)100_storage"
          }
        ],
        "numberOfBytes": "3264"
      },
      "t_struct(Info)9630_storage": {
        "encoding": "inplace",
        "label": "struct DepositTokenSet.Info",
        "members": [
          {
            "astId": 9621,
            "contract": "contracts/protocol/clearinghouse/ClearingHouseArbitrum.sol:ClearingHouseArbitrum",
            "label": "active",
            "offset": 0,
            "slot": "0",
            "type": "t_array(t_uint32)8_storage"
          },
          {
            "astId": 9625,
            "contract": "contracts/protocol/clearinghouse/ClearingHouseArbitrum.sol:ClearingHouseArbitrum",
            "label": "deposits",
            "offset": 0,
            "slot": "1",
            "type": "t_mapping(t_uint32,t_uint256)"
          },
          {
            "astId": 9629,
            "contract": "contracts/protocol/clearinghouse/ClearingHouseArbitrum.sol:ClearingHouseArbitrum",
            "label": "_emptySlots",
            "offset": 0,
            "slot": "2",
            "type": "t_array(t_uint256)100_storage"
          }
        ],
        "numberOfBytes": "3264"
      },
      "t_struct(LiquidationParams)8244_storage": {
        "encoding": "inplace",
        "label": "struct Account.LiquidationParams",
        "members": [
          {
            "astId": 8239,
            "contract": "contracts/protocol/clearinghouse/ClearingHouseArbitrum.sol:ClearingHouseArbitrum",
            "label": "liquidationFeeFraction",
            "offset": 0,
            "slot": "0",
            "type": "t_uint16"
          },
          {
            "astId": 8241,
            "contract": "contracts/protocol/clearinghouse/ClearingHouseArbitrum.sol:ClearingHouseArbitrum",
            "label": "tokenLiquidationPriceDeltaBps",
            "offset": 2,
            "slot": "0",
            "type": "t_uint16"
          },
          {
            "astId": 8243,
            "contract": "contracts/protocol/clearinghouse/ClearingHouseArbitrum.sol:ClearingHouseArbitrum",
            "label": "insuranceFundFeeShareBps",
            "offset": 4,
            "slot": "0",
            "type": "t_uint16"
          }
        ],
        "numberOfBytes": "32"
      },
      "t_struct(Position)15343_storage": {
        "encoding": "inplace",
        "label": "struct VTokenPosition.Position",
        "members": [
          {
            "astId": 15331,
            "contract": "contracts/protocol/clearinghouse/ClearingHouseArbitrum.sol:ClearingHouseArbitrum",
            "label": "balance",
            "offset": 0,
            "slot": "0",
            "type": "t_int256"
          },
          {
            "astId": 15333,
            "contract": "contracts/protocol/clearinghouse/ClearingHouseArbitrum.sol:ClearingHouseArbitrum",
            "label": "netTraderPosition",
            "offset": 0,
            "slot": "1",
            "type": "t_int256"
          },
          {
            "astId": 15335,
            "contract": "contracts/protocol/clearinghouse/ClearingHouseArbitrum.sol:ClearingHouseArbitrum",
            "label": "sumAX128Ckpt",
            "offset": 0,
            "slot": "2",
            "type": "t_int256"
          },
          {
            "astId": 15338,
            "contract": "contracts/protocol/clearinghouse/ClearingHouseArbitrum.sol:ClearingHouseArbitrum",
            "label": "liquidityPositions",
            "offset": 0,
            "slot": "3",
            "type": "t_struct(Info)11012_storage"
          },
          {
            "astId": 15342,
            "contract": "contracts/protocol/clearinghouse/ClearingHouseArbitrum.sol:ClearingHouseArbitrum",
            "label": "_emptySlots",
            "offset": 0,
            "slot": "105",
            "type": "t_array(t_uint256)100_storage"
          }
        ],
        "numberOfBytes": "6560"
      },
      "t_struct(ProtocolInfo)8237_storage": {
        "encoding": "inplace",
        "label": "struct Account.ProtocolInfo",
        "members": [
          {
            "astId": 8210,
            "contract": "contracts/protocol/clearinghouse/ClearingHouseArbitrum.sol:ClearingHouseArbitrum",
            "label": "pools",
            "offset": 0,
            "slot": "0",
            "type": "t_mapping(t_contract(IVToken)8121,t_struct(RageTradePool)7604_storage)"
          },
          {
            "astId": 8215,
            "contract": "contracts/protocol/clearinghouse/ClearingHouseArbitrum.sol:ClearingHouseArbitrum",
            "label": "rTokens",
            "offset": 0,
            "slot": "1",
            "type": "t_mapping(t_uint32,t_struct(RToken)11933_storage)"
          },
          {
            "astId": 8220,
            "contract": "contracts/protocol/clearinghouse/ClearingHouseArbitrum.sol:ClearingHouseArbitrum",
            "label": "vTokens",
            "offset": 0,
            "slot": "2",
            "type": "t_mapping(t_uint32,t_contract(IVToken)8121)"
          },
          {
            "astId": 8223,
            "contract": "contracts/protocol/clearinghouse/ClearingHouseArbitrum.sol:ClearingHouseArbitrum",
            "label": "vBase",
            "offset": 0,
            "slot": "3",
            "type": "t_contract(IVBase)7967"
          },
          {
            "astId": 8226,
            "contract": "contracts/protocol/clearinghouse/ClearingHouseArbitrum.sol:ClearingHouseArbitrum",
            "label": "liquidationParams",
            "offset": 0,
            "slot": "4",
            "type": "t_struct(LiquidationParams)8244_storage"
          },
          {
            "astId": 8228,
            "contract": "contracts/protocol/clearinghouse/ClearingHouseArbitrum.sol:ClearingHouseArbitrum",
            "label": "minRequiredMargin",
            "offset": 0,
            "slot": "5",
            "type": "t_uint256"
          },
          {
            "astId": 8230,
            "contract": "contracts/protocol/clearinghouse/ClearingHouseArbitrum.sol:ClearingHouseArbitrum",
            "label": "removeLimitOrderFee",
            "offset": 0,
            "slot": "6",
            "type": "t_uint256"
          },
          {
            "astId": 8232,
            "contract": "contracts/protocol/clearinghouse/ClearingHouseArbitrum.sol:ClearingHouseArbitrum",
            "label": "minimumOrderNotional",
            "offset": 0,
            "slot": "7",
            "type": "t_uint256"
          },
          {
            "astId": 8236,
            "contract": "contracts/protocol/clearinghouse/ClearingHouseArbitrum.sol:ClearingHouseArbitrum",
            "label": "_emptySlots",
            "offset": 0,
            "slot": "8",
            "type": "t_array(t_uint256)100_storage"
          }
        ],
        "numberOfBytes": "3456"
      },
      "t_struct(RToken)11933_storage": {
        "encoding": "inplace",
        "label": "struct RTokenLib.RToken",
        "members": [
          {
            "astId": 11928,
            "contract": "contracts/protocol/clearinghouse/ClearingHouseArbitrum.sol:ClearingHouseArbitrum",
            "label": "tokenAddress",
            "offset": 0,
            "slot": "0",
            "type": "t_address"
          },
          {
            "astId": 11930,
            "contract": "contracts/protocol/clearinghouse/ClearingHouseArbitrum.sol:ClearingHouseArbitrum",
            "label": "oracleAddress",
            "offset": 0,
            "slot": "1",
            "type": "t_address"
          },
          {
            "astId": 11932,
            "contract": "contracts/protocol/clearinghouse/ClearingHouseArbitrum.sol:ClearingHouseArbitrum",
            "label": "oracleTimeHorizon",
            "offset": 20,
            "slot": "1",
            "type": "t_uint32"
          }
        ],
        "numberOfBytes": "64"
      },
      "t_struct(RageTradePool)7604_storage": {
        "encoding": "inplace",
        "label": "struct IClearingHouse.RageTradePool",
        "members": [
          {
            "astId": 7597,
            "contract": "contracts/protocol/clearinghouse/ClearingHouseArbitrum.sol:ClearingHouseArbitrum",
            "label": "vPool",
            "offset": 0,
            "slot": "0",
            "type": "t_contract(IUniswapV3Pool)5097"
          },
          {
            "astId": 7600,
            "contract": "contracts/protocol/clearinghouse/ClearingHouseArbitrum.sol:ClearingHouseArbitrum",
            "label": "vPoolWrapper",
            "offset": 0,
            "slot": "1",
            "type": "t_contract(IVPoolWrapper)8097"
          },
          {
            "astId": 7603,
            "contract": "contracts/protocol/clearinghouse/ClearingHouseArbitrum.sol:ClearingHouseArbitrum",
            "label": "settings",
            "offset": 0,
            "slot": "2",
            "type": "t_struct(RageTradePoolSettings)7616_storage"
          }
        ],
        "numberOfBytes": "96"
      },
      "t_struct(RageTradePoolSettings)7616_storage": {
        "encoding": "inplace",
        "label": "struct IClearingHouse.RageTradePoolSettings",
        "members": [
          {
            "astId": 7606,
            "contract": "contracts/protocol/clearinghouse/ClearingHouseArbitrum.sol:ClearingHouseArbitrum",
            "label": "initialMarginRatio",
            "offset": 0,
            "slot": "0",
            "type": "t_uint16"
          },
          {
            "astId": 7608,
            "contract": "contracts/protocol/clearinghouse/ClearingHouseArbitrum.sol:ClearingHouseArbitrum",
            "label": "maintainanceMarginRatio",
            "offset": 2,
            "slot": "0",
            "type": "t_uint16"
          },
          {
            "astId": 7610,
            "contract": "contracts/protocol/clearinghouse/ClearingHouseArbitrum.sol:ClearingHouseArbitrum",
            "label": "twapDuration",
            "offset": 4,
            "slot": "0",
            "type": "t_uint32"
          },
          {
            "astId": 7612,
            "contract": "contracts/protocol/clearinghouse/ClearingHouseArbitrum.sol:ClearingHouseArbitrum",
            "label": "whitelisted",
            "offset": 8,
            "slot": "0",
            "type": "t_bool"
          },
          {
            "astId": 7615,
            "contract": "contracts/protocol/clearinghouse/ClearingHouseArbitrum.sol:ClearingHouseArbitrum",
            "label": "oracle",
            "offset": 9,
            "slot": "0",
            "type": "t_contract(IOracle)7943"
          }
        ],
        "numberOfBytes": "32"
      },
      "t_struct(Set)15604_storage": {
        "encoding": "inplace",
        "label": "struct VTokenPositionSet.Set",
        "members": [
          {
            "astId": 15590,
            "contract": "contracts/protocol/clearinghouse/ClearingHouseArbitrum.sol:ClearingHouseArbitrum",
            "label": "accountNo",
            "offset": 0,
            "slot": "0",
            "type": "t_uint256"
          },
          {
            "astId": 15594,
            "contract": "contracts/protocol/clearinghouse/ClearingHouseArbitrum.sol:ClearingHouseArbitrum",
            "label": "active",
            "offset": 0,
            "slot": "1",
            "type": "t_array(t_uint32)8_storage"
          },
          {
            "astId": 15599,
            "contract": "contracts/protocol/clearinghouse/ClearingHouseArbitrum.sol:ClearingHouseArbitrum",
            "label": "positions",
            "offset": 0,
            "slot": "2",
            "type": "t_mapping(t_uint32,t_struct(Position)15343_storage)"
          },
          {
            "astId": 15603,
            "contract": "contracts/protocol/clearinghouse/ClearingHouseArbitrum.sol:ClearingHouseArbitrum",
            "label": "_emptySlots",
            "offset": 0,
            "slot": "3",
            "type": "t_array(t_uint256)100_storage"
          }
        ],
        "numberOfBytes": "3296"
      },
      "t_struct(UserInfo)8204_storage": {
        "encoding": "inplace",
        "label": "struct Account.UserInfo",
        "members": [
          {
            "astId": 8193,
            "contract": "contracts/protocol/clearinghouse/ClearingHouseArbitrum.sol:ClearingHouseArbitrum",
            "label": "owner",
            "offset": 0,
            "slot": "0",
            "type": "t_address"
          },
          {
            "astId": 8196,
            "contract": "contracts/protocol/clearinghouse/ClearingHouseArbitrum.sol:ClearingHouseArbitrum",
            "label": "tokenPositions",
            "offset": 0,
            "slot": "1",
            "type": "t_struct(Set)15604_storage"
          },
          {
            "astId": 8199,
            "contract": "contracts/protocol/clearinghouse/ClearingHouseArbitrum.sol:ClearingHouseArbitrum",
            "label": "tokenDeposits",
            "offset": 0,
            "slot": "104",
            "type": "t_struct(Info)9630_storage"
          },
          {
            "astId": 8203,
            "contract": "contracts/protocol/clearinghouse/ClearingHouseArbitrum.sol:ClearingHouseArbitrum",
            "label": "_emptySlots",
            "offset": 0,
            "slot": "206",
            "type": "t_array(t_uint256)100_storage"
          }
        ],
        "numberOfBytes": "9792"
      },
      "t_uint128": {
        "encoding": "inplace",
        "label": "uint128",
        "numberOfBytes": "16"
      },
      "t_uint16": {
        "encoding": "inplace",
        "label": "uint16",
        "numberOfBytes": "2"
      },
      "t_uint256": {
        "encoding": "inplace",
        "label": "uint256",
        "numberOfBytes": "32"
      },
      "t_uint32": {
        "encoding": "inplace",
        "label": "uint32",
        "numberOfBytes": "4"
      },
      "t_uint48": {
        "encoding": "inplace",
        "label": "uint48",
        "numberOfBytes": "6"
      }
    }
  }
}