{
  "address": "0xB73dBC04ec0df051d54198ba0240EdAa73452eBD",
  "abi": [
    {
      "inputs": [
        {
          "internalType": "address",
          "name": "senderAddress",
          "type": "address"
        }
      ],
      "name": "AccessDenied",
      "type": "error"
    },
    {
      "inputs": [
        {
          "internalType": "uint32",
          "name": "collateralId",
          "type": "uint32"
        }
      ],
      "name": "CollateralDoesNotExist",
      "type": "error"
    },
    {
      "inputs": [
        {
          "internalType": "uint32",
          "name": "collateralId",
          "type": "uint32"
        }
      ],
      "name": "CollateralNotAllowedForUse",
      "type": "error"
    },
    {
      "inputs": [
        {
          "internalType": "uint160",
          "name": "sqrtPriceX96",
          "type": "uint160"
        }
      ],
      "name": "IllegalSqrtPrice",
      "type": "error"
    },
    {
      "inputs": [
        {
          "internalType": "contract IERC20",
          "name": "incorrectAddress",
          "type": "address"
        },
        {
          "internalType": "contract IERC20",
          "name": "correctAddress",
          "type": "address"
        }
      ],
      "name": "IncorrectCollateralAddress",
      "type": "error"
    },
    {
      "inputs": [
        {
          "internalType": "address",
          "name": "invalidAddress",
          "type": "address"
        }
      ],
      "name": "InvalidCollateralAddress",
      "type": "error"
    },
    {
      "inputs": [
        {
          "internalType": "enum IClearingHouseEnums.MulticallOperationType",
          "name": "multicallOperationType",
          "type": "uint8"
        }
      ],
      "name": "InvalidMulticallOperationType",
      "type": "error"
    },
    {
      "inputs": [],
      "name": "InvalidTokenLiquidationParameters",
      "type": "error"
    },
    {
      "inputs": [
        {
          "internalType": "int256",
          "name": "keeperFee",
          "type": "int256"
        }
      ],
      "name": "KeeperFeeNotPositive",
      "type": "error"
    },
    {
      "inputs": [
        {
          "internalType": "uint256",
          "name": "notionalValue",
          "type": "uint256"
        }
      ],
      "name": "LowNotionalValue",
      "type": "error"
    },
    {
      "inputs": [],
      "name": "NotRageTradeFactory",
      "type": "error"
    },
    {
      "inputs": [
        {
          "internalType": "uint32",
          "name": "poolId",
          "type": "uint32"
        }
      ],
      "name": "PoolDoesNotExist",
      "type": "error"
    },
    {
      "inputs": [
        {
          "internalType": "uint32",
          "name": "poolId",
          "type": "uint32"
        }
      ],
      "name": "PoolNotAllowedForTrade",
      "type": "error"
    },
    {
      "inputs": [],
      "name": "SlippageBeyondTolerance",
      "type": "error"
    },
    {
      "inputs": [],
      "name": "T",
      "type": "error"
    },
    {
      "inputs": [
        {
          "internalType": "uint32",
          "name": "period",
          "type": "uint32"
        }
      ],
      "name": "UV3PH_IllegalTwapDuration",
      "type": "error"
    },
    {
      "inputs": [],
      "name": "Unauthorised",
      "type": "error"
    },
    {
      "inputs": [],
      "name": "ZeroAddress",
      "type": "error"
    },
    {
      "inputs": [],
      "name": "ZeroAmount",
      "type": "error"
    },
    {
      "anonymous": false,
      "inputs": [
        {
          "indexed": true,
          "internalType": "address",
          "name": "ownerAddress",
          "type": "address"
        },
        {
          "indexed": false,
          "internalType": "uint256",
          "name": "accountId",
          "type": "uint256"
        }
      ],
      "name": "AccountCreated",
      "type": "event"
    },
    {
      "anonymous": false,
      "inputs": [
        {
          "indexed": false,
          "internalType": "contract IERC20",
          "name": "cToken",
          "type": "address"
        },
        {
          "components": [
            {
              "internalType": "contract IOracle",
              "name": "oracle",
              "type": "address"
            },
            {
              "internalType": "uint32",
              "name": "twapDuration",
              "type": "uint32"
            },
            {
              "internalType": "bool",
              "name": "isAllowedForDeposit",
              "type": "bool"
            }
          ],
          "indexed": false,
          "internalType": "struct IClearingHouseStructures.CollateralSettings",
          "name": "cTokenInfo",
          "type": "tuple"
        }
      ],
      "name": "CollateralSettingsUpdated",
      "type": "event"
    },
    {
      "anonymous": false,
      "inputs": [
        {
          "indexed": true,
          "internalType": "address",
          "name": "previousGovernance",
          "type": "address"
        },
        {
          "indexed": true,
          "internalType": "address",
          "name": "newGovernance",
          "type": "address"
        }
      ],
      "name": "GovernanceTransferred",
      "type": "event"
    },
    {
      "anonymous": false,
      "inputs": [
        {
          "indexed": false,
          "internalType": "address",
          "name": "account",
          "type": "address"
        }
      ],
      "name": "Paused",
      "type": "event"
    },
    {
      "anonymous": false,
      "inputs": [
        {
          "indexed": false,
          "internalType": "bool",
          "name": "paused",
          "type": "bool"
        }
      ],
      "name": "PausedUpdated",
      "type": "event"
    },
    {
      "anonymous": false,
      "inputs": [
        {
          "indexed": false,
          "internalType": "uint32",
          "name": "poolId",
          "type": "uint32"
        },
        {
          "components": [
            {
              "internalType": "uint16",
              "name": "initialMarginRatioBps",
              "type": "uint16"
            },
            {
              "internalType": "uint16",
              "name": "maintainanceMarginRatioBps",
              "type": "uint16"
            },
            {
              "internalType": "uint16",
              "name": "maxVirtualPriceDeviationRatioBps",
              "type": "uint16"
            },
            {
              "internalType": "uint32",
              "name": "twapDuration",
              "type": "uint32"
            },
            {
              "internalType": "bool",
              "name": "isAllowedForTrade",
              "type": "bool"
            },
            {
              "internalType": "bool",
              "name": "isCrossMargined",
              "type": "bool"
            },
            {
              "internalType": "contract IOracle",
              "name": "oracle",
              "type": "address"
            }
          ],
          "indexed": false,
          "internalType": "struct IClearingHouseStructures.PoolSettings",
          "name": "settings",
          "type": "tuple"
        }
      ],
      "name": "PoolSettingsUpdated",
      "type": "event"
    },
    {
      "anonymous": false,
      "inputs": [
        {
          "components": [
            {
              "internalType": "uint16",
              "name": "rangeLiquidationFeeFraction",
              "type": "uint16"
            },
            {
              "internalType": "uint16",
              "name": "tokenLiquidationFeeFraction",
              "type": "uint16"
            },
            {
              "internalType": "uint16",
              "name": "closeFactorMMThresholdBps",
              "type": "uint16"
            },
            {
              "internalType": "uint16",
              "name": "partialLiquidationCloseFactorBps",
              "type": "uint16"
            },
            {
              "internalType": "uint16",
              "name": "insuranceFundFeeShareBps",
              "type": "uint16"
            },
            {
              "internalType": "uint16",
              "name": "liquidationSlippageSqrtToleranceBps",
              "type": "uint16"
            },
            {
              "internalType": "uint64",
              "name": "maxRangeLiquidationFees",
              "type": "uint64"
            },
            {
              "internalType": "uint64",
              "name": "minNotionalLiquidatable",
              "type": "uint64"
            }
          ],
          "indexed": false,
          "internalType": "struct IClearingHouseStructures.LiquidationParams",
          "name": "liquidationParams",
          "type": "tuple"
        },
        {
          "indexed": false,
          "internalType": "uint256",
          "name": "removeLimitOrderFee",
          "type": "uint256"
        },
        {
          "indexed": false,
          "internalType": "uint256",
          "name": "minimumOrderNotional",
          "type": "uint256"
        },
        {
          "indexed": false,
          "internalType": "uint256",
          "name": "minRequiredMargin",
          "type": "uint256"
        }
      ],
      "name": "ProtocolSettingsUpdated",
      "type": "event"
    },
    {
      "anonymous": false,
      "inputs": [
        {
          "indexed": true,
          "internalType": "address",
          "name": "previousTeamMultisig",
          "type": "address"
        },
        {
          "indexed": true,
          "internalType": "address",
          "name": "newTeamMultisig",
          "type": "address"
        }
      ],
      "name": "TeamMultisigTransferred",
      "type": "event"
    },
    {
      "anonymous": false,
      "inputs": [
        {
          "indexed": false,
          "internalType": "address",
          "name": "account",
          "type": "address"
        }
      ],
      "name": "Unpaused",
      "type": "event"
    },
    {
      "inputs": [
        {
          "internalType": "address",
          "name": "_rageTradeFactoryAddress",
          "type": "address"
        },
        {
          "internalType": "contract IERC20",
          "name": "_defaultCollateralToken",
          "type": "address"
        },
        {
          "internalType": "contract IOracle",
          "name": "_defaultCollateralTokenOracle",
          "type": "address"
        },
        {
          "internalType": "contract IInsuranceFund",
          "name": "_insuranceFund",
          "type": "address"
        },
        {
          "internalType": "contract IVQuote",
          "name": "_vQuote",
          "type": "address"
        }
      ],
      "name": "__initialize_ClearingHouse",
      "outputs": [],
      "stateMutability": "nonpayable",
      "type": "function"
    },
    {
      "inputs": [],
      "name": "createAccount",
      "outputs": [
        {
          "internalType": "uint256",
          "name": "newAccountId",
          "type": "uint256"
        }
      ],
      "stateMutability": "nonpayable",
      "type": "function"
    },
    {
      "inputs": [
        {
          "internalType": "uint32",
          "name": "collateralId",
          "type": "uint32"
        },
        {
          "internalType": "uint256",
          "name": "amount",
          "type": "uint256"
        }
      ],
      "name": "createAccountAndAddMargin",
      "outputs": [
        {
          "internalType": "uint256",
          "name": "newAccountId",
          "type": "uint256"
        }
      ],
      "stateMutability": "nonpayable",
      "type": "function"
    },
    {
      "inputs": [
        {
          "internalType": "bytes32",
          "name": "slot",
          "type": "bytes32"
        }
      ],
      "name": "extsload",
      "outputs": [
        {
          "internalType": "bytes32",
          "name": "val",
          "type": "bytes32"
        }
      ],
      "stateMutability": "view",
      "type": "function"
    },
    {
      "inputs": [
        {
          "internalType": "bytes32[]",
          "name": "slots",
          "type": "bytes32[]"
        }
      ],
      "name": "extsload",
      "outputs": [
        {
          "internalType": "bytes32[]",
          "name": "",
          "type": "bytes32[]"
        }
      ],
      "stateMutability": "view",
      "type": "function"
    },
    {
      "inputs": [
        {
          "internalType": "uint256",
          "name": "accountId",
          "type": "uint256"
        }
      ],
      "name": "getAccountInfo",
      "outputs": [
        {
          "internalType": "address",
          "name": "owner",
          "type": "address"
        },
        {
          "internalType": "int256",
          "name": "vQuoteBalance",
          "type": "int256"
        },
        {
          "components": [
            {
              "internalType": "contract IERC20",
              "name": "collateral",
              "type": "address"
            },
            {
              "internalType": "uint256",
              "name": "balance",
              "type": "uint256"
            }
          ],
          "internalType": "struct IClearingHouseStructures.CollateralDepositView[]",
          "name": "collateralDeposits",
          "type": "tuple[]"
        },
        {
          "components": [
            {
              "internalType": "uint32",
              "name": "poolId",
              "type": "uint32"
            },
            {
              "internalType": "int256",
              "name": "balance",
              "type": "int256"
            },
            {
              "internalType": "int256",
              "name": "netTraderPosition",
              "type": "int256"
            },
            {
              "internalType": "int256",
              "name": "sumAX128Chkpt",
              "type": "int256"
            },
            {
              "components": [
                {
                  "internalType": "int24",
                  "name": "tickLower",
                  "type": "int24"
                },
                {
                  "internalType": "int24",
                  "name": "tickUpper",
                  "type": "int24"
                },
                {
                  "internalType": "uint128",
                  "name": "liquidity",
                  "type": "uint128"
                },
                {
                  "internalType": "int256",
                  "name": "vTokenAmountIn",
                  "type": "int256"
                },
                {
                  "internalType": "int256",
                  "name": "sumALastX128",
                  "type": "int256"
                },
                {
                  "internalType": "int256",
                  "name": "sumBInsideLastX128",
                  "type": "int256"
                },
                {
                  "internalType": "int256",
                  "name": "sumFpInsideLastX128",
                  "type": "int256"
                },
                {
                  "internalType": "uint256",
                  "name": "sumFeeInsideLastX128",
                  "type": "uint256"
                },
                {
                  "internalType": "enum IClearingHouseEnums.LimitOrderType",
                  "name": "limitOrderType",
                  "type": "uint8"
                }
              ],
              "internalType": "struct IClearingHouseStructures.LiquidityPositionView[]",
              "name": "liquidityPositions",
              "type": "tuple[]"
            }
          ],
          "internalType": "struct IClearingHouseStructures.VTokenPositionView[]",
          "name": "tokenPositions",
          "type": "tuple[]"
        }
      ],
      "stateMutability": "view",
      "type": "function"
    },
    {
      "inputs": [
        {
          "internalType": "uint256",
          "name": "accountId",
          "type": "uint256"
        },
        {
          "internalType": "bool",
          "name": "isInitialMargin",
          "type": "bool"
        }
      ],
      "name": "getAccountMarketValueAndRequiredMargin",
      "outputs": [
        {
          "internalType": "int256",
          "name": "marketValue",
          "type": "int256"
        },
        {
          "internalType": "int256",
          "name": "requiredMargin",
          "type": "int256"
        }
      ],
      "stateMutability": "view",
      "type": "function"
    },
    {
      "inputs": [
        {
          "internalType": "uint256",
          "name": "accountId",
          "type": "uint256"
        }
      ],
      "name": "getAccountNetProfit",
      "outputs": [
        {
          "internalType": "int256",
          "name": "accountNetProfit",
          "type": "int256"
        }
      ],
      "stateMutability": "view",
      "type": "function"
    },
    {
      "inputs": [
        {
          "internalType": "uint256",
          "name": "accountId",
          "type": "uint256"
        },
        {
          "internalType": "uint32",
          "name": "poolId",
          "type": "uint32"
        }
      ],
      "name": "getAccountNetTokenPosition",
      "outputs": [
        {
          "internalType": "int256",
          "name": "netPosition",
          "type": "int256"
        }
      ],
      "stateMutability": "view",
      "type": "function"
    },
    {
      "inputs": [
        {
          "internalType": "uint32",
          "name": "collateralId",
          "type": "uint32"
        }
      ],
      "name": "getCollateralInfo",
      "outputs": [
        {
          "components": [
            {
              "internalType": "contract IERC20",
              "name": "token",
              "type": "address"
            },
            {
              "components": [
                {
                  "internalType": "contract IOracle",
                  "name": "oracle",
                  "type": "address"
                },
                {
                  "internalType": "uint32",
                  "name": "twapDuration",
                  "type": "uint32"
                },
                {
                  "internalType": "bool",
                  "name": "isAllowedForDeposit",
                  "type": "bool"
                }
              ],
              "internalType": "struct IClearingHouseStructures.CollateralSettings",
              "name": "settings",
              "type": "tuple"
            }
          ],
          "internalType": "struct IClearingHouseStructures.Collateral",
          "name": "",
          "type": "tuple"
        }
      ],
      "stateMutability": "view",
      "type": "function"
    },
    {
      "inputs": [
        {
          "internalType": "uint32",
          "name": "poolId",
          "type": "uint32"
        }
      ],
      "name": "getPoolInfo",
      "outputs": [
        {
          "components": [
            {
              "internalType": "contract IVToken",
              "name": "vToken",
              "type": "address"
            },
            {
              "internalType": "contract IUniswapV3Pool",
              "name": "vPool",
              "type": "address"
            },
            {
              "internalType": "contract IVPoolWrapper",
              "name": "vPoolWrapper",
              "type": "address"
            },
            {
              "components": [
                {
                  "internalType": "uint16",
                  "name": "initialMarginRatioBps",
                  "type": "uint16"
                },
                {
                  "internalType": "uint16",
                  "name": "maintainanceMarginRatioBps",
                  "type": "uint16"
                },
                {
                  "internalType": "uint16",
                  "name": "maxVirtualPriceDeviationRatioBps",
                  "type": "uint16"
                },
                {
                  "internalType": "uint32",
                  "name": "twapDuration",
                  "type": "uint32"
                },
                {
                  "internalType": "bool",
                  "name": "isAllowedForTrade",
                  "type": "bool"
                },
                {
                  "internalType": "bool",
                  "name": "isCrossMargined",
                  "type": "bool"
                },
                {
                  "internalType": "contract IOracle",
                  "name": "oracle",
                  "type": "address"
                }
              ],
              "internalType": "struct IClearingHouseStructures.PoolSettings",
              "name": "settings",
              "type": "tuple"
            }
          ],
          "internalType": "struct IClearingHouseStructures.Pool",
          "name": "",
          "type": "tuple"
        }
      ],
      "stateMutability": "view",
      "type": "function"
    },
    {
      "inputs": [
        {
          "internalType": "uint32",
          "name": "poolId",
          "type": "uint32"
        }
      ],
      "name": "getTwapPrices",
      "outputs": [
        {
          "internalType": "uint256",
          "name": "realPriceX128",
          "type": "uint256"
        },
        {
          "internalType": "uint256",
          "name": "virtualPriceX128",
          "type": "uint256"
        }
      ],
      "stateMutability": "view",
      "type": "function"
    },
    {
      "inputs": [],
      "name": "governance",
      "outputs": [
        {
          "internalType": "address",
          "name": "",
          "type": "address"
        }
      ],
      "stateMutability": "view",
      "type": "function"
    },
    {
      "inputs": [],
      "name": "insuranceFund",
      "outputs": [
        {
          "internalType": "contract IInsuranceFund",
          "name": "",
          "type": "address"
        }
      ],
      "stateMutability": "view",
      "type": "function"
    },
    {
      "inputs": [
        {
          "internalType": "uint32",
          "name": "poolId",
          "type": "uint32"
        }
      ],
      "name": "isPoolIdAvailable",
      "outputs": [
        {
          "internalType": "bool",
          "name": "",
          "type": "bool"
        }
      ],
      "stateMutability": "view",
      "type": "function"
    },
    {
      "inputs": [
        {
          "internalType": "uint256",
          "name": "accountId",
          "type": "uint256"
        }
      ],
      "name": "liquidateLiquidityPositions",
      "outputs": [],
      "stateMutability": "nonpayable",
      "type": "function"
    },
    {
      "inputs": [
        {
          "internalType": "uint256",
          "name": "targetAccountId",
          "type": "uint256"
        },
        {
          "internalType": "uint32",
          "name": "poolId",
          "type": "uint32"
        }
      ],
      "name": "liquidateTokenPosition",
      "outputs": [
        {
          "internalType": "int256",
          "name": "keeperFee",
          "type": "int256"
        }
      ],
      "stateMutability": "nonpayable",
      "type": "function"
    },
    {
      "inputs": [
        {
          "internalType": "bytes[]",
          "name": "data",
          "type": "bytes[]"
        }
      ],
      "name": "multicall",
      "outputs": [
        {
          "internalType": "bytes[]",
          "name": "results",
          "type": "bytes[]"
        }
      ],
      "stateMutability": "payable",
      "type": "function"
    },
    {
      "inputs": [
        {
          "internalType": "uint256",
          "name": "accountId",
          "type": "uint256"
        },
        {
          "components": [
            {
              "internalType": "enum IClearingHouseEnums.MulticallOperationType",
              "name": "operationType",
              "type": "uint8"
            },
            {
              "internalType": "bytes",
              "name": "data",
              "type": "bytes"
            }
          ],
          "internalType": "struct IClearingHouseStructures.MulticallOperation[]",
          "name": "operations",
          "type": "tuple[]"
        }
      ],
      "name": "multicallWithSingleMarginCheck",
      "outputs": [
        {
          "internalType": "bytes[]",
          "name": "results",
          "type": "bytes[]"
        }
      ],
      "stateMutability": "nonpayable",
      "type": "function"
    },
    {
      "inputs": [],
      "name": "numAccounts",
      "outputs": [
        {
          "internalType": "uint256",
          "name": "",
          "type": "uint256"
        }
      ],
      "stateMutability": "view",
      "type": "function"
    },
    {
      "inputs": [
        {
          "internalType": "uint32[]",
          "name": "allPoolIds",
          "type": "uint32[]"
        }
      ],
      "name": "pause",
      "outputs": [],
      "stateMutability": "nonpayable",
      "type": "function"
    },
    {
      "inputs": [],
      "name": "paused",
      "outputs": [
        {
          "internalType": "bool",
          "name": "",
          "type": "bool"
        }
      ],
      "stateMutability": "view",
      "type": "function"
    },
    {
      "inputs": [],
      "name": "protocolInfo",
      "outputs": [
        {
          "internalType": "contract IERC20",
          "name": "settlementToken",
          "type": "address"
        },
        {
          "internalType": "contract IVQuote",
          "name": "vQuote",
          "type": "address"
        },
        {
          "components": [
            {
              "internalType": "uint16",
              "name": "rangeLiquidationFeeFraction",
              "type": "uint16"
            },
            {
              "internalType": "uint16",
              "name": "tokenLiquidationFeeFraction",
              "type": "uint16"
            },
            {
              "internalType": "uint16",
              "name": "closeFactorMMThresholdBps",
              "type": "uint16"
            },
            {
              "internalType": "uint16",
              "name": "partialLiquidationCloseFactorBps",
              "type": "uint16"
            },
            {
              "internalType": "uint16",
              "name": "insuranceFundFeeShareBps",
              "type": "uint16"
            },
            {
              "internalType": "uint16",
              "name": "liquidationSlippageSqrtToleranceBps",
              "type": "uint16"
            },
            {
              "internalType": "uint64",
              "name": "maxRangeLiquidationFees",
              "type": "uint64"
            },
            {
              "internalType": "uint64",
              "name": "minNotionalLiquidatable",
              "type": "uint64"
            }
          ],
          "internalType": "struct IClearingHouseStructures.LiquidationParams",
          "name": "liquidationParams",
          "type": "tuple"
        },
        {
          "internalType": "uint256",
          "name": "minRequiredMargin",
          "type": "uint256"
        },
        {
          "internalType": "uint256",
          "name": "removeLimitOrderFee",
          "type": "uint256"
        },
        {
          "internalType": "uint256",
          "name": "minimumOrderNotional",
          "type": "uint256"
        }
      ],
      "stateMutability": "view",
      "type": "function"
    },
    {
      "inputs": [],
      "name": "rageTradeFactoryAddress",
      "outputs": [
        {
          "internalType": "address",
          "name": "",
          "type": "address"
        }
      ],
      "stateMutability": "view",
      "type": "function"
    },
    {
      "inputs": [
        {
          "components": [
            {
              "internalType": "contract IVToken",
              "name": "vToken",
              "type": "address"
            },
            {
              "internalType": "contract IUniswapV3Pool",
              "name": "vPool",
              "type": "address"
            },
            {
              "internalType": "contract IVPoolWrapper",
              "name": "vPoolWrapper",
              "type": "address"
            },
            {
              "components": [
                {
                  "internalType": "uint16",
                  "name": "initialMarginRatioBps",
                  "type": "uint16"
                },
                {
                  "internalType": "uint16",
                  "name": "maintainanceMarginRatioBps",
                  "type": "uint16"
                },
                {
                  "internalType": "uint16",
                  "name": "maxVirtualPriceDeviationRatioBps",
                  "type": "uint16"
                },
                {
                  "internalType": "uint32",
                  "name": "twapDuration",
                  "type": "uint32"
                },
                {
                  "internalType": "bool",
                  "name": "isAllowedForTrade",
                  "type": "bool"
                },
                {
                  "internalType": "bool",
                  "name": "isCrossMargined",
                  "type": "bool"
                },
                {
                  "internalType": "contract IOracle",
                  "name": "oracle",
                  "type": "address"
                }
              ],
              "internalType": "struct IClearingHouseStructures.PoolSettings",
              "name": "settings",
              "type": "tuple"
            }
          ],
          "internalType": "struct IClearingHouseStructures.Pool",
          "name": "poolInfo",
          "type": "tuple"
        }
      ],
      "name": "registerPool",
      "outputs": [],
      "stateMutability": "nonpayable",
      "type": "function"
    },
    {
      "inputs": [
        {
          "internalType": "uint256",
          "name": "accountId",
          "type": "uint256"
        },
        {
          "internalType": "uint32",
          "name": "poolId",
          "type": "uint32"
        },
        {
          "internalType": "int24",
          "name": "tickLower",
          "type": "int24"
        },
        {
          "internalType": "int24",
          "name": "tickUpper",
          "type": "int24"
        }
      ],
      "name": "removeLimitOrder",
      "outputs": [],
      "stateMutability": "nonpayable",
      "type": "function"
    },
    {
      "inputs": [
        {
          "internalType": "uint256",
          "name": "accountId",
          "type": "uint256"
        },
        {
          "internalType": "uint32",
          "name": "poolId",
          "type": "uint32"
        },
        {
          "components": [
            {
              "internalType": "int256",
              "name": "amount",
              "type": "int256"
            },
            {
              "internalType": "uint160",
              "name": "sqrtPriceLimit",
              "type": "uint160"
            },
            {
              "internalType": "bool",
              "name": "isNotional",
              "type": "bool"
            },
            {
              "internalType": "bool",
              "name": "isPartialAllowed",
              "type": "bool"
            }
          ],
          "internalType": "struct IClearingHouseStructures.SwapParams",
          "name": "swapParams",
          "type": "tuple"
        }
      ],
      "name": "swapToken",
      "outputs": [
        {
          "internalType": "int256",
          "name": "vTokenAmountOut",
          "type": "int256"
        },
        {
          "internalType": "int256",
          "name": "vQuoteAmountOut",
          "type": "int256"
        }
      ],
      "stateMutability": "nonpayable",
      "type": "function"
    },
    {
      "inputs": [],
      "name": "teamMultisig",
      "outputs": [
        {
          "internalType": "address",
          "name": "",
          "type": "address"
        }
      ],
      "stateMutability": "view",
      "type": "function"
    },
    {
      "inputs": [
        {
          "internalType": "address",
          "name": "newGovernance",
          "type": "address"
        }
      ],
      "name": "transferGovernance",
      "outputs": [],
      "stateMutability": "nonpayable",
      "type": "function"
    },
    {
      "inputs": [
        {
          "internalType": "address",
          "name": "newTeamMultisig",
          "type": "address"
        }
      ],
      "name": "transferTeamMultisig",
      "outputs": [],
      "stateMutability": "nonpayable",
      "type": "function"
    },
    {
      "inputs": [
        {
          "internalType": "uint32[]",
          "name": "allPoolIds",
          "type": "uint32[]"
        }
      ],
      "name": "unpause",
      "outputs": [],
      "stateMutability": "nonpayable",
      "type": "function"
    },
    {
      "inputs": [
        {
          "internalType": "contract IERC20",
          "name": "cToken",
          "type": "address"
        },
        {
          "components": [
            {
              "internalType": "contract IOracle",
              "name": "oracle",
              "type": "address"
            },
            {
              "internalType": "uint32",
              "name": "twapDuration",
              "type": "uint32"
            },
            {
              "internalType": "bool",
              "name": "isAllowedForDeposit",
              "type": "bool"
            }
          ],
          "internalType": "struct IClearingHouseStructures.CollateralSettings",
          "name": "collateralSettings",
          "type": "tuple"
        }
      ],
      "name": "updateCollateralSettings",
      "outputs": [],
      "stateMutability": "nonpayable",
      "type": "function"
    },
    {
      "inputs": [
        {
          "internalType": "uint256",
          "name": "accountId",
          "type": "uint256"
        },
        {
          "internalType": "uint32",
          "name": "collateralId",
          "type": "uint32"
        },
        {
          "internalType": "int256",
          "name": "amount",
          "type": "int256"
        }
      ],
      "name": "updateMargin",
      "outputs": [],
      "stateMutability": "nonpayable",
      "type": "function"
    },
    {
      "inputs": [
        {
          "internalType": "uint32",
          "name": "poolId",
          "type": "uint32"
        },
        {
          "components": [
            {
              "internalType": "uint16",
              "name": "initialMarginRatioBps",
              "type": "uint16"
            },
            {
              "internalType": "uint16",
              "name": "maintainanceMarginRatioBps",
              "type": "uint16"
            },
            {
              "internalType": "uint16",
              "name": "maxVirtualPriceDeviationRatioBps",
              "type": "uint16"
            },
            {
              "internalType": "uint32",
              "name": "twapDuration",
              "type": "uint32"
            },
            {
              "internalType": "bool",
              "name": "isAllowedForTrade",
              "type": "bool"
            },
            {
              "internalType": "bool",
              "name": "isCrossMargined",
              "type": "bool"
            },
            {
              "internalType": "contract IOracle",
              "name": "oracle",
              "type": "address"
            }
          ],
          "internalType": "struct IClearingHouseStructures.PoolSettings",
          "name": "newSettings",
          "type": "tuple"
        }
      ],
      "name": "updatePoolSettings",
      "outputs": [],
      "stateMutability": "nonpayable",
      "type": "function"
    },
    {
      "inputs": [
        {
          "internalType": "uint256",
          "name": "accountId",
          "type": "uint256"
        },
        {
          "internalType": "int256",
          "name": "amount",
          "type": "int256"
        }
      ],
      "name": "updateProfit",
      "outputs": [],
      "stateMutability": "nonpayable",
      "type": "function"
    },
    {
      "inputs": [
        {
          "components": [
            {
              "internalType": "uint16",
              "name": "rangeLiquidationFeeFraction",
              "type": "uint16"
            },
            {
              "internalType": "uint16",
              "name": "tokenLiquidationFeeFraction",
              "type": "uint16"
            },
            {
              "internalType": "uint16",
              "name": "closeFactorMMThresholdBps",
              "type": "uint16"
            },
            {
              "internalType": "uint16",
              "name": "partialLiquidationCloseFactorBps",
              "type": "uint16"
            },
            {
              "internalType": "uint16",
              "name": "insuranceFundFeeShareBps",
              "type": "uint16"
            },
            {
              "internalType": "uint16",
              "name": "liquidationSlippageSqrtToleranceBps",
              "type": "uint16"
            },
            {
              "internalType": "uint64",
              "name": "maxRangeLiquidationFees",
              "type": "uint64"
            },
            {
              "internalType": "uint64",
              "name": "minNotionalLiquidatable",
              "type": "uint64"
            }
          ],
          "internalType": "struct IClearingHouseStructures.LiquidationParams",
          "name": "_liquidationParams",
          "type": "tuple"
        },
        {
          "internalType": "uint256",
          "name": "_removeLimitOrderFee",
          "type": "uint256"
        },
        {
          "internalType": "uint256",
          "name": "_minimumOrderNotional",
          "type": "uint256"
        },
        {
          "internalType": "uint256",
          "name": "_minRequiredMargin",
          "type": "uint256"
        }
      ],
      "name": "updateProtocolSettings",
      "outputs": [],
      "stateMutability": "nonpayable",
      "type": "function"
    },
    {
      "inputs": [
        {
          "internalType": "uint256",
          "name": "accountId",
          "type": "uint256"
        },
        {
          "internalType": "uint32",
          "name": "poolId",
          "type": "uint32"
        },
        {
          "components": [
            {
              "internalType": "int24",
              "name": "tickLower",
              "type": "int24"
            },
            {
              "internalType": "int24",
              "name": "tickUpper",
              "type": "int24"
            },
            {
              "internalType": "int128",
              "name": "liquidityDelta",
              "type": "int128"
            },
            {
              "internalType": "uint160",
              "name": "sqrtPriceCurrent",
              "type": "uint160"
            },
            {
              "internalType": "uint16",
              "name": "slippageToleranceBps",
              "type": "uint16"
            },
            {
              "internalType": "bool",
              "name": "closeTokenPosition",
              "type": "bool"
            },
            {
              "internalType": "enum IClearingHouseEnums.LimitOrderType",
              "name": "limitOrderType",
              "type": "uint8"
            }
          ],
          "internalType": "struct IClearingHouseStructures.LiquidityChangeParams",
          "name": "liquidityChangeParams",
          "type": "tuple"
        }
      ],
      "name": "updateRangeOrder",
      "outputs": [
        {
          "internalType": "int256",
          "name": "vTokenAmountOut",
          "type": "int256"
        },
        {
          "internalType": "int256",
          "name": "vQuoteAmountOut",
          "type": "int256"
        }
      ],
      "stateMutability": "nonpayable",
      "type": "function"
    },
    {
      "inputs": [
        {
          "internalType": "address[]",
          "name": "wrapperAddresses",
          "type": "address[]"
        }
      ],
      "name": "withdrawProtocolFee",
      "outputs": [],
      "stateMutability": "nonpayable",
      "type": "function"
    }
  ],
  "transactionHash": "0x7da35d8dc9da8ee6e490235bef5bb34e5da6b12ad7bc6e6af349382507498c43",
  "args": [],
  "numDeployments": 1,
  "solcInputHash": "64ebba1625aa43ef47315b431f1caaa1",
  "bytecode": "0x60806040523480156200001157600080fd5b506200001c62000022565b620002e3565b61013854610100900460ff1662000041576101385460ff16156200004b565b6200004b620000f7565b620000a35760405162461bcd60e51b815260206004820152602e602482015260008051602062005b6983398151915260448201526d191e481a5b9a5d1a585b1a5e995960921b60648201526084015b60405180910390fd5b61013854610100900460ff16158015620000c857610138805461ffff19166101011790555b620000d262000115565b33620000df818062000185565b508015620000f457610138805461ff00191690555b50565b60006200010f30620002d460201b62001f5b1760201c565b15905090565b61013854610100900460ff16620001835760405162461bcd60e51b815260206004820152602b60248201527f496e697469616c697a61626c653a20636f6e7472616374206973206e6f74206960448201526a6e697469616c697a696e6760a81b60648201526084016200009a565b565b61013854610100900460ff16620001a4576101385460ff1615620001ae565b620001ae620000f7565b620002025760405162461bcd60e51b815260206004820152602e602482015260008051602062005b6983398151915260448201526d191e481a5b9a5d1a585b1a5e995960921b60648201526084016200009a565b61013854610100900460ff161580156200022757610138805461ffff19166101011790555b61019d80546001600160a01b0319166001600160a01b0385169081179091556040516000907f5f56bee8cffbe9a78652a74a60705edede02af10b0bbb888ca44b79a0d42ce80908290a361019e80546001600160a01b0319166001600160a01b0384169081179091556040516000907f39355f2f5c8206286978f443aa8126bbd29fa09c53c04569502647f3a59c8cb2908290a38015620002cf57610138805461ff00191690555b505050565b6001600160a01b03163b151590565b61587680620002f36000396000f3fe6080604052600436106102255760003560e01c806393420cf411610123578063bc38d542116100ab578063e1f167131161006f578063e1f16713146108c5578063e3d41c18146108e5578063e450f6f414610905578063e67ed1df14610925578063ee6cd5ee1461094557600080fd5b8063bc38d5421461080c578063d38bfff414610839578063da04799614610859578063dbc0c08514610879578063dbd035ff1461089857600080fd5b8063a9b0a934116100f2578063a9b0a9341461064d578063ab3b19f81461066d578063ac9650d81461068d578063b670ed52146106a0578063b7902303146107ec57600080fd5b806393420cf4146104e65780639cd1be58146105f85780639dca362f14610618578063a05c8baf1461062d57600080fd5b8063569634d3116101b15780637d2efe07116101755780637d2efe07146104505780637f64d6631461047057806385ff7cbd146104905780638ce25a93146104b05780638f24ab11146104c657600080fd5b8063569634d3146103b85780635aa6e675146103d85780635c975abb146103f75780636a486482146104105780637cc2f4f51461043057600080fd5b80633d56a35e116101f85780633d56a35e146102e35780633ffe794c1461031b57806340c4f69b1461033b57806343afafba14610368578063440ab7451461038857600080fd5b80631e2eaeaf1461022a57806332a72d981461025c5780633b561afc146102915780633d0aea3d146102c1575b600080fd5b34801561023657600080fd5b50610249610245366004613a83565b5490565b6040519081526020015b60405180910390f35b34801561026857600080fd5b5061027c610277366004613c46565b610965565b60408051928352602083019190915201610253565b34801561029d57600080fd5b506102b16102ac366004613a83565b6109c2565b6040516102539493929190613caf565b3480156102cd57600080fd5b506102e16102dc366004613e3d565b610a66565b005b3480156102ef57600080fd5b5060d254610303906001600160a01b031681565b6040516001600160a01b039091168152602001610253565b34801561032757600080fd5b506102e1610336366004613ed7565b610aba565b34801561034757600080fd5b5061035b610356366004613f35565b610ba0565b6040516102539190613fd8565b34801561037457600080fd5b5061024961038336600461403a565b611229565b34801561039457600080fd5b506103a86103a336600461406a565b61123e565b6040519015158152602001610253565b3480156103c457600080fd5b506102e16103d3366004613a83565b611266565b3480156103e457600080fd5b5061019d546001600160a01b0316610303565b34801561040357600080fd5b5061016b5460ff166103a8565b34801561041c57600080fd5b5061024961042b36600461403a565b61126f565b34801561043c57600080fd5b506102e161044b366004614096565b611305565b34801561045c57600080fd5b506102e161046b3660046140e9565b611318565b34801561047c57600080fd5b506102e161048b366004614121565b611358565b34801561049c57600080fd5b506102e16104ab36600461413e565b611423565b3480156104bc57600080fd5b5061024960d05481565b3480156104d257600080fd5b506102e16104e1366004614191565b611549565b3480156104f257600080fd5b506105e66040805161010081018252600080825260208201819052918101829052606081018290526080810182905260a0810182905260c0810182905260e0810182905281905050606654606754604080516101008101825260685461ffff8082168352620100008204811660208401526401000000008204811693830193909352600160301b810483166060830152600160401b810483166080830152600160501b810490921660a08201526001600160401b03600160601b8304811660c0830152600160a01b90920490911660e0820152606954606a54606b546001600160a01b039586169794909516955091939092565b604051610253969594939291906141c8565b34801561060457600080fd5b506102e161061336600461428d565b6115e7565b34801561062457600080fd5b50610249611624565b34801561063957600080fd5b506102e16106483660046142af565b6116cd565b34801561065957600080fd5b506102e161066836600461413e565b611775565b34801561067957600080fd5b506102e16106883660046142f5565b611889565b61035b61069b36600461413e565b611983565b3480156106ac57600080fd5b506107df6106bb36600461406a565b604080516080808201835260008083526020808401829052838501829052845160e081018652828152908101829052938401819052606080850182905291840181905260a0840181905260c08401528101919091525063ffffffff90811660009081526064602090815260409182902082516080808201855282546001600160a01b03908116835260018401548116838601526002840154811683870152855160e08101875260039094015461ffff8082168652620100008204811696860196909652640100000000810490951695840195909552600160301b840490951660608381019190915260ff600160501b85048116151596840196909652600160581b8404909516151560a0830152600160601b90920490921660c08301529182015290565b6040516102539190614366565b3480156107f857600080fd5b5060d354610303906001600160a01b031681565b34801561081857600080fd5b5061082c61082736600461406a565b611ada565b6040516102539190614409565b34801561084557600080fd5b506102e1610854366004614121565b611b79565b34801561086557600080fd5b5061027c61087436600461406a565b611c2a565b34801561088557600080fd5b5061019e546001600160a01b0316610303565b3480156108a457600080fd5b506108b86108b3366004614475565b611c4c565b60405161025391906144ff565b3480156108d157600080fd5b506102e16108e036600461413e565b611c7a565b3480156108f157600080fd5b50610249610900366004613a83565b611dc7565b34801561091157600080fd5b50610249610920366004614543565b611e51565b34801561093157600080fd5b5061027c61094036600461456f565b611e68565b34801561095157600080fd5b5061027c610960366004614594565b611f06565b60008061097561016b5460ff1690565b1561099b5760405162461bcd60e51b8152600401610992906145cb565b60405180910390fd5b60006109a686611f6a565b90506109b58186866001611fb0565b9250925050935093915050565b600081815260d16020526040808220905163a0ba775760e01b815260048101919091526064602482015281906060908190730e1F87732fB4930ea95c397f0Dbca5425167197B9063a0ba775790604401600060405180830381865af4158015610a2f573d6000803e3d6000fd5b505050506040513d6000823e601f3d908101601f19168201604052610a579190810190614800565b93509350935093509193509193565b61019e546001600160a01b03163314801590610a8e575061019d546001600160a01b03163314155b15610aac57604051636bd1573560e11b815260040160405180910390fd5b610ab6828261217a565b5050565b60d2546001600160a01b03163314610ae5576040516385734f3160e01b815260040160405180910390fd5b6000610b05610af76020840184614121565b6001600160a01b031661233e565b63ffffffff8116600090815260646020526040902054909150610b30906001600160a01b031661234c565b610b3c57610b3c614906565b63ffffffff811660009081526064602052604090208290610b5d8282614a8b565b9050507f4182acc9c169391ef7e765eb446fc15c9d49bc73060c678bf4c424a5c0dbdbcb8183606001604051610b94929190614c10565b60405180910390a15050565b6060816001600160401b03811115610bba57610bba613ab9565b604051908082528060200260200182016040528015610bed57816020015b6060815260200190600190039081610bd85790505b5090506000610bfb85611f6a565b905060008060005b85811015611134576000878783818110610c1f57610c1f614ccc565b9050602002810190610c319190614ce2565b610c3f906020810190614d02565b6006811115610c5057610c50613c85565b03610cbc57600080888884818110610c6a57610c6a614ccc565b9050602002810190610c7c9190614ce2565b610c8a906020810190614d23565b810190610c979190614543565b915091508380610ca75750600081125b9350610cb58683838761235e565b5050611122565b6001878783818110610cd057610cd0614ccc565b9050602002810190610ce29190614ce2565b610cf0906020810190614d02565b6006811115610d0157610d01613c85565b03610d6d576000878783818110610d1a57610d1a614ccc565b9050602002810190610d2c9190614ce2565b610d3a906020810190614d23565b810190610d479190613a83565b9050610d5585826000612465565b6000811215610d675760019350600192505b50611122565b6002878783818110610d8157610d81614ccc565b9050602002810190610d939190614ce2565b610da1906020810190614d02565b6006811115610db257610db2613c85565b03610e5f57600080888884818110610dcc57610dcc614ccc565b9050602002810190610dde9190614ce2565b610dec906020810190614d23565b810190610df99190614d69565b91509150600080610e0d8885856000611fb0565b60408051602081018490529081018290529193509150606001604051602081830303815290604052898681518110610e4757610e47614ccc565b60200260200101819052506001955050505050611122565b6003878783818110610e7357610e73614ccc565b9050602002810190610e859190614ce2565b610e93906020810190614d02565b6006811115610ea457610ea4613c85565b03610eff57600080888884818110610ebe57610ebe614ccc565b9050602002810190610ed09190614ce2565b610ede906020810190614d23565b810190610eeb9190614e41565b91509150600080610e0d8885856000612565565b6004878783818110610f1357610f13614ccc565b9050602002810190610f259190614ce2565b610f33906020810190614d02565b6006811115610f4457610f44613c85565b03610fa8576000806000898985818110610f6057610f60614ccc565b9050602002810190610f729190614ce2565b610f80906020810190614d23565b810190610f8d9190614e6f565b925092509250610f9f8b848484612673565b50505050611122565b6005878783818110610fbc57610fbc614ccc565b9050602002810190610fce9190614ce2565b610fdc906020810190614d02565b6006811115610fed57610fed613c85565b03610ffb57610d678861276e565b600687878381811061100f5761100f614ccc565b90506020028101906110219190614ce2565b61102f906020810190614d02565b600681111561104057611040613c85565b036110d657600087878381811061105957611059614ccc565b905060200281019061106b9190614ce2565b611079906020810190614d23565b810190611086919061406a565b905061109289826128d0565b6040516020016110a491815260200190565b6040516020818303038152906040528683815181106110c5576110c5614ccc565b602002602001018190525050611122565b8686828181106110e8576110e8614ccc565b90506020028101906110fa9190614ce2565b611108906020810190614d02565b604051633164e52160e11b81526004016109929190614eba565b8061112c81614eea565b915050610c03565b5081156111a65760405163651524ed60e01b81526004810184905260646024820152730e1F87732fB4930ea95c397f0Dbca5425167197B9063651524ed9060440160006040518083038186803b15801561118d57600080fd5b505af41580156111a1573d6000803e3d6000fd5b505050505b801561121e5760405163998c533560e01b81526004810184905260016024820152606460448201819052730e1F87732fB4930ea95c397f0Dbca5425167197B9163998c5335910160006040518083038186803b15801561120557600080fd5b505af4158015611219573d6000803e3d6000fd5b505050505b5050505b9392505050565b600061123583836128d0565b90505b92915050565b63ffffffff8116600090815260646020526040812054611238906001600160a01b031661234c565b610ab68161276e565b600082815260d160205260408082209051637188a1ed60e01b8152600481019190915263ffffffff83166024820152606460448201819052730e1F87732fB4930ea95c397f0Dbca5425167197B91637188a1ed9101602060405180830381865af41580156112e1573d6000803e3d6000fd5b505050506040513d601f19601f820116820180604052508101906112359190614f03565b61131184848484612673565b5050505050565b61016b5460ff161561133c5760405162461bcd60e51b8152600401610992906145cb565b61135361134884611f6a565b83836000851261235e565b505050565b61019e546001600160a01b03163314801590611380575061019d546001600160a01b03163314155b1561139e57604051636bd1573560e11b815260040160405180910390fd5b6001600160a01b0381166113c55760405163d92e233d60e01b815260040160405180910390fd5b61019e546040516001600160a01b038084169216907f39355f2f5c8206286978f443aa8126bbd29fa09c53c04569502647f3a59c8cb290600090a361019e80546001600160a01b0319166001600160a01b0392909216919091179055565b61019e546001600160a01b0316331480159061144b575061019d546001600160a01b03163314155b1561146957604051636bd1573560e11b815260040160405180910390fd5b6114716129f3565b60005b8181101561135357600083838381811061149057611490614ccc565b90506020020160208101906114a5919061406a565b90506000806114b383611c2a565b63ffffffff8516600090815260646020526040908190206002015490516336c3cc4d60e11b815260048101849052602481018390529294509092506001600160a01b031690636d87989a90604401600060405180830381600087803b15801561151b57600080fd5b505af115801561152f573d6000803e3d6000fd5b50505050505050808061154190614eea565b915050611474565b61019e546001600160a01b03163314801590611571575061019d546001600160a01b03163314155b1561158f57604051636bd1573560e11b815260040160405180910390fd5b63ffffffff8216600090815260646020526040902081906003016115b38282614973565b9050507f4182acc9c169391ef7e765eb446fc15c9d49bc73060c678bf4c424a5c0dbdbcb8282604051610b94929190614c10565b61016b5460ff161561160b5760405162461bcd60e51b8152600401610992906145cb565b600061161683611f6a565b905061135381836001612465565b600061163361016b5460ff1690565b156116505760405162461bcd60e51b8152600401610992906145cb565b5060d05461165f816001614f1c565b60d055600081815260d160209081526040918290206001600160601b031933600160601b8102919091166001600160601b03861617825592518481529092917f7325fb14450d3e5eb288c620b4ff1d6b43a41b33b4a4f143ae88cd4c12f99ea3910160405180910390a25090565b61019e546001600160a01b031633148015906116f5575061019d546001600160a01b03163314155b1561171357604051636bd1573560e11b815260040160405180910390fd5b8360686117208282614f56565b5050606a839055606b82905560698190556040517f697aec6e94e319190380ab0f1f10018d81b64da2479eb874be92c9a733e0a837906117679086908690869086906150d2565b60405180910390a150505050565b61019e546001600160a01b0316331480159061179d575061019d546001600160a01b03163314155b156117bb57604051636bd1573560e11b815260040160405180910390fd5b6117c3612a6a565b60005b8181101561135357606460008484848181106117e4576117e4614ccc565b90506020020160208101906117f9919061406a565b63ffffffff168152602081019190915260409081016000206002015490516336c3cc4d60e11b815260016004820181905260248201526001600160a01b0390911690636d87989a90604401600060405180830381600087803b15801561185e57600080fd5b505af1158015611872573d6000803e3d6000fd5b50505050808061188190614eea565b9150506117c6565b61013854610100900460ff166118a6576101385460ff16156118aa565b303b155b6118c65760405162461bcd60e51b8152600401610992906151a5565b61013854610100900460ff161580156118ea57610138805461ffff19166101011790555b60d280546001600160a01b03199081166001600160a01b038981169190911790925560668054821688841617905560d38054821686841617905560678054909116848316179055604080516060810182529186168252603c602083015260019082015261195890869061217a565b611960612ae6565b611968612b71565b801561197b57610138805461ff00191690555b505050505050565b6060816001600160401b0381111561199d5761199d613ab9565b6040519080825280602002602001820160405280156119d057816020015b60608152602001906001900390816119bb5790505b50905060005b82811015611ad357600080308686858181106119f4576119f4614ccc565b9050602002810190611a069190614d23565b604051611a149291906151f3565b600060405180830381855af49150503d8060008114611a4f576040519150601f19603f3d011682016040523d82523d6000602084013e611a54565b606091505b509150915081611aa057604481511015611a6d57600080fd5b60048101905080806020019051810190611a879190615203565b60405162461bcd60e51b8152600401610992919061528d565b80848481518110611ab357611ab3614ccc565b602002602001018190525050508080611acb90614eea565b9150506119d6565b5092915050565b611b0d60408051808201825260008082528251606081018452818152602081810183905293810191909152909182015290565b5063ffffffff9081166000908152606560209081526040918290208251808401845281546001600160a01b03908116825284516060810186526001909301549081168352600160a01b810490951682840152600160c01b90940460ff1615159281019290925282015290565b61019d546001600160a01b03163314611ba557604051636bd1573560e11b815260040160405180910390fd5b6001600160a01b038116611bcc5760405163d92e233d60e01b815260040160405180910390fd5b61019d546040516001600160a01b038084169216907f5f56bee8cffbe9a78652a74a60705edede02af10b0bbb888ca44b79a0d42ce8090600090a361019d80546001600160a01b0319166001600160a01b0392909216919091179055565b600080611c38606484612ba6565b9150611c45606484612c43565b9050915091565b606060208251028201602001602083015b81811015611c72578051548152602001611c5d565b509192915050565b6000805b82811015611d9d576000848483818110611c9a57611c9a614ccc565b9050602002016020810190611caf9190614121565b6001600160a01b0316635e622abc6040518163ffffffff1660e01b81526004016020604051808303816000875af1158015611cee573d6000803e3d6000fd5b505050506040513d601f19601f82011682018060405250810190611d129190614f03565b9050848483818110611d2657611d26614ccc565b9050602002016020810190611d3b9190614121565b6001600160a01b03167fa087657e3d85162090ffd700fbfdf5070d816f63aa5da00063f6ffd369c8a6db82604051611d7591815260200190565b60405180910390a2611d878184614f1c565b9250508080611d9590614eea565b915050611c7e565b50611353611db461019e546001600160a01b031690565b6066546001600160a01b03169083612c60565b600081815260d16020526040808220905163625915c360e11b8152600481019190915260646024820152730e1F87732fB4930ea95c397f0Dbca5425167197B9063c4b22b8690604401602060405180830381865af4158015611e2d573d6000803e3d6000fd5b505050506040513d601f19601f820116820180604052508101906112389190614f03565b6000611e5b611624565b9050611238818484611318565b600082815260d16020526040808220905163031b5fcd60e21b8152600481019190915282151560248201526064604482018190528291730e1F87732fB4930ea95c397f0Dbca5425167197B91630c6d7f3491016040805180830381865af4158015611ed7573d6000803e3d6000fd5b505050506040513d601f19601f82011682018060405250810190611efb91906152a0565b909590945092505050565b600080611f1661016b5460ff1690565b15611f335760405162461bcd60e51b8152600401610992906145cb565b6000611f3e86611f6a565b90506109b58186611f54368890038801886152c4565b6001612565565b6001600160a01b03163b151590565b600081815260d1602052604090208054600160601b90046001600160a01b03163314611fab57604051630504a20d60e01b8152336004820152602401610992565b919050565b600080611fc061016b5460ff1690565b15611fdd5760405162461bcd60e51b8152600401610992906145cb565b611fe685612cc3565b60408051630a067b0f60e11b81526004810188905263ffffffff871660248201528551604482015260208601516001600160a01b031660648083019190915291860151151560848201526060860151151560a482015260c481019190915283151560e4820152730e1F87732fB4930ea95c397f0Dbca5425167197B9063140cf61e90610104016040805180830381865af4158015612088573d6000803e3d6000fd5b505050506040513d601f19601f820116820180604052508101906120ac91906152a0565b909250905060006120bc82612d46565b606b549091508110156120e5576040516312b6b5cd60e11b815260048101829052602401610992565b60208501516001600160a01b03161580159061210357508460600151155b15612170578460400151801561212a5750845161211f90612d46565b61212883612d46565b145b80612153575084604001511580156121535750845161214890612d46565b61215184612d46565b145b612170576040516307a1db0760e01b815260040160405180910390fd5b5094509492505050565b600061218e836001600160a01b031661233e565b90506121a2836001600160a01b031661234c565b156121c3576040516376d8a93160e01b815260006004820152602401610992565b63ffffffff81166000908152606560205260409020546121eb906001600160a01b031661234c565b158015612224575063ffffffff808216600090815260656020526040902054612222916001600160a01b03909116908590612d6116565b155b1561226d5763ffffffff81166000908152606560205260409081902054905163a5d4d0b560e01b81526001600160a01b0380861660048301529091166024820152604401610992565b6040805180820182526001600160a01b038581168252602080830186815263ffffffff868116600090815260658452869020945185546001600160a01b03191690851617855590518051600190950180549382015191870151959094166001600160c01b031990931692909217600160a01b92909116919091021760ff60c01b1916600160c01b92151592909202919091179055517f52983c04d8ccd4808cd0fcb24e6e48106ecb41e803d6270c6c94a15e3ebd08d29061233190859085906152e0565b60405180910390a1505050565b600063ffffffff8216611238565b60006001600160a01b03821615611238565b61016b5460ff16156123825760405162461bcd60e51b8152600401610992906145cb565b60006123918460008512612d77565b60405163f5a284a160e01b81526004810187905263ffffffff86166024820152604481018590526064808201528315156084820152909150730e1F87732fB4930ea95c397f0Dbca5425167197B9063f5a284a19060a40160006040518083038186803b15801561240057600080fd5b505af4158015612414573d6000803e3d6000fd5b50505050600083131561243d578054612438906001600160a01b0316333086612e06565b611311565b6000831215611311576113113361245385615322565b83546001600160a01b03169190612c60565b61016b5460ff16156124895760405162461bcd60e51b8152600401610992906145cb565b816000036124aa57604051631f2a200560e01b815260040160405180910390fd5b60405163d25c4a6f60e01b8152600481018490526024810183905260646044820181905282151590820152730e1F87732fB4930ea95c397f0Dbca5425167197B9063d25c4a6f9060840160006040518083038186803b15801561250c57600080fd5b505af4158015612520573d6000803e3d6000fd5b50505050600082131561254557606654611353906001600160a01b0316333085612e06565b6113533361255284615322565b6066546001600160a01b03169190612c60565b60008061257561016b5460ff1690565b156125925760405162461bcd60e51b8152600401610992906145cb565b61259b85612cc3565b60608401516001600160a01b0316156125c1576125c18585606001518660800151612e44565b60405163c27789d160e01b8152600090730e1F87732fB4930ea95c397f0Dbca5425167197B9063c27789d190612604908a908a908a906064908b9060040161533e565b606060405180830381865af4158015612621573d6000803e3d6000fd5b505050506040513d601f19601f8201168201806040525081019061264591906153e2565b606b549295509093509150811015612170576040516312b6b5cd60e11b815260048101829052602401610992565b600061268261016b5460ff1690565b1561269f5760405162461bcd60e51b8152600401610992906145cb565b600085815260d1602052604090206126b685612cc3565b606a54604051637022478560e11b81526004810183905263ffffffff87166024820152600286810b604483015285900b6064808301919091526084820183905260a4820152909250730e1F87732fB4930ea95c397f0Dbca5425167197B9063e0448f0a9060c40160006040518083038186803b15801561273557600080fd5b505af4158015612749573d6000803e3d6000fd5b505060665461276592506001600160a01b031690503384612c60565b50949350505050565b600061277d61016b5460ff1690565b1561279a5760405162461bcd60e51b8152600401610992906145cb565b600082815260d1602052604080822090516308b9103160e21b81526004810182905260248101839052606460448201819052919291730e1F87732fB4930ea95c397f0Dbca5425167197B916322e440c491016040805180830381865af4158015612808573d6000803e3d6000fd5b505050506040513d601f19601f8201168201806040525081019061282c91906152a0565b9093509050600061283d8285615410565b9050600084136128635760405163ef37dcc760e01b815260048101859052602401610992565b60665461287a906001600160a01b03163386612c60565b61288382612ed6565b6040805182815260208101869052908101839052339086907fcfb6806c7e1accb0c7e5835aded9e714525c0588e5609d5ae1a3c8f6b68586a79060600160405180910390a3505050919050565b60006128df61016b5460ff1690565b156128fc5760405162461bcd60e51b8152600401610992906145cb565b600083815260d16020526040902061291383612cc3565b6040516377f3beb560e01b81526004810182905263ffffffff8416602482015260006044820181905260648083015290730e1F87732fB4930ea95c397f0Dbca5425167197B906377f3beb5906084016040805180830381865af415801561297e573d6000803e3d6000fd5b505050506040513d601f19601f820116820180604052508101906129a291906152a0565b9093509050600083136129cb5760405163ef37dcc760e01b815260048101849052602401610992565b6066546129e2906001600160a01b03163385612c60565b6129eb81612ed6565b505092915050565b61016b5460ff1615612a175760405162461bcd60e51b8152600401610992906145cb565b61016b805460ff191660011790557f62e78cea01bee320cd4e420270b5ea74000d11b0c9f74754ebdbfc544b05a258612a4d3390565b6040516001600160a01b03909116815260200160405180910390a1565b61016b5460ff16612ab45760405162461bcd60e51b815260206004820152601460248201527314185d5cd8589b194e881b9bdd081c185d5cd95960621b6044820152606401610992565b61016b805460ff191690557f5db9ee0a495bf2e6ff9c91a7834c1ba4fdd244a5e8aa4e537bd38aeae4b073aa33612a4d565b61013854610100900460ff16612b03576101385460ff1615612b07565b303b155b612b235760405162461bcd60e51b8152600401610992906151a5565b61013854610100900460ff16158015612b4757610138805461ffff19166101011790555b612b4f612f62565b33612b5a8180612f8c565b508015612b6e57610138805461ff00191690555b50565b61013854610100900460ff16612b995760405162461bcd60e51b815260040161099290615451565b61016b805460ff19169055565b63ffffffff8181166000908152602084905260408082206003810154915163dd86c10160e01b8152600160301b830490941660048501529192600160601b9091046001600160a01b03169063dd86c10190602401602060405180830381865afa158015612c17573d6000803e3d6000fd5b505050506040513d601f19601f82011682018060405250810190612c3b9190614f03565b949350505050565b6000611235612c528484613098565b6001600160a01b03166130dc565b6040516001600160a01b03831660248201526044810182905261135390849063a9059cbb60e01b906064015b60408051601f198184030181529190526020810180516001600160e01b03166001600160e01b031990931692909217909152613149565b63ffffffff811660009081526064602052604090208054612cec906001600160a01b031661234c565b15612d125760405163b842f5a760e01b815263ffffffff83166004820152602401610992565b6003810154600160501b900460ff16610ab65760405163587ee90160e11b815263ffffffff83166004820152602401610992565b6000808213612d5d57612d5882615322565b611238565b5090565b60006001600160a01b0380841690831614611235565b63ffffffff821660009081526065602052604090208054612da0906001600160a01b031661234c565b15612dc657604051636b9c1a9d60e01b815263ffffffff84166004820152602401610992565b81158015612de057506001810154600160c01b900460ff16155b156112385760405163122a1f1960e31b815263ffffffff84166004820152602401610992565b6040516001600160a01b0380851660248301528316604482015260648101829052612e3e9085906323b872dd60e01b90608401612c8c565b50505050565b6000612e5160648561321b565b90506000836001600160a01b0316826001600160a01b031611612e7d57612e78828561549c565b612e87565b612e87848361549c565b9050612710612e9a8561ffff86166154c4565b612ea49190615509565b6001600160a01b0316816001600160a01b03161115611311576040516307a1db0760e01b815260040160405180910390fd5b6000811315612efc5760d354606654612b6e916001600160a01b03918216911683612c60565b60d3546001600160a01b031663379607f5612f1683615322565b6040518263ffffffff1660e01b8152600401612f3491815260200190565b600060405180830381600087803b158015612f4e57600080fd5b505af1158015611311573d6000803e3d6000fd5b61013854610100900460ff16612f8a5760405162461bcd60e51b815260040161099290615451565b565b61013854610100900460ff16612fa9576101385460ff1615612fad565b303b155b612fc95760405162461bcd60e51b8152600401610992906151a5565b61013854610100900460ff16158015612fed57610138805461ffff19166101011790555b61019d80546001600160a01b0319166001600160a01b0385169081179091556040516000907f5f56bee8cffbe9a78652a74a60705edede02af10b0bbb888ca44b79a0d42ce80908290a361019e80546001600160a01b0319166001600160a01b0384169081179091556040516000907f39355f2f5c8206286978f443aa8126bbd29fa09c53c04569502647f3a59c8cb2908290a3801561135357610138805461ff0019169055505050565b63ffffffff80821660009081526020849052604081206003810154600182015492939192612c3b926001600160a01b0390911691600160301b900481169061324616565b60006401000276a36001600160a01b0383161080613117575073fffd8963efd1fc6a506488495d951d5263988d266001600160a01b03831610155b1561314057604051635d236c4560e01b81526001600160a01b0383166004820152602401610992565b61123882613267565b600061319e826040518060400160405280602081526020017f5361666545524332303a206c6f772d6c6576656c2063616c6c206661696c6564815250856001600160a01b03166132819092919063ffffffff16565b80519091501561135357808060200190518101906131bc919061552f565b6113535760405162461bcd60e51b815260206004820152602a60248201527f5361666545524332303a204552433230206f7065726174696f6e20646964206e6044820152691bdd081cdd58d8d9595960b21b6064820152608401610992565b63ffffffff8116600090815260208390526040812060010154611235906001600160a01b0316613290565b60008061325c6001600160a01b03851684613325565b9050612c3b81613544565b60006112386001600160a01b03831680600160401b613867565b6060612c3b8484600085613919565b600080826001600160a01b0316633850c7bd6040518163ffffffff1660e01b815260040160e060405180830381865afa1580156132d1573d6000803e3d6000fd5b505050506040513d601f19601f820116820180604052508101906132f5919061554c565b5094965092945050506001600160a01b038416600003915061331f90505761331c81613544565b91505b50919050565b60008163ffffffff1660000361335157604051636eb711b760e11b815260006004820152602401610992565b604080516002808252606082018352600092602083019080368337019050509050828160008151811061338657613386614ccc565b602002602001019063ffffffff16908163ffffffff16815250506000816001815181106133b5576133b5614ccc565b63ffffffff9092166020928302919091019091015260405163883bdbfd60e01b81526001600160a01b0385169063883bdbfd906133f69084906004016155ee565b600060405180830381865afa92505050801561343457506040513d6000823e601f3d908101601f191682016040526134319190810190615690565b60015b6134a957836001600160a01b0316633850c7bd6040518163ffffffff1660e01b815260040160e060405180830381865afa158015613476573d6000803e3d6000fd5b505050506040513d601f19601f8201168201806040525081019061349a919061554c565b50939650611ad3945050505050565b6000826000815181106134be576134be614ccc565b6020026020010151836001815181106134d9576134d9614ccc565b60200260200101516134eb919061575b565b905060006134ff63ffffffff8816836157ab565b905060008260060b128015613525575061351f63ffffffff8816836157e9565b60060b15155b1561353857806135348161580b565b9150505b94506112389350505050565b60008060008360020b1261355b578260020b613563565b8260020b6000035b9050620d89e8811115613589576040516315e4079d60e11b815260040160405180910390fd5b6000816001166000036135a057600160801b6135b2565b6ffffcb933bd6fad37aa2d162d1a5940015b70ffffffffffffffffffffffffffffffffff16905060028216156135e6576ffff97272373d413259a46990580e213a0260801c5b6004821615613605576ffff2e50f5f656932ef12357cf3c7fdcc0260801c5b6008821615613624576fffe5caca7e10e4e61c3624eaa0941cd00260801c5b6010821615613643576fffcb9843d60f6159c9db58835c9266440260801c5b6020821615613662576fff973b41fa98c081472e6896dfb254c00260801c5b6040821615613681576fff2ea16466c96a3843ec78b326b528610260801c5b60808216156136a0576ffe5dee046a99a2a811c461f1969c30530260801c5b6101008216156136c0576ffcbe86c7900a88aedcffc83b479aa3a40260801c5b6102008216156136e0576ff987a7253ac413176f2b074cf7815e540260801c5b610400821615613700576ff3392b0822b70005940c7a398e4b70f30260801c5b610800821615613720576fe7159475a2c29b7443b29c7fa6e889d90260801c5b611000821615613740576fd097f3bdfd2022b8845ad8f792aa58250260801c5b612000821615613760576fa9f746462d870fdf8a65dc1f90e061e50260801c5b614000821615613780576f70d869a156d2a1b890bb3df62baf32f70260801c5b6180008216156137a0576f31be135f97d08fd981231505542fcfa60260801c5b620100008216156137c1576f09aa508b5b7a84e1c677de54f3e99bc90260801c5b620200008216156137e1576e5d6af8dedb81196699c329225ee6040260801c5b62040000821615613800576d2216e584f5fa1ea926041bedfe980260801c5b6208000082161561381d576b048a170391f7dc42444e8fa20260801c5b60008460020b131561383e57806000198161383a5761383a6154f3565b0490505b640100000000810615613852576001613855565b60005b60ff16602082901c0192505050919050565b60008080600019858709858702925082811083820303915050806000036138a0576000841161389557600080fd5b508290049050611222565b8084116138ac57600080fd5b6000848688096000868103871696879004966002600389028118808a02820302808a02820302808a02820302808a02820302808a02820302808a02909103029181900381900460010186841190950394909402919094039290920491909117919091029150509392505050565b60608247101561397a5760405162461bcd60e51b815260206004820152602660248201527f416464726573733a20696e73756666696369656e742062616c616e636520666f6044820152651c8818d85b1b60d21b6064820152608401610992565b6001600160a01b0385163b6139d15760405162461bcd60e51b815260206004820152601d60248201527f416464726573733a2063616c6c20746f206e6f6e2d636f6e74726163740000006044820152606401610992565b600080866001600160a01b031685876040516139ed919061582e565b60006040518083038185875af1925050503d8060008114613a2a576040519150601f19603f3d011682016040523d82523d6000602084013e613a2f565b606091505b5091509150613a3f828286613a4a565b979650505050505050565b60608315613a59575081611222565b825115613a695782518084602001fd5b8160405162461bcd60e51b8152600401610992919061528d565b600060208284031215613a9557600080fd5b5035919050565b63ffffffff81168114612b6e57600080fd5b8035611fab81613a9c565b634e487b7160e01b600052604160045260246000fd5b60405160a081016001600160401b0381118282101715613af157613af1613ab9565b60405290565b60405161012081016001600160401b0381118282101715613af157613af1613ab9565b604080519081016001600160401b0381118282101715613af157613af1613ab9565b60405160e081016001600160401b0381118282101715613af157613af1613ab9565b604051601f8201601f191681016001600160401b0381118282101715613b8657613b86613ab9565b604052919050565b6001600160a01b0381168114612b6e57600080fd5b8035611fab81613b8e565b8015158114612b6e57600080fd5b8035611fab81613bae565b600060808284031215613bd957600080fd5b604051608081018181106001600160401b0382111715613bfb57613bfb613ab9565b604052823581529050806020830135613c1381613b8e565b60208201526040830135613c2681613bae565b60408201526060830135613c3981613bae565b6060919091015292915050565b600080600060c08486031215613c5b57600080fd5b833592506020840135613c6d81613a9c565b9150613c7c8560408601613bc7565b90509250925092565b634e487b7160e01b600052602160045260246000fd5b60038110613cab57613cab613c85565b9052565b6000608080830160018060a01b038089168552602088818701526040848188015283895180865260a089019150838b01955060005b81811015613d0b578651805187168452850151858401529584019591830191600101613ce4565b5050606094508781038589015280935088518082528382019450838160051b830101848b0160005b83811015613e2957848303601f190188528151805163ffffffff16845287810151888501528681015187850152898101518a8501528a015160a08b850181905281519085018190529088019060009060c08601905b80831015613e145783518051600290810b84528c820151900b8c8401528a8101516001600160801b0381168c850152508d8101518e8401528e8101518f84015260a081015160a084015260c081015160c084015260e081015160e0840152610100808201519150613dfb81850183613c9b565b5050610120820191508a84019350600183019250613d88565b50998901999450505090860190600101613d33565b50909e9d5050505050505050505050505050565b6000808284036080811215613e5157600080fd5b8335613e5c81613b8e565b92506060601f1982011215613e7057600080fd5b50604051606081018181106001600160401b0382111715613e9357613e93613ab9565b6040526020840135613ea481613b8e565b81526040840135613eb481613a9c565b60208201526060840135613ec781613bae565b6040820152919491935090915050565b6000610140828403121561331f57600080fd5b60008083601f840112613efc57600080fd5b5081356001600160401b03811115613f1357600080fd5b6020830191508360208260051b8501011115613f2e57600080fd5b9250929050565b600080600060408486031215613f4a57600080fd5b8335925060208401356001600160401b03811115613f6757600080fd5b613f7386828701613eea565b9497909650939450505050565b60005b83811015613f9b578181015183820152602001613f83565b83811115612e3e5750506000910152565b60008151808452613fc4816020860160208601613f80565b601f01601f19169290920160200192915050565b6000602080830181845280855180835260408601915060408160051b870101925083870160005b8281101561402d57603f1988860301845261401b858351613fac565b94509285019290850190600101613fff565b5092979650505050505050565b6000806040838503121561404d57600080fd5b82359150602083013561405f81613a9c565b809150509250929050565b60006020828403121561407c57600080fd5b813561122281613a9c565b8060020b8114612b6e57600080fd5b600080600080608085870312156140ac57600080fd5b8435935060208501356140be81613a9c565b925060408501356140ce81614087565b915060608501356140de81614087565b939692955090935050565b6000806000606084860312156140fe57600080fd5b83359250602084013561411081613a9c565b929592945050506040919091013590565b60006020828403121561413357600080fd5b813561122281613b8e565b6000806020838503121561415157600080fd5b82356001600160401b0381111561416757600080fd5b61417385828601613eea565b90969095509350505050565b600060e0828403121561331f57600080fd5b60008061010083850312156141a557600080fd5b82356141b081613a9c565b91506141bf846020850161417f565b90509250929050565b60006101a08201905060018060a01b03808916835280881660208401525061ffff80875116604084015280602088015116606084015280604088015116608084015250606086015161422060a084018261ffff169052565b50608086015161ffff811660c08401525060a086015161ffff811660e08401525060c08601516001600160401b0381166101008401525060e08601516001600160401b03811661012084015250846101408301528361016083015282610180830152979650505050505050565b600080604083850312156142a057600080fd5b50508035926020909101359150565b6000806000808486036101608112156142c757600080fd5b610100808212156142d757600080fd5b95979588013596505050610120860135936101408701359350915050565b600080600080600060a0868803121561430d57600080fd5b853561431881613b8e565b9450602086013561432881613b8e565b9350604086013561433881613b8e565b9250606086013561434881613b8e565b9150608086013561435881613b8e565b809150509295509295909350565b60006101408201905060018060a01b0380845116835280602085015116602084015280604085015116604084015250606083015161ffff8082511660608501528060208301511660808501528060408301511660a08501525063ffffffff60608201511660c08401526080810151151560e084015260a08101516143ef61010085018215159052565b5060c001516001600160a01b038116610120840152611ad3565b81516001600160a01b031681526020808301516080830191611ad39084018280516001600160a01b0316825260208082015163ffffffff16908301526040908101511515910152565b60006001600160401b0382111561446b5761446b613ab9565b5060051b60200190565b6000602080838503121561448857600080fd5b82356001600160401b0381111561449e57600080fd5b8301601f810185136144af57600080fd5b80356144c26144bd82614452565b613b5e565b81815260059190911b820183019083810190878311156144e157600080fd5b928401925b82841015613a3f578335825292840192908401906144e6565b6020808252825182820181905260009190848201906040850190845b818110156145375783518352928401929184019160010161451b565b50909695505050505050565b6000806040838503121561455657600080fd5b823561456181613a9c565b946020939093013593505050565b6000806040838503121561458257600080fd5b82359150602083013561405f81613bae565b600080600061012084860312156145aa57600080fd5b8335925060208401356145bc81613a9c565b9150613c7c856040860161417f565b60208082526010908201526f14185d5cd8589b194e881c185d5cd95960821b604082015260600190565b8051611fab81614087565b80516001600160801b0381168114611fab57600080fd5b60038110612b6e57600080fd5b8051611fab81614617565b600082601f83011261464057600080fd5b815160206146506144bd83614452565b82815260059290921b8401810191818101908684111561466f57600080fd5b8286015b848110156147f55780516001600160401b038082111561469257600080fd5b9088019060a0828b03601f190112156146aa57600080fd5b6146b2613acf565b868301516146bf81613a9c565b80825250604083015187820152606083015160408201526080830151606082015260a0830151828111156146f257600080fd5b8084019350508a603f84011261470757600080fd5b8683015191506147196144bd83614452565b82815261012092830284016040019288820191908d85111561473a57600080fd5b6040860195505b848610156147df5780868f03121561475857600080fd5b614760613af7565b614769876145f5565b81526147768b88016145f5565b8b82015261478660408801614600565b6040820152606087015160608201526080870151608082015260a087015160a082015260c087015160c082015260e087015160e08201526147ca6101008801614624565b61010082015283529485019491890191614741565b5060808301525085525050918301918301614673565b509695505050505050565b6000806000806080858703121561481657600080fd5b845161482181613b8e565b8094505060208086015193506040808701516001600160401b038082111561484857600080fd5b818901915089601f83011261485c57600080fd5b815161486a6144bd82614452565b81815260069190911b8301850190858101908c83111561488957600080fd5b938601935b828510156148d25785858e0312156148a65760008081fd5b6148ae613b1a565b85516148b981613b8e565b815285880151888201528252938501939086019061488e565b60608c015190985095505050808411156148eb57600080fd5b5050506148fa8782880161462f565b91505092959194509250565b634e487b7160e01b600052600160045260246000fd5b80546001600160a01b0319166001600160a01b0392909216919091179055565b61ffff81168114612b6e57600080fd5b600081356112388161493c565b6000813561123881613bae565b6000813561123881613b8e565b813561497e8161493c565b815461ffff191661ffff821617825550602082013561499c8161493c565b815463ffff00001916601082901b63ffff0000161782555060408201356149c28161493c565b815465ffff000000001916602082901b65ffff00000000161782555060608201356149ec81613a9c565b815469ffffffff000000000000191660309190911b63ffffffff60301b161781556080820135614a1b81613bae565b815460ff60501b191681151560501b60ff60501b161782555060a0820135614a4281613bae565b815460ff60581b191681151560581b60ff60581b161782555060c0820135614a6981613b8e565b81546001600160601b0316606082901b6001600160601b031916178255505050565b8135614a9681613b8e565b614aa0818361491c565b506020820135614aaf81613b8e565b614abc816001840161491c565b506040820135614acb81613b8e565b614ad8816002840161491c565b50600381016060830135614aeb8161493c565b815461ffff191661ffff8216178255506080830135614b098161493c565b815463ffff00001916601082901b63ffff0000161782555060a0830135614b2f8161493c565b815465ffff000000001916602082901b65ffff00000000161782555060c0830135614b5981613a9c565b815469ffffffff000000000000191660309190911b63ffffffff60301b16178155614ba7614b8960e08501614959565b82805460ff60501b191691151560501b60ff60501b16919091179055565b614bd5614bb76101008501614959565b82805460ff60581b191691151560581b60ff60581b16919091179055565b611353614be56101208501614966565b82546001600160601b031660609190911b6001600160601b031916178255565b8035611fab8161493c565b63ffffffff8316815261010081018235614c298161493c565b61ffff808216602085015260208501359150614c448261493c565b808216604085015260408501359150614c5c8261493c565b80821660608501525050614c7260608401613aae565b63ffffffff8116608084015250614c8b60808401613bbc565b80151560a084015250614ca060a08401613bbc565b80151560c084015250614cb560c08401613ba3565b6001600160a01b03811660e0840152509392505050565b634e487b7160e01b600052603260045260246000fd5b60008235603e19833603018112614cf857600080fd5b9190910192915050565b600060208284031215614d1457600080fd5b81356007811061122257600080fd5b6000808335601e19843603018112614d3a57600080fd5b8301803591506001600160401b03821115614d5457600080fd5b602001915036819003821315613f2e57600080fd5b60008060a08385031215614d7c57600080fd5b8235614d8781613a9c565b91506141bf8460208501613bc7565b8035611fab81614617565b600060e08284031215614db357600080fd5b614dbb613b3c565b90508135614dc881614087565b81526020820135614dd881614087565b60208201526040820135600f81900b8114614df257600080fd5b6040820152614e0360608301613ba3565b6060820152614e1460808301614c05565b6080820152614e2560a08301613bbc565b60a0820152614e3660c08301614d96565b60c082015292915050565b6000806101008385031215614e5557600080fd5b8235614e6081613a9c565b91506141bf8460208501614da1565b600080600060608486031215614e8457600080fd5b8335614e8f81613a9c565b92506020840135614e9f81614087565b91506040840135614eaf81614087565b809150509250925092565b6020810160078310614ece57614ece613c85565b91905290565b634e487b7160e01b600052601160045260246000fd5b600060018201614efc57614efc614ed4565b5060010190565b600060208284031215614f1557600080fd5b5051919050565b60008219821115614f2f57614f2f614ed4565b500190565b6001600160401b0381168114612b6e57600080fd5b6000813561123881614f34565b8135614f618161493c565b815461ffff191661ffff8216178255506020820135614f7f8161493c565b815463ffff00001916601082901b63ffff000016178255506040820135614fa58161493c565b815465ffff000000001916602082901b65ffff0000000016178255506060820135614fcf8161493c565b815467ffff0000000000008260301b1691508167ffff0000000000001982161783556080840135614fff8161493c565b69ffff00000000000000008160401b168363ffffffff60301b1984161717845550505061505161503160a0840161494c565b82805461ffff60501b191660509290921b61ffff60501b16919091179055565b61508c61506060c08401614f49565b82805467ffffffffffffffff60601b191660609290921b67ffffffffffffffff60601b16919091179055565b610ab661509b60e08401614f49565b82805467ffffffffffffffff60a01b191660a09290921b67ffffffffffffffff60a01b16919091179055565b8035611fab81614f34565b610160810185356150e28161493c565b61ffff90811683526020870135906150f98261493c565b16602083015261510b60408701614c05565b61ffff16604083015261512060608701614c05565b61ffff16606083015261513560808701614c05565b61ffff16608083015261514a60a08701614c05565b61ffff1660a083015261515f60c087016150c7565b6001600160401b031660c083015261517960e087016150c7565b6001600160401b031660e083015261010082019490945261012081019290925261014090910152919050565b6020808252602e908201527f496e697469616c697a61626c653a20636f6e747261637420697320616c72656160408201526d191e481a5b9a5d1a585b1a5e995960921b606082015260800190565b8183823760009101908152919050565b60006020828403121561521557600080fd5b81516001600160401b038082111561522c57600080fd5b818401915084601f83011261524057600080fd5b81518181111561525257615252613ab9565b615265601f8201601f1916602001613b5e565b915080825285602082850101111561527c57600080fd5b612765816020840160208601613f80565b6020815260006112356020830184613fac565b600080604083850312156152b357600080fd5b505080516020909101519092909150565b600060e082840312156152d657600080fd5b6112358383614da1565b6001600160a01b038316815260808101611222602083018480516001600160a01b0316825260208082015163ffffffff16908301526040908101511515910152565b6000600160ff1b820161533757615337614ed4565b5060000390565b60006101608201905086825263ffffffff86166020830152845160020b6040830152602085015160020b60608301526040850151600f0b608083015260018060a01b0360608601511660a083015261ffff60808601511660c083015260a08501516153ad60e084018215159052565b5060c08501516153c1610100840182613c9b565b50836101208301526153d861014083018415159052565b9695505050505050565b6000806000606084860312156153f757600080fd5b8351925060208401519150604084015190509250925092565b600080821280156001600160ff1b038490038513161561543257615432614ed4565b600160ff1b839003841281161561544b5761544b614ed4565b50500190565b6020808252602b908201527f496e697469616c697a61626c653a20636f6e7472616374206973206e6f74206960408201526a6e697469616c697a696e6760a81b606082015260800190565b60006001600160a01b03838116908316818110156154bc576154bc614ed4565b039392505050565b60006001600160a01b03828116848216811515828404821116156154ea576154ea614ed4565b02949350505050565b634e487b7160e01b600052601260045260246000fd5b60006001600160a01b0383811680615523576155236154f3565b92169190910492915050565b60006020828403121561554157600080fd5b815161122281613bae565b600080600080600080600060e0888a03121561556757600080fd5b875161557281613b8e565b602089015190975061558381614087565b60408901519096506155948161493c565b60608901519095506155a58161493c565b60808901519094506155b68161493c565b60a089015190935060ff811681146155cd57600080fd5b60c08901519092506155de81613bae565b8091505092959891949750929550565b6020808252825182820181905260009190848201906040850190845b8181101561453757835163ffffffff168352928401929184019160010161560a565b600082601f83011261563d57600080fd5b8151602061564d6144bd83614452565b82815260059290921b8401810191818101908684111561566c57600080fd5b8286015b848110156147f557805161568381613b8e565b8352918301918301615670565b600080604083850312156156a357600080fd5b82516001600160401b03808211156156ba57600080fd5b818501915085601f8301126156ce57600080fd5b815160206156de6144bd83614452565b82815260059290921b840181019181810190898411156156fd57600080fd5b948201945b8386101561572b5785518060060b811461571c5760008081fd5b82529482019490820190615702565b9188015191965090935050508082111561574457600080fd5b506157518582860161562c565b9150509250929050565b60008160060b8360060b6000811281667fffffffffffff190183128115161561578657615786614ed4565b81667fffffffffffff0183138116156157a1576157a1614ed4565b5090039392505050565b60008160060b8360060b806157c2576157c26154f3565b667fffffffffffff198214600019821416156157e0576157e0614ed4565b90059392505050565b60008260060b806157fc576157fc6154f3565b808360060b0791505092915050565b60008160020b627fffff19810361582457615824614ed4565b6000190192915050565b60008251614cf8818460208701613f8056fea2646970667358221220219b8624a3ad66a2d4059ac0764f0b0c72aa466540ee006e7c25caa4b5ce63bd64736f6c634300080d0033496e697469616c697a61626c653a20636f6e747261637420697320616c726561",
  "deployedBytecode": "0x6080604052600436106102255760003560e01c806393420cf411610123578063bc38d542116100ab578063e1f167131161006f578063e1f16713146108c5578063e3d41c18146108e5578063e450f6f414610905578063e67ed1df14610925578063ee6cd5ee1461094557600080fd5b8063bc38d5421461080c578063d38bfff414610839578063da04799614610859578063dbc0c08514610879578063dbd035ff1461089857600080fd5b8063a9b0a934116100f2578063a9b0a9341461064d578063ab3b19f81461066d578063ac9650d81461068d578063b670ed52146106a0578063b7902303146107ec57600080fd5b806393420cf4146104e65780639cd1be58146105f85780639dca362f14610618578063a05c8baf1461062d57600080fd5b8063569634d3116101b15780637d2efe07116101755780637d2efe07146104505780637f64d6631461047057806385ff7cbd146104905780638ce25a93146104b05780638f24ab11146104c657600080fd5b8063569634d3146103b85780635aa6e675146103d85780635c975abb146103f75780636a486482146104105780637cc2f4f51461043057600080fd5b80633d56a35e116101f85780633d56a35e146102e35780633ffe794c1461031b57806340c4f69b1461033b57806343afafba14610368578063440ab7451461038857600080fd5b80631e2eaeaf1461022a57806332a72d981461025c5780633b561afc146102915780633d0aea3d146102c1575b600080fd5b34801561023657600080fd5b50610249610245366004613a83565b5490565b6040519081526020015b60405180910390f35b34801561026857600080fd5b5061027c610277366004613c46565b610965565b60408051928352602083019190915201610253565b34801561029d57600080fd5b506102b16102ac366004613a83565b6109c2565b6040516102539493929190613caf565b3480156102cd57600080fd5b506102e16102dc366004613e3d565b610a66565b005b3480156102ef57600080fd5b5060d254610303906001600160a01b031681565b6040516001600160a01b039091168152602001610253565b34801561032757600080fd5b506102e1610336366004613ed7565b610aba565b34801561034757600080fd5b5061035b610356366004613f35565b610ba0565b6040516102539190613fd8565b34801561037457600080fd5b5061024961038336600461403a565b611229565b34801561039457600080fd5b506103a86103a336600461406a565b61123e565b6040519015158152602001610253565b3480156103c457600080fd5b506102e16103d3366004613a83565b611266565b3480156103e457600080fd5b5061019d546001600160a01b0316610303565b34801561040357600080fd5b5061016b5460ff166103a8565b34801561041c57600080fd5b5061024961042b36600461403a565b61126f565b34801561043c57600080fd5b506102e161044b366004614096565b611305565b34801561045c57600080fd5b506102e161046b3660046140e9565b611318565b34801561047c57600080fd5b506102e161048b366004614121565b611358565b34801561049c57600080fd5b506102e16104ab36600461413e565b611423565b3480156104bc57600080fd5b5061024960d05481565b3480156104d257600080fd5b506102e16104e1366004614191565b611549565b3480156104f257600080fd5b506105e66040805161010081018252600080825260208201819052918101829052606081018290526080810182905260a0810182905260c0810182905260e0810182905281905050606654606754604080516101008101825260685461ffff8082168352620100008204811660208401526401000000008204811693830193909352600160301b810483166060830152600160401b810483166080830152600160501b810490921660a08201526001600160401b03600160601b8304811660c0830152600160a01b90920490911660e0820152606954606a54606b546001600160a01b039586169794909516955091939092565b604051610253969594939291906141c8565b34801561060457600080fd5b506102e161061336600461428d565b6115e7565b34801561062457600080fd5b50610249611624565b34801561063957600080fd5b506102e16106483660046142af565b6116cd565b34801561065957600080fd5b506102e161066836600461413e565b611775565b34801561067957600080fd5b506102e16106883660046142f5565b611889565b61035b61069b36600461413e565b611983565b3480156106ac57600080fd5b506107df6106bb36600461406a565b604080516080808201835260008083526020808401829052838501829052845160e081018652828152908101829052938401819052606080850182905291840181905260a0840181905260c08401528101919091525063ffffffff90811660009081526064602090815260409182902082516080808201855282546001600160a01b03908116835260018401548116838601526002840154811683870152855160e08101875260039094015461ffff8082168652620100008204811696860196909652640100000000810490951695840195909552600160301b840490951660608381019190915260ff600160501b85048116151596840196909652600160581b8404909516151560a0830152600160601b90920490921660c08301529182015290565b6040516102539190614366565b3480156107f857600080fd5b5060d354610303906001600160a01b031681565b34801561081857600080fd5b5061082c61082736600461406a565b611ada565b6040516102539190614409565b34801561084557600080fd5b506102e1610854366004614121565b611b79565b34801561086557600080fd5b5061027c61087436600461406a565b611c2a565b34801561088557600080fd5b5061019e546001600160a01b0316610303565b3480156108a457600080fd5b506108b86108b3366004614475565b611c4c565b60405161025391906144ff565b3480156108d157600080fd5b506102e16108e036600461413e565b611c7a565b3480156108f157600080fd5b50610249610900366004613a83565b611dc7565b34801561091157600080fd5b50610249610920366004614543565b611e51565b34801561093157600080fd5b5061027c61094036600461456f565b611e68565b34801561095157600080fd5b5061027c610960366004614594565b611f06565b60008061097561016b5460ff1690565b1561099b5760405162461bcd60e51b8152600401610992906145cb565b60405180910390fd5b60006109a686611f6a565b90506109b58186866001611fb0565b9250925050935093915050565b600081815260d16020526040808220905163a0ba775760e01b81526004810191909152606460248201528190606090819073__$86182d6e9eac51236f2aa8dd2a3ddeab6c$__9063a0ba775790604401600060405180830381865af4158015610a2f573d6000803e3d6000fd5b505050506040513d6000823e601f3d908101601f19168201604052610a579190810190614800565b93509350935093509193509193565b61019e546001600160a01b03163314801590610a8e575061019d546001600160a01b03163314155b15610aac57604051636bd1573560e11b815260040160405180910390fd5b610ab6828261217a565b5050565b60d2546001600160a01b03163314610ae5576040516385734f3160e01b815260040160405180910390fd5b6000610b05610af76020840184614121565b6001600160a01b031661233e565b63ffffffff8116600090815260646020526040902054909150610b30906001600160a01b031661234c565b610b3c57610b3c614906565b63ffffffff811660009081526064602052604090208290610b5d8282614a8b565b9050507f4182acc9c169391ef7e765eb446fc15c9d49bc73060c678bf4c424a5c0dbdbcb8183606001604051610b94929190614c10565b60405180910390a15050565b6060816001600160401b03811115610bba57610bba613ab9565b604051908082528060200260200182016040528015610bed57816020015b6060815260200190600190039081610bd85790505b5090506000610bfb85611f6a565b905060008060005b85811015611134576000878783818110610c1f57610c1f614ccc565b9050602002810190610c319190614ce2565b610c3f906020810190614d02565b6006811115610c5057610c50613c85565b03610cbc57600080888884818110610c6a57610c6a614ccc565b9050602002810190610c7c9190614ce2565b610c8a906020810190614d23565b810190610c979190614543565b915091508380610ca75750600081125b9350610cb58683838761235e565b5050611122565b6001878783818110610cd057610cd0614ccc565b9050602002810190610ce29190614ce2565b610cf0906020810190614d02565b6006811115610d0157610d01613c85565b03610d6d576000878783818110610d1a57610d1a614ccc565b9050602002810190610d2c9190614ce2565b610d3a906020810190614d23565b810190610d479190613a83565b9050610d5585826000612465565b6000811215610d675760019350600192505b50611122565b6002878783818110610d8157610d81614ccc565b9050602002810190610d939190614ce2565b610da1906020810190614d02565b6006811115610db257610db2613c85565b03610e5f57600080888884818110610dcc57610dcc614ccc565b9050602002810190610dde9190614ce2565b610dec906020810190614d23565b810190610df99190614d69565b91509150600080610e0d8885856000611fb0565b60408051602081018490529081018290529193509150606001604051602081830303815290604052898681518110610e4757610e47614ccc565b60200260200101819052506001955050505050611122565b6003878783818110610e7357610e73614ccc565b9050602002810190610e859190614ce2565b610e93906020810190614d02565b6006811115610ea457610ea4613c85565b03610eff57600080888884818110610ebe57610ebe614ccc565b9050602002810190610ed09190614ce2565b610ede906020810190614d23565b810190610eeb9190614e41565b91509150600080610e0d8885856000612565565b6004878783818110610f1357610f13614ccc565b9050602002810190610f259190614ce2565b610f33906020810190614d02565b6006811115610f4457610f44613c85565b03610fa8576000806000898985818110610f6057610f60614ccc565b9050602002810190610f729190614ce2565b610f80906020810190614d23565b810190610f8d9190614e6f565b925092509250610f9f8b848484612673565b50505050611122565b6005878783818110610fbc57610fbc614ccc565b9050602002810190610fce9190614ce2565b610fdc906020810190614d02565b6006811115610fed57610fed613c85565b03610ffb57610d678861276e565b600687878381811061100f5761100f614ccc565b90506020028101906110219190614ce2565b61102f906020810190614d02565b600681111561104057611040613c85565b036110d657600087878381811061105957611059614ccc565b905060200281019061106b9190614ce2565b611079906020810190614d23565b810190611086919061406a565b905061109289826128d0565b6040516020016110a491815260200190565b6040516020818303038152906040528683815181106110c5576110c5614ccc565b602002602001018190525050611122565b8686828181106110e8576110e8614ccc565b90506020028101906110fa9190614ce2565b611108906020810190614d02565b604051633164e52160e11b81526004016109929190614eba565b8061112c81614eea565b915050610c03565b5081156111a65760405163651524ed60e01b8152600481018490526064602482015273__$86182d6e9eac51236f2aa8dd2a3ddeab6c$__9063651524ed9060440160006040518083038186803b15801561118d57600080fd5b505af41580156111a1573d6000803e3d6000fd5b505050505b801561121e5760405163998c533560e01b8152600481018490526001602482015260646044820181905273__$86182d6e9eac51236f2aa8dd2a3ddeab6c$__9163998c5335910160006040518083038186803b15801561120557600080fd5b505af4158015611219573d6000803e3d6000fd5b505050505b5050505b9392505050565b600061123583836128d0565b90505b92915050565b63ffffffff8116600090815260646020526040812054611238906001600160a01b031661234c565b610ab68161276e565b600082815260d160205260408082209051637188a1ed60e01b8152600481019190915263ffffffff8316602482015260646044820181905273__$86182d6e9eac51236f2aa8dd2a3ddeab6c$__91637188a1ed9101602060405180830381865af41580156112e1573d6000803e3d6000fd5b505050506040513d601f19601f820116820180604052508101906112359190614f03565b61131184848484612673565b5050505050565b61016b5460ff161561133c5760405162461bcd60e51b8152600401610992906145cb565b61135361134884611f6a565b83836000851261235e565b505050565b61019e546001600160a01b03163314801590611380575061019d546001600160a01b03163314155b1561139e57604051636bd1573560e11b815260040160405180910390fd5b6001600160a01b0381166113c55760405163d92e233d60e01b815260040160405180910390fd5b61019e546040516001600160a01b038084169216907f39355f2f5c8206286978f443aa8126bbd29fa09c53c04569502647f3a59c8cb290600090a361019e80546001600160a01b0319166001600160a01b0392909216919091179055565b61019e546001600160a01b0316331480159061144b575061019d546001600160a01b03163314155b1561146957604051636bd1573560e11b815260040160405180910390fd5b6114716129f3565b60005b8181101561135357600083838381811061149057611490614ccc565b90506020020160208101906114a5919061406a565b90506000806114b383611c2a565b63ffffffff8516600090815260646020526040908190206002015490516336c3cc4d60e11b815260048101849052602481018390529294509092506001600160a01b031690636d87989a90604401600060405180830381600087803b15801561151b57600080fd5b505af115801561152f573d6000803e3d6000fd5b50505050505050808061154190614eea565b915050611474565b61019e546001600160a01b03163314801590611571575061019d546001600160a01b03163314155b1561158f57604051636bd1573560e11b815260040160405180910390fd5b63ffffffff8216600090815260646020526040902081906003016115b38282614973565b9050507f4182acc9c169391ef7e765eb446fc15c9d49bc73060c678bf4c424a5c0dbdbcb8282604051610b94929190614c10565b61016b5460ff161561160b5760405162461bcd60e51b8152600401610992906145cb565b600061161683611f6a565b905061135381836001612465565b600061163361016b5460ff1690565b156116505760405162461bcd60e51b8152600401610992906145cb565b5060d05461165f816001614f1c565b60d055600081815260d160209081526040918290206001600160601b031933600160601b8102919091166001600160601b03861617825592518481529092917f7325fb14450d3e5eb288c620b4ff1d6b43a41b33b4a4f143ae88cd4c12f99ea3910160405180910390a25090565b61019e546001600160a01b031633148015906116f5575061019d546001600160a01b03163314155b1561171357604051636bd1573560e11b815260040160405180910390fd5b8360686117208282614f56565b5050606a839055606b82905560698190556040517f697aec6e94e319190380ab0f1f10018d81b64da2479eb874be92c9a733e0a837906117679086908690869086906150d2565b60405180910390a150505050565b61019e546001600160a01b0316331480159061179d575061019d546001600160a01b03163314155b156117bb57604051636bd1573560e11b815260040160405180910390fd5b6117c3612a6a565b60005b8181101561135357606460008484848181106117e4576117e4614ccc565b90506020020160208101906117f9919061406a565b63ffffffff168152602081019190915260409081016000206002015490516336c3cc4d60e11b815260016004820181905260248201526001600160a01b0390911690636d87989a90604401600060405180830381600087803b15801561185e57600080fd5b505af1158015611872573d6000803e3d6000fd5b50505050808061188190614eea565b9150506117c6565b61013854610100900460ff166118a6576101385460ff16156118aa565b303b155b6118c65760405162461bcd60e51b8152600401610992906151a5565b61013854610100900460ff161580156118ea57610138805461ffff19166101011790555b60d280546001600160a01b03199081166001600160a01b038981169190911790925560668054821688841617905560d38054821686841617905560678054909116848316179055604080516060810182529186168252603c602083015260019082015261195890869061217a565b611960612ae6565b611968612b71565b801561197b57610138805461ff00191690555b505050505050565b6060816001600160401b0381111561199d5761199d613ab9565b6040519080825280602002602001820160405280156119d057816020015b60608152602001906001900390816119bb5790505b50905060005b82811015611ad357600080308686858181106119f4576119f4614ccc565b9050602002810190611a069190614d23565b604051611a149291906151f3565b600060405180830381855af49150503d8060008114611a4f576040519150601f19603f3d011682016040523d82523d6000602084013e611a54565b606091505b509150915081611aa057604481511015611a6d57600080fd5b60048101905080806020019051810190611a879190615203565b60405162461bcd60e51b8152600401610992919061528d565b80848481518110611ab357611ab3614ccc565b602002602001018190525050508080611acb90614eea565b9150506119d6565b5092915050565b611b0d60408051808201825260008082528251606081018452818152602081810183905293810191909152909182015290565b5063ffffffff9081166000908152606560209081526040918290208251808401845281546001600160a01b03908116825284516060810186526001909301549081168352600160a01b810490951682840152600160c01b90940460ff1615159281019290925282015290565b61019d546001600160a01b03163314611ba557604051636bd1573560e11b815260040160405180910390fd5b6001600160a01b038116611bcc5760405163d92e233d60e01b815260040160405180910390fd5b61019d546040516001600160a01b038084169216907f5f56bee8cffbe9a78652a74a60705edede02af10b0bbb888ca44b79a0d42ce8090600090a361019d80546001600160a01b0319166001600160a01b0392909216919091179055565b600080611c38606484612ba6565b9150611c45606484612c43565b9050915091565b606060208251028201602001602083015b81811015611c72578051548152602001611c5d565b509192915050565b6000805b82811015611d9d576000848483818110611c9a57611c9a614ccc565b9050602002016020810190611caf9190614121565b6001600160a01b0316635e622abc6040518163ffffffff1660e01b81526004016020604051808303816000875af1158015611cee573d6000803e3d6000fd5b505050506040513d601f19601f82011682018060405250810190611d129190614f03565b9050848483818110611d2657611d26614ccc565b9050602002016020810190611d3b9190614121565b6001600160a01b03167fa087657e3d85162090ffd700fbfdf5070d816f63aa5da00063f6ffd369c8a6db82604051611d7591815260200190565b60405180910390a2611d878184614f1c565b9250508080611d9590614eea565b915050611c7e565b50611353611db461019e546001600160a01b031690565b6066546001600160a01b03169083612c60565b600081815260d16020526040808220905163625915c360e11b815260048101919091526064602482015273__$86182d6e9eac51236f2aa8dd2a3ddeab6c$__9063c4b22b8690604401602060405180830381865af4158015611e2d573d6000803e3d6000fd5b505050506040513d601f19601f820116820180604052508101906112389190614f03565b6000611e5b611624565b9050611238818484611318565b600082815260d16020526040808220905163031b5fcd60e21b815260048101919091528215156024820152606460448201819052829173__$86182d6e9eac51236f2aa8dd2a3ddeab6c$__91630c6d7f3491016040805180830381865af4158015611ed7573d6000803e3d6000fd5b505050506040513d601f19601f82011682018060405250810190611efb91906152a0565b909590945092505050565b600080611f1661016b5460ff1690565b15611f335760405162461bcd60e51b8152600401610992906145cb565b6000611f3e86611f6a565b90506109b58186611f54368890038801886152c4565b6001612565565b6001600160a01b03163b151590565b600081815260d1602052604090208054600160601b90046001600160a01b03163314611fab57604051630504a20d60e01b8152336004820152602401610992565b919050565b600080611fc061016b5460ff1690565b15611fdd5760405162461bcd60e51b8152600401610992906145cb565b611fe685612cc3565b60408051630a067b0f60e11b81526004810188905263ffffffff871660248201528551604482015260208601516001600160a01b031660648083019190915291860151151560848201526060860151151560a482015260c481019190915283151560e482015273__$86182d6e9eac51236f2aa8dd2a3ddeab6c$__9063140cf61e90610104016040805180830381865af4158015612088573d6000803e3d6000fd5b505050506040513d601f19601f820116820180604052508101906120ac91906152a0565b909250905060006120bc82612d46565b606b549091508110156120e5576040516312b6b5cd60e11b815260048101829052602401610992565b60208501516001600160a01b03161580159061210357508460600151155b15612170578460400151801561212a5750845161211f90612d46565b61212883612d46565b145b80612153575084604001511580156121535750845161214890612d46565b61215184612d46565b145b612170576040516307a1db0760e01b815260040160405180910390fd5b5094509492505050565b600061218e836001600160a01b031661233e565b90506121a2836001600160a01b031661234c565b156121c3576040516376d8a93160e01b815260006004820152602401610992565b63ffffffff81166000908152606560205260409020546121eb906001600160a01b031661234c565b158015612224575063ffffffff808216600090815260656020526040902054612222916001600160a01b03909116908590612d6116565b155b1561226d5763ffffffff81166000908152606560205260409081902054905163a5d4d0b560e01b81526001600160a01b0380861660048301529091166024820152604401610992565b6040805180820182526001600160a01b038581168252602080830186815263ffffffff868116600090815260658452869020945185546001600160a01b03191690851617855590518051600190950180549382015191870151959094166001600160c01b031990931692909217600160a01b92909116919091021760ff60c01b1916600160c01b92151592909202919091179055517f52983c04d8ccd4808cd0fcb24e6e48106ecb41e803d6270c6c94a15e3ebd08d29061233190859085906152e0565b60405180910390a1505050565b600063ffffffff8216611238565b60006001600160a01b03821615611238565b61016b5460ff16156123825760405162461bcd60e51b8152600401610992906145cb565b60006123918460008512612d77565b60405163f5a284a160e01b81526004810187905263ffffffff8616602482015260448101859052606480820152831515608482015290915073__$86182d6e9eac51236f2aa8dd2a3ddeab6c$__9063f5a284a19060a40160006040518083038186803b15801561240057600080fd5b505af4158015612414573d6000803e3d6000fd5b50505050600083131561243d578054612438906001600160a01b0316333086612e06565b611311565b6000831215611311576113113361245385615322565b83546001600160a01b03169190612c60565b61016b5460ff16156124895760405162461bcd60e51b8152600401610992906145cb565b816000036124aa57604051631f2a200560e01b815260040160405180910390fd5b60405163d25c4a6f60e01b815260048101849052602481018390526064604482018190528215159082015273__$86182d6e9eac51236f2aa8dd2a3ddeab6c$__9063d25c4a6f9060840160006040518083038186803b15801561250c57600080fd5b505af4158015612520573d6000803e3d6000fd5b50505050600082131561254557606654611353906001600160a01b0316333085612e06565b6113533361255284615322565b6066546001600160a01b03169190612c60565b60008061257561016b5460ff1690565b156125925760405162461bcd60e51b8152600401610992906145cb565b61259b85612cc3565b60608401516001600160a01b0316156125c1576125c18585606001518660800151612e44565b60405163c27789d160e01b815260009073__$86182d6e9eac51236f2aa8dd2a3ddeab6c$__9063c27789d190612604908a908a908a906064908b9060040161533e565b606060405180830381865af4158015612621573d6000803e3d6000fd5b505050506040513d601f19601f8201168201806040525081019061264591906153e2565b606b549295509093509150811015612170576040516312b6b5cd60e11b815260048101829052602401610992565b600061268261016b5460ff1690565b1561269f5760405162461bcd60e51b8152600401610992906145cb565b600085815260d1602052604090206126b685612cc3565b606a54604051637022478560e11b81526004810183905263ffffffff87166024820152600286810b604483015285900b6064808301919091526084820183905260a482015290925073__$86182d6e9eac51236f2aa8dd2a3ddeab6c$__9063e0448f0a9060c40160006040518083038186803b15801561273557600080fd5b505af4158015612749573d6000803e3d6000fd5b505060665461276592506001600160a01b031690503384612c60565b50949350505050565b600061277d61016b5460ff1690565b1561279a5760405162461bcd60e51b8152600401610992906145cb565b600082815260d1602052604080822090516308b9103160e21b8152600481018290526024810183905260646044820181905291929173__$86182d6e9eac51236f2aa8dd2a3ddeab6c$__916322e440c491016040805180830381865af4158015612808573d6000803e3d6000fd5b505050506040513d601f19601f8201168201806040525081019061282c91906152a0565b9093509050600061283d8285615410565b9050600084136128635760405163ef37dcc760e01b815260048101859052602401610992565b60665461287a906001600160a01b03163386612c60565b61288382612ed6565b6040805182815260208101869052908101839052339086907fcfb6806c7e1accb0c7e5835aded9e714525c0588e5609d5ae1a3c8f6b68586a79060600160405180910390a3505050919050565b60006128df61016b5460ff1690565b156128fc5760405162461bcd60e51b8152600401610992906145cb565b600083815260d16020526040902061291383612cc3565b6040516377f3beb560e01b81526004810182905263ffffffff841660248201526000604482018190526064808301529073__$86182d6e9eac51236f2aa8dd2a3ddeab6c$__906377f3beb5906084016040805180830381865af415801561297e573d6000803e3d6000fd5b505050506040513d601f19601f820116820180604052508101906129a291906152a0565b9093509050600083136129cb5760405163ef37dcc760e01b815260048101849052602401610992565b6066546129e2906001600160a01b03163385612c60565b6129eb81612ed6565b505092915050565b61016b5460ff1615612a175760405162461bcd60e51b8152600401610992906145cb565b61016b805460ff191660011790557f62e78cea01bee320cd4e420270b5ea74000d11b0c9f74754ebdbfc544b05a258612a4d3390565b6040516001600160a01b03909116815260200160405180910390a1565b61016b5460ff16612ab45760405162461bcd60e51b815260206004820152601460248201527314185d5cd8589b194e881b9bdd081c185d5cd95960621b6044820152606401610992565b61016b805460ff191690557f5db9ee0a495bf2e6ff9c91a7834c1ba4fdd244a5e8aa4e537bd38aeae4b073aa33612a4d565b61013854610100900460ff16612b03576101385460ff1615612b07565b303b155b612b235760405162461bcd60e51b8152600401610992906151a5565b61013854610100900460ff16158015612b4757610138805461ffff19166101011790555b612b4f612f62565b33612b5a8180612f8c565b508015612b6e57610138805461ff00191690555b50565b61013854610100900460ff16612b995760405162461bcd60e51b815260040161099290615451565b61016b805460ff19169055565b63ffffffff8181166000908152602084905260408082206003810154915163dd86c10160e01b8152600160301b830490941660048501529192600160601b9091046001600160a01b03169063dd86c10190602401602060405180830381865afa158015612c17573d6000803e3d6000fd5b505050506040513d601f19601f82011682018060405250810190612c3b9190614f03565b949350505050565b6000611235612c528484613098565b6001600160a01b03166130dc565b6040516001600160a01b03831660248201526044810182905261135390849063a9059cbb60e01b906064015b60408051601f198184030181529190526020810180516001600160e01b03166001600160e01b031990931692909217909152613149565b63ffffffff811660009081526064602052604090208054612cec906001600160a01b031661234c565b15612d125760405163b842f5a760e01b815263ffffffff83166004820152602401610992565b6003810154600160501b900460ff16610ab65760405163587ee90160e11b815263ffffffff83166004820152602401610992565b6000808213612d5d57612d5882615322565b611238565b5090565b60006001600160a01b0380841690831614611235565b63ffffffff821660009081526065602052604090208054612da0906001600160a01b031661234c565b15612dc657604051636b9c1a9d60e01b815263ffffffff84166004820152602401610992565b81158015612de057506001810154600160c01b900460ff16155b156112385760405163122a1f1960e31b815263ffffffff84166004820152602401610992565b6040516001600160a01b0380851660248301528316604482015260648101829052612e3e9085906323b872dd60e01b90608401612c8c565b50505050565b6000612e5160648561321b565b90506000836001600160a01b0316826001600160a01b031611612e7d57612e78828561549c565b612e87565b612e87848361549c565b9050612710612e9a8561ffff86166154c4565b612ea49190615509565b6001600160a01b0316816001600160a01b03161115611311576040516307a1db0760e01b815260040160405180910390fd5b6000811315612efc5760d354606654612b6e916001600160a01b03918216911683612c60565b60d3546001600160a01b031663379607f5612f1683615322565b6040518263ffffffff1660e01b8152600401612f3491815260200190565b600060405180830381600087803b158015612f4e57600080fd5b505af1158015611311573d6000803e3d6000fd5b61013854610100900460ff16612f8a5760405162461bcd60e51b815260040161099290615451565b565b61013854610100900460ff16612fa9576101385460ff1615612fad565b303b155b612fc95760405162461bcd60e51b8152600401610992906151a5565b61013854610100900460ff16158015612fed57610138805461ffff19166101011790555b61019d80546001600160a01b0319166001600160a01b0385169081179091556040516000907f5f56bee8cffbe9a78652a74a60705edede02af10b0bbb888ca44b79a0d42ce80908290a361019e80546001600160a01b0319166001600160a01b0384169081179091556040516000907f39355f2f5c8206286978f443aa8126bbd29fa09c53c04569502647f3a59c8cb2908290a3801561135357610138805461ff0019169055505050565b63ffffffff80821660009081526020849052604081206003810154600182015492939192612c3b926001600160a01b0390911691600160301b900481169061324616565b60006401000276a36001600160a01b0383161080613117575073fffd8963efd1fc6a506488495d951d5263988d266001600160a01b03831610155b1561314057604051635d236c4560e01b81526001600160a01b0383166004820152602401610992565b61123882613267565b600061319e826040518060400160405280602081526020017f5361666545524332303a206c6f772d6c6576656c2063616c6c206661696c6564815250856001600160a01b03166132819092919063ffffffff16565b80519091501561135357808060200190518101906131bc919061552f565b6113535760405162461bcd60e51b815260206004820152602a60248201527f5361666545524332303a204552433230206f7065726174696f6e20646964206e6044820152691bdd081cdd58d8d9595960b21b6064820152608401610992565b63ffffffff8116600090815260208390526040812060010154611235906001600160a01b0316613290565b60008061325c6001600160a01b03851684613325565b9050612c3b81613544565b60006112386001600160a01b03831680600160401b613867565b6060612c3b8484600085613919565b600080826001600160a01b0316633850c7bd6040518163ffffffff1660e01b815260040160e060405180830381865afa1580156132d1573d6000803e3d6000fd5b505050506040513d601f19601f820116820180604052508101906132f5919061554c565b5094965092945050506001600160a01b038416600003915061331f90505761331c81613544565b91505b50919050565b60008163ffffffff1660000361335157604051636eb711b760e11b815260006004820152602401610992565b604080516002808252606082018352600092602083019080368337019050509050828160008151811061338657613386614ccc565b602002602001019063ffffffff16908163ffffffff16815250506000816001815181106133b5576133b5614ccc565b63ffffffff9092166020928302919091019091015260405163883bdbfd60e01b81526001600160a01b0385169063883bdbfd906133f69084906004016155ee565b600060405180830381865afa92505050801561343457506040513d6000823e601f3d908101601f191682016040526134319190810190615690565b60015b6134a957836001600160a01b0316633850c7bd6040518163ffffffff1660e01b815260040160e060405180830381865afa158015613476573d6000803e3d6000fd5b505050506040513d601f19601f8201168201806040525081019061349a919061554c565b50939650611ad3945050505050565b6000826000815181106134be576134be614ccc565b6020026020010151836001815181106134d9576134d9614ccc565b60200260200101516134eb919061575b565b905060006134ff63ffffffff8816836157ab565b905060008260060b128015613525575061351f63ffffffff8816836157e9565b60060b15155b1561353857806135348161580b565b9150505b94506112389350505050565b60008060008360020b1261355b578260020b613563565b8260020b6000035b9050620d89e8811115613589576040516315e4079d60e11b815260040160405180910390fd5b6000816001166000036135a057600160801b6135b2565b6ffffcb933bd6fad37aa2d162d1a5940015b70ffffffffffffffffffffffffffffffffff16905060028216156135e6576ffff97272373d413259a46990580e213a0260801c5b6004821615613605576ffff2e50f5f656932ef12357cf3c7fdcc0260801c5b6008821615613624576fffe5caca7e10e4e61c3624eaa0941cd00260801c5b6010821615613643576fffcb9843d60f6159c9db58835c9266440260801c5b6020821615613662576fff973b41fa98c081472e6896dfb254c00260801c5b6040821615613681576fff2ea16466c96a3843ec78b326b528610260801c5b60808216156136a0576ffe5dee046a99a2a811c461f1969c30530260801c5b6101008216156136c0576ffcbe86c7900a88aedcffc83b479aa3a40260801c5b6102008216156136e0576ff987a7253ac413176f2b074cf7815e540260801c5b610400821615613700576ff3392b0822b70005940c7a398e4b70f30260801c5b610800821615613720576fe7159475a2c29b7443b29c7fa6e889d90260801c5b611000821615613740576fd097f3bdfd2022b8845ad8f792aa58250260801c5b612000821615613760576fa9f746462d870fdf8a65dc1f90e061e50260801c5b614000821615613780576f70d869a156d2a1b890bb3df62baf32f70260801c5b6180008216156137a0576f31be135f97d08fd981231505542fcfa60260801c5b620100008216156137c1576f09aa508b5b7a84e1c677de54f3e99bc90260801c5b620200008216156137e1576e5d6af8dedb81196699c329225ee6040260801c5b62040000821615613800576d2216e584f5fa1ea926041bedfe980260801c5b6208000082161561381d576b048a170391f7dc42444e8fa20260801c5b60008460020b131561383e57806000198161383a5761383a6154f3565b0490505b640100000000810615613852576001613855565b60005b60ff16602082901c0192505050919050565b60008080600019858709858702925082811083820303915050806000036138a0576000841161389557600080fd5b508290049050611222565b8084116138ac57600080fd5b6000848688096000868103871696879004966002600389028118808a02820302808a02820302808a02820302808a02820302808a02820302808a02909103029181900381900460010186841190950394909402919094039290920491909117919091029150509392505050565b60608247101561397a5760405162461bcd60e51b815260206004820152602660248201527f416464726573733a20696e73756666696369656e742062616c616e636520666f6044820152651c8818d85b1b60d21b6064820152608401610992565b6001600160a01b0385163b6139d15760405162461bcd60e51b815260206004820152601d60248201527f416464726573733a2063616c6c20746f206e6f6e2d636f6e74726163740000006044820152606401610992565b600080866001600160a01b031685876040516139ed919061582e565b60006040518083038185875af1925050503d8060008114613a2a576040519150601f19603f3d011682016040523d82523d6000602084013e613a2f565b606091505b5091509150613a3f828286613a4a565b979650505050505050565b60608315613a59575081611222565b825115613a695782518084602001fd5b8160405162461bcd60e51b8152600401610992919061528d565b600060208284031215613a9557600080fd5b5035919050565b63ffffffff81168114612b6e57600080fd5b8035611fab81613a9c565b634e487b7160e01b600052604160045260246000fd5b60405160a081016001600160401b0381118282101715613af157613af1613ab9565b60405290565b60405161012081016001600160401b0381118282101715613af157613af1613ab9565b604080519081016001600160401b0381118282101715613af157613af1613ab9565b60405160e081016001600160401b0381118282101715613af157613af1613ab9565b604051601f8201601f191681016001600160401b0381118282101715613b8657613b86613ab9565b604052919050565b6001600160a01b0381168114612b6e57600080fd5b8035611fab81613b8e565b8015158114612b6e57600080fd5b8035611fab81613bae565b600060808284031215613bd957600080fd5b604051608081018181106001600160401b0382111715613bfb57613bfb613ab9565b604052823581529050806020830135613c1381613b8e565b60208201526040830135613c2681613bae565b60408201526060830135613c3981613bae565b6060919091015292915050565b600080600060c08486031215613c5b57600080fd5b833592506020840135613c6d81613a9c565b9150613c7c8560408601613bc7565b90509250925092565b634e487b7160e01b600052602160045260246000fd5b60038110613cab57613cab613c85565b9052565b6000608080830160018060a01b038089168552602088818701526040848188015283895180865260a089019150838b01955060005b81811015613d0b578651805187168452850151858401529584019591830191600101613ce4565b5050606094508781038589015280935088518082528382019450838160051b830101848b0160005b83811015613e2957848303601f190188528151805163ffffffff16845287810151888501528681015187850152898101518a8501528a015160a08b850181905281519085018190529088019060009060c08601905b80831015613e145783518051600290810b84528c820151900b8c8401528a8101516001600160801b0381168c850152508d8101518e8401528e8101518f84015260a081015160a084015260c081015160c084015260e081015160e0840152610100808201519150613dfb81850183613c9b565b5050610120820191508a84019350600183019250613d88565b50998901999450505090860190600101613d33565b50909e9d5050505050505050505050505050565b6000808284036080811215613e5157600080fd5b8335613e5c81613b8e565b92506060601f1982011215613e7057600080fd5b50604051606081018181106001600160401b0382111715613e9357613e93613ab9565b6040526020840135613ea481613b8e565b81526040840135613eb481613a9c565b60208201526060840135613ec781613bae565b6040820152919491935090915050565b6000610140828403121561331f57600080fd5b60008083601f840112613efc57600080fd5b5081356001600160401b03811115613f1357600080fd5b6020830191508360208260051b8501011115613f2e57600080fd5b9250929050565b600080600060408486031215613f4a57600080fd5b8335925060208401356001600160401b03811115613f6757600080fd5b613f7386828701613eea565b9497909650939450505050565b60005b83811015613f9b578181015183820152602001613f83565b83811115612e3e5750506000910152565b60008151808452613fc4816020860160208601613f80565b601f01601f19169290920160200192915050565b6000602080830181845280855180835260408601915060408160051b870101925083870160005b8281101561402d57603f1988860301845261401b858351613fac565b94509285019290850190600101613fff565b5092979650505050505050565b6000806040838503121561404d57600080fd5b82359150602083013561405f81613a9c565b809150509250929050565b60006020828403121561407c57600080fd5b813561122281613a9c565b8060020b8114612b6e57600080fd5b600080600080608085870312156140ac57600080fd5b8435935060208501356140be81613a9c565b925060408501356140ce81614087565b915060608501356140de81614087565b939692955090935050565b6000806000606084860312156140fe57600080fd5b83359250602084013561411081613a9c565b929592945050506040919091013590565b60006020828403121561413357600080fd5b813561122281613b8e565b6000806020838503121561415157600080fd5b82356001600160401b0381111561416757600080fd5b61417385828601613eea565b90969095509350505050565b600060e0828403121561331f57600080fd5b60008061010083850312156141a557600080fd5b82356141b081613a9c565b91506141bf846020850161417f565b90509250929050565b60006101a08201905060018060a01b03808916835280881660208401525061ffff80875116604084015280602088015116606084015280604088015116608084015250606086015161422060a084018261ffff169052565b50608086015161ffff811660c08401525060a086015161ffff811660e08401525060c08601516001600160401b0381166101008401525060e08601516001600160401b03811661012084015250846101408301528361016083015282610180830152979650505050505050565b600080604083850312156142a057600080fd5b50508035926020909101359150565b6000806000808486036101608112156142c757600080fd5b610100808212156142d757600080fd5b95979588013596505050610120860135936101408701359350915050565b600080600080600060a0868803121561430d57600080fd5b853561431881613b8e565b9450602086013561432881613b8e565b9350604086013561433881613b8e565b9250606086013561434881613b8e565b9150608086013561435881613b8e565b809150509295509295909350565b60006101408201905060018060a01b0380845116835280602085015116602084015280604085015116604084015250606083015161ffff8082511660608501528060208301511660808501528060408301511660a08501525063ffffffff60608201511660c08401526080810151151560e084015260a08101516143ef61010085018215159052565b5060c001516001600160a01b038116610120840152611ad3565b81516001600160a01b031681526020808301516080830191611ad39084018280516001600160a01b0316825260208082015163ffffffff16908301526040908101511515910152565b60006001600160401b0382111561446b5761446b613ab9565b5060051b60200190565b6000602080838503121561448857600080fd5b82356001600160401b0381111561449e57600080fd5b8301601f810185136144af57600080fd5b80356144c26144bd82614452565b613b5e565b81815260059190911b820183019083810190878311156144e157600080fd5b928401925b82841015613a3f578335825292840192908401906144e6565b6020808252825182820181905260009190848201906040850190845b818110156145375783518352928401929184019160010161451b565b50909695505050505050565b6000806040838503121561455657600080fd5b823561456181613a9c565b946020939093013593505050565b6000806040838503121561458257600080fd5b82359150602083013561405f81613bae565b600080600061012084860312156145aa57600080fd5b8335925060208401356145bc81613a9c565b9150613c7c856040860161417f565b60208082526010908201526f14185d5cd8589b194e881c185d5cd95960821b604082015260600190565b8051611fab81614087565b80516001600160801b0381168114611fab57600080fd5b60038110612b6e57600080fd5b8051611fab81614617565b600082601f83011261464057600080fd5b815160206146506144bd83614452565b82815260059290921b8401810191818101908684111561466f57600080fd5b8286015b848110156147f55780516001600160401b038082111561469257600080fd5b9088019060a0828b03601f190112156146aa57600080fd5b6146b2613acf565b868301516146bf81613a9c565b80825250604083015187820152606083015160408201526080830151606082015260a0830151828111156146f257600080fd5b8084019350508a603f84011261470757600080fd5b8683015191506147196144bd83614452565b82815261012092830284016040019288820191908d85111561473a57600080fd5b6040860195505b848610156147df5780868f03121561475857600080fd5b614760613af7565b614769876145f5565b81526147768b88016145f5565b8b82015261478660408801614600565b6040820152606087015160608201526080870151608082015260a087015160a082015260c087015160c082015260e087015160e08201526147ca6101008801614624565b61010082015283529485019491890191614741565b5060808301525085525050918301918301614673565b509695505050505050565b6000806000806080858703121561481657600080fd5b845161482181613b8e565b8094505060208086015193506040808701516001600160401b038082111561484857600080fd5b818901915089601f83011261485c57600080fd5b815161486a6144bd82614452565b81815260069190911b8301850190858101908c83111561488957600080fd5b938601935b828510156148d25785858e0312156148a65760008081fd5b6148ae613b1a565b85516148b981613b8e565b815285880151888201528252938501939086019061488e565b60608c015190985095505050808411156148eb57600080fd5b5050506148fa8782880161462f565b91505092959194509250565b634e487b7160e01b600052600160045260246000fd5b80546001600160a01b0319166001600160a01b0392909216919091179055565b61ffff81168114612b6e57600080fd5b600081356112388161493c565b6000813561123881613bae565b6000813561123881613b8e565b813561497e8161493c565b815461ffff191661ffff821617825550602082013561499c8161493c565b815463ffff00001916601082901b63ffff0000161782555060408201356149c28161493c565b815465ffff000000001916602082901b65ffff00000000161782555060608201356149ec81613a9c565b815469ffffffff000000000000191660309190911b63ffffffff60301b161781556080820135614a1b81613bae565b815460ff60501b191681151560501b60ff60501b161782555060a0820135614a4281613bae565b815460ff60581b191681151560581b60ff60581b161782555060c0820135614a6981613b8e565b81546001600160601b0316606082901b6001600160601b031916178255505050565b8135614a9681613b8e565b614aa0818361491c565b506020820135614aaf81613b8e565b614abc816001840161491c565b506040820135614acb81613b8e565b614ad8816002840161491c565b50600381016060830135614aeb8161493c565b815461ffff191661ffff8216178255506080830135614b098161493c565b815463ffff00001916601082901b63ffff0000161782555060a0830135614b2f8161493c565b815465ffff000000001916602082901b65ffff00000000161782555060c0830135614b5981613a9c565b815469ffffffff000000000000191660309190911b63ffffffff60301b16178155614ba7614b8960e08501614959565b82805460ff60501b191691151560501b60ff60501b16919091179055565b614bd5614bb76101008501614959565b82805460ff60581b191691151560581b60ff60581b16919091179055565b611353614be56101208501614966565b82546001600160601b031660609190911b6001600160601b031916178255565b8035611fab8161493c565b63ffffffff8316815261010081018235614c298161493c565b61ffff808216602085015260208501359150614c448261493c565b808216604085015260408501359150614c5c8261493c565b80821660608501525050614c7260608401613aae565b63ffffffff8116608084015250614c8b60808401613bbc565b80151560a084015250614ca060a08401613bbc565b80151560c084015250614cb560c08401613ba3565b6001600160a01b03811660e0840152509392505050565b634e487b7160e01b600052603260045260246000fd5b60008235603e19833603018112614cf857600080fd5b9190910192915050565b600060208284031215614d1457600080fd5b81356007811061122257600080fd5b6000808335601e19843603018112614d3a57600080fd5b8301803591506001600160401b03821115614d5457600080fd5b602001915036819003821315613f2e57600080fd5b60008060a08385031215614d7c57600080fd5b8235614d8781613a9c565b91506141bf8460208501613bc7565b8035611fab81614617565b600060e08284031215614db357600080fd5b614dbb613b3c565b90508135614dc881614087565b81526020820135614dd881614087565b60208201526040820135600f81900b8114614df257600080fd5b6040820152614e0360608301613ba3565b6060820152614e1460808301614c05565b6080820152614e2560a08301613bbc565b60a0820152614e3660c08301614d96565b60c082015292915050565b6000806101008385031215614e5557600080fd5b8235614e6081613a9c565b91506141bf8460208501614da1565b600080600060608486031215614e8457600080fd5b8335614e8f81613a9c565b92506020840135614e9f81614087565b91506040840135614eaf81614087565b809150509250925092565b6020810160078310614ece57614ece613c85565b91905290565b634e487b7160e01b600052601160045260246000fd5b600060018201614efc57614efc614ed4565b5060010190565b600060208284031215614f1557600080fd5b5051919050565b60008219821115614f2f57614f2f614ed4565b500190565b6001600160401b0381168114612b6e57600080fd5b6000813561123881614f34565b8135614f618161493c565b815461ffff191661ffff8216178255506020820135614f7f8161493c565b815463ffff00001916601082901b63ffff000016178255506040820135614fa58161493c565b815465ffff000000001916602082901b65ffff0000000016178255506060820135614fcf8161493c565b815467ffff0000000000008260301b1691508167ffff0000000000001982161783556080840135614fff8161493c565b69ffff00000000000000008160401b168363ffffffff60301b1984161717845550505061505161503160a0840161494c565b82805461ffff60501b191660509290921b61ffff60501b16919091179055565b61508c61506060c08401614f49565b82805467ffffffffffffffff60601b191660609290921b67ffffffffffffffff60601b16919091179055565b610ab661509b60e08401614f49565b82805467ffffffffffffffff60a01b191660a09290921b67ffffffffffffffff60a01b16919091179055565b8035611fab81614f34565b610160810185356150e28161493c565b61ffff90811683526020870135906150f98261493c565b16602083015261510b60408701614c05565b61ffff16604083015261512060608701614c05565b61ffff16606083015261513560808701614c05565b61ffff16608083015261514a60a08701614c05565b61ffff1660a083015261515f60c087016150c7565b6001600160401b031660c083015261517960e087016150c7565b6001600160401b031660e083015261010082019490945261012081019290925261014090910152919050565b6020808252602e908201527f496e697469616c697a61626c653a20636f6e747261637420697320616c72656160408201526d191e481a5b9a5d1a585b1a5e995960921b606082015260800190565b8183823760009101908152919050565b60006020828403121561521557600080fd5b81516001600160401b038082111561522c57600080fd5b818401915084601f83011261524057600080fd5b81518181111561525257615252613ab9565b615265601f8201601f1916602001613b5e565b915080825285602082850101111561527c57600080fd5b612765816020840160208601613f80565b6020815260006112356020830184613fac565b600080604083850312156152b357600080fd5b505080516020909101519092909150565b600060e082840312156152d657600080fd5b6112358383614da1565b6001600160a01b038316815260808101611222602083018480516001600160a01b0316825260208082015163ffffffff16908301526040908101511515910152565b6000600160ff1b820161533757615337614ed4565b5060000390565b60006101608201905086825263ffffffff86166020830152845160020b6040830152602085015160020b60608301526040850151600f0b608083015260018060a01b0360608601511660a083015261ffff60808601511660c083015260a08501516153ad60e084018215159052565b5060c08501516153c1610100840182613c9b565b50836101208301526153d861014083018415159052565b9695505050505050565b6000806000606084860312156153f757600080fd5b8351925060208401519150604084015190509250925092565b600080821280156001600160ff1b038490038513161561543257615432614ed4565b600160ff1b839003841281161561544b5761544b614ed4565b50500190565b6020808252602b908201527f496e697469616c697a61626c653a20636f6e7472616374206973206e6f74206960408201526a6e697469616c697a696e6760a81b606082015260800190565b60006001600160a01b03838116908316818110156154bc576154bc614ed4565b039392505050565b60006001600160a01b03828116848216811515828404821116156154ea576154ea614ed4565b02949350505050565b634e487b7160e01b600052601260045260246000fd5b60006001600160a01b0383811680615523576155236154f3565b92169190910492915050565b60006020828403121561554157600080fd5b815161122281613bae565b600080600080600080600060e0888a03121561556757600080fd5b875161557281613b8e565b602089015190975061558381614087565b60408901519096506155948161493c565b60608901519095506155a58161493c565b60808901519094506155b68161493c565b60a089015190935060ff811681146155cd57600080fd5b60c08901519092506155de81613bae565b8091505092959891949750929550565b6020808252825182820181905260009190848201906040850190845b8181101561453757835163ffffffff168352928401929184019160010161560a565b600082601f83011261563d57600080fd5b8151602061564d6144bd83614452565b82815260059290921b8401810191818101908684111561566c57600080fd5b8286015b848110156147f557805161568381613b8e565b8352918301918301615670565b600080604083850312156156a357600080fd5b82516001600160401b03808211156156ba57600080fd5b818501915085601f8301126156ce57600080fd5b815160206156de6144bd83614452565b82815260059290921b840181019181810190898411156156fd57600080fd5b948201945b8386101561572b5785518060060b811461571c5760008081fd5b82529482019490820190615702565b9188015191965090935050508082111561574457600080fd5b506157518582860161562c565b9150509250929050565b60008160060b8360060b6000811281667fffffffffffff190183128115161561578657615786614ed4565b81667fffffffffffff0183138116156157a1576157a1614ed4565b5090039392505050565b60008160060b8360060b806157c2576157c26154f3565b667fffffffffffff198214600019821416156157e0576157e0614ed4565b90059392505050565b60008260060b806157fc576157fc6154f3565b808360060b0791505092915050565b60008160020b627fffff19810361582457615824614ed4565b6000190192915050565b60008251614cf8818460208701613f8056fea2646970667358221220219b8624a3ad66a2d4059ac0764f0b0c72aa466540ee006e7c25caa4b5ce63bd64736f6c634300080d0033",
  "libraries": {
    "Account": "0x0e1F87732fB4930ea95c397f0Dbca5425167197B"
  },
  "devdoc": {
    "errors": {
      "AccessDenied(address)": [
        {
          "params": {
            "senderAddress": "address of msg sender"
          }
        }
      ],
      "CollateralDoesNotExist(uint32)": [
        {
          "params": {
            "collateralId": "address of token"
          }
        }
      ],
      "CollateralNotAllowedForUse(uint32)": [
        {
          "params": {
            "collateralId": "address of token"
          }
        }
      ],
      "IncorrectCollateralAddress(address,address)": [
        {
          "params": {
            "correctAddress": "correct address of collateral token",
            "incorrectAddress": "incorrect address of collateral token"
          }
        }
      ],
      "InvalidCollateralAddress(address)": [
        {
          "params": {
            "invalidAddress": "invalid address of collateral token"
          }
        }
      ],
      "InvalidMulticallOperationType(uint8)": [
        {
          "params": {
            "multicallOperationType": "is the value that is out of bounds"
          }
        }
      ],
      "LowNotionalValue(uint256)": [
        {
          "params": {
            "notionalValue": "notional value of txn"
          }
        }
      ],
      "PoolDoesNotExist(uint32)": [
        {
          "params": {
            "poolId": "unitialized truncated address supplied"
          }
        }
      ],
      "PoolNotAllowedForTrade(uint32)": [
        {
          "params": {
            "poolId": "address of token"
          }
        }
      ]
    },
    "kind": "dev",
    "methods": {
      "createAccount()": {
        "returns": {
          "newAccountId": "- serial number of the new account created"
        }
      },
      "createAccountAndAddMargin(uint32,uint256)": {
        "params": {
          "amount": "amount of token to deposit",
          "collateralId": "truncated address of collateral token to deposit"
        },
        "returns": {
          "newAccountId": "- serial number of the new account created"
        }
      },
      "getAccountInfo(uint256)": {
        "params": {
          "accountId": "the account id"
        },
        "returns": {
          "collateralDeposits": "the collateral deposits of the account",
          "owner": "address of the account creator",
          "tokenPositions": "the token positions of the account along with liquidity positions",
          "vQuoteBalance": "the vQuote balance of the account"
        }
      },
      "getAccountMarketValueAndRequiredMargin(uint256,bool)": {
        "details": "This method can be used to check if an account is under water or not.     If accountMarketValue < requiredMargin then liquidation can take place.",
        "params": {
          "accountId": "the account id",
          "isInitialMargin": "true is initial margin, false is maintainance margin"
        },
        "returns": {
          "marketValue": "the market value of the account, due to collateral and positions",
          "requiredMargin": "margin needed due to positions"
        }
      },
      "getAccountNetProfit(uint256)": {
        "params": {
          "accountId": "the account id"
        },
        "returns": {
          "accountNetProfit": "the net profit of the account"
        }
      },
      "getAccountNetTokenPosition(uint256,uint32)": {
        "params": {
          "accountId": "the account id",
          "poolId": "the id of the pool (vETH, ... etc)"
        },
        "returns": {
          "netPosition": "the net position of the account"
        }
      },
      "getCollateralInfo(uint32)": {
        "params": {
          "collateralId": "the id of the collateral"
        },
        "returns": {
          "_0": "collateral the Collateral struct"
        }
      },
      "getPoolInfo(uint32)": {
        "params": {
          "poolId": "the id of the pool"
        },
        "returns": {
          "_0": "pool the Pool struct"
        }
      },
      "getTwapPrices(uint32)": {
        "params": {
          "poolId": "the id of the pool"
        },
        "returns": {
          "realPriceX128": "the real price of the pool",
          "virtualPriceX128": "the virtual price of the pool"
        }
      },
      "governance()": {
        "details": "Returns the address of the current governance."
      },
      "isPoolIdAvailable(uint32)": {
        "params": {
          "poolId": "the id of the pool"
        },
        "returns": {
          "_0": "true if the poolId is unused, false otherwise"
        }
      },
      "liquidateLiquidityPositions(uint256)": {
        "details": "removes all the active range positions and gives liquidator a percent of notional amount closed + fixedFee",
        "params": {
          "accountId": "account id"
        }
      },
      "liquidateTokenPosition(uint256,uint32)": {
        "details": "transfers the fraction of token position at a discount to current price to liquidators account and gives liquidator some fixedFee",
        "params": {
          "poolId": "truncated address of token to withdraw",
          "targetAccountId": "account id"
        },
        "returns": {
          "keeperFee": "- amount of fees transferred to keeper"
        }
      },
      "multicall(bytes[])": {
        "details": "The `msg.value` should not be trusted for any method callable from multicall.",
        "params": {
          "data": "The encoded function data for each of the calls to make to this contract"
        },
        "returns": {
          "results": "The results from each of the calls passed in via data"
        }
      },
      "paused()": {
        "details": "Returns true if the contract is paused, and false otherwise."
      },
      "protocolInfo()": {
        "returns": {
          "liquidationParams": "the liquidation parameters",
          "minRequiredMargin": "minimum required margin an account has to keep with non-zero netPosition",
          "minimumOrderNotional": "the minimum order notional",
          "removeLimitOrderFee": "the fee charged for using removeLimitOrder service",
          "settlementToken": "the token in which profit is settled",
          "vQuote": "the vQuote token contract"
        }
      },
      "removeLimitOrder(uint256,uint32,int24,int24)": {
        "details": "checks the position of current price relative to limit order and checks limitOrderType",
        "params": {
          "accountId": "account id",
          "poolId": "truncated address of token to withdraw",
          "tickLower": "liquidity change parameters",
          "tickUpper": "liquidity change parameters"
        }
      },
      "swapToken(uint256,uint32,(int256,uint160,bool,bool))": {
        "params": {
          "accountId": "account id",
          "poolId": "truncated address of token to withdraw",
          "swapParams": "swap parameters"
        }
      },
      "teamMultisig()": {
        "details": "Returns the address of the current team multisig.transferTeamMultisig"
      },
      "transferGovernance(address)": {
        "details": "Transfers governance to a new account (`newGovernance`). Can only be called by the current governance."
      },
      "transferTeamMultisig(address)": {
        "details": "Transfers teamMultisig to a new account (`newTeamMultisig`). Can only be called by the current teamMultisig or current governance."
      },
      "updateMargin(uint256,uint32,int256)": {
        "params": {
          "accountId": "account id",
          "amount": "amount of token to deposit",
          "collateralId": "truncated address of token to deposit"
        }
      },
      "updatePoolSettings(uint32,(uint16,uint16,uint16,uint32,bool,bool,address))": {
        "params": {
          "newSettings": "updated rage trade pool settings",
          "poolId": "rage trade pool id"
        }
      },
      "updateProfit(uint256,int256)": {
        "params": {
          "accountId": "account id",
          "amount": "amount of token to withdraw"
        }
      },
      "updateRangeOrder(uint256,uint32,(int24,int24,int128,uint160,uint16,bool,uint8))": {
        "params": {
          "accountId": "account id",
          "liquidityChangeParams": "liquidity change parameters",
          "poolId": "truncated address of token to withdraw"
        }
      },
      "withdrawProtocolFee(address[])": {
        "params": {
          "wrapperAddresses": "list of wrapper addresses to collect fees from"
        }
      }
    },
    "version": 1
  },
  "userdoc": {
    "errors": {
      "AccessDenied(address)": [
        {
          "notice": "error to denote invalid account access"
        }
      ],
      "CollateralDoesNotExist(uint32)": [
        {
          "notice": "error to denote usage of uninitialized token"
        }
      ],
      "CollateralNotAllowedForUse(uint32)": [
        {
          "notice": "error to denote usage of unsupported collateral token"
        }
      ],
      "IncorrectCollateralAddress(address,address)": [
        {
          "notice": "error to denote incorrect address is supplied while updating collateral settings"
        }
      ],
      "InvalidCollateralAddress(address)": [
        {
          "notice": "error to denote invalid address supplied as a collateral token"
        }
      ],
      "InvalidMulticallOperationType(uint8)": [
        {
          "notice": "this is errored when the enum (uint8) value is out of bounds"
        }
      ],
      "InvalidTokenLiquidationParameters()": [
        {
          "notice": "error to denote invalid token liquidation (fraction to liquidate> 1)"
        }
      ],
      "KeeperFeeNotPositive(int256)": [
        {
          "notice": "error to denote that keeper fee is negative or zero"
        }
      ],
      "LowNotionalValue(uint256)": [
        {
          "notice": "error to denote low notional value of txn"
        }
      ],
      "PoolDoesNotExist(uint32)": [
        {
          "notice": "error to denote usage of uninitialized pool"
        }
      ],
      "PoolNotAllowedForTrade(uint32)": [
        {
          "notice": "error to denote usage of unsupported pool"
        }
      ],
      "SlippageBeyondTolerance()": [
        {
          "notice": "error to denote slippage of txn beyond set threshold"
        }
      ]
    },
    "events": {
      "AccountCreated(address,uint256)": {
        "notice": "denotes new account creation"
      },
      "CollateralSettingsUpdated(address,(address,uint32,bool))": {
        "notice": "new collateral supported as margin"
      },
      "PoolSettingsUpdated(uint32,(uint16,uint16,uint16,uint32,bool,bool,address))": {
        "notice": "maintainance margin ratio of a pool changed"
      },
      "ProtocolSettingsUpdated((uint16,uint16,uint16,uint16,uint16,uint16,uint64,uint64),uint256,uint256,uint256)": {
        "notice": "protocol settings changed"
      }
    },
    "kind": "user",
    "methods": {
      "__initialize_ClearingHouse(address,address,address,address,address)": {
        "notice": "SYSTEM FUNCTIONS"
      },
      "createAccount()": {
        "notice": "creates a new account and adds it to the accounts map"
      },
      "createAccountAndAddMargin(uint32,uint256)": {
        "notice": "creates a new account and deposits 'amount' of token associated with 'poolId'"
      },
      "getAccountInfo(uint256)": {
        "notice": "Gets details about account id"
      },
      "getAccountMarketValueAndRequiredMargin(uint256,bool)": {
        "notice": "Gets the market value and required margin of an account"
      },
      "getAccountNetProfit(uint256)": {
        "notice": "Gets the net profit of an account"
      },
      "getAccountNetTokenPosition(uint256,uint32)": {
        "notice": "Gets the net position of an account"
      },
      "getCollateralInfo(uint32)": {
        "notice": "Gets the info about a supported collateral in the protocol"
      },
      "getPoolInfo(uint32)": {
        "notice": "Gets the info about a supported pool in the protocol"
      },
      "getTwapPrices(uint32)": {
        "notice": "Gets the real and virtual prices from the respective oracle of the given poolId"
      },
      "isPoolIdAvailable(uint32)": {
        "notice": "Checks if a poolId is unused"
      },
      "liquidateLiquidityPositions(uint256)": {
        "notice": "keeper call for liquidation of range position"
      },
      "liquidateTokenPosition(uint256,uint32)": {
        "notice": "keeper call for liquidation of token position"
      },
      "multicall(bytes[])": {
        "notice": "Call multiple functions in the current contract and return the data from all of them if they all succeed"
      },
      "multicallWithSingleMarginCheck(uint256,(uint8,bytes)[])": {
        "notice": "MULTICALL"
      },
      "protocolInfo()": {
        "notice": "Gets the protocol info, global protocol settings"
      },
      "removeLimitOrder(uint256,uint32,int24,int24)": {
        "notice": "keeper call to remove a limit order"
      },
      "swapToken(uint256,uint32,(int256,uint160,bool,bool))": {
        "notice": "swaps token associated with 'poolId' by 'amount' (Long if amount>0 else Short)"
      },
      "updateCollateralSettings(address,(address,uint32,bool))": {
        "notice": "ADMIN FUNCTIONS"
      },
      "updateMargin(uint256,uint32,int256)": {
        "notice": "deposits 'amount' of token associated with 'poolId'"
      },
      "updatePoolSettings(uint32,(uint16,uint16,uint16,uint32,bool,bool,address))": {
        "notice": "updates the rage trade pool settings"
      },
      "updateProfit(uint256,int256)": {
        "notice": "withdraws 'amount' of settlement token from the profit made"
      },
      "updateRangeOrder(uint256,uint32,(int24,int24,int128,uint160,uint16,bool,uint8))": {
        "notice": "updates range order of token associated with 'poolId' by 'liquidityDelta' (Adds if amount>0 else Removes)also can be used to update limitOrderType"
      },
      "withdrawProtocolFee(address[])": {
        "notice": "withdraws protocol fees collected in the supplied wrappers to team multisig"
      }
    },
    "version": 1
  },
  "storageLayout": {
    "storage": [
      {
        "astId": 20482,
        "contract": "contracts/protocol/clearinghouse/ClearingHouse.sol:ClearingHouse",
        "label": "_emptySlots1",
        "offset": 0,
        "slot": "0",
        "type": "t_array(t_uint256)100_storage"
      },
      {
        "astId": 20485,
        "contract": "contracts/protocol/clearinghouse/ClearingHouse.sol:ClearingHouse",
        "label": "protocol",
        "offset": 0,
        "slot": "100",
        "type": "t_struct(Info)13006_storage"
      },
      {
        "astId": 20487,
        "contract": "contracts/protocol/clearinghouse/ClearingHouse.sol:ClearingHouse",
        "label": "numAccounts",
        "offset": 0,
        "slot": "208",
        "type": "t_uint256"
      },
      {
        "astId": 20492,
        "contract": "contracts/protocol/clearinghouse/ClearingHouse.sol:ClearingHouse",
        "label": "accounts",
        "offset": 0,
        "slot": "209",
        "type": "t_mapping(t_uint256,t_struct(Info)8802_storage)"
      },
      {
        "astId": 20494,
        "contract": "contracts/protocol/clearinghouse/ClearingHouse.sol:ClearingHouse",
        "label": "rageTradeFactoryAddress",
        "offset": 0,
        "slot": "210",
        "type": "t_address"
      },
      {
        "astId": 20497,
        "contract": "contracts/protocol/clearinghouse/ClearingHouse.sol:ClearingHouse",
        "label": "insuranceFund",
        "offset": 0,
        "slot": "211",
        "type": "t_contract(IInsuranceFund)7853"
      },
      {
        "astId": 20501,
        "contract": "contracts/protocol/clearinghouse/ClearingHouse.sol:ClearingHouse",
        "label": "_emptySlots2",
        "offset": 0,
        "slot": "212",
        "type": "t_array(t_uint256)100_storage"
      },
      {
        "astId": 52,
        "contract": "contracts/protocol/clearinghouse/ClearingHouse.sol:ClearingHouse",
        "label": "_initialized",
        "offset": 0,
        "slot": "312",
        "type": "t_bool"
      },
      {
        "astId": 55,
        "contract": "contracts/protocol/clearinghouse/ClearingHouse.sol:ClearingHouse",
        "label": "_initializing",
        "offset": 1,
        "slot": "312",
        "type": "t_bool"
      },
      {
        "astId": 1230,
        "contract": "contracts/protocol/clearinghouse/ClearingHouse.sol:ClearingHouse",
        "label": "__gap",
        "offset": 0,
        "slot": "313",
        "type": "t_array(t_uint256)50_storage"
      },
      {
        "astId": 140,
        "contract": "contracts/protocol/clearinghouse/ClearingHouse.sol:ClearingHouse",
        "label": "_paused",
        "offset": 0,
        "slot": "363",
        "type": "t_bool"
      },
      {
        "astId": 229,
        "contract": "contracts/protocol/clearinghouse/ClearingHouse.sol:ClearingHouse",
        "label": "__gap",
        "offset": 0,
        "slot": "364",
        "type": "t_array(t_uint256)49_storage"
      },
      {
        "astId": 27715,
        "contract": "contracts/protocol/clearinghouse/ClearingHouse.sol:ClearingHouse",
        "label": "_governance",
        "offset": 0,
        "slot": "413",
        "type": "t_address"
      },
      {
        "astId": 27717,
        "contract": "contracts/protocol/clearinghouse/ClearingHouse.sol:ClearingHouse",
        "label": "_teamMultisig",
        "offset": 0,
        "slot": "414",
        "type": "t_address"
      }
    ],
    "types": {
      "t_address": {
        "encoding": "inplace",
        "label": "address",
        "numberOfBytes": "20"
      },
      "t_array(t_uint256)100_storage": {
        "base": "t_uint256",
        "encoding": "inplace",
        "label": "uint256[100]",
        "numberOfBytes": "3200"
      },
      "t_array(t_uint256)49_storage": {
        "base": "t_uint256",
        "encoding": "inplace",
        "label": "uint256[49]",
        "numberOfBytes": "1568"
      },
      "t_array(t_uint256)50_storage": {
        "base": "t_uint256",
        "encoding": "inplace",
        "label": "uint256[50]",
        "numberOfBytes": "1600"
      },
      "t_array(t_uint32)8_storage": {
        "base": "t_uint32",
        "encoding": "inplace",
        "label": "uint32[8]",
        "numberOfBytes": "32"
      },
      "t_array(t_uint48)5_storage": {
        "base": "t_uint48",
        "encoding": "inplace",
        "label": "uint48[5]",
        "numberOfBytes": "32"
      },
      "t_bool": {
        "encoding": "inplace",
        "label": "bool",
        "numberOfBytes": "1"
      },
      "t_contract(IERC20)3369": {
        "encoding": "inplace",
        "label": "contract IERC20",
        "numberOfBytes": "20"
      },
      "t_contract(IInsuranceFund)7853": {
        "encoding": "inplace",
        "label": "contract IInsuranceFund",
        "numberOfBytes": "20"
      },
      "t_contract(IOracle)7863": {
        "encoding": "inplace",
        "label": "contract IOracle",
        "numberOfBytes": "20"
      },
      "t_contract(IUniswapV3Pool)5364": {
        "encoding": "inplace",
        "label": "contract IUniswapV3Pool",
        "numberOfBytes": "20"
      },
      "t_contract(IVPoolWrapper)8064": {
        "encoding": "inplace",
        "label": "contract IVPoolWrapper",
        "numberOfBytes": "20"
      },
      "t_contract(IVQuote)8088": {
        "encoding": "inplace",
        "label": "contract IVQuote",
        "numberOfBytes": "20"
      },
      "t_contract(IVToken)8112": {
        "encoding": "inplace",
        "label": "contract IVToken",
        "numberOfBytes": "20"
      },
      "t_enum(LimitOrderType)8289": {
        "encoding": "inplace",
        "label": "enum IClearingHouseEnums.LimitOrderType",
        "numberOfBytes": "1"
      },
      "t_int24": {
        "encoding": "inplace",
        "label": "int24",
        "numberOfBytes": "3"
      },
      "t_int256": {
        "encoding": "inplace",
        "label": "int256",
        "numberOfBytes": "32"
      },
      "t_mapping(t_uint256,t_struct(Info)8802_storage)": {
        "encoding": "mapping",
        "key": "t_uint256",
        "label": "mapping(uint256 => struct Account.Info)",
        "numberOfBytes": "32",
        "value": "t_struct(Info)8802_storage"
      },
      "t_mapping(t_uint32,t_struct(Collateral)8429_storage)": {
        "encoding": "mapping",
        "key": "t_uint32",
        "label": "mapping(uint32 => struct IClearingHouseStructures.Collateral)",
        "numberOfBytes": "32",
        "value": "t_struct(Collateral)8429_storage"
      },
      "t_mapping(t_uint32,t_struct(Info)16425_storage)": {
        "encoding": "mapping",
        "key": "t_uint32",
        "label": "mapping(uint32 => struct VTokenPosition.Info)",
        "numberOfBytes": "32",
        "value": "t_struct(Info)16425_storage"
      },
      "t_mapping(t_uint32,t_struct(Pool)8515_storage)": {
        "encoding": "mapping",
        "key": "t_uint32",
        "label": "mapping(uint32 => struct IClearingHouseStructures.Pool)",
        "numberOfBytes": "32",
        "value": "t_struct(Pool)8515_storage"
      },
      "t_mapping(t_uint32,t_uint256)": {
        "encoding": "mapping",
        "key": "t_uint32",
        "label": "mapping(uint32 => uint256)",
        "numberOfBytes": "32",
        "value": "t_uint256"
      },
      "t_mapping(t_uint48,t_struct(Info)11091_storage)": {
        "encoding": "mapping",
        "key": "t_uint48",
        "label": "mapping(uint48 => struct LiquidityPosition.Info)",
        "numberOfBytes": "32",
        "value": "t_struct(Info)11091_storage"
      },
      "t_struct(Collateral)8429_storage": {
        "encoding": "inplace",
        "label": "struct IClearingHouseStructures.Collateral",
        "members": [
          {
            "astId": 8425,
            "contract": "contracts/protocol/clearinghouse/ClearingHouse.sol:ClearingHouse",
            "label": "token",
            "offset": 0,
            "slot": "0",
            "type": "t_contract(IERC20)3369"
          },
          {
            "astId": 8428,
            "contract": "contracts/protocol/clearinghouse/ClearingHouse.sol:ClearingHouse",
            "label": "settings",
            "offset": 0,
            "slot": "1",
            "type": "t_struct(CollateralSettings)8437_storage"
          }
        ],
        "numberOfBytes": "64"
      },
      "t_struct(CollateralSettings)8437_storage": {
        "encoding": "inplace",
        "label": "struct IClearingHouseStructures.CollateralSettings",
        "members": [
          {
            "astId": 8432,
            "contract": "contracts/protocol/clearinghouse/ClearingHouse.sol:ClearingHouse",
            "label": "oracle",
            "offset": 0,
            "slot": "0",
            "type": "t_contract(IOracle)7863"
          },
          {
            "astId": 8434,
            "contract": "contracts/protocol/clearinghouse/ClearingHouse.sol:ClearingHouse",
            "label": "twapDuration",
            "offset": 20,
            "slot": "0",
            "type": "t_uint32"
          },
          {
            "astId": 8436,
            "contract": "contracts/protocol/clearinghouse/ClearingHouse.sol:ClearingHouse",
            "label": "isAllowedForDeposit",
            "offset": 24,
            "slot": "0",
            "type": "t_bool"
          }
        ],
        "numberOfBytes": "32"
      },
      "t_struct(Info)11091_storage": {
        "encoding": "inplace",
        "label": "struct LiquidityPosition.Info",
        "members": [
          {
            "astId": 11070,
            "contract": "contracts/protocol/clearinghouse/ClearingHouse.sol:ClearingHouse",
            "label": "limitOrderType",
            "offset": 0,
            "slot": "0",
            "type": "t_enum(LimitOrderType)8289"
          },
          {
            "astId": 11072,
            "contract": "contracts/protocol/clearinghouse/ClearingHouse.sol:ClearingHouse",
            "label": "tickLower",
            "offset": 1,
            "slot": "0",
            "type": "t_int24"
          },
          {
            "astId": 11074,
            "contract": "contracts/protocol/clearinghouse/ClearingHouse.sol:ClearingHouse",
            "label": "tickUpper",
            "offset": 4,
            "slot": "0",
            "type": "t_int24"
          },
          {
            "astId": 11076,
            "contract": "contracts/protocol/clearinghouse/ClearingHouse.sol:ClearingHouse",
            "label": "liquidity",
            "offset": 7,
            "slot": "0",
            "type": "t_uint128"
          },
          {
            "astId": 11078,
            "contract": "contracts/protocol/clearinghouse/ClearingHouse.sol:ClearingHouse",
            "label": "vTokenAmountIn",
            "offset": 0,
            "slot": "1",
            "type": "t_int256"
          },
          {
            "astId": 11080,
            "contract": "contracts/protocol/clearinghouse/ClearingHouse.sol:ClearingHouse",
            "label": "sumALastX128",
            "offset": 0,
            "slot": "2",
            "type": "t_int256"
          },
          {
            "astId": 11082,
            "contract": "contracts/protocol/clearinghouse/ClearingHouse.sol:ClearingHouse",
            "label": "sumBInsideLastX128",
            "offset": 0,
            "slot": "3",
            "type": "t_int256"
          },
          {
            "astId": 11084,
            "contract": "contracts/protocol/clearinghouse/ClearingHouse.sol:ClearingHouse",
            "label": "sumFpInsideLastX128",
            "offset": 0,
            "slot": "4",
            "type": "t_int256"
          },
          {
            "astId": 11086,
            "contract": "contracts/protocol/clearinghouse/ClearingHouse.sol:ClearingHouse",
            "label": "sumFeeInsideLastX128",
            "offset": 0,
            "slot": "5",
            "type": "t_uint256"
          },
          {
            "astId": 11090,
            "contract": "contracts/protocol/clearinghouse/ClearingHouse.sol:ClearingHouse",
            "label": "_emptySlots",
            "offset": 0,
            "slot": "6",
            "type": "t_array(t_uint256)100_storage"
          }
        ],
        "numberOfBytes": "3392"
      },
      "t_struct(Info)13006_storage": {
        "encoding": "inplace",
        "label": "struct Protocol.Info",
        "members": [
          {
            "astId": 12981,
            "contract": "contracts/protocol/clearinghouse/ClearingHouse.sol:ClearingHouse",
            "label": "pools",
            "offset": 0,
            "slot": "0",
            "type": "t_mapping(t_uint32,t_struct(Pool)8515_storage)"
          },
          {
            "astId": 12986,
            "contract": "contracts/protocol/clearinghouse/ClearingHouse.sol:ClearingHouse",
            "label": "collaterals",
            "offset": 0,
            "slot": "1",
            "type": "t_mapping(t_uint32,t_struct(Collateral)8429_storage)"
          },
          {
            "astId": 12989,
            "contract": "contracts/protocol/clearinghouse/ClearingHouse.sol:ClearingHouse",
            "label": "settlementToken",
            "offset": 0,
            "slot": "2",
            "type": "t_contract(IERC20)3369"
          },
          {
            "astId": 12992,
            "contract": "contracts/protocol/clearinghouse/ClearingHouse.sol:ClearingHouse",
            "label": "vQuote",
            "offset": 0,
            "slot": "3",
            "type": "t_contract(IVQuote)8088"
          },
          {
            "astId": 12995,
            "contract": "contracts/protocol/clearinghouse/ClearingHouse.sol:ClearingHouse",
            "label": "liquidationParams",
            "offset": 0,
            "slot": "4",
            "type": "t_struct(LiquidationParams)8496_storage"
          },
          {
            "astId": 12997,
            "contract": "contracts/protocol/clearinghouse/ClearingHouse.sol:ClearingHouse",
            "label": "minRequiredMargin",
            "offset": 0,
            "slot": "5",
            "type": "t_uint256"
          },
          {
            "astId": 12999,
            "contract": "contracts/protocol/clearinghouse/ClearingHouse.sol:ClearingHouse",
            "label": "removeLimitOrderFee",
            "offset": 0,
            "slot": "6",
            "type": "t_uint256"
          },
          {
            "astId": 13001,
            "contract": "contracts/protocol/clearinghouse/ClearingHouse.sol:ClearingHouse",
            "label": "minimumOrderNotional",
            "offset": 0,
            "slot": "7",
            "type": "t_uint256"
          },
          {
            "astId": 13005,
            "contract": "contracts/protocol/clearinghouse/ClearingHouse.sol:ClearingHouse",
            "label": "_emptySlots",
            "offset": 0,
            "slot": "8",
            "type": "t_array(t_uint256)100_storage"
          }
        ],
        "numberOfBytes": "3456"
      },
      "t_struct(Info)16425_storage": {
        "encoding": "inplace",
        "label": "struct VTokenPosition.Info",
        "members": [
          {
            "astId": 16413,
            "contract": "contracts/protocol/clearinghouse/ClearingHouse.sol:ClearingHouse",
            "label": "balance",
            "offset": 0,
            "slot": "0",
            "type": "t_int256"
          },
          {
            "astId": 16415,
            "contract": "contracts/protocol/clearinghouse/ClearingHouse.sol:ClearingHouse",
            "label": "netTraderPosition",
            "offset": 0,
            "slot": "1",
            "type": "t_int256"
          },
          {
            "astId": 16417,
            "contract": "contracts/protocol/clearinghouse/ClearingHouse.sol:ClearingHouse",
            "label": "sumAX128Chkpt",
            "offset": 0,
            "slot": "2",
            "type": "t_int256"
          },
          {
            "astId": 16420,
            "contract": "contracts/protocol/clearinghouse/ClearingHouse.sol:ClearingHouse",
            "label": "liquidityPositions",
            "offset": 0,
            "slot": "3",
            "type": "t_struct(Set)11067_storage"
          },
          {
            "astId": 16424,
            "contract": "contracts/protocol/clearinghouse/ClearingHouse.sol:ClearingHouse",
            "label": "_emptySlots",
            "offset": 0,
            "slot": "105",
            "type": "t_array(t_uint256)100_storage"
          }
        ],
        "numberOfBytes": "6560"
      },
      "t_struct(Info)8802_storage": {
        "encoding": "inplace",
        "label": "struct Account.Info",
        "members": [
          {
            "astId": 8789,
            "contract": "contracts/protocol/clearinghouse/ClearingHouse.sol:ClearingHouse",
            "label": "id",
            "offset": 0,
            "slot": "0",
            "type": "t_uint96"
          },
          {
            "astId": 8791,
            "contract": "contracts/protocol/clearinghouse/ClearingHouse.sol:ClearingHouse",
            "label": "owner",
            "offset": 12,
            "slot": "0",
            "type": "t_address"
          },
          {
            "astId": 8794,
            "contract": "contracts/protocol/clearinghouse/ClearingHouse.sol:ClearingHouse",
            "label": "tokenPositions",
            "offset": 0,
            "slot": "1",
            "type": "t_struct(Set)16411_storage"
          },
          {
            "astId": 8797,
            "contract": "contracts/protocol/clearinghouse/ClearingHouse.sol:ClearingHouse",
            "label": "collateralDeposits",
            "offset": 0,
            "slot": "104",
            "type": "t_struct(Set)10398_storage"
          },
          {
            "astId": 8801,
            "contract": "contracts/protocol/clearinghouse/ClearingHouse.sol:ClearingHouse",
            "label": "_emptySlots",
            "offset": 0,
            "slot": "206",
            "type": "t_array(t_uint256)100_storage"
          }
        ],
        "numberOfBytes": "9792"
      },
      "t_struct(LiquidationParams)8496_storage": {
        "encoding": "inplace",
        "label": "struct IClearingHouseStructures.LiquidationParams",
        "members": [
          {
            "astId": 8481,
            "contract": "contracts/protocol/clearinghouse/ClearingHouse.sol:ClearingHouse",
            "label": "rangeLiquidationFeeFraction",
            "offset": 0,
            "slot": "0",
            "type": "t_uint16"
          },
          {
            "astId": 8483,
            "contract": "contracts/protocol/clearinghouse/ClearingHouse.sol:ClearingHouse",
            "label": "tokenLiquidationFeeFraction",
            "offset": 2,
            "slot": "0",
            "type": "t_uint16"
          },
          {
            "astId": 8485,
            "contract": "contracts/protocol/clearinghouse/ClearingHouse.sol:ClearingHouse",
            "label": "closeFactorMMThresholdBps",
            "offset": 4,
            "slot": "0",
            "type": "t_uint16"
          },
          {
            "astId": 8487,
            "contract": "contracts/protocol/clearinghouse/ClearingHouse.sol:ClearingHouse",
            "label": "partialLiquidationCloseFactorBps",
            "offset": 6,
            "slot": "0",
            "type": "t_uint16"
          },
          {
            "astId": 8489,
            "contract": "contracts/protocol/clearinghouse/ClearingHouse.sol:ClearingHouse",
            "label": "insuranceFundFeeShareBps",
            "offset": 8,
            "slot": "0",
            "type": "t_uint16"
          },
          {
            "astId": 8491,
            "contract": "contracts/protocol/clearinghouse/ClearingHouse.sol:ClearingHouse",
            "label": "liquidationSlippageSqrtToleranceBps",
            "offset": 10,
            "slot": "0",
            "type": "t_uint16"
          },
          {
            "astId": 8493,
            "contract": "contracts/protocol/clearinghouse/ClearingHouse.sol:ClearingHouse",
            "label": "maxRangeLiquidationFees",
            "offset": 12,
            "slot": "0",
            "type": "t_uint64"
          },
          {
            "astId": 8495,
            "contract": "contracts/protocol/clearinghouse/ClearingHouse.sol:ClearingHouse",
            "label": "minNotionalLiquidatable",
            "offset": 20,
            "slot": "0",
            "type": "t_uint64"
          }
        ],
        "numberOfBytes": "32"
      },
      "t_struct(Pool)8515_storage": {
        "encoding": "inplace",
        "label": "struct IClearingHouseStructures.Pool",
        "members": [
          {
            "astId": 8505,
            "contract": "contracts/protocol/clearinghouse/ClearingHouse.sol:ClearingHouse",
            "label": "vToken",
            "offset": 0,
            "slot": "0",
            "type": "t_contract(IVToken)8112"
          },
          {
            "astId": 8508,
            "contract": "contracts/protocol/clearinghouse/ClearingHouse.sol:ClearingHouse",
            "label": "vPool",
            "offset": 0,
            "slot": "1",
            "type": "t_contract(IUniswapV3Pool)5364"
          },
          {
            "astId": 8511,
            "contract": "contracts/protocol/clearinghouse/ClearingHouse.sol:ClearingHouse",
            "label": "vPoolWrapper",
            "offset": 0,
            "slot": "2",
            "type": "t_contract(IVPoolWrapper)8064"
          },
          {
            "astId": 8514,
            "contract": "contracts/protocol/clearinghouse/ClearingHouse.sol:ClearingHouse",
            "label": "settings",
            "offset": 0,
            "slot": "3",
            "type": "t_struct(PoolSettings)8531_storage"
          }
        ],
        "numberOfBytes": "128"
      },
      "t_struct(PoolSettings)8531_storage": {
        "encoding": "inplace",
        "label": "struct IClearingHouseStructures.PoolSettings",
        "members": [
          {
            "astId": 8517,
            "contract": "contracts/protocol/clearinghouse/ClearingHouse.sol:ClearingHouse",
            "label": "initialMarginRatioBps",
            "offset": 0,
            "slot": "0",
            "type": "t_uint16"
          },
          {
            "astId": 8519,
            "contract": "contracts/protocol/clearinghouse/ClearingHouse.sol:ClearingHouse",
            "label": "maintainanceMarginRatioBps",
            "offset": 2,
            "slot": "0",
            "type": "t_uint16"
          },
          {
            "astId": 8521,
            "contract": "contracts/protocol/clearinghouse/ClearingHouse.sol:ClearingHouse",
            "label": "maxVirtualPriceDeviationRatioBps",
            "offset": 4,
            "slot": "0",
            "type": "t_uint16"
          },
          {
            "astId": 8523,
            "contract": "contracts/protocol/clearinghouse/ClearingHouse.sol:ClearingHouse",
            "label": "twapDuration",
            "offset": 6,
            "slot": "0",
            "type": "t_uint32"
          },
          {
            "astId": 8525,
            "contract": "contracts/protocol/clearinghouse/ClearingHouse.sol:ClearingHouse",
            "label": "isAllowedForTrade",
            "offset": 10,
            "slot": "0",
            "type": "t_bool"
          },
          {
            "astId": 8527,
            "contract": "contracts/protocol/clearinghouse/ClearingHouse.sol:ClearingHouse",
            "label": "isCrossMargined",
            "offset": 11,
            "slot": "0",
            "type": "t_bool"
          },
          {
            "astId": 8530,
            "contract": "contracts/protocol/clearinghouse/ClearingHouse.sol:ClearingHouse",
            "label": "oracle",
            "offset": 12,
            "slot": "0",
            "type": "t_contract(IOracle)7863"
          }
        ],
        "numberOfBytes": "32"
      },
      "t_struct(Set)10398_storage": {
        "encoding": "inplace",
        "label": "struct CollateralDeposit.Set",
        "members": [
          {
            "astId": 10389,
            "contract": "contracts/protocol/clearinghouse/ClearingHouse.sol:ClearingHouse",
            "label": "active",
            "offset": 0,
            "slot": "0",
            "type": "t_array(t_uint32)8_storage"
          },
          {
            "astId": 10393,
            "contract": "contracts/protocol/clearinghouse/ClearingHouse.sol:ClearingHouse",
            "label": "deposits",
            "offset": 0,
            "slot": "1",
            "type": "t_mapping(t_uint32,t_uint256)"
          },
          {
            "astId": 10397,
            "contract": "contracts/protocol/clearinghouse/ClearingHouse.sol:ClearingHouse",
            "label": "_emptySlots",
            "offset": 0,
            "slot": "2",
            "type": "t_array(t_uint256)100_storage"
          }
        ],
        "numberOfBytes": "3264"
      },
      "t_struct(Set)11067_storage": {
        "encoding": "inplace",
        "label": "struct LiquidityPosition.Set",
        "members": [
          {
            "astId": 11057,
            "contract": "contracts/protocol/clearinghouse/ClearingHouse.sol:ClearingHouse",
            "label": "active",
            "offset": 0,
            "slot": "0",
            "type": "t_array(t_uint48)5_storage"
          },
          {
            "astId": 11062,
            "contract": "contracts/protocol/clearinghouse/ClearingHouse.sol:ClearingHouse",
            "label": "positions",
            "offset": 0,
            "slot": "1",
            "type": "t_mapping(t_uint48,t_struct(Info)11091_storage)"
          },
          {
            "astId": 11066,
            "contract": "contracts/protocol/clearinghouse/ClearingHouse.sol:ClearingHouse",
            "label": "_emptySlots",
            "offset": 0,
            "slot": "2",
            "type": "t_array(t_uint256)100_storage"
          }
        ],
        "numberOfBytes": "3264"
      },
      "t_struct(Set)16411_storage": {
        "encoding": "inplace",
        "label": "struct VTokenPosition.Set",
        "members": [
          {
            "astId": 16399,
            "contract": "contracts/protocol/clearinghouse/ClearingHouse.sol:ClearingHouse",
            "label": "active",
            "offset": 0,
            "slot": "0",
            "type": "t_array(t_uint32)8_storage"
          },
          {
            "astId": 16404,
            "contract": "contracts/protocol/clearinghouse/ClearingHouse.sol:ClearingHouse",
            "label": "positions",
            "offset": 0,
            "slot": "1",
            "type": "t_mapping(t_uint32,t_struct(Info)16425_storage)"
          },
          {
            "astId": 16406,
            "contract": "contracts/protocol/clearinghouse/ClearingHouse.sol:ClearingHouse",
            "label": "vQuoteBalance",
            "offset": 0,
            "slot": "2",
            "type": "t_int256"
          },
          {
            "astId": 16410,
            "contract": "contracts/protocol/clearinghouse/ClearingHouse.sol:ClearingHouse",
            "label": "_emptySlots",
            "offset": 0,
            "slot": "3",
            "type": "t_array(t_uint256)100_storage"
          }
        ],
        "numberOfBytes": "3296"
      },
      "t_uint128": {
        "encoding": "inplace",
        "label": "uint128",
        "numberOfBytes": "16"
      },
      "t_uint16": {
        "encoding": "inplace",
        "label": "uint16",
        "numberOfBytes": "2"
      },
      "t_uint256": {
        "encoding": "inplace",
        "label": "uint256",
        "numberOfBytes": "32"
      },
      "t_uint32": {
        "encoding": "inplace",
        "label": "uint32",
        "numberOfBytes": "4"
      },
      "t_uint48": {
        "encoding": "inplace",
        "label": "uint48",
        "numberOfBytes": "6"
      },
      "t_uint64": {
        "encoding": "inplace",
        "label": "uint64",
        "numberOfBytes": "8"
      },
      "t_uint96": {
        "encoding": "inplace",
        "label": "uint96",
        "numberOfBytes": "12"
      }
    }
  }
}