{
  "address": "0xa99643f6C8AF213FAA6A50D3cEe0498eAe627661",
  "abi": [
    {
      "inputs": [
        {
          "internalType": "address",
          "name": "senderAddress",
          "type": "address"
        }
      ],
      "name": "AccessDenied",
      "type": "error"
    },
    {
      "inputs": [
        {
          "internalType": "uint256",
          "name": "length",
          "type": "uint256"
        },
        {
          "internalType": "uint256",
          "name": "limit",
          "type": "uint256"
        }
      ],
      "name": "CalldataLengthExceeded",
      "type": "error"
    },
    {
      "inputs": [
        {
          "internalType": "uint256",
          "name": "gasUsedClaim",
          "type": "uint256"
        },
        {
          "internalType": "uint256",
          "name": "gasUsedActual",
          "type": "uint256"
        }
      ],
      "name": "ExcessGasUsedClaim",
      "type": "error"
    },
    {
      "inputs": [
        {
          "internalType": "uint256",
          "name": "txGasPrice",
          "type": "uint256"
        },
        {
          "internalType": "uint256",
          "name": "limit",
          "type": "uint256"
        }
      ],
      "name": "ExcessTxGasPrice",
      "type": "error"
    },
    {
      "inputs": [
        {
          "internalType": "uint160",
          "name": "sqrtPriceX96",
          "type": "uint160"
        }
      ],
      "name": "IllegalSqrtPrice",
      "type": "error"
    },
    {
      "inputs": [
        {
          "internalType": "uint32",
          "name": "period",
          "type": "uint32"
        }
      ],
      "name": "IllegalTwapDuration",
      "type": "error"
    },
    {
      "inputs": [
        {
          "internalType": "contract IERC20",
          "name": "incorrectAddress",
          "type": "address"
        },
        {
          "internalType": "contract IERC20",
          "name": "correctAddress",
          "type": "address"
        }
      ],
      "name": "IncorrectCollateralAddress",
      "type": "error"
    },
    {
      "inputs": [
        {
          "internalType": "address",
          "name": "invalidAddress",
          "type": "address"
        }
      ],
      "name": "InvalidCollateralAddress",
      "type": "error"
    },
    {
      "inputs": [
        {
          "internalType": "enum IClearingHouseEnums.MulticallOperationType",
          "name": "multicallOperationType",
          "type": "uint8"
        }
      ],
      "name": "InvalidMulticallOperationType",
      "type": "error"
    },
    {
      "inputs": [],
      "name": "InvalidTokenLiquidationParameters",
      "type": "error"
    },
    {
      "inputs": [
        {
          "internalType": "int256",
          "name": "keeperFee",
          "type": "int256"
        }
      ],
      "name": "KeeperFeeNotPositive",
      "type": "error"
    },
    {
      "inputs": [
        {
          "internalType": "uint256",
          "name": "notionalValue",
          "type": "uint256"
        }
      ],
      "name": "LowNotionalValue",
      "type": "error"
    },
    {
      "inputs": [],
      "name": "NotRageTradeFactory",
      "type": "error"
    },
    {
      "inputs": [],
      "name": "Paused",
      "type": "error"
    },
    {
      "inputs": [],
      "name": "SlippageBeyondTolerance",
      "type": "error"
    },
    {
      "inputs": [],
      "name": "Unauthorised",
      "type": "error"
    },
    {
      "inputs": [
        {
          "internalType": "uint32",
          "name": "vTokenTruncatedAddress",
          "type": "uint32"
        }
      ],
      "name": "UninitializedToken",
      "type": "error"
    },
    {
      "inputs": [
        {
          "internalType": "address",
          "name": "cTokenAddress",
          "type": "address"
        }
      ],
      "name": "UnsupportedCToken",
      "type": "error"
    },
    {
      "inputs": [
        {
          "internalType": "contract IVToken",
          "name": "vToken",
          "type": "address"
        }
      ],
      "name": "UnsupportedVToken",
      "type": "error"
    },
    {
      "inputs": [],
      "name": "ZeroAddress",
      "type": "error"
    },
    {
      "anonymous": false,
      "inputs": [
        {
          "indexed": false,
          "internalType": "contract IERC20",
          "name": "cToken",
          "type": "address"
        },
        {
          "components": [
            {
              "internalType": "contract IOracle",
              "name": "oracle",
              "type": "address"
            },
            {
              "internalType": "uint32",
              "name": "twapDuration",
              "type": "uint32"
            },
            {
              "internalType": "bool",
              "name": "supported",
              "type": "bool"
            }
          ],
          "indexed": false,
          "internalType": "struct IClearingHouseStructures.CollateralSettings",
          "name": "cTokenInfo",
          "type": "tuple"
        }
      ],
      "name": "CollateralSettingsUpdated",
      "type": "event"
    },
    {
      "anonymous": false,
      "inputs": [
        {
          "indexed": true,
          "internalType": "address",
          "name": "previousGovernance",
          "type": "address"
        },
        {
          "indexed": true,
          "internalType": "address",
          "name": "newGovernance",
          "type": "address"
        }
      ],
      "name": "GovernanceTransferred",
      "type": "event"
    },
    {
      "anonymous": false,
      "inputs": [
        {
          "indexed": false,
          "internalType": "uint32",
          "name": "poolId",
          "type": "uint32"
        }
      ],
      "name": "NewVTokenSupported",
      "type": "event"
    },
    {
      "anonymous": false,
      "inputs": [
        {
          "indexed": false,
          "internalType": "uint32",
          "name": "poolId",
          "type": "uint32"
        },
        {
          "components": [
            {
              "internalType": "uint16",
              "name": "initialMarginRatio",
              "type": "uint16"
            },
            {
              "internalType": "uint16",
              "name": "maintainanceMarginRatio",
              "type": "uint16"
            },
            {
              "internalType": "uint32",
              "name": "twapDuration",
              "type": "uint32"
            },
            {
              "internalType": "bool",
              "name": "supported",
              "type": "bool"
            },
            {
              "internalType": "bool",
              "name": "isCrossMargined",
              "type": "bool"
            },
            {
              "internalType": "contract IOracle",
              "name": "oracle",
              "type": "address"
            }
          ],
          "indexed": false,
          "internalType": "struct IClearingHouseStructures.PoolSettings",
          "name": "settings",
          "type": "tuple"
        }
      ],
      "name": "PoolSettingsUpdated",
      "type": "event"
    },
    {
      "anonymous": false,
      "inputs": [
        {
          "components": [
            {
              "internalType": "uint16",
              "name": "liquidationFeeFraction",
              "type": "uint16"
            },
            {
              "internalType": "uint16",
              "name": "tokenLiquidationPriceDeltaBps",
              "type": "uint16"
            },
            {
              "internalType": "uint16",
              "name": "insuranceFundFeeShareBps",
              "type": "uint16"
            },
            {
              "internalType": "uint128",
              "name": "maxRangeLiquidationFees",
              "type": "uint128"
            }
          ],
          "indexed": false,
          "internalType": "struct IClearingHouseStructures.LiquidationParams",
          "name": "liquidationParams",
          "type": "tuple"
        },
        {
          "indexed": false,
          "internalType": "uint256",
          "name": "removeLimitOrderFee",
          "type": "uint256"
        },
        {
          "indexed": false,
          "internalType": "uint256",
          "name": "minimumOrderNotional",
          "type": "uint256"
        },
        {
          "indexed": false,
          "internalType": "uint256",
          "name": "minRequiredMargin",
          "type": "uint256"
        }
      ],
      "name": "ProtocolSettingsUpdated",
      "type": "event"
    },
    {
      "anonymous": false,
      "inputs": [
        {
          "indexed": true,
          "internalType": "address",
          "name": "previousTeamMultisig",
          "type": "address"
        },
        {
          "indexed": true,
          "internalType": "address",
          "name": "newTeamMultisig",
          "type": "address"
        }
      ],
      "name": "TeamMultisigTransferred",
      "type": "event"
    },
    {
      "inputs": [
        {
          "internalType": "address",
          "name": "_rageTradeFactoryAddress",
          "type": "address"
        },
        {
          "internalType": "contract IERC20",
          "name": "_defaultCollateralToken",
          "type": "address"
        },
        {
          "internalType": "contract IOracle",
          "name": "_defaultCollateralTokenOracle",
          "type": "address"
        },
        {
          "internalType": "contract IInsuranceFund",
          "name": "_insuranceFund",
          "type": "address"
        },
        {
          "internalType": "contract IVBase",
          "name": "_vBase",
          "type": "address"
        },
        {
          "internalType": "contract IOracle",
          "name": "_nativeOracle",
          "type": "address"
        }
      ],
      "name": "__initialize_ClearingHouse",
      "outputs": [],
      "stateMutability": "nonpayable",
      "type": "function"
    },
    {
      "inputs": [
        {
          "internalType": "uint256",
          "name": "accountNo",
          "type": "uint256"
        },
        {
          "internalType": "uint32",
          "name": "cTokenTruncatedAddress",
          "type": "uint32"
        },
        {
          "internalType": "uint256",
          "name": "amount",
          "type": "uint256"
        }
      ],
      "name": "addMargin",
      "outputs": [],
      "stateMutability": "nonpayable",
      "type": "function"
    },
    {
      "inputs": [],
      "name": "createAccount",
      "outputs": [
        {
          "internalType": "uint256",
          "name": "newAccountId",
          "type": "uint256"
        }
      ],
      "stateMutability": "nonpayable",
      "type": "function"
    },
    {
      "inputs": [
        {
          "internalType": "uint32",
          "name": "vTokenTruncatedAddress",
          "type": "uint32"
        },
        {
          "internalType": "uint256",
          "name": "amount",
          "type": "uint256"
        }
      ],
      "name": "createAccountAndAddMargin",
      "outputs": [
        {
          "internalType": "uint256",
          "name": "newAccountId",
          "type": "uint256"
        }
      ],
      "stateMutability": "nonpayable",
      "type": "function"
    },
    {
      "inputs": [
        {
          "internalType": "bytes32",
          "name": "slot",
          "type": "bytes32"
        }
      ],
      "name": "extsload",
      "outputs": [
        {
          "internalType": "bytes32",
          "name": "val",
          "type": "bytes32"
        }
      ],
      "stateMutability": "view",
      "type": "function"
    },
    {
      "inputs": [
        {
          "internalType": "bytes32[]",
          "name": "slots",
          "type": "bytes32[]"
        }
      ],
      "name": "extsload",
      "outputs": [
        {
          "internalType": "bytes32[]",
          "name": "",
          "type": "bytes32[]"
        }
      ],
      "stateMutability": "view",
      "type": "function"
    },
    {
      "inputs": [
        {
          "internalType": "uint256",
          "name": "accountNo",
          "type": "uint256"
        }
      ],
      "name": "getAccountInfo",
      "outputs": [
        {
          "internalType": "address",
          "name": "owner",
          "type": "address"
        },
        {
          "internalType": "int256",
          "name": "vBaseBalance",
          "type": "int256"
        },
        {
          "components": [
            {
              "internalType": "address",
              "name": "cTokenAddress",
              "type": "address"
            },
            {
              "internalType": "uint256",
              "name": "balance",
              "type": "uint256"
            }
          ],
          "internalType": "struct IClearingHouseStructures.DepositTokenView[]",
          "name": "tokenDeposits",
          "type": "tuple[]"
        },
        {
          "components": [
            {
              "internalType": "address",
              "name": "vTokenAddress",
              "type": "address"
            },
            {
              "internalType": "int256",
              "name": "balance",
              "type": "int256"
            },
            {
              "internalType": "int256",
              "name": "netTraderPosition",
              "type": "int256"
            },
            {
              "internalType": "int256",
              "name": "sumAX128Ckpt",
              "type": "int256"
            },
            {
              "components": [
                {
                  "internalType": "enum IClearingHouseEnums.LimitOrderType",
                  "name": "limitOrderType",
                  "type": "uint8"
                },
                {
                  "internalType": "int24",
                  "name": "tickLower",
                  "type": "int24"
                },
                {
                  "internalType": "int24",
                  "name": "tickUpper",
                  "type": "int24"
                },
                {
                  "internalType": "uint128",
                  "name": "liquidity",
                  "type": "uint128"
                },
                {
                  "internalType": "int256",
                  "name": "vTokenAmountIn",
                  "type": "int256"
                },
                {
                  "internalType": "int256",
                  "name": "sumALastX128",
                  "type": "int256"
                },
                {
                  "internalType": "int256",
                  "name": "sumBInsideLastX128",
                  "type": "int256"
                },
                {
                  "internalType": "int256",
                  "name": "sumFpInsideLastX128",
                  "type": "int256"
                },
                {
                  "internalType": "uint256",
                  "name": "sumFeeInsideLastX128",
                  "type": "uint256"
                }
              ],
              "internalType": "struct IClearingHouseStructures.LiquidityPositionView[]",
              "name": "liquidityPositions",
              "type": "tuple[]"
            }
          ],
          "internalType": "struct IClearingHouseStructures.VTokenPositionView[]",
          "name": "tokenPositions",
          "type": "tuple[]"
        }
      ],
      "stateMutability": "view",
      "type": "function"
    },
    {
      "inputs": [
        {
          "internalType": "uint256",
          "name": "accountNo",
          "type": "uint256"
        },
        {
          "internalType": "bool",
          "name": "isInitialMargin",
          "type": "bool"
        }
      ],
      "name": "getAccountMarketValueAndRequiredMargin",
      "outputs": [
        {
          "internalType": "int256",
          "name": "accountMarketValue",
          "type": "int256"
        },
        {
          "internalType": "int256",
          "name": "requiredMargin",
          "type": "int256"
        }
      ],
      "stateMutability": "view",
      "type": "function"
    },
    {
      "inputs": [
        {
          "internalType": "uint256",
          "name": "accountNo",
          "type": "uint256"
        }
      ],
      "name": "getAccountNetProfit",
      "outputs": [
        {
          "internalType": "int256",
          "name": "accountNetProfit",
          "type": "int256"
        }
      ],
      "stateMutability": "view",
      "type": "function"
    },
    {
      "inputs": [
        {
          "internalType": "uint32",
          "name": "collateralId",
          "type": "uint32"
        }
      ],
      "name": "getCollateralInfo",
      "outputs": [
        {
          "components": [
            {
              "internalType": "contract IERC20",
              "name": "token",
              "type": "address"
            },
            {
              "components": [
                {
                  "internalType": "contract IOracle",
                  "name": "oracle",
                  "type": "address"
                },
                {
                  "internalType": "uint32",
                  "name": "twapDuration",
                  "type": "uint32"
                },
                {
                  "internalType": "bool",
                  "name": "supported",
                  "type": "bool"
                }
              ],
              "internalType": "struct IClearingHouseStructures.CollateralSettings",
              "name": "settings",
              "type": "tuple"
            }
          ],
          "internalType": "struct IClearingHouseStructures.Collateral",
          "name": "",
          "type": "tuple"
        }
      ],
      "stateMutability": "view",
      "type": "function"
    },
    {
      "inputs": [
        {
          "internalType": "uint256",
          "name": "accountNo",
          "type": "uint256"
        },
        {
          "internalType": "uint32",
          "name": "poolId",
          "type": "uint32"
        }
      ],
      "name": "getNetTokenPosition",
      "outputs": [
        {
          "internalType": "int256",
          "name": "netPosition",
          "type": "int256"
        }
      ],
      "stateMutability": "view",
      "type": "function"
    },
    {
      "inputs": [
        {
          "internalType": "uint32",
          "name": "poolId",
          "type": "uint32"
        }
      ],
      "name": "getPoolInfo",
      "outputs": [
        {
          "components": [
            {
              "internalType": "contract IVToken",
              "name": "vToken",
              "type": "address"
            },
            {
              "internalType": "contract IUniswapV3Pool",
              "name": "vPool",
              "type": "address"
            },
            {
              "internalType": "contract IVPoolWrapper",
              "name": "vPoolWrapper",
              "type": "address"
            },
            {
              "components": [
                {
                  "internalType": "uint16",
                  "name": "initialMarginRatio",
                  "type": "uint16"
                },
                {
                  "internalType": "uint16",
                  "name": "maintainanceMarginRatio",
                  "type": "uint16"
                },
                {
                  "internalType": "uint32",
                  "name": "twapDuration",
                  "type": "uint32"
                },
                {
                  "internalType": "bool",
                  "name": "supported",
                  "type": "bool"
                },
                {
                  "internalType": "bool",
                  "name": "isCrossMargined",
                  "type": "bool"
                },
                {
                  "internalType": "contract IOracle",
                  "name": "oracle",
                  "type": "address"
                }
              ],
              "internalType": "struct IClearingHouseStructures.PoolSettings",
              "name": "settings",
              "type": "tuple"
            }
          ],
          "internalType": "struct IClearingHouseStructures.Pool",
          "name": "",
          "type": "tuple"
        }
      ],
      "stateMutability": "view",
      "type": "function"
    },
    {
      "inputs": [
        {
          "internalType": "contract IVToken",
          "name": "vToken",
          "type": "address"
        }
      ],
      "name": "getTwapSqrtPricesForSetDuration",
      "outputs": [
        {
          "internalType": "uint256",
          "name": "realPriceX128",
          "type": "uint256"
        },
        {
          "internalType": "uint256",
          "name": "virtualPriceX128",
          "type": "uint256"
        }
      ],
      "stateMutability": "view",
      "type": "function"
    },
    {
      "inputs": [],
      "name": "governance",
      "outputs": [
        {
          "internalType": "address",
          "name": "",
          "type": "address"
        }
      ],
      "stateMutability": "view",
      "type": "function"
    },
    {
      "inputs": [],
      "name": "insuranceFund",
      "outputs": [
        {
          "internalType": "contract IInsuranceFund",
          "name": "",
          "type": "address"
        }
      ],
      "stateMutability": "view",
      "type": "function"
    },
    {
      "inputs": [
        {
          "internalType": "uint32",
          "name": "poolId",
          "type": "uint32"
        }
      ],
      "name": "isVTokenAddressAvailable",
      "outputs": [
        {
          "internalType": "bool",
          "name": "",
          "type": "bool"
        }
      ],
      "stateMutability": "view",
      "type": "function"
    },
    {
      "inputs": [
        {
          "internalType": "uint256",
          "name": "accountNo",
          "type": "uint256"
        }
      ],
      "name": "liquidateLiquidityPositions",
      "outputs": [],
      "stateMutability": "nonpayable",
      "type": "function"
    },
    {
      "inputs": [
        {
          "internalType": "uint256",
          "name": "accountNo",
          "type": "uint256"
        },
        {
          "internalType": "uint256",
          "name": "gasComputationUnitsClaim",
          "type": "uint256"
        }
      ],
      "name": "liquidateLiquidityPositionsWithGasClaim",
      "outputs": [
        {
          "internalType": "int256",
          "name": "keeperFee",
          "type": "int256"
        }
      ],
      "stateMutability": "nonpayable",
      "type": "function"
    },
    {
      "inputs": [
        {
          "internalType": "uint256",
          "name": "liquidatorAccountNo",
          "type": "uint256"
        },
        {
          "internalType": "uint256",
          "name": "accountNo",
          "type": "uint256"
        },
        {
          "internalType": "uint32",
          "name": "vTokenTruncatedAddress",
          "type": "uint32"
        },
        {
          "internalType": "uint16",
          "name": "liquidationBps",
          "type": "uint16"
        }
      ],
      "name": "liquidateTokenPosition",
      "outputs": [
        {
          "components": [
            {
              "internalType": "int256",
              "name": "vBaseIncrease",
              "type": "int256"
            },
            {
              "internalType": "int256",
              "name": "vTokenIncrease",
              "type": "int256"
            },
            {
              "internalType": "int256",
              "name": "traderPositionIncrease",
              "type": "int256"
            }
          ],
          "internalType": "struct IClearingHouseStructures.BalanceAdjustments",
          "name": "liquidatorBalanceAdjustments",
          "type": "tuple"
        }
      ],
      "stateMutability": "nonpayable",
      "type": "function"
    },
    {
      "inputs": [
        {
          "internalType": "uint256",
          "name": "liquidatorAccountNo",
          "type": "uint256"
        },
        {
          "internalType": "uint256",
          "name": "accountNo",
          "type": "uint256"
        },
        {
          "internalType": "uint32",
          "name": "vTokenTruncatedAddress",
          "type": "uint32"
        },
        {
          "internalType": "uint16",
          "name": "liquidationBps",
          "type": "uint16"
        },
        {
          "internalType": "uint256",
          "name": "gasComputationUnitsClaim",
          "type": "uint256"
        }
      ],
      "name": "liquidateTokenPositionWithGasClaim",
      "outputs": [
        {
          "components": [
            {
              "internalType": "int256",
              "name": "vBaseIncrease",
              "type": "int256"
            },
            {
              "internalType": "int256",
              "name": "vTokenIncrease",
              "type": "int256"
            },
            {
              "internalType": "int256",
              "name": "traderPositionIncrease",
              "type": "int256"
            }
          ],
          "internalType": "struct IClearingHouseStructures.BalanceAdjustments",
          "name": "liquidatorBalanceAdjustments",
          "type": "tuple"
        }
      ],
      "stateMutability": "nonpayable",
      "type": "function"
    },
    {
      "inputs": [
        {
          "internalType": "bytes[]",
          "name": "data",
          "type": "bytes[]"
        }
      ],
      "name": "multicall",
      "outputs": [
        {
          "internalType": "bytes[]",
          "name": "results",
          "type": "bytes[]"
        }
      ],
      "stateMutability": "payable",
      "type": "function"
    },
    {
      "inputs": [
        {
          "internalType": "uint256",
          "name": "accountNo",
          "type": "uint256"
        },
        {
          "components": [
            {
              "internalType": "enum IClearingHouseEnums.MulticallOperationType",
              "name": "operationType",
              "type": "uint8"
            },
            {
              "internalType": "bytes",
              "name": "data",
              "type": "bytes"
            }
          ],
          "internalType": "struct IClearingHouseStructures.MulticallOperation[]",
          "name": "operations",
          "type": "tuple[]"
        }
      ],
      "name": "multicallWithSingleMarginCheck",
      "outputs": [
        {
          "internalType": "bytes[]",
          "name": "results",
          "type": "bytes[]"
        }
      ],
      "stateMutability": "nonpayable",
      "type": "function"
    },
    {
      "inputs": [],
      "name": "nativeOracle",
      "outputs": [
        {
          "internalType": "contract IOracle",
          "name": "",
          "type": "address"
        }
      ],
      "stateMutability": "view",
      "type": "function"
    },
    {
      "inputs": [],
      "name": "numAccounts",
      "outputs": [
        {
          "internalType": "uint256",
          "name": "",
          "type": "uint256"
        }
      ],
      "stateMutability": "view",
      "type": "function"
    },
    {
      "inputs": [],
      "name": "paused",
      "outputs": [
        {
          "internalType": "bool",
          "name": "",
          "type": "bool"
        }
      ],
      "stateMutability": "view",
      "type": "function"
    },
    {
      "inputs": [],
      "name": "protocolInfo",
      "outputs": [
        {
          "internalType": "contract IVBase",
          "name": "vBase",
          "type": "address"
        },
        {
          "components": [
            {
              "internalType": "uint16",
              "name": "liquidationFeeFraction",
              "type": "uint16"
            },
            {
              "internalType": "uint16",
              "name": "tokenLiquidationPriceDeltaBps",
              "type": "uint16"
            },
            {
              "internalType": "uint16",
              "name": "insuranceFundFeeShareBps",
              "type": "uint16"
            },
            {
              "internalType": "uint128",
              "name": "maxRangeLiquidationFees",
              "type": "uint128"
            }
          ],
          "internalType": "struct IClearingHouseStructures.LiquidationParams",
          "name": "liquidationParams",
          "type": "tuple"
        },
        {
          "internalType": "uint256",
          "name": "minRequiredMargin",
          "type": "uint256"
        },
        {
          "internalType": "uint256",
          "name": "removeLimitOrderFee",
          "type": "uint256"
        },
        {
          "internalType": "uint256",
          "name": "minimumOrderNotional",
          "type": "uint256"
        }
      ],
      "stateMutability": "view",
      "type": "function"
    },
    {
      "inputs": [],
      "name": "rageTradeFactoryAddress",
      "outputs": [
        {
          "internalType": "address",
          "name": "",
          "type": "address"
        }
      ],
      "stateMutability": "view",
      "type": "function"
    },
    {
      "inputs": [
        {
          "components": [
            {
              "internalType": "contract IVToken",
              "name": "vToken",
              "type": "address"
            },
            {
              "internalType": "contract IUniswapV3Pool",
              "name": "vPool",
              "type": "address"
            },
            {
              "internalType": "contract IVPoolWrapper",
              "name": "vPoolWrapper",
              "type": "address"
            },
            {
              "components": [
                {
                  "internalType": "uint16",
                  "name": "initialMarginRatio",
                  "type": "uint16"
                },
                {
                  "internalType": "uint16",
                  "name": "maintainanceMarginRatio",
                  "type": "uint16"
                },
                {
                  "internalType": "uint32",
                  "name": "twapDuration",
                  "type": "uint32"
                },
                {
                  "internalType": "bool",
                  "name": "supported",
                  "type": "bool"
                },
                {
                  "internalType": "bool",
                  "name": "isCrossMargined",
                  "type": "bool"
                },
                {
                  "internalType": "contract IOracle",
                  "name": "oracle",
                  "type": "address"
                }
              ],
              "internalType": "struct IClearingHouseStructures.PoolSettings",
              "name": "settings",
              "type": "tuple"
            }
          ],
          "internalType": "struct IClearingHouseStructures.Pool",
          "name": "poolInfo",
          "type": "tuple"
        }
      ],
      "name": "registerPool",
      "outputs": [],
      "stateMutability": "nonpayable",
      "type": "function"
    },
    {
      "inputs": [
        {
          "internalType": "uint256",
          "name": "accountNo",
          "type": "uint256"
        },
        {
          "internalType": "uint32",
          "name": "vTokenTruncatedAddress",
          "type": "uint32"
        },
        {
          "internalType": "int24",
          "name": "tickLower",
          "type": "int24"
        },
        {
          "internalType": "int24",
          "name": "tickUpper",
          "type": "int24"
        }
      ],
      "name": "removeLimitOrder",
      "outputs": [],
      "stateMutability": "nonpayable",
      "type": "function"
    },
    {
      "inputs": [
        {
          "internalType": "uint256",
          "name": "accountNo",
          "type": "uint256"
        },
        {
          "internalType": "uint32",
          "name": "vTokenTruncatedAddress",
          "type": "uint32"
        },
        {
          "internalType": "int24",
          "name": "tickLower",
          "type": "int24"
        },
        {
          "internalType": "int24",
          "name": "tickUpper",
          "type": "int24"
        },
        {
          "internalType": "uint256",
          "name": "gasComputationUnitsClaim",
          "type": "uint256"
        }
      ],
      "name": "removeLimitOrderWithGasClaim",
      "outputs": [
        {
          "internalType": "uint256",
          "name": "keeperFee",
          "type": "uint256"
        }
      ],
      "stateMutability": "nonpayable",
      "type": "function"
    },
    {
      "inputs": [
        {
          "internalType": "uint256",
          "name": "accountNo",
          "type": "uint256"
        },
        {
          "internalType": "uint32",
          "name": "cTokenTruncatedAddress",
          "type": "uint32"
        },
        {
          "internalType": "uint256",
          "name": "amount",
          "type": "uint256"
        }
      ],
      "name": "removeMargin",
      "outputs": [],
      "stateMutability": "nonpayable",
      "type": "function"
    },
    {
      "inputs": [
        {
          "internalType": "bool",
          "name": "_pause",
          "type": "bool"
        }
      ],
      "name": "setPaused",
      "outputs": [],
      "stateMutability": "nonpayable",
      "type": "function"
    },
    {
      "inputs": [
        {
          "internalType": "uint256",
          "name": "_txGasPriceLimit",
          "type": "uint256"
        }
      ],
      "name": "setTxGasPriceLimit",
      "outputs": [],
      "stateMutability": "nonpayable",
      "type": "function"
    },
    {
      "inputs": [
        {
          "internalType": "uint256",
          "name": "accountNo",
          "type": "uint256"
        },
        {
          "internalType": "uint32",
          "name": "vTokenTruncatedAddress",
          "type": "uint32"
        },
        {
          "components": [
            {
              "internalType": "int256",
              "name": "amount",
              "type": "int256"
            },
            {
              "internalType": "uint160",
              "name": "sqrtPriceLimit",
              "type": "uint160"
            },
            {
              "internalType": "bool",
              "name": "isNotional",
              "type": "bool"
            },
            {
              "internalType": "bool",
              "name": "isPartialAllowed",
              "type": "bool"
            }
          ],
          "internalType": "struct IClearingHouseStructures.SwapParams",
          "name": "swapParams",
          "type": "tuple"
        }
      ],
      "name": "swapToken",
      "outputs": [
        {
          "internalType": "int256",
          "name": "vTokenAmountOut",
          "type": "int256"
        },
        {
          "internalType": "int256",
          "name": "vBaseAmountOut",
          "type": "int256"
        }
      ],
      "stateMutability": "nonpayable",
      "type": "function"
    },
    {
      "inputs": [],
      "name": "teamMultisig",
      "outputs": [
        {
          "internalType": "address",
          "name": "",
          "type": "address"
        }
      ],
      "stateMutability": "view",
      "type": "function"
    },
    {
      "inputs": [
        {
          "internalType": "address",
          "name": "newGovernance",
          "type": "address"
        }
      ],
      "name": "transferGovernance",
      "outputs": [],
      "stateMutability": "nonpayable",
      "type": "function"
    },
    {
      "inputs": [
        {
          "internalType": "address",
          "name": "newTeamMultisig",
          "type": "address"
        }
      ],
      "name": "transferTeamMultisig",
      "outputs": [],
      "stateMutability": "nonpayable",
      "type": "function"
    },
    {
      "inputs": [],
      "name": "txGasPriceLimit",
      "outputs": [
        {
          "internalType": "uint256",
          "name": "",
          "type": "uint256"
        }
      ],
      "stateMutability": "view",
      "type": "function"
    },
    {
      "inputs": [
        {
          "internalType": "contract IERC20",
          "name": "cToken",
          "type": "address"
        },
        {
          "components": [
            {
              "internalType": "contract IOracle",
              "name": "oracle",
              "type": "address"
            },
            {
              "internalType": "uint32",
              "name": "twapDuration",
              "type": "uint32"
            },
            {
              "internalType": "bool",
              "name": "supported",
              "type": "bool"
            }
          ],
          "internalType": "struct IClearingHouseStructures.CollateralSettings",
          "name": "collateralSettings",
          "type": "tuple"
        }
      ],
      "name": "updateCollateralSettings",
      "outputs": [],
      "stateMutability": "nonpayable",
      "type": "function"
    },
    {
      "inputs": [
        {
          "internalType": "uint32",
          "name": "poolId",
          "type": "uint32"
        },
        {
          "components": [
            {
              "internalType": "uint16",
              "name": "initialMarginRatio",
              "type": "uint16"
            },
            {
              "internalType": "uint16",
              "name": "maintainanceMarginRatio",
              "type": "uint16"
            },
            {
              "internalType": "uint32",
              "name": "twapDuration",
              "type": "uint32"
            },
            {
              "internalType": "bool",
              "name": "supported",
              "type": "bool"
            },
            {
              "internalType": "bool",
              "name": "isCrossMargined",
              "type": "bool"
            },
            {
              "internalType": "contract IOracle",
              "name": "oracle",
              "type": "address"
            }
          ],
          "internalType": "struct IClearingHouseStructures.PoolSettings",
          "name": "newSettings",
          "type": "tuple"
        }
      ],
      "name": "updatePoolSettings",
      "outputs": [],
      "stateMutability": "nonpayable",
      "type": "function"
    },
    {
      "inputs": [
        {
          "internalType": "uint256",
          "name": "accountNo",
          "type": "uint256"
        },
        {
          "internalType": "int256",
          "name": "amount",
          "type": "int256"
        }
      ],
      "name": "updateProfit",
      "outputs": [],
      "stateMutability": "nonpayable",
      "type": "function"
    },
    {
      "inputs": [
        {
          "components": [
            {
              "internalType": "uint16",
              "name": "liquidationFeeFraction",
              "type": "uint16"
            },
            {
              "internalType": "uint16",
              "name": "tokenLiquidationPriceDeltaBps",
              "type": "uint16"
            },
            {
              "internalType": "uint16",
              "name": "insuranceFundFeeShareBps",
              "type": "uint16"
            },
            {
              "internalType": "uint128",
              "name": "maxRangeLiquidationFees",
              "type": "uint128"
            }
          ],
          "internalType": "struct IClearingHouseStructures.LiquidationParams",
          "name": "_liquidationParams",
          "type": "tuple"
        },
        {
          "internalType": "uint256",
          "name": "_removeLimitOrderFee",
          "type": "uint256"
        },
        {
          "internalType": "uint256",
          "name": "_minimumOrderNotional",
          "type": "uint256"
        },
        {
          "internalType": "uint256",
          "name": "_minRequiredMargin",
          "type": "uint256"
        }
      ],
      "name": "updateProtocolSettings",
      "outputs": [],
      "stateMutability": "nonpayable",
      "type": "function"
    },
    {
      "inputs": [
        {
          "internalType": "uint256",
          "name": "accountNo",
          "type": "uint256"
        },
        {
          "internalType": "uint32",
          "name": "vTokenTruncatedAddress",
          "type": "uint32"
        },
        {
          "components": [
            {
              "internalType": "int24",
              "name": "tickLower",
              "type": "int24"
            },
            {
              "internalType": "int24",
              "name": "tickUpper",
              "type": "int24"
            },
            {
              "internalType": "int128",
              "name": "liquidityDelta",
              "type": "int128"
            },
            {
              "internalType": "uint160",
              "name": "sqrtPriceCurrent",
              "type": "uint160"
            },
            {
              "internalType": "uint16",
              "name": "slippageToleranceBps",
              "type": "uint16"
            },
            {
              "internalType": "bool",
              "name": "closeTokenPosition",
              "type": "bool"
            },
            {
              "internalType": "enum IClearingHouseEnums.LimitOrderType",
              "name": "limitOrderType",
              "type": "uint8"
            }
          ],
          "internalType": "struct IClearingHouseStructures.LiquidityChangeParams",
          "name": "liquidityChangeParams",
          "type": "tuple"
        }
      ],
      "name": "updateRangeOrder",
      "outputs": [
        {
          "internalType": "int256",
          "name": "vTokenAmountOut",
          "type": "int256"
        },
        {
          "internalType": "int256",
          "name": "vBaseAmountOut",
          "type": "int256"
        }
      ],
      "stateMutability": "nonpayable",
      "type": "function"
    },
    {
      "inputs": [
        {
          "internalType": "address[]",
          "name": "wrapperAddresses",
          "type": "address[]"
        }
      ],
      "name": "withdrawProtocolFee",
      "outputs": [],
      "stateMutability": "nonpayable",
      "type": "function"
    }
  ],
  "transactionHash": "0x6f292aa5131998397a6c46883d124cfca05904154db11279a8738f18c4504887",
  "args": [],
  "numDeployments": 1,
  "solcInputHash": "bc4a250175ad4126c7e090586e5e47b6",
  "bytecode": "0x60806040523480156200001157600080fd5b506200001c62000022565b620001c4565b336200002f818062000032565b50565b600054610100900460ff166200004f5760005460ff161562000059565b6200005962000197565b620000c15760405162461bcd60e51b815260206004820152602e60248201527f496e697469616c697a61626c653a20636f6e747261637420697320616c72656160448201526d191e481a5b9a5d1a585b1a5e995960921b606482015260840160405180910390fd5b600054610100900460ff16158015620000e4576000805461ffff19166101011790555b6000805462010000600160b01b031916620100006001600160a01b0386169081029190911782556040519091907f5f56bee8cffbe9a78652a74a60705edede02af10b0bbb888ca44b79a0d42ce80908290a3600180546001600160a01b0319166001600160a01b0384169081179091556040516000907f39355f2f5c8206286978f443aa8126bbd29fa09c53c04569502647f3a59c8cb2908290a3801562000192576000805461ff00191690555b505050565b6000620001af30620001b560201b620021de1760201c565b15905090565b6001600160a01b03163b151590565b615b0a80620001d46000396000f3fe6080604052600436106102675760003560e01c806384088b6511610144578063d257be2b116100b6578063e1f167131161007a578063e1f1671314610a1c578063e3d41c1814610a3c578063e450f6f414610a5c578063e67ed1df14610a7c578063ee6cd5ee14610a9c578063fe6f083a14610abc57600080fd5b8063d257be2b14610971578063d38bfff414610991578063dac42a96146109b1578063dbc0c085146109d1578063dbd035ff146109ef57600080fd5b80639cd1be58116101085780639cd1be58146107335780639dca362f14610753578063ac9650d814610768578063b670ed521461077b578063b790230314610924578063bc38d5421461094457600080fd5b806384088b6514610594578063847e07a6146105d65780638ce25a93146105f657806393420cf41461060c57806394c8c71d1461071357600080fd5b80633d0aea3d116101dd578063569634d3116101a1578063569634d3146104c65780635aa6e675146104e65780635c975abb1461050a5780637cc2f4f5146105345780637ec6ba31146105545780637f64d6631461057457600080fd5b80633d0aea3d146104145780633d56a35e1461043457806340c4f69b1461045957806342be9fca1461048657806349fbd58d146104a657600080fd5b80631f84fa981161022f5780631f84fa981461032f5780632afaea371461034f57806332a72d981461036f57806339359029146103a45780633a64c245146103c45780633b561afc146103e457600080fd5b806302860bac1461026c578063127fec131461028e57806316c38b3c146102cb5780631a1feae1146102eb5780631e2eaeaf14610310575b600080fd5b34801561027857600080fd5b5061028c610287366004613f34565b610adc565b005b34801561029a57600080fd5b5060d4546102ae906001600160a01b031681565b6040516001600160a01b0390911681526020015b60405180910390f35b3480156102d757600080fd5b5061028c6102e6366004613f8f565b610b45565b3480156102f757600080fd5b506103026101395481565b6040519081526020016102c2565b34801561031c57600080fd5b5061030261032b366004613fac565b5490565b34801561033b57600080fd5b5061028c61034a366004613fd7565b610ba3565b34801561035b57600080fd5b5061028c61036a366004614018565b610c52565b34801561037b57600080fd5b5061038f61038a3660046141e6565b610c95565b604080519283526020830191909152016102c2565b3480156103b057600080fd5b5061028c6103bf366004614018565b610ce5565b3480156103d057600080fd5b5061028c6103df366004614225565b610d24565b3480156103f057600080fd5b506104046103ff366004613fac565b610dbf565b6040516102c29493929190614262565b34801561042057600080fd5b5061028c61042f3660046143ef565b610e63565b34801561044057600080fd5b5060d2546102ae9061010090046001600160a01b031681565b34801561046557600080fd5b506104796104743660046144b7565b610ebc565b6040516102c2919061455a565b34801561049257600080fd5b506103026104a13660046145bc565b6115f4565b3480156104b257600080fd5b5061028c6104c13660046145de565b61169b565b3480156104d257600080fd5b5061028c6104e1366004613fac565b6117a6565b3480156104f257600080fd5b506000546201000090046001600160a01b03166102ae565b34801561051657600080fd5b5060d2546105249060ff1681565b60405190151581526020016102c2565b34801561054057600080fd5b5061028c61054f36600461466f565b6117b1565b34801561056057600080fd5b5061028c61056f366004613fac565b6117c6565b34801561058057600080fd5b5061028c61058f3660046146c2565b611817565b3480156105a057600080fd5b506105b46105af3660046146fa565b6118e5565b60408051825181526020808401519082015291810151908201526060016102c2565b3480156105e257600080fd5b506103026105f1366004614739565b611920565b34801561060257600080fd5b5061030260d05481565b34801561061857600080fd5b506106ad604080516080810182526000808252602082018190529181018290526060810182905250506066546040805160808101825260685461ffff8082168352620100008204811660208401526401000000008204169282019290925266010000000000009091046001600160801b03166060820152606954606a54606b546001600160a01b039094169492939192909190565b604080516001600160a01b039096168652845161ffff9081166020808901919091528601518116878301529085015116606080870191909152909301516001600160801b0316608085015260a084019190915260c083015260e0820152610100016102c2565b34801561071f57600080fd5b506105b461072e366004614769565b6119bf565b34801561073f57600080fd5b5061028c61074e3660046145bc565b611a91565b34801561075f57600080fd5b50610302611ad4565b6104796107763660046147bb565b611b76565b34801561078757600080fd5b5061089b6107963660046147fc565b604080516080808201835260008083526020808401829052838501829052845160c08082018752838252818301849052818701849052606080830185905282860185905260a08084018690529681019290925263ffffffff978816845260648352928690208651808601885281546001600160a01b039081168252600183015481168286015260028301548116828a01528851958601895260039092015461ffff8082168752620100008204169486019490945264010000000084049098169684019690965260ff600160401b830481161515848301526901000000000000000000830416151593830193909352600160501b90049093169183019190915282015290565b6040805182516001600160a01b03908116825260208085015182168184015284840151821683850152606094850151805161ffff90811687860152918101519091166080808501919091529381015163ffffffff1660a08085019190915294810151151560c084015292830151151560e0830152919092015116610100820152610120016102c2565b34801561093057600080fd5b5060d3546102ae906001600160a01b031681565b34801561095057600080fd5b5061096461095f3660046147fc565b611cc6565b6040516102c29190614819565b34801561097d57600080fd5b5061038f61098c3660046146c2565b611d65565b34801561099d57600080fd5b5061028c6109ac3660046146c2565b611d9f565b3480156109bd57600080fd5b506105246109cc3660046147fc565b611e61565b3480156109dd57600080fd5b506001546001600160a01b03166102ae565b3480156109fb57600080fd5b50610a0f610a0a366004614885565b611e86565b6040516102c2919061490f565b348015610a2857600080fd5b5061028c610a373660046147bb565b611eb4565b348015610a4857600080fd5b50610302610a57366004613fac565b612000565b348015610a6857600080fd5b50610302610a77366004614953565b61208a565b348015610a8857600080fd5b5061038f610a9736600461497f565b6120a1565b348015610aa857600080fd5b5061038f610ab73660046149a4565b61213f565b348015610ac857600080fd5b50610302610ad73660046149ef565b612190565b6001546001600160a01b03163314801590610b0957506000546001600160a01b0362010000909104163314155b15610b2757604051636bd1573560e11b815260040160405180910390fd5b836068610b348282614a4e565b5050606a92909255606b5560695550565b6001546001600160a01b03163314801590610b7257506000546001600160a01b0362010000909104163314155b15610b9057604051636bd1573560e11b815260040160405180910390fd5b60d2805460ff1916911515919091179055565b6001546001600160a01b03163314801590610bd057506000546001600160a01b0362010000909104163314155b15610bee57604051636bd1573560e11b815260040160405180910390fd5b63ffffffff821660009081526064602052604090208190600301610c128282614b63565b9050507ff924257f2f033f654a9c9dab9dc1725c901932a7187872fda504e76a9b6412de8282604051610c46929190614c42565b60405180910390a15050565b60d25460ff1615610c76576040516313d0ff5960e31b815260040160405180910390fd5b6000610c81846121ed565b9050610c8f8482858561222c565b50505050565b60d254600090819060ff1615610cbe576040516313d0ff5960e31b815260040160405180910390fd5b6000610cc9866121ed565b9050610cd8818686600161233b565b9250925050935093915050565b60d25460ff1615610d09576040516313d0ff5960e31b815260040160405180910390fd5b6000610d14846121ed565b9050610c8f848285856001612502565b60d25461010090046001600160a01b03163314610d54576040516385734f3160e01b815260040160405180910390fd5b6000610d6f610d6660208401846146c2565b63ffffffff1690565b63ffffffff81166000908152606460205260409020549091506001600160a01b031615610d9e57610d9e614ce6565b63ffffffff811660009081526064602052604090208290610c8f8282614d1c565b600081815260d1602052604080822090516317d5ce3760e11b81526004810191909152606460248201528190606090819073e3BEEd2d7BfCa4cD203f0461E52c293d528Ea5A090632fab9c6e90604401600060405180830381865af4158015610e2c573d6000803e3d6000fd5b505050506040513d6000823e601f3d908101601f19168201604052610e549190810190615057565b93509350935093509193509193565b6001546001600160a01b03163314801590610e9057506000546001600160a01b0362010000909104163314155b15610eae57604051636bd1573560e11b815260040160405180910390fd5b610eb88282612620565b5050565b6060816001600160401b03811115610ed657610ed6614050565b604051908082528060200260200182016040528015610f0957816020015b6060815260200190600190039081610ef45790505b5090506000610f17856121ed565b90506000805b84811015611507576000868683818110610f3957610f3961515d565b9050602002810190610f4b9190615173565b610f59906020810190615193565b6007811115610f6a57610f6a614238565b1415610fc957600080878784818110610f8557610f8561515d565b9050602002810190610f979190615173565b610fa59060208101906151b4565b810190610fb29190614953565b91509150610fc28986848461222c565b50506114f5565b6001868683818110610fdd57610fdd61515d565b9050602002810190610fef9190615173565b610ffd906020810190615193565b600781111561100e5761100e614238565b1415611068576000808787848181106110295761102961515d565b905060200281019061103b9190615173565b6110499060208101906151b4565b8101906110569190614953565b91509150610fc2898684846000612502565b600286868381811061107c5761107c61515d565b905060200281019061108e9190615173565b61109c906020810190615193565b60078111156110ad576110ad614238565b141561110d5760008686838181106110c7576110c761515d565b90506020028101906110d99190615173565b6110e79060208101906151b4565b8101906110f49190613fac565b905061110388858360006127c4565b60019250506114f5565b60038686838181106111215761112161515d565b90506020028101906111339190615173565b611141906020810190615193565b600781111561115257611152614238565b14156111fc5760008087878481811061116d5761116d61515d565b905060200281019061117f9190615173565b61118d9060208101906151b4565b81019061119a91906151fa565b915091506000806111ae878585600061233b565b604080516020810184905290810182905291935091506060016040516020818303038152906040528886815181106111e8576111e861515d565b6020026020010181905250505050506114f5565b60048686838181106112105761121061515d565b90506020028101906112229190615173565b611230906020810190615193565b600781111561124157611241614238565b141561129d5760008087878481811061125c5761125c61515d565b905060200281019061126e9190615173565b61127c9060208101906151b4565b81019061128991906152db565b915091506000806111ae878585600061291f565b60058686838181106112b1576112b161515d565b90506020028101906112c39190615173565b6112d1906020810190615193565b60078111156112e2576112e2614238565b141561134c576000806000808989868181106113005761130061515d565b90506020028101906113129190615173565b6113209060208101906151b4565b81019061132d9190615309565b93509350935093506113428b85858585612a35565b50505050506114f5565b60068686838181106113605761136061515d565b90506020028101906113729190615173565b611380906020810190615193565b600781111561139157611391614238565b14156113a8576113a2876000612b36565b506114f5565b60078686838181106113bc576113bc61515d565b90506020028101906113ce9190615173565b6113dc906020810190615193565b60078111156113ed576113ed614238565b14156114a057600080600088888581811061140a5761140a61515d565b905060200281019061141c9190615173565b61142a9060208101906151b4565b810190611437919061535a565b92509250925061144b8a8484846000612ca0565b60408051825160208083019190915283015181830152910151606082015260800160405160208183030381529060405287858151811061148d5761148d61515d565b60200260200101819052505050506114f5565b8585828181106114b2576114b261515d565b90506020028101906114c49190615173565b6114d2906020810190615193565b604051633164e52160e11b81526004016114ec919061539c565b60405180910390fd5b806114ff816153cc565b915050610f1d565b50801561157957604051638c9f0c8960e01b8152600481018390526064602482015273e3BEEd2d7BfCa4cD203f0461E52c293d528Ea5A090638c9f0c899060440160006040518083038186803b15801561156057600080fd5b505af4158015611574573d6000803e3d6000fd5b505050505b60405163954eea2160e01b8152600481018390526001602482015260646044820181905273e3BEEd2d7BfCa4cD203f0461E52c293d528Ea5A09163954eea21910160006040518083038186803b1580156115d257600080fd5b505af41580156115e6573d6000803e3d6000fd5b5050505050505b9392505050565b600081801561167d576000611607612e0c565b5a61161291906153e7565b905061161e6044612ec4565b6116288585612b36565b92506000611634612e0c565b5a61163f91906153e7565b61164990836153ff565b90508083111561167657604051634010928f60e01b815260048101849052602481018290526044016114ec565b5050611694565b6116876044612ec4565b6116918484612b36565b91505b5092915050565b600054610100900460ff166116b65760005460ff16156116ba565b303b155b6116d65760405162461bcd60e51b81526004016114ec90615416565b600054610100900460ff161580156116f8576000805461ffff19166101011790555b60d28054610100600160a81b0319166101006001600160a01b038a81169190910291909117909155606780546001600160a01b03199081168984161790915560d38054821687841617905560d48054821685841617905560668054909116858316179055604080516060810182529187168252603c6020830152600190820152611783908790612620565b61178b612ef1565b801561179d576000805461ff00191690555b50505050505050565b610eb8816000612b36565b6117bf848484846000612a35565b5050505050565b6001546001600160a01b031633148015906117f357506000546001600160a01b0362010000909104163314155b1561181157604051636bd1573560e11b815260040160405180910390fd5b61013955565b6001546001600160a01b0316331480159061184457506000546001600160a01b0362010000909104163314155b1561186257604051636bd1573560e11b815260040160405180910390fd5b6001600160a01b0381166118895760405163d92e233d60e01b815260040160405180910390fd5b6001546040516001600160a01b038084169216907f39355f2f5c8206286978f443aa8126bbd29fa09c53c04569502647f3a59c8cb290600090a3600180546001600160a01b0319166001600160a01b0392909216919091179055565b61190960405180606001604052806000815260200160008152602001600081525090565b611917858585856000612ca0565b95945050505050565b600082815260d16020526040808220905163c2e75b3560e01b8152600481019190915263ffffffff8316602482015260646044820181905273e3BEEd2d7BfCa4cD203f0461E52c293d528Ea5A09163c2e75b359101602060405180830381865af4158015611992573d6000803e3d6000fd5b505050506040513d601f19601f820116820180604052508101906119b69190615464565b90505b92915050565b6119e360405180606001604052806000815260200160008152602001600081525090565b818015611a6d5760006119f4612e0c565b5a6119ff91906153e7565b9050611a0b60a4612ec4565b611a188888888888612ca0565b92506000611a24612e0c565b5a611a2f91906153e7565b611a3990836153ff565b905080831115611a6657604051634010928f60e01b815260048101849052602481018290526044016114ec565b5050611a87565b611a7760a4612ec4565b611a848787878787612ca0565b91505b5095945050505050565b60d25460ff1615611ab5576040516313d0ff5960e31b815260040160405180910390fd5b6000611ac0836121ed565b9050611acf83828460016127c4565b505050565b60d25460009060ff1615611afb576040516313d0ff5960e31b815260040160405180910390fd5b5060d054611b0a8160016153e7565b60d055600081815260d160205260409081902080546001600160a01b0319163390811782556001820184905591519091907f7325fb14450d3e5eb288c620b4ff1d6b43a41b33b4a4f143ae88cd4c12f99ea390611b6a9085815260200190565b60405180910390a25090565b6060816001600160401b03811115611b9057611b90614050565b604051908082528060200260200182016040528015611bc357816020015b6060815260200190600190039081611bae5790505b50905060005b828110156116945760008030868685818110611be757611be761515d565b9050602002810190611bf991906151b4565b604051611c0792919061547d565b600060405180830381855af49150503d8060008114611c42576040519150601f19603f3d011682016040523d82523d6000602084013e611c47565b606091505b509150915081611c9357604481511015611c6057600080fd5b60048101905080806020019051810190611c7a919061548d565b60405162461bcd60e51b81526004016114ec9190615520565b80848481518110611ca657611ca661515d565b602002602001018190525050508080611cbe906153cc565b915050611bc9565b611cf960408051808201825260008082528251606081018452818152602081810183905293810191909152909182015290565b5063ffffffff9081166000908152606560209081526040918290208251808401845281546001600160a01b03908116825284516060810186526001909301549081168352600160a01b810490951682840152600160c01b90940460ff1615159281019290925282015290565b60008063ffffffff83811690611d80908290606490612efc16565b9250611d9763ffffffff80831690606490612f6d16565b915050915091565b6000546001600160a01b0362010000909104163314611dd157604051636bd1573560e11b815260040160405180910390fd5b6001600160a01b038116611df85760405163d92e233d60e01b815260040160405180910390fd5b600080546040516001600160a01b03808516936201000090930416917f5f56bee8cffbe9a78652a74a60705edede02af10b0bbb888ca44b79a0d42ce8091a3600080546001600160a01b03909216620100000262010000600160b01b0319909216919091179055565b63ffffffff81166000908152606460205260408120546001600160a01b0316156119b9565b606060208251028201602001602083015b81811015611eac578051548152602001611e97565b509192915050565b6000805b82811015611fd7576000848483818110611ed457611ed461515d565b9050602002016020810190611ee991906146c2565b6001600160a01b0316635e622abc6040518163ffffffff1660e01b81526004016020604051808303816000875af1158015611f28573d6000803e3d6000fd5b505050506040513d601f19601f82011682018060405250810190611f4c9190615464565b9050848483818110611f6057611f6061515d565b9050602002016020810190611f7591906146c2565b6001600160a01b03167f4b5237f428d31406cf0f93a4ab5fd11482f2fe9a1420271368d67e83496346c482604051611faf91815260200190565b60405180910390a2611fc181846153e7565b9250508080611fcf906153cc565b915050611eb8565b50611acf611fed6001546001600160a01b031690565b6067546001600160a01b03169083612f94565b600081815260d160205260408082209051631d51169760e11b815260048101919091526064602482015273e3BEEd2d7BfCa4cD203f0461E52c293d528Ea5A090633aa22d2e90604401602060405180830381865af4158015612066573d6000803e3d6000fd5b505050506040513d601f19601f820116820180604052508101906119b99190615464565b6000612094611ad4565b90506119b9818484610c52565b600082815260d160205260408082209051631361754b60e11b815260048101919091528215156024820152606460448201819052829173e3BEEd2d7BfCa4cD203f0461E52c293d528Ea5A0916326c2ea9691016040805180830381865af4158015612110573d6000803e3d6000fd5b505050506040513d601f19601f820116820180604052508101906121349190615533565b909590945092505050565b60d254600090819060ff1615612168576040516313d0ff5960e31b815260040160405180910390fd5b6000612173866121ed565b9050610cd8818661218936889003880188615557565b600161291f565b60008180156121c75760006121a3612e0c565b5a6121ae91906153e7565b90506121ba60a4612ec4565b611a188888888888612a35565b6121d160a4612ec4565b611a848787878787612a35565b6001600160a01b03163b151590565b600081815260d16020526040902080546001600160a01b0316331461222757604051630504a20d60e01b81523360048201526024016114ec565b919050565b60d25460ff1615612250576040516313d0ff5960e31b815260040160405180910390fd5b600061225d836001612ff7565b8054909150612277906001600160a01b0316333085613081565b8054604051631b2d4e8960e01b8152600481018690526001600160a01b0390911660248201526044810183905273e3BEEd2d7BfCa4cD203f0461E52c293d528Ea5A090631b2d4e899060640160006040518083038186803b1580156122db57600080fd5b505af41580156122ef573d6000803e3d6000fd5b505050508263ffffffff16857f140a300799eb131618deabe75fb6ab5c112fd5dda9003db6dcad7fdda6870d6b8460405161232c91815260200190565b60405180910390a35050505050565b60d254600090819060ff1615612364576040516313d0ff5960e31b815260040160405180910390fd5b61236d856130b9565b5060408051638d9c6c9560e01b81526004810188905263ffffffff871660248201528551604482015260208601516001600160a01b031660648083019190915291860151151560848201526060860151151560a482015260c481019190915283151560e482015273e3BEEd2d7BfCa4cD203f0461E52c293d528Ea5A090638d9c6c9590610104016040805180830381865af4158015612410573d6000803e3d6000fd5b505050506040513d601f19601f820116820180604052508101906124349190615533565b9092509050600061244482613149565b606b5490915081101561246d576040516312b6b5cd60e11b8152600481018290526024016114ec565b60208501516001600160a01b03161580159061248b57508460600151155b156124f857846040015180156124b2575084516124a790613149565b6124b083613149565b145b806124db575084604001511580156124db575084516124d090613149565b6124d984613149565b145b6124f8576040516307a1db0760e01b815260040160405180910390fd5b5094509492505050565b60d25460ff1615612526576040516313d0ff5960e31b815260040160405180910390fd5b6000612533846000612ff7565b80546040516341901e3560e11b8152600481018890526001600160a01b03909116602482015260448101859052606480820152831515608482015290915073e3BEEd2d7BfCa4cD203f0461E52c293d528Ea5A0906383203c6a9060a40160006040518083038186803b1580156125a857600080fd5b505af41580156125bc573d6000803e3d6000fd5b505082546125d792506001600160a01b031690503385612f94565b8363ffffffff16867f6712d02eeb44c9634ac11d295d8bed26907e3dbea480db7be11fcd8cf8fdd2058560405161261091815260200190565b60405180910390a3505050505050565b63ffffffff82166001600160a01b038316612651576040516376d8a93160e01b8152600060048201526024016114ec565b63ffffffff81166000908152606560205260409020546001600160a01b0316151580156126aa575063ffffffff8082166000908152606560205260409020546126a8916001600160a01b0390911690859061316416565b155b156126f35763ffffffff81166000908152606560205260409081902054905163a5d4d0b560e01b81526001600160a01b03808616600483015290911660248201526044016114ec565b6040805180820182526001600160a01b038581168252602080830186815263ffffffff868116600090815260658452869020945185546001600160a01b03191690851617855590518051600190950180549382015191870151959094166001600160c01b031990931692909217600160a01b92909116919091021760ff60c01b1916600160c01b92151592909202919091179055517f52983c04d8ccd4808cd0fcb24e6e48106ecb41e803d6270c6c94a15e3ebd08d2906127b79085908590615573565b60405180910390a1505050565b60d25460ff16156127e8576040516313d0ff5960e31b815260040160405180910390fd5b8161281f5760405162461bcd60e51b815260206004820152600760248201526608585b5bdd5b9d60ca1b60448201526064016114ec565b604051632f342a3560e11b815260048101849052602481018390526064604482018190528215159082015273e3BEEd2d7BfCa4cD203f0461E52c293d528Ea5A090635e68546a9060840160006040518083038186803b15801561288157600080fd5b505af4158015612895573d6000803e3d6000fd5b5050505060008213156128bf576067546128ba906001600160a01b0316333085613081565b6128df565b6128df336128cc846155b5565b6067546001600160a01b03169190612f94565b837fb4604a31ce2914796ae6383c67cee47a3cb969b59a7dba0d06edcab53ff96a848360405161291191815260200190565b60405180910390a250505050565b60d254600090819060ff1615612948576040516313d0ff5960e31b815260040160405180910390fd5b612951856130b9565b5060608401516001600160a01b031615612978576129788585606001518660800151613175565b604051633f72434160e11b815273e3BEEd2d7BfCa4cD203f0461E52c293d528Ea5A090637ee48682906129b8908990899089906064908a906004016155d2565b6040805180830381865af41580156129d4573d6000803e3d6000fd5b505050506040513d601f19601f820116820180604052508101906129f89190615533565b90925090506000612a0c8684846064613211565b606b549091508110156124f8576040516312b6b5cd60e11b8152600481018290526024016114ec565b60d25460009060ff1615612a5c576040516313d0ff5960e31b815260040160405180910390fd5b600086815260d160205260409020612a73866130b9565b50612a7d83613252565b606a54612a8a91906153e7565b6040516321c7fd4b60e21b81526004810183905263ffffffff88166024820152600287810b604483015286900b6064808301919091526084820183905260a482015290925073e3BEEd2d7BfCa4cD203f0461E52c293d528Ea5A09063871ff52c9060c40160006040518083038186803b158015612b0657600080fd5b505af4158015612b1a573d6000803e3d6000fd5b5050606754611a8792506001600160a01b031690503384612f94565b60d25460009060ff1615612b5d576040516313d0ff5960e31b815260040160405180910390fd5b600083815260d1602052604081209073e3BEEd2d7BfCa4cD203f0461E52c293d528Ea5A06379452b2383612b9087613252565b6040516001600160e01b031960e085901b16815260048101929092526024820152606460448201819052016040805180830381865af4158015612bd7573d6000803e3d6000fd5b505050506040513d601f19601f82011682018060405250810190612bfb9190615533565b90935090506000612c0c8285615676565b905060008413612c325760405163ef37dcc760e01b8152600481018590526024016114ec565b606754612c49906001600160a01b03163386612f94565b612c5282613362565b6040805182815260208101869052908101839052339087907f914a6aef8c0c1a591157ee7d71dfbd71d1d7df090d3ec047f8eac01fc21b2f439060600160405180910390a350505092915050565b612cc460405180606001604052806000815260200160008152602001600081525090565b60d25460ff1615612ce8576040516313d0ff5960e31b815260040160405180910390fd5b6127108361ffff161115612d0f576040516348d69f3560e01b815260040160405180910390fd5b600085815260d160205260409020612d26856130b9565b50600087815260d16020526040812073e3BEEd2d7BfCa4cD203f0461E52c293d528Ea5A09063f41fadc9908490888a612d5e8a613252565b6040516001600160e01b031960e088901b1681526004810195909552602485019390935261ffff909116604484015263ffffffff16606483810191909152608483019190915260a4820152600160c482015260e401608060405180830381865af4158015612dd0573d6000803e3d6000fd5b505050506040513d601f19601f82011682018060405250810190612df491906156b7565b93509050612e0181613362565b505095945050505050565b60408051600481526024810182526020810180516001600160e01b031663a94597ff60e01b179052905160009182918291606491612e4a9190615710565b600060405180830381855afa9150503d8060008114612e85576040519150601f19603f3d011682016040523d82523d6000602084013e612e8a565b606091505b5091509150811580612e9b57508051155b15612ea95760009250505090565b80806020019051810190612ebd9190615464565b9250505090565b36811015612eee57604051634219202560e01b8152366004820152602481018290526044016114ec565b50565b33612eee81806133ee565b63ffffffff82811660009081526020839052604080822060030154905163dd86c10160e01b8152640100000000820490931660048401529091600160501b9091046001600160a01b03169063dd86c10190602401602060405180830381865afa158015611992573d6000803e3d6000fd5b60006119b6612f8663ffffffff8086169085906134fc16565b6001600160a01b031661353e565b6040516001600160a01b038316602482015260448101829052611acf90849063a9059cbb60e01b906064015b60408051601f198184030181529190526020810180516001600160e01b03166001600160e01b0319909316929092179091526135ab565b63ffffffff8216600090815260656020526040902080546001600160a01b031661303c5760405163b087c8c360e01b815263ffffffff841660048201526024016114ec565b81801561305557506001810154600160c01b900460ff16155b156119b957805460405163a006afaf60e01b81526001600160a01b0390911660048201526024016114ec565b6040516001600160a01b0380851660248301528316604482015260648101829052610c8f9085906323b872dd60e01b90608401612fc0565b63ffffffff81166000908152606460205260409020546001600160a01b0316806130fe5760405163b087c8c360e01b815263ffffffff831660048201526024016114ec565b63ffffffff8216600090815260646020526040902060030154600160401b900460ff1661222757604051631079472960e21b81526001600160a01b03821660048201526024016114ec565b60008082136131605761315b826155b5565b6119b9565b5090565b6001600160a01b0390811691161490565b600061318c63ffffffff8086169060649061367d16565b90506000836001600160a01b0316826001600160a01b0316116131b8576131b38285615722565b6131c2565b6131c28483615722565b90506127106131d58561ffff861661574a565b6131df919061578f565b6001600160a01b0316816001600160a01b031611156117bf576040516307a1db0760e01b815260040160405180910390fd5b600061321c836136a8565b61324861323363ffffffff808916908690612f6d16565b600160801b613241886136a8565b91906136b3565b61191791906153e7565b60003a610139548111156132885761013954604051638dfe587d60e01b81526114ec918391600401918252602082015260400190565b82158061329e575060d4546001600160a01b0316155b156132ac576000915061335c565b6000333214156132c1576132be613761565b90505b60006132cd3a866157b5565b60d45460405163dd86c10160e01b815261012c60048201529192506000916001600160a01b039091169063dd86c10190602401602060405180830381865afa15801561331d573d6000803e3d6000fd5b505050506040513d601f19601f820116820180604052508101906133419190615464565b905061335681600160801b61324185876153e7565b94505050505b50919050565b60008113156133885760d354606754612eee916001600160a01b03918216911683612f94565b60d3546001600160a01b031663379607f56133a2836155b5565b6040518263ffffffff1660e01b81526004016133c091815260200190565b600060405180830381600087803b1580156133da57600080fd5b505af11580156117bf573d6000803e3d6000fd5b600054610100900460ff166134095760005460ff161561340d565b303b155b6134295760405162461bcd60e51b81526004016114ec90615416565b600054610100900460ff1615801561344b576000805461ffff19166101011790555b6000805462010000600160b01b031916620100006001600160a01b0386169081029190911782556040519091907f5f56bee8cffbe9a78652a74a60705edede02af10b0bbb888ca44b79a0d42ce80908290a3600180546001600160a01b0319166001600160a01b0384169081179091556040516000907f39355f2f5c8206286978f443aa8126bbd29fa09c53c04569502647f3a59c8cb2908290a38015611acf576000805461ff0019169055505050565b63ffffffff8083166000908152602083905260408120600381015460019091015491926119b6926001600160a01b031691640100000000900481169061379f16565b60006401000276a36001600160a01b0383161080613579575073fffd8963efd1fc6a506488495d951d5263988d266001600160a01b03831610155b156135a257604051635d236c4560e01b81526001600160a01b03831660048201526024016114ec565b6119b9826137c0565b6000613600826040518060400160405280602081526020017f5361666545524332303a206c6f772d6c6576656c2063616c6c206661696c6564815250856001600160a01b03166137da9092919063ffffffff16565b805190915015611acf578080602001905181019061361e91906157d4565b611acf5760405162461bcd60e51b815260206004820152602a60248201527f5361666545524332303a204552433230206f7065726174696f6e20646964206e6044820152691bdd081cdd58d8d9595960b21b60648201526084016114ec565b63ffffffff82166000908152602082905260408120600101546119b6906001600160a01b03166137f1565b60006119b982613149565b6000808060001985870985870292508281108382030391505080600014156136ed57600084116136e257600080fd5b5082900490506115ed565b8084116136f957600080fd5b600084868809851960019081018716968790046003810260029081188083028203028083028203028083028203028083028203028083028203029182029003026000889003889004909101858311909403939093029303949094049190911702949350505050565b60408051600481526024810182526020810180516001600160e01b031663637bef0760e11b179052905160009182918291606491612e4a9190615710565b6000806137b56001600160a01b0385168461387b565b905061169181613a97565b60006119b96001600160a01b03831680600160401b6136b3565b60606137e98484600085613dca565b949350505050565b600080826001600160a01b0316633850c7bd6040518163ffffffff1660e01b815260040160e060405180830381865afa158015613832573d6000803e3d6000fd5b505050506040513d601f19601f8201168201806040525081019061385691906157f1565b509496509294505050506001600160a01b0383161515905061335c576115ed81613a97565b600063ffffffff82166138a4576040516351a4d88160e01b8152600060048201526024016114ec565b60408051600280825260608201835260009260208301908036833701905050905082816000815181106138d9576138d961515d565b602002602001019063ffffffff16908163ffffffff16815250506000816001815181106139085761390861515d565b63ffffffff9092166020928302919091019091015260405163883bdbfd60e01b81526001600160a01b0385169063883bdbfd90613949908490600401615893565b600060405180830381865afa92505050801561398757506040513d6000823e601f3d908101601f191682016040526139849190810190615935565b60015b6139fc57836001600160a01b0316633850c7bd6040518163ffffffff1660e01b815260040160e060405180830381865afa1580156139c9573d6000803e3d6000fd5b505050506040513d601f19601f820116820180604052508101906139ed91906157f1565b50939650611694945050505050565b600082600081518110613a1157613a1161515d565b602002602001015183600181518110613a2c57613a2c61515d565b6020026020010151613a3e9190615a00565b90506000613a5263ffffffff881683615a50565b905060008260060b128015613a785750613a7263ffffffff881683615a8e565b60060b15155b15613a8b5780613a8781615ab0565b9150505b94506119b99350505050565b60008060008360020b12613aae578260020b613ab6565b8260020b6000035b9050620d89e8811115613aef5760405162461bcd60e51b81526020600482015260016024820152601560fa1b60448201526064016114ec565b600060018216613b0357600160801b613b15565b6ffffcb933bd6fad37aa2d162d1a5940015b70ffffffffffffffffffffffffffffffffff1690506002821615613b49576ffff97272373d413259a46990580e213a0260801c5b6004821615613b68576ffff2e50f5f656932ef12357cf3c7fdcc0260801c5b6008821615613b87576fffe5caca7e10e4e61c3624eaa0941cd00260801c5b6010821615613ba6576fffcb9843d60f6159c9db58835c9266440260801c5b6020821615613bc5576fff973b41fa98c081472e6896dfb254c00260801c5b6040821615613be4576fff2ea16466c96a3843ec78b326b528610260801c5b6080821615613c03576ffe5dee046a99a2a811c461f1969c30530260801c5b610100821615613c23576ffcbe86c7900a88aedcffc83b479aa3a40260801c5b610200821615613c43576ff987a7253ac413176f2b074cf7815e540260801c5b610400821615613c63576ff3392b0822b70005940c7a398e4b70f30260801c5b610800821615613c83576fe7159475a2c29b7443b29c7fa6e889d90260801c5b611000821615613ca3576fd097f3bdfd2022b8845ad8f792aa58250260801c5b612000821615613cc3576fa9f746462d870fdf8a65dc1f90e061e50260801c5b614000821615613ce3576f70d869a156d2a1b890bb3df62baf32f70260801c5b618000821615613d03576f31be135f97d08fd981231505542fcfa60260801c5b62010000821615613d24576f09aa508b5b7a84e1c677de54f3e99bc90260801c5b62020000821615613d44576e5d6af8dedb81196699c329225ee6040260801c5b62040000821615613d63576d2216e584f5fa1ea926041bedfe980260801c5b62080000821615613d80576b048a170391f7dc42444e8fa20260801c5b60008460020b1315613da1578060001981613d9d57613d9d615779565b0490505b640100000000810615613db5576001613db8565b60005b60ff16602082901c0192505050919050565b606082471015613e2b5760405162461bcd60e51b815260206004820152602660248201527f416464726573733a20696e73756666696369656e742062616c616e636520666f6044820152651c8818d85b1b60d21b60648201526084016114ec565b6001600160a01b0385163b613e825760405162461bcd60e51b815260206004820152601d60248201527f416464726573733a2063616c6c20746f206e6f6e2d636f6e747261637400000060448201526064016114ec565b600080866001600160a01b03168587604051613e9e9190615710565b60006040518083038185875af1925050503d8060008114613edb576040519150601f19603f3d011682016040523d82523d6000602084013e613ee0565b606091505b5091509150613ef0828286613efb565b979650505050505050565b60608315613f0a5750816115ed565b825115613f1a5782518084602001fd5b8160405162461bcd60e51b81526004016114ec9190615520565b60008060008084860360e0811215613f4b57600080fd5b6080811215613f5957600080fd5b5093956080870135955060a0870135945060c08701359350915050565b8015158114612eee57600080fd5b803561222781613f76565b600060208284031215613fa157600080fd5b81356115ed81613f76565b600060208284031215613fbe57600080fd5b5035919050565b63ffffffff81168114612eee57600080fd5b60008082840360e0811215613feb57600080fd5b8335613ff681613fc5565b925060c0601f198201121561400a57600080fd5b506020830190509250929050565b60008060006060848603121561402d57600080fd5b83359250602084013561403f81613fc5565b929592945050506040919091013590565b634e487b7160e01b600052604160045260246000fd5b604051606081016001600160401b038111828210171561408857614088614050565b60405290565b60405160a081016001600160401b038111828210171561408857614088614050565b60405161012081016001600160401b038111828210171561408857614088614050565b604080519081016001600160401b038111828210171561408857614088614050565b60405160e081016001600160401b038111828210171561408857614088614050565b604051601f8201601f191681016001600160401b038111828210171561413f5761413f614050565b604052919050565b6001600160a01b0381168114612eee57600080fd5b803561222781614147565b60006080828403121561417957600080fd5b604051608081018181106001600160401b038211171561419b5761419b614050565b6040528235815290508060208301356141b381614147565b602082015260408301356141c681613f76565b604082015260608301356141d981613f76565b6060919091015292915050565b600080600060c084860312156141fb57600080fd5b83359250602084013561420d81613fc5565b915061421c8560408601614167565b90509250925092565b6000610120828403121561335c57600080fd5b634e487b7160e01b600052602160045260246000fd5b6003811061425e5761425e614238565b9052565b6000608080830160018060a01b038089168552602088818701526040848188015283895180865260a089019150838b01955060005b818110156142be578651805187168452850151858401529584019591830191600101614297565b5050878103606089015288518082528382019550600581901b82018401848b0160005b838110156143db57848303601f19018952815180518916845287810151888501528681015187850152606080820151908501528a015160a08b850181905281519085018190529088019060009060c08601905b808310156143c657835161434983825161424e565b8b8101518060020b8d850152508a81015160020b8b840152606081015161437b60608501826001600160801b03169052565b508e8101518f84015260a081015160a084015260c081015160c084015260e081015160e084015261010080820151818501525050610120820191508a84019350600183019250614334565b509a89019a94505050908601906001016142e1565b50909e9d5050505050505050505050505050565b600080828403608081121561440357600080fd5b833561440e81614147565b92506060601f198201121561442257600080fd5b5061442b614066565b602084013561443981614147565b8152604084013561444981613fc5565b6020820152606084013561445c81613f76565b6040820152919491935090915050565b60008083601f84011261447e57600080fd5b5081356001600160401b0381111561449557600080fd5b6020830191508360208260051b85010111156144b057600080fd5b9250929050565b6000806000604084860312156144cc57600080fd5b8335925060208401356001600160401b038111156144e957600080fd5b6144f58682870161446c565b9497909650939450505050565b60005b8381101561451d578181015183820152602001614505565b83811115610c8f5750506000910152565b60008151808452614546816020860160208601614502565b601f01601f19169290920160200192915050565b6000602080830181845280855180835260408601915060408160051b870101925083870160005b828110156145af57603f1988860301845261459d85835161452e565b94509285019290850190600101614581565b5092979650505050505050565b600080604083850312156145cf57600080fd5b50508035926020909101359150565b60008060008060008060c087890312156145f757600080fd5b863561460281614147565b9550602087013561461281614147565b9450604087013561462281614147565b9350606087013561463281614147565b9250608087013561464281614147565b915060a087013561465281614147565b809150509295509295509295565b8060020b8114612eee57600080fd5b6000806000806080858703121561468557600080fd5b84359350602085013561469781613fc5565b925060408501356146a781614660565b915060608501356146b781614660565b939692955090935050565b6000602082840312156146d457600080fd5b81356115ed81614147565b61ffff81168114612eee57600080fd5b8035612227816146df565b6000806000806080858703121561471057600080fd5b8435935060208501359250604085013561472981613fc5565b915060608501356146b7816146df565b6000806040838503121561474c57600080fd5b82359150602083013561475e81613fc5565b809150509250929050565b600080600080600060a0868803121561478157600080fd5b8535945060208601359350604086013561479a81613fc5565b925060608601356147aa816146df565b949793965091946080013592915050565b600080602083850312156147ce57600080fd5b82356001600160401b038111156147e457600080fd5b6147f08582860161446c565b90969095509350505050565b60006020828403121561480e57600080fd5b81356115ed81613fc5565b81516001600160a01b0316815260208083015160808301916116949084018280516001600160a01b0316825260208082015163ffffffff16908301526040908101511515910152565b60006001600160401b0382111561487b5761487b614050565b5060051b60200190565b6000602080838503121561489857600080fd5b82356001600160401b038111156148ae57600080fd5b8301601f810185136148bf57600080fd5b80356148d26148cd82614862565b614117565b81815260059190911b820183019083810190878311156148f157600080fd5b928401925b82841015613ef0578335825292840192908401906148f6565b6020808252825182820181905260009190848201906040850190845b818110156149475783518352928401929184019160010161492b565b50909695505050505050565b6000806040838503121561496657600080fd5b823561497181613fc5565b946020939093013593505050565b6000806040838503121561499257600080fd5b82359150602083013561475e81613f76565b60008060008385036101208112156149bb57600080fd5b8435935060208501356149cd81613fc5565b925060e0603f19820112156149e157600080fd5b506040840190509250925092565b600080600080600060a08688031215614a0757600080fd5b853594506020860135614a1981613fc5565b93506040860135614a2981614660565b925060608601356147aa81614660565b6001600160801b0381168114612eee57600080fd5b8135614a59816146df565b815461ffff191661ffff8216178255506020820135614a77816146df565b815463ffff00001916601082901b63ffff000016178255506040820135614a9d816146df565b815465ffff000000008260201b1691508165ffff000000001982161783556060840135614ac981614a39565b75ffffffffffffffffffffffffffffffff0000000000008160301b168375ffffffffffffffffffffffffffffffffffff00000000198416171784555050505050565b600081356119b981613f76565b600081356119b981614147565b80547fffff0000000000000000000000000000000000000000ffffffffffffffffffff1660509290921b600160501b600160f01b0316919091179055565b8135614b6e816146df565b815461ffff191661ffff8216178255506020820135614b8c816146df565b815463ffff00001916601082901b63ffff000016178255506040820135614bb281613fc5565b815467ffffffff000000008260201b1691508167ffffffff000000001982161783556060840135614be281613f76565b68ffffffffff00000000199190911690911790151560401b60ff60401b161781556080820135614c1181613f76565b815460ff60481b191681151560481b60ff60481b161782555060a0820135614c3881614147565b611acf8183614b25565b63ffffffff838116825260e08201908335614c5c816146df565b61ffff808216602086015260208601359150614c77826146df565b16604084810191909152840135614c8d81613fc5565b16606083810191909152830135614ca381613f76565b8015156080840152506080830135614cba81613f76565b80151560a084015250614ccf60a0840161415c565b6001600160a01b03811660c0840152509392505050565b634e487b7160e01b600052600160045260246000fd5b80546001600160a01b0319166001600160a01b0392909216919091179055565b8135614d2781614147565b614d318183614cfc565b506020820135614d4081614147565b614d4d8160018401614cfc565b506040820135614d5c81614147565b614d698160028401614cfc565b50600381016060830135614d7c816146df565b815461ffff191661ffff8216178255506080830135614d9a816146df565b815463ffff00001916601082901b63ffff0000161782555060a0830135614dc081613fc5565b815467ffffffff000000008260201b1691508167ffffffff0000000019821617835560c0850135614df081613f76565b68ffffffffff00000000199190911690911790151560401b60ff60401b16178155614e3e614e2060e08501614b0b565b82805460ff60481b191691151560481b60ff60481b16919091179055565b611acf614e4e6101008501614b18565b82614b25565b60038110612eee57600080fd5b805161222781614e54565b805161222781614660565b805161222781614a39565b600082601f830112614e9357600080fd5b81516020614ea36148cd83614862565b82815260059290921b84018101918181019086841115614ec257600080fd5b8286015b8481101561504c5780516001600160401b0380821115614ee557600080fd5b9088019060a0828b03601f19011215614efd57600080fd5b614f0561408e565b86830151614f1281614147565b80825250604083015187820152606083015160408201526080830151606082015260a083015182811115614f4557600080fd5b8084019350508a603f840112614f5a57600080fd5b868301519150614f6c6148cd83614862565b82815261012092830284016040019288820191908d851115614f8d57600080fd5b6040860195505b848610156150365780868f031215614fab57600080fd5b614fb36140b0565b614fbc87614e61565b8152614fc98b8801614e6c565b8b820152614fd960408801614e6c565b6040820152614fea60608801614e77565b60608201526080870151608082015260a087015160a082015260c087015160c082015260e087015160e08201526101008701516101008201528084525089830192508086019550614f94565b5060808301525085525050918301918301614ec6565b509695505050505050565b6000806000806080858703121561506d57600080fd5b845161507881614147565b8094505060208086015193506040808701516001600160401b038082111561509f57600080fd5b818901915089601f8301126150b357600080fd5b81516150c16148cd82614862565b81815260069190911b8301850190858101908c8311156150e057600080fd5b938601935b828510156151295785858e0312156150fd5760008081fd5b6151056140d3565b855161511081614147565b81528588015188820152825293850193908601906150e5565b60608c0151909850955050508084111561514257600080fd5b50505061515187828801614e82565b91505092959194509250565b634e487b7160e01b600052603260045260246000fd5b60008235603e1983360301811261518957600080fd5b9190910192915050565b6000602082840312156151a557600080fd5b8135600881106115ed57600080fd5b6000808335601e198436030181126151cb57600080fd5b8301803591506001600160401b038211156151e557600080fd5b6020019150368190038213156144b057600080fd5b60008060a0838503121561520d57600080fd5b823561521881613fc5565b91506152278460208501614167565b90509250929050565b803561222781614e54565b600060e0828403121561524d57600080fd5b6152556140f5565b9050813561526281614660565b8152602082013561527281614660565b60208201526040820135600f81900b811461528c57600080fd5b604082015261529d6060830161415c565b60608201526152ae608083016146ef565b60808201526152bf60a08301613f84565b60a08201526152d060c08301615230565b60c082015292915050565b60008061010083850312156152ef57600080fd5b82356152fa81613fc5565b9150615227846020850161523b565b6000806000806080858703121561531f57600080fd5b843561532a81613fc5565b9350602085013561533a81614660565b9250604085013561534a81614660565b9396929550929360600135925050565b60008060006060848603121561536f57600080fd5b83359250602084013561538181613fc5565b91506040840135615391816146df565b809150509250925092565b60208101600883106153b0576153b0614238565b91905290565b634e487b7160e01b600052601160045260246000fd5b60006000198214156153e0576153e06153b6565b5060010190565b600082198211156153fa576153fa6153b6565b500190565b600082821015615411576154116153b6565b500390565b6020808252602e908201527f496e697469616c697a61626c653a20636f6e747261637420697320616c72656160408201526d191e481a5b9a5d1a585b1a5e995960921b606082015260800190565b60006020828403121561547657600080fd5b5051919050565b8183823760009101908152919050565b60006020828403121561549f57600080fd5b81516001600160401b03808211156154b657600080fd5b818401915084601f8301126154ca57600080fd5b8151818111156154dc576154dc614050565b6154ef601f8201601f1916602001614117565b915080825285602082850101111561550657600080fd5b615517816020840160208601614502565b50949350505050565b6020815260006119b6602083018461452e565b6000806040838503121561554657600080fd5b505080516020909101519092909150565b600060e0828403121561556957600080fd5b6119b6838361523b565b6001600160a01b0383168152608081016115ed602083018480516001600160a01b0316825260208082015163ffffffff16908301526040908101511515910152565b6000600160ff1b8214156155cb576155cb6153b6565b5060000390565b60006101608201905086825263ffffffff86166020830152845160020b6040830152602085015160020b60608301526040850151600f0b608083015260018060a01b0360608601511660a083015261ffff60808601511660c083015260a085015161564160e084018215159052565b5060c085015161565561010084018261424e565b508361012083015261566c61014083018415159052565b9695505050505050565b600080821280156001600160ff1b0384900385131615615698576156986153b6565b600160ff1b83900384128116156156b1576156b16153b6565b50500190565b60008082840360808112156156cb57600080fd5b835192506060601f19820112156156e157600080fd5b506156ea614066565b602084015181526040840151602082015260608401516040820152809150509250929050565b60008251615189818460208701614502565b60006001600160a01b0383811690831681811015615742576157426153b6565b039392505050565b60006001600160a01b0382811684821681151582840482111615615770576157706153b6565b02949350505050565b634e487b7160e01b600052601260045260246000fd5b60006001600160a01b03838116806157a9576157a9615779565b92169190910492915050565b60008160001904831182151516156157cf576157cf6153b6565b500290565b6000602082840312156157e657600080fd5b81516115ed81613f76565b600080600080600080600060e0888a03121561580c57600080fd5b875161581781614147565b602089015190975061582881614660565b6040890151909650615839816146df565b606089015190955061584a816146df565b608089015190945061585b816146df565b60a089015190935060ff8116811461587257600080fd5b60c089015190925061588381613f76565b8091505092959891949750929550565b6020808252825182820181905260009190848201906040850190845b8181101561494757835163ffffffff16835292840192918401916001016158af565b600082601f8301126158e257600080fd5b815160206158f26148cd83614862565b82815260059290921b8401810191818101908684111561591157600080fd5b8286015b8481101561504c57805161592881614147565b8352918301918301615915565b6000806040838503121561594857600080fd5b82516001600160401b038082111561595f57600080fd5b818501915085601f83011261597357600080fd5b815160206159836148cd83614862565b82815260059290921b840181019181810190898411156159a257600080fd5b948201945b838610156159d05785518060060b81146159c15760008081fd5b825294820194908201906159a7565b918801519196509093505050808211156159e957600080fd5b506159f6858286016158d1565b9150509250929050565b60008160060b8360060b6000811281667fffffffffffff1901831281151615615a2b57615a2b6153b6565b81667fffffffffffff018313811615615a4657615a466153b6565b5090039392505050565b60008160060b8360060b80615a6757615a67615779565b667fffffffffffff19821460001982141615615a8557615a856153b6565b90059392505050565b60008260060b80615aa157615aa1615779565b808360060b0791505092915050565b60008160020b627fffff19811415615aca57615aca6153b6565b600019019291505056fea2646970667358221220205590e808f899f7804000013d5ea01fe2c100bba5430c7de264828429cb8a5064736f6c634300080c0033",
  "deployedBytecode": "0x6080604052600436106102675760003560e01c806384088b6511610144578063d257be2b116100b6578063e1f167131161007a578063e1f1671314610a1c578063e3d41c1814610a3c578063e450f6f414610a5c578063e67ed1df14610a7c578063ee6cd5ee14610a9c578063fe6f083a14610abc57600080fd5b8063d257be2b14610971578063d38bfff414610991578063dac42a96146109b1578063dbc0c085146109d1578063dbd035ff146109ef57600080fd5b80639cd1be58116101085780639cd1be58146107335780639dca362f14610753578063ac9650d814610768578063b670ed521461077b578063b790230314610924578063bc38d5421461094457600080fd5b806384088b6514610594578063847e07a6146105d65780638ce25a93146105f657806393420cf41461060c57806394c8c71d1461071357600080fd5b80633d0aea3d116101dd578063569634d3116101a1578063569634d3146104c65780635aa6e675146104e65780635c975abb1461050a5780637cc2f4f5146105345780637ec6ba31146105545780637f64d6631461057457600080fd5b80633d0aea3d146104145780633d56a35e1461043457806340c4f69b1461045957806342be9fca1461048657806349fbd58d146104a657600080fd5b80631f84fa981161022f5780631f84fa981461032f5780632afaea371461034f57806332a72d981461036f57806339359029146103a45780633a64c245146103c45780633b561afc146103e457600080fd5b806302860bac1461026c578063127fec131461028e57806316c38b3c146102cb5780631a1feae1146102eb5780631e2eaeaf14610310575b600080fd5b34801561027857600080fd5b5061028c610287366004613f34565b610adc565b005b34801561029a57600080fd5b5060d4546102ae906001600160a01b031681565b6040516001600160a01b0390911681526020015b60405180910390f35b3480156102d757600080fd5b5061028c6102e6366004613f8f565b610b45565b3480156102f757600080fd5b506103026101395481565b6040519081526020016102c2565b34801561031c57600080fd5b5061030261032b366004613fac565b5490565b34801561033b57600080fd5b5061028c61034a366004613fd7565b610ba3565b34801561035b57600080fd5b5061028c61036a366004614018565b610c52565b34801561037b57600080fd5b5061038f61038a3660046141e6565b610c95565b604080519283526020830191909152016102c2565b3480156103b057600080fd5b5061028c6103bf366004614018565b610ce5565b3480156103d057600080fd5b5061028c6103df366004614225565b610d24565b3480156103f057600080fd5b506104046103ff366004613fac565b610dbf565b6040516102c29493929190614262565b34801561042057600080fd5b5061028c61042f3660046143ef565b610e63565b34801561044057600080fd5b5060d2546102ae9061010090046001600160a01b031681565b34801561046557600080fd5b506104796104743660046144b7565b610ebc565b6040516102c2919061455a565b34801561049257600080fd5b506103026104a13660046145bc565b6115f4565b3480156104b257600080fd5b5061028c6104c13660046145de565b61169b565b3480156104d257600080fd5b5061028c6104e1366004613fac565b6117a6565b3480156104f257600080fd5b506000546201000090046001600160a01b03166102ae565b34801561051657600080fd5b5060d2546105249060ff1681565b60405190151581526020016102c2565b34801561054057600080fd5b5061028c61054f36600461466f565b6117b1565b34801561056057600080fd5b5061028c61056f366004613fac565b6117c6565b34801561058057600080fd5b5061028c61058f3660046146c2565b611817565b3480156105a057600080fd5b506105b46105af3660046146fa565b6118e5565b60408051825181526020808401519082015291810151908201526060016102c2565b3480156105e257600080fd5b506103026105f1366004614739565b611920565b34801561060257600080fd5b5061030260d05481565b34801561061857600080fd5b506106ad604080516080810182526000808252602082018190529181018290526060810182905250506066546040805160808101825260685461ffff8082168352620100008204811660208401526401000000008204169282019290925266010000000000009091046001600160801b03166060820152606954606a54606b546001600160a01b039094169492939192909190565b604080516001600160a01b039096168652845161ffff9081166020808901919091528601518116878301529085015116606080870191909152909301516001600160801b0316608085015260a084019190915260c083015260e0820152610100016102c2565b34801561071f57600080fd5b506105b461072e366004614769565b6119bf565b34801561073f57600080fd5b5061028c61074e3660046145bc565b611a91565b34801561075f57600080fd5b50610302611ad4565b6104796107763660046147bb565b611b76565b34801561078757600080fd5b5061089b6107963660046147fc565b604080516080808201835260008083526020808401829052838501829052845160c08082018752838252818301849052818701849052606080830185905282860185905260a08084018690529681019290925263ffffffff978816845260648352928690208651808601885281546001600160a01b039081168252600183015481168286015260028301548116828a01528851958601895260039092015461ffff8082168752620100008204169486019490945264010000000084049098169684019690965260ff600160401b830481161515848301526901000000000000000000830416151593830193909352600160501b90049093169183019190915282015290565b6040805182516001600160a01b03908116825260208085015182168184015284840151821683850152606094850151805161ffff90811687860152918101519091166080808501919091529381015163ffffffff1660a08085019190915294810151151560c084015292830151151560e0830152919092015116610100820152610120016102c2565b34801561093057600080fd5b5060d3546102ae906001600160a01b031681565b34801561095057600080fd5b5061096461095f3660046147fc565b611cc6565b6040516102c29190614819565b34801561097d57600080fd5b5061038f61098c3660046146c2565b611d65565b34801561099d57600080fd5b5061028c6109ac3660046146c2565b611d9f565b3480156109bd57600080fd5b506105246109cc3660046147fc565b611e61565b3480156109dd57600080fd5b506001546001600160a01b03166102ae565b3480156109fb57600080fd5b50610a0f610a0a366004614885565b611e86565b6040516102c2919061490f565b348015610a2857600080fd5b5061028c610a373660046147bb565b611eb4565b348015610a4857600080fd5b50610302610a57366004613fac565b612000565b348015610a6857600080fd5b50610302610a77366004614953565b61208a565b348015610a8857600080fd5b5061038f610a9736600461497f565b6120a1565b348015610aa857600080fd5b5061038f610ab73660046149a4565b61213f565b348015610ac857600080fd5b50610302610ad73660046149ef565b612190565b6001546001600160a01b03163314801590610b0957506000546001600160a01b0362010000909104163314155b15610b2757604051636bd1573560e11b815260040160405180910390fd5b836068610b348282614a4e565b5050606a92909255606b5560695550565b6001546001600160a01b03163314801590610b7257506000546001600160a01b0362010000909104163314155b15610b9057604051636bd1573560e11b815260040160405180910390fd5b60d2805460ff1916911515919091179055565b6001546001600160a01b03163314801590610bd057506000546001600160a01b0362010000909104163314155b15610bee57604051636bd1573560e11b815260040160405180910390fd5b63ffffffff821660009081526064602052604090208190600301610c128282614b63565b9050507ff924257f2f033f654a9c9dab9dc1725c901932a7187872fda504e76a9b6412de8282604051610c46929190614c42565b60405180910390a15050565b60d25460ff1615610c76576040516313d0ff5960e31b815260040160405180910390fd5b6000610c81846121ed565b9050610c8f8482858561222c565b50505050565b60d254600090819060ff1615610cbe576040516313d0ff5960e31b815260040160405180910390fd5b6000610cc9866121ed565b9050610cd8818686600161233b565b9250925050935093915050565b60d25460ff1615610d09576040516313d0ff5960e31b815260040160405180910390fd5b6000610d14846121ed565b9050610c8f848285856001612502565b60d25461010090046001600160a01b03163314610d54576040516385734f3160e01b815260040160405180910390fd5b6000610d6f610d6660208401846146c2565b63ffffffff1690565b63ffffffff81166000908152606460205260409020549091506001600160a01b031615610d9e57610d9e614ce6565b63ffffffff811660009081526064602052604090208290610c8f8282614d1c565b600081815260d1602052604080822090516317d5ce3760e11b81526004810191909152606460248201528190606090819073__$86182d6e9eac51236f2aa8dd2a3ddeab6c$__90632fab9c6e90604401600060405180830381865af4158015610e2c573d6000803e3d6000fd5b505050506040513d6000823e601f3d908101601f19168201604052610e549190810190615057565b93509350935093509193509193565b6001546001600160a01b03163314801590610e9057506000546001600160a01b0362010000909104163314155b15610eae57604051636bd1573560e11b815260040160405180910390fd5b610eb88282612620565b5050565b6060816001600160401b03811115610ed657610ed6614050565b604051908082528060200260200182016040528015610f0957816020015b6060815260200190600190039081610ef45790505b5090506000610f17856121ed565b90506000805b84811015611507576000868683818110610f3957610f3961515d565b9050602002810190610f4b9190615173565b610f59906020810190615193565b6007811115610f6a57610f6a614238565b1415610fc957600080878784818110610f8557610f8561515d565b9050602002810190610f979190615173565b610fa59060208101906151b4565b810190610fb29190614953565b91509150610fc28986848461222c565b50506114f5565b6001868683818110610fdd57610fdd61515d565b9050602002810190610fef9190615173565b610ffd906020810190615193565b600781111561100e5761100e614238565b1415611068576000808787848181106110295761102961515d565b905060200281019061103b9190615173565b6110499060208101906151b4565b8101906110569190614953565b91509150610fc2898684846000612502565b600286868381811061107c5761107c61515d565b905060200281019061108e9190615173565b61109c906020810190615193565b60078111156110ad576110ad614238565b141561110d5760008686838181106110c7576110c761515d565b90506020028101906110d99190615173565b6110e79060208101906151b4565b8101906110f49190613fac565b905061110388858360006127c4565b60019250506114f5565b60038686838181106111215761112161515d565b90506020028101906111339190615173565b611141906020810190615193565b600781111561115257611152614238565b14156111fc5760008087878481811061116d5761116d61515d565b905060200281019061117f9190615173565b61118d9060208101906151b4565b81019061119a91906151fa565b915091506000806111ae878585600061233b565b604080516020810184905290810182905291935091506060016040516020818303038152906040528886815181106111e8576111e861515d565b6020026020010181905250505050506114f5565b60048686838181106112105761121061515d565b90506020028101906112229190615173565b611230906020810190615193565b600781111561124157611241614238565b141561129d5760008087878481811061125c5761125c61515d565b905060200281019061126e9190615173565b61127c9060208101906151b4565b81019061128991906152db565b915091506000806111ae878585600061291f565b60058686838181106112b1576112b161515d565b90506020028101906112c39190615173565b6112d1906020810190615193565b60078111156112e2576112e2614238565b141561134c576000806000808989868181106113005761130061515d565b90506020028101906113129190615173565b6113209060208101906151b4565b81019061132d9190615309565b93509350935093506113428b85858585612a35565b50505050506114f5565b60068686838181106113605761136061515d565b90506020028101906113729190615173565b611380906020810190615193565b600781111561139157611391614238565b14156113a8576113a2876000612b36565b506114f5565b60078686838181106113bc576113bc61515d565b90506020028101906113ce9190615173565b6113dc906020810190615193565b60078111156113ed576113ed614238565b14156114a057600080600088888581811061140a5761140a61515d565b905060200281019061141c9190615173565b61142a9060208101906151b4565b810190611437919061535a565b92509250925061144b8a8484846000612ca0565b60408051825160208083019190915283015181830152910151606082015260800160405160208183030381529060405287858151811061148d5761148d61515d565b60200260200101819052505050506114f5565b8585828181106114b2576114b261515d565b90506020028101906114c49190615173565b6114d2906020810190615193565b604051633164e52160e11b81526004016114ec919061539c565b60405180910390fd5b806114ff816153cc565b915050610f1d565b50801561157957604051638c9f0c8960e01b8152600481018390526064602482015273__$86182d6e9eac51236f2aa8dd2a3ddeab6c$__90638c9f0c899060440160006040518083038186803b15801561156057600080fd5b505af4158015611574573d6000803e3d6000fd5b505050505b60405163954eea2160e01b8152600481018390526001602482015260646044820181905273__$86182d6e9eac51236f2aa8dd2a3ddeab6c$__9163954eea21910160006040518083038186803b1580156115d257600080fd5b505af41580156115e6573d6000803e3d6000fd5b5050505050505b9392505050565b600081801561167d576000611607612e0c565b5a61161291906153e7565b905061161e6044612ec4565b6116288585612b36565b92506000611634612e0c565b5a61163f91906153e7565b61164990836153ff565b90508083111561167657604051634010928f60e01b815260048101849052602481018290526044016114ec565b5050611694565b6116876044612ec4565b6116918484612b36565b91505b5092915050565b600054610100900460ff166116b65760005460ff16156116ba565b303b155b6116d65760405162461bcd60e51b81526004016114ec90615416565b600054610100900460ff161580156116f8576000805461ffff19166101011790555b60d28054610100600160a81b0319166101006001600160a01b038a81169190910291909117909155606780546001600160a01b03199081168984161790915560d38054821687841617905560d48054821685841617905560668054909116858316179055604080516060810182529187168252603c6020830152600190820152611783908790612620565b61178b612ef1565b801561179d576000805461ff00191690555b50505050505050565b610eb8816000612b36565b6117bf848484846000612a35565b5050505050565b6001546001600160a01b031633148015906117f357506000546001600160a01b0362010000909104163314155b1561181157604051636bd1573560e11b815260040160405180910390fd5b61013955565b6001546001600160a01b0316331480159061184457506000546001600160a01b0362010000909104163314155b1561186257604051636bd1573560e11b815260040160405180910390fd5b6001600160a01b0381166118895760405163d92e233d60e01b815260040160405180910390fd5b6001546040516001600160a01b038084169216907f39355f2f5c8206286978f443aa8126bbd29fa09c53c04569502647f3a59c8cb290600090a3600180546001600160a01b0319166001600160a01b0392909216919091179055565b61190960405180606001604052806000815260200160008152602001600081525090565b611917858585856000612ca0565b95945050505050565b600082815260d16020526040808220905163c2e75b3560e01b8152600481019190915263ffffffff8316602482015260646044820181905273__$86182d6e9eac51236f2aa8dd2a3ddeab6c$__9163c2e75b359101602060405180830381865af4158015611992573d6000803e3d6000fd5b505050506040513d601f19601f820116820180604052508101906119b69190615464565b90505b92915050565b6119e360405180606001604052806000815260200160008152602001600081525090565b818015611a6d5760006119f4612e0c565b5a6119ff91906153e7565b9050611a0b60a4612ec4565b611a188888888888612ca0565b92506000611a24612e0c565b5a611a2f91906153e7565b611a3990836153ff565b905080831115611a6657604051634010928f60e01b815260048101849052602481018290526044016114ec565b5050611a87565b611a7760a4612ec4565b611a848787878787612ca0565b91505b5095945050505050565b60d25460ff1615611ab5576040516313d0ff5960e31b815260040160405180910390fd5b6000611ac0836121ed565b9050611acf83828460016127c4565b505050565b60d25460009060ff1615611afb576040516313d0ff5960e31b815260040160405180910390fd5b5060d054611b0a8160016153e7565b60d055600081815260d160205260409081902080546001600160a01b0319163390811782556001820184905591519091907f7325fb14450d3e5eb288c620b4ff1d6b43a41b33b4a4f143ae88cd4c12f99ea390611b6a9085815260200190565b60405180910390a25090565b6060816001600160401b03811115611b9057611b90614050565b604051908082528060200260200182016040528015611bc357816020015b6060815260200190600190039081611bae5790505b50905060005b828110156116945760008030868685818110611be757611be761515d565b9050602002810190611bf991906151b4565b604051611c0792919061547d565b600060405180830381855af49150503d8060008114611c42576040519150601f19603f3d011682016040523d82523d6000602084013e611c47565b606091505b509150915081611c9357604481511015611c6057600080fd5b60048101905080806020019051810190611c7a919061548d565b60405162461bcd60e51b81526004016114ec9190615520565b80848481518110611ca657611ca661515d565b602002602001018190525050508080611cbe906153cc565b915050611bc9565b611cf960408051808201825260008082528251606081018452818152602081810183905293810191909152909182015290565b5063ffffffff9081166000908152606560209081526040918290208251808401845281546001600160a01b03908116825284516060810186526001909301549081168352600160a01b810490951682840152600160c01b90940460ff1615159281019290925282015290565b60008063ffffffff83811690611d80908290606490612efc16565b9250611d9763ffffffff80831690606490612f6d16565b915050915091565b6000546001600160a01b0362010000909104163314611dd157604051636bd1573560e11b815260040160405180910390fd5b6001600160a01b038116611df85760405163d92e233d60e01b815260040160405180910390fd5b600080546040516001600160a01b03808516936201000090930416917f5f56bee8cffbe9a78652a74a60705edede02af10b0bbb888ca44b79a0d42ce8091a3600080546001600160a01b03909216620100000262010000600160b01b0319909216919091179055565b63ffffffff81166000908152606460205260408120546001600160a01b0316156119b9565b606060208251028201602001602083015b81811015611eac578051548152602001611e97565b509192915050565b6000805b82811015611fd7576000848483818110611ed457611ed461515d565b9050602002016020810190611ee991906146c2565b6001600160a01b0316635e622abc6040518163ffffffff1660e01b81526004016020604051808303816000875af1158015611f28573d6000803e3d6000fd5b505050506040513d601f19601f82011682018060405250810190611f4c9190615464565b9050848483818110611f6057611f6061515d565b9050602002016020810190611f7591906146c2565b6001600160a01b03167f4b5237f428d31406cf0f93a4ab5fd11482f2fe9a1420271368d67e83496346c482604051611faf91815260200190565b60405180910390a2611fc181846153e7565b9250508080611fcf906153cc565b915050611eb8565b50611acf611fed6001546001600160a01b031690565b6067546001600160a01b03169083612f94565b600081815260d160205260408082209051631d51169760e11b815260048101919091526064602482015273__$86182d6e9eac51236f2aa8dd2a3ddeab6c$__90633aa22d2e90604401602060405180830381865af4158015612066573d6000803e3d6000fd5b505050506040513d601f19601f820116820180604052508101906119b99190615464565b6000612094611ad4565b90506119b9818484610c52565b600082815260d160205260408082209051631361754b60e11b815260048101919091528215156024820152606460448201819052829173__$86182d6e9eac51236f2aa8dd2a3ddeab6c$__916326c2ea9691016040805180830381865af4158015612110573d6000803e3d6000fd5b505050506040513d601f19601f820116820180604052508101906121349190615533565b909590945092505050565b60d254600090819060ff1615612168576040516313d0ff5960e31b815260040160405180910390fd5b6000612173866121ed565b9050610cd8818661218936889003880188615557565b600161291f565b60008180156121c75760006121a3612e0c565b5a6121ae91906153e7565b90506121ba60a4612ec4565b611a188888888888612a35565b6121d160a4612ec4565b611a848787878787612a35565b6001600160a01b03163b151590565b600081815260d16020526040902080546001600160a01b0316331461222757604051630504a20d60e01b81523360048201526024016114ec565b919050565b60d25460ff1615612250576040516313d0ff5960e31b815260040160405180910390fd5b600061225d836001612ff7565b8054909150612277906001600160a01b0316333085613081565b8054604051631b2d4e8960e01b8152600481018690526001600160a01b0390911660248201526044810183905273__$86182d6e9eac51236f2aa8dd2a3ddeab6c$__90631b2d4e899060640160006040518083038186803b1580156122db57600080fd5b505af41580156122ef573d6000803e3d6000fd5b505050508263ffffffff16857f140a300799eb131618deabe75fb6ab5c112fd5dda9003db6dcad7fdda6870d6b8460405161232c91815260200190565b60405180910390a35050505050565b60d254600090819060ff1615612364576040516313d0ff5960e31b815260040160405180910390fd5b61236d856130b9565b5060408051638d9c6c9560e01b81526004810188905263ffffffff871660248201528551604482015260208601516001600160a01b031660648083019190915291860151151560848201526060860151151560a482015260c481019190915283151560e482015273__$86182d6e9eac51236f2aa8dd2a3ddeab6c$__90638d9c6c9590610104016040805180830381865af4158015612410573d6000803e3d6000fd5b505050506040513d601f19601f820116820180604052508101906124349190615533565b9092509050600061244482613149565b606b5490915081101561246d576040516312b6b5cd60e11b8152600481018290526024016114ec565b60208501516001600160a01b03161580159061248b57508460600151155b156124f857846040015180156124b2575084516124a790613149565b6124b083613149565b145b806124db575084604001511580156124db575084516124d090613149565b6124d984613149565b145b6124f8576040516307a1db0760e01b815260040160405180910390fd5b5094509492505050565b60d25460ff1615612526576040516313d0ff5960e31b815260040160405180910390fd5b6000612533846000612ff7565b80546040516341901e3560e11b8152600481018890526001600160a01b03909116602482015260448101859052606480820152831515608482015290915073__$86182d6e9eac51236f2aa8dd2a3ddeab6c$__906383203c6a9060a40160006040518083038186803b1580156125a857600080fd5b505af41580156125bc573d6000803e3d6000fd5b505082546125d792506001600160a01b031690503385612f94565b8363ffffffff16867f6712d02eeb44c9634ac11d295d8bed26907e3dbea480db7be11fcd8cf8fdd2058560405161261091815260200190565b60405180910390a3505050505050565b63ffffffff82166001600160a01b038316612651576040516376d8a93160e01b8152600060048201526024016114ec565b63ffffffff81166000908152606560205260409020546001600160a01b0316151580156126aa575063ffffffff8082166000908152606560205260409020546126a8916001600160a01b0390911690859061316416565b155b156126f35763ffffffff81166000908152606560205260409081902054905163a5d4d0b560e01b81526001600160a01b03808616600483015290911660248201526044016114ec565b6040805180820182526001600160a01b038581168252602080830186815263ffffffff868116600090815260658452869020945185546001600160a01b03191690851617855590518051600190950180549382015191870151959094166001600160c01b031990931692909217600160a01b92909116919091021760ff60c01b1916600160c01b92151592909202919091179055517f52983c04d8ccd4808cd0fcb24e6e48106ecb41e803d6270c6c94a15e3ebd08d2906127b79085908590615573565b60405180910390a1505050565b60d25460ff16156127e8576040516313d0ff5960e31b815260040160405180910390fd5b8161281f5760405162461bcd60e51b815260206004820152600760248201526608585b5bdd5b9d60ca1b60448201526064016114ec565b604051632f342a3560e11b815260048101849052602481018390526064604482018190528215159082015273__$86182d6e9eac51236f2aa8dd2a3ddeab6c$__90635e68546a9060840160006040518083038186803b15801561288157600080fd5b505af4158015612895573d6000803e3d6000fd5b5050505060008213156128bf576067546128ba906001600160a01b0316333085613081565b6128df565b6128df336128cc846155b5565b6067546001600160a01b03169190612f94565b837fb4604a31ce2914796ae6383c67cee47a3cb969b59a7dba0d06edcab53ff96a848360405161291191815260200190565b60405180910390a250505050565b60d254600090819060ff1615612948576040516313d0ff5960e31b815260040160405180910390fd5b612951856130b9565b5060608401516001600160a01b031615612978576129788585606001518660800151613175565b604051633f72434160e11b815273__$86182d6e9eac51236f2aa8dd2a3ddeab6c$__90637ee48682906129b8908990899089906064908a906004016155d2565b6040805180830381865af41580156129d4573d6000803e3d6000fd5b505050506040513d601f19601f820116820180604052508101906129f89190615533565b90925090506000612a0c8684846064613211565b606b549091508110156124f8576040516312b6b5cd60e11b8152600481018290526024016114ec565b60d25460009060ff1615612a5c576040516313d0ff5960e31b815260040160405180910390fd5b600086815260d160205260409020612a73866130b9565b50612a7d83613252565b606a54612a8a91906153e7565b6040516321c7fd4b60e21b81526004810183905263ffffffff88166024820152600287810b604483015286900b6064808301919091526084820183905260a482015290925073__$86182d6e9eac51236f2aa8dd2a3ddeab6c$__9063871ff52c9060c40160006040518083038186803b158015612b0657600080fd5b505af4158015612b1a573d6000803e3d6000fd5b5050606754611a8792506001600160a01b031690503384612f94565b60d25460009060ff1615612b5d576040516313d0ff5960e31b815260040160405180910390fd5b600083815260d1602052604081209073__$86182d6e9eac51236f2aa8dd2a3ddeab6c$__6379452b2383612b9087613252565b6040516001600160e01b031960e085901b16815260048101929092526024820152606460448201819052016040805180830381865af4158015612bd7573d6000803e3d6000fd5b505050506040513d601f19601f82011682018060405250810190612bfb9190615533565b90935090506000612c0c8285615676565b905060008413612c325760405163ef37dcc760e01b8152600481018590526024016114ec565b606754612c49906001600160a01b03163386612f94565b612c5282613362565b6040805182815260208101869052908101839052339087907f914a6aef8c0c1a591157ee7d71dfbd71d1d7df090d3ec047f8eac01fc21b2f439060600160405180910390a350505092915050565b612cc460405180606001604052806000815260200160008152602001600081525090565b60d25460ff1615612ce8576040516313d0ff5960e31b815260040160405180910390fd5b6127108361ffff161115612d0f576040516348d69f3560e01b815260040160405180910390fd5b600085815260d160205260409020612d26856130b9565b50600087815260d16020526040812073__$86182d6e9eac51236f2aa8dd2a3ddeab6c$__9063f41fadc9908490888a612d5e8a613252565b6040516001600160e01b031960e088901b1681526004810195909552602485019390935261ffff909116604484015263ffffffff16606483810191909152608483019190915260a4820152600160c482015260e401608060405180830381865af4158015612dd0573d6000803e3d6000fd5b505050506040513d601f19601f82011682018060405250810190612df491906156b7565b93509050612e0181613362565b505095945050505050565b60408051600481526024810182526020810180516001600160e01b031663a94597ff60e01b179052905160009182918291606491612e4a9190615710565b600060405180830381855afa9150503d8060008114612e85576040519150601f19603f3d011682016040523d82523d6000602084013e612e8a565b606091505b5091509150811580612e9b57508051155b15612ea95760009250505090565b80806020019051810190612ebd9190615464565b9250505090565b36811015612eee57604051634219202560e01b8152366004820152602481018290526044016114ec565b50565b33612eee81806133ee565b63ffffffff82811660009081526020839052604080822060030154905163dd86c10160e01b8152640100000000820490931660048401529091600160501b9091046001600160a01b03169063dd86c10190602401602060405180830381865afa158015611992573d6000803e3d6000fd5b60006119b6612f8663ffffffff8086169085906134fc16565b6001600160a01b031661353e565b6040516001600160a01b038316602482015260448101829052611acf90849063a9059cbb60e01b906064015b60408051601f198184030181529190526020810180516001600160e01b03166001600160e01b0319909316929092179091526135ab565b63ffffffff8216600090815260656020526040902080546001600160a01b031661303c5760405163b087c8c360e01b815263ffffffff841660048201526024016114ec565b81801561305557506001810154600160c01b900460ff16155b156119b957805460405163a006afaf60e01b81526001600160a01b0390911660048201526024016114ec565b6040516001600160a01b0380851660248301528316604482015260648101829052610c8f9085906323b872dd60e01b90608401612fc0565b63ffffffff81166000908152606460205260409020546001600160a01b0316806130fe5760405163b087c8c360e01b815263ffffffff831660048201526024016114ec565b63ffffffff8216600090815260646020526040902060030154600160401b900460ff1661222757604051631079472960e21b81526001600160a01b03821660048201526024016114ec565b60008082136131605761315b826155b5565b6119b9565b5090565b6001600160a01b0390811691161490565b600061318c63ffffffff8086169060649061367d16565b90506000836001600160a01b0316826001600160a01b0316116131b8576131b38285615722565b6131c2565b6131c28483615722565b90506127106131d58561ffff861661574a565b6131df919061578f565b6001600160a01b0316816001600160a01b031611156117bf576040516307a1db0760e01b815260040160405180910390fd5b600061321c836136a8565b61324861323363ffffffff808916908690612f6d16565b600160801b613241886136a8565b91906136b3565b61191791906153e7565b60003a610139548111156132885761013954604051638dfe587d60e01b81526114ec918391600401918252602082015260400190565b82158061329e575060d4546001600160a01b0316155b156132ac576000915061335c565b6000333214156132c1576132be613761565b90505b60006132cd3a866157b5565b60d45460405163dd86c10160e01b815261012c60048201529192506000916001600160a01b039091169063dd86c10190602401602060405180830381865afa15801561331d573d6000803e3d6000fd5b505050506040513d601f19601f820116820180604052508101906133419190615464565b905061335681600160801b61324185876153e7565b94505050505b50919050565b60008113156133885760d354606754612eee916001600160a01b03918216911683612f94565b60d3546001600160a01b031663379607f56133a2836155b5565b6040518263ffffffff1660e01b81526004016133c091815260200190565b600060405180830381600087803b1580156133da57600080fd5b505af11580156117bf573d6000803e3d6000fd5b600054610100900460ff166134095760005460ff161561340d565b303b155b6134295760405162461bcd60e51b81526004016114ec90615416565b600054610100900460ff1615801561344b576000805461ffff19166101011790555b6000805462010000600160b01b031916620100006001600160a01b0386169081029190911782556040519091907f5f56bee8cffbe9a78652a74a60705edede02af10b0bbb888ca44b79a0d42ce80908290a3600180546001600160a01b0319166001600160a01b0384169081179091556040516000907f39355f2f5c8206286978f443aa8126bbd29fa09c53c04569502647f3a59c8cb2908290a38015611acf576000805461ff0019169055505050565b63ffffffff8083166000908152602083905260408120600381015460019091015491926119b6926001600160a01b031691640100000000900481169061379f16565b60006401000276a36001600160a01b0383161080613579575073fffd8963efd1fc6a506488495d951d5263988d266001600160a01b03831610155b156135a257604051635d236c4560e01b81526001600160a01b03831660048201526024016114ec565b6119b9826137c0565b6000613600826040518060400160405280602081526020017f5361666545524332303a206c6f772d6c6576656c2063616c6c206661696c6564815250856001600160a01b03166137da9092919063ffffffff16565b805190915015611acf578080602001905181019061361e91906157d4565b611acf5760405162461bcd60e51b815260206004820152602a60248201527f5361666545524332303a204552433230206f7065726174696f6e20646964206e6044820152691bdd081cdd58d8d9595960b21b60648201526084016114ec565b63ffffffff82166000908152602082905260408120600101546119b6906001600160a01b03166137f1565b60006119b982613149565b6000808060001985870985870292508281108382030391505080600014156136ed57600084116136e257600080fd5b5082900490506115ed565b8084116136f957600080fd5b600084868809851960019081018716968790046003810260029081188083028203028083028203028083028203028083028203028083028203029182029003026000889003889004909101858311909403939093029303949094049190911702949350505050565b60408051600481526024810182526020810180516001600160e01b031663637bef0760e11b179052905160009182918291606491612e4a9190615710565b6000806137b56001600160a01b0385168461387b565b905061169181613a97565b60006119b96001600160a01b03831680600160401b6136b3565b60606137e98484600085613dca565b949350505050565b600080826001600160a01b0316633850c7bd6040518163ffffffff1660e01b815260040160e060405180830381865afa158015613832573d6000803e3d6000fd5b505050506040513d601f19601f8201168201806040525081019061385691906157f1565b509496509294505050506001600160a01b0383161515905061335c576115ed81613a97565b600063ffffffff82166138a4576040516351a4d88160e01b8152600060048201526024016114ec565b60408051600280825260608201835260009260208301908036833701905050905082816000815181106138d9576138d961515d565b602002602001019063ffffffff16908163ffffffff16815250506000816001815181106139085761390861515d565b63ffffffff9092166020928302919091019091015260405163883bdbfd60e01b81526001600160a01b0385169063883bdbfd90613949908490600401615893565b600060405180830381865afa92505050801561398757506040513d6000823e601f3d908101601f191682016040526139849190810190615935565b60015b6139fc57836001600160a01b0316633850c7bd6040518163ffffffff1660e01b815260040160e060405180830381865afa1580156139c9573d6000803e3d6000fd5b505050506040513d601f19601f820116820180604052508101906139ed91906157f1565b50939650611694945050505050565b600082600081518110613a1157613a1161515d565b602002602001015183600181518110613a2c57613a2c61515d565b6020026020010151613a3e9190615a00565b90506000613a5263ffffffff881683615a50565b905060008260060b128015613a785750613a7263ffffffff881683615a8e565b60060b15155b15613a8b5780613a8781615ab0565b9150505b94506119b99350505050565b60008060008360020b12613aae578260020b613ab6565b8260020b6000035b9050620d89e8811115613aef5760405162461bcd60e51b81526020600482015260016024820152601560fa1b60448201526064016114ec565b600060018216613b0357600160801b613b15565b6ffffcb933bd6fad37aa2d162d1a5940015b70ffffffffffffffffffffffffffffffffff1690506002821615613b49576ffff97272373d413259a46990580e213a0260801c5b6004821615613b68576ffff2e50f5f656932ef12357cf3c7fdcc0260801c5b6008821615613b87576fffe5caca7e10e4e61c3624eaa0941cd00260801c5b6010821615613ba6576fffcb9843d60f6159c9db58835c9266440260801c5b6020821615613bc5576fff973b41fa98c081472e6896dfb254c00260801c5b6040821615613be4576fff2ea16466c96a3843ec78b326b528610260801c5b6080821615613c03576ffe5dee046a99a2a811c461f1969c30530260801c5b610100821615613c23576ffcbe86c7900a88aedcffc83b479aa3a40260801c5b610200821615613c43576ff987a7253ac413176f2b074cf7815e540260801c5b610400821615613c63576ff3392b0822b70005940c7a398e4b70f30260801c5b610800821615613c83576fe7159475a2c29b7443b29c7fa6e889d90260801c5b611000821615613ca3576fd097f3bdfd2022b8845ad8f792aa58250260801c5b612000821615613cc3576fa9f746462d870fdf8a65dc1f90e061e50260801c5b614000821615613ce3576f70d869a156d2a1b890bb3df62baf32f70260801c5b618000821615613d03576f31be135f97d08fd981231505542fcfa60260801c5b62010000821615613d24576f09aa508b5b7a84e1c677de54f3e99bc90260801c5b62020000821615613d44576e5d6af8dedb81196699c329225ee6040260801c5b62040000821615613d63576d2216e584f5fa1ea926041bedfe980260801c5b62080000821615613d80576b048a170391f7dc42444e8fa20260801c5b60008460020b1315613da1578060001981613d9d57613d9d615779565b0490505b640100000000810615613db5576001613db8565b60005b60ff16602082901c0192505050919050565b606082471015613e2b5760405162461bcd60e51b815260206004820152602660248201527f416464726573733a20696e73756666696369656e742062616c616e636520666f6044820152651c8818d85b1b60d21b60648201526084016114ec565b6001600160a01b0385163b613e825760405162461bcd60e51b815260206004820152601d60248201527f416464726573733a2063616c6c20746f206e6f6e2d636f6e747261637400000060448201526064016114ec565b600080866001600160a01b03168587604051613e9e9190615710565b60006040518083038185875af1925050503d8060008114613edb576040519150601f19603f3d011682016040523d82523d6000602084013e613ee0565b606091505b5091509150613ef0828286613efb565b979650505050505050565b60608315613f0a5750816115ed565b825115613f1a5782518084602001fd5b8160405162461bcd60e51b81526004016114ec9190615520565b60008060008084860360e0811215613f4b57600080fd5b6080811215613f5957600080fd5b5093956080870135955060a0870135945060c08701359350915050565b8015158114612eee57600080fd5b803561222781613f76565b600060208284031215613fa157600080fd5b81356115ed81613f76565b600060208284031215613fbe57600080fd5b5035919050565b63ffffffff81168114612eee57600080fd5b60008082840360e0811215613feb57600080fd5b8335613ff681613fc5565b925060c0601f198201121561400a57600080fd5b506020830190509250929050565b60008060006060848603121561402d57600080fd5b83359250602084013561403f81613fc5565b929592945050506040919091013590565b634e487b7160e01b600052604160045260246000fd5b604051606081016001600160401b038111828210171561408857614088614050565b60405290565b60405160a081016001600160401b038111828210171561408857614088614050565b60405161012081016001600160401b038111828210171561408857614088614050565b604080519081016001600160401b038111828210171561408857614088614050565b60405160e081016001600160401b038111828210171561408857614088614050565b604051601f8201601f191681016001600160401b038111828210171561413f5761413f614050565b604052919050565b6001600160a01b0381168114612eee57600080fd5b803561222781614147565b60006080828403121561417957600080fd5b604051608081018181106001600160401b038211171561419b5761419b614050565b6040528235815290508060208301356141b381614147565b602082015260408301356141c681613f76565b604082015260608301356141d981613f76565b6060919091015292915050565b600080600060c084860312156141fb57600080fd5b83359250602084013561420d81613fc5565b915061421c8560408601614167565b90509250925092565b6000610120828403121561335c57600080fd5b634e487b7160e01b600052602160045260246000fd5b6003811061425e5761425e614238565b9052565b6000608080830160018060a01b038089168552602088818701526040848188015283895180865260a089019150838b01955060005b818110156142be578651805187168452850151858401529584019591830191600101614297565b5050878103606089015288518082528382019550600581901b82018401848b0160005b838110156143db57848303601f19018952815180518916845287810151888501528681015187850152606080820151908501528a015160a08b850181905281519085018190529088019060009060c08601905b808310156143c657835161434983825161424e565b8b8101518060020b8d850152508a81015160020b8b840152606081015161437b60608501826001600160801b03169052565b508e8101518f84015260a081015160a084015260c081015160c084015260e081015160e084015261010080820151818501525050610120820191508a84019350600183019250614334565b509a89019a94505050908601906001016142e1565b50909e9d5050505050505050505050505050565b600080828403608081121561440357600080fd5b833561440e81614147565b92506060601f198201121561442257600080fd5b5061442b614066565b602084013561443981614147565b8152604084013561444981613fc5565b6020820152606084013561445c81613f76565b6040820152919491935090915050565b60008083601f84011261447e57600080fd5b5081356001600160401b0381111561449557600080fd5b6020830191508360208260051b85010111156144b057600080fd5b9250929050565b6000806000604084860312156144cc57600080fd5b8335925060208401356001600160401b038111156144e957600080fd5b6144f58682870161446c565b9497909650939450505050565b60005b8381101561451d578181015183820152602001614505565b83811115610c8f5750506000910152565b60008151808452614546816020860160208601614502565b601f01601f19169290920160200192915050565b6000602080830181845280855180835260408601915060408160051b870101925083870160005b828110156145af57603f1988860301845261459d85835161452e565b94509285019290850190600101614581565b5092979650505050505050565b600080604083850312156145cf57600080fd5b50508035926020909101359150565b60008060008060008060c087890312156145f757600080fd5b863561460281614147565b9550602087013561461281614147565b9450604087013561462281614147565b9350606087013561463281614147565b9250608087013561464281614147565b915060a087013561465281614147565b809150509295509295509295565b8060020b8114612eee57600080fd5b6000806000806080858703121561468557600080fd5b84359350602085013561469781613fc5565b925060408501356146a781614660565b915060608501356146b781614660565b939692955090935050565b6000602082840312156146d457600080fd5b81356115ed81614147565b61ffff81168114612eee57600080fd5b8035612227816146df565b6000806000806080858703121561471057600080fd5b8435935060208501359250604085013561472981613fc5565b915060608501356146b7816146df565b6000806040838503121561474c57600080fd5b82359150602083013561475e81613fc5565b809150509250929050565b600080600080600060a0868803121561478157600080fd5b8535945060208601359350604086013561479a81613fc5565b925060608601356147aa816146df565b949793965091946080013592915050565b600080602083850312156147ce57600080fd5b82356001600160401b038111156147e457600080fd5b6147f08582860161446c565b90969095509350505050565b60006020828403121561480e57600080fd5b81356115ed81613fc5565b81516001600160a01b0316815260208083015160808301916116949084018280516001600160a01b0316825260208082015163ffffffff16908301526040908101511515910152565b60006001600160401b0382111561487b5761487b614050565b5060051b60200190565b6000602080838503121561489857600080fd5b82356001600160401b038111156148ae57600080fd5b8301601f810185136148bf57600080fd5b80356148d26148cd82614862565b614117565b81815260059190911b820183019083810190878311156148f157600080fd5b928401925b82841015613ef0578335825292840192908401906148f6565b6020808252825182820181905260009190848201906040850190845b818110156149475783518352928401929184019160010161492b565b50909695505050505050565b6000806040838503121561496657600080fd5b823561497181613fc5565b946020939093013593505050565b6000806040838503121561499257600080fd5b82359150602083013561475e81613f76565b60008060008385036101208112156149bb57600080fd5b8435935060208501356149cd81613fc5565b925060e0603f19820112156149e157600080fd5b506040840190509250925092565b600080600080600060a08688031215614a0757600080fd5b853594506020860135614a1981613fc5565b93506040860135614a2981614660565b925060608601356147aa81614660565b6001600160801b0381168114612eee57600080fd5b8135614a59816146df565b815461ffff191661ffff8216178255506020820135614a77816146df565b815463ffff00001916601082901b63ffff000016178255506040820135614a9d816146df565b815465ffff000000008260201b1691508165ffff000000001982161783556060840135614ac981614a39565b75ffffffffffffffffffffffffffffffff0000000000008160301b168375ffffffffffffffffffffffffffffffffffff00000000198416171784555050505050565b600081356119b981613f76565b600081356119b981614147565b80547fffff0000000000000000000000000000000000000000ffffffffffffffffffff1660509290921b600160501b600160f01b0316919091179055565b8135614b6e816146df565b815461ffff191661ffff8216178255506020820135614b8c816146df565b815463ffff00001916601082901b63ffff000016178255506040820135614bb281613fc5565b815467ffffffff000000008260201b1691508167ffffffff000000001982161783556060840135614be281613f76565b68ffffffffff00000000199190911690911790151560401b60ff60401b161781556080820135614c1181613f76565b815460ff60481b191681151560481b60ff60481b161782555060a0820135614c3881614147565b611acf8183614b25565b63ffffffff838116825260e08201908335614c5c816146df565b61ffff808216602086015260208601359150614c77826146df565b16604084810191909152840135614c8d81613fc5565b16606083810191909152830135614ca381613f76565b8015156080840152506080830135614cba81613f76565b80151560a084015250614ccf60a0840161415c565b6001600160a01b03811660c0840152509392505050565b634e487b7160e01b600052600160045260246000fd5b80546001600160a01b0319166001600160a01b0392909216919091179055565b8135614d2781614147565b614d318183614cfc565b506020820135614d4081614147565b614d4d8160018401614cfc565b506040820135614d5c81614147565b614d698160028401614cfc565b50600381016060830135614d7c816146df565b815461ffff191661ffff8216178255506080830135614d9a816146df565b815463ffff00001916601082901b63ffff0000161782555060a0830135614dc081613fc5565b815467ffffffff000000008260201b1691508167ffffffff0000000019821617835560c0850135614df081613f76565b68ffffffffff00000000199190911690911790151560401b60ff60401b16178155614e3e614e2060e08501614b0b565b82805460ff60481b191691151560481b60ff60481b16919091179055565b611acf614e4e6101008501614b18565b82614b25565b60038110612eee57600080fd5b805161222781614e54565b805161222781614660565b805161222781614a39565b600082601f830112614e9357600080fd5b81516020614ea36148cd83614862565b82815260059290921b84018101918181019086841115614ec257600080fd5b8286015b8481101561504c5780516001600160401b0380821115614ee557600080fd5b9088019060a0828b03601f19011215614efd57600080fd5b614f0561408e565b86830151614f1281614147565b80825250604083015187820152606083015160408201526080830151606082015260a083015182811115614f4557600080fd5b8084019350508a603f840112614f5a57600080fd5b868301519150614f6c6148cd83614862565b82815261012092830284016040019288820191908d851115614f8d57600080fd5b6040860195505b848610156150365780868f031215614fab57600080fd5b614fb36140b0565b614fbc87614e61565b8152614fc98b8801614e6c565b8b820152614fd960408801614e6c565b6040820152614fea60608801614e77565b60608201526080870151608082015260a087015160a082015260c087015160c082015260e087015160e08201526101008701516101008201528084525089830192508086019550614f94565b5060808301525085525050918301918301614ec6565b509695505050505050565b6000806000806080858703121561506d57600080fd5b845161507881614147565b8094505060208086015193506040808701516001600160401b038082111561509f57600080fd5b818901915089601f8301126150b357600080fd5b81516150c16148cd82614862565b81815260069190911b8301850190858101908c8311156150e057600080fd5b938601935b828510156151295785858e0312156150fd5760008081fd5b6151056140d3565b855161511081614147565b81528588015188820152825293850193908601906150e5565b60608c0151909850955050508084111561514257600080fd5b50505061515187828801614e82565b91505092959194509250565b634e487b7160e01b600052603260045260246000fd5b60008235603e1983360301811261518957600080fd5b9190910192915050565b6000602082840312156151a557600080fd5b8135600881106115ed57600080fd5b6000808335601e198436030181126151cb57600080fd5b8301803591506001600160401b038211156151e557600080fd5b6020019150368190038213156144b057600080fd5b60008060a0838503121561520d57600080fd5b823561521881613fc5565b91506152278460208501614167565b90509250929050565b803561222781614e54565b600060e0828403121561524d57600080fd5b6152556140f5565b9050813561526281614660565b8152602082013561527281614660565b60208201526040820135600f81900b811461528c57600080fd5b604082015261529d6060830161415c565b60608201526152ae608083016146ef565b60808201526152bf60a08301613f84565b60a08201526152d060c08301615230565b60c082015292915050565b60008061010083850312156152ef57600080fd5b82356152fa81613fc5565b9150615227846020850161523b565b6000806000806080858703121561531f57600080fd5b843561532a81613fc5565b9350602085013561533a81614660565b9250604085013561534a81614660565b9396929550929360600135925050565b60008060006060848603121561536f57600080fd5b83359250602084013561538181613fc5565b91506040840135615391816146df565b809150509250925092565b60208101600883106153b0576153b0614238565b91905290565b634e487b7160e01b600052601160045260246000fd5b60006000198214156153e0576153e06153b6565b5060010190565b600082198211156153fa576153fa6153b6565b500190565b600082821015615411576154116153b6565b500390565b6020808252602e908201527f496e697469616c697a61626c653a20636f6e747261637420697320616c72656160408201526d191e481a5b9a5d1a585b1a5e995960921b606082015260800190565b60006020828403121561547657600080fd5b5051919050565b8183823760009101908152919050565b60006020828403121561549f57600080fd5b81516001600160401b03808211156154b657600080fd5b818401915084601f8301126154ca57600080fd5b8151818111156154dc576154dc614050565b6154ef601f8201601f1916602001614117565b915080825285602082850101111561550657600080fd5b615517816020840160208601614502565b50949350505050565b6020815260006119b6602083018461452e565b6000806040838503121561554657600080fd5b505080516020909101519092909150565b600060e0828403121561556957600080fd5b6119b6838361523b565b6001600160a01b0383168152608081016115ed602083018480516001600160a01b0316825260208082015163ffffffff16908301526040908101511515910152565b6000600160ff1b8214156155cb576155cb6153b6565b5060000390565b60006101608201905086825263ffffffff86166020830152845160020b6040830152602085015160020b60608301526040850151600f0b608083015260018060a01b0360608601511660a083015261ffff60808601511660c083015260a085015161564160e084018215159052565b5060c085015161565561010084018261424e565b508361012083015261566c61014083018415159052565b9695505050505050565b600080821280156001600160ff1b0384900385131615615698576156986153b6565b600160ff1b83900384128116156156b1576156b16153b6565b50500190565b60008082840360808112156156cb57600080fd5b835192506060601f19820112156156e157600080fd5b506156ea614066565b602084015181526040840151602082015260608401516040820152809150509250929050565b60008251615189818460208701614502565b60006001600160a01b0383811690831681811015615742576157426153b6565b039392505050565b60006001600160a01b0382811684821681151582840482111615615770576157706153b6565b02949350505050565b634e487b7160e01b600052601260045260246000fd5b60006001600160a01b03838116806157a9576157a9615779565b92169190910492915050565b60008160001904831182151516156157cf576157cf6153b6565b500290565b6000602082840312156157e657600080fd5b81516115ed81613f76565b600080600080600080600060e0888a03121561580c57600080fd5b875161581781614147565b602089015190975061582881614660565b6040890151909650615839816146df565b606089015190955061584a816146df565b608089015190945061585b816146df565b60a089015190935060ff8116811461587257600080fd5b60c089015190925061588381613f76565b8091505092959891949750929550565b6020808252825182820181905260009190848201906040850190845b8181101561494757835163ffffffff16835292840192918401916001016158af565b600082601f8301126158e257600080fd5b815160206158f26148cd83614862565b82815260059290921b8401810191818101908684111561591157600080fd5b8286015b8481101561504c57805161592881614147565b8352918301918301615915565b6000806040838503121561594857600080fd5b82516001600160401b038082111561595f57600080fd5b818501915085601f83011261597357600080fd5b815160206159836148cd83614862565b82815260059290921b840181019181810190898411156159a257600080fd5b948201945b838610156159d05785518060060b81146159c15760008081fd5b825294820194908201906159a7565b918801519196509093505050808211156159e957600080fd5b506159f6858286016158d1565b9150509250929050565b60008160060b8360060b6000811281667fffffffffffff1901831281151615615a2b57615a2b6153b6565b81667fffffffffffff018313811615615a4657615a466153b6565b5090039392505050565b60008160060b8360060b80615a6757615a67615779565b667fffffffffffff19821460001982141615615a8557615a856153b6565b90059392505050565b60008260060b80615aa157615aa1615779565b808360060b0791505092915050565b60008160020b627fffff19811415615aca57615aca6153b6565b600019019291505056fea2646970667358221220205590e808f899f7804000013d5ea01fe2c100bba5430c7de264828429cb8a5064736f6c634300080c0033",
  "libraries": {
    "Account": "0xe3BEEd2d7BfCa4cD203f0461E52c293d528Ea5A0"
  },
  "devdoc": {
    "errors": {
      "AccessDenied(address)": [
        {
          "params": {
            "senderAddress": "address of msg sender"
          }
        }
      ],
      "IncorrectCollateralAddress(address,address)": [
        {
          "params": {
            "correctAddress": "correct address of collateral token",
            "incorrectAddress": "incorrect address of collateral token"
          }
        }
      ],
      "InvalidCollateralAddress(address)": [
        {
          "params": {
            "invalidAddress": "invalid address of collateral token"
          }
        }
      ],
      "InvalidMulticallOperationType(uint8)": [
        {
          "params": {
            "multicallOperationType": "is the value that is out of bounds"
          }
        }
      ],
      "LowNotionalValue(uint256)": [
        {
          "params": {
            "notionalValue": "notional value of txn"
          }
        }
      ],
      "UninitializedToken(uint32)": [
        {
          "params": {
            "vTokenTruncatedAddress": "unitialized truncated address supplied"
          }
        }
      ],
      "UnsupportedCToken(address)": [
        {
          "params": {
            "cTokenAddress": "address of token"
          }
        }
      ],
      "UnsupportedVToken(address)": [
        {
          "params": {
            "vToken": "address of token"
          }
        }
      ]
    },
    "kind": "dev",
    "methods": {
      "addMargin(uint256,uint32,uint256)": {
        "params": {
          "accountNo": "account number",
          "amount": "amount of token to deposit",
          "vTokenTruncatedAddress": "truncated address of token to deposit"
        }
      },
      "createAccount()": {
        "returns": {
          "newAccountId": "- serial number of the new account created"
        }
      },
      "createAccountAndAddMargin(uint32,uint256)": {
        "params": {
          "amount": "amount of token to deposit",
          "vTokenTruncatedAddress": "truncated address of token to deposit"
        },
        "returns": {
          "newAccountId": "- serial number of the new account created"
        }
      },
      "governance()": {
        "details": "Returns the address of the current governance."
      },
      "liquidateLiquidityPositions(uint256)": {
        "details": "removes all the active range positions and gives liquidator a percent of notional amount closed + fixedFee",
        "params": {
          "accountNo": "account number"
        }
      },
      "liquidateLiquidityPositionsWithGasClaim(uint256,uint256)": {
        "details": "removes all the active range positions and gives liquidator a percent of notional amount closed + fixedFee",
        "params": {
          "accountNo": "account number",
          "gasComputationUnitsClaim": "estimated computation gas units, if more than actual, tx will revert"
        },
        "returns": {
          "keeperFee": ": amount of fees paid to caller"
        }
      },
      "liquidateTokenPosition(uint256,uint256,uint32,uint16)": {
        "details": "transfers the fraction of token position at a discount to current price to liquidators account and gives liquidator some fixedFee",
        "params": {
          "accountNo": "account number",
          "liquidationBps": "fraction of the token position to be transferred in BPS",
          "liquidatorAccountNo": "liquidator account number",
          "vTokenTruncatedAddress": "truncated address of token to withdraw"
        },
        "returns": {
          "liquidatorBalanceAdjustments": "- balance changes in liquidator base and token balance and net token position"
        }
      },
      "liquidateTokenPositionWithGasClaim(uint256,uint256,uint32,uint16,uint256)": {
        "details": "transfers the fraction of token position at a discount to current price to liquidators account and gives liquidator some fixedFee",
        "params": {
          "accountNo": "account number",
          "gasComputationUnitsClaim": "estimated computation gas units, if more than actual, tx will revert",
          "liquidationBps": "fraction of the token position to be transferred in BPS",
          "liquidatorAccountNo": "liquidator account number",
          "vTokenTruncatedAddress": "truncated address of token to withdraw"
        },
        "returns": {
          "liquidatorBalanceAdjustments": "- balance changes in liquidator base and token balance and net token position"
        }
      },
      "multicall(bytes[])": {
        "details": "The `msg.value` should not be trusted for any method callable from multicall.",
        "params": {
          "data": "The encoded function data for each of the calls to make to this contract"
        },
        "returns": {
          "results": "The results from each of the calls passed in via data"
        }
      },
      "removeLimitOrder(uint256,uint32,int24,int24)": {
        "details": "checks the position of current price relative to limit order and checks limitOrderType",
        "params": {
          "accountNo": "account number",
          "tickLower": "liquidity change parameters",
          "tickUpper": "liquidity change parameters",
          "vTokenTruncatedAddress": "truncated address of token to withdraw"
        }
      },
      "removeMargin(uint256,uint32,uint256)": {
        "params": {
          "accountNo": "account number",
          "amount": "amount of token to withdraw",
          "vTokenTruncatedAddress": "truncated address of token to withdraw"
        }
      },
      "swapToken(uint256,uint32,(int256,uint160,bool,bool))": {
        "params": {
          "accountNo": "account number",
          "swapParams": "swap parameters",
          "vTokenTruncatedAddress": "truncated address of token to withdraw"
        }
      },
      "teamMultisig()": {
        "details": "Returns the address of the current team multisig.transferTeamMultisig"
      },
      "transferGovernance(address)": {
        "details": "Transfers governance to a new account (`newGovernance`). Can only be called by the current governance."
      },
      "transferTeamMultisig(address)": {
        "details": "Transfers teamMultisig to a new account (`newTeamMultisig`). Can only be called by the current teamMultisig or current governance."
      },
      "updatePoolSettings(uint32,(uint16,uint16,uint32,bool,bool,address))": {
        "params": {
          "newSettings": "updated rage trade pool settings",
          "poolId": "rage trade pool id"
        }
      },
      "updateProfit(uint256,int256)": {
        "params": {
          "accountNo": "account number",
          "amount": "amount of token to withdraw"
        }
      },
      "updateRangeOrder(uint256,uint32,(int24,int24,int128,uint160,uint16,bool,uint8))": {
        "params": {
          "accountNo": "account number",
          "liquidityChangeParams": "liquidity change parameters",
          "vTokenTruncatedAddress": "truncated address of token to withdraw"
        }
      },
      "withdrawProtocolFee(address[])": {
        "params": {
          "wrapperAddresses": "list of wrapper addresses to collect fees from"
        }
      }
    },
    "version": 1
  },
  "userdoc": {
    "errors": {
      "AccessDenied(address)": [
        {
          "notice": "error to denote invalid account access"
        }
      ],
      "IncorrectCollateralAddress(address,address)": [
        {
          "notice": "error to denote incorrect address is supplied while updating collateral settings"
        }
      ],
      "InvalidCollateralAddress(address)": [
        {
          "notice": "error to denote invalid address supplied as a collateral token"
        }
      ],
      "InvalidMulticallOperationType(uint8)": [
        {
          "notice": "this is errored when the enum (uint8) value is out of bounds"
        }
      ],
      "InvalidTokenLiquidationParameters()": [
        {
          "notice": "error to denote invalid token liquidation (fraction to liquidate> 1)"
        }
      ],
      "KeeperFeeNotPositive(int256)": [
        {
          "notice": "error to denote that keeper fee is negative or zero"
        }
      ],
      "LowNotionalValue(uint256)": [
        {
          "notice": "error to denote low notional value of txn"
        }
      ],
      "SlippageBeyondTolerance()": [
        {
          "notice": "error to denote slippage of txn beyond set threshold"
        }
      ],
      "UninitializedToken(uint32)": [
        {
          "notice": "error to denote usage of unitialized token"
        }
      ],
      "UnsupportedCToken(address)": [
        {
          "notice": "error to denote usage of unsupported token"
        }
      ],
      "UnsupportedVToken(address)": [
        {
          "notice": "error to denote usage of unsupported token"
        }
      ]
    },
    "events": {
      "CollateralSettingsUpdated(address,(address,uint32,bool))": {
        "notice": "new collateral supported as margin"
      },
      "NewVTokenSupported(uint32)": {
        "notice": "new rage trade pool supported"
      },
      "PoolSettingsUpdated(uint32,(uint16,uint16,uint32,bool,bool,address))": {
        "notice": "maintainance margin ratio of a pool changed"
      },
      "ProtocolSettingsUpdated((uint16,uint16,uint16,uint128),uint256,uint256,uint256)": {
        "notice": "protocol settings changed"
      }
    },
    "kind": "user",
    "methods": {
      "__initialize_ClearingHouse(address,address,address,address,address,address)": {
        "notice": "SYSTEM FUNCTIONS"
      },
      "addMargin(uint256,uint32,uint256)": {
        "notice": "deposits 'amount' of token associated with 'vTokenTruncatedAddress'"
      },
      "createAccount()": {
        "notice": "creates a new account and adds it to the accounts map"
      },
      "createAccountAndAddMargin(uint32,uint256)": {
        "notice": "creates a new account and deposits 'amount' of token associated with 'vTokenTruncatedAddress'"
      },
      "getAccountInfo(uint256)": {
        "notice": "Account.UserInfo VIEW"
      },
      "liquidateLiquidityPositions(uint256)": {
        "notice": "keeper call for liquidation of range position"
      },
      "liquidateLiquidityPositionsWithGasClaim(uint256,uint256)": {
        "notice": "keeper call for liquidation of range position"
      },
      "liquidateTokenPosition(uint256,uint256,uint32,uint16)": {
        "notice": "keeper call for liquidation of token position"
      },
      "liquidateTokenPositionWithGasClaim(uint256,uint256,uint32,uint16,uint256)": {
        "notice": "keeper call for liquidation of token position"
      },
      "multicall(bytes[])": {
        "notice": "Call multiple functions in the current contract and return the data from all of them if they all succeed"
      },
      "multicallWithSingleMarginCheck(uint256,(uint8,bytes)[])": {
        "notice": "MULTICALL"
      },
      "protocolInfo()": {
        "notice": "Account.ProtocolInfo VIEW"
      },
      "removeLimitOrder(uint256,uint32,int24,int24)": {
        "notice": "keeper call to remove a limit order"
      },
      "removeLimitOrderWithGasClaim(uint256,uint32,int24,int24,uint256)": {
        "notice": "ALTERNATE LIQUIDATION METHODS FOR FIX FEE CLAIM"
      },
      "removeMargin(uint256,uint32,uint256)": {
        "notice": "withdraws 'amount' of token associated with 'vTokenTruncatedAddress'"
      },
      "swapToken(uint256,uint32,(int256,uint160,bool,bool))": {
        "notice": "swaps token associated with 'vTokenTruncatedAddress' by 'amount' (Long if amount>0 else Short)"
      },
      "updateCollateralSettings(address,(address,uint32,bool))": {
        "notice": "ADMIN FUNCTIONS"
      },
      "updatePoolSettings(uint32,(uint16,uint16,uint32,bool,bool,address))": {
        "notice": "updates the rage trade pool settings"
      },
      "updateProfit(uint256,int256)": {
        "notice": "withdraws 'amount' of base token from the profit made"
      },
      "updateRangeOrder(uint256,uint32,(int24,int24,int128,uint160,uint16,bool,uint8))": {
        "notice": "updates range order of token associated with 'vTokenTruncatedAddress' by 'liquidityDelta' (Adds if amount>0 else Removes)also can be used to update limitOrderType"
      },
      "withdrawProtocolFee(address[])": {
        "notice": "withdraws protocol fees collected in the supplied wrappers to team multisig"
      }
    },
    "version": 1
  },
  "storageLayout": {
    "storage": [
      {
        "astId": 299,
        "contract": "contracts/protocol/clearinghouse/ClearingHouseArbitrum.sol:ClearingHouseArbitrum",
        "label": "_initialized",
        "offset": 0,
        "slot": "0",
        "type": "t_bool"
      },
      {
        "astId": 302,
        "contract": "contracts/protocol/clearinghouse/ClearingHouseArbitrum.sol:ClearingHouseArbitrum",
        "label": "_initializing",
        "offset": 1,
        "slot": "0",
        "type": "t_bool"
      },
      {
        "astId": 28571,
        "contract": "contracts/protocol/clearinghouse/ClearingHouseArbitrum.sol:ClearingHouseArbitrum",
        "label": "_governance",
        "offset": 2,
        "slot": "0",
        "type": "t_address"
      },
      {
        "astId": 28573,
        "contract": "contracts/protocol/clearinghouse/ClearingHouseArbitrum.sol:ClearingHouseArbitrum",
        "label": "_teamMultisig",
        "offset": 0,
        "slot": "1",
        "type": "t_address"
      },
      {
        "astId": 21303,
        "contract": "contracts/protocol/clearinghouse/ClearingHouseArbitrum.sol:ClearingHouseArbitrum",
        "label": "_emptySlots1",
        "offset": 0,
        "slot": "2",
        "type": "t_array(t_uint256)98_storage"
      },
      {
        "astId": 21306,
        "contract": "contracts/protocol/clearinghouse/ClearingHouseArbitrum.sol:ClearingHouseArbitrum",
        "label": "protocol",
        "offset": 0,
        "slot": "100",
        "type": "t_struct(ProtocolInfo)8941_storage"
      },
      {
        "astId": 21308,
        "contract": "contracts/protocol/clearinghouse/ClearingHouseArbitrum.sol:ClearingHouseArbitrum",
        "label": "numAccounts",
        "offset": 0,
        "slot": "208",
        "type": "t_uint256"
      },
      {
        "astId": 21313,
        "contract": "contracts/protocol/clearinghouse/ClearingHouseArbitrum.sol:ClearingHouseArbitrum",
        "label": "accounts",
        "offset": 0,
        "slot": "209",
        "type": "t_mapping(t_uint256,t_struct(UserInfo)8911_storage)"
      },
      {
        "astId": 21315,
        "contract": "contracts/protocol/clearinghouse/ClearingHouseArbitrum.sol:ClearingHouseArbitrum",
        "label": "paused",
        "offset": 0,
        "slot": "210",
        "type": "t_bool"
      },
      {
        "astId": 21317,
        "contract": "contracts/protocol/clearinghouse/ClearingHouseArbitrum.sol:ClearingHouseArbitrum",
        "label": "rageTradeFactoryAddress",
        "offset": 1,
        "slot": "210",
        "type": "t_address"
      },
      {
        "astId": 21320,
        "contract": "contracts/protocol/clearinghouse/ClearingHouseArbitrum.sol:ClearingHouseArbitrum",
        "label": "insuranceFund",
        "offset": 0,
        "slot": "211",
        "type": "t_contract(IInsuranceFund)7979"
      },
      {
        "astId": 21323,
        "contract": "contracts/protocol/clearinghouse/ClearingHouseArbitrum.sol:ClearingHouseArbitrum",
        "label": "nativeOracle",
        "offset": 0,
        "slot": "212",
        "type": "t_contract(IOracle)7989"
      },
      {
        "astId": 21327,
        "contract": "contracts/protocol/clearinghouse/ClearingHouseArbitrum.sol:ClearingHouseArbitrum",
        "label": "_emptySlots2",
        "offset": 0,
        "slot": "213",
        "type": "t_array(t_uint256)100_storage"
      },
      {
        "astId": 29193,
        "contract": "contracts/protocol/clearinghouse/ClearingHouseArbitrum.sol:ClearingHouseArbitrum",
        "label": "txGasPriceLimit",
        "offset": 0,
        "slot": "313",
        "type": "t_uint256"
      }
    ],
    "types": {
      "t_address": {
        "encoding": "inplace",
        "label": "address",
        "numberOfBytes": "20"
      },
      "t_array(t_uint256)100_storage": {
        "base": "t_uint256",
        "encoding": "inplace",
        "label": "uint256[100]",
        "numberOfBytes": "3200"
      },
      "t_array(t_uint256)98_storage": {
        "base": "t_uint256",
        "encoding": "inplace",
        "label": "uint256[98]",
        "numberOfBytes": "3136"
      },
      "t_array(t_uint32)8_storage": {
        "base": "t_uint32",
        "encoding": "inplace",
        "label": "uint32[8]",
        "numberOfBytes": "32"
      },
      "t_array(t_uint48)5_storage": {
        "base": "t_uint48",
        "encoding": "inplace",
        "label": "uint48[5]",
        "numberOfBytes": "32"
      },
      "t_bool": {
        "encoding": "inplace",
        "label": "bool",
        "numberOfBytes": "1"
      },
      "t_contract(IERC20)3505": {
        "encoding": "inplace",
        "label": "contract IERC20",
        "numberOfBytes": "20"
      },
      "t_contract(IInsuranceFund)7979": {
        "encoding": "inplace",
        "label": "contract IInsuranceFund",
        "numberOfBytes": "20"
      },
      "t_contract(IOracle)7989": {
        "encoding": "inplace",
        "label": "contract IOracle",
        "numberOfBytes": "20"
      },
      "t_contract(IUniswapV3Pool)5402": {
        "encoding": "inplace",
        "label": "contract IUniswapV3Pool",
        "numberOfBytes": "20"
      },
      "t_contract(IVBase)8013": {
        "encoding": "inplace",
        "label": "contract IVBase",
        "numberOfBytes": "20"
      },
      "t_contract(IVPoolWrapper)8158": {
        "encoding": "inplace",
        "label": "contract IVPoolWrapper",
        "numberOfBytes": "20"
      },
      "t_contract(IVToken)8182": {
        "encoding": "inplace",
        "label": "contract IVToken",
        "numberOfBytes": "20"
      },
      "t_enum(LimitOrderType)8413": {
        "encoding": "inplace",
        "label": "enum IClearingHouseEnums.LimitOrderType",
        "numberOfBytes": "1"
      },
      "t_int24": {
        "encoding": "inplace",
        "label": "int24",
        "numberOfBytes": "3"
      },
      "t_int256": {
        "encoding": "inplace",
        "label": "int256",
        "numberOfBytes": "32"
      },
      "t_mapping(t_uint256,t_struct(UserInfo)8911_storage)": {
        "encoding": "mapping",
        "key": "t_uint256",
        "label": "mapping(uint256 => struct Account.UserInfo)",
        "numberOfBytes": "32",
        "value": "t_struct(UserInfo)8911_storage"
      },
      "t_mapping(t_uint32,t_struct(Collateral)8541_storage)": {
        "encoding": "mapping",
        "key": "t_uint32",
        "label": "mapping(uint32 => struct IClearingHouseStructures.Collateral)",
        "numberOfBytes": "32",
        "value": "t_struct(Collateral)8541_storage"
      },
      "t_mapping(t_uint32,t_struct(Pool)8562_storage)": {
        "encoding": "mapping",
        "key": "t_uint32",
        "label": "mapping(uint32 => struct IClearingHouseStructures.Pool)",
        "numberOfBytes": "32",
        "value": "t_struct(Pool)8562_storage"
      },
      "t_mapping(t_uint32,t_struct(Position)16483_storage)": {
        "encoding": "mapping",
        "key": "t_uint32",
        "label": "mapping(uint32 => struct VTokenPosition.Position)",
        "numberOfBytes": "32",
        "value": "t_struct(Position)16483_storage"
      },
      "t_mapping(t_uint32,t_uint256)": {
        "encoding": "mapping",
        "key": "t_uint32",
        "label": "mapping(uint32 => uint256)",
        "numberOfBytes": "32",
        "value": "t_uint256"
      },
      "t_mapping(t_uint48,t_struct(Info)11392_storage)": {
        "encoding": "mapping",
        "key": "t_uint48",
        "label": "mapping(uint48 => struct LiquidityPosition.Info)",
        "numberOfBytes": "32",
        "value": "t_struct(Info)11392_storage"
      },
      "t_struct(Collateral)8541_storage": {
        "encoding": "inplace",
        "label": "struct IClearingHouseStructures.Collateral",
        "members": [
          {
            "astId": 8537,
            "contract": "contracts/protocol/clearinghouse/ClearingHouseArbitrum.sol:ClearingHouseArbitrum",
            "label": "token",
            "offset": 0,
            "slot": "0",
            "type": "t_contract(IERC20)3505"
          },
          {
            "astId": 8540,
            "contract": "contracts/protocol/clearinghouse/ClearingHouseArbitrum.sol:ClearingHouseArbitrum",
            "label": "settings",
            "offset": 0,
            "slot": "1",
            "type": "t_struct(CollateralSettings)8549_storage"
          }
        ],
        "numberOfBytes": "64"
      },
      "t_struct(CollateralSettings)8549_storage": {
        "encoding": "inplace",
        "label": "struct IClearingHouseStructures.CollateralSettings",
        "members": [
          {
            "astId": 8544,
            "contract": "contracts/protocol/clearinghouse/ClearingHouseArbitrum.sol:ClearingHouseArbitrum",
            "label": "oracle",
            "offset": 0,
            "slot": "0",
            "type": "t_contract(IOracle)7989"
          },
          {
            "astId": 8546,
            "contract": "contracts/protocol/clearinghouse/ClearingHouseArbitrum.sol:ClearingHouseArbitrum",
            "label": "twapDuration",
            "offset": 20,
            "slot": "0",
            "type": "t_uint32"
          },
          {
            "astId": 8548,
            "contract": "contracts/protocol/clearinghouse/ClearingHouseArbitrum.sol:ClearingHouseArbitrum",
            "label": "supported",
            "offset": 24,
            "slot": "0",
            "type": "t_bool"
          }
        ],
        "numberOfBytes": "32"
      },
      "t_struct(Info)10667_storage": {
        "encoding": "inplace",
        "label": "struct CTokenDepositSet.Info",
        "members": [
          {
            "astId": 10658,
            "contract": "contracts/protocol/clearinghouse/ClearingHouseArbitrum.sol:ClearingHouseArbitrum",
            "label": "active",
            "offset": 0,
            "slot": "0",
            "type": "t_array(t_uint32)8_storage"
          },
          {
            "astId": 10662,
            "contract": "contracts/protocol/clearinghouse/ClearingHouseArbitrum.sol:ClearingHouseArbitrum",
            "label": "deposits",
            "offset": 0,
            "slot": "1",
            "type": "t_mapping(t_uint32,t_uint256)"
          },
          {
            "astId": 10666,
            "contract": "contracts/protocol/clearinghouse/ClearingHouseArbitrum.sol:ClearingHouseArbitrum",
            "label": "_emptySlots",
            "offset": 0,
            "slot": "2",
            "type": "t_array(t_uint256)100_storage"
          }
        ],
        "numberOfBytes": "3264"
      },
      "t_struct(Info)11392_storage": {
        "encoding": "inplace",
        "label": "struct LiquidityPosition.Info",
        "members": [
          {
            "astId": 11371,
            "contract": "contracts/protocol/clearinghouse/ClearingHouseArbitrum.sol:ClearingHouseArbitrum",
            "label": "limitOrderType",
            "offset": 0,
            "slot": "0",
            "type": "t_enum(LimitOrderType)8413"
          },
          {
            "astId": 11373,
            "contract": "contracts/protocol/clearinghouse/ClearingHouseArbitrum.sol:ClearingHouseArbitrum",
            "label": "tickLower",
            "offset": 1,
            "slot": "0",
            "type": "t_int24"
          },
          {
            "astId": 11375,
            "contract": "contracts/protocol/clearinghouse/ClearingHouseArbitrum.sol:ClearingHouseArbitrum",
            "label": "tickUpper",
            "offset": 4,
            "slot": "0",
            "type": "t_int24"
          },
          {
            "astId": 11377,
            "contract": "contracts/protocol/clearinghouse/ClearingHouseArbitrum.sol:ClearingHouseArbitrum",
            "label": "liquidity",
            "offset": 7,
            "slot": "0",
            "type": "t_uint128"
          },
          {
            "astId": 11379,
            "contract": "contracts/protocol/clearinghouse/ClearingHouseArbitrum.sol:ClearingHouseArbitrum",
            "label": "vTokenAmountIn",
            "offset": 0,
            "slot": "1",
            "type": "t_int256"
          },
          {
            "astId": 11381,
            "contract": "contracts/protocol/clearinghouse/ClearingHouseArbitrum.sol:ClearingHouseArbitrum",
            "label": "sumALastX128",
            "offset": 0,
            "slot": "2",
            "type": "t_int256"
          },
          {
            "astId": 11383,
            "contract": "contracts/protocol/clearinghouse/ClearingHouseArbitrum.sol:ClearingHouseArbitrum",
            "label": "sumBInsideLastX128",
            "offset": 0,
            "slot": "3",
            "type": "t_int256"
          },
          {
            "astId": 11385,
            "contract": "contracts/protocol/clearinghouse/ClearingHouseArbitrum.sol:ClearingHouseArbitrum",
            "label": "sumFpInsideLastX128",
            "offset": 0,
            "slot": "4",
            "type": "t_int256"
          },
          {
            "astId": 11387,
            "contract": "contracts/protocol/clearinghouse/ClearingHouseArbitrum.sol:ClearingHouseArbitrum",
            "label": "sumFeeInsideLastX128",
            "offset": 0,
            "slot": "5",
            "type": "t_uint256"
          },
          {
            "astId": 11391,
            "contract": "contracts/protocol/clearinghouse/ClearingHouseArbitrum.sol:ClearingHouseArbitrum",
            "label": "_emptySlots",
            "offset": 0,
            "slot": "6",
            "type": "t_array(t_uint256)100_storage"
          }
        ],
        "numberOfBytes": "3392"
      },
      "t_struct(Info)12232_storage": {
        "encoding": "inplace",
        "label": "struct LiquidityPositionSet.Info",
        "members": [
          {
            "astId": 12222,
            "contract": "contracts/protocol/clearinghouse/ClearingHouseArbitrum.sol:ClearingHouseArbitrum",
            "label": "active",
            "offset": 0,
            "slot": "0",
            "type": "t_array(t_uint48)5_storage"
          },
          {
            "astId": 12227,
            "contract": "contracts/protocol/clearinghouse/ClearingHouseArbitrum.sol:ClearingHouseArbitrum",
            "label": "positions",
            "offset": 0,
            "slot": "1",
            "type": "t_mapping(t_uint48,t_struct(Info)11392_storage)"
          },
          {
            "astId": 12231,
            "contract": "contracts/protocol/clearinghouse/ClearingHouseArbitrum.sol:ClearingHouseArbitrum",
            "label": "_emptySlots",
            "offset": 0,
            "slot": "2",
            "type": "t_array(t_uint256)100_storage"
          }
        ],
        "numberOfBytes": "3264"
      },
      "t_struct(LiquidationParams)8617_storage": {
        "encoding": "inplace",
        "label": "struct IClearingHouseStructures.LiquidationParams",
        "members": [
          {
            "astId": 8610,
            "contract": "contracts/protocol/clearinghouse/ClearingHouseArbitrum.sol:ClearingHouseArbitrum",
            "label": "liquidationFeeFraction",
            "offset": 0,
            "slot": "0",
            "type": "t_uint16"
          },
          {
            "astId": 8612,
            "contract": "contracts/protocol/clearinghouse/ClearingHouseArbitrum.sol:ClearingHouseArbitrum",
            "label": "tokenLiquidationPriceDeltaBps",
            "offset": 2,
            "slot": "0",
            "type": "t_uint16"
          },
          {
            "astId": 8614,
            "contract": "contracts/protocol/clearinghouse/ClearingHouseArbitrum.sol:ClearingHouseArbitrum",
            "label": "insuranceFundFeeShareBps",
            "offset": 4,
            "slot": "0",
            "type": "t_uint16"
          },
          {
            "astId": 8616,
            "contract": "contracts/protocol/clearinghouse/ClearingHouseArbitrum.sol:ClearingHouseArbitrum",
            "label": "maxRangeLiquidationFees",
            "offset": 6,
            "slot": "0",
            "type": "t_uint128"
          }
        ],
        "numberOfBytes": "32"
      },
      "t_struct(Pool)8562_storage": {
        "encoding": "inplace",
        "label": "struct IClearingHouseStructures.Pool",
        "members": [
          {
            "astId": 8552,
            "contract": "contracts/protocol/clearinghouse/ClearingHouseArbitrum.sol:ClearingHouseArbitrum",
            "label": "vToken",
            "offset": 0,
            "slot": "0",
            "type": "t_contract(IVToken)8182"
          },
          {
            "astId": 8555,
            "contract": "contracts/protocol/clearinghouse/ClearingHouseArbitrum.sol:ClearingHouseArbitrum",
            "label": "vPool",
            "offset": 0,
            "slot": "1",
            "type": "t_contract(IUniswapV3Pool)5402"
          },
          {
            "astId": 8558,
            "contract": "contracts/protocol/clearinghouse/ClearingHouseArbitrum.sol:ClearingHouseArbitrum",
            "label": "vPoolWrapper",
            "offset": 0,
            "slot": "2",
            "type": "t_contract(IVPoolWrapper)8158"
          },
          {
            "astId": 8561,
            "contract": "contracts/protocol/clearinghouse/ClearingHouseArbitrum.sol:ClearingHouseArbitrum",
            "label": "settings",
            "offset": 0,
            "slot": "3",
            "type": "t_struct(PoolSettings)8576_storage"
          }
        ],
        "numberOfBytes": "128"
      },
      "t_struct(PoolSettings)8576_storage": {
        "encoding": "inplace",
        "label": "struct IClearingHouseStructures.PoolSettings",
        "members": [
          {
            "astId": 8564,
            "contract": "contracts/protocol/clearinghouse/ClearingHouseArbitrum.sol:ClearingHouseArbitrum",
            "label": "initialMarginRatio",
            "offset": 0,
            "slot": "0",
            "type": "t_uint16"
          },
          {
            "astId": 8566,
            "contract": "contracts/protocol/clearinghouse/ClearingHouseArbitrum.sol:ClearingHouseArbitrum",
            "label": "maintainanceMarginRatio",
            "offset": 2,
            "slot": "0",
            "type": "t_uint16"
          },
          {
            "astId": 8568,
            "contract": "contracts/protocol/clearinghouse/ClearingHouseArbitrum.sol:ClearingHouseArbitrum",
            "label": "twapDuration",
            "offset": 4,
            "slot": "0",
            "type": "t_uint32"
          },
          {
            "astId": 8570,
            "contract": "contracts/protocol/clearinghouse/ClearingHouseArbitrum.sol:ClearingHouseArbitrum",
            "label": "supported",
            "offset": 8,
            "slot": "0",
            "type": "t_bool"
          },
          {
            "astId": 8572,
            "contract": "contracts/protocol/clearinghouse/ClearingHouseArbitrum.sol:ClearingHouseArbitrum",
            "label": "isCrossMargined",
            "offset": 9,
            "slot": "0",
            "type": "t_bool"
          },
          {
            "astId": 8575,
            "contract": "contracts/protocol/clearinghouse/ClearingHouseArbitrum.sol:ClearingHouseArbitrum",
            "label": "oracle",
            "offset": 10,
            "slot": "0",
            "type": "t_contract(IOracle)7989"
          }
        ],
        "numberOfBytes": "32"
      },
      "t_struct(Position)16483_storage": {
        "encoding": "inplace",
        "label": "struct VTokenPosition.Position",
        "members": [
          {
            "astId": 16471,
            "contract": "contracts/protocol/clearinghouse/ClearingHouseArbitrum.sol:ClearingHouseArbitrum",
            "label": "balance",
            "offset": 0,
            "slot": "0",
            "type": "t_int256"
          },
          {
            "astId": 16473,
            "contract": "contracts/protocol/clearinghouse/ClearingHouseArbitrum.sol:ClearingHouseArbitrum",
            "label": "netTraderPosition",
            "offset": 0,
            "slot": "1",
            "type": "t_int256"
          },
          {
            "astId": 16475,
            "contract": "contracts/protocol/clearinghouse/ClearingHouseArbitrum.sol:ClearingHouseArbitrum",
            "label": "sumAX128Ckpt",
            "offset": 0,
            "slot": "2",
            "type": "t_int256"
          },
          {
            "astId": 16478,
            "contract": "contracts/protocol/clearinghouse/ClearingHouseArbitrum.sol:ClearingHouseArbitrum",
            "label": "liquidityPositions",
            "offset": 0,
            "slot": "3",
            "type": "t_struct(Info)12232_storage"
          },
          {
            "astId": 16482,
            "contract": "contracts/protocol/clearinghouse/ClearingHouseArbitrum.sol:ClearingHouseArbitrum",
            "label": "_emptySlots",
            "offset": 0,
            "slot": "105",
            "type": "t_array(t_uint256)100_storage"
          }
        ],
        "numberOfBytes": "6560"
      },
      "t_struct(ProtocolInfo)8941_storage": {
        "encoding": "inplace",
        "label": "struct Account.ProtocolInfo",
        "members": [
          {
            "astId": 8916,
            "contract": "contracts/protocol/clearinghouse/ClearingHouseArbitrum.sol:ClearingHouseArbitrum",
            "label": "pools",
            "offset": 0,
            "slot": "0",
            "type": "t_mapping(t_uint32,t_struct(Pool)8562_storage)"
          },
          {
            "astId": 8921,
            "contract": "contracts/protocol/clearinghouse/ClearingHouseArbitrum.sol:ClearingHouseArbitrum",
            "label": "collaterals",
            "offset": 0,
            "slot": "1",
            "type": "t_mapping(t_uint32,t_struct(Collateral)8541_storage)"
          },
          {
            "astId": 8924,
            "contract": "contracts/protocol/clearinghouse/ClearingHouseArbitrum.sol:ClearingHouseArbitrum",
            "label": "vBase",
            "offset": 0,
            "slot": "2",
            "type": "t_contract(IVBase)8013"
          },
          {
            "astId": 8927,
            "contract": "contracts/protocol/clearinghouse/ClearingHouseArbitrum.sol:ClearingHouseArbitrum",
            "label": "cBase",
            "offset": 0,
            "slot": "3",
            "type": "t_contract(IERC20)3505"
          },
          {
            "astId": 8930,
            "contract": "contracts/protocol/clearinghouse/ClearingHouseArbitrum.sol:ClearingHouseArbitrum",
            "label": "liquidationParams",
            "offset": 0,
            "slot": "4",
            "type": "t_struct(LiquidationParams)8617_storage"
          },
          {
            "astId": 8932,
            "contract": "contracts/protocol/clearinghouse/ClearingHouseArbitrum.sol:ClearingHouseArbitrum",
            "label": "minRequiredMargin",
            "offset": 0,
            "slot": "5",
            "type": "t_uint256"
          },
          {
            "astId": 8934,
            "contract": "contracts/protocol/clearinghouse/ClearingHouseArbitrum.sol:ClearingHouseArbitrum",
            "label": "removeLimitOrderFee",
            "offset": 0,
            "slot": "6",
            "type": "t_uint256"
          },
          {
            "astId": 8936,
            "contract": "contracts/protocol/clearinghouse/ClearingHouseArbitrum.sol:ClearingHouseArbitrum",
            "label": "minimumOrderNotional",
            "offset": 0,
            "slot": "7",
            "type": "t_uint256"
          },
          {
            "astId": 8940,
            "contract": "contracts/protocol/clearinghouse/ClearingHouseArbitrum.sol:ClearingHouseArbitrum",
            "label": "_emptySlots",
            "offset": 0,
            "slot": "8",
            "type": "t_array(t_uint256)100_storage"
          }
        ],
        "numberOfBytes": "3456"
      },
      "t_struct(Set)16776_storage": {
        "encoding": "inplace",
        "label": "struct VTokenPositionSet.Set",
        "members": [
          {
            "astId": 16762,
            "contract": "contracts/protocol/clearinghouse/ClearingHouseArbitrum.sol:ClearingHouseArbitrum",
            "label": "accountNo",
            "offset": 0,
            "slot": "0",
            "type": "t_uint256"
          },
          {
            "astId": 16766,
            "contract": "contracts/protocol/clearinghouse/ClearingHouseArbitrum.sol:ClearingHouseArbitrum",
            "label": "active",
            "offset": 0,
            "slot": "1",
            "type": "t_array(t_uint32)8_storage"
          },
          {
            "astId": 16771,
            "contract": "contracts/protocol/clearinghouse/ClearingHouseArbitrum.sol:ClearingHouseArbitrum",
            "label": "positions",
            "offset": 0,
            "slot": "2",
            "type": "t_mapping(t_uint32,t_struct(Position)16483_storage)"
          },
          {
            "astId": 16775,
            "contract": "contracts/protocol/clearinghouse/ClearingHouseArbitrum.sol:ClearingHouseArbitrum",
            "label": "_emptySlots",
            "offset": 0,
            "slot": "3",
            "type": "t_array(t_uint256)100_storage"
          }
        ],
        "numberOfBytes": "3296"
      },
      "t_struct(UserInfo)8911_storage": {
        "encoding": "inplace",
        "label": "struct Account.UserInfo",
        "members": [
          {
            "astId": 8900,
            "contract": "contracts/protocol/clearinghouse/ClearingHouseArbitrum.sol:ClearingHouseArbitrum",
            "label": "owner",
            "offset": 0,
            "slot": "0",
            "type": "t_address"
          },
          {
            "astId": 8903,
            "contract": "contracts/protocol/clearinghouse/ClearingHouseArbitrum.sol:ClearingHouseArbitrum",
            "label": "tokenPositions",
            "offset": 0,
            "slot": "1",
            "type": "t_struct(Set)16776_storage"
          },
          {
            "astId": 8906,
            "contract": "contracts/protocol/clearinghouse/ClearingHouseArbitrum.sol:ClearingHouseArbitrum",
            "label": "tokenDeposits",
            "offset": 0,
            "slot": "104",
            "type": "t_struct(Info)10667_storage"
          },
          {
            "astId": 8910,
            "contract": "contracts/protocol/clearinghouse/ClearingHouseArbitrum.sol:ClearingHouseArbitrum",
            "label": "_emptySlots",
            "offset": 0,
            "slot": "206",
            "type": "t_array(t_uint256)100_storage"
          }
        ],
        "numberOfBytes": "9792"
      },
      "t_uint128": {
        "encoding": "inplace",
        "label": "uint128",
        "numberOfBytes": "16"
      },
      "t_uint16": {
        "encoding": "inplace",
        "label": "uint16",
        "numberOfBytes": "2"
      },
      "t_uint256": {
        "encoding": "inplace",
        "label": "uint256",
        "numberOfBytes": "32"
      },
      "t_uint32": {
        "encoding": "inplace",
        "label": "uint32",
        "numberOfBytes": "4"
      },
      "t_uint48": {
        "encoding": "inplace",
        "label": "uint48",
        "numberOfBytes": "6"
      }
    }
  }
}