{
  "address": "0x4b173C91CDFb0c57e23d6920E1aB8Be4F5bD01b7",
  "abi": [
    {
      "inputs": [
        {
          "internalType": "address",
          "name": "senderAddress",
          "type": "address"
        }
      ],
      "name": "AccessDenied",
      "type": "error"
    },
    {
      "inputs": [],
      "name": "CannotPauseIfUnpauseInProgress",
      "type": "error"
    },
    {
      "inputs": [],
      "name": "CannotUnpauseIfPauseInProgress",
      "type": "error"
    },
    {
      "inputs": [
        {
          "internalType": "uint32",
          "name": "collateralId",
          "type": "uint32"
        }
      ],
      "name": "CollateralDoesNotExist",
      "type": "error"
    },
    {
      "inputs": [
        {
          "internalType": "uint32",
          "name": "collateralId",
          "type": "uint32"
        }
      ],
      "name": "CollateralNotAllowedForUse",
      "type": "error"
    },
    {
      "inputs": [
        {
          "internalType": "uint160",
          "name": "sqrtPriceX96",
          "type": "uint160"
        }
      ],
      "name": "IllegalSqrtPrice",
      "type": "error"
    },
    {
      "inputs": [
        {
          "internalType": "contract IERC20",
          "name": "incorrectAddress",
          "type": "address"
        },
        {
          "internalType": "contract IERC20",
          "name": "correctAddress",
          "type": "address"
        }
      ],
      "name": "IncorrectCollateralAddress",
      "type": "error"
    },
    {
      "inputs": [
        {
          "internalType": "address",
          "name": "invalidAddress",
          "type": "address"
        }
      ],
      "name": "InvalidCollateralAddress",
      "type": "error"
    },
    {
      "inputs": [
        {
          "internalType": "enum IClearingHouseEnums.MulticallOperationType",
          "name": "multicallOperationType",
          "type": "uint8"
        }
      ],
      "name": "InvalidMulticallOperationType",
      "type": "error"
    },
    {
      "inputs": [
        {
          "internalType": "uint256",
          "name": "errorCode",
          "type": "uint256"
        }
      ],
      "name": "InvalidSetting",
      "type": "error"
    },
    {
      "inputs": [],
      "name": "InvalidTokenLiquidationParameters",
      "type": "error"
    },
    {
      "inputs": [
        {
          "internalType": "int256",
          "name": "keeperFee",
          "type": "int256"
        }
      ],
      "name": "KeeperFeeNotPositive",
      "type": "error"
    },
    {
      "inputs": [
        {
          "internalType": "uint256",
          "name": "notionalValue",
          "type": "uint256"
        }
      ],
      "name": "LowNotionalValue",
      "type": "error"
    },
    {
      "inputs": [],
      "name": "NotRageTradeFactory",
      "type": "error"
    },
    {
      "inputs": [
        {
          "internalType": "uint32",
          "name": "poolId",
          "type": "uint32"
        }
      ],
      "name": "PoolDoesNotExist",
      "type": "error"
    },
    {
      "inputs": [
        {
          "internalType": "uint32",
          "name": "poolId",
          "type": "uint32"
        }
      ],
      "name": "PoolNotAllowedForTrade",
      "type": "error"
    },
    {
      "inputs": [
        {
          "internalType": "uint256",
          "name": "value",
          "type": "uint256"
        }
      ],
      "name": "SafeCast_UInt224Overflow",
      "type": "error"
    },
    {
      "inputs": [],
      "name": "SlippageBeyondTolerance",
      "type": "error"
    },
    {
      "inputs": [],
      "name": "T",
      "type": "error"
    },
    {
      "inputs": [],
      "name": "Unauthorised",
      "type": "error"
    },
    {
      "inputs": [],
      "name": "ZeroAddress",
      "type": "error"
    },
    {
      "inputs": [],
      "name": "ZeroAmount",
      "type": "error"
    },
    {
      "anonymous": false,
      "inputs": [
        {
          "indexed": true,
          "internalType": "address",
          "name": "ownerAddress",
          "type": "address"
        },
        {
          "indexed": false,
          "internalType": "uint256",
          "name": "accountId",
          "type": "uint256"
        }
      ],
      "name": "AccountCreated",
      "type": "event"
    },
    {
      "anonymous": false,
      "inputs": [
        {
          "indexed": false,
          "internalType": "contract IERC20",
          "name": "cToken",
          "type": "address"
        },
        {
          "components": [
            {
              "internalType": "contract IOracle",
              "name": "oracle",
              "type": "address"
            },
            {
              "internalType": "uint32",
              "name": "twapDuration",
              "type": "uint32"
            },
            {
              "internalType": "bool",
              "name": "isAllowedForDeposit",
              "type": "bool"
            }
          ],
          "indexed": false,
          "internalType": "struct IClearingHouseStructures.CollateralSettings",
          "name": "cTokenInfo",
          "type": "tuple"
        }
      ],
      "name": "CollateralSettingsUpdated",
      "type": "event"
    },
    {
      "anonymous": false,
      "inputs": [
        {
          "indexed": true,
          "internalType": "address",
          "name": "previousGovernancePending",
          "type": "address"
        },
        {
          "indexed": true,
          "internalType": "address",
          "name": "newGovernancePending",
          "type": "address"
        }
      ],
      "name": "GovernancePending",
      "type": "event"
    },
    {
      "anonymous": false,
      "inputs": [
        {
          "indexed": true,
          "internalType": "address",
          "name": "previousGovernance",
          "type": "address"
        },
        {
          "indexed": true,
          "internalType": "address",
          "name": "newGovernance",
          "type": "address"
        }
      ],
      "name": "GovernanceTransferred",
      "type": "event"
    },
    {
      "anonymous": false,
      "inputs": [
        {
          "indexed": false,
          "internalType": "address",
          "name": "account",
          "type": "address"
        }
      ],
      "name": "Paused",
      "type": "event"
    },
    {
      "anonymous": false,
      "inputs": [
        {
          "indexed": false,
          "internalType": "bool",
          "name": "paused",
          "type": "bool"
        }
      ],
      "name": "PausedUpdated",
      "type": "event"
    },
    {
      "anonymous": false,
      "inputs": [
        {
          "indexed": false,
          "internalType": "uint32",
          "name": "poolId",
          "type": "uint32"
        },
        {
          "components": [
            {
              "internalType": "uint16",
              "name": "initialMarginRatioBps",
              "type": "uint16"
            },
            {
              "internalType": "uint16",
              "name": "maintainanceMarginRatioBps",
              "type": "uint16"
            },
            {
              "internalType": "uint16",
              "name": "maxVirtualPriceDeviationRatioBps",
              "type": "uint16"
            },
            {
              "internalType": "uint32",
              "name": "twapDuration",
              "type": "uint32"
            },
            {
              "internalType": "bool",
              "name": "isAllowedForTrade",
              "type": "bool"
            },
            {
              "internalType": "bool",
              "name": "isCrossMargined",
              "type": "bool"
            },
            {
              "internalType": "contract IOracle",
              "name": "oracle",
              "type": "address"
            }
          ],
          "indexed": false,
          "internalType": "struct IClearingHouseStructures.PoolSettings",
          "name": "settings",
          "type": "tuple"
        }
      ],
      "name": "PoolSettingsUpdated",
      "type": "event"
    },
    {
      "anonymous": false,
      "inputs": [
        {
          "components": [
            {
              "internalType": "uint16",
              "name": "rangeLiquidationFeeFraction",
              "type": "uint16"
            },
            {
              "internalType": "uint16",
              "name": "tokenLiquidationFeeFraction",
              "type": "uint16"
            },
            {
              "internalType": "uint16",
              "name": "closeFactorMMThresholdBps",
              "type": "uint16"
            },
            {
              "internalType": "uint16",
              "name": "partialLiquidationCloseFactorBps",
              "type": "uint16"
            },
            {
              "internalType": "uint16",
              "name": "insuranceFundFeeShareBps",
              "type": "uint16"
            },
            {
              "internalType": "uint16",
              "name": "liquidationSlippageSqrtToleranceBps",
              "type": "uint16"
            },
            {
              "internalType": "uint64",
              "name": "maxRangeLiquidationFees",
              "type": "uint64"
            },
            {
              "internalType": "uint64",
              "name": "minNotionalLiquidatable",
              "type": "uint64"
            }
          ],
          "indexed": false,
          "internalType": "struct IClearingHouseStructures.LiquidationParams",
          "name": "liquidationParams",
          "type": "tuple"
        },
        {
          "indexed": false,
          "internalType": "uint256",
          "name": "removeLimitOrderFee",
          "type": "uint256"
        },
        {
          "indexed": false,
          "internalType": "uint256",
          "name": "minimumOrderNotional",
          "type": "uint256"
        },
        {
          "indexed": false,
          "internalType": "uint256",
          "name": "minRequiredMargin",
          "type": "uint256"
        }
      ],
      "name": "ProtocolSettingsUpdated",
      "type": "event"
    },
    {
      "anonymous": false,
      "inputs": [
        {
          "indexed": true,
          "internalType": "address",
          "name": "previousTeamMultisigPending",
          "type": "address"
        },
        {
          "indexed": true,
          "internalType": "address",
          "name": "newTeamMultisigPending",
          "type": "address"
        }
      ],
      "name": "TeamMultisigPending",
      "type": "event"
    },
    {
      "anonymous": false,
      "inputs": [
        {
          "indexed": true,
          "internalType": "address",
          "name": "previousTeamMultisig",
          "type": "address"
        },
        {
          "indexed": true,
          "internalType": "address",
          "name": "newTeamMultisig",
          "type": "address"
        }
      ],
      "name": "TeamMultisigTransferred",
      "type": "event"
    },
    {
      "anonymous": false,
      "inputs": [
        {
          "indexed": false,
          "internalType": "address",
          "name": "account",
          "type": "address"
        }
      ],
      "name": "Unpaused",
      "type": "event"
    },
    {
      "inputs": [],
      "name": "acceptGovernanceTransfer",
      "outputs": [],
      "stateMutability": "nonpayable",
      "type": "function"
    },
    {
      "inputs": [],
      "name": "acceptTeamMultisigTransfer",
      "outputs": [],
      "stateMutability": "nonpayable",
      "type": "function"
    },
    {
      "inputs": [],
      "name": "createAccount",
      "outputs": [
        {
          "internalType": "uint256",
          "name": "newAccountId",
          "type": "uint256"
        }
      ],
      "stateMutability": "nonpayable",
      "type": "function"
    },
    {
      "inputs": [
        {
          "internalType": "uint32",
          "name": "collateralId",
          "type": "uint32"
        },
        {
          "internalType": "uint256",
          "name": "amount",
          "type": "uint256"
        }
      ],
      "name": "createAccountAndAddMargin",
      "outputs": [
        {
          "internalType": "uint256",
          "name": "newAccountId",
          "type": "uint256"
        }
      ],
      "stateMutability": "nonpayable",
      "type": "function"
    },
    {
      "inputs": [
        {
          "internalType": "bytes32",
          "name": "slot",
          "type": "bytes32"
        }
      ],
      "name": "extsload",
      "outputs": [
        {
          "internalType": "bytes32",
          "name": "val",
          "type": "bytes32"
        }
      ],
      "stateMutability": "view",
      "type": "function"
    },
    {
      "inputs": [
        {
          "internalType": "bytes32[]",
          "name": "slots",
          "type": "bytes32[]"
        }
      ],
      "name": "extsload",
      "outputs": [
        {
          "internalType": "bytes32[]",
          "name": "",
          "type": "bytes32[]"
        }
      ],
      "stateMutability": "view",
      "type": "function"
    },
    {
      "inputs": [
        {
          "internalType": "uint256",
          "name": "accountId",
          "type": "uint256"
        },
        {
          "internalType": "bool",
          "name": "isInitialMargin",
          "type": "bool"
        }
      ],
      "name": "getAccountMarketValueAndRequiredMargin",
      "outputs": [
        {
          "internalType": "int256",
          "name": "marketValue",
          "type": "int256"
        },
        {
          "internalType": "int256",
          "name": "requiredMargin",
          "type": "int256"
        }
      ],
      "stateMutability": "view",
      "type": "function"
    },
    {
      "inputs": [
        {
          "internalType": "uint256",
          "name": "accountId",
          "type": "uint256"
        }
      ],
      "name": "getAccountNetProfit",
      "outputs": [
        {
          "internalType": "int256",
          "name": "accountNetProfit",
          "type": "int256"
        }
      ],
      "stateMutability": "view",
      "type": "function"
    },
    {
      "inputs": [
        {
          "internalType": "uint256",
          "name": "accountId",
          "type": "uint256"
        },
        {
          "internalType": "uint32",
          "name": "poolId",
          "type": "uint32"
        }
      ],
      "name": "getAccountNetTokenPosition",
      "outputs": [
        {
          "internalType": "int256",
          "name": "netPosition",
          "type": "int256"
        }
      ],
      "stateMutability": "view",
      "type": "function"
    },
    {
      "inputs": [
        {
          "internalType": "uint32",
          "name": "poolId",
          "type": "uint32"
        }
      ],
      "name": "getRealTwapPriceX128",
      "outputs": [
        {
          "internalType": "uint256",
          "name": "realPriceX128",
          "type": "uint256"
        }
      ],
      "stateMutability": "view",
      "type": "function"
    },
    {
      "inputs": [
        {
          "internalType": "uint32",
          "name": "poolId",
          "type": "uint32"
        }
      ],
      "name": "getVirtualTwapPriceX128",
      "outputs": [
        {
          "internalType": "uint256",
          "name": "virtualPriceX128",
          "type": "uint256"
        }
      ],
      "stateMutability": "view",
      "type": "function"
    },
    {
      "inputs": [],
      "name": "governance",
      "outputs": [
        {
          "internalType": "address",
          "name": "",
          "type": "address"
        }
      ],
      "stateMutability": "view",
      "type": "function"
    },
    {
      "inputs": [],
      "name": "governancePending",
      "outputs": [
        {
          "internalType": "address",
          "name": "",
          "type": "address"
        }
      ],
      "stateMutability": "view",
      "type": "function"
    },
    {
      "inputs": [
        {
          "internalType": "address",
          "name": "_rageTradeFactoryAddress",
          "type": "address"
        },
        {
          "internalType": "address",
          "name": "initialGovernance",
          "type": "address"
        },
        {
          "internalType": "address",
          "name": "initialTeamMultisig",
          "type": "address"
        },
        {
          "internalType": "contract IERC20",
          "name": "_defaultCollateralToken",
          "type": "address"
        },
        {
          "internalType": "contract IOracle",
          "name": "_defaultCollateralTokenOracle",
          "type": "address"
        },
        {
          "internalType": "contract IInsuranceFund",
          "name": "_insuranceFund",
          "type": "address"
        },
        {
          "internalType": "contract IVQuote",
          "name": "_vQuote",
          "type": "address"
        }
      ],
      "name": "initialize",
      "outputs": [],
      "stateMutability": "nonpayable",
      "type": "function"
    },
    {
      "inputs": [
        {
          "internalType": "address",
          "name": "newGovernancePending",
          "type": "address"
        }
      ],
      "name": "initiateGovernanceTransfer",
      "outputs": [],
      "stateMutability": "nonpayable",
      "type": "function"
    },
    {
      "inputs": [
        {
          "internalType": "address",
          "name": "newTeamMultisigPending",
          "type": "address"
        }
      ],
      "name": "initiateTeamMultisigTransfer",
      "outputs": [],
      "stateMutability": "nonpayable",
      "type": "function"
    },
    {
      "inputs": [],
      "name": "insuranceFund",
      "outputs": [
        {
          "internalType": "contract IInsuranceFund",
          "name": "",
          "type": "address"
        }
      ],
      "stateMutability": "view",
      "type": "function"
    },
    {
      "inputs": [
        {
          "internalType": "uint256",
          "name": "accountId",
          "type": "uint256"
        }
      ],
      "name": "liquidateLiquidityPositions",
      "outputs": [],
      "stateMutability": "nonpayable",
      "type": "function"
    },
    {
      "inputs": [
        {
          "internalType": "uint256",
          "name": "targetAccountId",
          "type": "uint256"
        },
        {
          "internalType": "uint32",
          "name": "poolId",
          "type": "uint32"
        }
      ],
      "name": "liquidateTokenPosition",
      "outputs": [
        {
          "internalType": "int256",
          "name": "keeperFee",
          "type": "int256"
        }
      ],
      "stateMutability": "nonpayable",
      "type": "function"
    },
    {
      "inputs": [
        {
          "internalType": "bytes[]",
          "name": "data",
          "type": "bytes[]"
        }
      ],
      "name": "multicall",
      "outputs": [
        {
          "internalType": "bytes[]",
          "name": "results",
          "type": "bytes[]"
        }
      ],
      "stateMutability": "payable",
      "type": "function"
    },
    {
      "inputs": [
        {
          "internalType": "uint256",
          "name": "accountId",
          "type": "uint256"
        },
        {
          "components": [
            {
              "internalType": "enum IClearingHouseEnums.MulticallOperationType",
              "name": "operationType",
              "type": "uint8"
            },
            {
              "internalType": "bytes",
              "name": "data",
              "type": "bytes"
            }
          ],
          "internalType": "struct IClearingHouseStructures.MulticallOperation[]",
          "name": "operations",
          "type": "tuple[]"
        }
      ],
      "name": "multicallWithSingleMarginCheck",
      "outputs": [
        {
          "internalType": "bytes[]",
          "name": "results",
          "type": "bytes[]"
        }
      ],
      "stateMutability": "nonpayable",
      "type": "function"
    },
    {
      "inputs": [],
      "name": "numAccounts",
      "outputs": [
        {
          "internalType": "uint256",
          "name": "",
          "type": "uint256"
        }
      ],
      "stateMutability": "view",
      "type": "function"
    },
    {
      "inputs": [
        {
          "internalType": "uint256",
          "name": "numberOfPoolsToUpdateInThisTx",
          "type": "uint256"
        }
      ],
      "name": "pause",
      "outputs": [],
      "stateMutability": "nonpayable",
      "type": "function"
    },
    {
      "inputs": [],
      "name": "paused",
      "outputs": [
        {
          "internalType": "bool",
          "name": "",
          "type": "bool"
        }
      ],
      "stateMutability": "view",
      "type": "function"
    },
    {
      "inputs": [],
      "name": "rageTradeFactoryAddress",
      "outputs": [
        {
          "internalType": "address",
          "name": "",
          "type": "address"
        }
      ],
      "stateMutability": "view",
      "type": "function"
    },
    {
      "inputs": [
        {
          "components": [
            {
              "internalType": "contract IVToken",
              "name": "vToken",
              "type": "address"
            },
            {
              "internalType": "contract IUniswapV3Pool",
              "name": "vPool",
              "type": "address"
            },
            {
              "internalType": "contract IVPoolWrapper",
              "name": "vPoolWrapper",
              "type": "address"
            },
            {
              "components": [
                {
                  "internalType": "uint16",
                  "name": "initialMarginRatioBps",
                  "type": "uint16"
                },
                {
                  "internalType": "uint16",
                  "name": "maintainanceMarginRatioBps",
                  "type": "uint16"
                },
                {
                  "internalType": "uint16",
                  "name": "maxVirtualPriceDeviationRatioBps",
                  "type": "uint16"
                },
                {
                  "internalType": "uint32",
                  "name": "twapDuration",
                  "type": "uint32"
                },
                {
                  "internalType": "bool",
                  "name": "isAllowedForTrade",
                  "type": "bool"
                },
                {
                  "internalType": "bool",
                  "name": "isCrossMargined",
                  "type": "bool"
                },
                {
                  "internalType": "contract IOracle",
                  "name": "oracle",
                  "type": "address"
                }
              ],
              "internalType": "struct IClearingHouseStructures.PoolSettings",
              "name": "settings",
              "type": "tuple"
            }
          ],
          "internalType": "struct IClearingHouseStructures.Pool",
          "name": "poolInfo",
          "type": "tuple"
        }
      ],
      "name": "registerPool",
      "outputs": [],
      "stateMutability": "nonpayable",
      "type": "function"
    },
    {
      "inputs": [
        {
          "internalType": "uint256",
          "name": "accountId",
          "type": "uint256"
        },
        {
          "internalType": "uint32",
          "name": "poolId",
          "type": "uint32"
        },
        {
          "internalType": "int24",
          "name": "tickLower",
          "type": "int24"
        },
        {
          "internalType": "int24",
          "name": "tickUpper",
          "type": "int24"
        }
      ],
      "name": "removeLimitOrder",
      "outputs": [],
      "stateMutability": "nonpayable",
      "type": "function"
    },
    {
      "inputs": [
        {
          "internalType": "uint256",
          "name": "accountId",
          "type": "uint256"
        }
      ],
      "name": "settleProfit",
      "outputs": [],
      "stateMutability": "nonpayable",
      "type": "function"
    },
    {
      "inputs": [
        {
          "internalType": "uint256",
          "name": "accountId",
          "type": "uint256"
        },
        {
          "internalType": "uint32",
          "name": "poolId",
          "type": "uint32"
        },
        {
          "components": [
            {
              "internalType": "int256",
              "name": "amount",
              "type": "int256"
            },
            {
              "internalType": "uint160",
              "name": "sqrtPriceLimit",
              "type": "uint160"
            },
            {
              "internalType": "bool",
              "name": "isNotional",
              "type": "bool"
            },
            {
              "internalType": "bool",
              "name": "isPartialAllowed",
              "type": "bool"
            },
            {
              "internalType": "bool",
              "name": "settleProfit",
              "type": "bool"
            }
          ],
          "internalType": "struct IClearingHouseStructures.SwapParams",
          "name": "swapParams",
          "type": "tuple"
        }
      ],
      "name": "swapToken",
      "outputs": [
        {
          "internalType": "int256",
          "name": "vTokenAmountOut",
          "type": "int256"
        },
        {
          "internalType": "int256",
          "name": "vQuoteAmountOut",
          "type": "int256"
        }
      ],
      "stateMutability": "nonpayable",
      "type": "function"
    },
    {
      "inputs": [],
      "name": "teamMultisig",
      "outputs": [
        {
          "internalType": "address",
          "name": "",
          "type": "address"
        }
      ],
      "stateMutability": "view",
      "type": "function"
    },
    {
      "inputs": [],
      "name": "teamMultisigPending",
      "outputs": [
        {
          "internalType": "address",
          "name": "",
          "type": "address"
        }
      ],
      "stateMutability": "view",
      "type": "function"
    },
    {
      "inputs": [
        {
          "internalType": "uint256",
          "name": "numberOfPoolsToUpdateInThisTx",
          "type": "uint256"
        }
      ],
      "name": "unpause",
      "outputs": [],
      "stateMutability": "nonpayable",
      "type": "function"
    },
    {
      "inputs": [
        {
          "internalType": "contract IERC20",
          "name": "cToken",
          "type": "address"
        },
        {
          "components": [
            {
              "internalType": "contract IOracle",
              "name": "oracle",
              "type": "address"
            },
            {
              "internalType": "uint32",
              "name": "twapDuration",
              "type": "uint32"
            },
            {
              "internalType": "bool",
              "name": "isAllowedForDeposit",
              "type": "bool"
            }
          ],
          "internalType": "struct IClearingHouseStructures.CollateralSettings",
          "name": "collateralSettings",
          "type": "tuple"
        }
      ],
      "name": "updateCollateralSettings",
      "outputs": [],
      "stateMutability": "nonpayable",
      "type": "function"
    },
    {
      "inputs": [
        {
          "internalType": "uint256",
          "name": "accountId",
          "type": "uint256"
        },
        {
          "internalType": "uint32",
          "name": "collateralId",
          "type": "uint32"
        },
        {
          "internalType": "int256",
          "name": "amount",
          "type": "int256"
        }
      ],
      "name": "updateMargin",
      "outputs": [],
      "stateMutability": "nonpayable",
      "type": "function"
    },
    {
      "inputs": [
        {
          "internalType": "uint32",
          "name": "poolId",
          "type": "uint32"
        },
        {
          "components": [
            {
              "internalType": "uint16",
              "name": "initialMarginRatioBps",
              "type": "uint16"
            },
            {
              "internalType": "uint16",
              "name": "maintainanceMarginRatioBps",
              "type": "uint16"
            },
            {
              "internalType": "uint16",
              "name": "maxVirtualPriceDeviationRatioBps",
              "type": "uint16"
            },
            {
              "internalType": "uint32",
              "name": "twapDuration",
              "type": "uint32"
            },
            {
              "internalType": "bool",
              "name": "isAllowedForTrade",
              "type": "bool"
            },
            {
              "internalType": "bool",
              "name": "isCrossMargined",
              "type": "bool"
            },
            {
              "internalType": "contract IOracle",
              "name": "oracle",
              "type": "address"
            }
          ],
          "internalType": "struct IClearingHouseStructures.PoolSettings",
          "name": "newSettings",
          "type": "tuple"
        }
      ],
      "name": "updatePoolSettings",
      "outputs": [],
      "stateMutability": "nonpayable",
      "type": "function"
    },
    {
      "inputs": [
        {
          "internalType": "uint256",
          "name": "accountId",
          "type": "uint256"
        },
        {
          "internalType": "int256",
          "name": "amount",
          "type": "int256"
        }
      ],
      "name": "updateProfit",
      "outputs": [],
      "stateMutability": "nonpayable",
      "type": "function"
    },
    {
      "inputs": [
        {
          "components": [
            {
              "internalType": "uint16",
              "name": "rangeLiquidationFeeFraction",
              "type": "uint16"
            },
            {
              "internalType": "uint16",
              "name": "tokenLiquidationFeeFraction",
              "type": "uint16"
            },
            {
              "internalType": "uint16",
              "name": "closeFactorMMThresholdBps",
              "type": "uint16"
            },
            {
              "internalType": "uint16",
              "name": "partialLiquidationCloseFactorBps",
              "type": "uint16"
            },
            {
              "internalType": "uint16",
              "name": "insuranceFundFeeShareBps",
              "type": "uint16"
            },
            {
              "internalType": "uint16",
              "name": "liquidationSlippageSqrtToleranceBps",
              "type": "uint16"
            },
            {
              "internalType": "uint64",
              "name": "maxRangeLiquidationFees",
              "type": "uint64"
            },
            {
              "internalType": "uint64",
              "name": "minNotionalLiquidatable",
              "type": "uint64"
            }
          ],
          "internalType": "struct IClearingHouseStructures.LiquidationParams",
          "name": "_liquidationParams",
          "type": "tuple"
        },
        {
          "internalType": "uint256",
          "name": "_removeLimitOrderFee",
          "type": "uint256"
        },
        {
          "internalType": "uint256",
          "name": "_minimumOrderNotional",
          "type": "uint256"
        },
        {
          "internalType": "uint256",
          "name": "_minRequiredMargin",
          "type": "uint256"
        }
      ],
      "name": "updateProtocolSettings",
      "outputs": [],
      "stateMutability": "nonpayable",
      "type": "function"
    },
    {
      "inputs": [
        {
          "internalType": "uint256",
          "name": "accountId",
          "type": "uint256"
        },
        {
          "internalType": "uint32",
          "name": "poolId",
          "type": "uint32"
        },
        {
          "components": [
            {
              "internalType": "int24",
              "name": "tickLower",
              "type": "int24"
            },
            {
              "internalType": "int24",
              "name": "tickUpper",
              "type": "int24"
            },
            {
              "internalType": "int128",
              "name": "liquidityDelta",
              "type": "int128"
            },
            {
              "internalType": "uint160",
              "name": "sqrtPriceCurrent",
              "type": "uint160"
            },
            {
              "internalType": "uint16",
              "name": "slippageToleranceBps",
              "type": "uint16"
            },
            {
              "internalType": "bool",
              "name": "closeTokenPosition",
              "type": "bool"
            },
            {
              "internalType": "enum IClearingHouseEnums.LimitOrderType",
              "name": "limitOrderType",
              "type": "uint8"
            },
            {
              "internalType": "bool",
              "name": "settleProfit",
              "type": "bool"
            }
          ],
          "internalType": "struct IClearingHouseStructures.LiquidityChangeParams",
          "name": "liquidityChangeParams",
          "type": "tuple"
        }
      ],
      "name": "updateRangeOrder",
      "outputs": [
        {
          "internalType": "int256",
          "name": "vTokenAmountOut",
          "type": "int256"
        },
        {
          "internalType": "int256",
          "name": "vQuoteAmountOut",
          "type": "int256"
        }
      ],
      "stateMutability": "nonpayable",
      "type": "function"
    },
    {
      "inputs": [
        {
          "internalType": "uint256",
          "name": "numberOfPoolsToUpdateInThisTx",
          "type": "uint256"
        }
      ],
      "name": "withdrawProtocolFee",
      "outputs": [],
      "stateMutability": "nonpayable",
      "type": "function"
    },
    {
      "inputs": [],
      "name": "InsufficientCollateralBalance",
      "type": "error"
    },
    {
      "inputs": [
        {
          "internalType": "int256",
          "name": "accountMarketValue",
          "type": "int256"
        },
        {
          "internalType": "int256",
          "name": "totalRequiredMargin",
          "type": "int256"
        }
      ],
      "name": "InvalidLiquidationAccountAboveWater",
      "type": "error"
    },
    {
      "inputs": [
        {
          "internalType": "uint32",
          "name": "poolId",
          "type": "uint32"
        }
      ],
      "name": "InvalidLiquidationActiveRangePresent",
      "type": "error"
    },
    {
      "inputs": [
        {
          "internalType": "int256",
          "name": "accountMarketValue",
          "type": "int256"
        },
        {
          "internalType": "int256",
          "name": "totalRequiredMargin",
          "type": "int256"
        }
      ],
      "name": "InvalidTransactionNotEnoughMargin",
      "type": "error"
    },
    {
      "inputs": [
        {
          "internalType": "int256",
          "name": "totalProfit",
          "type": "int256"
        }
      ],
      "name": "InvalidTransactionNotEnoughProfit",
      "type": "error"
    },
    {
      "inputs": [
        {
          "internalType": "int24",
          "name": "tickLower",
          "type": "int24"
        },
        {
          "internalType": "int24",
          "name": "tickUpper",
          "type": "int24"
        },
        {
          "internalType": "uint256",
          "name": "liquidity",
          "type": "uint256"
        }
      ],
      "name": "LPS_DeactivationFailed",
      "type": "error"
    },
    {
      "inputs": [
        {
          "internalType": "int24",
          "name": "tickLower",
          "type": "int24"
        },
        {
          "internalType": "int24",
          "name": "tickUpper",
          "type": "int24"
        }
      ],
      "name": "LPS_IllegalTicks",
      "type": "error"
    },
    {
      "inputs": [],
      "name": "LPS_InactiveRange",
      "type": "error"
    },
    {
      "inputs": [],
      "name": "LP_AlreadyInitialized",
      "type": "error"
    },
    {
      "inputs": [],
      "name": "LP_IneligibleLimitOrderRemoval",
      "type": "error"
    },
    {
      "inputs": [
        {
          "internalType": "uint256",
          "name": "y_target",
          "type": "uint256"
        },
        {
          "internalType": "uint160",
          "name": "x_lower",
          "type": "uint160"
        },
        {
          "internalType": "uint160",
          "name": "x_upper",
          "type": "uint160"
        }
      ],
      "name": "SolutionOutOfBounds",
      "type": "error"
    },
    {
      "inputs": [
        {
          "internalType": "uint32",
          "name": "element",
          "type": "uint32"
        }
      ],
      "name": "U32L8_IllegalElement",
      "type": "error"
    },
    {
      "inputs": [
        {
          "internalType": "uint32",
          "name": "element",
          "type": "uint32"
        }
      ],
      "name": "U32L8_NoSpaceLeftToInsert",
      "type": "error"
    },
    {
      "inputs": [
        {
          "internalType": "uint48",
          "name": "element",
          "type": "uint48"
        }
      ],
      "name": "U48L5_IllegalElement",
      "type": "error"
    },
    {
      "inputs": [
        {
          "internalType": "uint48",
          "name": "element",
          "type": "uint48"
        }
      ],
      "name": "U48L5_NoSpaceLeftToInsert",
      "type": "error"
    },
    {
      "inputs": [
        {
          "internalType": "uint32",
          "name": "poolId",
          "type": "uint32"
        }
      ],
      "name": "VPS_DeactivationFailed",
      "type": "error"
    },
    {
      "inputs": [
        {
          "internalType": "uint32",
          "name": "poolId",
          "type": "uint32"
        }
      ],
      "name": "VPS_TokenInactive",
      "type": "error"
    },
    {
      "anonymous": false,
      "inputs": [
        {
          "indexed": true,
          "internalType": "uint256",
          "name": "accountId",
          "type": "uint256"
        },
        {
          "indexed": true,
          "internalType": "address",
          "name": "keeperAddress",
          "type": "address"
        },
        {
          "indexed": false,
          "internalType": "int256",
          "name": "liquidationFee",
          "type": "int256"
        },
        {
          "indexed": false,
          "internalType": "int256",
          "name": "keeperFee",
          "type": "int256"
        },
        {
          "indexed": false,
          "internalType": "int256",
          "name": "insuranceFundFee",
          "type": "int256"
        },
        {
          "indexed": false,
          "internalType": "int256",
          "name": "accountMarketValueFinal",
          "type": "int256"
        }
      ],
      "name": "LiquidityPositionsLiquidated",
      "type": "event"
    },
    {
      "anonymous": false,
      "inputs": [
        {
          "indexed": true,
          "internalType": "uint256",
          "name": "accountId",
          "type": "uint256"
        },
        {
          "indexed": true,
          "internalType": "uint32",
          "name": "collateralId",
          "type": "uint32"
        },
        {
          "indexed": false,
          "internalType": "int256",
          "name": "amount",
          "type": "int256"
        },
        {
          "indexed": false,
          "internalType": "bool",
          "name": "isSettleProfit",
          "type": "bool"
        }
      ],
      "name": "MarginUpdated",
      "type": "event"
    },
    {
      "anonymous": false,
      "inputs": [
        {
          "indexed": true,
          "internalType": "uint256",
          "name": "accountId",
          "type": "uint256"
        },
        {
          "indexed": false,
          "internalType": "int256",
          "name": "amount",
          "type": "int256"
        }
      ],
      "name": "ProfitUpdated",
      "type": "event"
    },
    {
      "anonymous": false,
      "inputs": [
        {
          "indexed": true,
          "internalType": "uint256",
          "name": "accountId",
          "type": "uint256"
        },
        {
          "indexed": true,
          "internalType": "uint32",
          "name": "poolId",
          "type": "uint32"
        },
        {
          "indexed": false,
          "internalType": "int256",
          "name": "keeperFee",
          "type": "int256"
        },
        {
          "indexed": false,
          "internalType": "int256",
          "name": "insuranceFundFee",
          "type": "int256"
        },
        {
          "indexed": false,
          "internalType": "int256",
          "name": "accountMarketValueFinal",
          "type": "int256"
        }
      ],
      "name": "TokenPositionLiquidated",
      "type": "event"
    },
    {
      "anonymous": false,
      "inputs": [
        {
          "indexed": true,
          "internalType": "uint256",
          "name": "accountId",
          "type": "uint256"
        },
        {
          "indexed": true,
          "internalType": "uint32",
          "name": "poolId",
          "type": "uint32"
        },
        {
          "indexed": false,
          "internalType": "int24",
          "name": "tickLower",
          "type": "int24"
        },
        {
          "indexed": false,
          "internalType": "int24",
          "name": "tickUpper",
          "type": "int24"
        },
        {
          "indexed": false,
          "internalType": "int128",
          "name": "liquidityDelta",
          "type": "int128"
        },
        {
          "indexed": false,
          "internalType": "enum IClearingHouseEnums.LimitOrderType",
          "name": "limitOrderType",
          "type": "uint8"
        },
        {
          "indexed": false,
          "internalType": "int256",
          "name": "vTokenAmountOut",
          "type": "int256"
        },
        {
          "indexed": false,
          "internalType": "int256",
          "name": "vQuoteAmountOut",
          "type": "int256"
        },
        {
          "indexed": false,
          "internalType": "uint160",
          "name": "sqrtPriceX96",
          "type": "uint160"
        }
      ],
      "name": "LiquidityChanged",
      "type": "event"
    },
    {
      "anonymous": false,
      "inputs": [
        {
          "indexed": true,
          "internalType": "uint256",
          "name": "accountId",
          "type": "uint256"
        },
        {
          "indexed": true,
          "internalType": "uint32",
          "name": "poolId",
          "type": "uint32"
        },
        {
          "indexed": false,
          "internalType": "int24",
          "name": "tickLower",
          "type": "int24"
        },
        {
          "indexed": false,
          "internalType": "int24",
          "name": "tickUpper",
          "type": "int24"
        },
        {
          "indexed": false,
          "internalType": "int256",
          "name": "amount",
          "type": "int256"
        }
      ],
      "name": "LiquidityPositionEarningsRealized",
      "type": "event"
    },
    {
      "anonymous": false,
      "inputs": [
        {
          "indexed": true,
          "internalType": "uint256",
          "name": "accountId",
          "type": "uint256"
        },
        {
          "indexed": true,
          "internalType": "uint32",
          "name": "poolId",
          "type": "uint32"
        },
        {
          "indexed": false,
          "internalType": "int24",
          "name": "tickLower",
          "type": "int24"
        },
        {
          "indexed": false,
          "internalType": "int24",
          "name": "tickUpper",
          "type": "int24"
        },
        {
          "indexed": false,
          "internalType": "int256",
          "name": "amount",
          "type": "int256"
        },
        {
          "indexed": false,
          "internalType": "int256",
          "name": "sumALastX128",
          "type": "int256"
        },
        {
          "indexed": false,
          "internalType": "int256",
          "name": "sumBInsideLastX128",
          "type": "int256"
        },
        {
          "indexed": false,
          "internalType": "int256",
          "name": "sumFpInsideLastX128",
          "type": "int256"
        },
        {
          "indexed": false,
          "internalType": "uint256",
          "name": "sumFeeInsideLastX128",
          "type": "uint256"
        }
      ],
      "name": "LiquidityPositionFundingPaymentRealized",
      "type": "event"
    },
    {
      "anonymous": false,
      "inputs": [
        {
          "indexed": true,
          "internalType": "uint256",
          "name": "accountId",
          "type": "uint256"
        },
        {
          "indexed": true,
          "internalType": "uint32",
          "name": "poolId",
          "type": "uint32"
        },
        {
          "indexed": false,
          "internalType": "int24",
          "name": "tickLower",
          "type": "int24"
        },
        {
          "indexed": false,
          "internalType": "int24",
          "name": "tickUpper",
          "type": "int24"
        },
        {
          "indexed": false,
          "internalType": "int256",
          "name": "vTokenAmountOut",
          "type": "int256"
        }
      ],
      "name": "TokenPositionChangedDueToLiquidityChanged",
      "type": "event"
    },
    {
      "inputs": [],
      "name": "VPS_IncorrectUpdate",
      "type": "error"
    },
    {
      "anonymous": false,
      "inputs": [
        {
          "indexed": true,
          "internalType": "uint256",
          "name": "accountId",
          "type": "uint256"
        },
        {
          "indexed": true,
          "internalType": "uint32",
          "name": "poolId",
          "type": "uint32"
        },
        {
          "indexed": false,
          "internalType": "int256",
          "name": "vTokenAmountOut",
          "type": "int256"
        },
        {
          "indexed": false,
          "internalType": "int256",
          "name": "vQuoteAmountOut",
          "type": "int256"
        },
        {
          "indexed": false,
          "internalType": "uint160",
          "name": "sqrtPriceX96Start",
          "type": "uint160"
        },
        {
          "indexed": false,
          "internalType": "uint160",
          "name": "sqrtPriceX96End",
          "type": "uint160"
        }
      ],
      "name": "TokenPositionChanged",
      "type": "event"
    },
    {
      "anonymous": false,
      "inputs": [
        {
          "indexed": true,
          "internalType": "uint256",
          "name": "accountId",
          "type": "uint256"
        },
        {
          "indexed": true,
          "internalType": "uint32",
          "name": "poolId",
          "type": "uint32"
        },
        {
          "indexed": false,
          "internalType": "int256",
          "name": "amount",
          "type": "int256"
        },
        {
          "indexed": false,
          "internalType": "int256",
          "name": "sumALastX128",
          "type": "int256"
        }
      ],
      "name": "TokenPositionFundingPaymentRealized",
      "type": "event"
    }
  ],
  "transactionHash": "0xe69a2929827474228b4fb2ef38579366123b33f63e3552082e3cb5cce9a6ad48",
  "args": [],
  "numDeployments": 1,
  "solcInputHash": "a0f251f14be82fcda6f51ae633510bf0",
  "bytecode": "0x6080604052346200011b5761013d805460ff8160081c1690816000146200010c57506200002e303b1562000120565b159081620000f6575b5460ff8160081c1680156200009d57156200008e57506200005a303b1562000120565b62000066333362000184565b6200007c575b604051615f6f9081620002098239f35b61013d805461ff00191690556200006c565b60ff6200005a91161562000120565b60405162461bcd60e51b815260206004820152602b60248201527f496e697469616c697a61626c653a20636f6e7472616374206973206e6f74206960448201526a6e697469616c697a696e6760a81b6064820152608490fd5b61013d805461ffff191661010117905562000037565b60ff6200002e91161562000120565b600080fd5b156200012857565b60405162461bcd60e51b815260206004820152602e60248201527f496e697469616c697a61626c653a20636f6e747261637420697320616c72656160448201526d191e481a5b9a5d1a585b1a5e995960921b6064820152608490fd5b6101a280546001600160a01b039283166001600160a01b0319918216811790925560405190936000937f39355f2f5c8206286978f443aa8126bbd29fa09c53c04569502647f3a59c8cb29385939290847f5f56bee8cffbe9a78652a74a60705edede02af10b0bbb888ca44b79a0d42ce808186a31694856101a391825416179055a356fe60806040526004361015610013575b600080fd5b60003560e01c806304a6f2641461031f5780630df181ea14610316578063134015511461030d578063136439dd146103045780631e2eaeaf146102fb5780632a90b8da146102f25780633562490c146102e957806335876476146102e05780633d0aea3d146102d75780633d56a35e146102ce5780633ffe794c146102c557806340c4f69b146102bc578063424cd833146102b357806343afafba146102aa578063569634d3146102a15780635aa6e675146102985780635c975abb1461028f5780636a486482146102865780636ae732301461027d578063706bdd25146102745780637cc2f4f51461026b5780637d2efe071461026257806383d778eb146102595780638ce25a93146102505780638f24ab11146102475780638f8022bc1461023e5780639cd1be58146102355780639dca362f1461022c578063a05c8baf14610223578063ac9650d81461021a578063b790230314610211578063c7505c1514610208578063ce4c18de146101ff578063dbc0c085146101f6578063dbd035ff146101ed578063e3d41c18146101e4578063e450f6f4146101db578063e67ed1df146101d25763fabc1cbc146101ca57600080fd5b61000e6126be565b5061000e6125e5565b5061000e612477565b5061000e6123e3565b5061000e61234c565b5061000e6122c1565b5061000e612299565b5061000e6120ff565b5061000e6120d7565b5061000e611ff6565b5061000e611d76565b5061000e611d18565b5061000e611be1565b5061000e611b5b565b5061000e611954565b5061000e611935565b5061000e6116e9565b5061000e6114f3565b5061000e61149a565b5061000e61145c565b5061000e6113be565b5061000e6112e5565b5061000e6112c0565b5061000e611297565b5061000e611269565b5061000e611221565b5061000e611096565b5061000e610b82565b5061000e610978565b5061000e610950565b5061000e6108a4565b5061000e6106a7565b5061000e6105ee565b5061000e61056e565b5061000e61054e565b5061000e61044a565b5061000e610421565b5061000e61035c565b5061000e610333565b600091031261000e57565b503461000e57600060031936011261000e5760206001600160a01b036101a55416604051908152f35b503461000e576000602060031936011261041e5761038060ff6101705416156133e7565b61038b600435615af4565b61039481613b1a565b817361Fea7b93D977D31EF80747666F18864824E6da891823b1561041a576044604051809481937feaf393260000000000000000000000000000000000000000000000000000000083526004830152606460248301525af4801561040d575b6103fe575b50604051f35b610407906107a7565b386103f8565b61041561377f565b6103f3565b5080fd5b80fd5b503461000e57600060031936011261000e5760206001600160a01b036101a45416604051908152f35b503461000e57602060031936011261000e576001600160a01b03806101a35416331415908161053e575b506105145761017061048a60ff825416156133e7565b60d7546104ea5761049f60043560665461345a565b6104a6575b005b600160ff1982546104ba60ff8216156133e7565b161790557f62e78cea01bee320cd4e420270b5ea74000d11b0c9f74754ebdbfc544b05a2586020604051338152a1005b60046040517fd2067f43000000000000000000000000000000000000000000000000000000008152fd5b60046040517fd7a2ae6a000000000000000000000000000000000000000000000000000000008152fd5b6101a25416331415905038610474565b503461000e57602060031936011261000e57602060043554604051908152f35b503461000e57600060031936011261000e576101a48054906001600160a01b0390818316803303610514576000936101a2805492806040519685167f5f56bee8cffbe9a78652a74a60705edede02af10b0bbb888ca44b79a0d42ce808989a373ffffffffffffffffffffffffffffffffffffffff19809416179055169055f35b503461000e57600060031936011261000e576101a58054906001600160a01b0390818316803303610514576000936101a3805492806040519685167f39355f2f5c8206286978f443aa8126bbd29fa09c53c04569502647f3a59c8cb28989a373ffffffffffffffffffffffffffffffffffffffff19809416179055169055f35b6001600160a01b0381160361000e57565b610124359061068d8261066e565b565b60e4359061068d8261066e565b359061068d8261066e565b503461000e5760e060031936011261000e576004356106c58161066e565b61073f6024356106d48161066e565b6044356106e08161066e565b6064356106ec8161066e565b608435906106f98261066e565b60a435926107068461066e565b60c435946107138661066e565b61013d5460ff8160081c1690816000146107835750610733303b15612792565b15978861075657612803565b61074557005b6104a461013d61ff00198154169055565b61076b61013d61010061ff0019825416179055565b61077e61013d600160ff19825416179055565b612803565b60ff610733911615612792565b50634e487b7160e01b600052604160045260246000fd5b67ffffffffffffffff81116107bb57604052565b6107c3610790565b604052565b60a0810190811067ffffffffffffffff8211176107bb57604052565b6040810190811067ffffffffffffffff8211176107bb57604052565b6060810190811067ffffffffffffffff8211176107bb57604052565b90601f601f19910116810190811067ffffffffffffffff8211176107bb57604052565b6040519061068d826107e4565b63ffffffff81160361000e57565b8015150361000e57565b60e4359061068d8261085a565b610104359061068d8261085a565b60a4359061068d8261085a565b60c4359061068d8261085a565b359061068d8261085a565b503461000e57608060031936011261000e576004356108c28161066e565b60607fffffffffffffffffffffffffffffffffffffffffffffffffffffffffffffffdc36011261000e576040516104a4916060820167ffffffffffffffff811183821017610943575b60405260243561091a8161066e565b82526044356109288161084c565b60208301526064356109398161085a565b6040830152612fd6565b61094b610790565b61090b565b503461000e57600060031936011261000e5760206001600160a01b0360d45416604051908152f35b503461000e5761014060031936011261000e576001600160a01b038060d454163303610a4d576109d163ffffffff6004356109b28161066e565b1691826000526064602052604060002054166001600160a01b03161590565b15610a3757610a3281610a1d610a187f4182acc9c169391ef7e765eb446fc15c9d49bc73060c678bf4c424a5c0dbdbcb9463ffffffff166000526064602052604060002090565b612c43565b610a2681612e15565b60405191829182612eae565b0390a1005b634e487b7160e01b600052600160045260246000fd5b60046040517f85734f31000000000000000000000000000000000000000000000000000000008152fd5b9181601f8401121561000e5782359167ffffffffffffffff831161000e576020808501948460051b01011161000e57565b918091926000905b828210610ac8575011610ac1575050565b6000910152565b91508060209183015181860152018291610ab0565b90601f19601f602093610afb81518092818752878088019101610aa8565b0116010190565b602080820190808352835180925260408301928160408460051b8301019501936000915b848310610b365750505050505090565b9091929394958480610b72837fffffffffffffffffffffffffffffffffffffffffffffffffffffffffffffffc086600196030187528a51610add565b9801930193019194939290610b26565b503461000e5760408060031936011261000e57600480359160243567ffffffffffffffff811161000e57610bb99036908401610a77565b610bc581949294613864565b93610bda8660005260d3602052604060002090565b95610be487613b1a565b60008781938295835b818110610d5f5750505050610d4f575b50610cb8575b610c19575b815180610c158582610b02565b0390f35b7361Fea7b93D977D31EF80747666F18864824E6da890813b1561000e5782517f998c53350000000000000000000000000000000000000000000000000000000081529081019485526001602086015260646040860152610c159490916000918391908290819060600103915af48015610cab575b15610c085780610c9f610ca5926107a7565b80610328565b38610c08565b610cb361377f565b610c8d565b7361Fea7b93D977D31EF80747666F18864824E6da8803b1561000e576000845180927f651524ed0000000000000000000000000000000000000000000000000000000082528180610d198b8983016020606491939293604081019481520152565b03915af48015610d42575b610d2f575b50610c03565b80610c9f610d3c926107a7565b38610d29565b610d4a61377f565b610d24565b610d5890615af4565b5038610bfd565b9091929693610d77610d728385876138ad565b613924565b610d8081613912565b610dd8575080610dc0610daf610da7610d9d610dc59587896138ad565b602081019061394f565b810190613afb565b906001978015610dce575b9a614a4e565b61344a565b908a9291610bed565b5060008212610dba565b939650610de9610d728284866138ad565b93610df385613912565b6001948503610e425750610e16610e0e610d9d8385876138ad565b810190613aec565b93610e21858d614e39565b6000819512610e35575b50610dc59061344a565b9650869550610dc5610e2b565b6002610e55610d728486889c969c6138ad565b610e5e81613912565b03610edf575050610eb1610ebf610e768884866138ad565b610e9a8d610e94610e8c6020948581019061394f565b810190613a66565b9161514c565b8c5192830191825260208201529092839160400190565b03601f19810183528261081c565b610ec9878b6139ec565b52610ed4868a6139ec565b50610dc5839661344a565b6003610eef610d728a86886138ad565b610ef881613912565b03610f34575050610eb1610ebf610f108884866138ad565b610e9a8d610f2e610f266020948581019061394f565b810190613a41565b91614f20565b93509587610f46610d728385876138ad565b610f4f81613912565b03610f815780610f7b610f74610f6c610d9d610dc59587896138ad565b810190613a0e565b91896156b9565b5061344a565b6005610f91610d728385876138ad565b610f9a81613912565b03610fd05780610f7b610fcb610fc2610fba610d9d610dc596888a6138ad565b810190611444565b63ffffffff1690565b6153a3565b6006610fe0610d728385876138ad565b610fe981613912565b036110505780610ffd610dc59284866138ad565b61103b61102963ffffffff61102261101a6020958681019061394f565b8101906139a0565b9116615588565b8c519283019081528290602001610eb1565b611045828d6139ec565b52610f7b818c6139ec565b611063610d72611092928a948c966138ad565b92519283927f62c9ca420000000000000000000000000000000000000000000000000000000084528301613931565b0390fd5b503461000e5760208060031936011261000e5760665460d85460049283358215611218575b600090806111f55750508293915b8481106110e65750505081036110e15750600060d855005b60d855005b8060008361113e611132600261112463ffffffff61110661118799612dc7565b90549060031b1c1663ffffffff166000526064602052604060002090565b01546001600160a01b031690565b6001600160a01b031690565b86604051809481937f5e622abc0000000000000000000000000000000000000000000000000000000083525af19081156111e8575b6000916111bb575b508061118c575061344a565b6110c9565b6111b5906111a26067546001600160a01b031690565b6001600160a01b036101a3541690614b55565b38610f7b565b6111db9150843d86116111e1575b6111d3818361081c565b810190613edc565b3861117b565b503d6111c9565b6111f061377f565b611173565b6111ff9084613432565b905083811015611211575b93916110c9565b508261120a565b600092506110bb565b503461000e57604060031936011261000e5760206112616024356004356112478261084c565b8060005260d3845261125c6040600020613b1a565b615588565b604051908152f35b503461000e57602060031936011261000e576104a46004358060005260d3602052610fcb6040600020613b1a565b503461000e57600060031936011261000e5760206001600160a01b036101a25416604051908152f35b503461000e57600060031936011261000e57602060ff61017054166040519015158152f35b503461000e57604060031936011261000e57610c156024356113068161084c565b60043560005260d360205263ffffffff604060002091604051927f7188a1ed0000000000000000000000000000000000000000000000000000000084526004840152166024820152606460448201526020816064817361Fea7b93D977D31EF80747666F18864824E6da85af49081156113b1575b600091611393575b506040519081529081906020820190565b6113ab915060203d81116111e1576111d3818361081c565b38611382565b6113b961377f565b61137a565b503461000e57602060031936011261000e576004356113dc8161066e565b6001600160a01b03806101a254163303610514576000916101a59073ffffffffffffffffffffffffffffffffffffffff19838354921691826040519582167f9b068aae3039a2512c2f13bffb5fd9d95b1895b276b5c7ddf1d4fa24ec3686588888a316179055f35b9081602091031261000e57356114598161084c565b90565b503461000e57602060031936011261000e57602061126160043561147f8161084c565b615dd9565b8060020b0361000e57565b359061068d82611484565b503461000e57608060031936011261000e576104a46004356024356114be8161084c565b604435906114cb82611484565b606435926114d884611484565b8060005260d36020526114ee6040600020613b1a565b6156b9565b503461000e57606060031936011261000e576024356115118161084c565b6044356101709061152660ff835416156133e7565b611531600435615af4565b9161153b83613b1a565b60009361154f60ff868512935416156133e7565b8461155a8383615b3f565b947361Fea7b93D977D31EF80747666F18864824E6da8803b15611662576040517ff5a284a1000000000000000000000000000000000000000000000000000000008152600481019290925263ffffffff93909316602482015260448101859052606480820152831515608482015291829060a49082905af48015611655575b611642575b508382131561160a57506115fc61160592546001600160a01b031690565b30903390614bc7565b604051f35b611616575b5050604051f35b61163361162d61163b93546001600160a01b031690565b916144f2565b903390614b55565b388061160f565b80610c9f61164f926107a7565b386115de565b61165d61377f565b6115d9565b8280fd5b7fffffffffffffffffffffffffffffffffffffffffffffffffffffffffffffffbc60a091011261000e576040519061169d826107c8565b8160443581526064356116af8161066e565b60208201526084356116c08161085a565b604082015260a4356116d18161085a565b6060820152608060c435916116e58361085a565b0152565b503461000e5760e060031936011261000e576024356117078161084c565b61171036611666565b809161017061172360ff825416156133e7565b61174560ff611733600435615af4565b9261173d84613b1a565b5416156133e7565b61174e82615bea565b6040918291611789835195869384937f140cf61e0000000000000000000000000000000000000000000000000000000085526004850161533c565b03817361Fea7b93D977D31EF80747666F18864824E6da85af4928315611928575b60009283946118f3575b506117be8461452d565b606c5481106118c157506001600160a01b036117e460208301516001600160a01b031690565b161515806118ab575b611804575b50519081526020810191909152604090f35b818101906118128251151590565b918261188f575b8215611856575b50501561182d57386117f2565b600490517f07a1db07000000000000000000000000000000000000000000000000000000008152fd5b5190915015611864565b1590565b9081611873575b503880611820565b90506118886118818461452d565b915161452d565b143861186b565b915061189a8561452d565b6118a4825161452d565b1491611819565b506118bc6118606060830151151590565b6117ed565b82517f256d6b9a0000000000000000000000000000000000000000000000000000000081526004810191909152602490fd5b909350816119179293503d8411611921575b61190f818361081c565b810190615326565b91909192386117b4565b503d611905565b61193061377f565b6117aa565b503461000e57600060031936011261000e57602060d254604051908152f35b503461000e5761010060031936011261000e5760048035906119758261084c565b60e07fffffffffffffffffffffffffffffffffffffffffffffffffffffffffffffffdc36011261000e576001600160a01b036101a254163303611b33576119d760036119d18463ffffffff166000526064602052604060002090565b01612a65565b6119f26119e5611132612a4c565b6001600160a01b03161590565b611b155763ffffffff61012c81611a07612a27565b1610908115611aff575b50611ae05761ffff6127108082611a266129f9565b1611611ac257611a3e611a37612a05565b61ffff1690565b11611aa4576107d090611a4f612a11565b1611611a85576040517f4182acc9c169391ef7e765eb446fc15c9d49bc73060c678bf4c424a5c0dbdbcb9080610a328582612f52565b604051636a098dd160e11b815260249181019182529081906020010390fd5b604051636a098dd160e11b8152602381840190815281906020010390fd5b604051636a098dd160e11b8152602281850190815281906020010390fd5b604051636a098dd160e11b815260219181019182529081906020010390fd5b620151809150611b0d612a27565b161138611a11565b604051636a098dd160e11b8152602091810182815290918291010390fd5b6040517fd7a2ae6a000000000000000000000000000000000000000000000000000000008152fd5b503461000e57602060031936011261000e57600435611b798161066e565b6001600160a01b03806101a254163303610514576000916101a49073ffffffffffffffffffffffffffffffffffffffff19838354921691826040519582167f8c405decc72a19ef328c92989ce6db4e4a498e1c246413fd60997a3051ba5cff8888a316179055f35b503461000e57604060031936011261000e57602435610170611c0760ff825416156133e7565b611c1760ff611733600435615af4565b8115611cee577361Fea7b93D977D31EF80747666F18864824E6da8803b1561000e576040517fd25c4a6f000000000000000000000000000000000000000000000000000000008152600481019290925260248201839052606460448301819052600190830152600090829060849082905af48015611ce1575b611cce575b506000811315611cb5576104a4906115fc6067546001600160a01b031690565b6104a49061163361162d6067546001600160a01b031690565b80610c9f611cdb926107a7565b38611c95565b611ce961377f565b611c90565b60046040517f1f2a2005000000000000000000000000000000000000000000000000000000008152fd5b503461000e57600060031936011261000e5760206112616136aa565b60031961010091011261000e57600490565b7fffffffffffffffffffffffffffffffffffffffffffffffffffffffffffffffbc61010091011261000e57604490565b503461000e5761016060031936011261000e57611d9236611d34565b610104356101243591610144356001600160a01b036101a254163303610514576127109361ffff8581611dc486612a1d565b1611611fdd5785611dda611a3760208701612a1d565b11611fc45760409580611df1611a37898801612a1d565b11611fac5780611e06611a3760608801612a1d565b11611f9457611e1a611a3760808701612a1d565b11611f7c576103e890611e2f60a08601612a1d565b1611611f6457633b9aca008067ffffffffffffffff611e5060c0870161308e565b1611611f4c5780611e73611e6660e0870161308e565b67ffffffffffffffff1690565b11611f3457808511611f1c57808211611f04578211611eec5791611ee660009594927f697aec6e94e319190380ab0f1f10018d81b64da2479eb874be92c9a733e0a83794611ec084613098565b611ec985606b55565b611ed281606c55565b611edb82606a55565b8651948594856132fb565b0390a151f35b8451636a098dd160e11b8152603a6004820152602490fd5b8551636a098dd160e11b815260396004820152602490fd5b8551636a098dd160e11b815260386004820152602490fd5b8551636a098dd160e11b815260376004820152602490fd5b8551636a098dd160e11b815260366004820152602490fd5b8451636a098dd160e11b815260356004820152602490fd5b8551636a098dd160e11b815260346004820152602490fd5b8651636a098dd160e11b815260336004820152602490fd5b8651636a098dd160e11b815260326004820152602490fd5b604051636a098dd160e11b815260316004820152602490fd5b604051636a098dd160e11b815260306004820152602490fd5b50602060031936011261000e576004803567ffffffffffffffff811161000e576120239036908301610a77565b9061202d82613864565b9160005b8181106120465760405180610c158682610b02565b600080612054838587615ea2565b60409391612066855180938193615ecc565b0390305af490612074614db8565b9182901561209d575050906120989161208d82876139ec565b52610f7b81866139ec565b612031565b826044899394511061000e5761109291836120c2920160248091518301019101615eda565b925192839262461bcd60e51b84528301614de8565b503461000e57600060031936011261000e5760206001600160a01b0360d55416604051908152f35b503461000e5761014060031936011261000e5760243561211e8161084c565b606061212936611d46565b916101709261213c60ff855416156133e7565b61216960ff61216061214f600435615af4565b9361215985613b1a565b36906137a7565b955416156133e7565b61217282615bea565b828401516001600160a01b031680612279575b506121bd60405194859384937fc27789d10000000000000000000000000000000000000000000000000000000085526004850161503a565b03817361Fea7b93D977D31EF80747666F18864824E6da85af4801561226c575b60009081928291612238575b50606c5481106122055750604080519182526020820192909252f35b6040517f256d6b9a0000000000000000000000000000000000000000000000000000000081526004810191909152602490fd5b91505061225c915060603d8111612265575b612254818361081c565b810190615012565b919091386121e9565b503d61224a565b61227461377f565b6121dd565b6122939061228c608087015161ffff1690565b9084615cc7565b38612185565b503461000e57602060031936011261000e5760206112616004356122bc8161084c565b615e37565b503461000e57600060031936011261000e5760206001600160a01b036101a35416604051908152f35b60209067ffffffffffffffff8111612304575b60051b0190565b61230c610790565b6122fd565b6020908160408183019282815285518094520193019160005b828110612338575050505090565b83518552938101939281019260010161232a565b503461000e5760208060031936011261000e5760043567ffffffffffffffff811161000e573660238201121561000e5780600401359061238b826122ea565b91612399604051938461081c565b80835260248484019160051b8301019136831161000e57602401905b8282106123d457610c156123c885615e79565b60405191829182612311565b813581529084019084016123b5565b503461000e57602060031936011261000e5760043560005260d3602052610c156040600020604051907fc4b22b860000000000000000000000000000000000000000000000000000000082526004820152606460248201526020816044817361Fea7b93D977D31EF80747666F18864824E6da85af49081156113b15760009161139357506040519081529081906020820190565b503461000e57604060031936011261000e576004356124958161084c565b602435906124a16136aa565b90610170926124b460ff855416156133e7565b6124bd83615af4565b936124c785613b1a565b6124d960ff60008412925416156133e7565b6124e38184615b3f565b927361Fea7b93D977D31EF80747666F18864824E6da890813b1561000e576040517ff5a284a1000000000000000000000000000000000000000000000000000000008152600481019790975263ffffffff166024870152604486018390526064808701528115156084870152610c159590600090829060a49082905af480156125d8575b6125c5575b50600082131561259b57506115fc61258b92546001600160a01b031690565b6040519081529081906020820190565b6125a7575b505061258b565b61163361162d6125be93546001600160a01b031690565b38806125a0565b80610c9f6125d2926107a7565b3861256c565b6125e061377f565b612567565b503461000e5760408060031936011261000e576024356126048161085a565b60043560005260d360205281600020908251917f0c6d7f340000000000000000000000000000000000000000000000000000000083526004830152151560248201526064604482015281816064817361Fea7b93D977D31EF80747666F18864824E6da85af49182156126b1575b600091829361268c5750519081526020810191909152604090f35b816126a9929450610c1593503d85116119215761190f818361081c565b9290916117f2565b6126b961377f565b612671565b503461000e57602060031936011261000e576001600160a01b03806101a354163314159081612782575b50610514576101706126fd60ff82541661365f565b60d65461275857612712600435606654613574565b61271857005b60ff19815461272960ff821661365f565b1690557f5db9ee0a495bf2e6ff9c91a7834c1ba4fdd244a5e8aa4e537bd38aeae4b073aa6020604051338152a1005b60046040517ffc23b9cd000000000000000000000000000000000000000000000000000000008152fd5b6101a254163314159050386126e8565b1561279957565b608460405162461bcd60e51b815260206004820152602e60248201527f496e697469616c697a61626c653a20636f6e747261637420697320616c72656160448201527f647920696e697469616c697a65640000000000000000000000000000000000006064820152fd5b93916128a27f39355f2f5c8206286978f443aa8126bbd29fa09c53c04569502647f3a59c8cb2936000958694986001600160a01b039a8b80928173ffffffffffffffffffffffffffffffffffffffff199c168c60d454161760d4558185168c6067541617606755168a60d554161760d55516886068541617606855896040519261288c84610800565b168252603c60208301526001604083015261592c565b61013d9680885460ff8160081c169081861461295a57506128c4303b15612792565b15978861292d575b16916101a2838882541617905560405192847f5f56bee8cffbe9a78652a74a60705edede02af10b0bbb888ca44b79a0d42ce808186a31694856101a391825416179055a361291e575b5061068d612967565b61ff0019815416905538612915565b61294261013d61010061ff0019825416179055565b61295561013d600160ff19825416179055565b6128cc565b60ff6128c4911615612792565b60ff61013d5460081c16156129835761017060ff198154169055565b608460405162461bcd60e51b815260206004820152602b60248201527f496e697469616c697a61626c653a20636f6e7472616374206973206e6f74206960448201527f6e697469616c697a696e670000000000000000000000000000000000000000006064820152fd5b61ffff81160361000e57565b602435611459816129ed565b604435611459816129ed565b606435611459816129ed565b35611459816129ed565b6084356114598161084c565b60e4356114598161085a565b610104356114598161085a565b60e4356114598161066e565b610124356114598161066e565b61068d90612aa7602435612a78816129ed565b829061ffff167fffffffffffffffffffffffffffffffffffffffffffffffffffffffffffff0000825416179055565b612aeb604435612ab6816129ed565b82547fffffffffffffffffffffffffffffffffffffffffffffffffffffffff0000ffff1660109190911b63ffff000016178255565b612b31606435612afa816129ed565b82547fffffffffffffffffffffffffffffffffffffffffffffffffffff0000ffffffff1660209190911b65ffff0000000016178255565b608435612b3d8161084c565b7fffffffffffffffffffffffffffffffffffffffffffff00000000ffffffffffff69ffffffff00000000000083549260301b169116178155612bc060a435612b848161085a565b82547fffffffffffffffffffffffffffffffffffffffffff00ffffffffffffffffffff1690151560501b6aff0000000000000000000016178255565b612c0c60c435612bcf8161085a565b82547fffffffffffffffffffffffffffffffffffffffff00ffffffffffffffffffffff1690151560581b6bff000000000000000000000016178255565b60e43590612c198261066e565b906bffffffffffffffffffffffff6bffffffffffffffffffffffff1983549260601b169116179055565b600361068d91612c81600435612c588161066e565b82906001600160a01b031673ffffffffffffffffffffffffffffffffffffffff19825416179055565b612cbc602435612c908161066e565b60018301906001600160a01b031673ffffffffffffffffffffffffffffffffffffffff19825416179055565b612cf7604435612ccb8161066e565b60028301906001600160a01b031673ffffffffffffffffffffffffffffffffffffffff19825416179055565b01612d07606435612a78816129ed565b612d16608435612ab6816129ed565b612d2560a435612afa816129ed565b60c435612d318161084c565b7fffffffffffffffffffffffffffffffffffffffffffff00000000ffffffffffff69ffffffff00000000000083549260301b169116178155612d74612b84612a33565b612d7f612bcf612a3f565b612d87612a58565b6bffffffffffffffffffffffff6bffffffffffffffffffffffff1983549260601b169116179055565b50634e487b7160e01b600052603260045260246000fd5b90606654821015612e08575b6066600052601c8260031c7f46501879b8ca8525e8c2fd519e2fbfcfa2ebea26501294aa02cbfcfb12e94354019260021b1690565b612e10612db0565b612dd3565b6066549068010000000000000000821015612e96575b6001820180606655821015612e89575b60666000528160031c7f46501879b8ca8525e8c2fd519e2fbfcfa2ebea26501294aa02cbfcfb12e94354019160e083549160051b169163ffffffff9283811b93849216901b16911916179055565b612e91612db0565b612e3b565b612e9e610790565b612e2b565b359061068d826129ed565b63ffffffff91821681526101008101929161068d9190606435612ed0816129ed565b61ffff809116602084015280608435612ee8816129ed565b16604084015260a435612efa816129ed565b16606083015260c435612f0c8161084c565b166080820152612f26612f1d610864565b151560a0830152565b612f3a612f31610871565b151560c0830152565b60e0612f4461067f565b6001600160a01b0316910152565b63ffffffff91821681526101008101929161068d9190602435612f74816129ed565b61ffff809116602084015280604435612f8c816129ed565b166040840152606435612f9e816129ed565b166060830152608435612fb08161084c565b166080820152612fc1612f1d61087f565b612fcc612f3161088c565b60e0612f4461068f565b906001600160a01b03806101a2541633036105145781511615613035576201518063ffffffff61300d602084015163ffffffff1690565b161161301c5761068d9161592c565b604051636a098dd160e11b815260116004820152602490fd5b604051636a098dd160e11b815260106004820152602490fd5b50634e487b7160e01b600052601160045260246000fd5b50634e487b7160e01b600052601260045260246000fd5b67ffffffffffffffff81160361000e57565b356114598161307c565b6132a260e061068d9261ffff81356130af816129ed565b167fffffffffffffffffffffffffffffffffffffffffffffffffffffffffffff0000606954161760695561312060208201356130ea816129ed565b7fffffffffffffffffffffffffffffffffffffffffffffffffffffffff0000ffff63ffff00006069549260101b16911617606955565b6131696040820135613131816129ed565b7fffffffffffffffffffffffffffffffffffffffffffffffffffff0000ffffffff65ffff000000006069549260201b16911617606955565b6060810135613177816129ed565b7fffffffffffffffffffffffffffffffffffffffffffffffff0000ffffffffffff67ffff0000000000006069549260301b169116176069556131fa6131be60808301612a1d565b7fffffffffffffffffffffffffffffffffffffffffffff0000ffffffffffffffff69ffff00000000000000006069549260401b16911617606955565b61324761320960a08301612a1d565b7fffffffffffffffffffffffffffffffffffffffff0000ffffffffffffffffffff6bffff000000000000000000006069549260501b16911617606955565b61329c61325660c0830161308e565b7fffffffffffffffffffffffff0000000000000000ffffffffffffffffffffffff73ffffffffffffffff0000000000000000000000006069549260601b16911617606955565b0161308e565b7fffffffff0000000000000000ffffffffffffffffffffffffffffffffffffffff7bffffffffffffffff00000000000000000000000000000000000000006069549260a01b16911617606955565b359061068d8261307c565b90949392610140926133d76133c660e0610160860199803561331c816129ed565b61ffff80911688526020820135613332816129ed565b16602088015261335261334760408301612ea3565b61ffff166040890152565b61336c61336160608301612ea3565b61ffff166060890152565b61338661337b60808301612ea3565b61ffff166080890152565b6133a061339560a08301612ea3565b61ffff1660a0890152565b6133c06133af60c083016132f0565b67ffffffffffffffff1660c0890152565b016132f0565b67ffffffffffffffff1660e0850152565b6101008301526101208201520152565b156133ee57565b606460405162461bcd60e51b815260206004820152601060248201527f5061757361626c653a20706175736564000000000000000000000000000000006044820152fd5b8119811161343e570190565b61344661304e565b0190565b600190600019811461343e570190565b60d6549291831561356b575b6000908061354957505080925b8381106134915750821491821561348c5750600060d655565b60d655565b63ffffffff61349f82612dc7565b90549060031b1c1660005260646020526040906134cd611132600284600020016001600160a01b0390541690565b803b1561000e57600061352a935180927f5124033600000000000000000000000000000000000000000000000000000000825281838161351560048201906000602083019252565b03925af1801561353c575b61352f575061344a565b613473565b80610c9f6111b5926107a7565b61354461377f565b613520565b6135539085613432565b905081811015613564575b92613473565b508061355e565b60009350613466565b60d75492918315613656575b6000908061363457505080925b8381106135ab575082149182156135a65750600060d755565b60d755565b63ffffffff6135b982612dc7565b90549060031b1c1660005260646020526040906001600160a01b03600283600020015416803b1561000e5760008091602461362f9551809481937f51240336000000000000000000000000000000000000000000000000000000008352600160048401525af1801561353c5761352f575061344a565b61358d565b61363e9085613432565b90508181101561364f575b9261358d565b5080613649565b60009350613580565b1561366657565b606460405162461bcd60e51b815260206004820152601460248201527f5061757361626c653a206e6f74207061757365640000000000000000000000006044820152fd5b6136ba60ff6101705416156133e7565b60d2547ffffffffffffffffffffffffffffffffffffffffffffffffffffffffffffffffe8111613772575b6001810160d255600081815260d36020526040902080546bffffffffffffffffffffffff163360601b6bffffffffffffffffffffffff19161781556bffffffffffffffffffffffff82166bffffffffffffffffffffffff198254161790556040518181527f7325fb14450d3e5eb288c620b4ff1d6b43a41b33b4a4f143ae88cd4c12f99ea360203392a290565b61377a61304e565b6136e5565b506040513d6000823e3d90fd5b359081600f0b820361000e57565b3590600382101561000e57565b809291610100918291031261000e5760405190810181811067ffffffffffffffff821117613857575b60405260e06138528183956137e48161148f565b85526137f26020820161148f565b60208601526138036040820161378c565b60408601526138146060820161069c565b606086015261382560808201612ea3565b608086015261383660a08201610899565b60a086015261384760c0820161379a565b60c086015201610899565b910152565b61385f610790565b6137d0565b9061386e826122ea565b61387b604051918261081c565b828152601f1961388b82946122ea565b019060005b82811061389c57505050565b806060602080938501015201613890565b91908110156138ee575b60051b810135907fffffffffffffffffffffffffffffffffffffffffffffffffffffffffffffffc18136030182121561000e570190565b6138f6612db0565b6138b7565b50634e487b7160e01b600052602160045260246000fd5b6007111561391c57565b61068d6138fb565b35600781101561000e5790565b9190602083019260078210156139445752565b61394c6138fb565b52565b9035907fffffffffffffffffffffffffffffffffffffffffffffffffffffffffffffffe18136030182121561000e570180359067ffffffffffffffff821161000e5760200191813603831361000e57565b919082604091031261000e57602082356139b98161084c565b9201356114598161084c565b6020908051156139d3570190565b613446612db0565b6040908051600110156139d3570190565b6020918151811015613a01575b60051b010190565b613a09612db0565b6139f9565b9081606091031261000e578035613a248161084c565b9160406020830135613a3581611484565b92013561145981611484565b91906101208382031261000e576114599060208435613a5f8161084c565b94016137a7565b809291039160c0831261000e5760a0601f198235613a838161084c565b94011261000e5760a060405191613a99836107c8565b602081013583526040810135613aae8161066e565b60208401526060810135613ac18161085a565b60408401526080810135613ad48161085a565b60608401520135613ae48161085a565b608082015290565b9081602091031261000e573590565b919082604091031261000e5760208235613b148161084c565b92013590565b60005b60088060ff83161015613b7c57811015613b81575b63ffffffff60018260031c8401015460e08360051b161c16908115613b7c57613b5c600192613c06565b60ff809116908114613b6f575b01613b1d565b613b7761304e565b613b69565b505050565b613b89612db0565b613b32565b60008212827f8000000000000000000000000000000000000000000000000000000000000000018212811516613bf9575b827f7fffffffffffffffffffffffffffffffffffffffffffffffffffffffffffffff01821316613bed570390565b613bf561304e565b0390565b613c0161304e565b613bbf565b613c0e613eeb565b613c288263ffffffff16600052606d602052604060002090565b805463ffffffff838116911614613b7c57613c42836143ed565b613c53613c4e8561400c565b613f97565b937c010000000000000000000000000000000000000000000000000000000080831090811591613e1f575b50613e185761068d94613d33613d38613db994613cbf6003613cb3613d849763ffffffff166000526064602052604060002090565b015460201c61ffff1690565b613cdf61ffff613cd7613cd28886613b8e565b61452d565b921683613e2a565b1015613de957613d33600188017c01000000000000000000000000000000000000000000000000000000007fffffff00ffffffffffffffffffffffffffffffffffffffffffffffffffffffff825416179055565b61447c565b60018601907bffffffffffffffffffffffffffffffffffffffffffffffffffffffff167fffffffff00000000000000000000000000000000000000000000000000000000825416179055565b825463ffffffff1660209190911b7fffffffffffffffffffffffffffffffffffffffffffffffffffffffff0000000016178255565b9063ffffffff167fffffffffffffffffffffffffffffffffffffffffffffffffffffffff00000000825416179055565b613d33600188017fffffff00ffffffffffffffffffffffffffffffffffffffffffffffffffffffff8154169055565b5050505050565b905085101538613c7e565b9060001981830981830291828083109203918083039214613e8757612710908282111561000e577fbc01a36e2eb1c432ca57a786c226809d495182a9930be0ded288ce703afb7e91940990828211900360fc1b910360041c170290565b505061271091500490565b6000198282099082810292838084109303928084039314613ed35768010000000000000000918383111561000e570990828211900360c01b910360401c1790565b50505060401c90565b9081602091031261000e575190565b61a4b146148015613f8b575b8015613f7f575b15613f755763ffffffff6040517fa3b1b31d00000000000000000000000000000000000000000000000000000000815260208160048160645afa908115613f68575b600091613f4c57501690565b613f64915060203d81116111e1576111d3818361081c565b1690565b613f7061377f565b613f40565b63ffffffff431690565b5062066eec4614613efe565b5062066eeb4614613ef7565b6001600160a01b03166401000276a381108015613fee575b613fbd578061145991613e92565b602490604051907f5d236c450000000000000000000000000000000000000000000000000000000082526004820152fd5b5073fffd8963efd1fc6a506488495d951d5263988d26811015613faf565b6140269063ffffffff166000526064602052604060002090565b60036140506001600160a01b0392836001820154169063ffffffff938491015460301c1690614836565b60020b9060008212156143e75781600003915b620d89e883116143bd5760018316156143945770ffffffffffffffffffffffffffffffffff6ffffcb933bd6fad37aa2d162d1a5940015b169260028116614378575b6004811661435c575b60088116614340575b60108116614324575b60208116614308575b604081166142ec575b6080908181166142d1575b61010081166142b6575b610200811661429b575b6104008116614280575b6108008116614265575b611000811661424a575b612000811661422f575b6140008116614214575b61800081166141f9575b6201000081166141de575b6202000081166141c4575b6204000081166141aa575b620800001661418f575b5060001261417f575b81166141765760ff60005b169060201c011690565b60ff600161416c565b9061418990614542565b90614161565b6b048a170391f7dc42444e8fa26000929402901c9290614158565b6d2216e584f5fa1ea926041bedfe98909402811c9361414e565b936e5d6af8dedb81196699c329225ee60402811c93614143565b936f09aa508b5b7a84e1c677de54f3e99bc902811c93614138565b936f31be135f97d08fd981231505542fcfa602811c9361412d565b936f70d869a156d2a1b890bb3df62baf32f702811c93614123565b936fa9f746462d870fdf8a65dc1f90e061e502811c93614119565b936fd097f3bdfd2022b8845ad8f792aa582502811c9361410f565b936fe7159475a2c29b7443b29c7fa6e889d902811c93614105565b936ff3392b0822b70005940c7a398e4b70f302811c936140fb565b936ff987a7253ac413176f2b074cf7815e5402811c936140f1565b936ffcbe86c7900a88aedcffc83b479aa3a402811c936140e7565b936ffe5dee046a99a2a811c461f1969c305302811c936140dd565b926fff2ea16466c96a3843ec78b326b528610260801c926140d2565b926fff973b41fa98c081472e6896dfb254c00260801c926140c9565b926fffcb9843d60f6159c9db58835c9266440260801c926140c0565b926fffe5caca7e10e4e61c3624eaa0941cd00260801c926140b7565b926ffff2e50f5f656932ef12357cf3c7fdcc0260801c926140ae565b926ffff97272373d413259a46990580e213a0260801c926140a5565b70ffffffffffffffffffffffffffffffffff70010000000000000000000000000000000061409a565b60046040517f2bc80f3a000000000000000000000000000000000000000000000000000000008152fd5b81614063565b63ffffffff80911660005260646020526020600360406000200154916024604051809481937fdd86c1010000000000000000000000000000000000000000000000000000000083528160301c16600483015260601c5afa90811561446f575b600091614457575090565b611459915060203d81116111e1576111d3818361081c565b61447761377f565b61444c565b7c010000000000000000000000000000000000000000000000000000000081116144c1577bffffffffffffffffffffffffffffffffffffffffffffffffffffffff1690565b602490604051907f1ba344530000000000000000000000000000000000000000000000000000000082526004820152fd5b7f80000000000000000000000000000000000000000000000000000000000000008114614520575b60000390565b61452861304e565b61451a565b60008113156145395790565b611459906144f2565b8015614550575b6000190490565b614558613065565b614549565b6040519061456a82610800565b600282526040366020840137565b81601f8201121561000e5780519161458f836122ea565b9261459d604051948561081c565b808452602092838086019260051b82010192831161000e578301905b8282106145c7575050505090565b83809183516145d58161066e565b8152019101906145b9565b91909160408184031261000e5780519267ffffffffffffffff9384811161000e5782019381601f8601121561000e5784519461461b866122ea565b90614629604051928361081c565b868252602096878084019160051b8301019185831161000e578801905b828210614665575050509483015190811161000e576114599201614578565b81518060060b810361000e578152908801908801614646565b6020908160408183019282815285518094520193019160005b8281106146a5575050505090565b835163ffffffff1685529381019392810192600101614697565b60060b9060060b9060008212827fffffffffffffffffffffffffffffffffffffffffffffffffff8000000000000001821281151661470d575b82667fffffffffffff01821316613bed570390565b61471561304e565b6146f8565b60060b9060060b908115614766575b60001982147fffffffffffffffffffffffffffffffffffffffffffffffffff8000000000000082141661475a570590565b61476261304e565b0590565b61476e613065565b614729565b9060060b908115614786575b60060b0790565b61478e613065565b61477f565b6000199060020b7fffffffffffffffffffffffffffffffffffffffffffffffffffffffffff800000811461343e570190565b908160e091031261000e5780516147db8161066e565b9160208201516147ea81611484565b9160408101516147f9816129ed565b916060820151614808816129ed565b916080810151614817816129ed565b9160a082015160ff8116810361000e5760c0909201516114598161085a565b9063ffffffff811680156149ee576148b56001600160a01b039361487061485b61455d565b94614865866139c5565b9063ffffffff169052565b60009485918261487f876139db565b521693604051809381927f883bdbfd0000000000000000000000000000000000000000000000000000000083526004830161467e565b0381865afa8491816149c9575b5061494a57505060e0600491604051928380927f3850c7bd0000000000000000000000000000000000000000000000000000000082525afa91821561493d575b9161490b575090565b61492c915060e03d8111614936575b614924818361081c565b8101906147c5565b5050505050905090565b503d61491a565b61494561377f565b614902565b61497591925061496f614962614969614962846139db565b5160060b90565b926139c5565b906146bf565b9060060b61498c614986828461471a565b60020b90565b928260060b1291826149ab575b50506149a25790565b61145990614793565b6149c09250906149ba91614773565b60060b90565b15153880614999565b6149e69192503d8087833e6149de818361081c565b8101906145e0565b5090386148c2565b50506114599060e06001600160a01b03916004604051809481937f3850c7bd000000000000000000000000000000000000000000000000000000008352165afa908115614a41575b60009161490b575090565b614a4961377f565b614a36565b919091614a6160ff6101705416156133e7565b6000821290614a708285615b3f565b937361Fea7b93D977D31EF80747666F18864824E6da891823b1561000e576040517ff5a284a1000000000000000000000000000000000000000000000000000000008152600481019190915263ffffffff919091166024820152604481018490526064808201526000608482018190529091829060a49082905af48015614b48575b614b35575b506000821315614b1657506115fc61068d92546001600160a01b031690565b614b1e575050565b61163361162d61068d93546001600160a01b031690565b80610c9f614b42926107a7565b38614af7565b614b5061377f565b614af2565b61068d926001600160a01b03604051937fa9059cbb0000000000000000000000000000000000000000000000000000000060208601521660248401526044830152604482526080820182811067ffffffffffffffff821117614bba575b604052614ce6565b614bc2610790565b614bb2565b909261068d93604051937f23b872dd0000000000000000000000000000000000000000000000000000000060208601526001600160a01b03809216602486015216604484015260648301526064825260a0820182811067ffffffffffffffff821117614bba57604052614ce6565b601f19601f60209267ffffffffffffffff8111614c53575b01160190565b614c5b610790565b614c4d565b9081602091031261000e57516114598161085a565b15614c7c57565b608460405162461bcd60e51b815260206004820152602a60248201527f5361666545524332303a204552433230206f7065726174696f6e20646964206e60448201527f6f742073756363656564000000000000000000000000000000000000000000006064820152fd5b6001600160a01b03169060405190614cfd826107e4565b6020928383527f5361666545524332303a206c6f772d6c6576656c2063616c6c206661696c656484840152803b15614d745760008281928287614d4f9796519301915af1614d49614db8565b90614df9565b80519081614d5c57505050565b8261068d93614d6f938301019101614c60565b614c75565b6064846040519062461bcd60e51b82526004820152601d60248201527f416464726573733a2063616c6c20746f206e6f6e2d636f6e74726163740000006044820152fd5b3d15614de3573d90614dc982614c35565b91614dd7604051938461081c565b82523d6000602084013e565b606090565b906020611459928181520190610add565b90919015614e05575090565b815115614e155750805190602001fd5b6110929060405191829162461bcd60e51b8352602060048401526024830190610add565b614e4960ff6101705416156133e7565b8115611cee577361Fea7b93D977D31EF80747666F18864824E6da8803b1561000e576040517fd25c4a6f000000000000000000000000000000000000000000000000000000008152600481019290925260248201839052606460448301819052600090830181905290829060849082905af48015614f13575b614f00575b506000811315614ee75761068d906115fc6067546001600160a01b031690565b61068d9061163361162d6067546001600160a01b031690565b80610c9f614f0d926107a7565b38614ec7565b614f1b61377f565b614ec2565b90606091939293614f3760ff6101705416156133e7565b614f4082615bea565b828501516001600160a01b031680614ff9575b50614f8b60405195869384937fc27789d1000000000000000000000000000000000000000000000000000000008552600485016150e1565b03817361Fea7b93D977D31EF80747666F18864824E6da85af48015614fec575b60009081938291614fc6575b50606c54811061220557509190565b915050614fe291925060603d811161226557612254818361081c565b9291909238614fb7565b614ff461377f565b614fab565b61500c9061228c608088015161ffff1690565b38614f53565b9081606091031261000e578051916040602083015192015190565b9060038210156139445752565b6150d260e061016093969563ffffffff61068d966101808601998652166020850152805160020b6040850152602081015160020b60608501526040810151600f0b608085015261509a606082015160a08601906001600160a01b03169052565b608081015161ffff1660c085015260a08101511515848301526150c660c082015161010086019061502d565b01511515610120830152565b60646101408201520160019052565b61514060e061016093969563ffffffff6000966101808601998652166020850152805160020b6040850152602081015160020b60608501526040810151600f0b608085015261509a606082015160a08601906001600160a01b03169052565b60646101408201520152565b908293929161516160ff6101705416156133e7565b61516a82615bea565b6040918291615203835195869384937f140cf61e00000000000000000000000000000000000000000000000000000000855260048501608061010092959463ffffffff6000956101208501988552166020840152805160408401526001600160a01b03602082015116606084015260408101511515828401526060810151151560a08401520151151560c0820152606460e08201520152565b03817361Fea7b93D977D31EF80747666F18864824E6da85af4938415615319575b60009283956152f4575b506152388561452d565b606c5481106118c157506001600160a01b0361525e60208301516001600160a01b031690565b161515806152de575b615272575b50509190565b818101906152808251151590565b91826152c2575b821561529b575b50501561182d578061526c565b51159150816152ad575b50388061528e565b90506152bb6118818461452d565b14386152a5565b91506152cd8661452d565b6152d7825161452d565b1491615287565b506152ef6118606060830151151590565b615267565b9094508161530f9293503d84116119215761190f818361081c565b919091933861522e565b61532161377f565b615224565b919082604091031261000e576020825192015190565b608061010092959463ffffffff61068d956101208501988552166020840152805160408401526001600160a01b03602082015116606084015260408101511515828401526060810151151560a08401520151151560c0820152606460e08201520160019052565b6153b360ff6101705416156133e7565b61540d60606153cc8360005260d3602052604060002090565b604051809381927fdf19bf09000000000000000000000000000000000000000000000000000000008352600483016020606491939293604081019481520152565b03817361Fea7b93D977D31EF80747666F18864824E6da85af491821561550f575b600092839284916154e9575b50615445838561551c565b9260008513156154b757907f688f0846fe2852572c467d5e769db101b0fea55e8849406d85c9fb322b95299b9161548f866154886067546001600160a01b031690565b3390614b55565b615498816157a9565b604080519586526020860187905285015260608401523392608090a390565b6040517fef37dcc700000000000000000000000000000000000000000000000000000000815260048101869052602490fd5b91935050615505915060603d811161226557612254818361081c565b919290913861543a565b61551761377f565b61542e565b60008112817f7fffffffffffffffffffffffffffffffffffffffffffffffffffffffffffffff03831381151661557b575b817f80000000000000000000000000000000000000000000000000000000000000000383121661343e570190565b61558361304e565b61554d565b615607916155b26040926155a260ff6101705416156133e7565b60005260d3602052604060002090565b6155bb82615bea565b825193849283927fec1464960000000000000000000000000000000000000000000000000000000084526004840160409063ffffffff6064939594606083019683521660208201520152565b03817361Fea7b93D977D31EF80747666F18864824E6da85af480156156ac575b600091829161568c575b50600082131561565a5761145990615655836154886067546001600160a01b031690565b6157a9565b6040517fef37dcc700000000000000000000000000000000000000000000000000000000815260048101839052602490fd5b90506156a6915060403d81116119215761190f818361081c565b38615631565b6156b461377f565b615627565b929091926156cd60ff6101705416156133e7565b60005260d36020526040600020916156e481615bea565b606b54937361Fea7b93D977D31EF80747666F18864824E6da893843b1561000e5763ffffffff9460009460c49360405197889687957fe0448f0a000000000000000000000000000000000000000000000000000000008752600487015216602485015260020b604484015260020b6064830152866084830152606460a48301525af4801561579c575b615789575b50611459816154886067546001600160a01b031690565b80610c9f615796926107a7565b38615772565b6157a461377f565b61576d565b60008113156157ce5761068d906001600160a01b0380606754169060d5541690614b55565b6157e36001600160a01b0360d55416916144f2565b813b1561000e576000916024839260405194859384927f379607f500000000000000000000000000000000000000000000000000000000845260048401525af1801561583a575b6158315750565b61068d906107a7565b61584261377f565b61582a565b6158b8602060016001600160a01b03936158878587511682906001600160a01b031673ffffffffffffffffffffffffffffffffffffffff19825416179055565b019301519182511683906001600160a01b031673ffffffffffffffffffffffffffffffffffffffff19825416179055565b6020810151907fffffffffffffff0000000000ffffffffffffffffffffffffffffffffffffffff77ffffffff000000000000000000000000000000000000000078ff00000000000000000000000000000000000000000000000060408654940151151560c01b169360a01b16911617179055565b919063ffffffff83166001600160a01b03841615615ac2576159746118606119e56159678463ffffffff166000526065602052604060002090565b546001600160a01b031690565b80615a87575b615a2757926159de7f52983c04d8ccd4808cd0fcb24e6e48106ecb41e803d6270c6c94a15e3ebd08d293946159d96159b061083f565b6001600160a01b03851681529185602084015263ffffffff166000526065602052604060002090565b615847565b615a2260405192839283909291604060609160808401956001600160a01b038091168552815116602085015263ffffffff6020820151168285015201511515910152565b0390a1565b615a45615967859263ffffffff166000526065602052604060002090565b6040517fa5d4d0b50000000000000000000000000000000000000000000000000000000081526001600160a01b03928316600482015291166024820152604490fd5b50615abd61186085615aac6159678563ffffffff166000526065602052604060002090565b6001600160a01b0390811691161490565b61597a565b6040517f76d8a93100000000000000000000000000000000000000000000000000000000815260006004820152602490fd5b60005260d3602052604060002090815460601c3303615b0f57565b60246040517f0504a20d000000000000000000000000000000000000000000000000000000008152336004820152fd5b63ffffffff90929192168060005260656020526040600020926001600160a01b0384541615615bb9571580615ba7575b615b765750565b602490604051907f9150f8c80000000000000000000000000000000000000000000000000000000082526004820152fd5b5060ff600184015460c01c1615615b6f565b602482604051907f6b9c1a9d0000000000000000000000000000000000000000000000000000000082526004820152fd5b63ffffffff1680600052606460205260406000206001600160a01b0381541615615c51576003015460501c60ff1615615c205750565b602490604051907fb0fdd2020000000000000000000000000000000000000000000000000000000082526004820152fd5b602482604051907fb842f5a70000000000000000000000000000000000000000000000000000000082526004820152fd5b6001600160a01b039182169116818110613bed570390565b6001600160a01b039182809216918291169204821181151516615cbb570290565b615cc361304e565b0290565b63ffffffff166000526064602052615d65611132615d546001600160a01b039361ffff600460e08760016040600020015416604051928380927f3850c7bd0000000000000000000000000000000000000000000000000000000082525afa908115615dcc575b600091615da8575b50828781168289161115615d9857615d4c91615c82565b965b16615c9a565b6001600160a01b0361271091160490565b911611615d6e57565b60046040517f07a1db07000000000000000000000000000000000000000000000000000000008152fd5b90615da291615c82565b96615d4e565b615dc0915060e03d811161493657614924818361081c565b50505050505038615d35565b615dd461377f565b615d2d565b615de1613eeb565b9063ffffffff91828216600052606d60205260406000209280845416911614600014615e2d5750600101547bffffffffffffffffffffffffffffffffffffffffffffffffffffffff1690565b61145991506143ed565b615e3f613eeb565b9063ffffffff808216600052606d60205280604060002054931690831614600014615e6b575060201c90565b6114599150613c4e9061400c565b805160051b810160209081018183015b818110615e965750505090565b80515481528201615e89565b9091615ebb92811015615ebf575b60051b81019061394f565b9091565b615ec7612db0565b615eb0565b908092918237016000815290565b60208183031261000e5780519067ffffffffffffffff821161000e570181601f8201121561000e578051615f0d81614c35565b92615f1b604051948561081c565b8184526020828401011161000e576114599160208085019101610aa856fea2646970667358221220fab82ba3138bee6136a01bfe21ef7126674facf7eb334d4ee383eaa2301b15e664736f6c634300080e0033",
  "deployedBytecode": "0x60806040526004361015610013575b600080fd5b60003560e01c806304a6f2641461031f5780630df181ea14610316578063134015511461030d578063136439dd146103045780631e2eaeaf146102fb5780632a90b8da146102f25780633562490c146102e957806335876476146102e05780633d0aea3d146102d75780633d56a35e146102ce5780633ffe794c146102c557806340c4f69b146102bc578063424cd833146102b357806343afafba146102aa578063569634d3146102a15780635aa6e675146102985780635c975abb1461028f5780636a486482146102865780636ae732301461027d578063706bdd25146102745780637cc2f4f51461026b5780637d2efe071461026257806383d778eb146102595780638ce25a93146102505780638f24ab11146102475780638f8022bc1461023e5780639cd1be58146102355780639dca362f1461022c578063a05c8baf14610223578063ac9650d81461021a578063b790230314610211578063c7505c1514610208578063ce4c18de146101ff578063dbc0c085146101f6578063dbd035ff146101ed578063e3d41c18146101e4578063e450f6f4146101db578063e67ed1df146101d25763fabc1cbc146101ca57600080fd5b61000e6126be565b5061000e6125e5565b5061000e612477565b5061000e6123e3565b5061000e61234c565b5061000e6122c1565b5061000e612299565b5061000e6120ff565b5061000e6120d7565b5061000e611ff6565b5061000e611d76565b5061000e611d18565b5061000e611be1565b5061000e611b5b565b5061000e611954565b5061000e611935565b5061000e6116e9565b5061000e6114f3565b5061000e61149a565b5061000e61145c565b5061000e6113be565b5061000e6112e5565b5061000e6112c0565b5061000e611297565b5061000e611269565b5061000e611221565b5061000e611096565b5061000e610b82565b5061000e610978565b5061000e610950565b5061000e6108a4565b5061000e6106a7565b5061000e6105ee565b5061000e61056e565b5061000e61054e565b5061000e61044a565b5061000e610421565b5061000e61035c565b5061000e610333565b600091031261000e57565b503461000e57600060031936011261000e5760206001600160a01b036101a55416604051908152f35b503461000e576000602060031936011261041e5761038060ff6101705416156133e7565b61038b600435615af4565b61039481613b1a565b8173__$86182d6e9eac51236f2aa8dd2a3ddeab6c$__91823b1561041a576044604051809481937feaf393260000000000000000000000000000000000000000000000000000000083526004830152606460248301525af4801561040d575b6103fe575b50604051f35b610407906107a7565b386103f8565b61041561377f565b6103f3565b5080fd5b80fd5b503461000e57600060031936011261000e5760206001600160a01b036101a45416604051908152f35b503461000e57602060031936011261000e576001600160a01b03806101a35416331415908161053e575b506105145761017061048a60ff825416156133e7565b60d7546104ea5761049f60043560665461345a565b6104a6575b005b600160ff1982546104ba60ff8216156133e7565b161790557f62e78cea01bee320cd4e420270b5ea74000d11b0c9f74754ebdbfc544b05a2586020604051338152a1005b60046040517fd2067f43000000000000000000000000000000000000000000000000000000008152fd5b60046040517fd7a2ae6a000000000000000000000000000000000000000000000000000000008152fd5b6101a25416331415905038610474565b503461000e57602060031936011261000e57602060043554604051908152f35b503461000e57600060031936011261000e576101a48054906001600160a01b0390818316803303610514576000936101a2805492806040519685167f5f56bee8cffbe9a78652a74a60705edede02af10b0bbb888ca44b79a0d42ce808989a373ffffffffffffffffffffffffffffffffffffffff19809416179055169055f35b503461000e57600060031936011261000e576101a58054906001600160a01b0390818316803303610514576000936101a3805492806040519685167f39355f2f5c8206286978f443aa8126bbd29fa09c53c04569502647f3a59c8cb28989a373ffffffffffffffffffffffffffffffffffffffff19809416179055169055f35b6001600160a01b0381160361000e57565b610124359061068d8261066e565b565b60e4359061068d8261066e565b359061068d8261066e565b503461000e5760e060031936011261000e576004356106c58161066e565b61073f6024356106d48161066e565b6044356106e08161066e565b6064356106ec8161066e565b608435906106f98261066e565b60a435926107068461066e565b60c435946107138661066e565b61013d5460ff8160081c1690816000146107835750610733303b15612792565b15978861075657612803565b61074557005b6104a461013d61ff00198154169055565b61076b61013d61010061ff0019825416179055565b61077e61013d600160ff19825416179055565b612803565b60ff610733911615612792565b50634e487b7160e01b600052604160045260246000fd5b67ffffffffffffffff81116107bb57604052565b6107c3610790565b604052565b60a0810190811067ffffffffffffffff8211176107bb57604052565b6040810190811067ffffffffffffffff8211176107bb57604052565b6060810190811067ffffffffffffffff8211176107bb57604052565b90601f601f19910116810190811067ffffffffffffffff8211176107bb57604052565b6040519061068d826107e4565b63ffffffff81160361000e57565b8015150361000e57565b60e4359061068d8261085a565b610104359061068d8261085a565b60a4359061068d8261085a565b60c4359061068d8261085a565b359061068d8261085a565b503461000e57608060031936011261000e576004356108c28161066e565b60607fffffffffffffffffffffffffffffffffffffffffffffffffffffffffffffffdc36011261000e576040516104a4916060820167ffffffffffffffff811183821017610943575b60405260243561091a8161066e565b82526044356109288161084c565b60208301526064356109398161085a565b6040830152612fd6565b61094b610790565b61090b565b503461000e57600060031936011261000e5760206001600160a01b0360d45416604051908152f35b503461000e5761014060031936011261000e576001600160a01b038060d454163303610a4d576109d163ffffffff6004356109b28161066e565b1691826000526064602052604060002054166001600160a01b03161590565b15610a3757610a3281610a1d610a187f4182acc9c169391ef7e765eb446fc15c9d49bc73060c678bf4c424a5c0dbdbcb9463ffffffff166000526064602052604060002090565b612c43565b610a2681612e15565b60405191829182612eae565b0390a1005b634e487b7160e01b600052600160045260246000fd5b60046040517f85734f31000000000000000000000000000000000000000000000000000000008152fd5b9181601f8401121561000e5782359167ffffffffffffffff831161000e576020808501948460051b01011161000e57565b918091926000905b828210610ac8575011610ac1575050565b6000910152565b91508060209183015181860152018291610ab0565b90601f19601f602093610afb81518092818752878088019101610aa8565b0116010190565b602080820190808352835180925260408301928160408460051b8301019501936000915b848310610b365750505050505090565b9091929394958480610b72837fffffffffffffffffffffffffffffffffffffffffffffffffffffffffffffffc086600196030187528a51610add565b9801930193019194939290610b26565b503461000e5760408060031936011261000e57600480359160243567ffffffffffffffff811161000e57610bb99036908401610a77565b610bc581949294613864565b93610bda8660005260d3602052604060002090565b95610be487613b1a565b60008781938295835b818110610d5f5750505050610d4f575b50610cb8575b610c19575b815180610c158582610b02565b0390f35b73__$86182d6e9eac51236f2aa8dd2a3ddeab6c$__90813b1561000e5782517f998c53350000000000000000000000000000000000000000000000000000000081529081019485526001602086015260646040860152610c159490916000918391908290819060600103915af48015610cab575b15610c085780610c9f610ca5926107a7565b80610328565b38610c08565b610cb361377f565b610c8d565b73__$86182d6e9eac51236f2aa8dd2a3ddeab6c$__803b1561000e576000845180927f651524ed0000000000000000000000000000000000000000000000000000000082528180610d198b8983016020606491939293604081019481520152565b03915af48015610d42575b610d2f575b50610c03565b80610c9f610d3c926107a7565b38610d29565b610d4a61377f565b610d24565b610d5890615af4565b5038610bfd565b9091929693610d77610d728385876138ad565b613924565b610d8081613912565b610dd8575080610dc0610daf610da7610d9d610dc59587896138ad565b602081019061394f565b810190613afb565b906001978015610dce575b9a614a4e565b61344a565b908a9291610bed565b5060008212610dba565b939650610de9610d728284866138ad565b93610df385613912565b6001948503610e425750610e16610e0e610d9d8385876138ad565b810190613aec565b93610e21858d614e39565b6000819512610e35575b50610dc59061344a565b9650869550610dc5610e2b565b6002610e55610d728486889c969c6138ad565b610e5e81613912565b03610edf575050610eb1610ebf610e768884866138ad565b610e9a8d610e94610e8c6020948581019061394f565b810190613a66565b9161514c565b8c5192830191825260208201529092839160400190565b03601f19810183528261081c565b610ec9878b6139ec565b52610ed4868a6139ec565b50610dc5839661344a565b6003610eef610d728a86886138ad565b610ef881613912565b03610f34575050610eb1610ebf610f108884866138ad565b610e9a8d610f2e610f266020948581019061394f565b810190613a41565b91614f20565b93509587610f46610d728385876138ad565b610f4f81613912565b03610f815780610f7b610f74610f6c610d9d610dc59587896138ad565b810190613a0e565b91896156b9565b5061344a565b6005610f91610d728385876138ad565b610f9a81613912565b03610fd05780610f7b610fcb610fc2610fba610d9d610dc596888a6138ad565b810190611444565b63ffffffff1690565b6153a3565b6006610fe0610d728385876138ad565b610fe981613912565b036110505780610ffd610dc59284866138ad565b61103b61102963ffffffff61102261101a6020958681019061394f565b8101906139a0565b9116615588565b8c519283019081528290602001610eb1565b611045828d6139ec565b52610f7b818c6139ec565b611063610d72611092928a948c966138ad565b92519283927f62c9ca420000000000000000000000000000000000000000000000000000000084528301613931565b0390fd5b503461000e5760208060031936011261000e5760665460d85460049283358215611218575b600090806111f55750508293915b8481106110e65750505081036110e15750600060d855005b60d855005b8060008361113e611132600261112463ffffffff61110661118799612dc7565b90549060031b1c1663ffffffff166000526064602052604060002090565b01546001600160a01b031690565b6001600160a01b031690565b86604051809481937f5e622abc0000000000000000000000000000000000000000000000000000000083525af19081156111e8575b6000916111bb575b508061118c575061344a565b6110c9565b6111b5906111a26067546001600160a01b031690565b6001600160a01b036101a3541690614b55565b38610f7b565b6111db9150843d86116111e1575b6111d3818361081c565b810190613edc565b3861117b565b503d6111c9565b6111f061377f565b611173565b6111ff9084613432565b905083811015611211575b93916110c9565b508261120a565b600092506110bb565b503461000e57604060031936011261000e5760206112616024356004356112478261084c565b8060005260d3845261125c6040600020613b1a565b615588565b604051908152f35b503461000e57602060031936011261000e576104a46004358060005260d3602052610fcb6040600020613b1a565b503461000e57600060031936011261000e5760206001600160a01b036101a25416604051908152f35b503461000e57600060031936011261000e57602060ff61017054166040519015158152f35b503461000e57604060031936011261000e57610c156024356113068161084c565b60043560005260d360205263ffffffff604060002091604051927f7188a1ed00000000000000000000000000000000000000000000000000000000845260048401521660248201526064604482015260208160648173__$86182d6e9eac51236f2aa8dd2a3ddeab6c$__5af49081156113b1575b600091611393575b506040519081529081906020820190565b6113ab915060203d81116111e1576111d3818361081c565b38611382565b6113b961377f565b61137a565b503461000e57602060031936011261000e576004356113dc8161066e565b6001600160a01b03806101a254163303610514576000916101a59073ffffffffffffffffffffffffffffffffffffffff19838354921691826040519582167f9b068aae3039a2512c2f13bffb5fd9d95b1895b276b5c7ddf1d4fa24ec3686588888a316179055f35b9081602091031261000e57356114598161084c565b90565b503461000e57602060031936011261000e57602061126160043561147f8161084c565b615dd9565b8060020b0361000e57565b359061068d82611484565b503461000e57608060031936011261000e576104a46004356024356114be8161084c565b604435906114cb82611484565b606435926114d884611484565b8060005260d36020526114ee6040600020613b1a565b6156b9565b503461000e57606060031936011261000e576024356115118161084c565b6044356101709061152660ff835416156133e7565b611531600435615af4565b9161153b83613b1a565b60009361154f60ff868512935416156133e7565b8461155a8383615b3f565b9473__$86182d6e9eac51236f2aa8dd2a3ddeab6c$__803b15611662576040517ff5a284a1000000000000000000000000000000000000000000000000000000008152600481019290925263ffffffff93909316602482015260448101859052606480820152831515608482015291829060a49082905af48015611655575b611642575b508382131561160a57506115fc61160592546001600160a01b031690565b30903390614bc7565b604051f35b611616575b5050604051f35b61163361162d61163b93546001600160a01b031690565b916144f2565b903390614b55565b388061160f565b80610c9f61164f926107a7565b386115de565b61165d61377f565b6115d9565b8280fd5b7fffffffffffffffffffffffffffffffffffffffffffffffffffffffffffffffbc60a091011261000e576040519061169d826107c8565b8160443581526064356116af8161066e565b60208201526084356116c08161085a565b604082015260a4356116d18161085a565b6060820152608060c435916116e58361085a565b0152565b503461000e5760e060031936011261000e576024356117078161084c565b61171036611666565b809161017061172360ff825416156133e7565b61174560ff611733600435615af4565b9261173d84613b1a565b5416156133e7565b61174e82615bea565b6040918291611789835195869384937f140cf61e0000000000000000000000000000000000000000000000000000000085526004850161533c565b038173__$86182d6e9eac51236f2aa8dd2a3ddeab6c$__5af4928315611928575b60009283946118f3575b506117be8461452d565b606c5481106118c157506001600160a01b036117e460208301516001600160a01b031690565b161515806118ab575b611804575b50519081526020810191909152604090f35b818101906118128251151590565b918261188f575b8215611856575b50501561182d57386117f2565b600490517f07a1db07000000000000000000000000000000000000000000000000000000008152fd5b5190915015611864565b1590565b9081611873575b503880611820565b90506118886118818461452d565b915161452d565b143861186b565b915061189a8561452d565b6118a4825161452d565b1491611819565b506118bc6118606060830151151590565b6117ed565b82517f256d6b9a0000000000000000000000000000000000000000000000000000000081526004810191909152602490fd5b909350816119179293503d8411611921575b61190f818361081c565b810190615326565b91909192386117b4565b503d611905565b61193061377f565b6117aa565b503461000e57600060031936011261000e57602060d254604051908152f35b503461000e5761010060031936011261000e5760048035906119758261084c565b60e07fffffffffffffffffffffffffffffffffffffffffffffffffffffffffffffffdc36011261000e576001600160a01b036101a254163303611b33576119d760036119d18463ffffffff166000526064602052604060002090565b01612a65565b6119f26119e5611132612a4c565b6001600160a01b03161590565b611b155763ffffffff61012c81611a07612a27565b1610908115611aff575b50611ae05761ffff6127108082611a266129f9565b1611611ac257611a3e611a37612a05565b61ffff1690565b11611aa4576107d090611a4f612a11565b1611611a85576040517f4182acc9c169391ef7e765eb446fc15c9d49bc73060c678bf4c424a5c0dbdbcb9080610a328582612f52565b604051636a098dd160e11b815260249181019182529081906020010390fd5b604051636a098dd160e11b8152602381840190815281906020010390fd5b604051636a098dd160e11b8152602281850190815281906020010390fd5b604051636a098dd160e11b815260219181019182529081906020010390fd5b620151809150611b0d612a27565b161138611a11565b604051636a098dd160e11b8152602091810182815290918291010390fd5b6040517fd7a2ae6a000000000000000000000000000000000000000000000000000000008152fd5b503461000e57602060031936011261000e57600435611b798161066e565b6001600160a01b03806101a254163303610514576000916101a49073ffffffffffffffffffffffffffffffffffffffff19838354921691826040519582167f8c405decc72a19ef328c92989ce6db4e4a498e1c246413fd60997a3051ba5cff8888a316179055f35b503461000e57604060031936011261000e57602435610170611c0760ff825416156133e7565b611c1760ff611733600435615af4565b8115611cee5773__$86182d6e9eac51236f2aa8dd2a3ddeab6c$__803b1561000e576040517fd25c4a6f000000000000000000000000000000000000000000000000000000008152600481019290925260248201839052606460448301819052600190830152600090829060849082905af48015611ce1575b611cce575b506000811315611cb5576104a4906115fc6067546001600160a01b031690565b6104a49061163361162d6067546001600160a01b031690565b80610c9f611cdb926107a7565b38611c95565b611ce961377f565b611c90565b60046040517f1f2a2005000000000000000000000000000000000000000000000000000000008152fd5b503461000e57600060031936011261000e5760206112616136aa565b60031961010091011261000e57600490565b7fffffffffffffffffffffffffffffffffffffffffffffffffffffffffffffffbc61010091011261000e57604490565b503461000e5761016060031936011261000e57611d9236611d34565b610104356101243591610144356001600160a01b036101a254163303610514576127109361ffff8581611dc486612a1d565b1611611fdd5785611dda611a3760208701612a1d565b11611fc45760409580611df1611a37898801612a1d565b11611fac5780611e06611a3760608801612a1d565b11611f9457611e1a611a3760808701612a1d565b11611f7c576103e890611e2f60a08601612a1d565b1611611f6457633b9aca008067ffffffffffffffff611e5060c0870161308e565b1611611f4c5780611e73611e6660e0870161308e565b67ffffffffffffffff1690565b11611f3457808511611f1c57808211611f04578211611eec5791611ee660009594927f697aec6e94e319190380ab0f1f10018d81b64da2479eb874be92c9a733e0a83794611ec084613098565b611ec985606b55565b611ed281606c55565b611edb82606a55565b8651948594856132fb565b0390a151f35b8451636a098dd160e11b8152603a6004820152602490fd5b8551636a098dd160e11b815260396004820152602490fd5b8551636a098dd160e11b815260386004820152602490fd5b8551636a098dd160e11b815260376004820152602490fd5b8551636a098dd160e11b815260366004820152602490fd5b8451636a098dd160e11b815260356004820152602490fd5b8551636a098dd160e11b815260346004820152602490fd5b8651636a098dd160e11b815260336004820152602490fd5b8651636a098dd160e11b815260326004820152602490fd5b604051636a098dd160e11b815260316004820152602490fd5b604051636a098dd160e11b815260306004820152602490fd5b50602060031936011261000e576004803567ffffffffffffffff811161000e576120239036908301610a77565b9061202d82613864565b9160005b8181106120465760405180610c158682610b02565b600080612054838587615ea2565b60409391612066855180938193615ecc565b0390305af490612074614db8565b9182901561209d575050906120989161208d82876139ec565b52610f7b81866139ec565b612031565b826044899394511061000e5761109291836120c2920160248091518301019101615eda565b925192839262461bcd60e51b84528301614de8565b503461000e57600060031936011261000e5760206001600160a01b0360d55416604051908152f35b503461000e5761014060031936011261000e5760243561211e8161084c565b606061212936611d46565b916101709261213c60ff855416156133e7565b61216960ff61216061214f600435615af4565b9361215985613b1a565b36906137a7565b955416156133e7565b61217282615bea565b828401516001600160a01b031680612279575b506121bd60405194859384937fc27789d10000000000000000000000000000000000000000000000000000000085526004850161503a565b038173__$86182d6e9eac51236f2aa8dd2a3ddeab6c$__5af4801561226c575b60009081928291612238575b50606c5481106122055750604080519182526020820192909252f35b6040517f256d6b9a0000000000000000000000000000000000000000000000000000000081526004810191909152602490fd5b91505061225c915060603d8111612265575b612254818361081c565b810190615012565b919091386121e9565b503d61224a565b61227461377f565b6121dd565b6122939061228c608087015161ffff1690565b9084615cc7565b38612185565b503461000e57602060031936011261000e5760206112616004356122bc8161084c565b615e37565b503461000e57600060031936011261000e5760206001600160a01b036101a35416604051908152f35b60209067ffffffffffffffff8111612304575b60051b0190565b61230c610790565b6122fd565b6020908160408183019282815285518094520193019160005b828110612338575050505090565b83518552938101939281019260010161232a565b503461000e5760208060031936011261000e5760043567ffffffffffffffff811161000e573660238201121561000e5780600401359061238b826122ea565b91612399604051938461081c565b80835260248484019160051b8301019136831161000e57602401905b8282106123d457610c156123c885615e79565b60405191829182612311565b813581529084019084016123b5565b503461000e57602060031936011261000e5760043560005260d3602052610c156040600020604051907fc4b22b8600000000000000000000000000000000000000000000000000000000825260048201526064602482015260208160448173__$86182d6e9eac51236f2aa8dd2a3ddeab6c$__5af49081156113b15760009161139357506040519081529081906020820190565b503461000e57604060031936011261000e576004356124958161084c565b602435906124a16136aa565b90610170926124b460ff855416156133e7565b6124bd83615af4565b936124c785613b1a565b6124d960ff60008412925416156133e7565b6124e38184615b3f565b9273__$86182d6e9eac51236f2aa8dd2a3ddeab6c$__90813b1561000e576040517ff5a284a1000000000000000000000000000000000000000000000000000000008152600481019790975263ffffffff166024870152604486018390526064808701528115156084870152610c159590600090829060a49082905af480156125d8575b6125c5575b50600082131561259b57506115fc61258b92546001600160a01b031690565b6040519081529081906020820190565b6125a7575b505061258b565b61163361162d6125be93546001600160a01b031690565b38806125a0565b80610c9f6125d2926107a7565b3861256c565b6125e061377f565b612567565b503461000e5760408060031936011261000e576024356126048161085a565b60043560005260d360205281600020908251917f0c6d7f3400000000000000000000000000000000000000000000000000000000835260048301521515602482015260646044820152818160648173__$86182d6e9eac51236f2aa8dd2a3ddeab6c$__5af49182156126b1575b600091829361268c5750519081526020810191909152604090f35b816126a9929450610c1593503d85116119215761190f818361081c565b9290916117f2565b6126b961377f565b612671565b503461000e57602060031936011261000e576001600160a01b03806101a354163314159081612782575b50610514576101706126fd60ff82541661365f565b60d65461275857612712600435606654613574565b61271857005b60ff19815461272960ff821661365f565b1690557f5db9ee0a495bf2e6ff9c91a7834c1ba4fdd244a5e8aa4e537bd38aeae4b073aa6020604051338152a1005b60046040517ffc23b9cd000000000000000000000000000000000000000000000000000000008152fd5b6101a254163314159050386126e8565b1561279957565b608460405162461bcd60e51b815260206004820152602e60248201527f496e697469616c697a61626c653a20636f6e747261637420697320616c72656160448201527f647920696e697469616c697a65640000000000000000000000000000000000006064820152fd5b93916128a27f39355f2f5c8206286978f443aa8126bbd29fa09c53c04569502647f3a59c8cb2936000958694986001600160a01b039a8b80928173ffffffffffffffffffffffffffffffffffffffff199c168c60d454161760d4558185168c6067541617606755168a60d554161760d55516886068541617606855896040519261288c84610800565b168252603c60208301526001604083015261592c565b61013d9680885460ff8160081c169081861461295a57506128c4303b15612792565b15978861292d575b16916101a2838882541617905560405192847f5f56bee8cffbe9a78652a74a60705edede02af10b0bbb888ca44b79a0d42ce808186a31694856101a391825416179055a361291e575b5061068d612967565b61ff0019815416905538612915565b61294261013d61010061ff0019825416179055565b61295561013d600160ff19825416179055565b6128cc565b60ff6128c4911615612792565b60ff61013d5460081c16156129835761017060ff198154169055565b608460405162461bcd60e51b815260206004820152602b60248201527f496e697469616c697a61626c653a20636f6e7472616374206973206e6f74206960448201527f6e697469616c697a696e670000000000000000000000000000000000000000006064820152fd5b61ffff81160361000e57565b602435611459816129ed565b604435611459816129ed565b606435611459816129ed565b35611459816129ed565b6084356114598161084c565b60e4356114598161085a565b610104356114598161085a565b60e4356114598161066e565b610124356114598161066e565b61068d90612aa7602435612a78816129ed565b829061ffff167fffffffffffffffffffffffffffffffffffffffffffffffffffffffffffff0000825416179055565b612aeb604435612ab6816129ed565b82547fffffffffffffffffffffffffffffffffffffffffffffffffffffffff0000ffff1660109190911b63ffff000016178255565b612b31606435612afa816129ed565b82547fffffffffffffffffffffffffffffffffffffffffffffffffffff0000ffffffff1660209190911b65ffff0000000016178255565b608435612b3d8161084c565b7fffffffffffffffffffffffffffffffffffffffffffff00000000ffffffffffff69ffffffff00000000000083549260301b169116178155612bc060a435612b848161085a565b82547fffffffffffffffffffffffffffffffffffffffffff00ffffffffffffffffffff1690151560501b6aff0000000000000000000016178255565b612c0c60c435612bcf8161085a565b82547fffffffffffffffffffffffffffffffffffffffff00ffffffffffffffffffffff1690151560581b6bff000000000000000000000016178255565b60e43590612c198261066e565b906bffffffffffffffffffffffff6bffffffffffffffffffffffff1983549260601b169116179055565b600361068d91612c81600435612c588161066e565b82906001600160a01b031673ffffffffffffffffffffffffffffffffffffffff19825416179055565b612cbc602435612c908161066e565b60018301906001600160a01b031673ffffffffffffffffffffffffffffffffffffffff19825416179055565b612cf7604435612ccb8161066e565b60028301906001600160a01b031673ffffffffffffffffffffffffffffffffffffffff19825416179055565b01612d07606435612a78816129ed565b612d16608435612ab6816129ed565b612d2560a435612afa816129ed565b60c435612d318161084c565b7fffffffffffffffffffffffffffffffffffffffffffff00000000ffffffffffff69ffffffff00000000000083549260301b169116178155612d74612b84612a33565b612d7f612bcf612a3f565b612d87612a58565b6bffffffffffffffffffffffff6bffffffffffffffffffffffff1983549260601b169116179055565b50634e487b7160e01b600052603260045260246000fd5b90606654821015612e08575b6066600052601c8260031c7f46501879b8ca8525e8c2fd519e2fbfcfa2ebea26501294aa02cbfcfb12e94354019260021b1690565b612e10612db0565b612dd3565b6066549068010000000000000000821015612e96575b6001820180606655821015612e89575b60666000528160031c7f46501879b8ca8525e8c2fd519e2fbfcfa2ebea26501294aa02cbfcfb12e94354019160e083549160051b169163ffffffff9283811b93849216901b16911916179055565b612e91612db0565b612e3b565b612e9e610790565b612e2b565b359061068d826129ed565b63ffffffff91821681526101008101929161068d9190606435612ed0816129ed565b61ffff809116602084015280608435612ee8816129ed565b16604084015260a435612efa816129ed565b16606083015260c435612f0c8161084c565b166080820152612f26612f1d610864565b151560a0830152565b612f3a612f31610871565b151560c0830152565b60e0612f4461067f565b6001600160a01b0316910152565b63ffffffff91821681526101008101929161068d9190602435612f74816129ed565b61ffff809116602084015280604435612f8c816129ed565b166040840152606435612f9e816129ed565b166060830152608435612fb08161084c565b166080820152612fc1612f1d61087f565b612fcc612f3161088c565b60e0612f4461068f565b906001600160a01b03806101a2541633036105145781511615613035576201518063ffffffff61300d602084015163ffffffff1690565b161161301c5761068d9161592c565b604051636a098dd160e11b815260116004820152602490fd5b604051636a098dd160e11b815260106004820152602490fd5b50634e487b7160e01b600052601160045260246000fd5b50634e487b7160e01b600052601260045260246000fd5b67ffffffffffffffff81160361000e57565b356114598161307c565b6132a260e061068d9261ffff81356130af816129ed565b167fffffffffffffffffffffffffffffffffffffffffffffffffffffffffffff0000606954161760695561312060208201356130ea816129ed565b7fffffffffffffffffffffffffffffffffffffffffffffffffffffffff0000ffff63ffff00006069549260101b16911617606955565b6131696040820135613131816129ed565b7fffffffffffffffffffffffffffffffffffffffffffffffffffff0000ffffffff65ffff000000006069549260201b16911617606955565b6060810135613177816129ed565b7fffffffffffffffffffffffffffffffffffffffffffffffff0000ffffffffffff67ffff0000000000006069549260301b169116176069556131fa6131be60808301612a1d565b7fffffffffffffffffffffffffffffffffffffffffffff0000ffffffffffffffff69ffff00000000000000006069549260401b16911617606955565b61324761320960a08301612a1d565b7fffffffffffffffffffffffffffffffffffffffff0000ffffffffffffffffffff6bffff000000000000000000006069549260501b16911617606955565b61329c61325660c0830161308e565b7fffffffffffffffffffffffff0000000000000000ffffffffffffffffffffffff73ffffffffffffffff0000000000000000000000006069549260601b16911617606955565b0161308e565b7fffffffff0000000000000000ffffffffffffffffffffffffffffffffffffffff7bffffffffffffffff00000000000000000000000000000000000000006069549260a01b16911617606955565b359061068d8261307c565b90949392610140926133d76133c660e0610160860199803561331c816129ed565b61ffff80911688526020820135613332816129ed565b16602088015261335261334760408301612ea3565b61ffff166040890152565b61336c61336160608301612ea3565b61ffff166060890152565b61338661337b60808301612ea3565b61ffff166080890152565b6133a061339560a08301612ea3565b61ffff1660a0890152565b6133c06133af60c083016132f0565b67ffffffffffffffff1660c0890152565b016132f0565b67ffffffffffffffff1660e0850152565b6101008301526101208201520152565b156133ee57565b606460405162461bcd60e51b815260206004820152601060248201527f5061757361626c653a20706175736564000000000000000000000000000000006044820152fd5b8119811161343e570190565b61344661304e565b0190565b600190600019811461343e570190565b60d6549291831561356b575b6000908061354957505080925b8381106134915750821491821561348c5750600060d655565b60d655565b63ffffffff61349f82612dc7565b90549060031b1c1660005260646020526040906134cd611132600284600020016001600160a01b0390541690565b803b1561000e57600061352a935180927f5124033600000000000000000000000000000000000000000000000000000000825281838161351560048201906000602083019252565b03925af1801561353c575b61352f575061344a565b613473565b80610c9f6111b5926107a7565b61354461377f565b613520565b6135539085613432565b905081811015613564575b92613473565b508061355e565b60009350613466565b60d75492918315613656575b6000908061363457505080925b8381106135ab575082149182156135a65750600060d755565b60d755565b63ffffffff6135b982612dc7565b90549060031b1c1660005260646020526040906001600160a01b03600283600020015416803b1561000e5760008091602461362f9551809481937f51240336000000000000000000000000000000000000000000000000000000008352600160048401525af1801561353c5761352f575061344a565b61358d565b61363e9085613432565b90508181101561364f575b9261358d565b5080613649565b60009350613580565b1561366657565b606460405162461bcd60e51b815260206004820152601460248201527f5061757361626c653a206e6f74207061757365640000000000000000000000006044820152fd5b6136ba60ff6101705416156133e7565b60d2547ffffffffffffffffffffffffffffffffffffffffffffffffffffffffffffffffe8111613772575b6001810160d255600081815260d36020526040902080546bffffffffffffffffffffffff163360601b6bffffffffffffffffffffffff19161781556bffffffffffffffffffffffff82166bffffffffffffffffffffffff198254161790556040518181527f7325fb14450d3e5eb288c620b4ff1d6b43a41b33b4a4f143ae88cd4c12f99ea360203392a290565b61377a61304e565b6136e5565b506040513d6000823e3d90fd5b359081600f0b820361000e57565b3590600382101561000e57565b809291610100918291031261000e5760405190810181811067ffffffffffffffff821117613857575b60405260e06138528183956137e48161148f565b85526137f26020820161148f565b60208601526138036040820161378c565b60408601526138146060820161069c565b606086015261382560808201612ea3565b608086015261383660a08201610899565b60a086015261384760c0820161379a565b60c086015201610899565b910152565b61385f610790565b6137d0565b9061386e826122ea565b61387b604051918261081c565b828152601f1961388b82946122ea565b019060005b82811061389c57505050565b806060602080938501015201613890565b91908110156138ee575b60051b810135907fffffffffffffffffffffffffffffffffffffffffffffffffffffffffffffffc18136030182121561000e570190565b6138f6612db0565b6138b7565b50634e487b7160e01b600052602160045260246000fd5b6007111561391c57565b61068d6138fb565b35600781101561000e5790565b9190602083019260078210156139445752565b61394c6138fb565b52565b9035907fffffffffffffffffffffffffffffffffffffffffffffffffffffffffffffffe18136030182121561000e570180359067ffffffffffffffff821161000e5760200191813603831361000e57565b919082604091031261000e57602082356139b98161084c565b9201356114598161084c565b6020908051156139d3570190565b613446612db0565b6040908051600110156139d3570190565b6020918151811015613a01575b60051b010190565b613a09612db0565b6139f9565b9081606091031261000e578035613a248161084c565b9160406020830135613a3581611484565b92013561145981611484565b91906101208382031261000e576114599060208435613a5f8161084c565b94016137a7565b809291039160c0831261000e5760a0601f198235613a838161084c565b94011261000e5760a060405191613a99836107c8565b602081013583526040810135613aae8161066e565b60208401526060810135613ac18161085a565b60408401526080810135613ad48161085a565b60608401520135613ae48161085a565b608082015290565b9081602091031261000e573590565b919082604091031261000e5760208235613b148161084c565b92013590565b60005b60088060ff83161015613b7c57811015613b81575b63ffffffff60018260031c8401015460e08360051b161c16908115613b7c57613b5c600192613c06565b60ff809116908114613b6f575b01613b1d565b613b7761304e565b613b69565b505050565b613b89612db0565b613b32565b60008212827f8000000000000000000000000000000000000000000000000000000000000000018212811516613bf9575b827f7fffffffffffffffffffffffffffffffffffffffffffffffffffffffffffffff01821316613bed570390565b613bf561304e565b0390565b613c0161304e565b613bbf565b613c0e613eeb565b613c288263ffffffff16600052606d602052604060002090565b805463ffffffff838116911614613b7c57613c42836143ed565b613c53613c4e8561400c565b613f97565b937c010000000000000000000000000000000000000000000000000000000080831090811591613e1f575b50613e185761068d94613d33613d38613db994613cbf6003613cb3613d849763ffffffff166000526064602052604060002090565b015460201c61ffff1690565b613cdf61ffff613cd7613cd28886613b8e565b61452d565b921683613e2a565b1015613de957613d33600188017c01000000000000000000000000000000000000000000000000000000007fffffff00ffffffffffffffffffffffffffffffffffffffffffffffffffffffff825416179055565b61447c565b60018601907bffffffffffffffffffffffffffffffffffffffffffffffffffffffff167fffffffff00000000000000000000000000000000000000000000000000000000825416179055565b825463ffffffff1660209190911b7fffffffffffffffffffffffffffffffffffffffffffffffffffffffff0000000016178255565b9063ffffffff167fffffffffffffffffffffffffffffffffffffffffffffffffffffffff00000000825416179055565b613d33600188017fffffff00ffffffffffffffffffffffffffffffffffffffffffffffffffffffff8154169055565b5050505050565b905085101538613c7e565b9060001981830981830291828083109203918083039214613e8757612710908282111561000e577fbc01a36e2eb1c432ca57a786c226809d495182a9930be0ded288ce703afb7e91940990828211900360fc1b910360041c170290565b505061271091500490565b6000198282099082810292838084109303928084039314613ed35768010000000000000000918383111561000e570990828211900360c01b910360401c1790565b50505060401c90565b9081602091031261000e575190565b61a4b146148015613f8b575b8015613f7f575b15613f755763ffffffff6040517fa3b1b31d00000000000000000000000000000000000000000000000000000000815260208160048160645afa908115613f68575b600091613f4c57501690565b613f64915060203d81116111e1576111d3818361081c565b1690565b613f7061377f565b613f40565b63ffffffff431690565b5062066eec4614613efe565b5062066eeb4614613ef7565b6001600160a01b03166401000276a381108015613fee575b613fbd578061145991613e92565b602490604051907f5d236c450000000000000000000000000000000000000000000000000000000082526004820152fd5b5073fffd8963efd1fc6a506488495d951d5263988d26811015613faf565b6140269063ffffffff166000526064602052604060002090565b60036140506001600160a01b0392836001820154169063ffffffff938491015460301c1690614836565b60020b9060008212156143e75781600003915b620d89e883116143bd5760018316156143945770ffffffffffffffffffffffffffffffffff6ffffcb933bd6fad37aa2d162d1a5940015b169260028116614378575b6004811661435c575b60088116614340575b60108116614324575b60208116614308575b604081166142ec575b6080908181166142d1575b61010081166142b6575b610200811661429b575b6104008116614280575b6108008116614265575b611000811661424a575b612000811661422f575b6140008116614214575b61800081166141f9575b6201000081166141de575b6202000081166141c4575b6204000081166141aa575b620800001661418f575b5060001261417f575b81166141765760ff60005b169060201c011690565b60ff600161416c565b9061418990614542565b90614161565b6b048a170391f7dc42444e8fa26000929402901c9290614158565b6d2216e584f5fa1ea926041bedfe98909402811c9361414e565b936e5d6af8dedb81196699c329225ee60402811c93614143565b936f09aa508b5b7a84e1c677de54f3e99bc902811c93614138565b936f31be135f97d08fd981231505542fcfa602811c9361412d565b936f70d869a156d2a1b890bb3df62baf32f702811c93614123565b936fa9f746462d870fdf8a65dc1f90e061e502811c93614119565b936fd097f3bdfd2022b8845ad8f792aa582502811c9361410f565b936fe7159475a2c29b7443b29c7fa6e889d902811c93614105565b936ff3392b0822b70005940c7a398e4b70f302811c936140fb565b936ff987a7253ac413176f2b074cf7815e5402811c936140f1565b936ffcbe86c7900a88aedcffc83b479aa3a402811c936140e7565b936ffe5dee046a99a2a811c461f1969c305302811c936140dd565b926fff2ea16466c96a3843ec78b326b528610260801c926140d2565b926fff973b41fa98c081472e6896dfb254c00260801c926140c9565b926fffcb9843d60f6159c9db58835c9266440260801c926140c0565b926fffe5caca7e10e4e61c3624eaa0941cd00260801c926140b7565b926ffff2e50f5f656932ef12357cf3c7fdcc0260801c926140ae565b926ffff97272373d413259a46990580e213a0260801c926140a5565b70ffffffffffffffffffffffffffffffffff70010000000000000000000000000000000061409a565b60046040517f2bc80f3a000000000000000000000000000000000000000000000000000000008152fd5b81614063565b63ffffffff80911660005260646020526020600360406000200154916024604051809481937fdd86c1010000000000000000000000000000000000000000000000000000000083528160301c16600483015260601c5afa90811561446f575b600091614457575090565b611459915060203d81116111e1576111d3818361081c565b61447761377f565b61444c565b7c010000000000000000000000000000000000000000000000000000000081116144c1577bffffffffffffffffffffffffffffffffffffffffffffffffffffffff1690565b602490604051907f1ba344530000000000000000000000000000000000000000000000000000000082526004820152fd5b7f80000000000000000000000000000000000000000000000000000000000000008114614520575b60000390565b61452861304e565b61451a565b60008113156145395790565b611459906144f2565b8015614550575b6000190490565b614558613065565b614549565b6040519061456a82610800565b600282526040366020840137565b81601f8201121561000e5780519161458f836122ea565b9261459d604051948561081c565b808452602092838086019260051b82010192831161000e578301905b8282106145c7575050505090565b83809183516145d58161066e565b8152019101906145b9565b91909160408184031261000e5780519267ffffffffffffffff9384811161000e5782019381601f8601121561000e5784519461461b866122ea565b90614629604051928361081c565b868252602096878084019160051b8301019185831161000e578801905b828210614665575050509483015190811161000e576114599201614578565b81518060060b810361000e578152908801908801614646565b6020908160408183019282815285518094520193019160005b8281106146a5575050505090565b835163ffffffff1685529381019392810192600101614697565b60060b9060060b9060008212827fffffffffffffffffffffffffffffffffffffffffffffffffff8000000000000001821281151661470d575b82667fffffffffffff01821316613bed570390565b61471561304e565b6146f8565b60060b9060060b908115614766575b60001982147fffffffffffffffffffffffffffffffffffffffffffffffffff8000000000000082141661475a570590565b61476261304e565b0590565b61476e613065565b614729565b9060060b908115614786575b60060b0790565b61478e613065565b61477f565b6000199060020b7fffffffffffffffffffffffffffffffffffffffffffffffffffffffffff800000811461343e570190565b908160e091031261000e5780516147db8161066e565b9160208201516147ea81611484565b9160408101516147f9816129ed565b916060820151614808816129ed565b916080810151614817816129ed565b9160a082015160ff8116810361000e5760c0909201516114598161085a565b9063ffffffff811680156149ee576148b56001600160a01b039361487061485b61455d565b94614865866139c5565b9063ffffffff169052565b60009485918261487f876139db565b521693604051809381927f883bdbfd0000000000000000000000000000000000000000000000000000000083526004830161467e565b0381865afa8491816149c9575b5061494a57505060e0600491604051928380927f3850c7bd0000000000000000000000000000000000000000000000000000000082525afa91821561493d575b9161490b575090565b61492c915060e03d8111614936575b614924818361081c565b8101906147c5565b5050505050905090565b503d61491a565b61494561377f565b614902565b61497591925061496f614962614969614962846139db565b5160060b90565b926139c5565b906146bf565b9060060b61498c614986828461471a565b60020b90565b928260060b1291826149ab575b50506149a25790565b61145990614793565b6149c09250906149ba91614773565b60060b90565b15153880614999565b6149e69192503d8087833e6149de818361081c565b8101906145e0565b5090386148c2565b50506114599060e06001600160a01b03916004604051809481937f3850c7bd000000000000000000000000000000000000000000000000000000008352165afa908115614a41575b60009161490b575090565b614a4961377f565b614a36565b919091614a6160ff6101705416156133e7565b6000821290614a708285615b3f565b9373__$86182d6e9eac51236f2aa8dd2a3ddeab6c$__91823b1561000e576040517ff5a284a1000000000000000000000000000000000000000000000000000000008152600481019190915263ffffffff919091166024820152604481018490526064808201526000608482018190529091829060a49082905af48015614b48575b614b35575b506000821315614b1657506115fc61068d92546001600160a01b031690565b614b1e575050565b61163361162d61068d93546001600160a01b031690565b80610c9f614b42926107a7565b38614af7565b614b5061377f565b614af2565b61068d926001600160a01b03604051937fa9059cbb0000000000000000000000000000000000000000000000000000000060208601521660248401526044830152604482526080820182811067ffffffffffffffff821117614bba575b604052614ce6565b614bc2610790565b614bb2565b909261068d93604051937f23b872dd0000000000000000000000000000000000000000000000000000000060208601526001600160a01b03809216602486015216604484015260648301526064825260a0820182811067ffffffffffffffff821117614bba57604052614ce6565b601f19601f60209267ffffffffffffffff8111614c53575b01160190565b614c5b610790565b614c4d565b9081602091031261000e57516114598161085a565b15614c7c57565b608460405162461bcd60e51b815260206004820152602a60248201527f5361666545524332303a204552433230206f7065726174696f6e20646964206e60448201527f6f742073756363656564000000000000000000000000000000000000000000006064820152fd5b6001600160a01b03169060405190614cfd826107e4565b6020928383527f5361666545524332303a206c6f772d6c6576656c2063616c6c206661696c656484840152803b15614d745760008281928287614d4f9796519301915af1614d49614db8565b90614df9565b80519081614d5c57505050565b8261068d93614d6f938301019101614c60565b614c75565b6064846040519062461bcd60e51b82526004820152601d60248201527f416464726573733a2063616c6c20746f206e6f6e2d636f6e74726163740000006044820152fd5b3d15614de3573d90614dc982614c35565b91614dd7604051938461081c565b82523d6000602084013e565b606090565b906020611459928181520190610add565b90919015614e05575090565b815115614e155750805190602001fd5b6110929060405191829162461bcd60e51b8352602060048401526024830190610add565b614e4960ff6101705416156133e7565b8115611cee5773__$86182d6e9eac51236f2aa8dd2a3ddeab6c$__803b1561000e576040517fd25c4a6f000000000000000000000000000000000000000000000000000000008152600481019290925260248201839052606460448301819052600090830181905290829060849082905af48015614f13575b614f00575b506000811315614ee75761068d906115fc6067546001600160a01b031690565b61068d9061163361162d6067546001600160a01b031690565b80610c9f614f0d926107a7565b38614ec7565b614f1b61377f565b614ec2565b90606091939293614f3760ff6101705416156133e7565b614f4082615bea565b828501516001600160a01b031680614ff9575b50614f8b60405195869384937fc27789d1000000000000000000000000000000000000000000000000000000008552600485016150e1565b038173__$86182d6e9eac51236f2aa8dd2a3ddeab6c$__5af48015614fec575b60009081938291614fc6575b50606c54811061220557509190565b915050614fe291925060603d811161226557612254818361081c565b9291909238614fb7565b614ff461377f565b614fab565b61500c9061228c608088015161ffff1690565b38614f53565b9081606091031261000e578051916040602083015192015190565b9060038210156139445752565b6150d260e061016093969563ffffffff61068d966101808601998652166020850152805160020b6040850152602081015160020b60608501526040810151600f0b608085015261509a606082015160a08601906001600160a01b03169052565b608081015161ffff1660c085015260a08101511515848301526150c660c082015161010086019061502d565b01511515610120830152565b60646101408201520160019052565b61514060e061016093969563ffffffff6000966101808601998652166020850152805160020b6040850152602081015160020b60608501526040810151600f0b608085015261509a606082015160a08601906001600160a01b03169052565b60646101408201520152565b908293929161516160ff6101705416156133e7565b61516a82615bea565b6040918291615203835195869384937f140cf61e00000000000000000000000000000000000000000000000000000000855260048501608061010092959463ffffffff6000956101208501988552166020840152805160408401526001600160a01b03602082015116606084015260408101511515828401526060810151151560a08401520151151560c0820152606460e08201520152565b038173__$86182d6e9eac51236f2aa8dd2a3ddeab6c$__5af4938415615319575b60009283956152f4575b506152388561452d565b606c5481106118c157506001600160a01b0361525e60208301516001600160a01b031690565b161515806152de575b615272575b50509190565b818101906152808251151590565b91826152c2575b821561529b575b50501561182d578061526c565b51159150816152ad575b50388061528e565b90506152bb6118818461452d565b14386152a5565b91506152cd8661452d565b6152d7825161452d565b1491615287565b506152ef6118606060830151151590565b615267565b9094508161530f9293503d84116119215761190f818361081c565b919091933861522e565b61532161377f565b615224565b919082604091031261000e576020825192015190565b608061010092959463ffffffff61068d956101208501988552166020840152805160408401526001600160a01b03602082015116606084015260408101511515828401526060810151151560a08401520151151560c0820152606460e08201520160019052565b6153b360ff6101705416156133e7565b61540d60606153cc8360005260d3602052604060002090565b604051809381927fdf19bf09000000000000000000000000000000000000000000000000000000008352600483016020606491939293604081019481520152565b038173__$86182d6e9eac51236f2aa8dd2a3ddeab6c$__5af491821561550f575b600092839284916154e9575b50615445838561551c565b9260008513156154b757907f688f0846fe2852572c467d5e769db101b0fea55e8849406d85c9fb322b95299b9161548f866154886067546001600160a01b031690565b3390614b55565b615498816157a9565b604080519586526020860187905285015260608401523392608090a390565b6040517fef37dcc700000000000000000000000000000000000000000000000000000000815260048101869052602490fd5b91935050615505915060603d811161226557612254818361081c565b919290913861543a565b61551761377f565b61542e565b60008112817f7fffffffffffffffffffffffffffffffffffffffffffffffffffffffffffffff03831381151661557b575b817f80000000000000000000000000000000000000000000000000000000000000000383121661343e570190565b61558361304e565b61554d565b615607916155b26040926155a260ff6101705416156133e7565b60005260d3602052604060002090565b6155bb82615bea565b825193849283927fec1464960000000000000000000000000000000000000000000000000000000084526004840160409063ffffffff6064939594606083019683521660208201520152565b038173__$86182d6e9eac51236f2aa8dd2a3ddeab6c$__5af480156156ac575b600091829161568c575b50600082131561565a5761145990615655836154886067546001600160a01b031690565b6157a9565b6040517fef37dcc700000000000000000000000000000000000000000000000000000000815260048101839052602490fd5b90506156a6915060403d81116119215761190f818361081c565b38615631565b6156b461377f565b615627565b929091926156cd60ff6101705416156133e7565b60005260d36020526040600020916156e481615bea565b606b549373__$86182d6e9eac51236f2aa8dd2a3ddeab6c$__93843b1561000e5763ffffffff9460009460c49360405197889687957fe0448f0a000000000000000000000000000000000000000000000000000000008752600487015216602485015260020b604484015260020b6064830152866084830152606460a48301525af4801561579c575b615789575b50611459816154886067546001600160a01b031690565b80610c9f615796926107a7565b38615772565b6157a461377f565b61576d565b60008113156157ce5761068d906001600160a01b0380606754169060d5541690614b55565b6157e36001600160a01b0360d55416916144f2565b813b1561000e576000916024839260405194859384927f379607f500000000000000000000000000000000000000000000000000000000845260048401525af1801561583a575b6158315750565b61068d906107a7565b61584261377f565b61582a565b6158b8602060016001600160a01b03936158878587511682906001600160a01b031673ffffffffffffffffffffffffffffffffffffffff19825416179055565b019301519182511683906001600160a01b031673ffffffffffffffffffffffffffffffffffffffff19825416179055565b6020810151907fffffffffffffff0000000000ffffffffffffffffffffffffffffffffffffffff77ffffffff000000000000000000000000000000000000000078ff00000000000000000000000000000000000000000000000060408654940151151560c01b169360a01b16911617179055565b919063ffffffff83166001600160a01b03841615615ac2576159746118606119e56159678463ffffffff166000526065602052604060002090565b546001600160a01b031690565b80615a87575b615a2757926159de7f52983c04d8ccd4808cd0fcb24e6e48106ecb41e803d6270c6c94a15e3ebd08d293946159d96159b061083f565b6001600160a01b03851681529185602084015263ffffffff166000526065602052604060002090565b615847565b615a2260405192839283909291604060609160808401956001600160a01b038091168552815116602085015263ffffffff6020820151168285015201511515910152565b0390a1565b615a45615967859263ffffffff166000526065602052604060002090565b6040517fa5d4d0b50000000000000000000000000000000000000000000000000000000081526001600160a01b03928316600482015291166024820152604490fd5b50615abd61186085615aac6159678563ffffffff166000526065602052604060002090565b6001600160a01b0390811691161490565b61597a565b6040517f76d8a93100000000000000000000000000000000000000000000000000000000815260006004820152602490fd5b60005260d3602052604060002090815460601c3303615b0f57565b60246040517f0504a20d000000000000000000000000000000000000000000000000000000008152336004820152fd5b63ffffffff90929192168060005260656020526040600020926001600160a01b0384541615615bb9571580615ba7575b615b765750565b602490604051907f9150f8c80000000000000000000000000000000000000000000000000000000082526004820152fd5b5060ff600184015460c01c1615615b6f565b602482604051907f6b9c1a9d0000000000000000000000000000000000000000000000000000000082526004820152fd5b63ffffffff1680600052606460205260406000206001600160a01b0381541615615c51576003015460501c60ff1615615c205750565b602490604051907fb0fdd2020000000000000000000000000000000000000000000000000000000082526004820152fd5b602482604051907fb842f5a70000000000000000000000000000000000000000000000000000000082526004820152fd5b6001600160a01b039182169116818110613bed570390565b6001600160a01b039182809216918291169204821181151516615cbb570290565b615cc361304e565b0290565b63ffffffff166000526064602052615d65611132615d546001600160a01b039361ffff600460e08760016040600020015416604051928380927f3850c7bd0000000000000000000000000000000000000000000000000000000082525afa908115615dcc575b600091615da8575b50828781168289161115615d9857615d4c91615c82565b965b16615c9a565b6001600160a01b0361271091160490565b911611615d6e57565b60046040517f07a1db07000000000000000000000000000000000000000000000000000000008152fd5b90615da291615c82565b96615d4e565b615dc0915060e03d811161493657614924818361081c565b50505050505038615d35565b615dd461377f565b615d2d565b615de1613eeb565b9063ffffffff91828216600052606d60205260406000209280845416911614600014615e2d5750600101547bffffffffffffffffffffffffffffffffffffffffffffffffffffffff1690565b61145991506143ed565b615e3f613eeb565b9063ffffffff808216600052606d60205280604060002054931690831614600014615e6b575060201c90565b6114599150613c4e9061400c565b805160051b810160209081018183015b818110615e965750505090565b80515481528201615e89565b9091615ebb92811015615ebf575b60051b81019061394f565b9091565b615ec7612db0565b615eb0565b908092918237016000815290565b60208183031261000e5780519067ffffffffffffffff821161000e570181601f8201121561000e578051615f0d81614c35565b92615f1b604051948561081c565b8184526020828401011161000e576114599160208085019101610aa856fea2646970667358221220fab82ba3138bee6136a01bfe21ef7126674facf7eb334d4ee383eaa2301b15e664736f6c634300080e0033",
  "libraries": {
    "Account": "0x61Fea7b93D977D31EF80747666F18864824E6da8"
  },
  "devdoc": {
    "errors": {
      "AccessDenied(address)": [
        {
          "params": {
            "senderAddress": "address of msg sender"
          }
        }
      ],
      "CollateralDoesNotExist(uint32)": [
        {
          "params": {
            "collateralId": "address of token"
          }
        }
      ],
      "CollateralNotAllowedForUse(uint32)": [
        {
          "params": {
            "collateralId": "address of token"
          }
        }
      ],
      "IncorrectCollateralAddress(address,address)": [
        {
          "params": {
            "correctAddress": "correct address of collateral token",
            "incorrectAddress": "incorrect address of collateral token"
          }
        }
      ],
      "InvalidCollateralAddress(address)": [
        {
          "params": {
            "invalidAddress": "invalid address of collateral token"
          }
        }
      ],
      "InvalidMulticallOperationType(uint8)": [
        {
          "params": {
            "multicallOperationType": "is the value that is out of bounds"
          }
        }
      ],
      "LowNotionalValue(uint256)": [
        {
          "params": {
            "notionalValue": "notional value of txn"
          }
        }
      ],
      "PoolDoesNotExist(uint32)": [
        {
          "params": {
            "poolId": "unitialized truncated address supplied"
          }
        }
      ],
      "PoolNotAllowedForTrade(uint32)": [
        {
          "params": {
            "poolId": "address of token"
          }
        }
      ]
    },
    "kind": "dev",
    "methods": {
      "createAccount()": {
        "returns": {
          "newAccountId": "- serial number of the new account created"
        }
      },
      "createAccountAndAddMargin(uint32,uint256)": {
        "params": {
          "amount": "amount of token to deposit",
          "collateralId": "truncated address of collateral token to deposit"
        },
        "returns": {
          "newAccountId": "- serial number of the new account created"
        }
      },
      "extsload(bytes32)": {
        "params": {
          "slot": "to read from."
        },
        "returns": {
          "val": "stored at the slot."
        }
      },
      "extsload(bytes32[])": {
        "params": {
          "slots": "to read from."
        },
        "returns": {
          "_0": "values stored at the slots."
        }
      },
      "getAccountMarketValueAndRequiredMargin(uint256,bool)": {
        "details": "This method can be used to check if an account is under water or not.     If accountMarketValue < requiredMargin then liquidation can take place.",
        "params": {
          "accountId": "the account id",
          "isInitialMargin": "true is initial margin, false is maintainance margin"
        },
        "returns": {
          "marketValue": "the market value of the account, due to collateral and positions",
          "requiredMargin": "margin needed due to positions"
        }
      },
      "getAccountNetProfit(uint256)": {
        "params": {
          "accountId": "the account id"
        },
        "returns": {
          "accountNetProfit": "the net profit of the account"
        }
      },
      "getAccountNetTokenPosition(uint256,uint32)": {
        "params": {
          "accountId": "the account id",
          "poolId": "the id of the pool (vETH, ... etc)"
        },
        "returns": {
          "netPosition": "the net position of the account"
        }
      },
      "getRealTwapPriceX128(uint32)": {
        "params": {
          "poolId": "the id of the pool"
        },
        "returns": {
          "realPriceX128": "the real price of the pool"
        }
      },
      "getVirtualTwapPriceX128(uint32)": {
        "params": {
          "poolId": "the id of the pool"
        },
        "returns": {
          "virtualPriceX128": "the virtual price of the pool"
        }
      },
      "initiateGovernanceTransfer(address)": {
        "params": {
          "newGovernancePending": "the new governance address"
        }
      },
      "initiateTeamMultisigTransfer(address)": {
        "params": {
          "newTeamMultisigPending": "the new team multisig address"
        }
      },
      "liquidateLiquidityPositions(uint256)": {
        "details": "removes all the active range positions and gives liquidator a percent of notional amount closed + fixedFee",
        "params": {
          "accountId": "account id"
        }
      },
      "liquidateTokenPosition(uint256,uint32)": {
        "details": "transfers the fraction of token position at a discount to current price to liquidators account and gives liquidator some fixedFee",
        "params": {
          "poolId": "truncated address of token to withdraw",
          "targetAccountId": "account id"
        },
        "returns": {
          "keeperFee": "- amount of fees transferred to keeper"
        }
      },
      "multicall(bytes[])": {
        "details": "The `msg.value` should not be trusted for any method callable from multicall.",
        "params": {
          "data": "The encoded function data for each of the calls to make to this contract"
        },
        "returns": {
          "results": "The results from each of the calls passed in via data"
        }
      },
      "paused()": {
        "details": "Returns true if the contract is paused, and false otherwise."
      },
      "removeLimitOrder(uint256,uint32,int24,int24)": {
        "details": "checks the position of current price relative to limit order and checks limitOrderType",
        "params": {
          "accountId": "account id",
          "poolId": "truncated address of token to withdraw",
          "tickLower": "liquidity change parameters",
          "tickUpper": "liquidity change parameters"
        }
      },
      "settleProfit(uint256)": {
        "params": {
          "accountId": "account id"
        }
      },
      "swapToken(uint256,uint32,(int256,uint160,bool,bool,bool))": {
        "params": {
          "accountId": "account id",
          "poolId": "truncated address of token to withdraw",
          "swapParams": "swap parameters"
        }
      },
      "updateMargin(uint256,uint32,int256)": {
        "params": {
          "accountId": "account id",
          "amount": "amount of token to deposit",
          "collateralId": "truncated address of token to deposit"
        }
      },
      "updatePoolSettings(uint32,(uint16,uint16,uint16,uint32,bool,bool,address))": {
        "params": {
          "newSettings": "updated rage trade pool settings",
          "poolId": "rage trade pool id"
        }
      },
      "updateProfit(uint256,int256)": {
        "params": {
          "accountId": "account id",
          "amount": "amount of token to withdraw"
        }
      },
      "updateRangeOrder(uint256,uint32,(int24,int24,int128,uint160,uint16,bool,uint8,bool))": {
        "params": {
          "accountId": "account id",
          "liquidityChangeParams": "liquidity change parameters",
          "poolId": "truncated address of token to withdraw"
        }
      },
      "withdrawProtocolFee(uint256)": {
        "params": {
          "numberOfPoolsToUpdateInThisTx": "number of pools to collect fees from"
        }
      }
    },
    "version": 1
  },
  "userdoc": {
    "errors": {
      "AccessDenied(address)": [
        {
          "notice": "error to denote invalid account access"
        }
      ],
      "CannotPauseIfUnpauseInProgress()": [
        {
          "notice": "error to denote unpause is in progress, hence cannot pause"
        }
      ],
      "CannotUnpauseIfPauseInProgress()": [
        {
          "notice": "error to denote pause is in progress, hence cannot unpause"
        }
      ],
      "CollateralDoesNotExist(uint32)": [
        {
          "notice": "error to denote usage of uninitialized token"
        }
      ],
      "CollateralNotAllowedForUse(uint32)": [
        {
          "notice": "error to denote usage of unsupported collateral token"
        }
      ],
      "IncorrectCollateralAddress(address,address)": [
        {
          "notice": "error to denote incorrect address is supplied while updating collateral settings"
        }
      ],
      "InvalidCollateralAddress(address)": [
        {
          "notice": "error to denote invalid address supplied as a collateral token"
        }
      ],
      "InvalidMulticallOperationType(uint8)": [
        {
          "notice": "this is errored when the enum (uint8) value is out of bounds"
        }
      ],
      "InvalidSetting(uint256)": [
        {
          "notice": "error to denote an invalid setting for parameters"
        }
      ],
      "InvalidTokenLiquidationParameters()": [
        {
          "notice": "error to denote invalid token liquidation (fraction to liquidate> 1)"
        }
      ],
      "KeeperFeeNotPositive(int256)": [
        {
          "notice": "error to denote that keeper fee is negative or zero"
        }
      ],
      "LowNotionalValue(uint256)": [
        {
          "notice": "error to denote low notional value of txn"
        }
      ],
      "NotRageTradeFactory()": [
        {
          "notice": "error to denote that caller is not ragetrade factory"
        }
      ],
      "PoolDoesNotExist(uint32)": [
        {
          "notice": "error to denote usage of uninitialized pool"
        }
      ],
      "PoolNotAllowedForTrade(uint32)": [
        {
          "notice": "error to denote usage of unsupported pool"
        }
      ],
      "SlippageBeyondTolerance()": [
        {
          "notice": "error to denote slippage of txn beyond set threshold"
        }
      ],
      "ZeroAmount()": [
        {
          "notice": "error to denote that zero amount is passed and it's prohibited"
        }
      ]
    },
    "events": {
      "AccountCreated(address,uint256)": {
        "notice": "denotes new account creation"
      },
      "CollateralSettingsUpdated(address,(address,uint32,bool))": {
        "notice": "new collateral supported as margin"
      },
      "PoolSettingsUpdated(uint32,(uint16,uint16,uint16,uint32,bool,bool,address))": {
        "notice": "maintainance margin ratio of a pool changed"
      },
      "ProtocolSettingsUpdated((uint16,uint16,uint16,uint16,uint16,uint16,uint64,uint64),uint256,uint256,uint256)": {
        "notice": "protocol settings changed"
      }
    },
    "kind": "user",
    "methods": {
      "acceptGovernanceTransfer()": {
        "notice": "Completes governance transfer, on being called by _governancePending."
      },
      "acceptTeamMultisigTransfer()": {
        "notice": "Completes teamMultisig transfer, on being called by _teamMultisigPending."
      },
      "createAccount()": {
        "notice": "creates a new account and adds it to the accounts map"
      },
      "createAccountAndAddMargin(uint32,uint256)": {
        "notice": "creates a new account and deposits 'amount' of token associated with 'poolId'"
      },
      "extsload(bytes32)": {
        "notice": "Returns a value from the storage."
      },
      "extsload(bytes32[])": {
        "notice": "Returns multiple values from storage."
      },
      "getAccountMarketValueAndRequiredMargin(uint256,bool)": {
        "notice": "Gets the market value and required margin of an account"
      },
      "getAccountNetProfit(uint256)": {
        "notice": "Gets the net profit of an account"
      },
      "getAccountNetTokenPosition(uint256,uint32)": {
        "notice": "Gets the net position of an account"
      },
      "getRealTwapPriceX128(uint32)": {
        "notice": "Gets the real twap price from the respective oracle of the given poolId"
      },
      "getVirtualTwapPriceX128(uint32)": {
        "notice": "Gets the virtual twap price from the respective oracle of the given poolId"
      },
      "governance()": {
        "notice": "Returns the address of the current governance."
      },
      "governancePending()": {
        "notice": "Returns the address of the current governance."
      },
      "initialize(address,address,address,address,address,address,address)": {
        "notice": "SYSTEM FUNCTIONS"
      },
      "initiateGovernanceTransfer(address)": {
        "notice": "Initiates governance transfer to a new account (`newGovernancePending`)."
      },
      "initiateTeamMultisigTransfer(address)": {
        "notice": "Initiates teamMultisig transfer to a new account (`newTeamMultisigPending`)."
      },
      "liquidateLiquidityPositions(uint256)": {
        "notice": "keeper call for liquidation of range position"
      },
      "liquidateTokenPosition(uint256,uint32)": {
        "notice": "keeper call for liquidation of token position"
      },
      "multicall(bytes[])": {
        "notice": "Call multiple functions in the current contract and return the data from all of them if they all succeed"
      },
      "multicallWithSingleMarginCheck(uint256,(uint8,bytes)[])": {
        "notice": "MULTICALL"
      },
      "removeLimitOrder(uint256,uint32,int24,int24)": {
        "notice": "keeper call to remove a limit order"
      },
      "settleProfit(uint256)": {
        "notice": "settles the profit/loss made with the settlement token collateral deposits"
      },
      "swapToken(uint256,uint32,(int256,uint160,bool,bool,bool))": {
        "notice": "swaps token associated with 'poolId' by 'amount' (Long if amount>0 else Short)"
      },
      "teamMultisig()": {
        "notice": "Returns the address of the current team multisig.transferTeamMultisig"
      },
      "teamMultisigPending()": {
        "notice": "Returns the address of the current team multisig.transferTeamMultisig"
      },
      "updateCollateralSettings(address,(address,uint32,bool))": {
        "notice": "ADMIN FUNCTIONS"
      },
      "updateMargin(uint256,uint32,int256)": {
        "notice": "deposits 'amount' of token associated with 'poolId'"
      },
      "updatePoolSettings(uint32,(uint16,uint16,uint16,uint32,bool,bool,address))": {
        "notice": "updates the rage trade pool settings"
      },
      "updateProfit(uint256,int256)": {
        "notice": "withdraws 'amount' of settlement token from the profit made"
      },
      "updateRangeOrder(uint256,uint32,(int24,int24,int128,uint160,uint16,bool,uint8,bool))": {
        "notice": "updates range order of token associated with 'poolId' by 'liquidityDelta' (Adds if amount>0 else Removes)also can be used to update limitOrderType"
      },
      "withdrawProtocolFee(uint256)": {
        "notice": "withdraws protocol fees collected in the supplied wrappers to team multisig"
      }
    },
    "version": 1
  },
  "storageLayout": {
    "storage": [
      {
        "astId": 26758,
        "contract": "contracts/protocol/clearinghouse/ClearingHouse.sol:ClearingHouse",
        "label": "_emptySlots1",
        "offset": 0,
        "slot": "0",
        "type": "t_array(t_uint256)100_storage"
      },
      {
        "astId": 26761,
        "contract": "contracts/protocol/clearinghouse/ClearingHouse.sol:ClearingHouse",
        "label": "protocol",
        "offset": 0,
        "slot": "100",
        "type": "t_struct(Info)17645_storage"
      },
      {
        "astId": 26763,
        "contract": "contracts/protocol/clearinghouse/ClearingHouse.sol:ClearingHouse",
        "label": "numAccounts",
        "offset": 0,
        "slot": "210",
        "type": "t_uint256"
      },
      {
        "astId": 26768,
        "contract": "contracts/protocol/clearinghouse/ClearingHouse.sol:ClearingHouse",
        "label": "accounts",
        "offset": 0,
        "slot": "211",
        "type": "t_mapping(t_uint256,t_struct(Info)13042_storage)"
      },
      {
        "astId": 26770,
        "contract": "contracts/protocol/clearinghouse/ClearingHouse.sol:ClearingHouse",
        "label": "rageTradeFactoryAddress",
        "offset": 0,
        "slot": "212",
        "type": "t_address"
      },
      {
        "astId": 26773,
        "contract": "contracts/protocol/clearinghouse/ClearingHouse.sol:ClearingHouse",
        "label": "insuranceFund",
        "offset": 0,
        "slot": "213",
        "type": "t_contract(IInsuranceFund)11389"
      },
      {
        "astId": 26776,
        "contract": "contracts/protocol/clearinghouse/ClearingHouse.sol:ClearingHouse",
        "label": "pauseLoop",
        "offset": 0,
        "slot": "214",
        "type": "t_struct(Info)14472_storage"
      },
      {
        "astId": 26779,
        "contract": "contracts/protocol/clearinghouse/ClearingHouse.sol:ClearingHouse",
        "label": "unpauseLoop",
        "offset": 0,
        "slot": "215",
        "type": "t_struct(Info)14472_storage"
      },
      {
        "astId": 26782,
        "contract": "contracts/protocol/clearinghouse/ClearingHouse.sol:ClearingHouse",
        "label": "withdrawProtocolFeeLoop",
        "offset": 0,
        "slot": "216",
        "type": "t_struct(Info)14472_storage"
      },
      {
        "astId": 26786,
        "contract": "contracts/protocol/clearinghouse/ClearingHouse.sol:ClearingHouse",
        "label": "_emptySlots2",
        "offset": 0,
        "slot": "217",
        "type": "t_array(t_uint256)100_storage"
      },
      {
        "astId": 93,
        "contract": "contracts/protocol/clearinghouse/ClearingHouse.sol:ClearingHouse",
        "label": "_initialized",
        "offset": 0,
        "slot": "317",
        "type": "t_bool"
      },
      {
        "astId": 96,
        "contract": "contracts/protocol/clearinghouse/ClearingHouse.sol:ClearingHouse",
        "label": "_initializing",
        "offset": 1,
        "slot": "317",
        "type": "t_bool"
      },
      {
        "astId": 1271,
        "contract": "contracts/protocol/clearinghouse/ClearingHouse.sol:ClearingHouse",
        "label": "__gap",
        "offset": 0,
        "slot": "318",
        "type": "t_array(t_uint256)50_storage"
      },
      {
        "astId": 181,
        "contract": "contracts/protocol/clearinghouse/ClearingHouse.sol:ClearingHouse",
        "label": "_paused",
        "offset": 0,
        "slot": "368",
        "type": "t_bool"
      },
      {
        "astId": 270,
        "contract": "contracts/protocol/clearinghouse/ClearingHouse.sol:ClearingHouse",
        "label": "__gap",
        "offset": 0,
        "slot": "369",
        "type": "t_array(t_uint256)49_storage"
      },
      {
        "astId": 35272,
        "contract": "contracts/protocol/clearinghouse/ClearingHouse.sol:ClearingHouse",
        "label": "_governance",
        "offset": 0,
        "slot": "418",
        "type": "t_address"
      },
      {
        "astId": 35274,
        "contract": "contracts/protocol/clearinghouse/ClearingHouse.sol:ClearingHouse",
        "label": "_teamMultisig",
        "offset": 0,
        "slot": "419",
        "type": "t_address"
      },
      {
        "astId": 35276,
        "contract": "contracts/protocol/clearinghouse/ClearingHouse.sol:ClearingHouse",
        "label": "_governancePending",
        "offset": 0,
        "slot": "420",
        "type": "t_address"
      },
      {
        "astId": 35278,
        "contract": "contracts/protocol/clearinghouse/ClearingHouse.sol:ClearingHouse",
        "label": "_teamMultisigPending",
        "offset": 0,
        "slot": "421",
        "type": "t_address"
      }
    ],
    "types": {
      "t_address": {
        "encoding": "inplace",
        "label": "address",
        "numberOfBytes": "20"
      },
      "t_array(t_uint256)100_storage": {
        "base": "t_uint256",
        "encoding": "inplace",
        "label": "uint256[100]",
        "numberOfBytes": "3200"
      },
      "t_array(t_uint256)49_storage": {
        "base": "t_uint256",
        "encoding": "inplace",
        "label": "uint256[49]",
        "numberOfBytes": "1568"
      },
      "t_array(t_uint256)50_storage": {
        "base": "t_uint256",
        "encoding": "inplace",
        "label": "uint256[50]",
        "numberOfBytes": "1600"
      },
      "t_array(t_uint32)8_storage": {
        "base": "t_uint32",
        "encoding": "inplace",
        "label": "uint32[8]",
        "numberOfBytes": "32"
      },
      "t_array(t_uint32)dyn_storage": {
        "base": "t_uint32",
        "encoding": "dynamic_array",
        "label": "uint32[]",
        "numberOfBytes": "32"
      },
      "t_array(t_uint48)5_storage": {
        "base": "t_uint48",
        "encoding": "inplace",
        "label": "uint48[5]",
        "numberOfBytes": "32"
      },
      "t_bool": {
        "encoding": "inplace",
        "label": "bool",
        "numberOfBytes": "1"
      },
      "t_contract(IERC20)4189": {
        "encoding": "inplace",
        "label": "contract IERC20",
        "numberOfBytes": "20"
      },
      "t_contract(IInsuranceFund)11389": {
        "encoding": "inplace",
        "label": "contract IInsuranceFund",
        "numberOfBytes": "20"
      },
      "t_contract(IOracle)11399": {
        "encoding": "inplace",
        "label": "contract IOracle",
        "numberOfBytes": "20"
      },
      "t_contract(IUniswapV3Pool)6184": {
        "encoding": "inplace",
        "label": "contract IUniswapV3Pool",
        "numberOfBytes": "20"
      },
      "t_contract(IVPoolWrapper)11608": {
        "encoding": "inplace",
        "label": "contract IVPoolWrapper",
        "numberOfBytes": "20"
      },
      "t_contract(IVQuote)11632": {
        "encoding": "inplace",
        "label": "contract IVQuote",
        "numberOfBytes": "20"
      },
      "t_contract(IVToken)11656": {
        "encoding": "inplace",
        "label": "contract IVToken",
        "numberOfBytes": "20"
      },
      "t_enum(LimitOrderType)11856": {
        "encoding": "inplace",
        "label": "enum IClearingHouseEnums.LimitOrderType",
        "numberOfBytes": "1"
      },
      "t_int24": {
        "encoding": "inplace",
        "label": "int24",
        "numberOfBytes": "3"
      },
      "t_int256": {
        "encoding": "inplace",
        "label": "int256",
        "numberOfBytes": "32"
      },
      "t_mapping(t_uint256,t_struct(Info)13042_storage)": {
        "encoding": "mapping",
        "key": "t_uint256",
        "label": "mapping(uint256 => struct Account.Info)",
        "numberOfBytes": "32",
        "value": "t_struct(Info)13042_storage"
      },
      "t_mapping(t_uint32,t_struct(Collateral)11995_storage)": {
        "encoding": "mapping",
        "key": "t_uint32",
        "label": "mapping(uint32 => struct IClearingHouseStructures.Collateral)",
        "numberOfBytes": "32",
        "value": "t_struct(Collateral)11995_storage"
      },
      "t_mapping(t_uint32,t_struct(Info)21337_storage)": {
        "encoding": "mapping",
        "key": "t_uint32",
        "label": "mapping(uint32 => struct VTokenPosition.Info)",
        "numberOfBytes": "32",
        "value": "t_struct(Info)21337_storage"
      },
      "t_mapping(t_uint32,t_struct(Pool)12083_storage)": {
        "encoding": "mapping",
        "key": "t_uint32",
        "label": "mapping(uint32 => struct IClearingHouseStructures.Pool)",
        "numberOfBytes": "32",
        "value": "t_struct(Pool)12083_storage"
      },
      "t_mapping(t_uint32,t_struct(PriceCache)17607_storage)": {
        "encoding": "mapping",
        "key": "t_uint32",
        "label": "mapping(uint32 => struct Protocol.PriceCache)",
        "numberOfBytes": "32",
        "value": "t_struct(PriceCache)17607_storage"
      },
      "t_mapping(t_uint32,t_uint256)": {
        "encoding": "mapping",
        "key": "t_uint32",
        "label": "mapping(uint32 => uint256)",
        "numberOfBytes": "32",
        "value": "t_uint256"
      },
      "t_mapping(t_uint48,t_struct(Info)15527_storage)": {
        "encoding": "mapping",
        "key": "t_uint48",
        "label": "mapping(uint48 => struct LiquidityPosition.Info)",
        "numberOfBytes": "32",
        "value": "t_struct(Info)15527_storage"
      },
      "t_struct(Collateral)11995_storage": {
        "encoding": "inplace",
        "label": "struct IClearingHouseStructures.Collateral",
        "members": [
          {
            "astId": 11991,
            "contract": "contracts/protocol/clearinghouse/ClearingHouse.sol:ClearingHouse",
            "label": "token",
            "offset": 0,
            "slot": "0",
            "type": "t_contract(IERC20)4189"
          },
          {
            "astId": 11994,
            "contract": "contracts/protocol/clearinghouse/ClearingHouse.sol:ClearingHouse",
            "label": "settings",
            "offset": 0,
            "slot": "1",
            "type": "t_struct(CollateralSettings)12003_storage"
          }
        ],
        "numberOfBytes": "64"
      },
      "t_struct(CollateralSettings)12003_storage": {
        "encoding": "inplace",
        "label": "struct IClearingHouseStructures.CollateralSettings",
        "members": [
          {
            "astId": 11998,
            "contract": "contracts/protocol/clearinghouse/ClearingHouse.sol:ClearingHouse",
            "label": "oracle",
            "offset": 0,
            "slot": "0",
            "type": "t_contract(IOracle)11399"
          },
          {
            "astId": 12000,
            "contract": "contracts/protocol/clearinghouse/ClearingHouse.sol:ClearingHouse",
            "label": "twapDuration",
            "offset": 20,
            "slot": "0",
            "type": "t_uint32"
          },
          {
            "astId": 12002,
            "contract": "contracts/protocol/clearinghouse/ClearingHouse.sol:ClearingHouse",
            "label": "isAllowedForDeposit",
            "offset": 24,
            "slot": "0",
            "type": "t_bool"
          }
        ],
        "numberOfBytes": "32"
      },
      "t_struct(Info)13042_storage": {
        "encoding": "inplace",
        "label": "struct Account.Info",
        "members": [
          {
            "astId": 13029,
            "contract": "contracts/protocol/clearinghouse/ClearingHouse.sol:ClearingHouse",
            "label": "id",
            "offset": 0,
            "slot": "0",
            "type": "t_uint96"
          },
          {
            "astId": 13031,
            "contract": "contracts/protocol/clearinghouse/ClearingHouse.sol:ClearingHouse",
            "label": "owner",
            "offset": 12,
            "slot": "0",
            "type": "t_address"
          },
          {
            "astId": 13034,
            "contract": "contracts/protocol/clearinghouse/ClearingHouse.sol:ClearingHouse",
            "label": "tokenPositions",
            "offset": 0,
            "slot": "1",
            "type": "t_struct(Set)21323_storage"
          },
          {
            "astId": 13037,
            "contract": "contracts/protocol/clearinghouse/ClearingHouse.sol:ClearingHouse",
            "label": "collateralDeposits",
            "offset": 0,
            "slot": "104",
            "type": "t_struct(Set)14796_storage"
          },
          {
            "astId": 13041,
            "contract": "contracts/protocol/clearinghouse/ClearingHouse.sol:ClearingHouse",
            "label": "_emptySlots",
            "offset": 0,
            "slot": "206",
            "type": "t_array(t_uint256)100_storage"
          }
        ],
        "numberOfBytes": "9792"
      },
      "t_struct(Info)14472_storage": {
        "encoding": "inplace",
        "label": "struct BatchedLoop.Info",
        "members": [
          {
            "astId": 14471,
            "contract": "contracts/protocol/clearinghouse/ClearingHouse.sol:ClearingHouse",
            "label": "progress",
            "offset": 0,
            "slot": "0",
            "type": "t_uint256"
          }
        ],
        "numberOfBytes": "32"
      },
      "t_struct(Info)15527_storage": {
        "encoding": "inplace",
        "label": "struct LiquidityPosition.Info",
        "members": [
          {
            "astId": 15506,
            "contract": "contracts/protocol/clearinghouse/ClearingHouse.sol:ClearingHouse",
            "label": "limitOrderType",
            "offset": 0,
            "slot": "0",
            "type": "t_enum(LimitOrderType)11856"
          },
          {
            "astId": 15508,
            "contract": "contracts/protocol/clearinghouse/ClearingHouse.sol:ClearingHouse",
            "label": "tickLower",
            "offset": 1,
            "slot": "0",
            "type": "t_int24"
          },
          {
            "astId": 15510,
            "contract": "contracts/protocol/clearinghouse/ClearingHouse.sol:ClearingHouse",
            "label": "tickUpper",
            "offset": 4,
            "slot": "0",
            "type": "t_int24"
          },
          {
            "astId": 15512,
            "contract": "contracts/protocol/clearinghouse/ClearingHouse.sol:ClearingHouse",
            "label": "liquidity",
            "offset": 7,
            "slot": "0",
            "type": "t_uint128"
          },
          {
            "astId": 15514,
            "contract": "contracts/protocol/clearinghouse/ClearingHouse.sol:ClearingHouse",
            "label": "vTokenAmountIn",
            "offset": 0,
            "slot": "1",
            "type": "t_int256"
          },
          {
            "astId": 15516,
            "contract": "contracts/protocol/clearinghouse/ClearingHouse.sol:ClearingHouse",
            "label": "sumALastX128",
            "offset": 0,
            "slot": "2",
            "type": "t_int256"
          },
          {
            "astId": 15518,
            "contract": "contracts/protocol/clearinghouse/ClearingHouse.sol:ClearingHouse",
            "label": "sumBInsideLastX128",
            "offset": 0,
            "slot": "3",
            "type": "t_int256"
          },
          {
            "astId": 15520,
            "contract": "contracts/protocol/clearinghouse/ClearingHouse.sol:ClearingHouse",
            "label": "sumFpInsideLastX128",
            "offset": 0,
            "slot": "4",
            "type": "t_int256"
          },
          {
            "astId": 15522,
            "contract": "contracts/protocol/clearinghouse/ClearingHouse.sol:ClearingHouse",
            "label": "sumFeeInsideLastX128",
            "offset": 0,
            "slot": "5",
            "type": "t_uint256"
          },
          {
            "astId": 15526,
            "contract": "contracts/protocol/clearinghouse/ClearingHouse.sol:ClearingHouse",
            "label": "_emptySlots",
            "offset": 0,
            "slot": "6",
            "type": "t_array(t_uint256)100_storage"
          }
        ],
        "numberOfBytes": "3392"
      },
      "t_struct(Info)17645_storage": {
        "encoding": "inplace",
        "label": "struct Protocol.Info",
        "members": [
          {
            "astId": 17612,
            "contract": "contracts/protocol/clearinghouse/ClearingHouse.sol:ClearingHouse",
            "label": "pools",
            "offset": 0,
            "slot": "0",
            "type": "t_mapping(t_uint32,t_struct(Pool)12083_storage)"
          },
          {
            "astId": 17617,
            "contract": "contracts/protocol/clearinghouse/ClearingHouse.sol:ClearingHouse",
            "label": "collaterals",
            "offset": 0,
            "slot": "1",
            "type": "t_mapping(t_uint32,t_struct(Collateral)11995_storage)"
          },
          {
            "astId": 17620,
            "contract": "contracts/protocol/clearinghouse/ClearingHouse.sol:ClearingHouse",
            "label": "poolIds",
            "offset": 0,
            "slot": "2",
            "type": "t_array(t_uint32)dyn_storage"
          },
          {
            "astId": 17623,
            "contract": "contracts/protocol/clearinghouse/ClearingHouse.sol:ClearingHouse",
            "label": "settlementToken",
            "offset": 0,
            "slot": "3",
            "type": "t_contract(IERC20)4189"
          },
          {
            "astId": 17626,
            "contract": "contracts/protocol/clearinghouse/ClearingHouse.sol:ClearingHouse",
            "label": "vQuote",
            "offset": 0,
            "slot": "4",
            "type": "t_contract(IVQuote)11632"
          },
          {
            "astId": 17629,
            "contract": "contracts/protocol/clearinghouse/ClearingHouse.sol:ClearingHouse",
            "label": "liquidationParams",
            "offset": 0,
            "slot": "5",
            "type": "t_struct(LiquidationParams)12064_storage"
          },
          {
            "astId": 17631,
            "contract": "contracts/protocol/clearinghouse/ClearingHouse.sol:ClearingHouse",
            "label": "minRequiredMargin",
            "offset": 0,
            "slot": "6",
            "type": "t_uint256"
          },
          {
            "astId": 17633,
            "contract": "contracts/protocol/clearinghouse/ClearingHouse.sol:ClearingHouse",
            "label": "removeLimitOrderFee",
            "offset": 0,
            "slot": "7",
            "type": "t_uint256"
          },
          {
            "astId": 17635,
            "contract": "contracts/protocol/clearinghouse/ClearingHouse.sol:ClearingHouse",
            "label": "minimumOrderNotional",
            "offset": 0,
            "slot": "8",
            "type": "t_uint256"
          },
          {
            "astId": 17640,
            "contract": "contracts/protocol/clearinghouse/ClearingHouse.sol:ClearingHouse",
            "label": "priceCache",
            "offset": 0,
            "slot": "9",
            "type": "t_mapping(t_uint32,t_struct(PriceCache)17607_storage)"
          },
          {
            "astId": 17644,
            "contract": "contracts/protocol/clearinghouse/ClearingHouse.sol:ClearingHouse",
            "label": "_emptySlots",
            "offset": 0,
            "slot": "10",
            "type": "t_array(t_uint256)100_storage"
          }
        ],
        "numberOfBytes": "3520"
      },
      "t_struct(Info)21337_storage": {
        "encoding": "inplace",
        "label": "struct VTokenPosition.Info",
        "members": [
          {
            "astId": 21325,
            "contract": "contracts/protocol/clearinghouse/ClearingHouse.sol:ClearingHouse",
            "label": "balance",
            "offset": 0,
            "slot": "0",
            "type": "t_int256"
          },
          {
            "astId": 21327,
            "contract": "contracts/protocol/clearinghouse/ClearingHouse.sol:ClearingHouse",
            "label": "netTraderPosition",
            "offset": 0,
            "slot": "1",
            "type": "t_int256"
          },
          {
            "astId": 21329,
            "contract": "contracts/protocol/clearinghouse/ClearingHouse.sol:ClearingHouse",
            "label": "sumALastX128",
            "offset": 0,
            "slot": "2",
            "type": "t_int256"
          },
          {
            "astId": 21332,
            "contract": "contracts/protocol/clearinghouse/ClearingHouse.sol:ClearingHouse",
            "label": "liquidityPositions",
            "offset": 0,
            "slot": "3",
            "type": "t_struct(Set)15503_storage"
          },
          {
            "astId": 21336,
            "contract": "contracts/protocol/clearinghouse/ClearingHouse.sol:ClearingHouse",
            "label": "_emptySlots",
            "offset": 0,
            "slot": "105",
            "type": "t_array(t_uint256)100_storage"
          }
        ],
        "numberOfBytes": "6560"
      },
      "t_struct(LiquidationParams)12064_storage": {
        "encoding": "inplace",
        "label": "struct IClearingHouseStructures.LiquidationParams",
        "members": [
          {
            "astId": 12049,
            "contract": "contracts/protocol/clearinghouse/ClearingHouse.sol:ClearingHouse",
            "label": "rangeLiquidationFeeFraction",
            "offset": 0,
            "slot": "0",
            "type": "t_uint16"
          },
          {
            "astId": 12051,
            "contract": "contracts/protocol/clearinghouse/ClearingHouse.sol:ClearingHouse",
            "label": "tokenLiquidationFeeFraction",
            "offset": 2,
            "slot": "0",
            "type": "t_uint16"
          },
          {
            "astId": 12053,
            "contract": "contracts/protocol/clearinghouse/ClearingHouse.sol:ClearingHouse",
            "label": "closeFactorMMThresholdBps",
            "offset": 4,
            "slot": "0",
            "type": "t_uint16"
          },
          {
            "astId": 12055,
            "contract": "contracts/protocol/clearinghouse/ClearingHouse.sol:ClearingHouse",
            "label": "partialLiquidationCloseFactorBps",
            "offset": 6,
            "slot": "0",
            "type": "t_uint16"
          },
          {
            "astId": 12057,
            "contract": "contracts/protocol/clearinghouse/ClearingHouse.sol:ClearingHouse",
            "label": "insuranceFundFeeShareBps",
            "offset": 8,
            "slot": "0",
            "type": "t_uint16"
          },
          {
            "astId": 12059,
            "contract": "contracts/protocol/clearinghouse/ClearingHouse.sol:ClearingHouse",
            "label": "liquidationSlippageSqrtToleranceBps",
            "offset": 10,
            "slot": "0",
            "type": "t_uint16"
          },
          {
            "astId": 12061,
            "contract": "contracts/protocol/clearinghouse/ClearingHouse.sol:ClearingHouse",
            "label": "maxRangeLiquidationFees",
            "offset": 12,
            "slot": "0",
            "type": "t_uint64"
          },
          {
            "astId": 12063,
            "contract": "contracts/protocol/clearinghouse/ClearingHouse.sol:ClearingHouse",
            "label": "minNotionalLiquidatable",
            "offset": 20,
            "slot": "0",
            "type": "t_uint64"
          }
        ],
        "numberOfBytes": "32"
      },
      "t_struct(Pool)12083_storage": {
        "encoding": "inplace",
        "label": "struct IClearingHouseStructures.Pool",
        "members": [
          {
            "astId": 12073,
            "contract": "contracts/protocol/clearinghouse/ClearingHouse.sol:ClearingHouse",
            "label": "vToken",
            "offset": 0,
            "slot": "0",
            "type": "t_contract(IVToken)11656"
          },
          {
            "astId": 12076,
            "contract": "contracts/protocol/clearinghouse/ClearingHouse.sol:ClearingHouse",
            "label": "vPool",
            "offset": 0,
            "slot": "1",
            "type": "t_contract(IUniswapV3Pool)6184"
          },
          {
            "astId": 12079,
            "contract": "contracts/protocol/clearinghouse/ClearingHouse.sol:ClearingHouse",
            "label": "vPoolWrapper",
            "offset": 0,
            "slot": "2",
            "type": "t_contract(IVPoolWrapper)11608"
          },
          {
            "astId": 12082,
            "contract": "contracts/protocol/clearinghouse/ClearingHouse.sol:ClearingHouse",
            "label": "settings",
            "offset": 0,
            "slot": "3",
            "type": "t_struct(PoolSettings)12099_storage"
          }
        ],
        "numberOfBytes": "128"
      },
      "t_struct(PoolSettings)12099_storage": {
        "encoding": "inplace",
        "label": "struct IClearingHouseStructures.PoolSettings",
        "members": [
          {
            "astId": 12085,
            "contract": "contracts/protocol/clearinghouse/ClearingHouse.sol:ClearingHouse",
            "label": "initialMarginRatioBps",
            "offset": 0,
            "slot": "0",
            "type": "t_uint16"
          },
          {
            "astId": 12087,
            "contract": "contracts/protocol/clearinghouse/ClearingHouse.sol:ClearingHouse",
            "label": "maintainanceMarginRatioBps",
            "offset": 2,
            "slot": "0",
            "type": "t_uint16"
          },
          {
            "astId": 12089,
            "contract": "contracts/protocol/clearinghouse/ClearingHouse.sol:ClearingHouse",
            "label": "maxVirtualPriceDeviationRatioBps",
            "offset": 4,
            "slot": "0",
            "type": "t_uint16"
          },
          {
            "astId": 12091,
            "contract": "contracts/protocol/clearinghouse/ClearingHouse.sol:ClearingHouse",
            "label": "twapDuration",
            "offset": 6,
            "slot": "0",
            "type": "t_uint32"
          },
          {
            "astId": 12093,
            "contract": "contracts/protocol/clearinghouse/ClearingHouse.sol:ClearingHouse",
            "label": "isAllowedForTrade",
            "offset": 10,
            "slot": "0",
            "type": "t_bool"
          },
          {
            "astId": 12095,
            "contract": "contracts/protocol/clearinghouse/ClearingHouse.sol:ClearingHouse",
            "label": "isCrossMargined",
            "offset": 11,
            "slot": "0",
            "type": "t_bool"
          },
          {
            "astId": 12098,
            "contract": "contracts/protocol/clearinghouse/ClearingHouse.sol:ClearingHouse",
            "label": "oracle",
            "offset": 12,
            "slot": "0",
            "type": "t_contract(IOracle)11399"
          }
        ],
        "numberOfBytes": "32"
      },
      "t_struct(PriceCache)17607_storage": {
        "encoding": "inplace",
        "label": "struct Protocol.PriceCache",
        "members": [
          {
            "astId": 17600,
            "contract": "contracts/protocol/clearinghouse/ClearingHouse.sol:ClearingHouse",
            "label": "updateBlockNumber",
            "offset": 0,
            "slot": "0",
            "type": "t_uint32"
          },
          {
            "astId": 17602,
            "contract": "contracts/protocol/clearinghouse/ClearingHouse.sol:ClearingHouse",
            "label": "virtualPriceX128",
            "offset": 4,
            "slot": "0",
            "type": "t_uint224"
          },
          {
            "astId": 17604,
            "contract": "contracts/protocol/clearinghouse/ClearingHouse.sol:ClearingHouse",
            "label": "realPriceX128",
            "offset": 0,
            "slot": "1",
            "type": "t_uint224"
          },
          {
            "astId": 17606,
            "contract": "contracts/protocol/clearinghouse/ClearingHouse.sol:ClearingHouse",
            "label": "isDeviationBreached",
            "offset": 28,
            "slot": "1",
            "type": "t_bool"
          }
        ],
        "numberOfBytes": "64"
      },
      "t_struct(Set)14796_storage": {
        "encoding": "inplace",
        "label": "struct CollateralDeposit.Set",
        "members": [
          {
            "astId": 14787,
            "contract": "contracts/protocol/clearinghouse/ClearingHouse.sol:ClearingHouse",
            "label": "active",
            "offset": 0,
            "slot": "0",
            "type": "t_array(t_uint32)8_storage"
          },
          {
            "astId": 14791,
            "contract": "contracts/protocol/clearinghouse/ClearingHouse.sol:ClearingHouse",
            "label": "deposits",
            "offset": 0,
            "slot": "1",
            "type": "t_mapping(t_uint32,t_uint256)"
          },
          {
            "astId": 14795,
            "contract": "contracts/protocol/clearinghouse/ClearingHouse.sol:ClearingHouse",
            "label": "_emptySlots",
            "offset": 0,
            "slot": "2",
            "type": "t_array(t_uint256)100_storage"
          }
        ],
        "numberOfBytes": "3264"
      },
      "t_struct(Set)15503_storage": {
        "encoding": "inplace",
        "label": "struct LiquidityPosition.Set",
        "members": [
          {
            "astId": 15493,
            "contract": "contracts/protocol/clearinghouse/ClearingHouse.sol:ClearingHouse",
            "label": "active",
            "offset": 0,
            "slot": "0",
            "type": "t_array(t_uint48)5_storage"
          },
          {
            "astId": 15498,
            "contract": "contracts/protocol/clearinghouse/ClearingHouse.sol:ClearingHouse",
            "label": "positions",
            "offset": 0,
            "slot": "1",
            "type": "t_mapping(t_uint48,t_struct(Info)15527_storage)"
          },
          {
            "astId": 15502,
            "contract": "contracts/protocol/clearinghouse/ClearingHouse.sol:ClearingHouse",
            "label": "_emptySlots",
            "offset": 0,
            "slot": "2",
            "type": "t_array(t_uint256)100_storage"
          }
        ],
        "numberOfBytes": "3264"
      },
      "t_struct(Set)21323_storage": {
        "encoding": "inplace",
        "label": "struct VTokenPosition.Set",
        "members": [
          {
            "astId": 21311,
            "contract": "contracts/protocol/clearinghouse/ClearingHouse.sol:ClearingHouse",
            "label": "active",
            "offset": 0,
            "slot": "0",
            "type": "t_array(t_uint32)8_storage"
          },
          {
            "astId": 21316,
            "contract": "contracts/protocol/clearinghouse/ClearingHouse.sol:ClearingHouse",
            "label": "positions",
            "offset": 0,
            "slot": "1",
            "type": "t_mapping(t_uint32,t_struct(Info)21337_storage)"
          },
          {
            "astId": 21318,
            "contract": "contracts/protocol/clearinghouse/ClearingHouse.sol:ClearingHouse",
            "label": "vQuoteBalance",
            "offset": 0,
            "slot": "2",
            "type": "t_int256"
          },
          {
            "astId": 21322,
            "contract": "contracts/protocol/clearinghouse/ClearingHouse.sol:ClearingHouse",
            "label": "_emptySlots",
            "offset": 0,
            "slot": "3",
            "type": "t_array(t_uint256)100_storage"
          }
        ],
        "numberOfBytes": "3296"
      },
      "t_uint128": {
        "encoding": "inplace",
        "label": "uint128",
        "numberOfBytes": "16"
      },
      "t_uint16": {
        "encoding": "inplace",
        "label": "uint16",
        "numberOfBytes": "2"
      },
      "t_uint224": {
        "encoding": "inplace",
        "label": "uint224",
        "numberOfBytes": "28"
      },
      "t_uint256": {
        "encoding": "inplace",
        "label": "uint256",
        "numberOfBytes": "32"
      },
      "t_uint32": {
        "encoding": "inplace",
        "label": "uint32",
        "numberOfBytes": "4"
      },
      "t_uint48": {
        "encoding": "inplace",
        "label": "uint48",
        "numberOfBytes": "6"
      },
      "t_uint64": {
        "encoding": "inplace",
        "label": "uint64",
        "numberOfBytes": "8"
      },
      "t_uint96": {
        "encoding": "inplace",
        "label": "uint96",
        "numberOfBytes": "12"
      }
    }
  }
}