{
  "address": "0x6B8D2AbEFF09EcbA638CB46524c7017ee15092D6",
  "abi": [
    {
      "inputs": [
        {
          "internalType": "address",
          "name": "senderAddress",
          "type": "address"
        }
      ],
      "name": "AccessDenied",
      "type": "error"
    },
    {
      "inputs": [
        {
          "internalType": "uint256",
          "name": "length",
          "type": "uint256"
        },
        {
          "internalType": "uint256",
          "name": "limit",
          "type": "uint256"
        }
      ],
      "name": "CalldataLengthExceeded",
      "type": "error"
    },
    {
      "inputs": [
        {
          "internalType": "uint32",
          "name": "collateralId",
          "type": "uint32"
        }
      ],
      "name": "CollateralDoesNotExist",
      "type": "error"
    },
    {
      "inputs": [
        {
          "internalType": "uint32",
          "name": "collateralId",
          "type": "uint32"
        }
      ],
      "name": "CollateralNotAllowedForUse",
      "type": "error"
    },
    {
      "inputs": [
        {
          "internalType": "uint256",
          "name": "gasUsedClaim",
          "type": "uint256"
        },
        {
          "internalType": "uint256",
          "name": "gasUsedActual",
          "type": "uint256"
        }
      ],
      "name": "ExcessGasUsedClaim",
      "type": "error"
    },
    {
      "inputs": [
        {
          "internalType": "uint256",
          "name": "txGasPrice",
          "type": "uint256"
        },
        {
          "internalType": "uint256",
          "name": "limit",
          "type": "uint256"
        }
      ],
      "name": "ExcessTxGasPrice",
      "type": "error"
    },
    {
      "inputs": [
        {
          "internalType": "uint160",
          "name": "sqrtPriceX96",
          "type": "uint160"
        }
      ],
      "name": "IllegalSqrtPrice",
      "type": "error"
    },
    {
      "inputs": [
        {
          "internalType": "contract IERC20",
          "name": "incorrectAddress",
          "type": "address"
        },
        {
          "internalType": "contract IERC20",
          "name": "correctAddress",
          "type": "address"
        }
      ],
      "name": "IncorrectCollateralAddress",
      "type": "error"
    },
    {
      "inputs": [
        {
          "internalType": "address",
          "name": "invalidAddress",
          "type": "address"
        }
      ],
      "name": "InvalidCollateralAddress",
      "type": "error"
    },
    {
      "inputs": [
        {
          "internalType": "enum IClearingHouseEnums.MulticallOperationType",
          "name": "multicallOperationType",
          "type": "uint8"
        }
      ],
      "name": "InvalidMulticallOperationType",
      "type": "error"
    },
    {
      "inputs": [],
      "name": "InvalidTokenLiquidationParameters",
      "type": "error"
    },
    {
      "inputs": [
        {
          "internalType": "int256",
          "name": "keeperFee",
          "type": "int256"
        }
      ],
      "name": "KeeperFeeNotPositive",
      "type": "error"
    },
    {
      "inputs": [
        {
          "internalType": "uint256",
          "name": "notionalValue",
          "type": "uint256"
        }
      ],
      "name": "LowNotionalValue",
      "type": "error"
    },
    {
      "inputs": [],
      "name": "NotRageTradeFactory",
      "type": "error"
    },
    {
      "inputs": [
        {
          "internalType": "uint32",
          "name": "poolId",
          "type": "uint32"
        }
      ],
      "name": "PoolDoesNotExist",
      "type": "error"
    },
    {
      "inputs": [
        {
          "internalType": "uint32",
          "name": "poolId",
          "type": "uint32"
        }
      ],
      "name": "PoolNotAllowedForTrade",
      "type": "error"
    },
    {
      "inputs": [],
      "name": "SlippageBeyondTolerance",
      "type": "error"
    },
    {
      "inputs": [
        {
          "internalType": "uint32",
          "name": "period",
          "type": "uint32"
        }
      ],
      "name": "UV3PH_IllegalTwapDuration",
      "type": "error"
    },
    {
      "inputs": [],
      "name": "Unauthorised",
      "type": "error"
    },
    {
      "inputs": [],
      "name": "ZeroAddress",
      "type": "error"
    },
    {
      "inputs": [],
      "name": "ZeroAmount",
      "type": "error"
    },
    {
      "anonymous": false,
      "inputs": [
        {
          "indexed": true,
          "internalType": "address",
          "name": "ownerAddress",
          "type": "address"
        },
        {
          "indexed": false,
          "internalType": "uint256",
          "name": "accountId",
          "type": "uint256"
        }
      ],
      "name": "AccountCreated",
      "type": "event"
    },
    {
      "anonymous": false,
      "inputs": [
        {
          "indexed": false,
          "internalType": "contract IERC20",
          "name": "cToken",
          "type": "address"
        },
        {
          "components": [
            {
              "internalType": "contract IOracle",
              "name": "oracle",
              "type": "address"
            },
            {
              "internalType": "uint32",
              "name": "twapDuration",
              "type": "uint32"
            },
            {
              "internalType": "bool",
              "name": "isAllowedForDeposit",
              "type": "bool"
            }
          ],
          "indexed": false,
          "internalType": "struct IClearingHouseStructures.CollateralSettings",
          "name": "cTokenInfo",
          "type": "tuple"
        }
      ],
      "name": "CollateralSettingsUpdated",
      "type": "event"
    },
    {
      "anonymous": false,
      "inputs": [
        {
          "indexed": true,
          "internalType": "address",
          "name": "previousGovernance",
          "type": "address"
        },
        {
          "indexed": true,
          "internalType": "address",
          "name": "newGovernance",
          "type": "address"
        }
      ],
      "name": "GovernanceTransferred",
      "type": "event"
    },
    {
      "anonymous": false,
      "inputs": [
        {
          "indexed": true,
          "internalType": "uint256",
          "name": "accountId",
          "type": "uint256"
        },
        {
          "indexed": true,
          "internalType": "uint32",
          "name": "collateralId",
          "type": "uint32"
        },
        {
          "indexed": false,
          "internalType": "uint256",
          "name": "amount",
          "type": "uint256"
        }
      ],
      "name": "MarginAdded",
      "type": "event"
    },
    {
      "anonymous": false,
      "inputs": [
        {
          "indexed": true,
          "internalType": "uint256",
          "name": "accountId",
          "type": "uint256"
        },
        {
          "indexed": true,
          "internalType": "uint32",
          "name": "collateralId",
          "type": "uint32"
        },
        {
          "indexed": false,
          "internalType": "uint256",
          "name": "amount",
          "type": "uint256"
        }
      ],
      "name": "MarginRemoved",
      "type": "event"
    },
    {
      "anonymous": false,
      "inputs": [
        {
          "indexed": false,
          "internalType": "address",
          "name": "account",
          "type": "address"
        }
      ],
      "name": "Paused",
      "type": "event"
    },
    {
      "anonymous": false,
      "inputs": [
        {
          "indexed": false,
          "internalType": "bool",
          "name": "paused",
          "type": "bool"
        }
      ],
      "name": "PausedUpdated",
      "type": "event"
    },
    {
      "anonymous": false,
      "inputs": [
        {
          "indexed": false,
          "internalType": "uint32",
          "name": "poolId",
          "type": "uint32"
        },
        {
          "components": [
            {
              "internalType": "uint16",
              "name": "initialMarginRatio",
              "type": "uint16"
            },
            {
              "internalType": "uint16",
              "name": "maintainanceMarginRatio",
              "type": "uint16"
            },
            {
              "internalType": "uint32",
              "name": "twapDuration",
              "type": "uint32"
            },
            {
              "internalType": "bool",
              "name": "isAllowedForTrade",
              "type": "bool"
            },
            {
              "internalType": "bool",
              "name": "isCrossMargined",
              "type": "bool"
            },
            {
              "internalType": "contract IOracle",
              "name": "oracle",
              "type": "address"
            }
          ],
          "indexed": false,
          "internalType": "struct IClearingHouseStructures.PoolSettings",
          "name": "settings",
          "type": "tuple"
        }
      ],
      "name": "PoolSettingsUpdated",
      "type": "event"
    },
    {
      "anonymous": false,
      "inputs": [
        {
          "components": [
            {
              "internalType": "uint16",
              "name": "liquidationFeeFraction",
              "type": "uint16"
            },
            {
              "internalType": "uint16",
              "name": "tokenLiquidationPriceDeltaBps",
              "type": "uint16"
            },
            {
              "internalType": "uint16",
              "name": "insuranceFundFeeShareBps",
              "type": "uint16"
            },
            {
              "internalType": "uint128",
              "name": "maxRangeLiquidationFees",
              "type": "uint128"
            }
          ],
          "indexed": false,
          "internalType": "struct IClearingHouseStructures.LiquidationParams",
          "name": "liquidationParams",
          "type": "tuple"
        },
        {
          "indexed": false,
          "internalType": "uint256",
          "name": "removeLimitOrderFee",
          "type": "uint256"
        },
        {
          "indexed": false,
          "internalType": "uint256",
          "name": "minimumOrderNotional",
          "type": "uint256"
        },
        {
          "indexed": false,
          "internalType": "uint256",
          "name": "minRequiredMargin",
          "type": "uint256"
        }
      ],
      "name": "ProtocolSettingsUpdated",
      "type": "event"
    },
    {
      "anonymous": false,
      "inputs": [
        {
          "indexed": true,
          "internalType": "address",
          "name": "previousTeamMultisig",
          "type": "address"
        },
        {
          "indexed": true,
          "internalType": "address",
          "name": "newTeamMultisig",
          "type": "address"
        }
      ],
      "name": "TeamMultisigTransferred",
      "type": "event"
    },
    {
      "anonymous": false,
      "inputs": [
        {
          "indexed": false,
          "internalType": "address",
          "name": "account",
          "type": "address"
        }
      ],
      "name": "Unpaused",
      "type": "event"
    },
    {
      "inputs": [
        {
          "internalType": "address",
          "name": "_rageTradeFactoryAddress",
          "type": "address"
        },
        {
          "internalType": "contract IERC20",
          "name": "_defaultCollateralToken",
          "type": "address"
        },
        {
          "internalType": "contract IOracle",
          "name": "_defaultCollateralTokenOracle",
          "type": "address"
        },
        {
          "internalType": "contract IInsuranceFund",
          "name": "_insuranceFund",
          "type": "address"
        },
        {
          "internalType": "contract IVQuote",
          "name": "_vQuote",
          "type": "address"
        },
        {
          "internalType": "contract IOracle",
          "name": "_nativeOracle",
          "type": "address"
        }
      ],
      "name": "__initialize_ClearingHouse",
      "outputs": [],
      "stateMutability": "nonpayable",
      "type": "function"
    },
    {
      "inputs": [
        {
          "internalType": "uint256",
          "name": "accountId",
          "type": "uint256"
        },
        {
          "internalType": "uint32",
          "name": "collateralId",
          "type": "uint32"
        },
        {
          "internalType": "uint256",
          "name": "amount",
          "type": "uint256"
        }
      ],
      "name": "addMargin",
      "outputs": [],
      "stateMutability": "nonpayable",
      "type": "function"
    },
    {
      "inputs": [],
      "name": "createAccount",
      "outputs": [
        {
          "internalType": "uint256",
          "name": "newAccountId",
          "type": "uint256"
        }
      ],
      "stateMutability": "nonpayable",
      "type": "function"
    },
    {
      "inputs": [
        {
          "internalType": "uint32",
          "name": "poolId",
          "type": "uint32"
        },
        {
          "internalType": "uint256",
          "name": "amount",
          "type": "uint256"
        }
      ],
      "name": "createAccountAndAddMargin",
      "outputs": [
        {
          "internalType": "uint256",
          "name": "newAccountId",
          "type": "uint256"
        }
      ],
      "stateMutability": "nonpayable",
      "type": "function"
    },
    {
      "inputs": [
        {
          "internalType": "bytes32",
          "name": "slot",
          "type": "bytes32"
        }
      ],
      "name": "extsload",
      "outputs": [
        {
          "internalType": "bytes32",
          "name": "val",
          "type": "bytes32"
        }
      ],
      "stateMutability": "view",
      "type": "function"
    },
    {
      "inputs": [
        {
          "internalType": "bytes32[]",
          "name": "slots",
          "type": "bytes32[]"
        }
      ],
      "name": "extsload",
      "outputs": [
        {
          "internalType": "bytes32[]",
          "name": "",
          "type": "bytes32[]"
        }
      ],
      "stateMutability": "view",
      "type": "function"
    },
    {
      "inputs": [
        {
          "internalType": "uint256",
          "name": "accountId",
          "type": "uint256"
        }
      ],
      "name": "getAccountInfo",
      "outputs": [
        {
          "internalType": "address",
          "name": "owner",
          "type": "address"
        },
        {
          "internalType": "int256",
          "name": "vQuoteBalance",
          "type": "int256"
        },
        {
          "components": [
            {
              "internalType": "contract IERC20",
              "name": "collateral",
              "type": "address"
            },
            {
              "internalType": "uint256",
              "name": "balance",
              "type": "uint256"
            }
          ],
          "internalType": "struct IClearingHouseStructures.CollateralDepositView[]",
          "name": "collateralDeposits",
          "type": "tuple[]"
        },
        {
          "components": [
            {
              "internalType": "contract IVToken",
              "name": "vToken",
              "type": "address"
            },
            {
              "internalType": "int256",
              "name": "balance",
              "type": "int256"
            },
            {
              "internalType": "int256",
              "name": "netTraderPosition",
              "type": "int256"
            },
            {
              "internalType": "int256",
              "name": "sumAX128Chkpt",
              "type": "int256"
            },
            {
              "components": [
                {
                  "internalType": "enum IClearingHouseEnums.LimitOrderType",
                  "name": "limitOrderType",
                  "type": "uint8"
                },
                {
                  "internalType": "int24",
                  "name": "tickLower",
                  "type": "int24"
                },
                {
                  "internalType": "int24",
                  "name": "tickUpper",
                  "type": "int24"
                },
                {
                  "internalType": "uint128",
                  "name": "liquidity",
                  "type": "uint128"
                },
                {
                  "internalType": "int256",
                  "name": "vTokenAmountIn",
                  "type": "int256"
                },
                {
                  "internalType": "int256",
                  "name": "sumALastX128",
                  "type": "int256"
                },
                {
                  "internalType": "int256",
                  "name": "sumBInsideLastX128",
                  "type": "int256"
                },
                {
                  "internalType": "int256",
                  "name": "sumFpInsideLastX128",
                  "type": "int256"
                },
                {
                  "internalType": "uint256",
                  "name": "sumFeeInsideLastX128",
                  "type": "uint256"
                }
              ],
              "internalType": "struct IClearingHouseStructures.LiquidityPositionView[]",
              "name": "liquidityPositions",
              "type": "tuple[]"
            }
          ],
          "internalType": "struct IClearingHouseStructures.VTokenPositionView[]",
          "name": "tokenPositions",
          "type": "tuple[]"
        }
      ],
      "stateMutability": "view",
      "type": "function"
    },
    {
      "inputs": [
        {
          "internalType": "uint256",
          "name": "accountId",
          "type": "uint256"
        },
        {
          "internalType": "bool",
          "name": "isInitialMargin",
          "type": "bool"
        }
      ],
      "name": "getAccountMarketValueAndRequiredMargin",
      "outputs": [
        {
          "internalType": "int256",
          "name": "accountMarketValue",
          "type": "int256"
        },
        {
          "internalType": "int256",
          "name": "requiredMargin",
          "type": "int256"
        }
      ],
      "stateMutability": "view",
      "type": "function"
    },
    {
      "inputs": [
        {
          "internalType": "uint256",
          "name": "accountId",
          "type": "uint256"
        }
      ],
      "name": "getAccountNetProfit",
      "outputs": [
        {
          "internalType": "int256",
          "name": "accountNetProfit",
          "type": "int256"
        }
      ],
      "stateMutability": "view",
      "type": "function"
    },
    {
      "inputs": [
        {
          "internalType": "uint32",
          "name": "collateralId",
          "type": "uint32"
        }
      ],
      "name": "getCollateralInfo",
      "outputs": [
        {
          "components": [
            {
              "internalType": "contract IERC20",
              "name": "token",
              "type": "address"
            },
            {
              "components": [
                {
                  "internalType": "contract IOracle",
                  "name": "oracle",
                  "type": "address"
                },
                {
                  "internalType": "uint32",
                  "name": "twapDuration",
                  "type": "uint32"
                },
                {
                  "internalType": "bool",
                  "name": "isAllowedForDeposit",
                  "type": "bool"
                }
              ],
              "internalType": "struct IClearingHouseStructures.CollateralSettings",
              "name": "settings",
              "type": "tuple"
            }
          ],
          "internalType": "struct IClearingHouseStructures.Collateral",
          "name": "",
          "type": "tuple"
        }
      ],
      "stateMutability": "view",
      "type": "function"
    },
    {
      "inputs": [
        {
          "internalType": "uint256",
          "name": "accountId",
          "type": "uint256"
        },
        {
          "internalType": "uint32",
          "name": "poolId",
          "type": "uint32"
        }
      ],
      "name": "getNetTokenPosition",
      "outputs": [
        {
          "internalType": "int256",
          "name": "netPosition",
          "type": "int256"
        }
      ],
      "stateMutability": "view",
      "type": "function"
    },
    {
      "inputs": [
        {
          "internalType": "uint32",
          "name": "poolId",
          "type": "uint32"
        }
      ],
      "name": "getPoolInfo",
      "outputs": [
        {
          "components": [
            {
              "internalType": "contract IVToken",
              "name": "vToken",
              "type": "address"
            },
            {
              "internalType": "contract IUniswapV3Pool",
              "name": "vPool",
              "type": "address"
            },
            {
              "internalType": "contract IVPoolWrapper",
              "name": "vPoolWrapper",
              "type": "address"
            },
            {
              "components": [
                {
                  "internalType": "uint16",
                  "name": "initialMarginRatio",
                  "type": "uint16"
                },
                {
                  "internalType": "uint16",
                  "name": "maintainanceMarginRatio",
                  "type": "uint16"
                },
                {
                  "internalType": "uint32",
                  "name": "twapDuration",
                  "type": "uint32"
                },
                {
                  "internalType": "bool",
                  "name": "isAllowedForTrade",
                  "type": "bool"
                },
                {
                  "internalType": "bool",
                  "name": "isCrossMargined",
                  "type": "bool"
                },
                {
                  "internalType": "contract IOracle",
                  "name": "oracle",
                  "type": "address"
                }
              ],
              "internalType": "struct IClearingHouseStructures.PoolSettings",
              "name": "settings",
              "type": "tuple"
            }
          ],
          "internalType": "struct IClearingHouseStructures.Pool",
          "name": "",
          "type": "tuple"
        }
      ],
      "stateMutability": "view",
      "type": "function"
    },
    {
      "inputs": [
        {
          "internalType": "contract IVToken",
          "name": "vToken",
          "type": "address"
        }
      ],
      "name": "getTwapPrices",
      "outputs": [
        {
          "internalType": "uint256",
          "name": "realPriceX128",
          "type": "uint256"
        },
        {
          "internalType": "uint256",
          "name": "virtualPriceX128",
          "type": "uint256"
        }
      ],
      "stateMutability": "view",
      "type": "function"
    },
    {
      "inputs": [],
      "name": "governance",
      "outputs": [
        {
          "internalType": "address",
          "name": "",
          "type": "address"
        }
      ],
      "stateMutability": "view",
      "type": "function"
    },
    {
      "inputs": [],
      "name": "insuranceFund",
      "outputs": [
        {
          "internalType": "contract IInsuranceFund",
          "name": "",
          "type": "address"
        }
      ],
      "stateMutability": "view",
      "type": "function"
    },
    {
      "inputs": [
        {
          "internalType": "uint32",
          "name": "poolId",
          "type": "uint32"
        }
      ],
      "name": "isPoolIdAvailable",
      "outputs": [
        {
          "internalType": "bool",
          "name": "",
          "type": "bool"
        }
      ],
      "stateMutability": "view",
      "type": "function"
    },
    {
      "inputs": [
        {
          "internalType": "uint256",
          "name": "accountId",
          "type": "uint256"
        }
      ],
      "name": "liquidateLiquidityPositions",
      "outputs": [],
      "stateMutability": "nonpayable",
      "type": "function"
    },
    {
      "inputs": [
        {
          "internalType": "uint256",
          "name": "accountId",
          "type": "uint256"
        },
        {
          "internalType": "uint256",
          "name": "gasComputationUnitsClaim",
          "type": "uint256"
        }
      ],
      "name": "liquidateLiquidityPositionsWithGasClaim",
      "outputs": [
        {
          "internalType": "int256",
          "name": "keeperFee",
          "type": "int256"
        }
      ],
      "stateMutability": "nonpayable",
      "type": "function"
    },
    {
      "inputs": [
        {
          "internalType": "uint256",
          "name": "liquidatorAccountId",
          "type": "uint256"
        },
        {
          "internalType": "uint256",
          "name": "targetAccountId",
          "type": "uint256"
        },
        {
          "internalType": "uint32",
          "name": "poolId",
          "type": "uint32"
        },
        {
          "internalType": "uint16",
          "name": "liquidationBps",
          "type": "uint16"
        }
      ],
      "name": "liquidateTokenPosition",
      "outputs": [
        {
          "components": [
            {
              "internalType": "int256",
              "name": "vQuoteIncrease",
              "type": "int256"
            },
            {
              "internalType": "int256",
              "name": "vTokenIncrease",
              "type": "int256"
            },
            {
              "internalType": "int256",
              "name": "traderPositionIncrease",
              "type": "int256"
            }
          ],
          "internalType": "struct IClearingHouseStructures.BalanceAdjustments",
          "name": "liquidatorBalanceAdjustments",
          "type": "tuple"
        }
      ],
      "stateMutability": "nonpayable",
      "type": "function"
    },
    {
      "inputs": [
        {
          "internalType": "uint256",
          "name": "liquidatorAccountId",
          "type": "uint256"
        },
        {
          "internalType": "uint256",
          "name": "targetAccountId",
          "type": "uint256"
        },
        {
          "internalType": "uint32",
          "name": "poolId",
          "type": "uint32"
        },
        {
          "internalType": "uint16",
          "name": "liquidationBps",
          "type": "uint16"
        },
        {
          "internalType": "uint256",
          "name": "gasComputationUnitsClaim",
          "type": "uint256"
        }
      ],
      "name": "liquidateTokenPositionWithGasClaim",
      "outputs": [
        {
          "components": [
            {
              "internalType": "int256",
              "name": "vQuoteIncrease",
              "type": "int256"
            },
            {
              "internalType": "int256",
              "name": "vTokenIncrease",
              "type": "int256"
            },
            {
              "internalType": "int256",
              "name": "traderPositionIncrease",
              "type": "int256"
            }
          ],
          "internalType": "struct IClearingHouseStructures.BalanceAdjustments",
          "name": "liquidatorBalanceAdjustments",
          "type": "tuple"
        }
      ],
      "stateMutability": "nonpayable",
      "type": "function"
    },
    {
      "inputs": [
        {
          "internalType": "bytes[]",
          "name": "data",
          "type": "bytes[]"
        }
      ],
      "name": "multicall",
      "outputs": [
        {
          "internalType": "bytes[]",
          "name": "results",
          "type": "bytes[]"
        }
      ],
      "stateMutability": "payable",
      "type": "function"
    },
    {
      "inputs": [
        {
          "internalType": "uint256",
          "name": "accountId",
          "type": "uint256"
        },
        {
          "components": [
            {
              "internalType": "enum IClearingHouseEnums.MulticallOperationType",
              "name": "operationType",
              "type": "uint8"
            },
            {
              "internalType": "bytes",
              "name": "data",
              "type": "bytes"
            }
          ],
          "internalType": "struct IClearingHouseStructures.MulticallOperation[]",
          "name": "operations",
          "type": "tuple[]"
        }
      ],
      "name": "multicallWithSingleMarginCheck",
      "outputs": [
        {
          "internalType": "bytes[]",
          "name": "results",
          "type": "bytes[]"
        }
      ],
      "stateMutability": "nonpayable",
      "type": "function"
    },
    {
      "inputs": [],
      "name": "nativeOracle",
      "outputs": [
        {
          "internalType": "contract IOracle",
          "name": "",
          "type": "address"
        }
      ],
      "stateMutability": "view",
      "type": "function"
    },
    {
      "inputs": [],
      "name": "numAccounts",
      "outputs": [
        {
          "internalType": "uint256",
          "name": "",
          "type": "uint256"
        }
      ],
      "stateMutability": "view",
      "type": "function"
    },
    {
      "inputs": [],
      "name": "pause",
      "outputs": [],
      "stateMutability": "nonpayable",
      "type": "function"
    },
    {
      "inputs": [],
      "name": "paused",
      "outputs": [
        {
          "internalType": "bool",
          "name": "",
          "type": "bool"
        }
      ],
      "stateMutability": "view",
      "type": "function"
    },
    {
      "inputs": [],
      "name": "protocolInfo",
      "outputs": [
        {
          "internalType": "contract IVQuote",
          "name": "vQuote",
          "type": "address"
        },
        {
          "components": [
            {
              "internalType": "uint16",
              "name": "liquidationFeeFraction",
              "type": "uint16"
            },
            {
              "internalType": "uint16",
              "name": "tokenLiquidationPriceDeltaBps",
              "type": "uint16"
            },
            {
              "internalType": "uint16",
              "name": "insuranceFundFeeShareBps",
              "type": "uint16"
            },
            {
              "internalType": "uint128",
              "name": "maxRangeLiquidationFees",
              "type": "uint128"
            }
          ],
          "internalType": "struct IClearingHouseStructures.LiquidationParams",
          "name": "liquidationParams",
          "type": "tuple"
        },
        {
          "internalType": "uint256",
          "name": "minRequiredMargin",
          "type": "uint256"
        },
        {
          "internalType": "uint256",
          "name": "removeLimitOrderFee",
          "type": "uint256"
        },
        {
          "internalType": "uint256",
          "name": "minimumOrderNotional",
          "type": "uint256"
        }
      ],
      "stateMutability": "view",
      "type": "function"
    },
    {
      "inputs": [],
      "name": "rageTradeFactoryAddress",
      "outputs": [
        {
          "internalType": "address",
          "name": "",
          "type": "address"
        }
      ],
      "stateMutability": "view",
      "type": "function"
    },
    {
      "inputs": [
        {
          "components": [
            {
              "internalType": "contract IVToken",
              "name": "vToken",
              "type": "address"
            },
            {
              "internalType": "contract IUniswapV3Pool",
              "name": "vPool",
              "type": "address"
            },
            {
              "internalType": "contract IVPoolWrapper",
              "name": "vPoolWrapper",
              "type": "address"
            },
            {
              "components": [
                {
                  "internalType": "uint16",
                  "name": "initialMarginRatio",
                  "type": "uint16"
                },
                {
                  "internalType": "uint16",
                  "name": "maintainanceMarginRatio",
                  "type": "uint16"
                },
                {
                  "internalType": "uint32",
                  "name": "twapDuration",
                  "type": "uint32"
                },
                {
                  "internalType": "bool",
                  "name": "isAllowedForTrade",
                  "type": "bool"
                },
                {
                  "internalType": "bool",
                  "name": "isCrossMargined",
                  "type": "bool"
                },
                {
                  "internalType": "contract IOracle",
                  "name": "oracle",
                  "type": "address"
                }
              ],
              "internalType": "struct IClearingHouseStructures.PoolSettings",
              "name": "settings",
              "type": "tuple"
            }
          ],
          "internalType": "struct IClearingHouseStructures.Pool",
          "name": "poolInfo",
          "type": "tuple"
        }
      ],
      "name": "registerPool",
      "outputs": [],
      "stateMutability": "nonpayable",
      "type": "function"
    },
    {
      "inputs": [
        {
          "internalType": "uint256",
          "name": "accountId",
          "type": "uint256"
        },
        {
          "internalType": "uint32",
          "name": "poolId",
          "type": "uint32"
        },
        {
          "internalType": "int24",
          "name": "tickLower",
          "type": "int24"
        },
        {
          "internalType": "int24",
          "name": "tickUpper",
          "type": "int24"
        }
      ],
      "name": "removeLimitOrder",
      "outputs": [],
      "stateMutability": "nonpayable",
      "type": "function"
    },
    {
      "inputs": [
        {
          "internalType": "uint256",
          "name": "accountId",
          "type": "uint256"
        },
        {
          "internalType": "uint32",
          "name": "poolId",
          "type": "uint32"
        },
        {
          "internalType": "int24",
          "name": "tickLower",
          "type": "int24"
        },
        {
          "internalType": "int24",
          "name": "tickUpper",
          "type": "int24"
        },
        {
          "internalType": "uint256",
          "name": "gasComputationUnitsClaim",
          "type": "uint256"
        }
      ],
      "name": "removeLimitOrderWithGasClaim",
      "outputs": [
        {
          "internalType": "uint256",
          "name": "keeperFee",
          "type": "uint256"
        }
      ],
      "stateMutability": "nonpayable",
      "type": "function"
    },
    {
      "inputs": [
        {
          "internalType": "uint256",
          "name": "accountId",
          "type": "uint256"
        },
        {
          "internalType": "uint32",
          "name": "collateralId",
          "type": "uint32"
        },
        {
          "internalType": "uint256",
          "name": "amount",
          "type": "uint256"
        }
      ],
      "name": "removeMargin",
      "outputs": [],
      "stateMutability": "nonpayable",
      "type": "function"
    },
    {
      "inputs": [
        {
          "internalType": "uint256",
          "name": "_txGasPriceLimit",
          "type": "uint256"
        }
      ],
      "name": "setTxGasPriceLimit",
      "outputs": [],
      "stateMutability": "nonpayable",
      "type": "function"
    },
    {
      "inputs": [
        {
          "internalType": "uint256",
          "name": "accountId",
          "type": "uint256"
        },
        {
          "internalType": "uint32",
          "name": "poolId",
          "type": "uint32"
        },
        {
          "components": [
            {
              "internalType": "int256",
              "name": "amount",
              "type": "int256"
            },
            {
              "internalType": "uint160",
              "name": "sqrtPriceLimit",
              "type": "uint160"
            },
            {
              "internalType": "bool",
              "name": "isNotional",
              "type": "bool"
            },
            {
              "internalType": "bool",
              "name": "isPartialAllowed",
              "type": "bool"
            }
          ],
          "internalType": "struct IClearingHouseStructures.SwapParams",
          "name": "swapParams",
          "type": "tuple"
        }
      ],
      "name": "swapToken",
      "outputs": [
        {
          "internalType": "int256",
          "name": "vTokenAmountOut",
          "type": "int256"
        },
        {
          "internalType": "int256",
          "name": "vQuoteAmountOut",
          "type": "int256"
        }
      ],
      "stateMutability": "nonpayable",
      "type": "function"
    },
    {
      "inputs": [],
      "name": "teamMultisig",
      "outputs": [
        {
          "internalType": "address",
          "name": "",
          "type": "address"
        }
      ],
      "stateMutability": "view",
      "type": "function"
    },
    {
      "inputs": [
        {
          "internalType": "address",
          "name": "newGovernance",
          "type": "address"
        }
      ],
      "name": "transferGovernance",
      "outputs": [],
      "stateMutability": "nonpayable",
      "type": "function"
    },
    {
      "inputs": [
        {
          "internalType": "address",
          "name": "newTeamMultisig",
          "type": "address"
        }
      ],
      "name": "transferTeamMultisig",
      "outputs": [],
      "stateMutability": "nonpayable",
      "type": "function"
    },
    {
      "inputs": [],
      "name": "txGasPriceLimit",
      "outputs": [
        {
          "internalType": "uint256",
          "name": "",
          "type": "uint256"
        }
      ],
      "stateMutability": "view",
      "type": "function"
    },
    {
      "inputs": [],
      "name": "unpause",
      "outputs": [],
      "stateMutability": "nonpayable",
      "type": "function"
    },
    {
      "inputs": [
        {
          "internalType": "contract IERC20",
          "name": "cToken",
          "type": "address"
        },
        {
          "components": [
            {
              "internalType": "contract IOracle",
              "name": "oracle",
              "type": "address"
            },
            {
              "internalType": "uint32",
              "name": "twapDuration",
              "type": "uint32"
            },
            {
              "internalType": "bool",
              "name": "isAllowedForDeposit",
              "type": "bool"
            }
          ],
          "internalType": "struct IClearingHouseStructures.CollateralSettings",
          "name": "collateralSettings",
          "type": "tuple"
        }
      ],
      "name": "updateCollateralSettings",
      "outputs": [],
      "stateMutability": "nonpayable",
      "type": "function"
    },
    {
      "inputs": [
        {
          "internalType": "uint32",
          "name": "poolId",
          "type": "uint32"
        },
        {
          "components": [
            {
              "internalType": "uint16",
              "name": "initialMarginRatio",
              "type": "uint16"
            },
            {
              "internalType": "uint16",
              "name": "maintainanceMarginRatio",
              "type": "uint16"
            },
            {
              "internalType": "uint32",
              "name": "twapDuration",
              "type": "uint32"
            },
            {
              "internalType": "bool",
              "name": "isAllowedForTrade",
              "type": "bool"
            },
            {
              "internalType": "bool",
              "name": "isCrossMargined",
              "type": "bool"
            },
            {
              "internalType": "contract IOracle",
              "name": "oracle",
              "type": "address"
            }
          ],
          "internalType": "struct IClearingHouseStructures.PoolSettings",
          "name": "newSettings",
          "type": "tuple"
        }
      ],
      "name": "updatePoolSettings",
      "outputs": [],
      "stateMutability": "nonpayable",
      "type": "function"
    },
    {
      "inputs": [
        {
          "internalType": "uint256",
          "name": "accountId",
          "type": "uint256"
        },
        {
          "internalType": "int256",
          "name": "amount",
          "type": "int256"
        }
      ],
      "name": "updateProfit",
      "outputs": [],
      "stateMutability": "nonpayable",
      "type": "function"
    },
    {
      "inputs": [
        {
          "components": [
            {
              "internalType": "uint16",
              "name": "liquidationFeeFraction",
              "type": "uint16"
            },
            {
              "internalType": "uint16",
              "name": "tokenLiquidationPriceDeltaBps",
              "type": "uint16"
            },
            {
              "internalType": "uint16",
              "name": "insuranceFundFeeShareBps",
              "type": "uint16"
            },
            {
              "internalType": "uint128",
              "name": "maxRangeLiquidationFees",
              "type": "uint128"
            }
          ],
          "internalType": "struct IClearingHouseStructures.LiquidationParams",
          "name": "_liquidationParams",
          "type": "tuple"
        },
        {
          "internalType": "uint256",
          "name": "_removeLimitOrderFee",
          "type": "uint256"
        },
        {
          "internalType": "uint256",
          "name": "_minimumOrderNotional",
          "type": "uint256"
        },
        {
          "internalType": "uint256",
          "name": "_minRequiredMargin",
          "type": "uint256"
        }
      ],
      "name": "updateProtocolSettings",
      "outputs": [],
      "stateMutability": "nonpayable",
      "type": "function"
    },
    {
      "inputs": [
        {
          "internalType": "uint256",
          "name": "accountId",
          "type": "uint256"
        },
        {
          "internalType": "uint32",
          "name": "poolId",
          "type": "uint32"
        },
        {
          "components": [
            {
              "internalType": "int24",
              "name": "tickLower",
              "type": "int24"
            },
            {
              "internalType": "int24",
              "name": "tickUpper",
              "type": "int24"
            },
            {
              "internalType": "int128",
              "name": "liquidityDelta",
              "type": "int128"
            },
            {
              "internalType": "uint160",
              "name": "sqrtPriceCurrent",
              "type": "uint160"
            },
            {
              "internalType": "uint16",
              "name": "slippageToleranceBps",
              "type": "uint16"
            },
            {
              "internalType": "bool",
              "name": "closeTokenPosition",
              "type": "bool"
            },
            {
              "internalType": "enum IClearingHouseEnums.LimitOrderType",
              "name": "limitOrderType",
              "type": "uint8"
            }
          ],
          "internalType": "struct IClearingHouseStructures.LiquidityChangeParams",
          "name": "liquidityChangeParams",
          "type": "tuple"
        }
      ],
      "name": "updateRangeOrder",
      "outputs": [
        {
          "internalType": "int256",
          "name": "vTokenAmountOut",
          "type": "int256"
        },
        {
          "internalType": "int256",
          "name": "vQuoteAmountOut",
          "type": "int256"
        }
      ],
      "stateMutability": "nonpayable",
      "type": "function"
    },
    {
      "inputs": [
        {
          "internalType": "address[]",
          "name": "wrapperAddresses",
          "type": "address[]"
        }
      ],
      "name": "withdrawProtocolFee",
      "outputs": [],
      "stateMutability": "nonpayable",
      "type": "function"
    }
  ],
  "transactionHash": "0xe17e4ef625d5823fc28f201e064b249796fc13606215215b5c19fed495285699",
  "args": [],
  "numDeployments": 1,
  "solcInputHash": "01d5054bacc9f7c19ab36217e6273f93",
  "bytecode": "0x60806040523480156200001157600080fd5b506200001c62000022565b620002e3565b61013954610100900460ff1662000041576101395460ff16156200004b565b6200004b620000f7565b620000a35760405162461bcd60e51b815260206004820152602e6024820152600080516020620061a883398151915260448201526d191e481a5b9a5d1a585b1a5e995960921b60648201526084015b60405180910390fd5b61013954610100900460ff16158015620000c857610139805461ffff19166101011790555b620000d262000115565b33620000df818062000185565b508015620000f457610139805461ff00191690555b50565b60006200010f30620002d460201b620022eb1760201c565b15905090565b61013954610100900460ff16620001835760405162461bcd60e51b815260206004820152602b60248201527f496e697469616c697a61626c653a20636f6e7472616374206973206e6f74206960448201526a6e697469616c697a696e6760a81b60648201526084016200009a565b565b61013954610100900460ff16620001a4576101395460ff1615620001ae565b620001ae620000f7565b620002025760405162461bcd60e51b815260206004820152602e6024820152600080516020620061a883398151915260448201526d191e481a5b9a5d1a585b1a5e995960921b60648201526084016200009a565b61013954610100900460ff161580156200022757610139805461ffff19166101011790555b61019e80546001600160a01b0319166001600160a01b0385169081179091556040516000907f5f56bee8cffbe9a78652a74a60705edede02af10b0bbb888ca44b79a0d42ce80908290a361019f80546001600160a01b0319166001600160a01b0384169081179091556040516000907f39355f2f5c8206286978f443aa8126bbd29fa09c53c04569502647f3a59c8cb2908290a38015620002cf57610139805461ff00191690555b505050565b6001600160a01b03163b151590565b615eb580620002f36000396000f3fe6080604052600436106102725760003560e01c80637ec6ba311161014f578063b670ed52116100c1578063e1f167131161007a578063e1f1671314610a27578063e3d41c1814610a47578063e450f6f414610a67578063e67ed1df14610a87578063ee6cd5ee14610aa7578063fe6f083a14610ac757600080fd5b8063b670ed52146107c5578063b79023031461096e578063bc38d5421461098e578063d38bfff4146109bb578063dbc0c085146109db578063dbd035ff146109fa57600080fd5b80638ce25a93116101135780638ce25a931461064057806393420cf41461065657806394c8c71d1461075d5780639cd1be581461077d5780639dca362f1461079d578063ac9650d8146107b257600080fd5b80637ec6ba31146105895780637f64d663146105a957806384088b65146105c95780638456cb591461060b578063847e07a61461062057600080fd5b80633d0aea3d116101e8578063440ab745116101ac578063440ab745146104c157806349fbd58d146104f1578063569634d3146105115780635aa6e675146105315780635c975abb146105505780637cc2f4f51461056957600080fd5b80633d0aea3d1461041f5780633d56a35e1461043f5780633f4ba83a1461045f57806340c4f69b1461047457806342be9fca146104a157600080fd5b80632afaea371161023a5780632afaea371461033a57806332a72d981461035a578063393590291461038f5780633a64c245146103af5780633b561afc146103cf5780633c0352b2146103ff57600080fd5b806302860bac14610277578063127fec13146102995780631a1feae1146102d65780631e2eaeaf146102fb5780631f84fa981461031a575b600080fd5b34801561028357600080fd5b506102976102923660046141df565b610ae7565b005b3480156102a557600080fd5b5060d4546102b9906001600160a01b031681565b6040516001600160a01b0390911681526020015b60405180910390f35b3480156102e257600080fd5b506102ed6101a05481565b6040519081526020016102cd565b34801561030757600080fd5b506102ed610316366004614221565b5490565b34801561032657600080fd5b5061029761033536600461424c565b610b8f565b34801561034657600080fd5b5061029761035536600461428d565b610c39565b34801561036657600080fd5b5061037a610375366004614474565b610c85565b604080519283526020830191909152016102cd565b34801561039b57600080fd5b506102976103aa36600461428d565b610cd9565b3480156103bb57600080fd5b506102976103ca3660046144b3565b610d18565b3480156103db57600080fd5b506103ef6103ea366004614221565b610df2565b6040516102cd94939291906144f0565b34801561040b57600080fd5b5061037a61041a36600461467d565b610e96565b34801561042b57600080fd5b5061029761043a36600461469a565b610ecf565b34801561044b57600080fd5b5060d2546102b9906001600160a01b031681565b34801561046b57600080fd5b50610297610f23565b34801561048057600080fd5b5061049461048f366004614762565b610f73565b6040516102cd9190614805565b3480156104ad57600080fd5b506102ed6104bc366004614867565b6116b9565b3480156104cd57600080fd5b506104e16104dc366004614889565b611760565b60405190151581526020016102cd565b3480156104fd57600080fd5b5061029761050c3660046148a6565b61178e565b34801561051d57600080fd5b5061029761052c366004614221565b611895565b34801561053d57600080fd5b5061019e546001600160a01b03166102b9565b34801561055c57600080fd5b5061016c5460ff166104e1565b34801561057557600080fd5b50610297610584366004614937565b6118a0565b34801561059557600080fd5b506102976105a4366004614221565b6118b5565b3480156105b557600080fd5b506102976105c436600461467d565b611901565b3480156105d557600080fd5b506105e96105e43660046149a5565b6119cc565b60408051825181526020808401519082015291810151908201526060016102cd565b34801561061757600080fd5b50610297611a1b565b34801561062c57600080fd5b506102ed61063b3660046149e4565b611a69565b34801561064c57600080fd5b506102ed60d05481565b34801561066257600080fd5b506106f7604080516080810182526000808252602082018190529181018290526060810182905250506067546040805160808101825260685461ffff8082168352620100008204811660208401526401000000008204169282019290925266010000000000009091046001600160801b03166060820152606954606a54606b546001600160a01b039094169492939192909190565b604080516001600160a01b039096168652845161ffff9081166020808901919091528601518116878301529085015116606080870191909152909301516001600160801b0316608085015260a084019190915260c083015260e0820152610100016102cd565b34801561076957600080fd5b506105e9610778366004614a14565b611aff565b34801561078957600080fd5b50610297610798366004614867565b611bf9565b3480156107a957600080fd5b506102ed611c3b565b6104946107c0366004614a66565b611cee565b3480156107d157600080fd5b506108e56107e0366004614889565b604080516080808201835260008083526020808401829052838501829052845160c08082018752838252818301849052818701849052606080830185905282860185905260a08084018690529681019290925263ffffffff978816845260648352928690208651808601885281546001600160a01b039081168252600183015481168286015260028301548116828a01528851958601895260039092015461ffff8082168752620100008204169486019490945264010000000084049098169684019690965260ff600160401b830481161515848301526901000000000000000000830416151593830193909352600160501b90049093169183019190915282015290565b6040805182516001600160a01b03908116825260208085015182168184015284840151821683850152606094850151805161ffff90811687860152918101519091166080808501919091529381015163ffffffff1660a08085019190915294810151151560c084015292830151151560e0830152919092015116610100820152610120016102cd565b34801561097a57600080fd5b5060d3546102b9906001600160a01b031681565b34801561099a57600080fd5b506109ae6109a9366004614889565b611e3e565b6040516102cd9190614aa7565b3480156109c757600080fd5b506102976109d636600461467d565b611edd565b3480156109e757600080fd5b5061019f546001600160a01b03166102b9565b348015610a0657600080fd5b50610a1a610a15366004614b13565b611f8e565b6040516102cd9190614b9d565b348015610a3357600080fd5b50610297610a42366004614a66565b611fbc565b348015610a5357600080fd5b506102ed610a62366004614221565b612109565b348015610a7357600080fd5b506102ed610a82366004614be1565b612193565b348015610a9357600080fd5b5061037a610aa2366004614c0d565b6121aa565b348015610ab357600080fd5b5061037a610ac2366004614c32565b612248565b348015610ad357600080fd5b506102ed610ae2366004614c7d565b61229d565b61019f546001600160a01b03163314801590610b0f575061019e546001600160a01b03163314155b15610b2d57604051636bd1573560e11b815260040160405180910390fd5b836068610b3a8282614cdc565b5050606a839055606b82905560698190556040517f9b7ffeda0929d0ea3dfe5fb734043c56bf81827477ac95216f2b700fb921f03f90610b81908690869086908690614d99565b60405180910390a150505050565b61019f546001600160a01b03163314801590610bb7575061019e546001600160a01b03163314155b15610bd557604051636bd1573560e11b815260040160405180910390fd5b63ffffffff821660009081526064602052604090208190600301610bf98282614e6b565b9050507ff924257f2f033f654a9c9dab9dc1725c901932a7187872fda504e76a9b6412de8282604051610c2d929190614f4a565b60405180910390a15050565b61016c5460ff1615610c665760405162461bcd60e51b8152600401610c5d90614fee565b60405180910390fd5b6000610c71846122fa565b9050610c7f84828585612340565b50505050565b600080610c9561016c5460ff1690565b15610cb25760405162461bcd60e51b8152600401610c5d90614fee565b6000610cbd866122fa565b9050610ccc8186866001612449565b9250925050935093915050565b61016c5460ff1615610cfd5760405162461bcd60e51b8152600401610c5d90614fee565b6000610d08846122fa565b9050610c7f848285856001612613565b60d2546001600160a01b03163314610d43576040516385734f3160e01b815260040160405180910390fd5b6000610d63610d55602084018461467d565b6001600160a01b031661272b565b63ffffffff8116600090815260646020526040902054909150610d8e906001600160a01b0316612739565b610d9a57610d9a615018565b63ffffffff811660009081526064602052604090208290610dbb828261504e565b9050507ff924257f2f033f654a9c9dab9dc1725c901932a7187872fda504e76a9b6412de8183606001604051610c2d929190614f4a565b600081815260d16020526040808220905163a0ba775760e01b81526004810191909152606460248201528190606090819073824E51130520A05cC91Ed2136aE9B4eFfc48Aab49063a0ba775790604401600060405180830381865af4158015610e5f573d6000803e3d6000fd5b505050506040513d6000823e601f3d908101601f19168201604052610e879190810190615389565b93509350935093509193509193565b6000806000610ead846001600160a01b031661272b565b9050610eba60648261274b565b9250610ec76064826127e1565b915050915091565b61019f546001600160a01b03163314801590610ef7575061019e546001600160a01b03163314155b15610f1557604051636bd1573560e11b815260040160405180910390fd5b610f1f82826127fe565b5050565b61019f546001600160a01b03163314801590610f4b575061019e546001600160a01b03163314155b15610f6957604051636bd1573560e11b815260040160405180910390fd5b610f716129c2565b565b6060816001600160401b03811115610f8d57610f8d6142c5565b604051908082528060200260200182016040528015610fc057816020015b6060815260200190600190039081610fab5790505b5090506000610fce856122fa565b90506000805b848110156115cc576000868683818110610ff057610ff061548f565b905060200281019061100291906154a5565b6110109060208101906154c5565b6007811115611021576110216144c6565b14156110805760008087878481811061103c5761103c61548f565b905060200281019061104e91906154a5565b61105c9060208101906154e6565b8101906110699190614be1565b9150915061107989868484612340565b50506115ba565b60018686838181106110945761109461548f565b90506020028101906110a691906154a5565b6110b49060208101906154c5565b60078111156110c5576110c56144c6565b141561111f576000808787848181106110e0576110e061548f565b90506020028101906110f291906154a5565b6111009060208101906154e6565b81019061110d9190614be1565b91509150611079898684846000612613565b60028686838181106111335761113361548f565b905060200281019061114591906154a5565b6111539060208101906154c5565b6007811115611164576111646144c6565b14156111c357600086868381811061117e5761117e61548f565b905060200281019061119091906154a5565b61119e9060208101906154e6565b8101906111ab9190614221565b90506111b984826000612a57565b60019250506115ba565b60038686838181106111d7576111d761548f565b90506020028101906111e991906154a5565b6111f79060208101906154c5565b6007811115611208576112086144c6565b14156112b2576000808787848181106112235761122361548f565b905060200281019061123591906154a5565b6112439060208101906154e6565b810190611250919061552c565b915091506000806112648785856000612449565b6040805160208101849052908101829052919350915060600160405160208183030381529060405288868151811061129e5761129e61548f565b6020026020010181905250505050506115ba565b60048686838181106112c6576112c661548f565b90506020028101906112d891906154a5565b6112e69060208101906154c5565b60078111156112f7576112f76144c6565b1415611353576000808787848181106113125761131261548f565b905060200281019061132491906154a5565b6113329060208101906154e6565b81019061133f919061560d565b915091506000806112648785856000612ba4565b60058686838181106113675761136761548f565b905060200281019061137991906154a5565b6113879060208101906154c5565b6007811115611398576113986144c6565b1415611402576000806000808989868181106113b6576113b661548f565b90506020028101906113c891906154a5565b6113d69060208101906154e6565b8101906113e3919061563b565b93509350935093506113f88b85858585612cb2565b50505050506115ba565b60068686838181106114165761141661548f565b905060200281019061142891906154a5565b6114369060208101906154c5565b6007811115611447576114476144c6565b141561145e57611458876000612db7565b506115ba565b60078686838181106114725761147261548f565b905060200281019061148491906154a5565b6114929060208101906154c5565b60078111156114a3576114a36144c6565b141561156e5760008060008888858181106114c0576114c061548f565b90506020028101906114d291906154a5565b6114e09060208101906154e6565b8101906114ed919061568c565b60008d815260d16020526040808220858352908220949750929550909350611519929085908590612f26565b60408051825160208083019190915283015181830152910151606082015260800160405160208183030381529060405287858151811061155b5761155b61548f565b60200260200101819052505050506115ba565b8585828181106115805761158061548f565b905060200281019061159291906154a5565b6115a09060208101906154c5565b604051633164e52160e11b8152600401610c5d91906156ce565b806115c4816156fe565b915050610fd4565b50801561163e5760405163651524ed60e01b8152600481018390526064602482015273824E51130520A05cC91Ed2136aE9B4eFfc48Aab49063651524ed9060440160006040518083038186803b15801561162557600080fd5b505af4158015611639573d6000803e3d6000fd5b505050505b60405163998c533560e01b8152600481018390526001602482015260646044820181905273824E51130520A05cC91Ed2136aE9B4eFfc48Aab49163998c5335910160006040518083038186803b15801561169757600080fd5b505af41580156116ab573d6000803e3d6000fd5b5050505050505b9392505050565b60008180156117425760006116cc61306a565b5a6116d79190615719565b90506116e36044613122565b6116ed8585612db7565b925060006116f961306a565b5a6117049190615719565b61170e9083615731565b90508083111561173b57604051634010928f60e01b81526004810184905260248101829052604401610c5d565b5050611759565b61174c6044613122565b6117568484612db7565b91505b5092915050565b63ffffffff8116600090815260646020526040812054611788906001600160a01b0316612739565b92915050565b61013954610100900460ff166117ab576101395460ff16156117af565b303b155b6117cb5760405162461bcd60e51b8152600401610c5d90615748565b61013954610100900460ff161580156117ef57610139805461ffff19166101011790555b60d280546001600160a01b03199081166001600160a01b038a81169190911790925560668054821689841617905560d38054821687841617905560d48054821685841617905560678054909116858316179055604080516060810182529187168252603c60208301526001908201526118699087906127fe565b61187161314f565b6118796131d9565b801561188c57610139805461ff00191690555b50505050505050565b610f1f816000612db7565b6118ae848484846000612cb2565b5050505050565b61019f546001600160a01b031633148015906118dd575061019e546001600160a01b03163314155b156118fb57604051636bd1573560e11b815260040160405180910390fd5b6101a055565b61019f546001600160a01b03163314801590611929575061019e546001600160a01b03163314155b1561194757604051636bd1573560e11b815260040160405180910390fd5b6001600160a01b03811661196e5760405163d92e233d60e01b815260040160405180910390fd5b61019f546040516001600160a01b038084169216907f39355f2f5c8206286978f443aa8126bbd29fa09c53c04569502647f3a59c8cb290600090a361019f80546001600160a01b0319166001600160a01b0392909216919091179055565b6119f060405180606001604052806000815260200160008152602001600081525090565b600085815260d16020526040808220868352908220611a129286908690612f26565b95945050505050565b61019f546001600160a01b03163314801590611a43575061019e546001600160a01b03163314155b15611a6157604051636bd1573560e11b815260040160405180910390fd5b610f7161320e565b600082815260d160205260408082209051637188a1ed60e01b8152600481019190915263ffffffff8316602482015260646044820181905273824E51130520A05cC91Ed2136aE9B4eFfc48Aab491637188a1ed9101602060405180830381865af4158015611adb573d6000803e3d6000fd5b505050506040513d601f19601f820116820180604052508101906116b29190615796565b611b2360405180606001604052806000815260200160008152602001600081525090565b818015611bc1576000611b3461306a565b5a611b3f9190615719565b9050611b4b60a4613122565b600088815260d160205260408082208983529120611b6c9190888888612f26565b92506000611b7861306a565b5a611b839190615719565b611b8d9083615731565b905080831115611bba57604051634010928f60e01b81526004810184905260248101829052604401610c5d565b5050611bef565b611bcb60a4613122565b600087815260d160205260408082208883529120611bec9190878787612f26565b91505b5095945050505050565b61016c5460ff1615611c1d5760405162461bcd60e51b8152600401610c5d90614fee565b6000611c28836122fa565b9050611c3681836001612a57565b505050565b6000611c4a61016c5460ff1690565b15611c675760405162461bcd60e51b8152600401610c5d90614fee565b5060d054611c76816001615719565b60d055600081815260d160209081526040918290206bffffffffffffffffffffffff1933600160601b8102919091166bffffffffffffffffffffffff861617825592518481529092917f7325fb14450d3e5eb288c620b4ff1d6b43a41b33b4a4f143ae88cd4c12f99ea3910160405180910390a25090565b6060816001600160401b03811115611d0857611d086142c5565b604051908082528060200260200182016040528015611d3b57816020015b6060815260200190600190039081611d265790505b50905060005b828110156117595760008030868685818110611d5f57611d5f61548f565b9050602002810190611d7191906154e6565b604051611d7f9291906157af565b600060405180830381855af49150503d8060008114611dba576040519150601f19603f3d011682016040523d82523d6000602084013e611dbf565b606091505b509150915081611e0b57604481511015611dd857600080fd5b60048101905080806020019051810190611df291906157bf565b60405162461bcd60e51b8152600401610c5d9190615852565b80848481518110611e1e57611e1e61548f565b602002602001018190525050508080611e36906156fe565b915050611d41565b611e7160408051808201825260008082528251606081018452818152602081810183905293810191909152909182015290565b5063ffffffff9081166000908152606560209081526040918290208251808401845281546001600160a01b03908116825284516060810186526001909301549081168352600160a01b810490951682840152600160c01b90940460ff1615159281019290925282015290565b61019e546001600160a01b03163314611f0957604051636bd1573560e11b815260040160405180910390fd5b6001600160a01b038116611f305760405163d92e233d60e01b815260040160405180910390fd5b61019e546040516001600160a01b038084169216907f5f56bee8cffbe9a78652a74a60705edede02af10b0bbb888ca44b79a0d42ce8090600090a361019e80546001600160a01b0319166001600160a01b0392909216919091179055565b606060208251028201602001602083015b81811015611fb4578051548152602001611f9f565b509192915050565b6000805b828110156120df576000848483818110611fdc57611fdc61548f565b9050602002016020810190611ff1919061467d565b6001600160a01b0316635e622abc6040518163ffffffff1660e01b81526004016020604051808303816000875af1158015612030573d6000803e3d6000fd5b505050506040513d601f19601f820116820180604052508101906120549190615796565b90508484838181106120685761206861548f565b905060200201602081019061207d919061467d565b6001600160a01b03167fa087657e3d85162090ffd700fbfdf5070d816f63aa5da00063f6ffd369c8a6db826040516120b791815260200190565b60405180910390a26120c98184615719565b92505080806120d7906156fe565b915050611fc0565b50611c366120f661019f546001600160a01b031690565b6066546001600160a01b03169083613268565b600081815260d16020526040808220905163625915c360e11b815260048101919091526064602482015273824E51130520A05cC91Ed2136aE9B4eFfc48Aab49063c4b22b8690604401602060405180830381865af415801561216f573d6000803e3d6000fd5b505050506040513d601f19601f820116820180604052508101906117889190615796565b600061219d611c3b565b9050611788818484610c39565b600082815260d16020526040808220905163031b5fcd60e21b815260048101919091528215156024820152606460448201819052829173824E51130520A05cC91Ed2136aE9B4eFfc48Aab491630c6d7f3491016040805180830381865af4158015612219573d6000803e3d6000fd5b505050506040513d601f19601f8201168201806040525081019061223d9190615865565b909590945092505050565b60008061225861016c5460ff1690565b156122755760405162461bcd60e51b8152600401610c5d90614fee565b6000612280866122fa565b9050610ccc818661229636889003880188615889565b6001612ba4565b60008180156122d45760006122b061306a565b5a6122bb9190615719565b90506122c760a4613122565b611b6c8888888888612cb2565b6122de60a4613122565b611bec8787878787612cb2565b6001600160a01b03163b151590565b600081815260d1602052604090208054600160601b90046001600160a01b0316331461233b57604051630504a20d60e01b8152336004820152602401610c5d565b919050565b61016c5460ff16156123645760405162461bcd60e51b8152600401610c5d90614fee565b60006123718360006132cb565b805490915061238b906001600160a01b031633308561335a565b604051637ef9c64360e11b81526004810185905263ffffffff841660248201526044810183905273824E51130520A05cC91Ed2136aE9B4eFfc48Aab49063fdf38c869060640160006040518083038186803b1580156123e957600080fd5b505af41580156123fd573d6000803e3d6000fd5b505050508263ffffffff16857f8ad78786fd90bf16daca318ca19c5c1f8b0e4b6a666538a76d128092d48514c28460405161243a91815260200190565b60405180910390a35050505050565b60008061245961016c5460ff1690565b156124765760405162461bcd60e51b8152600401610c5d90614fee565b61247f85613392565b60408051630a067b0f60e11b81526004810188905263ffffffff871660248201528551604482015260208601516001600160a01b031660648083019190915291860151151560848201526060860151151560a482015260c481019190915283151560e482015273824E51130520A05cC91Ed2136aE9B4eFfc48Aab49063140cf61e90610104016040805180830381865af4158015612521573d6000803e3d6000fd5b505050506040513d601f19601f820116820180604052508101906125459190615865565b9092509050600061255582613415565b606b5490915081101561257e576040516312b6b5cd60e11b815260048101829052602401610c5d565b60208501516001600160a01b03161580159061259c57508460600151155b1561260957846040015180156125c3575084516125b890613415565b6125c183613415565b145b806125ec575084604001511580156125ec575084516125e190613415565b6125ea84613415565b145b612609576040516307a1db0760e01b815260040160405180910390fd5b5094509492505050565b61016c5460ff16156126375760405162461bcd60e51b8152600401610c5d90614fee565b60006126448460016132cb565b6040516362b3b6bb60e11b81526004810187905263ffffffff8616602482015260448101859052606480820152831515608482015290915073824E51130520A05cC91Ed2136aE9B4eFfc48Aab49063c5676d769060a40160006040518083038186803b1580156126b357600080fd5b505af41580156126c7573d6000803e3d6000fd5b505082546126e292506001600160a01b031690503385613268565b8363ffffffff16867fe0c7ec5663c36969e5662da59bc1ede9566e08300e34eb2da7746d9f262c5d808560405161271b91815260200190565b60405180910390a3505050505050565b600063ffffffff8216611788565b60006001600160a01b03821615611788565b63ffffffff8181166000908152602084905260408082206003810154915163dd86c10160e01b8152640100000000830490941660048501529192600160501b9091046001600160a01b03169063dd86c10190602401602060405180830381865afa1580156127bd573d6000803e3d6000fd5b505050506040513d601f19601f820116820180604052508101906117569190615796565b60006116b26127f08484613430565b6001600160a01b0316613475565b6000612812836001600160a01b031661272b565b9050612826836001600160a01b0316612739565b15612847576040516376d8a93160e01b815260006004820152602401610c5d565b63ffffffff811660009081526065602052604090205461286f906001600160a01b0316612739565b1580156128a8575063ffffffff8082166000908152606560205260409020546128a6916001600160a01b039091169085906134e216565b155b156128f15763ffffffff81166000908152606560205260409081902054905163a5d4d0b560e01b81526001600160a01b0380861660048301529091166024820152604401610c5d565b6040805180820182526001600160a01b038581168252602080830186815263ffffffff868116600090815260658452869020945185546001600160a01b03191690851617855590518051600190950180549382015191870151959094166001600160c01b031990931692909217600160a01b92909116919091021760ff60c01b1916600160c01b92151592909202919091179055517f52983c04d8ccd4808cd0fcb24e6e48106ecb41e803d6270c6c94a15e3ebd08d2906129b590859085906158a5565b60405180910390a1505050565b61016c5460ff16612a0c5760405162461bcd60e51b815260206004820152601460248201527314185d5cd8589b194e881b9bdd081c185d5cd95960621b6044820152606401610c5d565b61016c805460ff191690557f5db9ee0a495bf2e6ff9c91a7834c1ba4fdd244a5e8aa4e537bd38aeae4b073aa335b6040516001600160a01b03909116815260200160405180910390a1565b61016c5460ff1615612a7b5760405162461bcd60e51b8152600401610c5d90614fee565b81612a9957604051631f2a200560e01b815260040160405180910390fd5b60405163d25c4a6f60e01b815260048101849052602481018390526064604482018190528215159082015273824E51130520A05cC91Ed2136aE9B4eFfc48Aab49063d25c4a6f9060840160006040518083038186803b158015612afb57600080fd5b505af4158015612b0f573d6000803e3d6000fd5b505050506000821315612b3957606654612b34906001600160a01b031633308561335a565b612b59565b612b5933612b46846158e7565b6066546001600160a01b03169190613268565b82546040518381526bffffffffffffffffffffffff909116907f34e55ef9f5cf05f9a666ce27e7dcee31bb2a4e21eccaa3ea58a8358117b1547a9060200160405180910390a2505050565b600080612bb461016c5460ff1690565b15612bd15760405162461bcd60e51b8152600401610c5d90614fee565b612bda85613392565b60608401516001600160a01b031615612c0057612c0085856060015186608001516134f8565b60405163c27789d160e01b815260009073824E51130520A05cC91Ed2136aE9B4eFfc48Aab49063c27789d190612c43908a908a908a906064908b90600401615904565b606060405180830381865af4158015612c60573d6000803e3d6000fd5b505050506040513d601f19601f82011682018060405250810190612c8491906159a8565b606b549295509093509150811015612609576040516312b6b5cd60e11b815260048101829052602401610c5d565b6000612cc161016c5460ff1690565b15612cde5760405162461bcd60e51b8152600401610c5d90614fee565b600086815260d160205260409020612cf586613392565b612cfe8361358a565b606a54612d0b9190615719565b604051637022478560e11b81526004810183905263ffffffff88166024820152600287810b604483015286900b6064808301919091526084820183905260a482015290925073824E51130520A05cC91Ed2136aE9B4eFfc48Aab49063e0448f0a9060c40160006040518083038186803b158015612d8757600080fd5b505af4158015612d9b573d6000803e3d6000fd5b5050606654611bef92506001600160a01b031690503384613268565b6000612dc661016c5460ff1690565b15612de35760405162461bcd60e51b8152600401610c5d90614fee565b600083815260d1602052604081209073824E51130520A05cC91Ed2136aE9B4eFfc48Aab46322e440c483612e168761358a565b6040516001600160e01b031960e085901b16815260048101929092526024820152606460448201819052016040805180830381865af4158015612e5d573d6000803e3d6000fd5b505050506040513d601f19601f82011682018060405250810190612e819190615865565b90935090506000612e9282856159d6565b905060008413612eb85760405163ef37dcc760e01b815260048101859052602401610c5d565b606654612ecf906001600160a01b03163386613268565b612ed8826136a1565b6040805182815260208101869052908101839052339087907fcfb6806c7e1accb0c7e5835aded9e714525c0588e5609d5ae1a3c8f6b68586a79060600160405180910390a350505092915050565b612f4a60405180606001604052806000815260200160008152602001600081525090565b61016c5460ff1615612f6e5760405162461bcd60e51b8152600401610c5d90614fee565b6127108361ffff161115612f95576040516348d69f3560e01b815260040160405180910390fd5b612f9e84613392565b600073824E51130520A05cC91Ed2136aE9B4eFfc48Aab4632a2d44e587898789612fc78961358a565b6040516001600160e01b031960e088901b1681526004810195909552602485019390935261ffff909116604484015263ffffffff16606483810191909152608483019190915260a4820152600160c482015260e401608060405180830381865af4158015613039573d6000803e3d6000fd5b505050506040513d601f19601f8201168201806040525081019061305d9190615a17565b92509050611bef816136a1565b60408051600481526024810182526020810180516001600160e01b031663a94597ff60e01b1790529051600091829182916064916130a89190615a70565b600060405180830381855afa9150503d80600081146130e3576040519150601f19603f3d011682016040523d82523d6000602084013e6130e8565b606091505b50915091508115806130f957508051155b156131075760009250505090565b8080602001905181019061311b9190615796565b9250505090565b3681101561314c57604051634219202560e01b815236600482015260248101829052604401610c5d565b50565b61013954610100900460ff1661316c576101395460ff1615613170565b303b155b61318c5760405162461bcd60e51b8152600401610c5d90615748565b61013954610100900460ff161580156131b057610139805461ffff19166101011790555b6131b861372d565b336131c38180613755565b50801561314c57610139805461ff001916905550565b61013954610100900460ff166132015760405162461bcd60e51b8152600401610c5d90615a82565b61016c805460ff19169055565b61016c5460ff16156132325760405162461bcd60e51b8152600401610c5d90614fee565b61016c805460ff191660011790557f62e78cea01bee320cd4e420270b5ea74000d11b0c9f74754ebdbfc544b05a258612a3a3390565b6040516001600160a01b038316602482015260448101829052611c3690849063a9059cbb60e01b906064015b60408051601f198184030181529190526020810180516001600160e01b03166001600160e01b031990931692909217909152613861565b63ffffffff8216600090815260656020526040902080546132f4906001600160a01b0316612739565b1561331a57604051636b9c1a9d60e01b815263ffffffff84166004820152602401610c5d565b8115801561333457506001810154600160c01b900460ff16155b156117885760405163122a1f1960e31b815263ffffffff84166004820152602401610c5d565b6040516001600160a01b0380851660248301528316604482015260648101829052610c7f9085906323b872dd60e01b90608401613294565b63ffffffff8116600090815260646020526040902080546133bb906001600160a01b0316612739565b156133e15760405163b842f5a760e01b815263ffffffff83166004820152602401610c5d565b6003810154600160401b900460ff16610f1f5760405163587ee90160e11b815263ffffffff83166004820152602401610c5d565b600080821361342c57613427826158e7565b611788565b5090565b63ffffffff80821660009081526020849052604081206003810154600182015492939192611756926001600160a01b0390911691640100000000900481169061393316565b60006401000276a36001600160a01b03831610806134b0575073fffd8963efd1fc6a506488495d951d5263988d266001600160a01b03831610155b156134d957604051635d236c4560e01b81526001600160a01b0383166004820152602401610c5d565b61178882613954565b60006001600160a01b03808416908316146116b2565b600061350560648561396e565b90506000836001600160a01b0316826001600160a01b0316116135315761352c8285615acd565b61353b565b61353b8483615acd565b905061271061354e8561ffff8616615af5565b6135589190615b3a565b6001600160a01b0316816001600160a01b031611156118ae576040516307a1db0760e01b815260040160405180910390fd5b60003a6101a0548111156135c0576101a054604051638dfe587d60e01b8152610c5d918391600401918252602082015260400190565b8215806135d6575060d4546001600160a01b0316155b156135e4576000915061369b565b6000333214156135f9576135f6613999565b90505b60006136053a86615b60565b60d45460405163dd86c10160e01b815261012c60048201529192506000916001600160a01b039091169063dd86c10190602401602060405180830381865afa158015613655573d6000803e3d6000fd5b505050506040513d601f19601f820116820180604052508101906136799190615796565b905061369581600160801b61368e8587615719565b91906139d7565b94505050505b50919050565b60008113156136c75760d35460665461314c916001600160a01b03918216911683613268565b60d3546001600160a01b031663379607f56136e1836158e7565b6040518263ffffffff1660e01b81526004016136ff91815260200190565b600060405180830381600087803b15801561371957600080fd5b505af11580156118ae573d6000803e3d6000fd5b61013954610100900460ff16610f715760405162461bcd60e51b8152600401610c5d90615a82565b61013954610100900460ff16613772576101395460ff1615613776565b303b155b6137925760405162461bcd60e51b8152600401610c5d90615748565b61013954610100900460ff161580156137b657610139805461ffff19166101011790555b61019e80546001600160a01b0319166001600160a01b0385169081179091556040516000907f5f56bee8cffbe9a78652a74a60705edede02af10b0bbb888ca44b79a0d42ce80908290a361019f80546001600160a01b0319166001600160a01b0384169081179091556040516000907f39355f2f5c8206286978f443aa8126bbd29fa09c53c04569502647f3a59c8cb2908290a38015611c3657610139805461ff0019169055505050565b60006138b6826040518060400160405280602081526020017f5361666545524332303a206c6f772d6c6576656c2063616c6c206661696c6564815250856001600160a01b0316613a859092919063ffffffff16565b805190915015611c3657808060200190518101906138d49190615b7f565b611c365760405162461bcd60e51b815260206004820152602a60248201527f5361666545524332303a204552433230206f7065726174696f6e20646964206e6044820152691bdd081cdd58d8d9595960b21b6064820152608401610c5d565b6000806139496001600160a01b03851684613a9c565b905061175681613cb8565b60006117886001600160a01b03831680600160401b6139d7565b63ffffffff81166000908152602083905260408120600101546116b2906001600160a01b0316613feb565b60408051600481526024810182526020810180516001600160e01b031663637bef0760e11b1790529051600091829182916064916130a89190615a70565b600080806000198587098587029250828110838203039150508060001415613a115760008411613a0657600080fd5b5082900490506116b2565b808411613a1d57600080fd5b600084868809851960019081018716968790046003810260029081188083028203028083028203028083028203028083028203028083028203029182029003026000889003889004909101858311909403939093029303949094049190911702949350505050565b6060613a948484600085614075565b949350505050565b600063ffffffff8216613ac557604051636eb711b760e11b815260006004820152602401610c5d565b6040805160028082526060820183526000926020830190803683370190505090508281600081518110613afa57613afa61548f565b602002602001019063ffffffff16908163ffffffff1681525050600081600181518110613b2957613b2961548f565b63ffffffff9092166020928302919091019091015260405163883bdbfd60e01b81526001600160a01b0385169063883bdbfd90613b6a908490600401615b9c565b600060405180830381865afa925050508015613ba857506040513d6000823e601f3d908101601f19168201604052613ba59190810190615c3e565b60015b613c1d57836001600160a01b0316633850c7bd6040518163ffffffff1660e01b815260040160e060405180830381865afa158015613bea573d6000803e3d6000fd5b505050506040513d601f19601f82011682018060405250810190613c0e9190615d09565b50939650611759945050505050565b600082600081518110613c3257613c3261548f565b602002602001015183600181518110613c4d57613c4d61548f565b6020026020010151613c5f9190615dab565b90506000613c7363ffffffff881683615dfb565b905060008260060b128015613c995750613c9363ffffffff881683615e39565b60060b15155b15613cac5780613ca881615e5b565b9150505b94506117889350505050565b60008060008360020b12613ccf578260020b613cd7565b8260020b6000035b9050620d89e8811115613d105760405162461bcd60e51b81526020600482015260016024820152601560fa1b6044820152606401610c5d565b600060018216613d2457600160801b613d36565b6ffffcb933bd6fad37aa2d162d1a5940015b70ffffffffffffffffffffffffffffffffff1690506002821615613d6a576ffff97272373d413259a46990580e213a0260801c5b6004821615613d89576ffff2e50f5f656932ef12357cf3c7fdcc0260801c5b6008821615613da8576fffe5caca7e10e4e61c3624eaa0941cd00260801c5b6010821615613dc7576fffcb9843d60f6159c9db58835c9266440260801c5b6020821615613de6576fff973b41fa98c081472e6896dfb254c00260801c5b6040821615613e05576fff2ea16466c96a3843ec78b326b528610260801c5b6080821615613e24576ffe5dee046a99a2a811c461f1969c30530260801c5b610100821615613e44576ffcbe86c7900a88aedcffc83b479aa3a40260801c5b610200821615613e64576ff987a7253ac413176f2b074cf7815e540260801c5b610400821615613e84576ff3392b0822b70005940c7a398e4b70f30260801c5b610800821615613ea4576fe7159475a2c29b7443b29c7fa6e889d90260801c5b611000821615613ec4576fd097f3bdfd2022b8845ad8f792aa58250260801c5b612000821615613ee4576fa9f746462d870fdf8a65dc1f90e061e50260801c5b614000821615613f04576f70d869a156d2a1b890bb3df62baf32f70260801c5b618000821615613f24576f31be135f97d08fd981231505542fcfa60260801c5b62010000821615613f45576f09aa508b5b7a84e1c677de54f3e99bc90260801c5b62020000821615613f65576e5d6af8dedb81196699c329225ee6040260801c5b62040000821615613f84576d2216e584f5fa1ea926041bedfe980260801c5b62080000821615613fa1576b048a170391f7dc42444e8fa20260801c5b60008460020b1315613fc2578060001981613fbe57613fbe615b24565b0490505b640100000000810615613fd6576001613fd9565b60005b60ff16602082901c0192505050919050565b600080826001600160a01b0316633850c7bd6040518163ffffffff1660e01b815260040160e060405180830381865afa15801561402c573d6000803e3d6000fd5b505050506040513d601f19601f820116820180604052508101906140509190615d09565b509496509294505050506001600160a01b0383161515905061369b576116b281613cb8565b6060824710156140d65760405162461bcd60e51b815260206004820152602660248201527f416464726573733a20696e73756666696369656e742062616c616e636520666f6044820152651c8818d85b1b60d21b6064820152608401610c5d565b6001600160a01b0385163b61412d5760405162461bcd60e51b815260206004820152601d60248201527f416464726573733a2063616c6c20746f206e6f6e2d636f6e74726163740000006044820152606401610c5d565b600080866001600160a01b031685876040516141499190615a70565b60006040518083038185875af1925050503d8060008114614186576040519150601f19603f3d011682016040523d82523d6000602084013e61418b565b606091505b509150915061419b8282866141a6565b979650505050505050565b606083156141b55750816116b2565b8251156141c55782518084602001fd5b8160405162461bcd60e51b8152600401610c5d9190615852565b60008060008084860360e08112156141f657600080fd5b608081121561420457600080fd5b5093956080870135955060a0870135945060c08701359350915050565b60006020828403121561423357600080fd5b5035919050565b63ffffffff8116811461314c57600080fd5b60008082840360e081121561426057600080fd5b833561426b8161423a565b925060c0601f198201121561427f57600080fd5b506020830190509250929050565b6000806000606084860312156142a257600080fd5b8335925060208401356142b48161423a565b929592945050506040919091013590565b634e487b7160e01b600052604160045260246000fd5b604051606081016001600160401b03811182821017156142fd576142fd6142c5565b60405290565b60405160a081016001600160401b03811182821017156142fd576142fd6142c5565b60405161012081016001600160401b03811182821017156142fd576142fd6142c5565b604080519081016001600160401b03811182821017156142fd576142fd6142c5565b60405160e081016001600160401b03811182821017156142fd576142fd6142c5565b604051601f8201601f191681016001600160401b03811182821017156143b4576143b46142c5565b604052919050565b6001600160a01b038116811461314c57600080fd5b803561233b816143bc565b801515811461314c57600080fd5b803561233b816143dc565b60006080828403121561440757600080fd5b604051608081018181106001600160401b0382111715614429576144296142c5565b604052823581529050806020830135614441816143bc565b60208201526040830135614454816143dc565b60408201526060830135614467816143dc565b6060919091015292915050565b600080600060c0848603121561448957600080fd5b83359250602084013561449b8161423a565b91506144aa85604086016143f5565b90509250925092565b6000610120828403121561369b57600080fd5b634e487b7160e01b600052602160045260246000fd5b600381106144ec576144ec6144c6565b9052565b6000608080830160018060a01b038089168552602088818701526040848188015283895180865260a089019150838b01955060005b8181101561454c578651805187168452850151858401529584019591830191600101614525565b5050878103606089015288518082528382019550600581901b82018401848b0160005b8381101561466957848303601f19018952815180518916845287810151888501528681015187850152606080820151908501528a015160a08b850181905281519085018190529088019060009060c08601905b808310156146545783516145d78382516144dc565b8b8101518060020b8d850152508a81015160020b8b840152606081015161460960608501826001600160801b03169052565b508e8101518f84015260a081015160a084015260c081015160c084015260e081015160e084015261010080820151818501525050610120820191508a840193506001830192506145c2565b509a89019a945050509086019060010161456f565b50909e9d5050505050505050505050505050565b60006020828403121561468f57600080fd5b81356116b2816143bc565b60008082840360808112156146ae57600080fd5b83356146b9816143bc565b92506060601f19820112156146cd57600080fd5b506146d66142db565b60208401356146e4816143bc565b815260408401356146f48161423a565b60208201526060840135614707816143dc565b6040820152919491935090915050565b60008083601f84011261472957600080fd5b5081356001600160401b0381111561474057600080fd5b6020830191508360208260051b850101111561475b57600080fd5b9250929050565b60008060006040848603121561477757600080fd5b8335925060208401356001600160401b0381111561479457600080fd5b6147a086828701614717565b9497909650939450505050565b60005b838110156147c85781810151838201526020016147b0565b83811115610c7f5750506000910152565b600081518084526147f18160208601602086016147ad565b601f01601f19169290920160200192915050565b6000602080830181845280855180835260408601915060408160051b870101925083870160005b8281101561485a57603f198886030184526148488583516147d9565b9450928501929085019060010161482c565b5092979650505050505050565b6000806040838503121561487a57600080fd5b50508035926020909101359150565b60006020828403121561489b57600080fd5b81356116b28161423a565b60008060008060008060c087890312156148bf57600080fd5b86356148ca816143bc565b955060208701356148da816143bc565b945060408701356148ea816143bc565b935060608701356148fa816143bc565b9250608087013561490a816143bc565b915060a087013561491a816143bc565b809150509295509295509295565b8060020b811461314c57600080fd5b6000806000806080858703121561494d57600080fd5b84359350602085013561495f8161423a565b9250604085013561496f81614928565b9150606085013561497f81614928565b939692955090935050565b61ffff8116811461314c57600080fd5b803561233b8161498a565b600080600080608085870312156149bb57600080fd5b843593506020850135925060408501356149d48161423a565b9150606085013561497f8161498a565b600080604083850312156149f757600080fd5b823591506020830135614a098161423a565b809150509250929050565b600080600080600060a08688031215614a2c57600080fd5b85359450602086013593506040860135614a458161423a565b92506060860135614a558161498a565b949793965091946080013592915050565b60008060208385031215614a7957600080fd5b82356001600160401b03811115614a8f57600080fd5b614a9b85828601614717565b90969095509350505050565b81516001600160a01b0316815260208083015160808301916117599084018280516001600160a01b0316825260208082015163ffffffff16908301526040908101511515910152565b60006001600160401b03821115614b0957614b096142c5565b5060051b60200190565b60006020808385031215614b2657600080fd5b82356001600160401b03811115614b3c57600080fd5b8301601f81018513614b4d57600080fd5b8035614b60614b5b82614af0565b61438c565b81815260059190911b82018301908381019087831115614b7f57600080fd5b928401925b8284101561419b57833582529284019290840190614b84565b6020808252825182820181905260009190848201906040850190845b81811015614bd557835183529284019291840191600101614bb9565b50909695505050505050565b60008060408385031215614bf457600080fd5b8235614bff8161423a565b946020939093013593505050565b60008060408385031215614c2057600080fd5b823591506020830135614a09816143dc565b6000806000838503610120811215614c4957600080fd5b843593506020850135614c5b8161423a565b925060e0603f1982011215614c6f57600080fd5b506040840190509250925092565b600080600080600060a08688031215614c9557600080fd5b853594506020860135614ca78161423a565b93506040860135614cb781614928565b92506060860135614a5581614928565b6001600160801b038116811461314c57600080fd5b8135614ce78161498a565b815461ffff191661ffff8216178255506020820135614d058161498a565b815463ffff00001916601082901b63ffff000016178255506040820135614d2b8161498a565b815465ffff000000008260201b1691508165ffff000000001982161783556060840135614d5781614cc7565b75ffffffffffffffffffffffffffffffff0000000000008160301b168375ffffffffffffffffffffffffffffffffffff00000000198416171784555050505050565b60e081018535614da88161498a565b61ffff9081168352602087013590614dbf8261498a565b9081166020840152604087013590614dd68261498a565b1660408301526060860135614dea81614cc7565b6001600160801b03166060830152608082019490945260a081019290925260c090910152919050565b60008135611788816143dc565b60008135611788816143bc565b80547fffff0000000000000000000000000000000000000000ffffffffffffffffffff1660509290921b600160501b600160f01b0316919091179055565b8135614e768161498a565b815461ffff191661ffff8216178255506020820135614e948161498a565b815463ffff00001916601082901b63ffff000016178255506040820135614eba8161423a565b815467ffffffff000000008260201b1691508167ffffffff000000001982161783556060840135614eea816143dc565b68ffffffffff00000000199190911690911790151560401b60ff60401b161781556080820135614f19816143dc565b815460ff60481b191681151560481b60ff60481b161782555060a0820135614f40816143bc565b611c368183614e2d565b63ffffffff838116825260e08201908335614f648161498a565b61ffff808216602086015260208601359150614f7f8261498a565b16604084810191909152840135614f958161423a565b16606083810191909152830135614fab816143dc565b8015156080840152506080830135614fc2816143dc565b80151560a084015250614fd760a084016143d1565b6001600160a01b03811660c0840152509392505050565b60208082526010908201526f14185d5cd8589b194e881c185d5cd95960821b604082015260600190565b634e487b7160e01b600052600160045260246000fd5b80546001600160a01b0319166001600160a01b0392909216919091179055565b8135615059816143bc565b615063818361502e565b506020820135615072816143bc565b61507f816001840161502e565b50604082013561508e816143bc565b61509b816002840161502e565b506003810160608301356150ae8161498a565b815461ffff191661ffff82161782555060808301356150cc8161498a565b815463ffff00001916601082901b63ffff0000161782555060a08301356150f28161423a565b815467ffffffff000000008260201b1691508167ffffffff0000000019821617835560c0850135615122816143dc565b68ffffffffff00000000199190911690911790151560401b60ff60401b1617815561517061515260e08501614e13565b82805460ff60481b191691151560481b60ff60481b16919091179055565b611c366151806101008501614e20565b82614e2d565b6003811061314c57600080fd5b805161233b81615186565b805161233b81614928565b805161233b81614cc7565b600082601f8301126151c557600080fd5b815160206151d5614b5b83614af0565b82815260059290921b840181019181810190868411156151f457600080fd5b8286015b8481101561537e5780516001600160401b038082111561521757600080fd5b9088019060a0828b03601f1901121561522f57600080fd5b615237614303565b86830151615244816143bc565b80825250604083015187820152606083015160408201526080830151606082015260a08301518281111561527757600080fd5b8084019350508a603f84011261528c57600080fd5b86830151915061529e614b5b83614af0565b82815261012092830284016040019288820191908d8511156152bf57600080fd5b6040860195505b848610156153685780868f0312156152dd57600080fd5b6152e5614325565b6152ee87615193565b81526152fb8b880161519e565b8b82015261530b6040880161519e565b604082015261531c606088016151a9565b60608201526080870151608082015260a087015160a082015260c087015160c082015260e087015160e082015261010087015161010082015280845250898301925080860195506152c6565b50608083015250855250509183019183016151f8565b509695505050505050565b6000806000806080858703121561539f57600080fd5b84516153aa816143bc565b8094505060208086015193506040808701516001600160401b03808211156153d157600080fd5b818901915089601f8301126153e557600080fd5b81516153f3614b5b82614af0565b81815260069190911b8301850190858101908c83111561541257600080fd5b938601935b8285101561545b5785858e03121561542f5760008081fd5b615437614348565b8551615442816143bc565b8152858801518882015282529385019390860190615417565b60608c0151909850955050508084111561547457600080fd5b505050615483878288016151b4565b91505092959194509250565b634e487b7160e01b600052603260045260246000fd5b60008235603e198336030181126154bb57600080fd5b9190910192915050565b6000602082840312156154d757600080fd5b8135600881106116b257600080fd5b6000808335601e198436030181126154fd57600080fd5b8301803591506001600160401b0382111561551757600080fd5b60200191503681900382131561475b57600080fd5b60008060a0838503121561553f57600080fd5b823561554a8161423a565b915061555984602085016143f5565b90509250929050565b803561233b81615186565b600060e0828403121561557f57600080fd5b61558761436a565b9050813561559481614928565b815260208201356155a481614928565b60208201526040820135600f81900b81146155be57600080fd5b60408201526155cf606083016143d1565b60608201526155e06080830161499a565b60808201526155f160a083016143ea565b60a082015261560260c08301615562565b60c082015292915050565b600080610100838503121561562157600080fd5b823561562c8161423a565b9150615559846020850161556d565b6000806000806080858703121561565157600080fd5b843561565c8161423a565b9350602085013561566c81614928565b9250604085013561567c81614928565b9396929550929360600135925050565b6000806000606084860312156156a157600080fd5b8335925060208401356156b38161423a565b915060408401356156c38161498a565b809150509250925092565b60208101600883106156e2576156e26144c6565b91905290565b634e487b7160e01b600052601160045260246000fd5b6000600019821415615712576157126156e8565b5060010190565b6000821982111561572c5761572c6156e8565b500190565b600082821015615743576157436156e8565b500390565b6020808252602e908201527f496e697469616c697a61626c653a20636f6e747261637420697320616c72656160408201526d191e481a5b9a5d1a585b1a5e995960921b606082015260800190565b6000602082840312156157a857600080fd5b5051919050565b8183823760009101908152919050565b6000602082840312156157d157600080fd5b81516001600160401b03808211156157e857600080fd5b818401915084601f8301126157fc57600080fd5b81518181111561580e5761580e6142c5565b615821601f8201601f191660200161438c565b915080825285602082850101111561583857600080fd5b6158498160208401602086016147ad565b50949350505050565b6020815260006116b260208301846147d9565b6000806040838503121561587857600080fd5b505080516020909101519092909150565b600060e0828403121561589b57600080fd5b6116b2838361556d565b6001600160a01b0383168152608081016116b2602083018480516001600160a01b0316825260208082015163ffffffff16908301526040908101511515910152565b6000600160ff1b8214156158fd576158fd6156e8565b5060000390565b60006101608201905086825263ffffffff86166020830152845160020b6040830152602085015160020b60608301526040850151600f0b608083015260018060a01b0360608601511660a083015261ffff60808601511660c083015260a085015161597360e084018215159052565b5060c08501516159876101008401826144dc565b508361012083015261599e61014083018415159052565b9695505050505050565b6000806000606084860312156159bd57600080fd5b8351925060208401519150604084015190509250925092565b600080821280156001600160ff1b03849003851316156159f8576159f86156e8565b600160ff1b8390038412811615615a1157615a116156e8565b50500190565b6000808284036080811215615a2b57600080fd5b835192506060601f1982011215615a4157600080fd5b50615a4a6142db565b602084015181526040840151602082015260608401516040820152809150509250929050565b600082516154bb8184602087016147ad565b6020808252602b908201527f496e697469616c697a61626c653a20636f6e7472616374206973206e6f74206960408201526a6e697469616c697a696e6760a81b606082015260800190565b60006001600160a01b0383811690831681811015615aed57615aed6156e8565b039392505050565b60006001600160a01b0382811684821681151582840482111615615b1b57615b1b6156e8565b02949350505050565b634e487b7160e01b600052601260045260246000fd5b60006001600160a01b0383811680615b5457615b54615b24565b92169190910492915050565b6000816000190483118215151615615b7a57615b7a6156e8565b500290565b600060208284031215615b9157600080fd5b81516116b2816143dc565b6020808252825182820181905260009190848201906040850190845b81811015614bd557835163ffffffff1683529284019291840191600101615bb8565b600082601f830112615beb57600080fd5b81516020615bfb614b5b83614af0565b82815260059290921b84018101918181019086841115615c1a57600080fd5b8286015b8481101561537e578051615c31816143bc565b8352918301918301615c1e565b60008060408385031215615c5157600080fd5b82516001600160401b0380821115615c6857600080fd5b818501915085601f830112615c7c57600080fd5b81516020615c8c614b5b83614af0565b82815260059290921b84018101918181019089841115615cab57600080fd5b948201945b83861015615cd95785518060060b8114615cca5760008081fd5b82529482019490820190615cb0565b91880151919650909350505080821115615cf257600080fd5b50615cff85828601615bda565b9150509250929050565b600080600080600080600060e0888a031215615d2457600080fd5b8751615d2f816143bc565b6020890151909750615d4081614928565b6040890151909650615d518161498a565b6060890151909550615d628161498a565b6080890151909450615d738161498a565b60a089015190935060ff81168114615d8a57600080fd5b60c0890151909250615d9b816143dc565b8091505092959891949750929550565b60008160060b8360060b6000811281667fffffffffffff1901831281151615615dd657615dd66156e8565b81667fffffffffffff018313811615615df157615df16156e8565b5090039392505050565b60008160060b8360060b80615e1257615e12615b24565b667fffffffffffff19821460001982141615615e3057615e306156e8565b90059392505050565b60008260060b80615e4c57615e4c615b24565b808360060b0791505092915050565b60008160020b627fffff19811415615e7557615e756156e8565b600019019291505056fea26469706673582212202fafda995f08bae4e0f412032b49e2f11673b2886326c4151107c5fac60c8c9364736f6c634300080c0033496e697469616c697a61626c653a20636f6e747261637420697320616c726561",
  "deployedBytecode": "0x6080604052600436106102725760003560e01c80637ec6ba311161014f578063b670ed52116100c1578063e1f167131161007a578063e1f1671314610a27578063e3d41c1814610a47578063e450f6f414610a67578063e67ed1df14610a87578063ee6cd5ee14610aa7578063fe6f083a14610ac757600080fd5b8063b670ed52146107c5578063b79023031461096e578063bc38d5421461098e578063d38bfff4146109bb578063dbc0c085146109db578063dbd035ff146109fa57600080fd5b80638ce25a93116101135780638ce25a931461064057806393420cf41461065657806394c8c71d1461075d5780639cd1be581461077d5780639dca362f1461079d578063ac9650d8146107b257600080fd5b80637ec6ba31146105895780637f64d663146105a957806384088b65146105c95780638456cb591461060b578063847e07a61461062057600080fd5b80633d0aea3d116101e8578063440ab745116101ac578063440ab745146104c157806349fbd58d146104f1578063569634d3146105115780635aa6e675146105315780635c975abb146105505780637cc2f4f51461056957600080fd5b80633d0aea3d1461041f5780633d56a35e1461043f5780633f4ba83a1461045f57806340c4f69b1461047457806342be9fca146104a157600080fd5b80632afaea371161023a5780632afaea371461033a57806332a72d981461035a578063393590291461038f5780633a64c245146103af5780633b561afc146103cf5780633c0352b2146103ff57600080fd5b806302860bac14610277578063127fec13146102995780631a1feae1146102d65780631e2eaeaf146102fb5780631f84fa981461031a575b600080fd5b34801561028357600080fd5b506102976102923660046141df565b610ae7565b005b3480156102a557600080fd5b5060d4546102b9906001600160a01b031681565b6040516001600160a01b0390911681526020015b60405180910390f35b3480156102e257600080fd5b506102ed6101a05481565b6040519081526020016102cd565b34801561030757600080fd5b506102ed610316366004614221565b5490565b34801561032657600080fd5b5061029761033536600461424c565b610b8f565b34801561034657600080fd5b5061029761035536600461428d565b610c39565b34801561036657600080fd5b5061037a610375366004614474565b610c85565b604080519283526020830191909152016102cd565b34801561039b57600080fd5b506102976103aa36600461428d565b610cd9565b3480156103bb57600080fd5b506102976103ca3660046144b3565b610d18565b3480156103db57600080fd5b506103ef6103ea366004614221565b610df2565b6040516102cd94939291906144f0565b34801561040b57600080fd5b5061037a61041a36600461467d565b610e96565b34801561042b57600080fd5b5061029761043a36600461469a565b610ecf565b34801561044b57600080fd5b5060d2546102b9906001600160a01b031681565b34801561046b57600080fd5b50610297610f23565b34801561048057600080fd5b5061049461048f366004614762565b610f73565b6040516102cd9190614805565b3480156104ad57600080fd5b506102ed6104bc366004614867565b6116b9565b3480156104cd57600080fd5b506104e16104dc366004614889565b611760565b60405190151581526020016102cd565b3480156104fd57600080fd5b5061029761050c3660046148a6565b61178e565b34801561051d57600080fd5b5061029761052c366004614221565b611895565b34801561053d57600080fd5b5061019e546001600160a01b03166102b9565b34801561055c57600080fd5b5061016c5460ff166104e1565b34801561057557600080fd5b50610297610584366004614937565b6118a0565b34801561059557600080fd5b506102976105a4366004614221565b6118b5565b3480156105b557600080fd5b506102976105c436600461467d565b611901565b3480156105d557600080fd5b506105e96105e43660046149a5565b6119cc565b60408051825181526020808401519082015291810151908201526060016102cd565b34801561061757600080fd5b50610297611a1b565b34801561062c57600080fd5b506102ed61063b3660046149e4565b611a69565b34801561064c57600080fd5b506102ed60d05481565b34801561066257600080fd5b506106f7604080516080810182526000808252602082018190529181018290526060810182905250506067546040805160808101825260685461ffff8082168352620100008204811660208401526401000000008204169282019290925266010000000000009091046001600160801b03166060820152606954606a54606b546001600160a01b039094169492939192909190565b604080516001600160a01b039096168652845161ffff9081166020808901919091528601518116878301529085015116606080870191909152909301516001600160801b0316608085015260a084019190915260c083015260e0820152610100016102cd565b34801561076957600080fd5b506105e9610778366004614a14565b611aff565b34801561078957600080fd5b50610297610798366004614867565b611bf9565b3480156107a957600080fd5b506102ed611c3b565b6104946107c0366004614a66565b611cee565b3480156107d157600080fd5b506108e56107e0366004614889565b604080516080808201835260008083526020808401829052838501829052845160c08082018752838252818301849052818701849052606080830185905282860185905260a08084018690529681019290925263ffffffff978816845260648352928690208651808601885281546001600160a01b039081168252600183015481168286015260028301548116828a01528851958601895260039092015461ffff8082168752620100008204169486019490945264010000000084049098169684019690965260ff600160401b830481161515848301526901000000000000000000830416151593830193909352600160501b90049093169183019190915282015290565b6040805182516001600160a01b03908116825260208085015182168184015284840151821683850152606094850151805161ffff90811687860152918101519091166080808501919091529381015163ffffffff1660a08085019190915294810151151560c084015292830151151560e0830152919092015116610100820152610120016102cd565b34801561097a57600080fd5b5060d3546102b9906001600160a01b031681565b34801561099a57600080fd5b506109ae6109a9366004614889565b611e3e565b6040516102cd9190614aa7565b3480156109c757600080fd5b506102976109d636600461467d565b611edd565b3480156109e757600080fd5b5061019f546001600160a01b03166102b9565b348015610a0657600080fd5b50610a1a610a15366004614b13565b611f8e565b6040516102cd9190614b9d565b348015610a3357600080fd5b50610297610a42366004614a66565b611fbc565b348015610a5357600080fd5b506102ed610a62366004614221565b612109565b348015610a7357600080fd5b506102ed610a82366004614be1565b612193565b348015610a9357600080fd5b5061037a610aa2366004614c0d565b6121aa565b348015610ab357600080fd5b5061037a610ac2366004614c32565b612248565b348015610ad357600080fd5b506102ed610ae2366004614c7d565b61229d565b61019f546001600160a01b03163314801590610b0f575061019e546001600160a01b03163314155b15610b2d57604051636bd1573560e11b815260040160405180910390fd5b836068610b3a8282614cdc565b5050606a839055606b82905560698190556040517f9b7ffeda0929d0ea3dfe5fb734043c56bf81827477ac95216f2b700fb921f03f90610b81908690869086908690614d99565b60405180910390a150505050565b61019f546001600160a01b03163314801590610bb7575061019e546001600160a01b03163314155b15610bd557604051636bd1573560e11b815260040160405180910390fd5b63ffffffff821660009081526064602052604090208190600301610bf98282614e6b565b9050507ff924257f2f033f654a9c9dab9dc1725c901932a7187872fda504e76a9b6412de8282604051610c2d929190614f4a565b60405180910390a15050565b61016c5460ff1615610c665760405162461bcd60e51b8152600401610c5d90614fee565b60405180910390fd5b6000610c71846122fa565b9050610c7f84828585612340565b50505050565b600080610c9561016c5460ff1690565b15610cb25760405162461bcd60e51b8152600401610c5d90614fee565b6000610cbd866122fa565b9050610ccc8186866001612449565b9250925050935093915050565b61016c5460ff1615610cfd5760405162461bcd60e51b8152600401610c5d90614fee565b6000610d08846122fa565b9050610c7f848285856001612613565b60d2546001600160a01b03163314610d43576040516385734f3160e01b815260040160405180910390fd5b6000610d63610d55602084018461467d565b6001600160a01b031661272b565b63ffffffff8116600090815260646020526040902054909150610d8e906001600160a01b0316612739565b610d9a57610d9a615018565b63ffffffff811660009081526064602052604090208290610dbb828261504e565b9050507ff924257f2f033f654a9c9dab9dc1725c901932a7187872fda504e76a9b6412de8183606001604051610c2d929190614f4a565b600081815260d16020526040808220905163a0ba775760e01b81526004810191909152606460248201528190606090819073__$86182d6e9eac51236f2aa8dd2a3ddeab6c$__9063a0ba775790604401600060405180830381865af4158015610e5f573d6000803e3d6000fd5b505050506040513d6000823e601f3d908101601f19168201604052610e879190810190615389565b93509350935093509193509193565b6000806000610ead846001600160a01b031661272b565b9050610eba60648261274b565b9250610ec76064826127e1565b915050915091565b61019f546001600160a01b03163314801590610ef7575061019e546001600160a01b03163314155b15610f1557604051636bd1573560e11b815260040160405180910390fd5b610f1f82826127fe565b5050565b61019f546001600160a01b03163314801590610f4b575061019e546001600160a01b03163314155b15610f6957604051636bd1573560e11b815260040160405180910390fd5b610f716129c2565b565b6060816001600160401b03811115610f8d57610f8d6142c5565b604051908082528060200260200182016040528015610fc057816020015b6060815260200190600190039081610fab5790505b5090506000610fce856122fa565b90506000805b848110156115cc576000868683818110610ff057610ff061548f565b905060200281019061100291906154a5565b6110109060208101906154c5565b6007811115611021576110216144c6565b14156110805760008087878481811061103c5761103c61548f565b905060200281019061104e91906154a5565b61105c9060208101906154e6565b8101906110699190614be1565b9150915061107989868484612340565b50506115ba565b60018686838181106110945761109461548f565b90506020028101906110a691906154a5565b6110b49060208101906154c5565b60078111156110c5576110c56144c6565b141561111f576000808787848181106110e0576110e061548f565b90506020028101906110f291906154a5565b6111009060208101906154e6565b81019061110d9190614be1565b91509150611079898684846000612613565b60028686838181106111335761113361548f565b905060200281019061114591906154a5565b6111539060208101906154c5565b6007811115611164576111646144c6565b14156111c357600086868381811061117e5761117e61548f565b905060200281019061119091906154a5565b61119e9060208101906154e6565b8101906111ab9190614221565b90506111b984826000612a57565b60019250506115ba565b60038686838181106111d7576111d761548f565b90506020028101906111e991906154a5565b6111f79060208101906154c5565b6007811115611208576112086144c6565b14156112b2576000808787848181106112235761122361548f565b905060200281019061123591906154a5565b6112439060208101906154e6565b810190611250919061552c565b915091506000806112648785856000612449565b6040805160208101849052908101829052919350915060600160405160208183030381529060405288868151811061129e5761129e61548f565b6020026020010181905250505050506115ba565b60048686838181106112c6576112c661548f565b90506020028101906112d891906154a5565b6112e69060208101906154c5565b60078111156112f7576112f76144c6565b1415611353576000808787848181106113125761131261548f565b905060200281019061132491906154a5565b6113329060208101906154e6565b81019061133f919061560d565b915091506000806112648785856000612ba4565b60058686838181106113675761136761548f565b905060200281019061137991906154a5565b6113879060208101906154c5565b6007811115611398576113986144c6565b1415611402576000806000808989868181106113b6576113b661548f565b90506020028101906113c891906154a5565b6113d69060208101906154e6565b8101906113e3919061563b565b93509350935093506113f88b85858585612cb2565b50505050506115ba565b60068686838181106114165761141661548f565b905060200281019061142891906154a5565b6114369060208101906154c5565b6007811115611447576114476144c6565b141561145e57611458876000612db7565b506115ba565b60078686838181106114725761147261548f565b905060200281019061148491906154a5565b6114929060208101906154c5565b60078111156114a3576114a36144c6565b141561156e5760008060008888858181106114c0576114c061548f565b90506020028101906114d291906154a5565b6114e09060208101906154e6565b8101906114ed919061568c565b60008d815260d16020526040808220858352908220949750929550909350611519929085908590612f26565b60408051825160208083019190915283015181830152910151606082015260800160405160208183030381529060405287858151811061155b5761155b61548f565b60200260200101819052505050506115ba565b8585828181106115805761158061548f565b905060200281019061159291906154a5565b6115a09060208101906154c5565b604051633164e52160e11b8152600401610c5d91906156ce565b806115c4816156fe565b915050610fd4565b50801561163e5760405163651524ed60e01b8152600481018390526064602482015273__$86182d6e9eac51236f2aa8dd2a3ddeab6c$__9063651524ed9060440160006040518083038186803b15801561162557600080fd5b505af4158015611639573d6000803e3d6000fd5b505050505b60405163998c533560e01b8152600481018390526001602482015260646044820181905273__$86182d6e9eac51236f2aa8dd2a3ddeab6c$__9163998c5335910160006040518083038186803b15801561169757600080fd5b505af41580156116ab573d6000803e3d6000fd5b5050505050505b9392505050565b60008180156117425760006116cc61306a565b5a6116d79190615719565b90506116e36044613122565b6116ed8585612db7565b925060006116f961306a565b5a6117049190615719565b61170e9083615731565b90508083111561173b57604051634010928f60e01b81526004810184905260248101829052604401610c5d565b5050611759565b61174c6044613122565b6117568484612db7565b91505b5092915050565b63ffffffff8116600090815260646020526040812054611788906001600160a01b0316612739565b92915050565b61013954610100900460ff166117ab576101395460ff16156117af565b303b155b6117cb5760405162461bcd60e51b8152600401610c5d90615748565b61013954610100900460ff161580156117ef57610139805461ffff19166101011790555b60d280546001600160a01b03199081166001600160a01b038a81169190911790925560668054821689841617905560d38054821687841617905560d48054821685841617905560678054909116858316179055604080516060810182529187168252603c60208301526001908201526118699087906127fe565b61187161314f565b6118796131d9565b801561188c57610139805461ff00191690555b50505050505050565b610f1f816000612db7565b6118ae848484846000612cb2565b5050505050565b61019f546001600160a01b031633148015906118dd575061019e546001600160a01b03163314155b156118fb57604051636bd1573560e11b815260040160405180910390fd5b6101a055565b61019f546001600160a01b03163314801590611929575061019e546001600160a01b03163314155b1561194757604051636bd1573560e11b815260040160405180910390fd5b6001600160a01b03811661196e5760405163d92e233d60e01b815260040160405180910390fd5b61019f546040516001600160a01b038084169216907f39355f2f5c8206286978f443aa8126bbd29fa09c53c04569502647f3a59c8cb290600090a361019f80546001600160a01b0319166001600160a01b0392909216919091179055565b6119f060405180606001604052806000815260200160008152602001600081525090565b600085815260d16020526040808220868352908220611a129286908690612f26565b95945050505050565b61019f546001600160a01b03163314801590611a43575061019e546001600160a01b03163314155b15611a6157604051636bd1573560e11b815260040160405180910390fd5b610f7161320e565b600082815260d160205260408082209051637188a1ed60e01b8152600481019190915263ffffffff8316602482015260646044820181905273__$86182d6e9eac51236f2aa8dd2a3ddeab6c$__91637188a1ed9101602060405180830381865af4158015611adb573d6000803e3d6000fd5b505050506040513d601f19601f820116820180604052508101906116b29190615796565b611b2360405180606001604052806000815260200160008152602001600081525090565b818015611bc1576000611b3461306a565b5a611b3f9190615719565b9050611b4b60a4613122565b600088815260d160205260408082208983529120611b6c9190888888612f26565b92506000611b7861306a565b5a611b839190615719565b611b8d9083615731565b905080831115611bba57604051634010928f60e01b81526004810184905260248101829052604401610c5d565b5050611bef565b611bcb60a4613122565b600087815260d160205260408082208883529120611bec9190878787612f26565b91505b5095945050505050565b61016c5460ff1615611c1d5760405162461bcd60e51b8152600401610c5d90614fee565b6000611c28836122fa565b9050611c3681836001612a57565b505050565b6000611c4a61016c5460ff1690565b15611c675760405162461bcd60e51b8152600401610c5d90614fee565b5060d054611c76816001615719565b60d055600081815260d160209081526040918290206bffffffffffffffffffffffff1933600160601b8102919091166bffffffffffffffffffffffff861617825592518481529092917f7325fb14450d3e5eb288c620b4ff1d6b43a41b33b4a4f143ae88cd4c12f99ea3910160405180910390a25090565b6060816001600160401b03811115611d0857611d086142c5565b604051908082528060200260200182016040528015611d3b57816020015b6060815260200190600190039081611d265790505b50905060005b828110156117595760008030868685818110611d5f57611d5f61548f565b9050602002810190611d7191906154e6565b604051611d7f9291906157af565b600060405180830381855af49150503d8060008114611dba576040519150601f19603f3d011682016040523d82523d6000602084013e611dbf565b606091505b509150915081611e0b57604481511015611dd857600080fd5b60048101905080806020019051810190611df291906157bf565b60405162461bcd60e51b8152600401610c5d9190615852565b80848481518110611e1e57611e1e61548f565b602002602001018190525050508080611e36906156fe565b915050611d41565b611e7160408051808201825260008082528251606081018452818152602081810183905293810191909152909182015290565b5063ffffffff9081166000908152606560209081526040918290208251808401845281546001600160a01b03908116825284516060810186526001909301549081168352600160a01b810490951682840152600160c01b90940460ff1615159281019290925282015290565b61019e546001600160a01b03163314611f0957604051636bd1573560e11b815260040160405180910390fd5b6001600160a01b038116611f305760405163d92e233d60e01b815260040160405180910390fd5b61019e546040516001600160a01b038084169216907f5f56bee8cffbe9a78652a74a60705edede02af10b0bbb888ca44b79a0d42ce8090600090a361019e80546001600160a01b0319166001600160a01b0392909216919091179055565b606060208251028201602001602083015b81811015611fb4578051548152602001611f9f565b509192915050565b6000805b828110156120df576000848483818110611fdc57611fdc61548f565b9050602002016020810190611ff1919061467d565b6001600160a01b0316635e622abc6040518163ffffffff1660e01b81526004016020604051808303816000875af1158015612030573d6000803e3d6000fd5b505050506040513d601f19601f820116820180604052508101906120549190615796565b90508484838181106120685761206861548f565b905060200201602081019061207d919061467d565b6001600160a01b03167fa087657e3d85162090ffd700fbfdf5070d816f63aa5da00063f6ffd369c8a6db826040516120b791815260200190565b60405180910390a26120c98184615719565b92505080806120d7906156fe565b915050611fc0565b50611c366120f661019f546001600160a01b031690565b6066546001600160a01b03169083613268565b600081815260d16020526040808220905163625915c360e11b815260048101919091526064602482015273__$86182d6e9eac51236f2aa8dd2a3ddeab6c$__9063c4b22b8690604401602060405180830381865af415801561216f573d6000803e3d6000fd5b505050506040513d601f19601f820116820180604052508101906117889190615796565b600061219d611c3b565b9050611788818484610c39565b600082815260d16020526040808220905163031b5fcd60e21b815260048101919091528215156024820152606460448201819052829173__$86182d6e9eac51236f2aa8dd2a3ddeab6c$__91630c6d7f3491016040805180830381865af4158015612219573d6000803e3d6000fd5b505050506040513d601f19601f8201168201806040525081019061223d9190615865565b909590945092505050565b60008061225861016c5460ff1690565b156122755760405162461bcd60e51b8152600401610c5d90614fee565b6000612280866122fa565b9050610ccc818661229636889003880188615889565b6001612ba4565b60008180156122d45760006122b061306a565b5a6122bb9190615719565b90506122c760a4613122565b611b6c8888888888612cb2565b6122de60a4613122565b611bec8787878787612cb2565b6001600160a01b03163b151590565b600081815260d1602052604090208054600160601b90046001600160a01b0316331461233b57604051630504a20d60e01b8152336004820152602401610c5d565b919050565b61016c5460ff16156123645760405162461bcd60e51b8152600401610c5d90614fee565b60006123718360006132cb565b805490915061238b906001600160a01b031633308561335a565b604051637ef9c64360e11b81526004810185905263ffffffff841660248201526044810183905273__$86182d6e9eac51236f2aa8dd2a3ddeab6c$__9063fdf38c869060640160006040518083038186803b1580156123e957600080fd5b505af41580156123fd573d6000803e3d6000fd5b505050508263ffffffff16857f8ad78786fd90bf16daca318ca19c5c1f8b0e4b6a666538a76d128092d48514c28460405161243a91815260200190565b60405180910390a35050505050565b60008061245961016c5460ff1690565b156124765760405162461bcd60e51b8152600401610c5d90614fee565b61247f85613392565b60408051630a067b0f60e11b81526004810188905263ffffffff871660248201528551604482015260208601516001600160a01b031660648083019190915291860151151560848201526060860151151560a482015260c481019190915283151560e482015273__$86182d6e9eac51236f2aa8dd2a3ddeab6c$__9063140cf61e90610104016040805180830381865af4158015612521573d6000803e3d6000fd5b505050506040513d601f19601f820116820180604052508101906125459190615865565b9092509050600061255582613415565b606b5490915081101561257e576040516312b6b5cd60e11b815260048101829052602401610c5d565b60208501516001600160a01b03161580159061259c57508460600151155b1561260957846040015180156125c3575084516125b890613415565b6125c183613415565b145b806125ec575084604001511580156125ec575084516125e190613415565b6125ea84613415565b145b612609576040516307a1db0760e01b815260040160405180910390fd5b5094509492505050565b61016c5460ff16156126375760405162461bcd60e51b8152600401610c5d90614fee565b60006126448460016132cb565b6040516362b3b6bb60e11b81526004810187905263ffffffff8616602482015260448101859052606480820152831515608482015290915073__$86182d6e9eac51236f2aa8dd2a3ddeab6c$__9063c5676d769060a40160006040518083038186803b1580156126b357600080fd5b505af41580156126c7573d6000803e3d6000fd5b505082546126e292506001600160a01b031690503385613268565b8363ffffffff16867fe0c7ec5663c36969e5662da59bc1ede9566e08300e34eb2da7746d9f262c5d808560405161271b91815260200190565b60405180910390a3505050505050565b600063ffffffff8216611788565b60006001600160a01b03821615611788565b63ffffffff8181166000908152602084905260408082206003810154915163dd86c10160e01b8152640100000000830490941660048501529192600160501b9091046001600160a01b03169063dd86c10190602401602060405180830381865afa1580156127bd573d6000803e3d6000fd5b505050506040513d601f19601f820116820180604052508101906117569190615796565b60006116b26127f08484613430565b6001600160a01b0316613475565b6000612812836001600160a01b031661272b565b9050612826836001600160a01b0316612739565b15612847576040516376d8a93160e01b815260006004820152602401610c5d565b63ffffffff811660009081526065602052604090205461286f906001600160a01b0316612739565b1580156128a8575063ffffffff8082166000908152606560205260409020546128a6916001600160a01b039091169085906134e216565b155b156128f15763ffffffff81166000908152606560205260409081902054905163a5d4d0b560e01b81526001600160a01b0380861660048301529091166024820152604401610c5d565b6040805180820182526001600160a01b038581168252602080830186815263ffffffff868116600090815260658452869020945185546001600160a01b03191690851617855590518051600190950180549382015191870151959094166001600160c01b031990931692909217600160a01b92909116919091021760ff60c01b1916600160c01b92151592909202919091179055517f52983c04d8ccd4808cd0fcb24e6e48106ecb41e803d6270c6c94a15e3ebd08d2906129b590859085906158a5565b60405180910390a1505050565b61016c5460ff16612a0c5760405162461bcd60e51b815260206004820152601460248201527314185d5cd8589b194e881b9bdd081c185d5cd95960621b6044820152606401610c5d565b61016c805460ff191690557f5db9ee0a495bf2e6ff9c91a7834c1ba4fdd244a5e8aa4e537bd38aeae4b073aa335b6040516001600160a01b03909116815260200160405180910390a1565b61016c5460ff1615612a7b5760405162461bcd60e51b8152600401610c5d90614fee565b81612a9957604051631f2a200560e01b815260040160405180910390fd5b60405163d25c4a6f60e01b815260048101849052602481018390526064604482018190528215159082015273__$86182d6e9eac51236f2aa8dd2a3ddeab6c$__9063d25c4a6f9060840160006040518083038186803b158015612afb57600080fd5b505af4158015612b0f573d6000803e3d6000fd5b505050506000821315612b3957606654612b34906001600160a01b031633308561335a565b612b59565b612b5933612b46846158e7565b6066546001600160a01b03169190613268565b82546040518381526bffffffffffffffffffffffff909116907f34e55ef9f5cf05f9a666ce27e7dcee31bb2a4e21eccaa3ea58a8358117b1547a9060200160405180910390a2505050565b600080612bb461016c5460ff1690565b15612bd15760405162461bcd60e51b8152600401610c5d90614fee565b612bda85613392565b60608401516001600160a01b031615612c0057612c0085856060015186608001516134f8565b60405163c27789d160e01b815260009073__$86182d6e9eac51236f2aa8dd2a3ddeab6c$__9063c27789d190612c43908a908a908a906064908b90600401615904565b606060405180830381865af4158015612c60573d6000803e3d6000fd5b505050506040513d601f19601f82011682018060405250810190612c8491906159a8565b606b549295509093509150811015612609576040516312b6b5cd60e11b815260048101829052602401610c5d565b6000612cc161016c5460ff1690565b15612cde5760405162461bcd60e51b8152600401610c5d90614fee565b600086815260d160205260409020612cf586613392565b612cfe8361358a565b606a54612d0b9190615719565b604051637022478560e11b81526004810183905263ffffffff88166024820152600287810b604483015286900b6064808301919091526084820183905260a482015290925073__$86182d6e9eac51236f2aa8dd2a3ddeab6c$__9063e0448f0a9060c40160006040518083038186803b158015612d8757600080fd5b505af4158015612d9b573d6000803e3d6000fd5b5050606654611bef92506001600160a01b031690503384613268565b6000612dc661016c5460ff1690565b15612de35760405162461bcd60e51b8152600401610c5d90614fee565b600083815260d1602052604081209073__$86182d6e9eac51236f2aa8dd2a3ddeab6c$__6322e440c483612e168761358a565b6040516001600160e01b031960e085901b16815260048101929092526024820152606460448201819052016040805180830381865af4158015612e5d573d6000803e3d6000fd5b505050506040513d601f19601f82011682018060405250810190612e819190615865565b90935090506000612e9282856159d6565b905060008413612eb85760405163ef37dcc760e01b815260048101859052602401610c5d565b606654612ecf906001600160a01b03163386613268565b612ed8826136a1565b6040805182815260208101869052908101839052339087907fcfb6806c7e1accb0c7e5835aded9e714525c0588e5609d5ae1a3c8f6b68586a79060600160405180910390a350505092915050565b612f4a60405180606001604052806000815260200160008152602001600081525090565b61016c5460ff1615612f6e5760405162461bcd60e51b8152600401610c5d90614fee565b6127108361ffff161115612f95576040516348d69f3560e01b815260040160405180910390fd5b612f9e84613392565b600073__$86182d6e9eac51236f2aa8dd2a3ddeab6c$__632a2d44e587898789612fc78961358a565b6040516001600160e01b031960e088901b1681526004810195909552602485019390935261ffff909116604484015263ffffffff16606483810191909152608483019190915260a4820152600160c482015260e401608060405180830381865af4158015613039573d6000803e3d6000fd5b505050506040513d601f19601f8201168201806040525081019061305d9190615a17565b92509050611bef816136a1565b60408051600481526024810182526020810180516001600160e01b031663a94597ff60e01b1790529051600091829182916064916130a89190615a70565b600060405180830381855afa9150503d80600081146130e3576040519150601f19603f3d011682016040523d82523d6000602084013e6130e8565b606091505b50915091508115806130f957508051155b156131075760009250505090565b8080602001905181019061311b9190615796565b9250505090565b3681101561314c57604051634219202560e01b815236600482015260248101829052604401610c5d565b50565b61013954610100900460ff1661316c576101395460ff1615613170565b303b155b61318c5760405162461bcd60e51b8152600401610c5d90615748565b61013954610100900460ff161580156131b057610139805461ffff19166101011790555b6131b861372d565b336131c38180613755565b50801561314c57610139805461ff001916905550565b61013954610100900460ff166132015760405162461bcd60e51b8152600401610c5d90615a82565b61016c805460ff19169055565b61016c5460ff16156132325760405162461bcd60e51b8152600401610c5d90614fee565b61016c805460ff191660011790557f62e78cea01bee320cd4e420270b5ea74000d11b0c9f74754ebdbfc544b05a258612a3a3390565b6040516001600160a01b038316602482015260448101829052611c3690849063a9059cbb60e01b906064015b60408051601f198184030181529190526020810180516001600160e01b03166001600160e01b031990931692909217909152613861565b63ffffffff8216600090815260656020526040902080546132f4906001600160a01b0316612739565b1561331a57604051636b9c1a9d60e01b815263ffffffff84166004820152602401610c5d565b8115801561333457506001810154600160c01b900460ff16155b156117885760405163122a1f1960e31b815263ffffffff84166004820152602401610c5d565b6040516001600160a01b0380851660248301528316604482015260648101829052610c7f9085906323b872dd60e01b90608401613294565b63ffffffff8116600090815260646020526040902080546133bb906001600160a01b0316612739565b156133e15760405163b842f5a760e01b815263ffffffff83166004820152602401610c5d565b6003810154600160401b900460ff16610f1f5760405163587ee90160e11b815263ffffffff83166004820152602401610c5d565b600080821361342c57613427826158e7565b611788565b5090565b63ffffffff80821660009081526020849052604081206003810154600182015492939192611756926001600160a01b0390911691640100000000900481169061393316565b60006401000276a36001600160a01b03831610806134b0575073fffd8963efd1fc6a506488495d951d5263988d266001600160a01b03831610155b156134d957604051635d236c4560e01b81526001600160a01b0383166004820152602401610c5d565b61178882613954565b60006001600160a01b03808416908316146116b2565b600061350560648561396e565b90506000836001600160a01b0316826001600160a01b0316116135315761352c8285615acd565b61353b565b61353b8483615acd565b905061271061354e8561ffff8616615af5565b6135589190615b3a565b6001600160a01b0316816001600160a01b031611156118ae576040516307a1db0760e01b815260040160405180910390fd5b60003a6101a0548111156135c0576101a054604051638dfe587d60e01b8152610c5d918391600401918252602082015260400190565b8215806135d6575060d4546001600160a01b0316155b156135e4576000915061369b565b6000333214156135f9576135f6613999565b90505b60006136053a86615b60565b60d45460405163dd86c10160e01b815261012c60048201529192506000916001600160a01b039091169063dd86c10190602401602060405180830381865afa158015613655573d6000803e3d6000fd5b505050506040513d601f19601f820116820180604052508101906136799190615796565b905061369581600160801b61368e8587615719565b91906139d7565b94505050505b50919050565b60008113156136c75760d35460665461314c916001600160a01b03918216911683613268565b60d3546001600160a01b031663379607f56136e1836158e7565b6040518263ffffffff1660e01b81526004016136ff91815260200190565b600060405180830381600087803b15801561371957600080fd5b505af11580156118ae573d6000803e3d6000fd5b61013954610100900460ff16610f715760405162461bcd60e51b8152600401610c5d90615a82565b61013954610100900460ff16613772576101395460ff1615613776565b303b155b6137925760405162461bcd60e51b8152600401610c5d90615748565b61013954610100900460ff161580156137b657610139805461ffff19166101011790555b61019e80546001600160a01b0319166001600160a01b0385169081179091556040516000907f5f56bee8cffbe9a78652a74a60705edede02af10b0bbb888ca44b79a0d42ce80908290a361019f80546001600160a01b0319166001600160a01b0384169081179091556040516000907f39355f2f5c8206286978f443aa8126bbd29fa09c53c04569502647f3a59c8cb2908290a38015611c3657610139805461ff0019169055505050565b60006138b6826040518060400160405280602081526020017f5361666545524332303a206c6f772d6c6576656c2063616c6c206661696c6564815250856001600160a01b0316613a859092919063ffffffff16565b805190915015611c3657808060200190518101906138d49190615b7f565b611c365760405162461bcd60e51b815260206004820152602a60248201527f5361666545524332303a204552433230206f7065726174696f6e20646964206e6044820152691bdd081cdd58d8d9595960b21b6064820152608401610c5d565b6000806139496001600160a01b03851684613a9c565b905061175681613cb8565b60006117886001600160a01b03831680600160401b6139d7565b63ffffffff81166000908152602083905260408120600101546116b2906001600160a01b0316613feb565b60408051600481526024810182526020810180516001600160e01b031663637bef0760e11b1790529051600091829182916064916130a89190615a70565b600080806000198587098587029250828110838203039150508060001415613a115760008411613a0657600080fd5b5082900490506116b2565b808411613a1d57600080fd5b600084868809851960019081018716968790046003810260029081188083028203028083028203028083028203028083028203028083028203029182029003026000889003889004909101858311909403939093029303949094049190911702949350505050565b6060613a948484600085614075565b949350505050565b600063ffffffff8216613ac557604051636eb711b760e11b815260006004820152602401610c5d565b6040805160028082526060820183526000926020830190803683370190505090508281600081518110613afa57613afa61548f565b602002602001019063ffffffff16908163ffffffff1681525050600081600181518110613b2957613b2961548f565b63ffffffff9092166020928302919091019091015260405163883bdbfd60e01b81526001600160a01b0385169063883bdbfd90613b6a908490600401615b9c565b600060405180830381865afa925050508015613ba857506040513d6000823e601f3d908101601f19168201604052613ba59190810190615c3e565b60015b613c1d57836001600160a01b0316633850c7bd6040518163ffffffff1660e01b815260040160e060405180830381865afa158015613bea573d6000803e3d6000fd5b505050506040513d601f19601f82011682018060405250810190613c0e9190615d09565b50939650611759945050505050565b600082600081518110613c3257613c3261548f565b602002602001015183600181518110613c4d57613c4d61548f565b6020026020010151613c5f9190615dab565b90506000613c7363ffffffff881683615dfb565b905060008260060b128015613c995750613c9363ffffffff881683615e39565b60060b15155b15613cac5780613ca881615e5b565b9150505b94506117889350505050565b60008060008360020b12613ccf578260020b613cd7565b8260020b6000035b9050620d89e8811115613d105760405162461bcd60e51b81526020600482015260016024820152601560fa1b6044820152606401610c5d565b600060018216613d2457600160801b613d36565b6ffffcb933bd6fad37aa2d162d1a5940015b70ffffffffffffffffffffffffffffffffff1690506002821615613d6a576ffff97272373d413259a46990580e213a0260801c5b6004821615613d89576ffff2e50f5f656932ef12357cf3c7fdcc0260801c5b6008821615613da8576fffe5caca7e10e4e61c3624eaa0941cd00260801c5b6010821615613dc7576fffcb9843d60f6159c9db58835c9266440260801c5b6020821615613de6576fff973b41fa98c081472e6896dfb254c00260801c5b6040821615613e05576fff2ea16466c96a3843ec78b326b528610260801c5b6080821615613e24576ffe5dee046a99a2a811c461f1969c30530260801c5b610100821615613e44576ffcbe86c7900a88aedcffc83b479aa3a40260801c5b610200821615613e64576ff987a7253ac413176f2b074cf7815e540260801c5b610400821615613e84576ff3392b0822b70005940c7a398e4b70f30260801c5b610800821615613ea4576fe7159475a2c29b7443b29c7fa6e889d90260801c5b611000821615613ec4576fd097f3bdfd2022b8845ad8f792aa58250260801c5b612000821615613ee4576fa9f746462d870fdf8a65dc1f90e061e50260801c5b614000821615613f04576f70d869a156d2a1b890bb3df62baf32f70260801c5b618000821615613f24576f31be135f97d08fd981231505542fcfa60260801c5b62010000821615613f45576f09aa508b5b7a84e1c677de54f3e99bc90260801c5b62020000821615613f65576e5d6af8dedb81196699c329225ee6040260801c5b62040000821615613f84576d2216e584f5fa1ea926041bedfe980260801c5b62080000821615613fa1576b048a170391f7dc42444e8fa20260801c5b60008460020b1315613fc2578060001981613fbe57613fbe615b24565b0490505b640100000000810615613fd6576001613fd9565b60005b60ff16602082901c0192505050919050565b600080826001600160a01b0316633850c7bd6040518163ffffffff1660e01b815260040160e060405180830381865afa15801561402c573d6000803e3d6000fd5b505050506040513d601f19601f820116820180604052508101906140509190615d09565b509496509294505050506001600160a01b0383161515905061369b576116b281613cb8565b6060824710156140d65760405162461bcd60e51b815260206004820152602660248201527f416464726573733a20696e73756666696369656e742062616c616e636520666f6044820152651c8818d85b1b60d21b6064820152608401610c5d565b6001600160a01b0385163b61412d5760405162461bcd60e51b815260206004820152601d60248201527f416464726573733a2063616c6c20746f206e6f6e2d636f6e74726163740000006044820152606401610c5d565b600080866001600160a01b031685876040516141499190615a70565b60006040518083038185875af1925050503d8060008114614186576040519150601f19603f3d011682016040523d82523d6000602084013e61418b565b606091505b509150915061419b8282866141a6565b979650505050505050565b606083156141b55750816116b2565b8251156141c55782518084602001fd5b8160405162461bcd60e51b8152600401610c5d9190615852565b60008060008084860360e08112156141f657600080fd5b608081121561420457600080fd5b5093956080870135955060a0870135945060c08701359350915050565b60006020828403121561423357600080fd5b5035919050565b63ffffffff8116811461314c57600080fd5b60008082840360e081121561426057600080fd5b833561426b8161423a565b925060c0601f198201121561427f57600080fd5b506020830190509250929050565b6000806000606084860312156142a257600080fd5b8335925060208401356142b48161423a565b929592945050506040919091013590565b634e487b7160e01b600052604160045260246000fd5b604051606081016001600160401b03811182821017156142fd576142fd6142c5565b60405290565b60405160a081016001600160401b03811182821017156142fd576142fd6142c5565b60405161012081016001600160401b03811182821017156142fd576142fd6142c5565b604080519081016001600160401b03811182821017156142fd576142fd6142c5565b60405160e081016001600160401b03811182821017156142fd576142fd6142c5565b604051601f8201601f191681016001600160401b03811182821017156143b4576143b46142c5565b604052919050565b6001600160a01b038116811461314c57600080fd5b803561233b816143bc565b801515811461314c57600080fd5b803561233b816143dc565b60006080828403121561440757600080fd5b604051608081018181106001600160401b0382111715614429576144296142c5565b604052823581529050806020830135614441816143bc565b60208201526040830135614454816143dc565b60408201526060830135614467816143dc565b6060919091015292915050565b600080600060c0848603121561448957600080fd5b83359250602084013561449b8161423a565b91506144aa85604086016143f5565b90509250925092565b6000610120828403121561369b57600080fd5b634e487b7160e01b600052602160045260246000fd5b600381106144ec576144ec6144c6565b9052565b6000608080830160018060a01b038089168552602088818701526040848188015283895180865260a089019150838b01955060005b8181101561454c578651805187168452850151858401529584019591830191600101614525565b5050878103606089015288518082528382019550600581901b82018401848b0160005b8381101561466957848303601f19018952815180518916845287810151888501528681015187850152606080820151908501528a015160a08b850181905281519085018190529088019060009060c08601905b808310156146545783516145d78382516144dc565b8b8101518060020b8d850152508a81015160020b8b840152606081015161460960608501826001600160801b03169052565b508e8101518f84015260a081015160a084015260c081015160c084015260e081015160e084015261010080820151818501525050610120820191508a840193506001830192506145c2565b509a89019a945050509086019060010161456f565b50909e9d5050505050505050505050505050565b60006020828403121561468f57600080fd5b81356116b2816143bc565b60008082840360808112156146ae57600080fd5b83356146b9816143bc565b92506060601f19820112156146cd57600080fd5b506146d66142db565b60208401356146e4816143bc565b815260408401356146f48161423a565b60208201526060840135614707816143dc565b6040820152919491935090915050565b60008083601f84011261472957600080fd5b5081356001600160401b0381111561474057600080fd5b6020830191508360208260051b850101111561475b57600080fd5b9250929050565b60008060006040848603121561477757600080fd5b8335925060208401356001600160401b0381111561479457600080fd5b6147a086828701614717565b9497909650939450505050565b60005b838110156147c85781810151838201526020016147b0565b83811115610c7f5750506000910152565b600081518084526147f18160208601602086016147ad565b601f01601f19169290920160200192915050565b6000602080830181845280855180835260408601915060408160051b870101925083870160005b8281101561485a57603f198886030184526148488583516147d9565b9450928501929085019060010161482c565b5092979650505050505050565b6000806040838503121561487a57600080fd5b50508035926020909101359150565b60006020828403121561489b57600080fd5b81356116b28161423a565b60008060008060008060c087890312156148bf57600080fd5b86356148ca816143bc565b955060208701356148da816143bc565b945060408701356148ea816143bc565b935060608701356148fa816143bc565b9250608087013561490a816143bc565b915060a087013561491a816143bc565b809150509295509295509295565b8060020b811461314c57600080fd5b6000806000806080858703121561494d57600080fd5b84359350602085013561495f8161423a565b9250604085013561496f81614928565b9150606085013561497f81614928565b939692955090935050565b61ffff8116811461314c57600080fd5b803561233b8161498a565b600080600080608085870312156149bb57600080fd5b843593506020850135925060408501356149d48161423a565b9150606085013561497f8161498a565b600080604083850312156149f757600080fd5b823591506020830135614a098161423a565b809150509250929050565b600080600080600060a08688031215614a2c57600080fd5b85359450602086013593506040860135614a458161423a565b92506060860135614a558161498a565b949793965091946080013592915050565b60008060208385031215614a7957600080fd5b82356001600160401b03811115614a8f57600080fd5b614a9b85828601614717565b90969095509350505050565b81516001600160a01b0316815260208083015160808301916117599084018280516001600160a01b0316825260208082015163ffffffff16908301526040908101511515910152565b60006001600160401b03821115614b0957614b096142c5565b5060051b60200190565b60006020808385031215614b2657600080fd5b82356001600160401b03811115614b3c57600080fd5b8301601f81018513614b4d57600080fd5b8035614b60614b5b82614af0565b61438c565b81815260059190911b82018301908381019087831115614b7f57600080fd5b928401925b8284101561419b57833582529284019290840190614b84565b6020808252825182820181905260009190848201906040850190845b81811015614bd557835183529284019291840191600101614bb9565b50909695505050505050565b60008060408385031215614bf457600080fd5b8235614bff8161423a565b946020939093013593505050565b60008060408385031215614c2057600080fd5b823591506020830135614a09816143dc565b6000806000838503610120811215614c4957600080fd5b843593506020850135614c5b8161423a565b925060e0603f1982011215614c6f57600080fd5b506040840190509250925092565b600080600080600060a08688031215614c9557600080fd5b853594506020860135614ca78161423a565b93506040860135614cb781614928565b92506060860135614a5581614928565b6001600160801b038116811461314c57600080fd5b8135614ce78161498a565b815461ffff191661ffff8216178255506020820135614d058161498a565b815463ffff00001916601082901b63ffff000016178255506040820135614d2b8161498a565b815465ffff000000008260201b1691508165ffff000000001982161783556060840135614d5781614cc7565b75ffffffffffffffffffffffffffffffff0000000000008160301b168375ffffffffffffffffffffffffffffffffffff00000000198416171784555050505050565b60e081018535614da88161498a565b61ffff9081168352602087013590614dbf8261498a565b9081166020840152604087013590614dd68261498a565b1660408301526060860135614dea81614cc7565b6001600160801b03166060830152608082019490945260a081019290925260c090910152919050565b60008135611788816143dc565b60008135611788816143bc565b80547fffff0000000000000000000000000000000000000000ffffffffffffffffffff1660509290921b600160501b600160f01b0316919091179055565b8135614e768161498a565b815461ffff191661ffff8216178255506020820135614e948161498a565b815463ffff00001916601082901b63ffff000016178255506040820135614eba8161423a565b815467ffffffff000000008260201b1691508167ffffffff000000001982161783556060840135614eea816143dc565b68ffffffffff00000000199190911690911790151560401b60ff60401b161781556080820135614f19816143dc565b815460ff60481b191681151560481b60ff60481b161782555060a0820135614f40816143bc565b611c368183614e2d565b63ffffffff838116825260e08201908335614f648161498a565b61ffff808216602086015260208601359150614f7f8261498a565b16604084810191909152840135614f958161423a565b16606083810191909152830135614fab816143dc565b8015156080840152506080830135614fc2816143dc565b80151560a084015250614fd760a084016143d1565b6001600160a01b03811660c0840152509392505050565b60208082526010908201526f14185d5cd8589b194e881c185d5cd95960821b604082015260600190565b634e487b7160e01b600052600160045260246000fd5b80546001600160a01b0319166001600160a01b0392909216919091179055565b8135615059816143bc565b615063818361502e565b506020820135615072816143bc565b61507f816001840161502e565b50604082013561508e816143bc565b61509b816002840161502e565b506003810160608301356150ae8161498a565b815461ffff191661ffff82161782555060808301356150cc8161498a565b815463ffff00001916601082901b63ffff0000161782555060a08301356150f28161423a565b815467ffffffff000000008260201b1691508167ffffffff0000000019821617835560c0850135615122816143dc565b68ffffffffff00000000199190911690911790151560401b60ff60401b1617815561517061515260e08501614e13565b82805460ff60481b191691151560481b60ff60481b16919091179055565b611c366151806101008501614e20565b82614e2d565b6003811061314c57600080fd5b805161233b81615186565b805161233b81614928565b805161233b81614cc7565b600082601f8301126151c557600080fd5b815160206151d5614b5b83614af0565b82815260059290921b840181019181810190868411156151f457600080fd5b8286015b8481101561537e5780516001600160401b038082111561521757600080fd5b9088019060a0828b03601f1901121561522f57600080fd5b615237614303565b86830151615244816143bc565b80825250604083015187820152606083015160408201526080830151606082015260a08301518281111561527757600080fd5b8084019350508a603f84011261528c57600080fd5b86830151915061529e614b5b83614af0565b82815261012092830284016040019288820191908d8511156152bf57600080fd5b6040860195505b848610156153685780868f0312156152dd57600080fd5b6152e5614325565b6152ee87615193565b81526152fb8b880161519e565b8b82015261530b6040880161519e565b604082015261531c606088016151a9565b60608201526080870151608082015260a087015160a082015260c087015160c082015260e087015160e082015261010087015161010082015280845250898301925080860195506152c6565b50608083015250855250509183019183016151f8565b509695505050505050565b6000806000806080858703121561539f57600080fd5b84516153aa816143bc565b8094505060208086015193506040808701516001600160401b03808211156153d157600080fd5b818901915089601f8301126153e557600080fd5b81516153f3614b5b82614af0565b81815260069190911b8301850190858101908c83111561541257600080fd5b938601935b8285101561545b5785858e03121561542f5760008081fd5b615437614348565b8551615442816143bc565b8152858801518882015282529385019390860190615417565b60608c0151909850955050508084111561547457600080fd5b505050615483878288016151b4565b91505092959194509250565b634e487b7160e01b600052603260045260246000fd5b60008235603e198336030181126154bb57600080fd5b9190910192915050565b6000602082840312156154d757600080fd5b8135600881106116b257600080fd5b6000808335601e198436030181126154fd57600080fd5b8301803591506001600160401b0382111561551757600080fd5b60200191503681900382131561475b57600080fd5b60008060a0838503121561553f57600080fd5b823561554a8161423a565b915061555984602085016143f5565b90509250929050565b803561233b81615186565b600060e0828403121561557f57600080fd5b61558761436a565b9050813561559481614928565b815260208201356155a481614928565b60208201526040820135600f81900b81146155be57600080fd5b60408201526155cf606083016143d1565b60608201526155e06080830161499a565b60808201526155f160a083016143ea565b60a082015261560260c08301615562565b60c082015292915050565b600080610100838503121561562157600080fd5b823561562c8161423a565b9150615559846020850161556d565b6000806000806080858703121561565157600080fd5b843561565c8161423a565b9350602085013561566c81614928565b9250604085013561567c81614928565b9396929550929360600135925050565b6000806000606084860312156156a157600080fd5b8335925060208401356156b38161423a565b915060408401356156c38161498a565b809150509250925092565b60208101600883106156e2576156e26144c6565b91905290565b634e487b7160e01b600052601160045260246000fd5b6000600019821415615712576157126156e8565b5060010190565b6000821982111561572c5761572c6156e8565b500190565b600082821015615743576157436156e8565b500390565b6020808252602e908201527f496e697469616c697a61626c653a20636f6e747261637420697320616c72656160408201526d191e481a5b9a5d1a585b1a5e995960921b606082015260800190565b6000602082840312156157a857600080fd5b5051919050565b8183823760009101908152919050565b6000602082840312156157d157600080fd5b81516001600160401b03808211156157e857600080fd5b818401915084601f8301126157fc57600080fd5b81518181111561580e5761580e6142c5565b615821601f8201601f191660200161438c565b915080825285602082850101111561583857600080fd5b6158498160208401602086016147ad565b50949350505050565b6020815260006116b260208301846147d9565b6000806040838503121561587857600080fd5b505080516020909101519092909150565b600060e0828403121561589b57600080fd5b6116b2838361556d565b6001600160a01b0383168152608081016116b2602083018480516001600160a01b0316825260208082015163ffffffff16908301526040908101511515910152565b6000600160ff1b8214156158fd576158fd6156e8565b5060000390565b60006101608201905086825263ffffffff86166020830152845160020b6040830152602085015160020b60608301526040850151600f0b608083015260018060a01b0360608601511660a083015261ffff60808601511660c083015260a085015161597360e084018215159052565b5060c08501516159876101008401826144dc565b508361012083015261599e61014083018415159052565b9695505050505050565b6000806000606084860312156159bd57600080fd5b8351925060208401519150604084015190509250925092565b600080821280156001600160ff1b03849003851316156159f8576159f86156e8565b600160ff1b8390038412811615615a1157615a116156e8565b50500190565b6000808284036080811215615a2b57600080fd5b835192506060601f1982011215615a4157600080fd5b50615a4a6142db565b602084015181526040840151602082015260608401516040820152809150509250929050565b600082516154bb8184602087016147ad565b6020808252602b908201527f496e697469616c697a61626c653a20636f6e7472616374206973206e6f74206960408201526a6e697469616c697a696e6760a81b606082015260800190565b60006001600160a01b0383811690831681811015615aed57615aed6156e8565b039392505050565b60006001600160a01b0382811684821681151582840482111615615b1b57615b1b6156e8565b02949350505050565b634e487b7160e01b600052601260045260246000fd5b60006001600160a01b0383811680615b5457615b54615b24565b92169190910492915050565b6000816000190483118215151615615b7a57615b7a6156e8565b500290565b600060208284031215615b9157600080fd5b81516116b2816143dc565b6020808252825182820181905260009190848201906040850190845b81811015614bd557835163ffffffff1683529284019291840191600101615bb8565b600082601f830112615beb57600080fd5b81516020615bfb614b5b83614af0565b82815260059290921b84018101918181019086841115615c1a57600080fd5b8286015b8481101561537e578051615c31816143bc565b8352918301918301615c1e565b60008060408385031215615c5157600080fd5b82516001600160401b0380821115615c6857600080fd5b818501915085601f830112615c7c57600080fd5b81516020615c8c614b5b83614af0565b82815260059290921b84018101918181019089841115615cab57600080fd5b948201945b83861015615cd95785518060060b8114615cca5760008081fd5b82529482019490820190615cb0565b91880151919650909350505080821115615cf257600080fd5b50615cff85828601615bda565b9150509250929050565b600080600080600080600060e0888a031215615d2457600080fd5b8751615d2f816143bc565b6020890151909750615d4081614928565b6040890151909650615d518161498a565b6060890151909550615d628161498a565b6080890151909450615d738161498a565b60a089015190935060ff81168114615d8a57600080fd5b60c0890151909250615d9b816143dc565b8091505092959891949750929550565b60008160060b8360060b6000811281667fffffffffffff1901831281151615615dd657615dd66156e8565b81667fffffffffffff018313811615615df157615df16156e8565b5090039392505050565b60008160060b8360060b80615e1257615e12615b24565b667fffffffffffff19821460001982141615615e3057615e306156e8565b90059392505050565b60008260060b80615e4c57615e4c615b24565b808360060b0791505092915050565b60008160020b627fffff19811415615e7557615e756156e8565b600019019291505056fea26469706673582212202fafda995f08bae4e0f412032b49e2f11673b2886326c4151107c5fac60c8c9364736f6c634300080c0033",
  "libraries": {
    "Account": "0x824E51130520A05cC91Ed2136aE9B4eFfc48Aab4"
  },
  "devdoc": {
    "errors": {
      "AccessDenied(address)": [
        {
          "params": {
            "senderAddress": "address of msg sender"
          }
        }
      ],
      "CollateralDoesNotExist(uint32)": [
        {
          "params": {
            "collateralId": "address of token"
          }
        }
      ],
      "CollateralNotAllowedForUse(uint32)": [
        {
          "params": {
            "collateralId": "address of token"
          }
        }
      ],
      "IncorrectCollateralAddress(address,address)": [
        {
          "params": {
            "correctAddress": "correct address of collateral token",
            "incorrectAddress": "incorrect address of collateral token"
          }
        }
      ],
      "InvalidCollateralAddress(address)": [
        {
          "params": {
            "invalidAddress": "invalid address of collateral token"
          }
        }
      ],
      "InvalidMulticallOperationType(uint8)": [
        {
          "params": {
            "multicallOperationType": "is the value that is out of bounds"
          }
        }
      ],
      "LowNotionalValue(uint256)": [
        {
          "params": {
            "notionalValue": "notional value of txn"
          }
        }
      ],
      "PoolDoesNotExist(uint32)": [
        {
          "params": {
            "poolId": "unitialized truncated address supplied"
          }
        }
      ],
      "PoolNotAllowedForTrade(uint32)": [
        {
          "params": {
            "poolId": "address of token"
          }
        }
      ]
    },
    "kind": "dev",
    "methods": {
      "addMargin(uint256,uint32,uint256)": {
        "params": {
          "accountId": "account id",
          "amount": "amount of token to deposit",
          "poolId": "truncated address of token to deposit"
        }
      },
      "createAccount()": {
        "returns": {
          "newAccountId": "- serial number of the new account created"
        }
      },
      "createAccountAndAddMargin(uint32,uint256)": {
        "params": {
          "amount": "amount of token to deposit",
          "poolId": "truncated address of token to deposit"
        },
        "returns": {
          "newAccountId": "- serial number of the new account created"
        }
      },
      "governance()": {
        "details": "Returns the address of the current governance."
      },
      "liquidateLiquidityPositions(uint256)": {
        "details": "removes all the active range positions and gives liquidator a percent of notional amount closed + fixedFee",
        "params": {
          "accountId": "account id"
        }
      },
      "liquidateLiquidityPositionsWithGasClaim(uint256,uint256)": {
        "details": "removes all the active range positions and gives liquidator a percent of notional amount closed + fixedFee",
        "params": {
          "accountId": "account id",
          "gasComputationUnitsClaim": "estimated computation gas units, if more than actual, tx will revert"
        },
        "returns": {
          "keeperFee": ": amount of fees paid to caller"
        }
      },
      "liquidateTokenPosition(uint256,uint256,uint32,uint16)": {
        "details": "transfers the fraction of token position at a discount to current price to liquidators account and gives liquidator some fixedFee",
        "params": {
          "liquidationBps": "fraction of the token position to be transferred in BPS",
          "liquidatorAccountId": "liquidator account id",
          "poolId": "truncated address of token to withdraw",
          "targetAccountId": "account id"
        },
        "returns": {
          "liquidatorBalanceAdjustments": "- balance changes in liquidator vQuote and token balance and net token position"
        }
      },
      "liquidateTokenPositionWithGasClaim(uint256,uint256,uint32,uint16,uint256)": {
        "details": "transfers the fraction of token position at a discount to current price to liquidators account and gives liquidator some fixedFee",
        "params": {
          "gasComputationUnitsClaim": "estimated computation gas units, if more than actual, tx will revert",
          "liquidationBps": "fraction of the token position to be transferred in BPS",
          "liquidatorAccountId": "liquidator account id",
          "poolId": "truncated address of token to withdraw",
          "targetAccountId": "account id"
        },
        "returns": {
          "liquidatorBalanceAdjustments": "- balance changes in liquidator vQuote and token balance and net token position"
        }
      },
      "multicall(bytes[])": {
        "details": "The `msg.value` should not be trusted for any method callable from multicall.",
        "params": {
          "data": "The encoded function data for each of the calls to make to this contract"
        },
        "returns": {
          "results": "The results from each of the calls passed in via data"
        }
      },
      "paused()": {
        "details": "Returns true if the contract is paused, and false otherwise."
      },
      "removeLimitOrder(uint256,uint32,int24,int24)": {
        "details": "checks the position of current price relative to limit order and checks limitOrderType",
        "params": {
          "accountId": "account id",
          "poolId": "truncated address of token to withdraw",
          "tickLower": "liquidity change parameters",
          "tickUpper": "liquidity change parameters"
        }
      },
      "removeMargin(uint256,uint32,uint256)": {
        "params": {
          "accountId": "account id",
          "amount": "amount of token to withdraw",
          "poolId": "truncated address of token to withdraw"
        }
      },
      "swapToken(uint256,uint32,(int256,uint160,bool,bool))": {
        "params": {
          "accountId": "account id",
          "poolId": "truncated address of token to withdraw",
          "swapParams": "swap parameters"
        }
      },
      "teamMultisig()": {
        "details": "Returns the address of the current team multisig.transferTeamMultisig"
      },
      "transferGovernance(address)": {
        "details": "Transfers governance to a new account (`newGovernance`). Can only be called by the current governance."
      },
      "transferTeamMultisig(address)": {
        "details": "Transfers teamMultisig to a new account (`newTeamMultisig`). Can only be called by the current teamMultisig or current governance."
      },
      "updatePoolSettings(uint32,(uint16,uint16,uint32,bool,bool,address))": {
        "params": {
          "newSettings": "updated rage trade pool settings",
          "poolId": "rage trade pool id"
        }
      },
      "updateProfit(uint256,int256)": {
        "params": {
          "accountId": "account id",
          "amount": "amount of token to withdraw"
        }
      },
      "updateRangeOrder(uint256,uint32,(int24,int24,int128,uint160,uint16,bool,uint8))": {
        "params": {
          "accountId": "account id",
          "liquidityChangeParams": "liquidity change parameters",
          "poolId": "truncated address of token to withdraw"
        }
      },
      "withdrawProtocolFee(address[])": {
        "params": {
          "wrapperAddresses": "list of wrapper addresses to collect fees from"
        }
      }
    },
    "version": 1
  },
  "userdoc": {
    "errors": {
      "AccessDenied(address)": [
        {
          "notice": "error to denote invalid account access"
        }
      ],
      "CollateralDoesNotExist(uint32)": [
        {
          "notice": "error to denote usage of uninitialized token"
        }
      ],
      "CollateralNotAllowedForUse(uint32)": [
        {
          "notice": "error to denote usage of unsupported collateral token"
        }
      ],
      "IncorrectCollateralAddress(address,address)": [
        {
          "notice": "error to denote incorrect address is supplied while updating collateral settings"
        }
      ],
      "InvalidCollateralAddress(address)": [
        {
          "notice": "error to denote invalid address supplied as a collateral token"
        }
      ],
      "InvalidMulticallOperationType(uint8)": [
        {
          "notice": "this is errored when the enum (uint8) value is out of bounds"
        }
      ],
      "InvalidTokenLiquidationParameters()": [
        {
          "notice": "error to denote invalid token liquidation (fraction to liquidate> 1)"
        }
      ],
      "KeeperFeeNotPositive(int256)": [
        {
          "notice": "error to denote that keeper fee is negative or zero"
        }
      ],
      "LowNotionalValue(uint256)": [
        {
          "notice": "error to denote low notional value of txn"
        }
      ],
      "PoolDoesNotExist(uint32)": [
        {
          "notice": "error to denote usage of uninitialized pool"
        }
      ],
      "PoolNotAllowedForTrade(uint32)": [
        {
          "notice": "error to denote usage of unsupported pool"
        }
      ],
      "SlippageBeyondTolerance()": [
        {
          "notice": "error to denote slippage of txn beyond set threshold"
        }
      ]
    },
    "events": {
      "AccountCreated(address,uint256)": {
        "notice": "denotes new account creation"
      },
      "CollateralSettingsUpdated(address,(address,uint32,bool))": {
        "notice": "new collateral supported as margin"
      },
      "MarginAdded(uint256,uint32,uint256)": {
        "notice": "denotes deposit of margin"
      },
      "MarginRemoved(uint256,uint32,uint256)": {
        "notice": "denotes withdrawal of margin"
      },
      "PoolSettingsUpdated(uint32,(uint16,uint16,uint32,bool,bool,address))": {
        "notice": "maintainance margin ratio of a pool changed"
      },
      "ProtocolSettingsUpdated((uint16,uint16,uint16,uint128),uint256,uint256,uint256)": {
        "notice": "protocol settings changed"
      }
    },
    "kind": "user",
    "methods": {
      "__initialize_ClearingHouse(address,address,address,address,address,address)": {
        "notice": "SYSTEM FUNCTIONS"
      },
      "addMargin(uint256,uint32,uint256)": {
        "notice": "deposits 'amount' of token associated with 'poolId'"
      },
      "createAccount()": {
        "notice": "creates a new account and adds it to the accounts map"
      },
      "createAccountAndAddMargin(uint32,uint256)": {
        "notice": "creates a new account and deposits 'amount' of token associated with 'poolId'"
      },
      "getAccountInfo(uint256)": {
        "notice": "Account.Info VIEW"
      },
      "liquidateLiquidityPositions(uint256)": {
        "notice": "keeper call for liquidation of range position"
      },
      "liquidateLiquidityPositionsWithGasClaim(uint256,uint256)": {
        "notice": "keeper call for liquidation of range position"
      },
      "liquidateTokenPosition(uint256,uint256,uint32,uint16)": {
        "notice": "keeper call for liquidation of token position"
      },
      "liquidateTokenPositionWithGasClaim(uint256,uint256,uint32,uint16,uint256)": {
        "notice": "keeper call for liquidation of token position"
      },
      "multicall(bytes[])": {
        "notice": "Call multiple functions in the current contract and return the data from all of them if they all succeed"
      },
      "multicallWithSingleMarginCheck(uint256,(uint8,bytes)[])": {
        "notice": "MULTICALL"
      },
      "protocolInfo()": {
        "notice": "Protocol.Info VIEW"
      },
      "removeLimitOrder(uint256,uint32,int24,int24)": {
        "notice": "keeper call to remove a limit order"
      },
      "removeLimitOrderWithGasClaim(uint256,uint32,int24,int24,uint256)": {
        "notice": "ALTERNATE LIQUIDATION METHODS FOR FIX FEE CLAIM"
      },
      "removeMargin(uint256,uint32,uint256)": {
        "notice": "withdraws 'amount' of token associated with 'poolId'"
      },
      "swapToken(uint256,uint32,(int256,uint160,bool,bool))": {
        "notice": "swaps token associated with 'poolId' by 'amount' (Long if amount>0 else Short)"
      },
      "updateCollateralSettings(address,(address,uint32,bool))": {
        "notice": "ADMIN FUNCTIONS"
      },
      "updatePoolSettings(uint32,(uint16,uint16,uint32,bool,bool,address))": {
        "notice": "updates the rage trade pool settings"
      },
      "updateProfit(uint256,int256)": {
        "notice": "withdraws 'amount' of settlement token from the profit made"
      },
      "updateRangeOrder(uint256,uint32,(int24,int24,int128,uint160,uint16,bool,uint8))": {
        "notice": "updates range order of token associated with 'poolId' by 'liquidityDelta' (Adds if amount>0 else Removes)also can be used to update limitOrderType"
      },
      "withdrawProtocolFee(address[])": {
        "notice": "withdraws protocol fees collected in the supplied wrappers to team multisig"
      }
    },
    "version": 1
  },
  "storageLayout": {
    "storage": [
      {
        "astId": 21569,
        "contract": "contracts/protocol/clearinghouse/ClearingHouseArbitrum.sol:ClearingHouseArbitrum",
        "label": "_emptySlots1",
        "offset": 0,
        "slot": "0",
        "type": "t_array(t_uint256)100_storage"
      },
      {
        "astId": 21572,
        "contract": "contracts/protocol/clearinghouse/ClearingHouseArbitrum.sol:ClearingHouseArbitrum",
        "label": "protocol",
        "offset": 0,
        "slot": "100",
        "type": "t_struct(Info)13570_storage"
      },
      {
        "astId": 21574,
        "contract": "contracts/protocol/clearinghouse/ClearingHouseArbitrum.sol:ClearingHouseArbitrum",
        "label": "numAccounts",
        "offset": 0,
        "slot": "208",
        "type": "t_uint256"
      },
      {
        "astId": 21579,
        "contract": "contracts/protocol/clearinghouse/ClearingHouseArbitrum.sol:ClearingHouseArbitrum",
        "label": "accounts",
        "offset": 0,
        "slot": "209",
        "type": "t_mapping(t_uint256,t_struct(Info)9106_storage)"
      },
      {
        "astId": 21581,
        "contract": "contracts/protocol/clearinghouse/ClearingHouseArbitrum.sol:ClearingHouseArbitrum",
        "label": "rageTradeFactoryAddress",
        "offset": 0,
        "slot": "210",
        "type": "t_address"
      },
      {
        "astId": 21584,
        "contract": "contracts/protocol/clearinghouse/ClearingHouseArbitrum.sol:ClearingHouseArbitrum",
        "label": "insuranceFund",
        "offset": 0,
        "slot": "211",
        "type": "t_contract(IInsuranceFund)8090"
      },
      {
        "astId": 21587,
        "contract": "contracts/protocol/clearinghouse/ClearingHouseArbitrum.sol:ClearingHouseArbitrum",
        "label": "nativeOracle",
        "offset": 0,
        "slot": "212",
        "type": "t_contract(IOracle)8100"
      },
      {
        "astId": 21591,
        "contract": "contracts/protocol/clearinghouse/ClearingHouseArbitrum.sol:ClearingHouseArbitrum",
        "label": "_emptySlots2",
        "offset": 0,
        "slot": "213",
        "type": "t_array(t_uint256)100_storage"
      },
      {
        "astId": 299,
        "contract": "contracts/protocol/clearinghouse/ClearingHouseArbitrum.sol:ClearingHouseArbitrum",
        "label": "_initialized",
        "offset": 0,
        "slot": "313",
        "type": "t_bool"
      },
      {
        "astId": 302,
        "contract": "contracts/protocol/clearinghouse/ClearingHouseArbitrum.sol:ClearingHouseArbitrum",
        "label": "_initializing",
        "offset": 1,
        "slot": "313",
        "type": "t_bool"
      },
      {
        "astId": 1477,
        "contract": "contracts/protocol/clearinghouse/ClearingHouseArbitrum.sol:ClearingHouseArbitrum",
        "label": "__gap",
        "offset": 0,
        "slot": "314",
        "type": "t_array(t_uint256)50_storage"
      },
      {
        "astId": 387,
        "contract": "contracts/protocol/clearinghouse/ClearingHouseArbitrum.sol:ClearingHouseArbitrum",
        "label": "_paused",
        "offset": 0,
        "slot": "364",
        "type": "t_bool"
      },
      {
        "astId": 476,
        "contract": "contracts/protocol/clearinghouse/ClearingHouseArbitrum.sol:ClearingHouseArbitrum",
        "label": "__gap",
        "offset": 0,
        "slot": "365",
        "type": "t_array(t_uint256)49_storage"
      },
      {
        "astId": 28721,
        "contract": "contracts/protocol/clearinghouse/ClearingHouseArbitrum.sol:ClearingHouseArbitrum",
        "label": "_governance",
        "offset": 0,
        "slot": "414",
        "type": "t_address"
      },
      {
        "astId": 28723,
        "contract": "contracts/protocol/clearinghouse/ClearingHouseArbitrum.sol:ClearingHouseArbitrum",
        "label": "_teamMultisig",
        "offset": 0,
        "slot": "415",
        "type": "t_address"
      },
      {
        "astId": 29348,
        "contract": "contracts/protocol/clearinghouse/ClearingHouseArbitrum.sol:ClearingHouseArbitrum",
        "label": "txGasPriceLimit",
        "offset": 0,
        "slot": "416",
        "type": "t_uint256"
      }
    ],
    "types": {
      "t_address": {
        "encoding": "inplace",
        "label": "address",
        "numberOfBytes": "20"
      },
      "t_array(t_uint256)100_storage": {
        "base": "t_uint256",
        "encoding": "inplace",
        "label": "uint256[100]",
        "numberOfBytes": "3200"
      },
      "t_array(t_uint256)49_storage": {
        "base": "t_uint256",
        "encoding": "inplace",
        "label": "uint256[49]",
        "numberOfBytes": "1568"
      },
      "t_array(t_uint256)50_storage": {
        "base": "t_uint256",
        "encoding": "inplace",
        "label": "uint256[50]",
        "numberOfBytes": "1600"
      },
      "t_array(t_uint32)8_storage": {
        "base": "t_uint32",
        "encoding": "inplace",
        "label": "uint32[8]",
        "numberOfBytes": "32"
      },
      "t_array(t_uint48)5_storage": {
        "base": "t_uint48",
        "encoding": "inplace",
        "label": "uint48[5]",
        "numberOfBytes": "32"
      },
      "t_bool": {
        "encoding": "inplace",
        "label": "bool",
        "numberOfBytes": "1"
      },
      "t_contract(IERC20)3616": {
        "encoding": "inplace",
        "label": "contract IERC20",
        "numberOfBytes": "20"
      },
      "t_contract(IInsuranceFund)8090": {
        "encoding": "inplace",
        "label": "contract IInsuranceFund",
        "numberOfBytes": "20"
      },
      "t_contract(IOracle)8100": {
        "encoding": "inplace",
        "label": "contract IOracle",
        "numberOfBytes": "20"
      },
      "t_contract(IUniswapV3Pool)5513": {
        "encoding": "inplace",
        "label": "contract IUniswapV3Pool",
        "numberOfBytes": "20"
      },
      "t_contract(IVPoolWrapper)8295": {
        "encoding": "inplace",
        "label": "contract IVPoolWrapper",
        "numberOfBytes": "20"
      },
      "t_contract(IVQuote)8319": {
        "encoding": "inplace",
        "label": "contract IVQuote",
        "numberOfBytes": "20"
      },
      "t_contract(IVToken)8343": {
        "encoding": "inplace",
        "label": "contract IVToken",
        "numberOfBytes": "20"
      },
      "t_enum(LimitOrderType)8578": {
        "encoding": "inplace",
        "label": "enum IClearingHouseEnums.LimitOrderType",
        "numberOfBytes": "1"
      },
      "t_int24": {
        "encoding": "inplace",
        "label": "int24",
        "numberOfBytes": "3"
      },
      "t_int256": {
        "encoding": "inplace",
        "label": "int256",
        "numberOfBytes": "32"
      },
      "t_mapping(t_uint256,t_struct(Info)9106_storage)": {
        "encoding": "mapping",
        "key": "t_uint256",
        "label": "mapping(uint256 => struct Account.Info)",
        "numberOfBytes": "32",
        "value": "t_struct(Info)9106_storage"
      },
      "t_mapping(t_uint32,t_struct(Collateral)8730_storage)": {
        "encoding": "mapping",
        "key": "t_uint32",
        "label": "mapping(uint32 => struct IClearingHouseStructures.Collateral)",
        "numberOfBytes": "32",
        "value": "t_struct(Collateral)8730_storage"
      },
      "t_mapping(t_uint32,t_struct(Info)16846_storage)": {
        "encoding": "mapping",
        "key": "t_uint32",
        "label": "mapping(uint32 => struct VTokenPosition.Info)",
        "numberOfBytes": "32",
        "value": "t_struct(Info)16846_storage"
      },
      "t_mapping(t_uint32,t_struct(Pool)8751_storage)": {
        "encoding": "mapping",
        "key": "t_uint32",
        "label": "mapping(uint32 => struct IClearingHouseStructures.Pool)",
        "numberOfBytes": "32",
        "value": "t_struct(Pool)8751_storage"
      },
      "t_mapping(t_uint32,t_uint256)": {
        "encoding": "mapping",
        "key": "t_uint32",
        "label": "mapping(uint32 => uint256)",
        "numberOfBytes": "32",
        "value": "t_uint256"
      },
      "t_mapping(t_uint48,t_struct(Info)11580_storage)": {
        "encoding": "mapping",
        "key": "t_uint48",
        "label": "mapping(uint48 => struct LiquidityPosition.Info)",
        "numberOfBytes": "32",
        "value": "t_struct(Info)11580_storage"
      },
      "t_struct(Collateral)8730_storage": {
        "encoding": "inplace",
        "label": "struct IClearingHouseStructures.Collateral",
        "members": [
          {
            "astId": 8726,
            "contract": "contracts/protocol/clearinghouse/ClearingHouseArbitrum.sol:ClearingHouseArbitrum",
            "label": "token",
            "offset": 0,
            "slot": "0",
            "type": "t_contract(IERC20)3616"
          },
          {
            "astId": 8729,
            "contract": "contracts/protocol/clearinghouse/ClearingHouseArbitrum.sol:ClearingHouseArbitrum",
            "label": "settings",
            "offset": 0,
            "slot": "1",
            "type": "t_struct(CollateralSettings)8738_storage"
          }
        ],
        "numberOfBytes": "64"
      },
      "t_struct(CollateralSettings)8738_storage": {
        "encoding": "inplace",
        "label": "struct IClearingHouseStructures.CollateralSettings",
        "members": [
          {
            "astId": 8733,
            "contract": "contracts/protocol/clearinghouse/ClearingHouseArbitrum.sol:ClearingHouseArbitrum",
            "label": "oracle",
            "offset": 0,
            "slot": "0",
            "type": "t_contract(IOracle)8100"
          },
          {
            "astId": 8735,
            "contract": "contracts/protocol/clearinghouse/ClearingHouseArbitrum.sol:ClearingHouseArbitrum",
            "label": "twapDuration",
            "offset": 20,
            "slot": "0",
            "type": "t_uint32"
          },
          {
            "astId": 8737,
            "contract": "contracts/protocol/clearinghouse/ClearingHouseArbitrum.sol:ClearingHouseArbitrum",
            "label": "isAllowedForDeposit",
            "offset": 24,
            "slot": "0",
            "type": "t_bool"
          }
        ],
        "numberOfBytes": "32"
      },
      "t_struct(Info)11580_storage": {
        "encoding": "inplace",
        "label": "struct LiquidityPosition.Info",
        "members": [
          {
            "astId": 11559,
            "contract": "contracts/protocol/clearinghouse/ClearingHouseArbitrum.sol:ClearingHouseArbitrum",
            "label": "limitOrderType",
            "offset": 0,
            "slot": "0",
            "type": "t_enum(LimitOrderType)8578"
          },
          {
            "astId": 11561,
            "contract": "contracts/protocol/clearinghouse/ClearingHouseArbitrum.sol:ClearingHouseArbitrum",
            "label": "tickLower",
            "offset": 1,
            "slot": "0",
            "type": "t_int24"
          },
          {
            "astId": 11563,
            "contract": "contracts/protocol/clearinghouse/ClearingHouseArbitrum.sol:ClearingHouseArbitrum",
            "label": "tickUpper",
            "offset": 4,
            "slot": "0",
            "type": "t_int24"
          },
          {
            "astId": 11565,
            "contract": "contracts/protocol/clearinghouse/ClearingHouseArbitrum.sol:ClearingHouseArbitrum",
            "label": "liquidity",
            "offset": 7,
            "slot": "0",
            "type": "t_uint128"
          },
          {
            "astId": 11567,
            "contract": "contracts/protocol/clearinghouse/ClearingHouseArbitrum.sol:ClearingHouseArbitrum",
            "label": "vTokenAmountIn",
            "offset": 0,
            "slot": "1",
            "type": "t_int256"
          },
          {
            "astId": 11569,
            "contract": "contracts/protocol/clearinghouse/ClearingHouseArbitrum.sol:ClearingHouseArbitrum",
            "label": "sumALastX128",
            "offset": 0,
            "slot": "2",
            "type": "t_int256"
          },
          {
            "astId": 11571,
            "contract": "contracts/protocol/clearinghouse/ClearingHouseArbitrum.sol:ClearingHouseArbitrum",
            "label": "sumBInsideLastX128",
            "offset": 0,
            "slot": "3",
            "type": "t_int256"
          },
          {
            "astId": 11573,
            "contract": "contracts/protocol/clearinghouse/ClearingHouseArbitrum.sol:ClearingHouseArbitrum",
            "label": "sumFpInsideLastX128",
            "offset": 0,
            "slot": "4",
            "type": "t_int256"
          },
          {
            "astId": 11575,
            "contract": "contracts/protocol/clearinghouse/ClearingHouseArbitrum.sol:ClearingHouseArbitrum",
            "label": "sumFeeInsideLastX128",
            "offset": 0,
            "slot": "5",
            "type": "t_uint256"
          },
          {
            "astId": 11579,
            "contract": "contracts/protocol/clearinghouse/ClearingHouseArbitrum.sol:ClearingHouseArbitrum",
            "label": "_emptySlots",
            "offset": 0,
            "slot": "6",
            "type": "t_array(t_uint256)100_storage"
          }
        ],
        "numberOfBytes": "3392"
      },
      "t_struct(Info)13570_storage": {
        "encoding": "inplace",
        "label": "struct Protocol.Info",
        "members": [
          {
            "astId": 13545,
            "contract": "contracts/protocol/clearinghouse/ClearingHouseArbitrum.sol:ClearingHouseArbitrum",
            "label": "pools",
            "offset": 0,
            "slot": "0",
            "type": "t_mapping(t_uint32,t_struct(Pool)8751_storage)"
          },
          {
            "astId": 13550,
            "contract": "contracts/protocol/clearinghouse/ClearingHouseArbitrum.sol:ClearingHouseArbitrum",
            "label": "collaterals",
            "offset": 0,
            "slot": "1",
            "type": "t_mapping(t_uint32,t_struct(Collateral)8730_storage)"
          },
          {
            "astId": 13553,
            "contract": "contracts/protocol/clearinghouse/ClearingHouseArbitrum.sol:ClearingHouseArbitrum",
            "label": "settlementToken",
            "offset": 0,
            "slot": "2",
            "type": "t_contract(IERC20)3616"
          },
          {
            "astId": 13556,
            "contract": "contracts/protocol/clearinghouse/ClearingHouseArbitrum.sol:ClearingHouseArbitrum",
            "label": "vQuote",
            "offset": 0,
            "slot": "3",
            "type": "t_contract(IVQuote)8319"
          },
          {
            "astId": 13559,
            "contract": "contracts/protocol/clearinghouse/ClearingHouseArbitrum.sol:ClearingHouseArbitrum",
            "label": "liquidationParams",
            "offset": 0,
            "slot": "4",
            "type": "t_struct(LiquidationParams)8806_storage"
          },
          {
            "astId": 13561,
            "contract": "contracts/protocol/clearinghouse/ClearingHouseArbitrum.sol:ClearingHouseArbitrum",
            "label": "minRequiredMargin",
            "offset": 0,
            "slot": "5",
            "type": "t_uint256"
          },
          {
            "astId": 13563,
            "contract": "contracts/protocol/clearinghouse/ClearingHouseArbitrum.sol:ClearingHouseArbitrum",
            "label": "removeLimitOrderFee",
            "offset": 0,
            "slot": "6",
            "type": "t_uint256"
          },
          {
            "astId": 13565,
            "contract": "contracts/protocol/clearinghouse/ClearingHouseArbitrum.sol:ClearingHouseArbitrum",
            "label": "minimumOrderNotional",
            "offset": 0,
            "slot": "7",
            "type": "t_uint256"
          },
          {
            "astId": 13569,
            "contract": "contracts/protocol/clearinghouse/ClearingHouseArbitrum.sol:ClearingHouseArbitrum",
            "label": "_emptySlots",
            "offset": 0,
            "slot": "8",
            "type": "t_array(t_uint256)100_storage"
          }
        ],
        "numberOfBytes": "3456"
      },
      "t_struct(Info)16846_storage": {
        "encoding": "inplace",
        "label": "struct VTokenPosition.Info",
        "members": [
          {
            "astId": 16834,
            "contract": "contracts/protocol/clearinghouse/ClearingHouseArbitrum.sol:ClearingHouseArbitrum",
            "label": "balance",
            "offset": 0,
            "slot": "0",
            "type": "t_int256"
          },
          {
            "astId": 16836,
            "contract": "contracts/protocol/clearinghouse/ClearingHouseArbitrum.sol:ClearingHouseArbitrum",
            "label": "netTraderPosition",
            "offset": 0,
            "slot": "1",
            "type": "t_int256"
          },
          {
            "astId": 16838,
            "contract": "contracts/protocol/clearinghouse/ClearingHouseArbitrum.sol:ClearingHouseArbitrum",
            "label": "sumAX128Chkpt",
            "offset": 0,
            "slot": "2",
            "type": "t_int256"
          },
          {
            "astId": 16841,
            "contract": "contracts/protocol/clearinghouse/ClearingHouseArbitrum.sol:ClearingHouseArbitrum",
            "label": "liquidityPositions",
            "offset": 0,
            "slot": "3",
            "type": "t_struct(Set)11556_storage"
          },
          {
            "astId": 16845,
            "contract": "contracts/protocol/clearinghouse/ClearingHouseArbitrum.sol:ClearingHouseArbitrum",
            "label": "_emptySlots",
            "offset": 0,
            "slot": "105",
            "type": "t_array(t_uint256)100_storage"
          }
        ],
        "numberOfBytes": "6560"
      },
      "t_struct(Info)9106_storage": {
        "encoding": "inplace",
        "label": "struct Account.Info",
        "members": [
          {
            "astId": 9093,
            "contract": "contracts/protocol/clearinghouse/ClearingHouseArbitrum.sol:ClearingHouseArbitrum",
            "label": "id",
            "offset": 0,
            "slot": "0",
            "type": "t_uint96"
          },
          {
            "astId": 9095,
            "contract": "contracts/protocol/clearinghouse/ClearingHouseArbitrum.sol:ClearingHouseArbitrum",
            "label": "owner",
            "offset": 12,
            "slot": "0",
            "type": "t_address"
          },
          {
            "astId": 9098,
            "contract": "contracts/protocol/clearinghouse/ClearingHouseArbitrum.sol:ClearingHouseArbitrum",
            "label": "tokenPositions",
            "offset": 0,
            "slot": "1",
            "type": "t_struct(Set)16832_storage"
          },
          {
            "astId": 9101,
            "contract": "contracts/protocol/clearinghouse/ClearingHouseArbitrum.sol:ClearingHouseArbitrum",
            "label": "collateralDeposits",
            "offset": 0,
            "slot": "104",
            "type": "t_struct(Set)10898_storage"
          },
          {
            "astId": 9105,
            "contract": "contracts/protocol/clearinghouse/ClearingHouseArbitrum.sol:ClearingHouseArbitrum",
            "label": "_emptySlots",
            "offset": 0,
            "slot": "206",
            "type": "t_array(t_uint256)100_storage"
          }
        ],
        "numberOfBytes": "9792"
      },
      "t_struct(LiquidationParams)8806_storage": {
        "encoding": "inplace",
        "label": "struct IClearingHouseStructures.LiquidationParams",
        "members": [
          {
            "astId": 8799,
            "contract": "contracts/protocol/clearinghouse/ClearingHouseArbitrum.sol:ClearingHouseArbitrum",
            "label": "liquidationFeeFraction",
            "offset": 0,
            "slot": "0",
            "type": "t_uint16"
          },
          {
            "astId": 8801,
            "contract": "contracts/protocol/clearinghouse/ClearingHouseArbitrum.sol:ClearingHouseArbitrum",
            "label": "tokenLiquidationPriceDeltaBps",
            "offset": 2,
            "slot": "0",
            "type": "t_uint16"
          },
          {
            "astId": 8803,
            "contract": "contracts/protocol/clearinghouse/ClearingHouseArbitrum.sol:ClearingHouseArbitrum",
            "label": "insuranceFundFeeShareBps",
            "offset": 4,
            "slot": "0",
            "type": "t_uint16"
          },
          {
            "astId": 8805,
            "contract": "contracts/protocol/clearinghouse/ClearingHouseArbitrum.sol:ClearingHouseArbitrum",
            "label": "maxRangeLiquidationFees",
            "offset": 6,
            "slot": "0",
            "type": "t_uint128"
          }
        ],
        "numberOfBytes": "32"
      },
      "t_struct(Pool)8751_storage": {
        "encoding": "inplace",
        "label": "struct IClearingHouseStructures.Pool",
        "members": [
          {
            "astId": 8741,
            "contract": "contracts/protocol/clearinghouse/ClearingHouseArbitrum.sol:ClearingHouseArbitrum",
            "label": "vToken",
            "offset": 0,
            "slot": "0",
            "type": "t_contract(IVToken)8343"
          },
          {
            "astId": 8744,
            "contract": "contracts/protocol/clearinghouse/ClearingHouseArbitrum.sol:ClearingHouseArbitrum",
            "label": "vPool",
            "offset": 0,
            "slot": "1",
            "type": "t_contract(IUniswapV3Pool)5513"
          },
          {
            "astId": 8747,
            "contract": "contracts/protocol/clearinghouse/ClearingHouseArbitrum.sol:ClearingHouseArbitrum",
            "label": "vPoolWrapper",
            "offset": 0,
            "slot": "2",
            "type": "t_contract(IVPoolWrapper)8295"
          },
          {
            "astId": 8750,
            "contract": "contracts/protocol/clearinghouse/ClearingHouseArbitrum.sol:ClearingHouseArbitrum",
            "label": "settings",
            "offset": 0,
            "slot": "3",
            "type": "t_struct(PoolSettings)8765_storage"
          }
        ],
        "numberOfBytes": "128"
      },
      "t_struct(PoolSettings)8765_storage": {
        "encoding": "inplace",
        "label": "struct IClearingHouseStructures.PoolSettings",
        "members": [
          {
            "astId": 8753,
            "contract": "contracts/protocol/clearinghouse/ClearingHouseArbitrum.sol:ClearingHouseArbitrum",
            "label": "initialMarginRatio",
            "offset": 0,
            "slot": "0",
            "type": "t_uint16"
          },
          {
            "astId": 8755,
            "contract": "contracts/protocol/clearinghouse/ClearingHouseArbitrum.sol:ClearingHouseArbitrum",
            "label": "maintainanceMarginRatio",
            "offset": 2,
            "slot": "0",
            "type": "t_uint16"
          },
          {
            "astId": 8757,
            "contract": "contracts/protocol/clearinghouse/ClearingHouseArbitrum.sol:ClearingHouseArbitrum",
            "label": "twapDuration",
            "offset": 4,
            "slot": "0",
            "type": "t_uint32"
          },
          {
            "astId": 8759,
            "contract": "contracts/protocol/clearinghouse/ClearingHouseArbitrum.sol:ClearingHouseArbitrum",
            "label": "isAllowedForTrade",
            "offset": 8,
            "slot": "0",
            "type": "t_bool"
          },
          {
            "astId": 8761,
            "contract": "contracts/protocol/clearinghouse/ClearingHouseArbitrum.sol:ClearingHouseArbitrum",
            "label": "isCrossMargined",
            "offset": 9,
            "slot": "0",
            "type": "t_bool"
          },
          {
            "astId": 8764,
            "contract": "contracts/protocol/clearinghouse/ClearingHouseArbitrum.sol:ClearingHouseArbitrum",
            "label": "oracle",
            "offset": 10,
            "slot": "0",
            "type": "t_contract(IOracle)8100"
          }
        ],
        "numberOfBytes": "32"
      },
      "t_struct(Set)10898_storage": {
        "encoding": "inplace",
        "label": "struct CollateralDeposit.Set",
        "members": [
          {
            "astId": 10889,
            "contract": "contracts/protocol/clearinghouse/ClearingHouseArbitrum.sol:ClearingHouseArbitrum",
            "label": "active",
            "offset": 0,
            "slot": "0",
            "type": "t_array(t_uint32)8_storage"
          },
          {
            "astId": 10893,
            "contract": "contracts/protocol/clearinghouse/ClearingHouseArbitrum.sol:ClearingHouseArbitrum",
            "label": "deposits",
            "offset": 0,
            "slot": "1",
            "type": "t_mapping(t_uint32,t_uint256)"
          },
          {
            "astId": 10897,
            "contract": "contracts/protocol/clearinghouse/ClearingHouseArbitrum.sol:ClearingHouseArbitrum",
            "label": "_emptySlots",
            "offset": 0,
            "slot": "2",
            "type": "t_array(t_uint256)100_storage"
          }
        ],
        "numberOfBytes": "3264"
      },
      "t_struct(Set)11556_storage": {
        "encoding": "inplace",
        "label": "struct LiquidityPosition.Set",
        "members": [
          {
            "astId": 11546,
            "contract": "contracts/protocol/clearinghouse/ClearingHouseArbitrum.sol:ClearingHouseArbitrum",
            "label": "active",
            "offset": 0,
            "slot": "0",
            "type": "t_array(t_uint48)5_storage"
          },
          {
            "astId": 11551,
            "contract": "contracts/protocol/clearinghouse/ClearingHouseArbitrum.sol:ClearingHouseArbitrum",
            "label": "positions",
            "offset": 0,
            "slot": "1",
            "type": "t_mapping(t_uint48,t_struct(Info)11580_storage)"
          },
          {
            "astId": 11555,
            "contract": "contracts/protocol/clearinghouse/ClearingHouseArbitrum.sol:ClearingHouseArbitrum",
            "label": "_emptySlots",
            "offset": 0,
            "slot": "2",
            "type": "t_array(t_uint256)100_storage"
          }
        ],
        "numberOfBytes": "3264"
      },
      "t_struct(Set)16832_storage": {
        "encoding": "inplace",
        "label": "struct VTokenPosition.Set",
        "members": [
          {
            "astId": 16820,
            "contract": "contracts/protocol/clearinghouse/ClearingHouseArbitrum.sol:ClearingHouseArbitrum",
            "label": "active",
            "offset": 0,
            "slot": "0",
            "type": "t_array(t_uint32)8_storage"
          },
          {
            "astId": 16825,
            "contract": "contracts/protocol/clearinghouse/ClearingHouseArbitrum.sol:ClearingHouseArbitrum",
            "label": "positions",
            "offset": 0,
            "slot": "1",
            "type": "t_mapping(t_uint32,t_struct(Info)16846_storage)"
          },
          {
            "astId": 16827,
            "contract": "contracts/protocol/clearinghouse/ClearingHouseArbitrum.sol:ClearingHouseArbitrum",
            "label": "vQuoteBalance",
            "offset": 0,
            "slot": "2",
            "type": "t_int256"
          },
          {
            "astId": 16831,
            "contract": "contracts/protocol/clearinghouse/ClearingHouseArbitrum.sol:ClearingHouseArbitrum",
            "label": "_emptySlots",
            "offset": 0,
            "slot": "3",
            "type": "t_array(t_uint256)100_storage"
          }
        ],
        "numberOfBytes": "3296"
      },
      "t_uint128": {
        "encoding": "inplace",
        "label": "uint128",
        "numberOfBytes": "16"
      },
      "t_uint16": {
        "encoding": "inplace",
        "label": "uint16",
        "numberOfBytes": "2"
      },
      "t_uint256": {
        "encoding": "inplace",
        "label": "uint256",
        "numberOfBytes": "32"
      },
      "t_uint32": {
        "encoding": "inplace",
        "label": "uint32",
        "numberOfBytes": "4"
      },
      "t_uint48": {
        "encoding": "inplace",
        "label": "uint48",
        "numberOfBytes": "6"
      },
      "t_uint96": {
        "encoding": "inplace",
        "label": "uint96",
        "numberOfBytes": "12"
      }
    }
  }
}