{
  "address": "0xBE90DBba2D42230A760Dab83874d882dDf33dEb8",
  "abi": [
    {
      "inputs": [
        {
          "internalType": "address",
          "name": "senderAddress",
          "type": "address"
        }
      ],
      "name": "AccessDenied",
      "type": "error"
    },
    {
      "inputs": [
        {
          "internalType": "uint32",
          "name": "collateralId",
          "type": "uint32"
        }
      ],
      "name": "CollateralDoesNotExist",
      "type": "error"
    },
    {
      "inputs": [
        {
          "internalType": "uint32",
          "name": "collateralId",
          "type": "uint32"
        }
      ],
      "name": "CollateralNotAllowedForUse",
      "type": "error"
    },
    {
      "inputs": [
        {
          "internalType": "uint160",
          "name": "sqrtPriceX96",
          "type": "uint160"
        }
      ],
      "name": "IllegalSqrtPrice",
      "type": "error"
    },
    {
      "inputs": [
        {
          "internalType": "contract IERC20",
          "name": "incorrectAddress",
          "type": "address"
        },
        {
          "internalType": "contract IERC20",
          "name": "correctAddress",
          "type": "address"
        }
      ],
      "name": "IncorrectCollateralAddress",
      "type": "error"
    },
    {
      "inputs": [
        {
          "internalType": "address",
          "name": "invalidAddress",
          "type": "address"
        }
      ],
      "name": "InvalidCollateralAddress",
      "type": "error"
    },
    {
      "inputs": [
        {
          "internalType": "enum IClearingHouseEnums.MulticallOperationType",
          "name": "multicallOperationType",
          "type": "uint8"
        }
      ],
      "name": "InvalidMulticallOperationType",
      "type": "error"
    },
    {
      "inputs": [],
      "name": "InvalidTokenLiquidationParameters",
      "type": "error"
    },
    {
      "inputs": [
        {
          "internalType": "int256",
          "name": "keeperFee",
          "type": "int256"
        }
      ],
      "name": "KeeperFeeNotPositive",
      "type": "error"
    },
    {
      "inputs": [
        {
          "internalType": "uint256",
          "name": "notionalValue",
          "type": "uint256"
        }
      ],
      "name": "LowNotionalValue",
      "type": "error"
    },
    {
      "inputs": [],
      "name": "NotRageTradeFactory",
      "type": "error"
    },
    {
      "inputs": [
        {
          "internalType": "uint32",
          "name": "poolId",
          "type": "uint32"
        }
      ],
      "name": "PoolDoesNotExist",
      "type": "error"
    },
    {
      "inputs": [
        {
          "internalType": "uint32",
          "name": "poolId",
          "type": "uint32"
        }
      ],
      "name": "PoolNotAllowedForTrade",
      "type": "error"
    },
    {
      "inputs": [],
      "name": "SlippageBeyondTolerance",
      "type": "error"
    },
    {
      "inputs": [],
      "name": "T",
      "type": "error"
    },
    {
      "inputs": [],
      "name": "Unauthorised",
      "type": "error"
    },
    {
      "inputs": [],
      "name": "ZeroAddress",
      "type": "error"
    },
    {
      "inputs": [],
      "name": "ZeroAmount",
      "type": "error"
    },
    {
      "anonymous": false,
      "inputs": [
        {
          "indexed": true,
          "internalType": "address",
          "name": "ownerAddress",
          "type": "address"
        },
        {
          "indexed": false,
          "internalType": "uint256",
          "name": "accountId",
          "type": "uint256"
        }
      ],
      "name": "AccountCreated",
      "type": "event"
    },
    {
      "anonymous": false,
      "inputs": [
        {
          "indexed": false,
          "internalType": "contract IERC20",
          "name": "cToken",
          "type": "address"
        },
        {
          "components": [
            {
              "internalType": "contract IOracle",
              "name": "oracle",
              "type": "address"
            },
            {
              "internalType": "uint32",
              "name": "twapDuration",
              "type": "uint32"
            },
            {
              "internalType": "bool",
              "name": "isAllowedForDeposit",
              "type": "bool"
            }
          ],
          "indexed": false,
          "internalType": "struct IClearingHouseStructures.CollateralSettings",
          "name": "cTokenInfo",
          "type": "tuple"
        }
      ],
      "name": "CollateralSettingsUpdated",
      "type": "event"
    },
    {
      "anonymous": false,
      "inputs": [
        {
          "indexed": true,
          "internalType": "address",
          "name": "previousGovernance",
          "type": "address"
        },
        {
          "indexed": true,
          "internalType": "address",
          "name": "newGovernance",
          "type": "address"
        }
      ],
      "name": "GovernanceTransferred",
      "type": "event"
    },
    {
      "anonymous": false,
      "inputs": [
        {
          "indexed": false,
          "internalType": "address",
          "name": "account",
          "type": "address"
        }
      ],
      "name": "Paused",
      "type": "event"
    },
    {
      "anonymous": false,
      "inputs": [
        {
          "indexed": false,
          "internalType": "bool",
          "name": "paused",
          "type": "bool"
        }
      ],
      "name": "PausedUpdated",
      "type": "event"
    },
    {
      "anonymous": false,
      "inputs": [
        {
          "indexed": false,
          "internalType": "uint32",
          "name": "poolId",
          "type": "uint32"
        },
        {
          "components": [
            {
              "internalType": "uint16",
              "name": "initialMarginRatioBps",
              "type": "uint16"
            },
            {
              "internalType": "uint16",
              "name": "maintainanceMarginRatioBps",
              "type": "uint16"
            },
            {
              "internalType": "uint16",
              "name": "maxVirtualPriceDeviationRatioBps",
              "type": "uint16"
            },
            {
              "internalType": "uint32",
              "name": "twapDuration",
              "type": "uint32"
            },
            {
              "internalType": "bool",
              "name": "isAllowedForTrade",
              "type": "bool"
            },
            {
              "internalType": "bool",
              "name": "isCrossMargined",
              "type": "bool"
            },
            {
              "internalType": "contract IOracle",
              "name": "oracle",
              "type": "address"
            }
          ],
          "indexed": false,
          "internalType": "struct IClearingHouseStructures.PoolSettings",
          "name": "settings",
          "type": "tuple"
        }
      ],
      "name": "PoolSettingsUpdated",
      "type": "event"
    },
    {
      "anonymous": false,
      "inputs": [
        {
          "components": [
            {
              "internalType": "uint16",
              "name": "rangeLiquidationFeeFraction",
              "type": "uint16"
            },
            {
              "internalType": "uint16",
              "name": "tokenLiquidationFeeFraction",
              "type": "uint16"
            },
            {
              "internalType": "uint16",
              "name": "closeFactorMMThresholdBps",
              "type": "uint16"
            },
            {
              "internalType": "uint16",
              "name": "partialLiquidationCloseFactorBps",
              "type": "uint16"
            },
            {
              "internalType": "uint16",
              "name": "insuranceFundFeeShareBps",
              "type": "uint16"
            },
            {
              "internalType": "uint16",
              "name": "liquidationSlippageSqrtToleranceBps",
              "type": "uint16"
            },
            {
              "internalType": "uint64",
              "name": "maxRangeLiquidationFees",
              "type": "uint64"
            },
            {
              "internalType": "uint64",
              "name": "minNotionalLiquidatable",
              "type": "uint64"
            }
          ],
          "indexed": false,
          "internalType": "struct IClearingHouseStructures.LiquidationParams",
          "name": "liquidationParams",
          "type": "tuple"
        },
        {
          "indexed": false,
          "internalType": "uint256",
          "name": "removeLimitOrderFee",
          "type": "uint256"
        },
        {
          "indexed": false,
          "internalType": "uint256",
          "name": "minimumOrderNotional",
          "type": "uint256"
        },
        {
          "indexed": false,
          "internalType": "uint256",
          "name": "minRequiredMargin",
          "type": "uint256"
        }
      ],
      "name": "ProtocolSettingsUpdated",
      "type": "event"
    },
    {
      "anonymous": false,
      "inputs": [
        {
          "indexed": true,
          "internalType": "address",
          "name": "previousTeamMultisig",
          "type": "address"
        },
        {
          "indexed": true,
          "internalType": "address",
          "name": "newTeamMultisig",
          "type": "address"
        }
      ],
      "name": "TeamMultisigTransferred",
      "type": "event"
    },
    {
      "anonymous": false,
      "inputs": [
        {
          "indexed": false,
          "internalType": "address",
          "name": "account",
          "type": "address"
        }
      ],
      "name": "Unpaused",
      "type": "event"
    },
    {
      "inputs": [
        {
          "internalType": "address",
          "name": "_rageTradeFactoryAddress",
          "type": "address"
        },
        {
          "internalType": "contract IERC20",
          "name": "_defaultCollateralToken",
          "type": "address"
        },
        {
          "internalType": "contract IOracle",
          "name": "_defaultCollateralTokenOracle",
          "type": "address"
        },
        {
          "internalType": "contract IInsuranceFund",
          "name": "_insuranceFund",
          "type": "address"
        },
        {
          "internalType": "contract IVQuote",
          "name": "_vQuote",
          "type": "address"
        }
      ],
      "name": "__initialize_ClearingHouse",
      "outputs": [],
      "stateMutability": "nonpayable",
      "type": "function"
    },
    {
      "inputs": [],
      "name": "createAccount",
      "outputs": [
        {
          "internalType": "uint256",
          "name": "newAccountId",
          "type": "uint256"
        }
      ],
      "stateMutability": "nonpayable",
      "type": "function"
    },
    {
      "inputs": [
        {
          "internalType": "uint32",
          "name": "collateralId",
          "type": "uint32"
        },
        {
          "internalType": "uint256",
          "name": "amount",
          "type": "uint256"
        }
      ],
      "name": "createAccountAndAddMargin",
      "outputs": [
        {
          "internalType": "uint256",
          "name": "newAccountId",
          "type": "uint256"
        }
      ],
      "stateMutability": "nonpayable",
      "type": "function"
    },
    {
      "inputs": [
        {
          "internalType": "bytes32",
          "name": "slot",
          "type": "bytes32"
        }
      ],
      "name": "extsload",
      "outputs": [
        {
          "internalType": "bytes32",
          "name": "val",
          "type": "bytes32"
        }
      ],
      "stateMutability": "view",
      "type": "function"
    },
    {
      "inputs": [
        {
          "internalType": "bytes32[]",
          "name": "slots",
          "type": "bytes32[]"
        }
      ],
      "name": "extsload",
      "outputs": [
        {
          "internalType": "bytes32[]",
          "name": "",
          "type": "bytes32[]"
        }
      ],
      "stateMutability": "view",
      "type": "function"
    },
    {
      "inputs": [
        {
          "internalType": "uint256",
          "name": "accountId",
          "type": "uint256"
        }
      ],
      "name": "getAccountInfo",
      "outputs": [
        {
          "internalType": "address",
          "name": "owner",
          "type": "address"
        },
        {
          "internalType": "int256",
          "name": "vQuoteBalance",
          "type": "int256"
        },
        {
          "components": [
            {
              "internalType": "contract IERC20",
              "name": "collateral",
              "type": "address"
            },
            {
              "internalType": "uint256",
              "name": "balance",
              "type": "uint256"
            }
          ],
          "internalType": "struct IClearingHouseStructures.CollateralDepositView[]",
          "name": "collateralDeposits",
          "type": "tuple[]"
        },
        {
          "components": [
            {
              "internalType": "uint32",
              "name": "poolId",
              "type": "uint32"
            },
            {
              "internalType": "int256",
              "name": "balance",
              "type": "int256"
            },
            {
              "internalType": "int256",
              "name": "netTraderPosition",
              "type": "int256"
            },
            {
              "internalType": "int256",
              "name": "sumALastX128",
              "type": "int256"
            },
            {
              "components": [
                {
                  "internalType": "int24",
                  "name": "tickLower",
                  "type": "int24"
                },
                {
                  "internalType": "int24",
                  "name": "tickUpper",
                  "type": "int24"
                },
                {
                  "internalType": "uint128",
                  "name": "liquidity",
                  "type": "uint128"
                },
                {
                  "internalType": "int256",
                  "name": "vTokenAmountIn",
                  "type": "int256"
                },
                {
                  "internalType": "int256",
                  "name": "sumALastX128",
                  "type": "int256"
                },
                {
                  "internalType": "int256",
                  "name": "sumBInsideLastX128",
                  "type": "int256"
                },
                {
                  "internalType": "int256",
                  "name": "sumFpInsideLastX128",
                  "type": "int256"
                },
                {
                  "internalType": "uint256",
                  "name": "sumFeeInsideLastX128",
                  "type": "uint256"
                },
                {
                  "internalType": "enum IClearingHouseEnums.LimitOrderType",
                  "name": "limitOrderType",
                  "type": "uint8"
                }
              ],
              "internalType": "struct IClearingHouseStructures.LiquidityPositionView[]",
              "name": "liquidityPositions",
              "type": "tuple[]"
            }
          ],
          "internalType": "struct IClearingHouseStructures.VTokenPositionView[]",
          "name": "tokenPositions",
          "type": "tuple[]"
        }
      ],
      "stateMutability": "view",
      "type": "function"
    },
    {
      "inputs": [
        {
          "internalType": "uint256",
          "name": "accountId",
          "type": "uint256"
        },
        {
          "internalType": "bool",
          "name": "isInitialMargin",
          "type": "bool"
        }
      ],
      "name": "getAccountMarketValueAndRequiredMargin",
      "outputs": [
        {
          "internalType": "int256",
          "name": "marketValue",
          "type": "int256"
        },
        {
          "internalType": "int256",
          "name": "requiredMargin",
          "type": "int256"
        }
      ],
      "stateMutability": "view",
      "type": "function"
    },
    {
      "inputs": [
        {
          "internalType": "uint256",
          "name": "accountId",
          "type": "uint256"
        }
      ],
      "name": "getAccountNetProfit",
      "outputs": [
        {
          "internalType": "int256",
          "name": "accountNetProfit",
          "type": "int256"
        }
      ],
      "stateMutability": "view",
      "type": "function"
    },
    {
      "inputs": [
        {
          "internalType": "uint256",
          "name": "accountId",
          "type": "uint256"
        },
        {
          "internalType": "uint32",
          "name": "poolId",
          "type": "uint32"
        }
      ],
      "name": "getAccountNetTokenPosition",
      "outputs": [
        {
          "internalType": "int256",
          "name": "netPosition",
          "type": "int256"
        }
      ],
      "stateMutability": "view",
      "type": "function"
    },
    {
      "inputs": [
        {
          "internalType": "uint32",
          "name": "collateralId",
          "type": "uint32"
        }
      ],
      "name": "getCollateralInfo",
      "outputs": [
        {
          "components": [
            {
              "internalType": "contract IERC20",
              "name": "token",
              "type": "address"
            },
            {
              "components": [
                {
                  "internalType": "contract IOracle",
                  "name": "oracle",
                  "type": "address"
                },
                {
                  "internalType": "uint32",
                  "name": "twapDuration",
                  "type": "uint32"
                },
                {
                  "internalType": "bool",
                  "name": "isAllowedForDeposit",
                  "type": "bool"
                }
              ],
              "internalType": "struct IClearingHouseStructures.CollateralSettings",
              "name": "settings",
              "type": "tuple"
            }
          ],
          "internalType": "struct IClearingHouseStructures.Collateral",
          "name": "",
          "type": "tuple"
        }
      ],
      "stateMutability": "view",
      "type": "function"
    },
    {
      "inputs": [
        {
          "internalType": "uint32",
          "name": "poolId",
          "type": "uint32"
        }
      ],
      "name": "getPoolInfo",
      "outputs": [
        {
          "components": [
            {
              "internalType": "contract IVToken",
              "name": "vToken",
              "type": "address"
            },
            {
              "internalType": "contract IUniswapV3Pool",
              "name": "vPool",
              "type": "address"
            },
            {
              "internalType": "contract IVPoolWrapper",
              "name": "vPoolWrapper",
              "type": "address"
            },
            {
              "components": [
                {
                  "internalType": "uint16",
                  "name": "initialMarginRatioBps",
                  "type": "uint16"
                },
                {
                  "internalType": "uint16",
                  "name": "maintainanceMarginRatioBps",
                  "type": "uint16"
                },
                {
                  "internalType": "uint16",
                  "name": "maxVirtualPriceDeviationRatioBps",
                  "type": "uint16"
                },
                {
                  "internalType": "uint32",
                  "name": "twapDuration",
                  "type": "uint32"
                },
                {
                  "internalType": "bool",
                  "name": "isAllowedForTrade",
                  "type": "bool"
                },
                {
                  "internalType": "bool",
                  "name": "isCrossMargined",
                  "type": "bool"
                },
                {
                  "internalType": "contract IOracle",
                  "name": "oracle",
                  "type": "address"
                }
              ],
              "internalType": "struct IClearingHouseStructures.PoolSettings",
              "name": "settings",
              "type": "tuple"
            }
          ],
          "internalType": "struct IClearingHouseStructures.Pool",
          "name": "",
          "type": "tuple"
        }
      ],
      "stateMutability": "view",
      "type": "function"
    },
    {
      "inputs": [],
      "name": "getProtocolInfo",
      "outputs": [
        {
          "internalType": "contract IERC20",
          "name": "settlementToken",
          "type": "address"
        },
        {
          "internalType": "contract IVQuote",
          "name": "vQuote",
          "type": "address"
        },
        {
          "components": [
            {
              "internalType": "uint16",
              "name": "rangeLiquidationFeeFraction",
              "type": "uint16"
            },
            {
              "internalType": "uint16",
              "name": "tokenLiquidationFeeFraction",
              "type": "uint16"
            },
            {
              "internalType": "uint16",
              "name": "closeFactorMMThresholdBps",
              "type": "uint16"
            },
            {
              "internalType": "uint16",
              "name": "partialLiquidationCloseFactorBps",
              "type": "uint16"
            },
            {
              "internalType": "uint16",
              "name": "insuranceFundFeeShareBps",
              "type": "uint16"
            },
            {
              "internalType": "uint16",
              "name": "liquidationSlippageSqrtToleranceBps",
              "type": "uint16"
            },
            {
              "internalType": "uint64",
              "name": "maxRangeLiquidationFees",
              "type": "uint64"
            },
            {
              "internalType": "uint64",
              "name": "minNotionalLiquidatable",
              "type": "uint64"
            }
          ],
          "internalType": "struct IClearingHouseStructures.LiquidationParams",
          "name": "liquidationParams",
          "type": "tuple"
        },
        {
          "internalType": "uint256",
          "name": "minRequiredMargin",
          "type": "uint256"
        },
        {
          "internalType": "uint256",
          "name": "removeLimitOrderFee",
          "type": "uint256"
        },
        {
          "internalType": "uint256",
          "name": "minimumOrderNotional",
          "type": "uint256"
        }
      ],
      "stateMutability": "view",
      "type": "function"
    },
    {
      "inputs": [
        {
          "internalType": "uint32",
          "name": "poolId",
          "type": "uint32"
        }
      ],
      "name": "getTwapPrices",
      "outputs": [
        {
          "internalType": "uint256",
          "name": "realPriceX128",
          "type": "uint256"
        },
        {
          "internalType": "uint256",
          "name": "virtualPriceX128",
          "type": "uint256"
        }
      ],
      "stateMutability": "view",
      "type": "function"
    },
    {
      "inputs": [],
      "name": "governance",
      "outputs": [
        {
          "internalType": "address",
          "name": "",
          "type": "address"
        }
      ],
      "stateMutability": "view",
      "type": "function"
    },
    {
      "inputs": [],
      "name": "insuranceFund",
      "outputs": [
        {
          "internalType": "contract IInsuranceFund",
          "name": "",
          "type": "address"
        }
      ],
      "stateMutability": "view",
      "type": "function"
    },
    {
      "inputs": [
        {
          "internalType": "uint32",
          "name": "poolId",
          "type": "uint32"
        }
      ],
      "name": "isPoolIdAvailable",
      "outputs": [
        {
          "internalType": "bool",
          "name": "",
          "type": "bool"
        }
      ],
      "stateMutability": "view",
      "type": "function"
    },
    {
      "inputs": [
        {
          "internalType": "uint256",
          "name": "accountId",
          "type": "uint256"
        }
      ],
      "name": "liquidateLiquidityPositions",
      "outputs": [],
      "stateMutability": "nonpayable",
      "type": "function"
    },
    {
      "inputs": [
        {
          "internalType": "uint256",
          "name": "targetAccountId",
          "type": "uint256"
        },
        {
          "internalType": "uint32",
          "name": "poolId",
          "type": "uint32"
        }
      ],
      "name": "liquidateTokenPosition",
      "outputs": [
        {
          "internalType": "int256",
          "name": "keeperFee",
          "type": "int256"
        }
      ],
      "stateMutability": "nonpayable",
      "type": "function"
    },
    {
      "inputs": [
        {
          "internalType": "bytes[]",
          "name": "data",
          "type": "bytes[]"
        }
      ],
      "name": "multicall",
      "outputs": [
        {
          "internalType": "bytes[]",
          "name": "results",
          "type": "bytes[]"
        }
      ],
      "stateMutability": "payable",
      "type": "function"
    },
    {
      "inputs": [
        {
          "internalType": "uint256",
          "name": "accountId",
          "type": "uint256"
        },
        {
          "components": [
            {
              "internalType": "enum IClearingHouseEnums.MulticallOperationType",
              "name": "operationType",
              "type": "uint8"
            },
            {
              "internalType": "bytes",
              "name": "data",
              "type": "bytes"
            }
          ],
          "internalType": "struct IClearingHouseStructures.MulticallOperation[]",
          "name": "operations",
          "type": "tuple[]"
        }
      ],
      "name": "multicallWithSingleMarginCheck",
      "outputs": [
        {
          "internalType": "bytes[]",
          "name": "results",
          "type": "bytes[]"
        }
      ],
      "stateMutability": "nonpayable",
      "type": "function"
    },
    {
      "inputs": [],
      "name": "numAccounts",
      "outputs": [
        {
          "internalType": "uint256",
          "name": "",
          "type": "uint256"
        }
      ],
      "stateMutability": "view",
      "type": "function"
    },
    {
      "inputs": [
        {
          "internalType": "uint32[]",
          "name": "allPoolIds",
          "type": "uint32[]"
        }
      ],
      "name": "pause",
      "outputs": [],
      "stateMutability": "nonpayable",
      "type": "function"
    },
    {
      "inputs": [],
      "name": "paused",
      "outputs": [
        {
          "internalType": "bool",
          "name": "",
          "type": "bool"
        }
      ],
      "stateMutability": "view",
      "type": "function"
    },
    {
      "inputs": [],
      "name": "rageTradeFactoryAddress",
      "outputs": [
        {
          "internalType": "address",
          "name": "",
          "type": "address"
        }
      ],
      "stateMutability": "view",
      "type": "function"
    },
    {
      "inputs": [
        {
          "components": [
            {
              "internalType": "contract IVToken",
              "name": "vToken",
              "type": "address"
            },
            {
              "internalType": "contract IUniswapV3Pool",
              "name": "vPool",
              "type": "address"
            },
            {
              "internalType": "contract IVPoolWrapper",
              "name": "vPoolWrapper",
              "type": "address"
            },
            {
              "components": [
                {
                  "internalType": "uint16",
                  "name": "initialMarginRatioBps",
                  "type": "uint16"
                },
                {
                  "internalType": "uint16",
                  "name": "maintainanceMarginRatioBps",
                  "type": "uint16"
                },
                {
                  "internalType": "uint16",
                  "name": "maxVirtualPriceDeviationRatioBps",
                  "type": "uint16"
                },
                {
                  "internalType": "uint32",
                  "name": "twapDuration",
                  "type": "uint32"
                },
                {
                  "internalType": "bool",
                  "name": "isAllowedForTrade",
                  "type": "bool"
                },
                {
                  "internalType": "bool",
                  "name": "isCrossMargined",
                  "type": "bool"
                },
                {
                  "internalType": "contract IOracle",
                  "name": "oracle",
                  "type": "address"
                }
              ],
              "internalType": "struct IClearingHouseStructures.PoolSettings",
              "name": "settings",
              "type": "tuple"
            }
          ],
          "internalType": "struct IClearingHouseStructures.Pool",
          "name": "poolInfo",
          "type": "tuple"
        }
      ],
      "name": "registerPool",
      "outputs": [],
      "stateMutability": "nonpayable",
      "type": "function"
    },
    {
      "inputs": [
        {
          "internalType": "uint256",
          "name": "accountId",
          "type": "uint256"
        },
        {
          "internalType": "uint32",
          "name": "poolId",
          "type": "uint32"
        },
        {
          "internalType": "int24",
          "name": "tickLower",
          "type": "int24"
        },
        {
          "internalType": "int24",
          "name": "tickUpper",
          "type": "int24"
        }
      ],
      "name": "removeLimitOrder",
      "outputs": [],
      "stateMutability": "nonpayable",
      "type": "function"
    },
    {
      "inputs": [
        {
          "internalType": "uint256",
          "name": "accountId",
          "type": "uint256"
        },
        {
          "internalType": "uint32",
          "name": "poolId",
          "type": "uint32"
        },
        {
          "components": [
            {
              "internalType": "int256",
              "name": "amount",
              "type": "int256"
            },
            {
              "internalType": "uint160",
              "name": "sqrtPriceLimit",
              "type": "uint160"
            },
            {
              "internalType": "bool",
              "name": "isNotional",
              "type": "bool"
            },
            {
              "internalType": "bool",
              "name": "isPartialAllowed",
              "type": "bool"
            }
          ],
          "internalType": "struct IClearingHouseStructures.SwapParams",
          "name": "swapParams",
          "type": "tuple"
        }
      ],
      "name": "swapToken",
      "outputs": [
        {
          "internalType": "int256",
          "name": "vTokenAmountOut",
          "type": "int256"
        },
        {
          "internalType": "int256",
          "name": "vQuoteAmountOut",
          "type": "int256"
        }
      ],
      "stateMutability": "nonpayable",
      "type": "function"
    },
    {
      "inputs": [],
      "name": "teamMultisig",
      "outputs": [
        {
          "internalType": "address",
          "name": "",
          "type": "address"
        }
      ],
      "stateMutability": "view",
      "type": "function"
    },
    {
      "inputs": [
        {
          "internalType": "address",
          "name": "newGovernance",
          "type": "address"
        }
      ],
      "name": "transferGovernance",
      "outputs": [],
      "stateMutability": "nonpayable",
      "type": "function"
    },
    {
      "inputs": [
        {
          "internalType": "address",
          "name": "newTeamMultisig",
          "type": "address"
        }
      ],
      "name": "transferTeamMultisig",
      "outputs": [],
      "stateMutability": "nonpayable",
      "type": "function"
    },
    {
      "inputs": [
        {
          "internalType": "uint32[]",
          "name": "allPoolIds",
          "type": "uint32[]"
        }
      ],
      "name": "unpause",
      "outputs": [],
      "stateMutability": "nonpayable",
      "type": "function"
    },
    {
      "inputs": [
        {
          "internalType": "contract IERC20",
          "name": "cToken",
          "type": "address"
        },
        {
          "components": [
            {
              "internalType": "contract IOracle",
              "name": "oracle",
              "type": "address"
            },
            {
              "internalType": "uint32",
              "name": "twapDuration",
              "type": "uint32"
            },
            {
              "internalType": "bool",
              "name": "isAllowedForDeposit",
              "type": "bool"
            }
          ],
          "internalType": "struct IClearingHouseStructures.CollateralSettings",
          "name": "collateralSettings",
          "type": "tuple"
        }
      ],
      "name": "updateCollateralSettings",
      "outputs": [],
      "stateMutability": "nonpayable",
      "type": "function"
    },
    {
      "inputs": [
        {
          "internalType": "uint256",
          "name": "accountId",
          "type": "uint256"
        },
        {
          "internalType": "uint32",
          "name": "collateralId",
          "type": "uint32"
        },
        {
          "internalType": "int256",
          "name": "amount",
          "type": "int256"
        }
      ],
      "name": "updateMargin",
      "outputs": [],
      "stateMutability": "nonpayable",
      "type": "function"
    },
    {
      "inputs": [
        {
          "internalType": "uint32",
          "name": "poolId",
          "type": "uint32"
        },
        {
          "components": [
            {
              "internalType": "uint16",
              "name": "initialMarginRatioBps",
              "type": "uint16"
            },
            {
              "internalType": "uint16",
              "name": "maintainanceMarginRatioBps",
              "type": "uint16"
            },
            {
              "internalType": "uint16",
              "name": "maxVirtualPriceDeviationRatioBps",
              "type": "uint16"
            },
            {
              "internalType": "uint32",
              "name": "twapDuration",
              "type": "uint32"
            },
            {
              "internalType": "bool",
              "name": "isAllowedForTrade",
              "type": "bool"
            },
            {
              "internalType": "bool",
              "name": "isCrossMargined",
              "type": "bool"
            },
            {
              "internalType": "contract IOracle",
              "name": "oracle",
              "type": "address"
            }
          ],
          "internalType": "struct IClearingHouseStructures.PoolSettings",
          "name": "newSettings",
          "type": "tuple"
        }
      ],
      "name": "updatePoolSettings",
      "outputs": [],
      "stateMutability": "nonpayable",
      "type": "function"
    },
    {
      "inputs": [
        {
          "internalType": "uint256",
          "name": "accountId",
          "type": "uint256"
        },
        {
          "internalType": "int256",
          "name": "amount",
          "type": "int256"
        }
      ],
      "name": "updateProfit",
      "outputs": [],
      "stateMutability": "nonpayable",
      "type": "function"
    },
    {
      "inputs": [
        {
          "components": [
            {
              "internalType": "uint16",
              "name": "rangeLiquidationFeeFraction",
              "type": "uint16"
            },
            {
              "internalType": "uint16",
              "name": "tokenLiquidationFeeFraction",
              "type": "uint16"
            },
            {
              "internalType": "uint16",
              "name": "closeFactorMMThresholdBps",
              "type": "uint16"
            },
            {
              "internalType": "uint16",
              "name": "partialLiquidationCloseFactorBps",
              "type": "uint16"
            },
            {
              "internalType": "uint16",
              "name": "insuranceFundFeeShareBps",
              "type": "uint16"
            },
            {
              "internalType": "uint16",
              "name": "liquidationSlippageSqrtToleranceBps",
              "type": "uint16"
            },
            {
              "internalType": "uint64",
              "name": "maxRangeLiquidationFees",
              "type": "uint64"
            },
            {
              "internalType": "uint64",
              "name": "minNotionalLiquidatable",
              "type": "uint64"
            }
          ],
          "internalType": "struct IClearingHouseStructures.LiquidationParams",
          "name": "_liquidationParams",
          "type": "tuple"
        },
        {
          "internalType": "uint256",
          "name": "_removeLimitOrderFee",
          "type": "uint256"
        },
        {
          "internalType": "uint256",
          "name": "_minimumOrderNotional",
          "type": "uint256"
        },
        {
          "internalType": "uint256",
          "name": "_minRequiredMargin",
          "type": "uint256"
        }
      ],
      "name": "updateProtocolSettings",
      "outputs": [],
      "stateMutability": "nonpayable",
      "type": "function"
    },
    {
      "inputs": [
        {
          "internalType": "uint256",
          "name": "accountId",
          "type": "uint256"
        },
        {
          "internalType": "uint32",
          "name": "poolId",
          "type": "uint32"
        },
        {
          "components": [
            {
              "internalType": "int24",
              "name": "tickLower",
              "type": "int24"
            },
            {
              "internalType": "int24",
              "name": "tickUpper",
              "type": "int24"
            },
            {
              "internalType": "int128",
              "name": "liquidityDelta",
              "type": "int128"
            },
            {
              "internalType": "uint160",
              "name": "sqrtPriceCurrent",
              "type": "uint160"
            },
            {
              "internalType": "uint16",
              "name": "slippageToleranceBps",
              "type": "uint16"
            },
            {
              "internalType": "bool",
              "name": "closeTokenPosition",
              "type": "bool"
            },
            {
              "internalType": "enum IClearingHouseEnums.LimitOrderType",
              "name": "limitOrderType",
              "type": "uint8"
            }
          ],
          "internalType": "struct IClearingHouseStructures.LiquidityChangeParams",
          "name": "liquidityChangeParams",
          "type": "tuple"
        }
      ],
      "name": "updateRangeOrder",
      "outputs": [
        {
          "internalType": "int256",
          "name": "vTokenAmountOut",
          "type": "int256"
        },
        {
          "internalType": "int256",
          "name": "vQuoteAmountOut",
          "type": "int256"
        }
      ],
      "stateMutability": "nonpayable",
      "type": "function"
    },
    {
      "inputs": [
        {
          "internalType": "address[]",
          "name": "wrapperAddresses",
          "type": "address[]"
        }
      ],
      "name": "withdrawProtocolFee",
      "outputs": [],
      "stateMutability": "nonpayable",
      "type": "function"
    }
  ],
  "transactionHash": "0x31d58e542088a891ef3fea844419733727bd9e7da86d8bb76cc0b309c32c9ff9",
  "args": [],
  "numDeployments": 1,
  "solcInputHash": "f51e2eca45877d432ab4f6c147bdf3df",
  "bytecode": "0x60806040523480156200001157600080fd5b506200001c62000022565b620002e3565b61013854610100900460ff1662000041576101385460ff16156200004b565b6200004b620000f7565b620000a35760405162461bcd60e51b815260206004820152602e60248201526000805160206200605b83398151915260448201526d191e481a5b9a5d1a585b1a5e995960921b60648201526084015b60405180910390fd5b61013854610100900460ff16158015620000c857610138805461ffff19166101011790555b620000d262000115565b33620000df818062000185565b508015620000f457610138805461ff00191690555b50565b60006200010f30620002d460201b620020df1760201c565b15905090565b61013854610100900460ff16620001835760405162461bcd60e51b815260206004820152602b60248201527f496e697469616c697a61626c653a20636f6e7472616374206973206e6f74206960448201526a6e697469616c697a696e6760a81b60648201526084016200009a565b565b61013854610100900460ff16620001a4576101385460ff1615620001ae565b620001ae620000f7565b620002025760405162461bcd60e51b815260206004820152602e60248201526000805160206200605b83398151915260448201526d191e481a5b9a5d1a585b1a5e995960921b60648201526084016200009a565b61013854610100900460ff161580156200022757610138805461ffff19166101011790555b61019d80546001600160a01b0319166001600160a01b0385169081179091556040516000907f5f56bee8cffbe9a78652a74a60705edede02af10b0bbb888ca44b79a0d42ce80908290a361019e80546001600160a01b0319166001600160a01b0384169081179091556040516000907f39355f2f5c8206286978f443aa8126bbd29fa09c53c04569502647f3a59c8cb2908290a38015620002cf57610138805461ff00191690555b505050565b6001600160a01b03163b151590565b615d6880620002f36000396000f3fe6080604052600436106102855760003560e01c80638f24ab1111610153578063bc38d542116100cb578063e1f167131161007f578063e450f6f411610064578063e450f6f41461098b578063e67ed1df146109ab578063ee6cd5ee146109cb57600080fd5b8063e1f167131461094b578063e3d41c181461096b57600080fd5b8063da047996116100b0578063da047996146108df578063dbc0c085146108ff578063dbd035ff1461091e57600080fd5b8063bc38d54214610892578063d38bfff4146108bf57600080fd5b8063a9b0a93411610122578063ac9650d811610107578063ac9650d814610701578063b670ed5214610714578063b79023031461087257600080fd5b8063a9b0a934146106c1578063ab3b19f8146106e157600080fd5b80638f24ab111461064c5780639cd1be581461066c5780639dca362f1461068c578063a05c8baf146106a157600080fd5b8063440ab745116102015780637cc2f4f5116101b55780637f64d6631161019a5780637f64d663146105f657806385ff7cbd146106165780638ce25a931461063657600080fd5b80637cc2f4f5146105b65780637d2efe07146105d657600080fd5b80635aa6e675116101e65780635aa6e6751461055e5780635c975abb1461057d5780636a4864821461059657600080fd5b8063440ab7451461050e578063569634d31461053e57600080fd5b80633d0aea3d116102585780633ffe794c1161023d5780633ffe794c146104a157806340c4f69b146104c157806343afafba146104ee57600080fd5b80633d0aea3d146104475780633d56a35e1461046957600080fd5b80630dca69f91461028a5780631e2eaeaf146103b557806332a72d98146103e25780633b561afc14610417575b600080fd5b34801561029657600080fd5b5061039a6040805161010081018252600080825260208201819052918101829052606081018290526080810182905260a0810182905260c0810182905260e0810182905281905050606654606754604080516101008101825260685461ffff80821683526201000082048116602084015264010000000082048116938301939093526601000000000000810483166060830152680100000000000000008104831660808301526a0100000000000000000000810490921660a082015267ffffffffffffffff600160601b8304811660c0830152600160a01b90920490911660e0820152606954606a54606b546001600160a01b039586169794909516955091939092565b6040516103ac96959493929190613f42565b60405180910390f35b3480156103c157600080fd5b506103d46103d036600461400a565b5490565b6040519081526020016103ac565b3480156103ee57600080fd5b506104026103fd3660046141d3565b6109eb565b604080519283526020830191909152016103ac565b34801561042357600080fd5b5061043761043236600461400a565b610a67565b6040516103ac949392919061423c565b34801561045357600080fd5b506104676104623660046143d4565b610b0b565b005b34801561047557600080fd5b5060d254610489906001600160a01b031681565b6040516001600160a01b0390911681526020016103ac565b3480156104ad57600080fd5b506104676104bc36600461446f565b610b5f565b3480156104cd57600080fd5b506104e16104dc3660046144d4565b610c45565b6040516103ac9190614578565b3480156104fa57600080fd5b506103d46105093660046145da565b6112cf565b34801561051a57600080fd5b5061052e61052936600461460a565b6112e4565b60405190151581526020016103ac565b34801561054a57600080fd5b5061046761055936600461400a565b61130c565b34801561056a57600080fd5b5061019d546001600160a01b0316610489565b34801561058957600080fd5b5061016b5460ff1661052e565b3480156105a257600080fd5b506103d46105b13660046145da565b611315565b3480156105c257600080fd5b506104676105d1366004614636565b6113ab565b3480156105e257600080fd5b506104676105f1366004614689565b6113be565b34801561060257600080fd5b506104676106113660046146c1565b611421565b34801561062257600080fd5b506104676106313660046146de565b6114ec565b34801561064257600080fd5b506103d460d05481565b34801561065857600080fd5b50610467610667366004614732565b611612565b34801561067857600080fd5b50610467610687366004614769565b6116b0565b34801561069857600080fd5b506103d4611710565b3480156106ad57600080fd5b506104676106bc36600461478b565b6117e6565b3480156106cd57600080fd5b506104676106dc3660046146de565b61188e565b3480156106ed57600080fd5b506104676106fc3660046147d1565b6119a2565b6104e161070f3660046146de565b611ae3565b34801561072057600080fd5b5061086561072f36600461460a565b604080516080808201835260008083526020808401829052838501829052845160e081018652828152908101829052938401819052606080850182905291840181905260a0840181905260c08401528101919091525063ffffffff90811660009081526064602090815260409182902082516080808201855282546001600160a01b03908116835260018401548116838601526002840154811683870152855160e08101875260039094015461ffff80821686526201000082048116968601969096526401000000008104909516958401959095526601000000000000840490951660608381019190915260ff6a0100000000000000000000850481161515968401969096526b0100000000000000000000008404909516151560a0830152600160601b90920490921660c08301529182015290565b6040516103ac9190614842565b34801561087e57600080fd5b5060d354610489906001600160a01b031681565b34801561089e57600080fd5b506108b26108ad36600461460a565b611c3b565b6040516103ac91906148e6565b3480156108cb57600080fd5b506104676108da3660046146c1565b611cda565b3480156108eb57600080fd5b506104026108fa36600461460a565b611d8b565b34801561090b57600080fd5b5061019e546001600160a01b0316610489565b34801561092a57600080fd5b5061093e610939366004614953565b611dad565b6040516103ac91906149de565b34801561095757600080fd5b506104676109663660046146de565b611ddb565b34801561097757600080fd5b506103d461098636600461400a565b611f28565b34801561099757600080fd5b506103d46109a6366004614a22565b611fb2565b3480156109b757600080fd5b506104026109c6366004614a4e565b611fc9565b3480156109d757600080fd5b506104026109e6366004614a73565b612067565b6000806109fb61016b5460ff1690565b15610a405760405162461bcd60e51b815260206004820152601060248201526f14185d5cd8589b194e881c185d5cd95960821b60448201526064015b60405180910390fd5b6000610a4b866120ee565b9050610a5a8186866001612134565b9250925050935093915050565b600081815260d16020526040808220905163a0ba775760e01b815260048101919091526064602482015281906060908190733C1C16e6694FE512c6Bcb070A0340F4aA8fA6c269063a0ba775790604401600060405180830381865af4158015610ad4573d6000803e3d6000fd5b505050506040513d6000823e601f3d908101601f19168201604052610afc9190810190614cbf565b93509350935093509193509193565b61019e546001600160a01b03163314801590610b33575061019d546001600160a01b03163314155b15610b5157604051636bd1573560e11b815260040160405180910390fd5b610b5b8282612321565b5050565b60d2546001600160a01b03163314610b8a576040516385734f3160e01b815260040160405180910390fd5b6000610baa610b9c60208401846146c1565b6001600160a01b0316612518565b63ffffffff8116600090815260646020526040902054909150610bd5906001600160a01b0316612526565b610be157610be1614dc6565b63ffffffff811660009081526064602052604090208290610c028282614f56565b9050507f4182acc9c169391ef7e765eb446fc15c9d49bc73060c678bf4c424a5c0dbdbcb8183606001604051610c39929190615135565b60405180910390a15050565b60608167ffffffffffffffff811115610c6057610c60614040565b604051908082528060200260200182016040528015610c9357816020015b6060815260200190600190039081610c7e5790505b5090506000610ca1856120ee565b905060008060005b858110156111da576000878783818110610cc557610cc56151f1565b9050602002810190610cd79190615207565b610ce5906020810190615227565b6006811115610cf657610cf6614212565b03610d6257600080888884818110610d1057610d106151f1565b9050602002810190610d229190615207565b610d30906020810190615248565b810190610d3d9190614a22565b915091508380610d4d5750600081125b9350610d5b86838387612538565b50506111c8565b6001878783818110610d7657610d766151f1565b9050602002810190610d889190615207565b610d96906020810190615227565b6006811115610da757610da7614212565b03610e13576000878783818110610dc057610dc06151f1565b9050602002810190610dd29190615207565b610de0906020810190615248565b810190610ded919061400a565b9050610dfb85826000612662565b6000811215610e0d5760019350600192505b506111c8565b6002878783818110610e2757610e276151f1565b9050602002810190610e399190615207565b610e47906020810190615227565b6006811115610e5857610e58614212565b03610f0557600080888884818110610e7257610e726151f1565b9050602002810190610e849190615207565b610e92906020810190615248565b810190610e9f919061528f565b91509150600080610eb38885856000612134565b60408051602081018490529081018290529193509150606001604051602081830303815290604052898681518110610eed57610eed6151f1565b602002602001018190525060019550505050506111c8565b6003878783818110610f1957610f196151f1565b9050602002810190610f2b9190615207565b610f39906020810190615227565b6006811115610f4a57610f4a614212565b03610fa557600080888884818110610f6457610f646151f1565b9050602002810190610f769190615207565b610f84906020810190615248565b810190610f919190615367565b91509150600080610eb38885856000612785565b6004878783818110610fb957610fb96151f1565b9050602002810190610fcb9190615207565b610fd9906020810190615227565b6006811115610fea57610fea614212565b0361104e576000806000898985818110611006576110066151f1565b90506020028101906110189190615207565b611026906020810190615248565b8101906110339190615395565b9250925092506110458b8484846128b6565b505050506111c8565b6005878783818110611062576110626151f1565b90506020028101906110749190615207565b611082906020810190615227565b600681111561109357611093614212565b036110a157610e0d886129d4565b60068787838181106110b5576110b56151f1565b90506020028101906110c79190615207565b6110d5906020810190615227565b60068111156110e6576110e6614212565b0361117c5760008787838181106110ff576110ff6151f1565b90506020028101906111119190615207565b61111f906020810190615248565b81019061112c919061460a565b90506111388982612b6a565b60405160200161114a91815260200190565b60405160208183030381529060405286838151811061116b5761116b6151f1565b6020026020010181905250506111c8565b86868281811061118e5761118e6151f1565b90506020028101906111a09190615207565b6111ae906020810190615227565b604051633164e52160e11b8152600401610a3791906153e0565b806111d281615410565b915050610ca9565b50811561124c5760405163651524ed60e01b81526004810184905260646024820152733C1C16e6694FE512c6Bcb070A0340F4aA8fA6c269063651524ed9060440160006040518083038186803b15801561123357600080fd5b505af4158015611247573d6000803e3d6000fd5b505050505b80156112c45760405163998c533560e01b81526004810184905260016024820152606460448201819052733C1C16e6694FE512c6Bcb070A0340F4aA8fA6c269163998c5335910160006040518083038186803b1580156112ab57600080fd5b505af41580156112bf573d6000803e3d6000fd5b505050505b5050505b9392505050565b60006112db8383612b6a565b90505b92915050565b63ffffffff81166000908152606460205260408120546112de906001600160a01b0316612526565b610b5b816129d4565b600082815260d160205260408082209051637188a1ed60e01b8152600481019190915263ffffffff83166024820152606460448201819052733C1C16e6694FE512c6Bcb070A0340F4aA8fA6c2691637188a1ed9101602060405180830381865af4158015611387573d6000803e3d6000fd5b505050506040513d601f19601f820116820180604052508101906112db9190615429565b6113b7848484846128b6565b5050505050565b61016b5460ff16156114055760405162461bcd60e51b815260206004820152601060248201526f14185d5cd8589b194e881c185d5cd95960821b6044820152606401610a37565b61141c611411846120ee565b838360008512612538565b505050565b61019e546001600160a01b03163314801590611449575061019d546001600160a01b03163314155b1561146757604051636bd1573560e11b815260040160405180910390fd5b6001600160a01b03811661148e5760405163d92e233d60e01b815260040160405180910390fd5b61019e546040516001600160a01b038084169216907f39355f2f5c8206286978f443aa8126bbd29fa09c53c04569502647f3a59c8cb290600090a361019e80546001600160a01b0319166001600160a01b0392909216919091179055565b61019e546001600160a01b03163314801590611514575061019d546001600160a01b03163314155b1561153257604051636bd1573560e11b815260040160405180910390fd5b61153a612cb0565b60005b8181101561141c576000838383818110611559576115596151f1565b905060200201602081019061156e919061460a565b905060008061157c83611d8b565b63ffffffff8516600090815260646020526040908190206002015490516336c3cc4d60e11b815260048101849052602481018390529294509092506001600160a01b031690636d87989a90604401600060405180830381600087803b1580156115e457600080fd5b505af11580156115f8573d6000803e3d6000fd5b50505050505050808061160a90615410565b91505061153d565b61019e546001600160a01b0316331480159061163a575061019d546001600160a01b03163314155b1561165857604051636bd1573560e11b815260040160405180910390fd5b63ffffffff82166000908152606460205260409020819060030161167c8282614e13565b9050507f4182acc9c169391ef7e765eb446fc15c9d49bc73060c678bf4c424a5c0dbdbcb8282604051610c39929190615135565b61016b5460ff16156116f75760405162461bcd60e51b815260206004820152601060248201526f14185d5cd8589b194e881c185d5cd95960821b6044820152606401610a37565b6000611702836120ee565b905061141c81836001612662565b600061171f61016b5460ff1690565b1561175f5760405162461bcd60e51b815260206004820152601060248201526f14185d5cd8589b194e881c185d5cd95960821b6044820152606401610a37565b5060d05461176e816001615442565b60d055600081815260d160209081526040918290206bffffffffffffffffffffffff1933600160601b8102919091166bffffffffffffffffffffffff861617825592518481529092917f7325fb14450d3e5eb288c620b4ff1d6b43a41b33b4a4f143ae88cd4c12f99ea3910160405180910390a25090565b61019e546001600160a01b0316331480159061180e575061019d546001600160a01b03163314155b1561182c57604051636bd1573560e11b815260040160405180910390fd5b836068611839828261547d565b5050606a839055606b82905560698190556040517f697aec6e94e319190380ab0f1f10018d81b64da2479eb874be92c9a733e0a83790611880908690869086908690615640565b60405180910390a150505050565b61019e546001600160a01b031633148015906118b6575061019d546001600160a01b03163314155b156118d457604051636bd1573560e11b815260040160405180910390fd5b6118dc612d4a565b60005b8181101561141c57606460008484848181106118fd576118fd6151f1565b9050602002016020810190611912919061460a565b63ffffffff168152602081019190915260409081016000206002015490516336c3cc4d60e11b815260016004820181905260248201526001600160a01b0390911690636d87989a90604401600060405180830381600087803b15801561197757600080fd5b505af115801561198b573d6000803e3d6000fd5b50505050808061199a90615410565b9150506118df565b61013854610100900460ff166119bf576101385460ff16156119c3565b303b155b611a265760405162461bcd60e51b815260206004820152602e60248201527f496e697469616c697a61626c653a20636f6e747261637420697320616c72656160448201526d191e481a5b9a5d1a585b1a5e995960921b6064820152608401610a37565b61013854610100900460ff16158015611a4a57610138805461ffff19166101011790555b60d280546001600160a01b03199081166001600160a01b038981169190911790925560668054821688841617905560d38054821686841617905560678054909116848316179055604080516060810182529186168252603c6020830152600190820152611ab8908690612321565b611ac0612dcf565b611ac8612ea1565b8015611adb57610138805461ff00191690555b505050505050565b60608167ffffffffffffffff811115611afe57611afe614040565b604051908082528060200260200182016040528015611b3157816020015b6060815260200190600190039081611b1c5790505b50905060005b82811015611c345760008030868685818110611b5557611b556151f1565b9050602002810190611b679190615248565b604051611b75929190615715565b600060405180830381855af49150503d8060008114611bb0576040519150601f19603f3d011682016040523d82523d6000602084013e611bb5565b606091505b509150915081611c0157604481511015611bce57600080fd5b60048101905080806020019051810190611be89190615725565b60405162461bcd60e51b8152600401610a3791906157b0565b80848481518110611c1457611c146151f1565b602002602001018190525050508080611c2c90615410565b915050611b37565b5092915050565b611c6e60408051808201825260008082528251606081018452818152602081810183905293810191909152909182015290565b5063ffffffff9081166000908152606560209081526040918290208251808401845281546001600160a01b03908116825284516060810186526001909301549081168352600160a01b810490951682840152600160c01b90940460ff1615159281019290925282015290565b61019d546001600160a01b03163314611d0657604051636bd1573560e11b815260040160405180910390fd5b6001600160a01b038116611d2d5760405163d92e233d60e01b815260040160405180910390fd5b61019d546040516001600160a01b038084169216907f5f56bee8cffbe9a78652a74a60705edede02af10b0bbb888ca44b79a0d42ce8090600090a361019d80546001600160a01b0319166001600160a01b0392909216919091179055565b600080611d99606484612f1a565b9150611da6606484612fba565b9050915091565b606060208251028201602001602083015b81811015611dd3578051548152602001611dbe565b509192915050565b6000805b82811015611efe576000848483818110611dfb57611dfb6151f1565b9050602002016020810190611e1091906146c1565b6001600160a01b0316635e622abc6040518163ffffffff1660e01b81526004016020604051808303816000875af1158015611e4f573d6000803e3d6000fd5b505050506040513d601f19601f82011682018060405250810190611e739190615429565b9050848483818110611e8757611e876151f1565b9050602002016020810190611e9c91906146c1565b6001600160a01b03167fa087657e3d85162090ffd700fbfdf5070d816f63aa5da00063f6ffd369c8a6db82604051611ed691815260200190565b60405180910390a2611ee88184615442565b9250508080611ef690615410565b915050611ddf565b5061141c611f1561019e546001600160a01b031690565b6066546001600160a01b03169083612fd7565b600081815260d16020526040808220905163625915c360e11b8152600481019190915260646024820152733C1C16e6694FE512c6Bcb070A0340F4aA8fA6c269063c4b22b8690604401602060405180830381865af4158015611f8e573d6000803e3d6000fd5b505050506040513d601f19601f820116820180604052508101906112de9190615429565b6000611fbc611710565b90506112de8184846113be565b600082815260d16020526040808220905163031b5fcd60e21b8152600481019190915282151560248201526064604482018190528291733C1C16e6694FE512c6Bcb070A0340F4aA8fA6c2691630c6d7f3491016040805180830381865af4158015612038573d6000803e3d6000fd5b505050506040513d601f19601f8201168201806040525081019061205c91906157c3565b909590945092505050565b60008061207761016b5460ff1690565b156120b75760405162461bcd60e51b815260206004820152601060248201526f14185d5cd8589b194e881c185d5cd95960821b6044820152606401610a37565b60006120c2866120ee565b9050610a5a81866120d8368890038801886157e7565b6001612785565b6001600160a01b03163b151590565b600081815260d1602052604090208054600160601b90046001600160a01b0316331461212f57604051630504a20d60e01b8152336004820152602401610a37565b919050565b60008061214461016b5460ff1690565b156121845760405162461bcd60e51b815260206004820152601060248201526f14185d5cd8589b194e881c185d5cd95960821b6044820152606401610a37565b61218d85613067565b60408051630a067b0f60e11b81526004810188905263ffffffff871660248201528551604482015260208601516001600160a01b031660648083019190915291860151151560848201526060860151151560a482015260c481019190915283151560e4820152733C1C16e6694FE512c6Bcb070A0340F4aA8fA6c269063140cf61e90610104016040805180830381865af415801561222f573d6000803e3d6000fd5b505050506040513d601f19601f8201168201806040525081019061225391906157c3565b90925090506000612263826130f1565b606b5490915081101561228c576040516312b6b5cd60e11b815260048101829052602401610a37565b60208501516001600160a01b0316158015906122aa57508460600151155b1561231757846040015180156122d1575084516122c6906130f1565b6122cf836130f1565b145b806122fa575084604001511580156122fa575084516122ef906130f1565b6122f8846130f1565b145b612317576040516307a1db0760e01b815260040160405180910390fd5b5094509492505050565b6000612335836001600160a01b0316612518565b9050612349836001600160a01b0316612526565b1561236a576040516376d8a93160e01b815260006004820152602401610a37565b63ffffffff8116600090815260656020526040902054612392906001600160a01b0316612526565b1580156123cb575063ffffffff8082166000908152606560205260409020546123c9916001600160a01b0390911690859061310c16565b155b156124145763ffffffff81166000908152606560205260409081902054905163a5d4d0b560e01b81526001600160a01b0380861660048301529091166024820152604401610a37565b6040805180820182526001600160a01b038581168252602080830186815263ffffffff868116600090815260658452869020945185546001600160a01b03191690851617855590518051600190950180549382015191870151959094167fffffffffffffffff00000000000000000000000000000000000000000000000090931692909217600160a01b9290911691909102177fffffffffffffff00ffffffffffffffffffffffffffffffffffffffffffffffff16600160c01b92151592909202919091179055517f52983c04d8ccd4808cd0fcb24e6e48106ecb41e803d6270c6c94a15e3ebd08d29061250b9085908590615803565b60405180910390a1505050565b600063ffffffff82166112de565b60006001600160a01b038216156112de565b61016b5460ff161561257f5760405162461bcd60e51b815260206004820152601060248201526f14185d5cd8589b194e881c185d5cd95960821b6044820152606401610a37565b600061258e8460008512613122565b60405163f5a284a160e01b81526004810187905263ffffffff86166024820152604481018590526064808201528315156084820152909150733C1C16e6694FE512c6Bcb070A0340F4aA8fA6c269063f5a284a19060a40160006040518083038186803b1580156125fd57600080fd5b505af4158015612611573d6000803e3d6000fd5b50505050600083131561263a578054612635906001600160a01b03163330866131b1565b6113b7565b60008312156113b7576113b73361265085615845565b83546001600160a01b03169190612fd7565b61016b5460ff16156126a95760405162461bcd60e51b815260206004820152601060248201526f14185d5cd8589b194e881c185d5cd95960821b6044820152606401610a37565b816000036126ca57604051631f2a200560e01b815260040160405180910390fd5b60405163d25c4a6f60e01b8152600481018490526024810183905260646044820181905282151590820152733C1C16e6694FE512c6Bcb070A0340F4aA8fA6c269063d25c4a6f9060840160006040518083038186803b15801561272c57600080fd5b505af4158015612740573d6000803e3d6000fd5b5050505060008213156127655760665461141c906001600160a01b03163330856131b1565b61141c3361277284615845565b6066546001600160a01b03169190612fd7565b60008061279561016b5460ff1690565b156127d55760405162461bcd60e51b815260206004820152601060248201526f14185d5cd8589b194e881c185d5cd95960821b6044820152606401610a37565b6127de85613067565b60608401516001600160a01b0316156128045761280485856060015186608001516131ef565b60405163c27789d160e01b8152600090733C1C16e6694FE512c6Bcb070A0340F4aA8fA6c269063c27789d190612847908a908a908a906064908b90600401615861565b606060405180830381865af4158015612864573d6000803e3d6000fd5b505050506040513d601f19601f820116820180604052508101906128889190615906565b606b549295509093509150811015612317576040516312b6b5cd60e11b815260048101829052602401610a37565b60006128c561016b5460ff1690565b156129055760405162461bcd60e51b815260206004820152601060248201526f14185d5cd8589b194e881c185d5cd95960821b6044820152606401610a37565b600085815260d16020526040902061291c85613067565b606a54604051637022478560e11b81526004810183905263ffffffff87166024820152600286810b604483015285900b6064808301919091526084820183905260a4820152909250733C1C16e6694FE512c6Bcb070A0340F4aA8fA6c269063e0448f0a9060c40160006040518083038186803b15801561299b57600080fd5b505af41580156129af573d6000803e3d6000fd5b50506066546129cb92506001600160a01b031690503384612fd7565b50949350505050565b60006129e361016b5460ff1690565b15612a235760405162461bcd60e51b815260206004820152601060248201526f14185d5cd8589b194e881c185d5cd95960821b6044820152606401610a37565b600082815260d1602052604080822090516308b9103160e21b8152600481018290526024810183905260646044820181905291929182918291733C1C16e6694FE512c6Bcb070A0340F4aA8fA6c26916322e440c49101606060405180830381865af4158015612a96573d6000803e3d6000fd5b505050506040513d601f19601f82011682018060405250810190612aba9190615906565b919450925090506000612acd8385615934565b905060008413612af35760405163ef37dcc760e01b815260048101859052602401610a37565b606654612b0a906001600160a01b03163386612fd7565b612b1383613281565b604080518281526020810186905290810184905260608101839052339088907f688f0846fe2852572c467d5e769db101b0fea55e8849406d85c9fb322b95299b9060800160405180910390a3509195945050505050565b6000612b7961016b5460ff1690565b15612bb95760405162461bcd60e51b815260206004820152601060248201526f14185d5cd8589b194e881c185d5cd95960821b6044820152606401610a37565b600083815260d160205260409020612bd083613067565b6040516377f3beb560e01b81526004810182905263ffffffff8416602482015260006044820181905260648083015290733C1C16e6694FE512c6Bcb070A0340F4aA8fA6c26906377f3beb5906084016040805180830381865af4158015612c3b573d6000803e3d6000fd5b505050506040513d601f19601f82011682018060405250810190612c5f91906157c3565b909350905060008313612c885760405163ef37dcc760e01b815260048101849052602401610a37565b606654612c9f906001600160a01b03163385612fd7565b612ca881613281565b505092915050565b61016b5460ff1615612cf75760405162461bcd60e51b815260206004820152601060248201526f14185d5cd8589b194e881c185d5cd95960821b6044820152606401610a37565b61016b805460ff191660011790557f62e78cea01bee320cd4e420270b5ea74000d11b0c9f74754ebdbfc544b05a258612d2d3390565b6040516001600160a01b03909116815260200160405180910390a1565b61016b5460ff16612d9d5760405162461bcd60e51b815260206004820152601460248201527f5061757361626c653a206e6f74207061757365640000000000000000000000006044820152606401610a37565b61016b805460ff191690557f5db9ee0a495bf2e6ff9c91a7834c1ba4fdd244a5e8aa4e537bd38aeae4b073aa33612d2d565b61013854610100900460ff16612dec576101385460ff1615612df0565b303b155b612e535760405162461bcd60e51b815260206004820152602e60248201527f496e697469616c697a61626c653a20636f6e747261637420697320616c72656160448201526d191e481a5b9a5d1a585b1a5e995960921b6064820152608401610a37565b61013854610100900460ff16158015612e7757610138805461ffff19166101011790555b612e7f61330d565b33612e8a818061337b565b508015612e9e57610138805461ff00191690555b50565b61013854610100900460ff16612f0d5760405162461bcd60e51b815260206004820152602b60248201527f496e697469616c697a61626c653a20636f6e7472616374206973206e6f74206960448201526a6e697469616c697a696e6760a81b6064820152608401610a37565b61016b805460ff19169055565b63ffffffff8181166000908152602084905260408082206003810154915163dd86c10160e01b81526601000000000000830490941660048501529192600160601b9091046001600160a01b03169063dd86c10190602401602060405180830381865afa158015612f8e573d6000803e3d6000fd5b505050506040513d601f19601f82011682018060405250810190612fb29190615429565b949350505050565b60006112db612fc984846134ce565b6001600160a01b0316613515565b6040516001600160a01b03831660248201526044810182905261141c90849063a9059cbb60e01b906064015b60408051601f198184030181529190526020810180517bffffffffffffffffffffffffffffffffffffffffffffffffffffffff167fffffffff0000000000000000000000000000000000000000000000000000000090931692909217909152613582565b63ffffffff811660009081526064602052604090208054613090906001600160a01b0316612526565b156130b65760405163b842f5a760e01b815263ffffffff83166004820152602401610a37565b60038101546a0100000000000000000000900460ff16610b5b5760405163587ee90160e11b815263ffffffff83166004820152602401610a37565b60008082136131085761310382615845565b6112de565b5090565b60006001600160a01b03808416908316146112db565b63ffffffff82166000908152606560205260409020805461314b906001600160a01b0316612526565b1561317157604051636b9c1a9d60e01b815263ffffffff84166004820152602401610a37565b8115801561318b57506001810154600160c01b900460ff16155b156112de5760405163122a1f1960e31b815263ffffffff84166004820152602401610a37565b6040516001600160a01b03808516602483015283166044820152606481018290526131e99085906323b872dd60e01b90608401613003565b50505050565b60006131fc606485613667565b90506000836001600160a01b0316826001600160a01b03161161322857613223828561598d565b613232565b613232848361598d565b90506127106132458561ffff86166159b5565b61324f91906159fa565b6001600160a01b0316816001600160a01b031611156113b7576040516307a1db0760e01b815260040160405180910390fd5b60008113156132a75760d354606654612e9e916001600160a01b03918216911683612fd7565b60d3546001600160a01b031663379607f56132c183615845565b6040518263ffffffff1660e01b81526004016132df91815260200190565b600060405180830381600087803b1580156132f957600080fd5b505af11580156113b7573d6000803e3d6000fd5b61013854610100900460ff166133795760405162461bcd60e51b815260206004820152602b60248201527f496e697469616c697a61626c653a20636f6e7472616374206973206e6f74206960448201526a6e697469616c697a696e6760a81b6064820152608401610a37565b565b61013854610100900460ff16613398576101385460ff161561339c565b303b155b6133ff5760405162461bcd60e51b815260206004820152602e60248201527f496e697469616c697a61626c653a20636f6e747261637420697320616c72656160448201526d191e481a5b9a5d1a585b1a5e995960921b6064820152608401610a37565b61013854610100900460ff1615801561342357610138805461ffff19166101011790555b61019d80546001600160a01b0319166001600160a01b0385169081179091556040516000907f5f56bee8cffbe9a78652a74a60705edede02af10b0bbb888ca44b79a0d42ce80908290a361019e80546001600160a01b0319166001600160a01b0384169081179091556040516000907f39355f2f5c8206286978f443aa8126bbd29fa09c53c04569502647f3a59c8cb2908290a3801561141c57610138805461ff0019169055505050565b63ffffffff80821660009081526020849052604081206003810154600182015492939192612fb2926001600160a01b03909116916601000000000000900481169061369216565b60006401000276a36001600160a01b0383161080613550575073fffd8963efd1fc6a506488495d951d5263988d266001600160a01b03831610155b1561357957604051635d236c4560e01b81526001600160a01b0383166004820152602401610a37565b6112de826136b3565b60006135d7826040518060400160405280602081526020017f5361666545524332303a206c6f772d6c6576656c2063616c6c206661696c6564815250856001600160a01b03166136d29092919063ffffffff16565b80519091501561141c57808060200190518101906135f59190615a20565b61141c5760405162461bcd60e51b815260206004820152602a60248201527f5361666545524332303a204552433230206f7065726174696f6e20646964206e60448201527f6f742073756363656564000000000000000000000000000000000000000000006064820152608401610a37565b63ffffffff81166000908152602083905260408120600101546112db906001600160a01b03166136e1565b6000806136a86001600160a01b03851684613752565b9050612fb28161396e565b60006112de6001600160a01b0383168068010000000000000000613c9e565b6060612fb28484600085613d50565b6000816001600160a01b0316633850c7bd6040518163ffffffff1660e01b815260040160e060405180830381865afa158015613721573d6000803e3d6000fd5b505050506040513d601f19601f820116820180604052508101906137459190615a3d565b5094979650505050505050565b60008163ffffffff1660000361377b57613774836001600160a01b0316613e98565b90506112de565b60408051600280825260608201835260009260208301908036833701905050905082816000815181106137b0576137b06151f1565b602002602001019063ffffffff16908163ffffffff16815250506000816001815181106137df576137df6151f1565b63ffffffff9092166020928302919091019091015260405163883bdbfd60e01b81526001600160a01b0385169063883bdbfd90613820908490600401615adf565b600060405180830381865afa92505050801561385e57506040513d6000823e601f3d908101601f1916820160405261385b9190810190615b81565b60015b6138d357836001600160a01b0316633850c7bd6040518163ffffffff1660e01b815260040160e060405180830381865afa1580156138a0573d6000803e3d6000fd5b505050506040513d601f19601f820116820180604052508101906138c49190615a3d565b50939650611c34945050505050565b6000826000815181106138e8576138e86151f1565b602002602001015183600181518110613903576139036151f1565b60200260200101516139159190615c4d565b9050600061392963ffffffff881683615c9d565b905060008260060b12801561394f575061394963ffffffff881683615cdb565b60060b15155b15613962578061395e81615cfd565b9150505b94506112de9350505050565b60008060008360020b12613985578260020b61398d565b8260020b6000035b9050620d89e88111156139b3576040516315e4079d60e11b815260040160405180910390fd5b6000816001166000036139d7577001000000000000000000000000000000006139e9565b6ffffcb933bd6fad37aa2d162d1a5940015b70ffffffffffffffffffffffffffffffffff1690506002821615613a1d576ffff97272373d413259a46990580e213a0260801c5b6004821615613a3c576ffff2e50f5f656932ef12357cf3c7fdcc0260801c5b6008821615613a5b576fffe5caca7e10e4e61c3624eaa0941cd00260801c5b6010821615613a7a576fffcb9843d60f6159c9db58835c9266440260801c5b6020821615613a99576fff973b41fa98c081472e6896dfb254c00260801c5b6040821615613ab8576fff2ea16466c96a3843ec78b326b528610260801c5b6080821615613ad7576ffe5dee046a99a2a811c461f1969c30530260801c5b610100821615613af7576ffcbe86c7900a88aedcffc83b479aa3a40260801c5b610200821615613b17576ff987a7253ac413176f2b074cf7815e540260801c5b610400821615613b37576ff3392b0822b70005940c7a398e4b70f30260801c5b610800821615613b57576fe7159475a2c29b7443b29c7fa6e889d90260801c5b611000821615613b77576fd097f3bdfd2022b8845ad8f792aa58250260801c5b612000821615613b97576fa9f746462d870fdf8a65dc1f90e061e50260801c5b614000821615613bb7576f70d869a156d2a1b890bb3df62baf32f70260801c5b618000821615613bd7576f31be135f97d08fd981231505542fcfa60260801c5b62010000821615613bf8576f09aa508b5b7a84e1c677de54f3e99bc90260801c5b62020000821615613c18576e5d6af8dedb81196699c329225ee6040260801c5b62040000821615613c37576d2216e584f5fa1ea926041bedfe980260801c5b62080000821615613c54576b048a170391f7dc42444e8fa20260801c5b60008460020b1315613c75578060001981613c7157613c716159e4565b0490505b640100000000810615613c89576001613c8c565b60005b60ff16602082901c0192505050919050565b6000808060001985870985870292508281108382030391505080600003613cd75760008411613ccc57600080fd5b5082900490506112c8565b808411613ce357600080fd5b6000848688096000868103871696879004966002600389028118808a02820302808a02820302808a02820302808a02820302808a02820302808a02909103029181900381900460010186841190950394909402919094039290920491909117919091029150509392505050565b606082471015613dc85760405162461bcd60e51b815260206004820152602660248201527f416464726573733a20696e73756666696369656e742062616c616e636520666f60448201527f722063616c6c00000000000000000000000000000000000000000000000000006064820152608401610a37565b6001600160a01b0385163b613e1f5760405162461bcd60e51b815260206004820152601d60248201527f416464726573733a2063616c6c20746f206e6f6e2d636f6e74726163740000006044820152606401610a37565b600080866001600160a01b03168587604051613e3b9190615d20565b60006040518083038185875af1925050503d8060008114613e78576040519150601f19603f3d011682016040523d82523d6000602084013e613e7d565b606091505b5091509150613e8d828286613f09565b979650505050505050565b6000816001600160a01b0316633850c7bd6040518163ffffffff1660e01b815260040160e060405180830381865afa158015613ed8573d6000803e3d6000fd5b505050506040513d601f19601f82011682018060405250810190613efc9190615a3d565b5093979650505050505050565b60608315613f185750816112c8565b825115613f285782518084602001fd5b8160405162461bcd60e51b8152600401610a3791906157b0565b60006101a0820190506001600160a01b03808916835280881660208401525061ffff808751166040840152806020880151166060840152806040880151166080840152506060860151613f9b60a084018261ffff169052565b50608086015161ffff811660c08401525060a086015161ffff811660e08401525060c086015167ffffffffffffffff81166101008401525060e086015167ffffffffffffffff811661012084015250846101408301528361016083015282610180830152979650505050505050565b60006020828403121561401c57600080fd5b5035919050565b63ffffffff81168114612e9e57600080fd5b803561212f81614023565b634e487b7160e01b600052604160045260246000fd5b60405160a0810167ffffffffffffffff8111828210171561407957614079614040565b60405290565b604051610120810167ffffffffffffffff8111828210171561407957614079614040565b6040805190810167ffffffffffffffff8111828210171561407957614079614040565b60405160e0810167ffffffffffffffff8111828210171561407957614079614040565b604051601f8201601f1916810167ffffffffffffffff8111828210171561411257614112614040565b604052919050565b6001600160a01b0381168114612e9e57600080fd5b803561212f8161411a565b8015158114612e9e57600080fd5b803561212f8161413a565b60006080828403121561416557600080fd5b6040516080810181811067ffffffffffffffff8211171561418857614188614040565b6040528235815290508060208301356141a08161411a565b602082015260408301356141b38161413a565b604082015260608301356141c68161413a565b6060919091015292915050565b600080600060c084860312156141e857600080fd5b8335925060208401356141fa81614023565b91506142098560408601614153565b90509250925092565b634e487b7160e01b600052602160045260246000fd5b6003811061423857614238614212565b9052565b600060808083016001600160a01b038089168552602088818701526040848188015283895180865260a089019150838b01955060005b81811015614299578651805187168452850151858401529584019591830191600101614272565b5050606094508781038589015280935088518082528382019450838160051b830101848b0160005b838110156143c057848303601f190188528151805163ffffffff16845287810151888501528681015187850152898101518a8501528a015160a08b850181905281519085018190529088019060009060c08601905b808310156143ab5783518051600290810b84528c820151900b8c8401528a8101516fffffffffffffffffffffffffffffffff81168c850152508d8101518e8401528e8101518f84015260a081015160a084015260c081015160c084015260e081015160e084015261010080820151915061439281850183614228565b5050610120820191508a84019350600183019250614316565b509989019994505050908601906001016142c1565b50909e9d5050505050505050505050505050565b60008082840360808112156143e857600080fd5b83356143f38161411a565b92506060601f198201121561440757600080fd5b506040516060810181811067ffffffffffffffff8211171561442b5761442b614040565b604052602084013561443c8161411a565b8152604084013561444c81614023565b6020820152606084013561445f8161413a565b6040820152919491935090915050565b6000610140828403121561448257600080fd5b50919050565b60008083601f84011261449a57600080fd5b50813567ffffffffffffffff8111156144b257600080fd5b6020830191508360208260051b85010111156144cd57600080fd5b9250929050565b6000806000604084860312156144e957600080fd5b83359250602084013567ffffffffffffffff81111561450757600080fd5b61451386828701614488565b9497909650939450505050565b60005b8381101561453b578181015183820152602001614523565b838111156131e95750506000910152565b60008151808452614564816020860160208601614520565b601f01601f19169290920160200192915050565b6000602080830181845280855180835260408601915060408160051b870101925083870160005b828110156145cd57603f198886030184526145bb85835161454c565b9450928501929085019060010161459f565b5092979650505050505050565b600080604083850312156145ed57600080fd5b8235915060208301356145ff81614023565b809150509250929050565b60006020828403121561461c57600080fd5b81356112c881614023565b8060020b8114612e9e57600080fd5b6000806000806080858703121561464c57600080fd5b84359350602085013561465e81614023565b9250604085013561466e81614627565b9150606085013561467e81614627565b939692955090935050565b60008060006060848603121561469e57600080fd5b8335925060208401356146b081614023565b929592945050506040919091013590565b6000602082840312156146d357600080fd5b81356112c88161411a565b600080602083850312156146f157600080fd5b823567ffffffffffffffff81111561470857600080fd5b61471485828601614488565b90969095509350505050565b600060e0828403121561448257600080fd5b600080610100838503121561474657600080fd5b823561475181614023565b91506147608460208501614720565b90509250929050565b6000806040838503121561477c57600080fd5b50508035926020909101359150565b6000806000808486036101608112156147a357600080fd5b610100808212156147b357600080fd5b95979588013596505050610120860135936101408701359350915050565b600080600080600060a086880312156147e957600080fd5b85356147f48161411a565b945060208601356148048161411a565b935060408601356148148161411a565b925060608601356148248161411a565b915060808601356148348161411a565b809150509295509295909350565b6000610140820190506001600160a01b0380845116835280602085015116602084015280604085015116604084015250606083015161ffff8082511660608501528060208301511660808501528060408301511660a08501525063ffffffff60608201511660c08401526080810151151560e084015260a08101516148cc61010085018215159052565b5060c001516001600160a01b038116610120840152611c34565b81516001600160a01b031681526020808301516080830191611c349084018280516001600160a01b0316825260208082015163ffffffff16908301526040908101511515910152565b600067ffffffffffffffff82111561494957614949614040565b5060051b60200190565b6000602080838503121561496657600080fd5b823567ffffffffffffffff81111561497d57600080fd5b8301601f8101851361498e57600080fd5b80356149a161499c8261492f565b6140e9565b81815260059190911b820183019083810190878311156149c057600080fd5b928401925b82841015613e8d578335825292840192908401906149c5565b6020808252825182820181905260009190848201906040850190845b81811015614a16578351835292840192918401916001016149fa565b50909695505050505050565b60008060408385031215614a3557600080fd5b8235614a4081614023565b946020939093013593505050565b60008060408385031215614a6157600080fd5b8235915060208301356145ff8161413a565b60008060006101208486031215614a8957600080fd5b833592506020840135614a9b81614023565b91506142098560408601614720565b805161212f81614627565b80516fffffffffffffffffffffffffffffffff8116811461212f57600080fd5b60038110612e9e57600080fd5b805161212f81614ad5565b600082601f830112614afe57600080fd5b81516020614b0e61499c8361492f565b82815260059290921b84018101918181019086841115614b2d57600080fd5b8286015b84811015614cb457805167ffffffffffffffff80821115614b5157600080fd5b9088019060a0828b03601f19011215614b6957600080fd5b614b71614056565b86830151614b7e81614023565b80825250604083015187820152606083015160408201526080830151606082015260a083015182811115614bb157600080fd5b8084019350508a603f840112614bc657600080fd5b868301519150614bd861499c8361492f565b82815261012092830284016040019288820191908d851115614bf957600080fd5b6040860195505b84861015614c9e5780868f031215614c1757600080fd5b614c1f61407f565b614c2887614aaa565b8152614c358b8801614aaa565b8b820152614c4560408801614ab5565b6040820152606087015160608201526080870151608082015260a087015160a082015260c087015160c082015260e087015160e0820152614c896101008801614ae2565b61010082015283529485019491890191614c00565b5060808301525085525050918301918301614b31565b509695505050505050565b60008060008060808587031215614cd557600080fd5b8451614ce08161411a565b80945050602080860151935060408087015167ffffffffffffffff80821115614d0857600080fd5b818901915089601f830112614d1c57600080fd5b8151614d2a61499c8261492f565b81815260069190911b8301850190858101908c831115614d4957600080fd5b938601935b82851015614d925785858e031215614d665760008081fd5b614d6e6140a3565b8551614d798161411a565b8152858801518882015282529385019390860190614d4e565b60608c01519098509550505080841115614dab57600080fd5b505050614dba87828801614aed565b91505092959194509250565b634e487b7160e01b600052600160045260246000fd5b61ffff81168114612e9e57600080fd5b600081356112de81614ddc565b600081356112de8161413a565b600081356112de8161411a565b8135614e1e81614ddc565b815461ffff191661ffff8216178255506020820135614e3c81614ddc565b815463ffff00001916601082901b63ffff000016178255506040820135614e6281614ddc565b815465ffff000000001916602082901b65ffff0000000016178255506060820135614e8c81614023565b815469ffffffff000000000000191660309190911b69ffffffff000000000000161781556080820135614ebe8161413a565b81546aff00000000000000000000191681151560501b6aff00000000000000000000161782555060a0820135614ef38161413a565b81546bff0000000000000000000000191681151560581b6bff0000000000000000000000161782555060c0820135614f2a8161411a565b81546bffffffffffffffffffffffff16606082901b6bffffffffffffffffffffffff1916178255505050565b8135614f618161411a565b81546001600160a01b0319166001600160a01b038216178255506020820135614f898161411a565b6001820180546001600160a01b0319166001600160a01b038316179055506040820135614fb58161411a565b6002820180546001600160a01b0319166001600160a01b03831617905550600381016060830135614fe581614ddc565b815461ffff191661ffff821617825550608083013561500381614ddc565b815463ffff00001916601082901b63ffff0000161782555060a083013561502981614ddc565b815465ffff000000001916602082901b65ffff00000000161782555060c083013561505381614023565b815469ffffffff000000000000191660309190911b69ffffffff000000000000161781556150b261508660e08501614df9565b8280546aff00000000000000000000191691151560501b6aff0000000000000000000016919091179055565b6150f06150c26101008501614df9565b8280546bff0000000000000000000000191691151560581b6bff000000000000000000000016919091179055565b61141c6151006101208501614e06565b82546bffffffffffffffffffffffff1660609190911b6bffffffffffffffffffffffff1916178255565b803561212f81614ddc565b63ffffffff831681526101008101823561514e81614ddc565b61ffff80821660208501526020850135915061516982614ddc565b80821660408501526040850135915061518182614ddc565b8082166060850152505061519760608401614035565b63ffffffff81166080840152506151b060808401614148565b80151560a0840152506151c560a08401614148565b80151560c0840152506151da60c0840161412f565b6001600160a01b03811660e0840152509392505050565b634e487b7160e01b600052603260045260246000fd5b60008235603e1983360301811261521d57600080fd5b9190910192915050565b60006020828403121561523957600080fd5b8135600781106112c857600080fd5b6000808335601e1984360301811261525f57600080fd5b83018035915067ffffffffffffffff82111561527a57600080fd5b6020019150368190038213156144cd57600080fd5b60008060a083850312156152a257600080fd5b82356152ad81614023565b91506147608460208501614153565b803561212f81614ad5565b600060e082840312156152d957600080fd5b6152e16140c6565b905081356152ee81614627565b815260208201356152fe81614627565b60208201526040820135600f81900b811461531857600080fd5b60408201526153296060830161412f565b606082015261533a6080830161512a565b608082015261534b60a08301614148565b60a082015261535c60c083016152bc565b60c082015292915050565b600080610100838503121561537b57600080fd5b823561538681614023565b915061476084602085016152c7565b6000806000606084860312156153aa57600080fd5b83356153b581614023565b925060208401356153c581614627565b915060408401356153d581614627565b809150509250925092565b60208101600783106153f4576153f4614212565b91905290565b634e487b7160e01b600052601160045260246000fd5b600060018201615422576154226153fa565b5060010190565b60006020828403121561543b57600080fd5b5051919050565b60008219821115615455576154556153fa565b500190565b67ffffffffffffffff81168114612e9e57600080fd5b600081356112de8161545a565b813561548881614ddc565b815461ffff191661ffff82161782555060208201356154a681614ddc565b815463ffff00001916601082901b63ffff0000161782555060408201356154cc81614ddc565b815465ffff000000001916602082901b65ffff00000000161782555060608201356154f681614ddc565b815467ffff0000000000008260301b1691508167ffff000000000000198216178355608084013561552681614ddc565b69ffff00000000000000008160401b168369ffffffff0000000000001984161717845550505061558561555b60a08401614dec565b82546bffff00000000000000000000191660509190911b6bffff0000000000000000000016178255565b6155d961559460c08401615470565b82547fffffffffffffffffffffffff0000000000000000ffffffffffffffffffffffff1660609190911b73ffffffffffffffff00000000000000000000000016178255565b610b5b6155e860e08401615470565b82547fffffffff0000000000000000ffffffffffffffffffffffffffffffffffffffff1660a09190911b7bffffffffffffffff000000000000000000000000000000000000000016178255565b803561212f8161545a565b6101608101853561565081614ddc565b61ffff908116835260208701359061566782614ddc565b1660208301526156796040870161512a565b61ffff16604083015261568e6060870161512a565b61ffff1660608301526156a36080870161512a565b61ffff1660808301526156b860a0870161512a565b61ffff1660a08301526156cd60c08701615635565b67ffffffffffffffff1660c08301526156e860e08701615635565b67ffffffffffffffff1660e083015261010082019490945261012081019290925261014090910152919050565b8183823760009101908152919050565b60006020828403121561573757600080fd5b815167ffffffffffffffff8082111561574f57600080fd5b818401915084601f83011261576357600080fd5b81518181111561577557615775614040565b615788601f8201601f19166020016140e9565b915080825285602082850101111561579f57600080fd5b6129cb816020840160208601614520565b6020815260006112db602083018461454c565b600080604083850312156157d657600080fd5b505080516020909101519092909150565b600060e082840312156157f957600080fd5b6112db83836152c7565b6001600160a01b0383168152608081016112c8602083018480516001600160a01b0316825260208082015163ffffffff16908301526040908101511515910152565b6000600160ff1b820161585a5761585a6153fa565b5060000390565b60006101608201905086825263ffffffff86166020830152845160020b6040830152602085015160020b60608301526040850151600f0b60808301526001600160a01b0360608601511660a083015261ffff60808601511660c083015260a08501516158d160e084018215159052565b5060c08501516158e5610100840182614228565b50836101208301526158fc61014083018415159052565b9695505050505050565b60008060006060848603121561591b57600080fd5b8351925060208401519150604084015190509250925092565b6000808212827f7fffffffffffffffffffffffffffffffffffffffffffffffffffffffffffffff0384138115161561596e5761596e6153fa565b600160ff1b8390038412811615615987576159876153fa565b50500190565b60006001600160a01b03838116908316818110156159ad576159ad6153fa565b039392505050565b60006001600160a01b03808316818516818304811182151516156159db576159db6153fa565b02949350505050565b634e487b7160e01b600052601260045260246000fd5b60006001600160a01b0380841680615a1457615a146159e4565b92169190910492915050565b600060208284031215615a3257600080fd5b81516112c88161413a565b600080600080600080600060e0888a031215615a5857600080fd5b8751615a638161411a565b6020890151909750615a7481614627565b6040890151909650615a8581614ddc565b6060890151909550615a9681614ddc565b6080890151909450615aa781614ddc565b60a089015190935060ff81168114615abe57600080fd5b60c0890151909250615acf8161413a565b8091505092959891949750929550565b6020808252825182820181905260009190848201906040850190845b81811015614a1657835163ffffffff1683529284019291840191600101615afb565b600082601f830112615b2e57600080fd5b81516020615b3e61499c8361492f565b82815260059290921b84018101918181019086841115615b5d57600080fd5b8286015b84811015614cb4578051615b748161411a565b8352918301918301615b61565b60008060408385031215615b9457600080fd5b825167ffffffffffffffff80821115615bac57600080fd5b818501915085601f830112615bc057600080fd5b81516020615bd061499c8361492f565b82815260059290921b84018101918181019089841115615bef57600080fd5b948201945b83861015615c1d5785518060060b8114615c0e5760008081fd5b82529482019490820190615bf4565b91880151919650909350505080821115615c3657600080fd5b50615c4385828601615b1d565b9150509250929050565b60008160060b8360060b6000811281667fffffffffffff1901831281151615615c7857615c786153fa565b81667fffffffffffff018313811615615c9357615c936153fa565b5090039392505050565b60008160060b8360060b80615cb457615cb46159e4565b667fffffffffffff19821460001982141615615cd257615cd26153fa565b90059392505050565b60008260060b80615cee57615cee6159e4565b808360060b0791505092915050565b60008160020b627fffff198103615d1657615d166153fa565b6000190192915050565b6000825161521d81846020870161452056fea2646970667358221220f39d435a52dc54ee7be94a329b8ba433df5cbce608304476b9fbe9485786a7ea64736f6c634300080d0033496e697469616c697a61626c653a20636f6e747261637420697320616c726561",
  "deployedBytecode": "0x6080604052600436106102855760003560e01c80638f24ab1111610153578063bc38d542116100cb578063e1f167131161007f578063e450f6f411610064578063e450f6f41461098b578063e67ed1df146109ab578063ee6cd5ee146109cb57600080fd5b8063e1f167131461094b578063e3d41c181461096b57600080fd5b8063da047996116100b0578063da047996146108df578063dbc0c085146108ff578063dbd035ff1461091e57600080fd5b8063bc38d54214610892578063d38bfff4146108bf57600080fd5b8063a9b0a93411610122578063ac9650d811610107578063ac9650d814610701578063b670ed5214610714578063b79023031461087257600080fd5b8063a9b0a934146106c1578063ab3b19f8146106e157600080fd5b80638f24ab111461064c5780639cd1be581461066c5780639dca362f1461068c578063a05c8baf146106a157600080fd5b8063440ab745116102015780637cc2f4f5116101b55780637f64d6631161019a5780637f64d663146105f657806385ff7cbd146106165780638ce25a931461063657600080fd5b80637cc2f4f5146105b65780637d2efe07146105d657600080fd5b80635aa6e675116101e65780635aa6e6751461055e5780635c975abb1461057d5780636a4864821461059657600080fd5b8063440ab7451461050e578063569634d31461053e57600080fd5b80633d0aea3d116102585780633ffe794c1161023d5780633ffe794c146104a157806340c4f69b146104c157806343afafba146104ee57600080fd5b80633d0aea3d146104475780633d56a35e1461046957600080fd5b80630dca69f91461028a5780631e2eaeaf146103b557806332a72d98146103e25780633b561afc14610417575b600080fd5b34801561029657600080fd5b5061039a6040805161010081018252600080825260208201819052918101829052606081018290526080810182905260a0810182905260c0810182905260e0810182905281905050606654606754604080516101008101825260685461ffff80821683526201000082048116602084015264010000000082048116938301939093526601000000000000810483166060830152680100000000000000008104831660808301526a0100000000000000000000810490921660a082015267ffffffffffffffff600160601b8304811660c0830152600160a01b90920490911660e0820152606954606a54606b546001600160a01b039586169794909516955091939092565b6040516103ac96959493929190613f42565b60405180910390f35b3480156103c157600080fd5b506103d46103d036600461400a565b5490565b6040519081526020016103ac565b3480156103ee57600080fd5b506104026103fd3660046141d3565b6109eb565b604080519283526020830191909152016103ac565b34801561042357600080fd5b5061043761043236600461400a565b610a67565b6040516103ac949392919061423c565b34801561045357600080fd5b506104676104623660046143d4565b610b0b565b005b34801561047557600080fd5b5060d254610489906001600160a01b031681565b6040516001600160a01b0390911681526020016103ac565b3480156104ad57600080fd5b506104676104bc36600461446f565b610b5f565b3480156104cd57600080fd5b506104e16104dc3660046144d4565b610c45565b6040516103ac9190614578565b3480156104fa57600080fd5b506103d46105093660046145da565b6112cf565b34801561051a57600080fd5b5061052e61052936600461460a565b6112e4565b60405190151581526020016103ac565b34801561054a57600080fd5b5061046761055936600461400a565b61130c565b34801561056a57600080fd5b5061019d546001600160a01b0316610489565b34801561058957600080fd5b5061016b5460ff1661052e565b3480156105a257600080fd5b506103d46105b13660046145da565b611315565b3480156105c257600080fd5b506104676105d1366004614636565b6113ab565b3480156105e257600080fd5b506104676105f1366004614689565b6113be565b34801561060257600080fd5b506104676106113660046146c1565b611421565b34801561062257600080fd5b506104676106313660046146de565b6114ec565b34801561064257600080fd5b506103d460d05481565b34801561065857600080fd5b50610467610667366004614732565b611612565b34801561067857600080fd5b50610467610687366004614769565b6116b0565b34801561069857600080fd5b506103d4611710565b3480156106ad57600080fd5b506104676106bc36600461478b565b6117e6565b3480156106cd57600080fd5b506104676106dc3660046146de565b61188e565b3480156106ed57600080fd5b506104676106fc3660046147d1565b6119a2565b6104e161070f3660046146de565b611ae3565b34801561072057600080fd5b5061086561072f36600461460a565b604080516080808201835260008083526020808401829052838501829052845160e081018652828152908101829052938401819052606080850182905291840181905260a0840181905260c08401528101919091525063ffffffff90811660009081526064602090815260409182902082516080808201855282546001600160a01b03908116835260018401548116838601526002840154811683870152855160e08101875260039094015461ffff80821686526201000082048116968601969096526401000000008104909516958401959095526601000000000000840490951660608381019190915260ff6a0100000000000000000000850481161515968401969096526b0100000000000000000000008404909516151560a0830152600160601b90920490921660c08301529182015290565b6040516103ac9190614842565b34801561087e57600080fd5b5060d354610489906001600160a01b031681565b34801561089e57600080fd5b506108b26108ad36600461460a565b611c3b565b6040516103ac91906148e6565b3480156108cb57600080fd5b506104676108da3660046146c1565b611cda565b3480156108eb57600080fd5b506104026108fa36600461460a565b611d8b565b34801561090b57600080fd5b5061019e546001600160a01b0316610489565b34801561092a57600080fd5b5061093e610939366004614953565b611dad565b6040516103ac91906149de565b34801561095757600080fd5b506104676109663660046146de565b611ddb565b34801561097757600080fd5b506103d461098636600461400a565b611f28565b34801561099757600080fd5b506103d46109a6366004614a22565b611fb2565b3480156109b757600080fd5b506104026109c6366004614a4e565b611fc9565b3480156109d757600080fd5b506104026109e6366004614a73565b612067565b6000806109fb61016b5460ff1690565b15610a405760405162461bcd60e51b815260206004820152601060248201526f14185d5cd8589b194e881c185d5cd95960821b60448201526064015b60405180910390fd5b6000610a4b866120ee565b9050610a5a8186866001612134565b9250925050935093915050565b600081815260d16020526040808220905163a0ba775760e01b81526004810191909152606460248201528190606090819073__$86182d6e9eac51236f2aa8dd2a3ddeab6c$__9063a0ba775790604401600060405180830381865af4158015610ad4573d6000803e3d6000fd5b505050506040513d6000823e601f3d908101601f19168201604052610afc9190810190614cbf565b93509350935093509193509193565b61019e546001600160a01b03163314801590610b33575061019d546001600160a01b03163314155b15610b5157604051636bd1573560e11b815260040160405180910390fd5b610b5b8282612321565b5050565b60d2546001600160a01b03163314610b8a576040516385734f3160e01b815260040160405180910390fd5b6000610baa610b9c60208401846146c1565b6001600160a01b0316612518565b63ffffffff8116600090815260646020526040902054909150610bd5906001600160a01b0316612526565b610be157610be1614dc6565b63ffffffff811660009081526064602052604090208290610c028282614f56565b9050507f4182acc9c169391ef7e765eb446fc15c9d49bc73060c678bf4c424a5c0dbdbcb8183606001604051610c39929190615135565b60405180910390a15050565b60608167ffffffffffffffff811115610c6057610c60614040565b604051908082528060200260200182016040528015610c9357816020015b6060815260200190600190039081610c7e5790505b5090506000610ca1856120ee565b905060008060005b858110156111da576000878783818110610cc557610cc56151f1565b9050602002810190610cd79190615207565b610ce5906020810190615227565b6006811115610cf657610cf6614212565b03610d6257600080888884818110610d1057610d106151f1565b9050602002810190610d229190615207565b610d30906020810190615248565b810190610d3d9190614a22565b915091508380610d4d5750600081125b9350610d5b86838387612538565b50506111c8565b6001878783818110610d7657610d766151f1565b9050602002810190610d889190615207565b610d96906020810190615227565b6006811115610da757610da7614212565b03610e13576000878783818110610dc057610dc06151f1565b9050602002810190610dd29190615207565b610de0906020810190615248565b810190610ded919061400a565b9050610dfb85826000612662565b6000811215610e0d5760019350600192505b506111c8565b6002878783818110610e2757610e276151f1565b9050602002810190610e399190615207565b610e47906020810190615227565b6006811115610e5857610e58614212565b03610f0557600080888884818110610e7257610e726151f1565b9050602002810190610e849190615207565b610e92906020810190615248565b810190610e9f919061528f565b91509150600080610eb38885856000612134565b60408051602081018490529081018290529193509150606001604051602081830303815290604052898681518110610eed57610eed6151f1565b602002602001018190525060019550505050506111c8565b6003878783818110610f1957610f196151f1565b9050602002810190610f2b9190615207565b610f39906020810190615227565b6006811115610f4a57610f4a614212565b03610fa557600080888884818110610f6457610f646151f1565b9050602002810190610f769190615207565b610f84906020810190615248565b810190610f919190615367565b91509150600080610eb38885856000612785565b6004878783818110610fb957610fb96151f1565b9050602002810190610fcb9190615207565b610fd9906020810190615227565b6006811115610fea57610fea614212565b0361104e576000806000898985818110611006576110066151f1565b90506020028101906110189190615207565b611026906020810190615248565b8101906110339190615395565b9250925092506110458b8484846128b6565b505050506111c8565b6005878783818110611062576110626151f1565b90506020028101906110749190615207565b611082906020810190615227565b600681111561109357611093614212565b036110a157610e0d886129d4565b60068787838181106110b5576110b56151f1565b90506020028101906110c79190615207565b6110d5906020810190615227565b60068111156110e6576110e6614212565b0361117c5760008787838181106110ff576110ff6151f1565b90506020028101906111119190615207565b61111f906020810190615248565b81019061112c919061460a565b90506111388982612b6a565b60405160200161114a91815260200190565b60405160208183030381529060405286838151811061116b5761116b6151f1565b6020026020010181905250506111c8565b86868281811061118e5761118e6151f1565b90506020028101906111a09190615207565b6111ae906020810190615227565b604051633164e52160e11b8152600401610a3791906153e0565b806111d281615410565b915050610ca9565b50811561124c5760405163651524ed60e01b8152600481018490526064602482015273__$86182d6e9eac51236f2aa8dd2a3ddeab6c$__9063651524ed9060440160006040518083038186803b15801561123357600080fd5b505af4158015611247573d6000803e3d6000fd5b505050505b80156112c45760405163998c533560e01b8152600481018490526001602482015260646044820181905273__$86182d6e9eac51236f2aa8dd2a3ddeab6c$__9163998c5335910160006040518083038186803b1580156112ab57600080fd5b505af41580156112bf573d6000803e3d6000fd5b505050505b5050505b9392505050565b60006112db8383612b6a565b90505b92915050565b63ffffffff81166000908152606460205260408120546112de906001600160a01b0316612526565b610b5b816129d4565b600082815260d160205260408082209051637188a1ed60e01b8152600481019190915263ffffffff8316602482015260646044820181905273__$86182d6e9eac51236f2aa8dd2a3ddeab6c$__91637188a1ed9101602060405180830381865af4158015611387573d6000803e3d6000fd5b505050506040513d601f19601f820116820180604052508101906112db9190615429565b6113b7848484846128b6565b5050505050565b61016b5460ff16156114055760405162461bcd60e51b815260206004820152601060248201526f14185d5cd8589b194e881c185d5cd95960821b6044820152606401610a37565b61141c611411846120ee565b838360008512612538565b505050565b61019e546001600160a01b03163314801590611449575061019d546001600160a01b03163314155b1561146757604051636bd1573560e11b815260040160405180910390fd5b6001600160a01b03811661148e5760405163d92e233d60e01b815260040160405180910390fd5b61019e546040516001600160a01b038084169216907f39355f2f5c8206286978f443aa8126bbd29fa09c53c04569502647f3a59c8cb290600090a361019e80546001600160a01b0319166001600160a01b0392909216919091179055565b61019e546001600160a01b03163314801590611514575061019d546001600160a01b03163314155b1561153257604051636bd1573560e11b815260040160405180910390fd5b61153a612cb0565b60005b8181101561141c576000838383818110611559576115596151f1565b905060200201602081019061156e919061460a565b905060008061157c83611d8b565b63ffffffff8516600090815260646020526040908190206002015490516336c3cc4d60e11b815260048101849052602481018390529294509092506001600160a01b031690636d87989a90604401600060405180830381600087803b1580156115e457600080fd5b505af11580156115f8573d6000803e3d6000fd5b50505050505050808061160a90615410565b91505061153d565b61019e546001600160a01b0316331480159061163a575061019d546001600160a01b03163314155b1561165857604051636bd1573560e11b815260040160405180910390fd5b63ffffffff82166000908152606460205260409020819060030161167c8282614e13565b9050507f4182acc9c169391ef7e765eb446fc15c9d49bc73060c678bf4c424a5c0dbdbcb8282604051610c39929190615135565b61016b5460ff16156116f75760405162461bcd60e51b815260206004820152601060248201526f14185d5cd8589b194e881c185d5cd95960821b6044820152606401610a37565b6000611702836120ee565b905061141c81836001612662565b600061171f61016b5460ff1690565b1561175f5760405162461bcd60e51b815260206004820152601060248201526f14185d5cd8589b194e881c185d5cd95960821b6044820152606401610a37565b5060d05461176e816001615442565b60d055600081815260d160209081526040918290206bffffffffffffffffffffffff1933600160601b8102919091166bffffffffffffffffffffffff861617825592518481529092917f7325fb14450d3e5eb288c620b4ff1d6b43a41b33b4a4f143ae88cd4c12f99ea3910160405180910390a25090565b61019e546001600160a01b0316331480159061180e575061019d546001600160a01b03163314155b1561182c57604051636bd1573560e11b815260040160405180910390fd5b836068611839828261547d565b5050606a839055606b82905560698190556040517f697aec6e94e319190380ab0f1f10018d81b64da2479eb874be92c9a733e0a83790611880908690869086908690615640565b60405180910390a150505050565b61019e546001600160a01b031633148015906118b6575061019d546001600160a01b03163314155b156118d457604051636bd1573560e11b815260040160405180910390fd5b6118dc612d4a565b60005b8181101561141c57606460008484848181106118fd576118fd6151f1565b9050602002016020810190611912919061460a565b63ffffffff168152602081019190915260409081016000206002015490516336c3cc4d60e11b815260016004820181905260248201526001600160a01b0390911690636d87989a90604401600060405180830381600087803b15801561197757600080fd5b505af115801561198b573d6000803e3d6000fd5b50505050808061199a90615410565b9150506118df565b61013854610100900460ff166119bf576101385460ff16156119c3565b303b155b611a265760405162461bcd60e51b815260206004820152602e60248201527f496e697469616c697a61626c653a20636f6e747261637420697320616c72656160448201526d191e481a5b9a5d1a585b1a5e995960921b6064820152608401610a37565b61013854610100900460ff16158015611a4a57610138805461ffff19166101011790555b60d280546001600160a01b03199081166001600160a01b038981169190911790925560668054821688841617905560d38054821686841617905560678054909116848316179055604080516060810182529186168252603c6020830152600190820152611ab8908690612321565b611ac0612dcf565b611ac8612ea1565b8015611adb57610138805461ff00191690555b505050505050565b60608167ffffffffffffffff811115611afe57611afe614040565b604051908082528060200260200182016040528015611b3157816020015b6060815260200190600190039081611b1c5790505b50905060005b82811015611c345760008030868685818110611b5557611b556151f1565b9050602002810190611b679190615248565b604051611b75929190615715565b600060405180830381855af49150503d8060008114611bb0576040519150601f19603f3d011682016040523d82523d6000602084013e611bb5565b606091505b509150915081611c0157604481511015611bce57600080fd5b60048101905080806020019051810190611be89190615725565b60405162461bcd60e51b8152600401610a3791906157b0565b80848481518110611c1457611c146151f1565b602002602001018190525050508080611c2c90615410565b915050611b37565b5092915050565b611c6e60408051808201825260008082528251606081018452818152602081810183905293810191909152909182015290565b5063ffffffff9081166000908152606560209081526040918290208251808401845281546001600160a01b03908116825284516060810186526001909301549081168352600160a01b810490951682840152600160c01b90940460ff1615159281019290925282015290565b61019d546001600160a01b03163314611d0657604051636bd1573560e11b815260040160405180910390fd5b6001600160a01b038116611d2d5760405163d92e233d60e01b815260040160405180910390fd5b61019d546040516001600160a01b038084169216907f5f56bee8cffbe9a78652a74a60705edede02af10b0bbb888ca44b79a0d42ce8090600090a361019d80546001600160a01b0319166001600160a01b0392909216919091179055565b600080611d99606484612f1a565b9150611da6606484612fba565b9050915091565b606060208251028201602001602083015b81811015611dd3578051548152602001611dbe565b509192915050565b6000805b82811015611efe576000848483818110611dfb57611dfb6151f1565b9050602002016020810190611e1091906146c1565b6001600160a01b0316635e622abc6040518163ffffffff1660e01b81526004016020604051808303816000875af1158015611e4f573d6000803e3d6000fd5b505050506040513d601f19601f82011682018060405250810190611e739190615429565b9050848483818110611e8757611e876151f1565b9050602002016020810190611e9c91906146c1565b6001600160a01b03167fa087657e3d85162090ffd700fbfdf5070d816f63aa5da00063f6ffd369c8a6db82604051611ed691815260200190565b60405180910390a2611ee88184615442565b9250508080611ef690615410565b915050611ddf565b5061141c611f1561019e546001600160a01b031690565b6066546001600160a01b03169083612fd7565b600081815260d16020526040808220905163625915c360e11b815260048101919091526064602482015273__$86182d6e9eac51236f2aa8dd2a3ddeab6c$__9063c4b22b8690604401602060405180830381865af4158015611f8e573d6000803e3d6000fd5b505050506040513d601f19601f820116820180604052508101906112de9190615429565b6000611fbc611710565b90506112de8184846113be565b600082815260d16020526040808220905163031b5fcd60e21b815260048101919091528215156024820152606460448201819052829173__$86182d6e9eac51236f2aa8dd2a3ddeab6c$__91630c6d7f3491016040805180830381865af4158015612038573d6000803e3d6000fd5b505050506040513d601f19601f8201168201806040525081019061205c91906157c3565b909590945092505050565b60008061207761016b5460ff1690565b156120b75760405162461bcd60e51b815260206004820152601060248201526f14185d5cd8589b194e881c185d5cd95960821b6044820152606401610a37565b60006120c2866120ee565b9050610a5a81866120d8368890038801886157e7565b6001612785565b6001600160a01b03163b151590565b600081815260d1602052604090208054600160601b90046001600160a01b0316331461212f57604051630504a20d60e01b8152336004820152602401610a37565b919050565b60008061214461016b5460ff1690565b156121845760405162461bcd60e51b815260206004820152601060248201526f14185d5cd8589b194e881c185d5cd95960821b6044820152606401610a37565b61218d85613067565b60408051630a067b0f60e11b81526004810188905263ffffffff871660248201528551604482015260208601516001600160a01b031660648083019190915291860151151560848201526060860151151560a482015260c481019190915283151560e482015273__$86182d6e9eac51236f2aa8dd2a3ddeab6c$__9063140cf61e90610104016040805180830381865af415801561222f573d6000803e3d6000fd5b505050506040513d601f19601f8201168201806040525081019061225391906157c3565b90925090506000612263826130f1565b606b5490915081101561228c576040516312b6b5cd60e11b815260048101829052602401610a37565b60208501516001600160a01b0316158015906122aa57508460600151155b1561231757846040015180156122d1575084516122c6906130f1565b6122cf836130f1565b145b806122fa575084604001511580156122fa575084516122ef906130f1565b6122f8846130f1565b145b612317576040516307a1db0760e01b815260040160405180910390fd5b5094509492505050565b6000612335836001600160a01b0316612518565b9050612349836001600160a01b0316612526565b1561236a576040516376d8a93160e01b815260006004820152602401610a37565b63ffffffff8116600090815260656020526040902054612392906001600160a01b0316612526565b1580156123cb575063ffffffff8082166000908152606560205260409020546123c9916001600160a01b0390911690859061310c16565b155b156124145763ffffffff81166000908152606560205260409081902054905163a5d4d0b560e01b81526001600160a01b0380861660048301529091166024820152604401610a37565b6040805180820182526001600160a01b038581168252602080830186815263ffffffff868116600090815260658452869020945185546001600160a01b03191690851617855590518051600190950180549382015191870151959094167fffffffffffffffff00000000000000000000000000000000000000000000000090931692909217600160a01b9290911691909102177fffffffffffffff00ffffffffffffffffffffffffffffffffffffffffffffffff16600160c01b92151592909202919091179055517f52983c04d8ccd4808cd0fcb24e6e48106ecb41e803d6270c6c94a15e3ebd08d29061250b9085908590615803565b60405180910390a1505050565b600063ffffffff82166112de565b60006001600160a01b038216156112de565b61016b5460ff161561257f5760405162461bcd60e51b815260206004820152601060248201526f14185d5cd8589b194e881c185d5cd95960821b6044820152606401610a37565b600061258e8460008512613122565b60405163f5a284a160e01b81526004810187905263ffffffff8616602482015260448101859052606480820152831515608482015290915073__$86182d6e9eac51236f2aa8dd2a3ddeab6c$__9063f5a284a19060a40160006040518083038186803b1580156125fd57600080fd5b505af4158015612611573d6000803e3d6000fd5b50505050600083131561263a578054612635906001600160a01b03163330866131b1565b6113b7565b60008312156113b7576113b73361265085615845565b83546001600160a01b03169190612fd7565b61016b5460ff16156126a95760405162461bcd60e51b815260206004820152601060248201526f14185d5cd8589b194e881c185d5cd95960821b6044820152606401610a37565b816000036126ca57604051631f2a200560e01b815260040160405180910390fd5b60405163d25c4a6f60e01b815260048101849052602481018390526064604482018190528215159082015273__$86182d6e9eac51236f2aa8dd2a3ddeab6c$__9063d25c4a6f9060840160006040518083038186803b15801561272c57600080fd5b505af4158015612740573d6000803e3d6000fd5b5050505060008213156127655760665461141c906001600160a01b03163330856131b1565b61141c3361277284615845565b6066546001600160a01b03169190612fd7565b60008061279561016b5460ff1690565b156127d55760405162461bcd60e51b815260206004820152601060248201526f14185d5cd8589b194e881c185d5cd95960821b6044820152606401610a37565b6127de85613067565b60608401516001600160a01b0316156128045761280485856060015186608001516131ef565b60405163c27789d160e01b815260009073__$86182d6e9eac51236f2aa8dd2a3ddeab6c$__9063c27789d190612847908a908a908a906064908b90600401615861565b606060405180830381865af4158015612864573d6000803e3d6000fd5b505050506040513d601f19601f820116820180604052508101906128889190615906565b606b549295509093509150811015612317576040516312b6b5cd60e11b815260048101829052602401610a37565b60006128c561016b5460ff1690565b156129055760405162461bcd60e51b815260206004820152601060248201526f14185d5cd8589b194e881c185d5cd95960821b6044820152606401610a37565b600085815260d16020526040902061291c85613067565b606a54604051637022478560e11b81526004810183905263ffffffff87166024820152600286810b604483015285900b6064808301919091526084820183905260a482015290925073__$86182d6e9eac51236f2aa8dd2a3ddeab6c$__9063e0448f0a9060c40160006040518083038186803b15801561299b57600080fd5b505af41580156129af573d6000803e3d6000fd5b50506066546129cb92506001600160a01b031690503384612fd7565b50949350505050565b60006129e361016b5460ff1690565b15612a235760405162461bcd60e51b815260206004820152601060248201526f14185d5cd8589b194e881c185d5cd95960821b6044820152606401610a37565b600082815260d1602052604080822090516308b9103160e21b815260048101829052602481018390526064604482018190529192918291829173__$86182d6e9eac51236f2aa8dd2a3ddeab6c$__916322e440c49101606060405180830381865af4158015612a96573d6000803e3d6000fd5b505050506040513d601f19601f82011682018060405250810190612aba9190615906565b919450925090506000612acd8385615934565b905060008413612af35760405163ef37dcc760e01b815260048101859052602401610a37565b606654612b0a906001600160a01b03163386612fd7565b612b1383613281565b604080518281526020810186905290810184905260608101839052339088907f688f0846fe2852572c467d5e769db101b0fea55e8849406d85c9fb322b95299b9060800160405180910390a3509195945050505050565b6000612b7961016b5460ff1690565b15612bb95760405162461bcd60e51b815260206004820152601060248201526f14185d5cd8589b194e881c185d5cd95960821b6044820152606401610a37565b600083815260d160205260409020612bd083613067565b6040516377f3beb560e01b81526004810182905263ffffffff841660248201526000604482018190526064808301529073__$86182d6e9eac51236f2aa8dd2a3ddeab6c$__906377f3beb5906084016040805180830381865af4158015612c3b573d6000803e3d6000fd5b505050506040513d601f19601f82011682018060405250810190612c5f91906157c3565b909350905060008313612c885760405163ef37dcc760e01b815260048101849052602401610a37565b606654612c9f906001600160a01b03163385612fd7565b612ca881613281565b505092915050565b61016b5460ff1615612cf75760405162461bcd60e51b815260206004820152601060248201526f14185d5cd8589b194e881c185d5cd95960821b6044820152606401610a37565b61016b805460ff191660011790557f62e78cea01bee320cd4e420270b5ea74000d11b0c9f74754ebdbfc544b05a258612d2d3390565b6040516001600160a01b03909116815260200160405180910390a1565b61016b5460ff16612d9d5760405162461bcd60e51b815260206004820152601460248201527f5061757361626c653a206e6f74207061757365640000000000000000000000006044820152606401610a37565b61016b805460ff191690557f5db9ee0a495bf2e6ff9c91a7834c1ba4fdd244a5e8aa4e537bd38aeae4b073aa33612d2d565b61013854610100900460ff16612dec576101385460ff1615612df0565b303b155b612e535760405162461bcd60e51b815260206004820152602e60248201527f496e697469616c697a61626c653a20636f6e747261637420697320616c72656160448201526d191e481a5b9a5d1a585b1a5e995960921b6064820152608401610a37565b61013854610100900460ff16158015612e7757610138805461ffff19166101011790555b612e7f61330d565b33612e8a818061337b565b508015612e9e57610138805461ff00191690555b50565b61013854610100900460ff16612f0d5760405162461bcd60e51b815260206004820152602b60248201527f496e697469616c697a61626c653a20636f6e7472616374206973206e6f74206960448201526a6e697469616c697a696e6760a81b6064820152608401610a37565b61016b805460ff19169055565b63ffffffff8181166000908152602084905260408082206003810154915163dd86c10160e01b81526601000000000000830490941660048501529192600160601b9091046001600160a01b03169063dd86c10190602401602060405180830381865afa158015612f8e573d6000803e3d6000fd5b505050506040513d601f19601f82011682018060405250810190612fb29190615429565b949350505050565b60006112db612fc984846134ce565b6001600160a01b0316613515565b6040516001600160a01b03831660248201526044810182905261141c90849063a9059cbb60e01b906064015b60408051601f198184030181529190526020810180517bffffffffffffffffffffffffffffffffffffffffffffffffffffffff167fffffffff0000000000000000000000000000000000000000000000000000000090931692909217909152613582565b63ffffffff811660009081526064602052604090208054613090906001600160a01b0316612526565b156130b65760405163b842f5a760e01b815263ffffffff83166004820152602401610a37565b60038101546a0100000000000000000000900460ff16610b5b5760405163587ee90160e11b815263ffffffff83166004820152602401610a37565b60008082136131085761310382615845565b6112de565b5090565b60006001600160a01b03808416908316146112db565b63ffffffff82166000908152606560205260409020805461314b906001600160a01b0316612526565b1561317157604051636b9c1a9d60e01b815263ffffffff84166004820152602401610a37565b8115801561318b57506001810154600160c01b900460ff16155b156112de5760405163122a1f1960e31b815263ffffffff84166004820152602401610a37565b6040516001600160a01b03808516602483015283166044820152606481018290526131e99085906323b872dd60e01b90608401613003565b50505050565b60006131fc606485613667565b90506000836001600160a01b0316826001600160a01b03161161322857613223828561598d565b613232565b613232848361598d565b90506127106132458561ffff86166159b5565b61324f91906159fa565b6001600160a01b0316816001600160a01b031611156113b7576040516307a1db0760e01b815260040160405180910390fd5b60008113156132a75760d354606654612e9e916001600160a01b03918216911683612fd7565b60d3546001600160a01b031663379607f56132c183615845565b6040518263ffffffff1660e01b81526004016132df91815260200190565b600060405180830381600087803b1580156132f957600080fd5b505af11580156113b7573d6000803e3d6000fd5b61013854610100900460ff166133795760405162461bcd60e51b815260206004820152602b60248201527f496e697469616c697a61626c653a20636f6e7472616374206973206e6f74206960448201526a6e697469616c697a696e6760a81b6064820152608401610a37565b565b61013854610100900460ff16613398576101385460ff161561339c565b303b155b6133ff5760405162461bcd60e51b815260206004820152602e60248201527f496e697469616c697a61626c653a20636f6e747261637420697320616c72656160448201526d191e481a5b9a5d1a585b1a5e995960921b6064820152608401610a37565b61013854610100900460ff1615801561342357610138805461ffff19166101011790555b61019d80546001600160a01b0319166001600160a01b0385169081179091556040516000907f5f56bee8cffbe9a78652a74a60705edede02af10b0bbb888ca44b79a0d42ce80908290a361019e80546001600160a01b0319166001600160a01b0384169081179091556040516000907f39355f2f5c8206286978f443aa8126bbd29fa09c53c04569502647f3a59c8cb2908290a3801561141c57610138805461ff0019169055505050565b63ffffffff80821660009081526020849052604081206003810154600182015492939192612fb2926001600160a01b03909116916601000000000000900481169061369216565b60006401000276a36001600160a01b0383161080613550575073fffd8963efd1fc6a506488495d951d5263988d266001600160a01b03831610155b1561357957604051635d236c4560e01b81526001600160a01b0383166004820152602401610a37565b6112de826136b3565b60006135d7826040518060400160405280602081526020017f5361666545524332303a206c6f772d6c6576656c2063616c6c206661696c6564815250856001600160a01b03166136d29092919063ffffffff16565b80519091501561141c57808060200190518101906135f59190615a20565b61141c5760405162461bcd60e51b815260206004820152602a60248201527f5361666545524332303a204552433230206f7065726174696f6e20646964206e60448201527f6f742073756363656564000000000000000000000000000000000000000000006064820152608401610a37565b63ffffffff81166000908152602083905260408120600101546112db906001600160a01b03166136e1565b6000806136a86001600160a01b03851684613752565b9050612fb28161396e565b60006112de6001600160a01b0383168068010000000000000000613c9e565b6060612fb28484600085613d50565b6000816001600160a01b0316633850c7bd6040518163ffffffff1660e01b815260040160e060405180830381865afa158015613721573d6000803e3d6000fd5b505050506040513d601f19601f820116820180604052508101906137459190615a3d565b5094979650505050505050565b60008163ffffffff1660000361377b57613774836001600160a01b0316613e98565b90506112de565b60408051600280825260608201835260009260208301908036833701905050905082816000815181106137b0576137b06151f1565b602002602001019063ffffffff16908163ffffffff16815250506000816001815181106137df576137df6151f1565b63ffffffff9092166020928302919091019091015260405163883bdbfd60e01b81526001600160a01b0385169063883bdbfd90613820908490600401615adf565b600060405180830381865afa92505050801561385e57506040513d6000823e601f3d908101601f1916820160405261385b9190810190615b81565b60015b6138d357836001600160a01b0316633850c7bd6040518163ffffffff1660e01b815260040160e060405180830381865afa1580156138a0573d6000803e3d6000fd5b505050506040513d601f19601f820116820180604052508101906138c49190615a3d565b50939650611c34945050505050565b6000826000815181106138e8576138e86151f1565b602002602001015183600181518110613903576139036151f1565b60200260200101516139159190615c4d565b9050600061392963ffffffff881683615c9d565b905060008260060b12801561394f575061394963ffffffff881683615cdb565b60060b15155b15613962578061395e81615cfd565b9150505b94506112de9350505050565b60008060008360020b12613985578260020b61398d565b8260020b6000035b9050620d89e88111156139b3576040516315e4079d60e11b815260040160405180910390fd5b6000816001166000036139d7577001000000000000000000000000000000006139e9565b6ffffcb933bd6fad37aa2d162d1a5940015b70ffffffffffffffffffffffffffffffffff1690506002821615613a1d576ffff97272373d413259a46990580e213a0260801c5b6004821615613a3c576ffff2e50f5f656932ef12357cf3c7fdcc0260801c5b6008821615613a5b576fffe5caca7e10e4e61c3624eaa0941cd00260801c5b6010821615613a7a576fffcb9843d60f6159c9db58835c9266440260801c5b6020821615613a99576fff973b41fa98c081472e6896dfb254c00260801c5b6040821615613ab8576fff2ea16466c96a3843ec78b326b528610260801c5b6080821615613ad7576ffe5dee046a99a2a811c461f1969c30530260801c5b610100821615613af7576ffcbe86c7900a88aedcffc83b479aa3a40260801c5b610200821615613b17576ff987a7253ac413176f2b074cf7815e540260801c5b610400821615613b37576ff3392b0822b70005940c7a398e4b70f30260801c5b610800821615613b57576fe7159475a2c29b7443b29c7fa6e889d90260801c5b611000821615613b77576fd097f3bdfd2022b8845ad8f792aa58250260801c5b612000821615613b97576fa9f746462d870fdf8a65dc1f90e061e50260801c5b614000821615613bb7576f70d869a156d2a1b890bb3df62baf32f70260801c5b618000821615613bd7576f31be135f97d08fd981231505542fcfa60260801c5b62010000821615613bf8576f09aa508b5b7a84e1c677de54f3e99bc90260801c5b62020000821615613c18576e5d6af8dedb81196699c329225ee6040260801c5b62040000821615613c37576d2216e584f5fa1ea926041bedfe980260801c5b62080000821615613c54576b048a170391f7dc42444e8fa20260801c5b60008460020b1315613c75578060001981613c7157613c716159e4565b0490505b640100000000810615613c89576001613c8c565b60005b60ff16602082901c0192505050919050565b6000808060001985870985870292508281108382030391505080600003613cd75760008411613ccc57600080fd5b5082900490506112c8565b808411613ce357600080fd5b6000848688096000868103871696879004966002600389028118808a02820302808a02820302808a02820302808a02820302808a02820302808a02909103029181900381900460010186841190950394909402919094039290920491909117919091029150509392505050565b606082471015613dc85760405162461bcd60e51b815260206004820152602660248201527f416464726573733a20696e73756666696369656e742062616c616e636520666f60448201527f722063616c6c00000000000000000000000000000000000000000000000000006064820152608401610a37565b6001600160a01b0385163b613e1f5760405162461bcd60e51b815260206004820152601d60248201527f416464726573733a2063616c6c20746f206e6f6e2d636f6e74726163740000006044820152606401610a37565b600080866001600160a01b03168587604051613e3b9190615d20565b60006040518083038185875af1925050503d8060008114613e78576040519150601f19603f3d011682016040523d82523d6000602084013e613e7d565b606091505b5091509150613e8d828286613f09565b979650505050505050565b6000816001600160a01b0316633850c7bd6040518163ffffffff1660e01b815260040160e060405180830381865afa158015613ed8573d6000803e3d6000fd5b505050506040513d601f19601f82011682018060405250810190613efc9190615a3d565b5093979650505050505050565b60608315613f185750816112c8565b825115613f285782518084602001fd5b8160405162461bcd60e51b8152600401610a3791906157b0565b60006101a0820190506001600160a01b03808916835280881660208401525061ffff808751166040840152806020880151166060840152806040880151166080840152506060860151613f9b60a084018261ffff169052565b50608086015161ffff811660c08401525060a086015161ffff811660e08401525060c086015167ffffffffffffffff81166101008401525060e086015167ffffffffffffffff811661012084015250846101408301528361016083015282610180830152979650505050505050565b60006020828403121561401c57600080fd5b5035919050565b63ffffffff81168114612e9e57600080fd5b803561212f81614023565b634e487b7160e01b600052604160045260246000fd5b60405160a0810167ffffffffffffffff8111828210171561407957614079614040565b60405290565b604051610120810167ffffffffffffffff8111828210171561407957614079614040565b6040805190810167ffffffffffffffff8111828210171561407957614079614040565b60405160e0810167ffffffffffffffff8111828210171561407957614079614040565b604051601f8201601f1916810167ffffffffffffffff8111828210171561411257614112614040565b604052919050565b6001600160a01b0381168114612e9e57600080fd5b803561212f8161411a565b8015158114612e9e57600080fd5b803561212f8161413a565b60006080828403121561416557600080fd5b6040516080810181811067ffffffffffffffff8211171561418857614188614040565b6040528235815290508060208301356141a08161411a565b602082015260408301356141b38161413a565b604082015260608301356141c68161413a565b6060919091015292915050565b600080600060c084860312156141e857600080fd5b8335925060208401356141fa81614023565b91506142098560408601614153565b90509250925092565b634e487b7160e01b600052602160045260246000fd5b6003811061423857614238614212565b9052565b600060808083016001600160a01b038089168552602088818701526040848188015283895180865260a089019150838b01955060005b81811015614299578651805187168452850151858401529584019591830191600101614272565b5050606094508781038589015280935088518082528382019450838160051b830101848b0160005b838110156143c057848303601f190188528151805163ffffffff16845287810151888501528681015187850152898101518a8501528a015160a08b850181905281519085018190529088019060009060c08601905b808310156143ab5783518051600290810b84528c820151900b8c8401528a8101516fffffffffffffffffffffffffffffffff81168c850152508d8101518e8401528e8101518f84015260a081015160a084015260c081015160c084015260e081015160e084015261010080820151915061439281850183614228565b5050610120820191508a84019350600183019250614316565b509989019994505050908601906001016142c1565b50909e9d5050505050505050505050505050565b60008082840360808112156143e857600080fd5b83356143f38161411a565b92506060601f198201121561440757600080fd5b506040516060810181811067ffffffffffffffff8211171561442b5761442b614040565b604052602084013561443c8161411a565b8152604084013561444c81614023565b6020820152606084013561445f8161413a565b6040820152919491935090915050565b6000610140828403121561448257600080fd5b50919050565b60008083601f84011261449a57600080fd5b50813567ffffffffffffffff8111156144b257600080fd5b6020830191508360208260051b85010111156144cd57600080fd5b9250929050565b6000806000604084860312156144e957600080fd5b83359250602084013567ffffffffffffffff81111561450757600080fd5b61451386828701614488565b9497909650939450505050565b60005b8381101561453b578181015183820152602001614523565b838111156131e95750506000910152565b60008151808452614564816020860160208601614520565b601f01601f19169290920160200192915050565b6000602080830181845280855180835260408601915060408160051b870101925083870160005b828110156145cd57603f198886030184526145bb85835161454c565b9450928501929085019060010161459f565b5092979650505050505050565b600080604083850312156145ed57600080fd5b8235915060208301356145ff81614023565b809150509250929050565b60006020828403121561461c57600080fd5b81356112c881614023565b8060020b8114612e9e57600080fd5b6000806000806080858703121561464c57600080fd5b84359350602085013561465e81614023565b9250604085013561466e81614627565b9150606085013561467e81614627565b939692955090935050565b60008060006060848603121561469e57600080fd5b8335925060208401356146b081614023565b929592945050506040919091013590565b6000602082840312156146d357600080fd5b81356112c88161411a565b600080602083850312156146f157600080fd5b823567ffffffffffffffff81111561470857600080fd5b61471485828601614488565b90969095509350505050565b600060e0828403121561448257600080fd5b600080610100838503121561474657600080fd5b823561475181614023565b91506147608460208501614720565b90509250929050565b6000806040838503121561477c57600080fd5b50508035926020909101359150565b6000806000808486036101608112156147a357600080fd5b610100808212156147b357600080fd5b95979588013596505050610120860135936101408701359350915050565b600080600080600060a086880312156147e957600080fd5b85356147f48161411a565b945060208601356148048161411a565b935060408601356148148161411a565b925060608601356148248161411a565b915060808601356148348161411a565b809150509295509295909350565b6000610140820190506001600160a01b0380845116835280602085015116602084015280604085015116604084015250606083015161ffff8082511660608501528060208301511660808501528060408301511660a08501525063ffffffff60608201511660c08401526080810151151560e084015260a08101516148cc61010085018215159052565b5060c001516001600160a01b038116610120840152611c34565b81516001600160a01b031681526020808301516080830191611c349084018280516001600160a01b0316825260208082015163ffffffff16908301526040908101511515910152565b600067ffffffffffffffff82111561494957614949614040565b5060051b60200190565b6000602080838503121561496657600080fd5b823567ffffffffffffffff81111561497d57600080fd5b8301601f8101851361498e57600080fd5b80356149a161499c8261492f565b6140e9565b81815260059190911b820183019083810190878311156149c057600080fd5b928401925b82841015613e8d578335825292840192908401906149c5565b6020808252825182820181905260009190848201906040850190845b81811015614a16578351835292840192918401916001016149fa565b50909695505050505050565b60008060408385031215614a3557600080fd5b8235614a4081614023565b946020939093013593505050565b60008060408385031215614a6157600080fd5b8235915060208301356145ff8161413a565b60008060006101208486031215614a8957600080fd5b833592506020840135614a9b81614023565b91506142098560408601614720565b805161212f81614627565b80516fffffffffffffffffffffffffffffffff8116811461212f57600080fd5b60038110612e9e57600080fd5b805161212f81614ad5565b600082601f830112614afe57600080fd5b81516020614b0e61499c8361492f565b82815260059290921b84018101918181019086841115614b2d57600080fd5b8286015b84811015614cb457805167ffffffffffffffff80821115614b5157600080fd5b9088019060a0828b03601f19011215614b6957600080fd5b614b71614056565b86830151614b7e81614023565b80825250604083015187820152606083015160408201526080830151606082015260a083015182811115614bb157600080fd5b8084019350508a603f840112614bc657600080fd5b868301519150614bd861499c8361492f565b82815261012092830284016040019288820191908d851115614bf957600080fd5b6040860195505b84861015614c9e5780868f031215614c1757600080fd5b614c1f61407f565b614c2887614aaa565b8152614c358b8801614aaa565b8b820152614c4560408801614ab5565b6040820152606087015160608201526080870151608082015260a087015160a082015260c087015160c082015260e087015160e0820152614c896101008801614ae2565b61010082015283529485019491890191614c00565b5060808301525085525050918301918301614b31565b509695505050505050565b60008060008060808587031215614cd557600080fd5b8451614ce08161411a565b80945050602080860151935060408087015167ffffffffffffffff80821115614d0857600080fd5b818901915089601f830112614d1c57600080fd5b8151614d2a61499c8261492f565b81815260069190911b8301850190858101908c831115614d4957600080fd5b938601935b82851015614d925785858e031215614d665760008081fd5b614d6e6140a3565b8551614d798161411a565b8152858801518882015282529385019390860190614d4e565b60608c01519098509550505080841115614dab57600080fd5b505050614dba87828801614aed565b91505092959194509250565b634e487b7160e01b600052600160045260246000fd5b61ffff81168114612e9e57600080fd5b600081356112de81614ddc565b600081356112de8161413a565b600081356112de8161411a565b8135614e1e81614ddc565b815461ffff191661ffff8216178255506020820135614e3c81614ddc565b815463ffff00001916601082901b63ffff000016178255506040820135614e6281614ddc565b815465ffff000000001916602082901b65ffff0000000016178255506060820135614e8c81614023565b815469ffffffff000000000000191660309190911b69ffffffff000000000000161781556080820135614ebe8161413a565b81546aff00000000000000000000191681151560501b6aff00000000000000000000161782555060a0820135614ef38161413a565b81546bff0000000000000000000000191681151560581b6bff0000000000000000000000161782555060c0820135614f2a8161411a565b81546bffffffffffffffffffffffff16606082901b6bffffffffffffffffffffffff1916178255505050565b8135614f618161411a565b81546001600160a01b0319166001600160a01b038216178255506020820135614f898161411a565b6001820180546001600160a01b0319166001600160a01b038316179055506040820135614fb58161411a565b6002820180546001600160a01b0319166001600160a01b03831617905550600381016060830135614fe581614ddc565b815461ffff191661ffff821617825550608083013561500381614ddc565b815463ffff00001916601082901b63ffff0000161782555060a083013561502981614ddc565b815465ffff000000001916602082901b65ffff00000000161782555060c083013561505381614023565b815469ffffffff000000000000191660309190911b69ffffffff000000000000161781556150b261508660e08501614df9565b8280546aff00000000000000000000191691151560501b6aff0000000000000000000016919091179055565b6150f06150c26101008501614df9565b8280546bff0000000000000000000000191691151560581b6bff000000000000000000000016919091179055565b61141c6151006101208501614e06565b82546bffffffffffffffffffffffff1660609190911b6bffffffffffffffffffffffff1916178255565b803561212f81614ddc565b63ffffffff831681526101008101823561514e81614ddc565b61ffff80821660208501526020850135915061516982614ddc565b80821660408501526040850135915061518182614ddc565b8082166060850152505061519760608401614035565b63ffffffff81166080840152506151b060808401614148565b80151560a0840152506151c560a08401614148565b80151560c0840152506151da60c0840161412f565b6001600160a01b03811660e0840152509392505050565b634e487b7160e01b600052603260045260246000fd5b60008235603e1983360301811261521d57600080fd5b9190910192915050565b60006020828403121561523957600080fd5b8135600781106112c857600080fd5b6000808335601e1984360301811261525f57600080fd5b83018035915067ffffffffffffffff82111561527a57600080fd5b6020019150368190038213156144cd57600080fd5b60008060a083850312156152a257600080fd5b82356152ad81614023565b91506147608460208501614153565b803561212f81614ad5565b600060e082840312156152d957600080fd5b6152e16140c6565b905081356152ee81614627565b815260208201356152fe81614627565b60208201526040820135600f81900b811461531857600080fd5b60408201526153296060830161412f565b606082015261533a6080830161512a565b608082015261534b60a08301614148565b60a082015261535c60c083016152bc565b60c082015292915050565b600080610100838503121561537b57600080fd5b823561538681614023565b915061476084602085016152c7565b6000806000606084860312156153aa57600080fd5b83356153b581614023565b925060208401356153c581614627565b915060408401356153d581614627565b809150509250925092565b60208101600783106153f4576153f4614212565b91905290565b634e487b7160e01b600052601160045260246000fd5b600060018201615422576154226153fa565b5060010190565b60006020828403121561543b57600080fd5b5051919050565b60008219821115615455576154556153fa565b500190565b67ffffffffffffffff81168114612e9e57600080fd5b600081356112de8161545a565b813561548881614ddc565b815461ffff191661ffff82161782555060208201356154a681614ddc565b815463ffff00001916601082901b63ffff0000161782555060408201356154cc81614ddc565b815465ffff000000001916602082901b65ffff00000000161782555060608201356154f681614ddc565b815467ffff0000000000008260301b1691508167ffff000000000000198216178355608084013561552681614ddc565b69ffff00000000000000008160401b168369ffffffff0000000000001984161717845550505061558561555b60a08401614dec565b82546bffff00000000000000000000191660509190911b6bffff0000000000000000000016178255565b6155d961559460c08401615470565b82547fffffffffffffffffffffffff0000000000000000ffffffffffffffffffffffff1660609190911b73ffffffffffffffff00000000000000000000000016178255565b610b5b6155e860e08401615470565b82547fffffffff0000000000000000ffffffffffffffffffffffffffffffffffffffff1660a09190911b7bffffffffffffffff000000000000000000000000000000000000000016178255565b803561212f8161545a565b6101608101853561565081614ddc565b61ffff908116835260208701359061566782614ddc565b1660208301526156796040870161512a565b61ffff16604083015261568e6060870161512a565b61ffff1660608301526156a36080870161512a565b61ffff1660808301526156b860a0870161512a565b61ffff1660a08301526156cd60c08701615635565b67ffffffffffffffff1660c08301526156e860e08701615635565b67ffffffffffffffff1660e083015261010082019490945261012081019290925261014090910152919050565b8183823760009101908152919050565b60006020828403121561573757600080fd5b815167ffffffffffffffff8082111561574f57600080fd5b818401915084601f83011261576357600080fd5b81518181111561577557615775614040565b615788601f8201601f19166020016140e9565b915080825285602082850101111561579f57600080fd5b6129cb816020840160208601614520565b6020815260006112db602083018461454c565b600080604083850312156157d657600080fd5b505080516020909101519092909150565b600060e082840312156157f957600080fd5b6112db83836152c7565b6001600160a01b0383168152608081016112c8602083018480516001600160a01b0316825260208082015163ffffffff16908301526040908101511515910152565b6000600160ff1b820161585a5761585a6153fa565b5060000390565b60006101608201905086825263ffffffff86166020830152845160020b6040830152602085015160020b60608301526040850151600f0b60808301526001600160a01b0360608601511660a083015261ffff60808601511660c083015260a08501516158d160e084018215159052565b5060c08501516158e5610100840182614228565b50836101208301526158fc61014083018415159052565b9695505050505050565b60008060006060848603121561591b57600080fd5b8351925060208401519150604084015190509250925092565b6000808212827f7fffffffffffffffffffffffffffffffffffffffffffffffffffffffffffffff0384138115161561596e5761596e6153fa565b600160ff1b8390038412811615615987576159876153fa565b50500190565b60006001600160a01b03838116908316818110156159ad576159ad6153fa565b039392505050565b60006001600160a01b03808316818516818304811182151516156159db576159db6153fa565b02949350505050565b634e487b7160e01b600052601260045260246000fd5b60006001600160a01b0380841680615a1457615a146159e4565b92169190910492915050565b600060208284031215615a3257600080fd5b81516112c88161413a565b600080600080600080600060e0888a031215615a5857600080fd5b8751615a638161411a565b6020890151909750615a7481614627565b6040890151909650615a8581614ddc565b6060890151909550615a9681614ddc565b6080890151909450615aa781614ddc565b60a089015190935060ff81168114615abe57600080fd5b60c0890151909250615acf8161413a565b8091505092959891949750929550565b6020808252825182820181905260009190848201906040850190845b81811015614a1657835163ffffffff1683529284019291840191600101615afb565b600082601f830112615b2e57600080fd5b81516020615b3e61499c8361492f565b82815260059290921b84018101918181019086841115615b5d57600080fd5b8286015b84811015614cb4578051615b748161411a565b8352918301918301615b61565b60008060408385031215615b9457600080fd5b825167ffffffffffffffff80821115615bac57600080fd5b818501915085601f830112615bc057600080fd5b81516020615bd061499c8361492f565b82815260059290921b84018101918181019089841115615bef57600080fd5b948201945b83861015615c1d5785518060060b8114615c0e5760008081fd5b82529482019490820190615bf4565b91880151919650909350505080821115615c3657600080fd5b50615c4385828601615b1d565b9150509250929050565b60008160060b8360060b6000811281667fffffffffffff1901831281151615615c7857615c786153fa565b81667fffffffffffff018313811615615c9357615c936153fa565b5090039392505050565b60008160060b8360060b80615cb457615cb46159e4565b667fffffffffffff19821460001982141615615cd257615cd26153fa565b90059392505050565b60008260060b80615cee57615cee6159e4565b808360060b0791505092915050565b60008160020b627fffff198103615d1657615d166153fa565b6000190192915050565b6000825161521d81846020870161452056fea2646970667358221220f39d435a52dc54ee7be94a329b8ba433df5cbce608304476b9fbe9485786a7ea64736f6c634300080d0033",
  "libraries": {
    "Account": "0x3C1C16e6694FE512c6Bcb070A0340F4aA8fA6c26"
  },
  "devdoc": {
    "errors": {
      "AccessDenied(address)": [
        {
          "params": {
            "senderAddress": "address of msg sender"
          }
        }
      ],
      "CollateralDoesNotExist(uint32)": [
        {
          "params": {
            "collateralId": "address of token"
          }
        }
      ],
      "CollateralNotAllowedForUse(uint32)": [
        {
          "params": {
            "collateralId": "address of token"
          }
        }
      ],
      "IncorrectCollateralAddress(address,address)": [
        {
          "params": {
            "correctAddress": "correct address of collateral token",
            "incorrectAddress": "incorrect address of collateral token"
          }
        }
      ],
      "InvalidCollateralAddress(address)": [
        {
          "params": {
            "invalidAddress": "invalid address of collateral token"
          }
        }
      ],
      "InvalidMulticallOperationType(uint8)": [
        {
          "params": {
            "multicallOperationType": "is the value that is out of bounds"
          }
        }
      ],
      "LowNotionalValue(uint256)": [
        {
          "params": {
            "notionalValue": "notional value of txn"
          }
        }
      ],
      "PoolDoesNotExist(uint32)": [
        {
          "params": {
            "poolId": "unitialized truncated address supplied"
          }
        }
      ],
      "PoolNotAllowedForTrade(uint32)": [
        {
          "params": {
            "poolId": "address of token"
          }
        }
      ]
    },
    "kind": "dev",
    "methods": {
      "createAccount()": {
        "returns": {
          "newAccountId": "- serial number of the new account created"
        }
      },
      "createAccountAndAddMargin(uint32,uint256)": {
        "params": {
          "amount": "amount of token to deposit",
          "collateralId": "truncated address of collateral token to deposit"
        },
        "returns": {
          "newAccountId": "- serial number of the new account created"
        }
      },
      "extsload(bytes32)": {
        "params": {
          "slot": "to read from."
        },
        "returns": {
          "val": "stored at the slot."
        }
      },
      "extsload(bytes32[])": {
        "params": {
          "slots": "to read from."
        },
        "returns": {
          "_0": "values stored at the slots."
        }
      },
      "getAccountInfo(uint256)": {
        "params": {
          "accountId": "the account id"
        },
        "returns": {
          "collateralDeposits": "the collateral deposits of the account",
          "owner": "address of the account creator",
          "tokenPositions": "the token positions of the account along with liquidity positions",
          "vQuoteBalance": "the vQuote balance of the account"
        }
      },
      "getAccountMarketValueAndRequiredMargin(uint256,bool)": {
        "details": "This method can be used to check if an account is under water or not.     If accountMarketValue < requiredMargin then liquidation can take place.",
        "params": {
          "accountId": "the account id",
          "isInitialMargin": "true is initial margin, false is maintainance margin"
        },
        "returns": {
          "marketValue": "the market value of the account, due to collateral and positions",
          "requiredMargin": "margin needed due to positions"
        }
      },
      "getAccountNetProfit(uint256)": {
        "params": {
          "accountId": "the account id"
        },
        "returns": {
          "accountNetProfit": "the net profit of the account"
        }
      },
      "getAccountNetTokenPosition(uint256,uint32)": {
        "params": {
          "accountId": "the account id",
          "poolId": "the id of the pool (vETH, ... etc)"
        },
        "returns": {
          "netPosition": "the net position of the account"
        }
      },
      "getCollateralInfo(uint32)": {
        "params": {
          "collateralId": "the id of the collateral"
        },
        "returns": {
          "_0": "collateral the Collateral struct"
        }
      },
      "getPoolInfo(uint32)": {
        "params": {
          "poolId": "the id of the pool"
        },
        "returns": {
          "_0": "pool the Pool struct"
        }
      },
      "getProtocolInfo()": {
        "returns": {
          "liquidationParams": "the liquidation parameters",
          "minRequiredMargin": "minimum required margin an account has to keep with non-zero netPosition",
          "minimumOrderNotional": "the minimum order notional",
          "removeLimitOrderFee": "the fee charged for using removeLimitOrder service",
          "settlementToken": "the token in which profit is settled",
          "vQuote": "the vQuote token contract"
        }
      },
      "getTwapPrices(uint32)": {
        "params": {
          "poolId": "the id of the pool"
        },
        "returns": {
          "realPriceX128": "the real price of the pool",
          "virtualPriceX128": "the virtual price of the pool"
        }
      },
      "governance()": {
        "details": "Returns the address of the current governance."
      },
      "isPoolIdAvailable(uint32)": {
        "params": {
          "poolId": "the id of the pool"
        },
        "returns": {
          "_0": "true if the poolId is unused, false otherwise"
        }
      },
      "liquidateLiquidityPositions(uint256)": {
        "details": "removes all the active range positions and gives liquidator a percent of notional amount closed + fixedFee",
        "params": {
          "accountId": "account id"
        }
      },
      "liquidateTokenPosition(uint256,uint32)": {
        "details": "transfers the fraction of token position at a discount to current price to liquidators account and gives liquidator some fixedFee",
        "params": {
          "poolId": "truncated address of token to withdraw",
          "targetAccountId": "account id"
        },
        "returns": {
          "keeperFee": "- amount of fees transferred to keeper"
        }
      },
      "multicall(bytes[])": {
        "details": "The `msg.value` should not be trusted for any method callable from multicall.",
        "params": {
          "data": "The encoded function data for each of the calls to make to this contract"
        },
        "returns": {
          "results": "The results from each of the calls passed in via data"
        }
      },
      "paused()": {
        "details": "Returns true if the contract is paused, and false otherwise."
      },
      "removeLimitOrder(uint256,uint32,int24,int24)": {
        "details": "checks the position of current price relative to limit order and checks limitOrderType",
        "params": {
          "accountId": "account id",
          "poolId": "truncated address of token to withdraw",
          "tickLower": "liquidity change parameters",
          "tickUpper": "liquidity change parameters"
        }
      },
      "swapToken(uint256,uint32,(int256,uint160,bool,bool))": {
        "params": {
          "accountId": "account id",
          "poolId": "truncated address of token to withdraw",
          "swapParams": "swap parameters"
        }
      },
      "teamMultisig()": {
        "details": "Returns the address of the current team multisig.transferTeamMultisig"
      },
      "transferGovernance(address)": {
        "details": "Transfers governance to a new account (`newGovernance`). Can only be called by the current governance."
      },
      "transferTeamMultisig(address)": {
        "details": "Transfers teamMultisig to a new account (`newTeamMultisig`). Can only be called by the current teamMultisig or current governance."
      },
      "updateMargin(uint256,uint32,int256)": {
        "params": {
          "accountId": "account id",
          "amount": "amount of token to deposit",
          "collateralId": "truncated address of token to deposit"
        }
      },
      "updatePoolSettings(uint32,(uint16,uint16,uint16,uint32,bool,bool,address))": {
        "params": {
          "newSettings": "updated rage trade pool settings",
          "poolId": "rage trade pool id"
        }
      },
      "updateProfit(uint256,int256)": {
        "params": {
          "accountId": "account id",
          "amount": "amount of token to withdraw"
        }
      },
      "updateRangeOrder(uint256,uint32,(int24,int24,int128,uint160,uint16,bool,uint8))": {
        "params": {
          "accountId": "account id",
          "liquidityChangeParams": "liquidity change parameters",
          "poolId": "truncated address of token to withdraw"
        }
      },
      "withdrawProtocolFee(address[])": {
        "params": {
          "wrapperAddresses": "list of wrapper addresses to collect fees from"
        }
      }
    },
    "version": 1
  },
  "userdoc": {
    "errors": {
      "AccessDenied(address)": [
        {
          "notice": "error to denote invalid account access"
        }
      ],
      "CollateralDoesNotExist(uint32)": [
        {
          "notice": "error to denote usage of uninitialized token"
        }
      ],
      "CollateralNotAllowedForUse(uint32)": [
        {
          "notice": "error to denote usage of unsupported collateral token"
        }
      ],
      "IncorrectCollateralAddress(address,address)": [
        {
          "notice": "error to denote incorrect address is supplied while updating collateral settings"
        }
      ],
      "InvalidCollateralAddress(address)": [
        {
          "notice": "error to denote invalid address supplied as a collateral token"
        }
      ],
      "InvalidMulticallOperationType(uint8)": [
        {
          "notice": "this is errored when the enum (uint8) value is out of bounds"
        }
      ],
      "InvalidTokenLiquidationParameters()": [
        {
          "notice": "error to denote invalid token liquidation (fraction to liquidate> 1)"
        }
      ],
      "KeeperFeeNotPositive(int256)": [
        {
          "notice": "error to denote that keeper fee is negative or zero"
        }
      ],
      "LowNotionalValue(uint256)": [
        {
          "notice": "error to denote low notional value of txn"
        }
      ],
      "PoolDoesNotExist(uint32)": [
        {
          "notice": "error to denote usage of uninitialized pool"
        }
      ],
      "PoolNotAllowedForTrade(uint32)": [
        {
          "notice": "error to denote usage of unsupported pool"
        }
      ],
      "SlippageBeyondTolerance()": [
        {
          "notice": "error to denote slippage of txn beyond set threshold"
        }
      ]
    },
    "events": {
      "AccountCreated(address,uint256)": {
        "notice": "denotes new account creation"
      },
      "CollateralSettingsUpdated(address,(address,uint32,bool))": {
        "notice": "new collateral supported as margin"
      },
      "PoolSettingsUpdated(uint32,(uint16,uint16,uint16,uint32,bool,bool,address))": {
        "notice": "maintainance margin ratio of a pool changed"
      },
      "ProtocolSettingsUpdated((uint16,uint16,uint16,uint16,uint16,uint16,uint64,uint64),uint256,uint256,uint256)": {
        "notice": "protocol settings changed"
      }
    },
    "kind": "user",
    "methods": {
      "__initialize_ClearingHouse(address,address,address,address,address)": {
        "notice": "SYSTEM FUNCTIONS"
      },
      "createAccount()": {
        "notice": "creates a new account and adds it to the accounts map"
      },
      "createAccountAndAddMargin(uint32,uint256)": {
        "notice": "creates a new account and deposits 'amount' of token associated with 'poolId'"
      },
      "extsload(bytes32)": {
        "notice": "Returns a value from the storage."
      },
      "extsload(bytes32[])": {
        "notice": "Returns multiple values from storage."
      },
      "getAccountInfo(uint256)": {
        "notice": "Gets details about account id"
      },
      "getAccountMarketValueAndRequiredMargin(uint256,bool)": {
        "notice": "Gets the market value and required margin of an account"
      },
      "getAccountNetProfit(uint256)": {
        "notice": "Gets the net profit of an account"
      },
      "getAccountNetTokenPosition(uint256,uint32)": {
        "notice": "Gets the net position of an account"
      },
      "getCollateralInfo(uint32)": {
        "notice": "Gets the info about a supported collateral in the protocol"
      },
      "getPoolInfo(uint32)": {
        "notice": "Gets the info about a supported pool in the protocol"
      },
      "getProtocolInfo()": {
        "notice": "Gets the protocol info, global protocol settings"
      },
      "getTwapPrices(uint32)": {
        "notice": "Gets the real and virtual prices from the respective oracle of the given poolId"
      },
      "isPoolIdAvailable(uint32)": {
        "notice": "Checks if a poolId is unused"
      },
      "liquidateLiquidityPositions(uint256)": {
        "notice": "keeper call for liquidation of range position"
      },
      "liquidateTokenPosition(uint256,uint32)": {
        "notice": "keeper call for liquidation of token position"
      },
      "multicall(bytes[])": {
        "notice": "Call multiple functions in the current contract and return the data from all of them if they all succeed"
      },
      "multicallWithSingleMarginCheck(uint256,(uint8,bytes)[])": {
        "notice": "MULTICALL"
      },
      "removeLimitOrder(uint256,uint32,int24,int24)": {
        "notice": "keeper call to remove a limit order"
      },
      "swapToken(uint256,uint32,(int256,uint160,bool,bool))": {
        "notice": "swaps token associated with 'poolId' by 'amount' (Long if amount>0 else Short)"
      },
      "updateCollateralSettings(address,(address,uint32,bool))": {
        "notice": "ADMIN FUNCTIONS"
      },
      "updateMargin(uint256,uint32,int256)": {
        "notice": "deposits 'amount' of token associated with 'poolId'"
      },
      "updatePoolSettings(uint32,(uint16,uint16,uint16,uint32,bool,bool,address))": {
        "notice": "updates the rage trade pool settings"
      },
      "updateProfit(uint256,int256)": {
        "notice": "withdraws 'amount' of settlement token from the profit made"
      },
      "updateRangeOrder(uint256,uint32,(int24,int24,int128,uint160,uint16,bool,uint8))": {
        "notice": "updates range order of token associated with 'poolId' by 'liquidityDelta' (Adds if amount>0 else Removes)also can be used to update limitOrderType"
      },
      "withdrawProtocolFee(address[])": {
        "notice": "withdraws protocol fees collected in the supplied wrappers to team multisig"
      }
    },
    "version": 1
  },
  "storageLayout": {
    "storage": [
      {
        "astId": 20841,
        "contract": "contracts/protocol/clearinghouse/ClearingHouse.sol:ClearingHouse",
        "label": "_emptySlots1",
        "offset": 0,
        "slot": "0",
        "type": "t_array(t_uint256)100_storage"
      },
      {
        "astId": 20844,
        "contract": "contracts/protocol/clearinghouse/ClearingHouse.sol:ClearingHouse",
        "label": "protocol",
        "offset": 0,
        "slot": "100",
        "type": "t_struct(Info)13404_storage"
      },
      {
        "astId": 20846,
        "contract": "contracts/protocol/clearinghouse/ClearingHouse.sol:ClearingHouse",
        "label": "numAccounts",
        "offset": 0,
        "slot": "208",
        "type": "t_uint256"
      },
      {
        "astId": 20851,
        "contract": "contracts/protocol/clearinghouse/ClearingHouse.sol:ClearingHouse",
        "label": "accounts",
        "offset": 0,
        "slot": "209",
        "type": "t_mapping(t_uint256,t_struct(Info)9104_storage)"
      },
      {
        "astId": 20853,
        "contract": "contracts/protocol/clearinghouse/ClearingHouse.sol:ClearingHouse",
        "label": "rageTradeFactoryAddress",
        "offset": 0,
        "slot": "210",
        "type": "t_address"
      },
      {
        "astId": 20856,
        "contract": "contracts/protocol/clearinghouse/ClearingHouse.sol:ClearingHouse",
        "label": "insuranceFund",
        "offset": 0,
        "slot": "211",
        "type": "t_contract(IInsuranceFund)8147"
      },
      {
        "astId": 20860,
        "contract": "contracts/protocol/clearinghouse/ClearingHouse.sol:ClearingHouse",
        "label": "_emptySlots2",
        "offset": 0,
        "slot": "212",
        "type": "t_array(t_uint256)100_storage"
      },
      {
        "astId": 52,
        "contract": "contracts/protocol/clearinghouse/ClearingHouse.sol:ClearingHouse",
        "label": "_initialized",
        "offset": 0,
        "slot": "312",
        "type": "t_bool"
      },
      {
        "astId": 55,
        "contract": "contracts/protocol/clearinghouse/ClearingHouse.sol:ClearingHouse",
        "label": "_initializing",
        "offset": 1,
        "slot": "312",
        "type": "t_bool"
      },
      {
        "astId": 1230,
        "contract": "contracts/protocol/clearinghouse/ClearingHouse.sol:ClearingHouse",
        "label": "__gap",
        "offset": 0,
        "slot": "313",
        "type": "t_array(t_uint256)50_storage"
      },
      {
        "astId": 140,
        "contract": "contracts/protocol/clearinghouse/ClearingHouse.sol:ClearingHouse",
        "label": "_paused",
        "offset": 0,
        "slot": "363",
        "type": "t_bool"
      },
      {
        "astId": 229,
        "contract": "contracts/protocol/clearinghouse/ClearingHouse.sol:ClearingHouse",
        "label": "__gap",
        "offset": 0,
        "slot": "364",
        "type": "t_array(t_uint256)49_storage"
      },
      {
        "astId": 28343,
        "contract": "contracts/protocol/clearinghouse/ClearingHouse.sol:ClearingHouse",
        "label": "_governance",
        "offset": 0,
        "slot": "413",
        "type": "t_address"
      },
      {
        "astId": 28345,
        "contract": "contracts/protocol/clearinghouse/ClearingHouse.sol:ClearingHouse",
        "label": "_teamMultisig",
        "offset": 0,
        "slot": "414",
        "type": "t_address"
      }
    ],
    "types": {
      "t_address": {
        "encoding": "inplace",
        "label": "address",
        "numberOfBytes": "20"
      },
      "t_array(t_uint256)100_storage": {
        "base": "t_uint256",
        "encoding": "inplace",
        "label": "uint256[100]",
        "numberOfBytes": "3200"
      },
      "t_array(t_uint256)49_storage": {
        "base": "t_uint256",
        "encoding": "inplace",
        "label": "uint256[49]",
        "numberOfBytes": "1568"
      },
      "t_array(t_uint256)50_storage": {
        "base": "t_uint256",
        "encoding": "inplace",
        "label": "uint256[50]",
        "numberOfBytes": "1600"
      },
      "t_array(t_uint32)8_storage": {
        "base": "t_uint32",
        "encoding": "inplace",
        "label": "uint32[8]",
        "numberOfBytes": "32"
      },
      "t_array(t_uint48)5_storage": {
        "base": "t_uint48",
        "encoding": "inplace",
        "label": "uint48[5]",
        "numberOfBytes": "32"
      },
      "t_bool": {
        "encoding": "inplace",
        "label": "bool",
        "numberOfBytes": "1"
      },
      "t_contract(IERC20)3369": {
        "encoding": "inplace",
        "label": "contract IERC20",
        "numberOfBytes": "20"
      },
      "t_contract(IInsuranceFund)8147": {
        "encoding": "inplace",
        "label": "contract IInsuranceFund",
        "numberOfBytes": "20"
      },
      "t_contract(IOracle)8157": {
        "encoding": "inplace",
        "label": "contract IOracle",
        "numberOfBytes": "20"
      },
      "t_contract(IUniswapV3Pool)5364": {
        "encoding": "inplace",
        "label": "contract IUniswapV3Pool",
        "numberOfBytes": "20"
      },
      "t_contract(IVPoolWrapper)8362": {
        "encoding": "inplace",
        "label": "contract IVPoolWrapper",
        "numberOfBytes": "20"
      },
      "t_contract(IVQuote)8386": {
        "encoding": "inplace",
        "label": "contract IVQuote",
        "numberOfBytes": "20"
      },
      "t_contract(IVToken)8410": {
        "encoding": "inplace",
        "label": "contract IVToken",
        "numberOfBytes": "20"
      },
      "t_enum(LimitOrderType)8587": {
        "encoding": "inplace",
        "label": "enum IClearingHouseEnums.LimitOrderType",
        "numberOfBytes": "1"
      },
      "t_int24": {
        "encoding": "inplace",
        "label": "int24",
        "numberOfBytes": "3"
      },
      "t_int256": {
        "encoding": "inplace",
        "label": "int256",
        "numberOfBytes": "32"
      },
      "t_mapping(t_uint256,t_struct(Info)9104_storage)": {
        "encoding": "mapping",
        "key": "t_uint256",
        "label": "mapping(uint256 => struct Account.Info)",
        "numberOfBytes": "32",
        "value": "t_struct(Info)9104_storage"
      },
      "t_mapping(t_uint32,t_struct(Collateral)8727_storage)": {
        "encoding": "mapping",
        "key": "t_uint32",
        "label": "mapping(uint32 => struct IClearingHouseStructures.Collateral)",
        "numberOfBytes": "32",
        "value": "t_struct(Collateral)8727_storage"
      },
      "t_mapping(t_uint32,t_struct(Info)16766_storage)": {
        "encoding": "mapping",
        "key": "t_uint32",
        "label": "mapping(uint32 => struct VTokenPosition.Info)",
        "numberOfBytes": "32",
        "value": "t_struct(Info)16766_storage"
      },
      "t_mapping(t_uint32,t_struct(Pool)8813_storage)": {
        "encoding": "mapping",
        "key": "t_uint32",
        "label": "mapping(uint32 => struct IClearingHouseStructures.Pool)",
        "numberOfBytes": "32",
        "value": "t_struct(Pool)8813_storage"
      },
      "t_mapping(t_uint32,t_uint256)": {
        "encoding": "mapping",
        "key": "t_uint32",
        "label": "mapping(uint32 => uint256)",
        "numberOfBytes": "32",
        "value": "t_uint256"
      },
      "t_mapping(t_uint48,t_struct(Info)11495_storage)": {
        "encoding": "mapping",
        "key": "t_uint48",
        "label": "mapping(uint48 => struct LiquidityPosition.Info)",
        "numberOfBytes": "32",
        "value": "t_struct(Info)11495_storage"
      },
      "t_struct(Collateral)8727_storage": {
        "encoding": "inplace",
        "label": "struct IClearingHouseStructures.Collateral",
        "members": [
          {
            "astId": 8723,
            "contract": "contracts/protocol/clearinghouse/ClearingHouse.sol:ClearingHouse",
            "label": "token",
            "offset": 0,
            "slot": "0",
            "type": "t_contract(IERC20)3369"
          },
          {
            "astId": 8726,
            "contract": "contracts/protocol/clearinghouse/ClearingHouse.sol:ClearingHouse",
            "label": "settings",
            "offset": 0,
            "slot": "1",
            "type": "t_struct(CollateralSettings)8735_storage"
          }
        ],
        "numberOfBytes": "64"
      },
      "t_struct(CollateralSettings)8735_storage": {
        "encoding": "inplace",
        "label": "struct IClearingHouseStructures.CollateralSettings",
        "members": [
          {
            "astId": 8730,
            "contract": "contracts/protocol/clearinghouse/ClearingHouse.sol:ClearingHouse",
            "label": "oracle",
            "offset": 0,
            "slot": "0",
            "type": "t_contract(IOracle)8157"
          },
          {
            "astId": 8732,
            "contract": "contracts/protocol/clearinghouse/ClearingHouse.sol:ClearingHouse",
            "label": "twapDuration",
            "offset": 20,
            "slot": "0",
            "type": "t_uint32"
          },
          {
            "astId": 8734,
            "contract": "contracts/protocol/clearinghouse/ClearingHouse.sol:ClearingHouse",
            "label": "isAllowedForDeposit",
            "offset": 24,
            "slot": "0",
            "type": "t_bool"
          }
        ],
        "numberOfBytes": "32"
      },
      "t_struct(Info)11495_storage": {
        "encoding": "inplace",
        "label": "struct LiquidityPosition.Info",
        "members": [
          {
            "astId": 11474,
            "contract": "contracts/protocol/clearinghouse/ClearingHouse.sol:ClearingHouse",
            "label": "limitOrderType",
            "offset": 0,
            "slot": "0",
            "type": "t_enum(LimitOrderType)8587"
          },
          {
            "astId": 11476,
            "contract": "contracts/protocol/clearinghouse/ClearingHouse.sol:ClearingHouse",
            "label": "tickLower",
            "offset": 1,
            "slot": "0",
            "type": "t_int24"
          },
          {
            "astId": 11478,
            "contract": "contracts/protocol/clearinghouse/ClearingHouse.sol:ClearingHouse",
            "label": "tickUpper",
            "offset": 4,
            "slot": "0",
            "type": "t_int24"
          },
          {
            "astId": 11480,
            "contract": "contracts/protocol/clearinghouse/ClearingHouse.sol:ClearingHouse",
            "label": "liquidity",
            "offset": 7,
            "slot": "0",
            "type": "t_uint128"
          },
          {
            "astId": 11482,
            "contract": "contracts/protocol/clearinghouse/ClearingHouse.sol:ClearingHouse",
            "label": "vTokenAmountIn",
            "offset": 0,
            "slot": "1",
            "type": "t_int256"
          },
          {
            "astId": 11484,
            "contract": "contracts/protocol/clearinghouse/ClearingHouse.sol:ClearingHouse",
            "label": "sumALastX128",
            "offset": 0,
            "slot": "2",
            "type": "t_int256"
          },
          {
            "astId": 11486,
            "contract": "contracts/protocol/clearinghouse/ClearingHouse.sol:ClearingHouse",
            "label": "sumBInsideLastX128",
            "offset": 0,
            "slot": "3",
            "type": "t_int256"
          },
          {
            "astId": 11488,
            "contract": "contracts/protocol/clearinghouse/ClearingHouse.sol:ClearingHouse",
            "label": "sumFpInsideLastX128",
            "offset": 0,
            "slot": "4",
            "type": "t_int256"
          },
          {
            "astId": 11490,
            "contract": "contracts/protocol/clearinghouse/ClearingHouse.sol:ClearingHouse",
            "label": "sumFeeInsideLastX128",
            "offset": 0,
            "slot": "5",
            "type": "t_uint256"
          },
          {
            "astId": 11494,
            "contract": "contracts/protocol/clearinghouse/ClearingHouse.sol:ClearingHouse",
            "label": "_emptySlots",
            "offset": 0,
            "slot": "6",
            "type": "t_array(t_uint256)100_storage"
          }
        ],
        "numberOfBytes": "3392"
      },
      "t_struct(Info)13404_storage": {
        "encoding": "inplace",
        "label": "struct Protocol.Info",
        "members": [
          {
            "astId": 13379,
            "contract": "contracts/protocol/clearinghouse/ClearingHouse.sol:ClearingHouse",
            "label": "pools",
            "offset": 0,
            "slot": "0",
            "type": "t_mapping(t_uint32,t_struct(Pool)8813_storage)"
          },
          {
            "astId": 13384,
            "contract": "contracts/protocol/clearinghouse/ClearingHouse.sol:ClearingHouse",
            "label": "collaterals",
            "offset": 0,
            "slot": "1",
            "type": "t_mapping(t_uint32,t_struct(Collateral)8727_storage)"
          },
          {
            "astId": 13387,
            "contract": "contracts/protocol/clearinghouse/ClearingHouse.sol:ClearingHouse",
            "label": "settlementToken",
            "offset": 0,
            "slot": "2",
            "type": "t_contract(IERC20)3369"
          },
          {
            "astId": 13390,
            "contract": "contracts/protocol/clearinghouse/ClearingHouse.sol:ClearingHouse",
            "label": "vQuote",
            "offset": 0,
            "slot": "3",
            "type": "t_contract(IVQuote)8386"
          },
          {
            "astId": 13393,
            "contract": "contracts/protocol/clearinghouse/ClearingHouse.sol:ClearingHouse",
            "label": "liquidationParams",
            "offset": 0,
            "slot": "4",
            "type": "t_struct(LiquidationParams)8794_storage"
          },
          {
            "astId": 13395,
            "contract": "contracts/protocol/clearinghouse/ClearingHouse.sol:ClearingHouse",
            "label": "minRequiredMargin",
            "offset": 0,
            "slot": "5",
            "type": "t_uint256"
          },
          {
            "astId": 13397,
            "contract": "contracts/protocol/clearinghouse/ClearingHouse.sol:ClearingHouse",
            "label": "removeLimitOrderFee",
            "offset": 0,
            "slot": "6",
            "type": "t_uint256"
          },
          {
            "astId": 13399,
            "contract": "contracts/protocol/clearinghouse/ClearingHouse.sol:ClearingHouse",
            "label": "minimumOrderNotional",
            "offset": 0,
            "slot": "7",
            "type": "t_uint256"
          },
          {
            "astId": 13403,
            "contract": "contracts/protocol/clearinghouse/ClearingHouse.sol:ClearingHouse",
            "label": "_emptySlots",
            "offset": 0,
            "slot": "8",
            "type": "t_array(t_uint256)100_storage"
          }
        ],
        "numberOfBytes": "3456"
      },
      "t_struct(Info)16766_storage": {
        "encoding": "inplace",
        "label": "struct VTokenPosition.Info",
        "members": [
          {
            "astId": 16754,
            "contract": "contracts/protocol/clearinghouse/ClearingHouse.sol:ClearingHouse",
            "label": "balance",
            "offset": 0,
            "slot": "0",
            "type": "t_int256"
          },
          {
            "astId": 16756,
            "contract": "contracts/protocol/clearinghouse/ClearingHouse.sol:ClearingHouse",
            "label": "netTraderPosition",
            "offset": 0,
            "slot": "1",
            "type": "t_int256"
          },
          {
            "astId": 16758,
            "contract": "contracts/protocol/clearinghouse/ClearingHouse.sol:ClearingHouse",
            "label": "sumALastX128",
            "offset": 0,
            "slot": "2",
            "type": "t_int256"
          },
          {
            "astId": 16761,
            "contract": "contracts/protocol/clearinghouse/ClearingHouse.sol:ClearingHouse",
            "label": "liquidityPositions",
            "offset": 0,
            "slot": "3",
            "type": "t_struct(Set)11471_storage"
          },
          {
            "astId": 16765,
            "contract": "contracts/protocol/clearinghouse/ClearingHouse.sol:ClearingHouse",
            "label": "_emptySlots",
            "offset": 0,
            "slot": "105",
            "type": "t_array(t_uint256)100_storage"
          }
        ],
        "numberOfBytes": "6560"
      },
      "t_struct(Info)9104_storage": {
        "encoding": "inplace",
        "label": "struct Account.Info",
        "members": [
          {
            "astId": 9091,
            "contract": "contracts/protocol/clearinghouse/ClearingHouse.sol:ClearingHouse",
            "label": "id",
            "offset": 0,
            "slot": "0",
            "type": "t_uint96"
          },
          {
            "astId": 9093,
            "contract": "contracts/protocol/clearinghouse/ClearingHouse.sol:ClearingHouse",
            "label": "owner",
            "offset": 12,
            "slot": "0",
            "type": "t_address"
          },
          {
            "astId": 9096,
            "contract": "contracts/protocol/clearinghouse/ClearingHouse.sol:ClearingHouse",
            "label": "tokenPositions",
            "offset": 0,
            "slot": "1",
            "type": "t_struct(Set)16752_storage"
          },
          {
            "astId": 9099,
            "contract": "contracts/protocol/clearinghouse/ClearingHouse.sol:ClearingHouse",
            "label": "collateralDeposits",
            "offset": 0,
            "slot": "104",
            "type": "t_struct(Set)10778_storage"
          },
          {
            "astId": 9103,
            "contract": "contracts/protocol/clearinghouse/ClearingHouse.sol:ClearingHouse",
            "label": "_emptySlots",
            "offset": 0,
            "slot": "206",
            "type": "t_array(t_uint256)100_storage"
          }
        ],
        "numberOfBytes": "9792"
      },
      "t_struct(LiquidationParams)8794_storage": {
        "encoding": "inplace",
        "label": "struct IClearingHouseStructures.LiquidationParams",
        "members": [
          {
            "astId": 8779,
            "contract": "contracts/protocol/clearinghouse/ClearingHouse.sol:ClearingHouse",
            "label": "rangeLiquidationFeeFraction",
            "offset": 0,
            "slot": "0",
            "type": "t_uint16"
          },
          {
            "astId": 8781,
            "contract": "contracts/protocol/clearinghouse/ClearingHouse.sol:ClearingHouse",
            "label": "tokenLiquidationFeeFraction",
            "offset": 2,
            "slot": "0",
            "type": "t_uint16"
          },
          {
            "astId": 8783,
            "contract": "contracts/protocol/clearinghouse/ClearingHouse.sol:ClearingHouse",
            "label": "closeFactorMMThresholdBps",
            "offset": 4,
            "slot": "0",
            "type": "t_uint16"
          },
          {
            "astId": 8785,
            "contract": "contracts/protocol/clearinghouse/ClearingHouse.sol:ClearingHouse",
            "label": "partialLiquidationCloseFactorBps",
            "offset": 6,
            "slot": "0",
            "type": "t_uint16"
          },
          {
            "astId": 8787,
            "contract": "contracts/protocol/clearinghouse/ClearingHouse.sol:ClearingHouse",
            "label": "insuranceFundFeeShareBps",
            "offset": 8,
            "slot": "0",
            "type": "t_uint16"
          },
          {
            "astId": 8789,
            "contract": "contracts/protocol/clearinghouse/ClearingHouse.sol:ClearingHouse",
            "label": "liquidationSlippageSqrtToleranceBps",
            "offset": 10,
            "slot": "0",
            "type": "t_uint16"
          },
          {
            "astId": 8791,
            "contract": "contracts/protocol/clearinghouse/ClearingHouse.sol:ClearingHouse",
            "label": "maxRangeLiquidationFees",
            "offset": 12,
            "slot": "0",
            "type": "t_uint64"
          },
          {
            "astId": 8793,
            "contract": "contracts/protocol/clearinghouse/ClearingHouse.sol:ClearingHouse",
            "label": "minNotionalLiquidatable",
            "offset": 20,
            "slot": "0",
            "type": "t_uint64"
          }
        ],
        "numberOfBytes": "32"
      },
      "t_struct(Pool)8813_storage": {
        "encoding": "inplace",
        "label": "struct IClearingHouseStructures.Pool",
        "members": [
          {
            "astId": 8803,
            "contract": "contracts/protocol/clearinghouse/ClearingHouse.sol:ClearingHouse",
            "label": "vToken",
            "offset": 0,
            "slot": "0",
            "type": "t_contract(IVToken)8410"
          },
          {
            "astId": 8806,
            "contract": "contracts/protocol/clearinghouse/ClearingHouse.sol:ClearingHouse",
            "label": "vPool",
            "offset": 0,
            "slot": "1",
            "type": "t_contract(IUniswapV3Pool)5364"
          },
          {
            "astId": 8809,
            "contract": "contracts/protocol/clearinghouse/ClearingHouse.sol:ClearingHouse",
            "label": "vPoolWrapper",
            "offset": 0,
            "slot": "2",
            "type": "t_contract(IVPoolWrapper)8362"
          },
          {
            "astId": 8812,
            "contract": "contracts/protocol/clearinghouse/ClearingHouse.sol:ClearingHouse",
            "label": "settings",
            "offset": 0,
            "slot": "3",
            "type": "t_struct(PoolSettings)8829_storage"
          }
        ],
        "numberOfBytes": "128"
      },
      "t_struct(PoolSettings)8829_storage": {
        "encoding": "inplace",
        "label": "struct IClearingHouseStructures.PoolSettings",
        "members": [
          {
            "astId": 8815,
            "contract": "contracts/protocol/clearinghouse/ClearingHouse.sol:ClearingHouse",
            "label": "initialMarginRatioBps",
            "offset": 0,
            "slot": "0",
            "type": "t_uint16"
          },
          {
            "astId": 8817,
            "contract": "contracts/protocol/clearinghouse/ClearingHouse.sol:ClearingHouse",
            "label": "maintainanceMarginRatioBps",
            "offset": 2,
            "slot": "0",
            "type": "t_uint16"
          },
          {
            "astId": 8819,
            "contract": "contracts/protocol/clearinghouse/ClearingHouse.sol:ClearingHouse",
            "label": "maxVirtualPriceDeviationRatioBps",
            "offset": 4,
            "slot": "0",
            "type": "t_uint16"
          },
          {
            "astId": 8821,
            "contract": "contracts/protocol/clearinghouse/ClearingHouse.sol:ClearingHouse",
            "label": "twapDuration",
            "offset": 6,
            "slot": "0",
            "type": "t_uint32"
          },
          {
            "astId": 8823,
            "contract": "contracts/protocol/clearinghouse/ClearingHouse.sol:ClearingHouse",
            "label": "isAllowedForTrade",
            "offset": 10,
            "slot": "0",
            "type": "t_bool"
          },
          {
            "astId": 8825,
            "contract": "contracts/protocol/clearinghouse/ClearingHouse.sol:ClearingHouse",
            "label": "isCrossMargined",
            "offset": 11,
            "slot": "0",
            "type": "t_bool"
          },
          {
            "astId": 8828,
            "contract": "contracts/protocol/clearinghouse/ClearingHouse.sol:ClearingHouse",
            "label": "oracle",
            "offset": 12,
            "slot": "0",
            "type": "t_contract(IOracle)8157"
          }
        ],
        "numberOfBytes": "32"
      },
      "t_struct(Set)10778_storage": {
        "encoding": "inplace",
        "label": "struct CollateralDeposit.Set",
        "members": [
          {
            "astId": 10769,
            "contract": "contracts/protocol/clearinghouse/ClearingHouse.sol:ClearingHouse",
            "label": "active",
            "offset": 0,
            "slot": "0",
            "type": "t_array(t_uint32)8_storage"
          },
          {
            "astId": 10773,
            "contract": "contracts/protocol/clearinghouse/ClearingHouse.sol:ClearingHouse",
            "label": "deposits",
            "offset": 0,
            "slot": "1",
            "type": "t_mapping(t_uint32,t_uint256)"
          },
          {
            "astId": 10777,
            "contract": "contracts/protocol/clearinghouse/ClearingHouse.sol:ClearingHouse",
            "label": "_emptySlots",
            "offset": 0,
            "slot": "2",
            "type": "t_array(t_uint256)100_storage"
          }
        ],
        "numberOfBytes": "3264"
      },
      "t_struct(Set)11471_storage": {
        "encoding": "inplace",
        "label": "struct LiquidityPosition.Set",
        "members": [
          {
            "astId": 11461,
            "contract": "contracts/protocol/clearinghouse/ClearingHouse.sol:ClearingHouse",
            "label": "active",
            "offset": 0,
            "slot": "0",
            "type": "t_array(t_uint48)5_storage"
          },
          {
            "astId": 11466,
            "contract": "contracts/protocol/clearinghouse/ClearingHouse.sol:ClearingHouse",
            "label": "positions",
            "offset": 0,
            "slot": "1",
            "type": "t_mapping(t_uint48,t_struct(Info)11495_storage)"
          },
          {
            "astId": 11470,
            "contract": "contracts/protocol/clearinghouse/ClearingHouse.sol:ClearingHouse",
            "label": "_emptySlots",
            "offset": 0,
            "slot": "2",
            "type": "t_array(t_uint256)100_storage"
          }
        ],
        "numberOfBytes": "3264"
      },
      "t_struct(Set)16752_storage": {
        "encoding": "inplace",
        "label": "struct VTokenPosition.Set",
        "members": [
          {
            "astId": 16740,
            "contract": "contracts/protocol/clearinghouse/ClearingHouse.sol:ClearingHouse",
            "label": "active",
            "offset": 0,
            "slot": "0",
            "type": "t_array(t_uint32)8_storage"
          },
          {
            "astId": 16745,
            "contract": "contracts/protocol/clearinghouse/ClearingHouse.sol:ClearingHouse",
            "label": "positions",
            "offset": 0,
            "slot": "1",
            "type": "t_mapping(t_uint32,t_struct(Info)16766_storage)"
          },
          {
            "astId": 16747,
            "contract": "contracts/protocol/clearinghouse/ClearingHouse.sol:ClearingHouse",
            "label": "vQuoteBalance",
            "offset": 0,
            "slot": "2",
            "type": "t_int256"
          },
          {
            "astId": 16751,
            "contract": "contracts/protocol/clearinghouse/ClearingHouse.sol:ClearingHouse",
            "label": "_emptySlots",
            "offset": 0,
            "slot": "3",
            "type": "t_array(t_uint256)100_storage"
          }
        ],
        "numberOfBytes": "3296"
      },
      "t_uint128": {
        "encoding": "inplace",
        "label": "uint128",
        "numberOfBytes": "16"
      },
      "t_uint16": {
        "encoding": "inplace",
        "label": "uint16",
        "numberOfBytes": "2"
      },
      "t_uint256": {
        "encoding": "inplace",
        "label": "uint256",
        "numberOfBytes": "32"
      },
      "t_uint32": {
        "encoding": "inplace",
        "label": "uint32",
        "numberOfBytes": "4"
      },
      "t_uint48": {
        "encoding": "inplace",
        "label": "uint48",
        "numberOfBytes": "6"
      },
      "t_uint64": {
        "encoding": "inplace",
        "label": "uint64",
        "numberOfBytes": "8"
      },
      "t_uint96": {
        "encoding": "inplace",
        "label": "uint96",
        "numberOfBytes": "12"
      }
    }
  }
}