{
  "address": "0xd5B92177aC41E4dC6B5b8454ce19794Bc8E598AC",
  "abi": [
    {
      "inputs": [
        {
          "internalType": "address",
          "name": "senderAddress",
          "type": "address"
        }
      ],
      "name": "AccessDenied",
      "type": "error"
    },
    {
      "inputs": [
        {
          "internalType": "uint256",
          "name": "length",
          "type": "uint256"
        },
        {
          "internalType": "uint256",
          "name": "limit",
          "type": "uint256"
        }
      ],
      "name": "CalldataLengthExceeded",
      "type": "error"
    },
    {
      "inputs": [
        {
          "internalType": "uint32",
          "name": "collateralId",
          "type": "uint32"
        }
      ],
      "name": "CollateralDoesNotExist",
      "type": "error"
    },
    {
      "inputs": [
        {
          "internalType": "uint32",
          "name": "collateralId",
          "type": "uint32"
        }
      ],
      "name": "CollateralNotAllowedForUse",
      "type": "error"
    },
    {
      "inputs": [
        {
          "internalType": "uint256",
          "name": "gasUsedClaim",
          "type": "uint256"
        },
        {
          "internalType": "uint256",
          "name": "gasUsedActual",
          "type": "uint256"
        }
      ],
      "name": "ExcessGasUsedClaim",
      "type": "error"
    },
    {
      "inputs": [
        {
          "internalType": "uint256",
          "name": "txGasPrice",
          "type": "uint256"
        },
        {
          "internalType": "uint256",
          "name": "limit",
          "type": "uint256"
        }
      ],
      "name": "ExcessTxGasPrice",
      "type": "error"
    },
    {
      "inputs": [
        {
          "internalType": "uint160",
          "name": "sqrtPriceX96",
          "type": "uint160"
        }
      ],
      "name": "IllegalSqrtPrice",
      "type": "error"
    },
    {
      "inputs": [
        {
          "internalType": "contract IERC20",
          "name": "incorrectAddress",
          "type": "address"
        },
        {
          "internalType": "contract IERC20",
          "name": "correctAddress",
          "type": "address"
        }
      ],
      "name": "IncorrectCollateralAddress",
      "type": "error"
    },
    {
      "inputs": [
        {
          "internalType": "address",
          "name": "invalidAddress",
          "type": "address"
        }
      ],
      "name": "InvalidCollateralAddress",
      "type": "error"
    },
    {
      "inputs": [
        {
          "internalType": "enum IClearingHouseEnums.MulticallOperationType",
          "name": "multicallOperationType",
          "type": "uint8"
        }
      ],
      "name": "InvalidMulticallOperationType",
      "type": "error"
    },
    {
      "inputs": [],
      "name": "InvalidTokenLiquidationParameters",
      "type": "error"
    },
    {
      "inputs": [
        {
          "internalType": "int256",
          "name": "keeperFee",
          "type": "int256"
        }
      ],
      "name": "KeeperFeeNotPositive",
      "type": "error"
    },
    {
      "inputs": [
        {
          "internalType": "uint256",
          "name": "notionalValue",
          "type": "uint256"
        }
      ],
      "name": "LowNotionalValue",
      "type": "error"
    },
    {
      "inputs": [],
      "name": "NotRageTradeFactory",
      "type": "error"
    },
    {
      "inputs": [
        {
          "internalType": "uint32",
          "name": "poolId",
          "type": "uint32"
        }
      ],
      "name": "PoolDoesNotExist",
      "type": "error"
    },
    {
      "inputs": [
        {
          "internalType": "uint32",
          "name": "poolId",
          "type": "uint32"
        }
      ],
      "name": "PoolNotAllowedForTrade",
      "type": "error"
    },
    {
      "inputs": [],
      "name": "SlippageBeyondTolerance",
      "type": "error"
    },
    {
      "inputs": [],
      "name": "T",
      "type": "error"
    },
    {
      "inputs": [
        {
          "internalType": "uint32",
          "name": "period",
          "type": "uint32"
        }
      ],
      "name": "UV3PH_IllegalTwapDuration",
      "type": "error"
    },
    {
      "inputs": [],
      "name": "Unauthorised",
      "type": "error"
    },
    {
      "inputs": [],
      "name": "ZeroAddress",
      "type": "error"
    },
    {
      "inputs": [],
      "name": "ZeroAmount",
      "type": "error"
    },
    {
      "anonymous": false,
      "inputs": [
        {
          "indexed": true,
          "internalType": "address",
          "name": "ownerAddress",
          "type": "address"
        },
        {
          "indexed": false,
          "internalType": "uint256",
          "name": "accountId",
          "type": "uint256"
        }
      ],
      "name": "AccountCreated",
      "type": "event"
    },
    {
      "anonymous": false,
      "inputs": [
        {
          "indexed": false,
          "internalType": "contract IERC20",
          "name": "cToken",
          "type": "address"
        },
        {
          "components": [
            {
              "internalType": "contract IOracle",
              "name": "oracle",
              "type": "address"
            },
            {
              "internalType": "uint32",
              "name": "twapDuration",
              "type": "uint32"
            },
            {
              "internalType": "bool",
              "name": "isAllowedForDeposit",
              "type": "bool"
            }
          ],
          "indexed": false,
          "internalType": "struct IClearingHouseStructures.CollateralSettings",
          "name": "cTokenInfo",
          "type": "tuple"
        }
      ],
      "name": "CollateralSettingsUpdated",
      "type": "event"
    },
    {
      "anonymous": false,
      "inputs": [
        {
          "indexed": true,
          "internalType": "address",
          "name": "previousGovernance",
          "type": "address"
        },
        {
          "indexed": true,
          "internalType": "address",
          "name": "newGovernance",
          "type": "address"
        }
      ],
      "name": "GovernanceTransferred",
      "type": "event"
    },
    {
      "anonymous": false,
      "inputs": [
        {
          "indexed": true,
          "internalType": "uint256",
          "name": "accountId",
          "type": "uint256"
        },
        {
          "indexed": true,
          "internalType": "uint32",
          "name": "collateralId",
          "type": "uint32"
        },
        {
          "indexed": false,
          "internalType": "uint256",
          "name": "amount",
          "type": "uint256"
        }
      ],
      "name": "MarginAdded",
      "type": "event"
    },
    {
      "anonymous": false,
      "inputs": [
        {
          "indexed": true,
          "internalType": "uint256",
          "name": "accountId",
          "type": "uint256"
        },
        {
          "indexed": true,
          "internalType": "uint32",
          "name": "collateralId",
          "type": "uint32"
        },
        {
          "indexed": false,
          "internalType": "uint256",
          "name": "amount",
          "type": "uint256"
        }
      ],
      "name": "MarginRemoved",
      "type": "event"
    },
    {
      "anonymous": false,
      "inputs": [
        {
          "indexed": false,
          "internalType": "address",
          "name": "account",
          "type": "address"
        }
      ],
      "name": "Paused",
      "type": "event"
    },
    {
      "anonymous": false,
      "inputs": [
        {
          "indexed": false,
          "internalType": "bool",
          "name": "paused",
          "type": "bool"
        }
      ],
      "name": "PausedUpdated",
      "type": "event"
    },
    {
      "anonymous": false,
      "inputs": [
        {
          "indexed": false,
          "internalType": "uint32",
          "name": "poolId",
          "type": "uint32"
        },
        {
          "components": [
            {
              "internalType": "uint16",
              "name": "initialMarginRatio",
              "type": "uint16"
            },
            {
              "internalType": "uint16",
              "name": "maintainanceMarginRatio",
              "type": "uint16"
            },
            {
              "internalType": "uint32",
              "name": "twapDuration",
              "type": "uint32"
            },
            {
              "internalType": "bool",
              "name": "isAllowedForTrade",
              "type": "bool"
            },
            {
              "internalType": "bool",
              "name": "isCrossMargined",
              "type": "bool"
            },
            {
              "internalType": "contract IOracle",
              "name": "oracle",
              "type": "address"
            }
          ],
          "indexed": false,
          "internalType": "struct IClearingHouseStructures.PoolSettings",
          "name": "settings",
          "type": "tuple"
        }
      ],
      "name": "PoolSettingsUpdated",
      "type": "event"
    },
    {
      "anonymous": false,
      "inputs": [
        {
          "components": [
            {
              "internalType": "uint16",
              "name": "liquidationFeeFraction",
              "type": "uint16"
            },
            {
              "internalType": "uint16",
              "name": "tokenLiquidationPriceDeltaBps",
              "type": "uint16"
            },
            {
              "internalType": "uint16",
              "name": "insuranceFundFeeShareBps",
              "type": "uint16"
            },
            {
              "internalType": "uint128",
              "name": "maxRangeLiquidationFees",
              "type": "uint128"
            }
          ],
          "indexed": false,
          "internalType": "struct IClearingHouseStructures.LiquidationParams",
          "name": "liquidationParams",
          "type": "tuple"
        },
        {
          "indexed": false,
          "internalType": "uint256",
          "name": "removeLimitOrderFee",
          "type": "uint256"
        },
        {
          "indexed": false,
          "internalType": "uint256",
          "name": "minimumOrderNotional",
          "type": "uint256"
        },
        {
          "indexed": false,
          "internalType": "uint256",
          "name": "minRequiredMargin",
          "type": "uint256"
        }
      ],
      "name": "ProtocolSettingsUpdated",
      "type": "event"
    },
    {
      "anonymous": false,
      "inputs": [
        {
          "indexed": true,
          "internalType": "address",
          "name": "previousTeamMultisig",
          "type": "address"
        },
        {
          "indexed": true,
          "internalType": "address",
          "name": "newTeamMultisig",
          "type": "address"
        }
      ],
      "name": "TeamMultisigTransferred",
      "type": "event"
    },
    {
      "anonymous": false,
      "inputs": [
        {
          "indexed": false,
          "internalType": "address",
          "name": "account",
          "type": "address"
        }
      ],
      "name": "Unpaused",
      "type": "event"
    },
    {
      "inputs": [
        {
          "internalType": "address",
          "name": "_rageTradeFactoryAddress",
          "type": "address"
        },
        {
          "internalType": "contract IERC20",
          "name": "_defaultCollateralToken",
          "type": "address"
        },
        {
          "internalType": "contract IOracle",
          "name": "_defaultCollateralTokenOracle",
          "type": "address"
        },
        {
          "internalType": "contract IInsuranceFund",
          "name": "_insuranceFund",
          "type": "address"
        },
        {
          "internalType": "contract IVQuote",
          "name": "_vQuote",
          "type": "address"
        },
        {
          "internalType": "contract IOracle",
          "name": "_nativeOracle",
          "type": "address"
        }
      ],
      "name": "__initialize_ClearingHouse",
      "outputs": [],
      "stateMutability": "nonpayable",
      "type": "function"
    },
    {
      "inputs": [
        {
          "internalType": "uint256",
          "name": "accountId",
          "type": "uint256"
        },
        {
          "internalType": "uint32",
          "name": "collateralId",
          "type": "uint32"
        },
        {
          "internalType": "uint256",
          "name": "amount",
          "type": "uint256"
        }
      ],
      "name": "addMargin",
      "outputs": [],
      "stateMutability": "nonpayable",
      "type": "function"
    },
    {
      "inputs": [],
      "name": "createAccount",
      "outputs": [
        {
          "internalType": "uint256",
          "name": "newAccountId",
          "type": "uint256"
        }
      ],
      "stateMutability": "nonpayable",
      "type": "function"
    },
    {
      "inputs": [
        {
          "internalType": "uint32",
          "name": "poolId",
          "type": "uint32"
        },
        {
          "internalType": "uint256",
          "name": "amount",
          "type": "uint256"
        }
      ],
      "name": "createAccountAndAddMargin",
      "outputs": [
        {
          "internalType": "uint256",
          "name": "newAccountId",
          "type": "uint256"
        }
      ],
      "stateMutability": "nonpayable",
      "type": "function"
    },
    {
      "inputs": [
        {
          "internalType": "bytes32",
          "name": "slot",
          "type": "bytes32"
        }
      ],
      "name": "extsload",
      "outputs": [
        {
          "internalType": "bytes32",
          "name": "val",
          "type": "bytes32"
        }
      ],
      "stateMutability": "view",
      "type": "function"
    },
    {
      "inputs": [
        {
          "internalType": "bytes32[]",
          "name": "slots",
          "type": "bytes32[]"
        }
      ],
      "name": "extsload",
      "outputs": [
        {
          "internalType": "bytes32[]",
          "name": "",
          "type": "bytes32[]"
        }
      ],
      "stateMutability": "view",
      "type": "function"
    },
    {
      "inputs": [
        {
          "internalType": "uint256",
          "name": "accountId",
          "type": "uint256"
        }
      ],
      "name": "getAccountInfo",
      "outputs": [
        {
          "internalType": "address",
          "name": "owner",
          "type": "address"
        },
        {
          "internalType": "int256",
          "name": "vQuoteBalance",
          "type": "int256"
        },
        {
          "components": [
            {
              "internalType": "contract IERC20",
              "name": "collateral",
              "type": "address"
            },
            {
              "internalType": "uint256",
              "name": "balance",
              "type": "uint256"
            }
          ],
          "internalType": "struct IClearingHouseStructures.CollateralDepositView[]",
          "name": "collateralDeposits",
          "type": "tuple[]"
        },
        {
          "components": [
            {
              "internalType": "contract IVToken",
              "name": "vToken",
              "type": "address"
            },
            {
              "internalType": "int256",
              "name": "balance",
              "type": "int256"
            },
            {
              "internalType": "int256",
              "name": "netTraderPosition",
              "type": "int256"
            },
            {
              "internalType": "int256",
              "name": "sumAX128Chkpt",
              "type": "int256"
            },
            {
              "components": [
                {
                  "internalType": "enum IClearingHouseEnums.LimitOrderType",
                  "name": "limitOrderType",
                  "type": "uint8"
                },
                {
                  "internalType": "int24",
                  "name": "tickLower",
                  "type": "int24"
                },
                {
                  "internalType": "int24",
                  "name": "tickUpper",
                  "type": "int24"
                },
                {
                  "internalType": "uint128",
                  "name": "liquidity",
                  "type": "uint128"
                },
                {
                  "internalType": "int256",
                  "name": "vTokenAmountIn",
                  "type": "int256"
                },
                {
                  "internalType": "int256",
                  "name": "sumALastX128",
                  "type": "int256"
                },
                {
                  "internalType": "int256",
                  "name": "sumBInsideLastX128",
                  "type": "int256"
                },
                {
                  "internalType": "int256",
                  "name": "sumFpInsideLastX128",
                  "type": "int256"
                },
                {
                  "internalType": "uint256",
                  "name": "sumFeeInsideLastX128",
                  "type": "uint256"
                }
              ],
              "internalType": "struct IClearingHouseStructures.LiquidityPositionView[]",
              "name": "liquidityPositions",
              "type": "tuple[]"
            }
          ],
          "internalType": "struct IClearingHouseStructures.VTokenPositionView[]",
          "name": "tokenPositions",
          "type": "tuple[]"
        }
      ],
      "stateMutability": "view",
      "type": "function"
    },
    {
      "inputs": [
        {
          "internalType": "uint256",
          "name": "accountId",
          "type": "uint256"
        },
        {
          "internalType": "bool",
          "name": "isInitialMargin",
          "type": "bool"
        }
      ],
      "name": "getAccountMarketValueAndRequiredMargin",
      "outputs": [
        {
          "internalType": "int256",
          "name": "marketValue",
          "type": "int256"
        },
        {
          "internalType": "int256",
          "name": "requiredMargin",
          "type": "int256"
        }
      ],
      "stateMutability": "view",
      "type": "function"
    },
    {
      "inputs": [
        {
          "internalType": "uint256",
          "name": "accountId",
          "type": "uint256"
        }
      ],
      "name": "getAccountNetProfit",
      "outputs": [
        {
          "internalType": "int256",
          "name": "accountNetProfit",
          "type": "int256"
        }
      ],
      "stateMutability": "view",
      "type": "function"
    },
    {
      "inputs": [
        {
          "internalType": "uint32",
          "name": "collateralId",
          "type": "uint32"
        }
      ],
      "name": "getCollateralInfo",
      "outputs": [
        {
          "components": [
            {
              "internalType": "contract IERC20",
              "name": "token",
              "type": "address"
            },
            {
              "components": [
                {
                  "internalType": "contract IOracle",
                  "name": "oracle",
                  "type": "address"
                },
                {
                  "internalType": "uint32",
                  "name": "twapDuration",
                  "type": "uint32"
                },
                {
                  "internalType": "bool",
                  "name": "isAllowedForDeposit",
                  "type": "bool"
                }
              ],
              "internalType": "struct IClearingHouseStructures.CollateralSettings",
              "name": "settings",
              "type": "tuple"
            }
          ],
          "internalType": "struct IClearingHouseStructures.Collateral",
          "name": "",
          "type": "tuple"
        }
      ],
      "stateMutability": "view",
      "type": "function"
    },
    {
      "inputs": [
        {
          "internalType": "uint256",
          "name": "accountId",
          "type": "uint256"
        },
        {
          "internalType": "uint32",
          "name": "poolId",
          "type": "uint32"
        }
      ],
      "name": "getNetTokenPosition",
      "outputs": [
        {
          "internalType": "int256",
          "name": "netPosition",
          "type": "int256"
        }
      ],
      "stateMutability": "view",
      "type": "function"
    },
    {
      "inputs": [
        {
          "internalType": "uint32",
          "name": "poolId",
          "type": "uint32"
        }
      ],
      "name": "getPoolInfo",
      "outputs": [
        {
          "components": [
            {
              "internalType": "contract IVToken",
              "name": "vToken",
              "type": "address"
            },
            {
              "internalType": "contract IUniswapV3Pool",
              "name": "vPool",
              "type": "address"
            },
            {
              "internalType": "contract IVPoolWrapper",
              "name": "vPoolWrapper",
              "type": "address"
            },
            {
              "components": [
                {
                  "internalType": "uint16",
                  "name": "initialMarginRatio",
                  "type": "uint16"
                },
                {
                  "internalType": "uint16",
                  "name": "maintainanceMarginRatio",
                  "type": "uint16"
                },
                {
                  "internalType": "uint32",
                  "name": "twapDuration",
                  "type": "uint32"
                },
                {
                  "internalType": "bool",
                  "name": "isAllowedForTrade",
                  "type": "bool"
                },
                {
                  "internalType": "bool",
                  "name": "isCrossMargined",
                  "type": "bool"
                },
                {
                  "internalType": "contract IOracle",
                  "name": "oracle",
                  "type": "address"
                }
              ],
              "internalType": "struct IClearingHouseStructures.PoolSettings",
              "name": "settings",
              "type": "tuple"
            }
          ],
          "internalType": "struct IClearingHouseStructures.Pool",
          "name": "",
          "type": "tuple"
        }
      ],
      "stateMutability": "view",
      "type": "function"
    },
    {
      "inputs": [
        {
          "internalType": "uint32",
          "name": "poolId",
          "type": "uint32"
        }
      ],
      "name": "getTwapPrices",
      "outputs": [
        {
          "internalType": "uint256",
          "name": "realPriceX128",
          "type": "uint256"
        },
        {
          "internalType": "uint256",
          "name": "virtualPriceX128",
          "type": "uint256"
        }
      ],
      "stateMutability": "view",
      "type": "function"
    },
    {
      "inputs": [],
      "name": "governance",
      "outputs": [
        {
          "internalType": "address",
          "name": "",
          "type": "address"
        }
      ],
      "stateMutability": "view",
      "type": "function"
    },
    {
      "inputs": [],
      "name": "insuranceFund",
      "outputs": [
        {
          "internalType": "contract IInsuranceFund",
          "name": "",
          "type": "address"
        }
      ],
      "stateMutability": "view",
      "type": "function"
    },
    {
      "inputs": [
        {
          "internalType": "uint32",
          "name": "poolId",
          "type": "uint32"
        }
      ],
      "name": "isPoolIdAvailable",
      "outputs": [
        {
          "internalType": "bool",
          "name": "",
          "type": "bool"
        }
      ],
      "stateMutability": "view",
      "type": "function"
    },
    {
      "inputs": [
        {
          "internalType": "uint256",
          "name": "accountId",
          "type": "uint256"
        }
      ],
      "name": "liquidateLiquidityPositions",
      "outputs": [],
      "stateMutability": "nonpayable",
      "type": "function"
    },
    {
      "inputs": [
        {
          "internalType": "uint256",
          "name": "accountId",
          "type": "uint256"
        },
        {
          "internalType": "uint256",
          "name": "gasComputationUnitsClaim",
          "type": "uint256"
        }
      ],
      "name": "liquidateLiquidityPositionsWithGasClaim",
      "outputs": [
        {
          "internalType": "int256",
          "name": "keeperFee",
          "type": "int256"
        }
      ],
      "stateMutability": "nonpayable",
      "type": "function"
    },
    {
      "inputs": [
        {
          "internalType": "uint256",
          "name": "liquidatorAccountId",
          "type": "uint256"
        },
        {
          "internalType": "uint256",
          "name": "targetAccountId",
          "type": "uint256"
        },
        {
          "internalType": "uint32",
          "name": "poolId",
          "type": "uint32"
        },
        {
          "internalType": "uint16",
          "name": "liquidationBps",
          "type": "uint16"
        }
      ],
      "name": "liquidateTokenPosition",
      "outputs": [
        {
          "components": [
            {
              "internalType": "int256",
              "name": "vQuoteIncrease",
              "type": "int256"
            },
            {
              "internalType": "int256",
              "name": "vTokenIncrease",
              "type": "int256"
            },
            {
              "internalType": "int256",
              "name": "traderPositionIncrease",
              "type": "int256"
            }
          ],
          "internalType": "struct IClearingHouseStructures.BalanceAdjustments",
          "name": "liquidatorBalanceAdjustments",
          "type": "tuple"
        }
      ],
      "stateMutability": "nonpayable",
      "type": "function"
    },
    {
      "inputs": [
        {
          "internalType": "uint256",
          "name": "liquidatorAccountId",
          "type": "uint256"
        },
        {
          "internalType": "uint256",
          "name": "targetAccountId",
          "type": "uint256"
        },
        {
          "internalType": "uint32",
          "name": "poolId",
          "type": "uint32"
        },
        {
          "internalType": "uint16",
          "name": "liquidationBps",
          "type": "uint16"
        },
        {
          "internalType": "uint256",
          "name": "gasComputationUnitsClaim",
          "type": "uint256"
        }
      ],
      "name": "liquidateTokenPositionWithGasClaim",
      "outputs": [
        {
          "components": [
            {
              "internalType": "int256",
              "name": "vQuoteIncrease",
              "type": "int256"
            },
            {
              "internalType": "int256",
              "name": "vTokenIncrease",
              "type": "int256"
            },
            {
              "internalType": "int256",
              "name": "traderPositionIncrease",
              "type": "int256"
            }
          ],
          "internalType": "struct IClearingHouseStructures.BalanceAdjustments",
          "name": "liquidatorBalanceAdjustments",
          "type": "tuple"
        }
      ],
      "stateMutability": "nonpayable",
      "type": "function"
    },
    {
      "inputs": [
        {
          "internalType": "bytes[]",
          "name": "data",
          "type": "bytes[]"
        }
      ],
      "name": "multicall",
      "outputs": [
        {
          "internalType": "bytes[]",
          "name": "results",
          "type": "bytes[]"
        }
      ],
      "stateMutability": "payable",
      "type": "function"
    },
    {
      "inputs": [
        {
          "internalType": "uint256",
          "name": "accountId",
          "type": "uint256"
        },
        {
          "components": [
            {
              "internalType": "enum IClearingHouseEnums.MulticallOperationType",
              "name": "operationType",
              "type": "uint8"
            },
            {
              "internalType": "bytes",
              "name": "data",
              "type": "bytes"
            }
          ],
          "internalType": "struct IClearingHouseStructures.MulticallOperation[]",
          "name": "operations",
          "type": "tuple[]"
        }
      ],
      "name": "multicallWithSingleMarginCheck",
      "outputs": [
        {
          "internalType": "bytes[]",
          "name": "results",
          "type": "bytes[]"
        }
      ],
      "stateMutability": "nonpayable",
      "type": "function"
    },
    {
      "inputs": [],
      "name": "nativeOracle",
      "outputs": [
        {
          "internalType": "contract IOracle",
          "name": "",
          "type": "address"
        }
      ],
      "stateMutability": "view",
      "type": "function"
    },
    {
      "inputs": [],
      "name": "numAccounts",
      "outputs": [
        {
          "internalType": "uint256",
          "name": "",
          "type": "uint256"
        }
      ],
      "stateMutability": "view",
      "type": "function"
    },
    {
      "inputs": [],
      "name": "pause",
      "outputs": [],
      "stateMutability": "nonpayable",
      "type": "function"
    },
    {
      "inputs": [],
      "name": "paused",
      "outputs": [
        {
          "internalType": "bool",
          "name": "",
          "type": "bool"
        }
      ],
      "stateMutability": "view",
      "type": "function"
    },
    {
      "inputs": [],
      "name": "protocolInfo",
      "outputs": [
        {
          "internalType": "contract IVQuote",
          "name": "vQuote",
          "type": "address"
        },
        {
          "components": [
            {
              "internalType": "uint16",
              "name": "liquidationFeeFraction",
              "type": "uint16"
            },
            {
              "internalType": "uint16",
              "name": "tokenLiquidationPriceDeltaBps",
              "type": "uint16"
            },
            {
              "internalType": "uint16",
              "name": "insuranceFundFeeShareBps",
              "type": "uint16"
            },
            {
              "internalType": "uint128",
              "name": "maxRangeLiquidationFees",
              "type": "uint128"
            }
          ],
          "internalType": "struct IClearingHouseStructures.LiquidationParams",
          "name": "liquidationParams",
          "type": "tuple"
        },
        {
          "internalType": "uint256",
          "name": "minRequiredMargin",
          "type": "uint256"
        },
        {
          "internalType": "uint256",
          "name": "removeLimitOrderFee",
          "type": "uint256"
        },
        {
          "internalType": "uint256",
          "name": "minimumOrderNotional",
          "type": "uint256"
        }
      ],
      "stateMutability": "view",
      "type": "function"
    },
    {
      "inputs": [],
      "name": "rageTradeFactoryAddress",
      "outputs": [
        {
          "internalType": "address",
          "name": "",
          "type": "address"
        }
      ],
      "stateMutability": "view",
      "type": "function"
    },
    {
      "inputs": [
        {
          "components": [
            {
              "internalType": "contract IVToken",
              "name": "vToken",
              "type": "address"
            },
            {
              "internalType": "contract IUniswapV3Pool",
              "name": "vPool",
              "type": "address"
            },
            {
              "internalType": "contract IVPoolWrapper",
              "name": "vPoolWrapper",
              "type": "address"
            },
            {
              "components": [
                {
                  "internalType": "uint16",
                  "name": "initialMarginRatio",
                  "type": "uint16"
                },
                {
                  "internalType": "uint16",
                  "name": "maintainanceMarginRatio",
                  "type": "uint16"
                },
                {
                  "internalType": "uint32",
                  "name": "twapDuration",
                  "type": "uint32"
                },
                {
                  "internalType": "bool",
                  "name": "isAllowedForTrade",
                  "type": "bool"
                },
                {
                  "internalType": "bool",
                  "name": "isCrossMargined",
                  "type": "bool"
                },
                {
                  "internalType": "contract IOracle",
                  "name": "oracle",
                  "type": "address"
                }
              ],
              "internalType": "struct IClearingHouseStructures.PoolSettings",
              "name": "settings",
              "type": "tuple"
            }
          ],
          "internalType": "struct IClearingHouseStructures.Pool",
          "name": "poolInfo",
          "type": "tuple"
        }
      ],
      "name": "registerPool",
      "outputs": [],
      "stateMutability": "nonpayable",
      "type": "function"
    },
    {
      "inputs": [
        {
          "internalType": "uint256",
          "name": "accountId",
          "type": "uint256"
        },
        {
          "internalType": "uint32",
          "name": "poolId",
          "type": "uint32"
        },
        {
          "internalType": "int24",
          "name": "tickLower",
          "type": "int24"
        },
        {
          "internalType": "int24",
          "name": "tickUpper",
          "type": "int24"
        }
      ],
      "name": "removeLimitOrder",
      "outputs": [],
      "stateMutability": "nonpayable",
      "type": "function"
    },
    {
      "inputs": [
        {
          "internalType": "uint256",
          "name": "accountId",
          "type": "uint256"
        },
        {
          "internalType": "uint32",
          "name": "poolId",
          "type": "uint32"
        },
        {
          "internalType": "int24",
          "name": "tickLower",
          "type": "int24"
        },
        {
          "internalType": "int24",
          "name": "tickUpper",
          "type": "int24"
        },
        {
          "internalType": "uint256",
          "name": "gasComputationUnitsClaim",
          "type": "uint256"
        }
      ],
      "name": "removeLimitOrderWithGasClaim",
      "outputs": [
        {
          "internalType": "uint256",
          "name": "keeperFee",
          "type": "uint256"
        }
      ],
      "stateMutability": "nonpayable",
      "type": "function"
    },
    {
      "inputs": [
        {
          "internalType": "uint256",
          "name": "accountId",
          "type": "uint256"
        },
        {
          "internalType": "uint32",
          "name": "collateralId",
          "type": "uint32"
        },
        {
          "internalType": "uint256",
          "name": "amount",
          "type": "uint256"
        }
      ],
      "name": "removeMargin",
      "outputs": [],
      "stateMutability": "nonpayable",
      "type": "function"
    },
    {
      "inputs": [
        {
          "internalType": "uint256",
          "name": "_txGasPriceLimit",
          "type": "uint256"
        }
      ],
      "name": "setTxGasPriceLimit",
      "outputs": [],
      "stateMutability": "nonpayable",
      "type": "function"
    },
    {
      "inputs": [
        {
          "internalType": "uint256",
          "name": "accountId",
          "type": "uint256"
        },
        {
          "internalType": "uint32",
          "name": "poolId",
          "type": "uint32"
        },
        {
          "components": [
            {
              "internalType": "int256",
              "name": "amount",
              "type": "int256"
            },
            {
              "internalType": "uint160",
              "name": "sqrtPriceLimit",
              "type": "uint160"
            },
            {
              "internalType": "bool",
              "name": "isNotional",
              "type": "bool"
            },
            {
              "internalType": "bool",
              "name": "isPartialAllowed",
              "type": "bool"
            }
          ],
          "internalType": "struct IClearingHouseStructures.SwapParams",
          "name": "swapParams",
          "type": "tuple"
        }
      ],
      "name": "swapToken",
      "outputs": [
        {
          "internalType": "int256",
          "name": "vTokenAmountOut",
          "type": "int256"
        },
        {
          "internalType": "int256",
          "name": "vQuoteAmountOut",
          "type": "int256"
        }
      ],
      "stateMutability": "nonpayable",
      "type": "function"
    },
    {
      "inputs": [],
      "name": "teamMultisig",
      "outputs": [
        {
          "internalType": "address",
          "name": "",
          "type": "address"
        }
      ],
      "stateMutability": "view",
      "type": "function"
    },
    {
      "inputs": [
        {
          "internalType": "address",
          "name": "newGovernance",
          "type": "address"
        }
      ],
      "name": "transferGovernance",
      "outputs": [],
      "stateMutability": "nonpayable",
      "type": "function"
    },
    {
      "inputs": [
        {
          "internalType": "address",
          "name": "newTeamMultisig",
          "type": "address"
        }
      ],
      "name": "transferTeamMultisig",
      "outputs": [],
      "stateMutability": "nonpayable",
      "type": "function"
    },
    {
      "inputs": [],
      "name": "txGasPriceLimit",
      "outputs": [
        {
          "internalType": "uint256",
          "name": "",
          "type": "uint256"
        }
      ],
      "stateMutability": "view",
      "type": "function"
    },
    {
      "inputs": [],
      "name": "unpause",
      "outputs": [],
      "stateMutability": "nonpayable",
      "type": "function"
    },
    {
      "inputs": [
        {
          "internalType": "contract IERC20",
          "name": "cToken",
          "type": "address"
        },
        {
          "components": [
            {
              "internalType": "contract IOracle",
              "name": "oracle",
              "type": "address"
            },
            {
              "internalType": "uint32",
              "name": "twapDuration",
              "type": "uint32"
            },
            {
              "internalType": "bool",
              "name": "isAllowedForDeposit",
              "type": "bool"
            }
          ],
          "internalType": "struct IClearingHouseStructures.CollateralSettings",
          "name": "collateralSettings",
          "type": "tuple"
        }
      ],
      "name": "updateCollateralSettings",
      "outputs": [],
      "stateMutability": "nonpayable",
      "type": "function"
    },
    {
      "inputs": [
        {
          "internalType": "uint32",
          "name": "poolId",
          "type": "uint32"
        },
        {
          "components": [
            {
              "internalType": "uint16",
              "name": "initialMarginRatio",
              "type": "uint16"
            },
            {
              "internalType": "uint16",
              "name": "maintainanceMarginRatio",
              "type": "uint16"
            },
            {
              "internalType": "uint32",
              "name": "twapDuration",
              "type": "uint32"
            },
            {
              "internalType": "bool",
              "name": "isAllowedForTrade",
              "type": "bool"
            },
            {
              "internalType": "bool",
              "name": "isCrossMargined",
              "type": "bool"
            },
            {
              "internalType": "contract IOracle",
              "name": "oracle",
              "type": "address"
            }
          ],
          "internalType": "struct IClearingHouseStructures.PoolSettings",
          "name": "newSettings",
          "type": "tuple"
        }
      ],
      "name": "updatePoolSettings",
      "outputs": [],
      "stateMutability": "nonpayable",
      "type": "function"
    },
    {
      "inputs": [
        {
          "internalType": "uint256",
          "name": "accountId",
          "type": "uint256"
        },
        {
          "internalType": "int256",
          "name": "amount",
          "type": "int256"
        }
      ],
      "name": "updateProfit",
      "outputs": [],
      "stateMutability": "nonpayable",
      "type": "function"
    },
    {
      "inputs": [
        {
          "components": [
            {
              "internalType": "uint16",
              "name": "liquidationFeeFraction",
              "type": "uint16"
            },
            {
              "internalType": "uint16",
              "name": "tokenLiquidationPriceDeltaBps",
              "type": "uint16"
            },
            {
              "internalType": "uint16",
              "name": "insuranceFundFeeShareBps",
              "type": "uint16"
            },
            {
              "internalType": "uint128",
              "name": "maxRangeLiquidationFees",
              "type": "uint128"
            }
          ],
          "internalType": "struct IClearingHouseStructures.LiquidationParams",
          "name": "_liquidationParams",
          "type": "tuple"
        },
        {
          "internalType": "uint256",
          "name": "_removeLimitOrderFee",
          "type": "uint256"
        },
        {
          "internalType": "uint256",
          "name": "_minimumOrderNotional",
          "type": "uint256"
        },
        {
          "internalType": "uint256",
          "name": "_minRequiredMargin",
          "type": "uint256"
        }
      ],
      "name": "updateProtocolSettings",
      "outputs": [],
      "stateMutability": "nonpayable",
      "type": "function"
    },
    {
      "inputs": [
        {
          "internalType": "uint256",
          "name": "accountId",
          "type": "uint256"
        },
        {
          "internalType": "uint32",
          "name": "poolId",
          "type": "uint32"
        },
        {
          "components": [
            {
              "internalType": "int24",
              "name": "tickLower",
              "type": "int24"
            },
            {
              "internalType": "int24",
              "name": "tickUpper",
              "type": "int24"
            },
            {
              "internalType": "int128",
              "name": "liquidityDelta",
              "type": "int128"
            },
            {
              "internalType": "uint160",
              "name": "sqrtPriceCurrent",
              "type": "uint160"
            },
            {
              "internalType": "uint16",
              "name": "slippageToleranceBps",
              "type": "uint16"
            },
            {
              "internalType": "bool",
              "name": "closeTokenPosition",
              "type": "bool"
            },
            {
              "internalType": "enum IClearingHouseEnums.LimitOrderType",
              "name": "limitOrderType",
              "type": "uint8"
            }
          ],
          "internalType": "struct IClearingHouseStructures.LiquidityChangeParams",
          "name": "liquidityChangeParams",
          "type": "tuple"
        }
      ],
      "name": "updateRangeOrder",
      "outputs": [
        {
          "internalType": "int256",
          "name": "vTokenAmountOut",
          "type": "int256"
        },
        {
          "internalType": "int256",
          "name": "vQuoteAmountOut",
          "type": "int256"
        }
      ],
      "stateMutability": "nonpayable",
      "type": "function"
    },
    {
      "inputs": [
        {
          "internalType": "address[]",
          "name": "wrapperAddresses",
          "type": "address[]"
        }
      ],
      "name": "withdrawProtocolFee",
      "outputs": [],
      "stateMutability": "nonpayable",
      "type": "function"
    }
  ],
  "transactionHash": "0x5321ad298ce503cf7afcab3bf56e86ed151ede42209ef9617d4a9cd37cc0b628",
  "args": [],
  "numDeployments": 1,
  "solcInputHash": "97c2ac41bdbb1817cc5efce63d1431e3",
  "bytecode": "0x60806040523480156200001157600080fd5b506200001c62000022565b620002e3565b61013954610100900460ff1662000041576101395460ff16156200004b565b6200004b620000f7565b620000a35760405162461bcd60e51b815260206004820152602e60248201526000805160206200618383398151915260448201526d191e481a5b9a5d1a585b1a5e995960921b60648201526084015b60405180910390fd5b61013954610100900460ff16158015620000c857610139805461ffff19166101011790555b620000d262000115565b33620000df818062000185565b508015620000f457610139805461ff00191690555b50565b60006200010f30620002d460201b620022d41760201c565b15905090565b61013954610100900460ff16620001835760405162461bcd60e51b815260206004820152602b60248201527f496e697469616c697a61626c653a20636f6e7472616374206973206e6f74206960448201526a6e697469616c697a696e6760a81b60648201526084016200009a565b565b61013954610100900460ff16620001a4576101395460ff1615620001ae565b620001ae620000f7565b620002025760405162461bcd60e51b815260206004820152602e60248201526000805160206200618383398151915260448201526d191e481a5b9a5d1a585b1a5e995960921b60648201526084016200009a565b61013954610100900460ff161580156200022757610139805461ffff19166101011790555b61019e80546001600160a01b0319166001600160a01b0385169081179091556040516000907f5f56bee8cffbe9a78652a74a60705edede02af10b0bbb888ca44b79a0d42ce80908290a361019f80546001600160a01b0319166001600160a01b0384169081179091556040516000907f39355f2f5c8206286978f443aa8126bbd29fa09c53c04569502647f3a59c8cb2908290a38015620002cf57610139805461ff00191690555b505050565b6001600160a01b03163b151590565b615e9080620002f36000396000f3fe6080604052600436106102725760003560e01c80637f64d6631161014f578063b7902303116100c1578063e1f167131161007a578063e1f1671314610a27578063e3d41c1814610a47578063e450f6f414610a67578063e67ed1df14610a87578063ee6cd5ee14610aa7578063fe6f083a14610ac757600080fd5b8063b79023031461094e578063bc38d5421461096e578063d38bfff41461099b578063da047996146109bb578063dbc0c085146109db578063dbd035ff146109fa57600080fd5b806393420cf41161011357806393420cf41461063657806394c8c71d1461073d5780639cd1be581461075d5780639dca362f1461077d578063ac9650d814610792578063b670ed52146107a557600080fd5b80637f64d6631461058957806384088b65146105a95780638456cb59146105eb578063847e07a6146106005780638ce25a931461062057600080fd5b80633d56a35e116101e857806349fbd58d116101ac57806349fbd58d146104d1578063569634d3146104f15780635aa6e675146105115780635c975abb146105305780637cc2f4f5146105495780637ec6ba311461056957600080fd5b80633d56a35e1461041f5780633f4ba83a1461043f57806340c4f69b1461045457806342be9fca14610481578063440ab745146104a157600080fd5b80632afaea371161023a5780632afaea371461033a57806332a72d981461035a578063393590291461038f5780633a64c245146103af5780633b561afc146103cf5780633d0aea3d146103ff57600080fd5b806302860bac14610277578063127fec13146102995780631a1feae1146102d65780631e2eaeaf146102fb5780631f84fa981461031a575b600080fd5b34801561028357600080fd5b506102976102923660046141ba565b610ae7565b005b3480156102a557600080fd5b5060d4546102b9906001600160a01b031681565b6040516001600160a01b0390911681526020015b60405180910390f35b3480156102e257600080fd5b506102ed6101a05481565b6040519081526020016102cd565b34801561030757600080fd5b506102ed6103163660046141fc565b5490565b34801561032657600080fd5b50610297610335366004614227565b610b8f565b34801561034657600080fd5b50610297610355366004614268565b610c39565b34801561036657600080fd5b5061037a61037536600461444f565b610c85565b604080519283526020830191909152016102cd565b34801561039b57600080fd5b506102976103aa366004614268565b610cd9565b3480156103bb57600080fd5b506102976103ca36600461448e565b610d18565b3480156103db57600080fd5b506103ef6103ea3660046141fc565b610df2565b6040516102cd94939291906144cb565b34801561040b57600080fd5b5061029761041a366004614658565b610e96565b34801561042b57600080fd5b5060d2546102b9906001600160a01b031681565b34801561044b57600080fd5b50610297610eea565b34801561046057600080fd5b5061047461046f366004614720565b610f3a565b6040516102cd91906147c3565b34801561048d57600080fd5b506102ed61049c366004614825565b611680565b3480156104ad57600080fd5b506104c16104bc366004614847565b611727565b60405190151581526020016102cd565b3480156104dd57600080fd5b506102976104ec366004614864565b611755565b3480156104fd57600080fd5b5061029761050c3660046141fc565b61185c565b34801561051d57600080fd5b5061019e546001600160a01b03166102b9565b34801561053c57600080fd5b5061016c5460ff166104c1565b34801561055557600080fd5b506102976105643660046148f5565b611867565b34801561057557600080fd5b506102976105843660046141fc565b61187c565b34801561059557600080fd5b506102976105a4366004614948565b6118c8565b3480156105b557600080fd5b506105c96105c4366004614980565b611993565b60408051825181526020808401519082015291810151908201526060016102cd565b3480156105f757600080fd5b506102976119e2565b34801561060c57600080fd5b506102ed61061b3660046149bf565b611a30565b34801561062c57600080fd5b506102ed60d05481565b34801561064257600080fd5b506106d7604080516080810182526000808252602082018190529181018290526060810182905250506067546040805160808101825260685461ffff8082168352620100008204811660208401526401000000008204169282019290925266010000000000009091046001600160801b03166060820152606954606a54606b546001600160a01b039094169492939192909190565b604080516001600160a01b039096168652845161ffff9081166020808901919091528601518116878301529085015116606080870191909152909301516001600160801b0316608085015260a084019190915260c083015260e0820152610100016102cd565b34801561074957600080fd5b506105c96107583660046149ef565b611ac6565b34801561076957600080fd5b50610297610778366004614825565b611bc0565b34801561078957600080fd5b506102ed611c02565b6104746107a0366004614a41565b611cb5565b3480156107b157600080fd5b506108c56107c0366004614847565b604080516080808201835260008083526020808401829052838501829052845160c08082018752838252818301849052818701849052606080830185905282860185905260a08084018690529681019290925263ffffffff978816845260648352928690208651808601885281546001600160a01b039081168252600183015481168286015260028301548116828a01528851958601895260039092015461ffff8082168752620100008204169486019490945264010000000084049098169684019690965260ff600160401b830481161515848301526901000000000000000000830416151593830193909352600160501b90049093169183019190915282015290565b6040805182516001600160a01b03908116825260208085015182168184015284840151821683850152606094850151805161ffff90811687860152918101519091166080808501919091529381015163ffffffff1660a08085019190915294810151151560c084015292830151151560e0830152919092015116610100820152610120016102cd565b34801561095a57600080fd5b5060d3546102b9906001600160a01b031681565b34801561097a57600080fd5b5061098e610989366004614847565b611e05565b6040516102cd9190614a82565b3480156109a757600080fd5b506102976109b6366004614948565b611ea4565b3480156109c757600080fd5b5061037a6109d6366004614847565b611f55565b3480156109e757600080fd5b5061019f546001600160a01b03166102b9565b348015610a0657600080fd5b50610a1a610a15366004614aee565b611f77565b6040516102cd9190614b78565b348015610a3357600080fd5b50610297610a42366004614a41565b611fa5565b348015610a5357600080fd5b506102ed610a623660046141fc565b6120f2565b348015610a7357600080fd5b506102ed610a82366004614bbc565b61217c565b348015610a9357600080fd5b5061037a610aa2366004614be8565b612193565b348015610ab357600080fd5b5061037a610ac2366004614c0d565b612231565b348015610ad357600080fd5b506102ed610ae2366004614c58565b612286565b61019f546001600160a01b03163314801590610b0f575061019e546001600160a01b03163314155b15610b2d57604051636bd1573560e11b815260040160405180910390fd5b836068610b3a8282614cb7565b5050606a839055606b82905560698190556040517f9b7ffeda0929d0ea3dfe5fb734043c56bf81827477ac95216f2b700fb921f03f90610b81908690869086908690614d74565b60405180910390a150505050565b61019f546001600160a01b03163314801590610bb7575061019e546001600160a01b03163314155b15610bd557604051636bd1573560e11b815260040160405180910390fd5b63ffffffff821660009081526064602052604090208190600301610bf98282614e46565b9050507ff924257f2f033f654a9c9dab9dc1725c901932a7187872fda504e76a9b6412de8282604051610c2d929190614f25565b60405180910390a15050565b61016c5460ff1615610c665760405162461bcd60e51b8152600401610c5d90614fc9565b60405180910390fd5b6000610c71846122e3565b9050610c7f84828585612329565b50505050565b600080610c9561016c5460ff1690565b15610cb25760405162461bcd60e51b8152600401610c5d90614fc9565b6000610cbd866122e3565b9050610ccc8186866001612432565b9250925050935093915050565b61016c5460ff1615610cfd5760405162461bcd60e51b8152600401610c5d90614fc9565b6000610d08846122e3565b9050610c7f8482858560016125fc565b60d2546001600160a01b03163314610d43576040516385734f3160e01b815260040160405180910390fd5b6000610d63610d556020840184614948565b6001600160a01b0316612714565b63ffffffff8116600090815260646020526040902054909150610d8e906001600160a01b0316612722565b610d9a57610d9a614ff3565b63ffffffff811660009081526064602052604090208290610dbb8282615029565b9050507ff924257f2f033f654a9c9dab9dc1725c901932a7187872fda504e76a9b6412de8183606001604051610c2d929190614f25565b600081815260d16020526040808220905163a0ba775760e01b815260048101919091526064602482015281906060908190735AEf32aDb9cffB40195E3846cB0c45e801B8fe2e9063a0ba775790604401600060405180830381865af4158015610e5f573d6000803e3d6000fd5b505050506040513d6000823e601f3d908101601f19168201604052610e879190810190615364565b93509350935093509193509193565b61019f546001600160a01b03163314801590610ebe575061019e546001600160a01b03163314155b15610edc57604051636bd1573560e11b815260040160405180910390fd5b610ee68282612734565b5050565b61019f546001600160a01b03163314801590610f12575061019e546001600160a01b03163314155b15610f3057604051636bd1573560e11b815260040160405180910390fd5b610f386128f8565b565b6060816001600160401b03811115610f5457610f546142a0565b604051908082528060200260200182016040528015610f8757816020015b6060815260200190600190039081610f725790505b5090506000610f95856122e3565b90506000805b84811015611593576000868683818110610fb757610fb761546a565b9050602002810190610fc99190615480565b610fd79060208101906154a0565b6007811115610fe857610fe86144a1565b1415611047576000808787848181106110035761100361546a565b90506020028101906110159190615480565b6110239060208101906154c1565b8101906110309190614bbc565b9150915061104089868484612329565b5050611581565b600186868381811061105b5761105b61546a565b905060200281019061106d9190615480565b61107b9060208101906154a0565b600781111561108c5761108c6144a1565b14156110e6576000808787848181106110a7576110a761546a565b90506020028101906110b99190615480565b6110c79060208101906154c1565b8101906110d49190614bbc565b915091506110408986848460006125fc565b60028686838181106110fa576110fa61546a565b905060200281019061110c9190615480565b61111a9060208101906154a0565b600781111561112b5761112b6144a1565b141561118a5760008686838181106111455761114561546a565b90506020028101906111579190615480565b6111659060208101906154c1565b81019061117291906141fc565b90506111808482600061298d565b6001925050611581565b600386868381811061119e5761119e61546a565b90506020028101906111b09190615480565b6111be9060208101906154a0565b60078111156111cf576111cf6144a1565b1415611279576000808787848181106111ea576111ea61546a565b90506020028101906111fc9190615480565b61120a9060208101906154c1565b8101906112179190615507565b9150915060008061122b8785856000612432565b604080516020810184905290810182905291935091506060016040516020818303038152906040528886815181106112655761126561546a565b602002602001018190525050505050611581565b600486868381811061128d5761128d61546a565b905060200281019061129f9190615480565b6112ad9060208101906154a0565b60078111156112be576112be6144a1565b141561131a576000808787848181106112d9576112d961546a565b90506020028101906112eb9190615480565b6112f99060208101906154c1565b81019061130691906155e8565b9150915060008061122b8785856000612ada565b600586868381811061132e5761132e61546a565b90506020028101906113409190615480565b61134e9060208101906154a0565b600781111561135f5761135f6144a1565b14156113c95760008060008089898681811061137d5761137d61546a565b905060200281019061138f9190615480565b61139d9060208101906154c1565b8101906113aa9190615616565b93509350935093506113bf8b85858585612be8565b5050505050611581565b60068686838181106113dd576113dd61546a565b90506020028101906113ef9190615480565b6113fd9060208101906154a0565b600781111561140e5761140e6144a1565b14156114255761141f876000612ced565b50611581565b60078686838181106114395761143961546a565b905060200281019061144b9190615480565b6114599060208101906154a0565b600781111561146a5761146a6144a1565b14156115355760008060008888858181106114875761148761546a565b90506020028101906114999190615480565b6114a79060208101906154c1565b8101906114b49190615667565b60008d815260d160205260408082208583529082209497509295509093506114e0929085908590612e5c565b6040805182516020808301919091528301518183015291015160608201526080016040516020818303038152906040528785815181106115225761152261546a565b6020026020010181905250505050611581565b8585828181106115475761154761546a565b90506020028101906115599190615480565b6115679060208101906154a0565b604051633164e52160e11b8152600401610c5d91906156a9565b8061158b816156d9565b915050610f9b565b5080156116055760405163651524ed60e01b81526004810183905260646024820152735AEf32aDb9cffB40195E3846cB0c45e801B8fe2e9063651524ed9060440160006040518083038186803b1580156115ec57600080fd5b505af4158015611600573d6000803e3d6000fd5b505050505b60405163998c533560e01b81526004810183905260016024820152606460448201819052735AEf32aDb9cffB40195E3846cB0c45e801B8fe2e9163998c5335910160006040518083038186803b15801561165e57600080fd5b505af4158015611672573d6000803e3d6000fd5b5050505050505b9392505050565b6000818015611709576000611693612fa0565b5a61169e91906156f4565b90506116aa6044613058565b6116b48585612ced565b925060006116c0612fa0565b5a6116cb91906156f4565b6116d5908361570c565b90508083111561170257604051634010928f60e01b81526004810184905260248101829052604401610c5d565b5050611720565b6117136044613058565b61171d8484612ced565b91505b5092915050565b63ffffffff811660009081526064602052604081205461174f906001600160a01b0316612722565b92915050565b61013954610100900460ff16611772576101395460ff1615611776565b303b155b6117925760405162461bcd60e51b8152600401610c5d90615723565b61013954610100900460ff161580156117b657610139805461ffff19166101011790555b60d280546001600160a01b03199081166001600160a01b038a81169190911790925560668054821689841617905560d38054821687841617905560d48054821685841617905560678054909116858316179055604080516060810182529187168252603c6020830152600190820152611830908790612734565b611838613085565b61184061310f565b801561185357610139805461ff00191690555b50505050505050565b610ee6816000612ced565b611875848484846000612be8565b5050505050565b61019f546001600160a01b031633148015906118a4575061019e546001600160a01b03163314155b156118c257604051636bd1573560e11b815260040160405180910390fd5b6101a055565b61019f546001600160a01b031633148015906118f0575061019e546001600160a01b03163314155b1561190e57604051636bd1573560e11b815260040160405180910390fd5b6001600160a01b0381166119355760405163d92e233d60e01b815260040160405180910390fd5b61019f546040516001600160a01b038084169216907f39355f2f5c8206286978f443aa8126bbd29fa09c53c04569502647f3a59c8cb290600090a361019f80546001600160a01b0319166001600160a01b0392909216919091179055565b6119b760405180606001604052806000815260200160008152602001600081525090565b600085815260d160205260408082208683529082206119d99286908690612e5c565b95945050505050565b61019f546001600160a01b03163314801590611a0a575061019e546001600160a01b03163314155b15611a2857604051636bd1573560e11b815260040160405180910390fd5b610f38613144565b600082815260d160205260408082209051637188a1ed60e01b8152600481019190915263ffffffff83166024820152606460448201819052735AEf32aDb9cffB40195E3846cB0c45e801B8fe2e91637188a1ed9101602060405180830381865af4158015611aa2573d6000803e3d6000fd5b505050506040513d601f19601f820116820180604052508101906116799190615771565b611aea60405180606001604052806000815260200160008152602001600081525090565b818015611b88576000611afb612fa0565b5a611b0691906156f4565b9050611b1260a4613058565b600088815260d160205260408082208983529120611b339190888888612e5c565b92506000611b3f612fa0565b5a611b4a91906156f4565b611b54908361570c565b905080831115611b8157604051634010928f60e01b81526004810184905260248101829052604401610c5d565b5050611bb6565b611b9260a4613058565b600087815260d160205260408082208883529120611bb39190878787612e5c565b91505b5095945050505050565b61016c5460ff1615611be45760405162461bcd60e51b8152600401610c5d90614fc9565b6000611bef836122e3565b9050611bfd8183600161298d565b505050565b6000611c1161016c5460ff1690565b15611c2e5760405162461bcd60e51b8152600401610c5d90614fc9565b5060d054611c3d8160016156f4565b60d055600081815260d160209081526040918290206bffffffffffffffffffffffff1933600160601b8102919091166bffffffffffffffffffffffff861617825592518481529092917f7325fb14450d3e5eb288c620b4ff1d6b43a41b33b4a4f143ae88cd4c12f99ea3910160405180910390a25090565b6060816001600160401b03811115611ccf57611ccf6142a0565b604051908082528060200260200182016040528015611d0257816020015b6060815260200190600190039081611ced5790505b50905060005b828110156117205760008030868685818110611d2657611d2661546a565b9050602002810190611d3891906154c1565b604051611d4692919061578a565b600060405180830381855af49150503d8060008114611d81576040519150601f19603f3d011682016040523d82523d6000602084013e611d86565b606091505b509150915081611dd257604481511015611d9f57600080fd5b60048101905080806020019051810190611db9919061579a565b60405162461bcd60e51b8152600401610c5d919061582d565b80848481518110611de557611de561546a565b602002602001018190525050508080611dfd906156d9565b915050611d08565b611e3860408051808201825260008082528251606081018452818152602081810183905293810191909152909182015290565b5063ffffffff9081166000908152606560209081526040918290208251808401845281546001600160a01b03908116825284516060810186526001909301549081168352600160a01b810490951682840152600160c01b90940460ff1615159281019290925282015290565b61019e546001600160a01b03163314611ed057604051636bd1573560e11b815260040160405180910390fd5b6001600160a01b038116611ef75760405163d92e233d60e01b815260040160405180910390fd5b61019e546040516001600160a01b038084169216907f5f56bee8cffbe9a78652a74a60705edede02af10b0bbb888ca44b79a0d42ce8090600090a361019e80546001600160a01b0319166001600160a01b0392909216919091179055565b600080611f6360648461319e565b9150611f70606484613234565b9050915091565b606060208251028201602001602083015b81811015611f9d578051548152602001611f88565b509192915050565b6000805b828110156120c8576000848483818110611fc557611fc561546a565b9050602002016020810190611fda9190614948565b6001600160a01b0316635e622abc6040518163ffffffff1660e01b81526004016020604051808303816000875af1158015612019573d6000803e3d6000fd5b505050506040513d601f19601f8201168201806040525081019061203d9190615771565b90508484838181106120515761205161546a565b90506020020160208101906120669190614948565b6001600160a01b03167fa087657e3d85162090ffd700fbfdf5070d816f63aa5da00063f6ffd369c8a6db826040516120a091815260200190565b60405180910390a26120b281846156f4565b92505080806120c0906156d9565b915050611fa9565b50611bfd6120df61019f546001600160a01b031690565b6066546001600160a01b03169083613251565b600081815260d16020526040808220905163625915c360e11b8152600481019190915260646024820152735AEf32aDb9cffB40195E3846cB0c45e801B8fe2e9063c4b22b8690604401602060405180830381865af4158015612158573d6000803e3d6000fd5b505050506040513d601f19601f8201168201806040525081019061174f9190615771565b6000612186611c02565b905061174f818484610c39565b600082815260d16020526040808220905163031b5fcd60e21b8152600481019190915282151560248201526064604482018190528291735AEf32aDb9cffB40195E3846cB0c45e801B8fe2e91630c6d7f3491016040805180830381865af4158015612202573d6000803e3d6000fd5b505050506040513d601f19601f820116820180604052508101906122269190615840565b909590945092505050565b60008061224161016c5460ff1690565b1561225e5760405162461bcd60e51b8152600401610c5d90614fc9565b6000612269866122e3565b9050610ccc818661227f36889003880188615864565b6001612ada565b60008180156122bd576000612299612fa0565b5a6122a491906156f4565b90506122b060a4613058565b611b338888888888612be8565b6122c760a4613058565b611bb38787878787612be8565b6001600160a01b03163b151590565b600081815260d1602052604090208054600160601b90046001600160a01b0316331461232457604051630504a20d60e01b8152336004820152602401610c5d565b919050565b61016c5460ff161561234d5760405162461bcd60e51b8152600401610c5d90614fc9565b600061235a8360006132b4565b8054909150612374906001600160a01b0316333085613343565b604051637ef9c64360e11b81526004810185905263ffffffff8416602482015260448101839052735AEf32aDb9cffB40195E3846cB0c45e801B8fe2e9063fdf38c869060640160006040518083038186803b1580156123d257600080fd5b505af41580156123e6573d6000803e3d6000fd5b505050508263ffffffff16857f8ad78786fd90bf16daca318ca19c5c1f8b0e4b6a666538a76d128092d48514c28460405161242391815260200190565b60405180910390a35050505050565b60008061244261016c5460ff1690565b1561245f5760405162461bcd60e51b8152600401610c5d90614fc9565b6124688561337b565b60408051630a067b0f60e11b81526004810188905263ffffffff871660248201528551604482015260208601516001600160a01b031660648083019190915291860151151560848201526060860151151560a482015260c481019190915283151560e4820152735AEf32aDb9cffB40195E3846cB0c45e801B8fe2e9063140cf61e90610104016040805180830381865af415801561250a573d6000803e3d6000fd5b505050506040513d601f19601f8201168201806040525081019061252e9190615840565b9092509050600061253e826133fe565b606b54909150811015612567576040516312b6b5cd60e11b815260048101829052602401610c5d565b60208501516001600160a01b03161580159061258557508460600151155b156125f257846040015180156125ac575084516125a1906133fe565b6125aa836133fe565b145b806125d5575084604001511580156125d5575084516125ca906133fe565b6125d3846133fe565b145b6125f2576040516307a1db0760e01b815260040160405180910390fd5b5094509492505050565b61016c5460ff16156126205760405162461bcd60e51b8152600401610c5d90614fc9565b600061262d8460016132b4565b6040516362b3b6bb60e11b81526004810187905263ffffffff86166024820152604481018590526064808201528315156084820152909150735AEf32aDb9cffB40195E3846cB0c45e801B8fe2e9063c5676d769060a40160006040518083038186803b15801561269c57600080fd5b505af41580156126b0573d6000803e3d6000fd5b505082546126cb92506001600160a01b031690503385613251565b8363ffffffff16867fe0c7ec5663c36969e5662da59bc1ede9566e08300e34eb2da7746d9f262c5d808560405161270491815260200190565b60405180910390a3505050505050565b600063ffffffff821661174f565b60006001600160a01b0382161561174f565b6000612748836001600160a01b0316612714565b905061275c836001600160a01b0316612722565b1561277d576040516376d8a93160e01b815260006004820152602401610c5d565b63ffffffff81166000908152606560205260409020546127a5906001600160a01b0316612722565b1580156127de575063ffffffff8082166000908152606560205260409020546127dc916001600160a01b0390911690859061341916565b155b156128275763ffffffff81166000908152606560205260409081902054905163a5d4d0b560e01b81526001600160a01b0380861660048301529091166024820152604401610c5d565b6040805180820182526001600160a01b038581168252602080830186815263ffffffff868116600090815260658452869020945185546001600160a01b03191690851617855590518051600190950180549382015191870151959094166001600160c01b031990931692909217600160a01b92909116919091021760ff60c01b1916600160c01b92151592909202919091179055517f52983c04d8ccd4808cd0fcb24e6e48106ecb41e803d6270c6c94a15e3ebd08d2906128eb9085908590615880565b60405180910390a1505050565b61016c5460ff166129425760405162461bcd60e51b815260206004820152601460248201527314185d5cd8589b194e881b9bdd081c185d5cd95960621b6044820152606401610c5d565b61016c805460ff191690557f5db9ee0a495bf2e6ff9c91a7834c1ba4fdd244a5e8aa4e537bd38aeae4b073aa335b6040516001600160a01b03909116815260200160405180910390a1565b61016c5460ff16156129b15760405162461bcd60e51b8152600401610c5d90614fc9565b816129cf57604051631f2a200560e01b815260040160405180910390fd5b60405163d25c4a6f60e01b8152600481018490526024810183905260646044820181905282151590820152735AEf32aDb9cffB40195E3846cB0c45e801B8fe2e9063d25c4a6f9060840160006040518083038186803b158015612a3157600080fd5b505af4158015612a45573d6000803e3d6000fd5b505050506000821315612a6f57606654612a6a906001600160a01b0316333085613343565b612a8f565b612a8f33612a7c846158c2565b6066546001600160a01b03169190613251565b82546040518381526bffffffffffffffffffffffff909116907f34e55ef9f5cf05f9a666ce27e7dcee31bb2a4e21eccaa3ea58a8358117b1547a9060200160405180910390a2505050565b600080612aea61016c5460ff1690565b15612b075760405162461bcd60e51b8152600401610c5d90614fc9565b612b108561337b565b60608401516001600160a01b031615612b3657612b36858560600151866080015161342f565b60405163c27789d160e01b8152600090735AEf32aDb9cffB40195E3846cB0c45e801B8fe2e9063c27789d190612b79908a908a908a906064908b906004016158df565b606060405180830381865af4158015612b96573d6000803e3d6000fd5b505050506040513d601f19601f82011682018060405250810190612bba9190615983565b606b5492955090935091508110156125f2576040516312b6b5cd60e11b815260048101829052602401610c5d565b6000612bf761016c5460ff1690565b15612c145760405162461bcd60e51b8152600401610c5d90614fc9565b600086815260d160205260409020612c2b8661337b565b612c34836134c1565b606a54612c4191906156f4565b604051637022478560e11b81526004810183905263ffffffff88166024820152600287810b604483015286900b6064808301919091526084820183905260a4820152909250735AEf32aDb9cffB40195E3846cB0c45e801B8fe2e9063e0448f0a9060c40160006040518083038186803b158015612cbd57600080fd5b505af4158015612cd1573d6000803e3d6000fd5b5050606654611bb692506001600160a01b031690503384613251565b6000612cfc61016c5460ff1690565b15612d195760405162461bcd60e51b8152600401610c5d90614fc9565b600083815260d16020526040812090735AEf32aDb9cffB40195E3846cB0c45e801B8fe2e6322e440c483612d4c876134c1565b6040516001600160e01b031960e085901b16815260048101929092526024820152606460448201819052016040805180830381865af4158015612d93573d6000803e3d6000fd5b505050506040513d601f19601f82011682018060405250810190612db79190615840565b90935090506000612dc882856159b1565b905060008413612dee5760405163ef37dcc760e01b815260048101859052602401610c5d565b606654612e05906001600160a01b03163386613251565b612e0e826135d8565b6040805182815260208101869052908101839052339087907fcfb6806c7e1accb0c7e5835aded9e714525c0588e5609d5ae1a3c8f6b68586a79060600160405180910390a350505092915050565b612e8060405180606001604052806000815260200160008152602001600081525090565b61016c5460ff1615612ea45760405162461bcd60e51b8152600401610c5d90614fc9565b6127108361ffff161115612ecb576040516348d69f3560e01b815260040160405180910390fd5b612ed48461337b565b6000735AEf32aDb9cffB40195E3846cB0c45e801B8fe2e632a2d44e587898789612efd896134c1565b6040516001600160e01b031960e088901b1681526004810195909552602485019390935261ffff909116604484015263ffffffff16606483810191909152608483019190915260a4820152600160c482015260e401608060405180830381865af4158015612f6f573d6000803e3d6000fd5b505050506040513d601f19601f82011682018060405250810190612f9391906159f2565b92509050611bb6816135d8565b60408051600481526024810182526020810180516001600160e01b031663a94597ff60e01b179052905160009182918291606491612fde9190615a4b565b600060405180830381855afa9150503d8060008114613019576040519150601f19603f3d011682016040523d82523d6000602084013e61301e565b606091505b509150915081158061302f57508051155b1561303d5760009250505090565b808060200190518101906130519190615771565b9250505090565b3681101561308257604051634219202560e01b815236600482015260248101829052604401610c5d565b50565b61013954610100900460ff166130a2576101395460ff16156130a6565b303b155b6130c25760405162461bcd60e51b8152600401610c5d90615723565b61013954610100900460ff161580156130e657610139805461ffff19166101011790555b6130ee613664565b336130f9818061368c565b50801561308257610139805461ff001916905550565b61013954610100900460ff166131375760405162461bcd60e51b8152600401610c5d90615a5d565b61016c805460ff19169055565b61016c5460ff16156131685760405162461bcd60e51b8152600401610c5d90614fc9565b61016c805460ff191660011790557f62e78cea01bee320cd4e420270b5ea74000d11b0c9f74754ebdbfc544b05a2586129703390565b63ffffffff8181166000908152602084905260408082206003810154915163dd86c10160e01b8152640100000000830490941660048501529192600160501b9091046001600160a01b03169063dd86c10190602401602060405180830381865afa158015613210573d6000803e3d6000fd5b505050506040513d601f19601f8201168201806040525081019061171d9190615771565b60006116796132438484613798565b6001600160a01b03166137dd565b6040516001600160a01b038316602482015260448101829052611bfd90849063a9059cbb60e01b906064015b60408051601f198184030181529190526020810180516001600160e01b03166001600160e01b03199093169290921790915261384a565b63ffffffff8216600090815260656020526040902080546132dd906001600160a01b0316612722565b1561330357604051636b9c1a9d60e01b815263ffffffff84166004820152602401610c5d565b8115801561331d57506001810154600160c01b900460ff16155b1561174f5760405163122a1f1960e31b815263ffffffff84166004820152602401610c5d565b6040516001600160a01b0380851660248301528316604482015260648101829052610c7f9085906323b872dd60e01b9060840161327d565b63ffffffff8116600090815260646020526040902080546133a4906001600160a01b0316612722565b156133ca5760405163b842f5a760e01b815263ffffffff83166004820152602401610c5d565b6003810154600160401b900460ff16610ee65760405163587ee90160e11b815263ffffffff83166004820152602401610c5d565b600080821361341557613410826158c2565b61174f565b5090565b60006001600160a01b0380841690831614611679565b600061343c60648561391c565b90506000836001600160a01b0316826001600160a01b031611613468576134638285615aa8565b613472565b6134728483615aa8565b90506127106134858561ffff8616615ad0565b61348f9190615b15565b6001600160a01b0316816001600160a01b03161115611875576040516307a1db0760e01b815260040160405180910390fd5b60003a6101a0548111156134f7576101a054604051638dfe587d60e01b8152610c5d918391600401918252602082015260400190565b82158061350d575060d4546001600160a01b0316155b1561351b57600091506135d2565b6000333214156135305761352d613947565b90505b600061353c3a86615b3b565b60d45460405163dd86c10160e01b815261012c60048201529192506000916001600160a01b039091169063dd86c10190602401602060405180830381865afa15801561358c573d6000803e3d6000fd5b505050506040513d601f19601f820116820180604052508101906135b09190615771565b90506135cc81600160801b6135c585876156f4565b9190613985565b94505050505b50919050565b60008113156135fe5760d354606654613082916001600160a01b03918216911683613251565b60d3546001600160a01b031663379607f5613618836158c2565b6040518263ffffffff1660e01b815260040161363691815260200190565b600060405180830381600087803b15801561365057600080fd5b505af1158015611875573d6000803e3d6000fd5b61013954610100900460ff16610f385760405162461bcd60e51b8152600401610c5d90615a5d565b61013954610100900460ff166136a9576101395460ff16156136ad565b303b155b6136c95760405162461bcd60e51b8152600401610c5d90615723565b61013954610100900460ff161580156136ed57610139805461ffff19166101011790555b61019e80546001600160a01b0319166001600160a01b0385169081179091556040516000907f5f56bee8cffbe9a78652a74a60705edede02af10b0bbb888ca44b79a0d42ce80908290a361019f80546001600160a01b0319166001600160a01b0384169081179091556040516000907f39355f2f5c8206286978f443aa8126bbd29fa09c53c04569502647f3a59c8cb2908290a38015611bfd57610139805461ff0019169055505050565b63ffffffff8082166000908152602084905260408120600381015460018201549293919261171d926001600160a01b03909116916401000000009004811690613a3816565b60006401000276a36001600160a01b0383161080613818575073fffd8963efd1fc6a506488495d951d5263988d266001600160a01b03831610155b1561384157604051635d236c4560e01b81526001600160a01b0383166004820152602401610c5d565b61174f82613a59565b600061389f826040518060400160405280602081526020017f5361666545524332303a206c6f772d6c6576656c2063616c6c206661696c6564815250856001600160a01b0316613a739092919063ffffffff16565b805190915015611bfd57808060200190518101906138bd9190615b5a565b611bfd5760405162461bcd60e51b815260206004820152602a60248201527f5361666545524332303a204552433230206f7065726174696f6e20646964206e6044820152691bdd081cdd58d8d9595960b21b6064820152608401610c5d565b63ffffffff8116600090815260208390526040812060010154611679906001600160a01b0316613a8a565b60408051600481526024810182526020810180516001600160e01b031663637bef0760e11b179052905160009182918291606491612fde9190615a4b565b6000808060001985870985870292508281108382030391505080600014156139bf57600084116139b457600080fd5b508290049050611679565b8084116139cb57600080fd5b6000848688096000868103871696879004966002600389028118808a02820302808a02820302808a02820302808a02820302808a02820302808a02909103029181900381900460010186841190950394909402919094039290920491909117919091029150509392505050565b600080613a4e6001600160a01b03851684613b14565b905061171d81613d30565b600061174f6001600160a01b03831680600160401b613985565b6060613a828484600085614050565b949350505050565b600080826001600160a01b0316633850c7bd6040518163ffffffff1660e01b815260040160e060405180830381865afa158015613acb573d6000803e3d6000fd5b505050506040513d601f19601f82011682018060405250810190613aef9190615b77565b509496509294505050506001600160a01b038316151590506135d25761167981613d30565b600063ffffffff8216613b3d57604051636eb711b760e11b815260006004820152602401610c5d565b6040805160028082526060820183526000926020830190803683370190505090508281600081518110613b7257613b7261546a565b602002602001019063ffffffff16908163ffffffff1681525050600081600181518110613ba157613ba161546a565b63ffffffff9092166020928302919091019091015260405163883bdbfd60e01b81526001600160a01b0385169063883bdbfd90613be2908490600401615c19565b600060405180830381865afa925050508015613c2057506040513d6000823e601f3d908101601f19168201604052613c1d9190810190615cbb565b60015b613c9557836001600160a01b0316633850c7bd6040518163ffffffff1660e01b815260040160e060405180830381865afa158015613c62573d6000803e3d6000fd5b505050506040513d601f19601f82011682018060405250810190613c869190615b77565b50939650611720945050505050565b600082600081518110613caa57613caa61546a565b602002602001015183600181518110613cc557613cc561546a565b6020026020010151613cd79190615d86565b90506000613ceb63ffffffff881683615dd6565b905060008260060b128015613d115750613d0b63ffffffff881683615e14565b60060b15155b15613d245780613d2081615e36565b9150505b945061174f9350505050565b60008060008360020b12613d47578260020b613d4f565b8260020b6000035b9050620d89e8811115613d75576040516315e4079d60e11b815260040160405180910390fd5b600060018216613d8957600160801b613d9b565b6ffffcb933bd6fad37aa2d162d1a5940015b70ffffffffffffffffffffffffffffffffff1690506002821615613dcf576ffff97272373d413259a46990580e213a0260801c5b6004821615613dee576ffff2e50f5f656932ef12357cf3c7fdcc0260801c5b6008821615613e0d576fffe5caca7e10e4e61c3624eaa0941cd00260801c5b6010821615613e2c576fffcb9843d60f6159c9db58835c9266440260801c5b6020821615613e4b576fff973b41fa98c081472e6896dfb254c00260801c5b6040821615613e6a576fff2ea16466c96a3843ec78b326b528610260801c5b6080821615613e89576ffe5dee046a99a2a811c461f1969c30530260801c5b610100821615613ea9576ffcbe86c7900a88aedcffc83b479aa3a40260801c5b610200821615613ec9576ff987a7253ac413176f2b074cf7815e540260801c5b610400821615613ee9576ff3392b0822b70005940c7a398e4b70f30260801c5b610800821615613f09576fe7159475a2c29b7443b29c7fa6e889d90260801c5b611000821615613f29576fd097f3bdfd2022b8845ad8f792aa58250260801c5b612000821615613f49576fa9f746462d870fdf8a65dc1f90e061e50260801c5b614000821615613f69576f70d869a156d2a1b890bb3df62baf32f70260801c5b618000821615613f89576f31be135f97d08fd981231505542fcfa60260801c5b62010000821615613faa576f09aa508b5b7a84e1c677de54f3e99bc90260801c5b62020000821615613fca576e5d6af8dedb81196699c329225ee6040260801c5b62040000821615613fe9576d2216e584f5fa1ea926041bedfe980260801c5b62080000821615614006576b048a170391f7dc42444e8fa20260801c5b60008460020b131561402757806000198161402357614023615aff565b0490505b64010000000081061561403b57600161403e565b60005b60ff16602082901c0192505050919050565b6060824710156140b15760405162461bcd60e51b815260206004820152602660248201527f416464726573733a20696e73756666696369656e742062616c616e636520666f6044820152651c8818d85b1b60d21b6064820152608401610c5d565b6001600160a01b0385163b6141085760405162461bcd60e51b815260206004820152601d60248201527f416464726573733a2063616c6c20746f206e6f6e2d636f6e74726163740000006044820152606401610c5d565b600080866001600160a01b031685876040516141249190615a4b565b60006040518083038185875af1925050503d8060008114614161576040519150601f19603f3d011682016040523d82523d6000602084013e614166565b606091505b5091509150614176828286614181565b979650505050505050565b60608315614190575081611679565b8251156141a05782518084602001fd5b8160405162461bcd60e51b8152600401610c5d919061582d565b60008060008084860360e08112156141d157600080fd5b60808112156141df57600080fd5b5093956080870135955060a0870135945060c08701359350915050565b60006020828403121561420e57600080fd5b5035919050565b63ffffffff8116811461308257600080fd5b60008082840360e081121561423b57600080fd5b833561424681614215565b925060c0601f198201121561425a57600080fd5b506020830190509250929050565b60008060006060848603121561427d57600080fd5b83359250602084013561428f81614215565b929592945050506040919091013590565b634e487b7160e01b600052604160045260246000fd5b604051606081016001600160401b03811182821017156142d8576142d86142a0565b60405290565b60405160a081016001600160401b03811182821017156142d8576142d86142a0565b60405161012081016001600160401b03811182821017156142d8576142d86142a0565b604080519081016001600160401b03811182821017156142d8576142d86142a0565b60405160e081016001600160401b03811182821017156142d8576142d86142a0565b604051601f8201601f191681016001600160401b038111828210171561438f5761438f6142a0565b604052919050565b6001600160a01b038116811461308257600080fd5b803561232481614397565b801515811461308257600080fd5b8035612324816143b7565b6000608082840312156143e257600080fd5b604051608081018181106001600160401b0382111715614404576144046142a0565b60405282358152905080602083013561441c81614397565b6020820152604083013561442f816143b7565b60408201526060830135614442816143b7565b6060919091015292915050565b600080600060c0848603121561446457600080fd5b83359250602084013561447681614215565b915061448585604086016143d0565b90509250925092565b600061012082840312156135d257600080fd5b634e487b7160e01b600052602160045260246000fd5b600381106144c7576144c76144a1565b9052565b6000608080830160018060a01b038089168552602088818701526040848188015283895180865260a089019150838b01955060005b81811015614527578651805187168452850151858401529584019591830191600101614500565b5050878103606089015288518082528382019550600581901b82018401848b0160005b8381101561464457848303601f19018952815180518916845287810151888501528681015187850152606080820151908501528a015160a08b850181905281519085018190529088019060009060c08601905b8083101561462f5783516145b28382516144b7565b8b8101518060020b8d850152508a81015160020b8b84015260608101516145e460608501826001600160801b03169052565b508e8101518f84015260a081015160a084015260c081015160c084015260e081015160e084015261010080820151818501525050610120820191508a8401935060018301925061459d565b509a89019a945050509086019060010161454a565b50909e9d5050505050505050505050505050565b600080828403608081121561466c57600080fd5b833561467781614397565b92506060601f198201121561468b57600080fd5b506146946142b6565b60208401356146a281614397565b815260408401356146b281614215565b602082015260608401356146c5816143b7565b6040820152919491935090915050565b60008083601f8401126146e757600080fd5b5081356001600160401b038111156146fe57600080fd5b6020830191508360208260051b850101111561471957600080fd5b9250929050565b60008060006040848603121561473557600080fd5b8335925060208401356001600160401b0381111561475257600080fd5b61475e868287016146d5565b9497909650939450505050565b60005b8381101561478657818101518382015260200161476e565b83811115610c7f5750506000910152565b600081518084526147af81602086016020860161476b565b601f01601f19169290920160200192915050565b6000602080830181845280855180835260408601915060408160051b870101925083870160005b8281101561481857603f19888603018452614806858351614797565b945092850192908501906001016147ea565b5092979650505050505050565b6000806040838503121561483857600080fd5b50508035926020909101359150565b60006020828403121561485957600080fd5b813561167981614215565b60008060008060008060c0878903121561487d57600080fd5b863561488881614397565b9550602087013561489881614397565b945060408701356148a881614397565b935060608701356148b881614397565b925060808701356148c881614397565b915060a08701356148d881614397565b809150509295509295509295565b8060020b811461308257600080fd5b6000806000806080858703121561490b57600080fd5b84359350602085013561491d81614215565b9250604085013561492d816148e6565b9150606085013561493d816148e6565b939692955090935050565b60006020828403121561495a57600080fd5b813561167981614397565b61ffff8116811461308257600080fd5b803561232481614965565b6000806000806080858703121561499657600080fd5b843593506020850135925060408501356149af81614215565b9150606085013561493d81614965565b600080604083850312156149d257600080fd5b8235915060208301356149e481614215565b809150509250929050565b600080600080600060a08688031215614a0757600080fd5b85359450602086013593506040860135614a2081614215565b92506060860135614a3081614965565b949793965091946080013592915050565b60008060208385031215614a5457600080fd5b82356001600160401b03811115614a6a57600080fd5b614a76858286016146d5565b90969095509350505050565b81516001600160a01b0316815260208083015160808301916117209084018280516001600160a01b0316825260208082015163ffffffff16908301526040908101511515910152565b60006001600160401b03821115614ae457614ae46142a0565b5060051b60200190565b60006020808385031215614b0157600080fd5b82356001600160401b03811115614b1757600080fd5b8301601f81018513614b2857600080fd5b8035614b3b614b3682614acb565b614367565b81815260059190911b82018301908381019087831115614b5a57600080fd5b928401925b8284101561417657833582529284019290840190614b5f565b6020808252825182820181905260009190848201906040850190845b81811015614bb057835183529284019291840191600101614b94565b50909695505050505050565b60008060408385031215614bcf57600080fd5b8235614bda81614215565b946020939093013593505050565b60008060408385031215614bfb57600080fd5b8235915060208301356149e4816143b7565b6000806000838503610120811215614c2457600080fd5b843593506020850135614c3681614215565b925060e0603f1982011215614c4a57600080fd5b506040840190509250925092565b600080600080600060a08688031215614c7057600080fd5b853594506020860135614c8281614215565b93506040860135614c92816148e6565b92506060860135614a30816148e6565b6001600160801b038116811461308257600080fd5b8135614cc281614965565b815461ffff191661ffff8216178255506020820135614ce081614965565b815463ffff00001916601082901b63ffff000016178255506040820135614d0681614965565b815465ffff000000008260201b1691508165ffff000000001982161783556060840135614d3281614ca2565b75ffffffffffffffffffffffffffffffff0000000000008160301b168375ffffffffffffffffffffffffffffffffffff00000000198416171784555050505050565b60e081018535614d8381614965565b61ffff9081168352602087013590614d9a82614965565b9081166020840152604087013590614db182614965565b1660408301526060860135614dc581614ca2565b6001600160801b03166060830152608082019490945260a081019290925260c090910152919050565b6000813561174f816143b7565b6000813561174f81614397565b80547fffff0000000000000000000000000000000000000000ffffffffffffffffffff1660509290921b600160501b600160f01b0316919091179055565b8135614e5181614965565b815461ffff191661ffff8216178255506020820135614e6f81614965565b815463ffff00001916601082901b63ffff000016178255506040820135614e9581614215565b815467ffffffff000000008260201b1691508167ffffffff000000001982161783556060840135614ec5816143b7565b68ffffffffff00000000199190911690911790151560401b60ff60401b161781556080820135614ef4816143b7565b815460ff60481b191681151560481b60ff60481b161782555060a0820135614f1b81614397565b611bfd8183614e08565b63ffffffff838116825260e08201908335614f3f81614965565b61ffff808216602086015260208601359150614f5a82614965565b16604084810191909152840135614f7081614215565b16606083810191909152830135614f86816143b7565b8015156080840152506080830135614f9d816143b7565b80151560a084015250614fb260a084016143ac565b6001600160a01b03811660c0840152509392505050565b60208082526010908201526f14185d5cd8589b194e881c185d5cd95960821b604082015260600190565b634e487b7160e01b600052600160045260246000fd5b80546001600160a01b0319166001600160a01b0392909216919091179055565b813561503481614397565b61503e8183615009565b50602082013561504d81614397565b61505a8160018401615009565b50604082013561506981614397565b6150768160028401615009565b5060038101606083013561508981614965565b815461ffff191661ffff82161782555060808301356150a781614965565b815463ffff00001916601082901b63ffff0000161782555060a08301356150cd81614215565b815467ffffffff000000008260201b1691508167ffffffff0000000019821617835560c08501356150fd816143b7565b68ffffffffff00000000199190911690911790151560401b60ff60401b1617815561514b61512d60e08501614dee565b82805460ff60481b191691151560481b60ff60481b16919091179055565b611bfd61515b6101008501614dfb565b82614e08565b6003811061308257600080fd5b805161232481615161565b8051612324816148e6565b805161232481614ca2565b600082601f8301126151a057600080fd5b815160206151b0614b3683614acb565b82815260059290921b840181019181810190868411156151cf57600080fd5b8286015b848110156153595780516001600160401b03808211156151f257600080fd5b9088019060a0828b03601f1901121561520a57600080fd5b6152126142de565b8683015161521f81614397565b80825250604083015187820152606083015160408201526080830151606082015260a08301518281111561525257600080fd5b8084019350508a603f84011261526757600080fd5b868301519150615279614b3683614acb565b82815261012092830284016040019288820191908d85111561529a57600080fd5b6040860195505b848610156153435780868f0312156152b857600080fd5b6152c0614300565b6152c98761516e565b81526152d68b8801615179565b8b8201526152e660408801615179565b60408201526152f760608801615184565b60608201526080870151608082015260a087015160a082015260c087015160c082015260e087015160e082015261010087015161010082015280845250898301925080860195506152a1565b50608083015250855250509183019183016151d3565b509695505050505050565b6000806000806080858703121561537a57600080fd5b845161538581614397565b8094505060208086015193506040808701516001600160401b03808211156153ac57600080fd5b818901915089601f8301126153c057600080fd5b81516153ce614b3682614acb565b81815260069190911b8301850190858101908c8311156153ed57600080fd5b938601935b828510156154365785858e03121561540a5760008081fd5b615412614323565b855161541d81614397565b81528588015188820152825293850193908601906153f2565b60608c0151909850955050508084111561544f57600080fd5b50505061545e8782880161518f565b91505092959194509250565b634e487b7160e01b600052603260045260246000fd5b60008235603e1983360301811261549657600080fd5b9190910192915050565b6000602082840312156154b257600080fd5b81356008811061167957600080fd5b6000808335601e198436030181126154d857600080fd5b8301803591506001600160401b038211156154f257600080fd5b60200191503681900382131561471957600080fd5b60008060a0838503121561551a57600080fd5b823561552581614215565b915061553484602085016143d0565b90509250929050565b803561232481615161565b600060e0828403121561555a57600080fd5b615562614345565b9050813561556f816148e6565b8152602082013561557f816148e6565b60208201526040820135600f81900b811461559957600080fd5b60408201526155aa606083016143ac565b60608201526155bb60808301614975565b60808201526155cc60a083016143c5565b60a08201526155dd60c0830161553d565b60c082015292915050565b60008061010083850312156155fc57600080fd5b823561560781614215565b91506155348460208501615548565b6000806000806080858703121561562c57600080fd5b843561563781614215565b93506020850135615647816148e6565b92506040850135615657816148e6565b9396929550929360600135925050565b60008060006060848603121561567c57600080fd5b83359250602084013561568e81614215565b9150604084013561569e81614965565b809150509250925092565b60208101600883106156bd576156bd6144a1565b91905290565b634e487b7160e01b600052601160045260246000fd5b60006000198214156156ed576156ed6156c3565b5060010190565b60008219821115615707576157076156c3565b500190565b60008282101561571e5761571e6156c3565b500390565b6020808252602e908201527f496e697469616c697a61626c653a20636f6e747261637420697320616c72656160408201526d191e481a5b9a5d1a585b1a5e995960921b606082015260800190565b60006020828403121561578357600080fd5b5051919050565b8183823760009101908152919050565b6000602082840312156157ac57600080fd5b81516001600160401b03808211156157c357600080fd5b818401915084601f8301126157d757600080fd5b8151818111156157e9576157e96142a0565b6157fc601f8201601f1916602001614367565b915080825285602082850101111561581357600080fd5b61582481602084016020860161476b565b50949350505050565b6020815260006116796020830184614797565b6000806040838503121561585357600080fd5b505080516020909101519092909150565b600060e0828403121561587657600080fd5b6116798383615548565b6001600160a01b038316815260808101611679602083018480516001600160a01b0316825260208082015163ffffffff16908301526040908101511515910152565b6000600160ff1b8214156158d8576158d86156c3565b5060000390565b60006101608201905086825263ffffffff86166020830152845160020b6040830152602085015160020b60608301526040850151600f0b608083015260018060a01b0360608601511660a083015261ffff60808601511660c083015260a085015161594e60e084018215159052565b5060c08501516159626101008401826144b7565b508361012083015261597961014083018415159052565b9695505050505050565b60008060006060848603121561599857600080fd5b8351925060208401519150604084015190509250925092565b600080821280156001600160ff1b03849003851316156159d3576159d36156c3565b600160ff1b83900384128116156159ec576159ec6156c3565b50500190565b6000808284036080811215615a0657600080fd5b835192506060601f1982011215615a1c57600080fd5b50615a256142b6565b602084015181526040840151602082015260608401516040820152809150509250929050565b6000825161549681846020870161476b565b6020808252602b908201527f496e697469616c697a61626c653a20636f6e7472616374206973206e6f74206960408201526a6e697469616c697a696e6760a81b606082015260800190565b60006001600160a01b0383811690831681811015615ac857615ac86156c3565b039392505050565b60006001600160a01b0382811684821681151582840482111615615af657615af66156c3565b02949350505050565b634e487b7160e01b600052601260045260246000fd5b60006001600160a01b0383811680615b2f57615b2f615aff565b92169190910492915050565b6000816000190483118215151615615b5557615b556156c3565b500290565b600060208284031215615b6c57600080fd5b8151611679816143b7565b600080600080600080600060e0888a031215615b9257600080fd5b8751615b9d81614397565b6020890151909750615bae816148e6565b6040890151909650615bbf81614965565b6060890151909550615bd081614965565b6080890151909450615be181614965565b60a089015190935060ff81168114615bf857600080fd5b60c0890151909250615c09816143b7565b8091505092959891949750929550565b6020808252825182820181905260009190848201906040850190845b81811015614bb057835163ffffffff1683529284019291840191600101615c35565b600082601f830112615c6857600080fd5b81516020615c78614b3683614acb565b82815260059290921b84018101918181019086841115615c9757600080fd5b8286015b84811015615359578051615cae81614397565b8352918301918301615c9b565b60008060408385031215615cce57600080fd5b82516001600160401b0380821115615ce557600080fd5b818501915085601f830112615cf957600080fd5b81516020615d09614b3683614acb565b82815260059290921b84018101918181019089841115615d2857600080fd5b948201945b83861015615d565785518060060b8114615d475760008081fd5b82529482019490820190615d2d565b91880151919650909350505080821115615d6f57600080fd5b50615d7c85828601615c57565b9150509250929050565b60008160060b8360060b6000811281667fffffffffffff1901831281151615615db157615db16156c3565b81667fffffffffffff018313811615615dcc57615dcc6156c3565b5090039392505050565b60008160060b8360060b80615ded57615ded615aff565b667fffffffffffff19821460001982141615615e0b57615e0b6156c3565b90059392505050565b60008260060b80615e2757615e27615aff565b808360060b0791505092915050565b60008160020b627fffff19811415615e5057615e506156c3565b600019019291505056fea2646970667358221220f63ead31906e14527a5cd67a53e25dc13de91133479787d40704954fa94dbdb164736f6c634300080c0033496e697469616c697a61626c653a20636f6e747261637420697320616c726561",
  "deployedBytecode": "0x6080604052600436106102725760003560e01c80637f64d6631161014f578063b7902303116100c1578063e1f167131161007a578063e1f1671314610a27578063e3d41c1814610a47578063e450f6f414610a67578063e67ed1df14610a87578063ee6cd5ee14610aa7578063fe6f083a14610ac757600080fd5b8063b79023031461094e578063bc38d5421461096e578063d38bfff41461099b578063da047996146109bb578063dbc0c085146109db578063dbd035ff146109fa57600080fd5b806393420cf41161011357806393420cf41461063657806394c8c71d1461073d5780639cd1be581461075d5780639dca362f1461077d578063ac9650d814610792578063b670ed52146107a557600080fd5b80637f64d6631461058957806384088b65146105a95780638456cb59146105eb578063847e07a6146106005780638ce25a931461062057600080fd5b80633d56a35e116101e857806349fbd58d116101ac57806349fbd58d146104d1578063569634d3146104f15780635aa6e675146105115780635c975abb146105305780637cc2f4f5146105495780637ec6ba311461056957600080fd5b80633d56a35e1461041f5780633f4ba83a1461043f57806340c4f69b1461045457806342be9fca14610481578063440ab745146104a157600080fd5b80632afaea371161023a5780632afaea371461033a57806332a72d981461035a578063393590291461038f5780633a64c245146103af5780633b561afc146103cf5780633d0aea3d146103ff57600080fd5b806302860bac14610277578063127fec13146102995780631a1feae1146102d65780631e2eaeaf146102fb5780631f84fa981461031a575b600080fd5b34801561028357600080fd5b506102976102923660046141ba565b610ae7565b005b3480156102a557600080fd5b5060d4546102b9906001600160a01b031681565b6040516001600160a01b0390911681526020015b60405180910390f35b3480156102e257600080fd5b506102ed6101a05481565b6040519081526020016102cd565b34801561030757600080fd5b506102ed6103163660046141fc565b5490565b34801561032657600080fd5b50610297610335366004614227565b610b8f565b34801561034657600080fd5b50610297610355366004614268565b610c39565b34801561036657600080fd5b5061037a61037536600461444f565b610c85565b604080519283526020830191909152016102cd565b34801561039b57600080fd5b506102976103aa366004614268565b610cd9565b3480156103bb57600080fd5b506102976103ca36600461448e565b610d18565b3480156103db57600080fd5b506103ef6103ea3660046141fc565b610df2565b6040516102cd94939291906144cb565b34801561040b57600080fd5b5061029761041a366004614658565b610e96565b34801561042b57600080fd5b5060d2546102b9906001600160a01b031681565b34801561044b57600080fd5b50610297610eea565b34801561046057600080fd5b5061047461046f366004614720565b610f3a565b6040516102cd91906147c3565b34801561048d57600080fd5b506102ed61049c366004614825565b611680565b3480156104ad57600080fd5b506104c16104bc366004614847565b611727565b60405190151581526020016102cd565b3480156104dd57600080fd5b506102976104ec366004614864565b611755565b3480156104fd57600080fd5b5061029761050c3660046141fc565b61185c565b34801561051d57600080fd5b5061019e546001600160a01b03166102b9565b34801561053c57600080fd5b5061016c5460ff166104c1565b34801561055557600080fd5b506102976105643660046148f5565b611867565b34801561057557600080fd5b506102976105843660046141fc565b61187c565b34801561059557600080fd5b506102976105a4366004614948565b6118c8565b3480156105b557600080fd5b506105c96105c4366004614980565b611993565b60408051825181526020808401519082015291810151908201526060016102cd565b3480156105f757600080fd5b506102976119e2565b34801561060c57600080fd5b506102ed61061b3660046149bf565b611a30565b34801561062c57600080fd5b506102ed60d05481565b34801561064257600080fd5b506106d7604080516080810182526000808252602082018190529181018290526060810182905250506067546040805160808101825260685461ffff8082168352620100008204811660208401526401000000008204169282019290925266010000000000009091046001600160801b03166060820152606954606a54606b546001600160a01b039094169492939192909190565b604080516001600160a01b039096168652845161ffff9081166020808901919091528601518116878301529085015116606080870191909152909301516001600160801b0316608085015260a084019190915260c083015260e0820152610100016102cd565b34801561074957600080fd5b506105c96107583660046149ef565b611ac6565b34801561076957600080fd5b50610297610778366004614825565b611bc0565b34801561078957600080fd5b506102ed611c02565b6104746107a0366004614a41565b611cb5565b3480156107b157600080fd5b506108c56107c0366004614847565b604080516080808201835260008083526020808401829052838501829052845160c08082018752838252818301849052818701849052606080830185905282860185905260a08084018690529681019290925263ffffffff978816845260648352928690208651808601885281546001600160a01b039081168252600183015481168286015260028301548116828a01528851958601895260039092015461ffff8082168752620100008204169486019490945264010000000084049098169684019690965260ff600160401b830481161515848301526901000000000000000000830416151593830193909352600160501b90049093169183019190915282015290565b6040805182516001600160a01b03908116825260208085015182168184015284840151821683850152606094850151805161ffff90811687860152918101519091166080808501919091529381015163ffffffff1660a08085019190915294810151151560c084015292830151151560e0830152919092015116610100820152610120016102cd565b34801561095a57600080fd5b5060d3546102b9906001600160a01b031681565b34801561097a57600080fd5b5061098e610989366004614847565b611e05565b6040516102cd9190614a82565b3480156109a757600080fd5b506102976109b6366004614948565b611ea4565b3480156109c757600080fd5b5061037a6109d6366004614847565b611f55565b3480156109e757600080fd5b5061019f546001600160a01b03166102b9565b348015610a0657600080fd5b50610a1a610a15366004614aee565b611f77565b6040516102cd9190614b78565b348015610a3357600080fd5b50610297610a42366004614a41565b611fa5565b348015610a5357600080fd5b506102ed610a623660046141fc565b6120f2565b348015610a7357600080fd5b506102ed610a82366004614bbc565b61217c565b348015610a9357600080fd5b5061037a610aa2366004614be8565b612193565b348015610ab357600080fd5b5061037a610ac2366004614c0d565b612231565b348015610ad357600080fd5b506102ed610ae2366004614c58565b612286565b61019f546001600160a01b03163314801590610b0f575061019e546001600160a01b03163314155b15610b2d57604051636bd1573560e11b815260040160405180910390fd5b836068610b3a8282614cb7565b5050606a839055606b82905560698190556040517f9b7ffeda0929d0ea3dfe5fb734043c56bf81827477ac95216f2b700fb921f03f90610b81908690869086908690614d74565b60405180910390a150505050565b61019f546001600160a01b03163314801590610bb7575061019e546001600160a01b03163314155b15610bd557604051636bd1573560e11b815260040160405180910390fd5b63ffffffff821660009081526064602052604090208190600301610bf98282614e46565b9050507ff924257f2f033f654a9c9dab9dc1725c901932a7187872fda504e76a9b6412de8282604051610c2d929190614f25565b60405180910390a15050565b61016c5460ff1615610c665760405162461bcd60e51b8152600401610c5d90614fc9565b60405180910390fd5b6000610c71846122e3565b9050610c7f84828585612329565b50505050565b600080610c9561016c5460ff1690565b15610cb25760405162461bcd60e51b8152600401610c5d90614fc9565b6000610cbd866122e3565b9050610ccc8186866001612432565b9250925050935093915050565b61016c5460ff1615610cfd5760405162461bcd60e51b8152600401610c5d90614fc9565b6000610d08846122e3565b9050610c7f8482858560016125fc565b60d2546001600160a01b03163314610d43576040516385734f3160e01b815260040160405180910390fd5b6000610d63610d556020840184614948565b6001600160a01b0316612714565b63ffffffff8116600090815260646020526040902054909150610d8e906001600160a01b0316612722565b610d9a57610d9a614ff3565b63ffffffff811660009081526064602052604090208290610dbb8282615029565b9050507ff924257f2f033f654a9c9dab9dc1725c901932a7187872fda504e76a9b6412de8183606001604051610c2d929190614f25565b600081815260d16020526040808220905163a0ba775760e01b81526004810191909152606460248201528190606090819073__$86182d6e9eac51236f2aa8dd2a3ddeab6c$__9063a0ba775790604401600060405180830381865af4158015610e5f573d6000803e3d6000fd5b505050506040513d6000823e601f3d908101601f19168201604052610e879190810190615364565b93509350935093509193509193565b61019f546001600160a01b03163314801590610ebe575061019e546001600160a01b03163314155b15610edc57604051636bd1573560e11b815260040160405180910390fd5b610ee68282612734565b5050565b61019f546001600160a01b03163314801590610f12575061019e546001600160a01b03163314155b15610f3057604051636bd1573560e11b815260040160405180910390fd5b610f386128f8565b565b6060816001600160401b03811115610f5457610f546142a0565b604051908082528060200260200182016040528015610f8757816020015b6060815260200190600190039081610f725790505b5090506000610f95856122e3565b90506000805b84811015611593576000868683818110610fb757610fb761546a565b9050602002810190610fc99190615480565b610fd79060208101906154a0565b6007811115610fe857610fe86144a1565b1415611047576000808787848181106110035761100361546a565b90506020028101906110159190615480565b6110239060208101906154c1565b8101906110309190614bbc565b9150915061104089868484612329565b5050611581565b600186868381811061105b5761105b61546a565b905060200281019061106d9190615480565b61107b9060208101906154a0565b600781111561108c5761108c6144a1565b14156110e6576000808787848181106110a7576110a761546a565b90506020028101906110b99190615480565b6110c79060208101906154c1565b8101906110d49190614bbc565b915091506110408986848460006125fc565b60028686838181106110fa576110fa61546a565b905060200281019061110c9190615480565b61111a9060208101906154a0565b600781111561112b5761112b6144a1565b141561118a5760008686838181106111455761114561546a565b90506020028101906111579190615480565b6111659060208101906154c1565b81019061117291906141fc565b90506111808482600061298d565b6001925050611581565b600386868381811061119e5761119e61546a565b90506020028101906111b09190615480565b6111be9060208101906154a0565b60078111156111cf576111cf6144a1565b1415611279576000808787848181106111ea576111ea61546a565b90506020028101906111fc9190615480565b61120a9060208101906154c1565b8101906112179190615507565b9150915060008061122b8785856000612432565b604080516020810184905290810182905291935091506060016040516020818303038152906040528886815181106112655761126561546a565b602002602001018190525050505050611581565b600486868381811061128d5761128d61546a565b905060200281019061129f9190615480565b6112ad9060208101906154a0565b60078111156112be576112be6144a1565b141561131a576000808787848181106112d9576112d961546a565b90506020028101906112eb9190615480565b6112f99060208101906154c1565b81019061130691906155e8565b9150915060008061122b8785856000612ada565b600586868381811061132e5761132e61546a565b90506020028101906113409190615480565b61134e9060208101906154a0565b600781111561135f5761135f6144a1565b14156113c95760008060008089898681811061137d5761137d61546a565b905060200281019061138f9190615480565b61139d9060208101906154c1565b8101906113aa9190615616565b93509350935093506113bf8b85858585612be8565b5050505050611581565b60068686838181106113dd576113dd61546a565b90506020028101906113ef9190615480565b6113fd9060208101906154a0565b600781111561140e5761140e6144a1565b14156114255761141f876000612ced565b50611581565b60078686838181106114395761143961546a565b905060200281019061144b9190615480565b6114599060208101906154a0565b600781111561146a5761146a6144a1565b14156115355760008060008888858181106114875761148761546a565b90506020028101906114999190615480565b6114a79060208101906154c1565b8101906114b49190615667565b60008d815260d160205260408082208583529082209497509295509093506114e0929085908590612e5c565b6040805182516020808301919091528301518183015291015160608201526080016040516020818303038152906040528785815181106115225761152261546a565b6020026020010181905250505050611581565b8585828181106115475761154761546a565b90506020028101906115599190615480565b6115679060208101906154a0565b604051633164e52160e11b8152600401610c5d91906156a9565b8061158b816156d9565b915050610f9b565b5080156116055760405163651524ed60e01b8152600481018390526064602482015273__$86182d6e9eac51236f2aa8dd2a3ddeab6c$__9063651524ed9060440160006040518083038186803b1580156115ec57600080fd5b505af4158015611600573d6000803e3d6000fd5b505050505b60405163998c533560e01b8152600481018390526001602482015260646044820181905273__$86182d6e9eac51236f2aa8dd2a3ddeab6c$__9163998c5335910160006040518083038186803b15801561165e57600080fd5b505af4158015611672573d6000803e3d6000fd5b5050505050505b9392505050565b6000818015611709576000611693612fa0565b5a61169e91906156f4565b90506116aa6044613058565b6116b48585612ced565b925060006116c0612fa0565b5a6116cb91906156f4565b6116d5908361570c565b90508083111561170257604051634010928f60e01b81526004810184905260248101829052604401610c5d565b5050611720565b6117136044613058565b61171d8484612ced565b91505b5092915050565b63ffffffff811660009081526064602052604081205461174f906001600160a01b0316612722565b92915050565b61013954610100900460ff16611772576101395460ff1615611776565b303b155b6117925760405162461bcd60e51b8152600401610c5d90615723565b61013954610100900460ff161580156117b657610139805461ffff19166101011790555b60d280546001600160a01b03199081166001600160a01b038a81169190911790925560668054821689841617905560d38054821687841617905560d48054821685841617905560678054909116858316179055604080516060810182529187168252603c6020830152600190820152611830908790612734565b611838613085565b61184061310f565b801561185357610139805461ff00191690555b50505050505050565b610ee6816000612ced565b611875848484846000612be8565b5050505050565b61019f546001600160a01b031633148015906118a4575061019e546001600160a01b03163314155b156118c257604051636bd1573560e11b815260040160405180910390fd5b6101a055565b61019f546001600160a01b031633148015906118f0575061019e546001600160a01b03163314155b1561190e57604051636bd1573560e11b815260040160405180910390fd5b6001600160a01b0381166119355760405163d92e233d60e01b815260040160405180910390fd5b61019f546040516001600160a01b038084169216907f39355f2f5c8206286978f443aa8126bbd29fa09c53c04569502647f3a59c8cb290600090a361019f80546001600160a01b0319166001600160a01b0392909216919091179055565b6119b760405180606001604052806000815260200160008152602001600081525090565b600085815260d160205260408082208683529082206119d99286908690612e5c565b95945050505050565b61019f546001600160a01b03163314801590611a0a575061019e546001600160a01b03163314155b15611a2857604051636bd1573560e11b815260040160405180910390fd5b610f38613144565b600082815260d160205260408082209051637188a1ed60e01b8152600481019190915263ffffffff8316602482015260646044820181905273__$86182d6e9eac51236f2aa8dd2a3ddeab6c$__91637188a1ed9101602060405180830381865af4158015611aa2573d6000803e3d6000fd5b505050506040513d601f19601f820116820180604052508101906116799190615771565b611aea60405180606001604052806000815260200160008152602001600081525090565b818015611b88576000611afb612fa0565b5a611b0691906156f4565b9050611b1260a4613058565b600088815260d160205260408082208983529120611b339190888888612e5c565b92506000611b3f612fa0565b5a611b4a91906156f4565b611b54908361570c565b905080831115611b8157604051634010928f60e01b81526004810184905260248101829052604401610c5d565b5050611bb6565b611b9260a4613058565b600087815260d160205260408082208883529120611bb39190878787612e5c565b91505b5095945050505050565b61016c5460ff1615611be45760405162461bcd60e51b8152600401610c5d90614fc9565b6000611bef836122e3565b9050611bfd8183600161298d565b505050565b6000611c1161016c5460ff1690565b15611c2e5760405162461bcd60e51b8152600401610c5d90614fc9565b5060d054611c3d8160016156f4565b60d055600081815260d160209081526040918290206bffffffffffffffffffffffff1933600160601b8102919091166bffffffffffffffffffffffff861617825592518481529092917f7325fb14450d3e5eb288c620b4ff1d6b43a41b33b4a4f143ae88cd4c12f99ea3910160405180910390a25090565b6060816001600160401b03811115611ccf57611ccf6142a0565b604051908082528060200260200182016040528015611d0257816020015b6060815260200190600190039081611ced5790505b50905060005b828110156117205760008030868685818110611d2657611d2661546a565b9050602002810190611d3891906154c1565b604051611d4692919061578a565b600060405180830381855af49150503d8060008114611d81576040519150601f19603f3d011682016040523d82523d6000602084013e611d86565b606091505b509150915081611dd257604481511015611d9f57600080fd5b60048101905080806020019051810190611db9919061579a565b60405162461bcd60e51b8152600401610c5d919061582d565b80848481518110611de557611de561546a565b602002602001018190525050508080611dfd906156d9565b915050611d08565b611e3860408051808201825260008082528251606081018452818152602081810183905293810191909152909182015290565b5063ffffffff9081166000908152606560209081526040918290208251808401845281546001600160a01b03908116825284516060810186526001909301549081168352600160a01b810490951682840152600160c01b90940460ff1615159281019290925282015290565b61019e546001600160a01b03163314611ed057604051636bd1573560e11b815260040160405180910390fd5b6001600160a01b038116611ef75760405163d92e233d60e01b815260040160405180910390fd5b61019e546040516001600160a01b038084169216907f5f56bee8cffbe9a78652a74a60705edede02af10b0bbb888ca44b79a0d42ce8090600090a361019e80546001600160a01b0319166001600160a01b0392909216919091179055565b600080611f6360648461319e565b9150611f70606484613234565b9050915091565b606060208251028201602001602083015b81811015611f9d578051548152602001611f88565b509192915050565b6000805b828110156120c8576000848483818110611fc557611fc561546a565b9050602002016020810190611fda9190614948565b6001600160a01b0316635e622abc6040518163ffffffff1660e01b81526004016020604051808303816000875af1158015612019573d6000803e3d6000fd5b505050506040513d601f19601f8201168201806040525081019061203d9190615771565b90508484838181106120515761205161546a565b90506020020160208101906120669190614948565b6001600160a01b03167fa087657e3d85162090ffd700fbfdf5070d816f63aa5da00063f6ffd369c8a6db826040516120a091815260200190565b60405180910390a26120b281846156f4565b92505080806120c0906156d9565b915050611fa9565b50611bfd6120df61019f546001600160a01b031690565b6066546001600160a01b03169083613251565b600081815260d16020526040808220905163625915c360e11b815260048101919091526064602482015273__$86182d6e9eac51236f2aa8dd2a3ddeab6c$__9063c4b22b8690604401602060405180830381865af4158015612158573d6000803e3d6000fd5b505050506040513d601f19601f8201168201806040525081019061174f9190615771565b6000612186611c02565b905061174f818484610c39565b600082815260d16020526040808220905163031b5fcd60e21b815260048101919091528215156024820152606460448201819052829173__$86182d6e9eac51236f2aa8dd2a3ddeab6c$__91630c6d7f3491016040805180830381865af4158015612202573d6000803e3d6000fd5b505050506040513d601f19601f820116820180604052508101906122269190615840565b909590945092505050565b60008061224161016c5460ff1690565b1561225e5760405162461bcd60e51b8152600401610c5d90614fc9565b6000612269866122e3565b9050610ccc818661227f36889003880188615864565b6001612ada565b60008180156122bd576000612299612fa0565b5a6122a491906156f4565b90506122b060a4613058565b611b338888888888612be8565b6122c760a4613058565b611bb38787878787612be8565b6001600160a01b03163b151590565b600081815260d1602052604090208054600160601b90046001600160a01b0316331461232457604051630504a20d60e01b8152336004820152602401610c5d565b919050565b61016c5460ff161561234d5760405162461bcd60e51b8152600401610c5d90614fc9565b600061235a8360006132b4565b8054909150612374906001600160a01b0316333085613343565b604051637ef9c64360e11b81526004810185905263ffffffff841660248201526044810183905273__$86182d6e9eac51236f2aa8dd2a3ddeab6c$__9063fdf38c869060640160006040518083038186803b1580156123d257600080fd5b505af41580156123e6573d6000803e3d6000fd5b505050508263ffffffff16857f8ad78786fd90bf16daca318ca19c5c1f8b0e4b6a666538a76d128092d48514c28460405161242391815260200190565b60405180910390a35050505050565b60008061244261016c5460ff1690565b1561245f5760405162461bcd60e51b8152600401610c5d90614fc9565b6124688561337b565b60408051630a067b0f60e11b81526004810188905263ffffffff871660248201528551604482015260208601516001600160a01b031660648083019190915291860151151560848201526060860151151560a482015260c481019190915283151560e482015273__$86182d6e9eac51236f2aa8dd2a3ddeab6c$__9063140cf61e90610104016040805180830381865af415801561250a573d6000803e3d6000fd5b505050506040513d601f19601f8201168201806040525081019061252e9190615840565b9092509050600061253e826133fe565b606b54909150811015612567576040516312b6b5cd60e11b815260048101829052602401610c5d565b60208501516001600160a01b03161580159061258557508460600151155b156125f257846040015180156125ac575084516125a1906133fe565b6125aa836133fe565b145b806125d5575084604001511580156125d5575084516125ca906133fe565b6125d3846133fe565b145b6125f2576040516307a1db0760e01b815260040160405180910390fd5b5094509492505050565b61016c5460ff16156126205760405162461bcd60e51b8152600401610c5d90614fc9565b600061262d8460016132b4565b6040516362b3b6bb60e11b81526004810187905263ffffffff8616602482015260448101859052606480820152831515608482015290915073__$86182d6e9eac51236f2aa8dd2a3ddeab6c$__9063c5676d769060a40160006040518083038186803b15801561269c57600080fd5b505af41580156126b0573d6000803e3d6000fd5b505082546126cb92506001600160a01b031690503385613251565b8363ffffffff16867fe0c7ec5663c36969e5662da59bc1ede9566e08300e34eb2da7746d9f262c5d808560405161270491815260200190565b60405180910390a3505050505050565b600063ffffffff821661174f565b60006001600160a01b0382161561174f565b6000612748836001600160a01b0316612714565b905061275c836001600160a01b0316612722565b1561277d576040516376d8a93160e01b815260006004820152602401610c5d565b63ffffffff81166000908152606560205260409020546127a5906001600160a01b0316612722565b1580156127de575063ffffffff8082166000908152606560205260409020546127dc916001600160a01b0390911690859061341916565b155b156128275763ffffffff81166000908152606560205260409081902054905163a5d4d0b560e01b81526001600160a01b0380861660048301529091166024820152604401610c5d565b6040805180820182526001600160a01b038581168252602080830186815263ffffffff868116600090815260658452869020945185546001600160a01b03191690851617855590518051600190950180549382015191870151959094166001600160c01b031990931692909217600160a01b92909116919091021760ff60c01b1916600160c01b92151592909202919091179055517f52983c04d8ccd4808cd0fcb24e6e48106ecb41e803d6270c6c94a15e3ebd08d2906128eb9085908590615880565b60405180910390a1505050565b61016c5460ff166129425760405162461bcd60e51b815260206004820152601460248201527314185d5cd8589b194e881b9bdd081c185d5cd95960621b6044820152606401610c5d565b61016c805460ff191690557f5db9ee0a495bf2e6ff9c91a7834c1ba4fdd244a5e8aa4e537bd38aeae4b073aa335b6040516001600160a01b03909116815260200160405180910390a1565b61016c5460ff16156129b15760405162461bcd60e51b8152600401610c5d90614fc9565b816129cf57604051631f2a200560e01b815260040160405180910390fd5b60405163d25c4a6f60e01b815260048101849052602481018390526064604482018190528215159082015273__$86182d6e9eac51236f2aa8dd2a3ddeab6c$__9063d25c4a6f9060840160006040518083038186803b158015612a3157600080fd5b505af4158015612a45573d6000803e3d6000fd5b505050506000821315612a6f57606654612a6a906001600160a01b0316333085613343565b612a8f565b612a8f33612a7c846158c2565b6066546001600160a01b03169190613251565b82546040518381526bffffffffffffffffffffffff909116907f34e55ef9f5cf05f9a666ce27e7dcee31bb2a4e21eccaa3ea58a8358117b1547a9060200160405180910390a2505050565b600080612aea61016c5460ff1690565b15612b075760405162461bcd60e51b8152600401610c5d90614fc9565b612b108561337b565b60608401516001600160a01b031615612b3657612b36858560600151866080015161342f565b60405163c27789d160e01b815260009073__$86182d6e9eac51236f2aa8dd2a3ddeab6c$__9063c27789d190612b79908a908a908a906064908b906004016158df565b606060405180830381865af4158015612b96573d6000803e3d6000fd5b505050506040513d601f19601f82011682018060405250810190612bba9190615983565b606b5492955090935091508110156125f2576040516312b6b5cd60e11b815260048101829052602401610c5d565b6000612bf761016c5460ff1690565b15612c145760405162461bcd60e51b8152600401610c5d90614fc9565b600086815260d160205260409020612c2b8661337b565b612c34836134c1565b606a54612c4191906156f4565b604051637022478560e11b81526004810183905263ffffffff88166024820152600287810b604483015286900b6064808301919091526084820183905260a482015290925073__$86182d6e9eac51236f2aa8dd2a3ddeab6c$__9063e0448f0a9060c40160006040518083038186803b158015612cbd57600080fd5b505af4158015612cd1573d6000803e3d6000fd5b5050606654611bb692506001600160a01b031690503384613251565b6000612cfc61016c5460ff1690565b15612d195760405162461bcd60e51b8152600401610c5d90614fc9565b600083815260d1602052604081209073__$86182d6e9eac51236f2aa8dd2a3ddeab6c$__6322e440c483612d4c876134c1565b6040516001600160e01b031960e085901b16815260048101929092526024820152606460448201819052016040805180830381865af4158015612d93573d6000803e3d6000fd5b505050506040513d601f19601f82011682018060405250810190612db79190615840565b90935090506000612dc882856159b1565b905060008413612dee5760405163ef37dcc760e01b815260048101859052602401610c5d565b606654612e05906001600160a01b03163386613251565b612e0e826135d8565b6040805182815260208101869052908101839052339087907fcfb6806c7e1accb0c7e5835aded9e714525c0588e5609d5ae1a3c8f6b68586a79060600160405180910390a350505092915050565b612e8060405180606001604052806000815260200160008152602001600081525090565b61016c5460ff1615612ea45760405162461bcd60e51b8152600401610c5d90614fc9565b6127108361ffff161115612ecb576040516348d69f3560e01b815260040160405180910390fd5b612ed48461337b565b600073__$86182d6e9eac51236f2aa8dd2a3ddeab6c$__632a2d44e587898789612efd896134c1565b6040516001600160e01b031960e088901b1681526004810195909552602485019390935261ffff909116604484015263ffffffff16606483810191909152608483019190915260a4820152600160c482015260e401608060405180830381865af4158015612f6f573d6000803e3d6000fd5b505050506040513d601f19601f82011682018060405250810190612f9391906159f2565b92509050611bb6816135d8565b60408051600481526024810182526020810180516001600160e01b031663a94597ff60e01b179052905160009182918291606491612fde9190615a4b565b600060405180830381855afa9150503d8060008114613019576040519150601f19603f3d011682016040523d82523d6000602084013e61301e565b606091505b509150915081158061302f57508051155b1561303d5760009250505090565b808060200190518101906130519190615771565b9250505090565b3681101561308257604051634219202560e01b815236600482015260248101829052604401610c5d565b50565b61013954610100900460ff166130a2576101395460ff16156130a6565b303b155b6130c25760405162461bcd60e51b8152600401610c5d90615723565b61013954610100900460ff161580156130e657610139805461ffff19166101011790555b6130ee613664565b336130f9818061368c565b50801561308257610139805461ff001916905550565b61013954610100900460ff166131375760405162461bcd60e51b8152600401610c5d90615a5d565b61016c805460ff19169055565b61016c5460ff16156131685760405162461bcd60e51b8152600401610c5d90614fc9565b61016c805460ff191660011790557f62e78cea01bee320cd4e420270b5ea74000d11b0c9f74754ebdbfc544b05a2586129703390565b63ffffffff8181166000908152602084905260408082206003810154915163dd86c10160e01b8152640100000000830490941660048501529192600160501b9091046001600160a01b03169063dd86c10190602401602060405180830381865afa158015613210573d6000803e3d6000fd5b505050506040513d601f19601f8201168201806040525081019061171d9190615771565b60006116796132438484613798565b6001600160a01b03166137dd565b6040516001600160a01b038316602482015260448101829052611bfd90849063a9059cbb60e01b906064015b60408051601f198184030181529190526020810180516001600160e01b03166001600160e01b03199093169290921790915261384a565b63ffffffff8216600090815260656020526040902080546132dd906001600160a01b0316612722565b1561330357604051636b9c1a9d60e01b815263ffffffff84166004820152602401610c5d565b8115801561331d57506001810154600160c01b900460ff16155b1561174f5760405163122a1f1960e31b815263ffffffff84166004820152602401610c5d565b6040516001600160a01b0380851660248301528316604482015260648101829052610c7f9085906323b872dd60e01b9060840161327d565b63ffffffff8116600090815260646020526040902080546133a4906001600160a01b0316612722565b156133ca5760405163b842f5a760e01b815263ffffffff83166004820152602401610c5d565b6003810154600160401b900460ff16610ee65760405163587ee90160e11b815263ffffffff83166004820152602401610c5d565b600080821361341557613410826158c2565b61174f565b5090565b60006001600160a01b0380841690831614611679565b600061343c60648561391c565b90506000836001600160a01b0316826001600160a01b031611613468576134638285615aa8565b613472565b6134728483615aa8565b90506127106134858561ffff8616615ad0565b61348f9190615b15565b6001600160a01b0316816001600160a01b03161115611875576040516307a1db0760e01b815260040160405180910390fd5b60003a6101a0548111156134f7576101a054604051638dfe587d60e01b8152610c5d918391600401918252602082015260400190565b82158061350d575060d4546001600160a01b0316155b1561351b57600091506135d2565b6000333214156135305761352d613947565b90505b600061353c3a86615b3b565b60d45460405163dd86c10160e01b815261012c60048201529192506000916001600160a01b039091169063dd86c10190602401602060405180830381865afa15801561358c573d6000803e3d6000fd5b505050506040513d601f19601f820116820180604052508101906135b09190615771565b90506135cc81600160801b6135c585876156f4565b9190613985565b94505050505b50919050565b60008113156135fe5760d354606654613082916001600160a01b03918216911683613251565b60d3546001600160a01b031663379607f5613618836158c2565b6040518263ffffffff1660e01b815260040161363691815260200190565b600060405180830381600087803b15801561365057600080fd5b505af1158015611875573d6000803e3d6000fd5b61013954610100900460ff16610f385760405162461bcd60e51b8152600401610c5d90615a5d565b61013954610100900460ff166136a9576101395460ff16156136ad565b303b155b6136c95760405162461bcd60e51b8152600401610c5d90615723565b61013954610100900460ff161580156136ed57610139805461ffff19166101011790555b61019e80546001600160a01b0319166001600160a01b0385169081179091556040516000907f5f56bee8cffbe9a78652a74a60705edede02af10b0bbb888ca44b79a0d42ce80908290a361019f80546001600160a01b0319166001600160a01b0384169081179091556040516000907f39355f2f5c8206286978f443aa8126bbd29fa09c53c04569502647f3a59c8cb2908290a38015611bfd57610139805461ff0019169055505050565b63ffffffff8082166000908152602084905260408120600381015460018201549293919261171d926001600160a01b03909116916401000000009004811690613a3816565b60006401000276a36001600160a01b0383161080613818575073fffd8963efd1fc6a506488495d951d5263988d266001600160a01b03831610155b1561384157604051635d236c4560e01b81526001600160a01b0383166004820152602401610c5d565b61174f82613a59565b600061389f826040518060400160405280602081526020017f5361666545524332303a206c6f772d6c6576656c2063616c6c206661696c6564815250856001600160a01b0316613a739092919063ffffffff16565b805190915015611bfd57808060200190518101906138bd9190615b5a565b611bfd5760405162461bcd60e51b815260206004820152602a60248201527f5361666545524332303a204552433230206f7065726174696f6e20646964206e6044820152691bdd081cdd58d8d9595960b21b6064820152608401610c5d565b63ffffffff8116600090815260208390526040812060010154611679906001600160a01b0316613a8a565b60408051600481526024810182526020810180516001600160e01b031663637bef0760e11b179052905160009182918291606491612fde9190615a4b565b6000808060001985870985870292508281108382030391505080600014156139bf57600084116139b457600080fd5b508290049050611679565b8084116139cb57600080fd5b6000848688096000868103871696879004966002600389028118808a02820302808a02820302808a02820302808a02820302808a02820302808a02909103029181900381900460010186841190950394909402919094039290920491909117919091029150509392505050565b600080613a4e6001600160a01b03851684613b14565b905061171d81613d30565b600061174f6001600160a01b03831680600160401b613985565b6060613a828484600085614050565b949350505050565b600080826001600160a01b0316633850c7bd6040518163ffffffff1660e01b815260040160e060405180830381865afa158015613acb573d6000803e3d6000fd5b505050506040513d601f19601f82011682018060405250810190613aef9190615b77565b509496509294505050506001600160a01b038316151590506135d25761167981613d30565b600063ffffffff8216613b3d57604051636eb711b760e11b815260006004820152602401610c5d565b6040805160028082526060820183526000926020830190803683370190505090508281600081518110613b7257613b7261546a565b602002602001019063ffffffff16908163ffffffff1681525050600081600181518110613ba157613ba161546a565b63ffffffff9092166020928302919091019091015260405163883bdbfd60e01b81526001600160a01b0385169063883bdbfd90613be2908490600401615c19565b600060405180830381865afa925050508015613c2057506040513d6000823e601f3d908101601f19168201604052613c1d9190810190615cbb565b60015b613c9557836001600160a01b0316633850c7bd6040518163ffffffff1660e01b815260040160e060405180830381865afa158015613c62573d6000803e3d6000fd5b505050506040513d601f19601f82011682018060405250810190613c869190615b77565b50939650611720945050505050565b600082600081518110613caa57613caa61546a565b602002602001015183600181518110613cc557613cc561546a565b6020026020010151613cd79190615d86565b90506000613ceb63ffffffff881683615dd6565b905060008260060b128015613d115750613d0b63ffffffff881683615e14565b60060b15155b15613d245780613d2081615e36565b9150505b945061174f9350505050565b60008060008360020b12613d47578260020b613d4f565b8260020b6000035b9050620d89e8811115613d75576040516315e4079d60e11b815260040160405180910390fd5b600060018216613d8957600160801b613d9b565b6ffffcb933bd6fad37aa2d162d1a5940015b70ffffffffffffffffffffffffffffffffff1690506002821615613dcf576ffff97272373d413259a46990580e213a0260801c5b6004821615613dee576ffff2e50f5f656932ef12357cf3c7fdcc0260801c5b6008821615613e0d576fffe5caca7e10e4e61c3624eaa0941cd00260801c5b6010821615613e2c576fffcb9843d60f6159c9db58835c9266440260801c5b6020821615613e4b576fff973b41fa98c081472e6896dfb254c00260801c5b6040821615613e6a576fff2ea16466c96a3843ec78b326b528610260801c5b6080821615613e89576ffe5dee046a99a2a811c461f1969c30530260801c5b610100821615613ea9576ffcbe86c7900a88aedcffc83b479aa3a40260801c5b610200821615613ec9576ff987a7253ac413176f2b074cf7815e540260801c5b610400821615613ee9576ff3392b0822b70005940c7a398e4b70f30260801c5b610800821615613f09576fe7159475a2c29b7443b29c7fa6e889d90260801c5b611000821615613f29576fd097f3bdfd2022b8845ad8f792aa58250260801c5b612000821615613f49576fa9f746462d870fdf8a65dc1f90e061e50260801c5b614000821615613f69576f70d869a156d2a1b890bb3df62baf32f70260801c5b618000821615613f89576f31be135f97d08fd981231505542fcfa60260801c5b62010000821615613faa576f09aa508b5b7a84e1c677de54f3e99bc90260801c5b62020000821615613fca576e5d6af8dedb81196699c329225ee6040260801c5b62040000821615613fe9576d2216e584f5fa1ea926041bedfe980260801c5b62080000821615614006576b048a170391f7dc42444e8fa20260801c5b60008460020b131561402757806000198161402357614023615aff565b0490505b64010000000081061561403b57600161403e565b60005b60ff16602082901c0192505050919050565b6060824710156140b15760405162461bcd60e51b815260206004820152602660248201527f416464726573733a20696e73756666696369656e742062616c616e636520666f6044820152651c8818d85b1b60d21b6064820152608401610c5d565b6001600160a01b0385163b6141085760405162461bcd60e51b815260206004820152601d60248201527f416464726573733a2063616c6c20746f206e6f6e2d636f6e74726163740000006044820152606401610c5d565b600080866001600160a01b031685876040516141249190615a4b565b60006040518083038185875af1925050503d8060008114614161576040519150601f19603f3d011682016040523d82523d6000602084013e614166565b606091505b5091509150614176828286614181565b979650505050505050565b60608315614190575081611679565b8251156141a05782518084602001fd5b8160405162461bcd60e51b8152600401610c5d919061582d565b60008060008084860360e08112156141d157600080fd5b60808112156141df57600080fd5b5093956080870135955060a0870135945060c08701359350915050565b60006020828403121561420e57600080fd5b5035919050565b63ffffffff8116811461308257600080fd5b60008082840360e081121561423b57600080fd5b833561424681614215565b925060c0601f198201121561425a57600080fd5b506020830190509250929050565b60008060006060848603121561427d57600080fd5b83359250602084013561428f81614215565b929592945050506040919091013590565b634e487b7160e01b600052604160045260246000fd5b604051606081016001600160401b03811182821017156142d8576142d86142a0565b60405290565b60405160a081016001600160401b03811182821017156142d8576142d86142a0565b60405161012081016001600160401b03811182821017156142d8576142d86142a0565b604080519081016001600160401b03811182821017156142d8576142d86142a0565b60405160e081016001600160401b03811182821017156142d8576142d86142a0565b604051601f8201601f191681016001600160401b038111828210171561438f5761438f6142a0565b604052919050565b6001600160a01b038116811461308257600080fd5b803561232481614397565b801515811461308257600080fd5b8035612324816143b7565b6000608082840312156143e257600080fd5b604051608081018181106001600160401b0382111715614404576144046142a0565b60405282358152905080602083013561441c81614397565b6020820152604083013561442f816143b7565b60408201526060830135614442816143b7565b6060919091015292915050565b600080600060c0848603121561446457600080fd5b83359250602084013561447681614215565b915061448585604086016143d0565b90509250925092565b600061012082840312156135d257600080fd5b634e487b7160e01b600052602160045260246000fd5b600381106144c7576144c76144a1565b9052565b6000608080830160018060a01b038089168552602088818701526040848188015283895180865260a089019150838b01955060005b81811015614527578651805187168452850151858401529584019591830191600101614500565b5050878103606089015288518082528382019550600581901b82018401848b0160005b8381101561464457848303601f19018952815180518916845287810151888501528681015187850152606080820151908501528a015160a08b850181905281519085018190529088019060009060c08601905b8083101561462f5783516145b28382516144b7565b8b8101518060020b8d850152508a81015160020b8b84015260608101516145e460608501826001600160801b03169052565b508e8101518f84015260a081015160a084015260c081015160c084015260e081015160e084015261010080820151818501525050610120820191508a8401935060018301925061459d565b509a89019a945050509086019060010161454a565b50909e9d5050505050505050505050505050565b600080828403608081121561466c57600080fd5b833561467781614397565b92506060601f198201121561468b57600080fd5b506146946142b6565b60208401356146a281614397565b815260408401356146b281614215565b602082015260608401356146c5816143b7565b6040820152919491935090915050565b60008083601f8401126146e757600080fd5b5081356001600160401b038111156146fe57600080fd5b6020830191508360208260051b850101111561471957600080fd5b9250929050565b60008060006040848603121561473557600080fd5b8335925060208401356001600160401b0381111561475257600080fd5b61475e868287016146d5565b9497909650939450505050565b60005b8381101561478657818101518382015260200161476e565b83811115610c7f5750506000910152565b600081518084526147af81602086016020860161476b565b601f01601f19169290920160200192915050565b6000602080830181845280855180835260408601915060408160051b870101925083870160005b8281101561481857603f19888603018452614806858351614797565b945092850192908501906001016147ea565b5092979650505050505050565b6000806040838503121561483857600080fd5b50508035926020909101359150565b60006020828403121561485957600080fd5b813561167981614215565b60008060008060008060c0878903121561487d57600080fd5b863561488881614397565b9550602087013561489881614397565b945060408701356148a881614397565b935060608701356148b881614397565b925060808701356148c881614397565b915060a08701356148d881614397565b809150509295509295509295565b8060020b811461308257600080fd5b6000806000806080858703121561490b57600080fd5b84359350602085013561491d81614215565b9250604085013561492d816148e6565b9150606085013561493d816148e6565b939692955090935050565b60006020828403121561495a57600080fd5b813561167981614397565b61ffff8116811461308257600080fd5b803561232481614965565b6000806000806080858703121561499657600080fd5b843593506020850135925060408501356149af81614215565b9150606085013561493d81614965565b600080604083850312156149d257600080fd5b8235915060208301356149e481614215565b809150509250929050565b600080600080600060a08688031215614a0757600080fd5b85359450602086013593506040860135614a2081614215565b92506060860135614a3081614965565b949793965091946080013592915050565b60008060208385031215614a5457600080fd5b82356001600160401b03811115614a6a57600080fd5b614a76858286016146d5565b90969095509350505050565b81516001600160a01b0316815260208083015160808301916117209084018280516001600160a01b0316825260208082015163ffffffff16908301526040908101511515910152565b60006001600160401b03821115614ae457614ae46142a0565b5060051b60200190565b60006020808385031215614b0157600080fd5b82356001600160401b03811115614b1757600080fd5b8301601f81018513614b2857600080fd5b8035614b3b614b3682614acb565b614367565b81815260059190911b82018301908381019087831115614b5a57600080fd5b928401925b8284101561417657833582529284019290840190614b5f565b6020808252825182820181905260009190848201906040850190845b81811015614bb057835183529284019291840191600101614b94565b50909695505050505050565b60008060408385031215614bcf57600080fd5b8235614bda81614215565b946020939093013593505050565b60008060408385031215614bfb57600080fd5b8235915060208301356149e4816143b7565b6000806000838503610120811215614c2457600080fd5b843593506020850135614c3681614215565b925060e0603f1982011215614c4a57600080fd5b506040840190509250925092565b600080600080600060a08688031215614c7057600080fd5b853594506020860135614c8281614215565b93506040860135614c92816148e6565b92506060860135614a30816148e6565b6001600160801b038116811461308257600080fd5b8135614cc281614965565b815461ffff191661ffff8216178255506020820135614ce081614965565b815463ffff00001916601082901b63ffff000016178255506040820135614d0681614965565b815465ffff000000008260201b1691508165ffff000000001982161783556060840135614d3281614ca2565b75ffffffffffffffffffffffffffffffff0000000000008160301b168375ffffffffffffffffffffffffffffffffffff00000000198416171784555050505050565b60e081018535614d8381614965565b61ffff9081168352602087013590614d9a82614965565b9081166020840152604087013590614db182614965565b1660408301526060860135614dc581614ca2565b6001600160801b03166060830152608082019490945260a081019290925260c090910152919050565b6000813561174f816143b7565b6000813561174f81614397565b80547fffff0000000000000000000000000000000000000000ffffffffffffffffffff1660509290921b600160501b600160f01b0316919091179055565b8135614e5181614965565b815461ffff191661ffff8216178255506020820135614e6f81614965565b815463ffff00001916601082901b63ffff000016178255506040820135614e9581614215565b815467ffffffff000000008260201b1691508167ffffffff000000001982161783556060840135614ec5816143b7565b68ffffffffff00000000199190911690911790151560401b60ff60401b161781556080820135614ef4816143b7565b815460ff60481b191681151560481b60ff60481b161782555060a0820135614f1b81614397565b611bfd8183614e08565b63ffffffff838116825260e08201908335614f3f81614965565b61ffff808216602086015260208601359150614f5a82614965565b16604084810191909152840135614f7081614215565b16606083810191909152830135614f86816143b7565b8015156080840152506080830135614f9d816143b7565b80151560a084015250614fb260a084016143ac565b6001600160a01b03811660c0840152509392505050565b60208082526010908201526f14185d5cd8589b194e881c185d5cd95960821b604082015260600190565b634e487b7160e01b600052600160045260246000fd5b80546001600160a01b0319166001600160a01b0392909216919091179055565b813561503481614397565b61503e8183615009565b50602082013561504d81614397565b61505a8160018401615009565b50604082013561506981614397565b6150768160028401615009565b5060038101606083013561508981614965565b815461ffff191661ffff82161782555060808301356150a781614965565b815463ffff00001916601082901b63ffff0000161782555060a08301356150cd81614215565b815467ffffffff000000008260201b1691508167ffffffff0000000019821617835560c08501356150fd816143b7565b68ffffffffff00000000199190911690911790151560401b60ff60401b1617815561514b61512d60e08501614dee565b82805460ff60481b191691151560481b60ff60481b16919091179055565b611bfd61515b6101008501614dfb565b82614e08565b6003811061308257600080fd5b805161232481615161565b8051612324816148e6565b805161232481614ca2565b600082601f8301126151a057600080fd5b815160206151b0614b3683614acb565b82815260059290921b840181019181810190868411156151cf57600080fd5b8286015b848110156153595780516001600160401b03808211156151f257600080fd5b9088019060a0828b03601f1901121561520a57600080fd5b6152126142de565b8683015161521f81614397565b80825250604083015187820152606083015160408201526080830151606082015260a08301518281111561525257600080fd5b8084019350508a603f84011261526757600080fd5b868301519150615279614b3683614acb565b82815261012092830284016040019288820191908d85111561529a57600080fd5b6040860195505b848610156153435780868f0312156152b857600080fd5b6152c0614300565b6152c98761516e565b81526152d68b8801615179565b8b8201526152e660408801615179565b60408201526152f760608801615184565b60608201526080870151608082015260a087015160a082015260c087015160c082015260e087015160e082015261010087015161010082015280845250898301925080860195506152a1565b50608083015250855250509183019183016151d3565b509695505050505050565b6000806000806080858703121561537a57600080fd5b845161538581614397565b8094505060208086015193506040808701516001600160401b03808211156153ac57600080fd5b818901915089601f8301126153c057600080fd5b81516153ce614b3682614acb565b81815260069190911b8301850190858101908c8311156153ed57600080fd5b938601935b828510156154365785858e03121561540a5760008081fd5b615412614323565b855161541d81614397565b81528588015188820152825293850193908601906153f2565b60608c0151909850955050508084111561544f57600080fd5b50505061545e8782880161518f565b91505092959194509250565b634e487b7160e01b600052603260045260246000fd5b60008235603e1983360301811261549657600080fd5b9190910192915050565b6000602082840312156154b257600080fd5b81356008811061167957600080fd5b6000808335601e198436030181126154d857600080fd5b8301803591506001600160401b038211156154f257600080fd5b60200191503681900382131561471957600080fd5b60008060a0838503121561551a57600080fd5b823561552581614215565b915061553484602085016143d0565b90509250929050565b803561232481615161565b600060e0828403121561555a57600080fd5b615562614345565b9050813561556f816148e6565b8152602082013561557f816148e6565b60208201526040820135600f81900b811461559957600080fd5b60408201526155aa606083016143ac565b60608201526155bb60808301614975565b60808201526155cc60a083016143c5565b60a08201526155dd60c0830161553d565b60c082015292915050565b60008061010083850312156155fc57600080fd5b823561560781614215565b91506155348460208501615548565b6000806000806080858703121561562c57600080fd5b843561563781614215565b93506020850135615647816148e6565b92506040850135615657816148e6565b9396929550929360600135925050565b60008060006060848603121561567c57600080fd5b83359250602084013561568e81614215565b9150604084013561569e81614965565b809150509250925092565b60208101600883106156bd576156bd6144a1565b91905290565b634e487b7160e01b600052601160045260246000fd5b60006000198214156156ed576156ed6156c3565b5060010190565b60008219821115615707576157076156c3565b500190565b60008282101561571e5761571e6156c3565b500390565b6020808252602e908201527f496e697469616c697a61626c653a20636f6e747261637420697320616c72656160408201526d191e481a5b9a5d1a585b1a5e995960921b606082015260800190565b60006020828403121561578357600080fd5b5051919050565b8183823760009101908152919050565b6000602082840312156157ac57600080fd5b81516001600160401b03808211156157c357600080fd5b818401915084601f8301126157d757600080fd5b8151818111156157e9576157e96142a0565b6157fc601f8201601f1916602001614367565b915080825285602082850101111561581357600080fd5b61582481602084016020860161476b565b50949350505050565b6020815260006116796020830184614797565b6000806040838503121561585357600080fd5b505080516020909101519092909150565b600060e0828403121561587657600080fd5b6116798383615548565b6001600160a01b038316815260808101611679602083018480516001600160a01b0316825260208082015163ffffffff16908301526040908101511515910152565b6000600160ff1b8214156158d8576158d86156c3565b5060000390565b60006101608201905086825263ffffffff86166020830152845160020b6040830152602085015160020b60608301526040850151600f0b608083015260018060a01b0360608601511660a083015261ffff60808601511660c083015260a085015161594e60e084018215159052565b5060c08501516159626101008401826144b7565b508361012083015261597961014083018415159052565b9695505050505050565b60008060006060848603121561599857600080fd5b8351925060208401519150604084015190509250925092565b600080821280156001600160ff1b03849003851316156159d3576159d36156c3565b600160ff1b83900384128116156159ec576159ec6156c3565b50500190565b6000808284036080811215615a0657600080fd5b835192506060601f1982011215615a1c57600080fd5b50615a256142b6565b602084015181526040840151602082015260608401516040820152809150509250929050565b6000825161549681846020870161476b565b6020808252602b908201527f496e697469616c697a61626c653a20636f6e7472616374206973206e6f74206960408201526a6e697469616c697a696e6760a81b606082015260800190565b60006001600160a01b0383811690831681811015615ac857615ac86156c3565b039392505050565b60006001600160a01b0382811684821681151582840482111615615af657615af66156c3565b02949350505050565b634e487b7160e01b600052601260045260246000fd5b60006001600160a01b0383811680615b2f57615b2f615aff565b92169190910492915050565b6000816000190483118215151615615b5557615b556156c3565b500290565b600060208284031215615b6c57600080fd5b8151611679816143b7565b600080600080600080600060e0888a031215615b9257600080fd5b8751615b9d81614397565b6020890151909750615bae816148e6565b6040890151909650615bbf81614965565b6060890151909550615bd081614965565b6080890151909450615be181614965565b60a089015190935060ff81168114615bf857600080fd5b60c0890151909250615c09816143b7565b8091505092959891949750929550565b6020808252825182820181905260009190848201906040850190845b81811015614bb057835163ffffffff1683529284019291840191600101615c35565b600082601f830112615c6857600080fd5b81516020615c78614b3683614acb565b82815260059290921b84018101918181019086841115615c9757600080fd5b8286015b84811015615359578051615cae81614397565b8352918301918301615c9b565b60008060408385031215615cce57600080fd5b82516001600160401b0380821115615ce557600080fd5b818501915085601f830112615cf957600080fd5b81516020615d09614b3683614acb565b82815260059290921b84018101918181019089841115615d2857600080fd5b948201945b83861015615d565785518060060b8114615d475760008081fd5b82529482019490820190615d2d565b91880151919650909350505080821115615d6f57600080fd5b50615d7c85828601615c57565b9150509250929050565b60008160060b8360060b6000811281667fffffffffffff1901831281151615615db157615db16156c3565b81667fffffffffffff018313811615615dcc57615dcc6156c3565b5090039392505050565b60008160060b8360060b80615ded57615ded615aff565b667fffffffffffff19821460001982141615615e0b57615e0b6156c3565b90059392505050565b60008260060b80615e2757615e27615aff565b808360060b0791505092915050565b60008160020b627fffff19811415615e5057615e506156c3565b600019019291505056fea2646970667358221220f63ead31906e14527a5cd67a53e25dc13de91133479787d40704954fa94dbdb164736f6c634300080c0033",
  "libraries": {
    "Account": "0x5AEf32aDb9cffB40195E3846cB0c45e801B8fe2e"
  },
  "devdoc": {
    "errors": {
      "AccessDenied(address)": [
        {
          "params": {
            "senderAddress": "address of msg sender"
          }
        }
      ],
      "CollateralDoesNotExist(uint32)": [
        {
          "params": {
            "collateralId": "address of token"
          }
        }
      ],
      "CollateralNotAllowedForUse(uint32)": [
        {
          "params": {
            "collateralId": "address of token"
          }
        }
      ],
      "IncorrectCollateralAddress(address,address)": [
        {
          "params": {
            "correctAddress": "correct address of collateral token",
            "incorrectAddress": "incorrect address of collateral token"
          }
        }
      ],
      "InvalidCollateralAddress(address)": [
        {
          "params": {
            "invalidAddress": "invalid address of collateral token"
          }
        }
      ],
      "InvalidMulticallOperationType(uint8)": [
        {
          "params": {
            "multicallOperationType": "is the value that is out of bounds"
          }
        }
      ],
      "LowNotionalValue(uint256)": [
        {
          "params": {
            "notionalValue": "notional value of txn"
          }
        }
      ],
      "PoolDoesNotExist(uint32)": [
        {
          "params": {
            "poolId": "unitialized truncated address supplied"
          }
        }
      ],
      "PoolNotAllowedForTrade(uint32)": [
        {
          "params": {
            "poolId": "address of token"
          }
        }
      ]
    },
    "kind": "dev",
    "methods": {
      "addMargin(uint256,uint32,uint256)": {
        "params": {
          "accountId": "account id",
          "amount": "amount of token to deposit",
          "poolId": "truncated address of token to deposit"
        }
      },
      "createAccount()": {
        "returns": {
          "newAccountId": "- serial number of the new account created"
        }
      },
      "createAccountAndAddMargin(uint32,uint256)": {
        "params": {
          "amount": "amount of token to deposit",
          "poolId": "truncated address of token to deposit"
        },
        "returns": {
          "newAccountId": "- serial number of the new account created"
        }
      },
      "governance()": {
        "details": "Returns the address of the current governance."
      },
      "liquidateLiquidityPositions(uint256)": {
        "details": "removes all the active range positions and gives liquidator a percent of notional amount closed + fixedFee",
        "params": {
          "accountId": "account id"
        }
      },
      "liquidateLiquidityPositionsWithGasClaim(uint256,uint256)": {
        "details": "removes all the active range positions and gives liquidator a percent of notional amount closed + fixedFee",
        "params": {
          "accountId": "account id",
          "gasComputationUnitsClaim": "estimated computation gas units, if more than actual, tx will revert"
        },
        "returns": {
          "keeperFee": ": amount of fees paid to caller"
        }
      },
      "liquidateTokenPosition(uint256,uint256,uint32,uint16)": {
        "details": "transfers the fraction of token position at a discount to current price to liquidators account and gives liquidator some fixedFee",
        "params": {
          "liquidationBps": "fraction of the token position to be transferred in BPS",
          "liquidatorAccountId": "liquidator account id",
          "poolId": "truncated address of token to withdraw",
          "targetAccountId": "account id"
        },
        "returns": {
          "liquidatorBalanceAdjustments": "- balance changes in liquidator vQuote and token balance and net token position"
        }
      },
      "liquidateTokenPositionWithGasClaim(uint256,uint256,uint32,uint16,uint256)": {
        "details": "transfers the fraction of token position at a discount to current price to liquidators account and gives liquidator some fixedFee",
        "params": {
          "gasComputationUnitsClaim": "estimated computation gas units, if more than actual, tx will revert",
          "liquidationBps": "fraction of the token position to be transferred in BPS",
          "liquidatorAccountId": "liquidator account id",
          "poolId": "truncated address of token to withdraw",
          "targetAccountId": "account id"
        },
        "returns": {
          "liquidatorBalanceAdjustments": "- balance changes in liquidator vQuote and token balance and net token position"
        }
      },
      "multicall(bytes[])": {
        "details": "The `msg.value` should not be trusted for any method callable from multicall.",
        "params": {
          "data": "The encoded function data for each of the calls to make to this contract"
        },
        "returns": {
          "results": "The results from each of the calls passed in via data"
        }
      },
      "paused()": {
        "details": "Returns true if the contract is paused, and false otherwise."
      },
      "removeLimitOrder(uint256,uint32,int24,int24)": {
        "details": "checks the position of current price relative to limit order and checks limitOrderType",
        "params": {
          "accountId": "account id",
          "poolId": "truncated address of token to withdraw",
          "tickLower": "liquidity change parameters",
          "tickUpper": "liquidity change parameters"
        }
      },
      "removeMargin(uint256,uint32,uint256)": {
        "params": {
          "accountId": "account id",
          "amount": "amount of token to withdraw",
          "poolId": "truncated address of token to withdraw"
        }
      },
      "swapToken(uint256,uint32,(int256,uint160,bool,bool))": {
        "params": {
          "accountId": "account id",
          "poolId": "truncated address of token to withdraw",
          "swapParams": "swap parameters"
        }
      },
      "teamMultisig()": {
        "details": "Returns the address of the current team multisig.transferTeamMultisig"
      },
      "transferGovernance(address)": {
        "details": "Transfers governance to a new account (`newGovernance`). Can only be called by the current governance."
      },
      "transferTeamMultisig(address)": {
        "details": "Transfers teamMultisig to a new account (`newTeamMultisig`). Can only be called by the current teamMultisig or current governance."
      },
      "updatePoolSettings(uint32,(uint16,uint16,uint32,bool,bool,address))": {
        "params": {
          "newSettings": "updated rage trade pool settings",
          "poolId": "rage trade pool id"
        }
      },
      "updateProfit(uint256,int256)": {
        "params": {
          "accountId": "account id",
          "amount": "amount of token to withdraw"
        }
      },
      "updateRangeOrder(uint256,uint32,(int24,int24,int128,uint160,uint16,bool,uint8))": {
        "params": {
          "accountId": "account id",
          "liquidityChangeParams": "liquidity change parameters",
          "poolId": "truncated address of token to withdraw"
        }
      },
      "withdrawProtocolFee(address[])": {
        "params": {
          "wrapperAddresses": "list of wrapper addresses to collect fees from"
        }
      }
    },
    "version": 1
  },
  "userdoc": {
    "errors": {
      "AccessDenied(address)": [
        {
          "notice": "error to denote invalid account access"
        }
      ],
      "CollateralDoesNotExist(uint32)": [
        {
          "notice": "error to denote usage of uninitialized token"
        }
      ],
      "CollateralNotAllowedForUse(uint32)": [
        {
          "notice": "error to denote usage of unsupported collateral token"
        }
      ],
      "IncorrectCollateralAddress(address,address)": [
        {
          "notice": "error to denote incorrect address is supplied while updating collateral settings"
        }
      ],
      "InvalidCollateralAddress(address)": [
        {
          "notice": "error to denote invalid address supplied as a collateral token"
        }
      ],
      "InvalidMulticallOperationType(uint8)": [
        {
          "notice": "this is errored when the enum (uint8) value is out of bounds"
        }
      ],
      "InvalidTokenLiquidationParameters()": [
        {
          "notice": "error to denote invalid token liquidation (fraction to liquidate> 1)"
        }
      ],
      "KeeperFeeNotPositive(int256)": [
        {
          "notice": "error to denote that keeper fee is negative or zero"
        }
      ],
      "LowNotionalValue(uint256)": [
        {
          "notice": "error to denote low notional value of txn"
        }
      ],
      "PoolDoesNotExist(uint32)": [
        {
          "notice": "error to denote usage of uninitialized pool"
        }
      ],
      "PoolNotAllowedForTrade(uint32)": [
        {
          "notice": "error to denote usage of unsupported pool"
        }
      ],
      "SlippageBeyondTolerance()": [
        {
          "notice": "error to denote slippage of txn beyond set threshold"
        }
      ]
    },
    "events": {
      "AccountCreated(address,uint256)": {
        "notice": "denotes new account creation"
      },
      "CollateralSettingsUpdated(address,(address,uint32,bool))": {
        "notice": "new collateral supported as margin"
      },
      "MarginAdded(uint256,uint32,uint256)": {
        "notice": "denotes deposit of margin"
      },
      "MarginRemoved(uint256,uint32,uint256)": {
        "notice": "denotes withdrawal of margin"
      },
      "PoolSettingsUpdated(uint32,(uint16,uint16,uint32,bool,bool,address))": {
        "notice": "maintainance margin ratio of a pool changed"
      },
      "ProtocolSettingsUpdated((uint16,uint16,uint16,uint128),uint256,uint256,uint256)": {
        "notice": "protocol settings changed"
      }
    },
    "kind": "user",
    "methods": {
      "__initialize_ClearingHouse(address,address,address,address,address,address)": {
        "notice": "SYSTEM FUNCTIONS"
      },
      "addMargin(uint256,uint32,uint256)": {
        "notice": "deposits 'amount' of token associated with 'poolId'"
      },
      "createAccount()": {
        "notice": "creates a new account and adds it to the accounts map"
      },
      "createAccountAndAddMargin(uint32,uint256)": {
        "notice": "creates a new account and deposits 'amount' of token associated with 'poolId'"
      },
      "getAccountInfo(uint256)": {
        "notice": "Account.Info VIEW"
      },
      "getTwapPrices(uint32)": {
        "notice": "Gets the real and virtual prices from the respective oracle of the given poolId."
      },
      "liquidateLiquidityPositions(uint256)": {
        "notice": "keeper call for liquidation of range position"
      },
      "liquidateLiquidityPositionsWithGasClaim(uint256,uint256)": {
        "notice": "keeper call for liquidation of range position"
      },
      "liquidateTokenPosition(uint256,uint256,uint32,uint16)": {
        "notice": "keeper call for liquidation of token position"
      },
      "liquidateTokenPositionWithGasClaim(uint256,uint256,uint32,uint16,uint256)": {
        "notice": "keeper call for liquidation of token position"
      },
      "multicall(bytes[])": {
        "notice": "Call multiple functions in the current contract and return the data from all of them if they all succeed"
      },
      "multicallWithSingleMarginCheck(uint256,(uint8,bytes)[])": {
        "notice": "MULTICALL"
      },
      "protocolInfo()": {
        "notice": "Protocol.Info VIEW"
      },
      "removeLimitOrder(uint256,uint32,int24,int24)": {
        "notice": "keeper call to remove a limit order"
      },
      "removeLimitOrderWithGasClaim(uint256,uint32,int24,int24,uint256)": {
        "notice": "ALTERNATE LIQUIDATION METHODS FOR FIX FEE CLAIM"
      },
      "removeMargin(uint256,uint32,uint256)": {
        "notice": "withdraws 'amount' of token associated with 'poolId'"
      },
      "swapToken(uint256,uint32,(int256,uint160,bool,bool))": {
        "notice": "swaps token associated with 'poolId' by 'amount' (Long if amount>0 else Short)"
      },
      "updateCollateralSettings(address,(address,uint32,bool))": {
        "notice": "ADMIN FUNCTIONS"
      },
      "updatePoolSettings(uint32,(uint16,uint16,uint32,bool,bool,address))": {
        "notice": "updates the rage trade pool settings"
      },
      "updateProfit(uint256,int256)": {
        "notice": "withdraws 'amount' of settlement token from the profit made"
      },
      "updateRangeOrder(uint256,uint32,(int24,int24,int128,uint160,uint16,bool,uint8))": {
        "notice": "updates range order of token associated with 'poolId' by 'liquidityDelta' (Adds if amount>0 else Removes)also can be used to update limitOrderType"
      },
      "withdrawProtocolFee(address[])": {
        "notice": "withdraws protocol fees collected in the supplied wrappers to team multisig"
      }
    },
    "version": 1
  },
  "storageLayout": {
    "storage": [
      {
        "astId": 21193,
        "contract": "contracts/protocol/clearinghouse/ClearingHouseArbitrum.sol:ClearingHouseArbitrum",
        "label": "_emptySlots1",
        "offset": 0,
        "slot": "0",
        "type": "t_array(t_uint256)100_storage"
      },
      {
        "astId": 21196,
        "contract": "contracts/protocol/clearinghouse/ClearingHouseArbitrum.sol:ClearingHouseArbitrum",
        "label": "protocol",
        "offset": 0,
        "slot": "100",
        "type": "t_struct(Info)13399_storage"
      },
      {
        "astId": 21198,
        "contract": "contracts/protocol/clearinghouse/ClearingHouseArbitrum.sol:ClearingHouseArbitrum",
        "label": "numAccounts",
        "offset": 0,
        "slot": "208",
        "type": "t_uint256"
      },
      {
        "astId": 21203,
        "contract": "contracts/protocol/clearinghouse/ClearingHouseArbitrum.sol:ClearingHouseArbitrum",
        "label": "accounts",
        "offset": 0,
        "slot": "209",
        "type": "t_mapping(t_uint256,t_struct(Info)9018_storage)"
      },
      {
        "astId": 21205,
        "contract": "contracts/protocol/clearinghouse/ClearingHouseArbitrum.sol:ClearingHouseArbitrum",
        "label": "rageTradeFactoryAddress",
        "offset": 0,
        "slot": "210",
        "type": "t_address"
      },
      {
        "astId": 21208,
        "contract": "contracts/protocol/clearinghouse/ClearingHouseArbitrum.sol:ClearingHouseArbitrum",
        "label": "insuranceFund",
        "offset": 0,
        "slot": "211",
        "type": "t_contract(IInsuranceFund)8012"
      },
      {
        "astId": 21211,
        "contract": "contracts/protocol/clearinghouse/ClearingHouseArbitrum.sol:ClearingHouseArbitrum",
        "label": "nativeOracle",
        "offset": 0,
        "slot": "212",
        "type": "t_contract(IOracle)8022"
      },
      {
        "astId": 21215,
        "contract": "contracts/protocol/clearinghouse/ClearingHouseArbitrum.sol:ClearingHouseArbitrum",
        "label": "_emptySlots2",
        "offset": 0,
        "slot": "213",
        "type": "t_array(t_uint256)100_storage"
      },
      {
        "astId": 299,
        "contract": "contracts/protocol/clearinghouse/ClearingHouseArbitrum.sol:ClearingHouseArbitrum",
        "label": "_initialized",
        "offset": 0,
        "slot": "313",
        "type": "t_bool"
      },
      {
        "astId": 302,
        "contract": "contracts/protocol/clearinghouse/ClearingHouseArbitrum.sol:ClearingHouseArbitrum",
        "label": "_initializing",
        "offset": 1,
        "slot": "313",
        "type": "t_bool"
      },
      {
        "astId": 1477,
        "contract": "contracts/protocol/clearinghouse/ClearingHouseArbitrum.sol:ClearingHouseArbitrum",
        "label": "__gap",
        "offset": 0,
        "slot": "314",
        "type": "t_array(t_uint256)50_storage"
      },
      {
        "astId": 387,
        "contract": "contracts/protocol/clearinghouse/ClearingHouseArbitrum.sol:ClearingHouseArbitrum",
        "label": "_paused",
        "offset": 0,
        "slot": "364",
        "type": "t_bool"
      },
      {
        "astId": 476,
        "contract": "contracts/protocol/clearinghouse/ClearingHouseArbitrum.sol:ClearingHouseArbitrum",
        "label": "__gap",
        "offset": 0,
        "slot": "365",
        "type": "t_array(t_uint256)49_storage"
      },
      {
        "astId": 28483,
        "contract": "contracts/protocol/clearinghouse/ClearingHouseArbitrum.sol:ClearingHouseArbitrum",
        "label": "_governance",
        "offset": 0,
        "slot": "414",
        "type": "t_address"
      },
      {
        "astId": 28485,
        "contract": "contracts/protocol/clearinghouse/ClearingHouseArbitrum.sol:ClearingHouseArbitrum",
        "label": "_teamMultisig",
        "offset": 0,
        "slot": "415",
        "type": "t_address"
      },
      {
        "astId": 29101,
        "contract": "contracts/protocol/clearinghouse/ClearingHouseArbitrum.sol:ClearingHouseArbitrum",
        "label": "txGasPriceLimit",
        "offset": 0,
        "slot": "416",
        "type": "t_uint256"
      }
    ],
    "types": {
      "t_address": {
        "encoding": "inplace",
        "label": "address",
        "numberOfBytes": "20"
      },
      "t_array(t_uint256)100_storage": {
        "base": "t_uint256",
        "encoding": "inplace",
        "label": "uint256[100]",
        "numberOfBytes": "3200"
      },
      "t_array(t_uint256)49_storage": {
        "base": "t_uint256",
        "encoding": "inplace",
        "label": "uint256[49]",
        "numberOfBytes": "1568"
      },
      "t_array(t_uint256)50_storage": {
        "base": "t_uint256",
        "encoding": "inplace",
        "label": "uint256[50]",
        "numberOfBytes": "1600"
      },
      "t_array(t_uint32)8_storage": {
        "base": "t_uint32",
        "encoding": "inplace",
        "label": "uint32[8]",
        "numberOfBytes": "32"
      },
      "t_array(t_uint48)5_storage": {
        "base": "t_uint48",
        "encoding": "inplace",
        "label": "uint48[5]",
        "numberOfBytes": "32"
      },
      "t_bool": {
        "encoding": "inplace",
        "label": "bool",
        "numberOfBytes": "1"
      },
      "t_contract(IERC20)3616": {
        "encoding": "inplace",
        "label": "contract IERC20",
        "numberOfBytes": "20"
      },
      "t_contract(IInsuranceFund)8012": {
        "encoding": "inplace",
        "label": "contract IInsuranceFund",
        "numberOfBytes": "20"
      },
      "t_contract(IOracle)8022": {
        "encoding": "inplace",
        "label": "contract IOracle",
        "numberOfBytes": "20"
      },
      "t_contract(IUniswapV3Pool)5523": {
        "encoding": "inplace",
        "label": "contract IUniswapV3Pool",
        "numberOfBytes": "20"
      },
      "t_contract(IVPoolWrapper)8210": {
        "encoding": "inplace",
        "label": "contract IVPoolWrapper",
        "numberOfBytes": "20"
      },
      "t_contract(IVQuote)8234": {
        "encoding": "inplace",
        "label": "contract IVQuote",
        "numberOfBytes": "20"
      },
      "t_contract(IVToken)8258": {
        "encoding": "inplace",
        "label": "contract IVToken",
        "numberOfBytes": "20"
      },
      "t_enum(LimitOrderType)8493": {
        "encoding": "inplace",
        "label": "enum IClearingHouseEnums.LimitOrderType",
        "numberOfBytes": "1"
      },
      "t_int24": {
        "encoding": "inplace",
        "label": "int24",
        "numberOfBytes": "3"
      },
      "t_int256": {
        "encoding": "inplace",
        "label": "int256",
        "numberOfBytes": "32"
      },
      "t_mapping(t_uint256,t_struct(Info)9018_storage)": {
        "encoding": "mapping",
        "key": "t_uint256",
        "label": "mapping(uint256 => struct Account.Info)",
        "numberOfBytes": "32",
        "value": "t_struct(Info)9018_storage"
      },
      "t_mapping(t_uint32,t_struct(Collateral)8652_storage)": {
        "encoding": "mapping",
        "key": "t_uint32",
        "label": "mapping(uint32 => struct IClearingHouseStructures.Collateral)",
        "numberOfBytes": "32",
        "value": "t_struct(Collateral)8652_storage"
      },
      "t_mapping(t_uint32,t_struct(Info)16724_storage)": {
        "encoding": "mapping",
        "key": "t_uint32",
        "label": "mapping(uint32 => struct VTokenPosition.Info)",
        "numberOfBytes": "32",
        "value": "t_struct(Info)16724_storage"
      },
      "t_mapping(t_uint32,t_struct(Pool)8730_storage)": {
        "encoding": "mapping",
        "key": "t_uint32",
        "label": "mapping(uint32 => struct IClearingHouseStructures.Pool)",
        "numberOfBytes": "32",
        "value": "t_struct(Pool)8730_storage"
      },
      "t_mapping(t_uint32,t_uint256)": {
        "encoding": "mapping",
        "key": "t_uint32",
        "label": "mapping(uint32 => uint256)",
        "numberOfBytes": "32",
        "value": "t_uint256"
      },
      "t_mapping(t_uint48,t_struct(Info)11491_storage)": {
        "encoding": "mapping",
        "key": "t_uint48",
        "label": "mapping(uint48 => struct LiquidityPosition.Info)",
        "numberOfBytes": "32",
        "value": "t_struct(Info)11491_storage"
      },
      "t_struct(Collateral)8652_storage": {
        "encoding": "inplace",
        "label": "struct IClearingHouseStructures.Collateral",
        "members": [
          {
            "astId": 8648,
            "contract": "contracts/protocol/clearinghouse/ClearingHouseArbitrum.sol:ClearingHouseArbitrum",
            "label": "token",
            "offset": 0,
            "slot": "0",
            "type": "t_contract(IERC20)3616"
          },
          {
            "astId": 8651,
            "contract": "contracts/protocol/clearinghouse/ClearingHouseArbitrum.sol:ClearingHouseArbitrum",
            "label": "settings",
            "offset": 0,
            "slot": "1",
            "type": "t_struct(CollateralSettings)8660_storage"
          }
        ],
        "numberOfBytes": "64"
      },
      "t_struct(CollateralSettings)8660_storage": {
        "encoding": "inplace",
        "label": "struct IClearingHouseStructures.CollateralSettings",
        "members": [
          {
            "astId": 8655,
            "contract": "contracts/protocol/clearinghouse/ClearingHouseArbitrum.sol:ClearingHouseArbitrum",
            "label": "oracle",
            "offset": 0,
            "slot": "0",
            "type": "t_contract(IOracle)8022"
          },
          {
            "astId": 8657,
            "contract": "contracts/protocol/clearinghouse/ClearingHouseArbitrum.sol:ClearingHouseArbitrum",
            "label": "twapDuration",
            "offset": 20,
            "slot": "0",
            "type": "t_uint32"
          },
          {
            "astId": 8659,
            "contract": "contracts/protocol/clearinghouse/ClearingHouseArbitrum.sol:ClearingHouseArbitrum",
            "label": "isAllowedForDeposit",
            "offset": 24,
            "slot": "0",
            "type": "t_bool"
          }
        ],
        "numberOfBytes": "32"
      },
      "t_struct(Info)11491_storage": {
        "encoding": "inplace",
        "label": "struct LiquidityPosition.Info",
        "members": [
          {
            "astId": 11470,
            "contract": "contracts/protocol/clearinghouse/ClearingHouseArbitrum.sol:ClearingHouseArbitrum",
            "label": "limitOrderType",
            "offset": 0,
            "slot": "0",
            "type": "t_enum(LimitOrderType)8493"
          },
          {
            "astId": 11472,
            "contract": "contracts/protocol/clearinghouse/ClearingHouseArbitrum.sol:ClearingHouseArbitrum",
            "label": "tickLower",
            "offset": 1,
            "slot": "0",
            "type": "t_int24"
          },
          {
            "astId": 11474,
            "contract": "contracts/protocol/clearinghouse/ClearingHouseArbitrum.sol:ClearingHouseArbitrum",
            "label": "tickUpper",
            "offset": 4,
            "slot": "0",
            "type": "t_int24"
          },
          {
            "astId": 11476,
            "contract": "contracts/protocol/clearinghouse/ClearingHouseArbitrum.sol:ClearingHouseArbitrum",
            "label": "liquidity",
            "offset": 7,
            "slot": "0",
            "type": "t_uint128"
          },
          {
            "astId": 11478,
            "contract": "contracts/protocol/clearinghouse/ClearingHouseArbitrum.sol:ClearingHouseArbitrum",
            "label": "vTokenAmountIn",
            "offset": 0,
            "slot": "1",
            "type": "t_int256"
          },
          {
            "astId": 11480,
            "contract": "contracts/protocol/clearinghouse/ClearingHouseArbitrum.sol:ClearingHouseArbitrum",
            "label": "sumALastX128",
            "offset": 0,
            "slot": "2",
            "type": "t_int256"
          },
          {
            "astId": 11482,
            "contract": "contracts/protocol/clearinghouse/ClearingHouseArbitrum.sol:ClearingHouseArbitrum",
            "label": "sumBInsideLastX128",
            "offset": 0,
            "slot": "3",
            "type": "t_int256"
          },
          {
            "astId": 11484,
            "contract": "contracts/protocol/clearinghouse/ClearingHouseArbitrum.sol:ClearingHouseArbitrum",
            "label": "sumFpInsideLastX128",
            "offset": 0,
            "slot": "4",
            "type": "t_int256"
          },
          {
            "astId": 11486,
            "contract": "contracts/protocol/clearinghouse/ClearingHouseArbitrum.sol:ClearingHouseArbitrum",
            "label": "sumFeeInsideLastX128",
            "offset": 0,
            "slot": "5",
            "type": "t_uint256"
          },
          {
            "astId": 11490,
            "contract": "contracts/protocol/clearinghouse/ClearingHouseArbitrum.sol:ClearingHouseArbitrum",
            "label": "_emptySlots",
            "offset": 0,
            "slot": "6",
            "type": "t_array(t_uint256)100_storage"
          }
        ],
        "numberOfBytes": "3392"
      },
      "t_struct(Info)13399_storage": {
        "encoding": "inplace",
        "label": "struct Protocol.Info",
        "members": [
          {
            "astId": 13374,
            "contract": "contracts/protocol/clearinghouse/ClearingHouseArbitrum.sol:ClearingHouseArbitrum",
            "label": "pools",
            "offset": 0,
            "slot": "0",
            "type": "t_mapping(t_uint32,t_struct(Pool)8730_storage)"
          },
          {
            "astId": 13379,
            "contract": "contracts/protocol/clearinghouse/ClearingHouseArbitrum.sol:ClearingHouseArbitrum",
            "label": "collaterals",
            "offset": 0,
            "slot": "1",
            "type": "t_mapping(t_uint32,t_struct(Collateral)8652_storage)"
          },
          {
            "astId": 13382,
            "contract": "contracts/protocol/clearinghouse/ClearingHouseArbitrum.sol:ClearingHouseArbitrum",
            "label": "settlementToken",
            "offset": 0,
            "slot": "2",
            "type": "t_contract(IERC20)3616"
          },
          {
            "astId": 13385,
            "contract": "contracts/protocol/clearinghouse/ClearingHouseArbitrum.sol:ClearingHouseArbitrum",
            "label": "vQuote",
            "offset": 0,
            "slot": "3",
            "type": "t_contract(IVQuote)8234"
          },
          {
            "astId": 13388,
            "contract": "contracts/protocol/clearinghouse/ClearingHouseArbitrum.sol:ClearingHouseArbitrum",
            "label": "liquidationParams",
            "offset": 0,
            "slot": "4",
            "type": "t_struct(LiquidationParams)8711_storage"
          },
          {
            "astId": 13390,
            "contract": "contracts/protocol/clearinghouse/ClearingHouseArbitrum.sol:ClearingHouseArbitrum",
            "label": "minRequiredMargin",
            "offset": 0,
            "slot": "5",
            "type": "t_uint256"
          },
          {
            "astId": 13392,
            "contract": "contracts/protocol/clearinghouse/ClearingHouseArbitrum.sol:ClearingHouseArbitrum",
            "label": "removeLimitOrderFee",
            "offset": 0,
            "slot": "6",
            "type": "t_uint256"
          },
          {
            "astId": 13394,
            "contract": "contracts/protocol/clearinghouse/ClearingHouseArbitrum.sol:ClearingHouseArbitrum",
            "label": "minimumOrderNotional",
            "offset": 0,
            "slot": "7",
            "type": "t_uint256"
          },
          {
            "astId": 13398,
            "contract": "contracts/protocol/clearinghouse/ClearingHouseArbitrum.sol:ClearingHouseArbitrum",
            "label": "_emptySlots",
            "offset": 0,
            "slot": "8",
            "type": "t_array(t_uint256)100_storage"
          }
        ],
        "numberOfBytes": "3456"
      },
      "t_struct(Info)16724_storage": {
        "encoding": "inplace",
        "label": "struct VTokenPosition.Info",
        "members": [
          {
            "astId": 16712,
            "contract": "contracts/protocol/clearinghouse/ClearingHouseArbitrum.sol:ClearingHouseArbitrum",
            "label": "balance",
            "offset": 0,
            "slot": "0",
            "type": "t_int256"
          },
          {
            "astId": 16714,
            "contract": "contracts/protocol/clearinghouse/ClearingHouseArbitrum.sol:ClearingHouseArbitrum",
            "label": "netTraderPosition",
            "offset": 0,
            "slot": "1",
            "type": "t_int256"
          },
          {
            "astId": 16716,
            "contract": "contracts/protocol/clearinghouse/ClearingHouseArbitrum.sol:ClearingHouseArbitrum",
            "label": "sumAX128Chkpt",
            "offset": 0,
            "slot": "2",
            "type": "t_int256"
          },
          {
            "astId": 16719,
            "contract": "contracts/protocol/clearinghouse/ClearingHouseArbitrum.sol:ClearingHouseArbitrum",
            "label": "liquidityPositions",
            "offset": 0,
            "slot": "3",
            "type": "t_struct(Set)11467_storage"
          },
          {
            "astId": 16723,
            "contract": "contracts/protocol/clearinghouse/ClearingHouseArbitrum.sol:ClearingHouseArbitrum",
            "label": "_emptySlots",
            "offset": 0,
            "slot": "105",
            "type": "t_array(t_uint256)100_storage"
          }
        ],
        "numberOfBytes": "6560"
      },
      "t_struct(Info)9018_storage": {
        "encoding": "inplace",
        "label": "struct Account.Info",
        "members": [
          {
            "astId": 9005,
            "contract": "contracts/protocol/clearinghouse/ClearingHouseArbitrum.sol:ClearingHouseArbitrum",
            "label": "id",
            "offset": 0,
            "slot": "0",
            "type": "t_uint96"
          },
          {
            "astId": 9007,
            "contract": "contracts/protocol/clearinghouse/ClearingHouseArbitrum.sol:ClearingHouseArbitrum",
            "label": "owner",
            "offset": 12,
            "slot": "0",
            "type": "t_address"
          },
          {
            "astId": 9010,
            "contract": "contracts/protocol/clearinghouse/ClearingHouseArbitrum.sol:ClearingHouseArbitrum",
            "label": "tokenPositions",
            "offset": 0,
            "slot": "1",
            "type": "t_struct(Set)16710_storage"
          },
          {
            "astId": 9013,
            "contract": "contracts/protocol/clearinghouse/ClearingHouseArbitrum.sol:ClearingHouseArbitrum",
            "label": "collateralDeposits",
            "offset": 0,
            "slot": "104",
            "type": "t_struct(Set)10798_storage"
          },
          {
            "astId": 9017,
            "contract": "contracts/protocol/clearinghouse/ClearingHouseArbitrum.sol:ClearingHouseArbitrum",
            "label": "_emptySlots",
            "offset": 0,
            "slot": "206",
            "type": "t_array(t_uint256)100_storage"
          }
        ],
        "numberOfBytes": "9792"
      },
      "t_struct(LiquidationParams)8711_storage": {
        "encoding": "inplace",
        "label": "struct IClearingHouseStructures.LiquidationParams",
        "members": [
          {
            "astId": 8704,
            "contract": "contracts/protocol/clearinghouse/ClearingHouseArbitrum.sol:ClearingHouseArbitrum",
            "label": "liquidationFeeFraction",
            "offset": 0,
            "slot": "0",
            "type": "t_uint16"
          },
          {
            "astId": 8706,
            "contract": "contracts/protocol/clearinghouse/ClearingHouseArbitrum.sol:ClearingHouseArbitrum",
            "label": "tokenLiquidationPriceDeltaBps",
            "offset": 2,
            "slot": "0",
            "type": "t_uint16"
          },
          {
            "astId": 8708,
            "contract": "contracts/protocol/clearinghouse/ClearingHouseArbitrum.sol:ClearingHouseArbitrum",
            "label": "insuranceFundFeeShareBps",
            "offset": 4,
            "slot": "0",
            "type": "t_uint16"
          },
          {
            "astId": 8710,
            "contract": "contracts/protocol/clearinghouse/ClearingHouseArbitrum.sol:ClearingHouseArbitrum",
            "label": "maxRangeLiquidationFees",
            "offset": 6,
            "slot": "0",
            "type": "t_uint128"
          }
        ],
        "numberOfBytes": "32"
      },
      "t_struct(Pool)8730_storage": {
        "encoding": "inplace",
        "label": "struct IClearingHouseStructures.Pool",
        "members": [
          {
            "astId": 8720,
            "contract": "contracts/protocol/clearinghouse/ClearingHouseArbitrum.sol:ClearingHouseArbitrum",
            "label": "vToken",
            "offset": 0,
            "slot": "0",
            "type": "t_contract(IVToken)8258"
          },
          {
            "astId": 8723,
            "contract": "contracts/protocol/clearinghouse/ClearingHouseArbitrum.sol:ClearingHouseArbitrum",
            "label": "vPool",
            "offset": 0,
            "slot": "1",
            "type": "t_contract(IUniswapV3Pool)5523"
          },
          {
            "astId": 8726,
            "contract": "contracts/protocol/clearinghouse/ClearingHouseArbitrum.sol:ClearingHouseArbitrum",
            "label": "vPoolWrapper",
            "offset": 0,
            "slot": "2",
            "type": "t_contract(IVPoolWrapper)8210"
          },
          {
            "astId": 8729,
            "contract": "contracts/protocol/clearinghouse/ClearingHouseArbitrum.sol:ClearingHouseArbitrum",
            "label": "settings",
            "offset": 0,
            "slot": "3",
            "type": "t_struct(PoolSettings)8744_storage"
          }
        ],
        "numberOfBytes": "128"
      },
      "t_struct(PoolSettings)8744_storage": {
        "encoding": "inplace",
        "label": "struct IClearingHouseStructures.PoolSettings",
        "members": [
          {
            "astId": 8732,
            "contract": "contracts/protocol/clearinghouse/ClearingHouseArbitrum.sol:ClearingHouseArbitrum",
            "label": "initialMarginRatio",
            "offset": 0,
            "slot": "0",
            "type": "t_uint16"
          },
          {
            "astId": 8734,
            "contract": "contracts/protocol/clearinghouse/ClearingHouseArbitrum.sol:ClearingHouseArbitrum",
            "label": "maintainanceMarginRatio",
            "offset": 2,
            "slot": "0",
            "type": "t_uint16"
          },
          {
            "astId": 8736,
            "contract": "contracts/protocol/clearinghouse/ClearingHouseArbitrum.sol:ClearingHouseArbitrum",
            "label": "twapDuration",
            "offset": 4,
            "slot": "0",
            "type": "t_uint32"
          },
          {
            "astId": 8738,
            "contract": "contracts/protocol/clearinghouse/ClearingHouseArbitrum.sol:ClearingHouseArbitrum",
            "label": "isAllowedForTrade",
            "offset": 8,
            "slot": "0",
            "type": "t_bool"
          },
          {
            "astId": 8740,
            "contract": "contracts/protocol/clearinghouse/ClearingHouseArbitrum.sol:ClearingHouseArbitrum",
            "label": "isCrossMargined",
            "offset": 9,
            "slot": "0",
            "type": "t_bool"
          },
          {
            "astId": 8743,
            "contract": "contracts/protocol/clearinghouse/ClearingHouseArbitrum.sol:ClearingHouseArbitrum",
            "label": "oracle",
            "offset": 10,
            "slot": "0",
            "type": "t_contract(IOracle)8022"
          }
        ],
        "numberOfBytes": "32"
      },
      "t_struct(Set)10798_storage": {
        "encoding": "inplace",
        "label": "struct CollateralDeposit.Set",
        "members": [
          {
            "astId": 10789,
            "contract": "contracts/protocol/clearinghouse/ClearingHouseArbitrum.sol:ClearingHouseArbitrum",
            "label": "active",
            "offset": 0,
            "slot": "0",
            "type": "t_array(t_uint32)8_storage"
          },
          {
            "astId": 10793,
            "contract": "contracts/protocol/clearinghouse/ClearingHouseArbitrum.sol:ClearingHouseArbitrum",
            "label": "deposits",
            "offset": 0,
            "slot": "1",
            "type": "t_mapping(t_uint32,t_uint256)"
          },
          {
            "astId": 10797,
            "contract": "contracts/protocol/clearinghouse/ClearingHouseArbitrum.sol:ClearingHouseArbitrum",
            "label": "_emptySlots",
            "offset": 0,
            "slot": "2",
            "type": "t_array(t_uint256)100_storage"
          }
        ],
        "numberOfBytes": "3264"
      },
      "t_struct(Set)11467_storage": {
        "encoding": "inplace",
        "label": "struct LiquidityPosition.Set",
        "members": [
          {
            "astId": 11457,
            "contract": "contracts/protocol/clearinghouse/ClearingHouseArbitrum.sol:ClearingHouseArbitrum",
            "label": "active",
            "offset": 0,
            "slot": "0",
            "type": "t_array(t_uint48)5_storage"
          },
          {
            "astId": 11462,
            "contract": "contracts/protocol/clearinghouse/ClearingHouseArbitrum.sol:ClearingHouseArbitrum",
            "label": "positions",
            "offset": 0,
            "slot": "1",
            "type": "t_mapping(t_uint48,t_struct(Info)11491_storage)"
          },
          {
            "astId": 11466,
            "contract": "contracts/protocol/clearinghouse/ClearingHouseArbitrum.sol:ClearingHouseArbitrum",
            "label": "_emptySlots",
            "offset": 0,
            "slot": "2",
            "type": "t_array(t_uint256)100_storage"
          }
        ],
        "numberOfBytes": "3264"
      },
      "t_struct(Set)16710_storage": {
        "encoding": "inplace",
        "label": "struct VTokenPosition.Set",
        "members": [
          {
            "astId": 16698,
            "contract": "contracts/protocol/clearinghouse/ClearingHouseArbitrum.sol:ClearingHouseArbitrum",
            "label": "active",
            "offset": 0,
            "slot": "0",
            "type": "t_array(t_uint32)8_storage"
          },
          {
            "astId": 16703,
            "contract": "contracts/protocol/clearinghouse/ClearingHouseArbitrum.sol:ClearingHouseArbitrum",
            "label": "positions",
            "offset": 0,
            "slot": "1",
            "type": "t_mapping(t_uint32,t_struct(Info)16724_storage)"
          },
          {
            "astId": 16705,
            "contract": "contracts/protocol/clearinghouse/ClearingHouseArbitrum.sol:ClearingHouseArbitrum",
            "label": "vQuoteBalance",
            "offset": 0,
            "slot": "2",
            "type": "t_int256"
          },
          {
            "astId": 16709,
            "contract": "contracts/protocol/clearinghouse/ClearingHouseArbitrum.sol:ClearingHouseArbitrum",
            "label": "_emptySlots",
            "offset": 0,
            "slot": "3",
            "type": "t_array(t_uint256)100_storage"
          }
        ],
        "numberOfBytes": "3296"
      },
      "t_uint128": {
        "encoding": "inplace",
        "label": "uint128",
        "numberOfBytes": "16"
      },
      "t_uint16": {
        "encoding": "inplace",
        "label": "uint16",
        "numberOfBytes": "2"
      },
      "t_uint256": {
        "encoding": "inplace",
        "label": "uint256",
        "numberOfBytes": "32"
      },
      "t_uint32": {
        "encoding": "inplace",
        "label": "uint32",
        "numberOfBytes": "4"
      },
      "t_uint48": {
        "encoding": "inplace",
        "label": "uint48",
        "numberOfBytes": "6"
      },
      "t_uint96": {
        "encoding": "inplace",
        "label": "uint96",
        "numberOfBytes": "12"
      }
    }
  }
}