{
  "address": "0x6270b81AaF4f669F621E12C355625105902ae553",
  "abi": [
    {
      "inputs": [],
      "name": "Unauthorised",
      "type": "error"
    },
    {
      "anonymous": false,
      "inputs": [
        {
          "indexed": true,
          "internalType": "address",
          "name": "owner",
          "type": "address"
        },
        {
          "indexed": true,
          "internalType": "address",
          "name": "spender",
          "type": "address"
        },
        {
          "indexed": false,
          "internalType": "uint256",
          "name": "value",
          "type": "uint256"
        }
      ],
      "name": "Approval",
      "type": "event"
    },
    {
      "anonymous": false,
      "inputs": [
        {
          "indexed": true,
          "internalType": "address",
          "name": "from",
          "type": "address"
        },
        {
          "indexed": true,
          "internalType": "address",
          "name": "to",
          "type": "address"
        },
        {
          "indexed": false,
          "internalType": "uint256",
          "name": "value",
          "type": "uint256"
        }
      ],
      "name": "Transfer",
      "type": "event"
    },
    {
      "inputs": [
        {
          "internalType": "contract IERC20",
          "name": "_settlementToken",
          "type": "address"
        },
        {
          "internalType": "contract IClearingHouse",
          "name": "_clearingHouse",
          "type": "address"
        },
        {
          "internalType": "string",
          "name": "name",
          "type": "string"
        },
        {
          "internalType": "string",
          "name": "symbol",
          "type": "string"
        }
      ],
      "name": "__initialize_InsuranceFund",
      "outputs": [],
      "stateMutability": "nonpayable",
      "type": "function"
    },
    {
      "inputs": [
        {
          "internalType": "address",
          "name": "owner",
          "type": "address"
        },
        {
          "internalType": "address",
          "name": "spender",
          "type": "address"
        }
      ],
      "name": "allowance",
      "outputs": [
        {
          "internalType": "uint256",
          "name": "",
          "type": "uint256"
        }
      ],
      "stateMutability": "view",
      "type": "function"
    },
    {
      "inputs": [
        {
          "internalType": "address",
          "name": "spender",
          "type": "address"
        },
        {
          "internalType": "uint256",
          "name": "amount",
          "type": "uint256"
        }
      ],
      "name": "approve",
      "outputs": [
        {
          "internalType": "bool",
          "name": "",
          "type": "bool"
        }
      ],
      "stateMutability": "nonpayable",
      "type": "function"
    },
    {
      "inputs": [
        {
          "internalType": "address",
          "name": "account",
          "type": "address"
        }
      ],
      "name": "balanceOf",
      "outputs": [
        {
          "internalType": "uint256",
          "name": "",
          "type": "uint256"
        }
      ],
      "stateMutability": "view",
      "type": "function"
    },
    {
      "inputs": [
        {
          "internalType": "uint256",
          "name": "amount",
          "type": "uint256"
        }
      ],
      "name": "claim",
      "outputs": [],
      "stateMutability": "nonpayable",
      "type": "function"
    },
    {
      "inputs": [],
      "name": "clearingHouse",
      "outputs": [
        {
          "internalType": "contract IClearingHouse",
          "name": "",
          "type": "address"
        }
      ],
      "stateMutability": "view",
      "type": "function"
    },
    {
      "inputs": [],
      "name": "decimals",
      "outputs": [
        {
          "internalType": "uint8",
          "name": "",
          "type": "uint8"
        }
      ],
      "stateMutability": "view",
      "type": "function"
    },
    {
      "inputs": [
        {
          "internalType": "address",
          "name": "spender",
          "type": "address"
        },
        {
          "internalType": "uint256",
          "name": "subtractedValue",
          "type": "uint256"
        }
      ],
      "name": "decreaseAllowance",
      "outputs": [
        {
          "internalType": "bool",
          "name": "",
          "type": "bool"
        }
      ],
      "stateMutability": "nonpayable",
      "type": "function"
    },
    {
      "inputs": [
        {
          "internalType": "uint256",
          "name": "amount",
          "type": "uint256"
        }
      ],
      "name": "deposit",
      "outputs": [],
      "stateMutability": "nonpayable",
      "type": "function"
    },
    {
      "inputs": [
        {
          "internalType": "address",
          "name": "spender",
          "type": "address"
        },
        {
          "internalType": "uint256",
          "name": "addedValue",
          "type": "uint256"
        }
      ],
      "name": "increaseAllowance",
      "outputs": [
        {
          "internalType": "bool",
          "name": "",
          "type": "bool"
        }
      ],
      "stateMutability": "nonpayable",
      "type": "function"
    },
    {
      "inputs": [],
      "name": "name",
      "outputs": [
        {
          "internalType": "string",
          "name": "",
          "type": "string"
        }
      ],
      "stateMutability": "view",
      "type": "function"
    },
    {
      "inputs": [],
      "name": "settlementToken",
      "outputs": [
        {
          "internalType": "contract IERC20",
          "name": "",
          "type": "address"
        }
      ],
      "stateMutability": "view",
      "type": "function"
    },
    {
      "inputs": [],
      "name": "symbol",
      "outputs": [
        {
          "internalType": "string",
          "name": "",
          "type": "string"
        }
      ],
      "stateMutability": "view",
      "type": "function"
    },
    {
      "inputs": [],
      "name": "totalSupply",
      "outputs": [
        {
          "internalType": "uint256",
          "name": "",
          "type": "uint256"
        }
      ],
      "stateMutability": "view",
      "type": "function"
    },
    {
      "inputs": [
        {
          "internalType": "address",
          "name": "to",
          "type": "address"
        },
        {
          "internalType": "uint256",
          "name": "amount",
          "type": "uint256"
        }
      ],
      "name": "transfer",
      "outputs": [
        {
          "internalType": "bool",
          "name": "",
          "type": "bool"
        }
      ],
      "stateMutability": "nonpayable",
      "type": "function"
    },
    {
      "inputs": [
        {
          "internalType": "address",
          "name": "from",
          "type": "address"
        },
        {
          "internalType": "address",
          "name": "to",
          "type": "address"
        },
        {
          "internalType": "uint256",
          "name": "amount",
          "type": "uint256"
        }
      ],
      "name": "transferFrom",
      "outputs": [
        {
          "internalType": "bool",
          "name": "",
          "type": "bool"
        }
      ],
      "stateMutability": "nonpayable",
      "type": "function"
    },
    {
      "inputs": [
        {
          "internalType": "uint256",
          "name": "shares",
          "type": "uint256"
        }
      ],
      "name": "withdraw",
      "outputs": [],
      "stateMutability": "nonpayable",
      "type": "function"
    }
  ],
  "transactionHash": "0x41dd64b32fa356906ac478ecf768ba890ae1333a2a07e9df14d08c27078d3e96",
  "args": [],
  "numDeployments": 1,
  "solcInputHash": "f51e2eca45877d432ab4f6c147bdf3df",
  "bytecode": "0x608060405234801561001057600080fd5b5061163d806100206000396000f3fe608060405234801561001057600080fd5b506004361061011b5760003560e01c806339509351116100b257806395d89b4111610081578063a9059cbb11610066578063a9059cbb14610265578063b6b55f2514610278578063dd62ed3e1461028b57600080fd5b806395d89b411461024a578063a457c2d71461025257600080fd5b806339509351146101e857806370a08231146101fb57806373e0d44e146102245780637b9e618d1461023757600080fd5b806323b872dd116100ee57806323b872dd1461019e5780632e1a7d4d146101b1578063313ce567146101c6578063379607f5146101d557600080fd5b806306fdde0314610120578063095ea7b31461013e5780630af968001461016157806318160ddd1461018c575b600080fd5b6101286102c4565b60405161013591906112ee565b60405180910390f35b61015161014c366004611336565b610356565b6040519015158152602001610135565b606654610174906001600160a01b031681565b6040516001600160a01b039091168152602001610135565b6035545b604051908152602001610135565b6101516101ac366004611362565b61036e565b6101c46101bf3660046113a3565b610394565b005b60405160128152602001610135565b6101c46101e33660046113a3565b610450565b6101516101f6366004611336565b610495565b6101906102093660046113bc565b6001600160a01b031660009081526033602052604090205490565b6101c4610232366004611422565b6104d4565b606554610174906001600160a01b031681565b610128610660565b610151610260366004611336565b61066f565b610151610273366004611336565b610724565b6101c46102863660046113a3565b610732565b6101906102993660046114b7565b6001600160a01b03918216600090815260346020908152604080832093909416825291909152205490565b6060603680546102d3906114f0565b80601f01602080910402602001604051908101604052809291908181526020018280546102ff906114f0565b801561034c5780601f106103215761010080835404028352916020019161034c565b820191906000526020600020905b81548152906001019060200180831161032f57829003601f168201915b5050505050905090565b600033610364818585610801565b5060019392505050565b60003361037c858285610926565b6103878585856109b2565b60019150505b9392505050565b6065546040516370a0823160e01b81523060048201526000916001600160a01b0316906370a0823190602401602060405180830381865afa1580156103dd573d6000803e3d6000fd5b505050506040513d601f19601f82011682018060405250810190610401919061152a565b9050600061040e60355490565b905060008161041d8486611559565b6104279190611578565b90506104333385610baf565b60655461044a906001600160a01b03163383610cfa565b50505050565b6066546001600160a01b0316331461047b57604051636bd1573560e11b815260040160405180910390fd5b606554610492906001600160a01b03163383610cfa565b50565b3360008181526034602090815260408083206001600160a01b038716845290915281205490919061036490829086906104cf90879061159a565b610801565b600054610100900460ff166104ef5760005460ff16156104f3565b303b155b61056a5760405162461bcd60e51b815260206004820152602e60248201527f496e697469616c697a61626c653a20636f6e747261637420697320616c72656160448201527f647920696e697469616c697a656400000000000000000000000000000000000060648201526084015b60405180910390fd5b600054610100900460ff1615801561058c576000805461ffff19166101011790555b606580546001600160a01b03808a167fffffffffffffffffffffffff0000000000000000000000000000000000000000928316179092556066805492891692909116919091179055604080516020601f870181900481028201810190925285815261064591879087908190840183828082843760009201919091525050604080516020601f89018190048102820181019092528781529250879150869081908401838280828437600092019190915250610d8a92505050565b8015610657576000805461ff00191690555b50505050505050565b6060603780546102d3906114f0565b3360008181526034602090815260408083206001600160a01b03871684529091528120549091908381101561070c5760405162461bcd60e51b815260206004820152602560248201527f45524332303a2064656372656173656420616c6c6f77616e63652062656c6f7760448201527f207a65726f0000000000000000000000000000000000000000000000000000006064820152608401610561565b6107198286868403610801565b506001949350505050565b6000336103648185856109b2565b6065546040516370a0823160e01b81523060048201526000916001600160a01b0316906370a0823190602401602060405180830381865afa15801561077b573d6000803e3d6000fd5b505050506040513d601f19601f8201168201806040525081019061079f919061152a565b905060006107ac60355490565b905060008115806107bb575082155b156107c75750826107df565b826107d28386611559565b6107dc9190611578565b90505b6065546107f7906001600160a01b0316333087610e03565b61044a3382610e3b565b6001600160a01b0383166108635760405162461bcd60e51b8152602060048201526024808201527f45524332303a20617070726f76652066726f6d20746865207a65726f206164646044820152637265737360e01b6064820152608401610561565b6001600160a01b0382166108c45760405162461bcd60e51b815260206004820152602260248201527f45524332303a20617070726f766520746f20746865207a65726f206164647265604482015261737360f01b6064820152608401610561565b6001600160a01b0383811660008181526034602090815260408083209487168084529482529182902085905590518481527f8c5be1e5ebec7d5bd14f71427d1e84f3dd0314c0f7b2291e5b200ac8c7c3b92591015b60405180910390a3505050565b6001600160a01b03838116600090815260346020908152604080832093861683529290522054600019811461044a57818110156109a55760405162461bcd60e51b815260206004820152601d60248201527f45524332303a20696e73756666696369656e7420616c6c6f77616e63650000006044820152606401610561565b61044a8484848403610801565b6001600160a01b038316610a2e5760405162461bcd60e51b815260206004820152602560248201527f45524332303a207472616e736665722066726f6d20746865207a65726f20616460448201527f64726573730000000000000000000000000000000000000000000000000000006064820152608401610561565b6001600160a01b038216610a905760405162461bcd60e51b815260206004820152602360248201527f45524332303a207472616e7366657220746f20746865207a65726f206164647260448201526265737360e81b6064820152608401610561565b6001600160a01b03831660009081526033602052604090205481811015610b1f5760405162461bcd60e51b815260206004820152602660248201527f45524332303a207472616e7366657220616d6f756e742065786365656473206260448201527f616c616e636500000000000000000000000000000000000000000000000000006064820152608401610561565b6001600160a01b03808516600090815260336020526040808220858503905591851681529081208054849290610b5690849061159a565b92505081905550826001600160a01b0316846001600160a01b03167fddf252ad1be2c89b69c2b068fc378daa952ba7f163c4a11628f55a4df523b3ef84604051610ba291815260200190565b60405180910390a361044a565b6001600160a01b038216610c0f5760405162461bcd60e51b815260206004820152602160248201527f45524332303a206275726e2066726f6d20746865207a65726f206164647265736044820152607360f81b6064820152608401610561565b6001600160a01b03821660009081526033602052604090205481811015610c835760405162461bcd60e51b815260206004820152602260248201527f45524332303a206275726e20616d6f756e7420657863656564732062616c616e604482015261636560f01b6064820152608401610561565b6001600160a01b0383166000908152603360205260408120838303905560358054849290610cb29084906115b2565b90915550506040518281526000906001600160a01b038516907fddf252ad1be2c89b69c2b068fc378daa952ba7f163c4a11628f55a4df523b3ef90602001610919565b505050565b6040516001600160a01b038316602482015260448101829052610cf590849063a9059cbb60e01b906064015b60408051601f198184030181529190526020810180517bffffffffffffffffffffffffffffffffffffffffffffffffffffffff167fffffffff0000000000000000000000000000000000000000000000000000000090931692909217909152610f1a565b600054610100900460ff16610df55760405162461bcd60e51b815260206004820152602b60248201527f496e697469616c697a61626c653a20636f6e7472616374206973206e6f74206960448201526a6e697469616c697a696e6760a81b6064820152608401610561565b610dff8282610fff565b5050565b6040516001600160a01b038085166024830152831660448201526064810182905261044a9085906323b872dd60e01b90608401610d26565b6001600160a01b038216610e915760405162461bcd60e51b815260206004820152601f60248201527f45524332303a206d696e7420746f20746865207a65726f2061646472657373006044820152606401610561565b8060356000828254610ea3919061159a565b90915550506001600160a01b03821660009081526033602052604081208054839290610ed090849061159a565b90915550506040518181526001600160a01b038316906000907fddf252ad1be2c89b69c2b068fc378daa952ba7f163c4a11628f55a4df523b3ef9060200160405180910390a35050565b6000610f6f826040518060400160405280602081526020017f5361666545524332303a206c6f772d6c6576656c2063616c6c206661696c6564815250856001600160a01b03166110919092919063ffffffff16565b805190915015610cf55780806020019051810190610f8d91906115c9565b610cf55760405162461bcd60e51b815260206004820152602a60248201527f5361666545524332303a204552433230206f7065726174696f6e20646964206e60448201527f6f742073756363656564000000000000000000000000000000000000000000006064820152608401610561565b600054610100900460ff1661106a5760405162461bcd60e51b815260206004820152602b60248201527f496e697469616c697a61626c653a20636f6e7472616374206973206e6f74206960448201526a6e697469616c697a696e6760a81b6064820152608401610561565b815161107d906036906020850190611229565b508051610cf5906037906020840190611229565b60606110a084846000856110a8565b949350505050565b6060824710156111205760405162461bcd60e51b815260206004820152602660248201527f416464726573733a20696e73756666696369656e742062616c616e636520666f60448201527f722063616c6c00000000000000000000000000000000000000000000000000006064820152608401610561565b6001600160a01b0385163b6111775760405162461bcd60e51b815260206004820152601d60248201527f416464726573733a2063616c6c20746f206e6f6e2d636f6e74726163740000006044820152606401610561565b600080866001600160a01b0316858760405161119391906115eb565b60006040518083038185875af1925050503d80600081146111d0576040519150601f19603f3d011682016040523d82523d6000602084013e6111d5565b606091505b50915091506111e58282866111f0565b979650505050505050565b606083156111ff57508161038d565b82511561120f5782518084602001fd5b8160405162461bcd60e51b815260040161056191906112ee565b828054611235906114f0565b90600052602060002090601f016020900481019282611257576000855561129d565b82601f1061127057805160ff191683800117855561129d565b8280016001018555821561129d579182015b8281111561129d578251825591602001919060010190611282565b506112a99291506112ad565b5090565b5b808211156112a957600081556001016112ae565b60005b838110156112dd5781810151838201526020016112c5565b8381111561044a5750506000910152565b602081526000825180602084015261130d8160408501602087016112c2565b601f01601f19169190910160400192915050565b6001600160a01b038116811461049257600080fd5b6000806040838503121561134957600080fd5b823561135481611321565b946020939093013593505050565b60008060006060848603121561137757600080fd5b833561138281611321565b9250602084013561139281611321565b929592945050506040919091013590565b6000602082840312156113b557600080fd5b5035919050565b6000602082840312156113ce57600080fd5b813561038d81611321565b60008083601f8401126113eb57600080fd5b50813567ffffffffffffffff81111561140357600080fd5b60208301915083602082850101111561141b57600080fd5b9250929050565b6000806000806000806080878903121561143b57600080fd5b863561144681611321565b9550602087013561145681611321565b9450604087013567ffffffffffffffff8082111561147357600080fd5b61147f8a838b016113d9565b9096509450606089013591508082111561149857600080fd5b506114a589828a016113d9565b979a9699509497509295939492505050565b600080604083850312156114ca57600080fd5b82356114d581611321565b915060208301356114e581611321565b809150509250929050565b600181811c9082168061150457607f821691505b60208210810361152457634e487b7160e01b600052602260045260246000fd5b50919050565b60006020828403121561153c57600080fd5b5051919050565b634e487b7160e01b600052601160045260246000fd5b600081600019048311821515161561157357611573611543565b500290565b60008261159557634e487b7160e01b600052601260045260246000fd5b500490565b600082198211156115ad576115ad611543565b500190565b6000828210156115c4576115c4611543565b500390565b6000602082840312156115db57600080fd5b8151801515811461038d57600080fd5b600082516115fd8184602087016112c2565b919091019291505056fea2646970667358221220aa93869b5aad475cbbaad55ba690747118b2b9306147587155c7a541aa0e6cf864736f6c634300080d0033",
  "devdoc": {
    "kind": "dev",
    "methods": {
      "__initialize_InsuranceFund(address,address,string,string)": {
        "params": {
          "_clearingHouse": "address of clearing house (proxy) contract",
          "_settlementToken": "settlement token",
          "name": "\"Rage Trade iSettlementToken\"",
          "symbol": "\"iSettlementToken\""
        }
      },
      "allowance(address,address)": {
        "details": "See {IERC20-allowance}."
      },
      "approve(address,uint256)": {
        "details": "See {IERC20-approve}. NOTE: If `amount` is the maximum `uint256`, the allowance is not updated on `transferFrom`. This is semantically equivalent to an infinite approval. Requirements: - `spender` cannot be the zero address."
      },
      "balanceOf(address)": {
        "details": "See {IERC20-balanceOf}."
      },
      "decimals()": {
        "details": "Returns the number of decimals used to get its user representation. For example, if `decimals` equals `2`, a balance of `505` tokens should be displayed to a user as `5.05` (`505 / 10 ** 2`). Tokens usually opt for a value of 18, imitating the relationship between Ether and Wei. This is the value {ERC20} uses, unless this function is overridden; NOTE: This information is only used for _display_ purposes: it in no way affects any of the arithmetic of the contract, including {IERC20-balanceOf} and {IERC20-transfer}."
      },
      "decreaseAllowance(address,uint256)": {
        "details": "Atomically decreases the allowance granted to `spender` by the caller. This is an alternative to {approve} that can be used as a mitigation for problems described in {IERC20-approve}. Emits an {Approval} event indicating the updated allowance. Requirements: - `spender` cannot be the zero address. - `spender` must have allowance for the caller of at least `subtractedValue`."
      },
      "increaseAllowance(address,uint256)": {
        "details": "Atomically increases the allowance granted to `spender` by the caller. This is an alternative to {approve} that can be used as a mitigation for problems described in {IERC20-approve}. Emits an {Approval} event indicating the updated allowance. Requirements: - `spender` cannot be the zero address."
      },
      "name()": {
        "details": "Returns the name of the token."
      },
      "symbol()": {
        "details": "Returns the symbol of the token, usually a shorter version of the name."
      },
      "totalSupply()": {
        "details": "See {IERC20-totalSupply}."
      },
      "transfer(address,uint256)": {
        "details": "See {IERC20-transfer}. Requirements: - `to` cannot be the zero address. - the caller must have a balance of at least `amount`."
      },
      "transferFrom(address,address,uint256)": {
        "details": "See {IERC20-transferFrom}. Emits an {Approval} event indicating the updated allowance. This is not required by the EIP. See the note at the beginning of {ERC20}. NOTE: Does not update the allowance if the current allowance is the maximum `uint256`. Requirements: - `from` and `to` cannot be the zero address. - `from` must have a balance of at least `amount`. - the caller must have allowance for ``from``'s tokens of at least `amount`."
      }
    },
    "version": 1
  },
  "userdoc": {
    "kind": "user",
    "methods": {
      "__initialize_InsuranceFund(address,address,string,string)": {
        "notice": "Initializer for Insurance Fund"
      }
    },
    "version": 1
  },
  "storageLayout": {
    "storage": [
      {
        "astId": 52,
        "contract": "contracts/protocol/insurancefund/InsuranceFund.sol:InsuranceFund",
        "label": "_initialized",
        "offset": 0,
        "slot": "0",
        "type": "t_bool"
      },
      {
        "astId": 55,
        "contract": "contracts/protocol/insurancefund/InsuranceFund.sol:InsuranceFund",
        "label": "_initializing",
        "offset": 1,
        "slot": "0",
        "type": "t_bool"
      },
      {
        "astId": 1230,
        "contract": "contracts/protocol/insurancefund/InsuranceFund.sol:InsuranceFund",
        "label": "__gap",
        "offset": 0,
        "slot": "1",
        "type": "t_array(t_uint256)50_storage"
      },
      {
        "astId": 249,
        "contract": "contracts/protocol/insurancefund/InsuranceFund.sol:InsuranceFund",
        "label": "_balances",
        "offset": 0,
        "slot": "51",
        "type": "t_mapping(t_address,t_uint256)"
      },
      {
        "astId": 255,
        "contract": "contracts/protocol/insurancefund/InsuranceFund.sol:InsuranceFund",
        "label": "_allowances",
        "offset": 0,
        "slot": "52",
        "type": "t_mapping(t_address,t_mapping(t_address,t_uint256))"
      },
      {
        "astId": 257,
        "contract": "contracts/protocol/insurancefund/InsuranceFund.sol:InsuranceFund",
        "label": "_totalSupply",
        "offset": 0,
        "slot": "53",
        "type": "t_uint256"
      },
      {
        "astId": 259,
        "contract": "contracts/protocol/insurancefund/InsuranceFund.sol:InsuranceFund",
        "label": "_name",
        "offset": 0,
        "slot": "54",
        "type": "t_string_storage"
      },
      {
        "astId": 261,
        "contract": "contracts/protocol/insurancefund/InsuranceFund.sol:InsuranceFund",
        "label": "_symbol",
        "offset": 0,
        "slot": "55",
        "type": "t_string_storage"
      },
      {
        "astId": 842,
        "contract": "contracts/protocol/insurancefund/InsuranceFund.sol:InsuranceFund",
        "label": "__gap",
        "offset": 0,
        "slot": "56",
        "type": "t_array(t_uint256)45_storage"
      },
      {
        "astId": 21142,
        "contract": "contracts/protocol/insurancefund/InsuranceFund.sol:InsuranceFund",
        "label": "settlementToken",
        "offset": 0,
        "slot": "101",
        "type": "t_contract(IERC20)3369"
      },
      {
        "astId": 21145,
        "contract": "contracts/protocol/insurancefund/InsuranceFund.sol:InsuranceFund",
        "label": "clearingHouse",
        "offset": 0,
        "slot": "102",
        "type": "t_contract(IClearingHouse)8077"
      }
    ],
    "types": {
      "t_address": {
        "encoding": "inplace",
        "label": "address",
        "numberOfBytes": "20"
      },
      "t_array(t_uint256)45_storage": {
        "base": "t_uint256",
        "encoding": "inplace",
        "label": "uint256[45]",
        "numberOfBytes": "1440"
      },
      "t_array(t_uint256)50_storage": {
        "base": "t_uint256",
        "encoding": "inplace",
        "label": "uint256[50]",
        "numberOfBytes": "1600"
      },
      "t_bool": {
        "encoding": "inplace",
        "label": "bool",
        "numberOfBytes": "1"
      },
      "t_contract(IClearingHouse)8077": {
        "encoding": "inplace",
        "label": "contract IClearingHouse",
        "numberOfBytes": "20"
      },
      "t_contract(IERC20)3369": {
        "encoding": "inplace",
        "label": "contract IERC20",
        "numberOfBytes": "20"
      },
      "t_mapping(t_address,t_mapping(t_address,t_uint256))": {
        "encoding": "mapping",
        "key": "t_address",
        "label": "mapping(address => mapping(address => uint256))",
        "numberOfBytes": "32",
        "value": "t_mapping(t_address,t_uint256)"
      },
      "t_mapping(t_address,t_uint256)": {
        "encoding": "mapping",
        "key": "t_address",
        "label": "mapping(address => uint256)",
        "numberOfBytes": "32",
        "value": "t_uint256"
      },
      "t_string_storage": {
        "encoding": "bytes",
        "label": "string",
        "numberOfBytes": "32"
      },
      "t_uint256": {
        "encoding": "inplace",
        "label": "uint256",
        "numberOfBytes": "32"
      }
    }
  }
}