{
  "address": "0xDE40652332a1F8aB3e4F840d7E928F12e9141f36",
  "abi": [
    {
      "inputs": [],
      "name": "Unauthorised",
      "type": "error"
    },
    {
      "anonymous": false,
      "inputs": [
        {
          "indexed": true,
          "internalType": "address",
          "name": "owner",
          "type": "address"
        },
        {
          "indexed": true,
          "internalType": "address",
          "name": "spender",
          "type": "address"
        },
        {
          "indexed": false,
          "internalType": "uint256",
          "name": "value",
          "type": "uint256"
        }
      ],
      "name": "Approval",
      "type": "event"
    },
    {
      "anonymous": false,
      "inputs": [
        {
          "indexed": true,
          "internalType": "address",
          "name": "from",
          "type": "address"
        },
        {
          "indexed": true,
          "internalType": "address",
          "name": "to",
          "type": "address"
        },
        {
          "indexed": false,
          "internalType": "uint256",
          "name": "value",
          "type": "uint256"
        }
      ],
      "name": "Transfer",
      "type": "event"
    },
    {
      "inputs": [
        {
          "internalType": "contract IERC20",
          "name": "_rBase",
          "type": "address"
        },
        {
          "internalType": "contract IClearingHouse",
          "name": "_clearingHouse",
          "type": "address"
        },
        {
          "internalType": "string",
          "name": "name",
          "type": "string"
        },
        {
          "internalType": "string",
          "name": "symbol",
          "type": "string"
        }
      ],
      "name": "__initialize_InsuranceFund",
      "outputs": [],
      "stateMutability": "nonpayable",
      "type": "function"
    },
    {
      "inputs": [
        {
          "internalType": "address",
          "name": "owner",
          "type": "address"
        },
        {
          "internalType": "address",
          "name": "spender",
          "type": "address"
        }
      ],
      "name": "allowance",
      "outputs": [
        {
          "internalType": "uint256",
          "name": "",
          "type": "uint256"
        }
      ],
      "stateMutability": "view",
      "type": "function"
    },
    {
      "inputs": [
        {
          "internalType": "address",
          "name": "spender",
          "type": "address"
        },
        {
          "internalType": "uint256",
          "name": "amount",
          "type": "uint256"
        }
      ],
      "name": "approve",
      "outputs": [
        {
          "internalType": "bool",
          "name": "",
          "type": "bool"
        }
      ],
      "stateMutability": "nonpayable",
      "type": "function"
    },
    {
      "inputs": [
        {
          "internalType": "address",
          "name": "account",
          "type": "address"
        }
      ],
      "name": "balanceOf",
      "outputs": [
        {
          "internalType": "uint256",
          "name": "",
          "type": "uint256"
        }
      ],
      "stateMutability": "view",
      "type": "function"
    },
    {
      "inputs": [
        {
          "internalType": "uint256",
          "name": "amount",
          "type": "uint256"
        }
      ],
      "name": "claim",
      "outputs": [],
      "stateMutability": "nonpayable",
      "type": "function"
    },
    {
      "inputs": [],
      "name": "clearingHouse",
      "outputs": [
        {
          "internalType": "contract IClearingHouse",
          "name": "",
          "type": "address"
        }
      ],
      "stateMutability": "view",
      "type": "function"
    },
    {
      "inputs": [],
      "name": "decimals",
      "outputs": [
        {
          "internalType": "uint8",
          "name": "",
          "type": "uint8"
        }
      ],
      "stateMutability": "view",
      "type": "function"
    },
    {
      "inputs": [
        {
          "internalType": "address",
          "name": "spender",
          "type": "address"
        },
        {
          "internalType": "uint256",
          "name": "subtractedValue",
          "type": "uint256"
        }
      ],
      "name": "decreaseAllowance",
      "outputs": [
        {
          "internalType": "bool",
          "name": "",
          "type": "bool"
        }
      ],
      "stateMutability": "nonpayable",
      "type": "function"
    },
    {
      "inputs": [
        {
          "internalType": "uint256",
          "name": "amount",
          "type": "uint256"
        }
      ],
      "name": "deposit",
      "outputs": [],
      "stateMutability": "nonpayable",
      "type": "function"
    },
    {
      "inputs": [
        {
          "internalType": "address",
          "name": "spender",
          "type": "address"
        },
        {
          "internalType": "uint256",
          "name": "addedValue",
          "type": "uint256"
        }
      ],
      "name": "increaseAllowance",
      "outputs": [
        {
          "internalType": "bool",
          "name": "",
          "type": "bool"
        }
      ],
      "stateMutability": "nonpayable",
      "type": "function"
    },
    {
      "inputs": [],
      "name": "name",
      "outputs": [
        {
          "internalType": "string",
          "name": "",
          "type": "string"
        }
      ],
      "stateMutability": "view",
      "type": "function"
    },
    {
      "inputs": [],
      "name": "rBase",
      "outputs": [
        {
          "internalType": "contract IERC20",
          "name": "",
          "type": "address"
        }
      ],
      "stateMutability": "view",
      "type": "function"
    },
    {
      "inputs": [],
      "name": "symbol",
      "outputs": [
        {
          "internalType": "string",
          "name": "",
          "type": "string"
        }
      ],
      "stateMutability": "view",
      "type": "function"
    },
    {
      "inputs": [],
      "name": "totalSupply",
      "outputs": [
        {
          "internalType": "uint256",
          "name": "",
          "type": "uint256"
        }
      ],
      "stateMutability": "view",
      "type": "function"
    },
    {
      "inputs": [
        {
          "internalType": "address",
          "name": "recipient",
          "type": "address"
        },
        {
          "internalType": "uint256",
          "name": "amount",
          "type": "uint256"
        }
      ],
      "name": "transfer",
      "outputs": [
        {
          "internalType": "bool",
          "name": "",
          "type": "bool"
        }
      ],
      "stateMutability": "nonpayable",
      "type": "function"
    },
    {
      "inputs": [
        {
          "internalType": "address",
          "name": "sender",
          "type": "address"
        },
        {
          "internalType": "address",
          "name": "recipient",
          "type": "address"
        },
        {
          "internalType": "uint256",
          "name": "amount",
          "type": "uint256"
        }
      ],
      "name": "transferFrom",
      "outputs": [
        {
          "internalType": "bool",
          "name": "",
          "type": "bool"
        }
      ],
      "stateMutability": "nonpayable",
      "type": "function"
    },
    {
      "inputs": [
        {
          "internalType": "uint256",
          "name": "shares",
          "type": "uint256"
        }
      ],
      "name": "withdraw",
      "outputs": [],
      "stateMutability": "nonpayable",
      "type": "function"
    }
  ],
  "transactionHash": "0xcb086e1f39766f3b1ed5a72440059c6fe84a77936cd8f51c19a0dcbf48eec0b2",
  "args": [],
  "solcInputHash": "2e56d751b0b2693f92477a2854a677fa",
  "bytecode": "0x608060405234801561001057600080fd5b5061159c806100206000396000f3fe608060405234801561001057600080fd5b506004361061010b5760003560e01c806339509351116100a2578063a457c2d711610071578063a457c2d71461022f578063a5cf768814610242578063a9059cbb14610255578063b6b55f2514610268578063dd62ed3e1461027b57600080fd5b806339509351146101d857806370a08231146101eb57806373e0d44e1461021457806395d89b411461022757600080fd5b806323b872dd116100de57806323b872dd1461018e5780632e1a7d4d146101a1578063313ce567146101b6578063379607f5146101c557600080fd5b806306fdde0314610110578063095ea7b31461012e5780630af968001461015157806318160ddd1461017c575b600080fd5b6101186102b4565b6040516101259190611227565b60405180910390f35b61014161013c36600461126f565b610346565b6040519015158152602001610125565b606654610164906001600160a01b031681565b6040516001600160a01b039091168152602001610125565b6035545b604051908152602001610125565b61014161019c36600461129b565b61035c565b6101b46101af3660046112dc565b61040d565b005b60405160128152602001610125565b6101b46101d33660046112dc565b6104c9565b6101416101e636600461126f565b61050e565b6101806101f93660046112f5565b6001600160a01b031660009081526033602052604090205490565b6101b461022236600461135b565b61054a565b61011861065d565b61014161023d36600461126f565b61066c565b606554610164906001600160a01b031681565b61014161026336600461126f565b610705565b6101b46102763660046112dc565b610712565b6101806102893660046113f0565b6001600160a01b03918216600090815260346020908152604080832093909416825291909152205490565b6060603680546102c390611429565b80601f01602080910402602001604051908101604052809291908181526020018280546102ef90611429565b801561033c5780601f106103115761010080835404028352916020019161033c565b820191906000526020600020905b81548152906001019060200180831161031f57829003601f168201915b5050505050905090565b60006103533384846107e1565b50600192915050565b6000610369848484610906565b6001600160a01b0384166000908152603460209081526040808320338452909152902054828110156103f35760405162461bcd60e51b815260206004820152602860248201527f45524332303a207472616e7366657220616d6f756e74206578636565647320616044820152676c6c6f77616e636560c01b60648201526084015b60405180910390fd5b61040085338584036107e1565b60019150505b9392505050565b6065546040516370a0823160e01b81523060048201526000916001600160a01b0316906370a0823190602401602060405180830381865afa158015610456573d6000803e3d6000fd5b505050506040513d601f19601f8201168201806040525081019061047a9190611464565b9050600061048760355490565b90506000816104968486611493565b6104a091906114b2565b90506104ac3385610ad4565b6065546104c3906001600160a01b03163383610c1f565b50505050565b6066546001600160a01b031633146104f457604051636bd1573560e11b815260040160405180910390fd5b60655461050b906001600160a01b03163383610c1f565b50565b3360008181526034602090815260408083206001600160a01b038716845290915281205490916103539185906105459086906114d4565b6107e1565b600054610100900460ff1680610563575060005460ff16155b61057f5760405162461bcd60e51b81526004016103ea906114ec565b600054610100900460ff161580156105a1576000805461ffff19166101011790555b606580546001600160a01b03808a166001600160a01b0319928316179092556066805492891692909116919091179055604080516020601f870181900481028201810190925285815261064291879087908190840183828082843760009201919091525050604080516020601f89018190048102820181019092528781529250879150869081908401838280828437600092019190915250610c8292505050565b8015610654576000805461ff00191690555b50505050505050565b6060603780546102c390611429565b3360009081526034602090815260408083206001600160a01b0386168452909152812054828110156106ee5760405162461bcd60e51b815260206004820152602560248201527f45524332303a2064656372656173656420616c6c6f77616e63652062656c6f77604482015264207a65726f60d81b60648201526084016103ea565b6106fb33858584036107e1565b5060019392505050565b6000610353338484610906565b6065546040516370a0823160e01b81523060048201526000916001600160a01b0316906370a0823190602401602060405180830381865afa15801561075b573d6000803e3d6000fd5b505050506040513d601f19601f8201168201806040525081019061077f9190611464565b9050600061078c60355490565b9050600081158061079b575082155b156107a75750826107bf565b826107b28386611493565b6107bc91906114b2565b90505b6065546107d7906001600160a01b0316333087610d01565b6104c33382610d39565b6001600160a01b0383166108435760405162461bcd60e51b8152602060048201526024808201527f45524332303a20617070726f76652066726f6d20746865207a65726f206164646044820152637265737360e01b60648201526084016103ea565b6001600160a01b0382166108a45760405162461bcd60e51b815260206004820152602260248201527f45524332303a20617070726f766520746f20746865207a65726f206164647265604482015261737360f01b60648201526084016103ea565b6001600160a01b0383811660008181526034602090815260408083209487168084529482529182902085905590518481527f8c5be1e5ebec7d5bd14f71427d1e84f3dd0314c0f7b2291e5b200ac8c7c3b92591015b60405180910390a3505050565b6001600160a01b03831661096a5760405162461bcd60e51b815260206004820152602560248201527f45524332303a207472616e736665722066726f6d20746865207a65726f206164604482015264647265737360d81b60648201526084016103ea565b6001600160a01b0382166109cc5760405162461bcd60e51b815260206004820152602360248201527f45524332303a207472616e7366657220746f20746865207a65726f206164647260448201526265737360e81b60648201526084016103ea565b6001600160a01b03831660009081526033602052604090205481811015610a445760405162461bcd60e51b815260206004820152602660248201527f45524332303a207472616e7366657220616d6f756e7420657863656564732062604482015265616c616e636560d01b60648201526084016103ea565b6001600160a01b03808516600090815260336020526040808220858503905591851681529081208054849290610a7b9084906114d4565b92505081905550826001600160a01b0316846001600160a01b03167fddf252ad1be2c89b69c2b068fc378daa952ba7f163c4a11628f55a4df523b3ef84604051610ac791815260200190565b60405180910390a36104c3565b6001600160a01b038216610b345760405162461bcd60e51b815260206004820152602160248201527f45524332303a206275726e2066726f6d20746865207a65726f206164647265736044820152607360f81b60648201526084016103ea565b6001600160a01b03821660009081526033602052604090205481811015610ba85760405162461bcd60e51b815260206004820152602260248201527f45524332303a206275726e20616d6f756e7420657863656564732062616c616e604482015261636560f01b60648201526084016103ea565b6001600160a01b0383166000908152603360205260408120838303905560358054849290610bd790849061153a565b90915550506040518281526000906001600160a01b038516907fddf252ad1be2c89b69c2b068fc378daa952ba7f163c4a11628f55a4df523b3ef906020016108f9565b505050565b6040516001600160a01b038316602482015260448101829052610c1a90849063a9059cbb60e01b906064015b60408051601f198184030181529190526020810180516001600160e01b03166001600160e01b031990931692909217909152610e18565b600054610100900460ff1680610c9b575060005460ff16155b610cb75760405162461bcd60e51b81526004016103ea906114ec565b600054610100900460ff16158015610cd9576000805461ffff19166101011790555b610ce1610eea565b610ceb8383610f55565b8015610c1a576000805461ff0019169055505050565b6040516001600160a01b03808516602483015283166044820152606481018290526104c39085906323b872dd60e01b90608401610c4b565b6001600160a01b038216610d8f5760405162461bcd60e51b815260206004820152601f60248201527f45524332303a206d696e7420746f20746865207a65726f20616464726573730060448201526064016103ea565b8060356000828254610da191906114d4565b90915550506001600160a01b03821660009081526033602052604081208054839290610dce9084906114d4565b90915550506040518181526001600160a01b038316906000907fddf252ad1be2c89b69c2b068fc378daa952ba7f163c4a11628f55a4df523b3ef9060200160405180910390a35050565b6000610e6d826040518060400160405280602081526020017f5361666545524332303a206c6f772d6c6576656c2063616c6c206661696c6564815250856001600160a01b0316610fea9092919063ffffffff16565b805190915015610c1a5780806020019051810190610e8b9190611551565b610c1a5760405162461bcd60e51b815260206004820152602a60248201527f5361666545524332303a204552433230206f7065726174696f6e20646964206e6044820152691bdd081cdd58d8d9595960b21b60648201526084016103ea565b600054610100900460ff1680610f03575060005460ff16155b610f1f5760405162461bcd60e51b81526004016103ea906114ec565b600054610100900460ff16158015610f41576000805461ffff19166101011790555b801561050b576000805461ff001916905550565b600054610100900460ff1680610f6e575060005460ff16155b610f8a5760405162461bcd60e51b81526004016103ea906114ec565b600054610100900460ff16158015610fac576000805461ffff19166101011790555b8251610fbf906036906020860190611162565b508151610fd3906037906020850190611162565b508015610c1a576000805461ff0019169055505050565b6060610ff98484600085611001565b949350505050565b6060824710156110625760405162461bcd60e51b815260206004820152602660248201527f416464726573733a20696e73756666696369656e742062616c616e636520666f6044820152651c8818d85b1b60d21b60648201526084016103ea565b843b6110b05760405162461bcd60e51b815260206004820152601d60248201527f416464726573733a2063616c6c20746f206e6f6e2d636f6e747261637400000060448201526064016103ea565b600080866001600160a01b031685876040516110cc9190611573565b60006040518083038185875af1925050503d8060008114611109576040519150601f19603f3d011682016040523d82523d6000602084013e61110e565b606091505b509150915061111e828286611129565b979650505050505050565b60608315611138575081610406565b8251156111485782518084602001fd5b8160405162461bcd60e51b81526004016103ea9190611227565b82805461116e90611429565b90600052602060002090601f01602090048101928261119057600085556111d6565b82601f106111a957805160ff19168380011785556111d6565b828001600101855582156111d6579182015b828111156111d65782518255916020019190600101906111bb565b506111e29291506111e6565b5090565b5b808211156111e257600081556001016111e7565b60005b838110156112165781810151838201526020016111fe565b838111156104c35750506000910152565b60208152600082518060208401526112468160408501602087016111fb565b601f01601f19169190910160400192915050565b6001600160a01b038116811461050b57600080fd5b6000806040838503121561128257600080fd5b823561128d8161125a565b946020939093013593505050565b6000806000606084860312156112b057600080fd5b83356112bb8161125a565b925060208401356112cb8161125a565b929592945050506040919091013590565b6000602082840312156112ee57600080fd5b5035919050565b60006020828403121561130757600080fd5b81356104068161125a565b60008083601f84011261132457600080fd5b50813567ffffffffffffffff81111561133c57600080fd5b60208301915083602082850101111561135457600080fd5b9250929050565b6000806000806000806080878903121561137457600080fd5b863561137f8161125a565b9550602087013561138f8161125a565b9450604087013567ffffffffffffffff808211156113ac57600080fd5b6113b88a838b01611312565b909650945060608901359150808211156113d157600080fd5b506113de89828a01611312565b979a9699509497509295939492505050565b6000806040838503121561140357600080fd5b823561140e8161125a565b9150602083013561141e8161125a565b809150509250929050565b600181811c9082168061143d57607f821691505b6020821081141561145e57634e487b7160e01b600052602260045260246000fd5b50919050565b60006020828403121561147657600080fd5b5051919050565b634e487b7160e01b600052601160045260246000fd5b60008160001904831182151516156114ad576114ad61147d565b500290565b6000826114cf57634e487b7160e01b600052601260045260246000fd5b500490565b600082198211156114e7576114e761147d565b500190565b6020808252602e908201527f496e697469616c697a61626c653a20636f6e747261637420697320616c72656160408201526d191e481a5b9a5d1a585b1a5e995960921b606082015260800190565b60008282101561154c5761154c61147d565b500390565b60006020828403121561156357600080fd5b8151801515811461040657600080fd5b600082516115858184602087016111fb565b919091019291505056fea164736f6c634300080c000a",
  "devdoc": {
    "kind": "dev",
    "methods": {
      "__initialize_InsuranceFund(address,address,string,string)": {
        "params": {
          "_clearingHouse": "address of clearing house (proxy) contract",
          "_rBase": "real base token",
          "name": "\"Rage Trade iBase\"",
          "symbol": "\"iBase\""
        }
      },
      "allowance(address,address)": {
        "details": "See {IERC20-allowance}."
      },
      "approve(address,uint256)": {
        "details": "See {IERC20-approve}. Requirements: - `spender` cannot be the zero address."
      },
      "balanceOf(address)": {
        "details": "See {IERC20-balanceOf}."
      },
      "decimals()": {
        "details": "Returns the number of decimals used to get its user representation. For example, if `decimals` equals `2`, a balance of `505` tokens should be displayed to a user as `5.05` (`505 / 10 ** 2`). Tokens usually opt for a value of 18, imitating the relationship between Ether and Wei. This is the value {ERC20} uses, unless this function is overridden; NOTE: This information is only used for _display_ purposes: it in no way affects any of the arithmetic of the contract, including {IERC20-balanceOf} and {IERC20-transfer}."
      },
      "decreaseAllowance(address,uint256)": {
        "details": "Atomically decreases the allowance granted to `spender` by the caller. This is an alternative to {approve} that can be used as a mitigation for problems described in {IERC20-approve}. Emits an {Approval} event indicating the updated allowance. Requirements: - `spender` cannot be the zero address. - `spender` must have allowance for the caller of at least `subtractedValue`."
      },
      "increaseAllowance(address,uint256)": {
        "details": "Atomically increases the allowance granted to `spender` by the caller. This is an alternative to {approve} that can be used as a mitigation for problems described in {IERC20-approve}. Emits an {Approval} event indicating the updated allowance. Requirements: - `spender` cannot be the zero address."
      },
      "name()": {
        "details": "Returns the name of the token."
      },
      "symbol()": {
        "details": "Returns the symbol of the token, usually a shorter version of the name."
      },
      "totalSupply()": {
        "details": "See {IERC20-totalSupply}."
      },
      "transfer(address,uint256)": {
        "details": "See {IERC20-transfer}. Requirements: - `recipient` cannot be the zero address. - the caller must have a balance of at least `amount`."
      },
      "transferFrom(address,address,uint256)": {
        "details": "See {IERC20-transferFrom}. Emits an {Approval} event indicating the updated allowance. This is not required by the EIP. See the note at the beginning of {ERC20}. Requirements: - `sender` and `recipient` cannot be the zero address. - `sender` must have a balance of at least `amount`. - the caller must have allowance for ``sender``'s tokens of at least `amount`."
      }
    },
    "version": 1
  },
  "userdoc": {
    "kind": "user",
    "methods": {
      "__initialize_InsuranceFund(address,address,string,string)": {
        "notice": "Initializer for Insurance Fund"
      }
    },
    "version": 1
  },
  "storageLayout": {
    "storage": [
      {
        "astId": 298,
        "contract": "contracts/protocol/insurancefund/InsuranceFund.sol:InsuranceFund",
        "label": "_initialized",
        "offset": 0,
        "slot": "0",
        "type": "t_bool"
      },
      {
        "astId": 301,
        "contract": "contracts/protocol/insurancefund/InsuranceFund.sol:InsuranceFund",
        "label": "_initializing",
        "offset": 1,
        "slot": "0",
        "type": "t_bool"
      },
      {
        "astId": 1057,
        "contract": "contracts/protocol/insurancefund/InsuranceFund.sol:InsuranceFund",
        "label": "__gap",
        "offset": 0,
        "slot": "1",
        "type": "t_array(t_uint256)50_storage"
      },
      {
        "astId": 357,
        "contract": "contracts/protocol/insurancefund/InsuranceFund.sol:InsuranceFund",
        "label": "_balances",
        "offset": 0,
        "slot": "51",
        "type": "t_mapping(t_address,t_uint256)"
      },
      {
        "astId": 363,
        "contract": "contracts/protocol/insurancefund/InsuranceFund.sol:InsuranceFund",
        "label": "_allowances",
        "offset": 0,
        "slot": "52",
        "type": "t_mapping(t_address,t_mapping(t_address,t_uint256))"
      },
      {
        "astId": 365,
        "contract": "contracts/protocol/insurancefund/InsuranceFund.sol:InsuranceFund",
        "label": "_totalSupply",
        "offset": 0,
        "slot": "53",
        "type": "t_uint256"
      },
      {
        "astId": 367,
        "contract": "contracts/protocol/insurancefund/InsuranceFund.sol:InsuranceFund",
        "label": "_name",
        "offset": 0,
        "slot": "54",
        "type": "t_string_storage"
      },
      {
        "astId": 369,
        "contract": "contracts/protocol/insurancefund/InsuranceFund.sol:InsuranceFund",
        "label": "_symbol",
        "offset": 0,
        "slot": "55",
        "type": "t_string_storage"
      },
      {
        "astId": 910,
        "contract": "contracts/protocol/insurancefund/InsuranceFund.sol:InsuranceFund",
        "label": "__gap",
        "offset": 0,
        "slot": "56",
        "type": "t_array(t_uint256)45_storage"
      },
      {
        "astId": 21554,
        "contract": "contracts/protocol/insurancefund/InsuranceFund.sol:InsuranceFund",
        "label": "rBase",
        "offset": 0,
        "slot": "101",
        "type": "t_contract(IERC20)3226"
      },
      {
        "astId": 21557,
        "contract": "contracts/protocol/insurancefund/InsuranceFund.sol:InsuranceFund",
        "label": "clearingHouse",
        "offset": 0,
        "slot": "102",
        "type": "t_contract(IClearingHouse)7672"
      }
    ],
    "types": {
      "t_address": {
        "encoding": "inplace",
        "label": "address",
        "numberOfBytes": "20"
      },
      "t_array(t_uint256)45_storage": {
        "base": "t_uint256",
        "encoding": "inplace",
        "label": "uint256[45]",
        "numberOfBytes": "1440"
      },
      "t_array(t_uint256)50_storage": {
        "base": "t_uint256",
        "encoding": "inplace",
        "label": "uint256[50]",
        "numberOfBytes": "1600"
      },
      "t_bool": {
        "encoding": "inplace",
        "label": "bool",
        "numberOfBytes": "1"
      },
      "t_contract(IClearingHouse)7672": {
        "encoding": "inplace",
        "label": "contract IClearingHouse",
        "numberOfBytes": "20"
      },
      "t_contract(IERC20)3226": {
        "encoding": "inplace",
        "label": "contract IERC20",
        "numberOfBytes": "20"
      },
      "t_mapping(t_address,t_mapping(t_address,t_uint256))": {
        "encoding": "mapping",
        "key": "t_address",
        "label": "mapping(address => mapping(address => uint256))",
        "numberOfBytes": "32",
        "value": "t_mapping(t_address,t_uint256)"
      },
      "t_mapping(t_address,t_uint256)": {
        "encoding": "mapping",
        "key": "t_address",
        "label": "mapping(address => uint256)",
        "numberOfBytes": "32",
        "value": "t_uint256"
      },
      "t_string_storage": {
        "encoding": "bytes",
        "label": "string",
        "numberOfBytes": "32"
      },
      "t_uint256": {
        "encoding": "inplace",
        "label": "uint256",
        "numberOfBytes": "32"
      }
    }
  }
}