{
  "address": "0xB76EA7C4cED8Bf0011B03Bd558bbdEA19CBf362d",
  "abi": [
    {
      "inputs": [
        {
          "internalType": "address",
          "name": "clearingHouseLogicAddress",
          "type": "address"
        },
        {
          "internalType": "address",
          "name": "_vPoolWrapperLogicAddress",
          "type": "address"
        },
        {
          "internalType": "address",
          "name": "insuranceFundLogicAddress",
          "type": "address"
        },
        {
          "internalType": "contract IERC20Metadata",
          "name": "rBase",
          "type": "address"
        },
        {
          "internalType": "address",
          "name": "nativeOracle",
          "type": "address"
        },
        {
          "internalType": "address",
          "name": "_UNISWAP_V3_FACTORY_ADDRESS",
          "type": "address"
        },
        {
          "internalType": "uint24",
          "name": "_UNISWAP_V3_DEFAULT_FEE_TIER",
          "type": "uint24"
        },
        {
          "internalType": "bytes32",
          "name": "_UNISWAP_V3_POOL_BYTE_CODE_HASH",
          "type": "bytes32"
        }
      ],
      "stateMutability": "nonpayable",
      "type": "constructor"
    },
    {
      "inputs": [
        {
          "internalType": "address",
          "name": "addr",
          "type": "address"
        }
      ],
      "name": "IllegalAddress",
      "type": "error"
    },
    {
      "inputs": [],
      "name": "Unauthorised",
      "type": "error"
    },
    {
      "inputs": [],
      "name": "ZeroAddress",
      "type": "error"
    },
    {
      "anonymous": false,
      "inputs": [
        {
          "indexed": true,
          "internalType": "address",
          "name": "previousGovernance",
          "type": "address"
        },
        {
          "indexed": true,
          "internalType": "address",
          "name": "newGovernance",
          "type": "address"
        }
      ],
      "name": "GovernanceTransferred",
      "type": "event"
    },
    {
      "anonymous": false,
      "inputs": [
        {
          "indexed": false,
          "internalType": "contract IUniswapV3Pool",
          "name": "vPool",
          "type": "address"
        },
        {
          "indexed": false,
          "internalType": "contract IVToken",
          "name": "vToken",
          "type": "address"
        },
        {
          "indexed": false,
          "internalType": "contract IVPoolWrapper",
          "name": "vPoolWrapper",
          "type": "address"
        }
      ],
      "name": "PoolInitlized",
      "type": "event"
    },
    {
      "anonymous": false,
      "inputs": [
        {
          "indexed": true,
          "internalType": "address",
          "name": "previousTeamMultisig",
          "type": "address"
        },
        {
          "indexed": true,
          "internalType": "address",
          "name": "newTeamMultisig",
          "type": "address"
        }
      ],
      "name": "TeamMultisigTransferred",
      "type": "event"
    },
    {
      "inputs": [],
      "name": "UNISWAP_V3_DEFAULT_FEE_TIER",
      "outputs": [
        {
          "internalType": "uint24",
          "name": "",
          "type": "uint24"
        }
      ],
      "stateMutability": "view",
      "type": "function"
    },
    {
      "inputs": [],
      "name": "UNISWAP_V3_FACTORY_ADDRESS",
      "outputs": [
        {
          "internalType": "address",
          "name": "",
          "type": "address"
        }
      ],
      "stateMutability": "view",
      "type": "function"
    },
    {
      "inputs": [],
      "name": "UNISWAP_V3_POOL_BYTE_CODE_HASH",
      "outputs": [
        {
          "internalType": "bytes32",
          "name": "",
          "type": "bytes32"
        }
      ],
      "stateMutability": "view",
      "type": "function"
    },
    {
      "inputs": [],
      "name": "clearingHouse",
      "outputs": [
        {
          "internalType": "contract IClearingHouse",
          "name": "",
          "type": "address"
        }
      ],
      "stateMutability": "view",
      "type": "function"
    },
    {
      "inputs": [],
      "name": "governance",
      "outputs": [
        {
          "internalType": "address",
          "name": "",
          "type": "address"
        }
      ],
      "stateMutability": "view",
      "type": "function"
    },
    {
      "inputs": [
        {
          "components": [
            {
              "components": [
                {
                  "internalType": "string",
                  "name": "vTokenName",
                  "type": "string"
                },
                {
                  "internalType": "string",
                  "name": "vTokenSymbol",
                  "type": "string"
                },
                {
                  "internalType": "uint8",
                  "name": "rTokenDecimals",
                  "type": "uint8"
                }
              ],
              "internalType": "struct VTokenDeployer.DeployVTokenParams",
              "name": "deployVTokenParams",
              "type": "tuple"
            },
            {
              "components": [
                {
                  "internalType": "uint16",
                  "name": "initialMarginRatio",
                  "type": "uint16"
                },
                {
                  "internalType": "uint16",
                  "name": "maintainanceMarginRatio",
                  "type": "uint16"
                },
                {
                  "internalType": "uint32",
                  "name": "twapDuration",
                  "type": "uint32"
                },
                {
                  "internalType": "bool",
                  "name": "whitelisted",
                  "type": "bool"
                },
                {
                  "internalType": "contract IOracle",
                  "name": "oracle",
                  "type": "address"
                }
              ],
              "internalType": "struct IClearingHouse.RageTradePoolSettings",
              "name": "rageTradePoolInitialSettings",
              "type": "tuple"
            },
            {
              "internalType": "uint24",
              "name": "liquidityFeePips",
              "type": "uint24"
            },
            {
              "internalType": "uint24",
              "name": "protocolFeePips",
              "type": "uint24"
            }
          ],
          "internalType": "struct RageTradeFactory.InitializePoolParams",
          "name": "initializePoolParams",
          "type": "tuple"
        }
      ],
      "name": "initializePool",
      "outputs": [],
      "stateMutability": "nonpayable",
      "type": "function"
    },
    {
      "inputs": [],
      "name": "proxyAdmin",
      "outputs": [
        {
          "internalType": "contract ProxyAdmin",
          "name": "",
          "type": "address"
        }
      ],
      "stateMutability": "view",
      "type": "function"
    },
    {
      "inputs": [
        {
          "internalType": "address",
          "name": "_vPoolWrapperLogicAddress",
          "type": "address"
        }
      ],
      "name": "setVPoolWrapperLogicAddress",
      "outputs": [],
      "stateMutability": "nonpayable",
      "type": "function"
    },
    {
      "inputs": [],
      "name": "teamMultisig",
      "outputs": [
        {
          "internalType": "address",
          "name": "",
          "type": "address"
        }
      ],
      "stateMutability": "view",
      "type": "function"
    },
    {
      "inputs": [
        {
          "internalType": "address",
          "name": "newGovernance",
          "type": "address"
        }
      ],
      "name": "transferGovernance",
      "outputs": [],
      "stateMutability": "nonpayable",
      "type": "function"
    },
    {
      "inputs": [
        {
          "internalType": "address",
          "name": "newTeamMultisig",
          "type": "address"
        }
      ],
      "name": "transferTeamMultisig",
      "outputs": [],
      "stateMutability": "nonpayable",
      "type": "function"
    },
    {
      "inputs": [],
      "name": "vBase",
      "outputs": [
        {
          "internalType": "contract IVBase",
          "name": "",
          "type": "address"
        }
      ],
      "stateMutability": "view",
      "type": "function"
    },
    {
      "inputs": [],
      "name": "vPoolWrapperLogicAddress",
      "outputs": [
        {
          "internalType": "address",
          "name": "",
          "type": "address"
        }
      ],
      "stateMutability": "view",
      "type": "function"
    }
  ],
  "transactionHash": "0xd769d083c4f45263964fd236214d353dded127d36f0b7eb02b4a3d719a2fcea9",
  "args": [
    "0x0a349f5EA2E4f9C7aA327CaBBCb68f4C6ab5a284",
    "0xE647989507d883387994fC089A498F9bC88129F7",
    "0xd6881C05b0FD5725499595c3E7DBba46bcFbE4A6",
    "0x7aAD62deFa49DE9907CbC171c849bC9D442ca321",
    "0x621355b750f6493AECDa69a4f0a0D29A79246c7e",
    "0x1F98431c8aD98523631AE4a59f267346ea31F984",
    500,
    "0xe34f199b19b2b4f47f68442619d555527d244f78a3297ea89325f843f87b8b54"
  ],
  "solcInputHash": "11fe70ca772ffd2defe9ec97f4437e59",
  "bytecode": "0x6101206040523480156200001257600080fd5b50604051620066bf380380620066bf833981016040819052620000359162000a96565b86620000406200042a565b600380546001600160a01b0319166001600160a01b03929092169190911790556200006a6200043a565b600280546001600160a01b0319166001600160a01b0392909216918217905560405163f2fde38b60e01b815233600482015263f2fde38b90602401600060405180830381600087803b158015620000c057600080fd5b505af1158015620000d5573d6000803e3d6000fd5b505050506001600160a01b0383811660805262ffffff831660a05260c08290526040805163313ce56760e01b81529051620001649288169163313ce5679160048083019260209291908290030181865afa15801562000138573d6000803e3d6000fd5b505050506040513d601f19601f820116820180604052508101906200015e919062000b52565b6200046d565b6001600160a01b031660e05260006200017d87620004f8565b9050620001e56040518060a001604052808b6001600160a01b03168152602001886001600160a01b03168152602001836001600160a01b0316815260200160e0516001600160a01b03168152602001876001600160a01b03168152506200056560201b60201c565b6001600160a01b03166101008190526040516334e2fffd60e21b815233600482015263d38bfff490602401600060405180830381600087803b1580156200022b57600080fd5b505af115801562000240573d6000803e3d6000fd5b505061010051604051637f64d66360e01b81523360048201526001600160a01b039091169250637f64d6639150602401600060405180830381600087803b1580156200028b57600080fd5b505af1158015620002a0573d6000803e3d6000fd5b50505050610100516001600160a01b0316632a66e9ca60e051604051806060016040528060006001600160a01b0316815260200160006001600160a01b031681526020016040518060a00160405280600061ffff168152602001600061ffff168152602001603c63ffffffff168152602001600015158152602001604051620003299062000a49565b604051809103906000f08015801562000346573d6000803e3d6000fd5b506001600160a01b0390811690915291526040805160e086901b6001600160e01b031916815293821660048501528251821660248501526020808401518316604486015292810151805161ffff908116606487015293810151909316608485015282015163ffffffff1660a48401526060820151151560c48401526080909101511660e482015261010401600060405180830381600087803b158015620003ec57600080fd5b505af115801562000401573d6000803e3d6000fd5b505050506200041b8187610100516200060160201b60201c565b50505050505050505062000c68565b33620004378180620006ae565b50565b60006040516200044a9062000a56565b604051809103906000f08015801562000467573d6000803e3d6000fd5b50905090565b6000620004f2600060405180602001620004879062000a64565b601f1982820381018352601f90910116604081815260ff871660208301520160408051601f1981840301815290829052620004c6929160200162000baa565b6040516020818303038152906040526200080760201b6200096c176200081360201b620009781760201c565b92915050565b60025460405160009183916001600160a01b03909116906200051a9062000a72565b6001600160a01b039283168152911660208201526060604082018190526000908201526080015b604051809103906000f0801580156200055e573d6000803e3d6000fd5b5092915050565b80516002546020808401516040808601516060870151608088015183513060248201526001600160a01b03958616604482015292851660648401529084166084830152831660a4808301919091528251808303909101815260c4909101825292830180516001600160e01b03166398f5c52760e01b1790525160009493919091169190620005f39062000a72565b620005419392919062000bdd565b604051630addda3b60e21b81526001600160a01b038381166004830152828116602483015260806044830152600f60848301526e52616765547261646520694261736560881b60a483015260c06064830152600560c483015264694261736560d81b60e4830152841690632b7768ec9061010401600060405180830381600087803b1580156200069057600080fd5b505af1158015620006a5573d6000803e3d6000fd5b50505050505050565b600054610100900460ff1680620006c8575060005460ff16155b620007315760405162461bcd60e51b815260206004820152602e60248201527f496e697469616c697a61626c653a20636f6e747261637420697320616c72656160448201526d191e481a5b9a5d1a585b1a5e995960921b60648201526084015b60405180910390fd5b600054610100900460ff1615801562000754576000805461ffff19166101011790555b6000805462010000600160b01b031916620100006001600160a01b0386169081029190911782556040519091907f5f56bee8cffbe9a78652a74a60705edede02af10b0bbb888ca44b79a0d42ce80908290a3600180546001600160a01b0319166001600160a01b0384169081179091556040516000907f39355f2f5c8206286978f443aa8126bbd29fa09c53c04569502647f3a59c8cb2908290a3801562000802576000805461ff00191690555b505050565b609c1c600f9081161490565b6000620008308484846200082960014362000c2c565b4062000838565b949350505050565b825160208401206000905b6200085d8360001b82620008cf60201b6200099d1760201c565b91506200086a828560201c565b15620008765762000882565b60019092019162000843565b60006200089f878560001b886200094160201b620009fc1760201c565b9050806001600160a01b0316836001600160a01b031614620008c557620008c562000c52565b5050949350505050565b604080517fff000000000000000000000000000000000000000000000000000000000000006020808301919091526001600160601b03193060601b16602183015260358201859052605580830185905283518084039091018152607590920190925280519101206000905b9392505050565b60008084471015620009965760405162461bcd60e51b815260206004820152601d60248201527f437265617465323a20696e73756666696369656e742062616c616e6365000000604482015260640162000728565b8251620009e65760405162461bcd60e51b815260206004820181905260248201527f437265617465323a2062797465636f6465206c656e677468206973207a65726f604482015260640162000728565b8383516020850187f590506001600160a01b038116620008305760405162461bcd60e51b815260206004820152601960248201527f437265617465323a204661696c6564206f6e206465706c6f7900000000000000604482015260640162000728565b60b48062003e7b83390190565b6107788062003f2f83390190565b61110880620046a783390190565b610f1080620057af83390190565b6001600160a01b03811681146200043757600080fd5b600080600080600080600080610100898b03121562000ab457600080fd5b885162000ac18162000a80565b60208a015190985062000ad48162000a80565b60408a015190975062000ae78162000a80565b60608a015190965062000afa8162000a80565b60808a015190955062000b0d8162000a80565b60a08a015190945062000b208162000a80565b60c08a015190935062ffffff8116811462000b3a57600080fd5b8092505060e089015190509295985092959890939650565b60006020828403121562000b6557600080fd5b815160ff811681146200093a57600080fd5b60005b8381101562000b9457818101518382015260200162000b7a565b8381111562000ba4576000848401525b50505050565b6000835162000bbe81846020880162000b77565b83519083019062000bd481836020880162000b77565b01949350505050565b600060018060a01b03808616835280851660208401525060606040830152825180606084015262000c1681608085016020870162000b77565b601f01601f191691909101608001949350505050565b60008282101562000c4d57634e487b7160e01b600052601160045260246000fd5b500390565b634e487b7160e01b600052600160045260246000fd5b60805160a05160c05160e0516101005161318962000cf26000396000818160eb015281816105680152818161072e0152610e68015260008181610200015281816105a60152818161066f01528181610bc80152610e11015260006101490152600081816101c3015281816106200152610bf80152600081816102680152610c2601526131896000f3fe60806040523480156200001157600080fd5b5060043610620000e05760003560e01c80639314430e1162000097578063d38bfff4116200006e578063d38bfff41462000239578063dbc0c0851462000250578063e3d11ba01462000262578063fc344099146200028a57600080fd5b80639314430e14620001bd578063c5f1916c14620001fa578063cec38a44146200022257600080fd5b80630af9680014620000e5578063255034a9146200012a5780633ae726d514620001435780633e47158c146200017a5780635aa6e675146200018e5780637f64d66314620001a6575b600080fd5b6200010d7f000000000000000000000000000000000000000000000000000000000000000081565b6040516001600160a01b0390911681526020015b60405180910390f35b620001416200013b36600462000f13565b6200029e565b005b6200016b7f000000000000000000000000000000000000000000000000000000000000000081565b60405190815260200162000121565b6002546200010d906001600160a01b031681565b6000546201000090046001600160a01b03166200010d565b62000141620001b736600462000f13565b62000323565b620001e57f000000000000000000000000000000000000000000000000000000000000000081565b60405162ffffff909116815260200162000121565b6200010d7f000000000000000000000000000000000000000000000000000000000000000081565b620001416200023336600462000f33565b620003f4565b620001416200024a36600462000f13565b620008a8565b6001546001600160a01b03166200010d565b6200010d7f000000000000000000000000000000000000000000000000000000000000000081565b6003546200010d906001600160a01b031681565b6000546001600160a01b0362010000909104163314620002d157604051636bd1573560e11b815260040160405180910390fd5b6001600160a01b0381166200030157604051630562997d60e41b8152600060048201526024015b60405180910390fd5b600380546001600160a01b0319166001600160a01b0392909216919091179055565b6001546001600160a01b031633148015906200035157506000546001600160a01b0362010000909104163314155b156200037057604051636bd1573560e11b815260040160405180910390fd5b6001600160a01b038116620003985760405163d92e233d60e01b815260040160405180910390fd5b6001546040516001600160a01b038084169216907f39355f2f5c8206286978f443aa8126bbd29fa09c53c04569502647f3a59c8cb290600090a3600180546001600160a01b0319166001600160a01b0392909216919091179055565b6000546001600160a01b03620100009091041633146200042757604051636bd1573560e11b815260040160405180910390fd5b60006200043f62000439838062000f72565b62000b04565b905060006200044e8262000bb1565b90506001600160a01b03811663f637731d6200047160c0860160a0870162000f13565b6001600160a01b03166372b6bb3862000491608088016060890162000fad565b6040516001600160e01b031960e084901b16815263ffffffff919091166004820152602401602060405180830381865afa158015620004d4573d6000803e3d6000fd5b505050506040513d601f19601f82011682018060405250810190620004fa919062000fcb565b6040516001600160e01b031960e084901b1681526001600160a01b039091166004820152602401600060405180830381600087803b1580156200053c57600080fd5b505af115801562000551573d6000803e3d6000fd5b5050505060006200064d6040518060e001604052807f00000000000000000000000000000000000000000000000000000000000000006001600160a01b03168152602001856001600160a01b031681526020017f00000000000000000000000000000000000000000000000000000000000000006001600160a01b03168152602001846001600160a01b031681526020018660c0016020810190620005f7919062000feb565b62ffffff16815260200162000614610100880160e0890162000feb565b62ffffff1681526020017f000000000000000000000000000000000000000000000000000000000000000062ffffff1681525062000c9e565b604051635b52ebef60e11b81526001600160a01b0380831660048301529192507f00000000000000000000000000000000000000000000000000000000000000009091169063b6a5d7de90602401600060405180830381600087803b158015620006b657600080fd5b505af1158015620006cb573d6000803e3d6000fd5b5050604051636bd6da7f60e11b81526001600160a01b0384811660048301528616925063d7adb4fe9150602401600060405180830381600087803b1580156200071357600080fd5b505af115801562000728573d6000803e3d6000fd5b505050507f00000000000000000000000000000000000000000000000000000000000000006001600160a01b0316632a66e9ca846040518060600160405280866001600160a01b03168152602001856001600160a01b03168152602001886020018036038101906200079b919062001034565b9052604080516001600160e01b031960e086901b1681526001600160a01b0393841660048201528251841660248201526020808401518516604483015292820151805161ffff90811660648401529381015190931660848201529082015163ffffffff1660a48201526060820151151560c482015260809091015190911660e482015261010401600060405180830381600087803b1580156200083d57600080fd5b505af115801562000852573d6000803e3d6000fd5b5050604080516001600160a01b038681168252878116602083015285168183015290517f0d302405a4752eff773a2a9bb91dff79a0571f71ac88bdf8f0572f3c682efd3a9350908190036060019150a150505050565b6000546001600160a01b0362010000909104163314620008db57604051636bd1573560e11b815260040160405180910390fd5b6001600160a01b038116620009035760405163d92e233d60e01b815260040160405180910390fd5b600080546040516001600160a01b03808516936201000090930416917f5f56bee8cffbe9a78652a74a60705edede02af10b0bbb888ca44b79a0d42ce8091a3600080546001600160a01b03909216620100000262010000600160b01b0319909216919091179055565b609c1c600f9081161490565b6000620009958484846200098e600143620010e0565b4062000d7e565b949350505050565b604080516001600160f81b03196020808301919091526bffffffffffffffffffffffff193060601b16602183015260358201859052605580830185905283518084039091018152607590920190925280519101206000905b9392505050565b6000808447101562000a515760405162461bcd60e51b815260206004820152601d60248201527f437265617465323a20696e73756666696369656e742062616c616e63650000006044820152606401620002f8565b825162000aa15760405162461bcd60e51b815260206004820181905260248201527f437265617465323a2062797465636f6465206c656e677468206973207a65726f6044820152606401620002f8565b8383516020850187f590506001600160a01b038116620009955760405162461bcd60e51b815260206004820152601960248201527f437265617465323a204661696c6564206f6e206465706c6f79000000000000006044820152606401620002f8565b6000806040518060200162000b199062000ede565b601f1982820381018352601f9091011660405262000b38848062001106565b62000b47602087018762001106565b62000b596060890160408a0162001157565b60405160200162000b6f959493929190620011a5565b60408051601f198184030181529082905262000b8f929160200162001219565b6040516020818303038152906040529050620009f560008262000dfc62000978565b60405163a167129560e01b81526001600160a01b037f00000000000000000000000000000000000000000000000000000000000000008116600483015282811660248301527f000000000000000000000000000000000000000000000000000000000000000062ffffff1660448301526000917f00000000000000000000000000000000000000000000000000000000000000009091169063a1671295906064016020604051808303816000875af115801562000c72573d6000803e3d6000fd5b505050506040513d601f19601f8201168201806040525081019062000c98919062000fcb565b92915050565b6003546002546040805184516001600160a01b039081166024830152602080870151821660448401528684015182166064840152606087015182166084840152608087015162ffffff90811660a485015260a0880151811660c485015260c08801511660e480850191909152845180850390910181526101049093018452820180516001600160e01b0316630f5751cd60e31b1790529151600094831693929092169162000d4c9062000eec565b62000d5a939291906200124c565b604051809103906000f08015801562000d77573d6000803e3d6000fd5b5092915050565b825160208401206000905b62000d9583826200099d565b915062000da5828563ffffffff16565b1562000db15762000dbd565b60019092019162000d89565b600062000dcc878588620009fc565b9050806001600160a01b0316836001600160a01b03161462000df25762000df26200129b565b5050949350505050565b600063ffffffff82161515801562000e4557507f00000000000000000000000000000000000000000000000000000000000000006001600160a01b0316826001600160a01b0316105b801562000c985750604051636d62154b60e11b815263ffffffff831660048201527f00000000000000000000000000000000000000000000000000000000000000006001600160a01b03169063dac42a9690602401602060405180830381865afa15801562000eb8573d6000803e3d6000fd5b505050506040513d601f19601f8201168201806040525081019062000c989190620012b1565b610f9b80620012d283390190565b610f10806200226d83390190565b6001600160a01b038116811462000f1057600080fd5b50565b60006020828403121562000f2657600080fd5b8135620009f58162000efa565b60006020828403121562000f4657600080fd5b813567ffffffffffffffff81111562000f5e57600080fd5b82016101008185031215620009f557600080fd5b60008235605e1983360301811262000f8957600080fd5b9190910192915050565b803563ffffffff8116811462000fa857600080fd5b919050565b60006020828403121562000fc057600080fd5b620009f58262000f93565b60006020828403121562000fde57600080fd5b8151620009f58162000efa565b60006020828403121562000ffe57600080fd5b813562ffffff81168114620009f557600080fd5b803561ffff8116811462000fa857600080fd5b801515811462000f1057600080fd5b600060a082840312156200104757600080fd5b60405160a0810181811067ffffffffffffffff821117156200107957634e487b7160e01b600052604160045260246000fd5b604052620010878362001012565b8152620010976020840162001012565b6020820152620010aa6040840162000f93565b60408201526060830135620010bf8162001025565b60608201526080830135620010d48162000efa565b60808201529392505050565b6000828210156200110157634e487b7160e01b600052601160045260246000fd5b500390565b6000808335601e198436030181126200111e57600080fd5b83018035915067ffffffffffffffff8211156200113a57600080fd5b6020019150368190038213156200115057600080fd5b9250929050565b6000602082840312156200116a57600080fd5b813560ff81168114620009f557600080fd5b81835281816020850137506000828201602090810191909152601f909101601f19169091010190565b606081526000620011bb6060830187896200117c565b8281036020840152620011d08186886200117c565b91505060ff831660408301529695505050505050565b60005b8381101562001203578181015183820152602001620011e9565b8381111562001213576000848401525b50505050565b600083516200122d818460208801620011e6565b83519083019062001243818360208801620011e6565b01949350505050565b600060018060a01b03808616835280851660208401525060606040830152825180606084015262001285816080850160208701620011e6565b601f01601f191691909101608001949350505050565b634e487b7160e01b600052600160045260246000fd5b600060208284031215620012c457600080fd5b8151620009f5816200102556fe60a06040523480156200001157600080fd5b5060405162000f9b38038062000f9b8339810160408190526200003491620001e8565b8251839083906200004d90600390602085019062000075565b5080516200006390600490602084019062000075565b50505060ff1660805250620002aa9050565b82805462000083906200026d565b90600052602060002090601f016020900481019282620000a75760008555620000f2565b82601f10620000c257805160ff1916838001178555620000f2565b82800160010185558215620000f2579182015b82811115620000f2578251825591602001919060010190620000d5565b506200010092915062000104565b5090565b5b8082111562000100576000815560010162000105565b634e487b7160e01b600052604160045260246000fd5b600082601f8301126200014357600080fd5b81516001600160401b03808211156200016057620001606200011b565b604051601f8301601f19908116603f011681019082821181831017156200018b576200018b6200011b565b81604052838152602092508683858801011115620001a857600080fd5b600091505b83821015620001cc5785820183015181830184015290820190620001ad565b83821115620001de5760008385830101525b9695505050505050565b600080600060608486031215620001fe57600080fd5b83516001600160401b03808211156200021657600080fd5b620002248783880162000131565b945060208601519150808211156200023b57600080fd5b506200024a8682870162000131565b925050604084015160ff811681146200026257600080fd5b809150509250925092565b600181811c908216806200028257607f821691505b60208210811415620002a457634e487b7160e01b600052602260045260246000fd5b50919050565b608051610cd5620002c660003960006101670152610cd56000f3fe608060405234801561001057600080fd5b50600436106100f55760003560e01c806342966c6811610097578063a9059cbb11610066578063a9059cbb14610210578063d7adb4fe14610223578063dd62ed3e14610236578063df8685d21461026f57600080fd5b806342966c68146101b957806370a08231146101cc57806395d89b41146101f5578063a457c2d7146101fd57600080fd5b806323b872dd116100d357806323b872dd1461014d578063313ce56714610160578063395093511461019157806340c10f19146101a457600080fd5b806306fdde03146100fa578063095ea7b31461011857806318160ddd1461013b575b600080fd5b61010261029a565b60405161010f9190610b03565b60405180910390f35b61012b610126366004610b74565b61032c565b604051901515815260200161010f565b6002545b60405190815260200161010f565b61012b61015b366004610b9e565b610342565b60405160ff7f000000000000000000000000000000000000000000000000000000000000000016815260200161010f565b61012b61019f366004610b74565b6103f1565b6101b76101b2366004610b74565b61042d565b005b6101b76101c7366004610bda565b610466565b61013f6101da366004610bf3565b6001600160a01b031660009081526020819052604090205490565b610102610473565b61012b61020b366004610b74565b610482565b61012b61021e366004610b74565b61051b565b6101b7610231366004610bf3565b610528565b61013f610244366004610c15565b6001600160a01b03918216600090815260016020908152604080832093909416825291909152205490565b600554610282906001600160a01b031681565b6040516001600160a01b03909116815260200161010f565b6060600380546102a990610c48565b80601f01602080910402602001604051908101604052809291908181526020018280546102d590610c48565b80156103225780601f106102f757610100808354040283529160200191610322565b820191906000526020600020905b81548152906001019060200180831161030557829003601f168201915b5050505050905090565b6000610339338484610558565b50600192915050565b600061034f84848461067d565b6001600160a01b0384166000908152600160209081526040808320338452909152902054828110156103d95760405162461bcd60e51b815260206004820152602860248201527f45524332303a207472616e7366657220616d6f756e74206578636565647320616044820152676c6c6f77616e636560c01b60648201526084015b60405180910390fd5b6103e68533858403610558565b506001949350505050565b3360008181526001602090815260408083206001600160a01b03871684529091528120549091610339918590610428908690610c99565b610558565b6005546001600160a01b0316331461045857604051636bd1573560e11b815260040160405180910390fd5b6104628282610857565b5050565b6104703382610942565b50565b6060600480546102a990610c48565b3360009081526001602090815260408083206001600160a01b0386168452909152812054828110156105045760405162461bcd60e51b815260206004820152602560248201527f45524332303a2064656372656173656420616c6c6f77616e63652062656c6f77604482015264207a65726f60d81b60648201526084016103d0565b6105113385858403610558565b5060019392505050565b600061033933848461067d565b6005546001600160a01b031661047057600580546001600160a01b0383166001600160a01b031990911617905550565b6001600160a01b0383166105ba5760405162461bcd60e51b8152602060048201526024808201527f45524332303a20617070726f76652066726f6d20746865207a65726f206164646044820152637265737360e01b60648201526084016103d0565b6001600160a01b03821661061b5760405162461bcd60e51b815260206004820152602260248201527f45524332303a20617070726f766520746f20746865207a65726f206164647265604482015261737360f01b60648201526084016103d0565b6001600160a01b0383811660008181526001602090815260408083209487168084529482529182902085905590518481527f8c5be1e5ebec7d5bd14f71427d1e84f3dd0314c0f7b2291e5b200ac8c7c3b92591015b60405180910390a3505050565b6001600160a01b0383166106e15760405162461bcd60e51b815260206004820152602560248201527f45524332303a207472616e736665722066726f6d20746865207a65726f206164604482015264647265737360d81b60648201526084016103d0565b6001600160a01b0382166107435760405162461bcd60e51b815260206004820152602360248201527f45524332303a207472616e7366657220746f20746865207a65726f206164647260448201526265737360e81b60648201526084016103d0565b61074e838383610a99565b6001600160a01b038316600090815260208190526040902054818110156107c65760405162461bcd60e51b815260206004820152602660248201527f45524332303a207472616e7366657220616d6f756e7420657863656564732062604482015265616c616e636560d01b60648201526084016103d0565b6001600160a01b038085166000908152602081905260408082208585039055918516815290812080548492906107fd908490610c99565b92505081905550826001600160a01b0316846001600160a01b03167fddf252ad1be2c89b69c2b068fc378daa952ba7f163c4a11628f55a4df523b3ef8460405161084991815260200190565b60405180910390a350505050565b6001600160a01b0382166108ad5760405162461bcd60e51b815260206004820152601f60248201527f45524332303a206d696e7420746f20746865207a65726f20616464726573730060448201526064016103d0565b6108b960008383610a99565b80600260008282546108cb9190610c99565b90915550506001600160a01b038216600090815260208190526040812080548392906108f8908490610c99565b90915550506040518181526001600160a01b038316906000907fddf252ad1be2c89b69c2b068fc378daa952ba7f163c4a11628f55a4df523b3ef9060200160405180910390a35050565b6001600160a01b0382166109a25760405162461bcd60e51b815260206004820152602160248201527f45524332303a206275726e2066726f6d20746865207a65726f206164647265736044820152607360f81b60648201526084016103d0565b6109ae82600083610a99565b6001600160a01b03821660009081526020819052604090205481811015610a225760405162461bcd60e51b815260206004820152602260248201527f45524332303a206275726e20616d6f756e7420657863656564732062616c616e604482015261636560f01b60648201526084016103d0565b6001600160a01b0383166000908152602081905260408120838303905560028054849290610a51908490610cb1565b90915550506040518281526000906001600160a01b038516907fddf252ad1be2c89b69c2b068fc378daa952ba7f163c4a11628f55a4df523b3ef90602001610670565b505050565b6001600160a01b0383161580610ab657506001600160a01b038216155b80610ace57506005546001600160a01b038481169116145b80610ae657506005546001600160a01b038381169116145b610a9457604051636bd1573560e11b815260040160405180910390fd5b600060208083528351808285015260005b81811015610b3057858101830151858201604001528201610b14565b81811115610b42576000604083870101525b50601f01601f1916929092016040019392505050565b80356001600160a01b0381168114610b6f57600080fd5b919050565b60008060408385031215610b8757600080fd5b610b9083610b58565b946020939093013593505050565b600080600060608486031215610bb357600080fd5b610bbc84610b58565b9250610bca60208501610b58565b9150604084013590509250925092565b600060208284031215610bec57600080fd5b5035919050565b600060208284031215610c0557600080fd5b610c0e82610b58565b9392505050565b60008060408385031215610c2857600080fd5b610c3183610b58565b9150610c3f60208401610b58565b90509250929050565b600181811c90821680610c5c57607f821691505b60208210811415610c7d57634e487b7160e01b600052602260045260246000fd5b50919050565b634e487b7160e01b600052601160045260246000fd5b60008219821115610cac57610cac610c83565b500190565b600082821015610cc357610cc3610c83565b50039056fea164736f6c634300080a000a608060405260405162000f1038038062000f10833981016040819052620000269162000507565b82816200005560017f360894a13ba1a3210667c828492db98dca3e2076cc3735a920a3ca505d382bbd620005e7565b60008051602062000ec9833981519152146200007557620000756200060d565b6200008382826000620000e7565b50620000b3905060017fb53127684a568b3173ae13b9f8a6016e243e63b6e8ee1178d6a717850b5d6104620005e7565b60008051602062000ea983398151915214620000d357620000d36200060d565b620000de8262000124565b50505062000676565b620000f2836200017f565b600082511180620001005750805b156200011f576200011d8383620001c160201b620002601760201c565b505b505050565b7f7e644d79422f17c01e4894b5f4f588d331ebfa28653d42ae832dc59e38c9798f6200014f620001f0565b604080516001600160a01b03928316815291841660208301520160405180910390a16200017c8162000229565b50565b6200018a81620002de565b6040516001600160a01b038216907fbc7cd75a20ee27fd9adebab32041f755214dbc6bffa90cc0225b39da2e5c2d3b90600090a250565b6060620001e9838360405180606001604052806027815260200162000ee96027913962000381565b9392505050565b60006200021a60008051602062000ea983398151915260001b6200045e60201b620002081760201c565b546001600160a01b0316919050565b6001600160a01b038116620002945760405162461bcd60e51b815260206004820152602660248201527f455243313936373a206e65772061646d696e20697320746865207a65726f206160448201526564647265737360d01b60648201526084015b60405180910390fd5b80620002bd60008051602062000ea983398151915260001b6200045e60201b620002081760201c565b80546001600160a01b0319166001600160a01b039290921691909117905550565b620002f4816200046160201b6200028c1760201c565b620003585760405162461bcd60e51b815260206004820152602d60248201527f455243313936373a206e657720696d706c656d656e746174696f6e206973206e60448201526c1bdd08184818dbdb9d1c9858dd609a1b60648201526084016200028b565b80620002bd60008051602062000ec983398151915260001b6200045e60201b620002081760201c565b6060833b620003e25760405162461bcd60e51b815260206004820152602660248201527f416464726573733a2064656c65676174652063616c6c20746f206e6f6e2d636f6044820152651b9d1c9858dd60d21b60648201526084016200028b565b600080856001600160a01b031685604051620003ff919062000623565b600060405180830381855af49150503d80600081146200043c576040519150601f19603f3d011682016040523d82523d6000602084013e62000441565b606091505b5090925090506200045482828662000467565b9695505050505050565b90565b3b151590565b6060831562000478575081620001e9565b825115620004895782518084602001fd5b8160405162461bcd60e51b81526004016200028b919062000641565b80516001600160a01b0381168114620004bd57600080fd5b919050565b634e487b7160e01b600052604160045260246000fd5b60005b83811015620004f5578181015183820152602001620004db565b838111156200011d5750506000910152565b6000806000606084860312156200051d57600080fd5b6200052884620004a5565b92506200053860208501620004a5565b60408501519092506001600160401b03808211156200055657600080fd5b818601915086601f8301126200056b57600080fd5b815181811115620005805762000580620004c2565b604051601f8201601f19908116603f01168101908382118183101715620005ab57620005ab620004c2565b81604052828152896020848701011115620005c557600080fd5b620005d8836020830160208801620004d8565b80955050505050509250925092565b6000828210156200060857634e487b7160e01b600052601160045260246000fd5b500390565b634e487b7160e01b600052600160045260246000fd5b6000825162000637818460208701620004d8565b9190910192915050565b602081526000825180602084015262000662816040850160208701620004d8565b601f01601f19169190910160400192915050565b61082380620006866000396000f3fe60806040526004361061004e5760003560e01c80633659cfe6146100655780634f1ef286146100855780635c60da1b146100985780638f283970146100c9578063f851a440146100e95761005d565b3661005d5761005b6100fe565b005b61005b6100fe565b34801561007157600080fd5b5061005b6100803660046106d6565b610118565b61005b6100933660046106f1565b61015f565b3480156100a457600080fd5b506100ad6101d0565b6040516001600160a01b03909116815260200160405180910390f35b3480156100d557600080fd5b5061005b6100e43660046106d6565b61020b565b3480156100f557600080fd5b506100ad610235565b610106610292565b610116610111610331565b61033b565b565b61012061035f565b6001600160a01b0316336001600160a01b031614156101575761015481604051806020016040528060008152506000610392565b50565b6101546100fe565b61016761035f565b6001600160a01b0316336001600160a01b031614156101c8576101c38383838080601f01602080910402602001604051908101604052809392919081815260200183838082843760009201919091525060019250610392915050565b505050565b6101c36100fe565b60006101da61035f565b6001600160a01b0316336001600160a01b03161415610200576101fb610331565b905090565b6102086100fe565b90565b61021361035f565b6001600160a01b0316336001600160a01b0316141561015757610154816103bd565b600061023f61035f565b6001600160a01b0316336001600160a01b03161415610200576101fb61035f565b606061028583836040518060600160405280602781526020016107f060279139610411565b9392505050565b3b151590565b61029a61035f565b6001600160a01b0316336001600160a01b031614156101165760405162461bcd60e51b815260206004820152604260248201527f5472616e73706172656e745570677261646561626c6550726f78793a2061646d60448201527f696e2063616e6e6f742066616c6c6261636b20746f2070726f78792074617267606482015261195d60f21b608482015260a4015b60405180910390fd5b60006101fb6104e5565b3660008037600080366000845af43d6000803e80801561035a573d6000f35b3d6000fd5b60007fb53127684a568b3173ae13b9f8a6016e243e63b6e8ee1178d6a717850b5d61035b546001600160a01b0316919050565b61039b8361050d565b6000825111806103a85750805b156101c3576103b78383610260565b50505050565b7f7e644d79422f17c01e4894b5f4f588d331ebfa28653d42ae832dc59e38c9798f6103e661035f565b604080516001600160a01b03928316815291841660208301520160405180910390a16101548161054d565b6060833b6104705760405162461bcd60e51b815260206004820152602660248201527f416464726573733a2064656c65676174652063616c6c20746f206e6f6e2d636f6044820152651b9d1c9858dd60d21b6064820152608401610328565b600080856001600160a01b03168560405161048b91906107a0565b600060405180830381855af49150503d80600081146104c6576040519150601f19603f3d011682016040523d82523d6000602084013e6104cb565b606091505b50915091506104db8282866105f6565b9695505050505050565b60007f360894a13ba1a3210667c828492db98dca3e2076cc3735a920a3ca505d382bbc610383565b6105168161062f565b6040516001600160a01b038216907fbc7cd75a20ee27fd9adebab32041f755214dbc6bffa90cc0225b39da2e5c2d3b90600090a250565b6001600160a01b0381166105b25760405162461bcd60e51b815260206004820152602660248201527f455243313936373a206e65772061646d696e20697320746865207a65726f206160448201526564647265737360d01b6064820152608401610328565b807fb53127684a568b3173ae13b9f8a6016e243e63b6e8ee1178d6a717850b5d61035b80546001600160a01b0319166001600160a01b039290921691909117905550565b60608315610605575081610285565b8251156106155782518084602001fd5b8160405162461bcd60e51b815260040161032891906107bc565b803b6106935760405162461bcd60e51b815260206004820152602d60248201527f455243313936373a206e657720696d706c656d656e746174696f6e206973206e60448201526c1bdd08184818dbdb9d1c9858dd609a1b6064820152608401610328565b807f360894a13ba1a3210667c828492db98dca3e2076cc3735a920a3ca505d382bbc6105d5565b80356001600160a01b03811681146106d157600080fd5b919050565b6000602082840312156106e857600080fd5b610285826106ba565b60008060006040848603121561070657600080fd5b61070f846106ba565b9250602084013567ffffffffffffffff8082111561072c57600080fd5b818601915086601f83011261074057600080fd5b81358181111561074f57600080fd5b87602082850101111561076157600080fd5b6020830194508093505050509250925092565b60005b8381101561078f578181015183820152602001610777565b838111156103b75750506000910152565b600082516107b2818460208701610774565b9190910192915050565b60208152600082518060208401526107db816040850160208701610774565b601f01601f1916919091016040019291505056fe416464726573733a206c6f772d6c6576656c2064656c65676174652063616c6c206661696c6564a164736f6c634300080a000ab53127684a568b3173ae13b9f8a6016e243e63b6e8ee1178d6a717850b5d6103360894a13ba1a3210667c828492db98dca3e2076cc3735a920a3ca505d382bbc416464726573733a206c6f772d6c6576656c2064656c65676174652063616c6c206661696c6564a164736f6c634300080a000a608060405234801561001057600080fd5b5060958061001f6000396000f3fe6080604052348015600f57600080fd5b506004361060285760003560e01c806372b6bb3814602d575b600080fd5b60416038366004605d565b50600160601b90565b6040516001600160a01b03909116815260200160405180910390f35b600060208284031215606e57600080fd5b813563ffffffff81168114608157600080fd5b939250505056fea164736f6c634300080a000a608060405234801561001057600080fd5b5061001a3361001f565b61006f565b600080546001600160a01b038381166001600160a01b0319831681178455604051919092169283917f8be0079c531659141344cd1fd0a4f28419497f9722a3daafe3b4186f6b6457e09190a35050565b6106fa8061007e6000396000f3fe60806040526004361061007b5760003560e01c80639623609d1161004e5780639623609d1461011157806399a88ec414610124578063f2fde38b14610144578063f3b7dead1461016457600080fd5b8063204e1c7a14610080578063715018a6146100bc5780637eff275e146100d35780638da5cb5b146100f3575b600080fd5b34801561008c57600080fd5b506100a061009b3660046104ed565b610184565b6040516001600160a01b03909116815260200160405180910390f35b3480156100c857600080fd5b506100d1610215565b005b3480156100df57600080fd5b506100d16100ee366004610511565b610254565b3480156100ff57600080fd5b506000546001600160a01b03166100a0565b6100d161011f366004610560565b6102de565b34801561013057600080fd5b506100d161013f366004610511565b61036f565b34801561015057600080fd5b506100d161015f3660046104ed565b6103c7565b34801561017057600080fd5b506100a061017f3660046104ed565b610462565b6000806000836001600160a01b03166040516101aa90635c60da1b60e01b815260040190565b600060405180830381855afa9150503d80600081146101e5576040519150601f19603f3d011682016040523d82523d6000602084013e6101ea565b606091505b5091509150816101f957600080fd5b8080602001905181019061020d9190610636565b949350505050565b6000546001600160a01b031633146102485760405162461bcd60e51b815260040161023f90610653565b60405180910390fd5b6102526000610488565b565b6000546001600160a01b0316331461027e5760405162461bcd60e51b815260040161023f90610653565b6040516308f2839760e41b81526001600160a01b038281166004830152831690638f283970906024015b600060405180830381600087803b1580156102c257600080fd5b505af11580156102d6573d6000803e3d6000fd5b505050505050565b6000546001600160a01b031633146103085760405162461bcd60e51b815260040161023f90610653565b60405163278f794360e11b81526001600160a01b03841690634f1ef2869034906103389086908690600401610688565b6000604051808303818588803b15801561035157600080fd5b505af1158015610365573d6000803e3d6000fd5b5050505050505050565b6000546001600160a01b031633146103995760405162461bcd60e51b815260040161023f90610653565b604051631b2ce7f360e11b81526001600160a01b038281166004830152831690633659cfe6906024016102a8565b6000546001600160a01b031633146103f15760405162461bcd60e51b815260040161023f90610653565b6001600160a01b0381166104565760405162461bcd60e51b815260206004820152602660248201527f4f776e61626c653a206e6577206f776e657220697320746865207a65726f206160448201526564647265737360d01b606482015260840161023f565b61045f81610488565b50565b6000806000836001600160a01b03166040516101aa906303e1469160e61b815260040190565b600080546001600160a01b038381166001600160a01b0319831681178455604051919092169283917f8be0079c531659141344cd1fd0a4f28419497f9722a3daafe3b4186f6b6457e09190a35050565b6001600160a01b038116811461045f57600080fd5b6000602082840312156104ff57600080fd5b813561050a816104d8565b9392505050565b6000806040838503121561052457600080fd5b823561052f816104d8565b9150602083013561053f816104d8565b809150509250929050565b634e487b7160e01b600052604160045260246000fd5b60008060006060848603121561057557600080fd5b8335610580816104d8565b92506020840135610590816104d8565b9150604084013567ffffffffffffffff808211156105ad57600080fd5b818601915086601f8301126105c157600080fd5b8135818111156105d3576105d361054a565b604051601f8201601f19908116603f011681019083821181831017156105fb576105fb61054a565b8160405282815289602084870101111561061457600080fd5b8260208601602083013760006020848301015280955050505050509250925092565b60006020828403121561064857600080fd5b815161050a816104d8565b6020808252818101527f4f776e61626c653a2063616c6c6572206973206e6f7420746865206f776e6572604082015260600190565b60018060a01b038316815260006020604081840152835180604085015260005b818110156106c4578581018301518582016060015282016106a8565b818111156106d6576000606083870101525b50601f01601f19169290920160600194935050505056fea164736f6c634300080a000a60a06040523480156200001157600080fd5b5060405162001108380380620011088339810160408190526200003491620001d1565b604080518082018252601d81527f52616765205472616465205669727475616c204261736520546f6b656e000000602080830191825283518085019094526005845264764261736560d81b90840152815191929162000096916003916200012b565b508051620000ac9060049060208401906200012b565b505050620000c9620000c3620000d560201b60201c565b620000d9565b60ff166080526200023a565b3390565b600580546001600160a01b038381166001600160a01b0319831681179093556040519116919082907f8be0079c531659141344cd1fd0a4f28419497f9722a3daafe3b4186f6b6457e090600090a35050565b8280546200013990620001fd565b90600052602060002090601f0160209004810192826200015d5760008555620001a8565b82601f106200017857805160ff1916838001178555620001a8565b82800160010185558215620001a8579182015b82811115620001a85782518255916020019190600101906200018b565b50620001b6929150620001ba565b5090565b5b80821115620001b65760008155600101620001bb565b600060208284031215620001e457600080fd5b815160ff81168114620001f657600080fd5b9392505050565b600181811c908216806200021257607f821691505b602082108114156200023457634e487b7160e01b600052602260045260246000fd5b50919050565b608051610eb26200025660003960006101ab0152610eb26000f3fe608060405234801561001057600080fd5b50600436106101165760003560e01c806370a08231116100a2578063a457c2d711610071578063a457c2d714610264578063a9059cbb14610277578063b6a5d7de1461028a578063dd62ed3e1461029d578063f2fde38b146102d657600080fd5b806370a0823114610210578063715018a6146102395780638da5cb5b1461024157806395d89b411461025c57600080fd5b80632520e7ff116100e95780632520e7ff14610181578063313ce567146101a457806339509351146101d557806340c10f19146101e857806342966c68146101fd57600080fd5b806306fdde031461011b578063095ea7b31461013957806318160ddd1461015c57806323b872dd1461016e575b600080fd5b6101236102e9565b6040516101309190610cab565b60405180910390f35b61014c610147366004610d1c565b61037b565b6040519015158152602001610130565b6002545b604051908152602001610130565b61014c61017c366004610d46565b610391565b61014c61018f366004610d82565b60066020526000908152604090205460ff1681565b60405160ff7f0000000000000000000000000000000000000000000000000000000000000000168152602001610130565b61014c6101e3366004610d1c565b610440565b6101fb6101f6366004610d1c565b61047c565b005b6101fb61020b366004610da4565b6104ba565b61016061021e366004610d82565b6001600160a01b031660009081526020819052604090205490565b6101fb6104c7565b6005546040516001600160a01b039091168152602001610130565b6101236104fd565b61014c610272366004610d1c565b61050c565b61014c610285366004610d1c565b6105a5565b6101fb610298366004610d82565b6105b2565b6101606102ab366004610dbd565b6001600160a01b03918216600090815260016020908152604080832093909416825291909152205490565b6101fb6102e4366004610d82565b610600565b6060600380546102f890610df0565b80601f016020809104026020016040519081016040528092919081815260200182805461032490610df0565b80156103715780601f1061034657610100808354040283529160200191610371565b820191906000526020600020905b81548152906001019060200180831161035457829003601f168201915b5050505050905090565b6000610388338484610698565b50600192915050565b600061039e8484846107bd565b6001600160a01b0384166000908152600160209081526040808320338452909152902054828110156104285760405162461bcd60e51b815260206004820152602860248201527f45524332303a207472616e7366657220616d6f756e74206578636565647320616044820152676c6c6f77616e636560c01b60648201526084015b60405180910390fd5b6104358533858403610698565b506001949350505050565b3360008181526001602090815260408083206001600160a01b03871684529091528120549091610388918590610477908690610e41565b610698565b3360009081526006602052604090205460ff166104ac57604051636bd1573560e11b815260040160405180910390fd5b6104b68282610997565b5050565b6104c43382610a82565b50565b6005546001600160a01b031633146104f15760405162461bcd60e51b815260040161041f90610e59565b6104fb6000610bd9565b565b6060600480546102f890610df0565b3360009081526001602090815260408083206001600160a01b03861684529091528120548281101561058e5760405162461bcd60e51b815260206004820152602560248201527f45524332303a2064656372656173656420616c6c6f77616e63652062656c6f77604482015264207a65726f60d81b606482015260840161041f565b61059b3385858403610698565b5060019392505050565b60006103883384846107bd565b6005546001600160a01b031633146105dc5760405162461bcd60e51b815260040161041f90610e59565b6001600160a01b03166000908152600660205260409020805460ff19166001179055565b6005546001600160a01b0316331461062a5760405162461bcd60e51b815260040161041f90610e59565b6001600160a01b03811661068f5760405162461bcd60e51b815260206004820152602660248201527f4f776e61626c653a206e6577206f776e657220697320746865207a65726f206160448201526564647265737360d01b606482015260840161041f565b6104c481610bd9565b6001600160a01b0383166106fa5760405162461bcd60e51b8152602060048201526024808201527f45524332303a20617070726f76652066726f6d20746865207a65726f206164646044820152637265737360e01b606482015260840161041f565b6001600160a01b03821661075b5760405162461bcd60e51b815260206004820152602260248201527f45524332303a20617070726f766520746f20746865207a65726f206164647265604482015261737360f01b606482015260840161041f565b6001600160a01b0383811660008181526001602090815260408083209487168084529482529182902085905590518481527f8c5be1e5ebec7d5bd14f71427d1e84f3dd0314c0f7b2291e5b200ac8c7c3b92591015b60405180910390a3505050565b6001600160a01b0383166108215760405162461bcd60e51b815260206004820152602560248201527f45524332303a207472616e736665722066726f6d20746865207a65726f206164604482015264647265737360d81b606482015260840161041f565b6001600160a01b0382166108835760405162461bcd60e51b815260206004820152602360248201527f45524332303a207472616e7366657220746f20746865207a65726f206164647260448201526265737360e81b606482015260840161041f565b61088e838383610c2b565b6001600160a01b038316600090815260208190526040902054818110156109065760405162461bcd60e51b815260206004820152602660248201527f45524332303a207472616e7366657220616d6f756e7420657863656564732062604482015265616c616e636560d01b606482015260840161041f565b6001600160a01b0380851660009081526020819052604080822085850390559185168152908120805484929061093d908490610e41565b92505081905550826001600160a01b0316846001600160a01b03167fddf252ad1be2c89b69c2b068fc378daa952ba7f163c4a11628f55a4df523b3ef8460405161098991815260200190565b60405180910390a350505050565b6001600160a01b0382166109ed5760405162461bcd60e51b815260206004820152601f60248201527f45524332303a206d696e7420746f20746865207a65726f206164647265737300604482015260640161041f565b6109f960008383610c2b565b8060026000828254610a0b9190610e41565b90915550506001600160a01b03821660009081526020819052604081208054839290610a38908490610e41565b90915550506040518181526001600160a01b038316906000907fddf252ad1be2c89b69c2b068fc378daa952ba7f163c4a11628f55a4df523b3ef9060200160405180910390a35050565b6001600160a01b038216610ae25760405162461bcd60e51b815260206004820152602160248201527f45524332303a206275726e2066726f6d20746865207a65726f206164647265736044820152607360f81b606482015260840161041f565b610aee82600083610c2b565b6001600160a01b03821660009081526020819052604090205481811015610b625760405162461bcd60e51b815260206004820152602260248201527f45524332303a206275726e20616d6f756e7420657863656564732062616c616e604482015261636560f01b606482015260840161041f565b6001600160a01b0383166000908152602081905260408120838303905560028054849290610b91908490610e8e565b90915550506040518281526000906001600160a01b038516907fddf252ad1be2c89b69c2b068fc378daa952ba7f163c4a11628f55a4df523b3ef906020016107b0565b505050565b600580546001600160a01b038381166001600160a01b0319831681179093556040519116919082907f8be0079c531659141344cd1fd0a4f28419497f9722a3daafe3b4186f6b6457e090600090a35050565b6001600160a01b0383161580610c4857506001600160a01b038216155b80610c6b57506001600160a01b03831660009081526006602052604090205460ff165b80610c8e57506001600160a01b03821660009081526006602052604090205460ff165b610bd457604051636bd1573560e11b815260040160405180910390fd5b600060208083528351808285015260005b81811015610cd857858101830151858201604001528201610cbc565b81811115610cea576000604083870101525b50601f01601f1916929092016040019392505050565b80356001600160a01b0381168114610d1757600080fd5b919050565b60008060408385031215610d2f57600080fd5b610d3883610d00565b946020939093013593505050565b600080600060608486031215610d5b57600080fd5b610d6484610d00565b9250610d7260208501610d00565b9150604084013590509250925092565b600060208284031215610d9457600080fd5b610d9d82610d00565b9392505050565b600060208284031215610db657600080fd5b5035919050565b60008060408385031215610dd057600080fd5b610dd983610d00565b9150610de760208401610d00565b90509250929050565b600181811c90821680610e0457607f821691505b60208210811415610e2557634e487b7160e01b600052602260045260246000fd5b50919050565b634e487b7160e01b600052601160045260246000fd5b60008219821115610e5457610e54610e2b565b500190565b6020808252818101527f4f776e61626c653a2063616c6c6572206973206e6f7420746865206f776e6572604082015260600190565b600082821015610ea057610ea0610e2b565b50039056fea164736f6c634300080a000a608060405260405162000f1038038062000f10833981016040819052620000269162000507565b82816200005560017f360894a13ba1a3210667c828492db98dca3e2076cc3735a920a3ca505d382bbd620005e7565b60008051602062000ec9833981519152146200007557620000756200060d565b6200008382826000620000e7565b50620000b3905060017fb53127684a568b3173ae13b9f8a6016e243e63b6e8ee1178d6a717850b5d6104620005e7565b60008051602062000ea983398151915214620000d357620000d36200060d565b620000de8262000124565b50505062000676565b620000f2836200017f565b600082511180620001005750805b156200011f576200011d8383620001c160201b620002601760201c565b505b505050565b7f7e644d79422f17c01e4894b5f4f588d331ebfa28653d42ae832dc59e38c9798f6200014f620001f0565b604080516001600160a01b03928316815291841660208301520160405180910390a16200017c8162000229565b50565b6200018a81620002de565b6040516001600160a01b038216907fbc7cd75a20ee27fd9adebab32041f755214dbc6bffa90cc0225b39da2e5c2d3b90600090a250565b6060620001e9838360405180606001604052806027815260200162000ee96027913962000381565b9392505050565b60006200021a60008051602062000ea983398151915260001b6200045e60201b620002081760201c565b546001600160a01b0316919050565b6001600160a01b038116620002945760405162461bcd60e51b815260206004820152602660248201527f455243313936373a206e65772061646d696e20697320746865207a65726f206160448201526564647265737360d01b60648201526084015b60405180910390fd5b80620002bd60008051602062000ea983398151915260001b6200045e60201b620002081760201c565b80546001600160a01b0319166001600160a01b039290921691909117905550565b620002f4816200046160201b6200028c1760201c565b620003585760405162461bcd60e51b815260206004820152602d60248201527f455243313936373a206e657720696d706c656d656e746174696f6e206973206e60448201526c1bdd08184818dbdb9d1c9858dd609a1b60648201526084016200028b565b80620002bd60008051602062000ec983398151915260001b6200045e60201b620002081760201c565b6060833b620003e25760405162461bcd60e51b815260206004820152602660248201527f416464726573733a2064656c65676174652063616c6c20746f206e6f6e2d636f6044820152651b9d1c9858dd60d21b60648201526084016200028b565b600080856001600160a01b031685604051620003ff919062000623565b600060405180830381855af49150503d80600081146200043c576040519150601f19603f3d011682016040523d82523d6000602084013e62000441565b606091505b5090925090506200045482828662000467565b9695505050505050565b90565b3b151590565b6060831562000478575081620001e9565b825115620004895782518084602001fd5b8160405162461bcd60e51b81526004016200028b919062000641565b80516001600160a01b0381168114620004bd57600080fd5b919050565b634e487b7160e01b600052604160045260246000fd5b60005b83811015620004f5578181015183820152602001620004db565b838111156200011d5750506000910152565b6000806000606084860312156200051d57600080fd5b6200052884620004a5565b92506200053860208501620004a5565b60408501519092506001600160401b03808211156200055657600080fd5b818601915086601f8301126200056b57600080fd5b815181811115620005805762000580620004c2565b604051601f8201601f19908116603f01168101908382118183101715620005ab57620005ab620004c2565b81604052828152896020848701011115620005c557600080fd5b620005d8836020830160208801620004d8565b80955050505050509250925092565b6000828210156200060857634e487b7160e01b600052601160045260246000fd5b500390565b634e487b7160e01b600052600160045260246000fd5b6000825162000637818460208701620004d8565b9190910192915050565b602081526000825180602084015262000662816040850160208701620004d8565b601f01601f19169190910160400192915050565b61082380620006866000396000f3fe60806040526004361061004e5760003560e01c80633659cfe6146100655780634f1ef286146100855780635c60da1b146100985780638f283970146100c9578063f851a440146100e95761005d565b3661005d5761005b6100fe565b005b61005b6100fe565b34801561007157600080fd5b5061005b6100803660046106d6565b610118565b61005b6100933660046106f1565b61015f565b3480156100a457600080fd5b506100ad6101d0565b6040516001600160a01b03909116815260200160405180910390f35b3480156100d557600080fd5b5061005b6100e43660046106d6565b61020b565b3480156100f557600080fd5b506100ad610235565b610106610292565b610116610111610331565b61033b565b565b61012061035f565b6001600160a01b0316336001600160a01b031614156101575761015481604051806020016040528060008152506000610392565b50565b6101546100fe565b61016761035f565b6001600160a01b0316336001600160a01b031614156101c8576101c38383838080601f01602080910402602001604051908101604052809392919081815260200183838082843760009201919091525060019250610392915050565b505050565b6101c36100fe565b60006101da61035f565b6001600160a01b0316336001600160a01b03161415610200576101fb610331565b905090565b6102086100fe565b90565b61021361035f565b6001600160a01b0316336001600160a01b0316141561015757610154816103bd565b600061023f61035f565b6001600160a01b0316336001600160a01b03161415610200576101fb61035f565b606061028583836040518060600160405280602781526020016107f060279139610411565b9392505050565b3b151590565b61029a61035f565b6001600160a01b0316336001600160a01b031614156101165760405162461bcd60e51b815260206004820152604260248201527f5472616e73706172656e745570677261646561626c6550726f78793a2061646d60448201527f696e2063616e6e6f742066616c6c6261636b20746f2070726f78792074617267606482015261195d60f21b608482015260a4015b60405180910390fd5b60006101fb6104e5565b3660008037600080366000845af43d6000803e80801561035a573d6000f35b3d6000fd5b60007fb53127684a568b3173ae13b9f8a6016e243e63b6e8ee1178d6a717850b5d61035b546001600160a01b0316919050565b61039b8361050d565b6000825111806103a85750805b156101c3576103b78383610260565b50505050565b7f7e644d79422f17c01e4894b5f4f588d331ebfa28653d42ae832dc59e38c9798f6103e661035f565b604080516001600160a01b03928316815291841660208301520160405180910390a16101548161054d565b6060833b6104705760405162461bcd60e51b815260206004820152602660248201527f416464726573733a2064656c65676174652063616c6c20746f206e6f6e2d636f6044820152651b9d1c9858dd60d21b6064820152608401610328565b600080856001600160a01b03168560405161048b91906107a0565b600060405180830381855af49150503d80600081146104c6576040519150601f19603f3d011682016040523d82523d6000602084013e6104cb565b606091505b50915091506104db8282866105f6565b9695505050505050565b60007f360894a13ba1a3210667c828492db98dca3e2076cc3735a920a3ca505d382bbc610383565b6105168161062f565b6040516001600160a01b038216907fbc7cd75a20ee27fd9adebab32041f755214dbc6bffa90cc0225b39da2e5c2d3b90600090a250565b6001600160a01b0381166105b25760405162461bcd60e51b815260206004820152602660248201527f455243313936373a206e65772061646d696e20697320746865207a65726f206160448201526564647265737360d01b6064820152608401610328565b807fb53127684a568b3173ae13b9f8a6016e243e63b6e8ee1178d6a717850b5d61035b80546001600160a01b0319166001600160a01b039290921691909117905550565b60608315610605575081610285565b8251156106155782518084602001fd5b8160405162461bcd60e51b815260040161032891906107bc565b803b6106935760405162461bcd60e51b815260206004820152602d60248201527f455243313936373a206e657720696d706c656d656e746174696f6e206973206e60448201526c1bdd08184818dbdb9d1c9858dd609a1b6064820152608401610328565b807f360894a13ba1a3210667c828492db98dca3e2076cc3735a920a3ca505d382bbc6105d5565b80356001600160a01b03811681146106d157600080fd5b919050565b6000602082840312156106e857600080fd5b610285826106ba565b60008060006040848603121561070657600080fd5b61070f846106ba565b9250602084013567ffffffffffffffff8082111561072c57600080fd5b818601915086601f83011261074057600080fd5b81358181111561074f57600080fd5b87602082850101111561076157600080fd5b6020830194508093505050509250925092565b60005b8381101561078f578181015183820152602001610777565b838111156103b75750506000910152565b600082516107b2818460208701610774565b9190910192915050565b60208152600082518060208401526107db816040850160208701610774565b601f01601f1916919091016040019291505056fe416464726573733a206c6f772d6c6576656c2064656c65676174652063616c6c206661696c6564a164736f6c634300080a000ab53127684a568b3173ae13b9f8a6016e243e63b6e8ee1178d6a717850b5d6103360894a13ba1a3210667c828492db98dca3e2076cc3735a920a3ca505d382bbc416464726573733a206c6f772d6c6576656c2064656c65676174652063616c6c206661696c6564",
  "devdoc": {
    "kind": "dev",
    "methods": {
      "constructor": {
        "details": "Need to deploy logic contracts for ClearingHouse, VPoolWrapper, InsuranceFund prior to this"
      },
      "governance()": {
        "details": "Returns the address of the current governance."
      },
      "initializePool(((string,string,uint8),(uint16,uint16,uint32,bool,address),uint24,uint24))": {
        "details": "An already deployed oracle contract address (implementing IOracle) is needed prior to using this",
        "params": {
          "initializePoolParams": "parameters for initializing the pool"
        }
      },
      "setVPoolWrapperLogicAddress(address)": {
        "details": "When a new vPoolWrapperLogic is deployed, make sure that the initialize method is called.",
        "params": {
          "_vPoolWrapperLogicAddress": ": new logic address"
        }
      },
      "teamMultisig()": {
        "details": "Returns the address of the current team multisig.transferTeamMultisig"
      },
      "transferGovernance(address)": {
        "details": "Transfers governance to a new account (`newGovernance`). Can only be called by the current governance."
      },
      "transferTeamMultisig(address)": {
        "details": "Transfers teamMultisig to a new account (`newTeamMultisig`). Can only be called by the current teamMultisig or current governance."
      }
    },
    "version": 1
  },
  "userdoc": {
    "kind": "user",
    "methods": {
      "constructor": {
        "notice": "Sets up the protocol by deploying necessary core contracts"
      },
      "initializePool(((string,string,uint8),(uint16,uint16,uint32,bool,address),uint24,uint24))": {
        "notice": "Sets up a new Rage Trade Pool by deploying necessary contracts"
      },
      "setVPoolWrapperLogicAddress(address)": {
        "notice": "Admin method to set latest implementation logic for VPoolWrapper"
      }
    },
    "version": 1
  },
  "storageLayout": {
    "storage": [
      {
        "astId": 252,
        "contract": "contracts/protocol/RageTradeFactory.sol:RageTradeFactory",
        "label": "_initialized",
        "offset": 0,
        "slot": "0",
        "type": "t_bool"
      },
      {
        "astId": 255,
        "contract": "contracts/protocol/RageTradeFactory.sol:RageTradeFactory",
        "label": "_initializing",
        "offset": 1,
        "slot": "0",
        "type": "t_bool"
      },
      {
        "astId": 26649,
        "contract": "contracts/protocol/RageTradeFactory.sol:RageTradeFactory",
        "label": "_governance",
        "offset": 2,
        "slot": "0",
        "type": "t_address"
      },
      {
        "astId": 26651,
        "contract": "contracts/protocol/RageTradeFactory.sol:RageTradeFactory",
        "label": "_teamMultisig",
        "offset": 0,
        "slot": "1",
        "type": "t_address"
      },
      {
        "astId": 26889,
        "contract": "contracts/protocol/RageTradeFactory.sol:RageTradeFactory",
        "label": "proxyAdmin",
        "offset": 0,
        "slot": "2",
        "type": "t_contract(ProxyAdmin)2300"
      },
      {
        "astId": 21680,
        "contract": "contracts/protocol/RageTradeFactory.sol:RageTradeFactory",
        "label": "vPoolWrapperLogicAddress",
        "offset": 0,
        "slot": "3",
        "type": "t_address"
      }
    ],
    "types": {
      "t_address": {
        "encoding": "inplace",
        "label": "address",
        "numberOfBytes": "20"
      },
      "t_bool": {
        "encoding": "inplace",
        "label": "bool",
        "numberOfBytes": "1"
      },
      "t_contract(ProxyAdmin)2300": {
        "encoding": "inplace",
        "label": "contract ProxyAdmin",
        "numberOfBytes": "20"
      }
    }
  }
}