{
  "address": "0x4FC3D33Cbb9794041C19c006A9D6ac140905a02d",
  "abi": [
    {
      "inputs": [
        {
          "internalType": "address",
          "name": "clearingHouseLogicAddress",
          "type": "address"
        },
        {
          "internalType": "address",
          "name": "_vPoolWrapperLogicAddress",
          "type": "address"
        },
        {
          "internalType": "address",
          "name": "insuranceFundLogicAddress",
          "type": "address"
        },
        {
          "internalType": "contract IERC20Metadata",
          "name": "settlementToken",
          "type": "address"
        },
        {
          "internalType": "contract IOracle",
          "name": "nativeOracle",
          "type": "address"
        }
      ],
      "stateMutability": "nonpayable",
      "type": "constructor"
    },
    {
      "inputs": [
        {
          "internalType": "address",
          "name": "addr",
          "type": "address"
        }
      ],
      "name": "IllegalAddress",
      "type": "error"
    },
    {
      "inputs": [
        {
          "internalType": "uint256",
          "name": "y_target",
          "type": "uint256"
        },
        {
          "internalType": "uint160",
          "name": "x_lower",
          "type": "uint160"
        },
        {
          "internalType": "uint160",
          "name": "x_upper",
          "type": "uint160"
        }
      ],
      "name": "SolutionOutOfBounds",
      "type": "error"
    },
    {
      "inputs": [],
      "name": "Unauthorised",
      "type": "error"
    },
    {
      "inputs": [],
      "name": "ZeroAddress",
      "type": "error"
    },
    {
      "anonymous": false,
      "inputs": [
        {
          "indexed": true,
          "internalType": "address",
          "name": "previousGovernance",
          "type": "address"
        },
        {
          "indexed": true,
          "internalType": "address",
          "name": "newGovernance",
          "type": "address"
        }
      ],
      "name": "GovernanceTransferred",
      "type": "event"
    },
    {
      "anonymous": false,
      "inputs": [
        {
          "indexed": false,
          "internalType": "contract IUniswapV3Pool",
          "name": "vPool",
          "type": "address"
        },
        {
          "indexed": false,
          "internalType": "contract IVToken",
          "name": "vToken",
          "type": "address"
        },
        {
          "indexed": false,
          "internalType": "contract IVPoolWrapper",
          "name": "vPoolWrapper",
          "type": "address"
        }
      ],
      "name": "PoolInitialized",
      "type": "event"
    },
    {
      "anonymous": false,
      "inputs": [
        {
          "indexed": true,
          "internalType": "address",
          "name": "previousTeamMultisig",
          "type": "address"
        },
        {
          "indexed": true,
          "internalType": "address",
          "name": "newTeamMultisig",
          "type": "address"
        }
      ],
      "name": "TeamMultisigTransferred",
      "type": "event"
    },
    {
      "inputs": [],
      "name": "clearingHouse",
      "outputs": [
        {
          "internalType": "contract IClearingHouse",
          "name": "",
          "type": "address"
        }
      ],
      "stateMutability": "view",
      "type": "function"
    },
    {
      "inputs": [],
      "name": "governance",
      "outputs": [
        {
          "internalType": "address",
          "name": "",
          "type": "address"
        }
      ],
      "stateMutability": "view",
      "type": "function"
    },
    {
      "inputs": [
        {
          "components": [
            {
              "components": [
                {
                  "internalType": "string",
                  "name": "vTokenName",
                  "type": "string"
                },
                {
                  "internalType": "string",
                  "name": "vTokenSymbol",
                  "type": "string"
                },
                {
                  "internalType": "uint8",
                  "name": "cTokenDecimals",
                  "type": "uint8"
                }
              ],
              "internalType": "struct VTokenDeployer.DeployVTokenParams",
              "name": "deployVTokenParams",
              "type": "tuple"
            },
            {
              "components": [
                {
                  "internalType": "uint16",
                  "name": "initialMarginRatio",
                  "type": "uint16"
                },
                {
                  "internalType": "uint16",
                  "name": "maintainanceMarginRatio",
                  "type": "uint16"
                },
                {
                  "internalType": "uint32",
                  "name": "twapDuration",
                  "type": "uint32"
                },
                {
                  "internalType": "bool",
                  "name": "isAllowedForTrade",
                  "type": "bool"
                },
                {
                  "internalType": "bool",
                  "name": "isCrossMargined",
                  "type": "bool"
                },
                {
                  "internalType": "contract IOracle",
                  "name": "oracle",
                  "type": "address"
                }
              ],
              "internalType": "struct IClearingHouseStructures.PoolSettings",
              "name": "poolInitialSettings",
              "type": "tuple"
            },
            {
              "internalType": "uint24",
              "name": "liquidityFeePips",
              "type": "uint24"
            },
            {
              "internalType": "uint24",
              "name": "protocolFeePips",
              "type": "uint24"
            },
            {
              "internalType": "uint16",
              "name": "slotsToInitialize",
              "type": "uint16"
            }
          ],
          "internalType": "struct RageTradeFactory.InitializePoolParams",
          "name": "initializePoolParams",
          "type": "tuple"
        }
      ],
      "name": "initializePool",
      "outputs": [],
      "stateMutability": "nonpayable",
      "type": "function"
    },
    {
      "inputs": [],
      "name": "proxyAdmin",
      "outputs": [
        {
          "internalType": "contract ProxyAdmin",
          "name": "",
          "type": "address"
        }
      ],
      "stateMutability": "view",
      "type": "function"
    },
    {
      "inputs": [
        {
          "internalType": "address",
          "name": "_vPoolWrapperLogicAddress",
          "type": "address"
        }
      ],
      "name": "setVPoolWrapperLogicAddress",
      "outputs": [],
      "stateMutability": "nonpayable",
      "type": "function"
    },
    {
      "inputs": [],
      "name": "teamMultisig",
      "outputs": [
        {
          "internalType": "address",
          "name": "",
          "type": "address"
        }
      ],
      "stateMutability": "view",
      "type": "function"
    },
    {
      "inputs": [
        {
          "internalType": "address",
          "name": "newGovernance",
          "type": "address"
        }
      ],
      "name": "transferGovernance",
      "outputs": [],
      "stateMutability": "nonpayable",
      "type": "function"
    },
    {
      "inputs": [
        {
          "internalType": "address",
          "name": "newTeamMultisig",
          "type": "address"
        }
      ],
      "name": "transferTeamMultisig",
      "outputs": [],
      "stateMutability": "nonpayable",
      "type": "function"
    },
    {
      "inputs": [],
      "name": "vPoolWrapperLogicAddress",
      "outputs": [
        {
          "internalType": "address",
          "name": "",
          "type": "address"
        }
      ],
      "stateMutability": "view",
      "type": "function"
    },
    {
      "inputs": [],
      "name": "vQuote",
      "outputs": [
        {
          "internalType": "contract IVQuote",
          "name": "",
          "type": "address"
        }
      ],
      "stateMutability": "view",
      "type": "function"
    }
  ],
  "transactionHash": "0xe1f921671ebb7ade03a954734ca19a646a3e3ed121fc0492c0d5663acaa1f200",
  "args": [
    "0xd5B92177aC41E4dC6B5b8454ce19794Bc8E598AC",
    "0x9994F1D4931bF26492669b830Ffc7724Ca12a105",
    "0x2370aF33605a590C535689F81B4F216D5a1a739C",
    "0x33a010E74A354bd784a62cca3A4047C1A84Ceeab",
    "0xb681f1BEdBAfd4dcdF5248ef310E58af3fe76963"
  ],
  "numDeployments": 1,
  "solcInputHash": "97c2ac41bdbb1817cc5efce63d1431e3",
  "bytecode": "0x60c06040523480156200001157600080fd5b5060405162006a9938038062006a99833981016040819052620000349162000ac0565b836200003f620002e6565b603680546001600160a01b0319166001600160a01b039290921691909117905562000069620003b6565b603580546001600160a01b0319166001600160a01b0392909216918217905560405163f2fde38b60e01b815233600482015263f2fde38b90602401600060405180830381600087803b158015620000bf57600080fd5b505af1158015620000d4573d6000803e3d6000fd5b5050505062000147826001600160a01b031663313ce5676040518163ffffffff1660e01b8152600401602060405180830381865afa1580156200011b573d6000803e3d6000fd5b505050506040513d601f19601f8201168201806040525081019062000141919062000b40565b620003e9565b6001600160a01b03166080526000620001608462000474565b90506000604051620001729062000a73565b604051809103906000f0801580156200018f573d6000803e3d6000fd5b509050620002076040518060c00160405280896001600160a01b03168152602001866001600160a01b03168152602001836001600160a01b03168152602001846001600160a01b031681526020016080516001600160a01b03168152602001856001600160a01b0316815250620004e160201b60201c565b6001600160a01b031660a08190526040516334e2fffd60e21b815233600482015263d38bfff490602401600060405180830381600087803b1580156200024c57600080fd5b505af115801562000261573d6000803e3d6000fd5b505060a051604051637f64d66360e01b81523360048201526001600160a01b039091169250637f64d6639150602401600060405180830381600087803b158015620002ab57600080fd5b505af1158015620002c0573d6000803e3d6000fd5b50505050620002d9828560a0516200058760201b60201c565b5050505050505062000c56565b600054610100900460ff16620003035760005460ff16156200030d565b6200030d6200064d565b620003655760405162461bcd60e51b815260206004820152602e602482015260008051602062006a7983398151915260448201526d191e481a5b9a5d1a585b1a5e995960921b60648201526084015b60405180910390fd5b600054610100900460ff1615801562000388576000805461ffff19166101011790555b620003926200066b565b336200039f8180620006da565b508015620003b3576000805461ff00191690555b50565b6000604051620003c69062000a80565b604051809103906000f080158015620003e3573d6000803e3d6000fd5b50905090565b60006200046e600060405180602001620004039062000a8e565b601f1982820381018352601f90910116604081815260ff871660208301520160408051601f198184030181529082905262000442929160200162000b98565b6040516020818303038152906040526200082260201b620008e4176200082e60201b620008f01760201c565b92915050565b60355460405160009183916001600160a01b0390911690620004969062000a9c565b6001600160a01b039283168152911660208201526060604082018190526000908201526080015b604051809103906000f080158015620004da573d6000803e3d6000fd5b5092915050565b805160355460208301516040808501516060860151608087015160a088015193513060248201526001600160a01b03958616604482015292851660648401529084166084830152831660a482015290821660c482015260009392919091169060e40160408051601f198184030181529181526020820180516001600160e01b03166349fbd58d60e01b17905251620005799062000a9c565b620004bd9392919062000bcb565b6040516339f06a2760e11b81526001600160a01b038381166004830152828116602483015260806044830152601a60848301527f5261676554726164652069536574746c656d656e74546f6b656e00000000000060a483015260c06064830152601060c48301526f34a9b2ba3a3632b6b2b73a2a37b5b2b760811b60e48301528416906373e0d44e9061010401600060405180830381600087803b1580156200062f57600080fd5b505af115801562000644573d6000803e3d6000fd5b50505050505050565b600062000665306200085360201b620009171760201c565b15905090565b600054610100900460ff16620006d85760405162461bcd60e51b815260206004820152602b60248201527f496e697469616c697a61626c653a20636f6e7472616374206973206e6f74206960448201526a6e697469616c697a696e6760a81b60648201526084016200035c565b565b600054610100900460ff16620006f75760005460ff161562000701565b620007016200064d565b620007555760405162461bcd60e51b815260206004820152602e602482015260008051602062006a7983398151915260448201526d191e481a5b9a5d1a585b1a5e995960921b60648201526084016200035c565b600054610100900460ff1615801562000778576000805461ffff19166101011790555b603380546001600160a01b0319166001600160a01b0385169081179091556040516000907f5f56bee8cffbe9a78652a74a60705edede02af10b0bbb888ca44b79a0d42ce80908290a3603480546001600160a01b0319166001600160a01b0384169081179091556040516000907f39355f2f5c8206286978f443aa8126bbd29fa09c53c04569502647f3a59c8cb2908290a380156200081d576000805461ff00191690555b505050565b609c1c600f9081161490565b60006200084b8484846200084460014362000c1a565b4062000862565b949350505050565b6001600160a01b03163b151590565b825160208401206000905b620008878360001b82620008f960201b620009261760201c565b915062000894828560201c565b15620008a057620008ac565b6001909201916200086d565b6000620008c9878560001b886200096b60201b620009831760201c565b9050806001600160a01b0316836001600160a01b031614620008ef57620008ef62000c40565b5050949350505050565b604080517fff000000000000000000000000000000000000000000000000000000000000006020808301919091526001600160601b03193060601b16602183015260358201859052605580830185905283518084039091018152607590920190925280519101206000905b9392505050565b60008084471015620009c05760405162461bcd60e51b815260206004820152601d60248201527f437265617465323a20696e73756666696369656e742062616c616e636500000060448201526064016200035c565b825162000a105760405162461bcd60e51b815260206004820181905260248201527f437265617465323a2062797465636f6465206c656e677468206973207a65726f60448201526064016200035c565b8383516020850187f590506001600160a01b0381166200084b5760405162461bcd60e51b815260206004820152601960248201527f437265617465323a204661696c6564206f6e206465706c6f790000000000000060448201526064016200035c565b60d3806200415f83390190565b6107a1806200423283390190565b61114080620049d383390190565b610f668062005b1383390190565b6001600160a01b0381168114620003b357600080fd5b600080600080600060a0868803121562000ad957600080fd5b855162000ae68162000aaa565b602087015190955062000af98162000aaa565b604087015190945062000b0c8162000aaa565b606087015190935062000b1f8162000aaa565b608087015190925062000b328162000aaa565b809150509295509295909350565b60006020828403121562000b5357600080fd5b815160ff811681146200096457600080fd5b60005b8381101562000b8257818101518382015260200162000b68565b8381111562000b92576000848401525b50505050565b6000835162000bac81846020880162000b65565b83519083019062000bc281836020880162000b65565b01949350505050565b600060018060a01b03808616835280851660208401525060606040830152825180606084015262000c0481608085016020870162000b65565b601f01601f191691909101608001949350505050565b60008282101562000c3b57634e487b7160e01b600052601160045260246000fd5b500390565b634e487b7160e01b600052600160045260246000fd5b60805160a0516134b362000cac6000396000818160b6015281816104ff0152818161069a0152610de60152600081816101270152818161053d015281816105db01528181610b4f0152610d8f01526134b36000f3fe60806040523480156200001157600080fd5b5060043610620000ab5760003560e01c80637f64d663116200006e5780637f64d663146200015b578063b0485ac41462000172578063d38bfff41462000189578063dbc0c08514620001a0578063fc34409914620001b257600080fd5b80630af9680014620000b0578063255034a914620000f45780633e47158c146200010d5780634bc36bd614620001215780635aa6e6751462000149575b600080fd5b620000d87f000000000000000000000000000000000000000000000000000000000000000081565b6040516001600160a01b03909116815260200160405180910390f35b6200010b620001053660046200109b565b620001c6565b005b603554620000d8906001600160a01b031681565b620000d87f000000000000000000000000000000000000000000000000000000000000000081565b6033546001600160a01b0316620000d8565b6200010b6200016c3660046200109b565b62000244565b6200010b62000183366004620010bb565b6200030e565b6200010b6200019a3660046200109b565b62000834565b6034546001600160a01b0316620000d8565b603654620000d8906001600160a01b031681565b6033546001600160a01b03163314620001f257604051636bd1573560e11b815260040160405180910390fd5b6001600160a01b0381166200022257604051630562997d60e41b8152600060048201526024015b60405180910390fd5b603680546001600160a01b0319166001600160a01b0392909216919091179055565b6034546001600160a01b031633148015906200026b57506033546001600160a01b03163314155b156200028a57604051636bd1573560e11b815260040160405180910390fd5b6001600160a01b038116620002b25760405163d92e233d60e01b815260040160405180910390fd5b6034546040516001600160a01b038084169216907f39355f2f5c8206286978f443aa8126bbd29fa09c53c04569502647f3a59c8cb290600090a3603480546001600160a01b0319166001600160a01b0392909216919091179055565b6033546001600160a01b031633146200033a57604051636bd1573560e11b815260040160405180910390fd5b6000620003526200034c8380620010fa565b62000a8b565b90506000620003618262000b38565b90506001600160a01b03811663f637731d620004176200038860e0870160c088016200109b565b6001600160a01b031663dd86c101620003a86080890160608a0162001142565b6040516001600160e01b031960e084901b16815263ffffffff919091166004820152602401602060405180830381865afa158015620003eb573d6000803e3d6000fd5b505050506040513d601f19601f8201168201806040525081019062000411919062001160565b62000bf2565b6040516001600160e01b031960e084901b1681526001600160a01b039091166004820152602401600060405180830381600087803b1580156200045957600080fd5b505af11580156200046e573d6000803e3d6000fd5b5050506001600160a01b03821690506332148f6762000496610140860161012087016200118d565b6040516001600160e01b031960e084901b16815261ffff9091166004820152602401600060405180830381600087803b158015620004d357600080fd5b505af1158015620004e8573d6000803e3d6000fd5b505050506000620005b96040518060c001604052807f00000000000000000000000000000000000000000000000000000000000000006001600160a01b03168152602001856001600160a01b031681526020017f00000000000000000000000000000000000000000000000000000000000000006001600160a01b03168152602001846001600160a01b031681526020018660e00160208101906200058e9190620011ab565b62ffffff168152602001620005ac61012088016101008901620011ab565b62ffffff16905262000c2a565b604051635b52ebef60e11b81526001600160a01b0380831660048301529192507f00000000000000000000000000000000000000000000000000000000000000009091169063b6a5d7de90602401600060405180830381600087803b1580156200062257600080fd5b505af115801562000637573d6000803e3d6000fd5b5050604051636bd6da7f60e11b81526001600160a01b0384811660048301528616925063d7adb4fe9150602401600060405180830381600087803b1580156200067f57600080fd5b505af115801562000694573d6000803e3d6000fd5b505050507f00000000000000000000000000000000000000000000000000000000000000006001600160a01b0316633a64c2456040518060800160405280866001600160a01b03168152602001856001600160a01b03168152602001846001600160a01b0316815260200187602001803603810190620007159190620011ee565b90526040805160e084901b6001600160e01b031916815282516001600160a01b039081166004830152602080850151821660248401528484015182166044840152606094850151805161ffff90811660648601529181015190911660848401529283015163ffffffff1660a483015292820151151560c48201526080820151151560e482015260a09091015190911661010482015261012401600060405180830381600087803b158015620007c957600080fd5b505af1158015620007de573d6000803e3d6000fd5b5050604080516001600160a01b038681168252878116602083015285168183015290517fb2684e1b8e116bbb42a14d7a6bc6afa19d85ff0a8666a6b424b79a738c661d819350908190036060019150a150505050565b6033546001600160a01b031633146200086057604051636bd1573560e11b815260040160405180910390fd5b6001600160a01b038116620008885760405163d92e233d60e01b815260040160405180910390fd5b6033546040516001600160a01b038084169216907f5f56bee8cffbe9a78652a74a60705edede02af10b0bbb888ca44b79a0d42ce8090600090a3603380546001600160a01b0319166001600160a01b0392909216919091179055565b609c1c600f9081161490565b60006200090d84848462000906600143620012bf565b4062000cfb565b90505b9392505050565b6001600160a01b03163b151590565b604080516001600160f81b03196020808301919091526bffffffffffffffffffffffff193060601b166021830152603582018590526055808301859052835180840390910181526075909201909252805191012060009062000910565b60008084471015620009d85760405162461bcd60e51b815260206004820152601d60248201527f437265617465323a20696e73756666696369656e742062616c616e6365000000604482015260640162000219565b825162000a285760405162461bcd60e51b815260206004820181905260248201527f437265617465323a2062797465636f6465206c656e677468206973207a65726f604482015260640162000219565b8383516020850187f590506001600160a01b0381166200090d5760405162461bcd60e51b815260206004820152601960248201527f437265617465323a204661696c6564206f6e206465706c6f7900000000000000604482015260640162000219565b6000806040518060200162000aa09062001066565b601f1982820381018352601f9091011660405262000abf8480620012d9565b62000ace6020870187620012d9565b62000ae06060890160408a016200132a565b60405160200162000af695949392919062001378565b60408051601f198184030181529082905262000b169291602001620013ec565b60405160208183030381529060405290506200091060008262000d79620008f0565b60405163a167129560e01b81526001600160a01b037f000000000000000000000000000000000000000000000000000000000000000081166004830152821660248201526101f46044820152600090731f98431c8ad98523631ae4a59f267346ea31f9849063a1671295906064016020604051808303816000875af115801562000bc6573d6000803e3d6000fd5b505050506040513d601f19601f8201168201806040525081019062000bec91906200141f565b92915050565b600062000bec62000e5c836401000276a362000c24600173fffd8963efd1fc6a506488495d951d5263988d266200143f565b62000e7d565b6036546035546040805184516001600160a01b0390811660248301526020860151811660448301529185015182166064820152606085015182166084820152608085015162ffffff90811660a483015260a08601511660c4820152600093821692919091169060e40160408051601f198184030181529181526020820180516001600160e01b0316636f7260d360e11b1790525162000cc99062001074565b62000cd7939291906200146a565b604051809103906000f08015801562000cf4573d6000803e3d6000fd5b5092915050565b825160208401206000905b62000d12838262000926565b915062000d22828563ffffffff16565b1562000d2e5762000d3a565b60019092019162000d06565b600062000d4987858862000983565b9050806001600160a01b0316836001600160a01b03161462000d6f5762000d6f620014b9565b5050949350505050565b600063ffffffff8216801580159062000dc357507f00000000000000000000000000000000000000000000000000000000000000006001600160a01b0316836001600160a01b0316105b801562000910575060405163440ab74560e01b815263ffffffff821660048201527f00000000000000000000000000000000000000000000000000000000000000006001600160a01b03169063440ab74590602401602060405180830381865afa15801562000e36573d6000803e3d6000fd5b505050506040513d601f19601f82011682018060405250810190620009109190620014cf565b600062000bec6001600160a01b038316806801000000000000000062000faf565b60008062000e8e848763ffffffff16565b9050600062000ea0848863ffffffff16565b90508186108062000eb057508086115b1562000eea5760405163f7b6b2e960e01b8152600481018790526001600160a01b0380871660248301528516604482015260640162000219565b6000805b600162000efc88886200143f565b6001600160a01b0316111562000f6557600262000f1a88886200143f565b62000f269190620014ef565b62000f32908862001524565b905062000f42818a63ffffffff16565b91508782111562000f595780955081925062000eee565b80965081935062000eee565b856001600160a01b0316876001600160a01b03161415801562000f9457508762000f92878b63ffffffff16565b145b62000fa0578662000fa2565b855b9998505050505050505050565b60008080600019858709858702925082811083820303915050806000141562000fec576000841162000fe057600080fd5b50829004905062000910565b80841162000ff957600080fd5b6000848688096000868103871696879004966002600389028118808a02820302808a02820302808a02820302808a02820302808a02820302808a02909103029181900381900460010186841190950394909402919094039290920491909117919091029150509392505050565b610fce806200154a83390190565b610f66806200251883390190565b6001600160a01b03811681146200109857600080fd5b50565b600060208284031215620010ae57600080fd5b8135620009108162001082565b600060208284031215620010ce57600080fd5b813567ffffffffffffffff811115620010e657600080fd5b820161014081850312156200091057600080fd5b60008235605e198336030181126200111157600080fd5b9190910192915050565b8035620011288162001082565b919050565b803563ffffffff811681146200112857600080fd5b6000602082840312156200115557600080fd5b62000910826200112d565b6000602082840312156200117357600080fd5b5051919050565b803561ffff811681146200112857600080fd5b600060208284031215620011a057600080fd5b62000910826200117a565b600060208284031215620011be57600080fd5b813562ffffff811681146200091057600080fd5b80151581146200109857600080fd5b80356200112881620011d2565b600060c082840312156200120157600080fd5b60405160c0810181811067ffffffffffffffff821117156200123357634e487b7160e01b600052604160045260246000fd5b60405262001241836200117a565b815262001251602084016200117a565b602082015262001264604084016200112d565b60408201526200127760608401620011e1565b60608201526200128a60808401620011e1565b60808201526200129d60a084016200111b565b60a08201529392505050565b634e487b7160e01b600052601160045260246000fd5b600082821015620012d457620012d4620012a9565b500390565b6000808335601e19843603018112620012f157600080fd5b83018035915067ffffffffffffffff8211156200130d57600080fd5b6020019150368190038213156200132357600080fd5b9250929050565b6000602082840312156200133d57600080fd5b813560ff811681146200091057600080fd5b81835281816020850137506000828201602090810191909152601f909101601f19169091010190565b6060815260006200138e6060830187896200134f565b8281036020840152620013a38186886200134f565b91505060ff831660408301529695505050505050565b60005b83811015620013d6578181015183820152602001620013bc565b83811115620013e6576000848401525b50505050565b6000835162001400818460208801620013b9565b83519083019062001416818360208801620013b9565b01949350505050565b6000602082840312156200143257600080fd5b8151620009108162001082565b60006001600160a01b0383811690831681811015620014625762001462620012a9565b039392505050565b600060018060a01b038086168352808516602084015250606060408301528251806060840152620014a3816080850160208701620013b9565b601f01601f191691909101608001949350505050565b634e487b7160e01b600052600160045260246000fd5b600060208284031215620014e257600080fd5b81516200091081620011d2565b60006001600160a01b03838116806200151857634e487b7160e01b600052601260045260246000fd5b92169190910492915050565b60006001600160a01b03828116848216808303821115620014165762001416620012a956fe60a06040523480156200001157600080fd5b5060405162000fce38038062000fce8339810160408190526200003491620001e8565b8251839083906200004d90600390602085019062000075565b5080516200006390600490602084019062000075565b50505060ff1660805250620002aa9050565b82805462000083906200026d565b90600052602060002090601f016020900481019282620000a75760008555620000f2565b82601f10620000c257805160ff1916838001178555620000f2565b82800160010185558215620000f2579182015b82811115620000f2578251825591602001919060010190620000d5565b506200010092915062000104565b5090565b5b8082111562000100576000815560010162000105565b634e487b7160e01b600052604160045260246000fd5b600082601f8301126200014357600080fd5b81516001600160401b03808211156200016057620001606200011b565b604051601f8301601f19908116603f011681019082821181831017156200018b576200018b6200011b565b81604052838152602092508683858801011115620001a857600080fd5b600091505b83821015620001cc5785820183015181830184015290820190620001ad565b83821115620001de5760008385830101525b9695505050505050565b600080600060608486031215620001fe57600080fd5b83516001600160401b03808211156200021657600080fd5b620002248783880162000131565b945060208601519150808211156200023b57600080fd5b506200024a8682870162000131565b925050604084015160ff811681146200026257600080fd5b809150509250925092565b600181811c908216806200028257607f821691505b60208210811415620002a457634e487b7160e01b600052602260045260246000fd5b50919050565b608051610d08620002c660003960006101670152610d086000f3fe608060405234801561001057600080fd5b50600436106100f55760003560e01c806342966c6811610097578063a9059cbb11610066578063a9059cbb14610210578063d7adb4fe14610223578063dd62ed3e14610236578063df8685d21461026f57600080fd5b806342966c68146101b957806370a08231146101cc57806395d89b41146101f5578063a457c2d7146101fd57600080fd5b806323b872dd116100d357806323b872dd1461014d578063313ce56714610160578063395093511461019157806340c10f19146101a457600080fd5b806306fdde03146100fa578063095ea7b31461011857806318160ddd1461013b575b600080fd5b61010261029a565b60405161010f9190610b0d565b60405180910390f35b61012b610126366004610b7e565b61032c565b604051901515815260200161010f565b6002545b60405190815260200161010f565b61012b61015b366004610ba8565b610344565b60405160ff7f000000000000000000000000000000000000000000000000000000000000000016815260200161010f565b61012b61019f366004610b7e565b610368565b6101b76101b2366004610b7e565b6103a7565b005b6101b76101c7366004610be4565b6103e0565b61013f6101da366004610bfd565b6001600160a01b031660009081526020819052604090205490565b6101026103ed565b61012b61020b366004610b7e565b6103fc565b61012b61021e366004610b7e565b610493565b6101b7610231366004610bfd565b6104a1565b61013f610244366004610c1f565b6001600160a01b03918216600090815260016020908152604080832093909416825291909152205490565b600554610282906001600160a01b031681565b6040516001600160a01b03909116815260200161010f565b6060600380546102a990610c52565b80601f01602080910402602001604051908101604052809291908181526020018280546102d590610c52565b80156103225780601f106102f757610100808354040283529160200191610322565b820191906000526020600020905b81548152906001019060200180831161030557829003601f168201915b5050505050905090565b60003361033a8185856104d1565b5060019392505050565b6000336103528582856105f6565b61035d858585610688565b506001949350505050565b3360008181526001602090815260408083206001600160a01b038716845290915281205490919061033a90829086906103a2908790610ca3565b6104d1565b6005546001600160a01b031633146103d257604051636bd1573560e11b815260040160405180910390fd5b6103dc8282610861565b5050565b6103ea338261094c565b50565b6060600480546102a990610c52565b3360008181526001602090815260408083206001600160a01b0387168452909152812054909190838110156104865760405162461bcd60e51b815260206004820152602560248201527f45524332303a2064656372656173656420616c6c6f77616e63652062656c6f77604482015264207a65726f60d81b60648201526084015b60405180910390fd5b61035d82868684036104d1565b60003361033a818585610688565b6005546001600160a01b03166103ea57600580546001600160a01b0383166001600160a01b031990911617905550565b6001600160a01b0383166105335760405162461bcd60e51b8152602060048201526024808201527f45524332303a20617070726f76652066726f6d20746865207a65726f206164646044820152637265737360e01b606482015260840161047d565b6001600160a01b0382166105945760405162461bcd60e51b815260206004820152602260248201527f45524332303a20617070726f766520746f20746865207a65726f206164647265604482015261737360f01b606482015260840161047d565b6001600160a01b0383811660008181526001602090815260408083209487168084529482529182902085905590518481527f8c5be1e5ebec7d5bd14f71427d1e84f3dd0314c0f7b2291e5b200ac8c7c3b92591015b60405180910390a3505050565b6001600160a01b03838116600090815260016020908152604080832093861683529290522054600019811461068257818110156106755760405162461bcd60e51b815260206004820152601d60248201527f45524332303a20696e73756666696369656e7420616c6c6f77616e6365000000604482015260640161047d565b61068284848484036104d1565b50505050565b6001600160a01b0383166106ec5760405162461bcd60e51b815260206004820152602560248201527f45524332303a207472616e736665722066726f6d20746865207a65726f206164604482015264647265737360d81b606482015260840161047d565b6001600160a01b03821661074e5760405162461bcd60e51b815260206004820152602360248201527f45524332303a207472616e7366657220746f20746865207a65726f206164647260448201526265737360e81b606482015260840161047d565b610759838383610aa3565b6001600160a01b038316600090815260208190526040902054818110156107d15760405162461bcd60e51b815260206004820152602660248201527f45524332303a207472616e7366657220616d6f756e7420657863656564732062604482015265616c616e636560d01b606482015260840161047d565b6001600160a01b03808516600090815260208190526040808220858503905591851681529081208054849290610808908490610ca3565b92505081905550826001600160a01b0316846001600160a01b03167fddf252ad1be2c89b69c2b068fc378daa952ba7f163c4a11628f55a4df523b3ef8460405161085491815260200190565b60405180910390a3610682565b6001600160a01b0382166108b75760405162461bcd60e51b815260206004820152601f60248201527f45524332303a206d696e7420746f20746865207a65726f206164647265737300604482015260640161047d565b6108c360008383610aa3565b80600260008282546108d59190610ca3565b90915550506001600160a01b03821660009081526020819052604081208054839290610902908490610ca3565b90915550506040518181526001600160a01b038316906000907fddf252ad1be2c89b69c2b068fc378daa952ba7f163c4a11628f55a4df523b3ef9060200160405180910390a35050565b6001600160a01b0382166109ac5760405162461bcd60e51b815260206004820152602160248201527f45524332303a206275726e2066726f6d20746865207a65726f206164647265736044820152607360f81b606482015260840161047d565b6109b882600083610aa3565b6001600160a01b03821660009081526020819052604090205481811015610a2c5760405162461bcd60e51b815260206004820152602260248201527f45524332303a206275726e20616d6f756e7420657863656564732062616c616e604482015261636560f01b606482015260840161047d565b6001600160a01b0383166000908152602081905260408120838303905560028054849290610a5b908490610cbb565b90915550506040518281526000906001600160a01b038516907fddf252ad1be2c89b69c2b068fc378daa952ba7f163c4a11628f55a4df523b3ef906020016105e9565b505050565b6001600160a01b0383161580610ac057506001600160a01b038216155b80610ad857506005546001600160a01b038481169116145b80610af057506005546001600160a01b038381169116145b610a9e57604051636bd1573560e11b815260040160405180910390fd5b600060208083528351808285015260005b81811015610b3a57858101830151858201604001528201610b1e565b81811115610b4c576000604083870101525b50601f01601f1916929092016040019392505050565b80356001600160a01b0381168114610b7957600080fd5b919050565b60008060408385031215610b9157600080fd5b610b9a83610b62565b946020939093013593505050565b600080600060608486031215610bbd57600080fd5b610bc684610b62565b9250610bd460208501610b62565b9150604084013590509250925092565b600060208284031215610bf657600080fd5b5035919050565b600060208284031215610c0f57600080fd5b610c1882610b62565b9392505050565b60008060408385031215610c3257600080fd5b610c3b83610b62565b9150610c4960208401610b62565b90509250929050565b600181811c90821680610c6657607f821691505b60208210811415610c8757634e487b7160e01b600052602260045260246000fd5b50919050565b634e487b7160e01b600052601160045260246000fd5b60008219821115610cb657610cb6610c8d565b500190565b600082821015610ccd57610ccd610c8d565b50039056fea2646970667358221220db41343b8bcf04bbfd01ad17b792fd1979a4d8cd74997f5eea4f2e6f65f7c30564736f6c634300080c0033608060405260405162000f6638038062000f66833981016040819052620000269162000519565b82816200005560017f360894a13ba1a3210667c828492db98dca3e2076cc3735a920a3ca505d382bbd620005f9565b60008051602062000f1f833981519152146200007557620000756200061f565b6200008382826000620000e7565b50620000b3905060017fb53127684a568b3173ae13b9f8a6016e243e63b6e8ee1178d6a717850b5d6104620005f9565b60008051602062000eff83398151915214620000d357620000d36200061f565b620000de8262000124565b50505062000688565b620000f2836200017f565b600082511180620001005750805b156200011f576200011d8383620001c160201b620002601760201c565b505b505050565b7f7e644d79422f17c01e4894b5f4f588d331ebfa28653d42ae832dc59e38c9798f6200014f620001f0565b604080516001600160a01b03928316815291841660208301520160405180910390a16200017c8162000229565b50565b6200018a81620002de565b6040516001600160a01b038216907fbc7cd75a20ee27fd9adebab32041f755214dbc6bffa90cc0225b39da2e5c2d3b90600090a250565b6060620001e9838360405180606001604052806027815260200162000f3f6027913962000381565b9392505050565b60006200021a60008051602062000eff83398151915260001b6200046760201b620002081760201c565b546001600160a01b0316919050565b6001600160a01b038116620002945760405162461bcd60e51b815260206004820152602660248201527f455243313936373a206e65772061646d696e20697320746865207a65726f206160448201526564647265737360d01b60648201526084015b60405180910390fd5b80620002bd60008051602062000eff83398151915260001b6200046760201b620002081760201c565b80546001600160a01b0319166001600160a01b039290921691909117905550565b620002f4816200046a60201b6200028c1760201c565b620003585760405162461bcd60e51b815260206004820152602d60248201527f455243313936373a206e657720696d706c656d656e746174696f6e206973206e60448201526c1bdd08184818dbdb9d1c9858dd609a1b60648201526084016200028b565b80620002bd60008051602062000f1f83398151915260001b6200046760201b620002081760201c565b60606001600160a01b0384163b620003eb5760405162461bcd60e51b815260206004820152602660248201527f416464726573733a2064656c65676174652063616c6c20746f206e6f6e2d636f6044820152651b9d1c9858dd60d21b60648201526084016200028b565b600080856001600160a01b03168560405162000408919062000635565b600060405180830381855af49150503d806000811462000445576040519150601f19603f3d011682016040523d82523d6000602084013e6200044a565b606091505b5090925090506200045d82828662000479565b9695505050505050565b90565b6001600160a01b03163b151590565b606083156200048a575081620001e9565b8251156200049b5782518084602001fd5b8160405162461bcd60e51b81526004016200028b919062000653565b80516001600160a01b0381168114620004cf57600080fd5b919050565b634e487b7160e01b600052604160045260246000fd5b60005b8381101562000507578181015183820152602001620004ed565b838111156200011d5750506000910152565b6000806000606084860312156200052f57600080fd5b6200053a84620004b7565b92506200054a60208501620004b7565b60408501519092506001600160401b03808211156200056857600080fd5b818601915086601f8301126200057d57600080fd5b815181811115620005925762000592620004d4565b604051601f8201601f19908116603f01168101908382118183101715620005bd57620005bd620004d4565b81604052828152896020848701011115620005d757600080fd5b620005ea836020830160208801620004ea565b80955050505050509250925092565b6000828210156200061a57634e487b7160e01b600052601160045260246000fd5b500390565b634e487b7160e01b600052600160045260246000fd5b6000825162000649818460208701620004ea565b9190910192915050565b602081526000825180602084015262000674816040850160208701620004ea565b601f01601f19169190910160400192915050565b61086780620006986000396000f3fe60806040526004361061004e5760003560e01c80633659cfe6146100655780634f1ef286146100855780635c60da1b146100985780638f283970146100c9578063f851a440146100e95761005d565b3661005d5761005b6100fe565b005b61005b6100fe565b34801561007157600080fd5b5061005b6100803660046106f1565b610118565b61005b61009336600461070c565b61015f565b3480156100a457600080fd5b506100ad6101d0565b6040516001600160a01b03909116815260200160405180910390f35b3480156100d557600080fd5b5061005b6100e43660046106f1565b61020b565b3480156100f557600080fd5b506100ad610235565b61010661029b565b61011661011161033a565b610344565b565b610120610368565b6001600160a01b0316336001600160a01b03161415610157576101548160405180602001604052806000815250600061039b565b50565b6101546100fe565b610167610368565b6001600160a01b0316336001600160a01b031614156101c8576101c38383838080601f0160208091040260200160405190810160405280939291908181526020018383808284376000920191909152506001925061039b915050565b505050565b6101c36100fe565b60006101da610368565b6001600160a01b0316336001600160a01b03161415610200576101fb61033a565b905090565b6102086100fe565b90565b610213610368565b6001600160a01b0316336001600160a01b0316141561015757610154816103c6565b600061023f610368565b6001600160a01b0316336001600160a01b03161415610200576101fb610368565b6060610285838360405180606001604052806027815260200161080b6027913961041a565b9392505050565b6001600160a01b03163b151590565b6102a3610368565b6001600160a01b0316336001600160a01b031614156101165760405162461bcd60e51b815260206004820152604260248201527f5472616e73706172656e745570677261646561626c6550726f78793a2061646d60448201527f696e2063616e6e6f742066616c6c6261636b20746f2070726f78792074617267606482015261195d60f21b608482015260a4015b60405180910390fd5b60006101fb6104f7565b3660008037600080366000845af43d6000803e808015610363573d6000f35b3d6000fd5b60007fb53127684a568b3173ae13b9f8a6016e243e63b6e8ee1178d6a717850b5d61035b546001600160a01b0316919050565b6103a48361051f565b6000825111806103b15750805b156101c3576103c08383610260565b50505050565b7f7e644d79422f17c01e4894b5f4f588d331ebfa28653d42ae832dc59e38c9798f6103ef610368565b604080516001600160a01b03928316815291841660208301520160405180910390a16101548161055f565b60606001600160a01b0384163b6104825760405162461bcd60e51b815260206004820152602660248201527f416464726573733a2064656c65676174652063616c6c20746f206e6f6e2d636f6044820152651b9d1c9858dd60d21b6064820152608401610331565b600080856001600160a01b03168560405161049d91906107bb565b600060405180830381855af49150503d80600081146104d8576040519150601f19603f3d011682016040523d82523d6000602084013e6104dd565b606091505b50915091506104ed828286610608565b9695505050505050565b60007f360894a13ba1a3210667c828492db98dca3e2076cc3735a920a3ca505d382bbc61038c565b61052881610641565b6040516001600160a01b038216907fbc7cd75a20ee27fd9adebab32041f755214dbc6bffa90cc0225b39da2e5c2d3b90600090a250565b6001600160a01b0381166105c45760405162461bcd60e51b815260206004820152602660248201527f455243313936373a206e65772061646d696e20697320746865207a65726f206160448201526564647265737360d01b6064820152608401610331565b807fb53127684a568b3173ae13b9f8a6016e243e63b6e8ee1178d6a717850b5d61035b80546001600160a01b0319166001600160a01b039290921691909117905550565b60608315610617575081610285565b8251156106275782518084602001fd5b8160405162461bcd60e51b815260040161033191906107d7565b6001600160a01b0381163b6106ae5760405162461bcd60e51b815260206004820152602d60248201527f455243313936373a206e657720696d706c656d656e746174696f6e206973206e60448201526c1bdd08184818dbdb9d1c9858dd609a1b6064820152608401610331565b807f360894a13ba1a3210667c828492db98dca3e2076cc3735a920a3ca505d382bbc6105e7565b80356001600160a01b03811681146106ec57600080fd5b919050565b60006020828403121561070357600080fd5b610285826106d5565b60008060006040848603121561072157600080fd5b61072a846106d5565b9250602084013567ffffffffffffffff8082111561074757600080fd5b818601915086601f83011261075b57600080fd5b81358181111561076a57600080fd5b87602082850101111561077c57600080fd5b6020830194508093505050509250925092565b60005b838110156107aa578181015183820152602001610792565b838111156103c05750506000910152565b600082516107cd81846020870161078f565b9190910192915050565b60208152600082518060208401526107f681604085016020870161078f565b601f01601f1916919091016040019291505056fe416464726573733a206c6f772d6c6576656c2064656c65676174652063616c6c206661696c6564a26469706673582212207f0252c776f198cca570612c3ea47d796ebd89ae139bcd3bba941a71b9adccf064736f6c634300080c0033b53127684a568b3173ae13b9f8a6016e243e63b6e8ee1178d6a717850b5d6103360894a13ba1a3210667c828492db98dca3e2076cc3735a920a3ca505d382bbc416464726573733a206c6f772d6c6576656c2064656c65676174652063616c6c206661696c6564a2646970667358221220a784bad09f53b966797237b65a01e9e75b49badac342b4502174ffd9341ae3bf64736f6c634300080c0033608060405234801561001057600080fd5b5060b48061001f6000396000f3fe6080604052348015600f57600080fd5b506004361060285760003560e01c8063dd86c10114602d575b600080fd5b604160383660046053565b50600160801b90565b60405190815260200160405180910390f35b600060208284031215606457600080fd5b813563ffffffff81168114607757600080fd5b939250505056fea2646970667358221220de8a83897927e16c6cc68917dbcb4bbf9d77a7d54bae94b01d6a996ad7fa5ac864736f6c634300080c0033608060405234801561001057600080fd5b5061001a3361001f565b61006f565b600080546001600160a01b038381166001600160a01b0319831681178455604051919092169283917f8be0079c531659141344cd1fd0a4f28419497f9722a3daafe3b4186f6b6457e09190a35050565b6107238061007e6000396000f3fe60806040526004361061007b5760003560e01c80639623609d1161004e5780639623609d1461011157806399a88ec414610124578063f2fde38b14610144578063f3b7dead1461016457600080fd5b8063204e1c7a14610080578063715018a6146100bc5780637eff275e146100d35780638da5cb5b146100f3575b600080fd5b34801561008c57600080fd5b506100a061009b3660046104ed565b610184565b6040516001600160a01b03909116815260200160405180910390f35b3480156100c857600080fd5b506100d1610215565b005b3480156100df57600080fd5b506100d16100ee366004610511565b610254565b3480156100ff57600080fd5b506000546001600160a01b03166100a0565b6100d161011f366004610560565b6102de565b34801561013057600080fd5b506100d161013f366004610511565b61036f565b34801561015057600080fd5b506100d161015f3660046104ed565b6103c7565b34801561017057600080fd5b506100a061017f3660046104ed565b610462565b6000806000836001600160a01b03166040516101aa90635c60da1b60e01b815260040190565b600060405180830381855afa9150503d80600081146101e5576040519150601f19603f3d011682016040523d82523d6000602084013e6101ea565b606091505b5091509150816101f957600080fd5b8080602001905181019061020d9190610636565b949350505050565b6000546001600160a01b031633146102485760405162461bcd60e51b815260040161023f90610653565b60405180910390fd5b6102526000610488565b565b6000546001600160a01b0316331461027e5760405162461bcd60e51b815260040161023f90610653565b6040516308f2839760e41b81526001600160a01b038281166004830152831690638f283970906024015b600060405180830381600087803b1580156102c257600080fd5b505af11580156102d6573d6000803e3d6000fd5b505050505050565b6000546001600160a01b031633146103085760405162461bcd60e51b815260040161023f90610653565b60405163278f794360e11b81526001600160a01b03841690634f1ef2869034906103389086908690600401610688565b6000604051808303818588803b15801561035157600080fd5b505af1158015610365573d6000803e3d6000fd5b5050505050505050565b6000546001600160a01b031633146103995760405162461bcd60e51b815260040161023f90610653565b604051631b2ce7f360e11b81526001600160a01b038281166004830152831690633659cfe6906024016102a8565b6000546001600160a01b031633146103f15760405162461bcd60e51b815260040161023f90610653565b6001600160a01b0381166104565760405162461bcd60e51b815260206004820152602660248201527f4f776e61626c653a206e6577206f776e657220697320746865207a65726f206160448201526564647265737360d01b606482015260840161023f565b61045f81610488565b50565b6000806000836001600160a01b03166040516101aa906303e1469160e61b815260040190565b600080546001600160a01b038381166001600160a01b0319831681178455604051919092169283917f8be0079c531659141344cd1fd0a4f28419497f9722a3daafe3b4186f6b6457e09190a35050565b6001600160a01b038116811461045f57600080fd5b6000602082840312156104ff57600080fd5b813561050a816104d8565b9392505050565b6000806040838503121561052457600080fd5b823561052f816104d8565b9150602083013561053f816104d8565b809150509250929050565b634e487b7160e01b600052604160045260246000fd5b60008060006060848603121561057557600080fd5b8335610580816104d8565b92506020840135610590816104d8565b9150604084013567ffffffffffffffff808211156105ad57600080fd5b818601915086601f8301126105c157600080fd5b8135818111156105d3576105d361054a565b604051601f8201601f19908116603f011681019083821181831017156105fb576105fb61054a565b8160405282815289602084870101111561061457600080fd5b8260208601602083013760006020848301015280955050505050509250925092565b60006020828403121561064857600080fd5b815161050a816104d8565b6020808252818101527f4f776e61626c653a2063616c6c6572206973206e6f7420746865206f776e6572604082015260600190565b60018060a01b038316815260006020604081840152835180604085015260005b818110156106c4578581018301518582016060015282016106a8565b818111156106d6576000606083870101525b50601f01601f19169290920160600194935050505056fea2646970667358221220fae845da48ce1d711c915586606ed56faef7a8f9865f09578621cdc99fcdc73f64736f6c634300080c003360a06040523480156200001157600080fd5b5060405162001140380380620011408339810160408190526200003491620001d2565b604080518082018252601e81527f52616765205472616465205669727475616c2051756f746520546f6b656e00006020808301918252835180850190945260068452657651756f746560d01b90840152815191929162000097916003916200012c565b508051620000ad9060049060208401906200012c565b505050620000ca620000c4620000d660201b60201c565b620000da565b60ff166080526200023b565b3390565b600580546001600160a01b038381166001600160a01b0319831681179093556040519116919082907f8be0079c531659141344cd1fd0a4f28419497f9722a3daafe3b4186f6b6457e090600090a35050565b8280546200013a90620001fe565b90600052602060002090601f0160209004810192826200015e5760008555620001a9565b82601f106200017957805160ff1916838001178555620001a9565b82800160010185558215620001a9579182015b82811115620001a95782518255916020019190600101906200018c565b50620001b7929150620001bb565b5090565b5b80821115620001b75760008155600101620001bc565b600060208284031215620001e557600080fd5b815160ff81168114620001f757600080fd5b9392505050565b600181811c908216806200021357607f821691505b602082108114156200023557634e487b7160e01b600052602260045260246000fd5b50919050565b608051610ee96200025760003960006101ab0152610ee96000f3fe608060405234801561001057600080fd5b50600436106101165760003560e01c806370a08231116100a2578063a457c2d711610071578063a457c2d714610264578063a9059cbb14610277578063b6a5d7de1461028a578063dd62ed3e1461029d578063f2fde38b146102d657600080fd5b806370a0823114610210578063715018a6146102395780638da5cb5b1461024157806395d89b411461025c57600080fd5b80632520e7ff116100e95780632520e7ff14610181578063313ce567146101a457806339509351146101d557806340c10f19146101e857806342966c68146101fd57600080fd5b806306fdde031461011b578063095ea7b31461013957806318160ddd1461015c57806323b872dd1461016e575b600080fd5b6101236102e9565b6040516101309190610cb9565b60405180910390f35b61014c610147366004610d2a565b61037b565b6040519015158152602001610130565b6002545b604051908152602001610130565b61014c61017c366004610d54565b610393565b61014c61018f366004610d90565b60066020526000908152604090205460ff1681565b60405160ff7f0000000000000000000000000000000000000000000000000000000000000000168152602001610130565b61014c6101e3366004610d2a565b6103b7565b6101fb6101f6366004610d2a565b6103f6565b005b6101fb61020b366004610db2565b610434565b61016061021e366004610d90565b6001600160a01b031660009081526020819052604090205490565b6101fb610441565b6005546040516001600160a01b039091168152602001610130565b610123610480565b61014c610272366004610d2a565b61048f565b61014c610285366004610d2a565b610521565b6101fb610298366004610d90565b61052f565b6101606102ab366004610dcb565b6001600160a01b03918216600090815260016020908152604080832093909416825291909152205490565b6101fb6102e4366004610d90565b61057d565b6060600380546102f890610dfe565b80601f016020809104026020016040519081016040528092919081815260200182805461032490610dfe565b80156103715780601f1061034657610100808354040283529160200191610371565b820191906000526020600020905b81548152906001019060200180831161035457829003601f168201915b5050505050905090565b600033610389818585610615565b5060019392505050565b6000336103a185828561073a565b6103ac8585856107cc565b506001949350505050565b3360008181526001602090815260408083206001600160a01b038716845290915281205490919061038990829086906103f1908790610e4f565b610615565b3360009081526006602052604090205460ff1661042657604051636bd1573560e11b815260040160405180910390fd5b61043082826109a5565b5050565b61043e3382610a90565b50565b6005546001600160a01b031633146104745760405162461bcd60e51b815260040161046b90610e67565b60405180910390fd5b61047e6000610be7565b565b6060600480546102f890610dfe565b3360008181526001602090815260408083206001600160a01b0387168452909152812054909190838110156105145760405162461bcd60e51b815260206004820152602560248201527f45524332303a2064656372656173656420616c6c6f77616e63652062656c6f77604482015264207a65726f60d81b606482015260840161046b565b6103ac8286868403610615565b6000336103898185856107cc565b6005546001600160a01b031633146105595760405162461bcd60e51b815260040161046b90610e67565b6001600160a01b03166000908152600660205260409020805460ff19166001179055565b6005546001600160a01b031633146105a75760405162461bcd60e51b815260040161046b90610e67565b6001600160a01b03811661060c5760405162461bcd60e51b815260206004820152602660248201527f4f776e61626c653a206e6577206f776e657220697320746865207a65726f206160448201526564647265737360d01b606482015260840161046b565b61043e81610be7565b6001600160a01b0383166106775760405162461bcd60e51b8152602060048201526024808201527f45524332303a20617070726f76652066726f6d20746865207a65726f206164646044820152637265737360e01b606482015260840161046b565b6001600160a01b0382166106d85760405162461bcd60e51b815260206004820152602260248201527f45524332303a20617070726f766520746f20746865207a65726f206164647265604482015261737360f01b606482015260840161046b565b6001600160a01b0383811660008181526001602090815260408083209487168084529482529182902085905590518481527f8c5be1e5ebec7d5bd14f71427d1e84f3dd0314c0f7b2291e5b200ac8c7c3b92591015b60405180910390a3505050565b6001600160a01b0383811660009081526001602090815260408083209386168352929052205460001981146107c657818110156107b95760405162461bcd60e51b815260206004820152601d60248201527f45524332303a20696e73756666696369656e7420616c6c6f77616e6365000000604482015260640161046b565b6107c68484848403610615565b50505050565b6001600160a01b0383166108305760405162461bcd60e51b815260206004820152602560248201527f45524332303a207472616e736665722066726f6d20746865207a65726f206164604482015264647265737360d81b606482015260840161046b565b6001600160a01b0382166108925760405162461bcd60e51b815260206004820152602360248201527f45524332303a207472616e7366657220746f20746865207a65726f206164647260448201526265737360e81b606482015260840161046b565b61089d838383610c39565b6001600160a01b038316600090815260208190526040902054818110156109155760405162461bcd60e51b815260206004820152602660248201527f45524332303a207472616e7366657220616d6f756e7420657863656564732062604482015265616c616e636560d01b606482015260840161046b565b6001600160a01b0380851660009081526020819052604080822085850390559185168152908120805484929061094c908490610e4f565b92505081905550826001600160a01b0316846001600160a01b03167fddf252ad1be2c89b69c2b068fc378daa952ba7f163c4a11628f55a4df523b3ef8460405161099891815260200190565b60405180910390a36107c6565b6001600160a01b0382166109fb5760405162461bcd60e51b815260206004820152601f60248201527f45524332303a206d696e7420746f20746865207a65726f206164647265737300604482015260640161046b565b610a0760008383610c39565b8060026000828254610a199190610e4f565b90915550506001600160a01b03821660009081526020819052604081208054839290610a46908490610e4f565b90915550506040518181526001600160a01b038316906000907fddf252ad1be2c89b69c2b068fc378daa952ba7f163c4a11628f55a4df523b3ef9060200160405180910390a35050565b6001600160a01b038216610af05760405162461bcd60e51b815260206004820152602160248201527f45524332303a206275726e2066726f6d20746865207a65726f206164647265736044820152607360f81b606482015260840161046b565b610afc82600083610c39565b6001600160a01b03821660009081526020819052604090205481811015610b705760405162461bcd60e51b815260206004820152602260248201527f45524332303a206275726e20616d6f756e7420657863656564732062616c616e604482015261636560f01b606482015260840161046b565b6001600160a01b0383166000908152602081905260408120838303905560028054849290610b9f908490610e9c565b90915550506040518281526000906001600160a01b038516907fddf252ad1be2c89b69c2b068fc378daa952ba7f163c4a11628f55a4df523b3ef9060200161072d565b505050565b600580546001600160a01b038381166001600160a01b0319831681179093556040519116919082907f8be0079c531659141344cd1fd0a4f28419497f9722a3daafe3b4186f6b6457e090600090a35050565b6001600160a01b0383161580610c5657506001600160a01b038216155b80610c7957506001600160a01b03831660009081526006602052604090205460ff165b80610c9c57506001600160a01b03821660009081526006602052604090205460ff165b610be257604051636bd1573560e11b815260040160405180910390fd5b600060208083528351808285015260005b81811015610ce657858101830151858201604001528201610cca565b81811115610cf8576000604083870101525b50601f01601f1916929092016040019392505050565b80356001600160a01b0381168114610d2557600080fd5b919050565b60008060408385031215610d3d57600080fd5b610d4683610d0e565b946020939093013593505050565b600080600060608486031215610d6957600080fd5b610d7284610d0e565b9250610d8060208501610d0e565b9150604084013590509250925092565b600060208284031215610da257600080fd5b610dab82610d0e565b9392505050565b600060208284031215610dc457600080fd5b5035919050565b60008060408385031215610dde57600080fd5b610de783610d0e565b9150610df560208401610d0e565b90509250929050565b600181811c90821680610e1257607f821691505b60208210811415610e3357634e487b7160e01b600052602260045260246000fd5b50919050565b634e487b7160e01b600052601160045260246000fd5b60008219821115610e6257610e62610e39565b500190565b6020808252818101527f4f776e61626c653a2063616c6c6572206973206e6f7420746865206f776e6572604082015260600190565b600082821015610eae57610eae610e39565b50039056fea26469706673582212204dae9b3eaa097368dfbb52eb0c703152b09407fe1a42ff7777b1baebb1296ddc64736f6c634300080c0033608060405260405162000f6638038062000f66833981016040819052620000269162000519565b82816200005560017f360894a13ba1a3210667c828492db98dca3e2076cc3735a920a3ca505d382bbd620005f9565b60008051602062000f1f833981519152146200007557620000756200061f565b6200008382826000620000e7565b50620000b3905060017fb53127684a568b3173ae13b9f8a6016e243e63b6e8ee1178d6a717850b5d6104620005f9565b60008051602062000eff83398151915214620000d357620000d36200061f565b620000de8262000124565b50505062000688565b620000f2836200017f565b600082511180620001005750805b156200011f576200011d8383620001c160201b620002601760201c565b505b505050565b7f7e644d79422f17c01e4894b5f4f588d331ebfa28653d42ae832dc59e38c9798f6200014f620001f0565b604080516001600160a01b03928316815291841660208301520160405180910390a16200017c8162000229565b50565b6200018a81620002de565b6040516001600160a01b038216907fbc7cd75a20ee27fd9adebab32041f755214dbc6bffa90cc0225b39da2e5c2d3b90600090a250565b6060620001e9838360405180606001604052806027815260200162000f3f6027913962000381565b9392505050565b60006200021a60008051602062000eff83398151915260001b6200046760201b620002081760201c565b546001600160a01b0316919050565b6001600160a01b038116620002945760405162461bcd60e51b815260206004820152602660248201527f455243313936373a206e65772061646d696e20697320746865207a65726f206160448201526564647265737360d01b60648201526084015b60405180910390fd5b80620002bd60008051602062000eff83398151915260001b6200046760201b620002081760201c565b80546001600160a01b0319166001600160a01b039290921691909117905550565b620002f4816200046a60201b6200028c1760201c565b620003585760405162461bcd60e51b815260206004820152602d60248201527f455243313936373a206e657720696d706c656d656e746174696f6e206973206e60448201526c1bdd08184818dbdb9d1c9858dd609a1b60648201526084016200028b565b80620002bd60008051602062000f1f83398151915260001b6200046760201b620002081760201c565b60606001600160a01b0384163b620003eb5760405162461bcd60e51b815260206004820152602660248201527f416464726573733a2064656c65676174652063616c6c20746f206e6f6e2d636f6044820152651b9d1c9858dd60d21b60648201526084016200028b565b600080856001600160a01b03168560405162000408919062000635565b600060405180830381855af49150503d806000811462000445576040519150601f19603f3d011682016040523d82523d6000602084013e6200044a565b606091505b5090925090506200045d82828662000479565b9695505050505050565b90565b6001600160a01b03163b151590565b606083156200048a575081620001e9565b8251156200049b5782518084602001fd5b8160405162461bcd60e51b81526004016200028b919062000653565b80516001600160a01b0381168114620004cf57600080fd5b919050565b634e487b7160e01b600052604160045260246000fd5b60005b8381101562000507578181015183820152602001620004ed565b838111156200011d5750506000910152565b6000806000606084860312156200052f57600080fd5b6200053a84620004b7565b92506200054a60208501620004b7565b60408501519092506001600160401b03808211156200056857600080fd5b818601915086601f8301126200057d57600080fd5b815181811115620005925762000592620004d4565b604051601f8201601f19908116603f01168101908382118183101715620005bd57620005bd620004d4565b81604052828152896020848701011115620005d757600080fd5b620005ea836020830160208801620004ea565b80955050505050509250925092565b6000828210156200061a57634e487b7160e01b600052601160045260246000fd5b500390565b634e487b7160e01b600052600160045260246000fd5b6000825162000649818460208701620004ea565b9190910192915050565b602081526000825180602084015262000674816040850160208701620004ea565b601f01601f19169190910160400192915050565b61086780620006986000396000f3fe60806040526004361061004e5760003560e01c80633659cfe6146100655780634f1ef286146100855780635c60da1b146100985780638f283970146100c9578063f851a440146100e95761005d565b3661005d5761005b6100fe565b005b61005b6100fe565b34801561007157600080fd5b5061005b6100803660046106f1565b610118565b61005b61009336600461070c565b61015f565b3480156100a457600080fd5b506100ad6101d0565b6040516001600160a01b03909116815260200160405180910390f35b3480156100d557600080fd5b5061005b6100e43660046106f1565b61020b565b3480156100f557600080fd5b506100ad610235565b61010661029b565b61011661011161033a565b610344565b565b610120610368565b6001600160a01b0316336001600160a01b03161415610157576101548160405180602001604052806000815250600061039b565b50565b6101546100fe565b610167610368565b6001600160a01b0316336001600160a01b031614156101c8576101c38383838080601f0160208091040260200160405190810160405280939291908181526020018383808284376000920191909152506001925061039b915050565b505050565b6101c36100fe565b60006101da610368565b6001600160a01b0316336001600160a01b03161415610200576101fb61033a565b905090565b6102086100fe565b90565b610213610368565b6001600160a01b0316336001600160a01b0316141561015757610154816103c6565b600061023f610368565b6001600160a01b0316336001600160a01b03161415610200576101fb610368565b6060610285838360405180606001604052806027815260200161080b6027913961041a565b9392505050565b6001600160a01b03163b151590565b6102a3610368565b6001600160a01b0316336001600160a01b031614156101165760405162461bcd60e51b815260206004820152604260248201527f5472616e73706172656e745570677261646561626c6550726f78793a2061646d60448201527f696e2063616e6e6f742066616c6c6261636b20746f2070726f78792074617267606482015261195d60f21b608482015260a4015b60405180910390fd5b60006101fb6104f7565b3660008037600080366000845af43d6000803e808015610363573d6000f35b3d6000fd5b60007fb53127684a568b3173ae13b9f8a6016e243e63b6e8ee1178d6a717850b5d61035b546001600160a01b0316919050565b6103a48361051f565b6000825111806103b15750805b156101c3576103c08383610260565b50505050565b7f7e644d79422f17c01e4894b5f4f588d331ebfa28653d42ae832dc59e38c9798f6103ef610368565b604080516001600160a01b03928316815291841660208301520160405180910390a16101548161055f565b60606001600160a01b0384163b6104825760405162461bcd60e51b815260206004820152602660248201527f416464726573733a2064656c65676174652063616c6c20746f206e6f6e2d636f6044820152651b9d1c9858dd60d21b6064820152608401610331565b600080856001600160a01b03168560405161049d91906107bb565b600060405180830381855af49150503d80600081146104d8576040519150601f19603f3d011682016040523d82523d6000602084013e6104dd565b606091505b50915091506104ed828286610608565b9695505050505050565b60007f360894a13ba1a3210667c828492db98dca3e2076cc3735a920a3ca505d382bbc61038c565b61052881610641565b6040516001600160a01b038216907fbc7cd75a20ee27fd9adebab32041f755214dbc6bffa90cc0225b39da2e5c2d3b90600090a250565b6001600160a01b0381166105c45760405162461bcd60e51b815260206004820152602660248201527f455243313936373a206e65772061646d696e20697320746865207a65726f206160448201526564647265737360d01b6064820152608401610331565b807fb53127684a568b3173ae13b9f8a6016e243e63b6e8ee1178d6a717850b5d61035b80546001600160a01b0319166001600160a01b039290921691909117905550565b60608315610617575081610285565b8251156106275782518084602001fd5b8160405162461bcd60e51b815260040161033191906107d7565b6001600160a01b0381163b6106ae5760405162461bcd60e51b815260206004820152602d60248201527f455243313936373a206e657720696d706c656d656e746174696f6e206973206e60448201526c1bdd08184818dbdb9d1c9858dd609a1b6064820152608401610331565b807f360894a13ba1a3210667c828492db98dca3e2076cc3735a920a3ca505d382bbc6105e7565b80356001600160a01b03811681146106ec57600080fd5b919050565b60006020828403121561070357600080fd5b610285826106d5565b60008060006040848603121561072157600080fd5b61072a846106d5565b9250602084013567ffffffffffffffff8082111561074757600080fd5b818601915086601f83011261075b57600080fd5b81358181111561076a57600080fd5b87602082850101111561077c57600080fd5b6020830194508093505050509250925092565b60005b838110156107aa578181015183820152602001610792565b838111156103c05750506000910152565b600082516107cd81846020870161078f565b9190910192915050565b60208152600082518060208401526107f681604085016020870161078f565b601f01601f1916919091016040019291505056fe416464726573733a206c6f772d6c6576656c2064656c65676174652063616c6c206661696c6564a26469706673582212207f0252c776f198cca570612c3ea47d796ebd89ae139bcd3bba941a71b9adccf064736f6c634300080c0033b53127684a568b3173ae13b9f8a6016e243e63b6e8ee1178d6a717850b5d6103360894a13ba1a3210667c828492db98dca3e2076cc3735a920a3ca505d382bbc416464726573733a206c6f772d6c6576656c2064656c65676174652063616c6c206661696c6564496e697469616c697a61626c653a20636f6e747261637420697320616c726561",
  "devdoc": {
    "kind": "dev",
    "methods": {
      "constructor": {
        "details": "Need to deploy logic contracts for ClearingHouse, VPoolWrapper, InsuranceFund prior to this"
      },
      "governance()": {
        "details": "Returns the address of the current governance."
      },
      "initializePool(((string,string,uint8),(uint16,uint16,uint32,bool,bool,address),uint24,uint24,uint16))": {
        "details": "An already deployed oracle contract address (implementing IOracle) is needed prior to using this",
        "params": {
          "initializePoolParams": "parameters for initializing the pool"
        }
      },
      "setVPoolWrapperLogicAddress(address)": {
        "details": "When a new vPoolWrapperLogic is deployed, make sure that the initialize method is called.",
        "params": {
          "_vPoolWrapperLogicAddress": ": new logic address"
        }
      },
      "teamMultisig()": {
        "details": "Returns the address of the current team multisig.transferTeamMultisig"
      },
      "transferGovernance(address)": {
        "details": "Transfers governance to a new account (`newGovernance`). Can only be called by the current governance."
      },
      "transferTeamMultisig(address)": {
        "details": "Transfers teamMultisig to a new account (`newTeamMultisig`). Can only be called by the current teamMultisig or current governance."
      }
    },
    "version": 1
  },
  "userdoc": {
    "kind": "user",
    "methods": {
      "constructor": {
        "notice": "Sets up the protocol by deploying necessary core contracts"
      },
      "initializePool(((string,string,uint8),(uint16,uint16,uint32,bool,bool,address),uint24,uint24,uint16))": {
        "notice": "Sets up a new Rage Trade Pool by deploying necessary contracts"
      },
      "setVPoolWrapperLogicAddress(address)": {
        "notice": "Admin method to set latest implementation logic for VPoolWrapper"
      }
    },
    "version": 1
  },
  "storageLayout": {
    "storage": [
      {
        "astId": 299,
        "contract": "contracts/protocol/RageTradeFactory.sol:RageTradeFactory",
        "label": "_initialized",
        "offset": 0,
        "slot": "0",
        "type": "t_bool"
      },
      {
        "astId": 302,
        "contract": "contracts/protocol/RageTradeFactory.sol:RageTradeFactory",
        "label": "_initializing",
        "offset": 1,
        "slot": "0",
        "type": "t_bool"
      },
      {
        "astId": 1477,
        "contract": "contracts/protocol/RageTradeFactory.sol:RageTradeFactory",
        "label": "__gap",
        "offset": 0,
        "slot": "1",
        "type": "t_array(t_uint256)50_storage"
      },
      {
        "astId": 28483,
        "contract": "contracts/protocol/RageTradeFactory.sol:RageTradeFactory",
        "label": "_governance",
        "offset": 0,
        "slot": "51",
        "type": "t_address"
      },
      {
        "astId": 28485,
        "contract": "contracts/protocol/RageTradeFactory.sol:RageTradeFactory",
        "label": "_teamMultisig",
        "offset": 0,
        "slot": "52",
        "type": "t_address"
      },
      {
        "astId": 28814,
        "contract": "contracts/protocol/RageTradeFactory.sol:RageTradeFactory",
        "label": "proxyAdmin",
        "offset": 0,
        "slot": "53",
        "type": "t_contract(ProxyAdmin)2694"
      },
      {
        "astId": 23347,
        "contract": "contracts/protocol/RageTradeFactory.sol:RageTradeFactory",
        "label": "vPoolWrapperLogicAddress",
        "offset": 0,
        "slot": "54",
        "type": "t_address"
      }
    ],
    "types": {
      "t_address": {
        "encoding": "inplace",
        "label": "address",
        "numberOfBytes": "20"
      },
      "t_array(t_uint256)50_storage": {
        "base": "t_uint256",
        "encoding": "inplace",
        "label": "uint256[50]",
        "numberOfBytes": "1600"
      },
      "t_bool": {
        "encoding": "inplace",
        "label": "bool",
        "numberOfBytes": "1"
      },
      "t_contract(ProxyAdmin)2694": {
        "encoding": "inplace",
        "label": "contract ProxyAdmin",
        "numberOfBytes": "20"
      },
      "t_uint256": {
        "encoding": "inplace",
        "label": "uint256",
        "numberOfBytes": "32"
      }
    }
  }
}