{
  "address": "0x172b070dc24D8f0a3Cd665e601a398419c5272E6",
  "abi": [
    {
      "inputs": [
        {
          "internalType": "address",
          "name": "clearingHouseLogicAddress",
          "type": "address"
        },
        {
          "internalType": "address",
          "name": "_vPoolWrapperLogicAddress",
          "type": "address"
        },
        {
          "internalType": "address",
          "name": "insuranceFundLogicAddress",
          "type": "address"
        },
        {
          "internalType": "contract IERC20Metadata",
          "name": "settlementToken",
          "type": "address"
        },
        {
          "internalType": "contract IOracle",
          "name": "settlementTokenOracle",
          "type": "address"
        }
      ],
      "stateMutability": "nonpayable",
      "type": "constructor"
    },
    {
      "inputs": [
        {
          "internalType": "address",
          "name": "addr",
          "type": "address"
        }
      ],
      "name": "IllegalAddress",
      "type": "error"
    },
    {
      "inputs": [
        {
          "internalType": "uint256",
          "name": "y_target",
          "type": "uint256"
        },
        {
          "internalType": "uint160",
          "name": "x_lower",
          "type": "uint160"
        },
        {
          "internalType": "uint160",
          "name": "x_upper",
          "type": "uint160"
        }
      ],
      "name": "SolutionOutOfBounds",
      "type": "error"
    },
    {
      "inputs": [],
      "name": "Unauthorised",
      "type": "error"
    },
    {
      "inputs": [],
      "name": "ZeroAddress",
      "type": "error"
    },
    {
      "anonymous": false,
      "inputs": [
        {
          "indexed": true,
          "internalType": "address",
          "name": "previousGovernancePending",
          "type": "address"
        },
        {
          "indexed": true,
          "internalType": "address",
          "name": "newGovernancePending",
          "type": "address"
        }
      ],
      "name": "GovernancePending",
      "type": "event"
    },
    {
      "anonymous": false,
      "inputs": [
        {
          "indexed": true,
          "internalType": "address",
          "name": "previousGovernance",
          "type": "address"
        },
        {
          "indexed": true,
          "internalType": "address",
          "name": "newGovernance",
          "type": "address"
        }
      ],
      "name": "GovernanceTransferred",
      "type": "event"
    },
    {
      "anonymous": false,
      "inputs": [
        {
          "indexed": false,
          "internalType": "contract IUniswapV3Pool",
          "name": "vPool",
          "type": "address"
        },
        {
          "indexed": false,
          "internalType": "contract IVToken",
          "name": "vToken",
          "type": "address"
        },
        {
          "indexed": false,
          "internalType": "contract IVPoolWrapper",
          "name": "vPoolWrapper",
          "type": "address"
        }
      ],
      "name": "PoolInitialized",
      "type": "event"
    },
    {
      "anonymous": false,
      "inputs": [
        {
          "indexed": true,
          "internalType": "address",
          "name": "previousTeamMultisigPending",
          "type": "address"
        },
        {
          "indexed": true,
          "internalType": "address",
          "name": "newTeamMultisigPending",
          "type": "address"
        }
      ],
      "name": "TeamMultisigPending",
      "type": "event"
    },
    {
      "anonymous": false,
      "inputs": [
        {
          "indexed": true,
          "internalType": "address",
          "name": "previousTeamMultisig",
          "type": "address"
        },
        {
          "indexed": true,
          "internalType": "address",
          "name": "newTeamMultisig",
          "type": "address"
        }
      ],
      "name": "TeamMultisigTransferred",
      "type": "event"
    },
    {
      "inputs": [],
      "name": "acceptGovernanceTransfer",
      "outputs": [],
      "stateMutability": "nonpayable",
      "type": "function"
    },
    {
      "inputs": [],
      "name": "acceptTeamMultisigTransfer",
      "outputs": [],
      "stateMutability": "nonpayable",
      "type": "function"
    },
    {
      "inputs": [],
      "name": "clearingHouse",
      "outputs": [
        {
          "internalType": "contract IClearingHouse",
          "name": "",
          "type": "address"
        }
      ],
      "stateMutability": "view",
      "type": "function"
    },
    {
      "inputs": [],
      "name": "governance",
      "outputs": [
        {
          "internalType": "address",
          "name": "",
          "type": "address"
        }
      ],
      "stateMutability": "view",
      "type": "function"
    },
    {
      "inputs": [],
      "name": "governancePending",
      "outputs": [
        {
          "internalType": "address",
          "name": "",
          "type": "address"
        }
      ],
      "stateMutability": "view",
      "type": "function"
    },
    {
      "inputs": [
        {
          "components": [
            {
              "components": [
                {
                  "internalType": "string",
                  "name": "vTokenName",
                  "type": "string"
                },
                {
                  "internalType": "string",
                  "name": "vTokenSymbol",
                  "type": "string"
                },
                {
                  "internalType": "uint8",
                  "name": "cTokenDecimals",
                  "type": "uint8"
                }
              ],
              "internalType": "struct VTokenDeployer.DeployVTokenParams",
              "name": "deployVTokenParams",
              "type": "tuple"
            },
            {
              "components": [
                {
                  "internalType": "uint16",
                  "name": "initialMarginRatioBps",
                  "type": "uint16"
                },
                {
                  "internalType": "uint16",
                  "name": "maintainanceMarginRatioBps",
                  "type": "uint16"
                },
                {
                  "internalType": "uint16",
                  "name": "maxVirtualPriceDeviationRatioBps",
                  "type": "uint16"
                },
                {
                  "internalType": "uint32",
                  "name": "twapDuration",
                  "type": "uint32"
                },
                {
                  "internalType": "bool",
                  "name": "isAllowedForTrade",
                  "type": "bool"
                },
                {
                  "internalType": "bool",
                  "name": "isCrossMargined",
                  "type": "bool"
                },
                {
                  "internalType": "contract IOracle",
                  "name": "oracle",
                  "type": "address"
                }
              ],
              "internalType": "struct IClearingHouseStructures.PoolSettings",
              "name": "poolInitialSettings",
              "type": "tuple"
            },
            {
              "internalType": "uint24",
              "name": "liquidityFeePips",
              "type": "uint24"
            },
            {
              "internalType": "uint24",
              "name": "protocolFeePips",
              "type": "uint24"
            },
            {
              "internalType": "uint16",
              "name": "slotsToInitialize",
              "type": "uint16"
            }
          ],
          "internalType": "struct RageTradeFactory.InitializePoolParams",
          "name": "initializePoolParams",
          "type": "tuple"
        }
      ],
      "name": "initializePool",
      "outputs": [],
      "stateMutability": "nonpayable",
      "type": "function"
    },
    {
      "inputs": [
        {
          "internalType": "address",
          "name": "newGovernancePending",
          "type": "address"
        }
      ],
      "name": "initiateGovernanceTransfer",
      "outputs": [],
      "stateMutability": "nonpayable",
      "type": "function"
    },
    {
      "inputs": [
        {
          "internalType": "address",
          "name": "newTeamMultisigPending",
          "type": "address"
        }
      ],
      "name": "initiateTeamMultisigTransfer",
      "outputs": [],
      "stateMutability": "nonpayable",
      "type": "function"
    },
    {
      "inputs": [],
      "name": "proxyAdmin",
      "outputs": [
        {
          "internalType": "contract ProxyAdmin",
          "name": "",
          "type": "address"
        }
      ],
      "stateMutability": "view",
      "type": "function"
    },
    {
      "inputs": [
        {
          "internalType": "address",
          "name": "_vPoolWrapperLogicAddress",
          "type": "address"
        }
      ],
      "name": "setVPoolWrapperLogicAddress",
      "outputs": [],
      "stateMutability": "nonpayable",
      "type": "function"
    },
    {
      "inputs": [],
      "name": "teamMultisig",
      "outputs": [
        {
          "internalType": "address",
          "name": "",
          "type": "address"
        }
      ],
      "stateMutability": "view",
      "type": "function"
    },
    {
      "inputs": [],
      "name": "teamMultisigPending",
      "outputs": [
        {
          "internalType": "address",
          "name": "",
          "type": "address"
        }
      ],
      "stateMutability": "view",
      "type": "function"
    },
    {
      "inputs": [],
      "name": "vPoolWrapperLogicAddress",
      "outputs": [
        {
          "internalType": "address",
          "name": "",
          "type": "address"
        }
      ],
      "stateMutability": "view",
      "type": "function"
    },
    {
      "inputs": [],
      "name": "vQuote",
      "outputs": [
        {
          "internalType": "contract IVQuote",
          "name": "",
          "type": "address"
        }
      ],
      "stateMutability": "view",
      "type": "function"
    }
  ],
  "transactionHash": "0xd9c45502a0799c6018289c7696d3f6b9774dd602f323a1c580ebd63fcf7a9925",
  "args": [
    "0x4b173C91CDFb0c57e23d6920E1aB8Be4F5bD01b7",
    "0x80Fe2ca9c7D5e77934CdAaF6f2eAe002991cb679",
    "0x7690d7ab44280D6565c5a402c32Cd4d38c4C7141",
    "0x33a010E74A354bd784a62cca3A4047C1A84Ceeab",
    "0x2105b496ec95c3c1cE807B949ABFe902B5dBb09b"
  ],
  "numDeployments": 1,
  "solcInputHash": "a0f251f14be82fcda6f51ae633510bf0",
  "bytecode": "0x60c060405234620000c35760a0620087c180380380916200002082620000df565b60c03912620000c3576200007e60c0516200003b81620001a5565b60e0516200004981620001a5565b610100516200005881620001a5565b61012051916200006883620001a5565b61014051936200007885620001a5565b620001eb565b604051613e5a908162000b318239608051818181610443015281816107dd01528181611162015261180e015260a0518181816101b8015281816107b901526117880152f35b600080fd5b50634e487b7160e01b600052604160045260246000fd5b60c0601f91909101601f19168101906001600160401b038211908210176200010657604052565b62000110620000c8565b604052565b6001600160401b0381116200010657604052565b604081019081106001600160401b038211176200010657604052565b608081019081106001600160401b038211176200010657604052565b601f909101601f19168101906001600160401b038211908210176200010657604052565b6040519060a082016001600160401b038111838210176200010657604052565b6001600160a01b03811603620000c357565b6000910312620000c357565b506040513d6000823e3d90fd5b90816020910312620000c3575160ff81168103620000c35790565b939290620001f990620003d7565b620002296200020762000ae2565b603780546001600160a01b0319166001600160a01b0392909216919091179055565b60375462000247906001600160a01b03165b6001600160a01b031690565b803b15620000c35760405163f2fde38b60e01b8152336004820152620003629562000356929091906000908290602490829084905af18015620003c7575b620003a9575b5060405163313ce56760e01b81526001600160a01b03938416946200035091620002e09190620002d7906020816004818c5afa90811562000399575b60009162000364575b50620007e0565b60805262000697565b60805190969062000331906001600160a01b031691620003126200030362000185565b6001600160a01b039096168652565b6001600160a01b03881660208601526001600160a01b03166040850152565b6001600160a01b03871660608401526001600160a01b03166080830152565b62000594565b8060a052169162000719565b565b6200038a915060203d811162000391575b62000381818362000161565b810190620001d0565b38620002d0565b503d62000375565b620003a3620001c3565b620002c7565b80620003b9620003c09262000115565b80620001b7565b386200028b565b620003d1620001c3565b62000285565b60005460ff8160081c169081600014620005075750620003f9303b15620009fd565b1580620004d9575b60005460ff8160081c16801562000480571562000471575062000426303b15620009fd565b62000432333362000a61565b6200045a575b603880546001600160a01b0319166001600160a01b0392909216919091179055565b6200046b61ff001960005416600055565b62000438565b60ff62000426911615620009fd565b60405162461bcd60e51b815260206004820152602b60248201527f496e697469616c697a61626c653a20636f6e7472616374206973206e6f74206960448201526a6e697469616c697a696e6760a81b6064820152608490fd5b620004ee61010061ff00196000541617600055565b62000501600160ff196000541617600055565b62000401565b60ff620003f9911615620009fd565b918091926000905b8282106200053857501162000531575050565b6000910152565b915080602091830151818601520182916200051e565b91906080939160018060a01b0380921684521660208301526060604083015262000588815180928160608601526020868601910162000516565b601f01601f1916010190565b80516001600160a01b03166037546200065f90620005bb906001600160a01b03166200023b565b60208481015160408087015160608801516080909801519151631ac3b23b60e11b94810194909452306024850152336044850181905260648501526001600160a01b039283166084850152821660a484015295811660c483015290941660e480860191909152845292620006326101048262000161565b604051938493610f07808601906001600160401b0382118783101762000687575b6200528087396200054e565b03906000f0801562000677576001600160a01b031690565b62000681620001c3565b6200023b565b62000691620000c8565b62000653565b6037546040516001600160a01b039290916080918391610f07808401929187169187916001600160401b0385118686101762000709575b620061878639168252602082015260606040820152600060608201520301906000f08015620006fb571690565b62000705620001c3565b1690565b62000713620000c8565b620006ce565b6001600160a01b03908116803b15620000c357600092836101049284604051978896879563100b506960e11b875216600486015216602484015260806044840152601a60848401527f5261676554726164652069536574746c656d656e74546f6b656e00000000000060a484015260c06064840152601060c48401526f34a9b2ba3a3632b6b2b73a2a37b5b2b760811b60e48401525af18015620007d0575b620007c05750565b80620003b9620003629262000115565b620007da620001c3565b620007b8565b6200085461173391604090620008618251916020928391620008058389018362000161565b878252828201976200708e8939855160ff848201921682528381526200082b8162000129565b8651978893620008448686019b8c925192839162000516565b8401915180938684019062000516565b0103808652018462000161565b6001908143106200091b5791908060001943014093600096865190203060601b925b620008b9575b50505050506200023b620008b692620008a2926200094f565b6001600160a01b0390921691821462000931565b90565b90919293809750518281019060ff60f81b8252846021820152866035820152605583818301528152620008ec8162000145565b5190206001600160a01b0381169790609c1c600f90811614600003620008895794840194939291908362000883565b634e487b7160e01b600052601160045260246000fd5b156200093957565b634e487b7160e01b600052600160045260246000fd5b90805115620009b9576020815191016000f56001600160a01b03811615620009745790565b60405162461bcd60e51b815260206004820152601960248201527f437265617465323a204661696c6564206f6e206465706c6f79000000000000006044820152606490fd5b606460405162461bcd60e51b815260206004820152602060248201527f437265617465323a2062797465636f6465206c656e677468206973207a65726f6044820152fd5b1562000a0557565b60405162461bcd60e51b815260206004820152602e60248201527f496e697469616c697a61626c653a20636f6e747261637420697320616c72656160448201526d191e481a5b9a5d1a585b1a5e995960921b6064820152608490fd5b603380546001600160a01b039283166001600160a01b0319918216811790925560405190936000937f39355f2f5c8206286978f443aa8126bbd29fa09c53c04569502647f3a59c8cb29385939290847f5f56bee8cffbe9a78652a74a60705edede02af10b0bbb888ca44b79a0d42ce808186a31680956034541617603455a3565b604051806108f5808201906001600160401b0382118383101762000b20575b6200498b833903906000f0801562000b165790565b620008b6620001c3565b62000b2a620000c8565b62000b0156fe6080604052600436101562000014575b600080fd5b60003560e01c806304a6f26414620001545780630af96800146200014957806313401551146200013e578063255034a914620001335780632a90b8da14620001285780633562490c146200011d5780633e47158c14620001125780634bc36bd614620001075780635aa6e67514620000fc5780636ae7323014620000f15780638f8022bc14620000e6578063dbc0c08514620000db578063df6c157314620000d05763fc34409914620000c657600080fd5b6200000f62000b86565b506200000f620005e1565b506200000f620005b7565b506200000f62000524565b506200000f62000491565b506200000f62000467565b506200000f62000420565b506200000f620003f6565b506200000f6200036c565b506200000f620002e2565b506200000f62000218565b506200000f620001dc565b506200000f62000195565b506200000f6200016b565b60009103126200000f57565b50346200000f5760006003193601126200000f5760206001600160a01b0360365416604051908152f35b50346200000f5760006003193601126200000f5760206040516001600160a01b037f0000000000000000000000000000000000000000000000000000000000000000168152f35b50346200000f5760006003193601126200000f5760206001600160a01b0360355416604051908152f35b6001600160a01b038116036200000f57565b50346200000f5760206003193601126200000f576004356200023a8162000206565b6001600160a01b039081603354163303620002b85716801562000287577fffffffffffffffffffffffff000000000000000000000000000000000000000060385416176038556000604051f35b60246040517f562997d000000000000000000000000000000000000000000000000000000000815260006004820152fd5b60046040517fd7a2ae6a000000000000000000000000000000000000000000000000000000008152fd5b50346200000f5760006003193601126200000f576035546001600160a01b03808216803303620002b85760009260335491806040519484167f5f56bee8cffbe9a78652a74a60705edede02af10b0bbb888ca44b79a0d42ce808787a37fffffffffffffffffffffffff00000000000000000000000000000000000000008093161760335516603555f35b50346200000f5760006003193601126200000f576036546001600160a01b03808216803303620002b85760009260345491806040519484167f39355f2f5c8206286978f443aa8126bbd29fa09c53c04569502647f3a59c8cb28787a37fffffffffffffffffffffffff00000000000000000000000000000000000000008093161760345516603655f35b50346200000f5760006003193601126200000f5760206001600160a01b0360375416604051908152f35b50346200000f5760006003193601126200000f5760206040516001600160a01b037f0000000000000000000000000000000000000000000000000000000000000000168152f35b50346200000f5760006003193601126200000f5760206001600160a01b0360335416604051908152f35b50346200000f5760206003193601126200000f57600435620004b38162000206565b6001600160a01b0380603354163303620002b8576000917fffffffffffffffffffffffff000000000000000000000000000000000000000082603654921691826040519482167f9b068aae3039a2512c2f13bffb5fd9d95b1895b276b5c7ddf1d4fa24ec3686588787a31617603655f35b50346200000f5760206003193601126200000f57600435620005468162000206565b6001600160a01b0380603354163303620002b8576000917fffffffffffffffffffffffff000000000000000000000000000000000000000082603554921691826040519482167f8c405decc72a19ef328c92989ce6db4e4a498e1c246413fd60997a3051ba5cff8787a31617603555f35b50346200000f5760006003193601126200000f5760206001600160a01b0360345416604051908152f35b50346200000f5760206003199080823601126200000f57600480359167ffffffffffffffff83116200000f576101608383019484360301126200000f576001600160a01b03938460335416330362000b5d576200064381620006499262000bb0565b620012de565b9062000655826200112f565b9085821694620006786200066c60e4830162000be4565b6001600160a01b031690565b95620006f0620006d384620006906084860162000c02565b60409a8a8c518095819482937fdd86c101000000000000000000000000000000000000000000000000000000008452830191909163ffffffff6020820193169052565b03915afa90811562000b4d575b60009162000b19575b5062000f26565b813b156200000f5787517ff637731d0000000000000000000000000000000000000000000000000000000081526001600160a01b0390911687820190815260009082908190602001038183865af1801562000b09575b62000af2575b506200075c610144830162000ceb565b90803b156200000f5787517f32148f6700000000000000000000000000000000000000000000000000000000815261ffff909216878301908152600091839182908490829060200103925af1801562000ae2575b62000acb575b507f00000000000000000000000000000000000000000000000000000000000000008716967f000000000000000000000000000000000000000000000000000000000000000091816200080d610104830162000cf7565b6200081c610124840162000cf7565b6200082662000d08565b6001600160a01b038d168152916001600160a01b038a16838901526001600160a01b038716838d01526001600160a01b038916606084015262ffffff16608083015262ffffff1660a08201526200087d906200161a565b93169180841692803b156200000f57600084620008d8928b838e518096819582947fb6a5d7de00000000000000000000000000000000000000000000000000000000845283019190916001600160a01b036020820193169052565b03925af1801562000abb575b62000aa4575b50861691823b156200000f57600062000946916200099e948a838d518096819582947fd7adb4fe00000000000000000000000000000000000000000000000000000000845283019190916001600160a01b036020820193169052565b03925af1801562000a94575b62000a7d575b5062000985856200096862000d29565b6001600160a01b0389168152958601906001600160a01b03169052565b6001600160a01b03831684890152602436910162000d6f565b6060830152863b156200000f5762000a0e600062000a499381997fb2684e1b8e116bbb42a14d7a6bc6afa19d85ff0a8666a6b424b79a738c661d8198838b518096819582947f3ffe794c000000000000000000000000000000000000000000000000000000008452830162000e30565b03925af1801562000a6d575b62000a4f575b5085516001600160a01b0393841681529383166020850152909116604083015281906060820190565b0390a151f35b8062000a5f62000a669262000c3e565b806200015f565b3862000a20565b62000a7762000cd1565b62000a1a565b8062000a5f62000a8d9262000c3e565b3862000958565b62000a9e62000cd1565b62000952565b8062000a5f62000ab49262000c3e565b38620008ea565b62000ac562000cd1565b620008e4565b8062000a5f62000adb9262000c3e565b38620007b6565b62000aec62000cd1565b620007b0565b8062000a5f62000b029262000c3e565b386200074c565b62000b1362000cd1565b62000746565b62000b3e9150853d871162000b45575b62000b35818362000c9d565b81019062000cc1565b38620006e9565b503d62000b29565b62000b5762000cd1565b620006e0565b826040517fd7a2ae6a000000000000000000000000000000000000000000000000000000008152fd5b50346200000f5760006003193601126200000f5760206001600160a01b0360385416604051908152f35b9035907fffffffffffffffffffffffffffffffffffffffffffffffffffffffffffffffa1813603018212156200000f570190565b3562000bf08162000206565b90565b63ffffffff8116036200000f57565b3562000bf08162000bf3565b507f4e487b7100000000000000000000000000000000000000000000000000000000600052604160045260246000fd5b67ffffffffffffffff811162000c5357604052565b62000c5d62000c0e565b604052565b6080810190811067ffffffffffffffff82111762000c5357604052565b610100810190811067ffffffffffffffff82111762000c5357604052565b90601f601f19910116810190811067ffffffffffffffff82111762000c5357604052565b908160209103126200000f575190565b506040513d6000823e3d90fd5b61ffff8116036200000f57565b3562000bf08162000cde565b3562ffffff811681036200000f5790565b6040519060c0820182811067ffffffffffffffff82111762000c5357604052565b6040519062000d388262000c62565b565b359062000d388262000cde565b359062000d388262000bf3565b359081151582036200000f57565b359062000d388262000206565b91908260e09103126200000f5760405160e0810181811067ffffffffffffffff82111762000e20575b60405260c062000e1b818395803562000db18162000cde565b8552602081013562000dc38162000cde565b602086015262000dd66040820162000d3a565b604086015262000de96060820162000d47565b606086015262000dfc6080820162000d54565b608086015262000e0f60a0820162000d54565b60a08601520162000d62565b910152565b62000e2a62000c0e565b62000d98565b62000d389092919261012060c060606101408401966001600160a01b038082511686528060208301511660208701526040820151166040860152015161ffff80825116606086015280602083015116608086015260408201511660a085015263ffffffff606082015116828501526080810151151560e085015262000ebf60a082015161010086019015159052565b01516001600160a01b0316910152565b507f4e487b7100000000000000000000000000000000000000000000000000000000600052601160045260246000fd5b6001600160a01b03918216911681811062000f18570390565b62000f2262000ecf565b0390565b6401000276a373fffd8963efd1fc6a506488495d951d5263988d25916001808210801562001070575b6200101957805b62000f9a575b506001600160a01b038084169083161415908162000f85575b501562000f80575090565b905090565b905062000f92836200170b565b143862000f75565b928362000fac6200066c858462000eff565b1115620010125762000fea62000fe362000fc7858462000eff565b60011c737fffffffffffffffffffffffffffffffffffffff1690565b846200109a565b908262000ff7836200170b565b1115620010075750928062000f56565b939092508062000f56565b9262000f5c565b6040517ff7b6b2e9000000000000000000000000000000000000000000000000000000008152600481018390526401000276a3602482015273fffd8963efd1fc6a506488495d951d5263988d256044820152606490fd5b507ffffb12cdf108779ad387f409f1a66d1a2f5124ea64410ed5b3a4d30149805a4f821162000f4f565b906001600160a01b038080931691168092038111620010b7570190565b620010c162000ecf565b0190565b7fffffffffffffffffffffffffffffffffffffffffffffffffffffffffffffffff828209908281029283808410930392808403931462001126576801000000000000000091838311156200000f570990828211900360c01b910360401c1790565b50505060401c90565b6040517fa16712950000000000000000000000000000000000000000000000000000000081526001600160a01b038092817f00000000000000000000000000000000000000000000000000000000000000001660048401521660248201526101f460448201526020816064816000731f98431c8ad98523631ae4a59f267346ea31f9845af19081156200120c575b600091620011ca57501690565b906020823d821162001203575b81620011e66020938362000c9d565b8101031262001200575051620011fc8162000206565b1690565b80fd5b3d9150620011d7565b6200121662000cd1565b620011bd565b9035907fffffffffffffffffffffffffffffffffffffffffffffffffffffffffffffffe1813603018212156200000f570180359067ffffffffffffffff82116200000f576020019181360383136200000f57565b601f8260209493601f19938186528686013760008582860101520116010190565b918091926000905b828210620012b3575011620012ac575050565b6000910152565b9150806020918301518186015201829162001299565b90620010c16020928281519485920162001291565b604051906116e2620012f4602082018462000c9d565b80835262002743602084013960406200130e82806200121c565b90926200131f60208201826200121c565b93909101359460ff86168096036200000f57620013ad6200066c9562001395620013ba9562000bf09962001382620013a6996200136d60405196879560606020880152608087019162001270565b90601f19998a86840301604087015262001270565b9060608301520385810183528262000c9d565b6040519586936020850190620012c9565b90620012c9565b0390810183528262000c9d565b600190814310620014ab575b7fffffffffffffffffffffffffffffffffffffffffffffffffffffffffffffffff4301406000928251908060209283860120923060601b915b6200142e575b505050506200066c62000bf0926200141d92620014f2565b6001600160a01b03831614620014bb565b90919295506001600160a01b03604051828101907fff000000000000000000000000000000000000000000000000000000000000008252846021820152866035820152605589818301528152620014858162000c62565b5190201695620014958762001720565b60000362001405579383019392919082620013ff565b620014b562000ecf565b620013c6565b15620014c357565b7f4e487b7100000000000000000000000000000000000000000000000000000000600052600160045260246000fd5b9080511562001575576020815191016000f56001600160a01b03811615620015175790565b60646040517f08c379a000000000000000000000000000000000000000000000000000000000815260206004820152601960248201527f437265617465323a204661696c6564206f6e206465706c6f79000000000000006044820152fd5b60646040517f08c379a000000000000000000000000000000000000000000000000000000000815260206004820152602060248201527f437265617465323a2062797465636f6465206c656e677468206973207a65726f6044820152fd5b91608093601f1992601f926001600160a01b0380921686521660208501526060604085015262001613815180928160608801526020888801910162001291565b0116010190565b6001600160a01b03908160385416620016e1836037541692604051907f56d15a8800000000000000000000000000000000000000000000000000000000602083015285815116602483015285602082015116604483015285604082015116606483015285606082015116608483015260a062ffffff918260808201511660a485015201511660c482015260c48152620016b38162000c7f565b604051938493610f078086019086821067ffffffffffffffff831117620016fb575b6200183c8739620015d3565b03906000f08015620016f1571690565b620011fc62000cd1565b6200170562000c0e565b620016d5565b6001600160a01b0362000bf0911680620010c5565b63ffffffff8116801515918262001804575b50816200173d575090565b905060005260646020526040600020604051907f1e2eaeaf00000000000000000000000000000000000000000000000000000000825260048201526020816024816001600160a01b037f0000000000000000000000000000000000000000000000000000000000000000165afa908115620017f4575b600091620017c057501590565b906020823d8211620017eb575b81620017dc6020938362000c9d565b81010312620012005750511590565b3d9150620017cd565b620017fe62000cd1565b620017b3565b6001600160a01b037f000000000000000000000000000000000000000000000000000000000000000081169116109150386200173256fe608060405262000f07803803806200001781620000d6565b9283398101606082820312620000ba5762000032826200010b565b9162000041602082016200010b565b604082015190916001600160401b038211620000ba57019282601f85011215620000ba578351936200007d620000778662000120565b620000d6565b9385855260208683010111620000ba57620000aa94620000a491602080870191016200014e565b62000186565b604051610a2f9081620004d88239f35b600080fd5b50634e487b7160e01b600052604160045260246000fd5b6040519190601f01601f191682016001600160401b03811183821017620000fc57604052565b62000106620000bf565b604052565b51906001600160a01b0382168203620000ba57565b6020906001600160401b0381116200013e575b601f01601f19160190565b62000148620000bf565b62000133565b918091926000905b8282106200017057501162000169575050565b6000910152565b9150806020918301518186015201829162000156565b91823b1562000240577f360894a13ba1a3210667c828492db98dca3e2076cc3735a920a3ca505d382bbc80546001600160a01b0319166001600160a01b038516908117909155604051620002169491907fbc7cd75a20ee27fd9adebab32041f755214dbc6bffa90cc0225b39da2e5c2d3b90600090a281511580159062000237575b62000218575b50506200029b565b565b6200022e916200022762000369565b91620003d4565b5038806200020e565b50600062000208565b60405162461bcd60e51b815260206004820152602d60248201527f455243313936373a206e657720696d706c656d656e746174696f6e206973206e60448201526c1bdd08184818dbdb9d1c9858dd609a1b6064820152608490fd5b7fb53127684a568b3173ae13b9f8a6016e243e63b6e8ee1178d6a717850b5d61038054604080516001600160a01b0380841682529094166020850181905292937f7e644d79422f17c01e4894b5f4f588d331ebfa28653d42ae832dc59e38c9798f9190a1811562000315576001600160a01b031916179055565b60405162461bcd60e51b815260206004820152602660248201527f455243313936373a206e65772061646d696e20697320746865207a65726f206160448201526564647265737360d01b6064820152608490fd5b60405190606082016001600160401b03811183821017620003c4575b60405260278252660819985a5b195960ca1b6040837f416464726573733a206c6f772d6c6576656c2064656c65676174652063616c6c60208201520152565b620003ce620000bf565b62000385565b9190823b156200042557600081620004199460208394519201905af43d156200041c573d9062000408620000778362000120565b9182523d6000602084013e62000479565b90565b60609062000479565b60405162461bcd60e51b815260206004820152602660248201527f416464726573733a2064656c65676174652063616c6c20746f206e6f6e2d636f6044820152651b9d1c9858dd60d21b6064820152608490fd5b9091901562000486575090565b815115620004975750805190602001fd5b6044604051809262461bcd60e51b825260206004830152620004c981518092816024860152602086860191016200014e565b601f01601f19168101030190fdfe6080604052600436101561002c575b361561001f575b61001d610449565b005b610027610449565b610015565b6000803560e01c9081633659cfe614610093575080634f1ef2861461008a5780635c60da1b146100815780638f283970146100785763f851a4400361000e576100736103df565b61000e565b50610073610298565b50610073610201565b5061007361013b565b34610110576020600319360112610110576100ac610113565b73ffffffffffffffffffffffffffffffffffffffff7fb53127684a568b3173ae13b9f8a6016e243e63b6e8ee1178d6a717850b5d61035416331460001461010757610102906100f96105a5565b90838252610623565b604051f35b50610102610449565b80fd5b6004359073ffffffffffffffffffffffffffffffffffffffff8216820361013657565b600080fd5b50604060031936011261013657610150610113565b60243567ffffffffffffffff9182821161013657366023830112156101365781600401359283116101365736602484840101116101365773ffffffffffffffffffffffffffffffffffffffff7fb53127684a568b3173ae13b9f8a6016e243e63b6e8ee1178d6a717850b5d6103541633146000146101f65760006020848060246101e46101df61001d996105f8565b6105d2565b96828852018387013784010152610765565b50505061001d610449565b5034610136576000600319360112610136576020600073ffffffffffffffffffffffffffffffffffffffff90817fb53127684a568b3173ae13b9f8a6016e243e63b6e8ee1178d6a717850b5d61035416331460001461028a5750807f360894a13ba1a3210667c828492db98dca3e2076cc3735a920a3ca505d382bbc5416905b60405191168152f35b90610293610449565b610281565b5034610136576020600319360112610136576102b2610113565b73ffffffffffffffffffffffffffffffffffffffff907fb53127684a568b3173ae13b9f8a6016e243e63b6e8ee1178d6a717850b5d6103918083541633146000146101f6577f7e644d79422f17c01e4894b5f4f588d331ebfa28653d42ae832dc59e38c9798f604084549281519481851686521693846020820152a1811561035b577fffffffffffffffffffffffff000000000000000000000000000000000000000016179055005b60846040517f08c379a000000000000000000000000000000000000000000000000000000000815260206004820152602660248201527f455243313936373a206e65772061646d696e20697320746865207a65726f206160448201527f64647265737300000000000000000000000000000000000000000000000000006064820152fd5b5034610136576000600319360112610136576020600073ffffffffffffffffffffffffffffffffffffffff7fb53127684a568b3173ae13b9f8a6016e243e63b6e8ee1178d6a717850b5d61038181541633146000146104445754604051911681529050f35b506102935b5073ffffffffffffffffffffffffffffffffffffffff807fb53127684a568b3173ae13b9f8a6016e243e63b6e8ee1178d6a717850b5d6103541633146104cb577f360894a13ba1a3210667c828492db98dca3e2076cc3735a920a3ca505d382bbc54166000808092368280378136915af43d82803e156104c7573d90f35b3d90fd5b60a46040517f08c379a000000000000000000000000000000000000000000000000000000000815260206004820152604260248201527f5472616e73706172656e745570677261646561626c6550726f78793a2061646d60448201527f696e2063616e6e6f742066616c6c6261636b20746f2070726f7879207461726760648201527f65740000000000000000000000000000000000000000000000000000000000006084820152fd5b507f4e487b7100000000000000000000000000000000000000000000000000000000600052604160045260246000fd5b604051906020820182811067ffffffffffffffff8211176105c557604052565b6105cd610575565b604052565b90601f19601f604051930116820182811067ffffffffffffffff8211176105c557604052565b601f19601f60209267ffffffffffffffff8111610616575b01160190565b61061e610575565b610610565b803b156106e15773ffffffffffffffffffffffffffffffffffffffff81167f360894a13ba1a3210667c828492db98dca3e2076cc3735a920a3ca505d382bbc817fffffffffffffffffffffffff00000000000000000000000000000000000000008254161790557fbc7cd75a20ee27fd9adebab32041f755214dbc6bffa90cc0225b39da2e5c2d3b6000604051a28151158015906106d9575b6106c4575050565b6106d6916106d061080d565b9161088b565b50565b5060006106bc565b60846040517f08c379a000000000000000000000000000000000000000000000000000000000815260206004820152602d60248201527f455243313936373a206e657720696d706c656d656e746174696f6e206973206e60448201527f6f74206120636f6e7472616374000000000000000000000000000000000000006064820152fd5b803b156106e15773ffffffffffffffffffffffffffffffffffffffff81167f360894a13ba1a3210667c828492db98dca3e2076cc3735a920a3ca505d382bbc817fffffffffffffffffffffffff00000000000000000000000000000000000000008254161790557fbc7cd75a20ee27fd9adebab32041f755214dbc6bffa90cc0225b39da2e5c2d3b6000604051a2815115801590610805576106c4575050565b5060016106bc565b604051906060820182811067ffffffffffffffff82111761087e575b604052602782527f206661696c6564000000000000000000000000000000000000000000000000006040837f416464726573733a206c6f772d6c6576656c2064656c65676174652063616c6c60208201520152565b610886610575565b610829565b9190823b156108d4576000816108c99460208394519201905af43d156108cc573d906108b96101df836105f8565b9182523d6000602084013e610958565b90565b606090610958565b60846040517f08c379a000000000000000000000000000000000000000000000000000000000815260206004820152602660248201527f416464726573733a2064656c65676174652063616c6c20746f206e6f6e2d636f60448201527f6e747261637400000000000000000000000000000000000000000000000000006064820152fd5b90919015610964575090565b8151156109745750805190602001fd5b604051907f08c379a00000000000000000000000000000000000000000000000000000000082528160208060048301528251928360248401526000915b8483106109e0575050601f83604494601f1993116109d3575b01168101030190fd5b60008582860101526109ca565b81830181015186840160440152859350918201916109b156fea2646970667358221220414cf83a82ae5a3601e818c7ba20d36174c50e1257e0d54ea2cab110e4ba6d2664736f6c634300080e003360a060405234620000a157620016e2803803806200001d81620000bd565b928339810190606081830312620000a15780516001600160401b039290838111620000a1578162000050918401620000f2565b926020830151908111620000a1576040916200006e918401620000f2565b9101519060ff82168203620000a157620000889262000186565b6040516111ed9081620004f58239608051816104ca0152f35b600080fd5b50634e487b7160e01b600052604160045260246000fd5b6040519190601f01601f191682016001600160401b03811183821017620000e357604052565b620000ed620000a6565b604052565b81601f82011215620000a1578051906001600160401b03821162000176575b60209062000128601f8401601f19168301620000bd565b93838552828483010111620000a15782906000905b838383106200015d575050116200015357505090565b6000918301015290565b819350828193920101518282880101520183916200013d565b62000180620000a6565b62000111565b805190939291906001600160401b038111620002a3575b620001b581620001af600354620002b3565b620002f0565b602080601f83116001146200020e57508190620001f294959660009262000202575b50508160011b916000199060031b1c191617600355620003a2565b620001fd33620004a6565b608052565b015190503880620001d7565b6003600052601f198316969091907fc2575a0e9e593c00f959f8c92f12db2869c3395a3b0502d05e2516446f71f85b926000905b8982106200028a57505090839291600194620001f29798991062000270575b505050811b01600355620003a2565b015160001960f88460031b161c1916905538808062000261565b8060018596829496860151815501950193019062000242565b620002ad620000a6565b6200019d565b90600182811c92168015620002e5575b6020831014620002cf57565b634e487b7160e01b600052602260045260246000fd5b91607f1691620002c3565b601f8111620002fd575050565b6000906003825260208220906020601f850160051c830194106200033e575b601f0160051c01915b8281106200033257505050565b81815560010162000325565b90925082906200031c565b601f811162000356575050565b6000906004825260208220906020601f850160051c8301941062000397575b601f0160051c01915b8281106200038b57505050565b8181556001016200037e565b909250829062000375565b80519091906001600160401b03811162000496575b620003cf81620003c9600454620002b3565b62000349565b602080601f83116001146200040e575081929360009262000402575b50508160011b916000199060031b1c191617600455565b015190503880620003eb565b6004600052601f198316949091907f8a35acfbc15ff81a39ae7d344fd709f28e8600b4aa8c65c6b64bfe7fe36bd19b926000905b8782106200047d57505083600195961062000463575b505050811b01600455565b015160001960f88460031b161c1916905538808062000458565b8060018596829496860151815501950193019062000442565b620004a0620000a6565b620003b7565b600580546001600160a01b039283166001600160a01b031982168117909255604051919216907f8be0079c531659141344cd1fd0a4f28419497f9722a3daafe3b4186f6b6457e090600090a356fe60806040526004361015610013575b600080fd5b60003560e01c806306fdde031461017b578063095ea7b31461017257806318160ddd1461016957806323b872dd14610160578063313ce56714610157578063395093511461014e57806340c10f191461014557806342966c681461013c57806370a0823114610133578063715018a61461012a5780638da5cb5b1461012157806395d89b4114610118578063a457c2d71461010f578063a9059cbb14610106578063d7adb4fe146100fd578063dd62ed3e146100f4578063df8685d2146100eb5763f2fde38b146100e357600080fd5b61000e610b0b565b5061000e610ae3565b5061000e610a85565b5061000e610a19565b5061000e6109f2565b5061000e61092b565b5061000e610867565b5061000e61083f565b5061000e6107c3565b5061000e610788565b5061000e61066a565b5061000e610548565b5061000e6104ee565b5061000e6104af565b5061000e6103b6565b5061000e610397565b5061000e610365565b5061000e6101fa565b919091602080825283519081818401526000945b8286106101e4575050601f817fffffffffffffffffffffffffffffffffffffffffffffffffffffffffffffffe09260409596116101d7575b0116010190565b60008582860101526101d0565b8581018201518487016040015294810194610198565b503461000e576000806003193601126103365760405190806003549060019180831c9280821692831561032c575b60209283861085146102ff5785885260208801949081156102c5575060011461026c575b6102688761025c81890382610c63565b60405191829182610184565b0390f35b600360005294509192917fc2575a0e9e593c00f959f8c92f12db2869c3395a3b0502d05e2516446f71f85b5b8386106102b4575050509101905061025c82610268388061024c565b805485870152948201948101610298565b7fffffffffffffffffffffffffffffffffffffffffffffffffffffffffffffff0016855250505001915061025c905082610268388061024c565b6024827f4e487b710000000000000000000000000000000000000000000000000000000081526022600452fd5b93607f1693610228565b80fd5b600435906001600160a01b038216820361000e57565b602435906001600160a01b038216820361000e57565b503461000e57604060031936011261000e5761038c610382610339565b6024359033610f25565b602060405160018152f35b503461000e57600060031936011261000e576020600254604051908152f35b503461000e57606060031936011261000e576103d0610339565b6103d861034f565b604435906001600160a01b038316600052600160205261040f336040600020906001600160a01b0316600052602052604060002090565b54927fffffffffffffffffffffffffffffffffffffffffffffffffffffffffffffffff840361044f575b6104439350610dfd565b60405160018152602090f35b82841061046b576104668361044395033383610f25565b610439565b606460405162461bcd60e51b815260206004820152601d60248201527f45524332303a20696e73756666696369656e7420616c6c6f77616e63650000006044820152fd5b503461000e57600060031936011261000e57602060405160ff7f0000000000000000000000000000000000000000000000000000000000000000168152f35b503461000e57604060031936011261000e5761038c61050b610339565b33600052600160205261054160243561053b836040600020906001600160a01b0316600052602052604060002090565b54610d03565b9033610f25565b503461000e57604060031936011261000e57610562610339565b602435906001600160a01b03806006541633036106405781169182156105fc576105f7816105da6000946105c16105bc7fddf252ad1be2c89b69c2b068fc378daa952ba7f163c4a11628f55a4df523b3ef96600254610d03565b600255565b6001600160a01b03166000526000602052604060002090565b6105e5828254610d03565b90556040519081529081906020820190565b0390a3005b606460405162461bcd60e51b815260206004820152601f60248201527f45524332303a206d696e7420746f20746865207a65726f2061646472657373006044820152fd5b60046040517fd7a2ae6a000000000000000000000000000000000000000000000000000000008152fd5b503461000e57602060031936011261000e57600435331561071e5760009061069133611084565b806106af336001600160a01b03166000526000602052604060002090565b546106bc8282101561112f565b036106da336001600160a01b03166000526000602052604060002090565b556106ea6105bc826002546111a0565b60405190815233907fddf252ad1be2c89b69c2b068fc378daa952ba7f163c4a11628f55a4df523b3ef9080602081016105f7565b608460405162461bcd60e51b815260206004820152602160248201527f45524332303a206275726e2066726f6d20746865207a65726f2061646472657360448201527f73000000000000000000000000000000000000000000000000000000000000006064820152fd5b503461000e57602060031936011261000e576001600160a01b036107aa610339565b1660005260006020526020604060002054604051908152f35b503461000e57600080600319360112610336576005547fffffffffffffffffffffffff00000000000000000000000000000000000000006001600160a01b03821691610810338414610bb6565b1660055581604051917f8be0079c531659141344cd1fd0a4f28419497f9722a3daafe3b4186f6b6457e08284a3f35b503461000e57600060031936011261000e5760206001600160a01b0360055416604051908152f35b503461000e576000806003193601126103365760405190806004549060019180831c92808216928315610921575b60209283861085146102ff5785885260208801949081156102c557506001146108c8576102688761025c81890382610c63565b600460005294509192917f8a35acfbc15ff81a39ae7d344fd709f28e8600b4aa8c65c6b64bfe7fe36bd19b5b838610610910575050509101905061025c82610268388061024c565b8054858701529482019481016108f4565b93607f1693610895565b503461000e57604060031936011261000e57610945610339565b60243590336000526001602052610973816040600020906001600160a01b0316600052602052604060002090565b54918083106109885761044392039033610f25565b608460405162461bcd60e51b815260206004820152602560248201527f45524332303a2064656372656173656420616c6c6f77616e63652062656c6f7760448201527f207a65726f0000000000000000000000000000000000000000000000000000006064820152fd5b503461000e57604060031936011261000e5761038c610a0f610339565b6024359033610dfd565b503461000e57602060031936011261000e57610a33610339565b6001600160a01b0390610a4b82600554163314610bb6565b6006549180831615610a5a575b005b7fffffffffffffffffffffffff00000000000000000000000000000000000000009116911617600655005b503461000e57604060031936011261000e576020610ada610aa4610339565b6001600160a01b03610ab461034f565b9116600052600183526040600020906001600160a01b0316600052602052604060002090565b54604051908152f35b503461000e57600060031936011261000e5760206001600160a01b0360065416604051908152f35b503461000e57602060031936011261000e57610b25610339565b6001600160a01b03610b3c81600554163314610bb6565b811615610b4c57610a5890610c01565b608460405162461bcd60e51b815260206004820152602660248201527f4f776e61626c653a206e6577206f776e657220697320746865207a65726f206160448201527f64647265737300000000000000000000000000000000000000000000000000006064820152fd5b15610bbd57565b606460405162461bcd60e51b815260206004820152602060248201527f4f776e61626c653a2063616c6c6572206973206e6f7420746865206f776e65726044820152fd5b600554906001600160a01b0380911691827fffffffffffffffffffffffff0000000000000000000000000000000000000000821617600555167f8be0079c531659141344cd1fd0a4f28419497f9722a3daafe3b4186f6b6457e06000604051a3565b90601f7fffffffffffffffffffffffffffffffffffffffffffffffffffffffffffffffe0910116810190811067ffffffffffffffff821117610ca457604052565b7f4e487b7100000000000000000000000000000000000000000000000000000000600052604160045260246000fd5b507f4e487b7100000000000000000000000000000000000000000000000000000000600052601160045260246000fd5b81198111610d0f570190565b610d17610cd3565b0190565b15610d2257565b608460405162461bcd60e51b815260206004820152602360248201527f45524332303a207472616e7366657220746f20746865207a65726f206164647260448201527f65737300000000000000000000000000000000000000000000000000000000006064820152fd5b15610d9357565b608460405162461bcd60e51b815260206004820152602660248201527f45524332303a207472616e7366657220616d6f756e742065786365656473206260448201527f616c616e636500000000000000000000000000000000000000000000000000006064820152fd5b91906001600160a01b0390818416928315610ebb576105da827fddf252ad1be2c89b69c2b068fc378daa952ba7f163c4a11628f55a4df523b3ef94610eb6941696610e49881515610d1b565b610e5382826110d5565b610e9c84610e74836001600160a01b03166000526000602052604060002090565b54610e8182821015610d8c565b03916001600160a01b03166000526000602052604060002090565b556001600160a01b03166000526000602052604060002090565b0390a3565b608460405162461bcd60e51b815260206004820152602560248201527f45524332303a207472616e736665722066726f6d20746865207a65726f20616460448201527f64726573730000000000000000000000000000000000000000000000000000006064820152fd5b906001600160a01b039182811692831561101b578216938415610fb15780610fa07f8c5be1e5ebec7d5bd14f71427d1e84f3dd0314c0f7b2291e5b200ac8c7c3b92594610f88610eb6956001600160a01b03166000526001602052604060002090565b906001600160a01b0316600052602052604060002090565b556040519081529081906020820190565b608460405162461bcd60e51b815260206004820152602260248201527f45524332303a20617070726f766520746f20746865207a65726f20616464726560448201527f73730000000000000000000000000000000000000000000000000000000000006064820152fd5b608460405162461bcd60e51b8152602060048201526024808201527f45524332303a20617070726f76652066726f6d20746865207a65726f2061646460448201527f72657373000000000000000000000000000000000000000000000000000000006064820152fd5b6001600160a01b038091169081159182156110cc575b82156110be575b5081156110b1575b501561064057565b90506006541615386110a9565b6006548216149150386110a1565b6001925061109a565b906001600160a01b03809216918215928315611124575b8315611116575b508215611104575b50501561064057565b809192506006541691161438806110fb565b6006548216149250386110f3565b8282161593506110ec565b1561113657565b608460405162461bcd60e51b815260206004820152602260248201527f45524332303a206275726e20616d6f756e7420657863656564732062616c616e60448201527f63650000000000000000000000000000000000000000000000000000000000006064820152fd5b8181106111ab570390565b6111b3610cd3565b039056fea26469706673582212207876dea818f785ebe8d802c0ed846d78a8c00616cc48682675b7a4d816c9681e64736f6c634300080e0033a264697066735822122077dca403fd1557da31e1276e9316c153a5db90de4af898454adcf8b80288db5464736f6c634300080e00336080806040523461005b5760008054336001600160a01b0319821681178355916001600160a01b03909116907f8be0079c531659141344cd1fd0a4f28419497f9722a3daafe3b4186f6b6457e09084a361089490816100618239f35b600080fdfe608080604052600436101561001357600080fd5b6000803560e01c918263204e1c7a146100b85750508063715018a6146100af5780637eff275e146100a65780638da5cb5b1461009d5780639623609d1461009457806399a88ec41461008b578063f2fde38b146100825763f3b7dead1461007a575b600080fd5b6100756105b1565b506100756104db565b50610075610453565b506100756103c7565b506100756102f3565b50610075610249565b5061007561019a565b3461016d57602060031936011261016d57818060048035936100d985610171565b7f5c60da1b00000000000000000000000000000000000000000000000000000000815273ffffffffffffffffffffffffffffffffffffffff8095165afa9161011f610714565b921561016a575061013c8260208061016695518301019101610744565b166040519182918291909173ffffffffffffffffffffffffffffffffffffffff6020820193169052565b0390f35b80fd5b5080fd5b73ffffffffffffffffffffffffffffffffffffffff81160361007557565b600091031261007557565b50346100755760008060031936011261016a5780547fffffffffffffffffffffffff000000000000000000000000000000000000000073ffffffffffffffffffffffffffffffffffffffff8216916101f3338414610640565b16825581604051917f8be0079c531659141344cd1fd0a4f28419497f9722a3daafe3b4186f6b6457e08284a3f35b60031960409101126100755760043561023981610171565b9060243561024681610171565b90565b50346100755761025836610221565b6000809273ffffffffffffffffffffffffffffffffffffffff8091610281828554163314610640565b1692833b156102ef576024908360405195869485937f8f2839700000000000000000000000000000000000000000000000000000000085521660048401525af180156102e2575b6102d3575b50604051f35b6102dc90610358565b386102cd565b6102ea610759565b6102c8565b8280fd5b503461007557600060031936011261007557602073ffffffffffffffffffffffffffffffffffffffff60005416604051908152f35b507f4e487b7100000000000000000000000000000000000000000000000000000000600052604160045260246000fd5b67ffffffffffffffff811161036c57604052565b610374610328565b604052565b90601f601f19910116810190811067ffffffffffffffff82111761036c57604052565b601f19601f60209267ffffffffffffffff81116103ba575b01160190565b6103c2610328565b6103b4565b506060600319360112610075576004356103e081610171565b602435906103ed82610171565b6044359167ffffffffffffffff831161007557366023840112156100755782600401359161041a8361039c565b926104286040519485610379565b808452366024828701011161007557602081600092602461045198018388013785010152610766565b005b50346100755761046236610221565b6000809273ffffffffffffffffffffffffffffffffffffffff809161048b828554163314610640565b1692833b156102ef576024908360405195869485937f3659cfe60000000000000000000000000000000000000000000000000000000085521660048401525af180156102e2576102d35750604051f35b5034610075576020600319360112610075576004356104f981610171565b73ffffffffffffffffffffffffffffffffffffffff61051d81600054163314610640565b81161561052d57610451906106a5565b60846040517f08c379a000000000000000000000000000000000000000000000000000000000815260206004820152602660248201527f4f776e61626c653a206e6577206f776e657220697320746865207a65726f206160448201527f64647265737300000000000000000000000000000000000000000000000000006064820152fd5b5034610075576020600319360112610075576004356105cf81610171565b60008060046040517ff851a44000000000000000000000000000000000000000000000000000000000815273ffffffffffffffffffffffffffffffffffffffff8095165afa9061061d610714565b911561007557610637826020808095518301019101610744565b16604051908152f35b1561064757565b60646040517f08c379a000000000000000000000000000000000000000000000000000000000815260206004820152602060248201527f4f776e61626c653a2063616c6c6572206973206e6f7420746865206f776e65726044820152fd5b6000549073ffffffffffffffffffffffffffffffffffffffff80911691827fffffffffffffffffffffffff0000000000000000000000000000000000000000821617600055167f8be0079c531659141344cd1fd0a4f28419497f9722a3daafe3b4186f6b6457e06000604051a3565b3d1561073f573d906107258261039c565b916107336040519384610379565b82523d6000602084013e565b606090565b90816020910312610075575161024681610171565b506040513d6000823e3d90fd5b909173ffffffffffffffffffffffffffffffffffffffff9081600093610790828654163314610640565b1691823b1561085a579391906040519485937f4f1ef2860000000000000000000000000000000000000000000000000000000085521660048401526040602484015280519081604485015284905b82821061083f575083601f19601f84839560649511610833575b0116810103019134905af18015610826575b6108115750565b8061081e61082492610358565b8061018f565b565b61082e610759565b61080a565b888582860101526107f8565b602081830181015160648985010152879550909101906107de565b8380fdfea26469706673582212209bc4efc9918701d4287f8e1cff0fe1c207e84c4a9cfe307f05b66f7f7c273a3264736f6c634300080e0033608060405262000f07803803806200001781620000d6565b9283398101606082820312620000ba5762000032826200010b565b9162000041602082016200010b565b604082015190916001600160401b038211620000ba57019282601f85011215620000ba578351936200007d620000778662000120565b620000d6565b9385855260208683010111620000ba57620000aa94620000a491602080870191016200014e565b62000186565b604051610a2f9081620004d88239f35b600080fd5b50634e487b7160e01b600052604160045260246000fd5b6040519190601f01601f191682016001600160401b03811183821017620000fc57604052565b62000106620000bf565b604052565b51906001600160a01b0382168203620000ba57565b6020906001600160401b0381116200013e575b601f01601f19160190565b62000148620000bf565b62000133565b918091926000905b8282106200017057501162000169575050565b6000910152565b9150806020918301518186015201829162000156565b91823b1562000240577f360894a13ba1a3210667c828492db98dca3e2076cc3735a920a3ca505d382bbc80546001600160a01b0319166001600160a01b038516908117909155604051620002169491907fbc7cd75a20ee27fd9adebab32041f755214dbc6bffa90cc0225b39da2e5c2d3b90600090a281511580159062000237575b62000218575b50506200029b565b565b6200022e916200022762000369565b91620003d4565b5038806200020e565b50600062000208565b60405162461bcd60e51b815260206004820152602d60248201527f455243313936373a206e657720696d706c656d656e746174696f6e206973206e60448201526c1bdd08184818dbdb9d1c9858dd609a1b6064820152608490fd5b7fb53127684a568b3173ae13b9f8a6016e243e63b6e8ee1178d6a717850b5d61038054604080516001600160a01b0380841682529094166020850181905292937f7e644d79422f17c01e4894b5f4f588d331ebfa28653d42ae832dc59e38c9798f9190a1811562000315576001600160a01b031916179055565b60405162461bcd60e51b815260206004820152602660248201527f455243313936373a206e65772061646d696e20697320746865207a65726f206160448201526564647265737360d01b6064820152608490fd5b60405190606082016001600160401b03811183821017620003c4575b60405260278252660819985a5b195960ca1b6040837f416464726573733a206c6f772d6c6576656c2064656c65676174652063616c6c60208201520152565b620003ce620000bf565b62000385565b9190823b156200042557600081620004199460208394519201905af43d156200041c573d9062000408620000778362000120565b9182523d6000602084013e62000479565b90565b60609062000479565b60405162461bcd60e51b815260206004820152602660248201527f416464726573733a2064656c65676174652063616c6c20746f206e6f6e2d636f6044820152651b9d1c9858dd60d21b6064820152608490fd5b9091901562000486575090565b815115620004975750805190602001fd5b6044604051809262461bcd60e51b825260206004830152620004c981518092816024860152602086860191016200014e565b601f01601f19168101030190fdfe6080604052600436101561002c575b361561001f575b61001d610449565b005b610027610449565b610015565b6000803560e01c9081633659cfe614610093575080634f1ef2861461008a5780635c60da1b146100815780638f283970146100785763f851a4400361000e576100736103df565b61000e565b50610073610298565b50610073610201565b5061007361013b565b34610110576020600319360112610110576100ac610113565b73ffffffffffffffffffffffffffffffffffffffff7fb53127684a568b3173ae13b9f8a6016e243e63b6e8ee1178d6a717850b5d61035416331460001461010757610102906100f96105a5565b90838252610623565b604051f35b50610102610449565b80fd5b6004359073ffffffffffffffffffffffffffffffffffffffff8216820361013657565b600080fd5b50604060031936011261013657610150610113565b60243567ffffffffffffffff9182821161013657366023830112156101365781600401359283116101365736602484840101116101365773ffffffffffffffffffffffffffffffffffffffff7fb53127684a568b3173ae13b9f8a6016e243e63b6e8ee1178d6a717850b5d6103541633146000146101f65760006020848060246101e46101df61001d996105f8565b6105d2565b96828852018387013784010152610765565b50505061001d610449565b5034610136576000600319360112610136576020600073ffffffffffffffffffffffffffffffffffffffff90817fb53127684a568b3173ae13b9f8a6016e243e63b6e8ee1178d6a717850b5d61035416331460001461028a5750807f360894a13ba1a3210667c828492db98dca3e2076cc3735a920a3ca505d382bbc5416905b60405191168152f35b90610293610449565b610281565b5034610136576020600319360112610136576102b2610113565b73ffffffffffffffffffffffffffffffffffffffff907fb53127684a568b3173ae13b9f8a6016e243e63b6e8ee1178d6a717850b5d6103918083541633146000146101f6577f7e644d79422f17c01e4894b5f4f588d331ebfa28653d42ae832dc59e38c9798f604084549281519481851686521693846020820152a1811561035b577fffffffffffffffffffffffff000000000000000000000000000000000000000016179055005b60846040517f08c379a000000000000000000000000000000000000000000000000000000000815260206004820152602660248201527f455243313936373a206e65772061646d696e20697320746865207a65726f206160448201527f64647265737300000000000000000000000000000000000000000000000000006064820152fd5b5034610136576000600319360112610136576020600073ffffffffffffffffffffffffffffffffffffffff7fb53127684a568b3173ae13b9f8a6016e243e63b6e8ee1178d6a717850b5d61038181541633146000146104445754604051911681529050f35b506102935b5073ffffffffffffffffffffffffffffffffffffffff807fb53127684a568b3173ae13b9f8a6016e243e63b6e8ee1178d6a717850b5d6103541633146104cb577f360894a13ba1a3210667c828492db98dca3e2076cc3735a920a3ca505d382bbc54166000808092368280378136915af43d82803e156104c7573d90f35b3d90fd5b60a46040517f08c379a000000000000000000000000000000000000000000000000000000000815260206004820152604260248201527f5472616e73706172656e745570677261646561626c6550726f78793a2061646d60448201527f696e2063616e6e6f742066616c6c6261636b20746f2070726f7879207461726760648201527f65740000000000000000000000000000000000000000000000000000000000006084820152fd5b507f4e487b7100000000000000000000000000000000000000000000000000000000600052604160045260246000fd5b604051906020820182811067ffffffffffffffff8211176105c557604052565b6105cd610575565b604052565b90601f19601f604051930116820182811067ffffffffffffffff8211176105c557604052565b601f19601f60209267ffffffffffffffff8111610616575b01160190565b61061e610575565b610610565b803b156106e15773ffffffffffffffffffffffffffffffffffffffff81167f360894a13ba1a3210667c828492db98dca3e2076cc3735a920a3ca505d382bbc817fffffffffffffffffffffffff00000000000000000000000000000000000000008254161790557fbc7cd75a20ee27fd9adebab32041f755214dbc6bffa90cc0225b39da2e5c2d3b6000604051a28151158015906106d9575b6106c4575050565b6106d6916106d061080d565b9161088b565b50565b5060006106bc565b60846040517f08c379a000000000000000000000000000000000000000000000000000000000815260206004820152602d60248201527f455243313936373a206e657720696d706c656d656e746174696f6e206973206e60448201527f6f74206120636f6e7472616374000000000000000000000000000000000000006064820152fd5b803b156106e15773ffffffffffffffffffffffffffffffffffffffff81167f360894a13ba1a3210667c828492db98dca3e2076cc3735a920a3ca505d382bbc817fffffffffffffffffffffffff00000000000000000000000000000000000000008254161790557fbc7cd75a20ee27fd9adebab32041f755214dbc6bffa90cc0225b39da2e5c2d3b6000604051a2815115801590610805576106c4575050565b5060016106bc565b604051906060820182811067ffffffffffffffff82111761087e575b604052602782527f206661696c6564000000000000000000000000000000000000000000000000006040837f416464726573733a206c6f772d6c6576656c2064656c65676174652063616c6c60208201520152565b610886610575565b610829565b9190823b156108d4576000816108c99460208394519201905af43d156108cc573d906108b96101df836105f8565b9182523d6000602084013e610958565b90565b606090610958565b60846040517f08c379a000000000000000000000000000000000000000000000000000000000815260206004820152602660248201527f416464726573733a2064656c65676174652063616c6c20746f206e6f6e2d636f60448201527f6e747261637400000000000000000000000000000000000000000000000000006064820152fd5b90919015610964575090565b8151156109745750805190602001fd5b604051907f08c379a00000000000000000000000000000000000000000000000000000000082528160208060048301528251928360248401526000915b8483106109e0575050601f83604494601f1993116109d3575b01168101030190fd5b60008582860101526109ca565b81830181015186840160440152859350918201916109b156fea2646970667358221220414cf83a82ae5a3601e818c7ba20d36174c50e1257e0d54ea2cab110e4ba6d2664736f6c634300080e0033608060405262000f07803803806200001781620000d6565b9283398101606082820312620000ba5762000032826200010b565b9162000041602082016200010b565b604082015190916001600160401b038211620000ba57019282601f85011215620000ba578351936200007d620000778662000120565b620000d6565b9385855260208683010111620000ba57620000aa94620000a491602080870191016200014e565b62000186565b604051610a2f9081620004d88239f35b600080fd5b50634e487b7160e01b600052604160045260246000fd5b6040519190601f01601f191682016001600160401b03811183821017620000fc57604052565b62000106620000bf565b604052565b51906001600160a01b0382168203620000ba57565b6020906001600160401b0381116200013e575b601f01601f19160190565b62000148620000bf565b62000133565b918091926000905b8282106200017057501162000169575050565b6000910152565b9150806020918301518186015201829162000156565b91823b1562000240577f360894a13ba1a3210667c828492db98dca3e2076cc3735a920a3ca505d382bbc80546001600160a01b0319166001600160a01b038516908117909155604051620002169491907fbc7cd75a20ee27fd9adebab32041f755214dbc6bffa90cc0225b39da2e5c2d3b90600090a281511580159062000237575b62000218575b50506200029b565b565b6200022e916200022762000369565b91620003d4565b5038806200020e565b50600062000208565b60405162461bcd60e51b815260206004820152602d60248201527f455243313936373a206e657720696d706c656d656e746174696f6e206973206e60448201526c1bdd08184818dbdb9d1c9858dd609a1b6064820152608490fd5b7fb53127684a568b3173ae13b9f8a6016e243e63b6e8ee1178d6a717850b5d61038054604080516001600160a01b0380841682529094166020850181905292937f7e644d79422f17c01e4894b5f4f588d331ebfa28653d42ae832dc59e38c9798f9190a1811562000315576001600160a01b031916179055565b60405162461bcd60e51b815260206004820152602660248201527f455243313936373a206e65772061646d696e20697320746865207a65726f206160448201526564647265737360d01b6064820152608490fd5b60405190606082016001600160401b03811183821017620003c4575b60405260278252660819985a5b195960ca1b6040837f416464726573733a206c6f772d6c6576656c2064656c65676174652063616c6c60208201520152565b620003ce620000bf565b62000385565b9190823b156200042557600081620004199460208394519201905af43d156200041c573d9062000408620000778362000120565b9182523d6000602084013e62000479565b90565b60609062000479565b60405162461bcd60e51b815260206004820152602660248201527f416464726573733a2064656c65676174652063616c6c20746f206e6f6e2d636f6044820152651b9d1c9858dd60d21b6064820152608490fd5b9091901562000486575090565b815115620004975750805190602001fd5b6044604051809262461bcd60e51b825260206004830152620004c981518092816024860152602086860191016200014e565b601f01601f19168101030190fdfe6080604052600436101561002c575b361561001f575b61001d610449565b005b610027610449565b610015565b6000803560e01c9081633659cfe614610093575080634f1ef2861461008a5780635c60da1b146100815780638f283970146100785763f851a4400361000e576100736103df565b61000e565b50610073610298565b50610073610201565b5061007361013b565b34610110576020600319360112610110576100ac610113565b73ffffffffffffffffffffffffffffffffffffffff7fb53127684a568b3173ae13b9f8a6016e243e63b6e8ee1178d6a717850b5d61035416331460001461010757610102906100f96105a5565b90838252610623565b604051f35b50610102610449565b80fd5b6004359073ffffffffffffffffffffffffffffffffffffffff8216820361013657565b600080fd5b50604060031936011261013657610150610113565b60243567ffffffffffffffff9182821161013657366023830112156101365781600401359283116101365736602484840101116101365773ffffffffffffffffffffffffffffffffffffffff7fb53127684a568b3173ae13b9f8a6016e243e63b6e8ee1178d6a717850b5d6103541633146000146101f65760006020848060246101e46101df61001d996105f8565b6105d2565b96828852018387013784010152610765565b50505061001d610449565b5034610136576000600319360112610136576020600073ffffffffffffffffffffffffffffffffffffffff90817fb53127684a568b3173ae13b9f8a6016e243e63b6e8ee1178d6a717850b5d61035416331460001461028a5750807f360894a13ba1a3210667c828492db98dca3e2076cc3735a920a3ca505d382bbc5416905b60405191168152f35b90610293610449565b610281565b5034610136576020600319360112610136576102b2610113565b73ffffffffffffffffffffffffffffffffffffffff907fb53127684a568b3173ae13b9f8a6016e243e63b6e8ee1178d6a717850b5d6103918083541633146000146101f6577f7e644d79422f17c01e4894b5f4f588d331ebfa28653d42ae832dc59e38c9798f604084549281519481851686521693846020820152a1811561035b577fffffffffffffffffffffffff000000000000000000000000000000000000000016179055005b60846040517f08c379a000000000000000000000000000000000000000000000000000000000815260206004820152602660248201527f455243313936373a206e65772061646d696e20697320746865207a65726f206160448201527f64647265737300000000000000000000000000000000000000000000000000006064820152fd5b5034610136576000600319360112610136576020600073ffffffffffffffffffffffffffffffffffffffff7fb53127684a568b3173ae13b9f8a6016e243e63b6e8ee1178d6a717850b5d61038181541633146000146104445754604051911681529050f35b506102935b5073ffffffffffffffffffffffffffffffffffffffff807fb53127684a568b3173ae13b9f8a6016e243e63b6e8ee1178d6a717850b5d6103541633146104cb577f360894a13ba1a3210667c828492db98dca3e2076cc3735a920a3ca505d382bbc54166000808092368280378136915af43d82803e156104c7573d90f35b3d90fd5b60a46040517f08c379a000000000000000000000000000000000000000000000000000000000815260206004820152604260248201527f5472616e73706172656e745570677261646561626c6550726f78793a2061646d60448201527f696e2063616e6e6f742066616c6c6261636b20746f2070726f7879207461726760648201527f65740000000000000000000000000000000000000000000000000000000000006084820152fd5b507f4e487b7100000000000000000000000000000000000000000000000000000000600052604160045260246000fd5b604051906020820182811067ffffffffffffffff8211176105c557604052565b6105cd610575565b604052565b90601f19601f604051930116820182811067ffffffffffffffff8211176105c557604052565b601f19601f60209267ffffffffffffffff8111610616575b01160190565b61061e610575565b610610565b803b156106e15773ffffffffffffffffffffffffffffffffffffffff81167f360894a13ba1a3210667c828492db98dca3e2076cc3735a920a3ca505d382bbc817fffffffffffffffffffffffff00000000000000000000000000000000000000008254161790557fbc7cd75a20ee27fd9adebab32041f755214dbc6bffa90cc0225b39da2e5c2d3b6000604051a28151158015906106d9575b6106c4575050565b6106d6916106d061080d565b9161088b565b50565b5060006106bc565b60846040517f08c379a000000000000000000000000000000000000000000000000000000000815260206004820152602d60248201527f455243313936373a206e657720696d706c656d656e746174696f6e206973206e60448201527f6f74206120636f6e7472616374000000000000000000000000000000000000006064820152fd5b803b156106e15773ffffffffffffffffffffffffffffffffffffffff81167f360894a13ba1a3210667c828492db98dca3e2076cc3735a920a3ca505d382bbc817fffffffffffffffffffffffff00000000000000000000000000000000000000008254161790557fbc7cd75a20ee27fd9adebab32041f755214dbc6bffa90cc0225b39da2e5c2d3b6000604051a2815115801590610805576106c4575050565b5060016106bc565b604051906060820182811067ffffffffffffffff82111761087e575b604052602782527f206661696c6564000000000000000000000000000000000000000000000000006040837f416464726573733a206c6f772d6c6576656c2064656c65676174652063616c6c60208201520152565b610886610575565b610829565b9190823b156108d4576000816108c99460208394519201905af43d156108cc573d906108b96101df836105f8565b9182523d6000602084013e610958565b90565b606090610958565b60846040517f08c379a000000000000000000000000000000000000000000000000000000000815260206004820152602660248201527f416464726573733a2064656c65676174652063616c6c20746f206e6f6e2d636f60448201527f6e747261637400000000000000000000000000000000000000000000000000006064820152fd5b90919015610964575090565b8151156109745750805190602001fd5b604051907f08c379a00000000000000000000000000000000000000000000000000000000082528160208060048301528251928360248401526000915b8483106109e0575050601f83604494601f1993116109d3575b01168101030190fd5b60008582860101526109ca565b81830181015186840160440152859350918201916109b156fea2646970667358221220414cf83a82ae5a3601e818c7ba20d36174c50e1257e0d54ea2cab110e4ba6d2664736f6c634300080e003360a060405234620001c3576200173380380390816200001e816200020e565b9283928339602092839181010312620001c357519060ff82168203620001c3576200004862000234565b907f52616765205472616465205669727475616c2051756f746520546f6b656e0000818301526200007862000245565b657651756f746560d01b82820152825190916001600160401b038211620001b3575b620000b282620000ac60035462000256565b62000293565b80601f83116001146200011e57508190620000eb9460009262000112575b50508160011b916000199060031b1c19161760035562000345565b620000f63362000449565b60805260405161129b90816200049882396080518161050a0152f35b015190503880620000d0565b60036000529293919291601f1984167fc2575a0e9e593c00f959f8c92f12db2869c3395a3b0502d05e2516446f71f85b936000905b8282106200019a575050916001939185620000eb9796941062000180575b505050811b0160035562000345565b015160001960f88460031b161c1916905538808062000171565b8060018697829497870151815501960194019062000153565b620001bd620001c8565b6200009a565b600080fd5b50634e487b7160e01b600052604160045260246000fd5b60408051919082016001600160401b03811183821017620001ff57604052565b62000209620001c8565b604052565b6040519190601f01601f191682016001600160401b03811183821017620001ff57604052565b6200023e620001df565b90601e8252565b6200024f620001df565b9060068252565b90600182811c9216801562000288575b60208310146200027257565b634e487b7160e01b600052602260045260246000fd5b91607f169162000266565b601f8111620002a0575050565b6000906003825260208220906020601f850160051c83019410620002e1575b601f0160051c01915b828110620002d557505050565b818155600101620002c8565b9092508290620002bf565b601f8111620002f9575050565b6000906004825260208220906020601f850160051c830194106200033a575b601f0160051c01915b8281106200032e57505050565b81815560010162000321565b909250829062000318565b80519091906001600160401b03811162000439575b62000372816200036c60045462000256565b620002ec565b602080601f8311600114620003b15750819293600092620003a5575b50508160011b916000199060031b1c191617600455565b0151905038806200038e565b6004600052601f198316949091907f8a35acfbc15ff81a39ae7d344fd709f28e8600b4aa8c65c6b64bfe7fe36bd19b926000905b8782106200042057505083600195961062000406575b505050811b01600455565b015160001960f88460031b161c19169055388080620003fb565b80600185968294968601518155019501930190620003e5565b62000443620001c8565b6200035a565b600580546001600160a01b039283166001600160a01b031982168117909255604051919216907f8be0079c531659141344cd1fd0a4f28419497f9722a3daafe3b4186f6b6457e090600090a356fe60806040526004361015610013575b600080fd5b60003560e01c806306fdde031461017b578063095ea7b31461017257806318160ddd1461016957806323b872dd146101605780632520e7ff14610157578063313ce5671461014e578063395093511461014557806340c10f191461013c57806342966c681461013357806370a082311461012a578063715018a6146101215780638da5cb5b1461011857806395d89b411461010f578063a457c2d714610106578063a9059cbb146100fd578063b6a5d7de146100f4578063dd62ed3e146100eb5763f2fde38b146100e357600080fd5b61000e610b2c565b5061000e610ace565b5061000e610a62565b5061000e610a3b565b5061000e610974565b5061000e6108b0565b5061000e610888565b5061000e61080c565b5061000e6107d1565b5061000e6106b7565b5061000e610588565b5061000e61052e565b5061000e6104ef565b5061000e6104af565b5061000e6103b6565b5061000e610397565b5061000e610365565b5061000e6101fa565b919091602080825283519081818401526000945b8286106101e4575050601f817fffffffffffffffffffffffffffffffffffffffffffffffffffffffffffffffe09260409596116101d7575b0116010190565b60008582860101526101d0565b8581018201518487016040015294810194610198565b503461000e576000806003193601126103365760405190806003549060019180831c9280821692831561032c575b60209283861085146102ff5785885260208801949081156102c5575060011461026c575b6102688761025c81890382610c86565b60405191829182610184565b0390f35b600360005294509192917fc2575a0e9e593c00f959f8c92f12db2869c3395a3b0502d05e2516446f71f85b5b8386106102b4575050509101905061025c82610268388061024c565b805485870152948201948101610298565b7fffffffffffffffffffffffffffffffffffffffffffffffffffffffffffffff0016855250505001915061025c905082610268388061024c565b6024827f4e487b710000000000000000000000000000000000000000000000000000000081526022600452fd5b93607f1693610228565b80fd5b600435906001600160a01b038216820361000e57565b602435906001600160a01b038216820361000e57565b503461000e57604060031936011261000e5761038c610382610339565b6024359033610f65565b602060405160018152f35b503461000e57600060031936011261000e576020600254604051908152f35b503461000e57606060031936011261000e576103d0610339565b6103d861034f565b604435906001600160a01b038316600052600160205261040f336040600020906001600160a01b0316600052602052604060002090565b54927fffffffffffffffffffffffffffffffffffffffffffffffffffffffffffffffff840361044f575b6104439350610e20565b60405160018152602090f35b82841061046b576104668361044395033383610f65565b610439565b606460405162461bcd60e51b815260206004820152601d60248201527f45524332303a20696e73756666696369656e7420616c6c6f77616e63650000006044820152fd5b503461000e57602060031936011261000e576001600160a01b036104d1610339565b166000526006602052602060ff604060002054166040519015158152f35b503461000e57600060031936011261000e57602060405160ff7f0000000000000000000000000000000000000000000000000000000000000000168152f35b503461000e57604060031936011261000e5761038c61054b610339565b33600052600160205261058160243561057b836040600020906001600160a01b0316600052602052604060002090565b54610d26565b9033610f65565b503461000e5760408060031936011261000e576105a3610339565b906024359133600052600660205260ff8260002054161561068e576001600160a01b03811690811561064b577fddf252ad1be2c89b69c2b068fc378daa952ba7f163c4a11628f55a4df523b3ef610645856106296000979461061061060b8a97600254610d26565b600255565b6001600160a01b03166000526000602052604060002090565b610634828254610d26565b905585519081529081906020820190565b0390a351f35b6064835162461bcd60e51b815260206004820152601f60248201527f45524332303a206d696e7420746f20746865207a65726f2061646472657373006044820152fd5b600482517fd7a2ae6a000000000000000000000000000000000000000000000000000000008152fd5b503461000e57602060031936011261000e576004353315610767576000906106de336110c4565b806106fc336001600160a01b03166000526000602052604060002090565b54610709828210156111dd565b03610727336001600160a01b03166000526000602052604060002090565b5561073761060b8260025461124e565b60405190815233907fddf252ad1be2c89b69c2b068fc378daa952ba7f163c4a11628f55a4df523b3ef90602090a3005b608460405162461bcd60e51b815260206004820152602160248201527f45524332303a206275726e2066726f6d20746865207a65726f2061646472657360448201527f73000000000000000000000000000000000000000000000000000000000000006064820152fd5b503461000e57602060031936011261000e576001600160a01b036107f3610339565b1660005260006020526020604060002054604051908152f35b503461000e57600080600319360112610336576005547fffffffffffffffffffffffff00000000000000000000000000000000000000006001600160a01b03821691610859338414610bd9565b1660055581604051917f8be0079c531659141344cd1fd0a4f28419497f9722a3daafe3b4186f6b6457e08284a3f35b503461000e57600060031936011261000e5760206001600160a01b0360055416604051908152f35b503461000e576000806003193601126103365760405190806004549060019180831c9280821692831561096a575b60209283861085146102ff5785885260208801949081156102c55750600114610911576102688761025c81890382610c86565b600460005294509192917f8a35acfbc15ff81a39ae7d344fd709f28e8600b4aa8c65c6b64bfe7fe36bd19b5b838610610959575050509101905061025c82610268388061024c565b80548587015294820194810161093d565b93607f16936108de565b503461000e57604060031936011261000e5761098e610339565b602435903360005260016020526109bc816040600020906001600160a01b0316600052602052604060002090565b54918083106109d15761044392039033610f65565b608460405162461bcd60e51b815260206004820152602560248201527f45524332303a2064656372656173656420616c6c6f77616e63652062656c6f7760448201527f207a65726f0000000000000000000000000000000000000000000000000000006064820152fd5b503461000e57604060031936011261000e5761038c610a58610339565b6024359033610e20565b503461000e57602060031936011261000e57610a7c610339565b6001600160a01b0390610a9482600554163314610bd9565b16600090815260066020526040902080547fffffffffffffffffffffffffffffffffffffffffffffffffffffffffffffff00166001179055005b503461000e57604060031936011261000e576020610b23610aed610339565b6001600160a01b03610afd61034f565b9116600052600183526040600020906001600160a01b0316600052602052604060002090565b54604051908152f35b503461000e57602060031936011261000e57610b46610339565b6001600160a01b03610b5d81600554163314610bd9565b811615610b6f57610b6d90610c24565b005b608460405162461bcd60e51b815260206004820152602660248201527f4f776e61626c653a206e6577206f776e657220697320746865207a65726f206160448201527f64647265737300000000000000000000000000000000000000000000000000006064820152fd5b15610be057565b606460405162461bcd60e51b815260206004820152602060248201527f4f776e61626c653a2063616c6c6572206973206e6f7420746865206f776e65726044820152fd5b600554906001600160a01b0380911691827fffffffffffffffffffffffff0000000000000000000000000000000000000000821617600555167f8be0079c531659141344cd1fd0a4f28419497f9722a3daafe3b4186f6b6457e06000604051a3565b90601f7fffffffffffffffffffffffffffffffffffffffffffffffffffffffffffffffe0910116810190811067ffffffffffffffff821117610cc757604052565b7f4e487b7100000000000000000000000000000000000000000000000000000000600052604160045260246000fd5b507f4e487b7100000000000000000000000000000000000000000000000000000000600052601160045260246000fd5b81198111610d32570190565b610d3a610cf6565b0190565b15610d4557565b608460405162461bcd60e51b815260206004820152602360248201527f45524332303a207472616e7366657220746f20746865207a65726f206164647260448201527f65737300000000000000000000000000000000000000000000000000000000006064820152fd5b15610db657565b608460405162461bcd60e51b815260206004820152602660248201527f45524332303a207472616e7366657220616d6f756e742065786365656473206260448201527f616c616e636500000000000000000000000000000000000000000000000000006064820152fd5b91906001600160a01b0390818416928315610efb57610ed9827fddf252ad1be2c89b69c2b068fc378daa952ba7f163c4a11628f55a4df523b3ef94610ef6941696610e6c881515610d3e565b610e76828261116d565b610ebf84610e97836001600160a01b03166000526000602052604060002090565b54610ea482821015610daf565b03916001600160a01b03166000526000602052604060002090565b556001600160a01b03166000526000602052604060002090565b610ee4828254610d26565b90556040519081529081906020820190565b0390a3565b608460405162461bcd60e51b815260206004820152602560248201527f45524332303a207472616e736665722066726f6d20746865207a65726f20616460448201527f64726573730000000000000000000000000000000000000000000000000000006064820152fd5b906001600160a01b039182811692831561105b578216938415610ff15780610fe07f8c5be1e5ebec7d5bd14f71427d1e84f3dd0314c0f7b2291e5b200ac8c7c3b92594610fc8610ef6956001600160a01b03166000526001602052604060002090565b906001600160a01b0316600052602052604060002090565b556040519081529081906020820190565b608460405162461bcd60e51b815260206004820152602260248201527f45524332303a20617070726f766520746f20746865207a65726f20616464726560448201527f73730000000000000000000000000000000000000000000000000000000000006064820152fd5b608460405162461bcd60e51b8152602060048201526024808201527f45524332303a20617070726f76652066726f6d20746865207a65726f2061646460448201527f72657373000000000000000000000000000000000000000000000000000000006064820152fd5b6001600160a01b03168015908115611164575b811561114b575b508015611117575b156110ed57565b60046040517fd7a2ae6a000000000000000000000000000000000000000000000000000000008152fd5b506000805260066020527f54cdd369e4e8a8515e52ca72ec816c2101831ad1f18bf44102ed171459c9b4f85460ff166110e6565b9050600052600660205260ff60406000205416386110de565b600191506110d7565b6001600160a01b038091169182159283156111d2575b83156111b7575b50821561119b575b5050156110ed57565b90915016600052600660205260ff604060002054163880611192565b909250600052600660205260ff60406000205416913861118a565b818316159350611183565b156111e457565b608460405162461bcd60e51b815260206004820152602260248201527f45524332303a206275726e20616d6f756e7420657863656564732062616c616e60448201527f63650000000000000000000000000000000000000000000000000000000000006064820152fd5b818110611259570390565b611261610cf6565b039056fea264697066735822122075cea8063eb2cdccaf4fe92dccabf3313b6f2da4f46717509ff66c3c34a9a4b364736f6c634300080e0033",
  "devdoc": {
    "kind": "dev",
    "methods": {
      "constructor": {
        "details": "Need to deploy logic contracts for ClearingHouse, VPoolWrapper, InsuranceFund prior to this"
      },
      "initializePool(((string,string,uint8),(uint16,uint16,uint16,uint32,bool,bool,address),uint24,uint24,uint16))": {
        "details": "An already deployed oracle contract address (implementing IOracle) is needed prior to using this",
        "params": {
          "initializePoolParams": "parameters for initializing the pool"
        }
      },
      "initiateGovernanceTransfer(address)": {
        "params": {
          "newGovernancePending": "the new governance address"
        }
      },
      "initiateTeamMultisigTransfer(address)": {
        "params": {
          "newTeamMultisigPending": "the new team multisig address"
        }
      },
      "setVPoolWrapperLogicAddress(address)": {
        "details": "When a new vPoolWrapperLogic is deployed, make sure that the initialize method is called.",
        "params": {
          "_vPoolWrapperLogicAddress": ": new logic address"
        }
      }
    },
    "version": 1
  },
  "userdoc": {
    "kind": "user",
    "methods": {
      "acceptGovernanceTransfer()": {
        "notice": "Completes governance transfer, on being called by _governancePending."
      },
      "acceptTeamMultisigTransfer()": {
        "notice": "Completes teamMultisig transfer, on being called by _teamMultisigPending."
      },
      "constructor": {
        "notice": "Sets up the protocol by deploying necessary core contracts"
      },
      "governance()": {
        "notice": "Returns the address of the current governance."
      },
      "governancePending()": {
        "notice": "Returns the address of the current governance."
      },
      "initializePool(((string,string,uint8),(uint16,uint16,uint16,uint32,bool,bool,address),uint24,uint24,uint16))": {
        "notice": "Sets up a new Rage Trade Pool by deploying necessary contracts"
      },
      "initiateGovernanceTransfer(address)": {
        "notice": "Initiates governance transfer to a new account (`newGovernancePending`)."
      },
      "initiateTeamMultisigTransfer(address)": {
        "notice": "Initiates teamMultisig transfer to a new account (`newTeamMultisigPending`)."
      },
      "setVPoolWrapperLogicAddress(address)": {
        "notice": "Admin method to set latest implementation logic for VPoolWrapper"
      },
      "teamMultisig()": {
        "notice": "Returns the address of the current team multisig.transferTeamMultisig"
      },
      "teamMultisigPending()": {
        "notice": "Returns the address of the current team multisig.transferTeamMultisig"
      }
    },
    "version": 1
  },
  "storageLayout": {
    "storage": [
      {
        "astId": 93,
        "contract": "contracts/protocol/RageTradeFactory.sol:RageTradeFactory",
        "label": "_initialized",
        "offset": 0,
        "slot": "0",
        "type": "t_bool"
      },
      {
        "astId": 96,
        "contract": "contracts/protocol/RageTradeFactory.sol:RageTradeFactory",
        "label": "_initializing",
        "offset": 1,
        "slot": "0",
        "type": "t_bool"
      },
      {
        "astId": 1271,
        "contract": "contracts/protocol/RageTradeFactory.sol:RageTradeFactory",
        "label": "__gap",
        "offset": 0,
        "slot": "1",
        "type": "t_array(t_uint256)50_storage"
      },
      {
        "astId": 35272,
        "contract": "contracts/protocol/RageTradeFactory.sol:RageTradeFactory",
        "label": "_governance",
        "offset": 0,
        "slot": "51",
        "type": "t_address"
      },
      {
        "astId": 35274,
        "contract": "contracts/protocol/RageTradeFactory.sol:RageTradeFactory",
        "label": "_teamMultisig",
        "offset": 0,
        "slot": "52",
        "type": "t_address"
      },
      {
        "astId": 35276,
        "contract": "contracts/protocol/RageTradeFactory.sol:RageTradeFactory",
        "label": "_governancePending",
        "offset": 0,
        "slot": "53",
        "type": "t_address"
      },
      {
        "astId": 35278,
        "contract": "contracts/protocol/RageTradeFactory.sol:RageTradeFactory",
        "label": "_teamMultisigPending",
        "offset": 0,
        "slot": "54",
        "type": "t_address"
      },
      {
        "astId": 35627,
        "contract": "contracts/protocol/RageTradeFactory.sol:RageTradeFactory",
        "label": "proxyAdmin",
        "offset": 0,
        "slot": "55",
        "type": "t_contract(ProxyAdmin)3267"
      },
      {
        "astId": 29034,
        "contract": "contracts/protocol/RageTradeFactory.sol:RageTradeFactory",
        "label": "vPoolWrapperLogicAddress",
        "offset": 0,
        "slot": "56",
        "type": "t_address"
      }
    ],
    "types": {
      "t_address": {
        "encoding": "inplace",
        "label": "address",
        "numberOfBytes": "20"
      },
      "t_array(t_uint256)50_storage": {
        "base": "t_uint256",
        "encoding": "inplace",
        "label": "uint256[50]",
        "numberOfBytes": "1600"
      },
      "t_bool": {
        "encoding": "inplace",
        "label": "bool",
        "numberOfBytes": "1"
      },
      "t_contract(ProxyAdmin)3267": {
        "encoding": "inplace",
        "label": "contract ProxyAdmin",
        "numberOfBytes": "20"
      },
      "t_uint256": {
        "encoding": "inplace",
        "label": "uint256",
        "numberOfBytes": "32"
      }
    }
  }
}