{
  "address": "0x903e19e6292d81c0053C3276138bAE3e02894c36",
  "abi": [
    {
      "inputs": [
        {
          "internalType": "uint160",
          "name": "sqrtPriceLimitX96",
          "type": "uint160"
        }
      ],
      "name": "InvalidSqrtPriceLimit",
      "type": "error"
    },
    {
      "inputs": [],
      "name": "R",
      "type": "error"
    },
    {
      "inputs": [],
      "name": "T",
      "type": "error"
    },
    {
      "inputs": [],
      "name": "ZeroAmount",
      "type": "error"
    },
    {
      "inputs": [
        {
          "internalType": "contract IClearingHouse",
          "name": "clearingHouse",
          "type": "address"
        },
        {
          "internalType": "uint32",
          "name": "poolId",
          "type": "uint32"
        },
        {
          "internalType": "int256",
          "name": "amount",
          "type": "int256"
        },
        {
          "internalType": "uint160",
          "name": "sqrtPriceLimitX96",
          "type": "uint160"
        },
        {
          "internalType": "bool",
          "name": "isNotional",
          "type": "bool"
        }
      ],
      "name": "simulateSwap",
      "outputs": [
        {
          "components": [
            {
              "internalType": "int256",
              "name": "amountSpecified",
              "type": "int256"
            },
            {
              "internalType": "int256",
              "name": "vTokenIn",
              "type": "int256"
            },
            {
              "internalType": "int256",
              "name": "vQuoteIn",
              "type": "int256"
            },
            {
              "internalType": "uint256",
              "name": "liquidityFees",
              "type": "uint256"
            },
            {
              "internalType": "uint256",
              "name": "protocolFees",
              "type": "uint256"
            },
            {
              "internalType": "uint160",
              "name": "sqrtPriceX96Start",
              "type": "uint160"
            },
            {
              "internalType": "uint160",
              "name": "sqrtPriceX96End",
              "type": "uint160"
            }
          ],
          "internalType": "struct IVPoolWrapper.SwapResult",
          "name": "swapResult",
          "type": "tuple"
        },
        {
          "components": [
            {
              "internalType": "uint160",
              "name": "sqrtPriceX96Start",
              "type": "uint160"
            },
            {
              "internalType": "int24",
              "name": "tickStart",
              "type": "int24"
            },
            {
              "internalType": "uint8",
              "name": "feeProtocol",
              "type": "uint8"
            },
            {
              "internalType": "uint128",
              "name": "liquidityStart",
              "type": "uint128"
            },
            {
              "internalType": "int24",
              "name": "tickSpacing",
              "type": "int24"
            },
            {
              "internalType": "uint24",
              "name": "fee",
              "type": "uint24"
            },
            {
              "internalType": "uint256",
              "name": "value1",
              "type": "uint256"
            },
            {
              "internalType": "uint256",
              "name": "value2",
              "type": "uint256"
            }
          ],
          "internalType": "struct SimulateSwap.Cache",
          "name": "cache",
          "type": "tuple"
        },
        {
          "components": [
            {
              "components": [
                {
                  "internalType": "uint160",
                  "name": "sqrtPriceStartX96",
                  "type": "uint160"
                },
                {
                  "internalType": "int24",
                  "name": "tickNext",
                  "type": "int24"
                },
                {
                  "internalType": "bool",
                  "name": "initialized",
                  "type": "bool"
                },
                {
                  "internalType": "uint160",
                  "name": "sqrtPriceNextX96",
                  "type": "uint160"
                },
                {
                  "internalType": "uint256",
                  "name": "amountIn",
                  "type": "uint256"
                },
                {
                  "internalType": "uint256",
                  "name": "amountOut",
                  "type": "uint256"
                },
                {
                  "internalType": "uint256",
                  "name": "feeAmount",
                  "type": "uint256"
                }
              ],
              "internalType": "struct SimulateSwap.Step",
              "name": "step",
              "type": "tuple"
            },
            {
              "components": [
                {
                  "internalType": "int256",
                  "name": "amountSpecifiedRemaining",
                  "type": "int256"
                },
                {
                  "internalType": "int256",
                  "name": "amountCalculated",
                  "type": "int256"
                },
                {
                  "internalType": "uint160",
                  "name": "sqrtPriceX96",
                  "type": "uint160"
                },
                {
                  "internalType": "int24",
                  "name": "tick",
                  "type": "int24"
                },
                {
                  "internalType": "uint256",
                  "name": "feeGrowthGlobalIncreaseX128",
                  "type": "uint256"
                },
                {
                  "internalType": "uint128",
                  "name": "protocolFee",
                  "type": "uint128"
                },
                {
                  "internalType": "uint128",
                  "name": "liquidity",
                  "type": "uint128"
                }
              ],
              "internalType": "struct SimulateSwap.State",
              "name": "state",
              "type": "tuple"
            }
          ],
          "internalType": "struct SwapSimulator.SwapStepAndState[]",
          "name": "steps",
          "type": "tuple[]"
        }
      ],
      "stateMutability": "nonpayable",
      "type": "function"
    }
  ],
  "transactionHash": "0x8ef0d4a000a9a7fb67ee5c1d98da2509d654097cd8ddd00a1af3be53ea961560",
  "args": [],
  "numDeployments": 1,
  "solcInputHash": "5255782a5c309683447bc8877c20bc93",
  "bytecode": "0x608060405234801561001057600080fd5b50612fc4806100206000396000f3fe608060405234801561001057600080fd5b506004361061002b5760003560e01c8063fbdeddde14610030575b600080fd5b61004361003e366004612520565b61005b565b60405161005293929190612680565b60405180910390f35b6100636123bc565b61006b61240b565b604051635b3876a960e11b815263ffffffff871660048201526060906000906001600160a01b038a169063b670ed529060240161014060405180830381865afa1580156100bc573d6000803e3d6000fd5b505050506040513d601f19601f820116820180604052508101906100e091906127e0565b90506101d8816020015182604001516001600160a01b03166386c8e9a76040518163ffffffff1660e01b8152600401602060405180830381865afa15801561012c573d6000803e3d6000fd5b505050506040513d601f19601f8201168201806040525081019061015091906128d8565b83604001516001600160a01b031663fca6fbf26040518163ffffffff1660e01b8152600401602060405180830381865afa158015610192573d6000803e3d6000fd5b505050506040513d601f19601f820116820180604052508101906101b691906128d8565b60008b12896101cd576101c88c612913565b6101cf565b8b5b8b61037a6105d1565b60008054604080516020808402820181019092528281529498509296509091829084015b828210156103145760008481526020908190206040805161012081018252600a860290920180546001600160a01b03808216858501908152600160a01b808404600290810b6060808a0191909152600160b81b90950460ff1615156080808a0191909152600180880154861660a0808c01919091528389015460c0808d019190915260038a015460e0808e019190915260048b01546101008e0152968c528a519687018b5260058a0154875260068a0154878e015260078a01549788169a87019a909a529390950490910b948301949094526008850154938201939093526009909301546001600160801b0380821693850193909352600160801b9004909116928201929092528284015290835290920191016101fc565b505085516001600160a01b031660a088015250508051909250829061033b9060019061292f565b8151811061034b5761034b612946565b6020908102919091018101510151604001516001600160a01b031660c085015250919790965090945092505050565b60408051808201825291825260208083019384526000805460018101825590805292518051600a9094027f290decd9548b62a8d60345a988386fc84ba6bc95484008f6362f93160ef3e5638101805483850151848701511515600160b81b0260ff60b81b1962ffffff928316600160a01b9081026001600160b81b03199586166001600160a01b039c8d16171791909116919091179093556060808601517f290decd9548b62a8d60345a988386fc84ba6bc95484008f6362f93160ef3e56486018054918b166001600160a01b0319929092169190911790556080808701517f290decd9548b62a8d60345a988386fc84ba6bc95484008f6362f93160ef3e56587015560a0808801517f290decd9548b62a8d60345a988386fc84ba6bc95484008f6362f93160ef3e56688015560c0978801517f290decd9548b62a8d60345a988386fc84ba6bc95484008f6362f93160ef3e5678801559a5180517f290decd9548b62a8d60345a988386fc84ba6bc95484008f6362f93160ef3e568880155978801517f290decd9548b62a8d60345a988386fc84ba6bc95484008f6362f93160ef3e569870155978701517f290decd9548b62a8d60345a988386fc84ba6bc95484008f6362f93160ef3e56a86018054928901519093169094029216929097169190911717909455918101517f290decd9548b62a8d60345a988386fc84ba6bc95484008f6362f93160ef3e56b840155928301519201516001600160801b03908116600160801b029216919091177f290decd9548b62a8d60345a988386fc84ba6bc95484008f6362f93160ef3e56c909101555050565b6105d96123bc565b6105e161240b565b6105ec60008061244f565b836001600160a01b0316600003610639578561062657610621600173fffd8963efd1fc6a506488495d951d5263988d2661295c565b610636565b6106366401000276a36001612984565b93505b84826000018181525050600080861215905060008a6001600160a01b031663ddca3f436040518163ffffffff1660e01b8152600401602060405180830381865afa15801561068b573d6000803e3d6000fd5b505050506040513d601f19601f820116820180604052508101906106af91906128d8565b90506106bf8289838d8d89610704565b6106d56001600160a01b038c16898989896107ab565b604088019290925250602086019190915292506106f68289838d8d8961080e565b505097509795505050505050565b851561076557841561072357805161071c908561091e565b81526107a3565b80516107329060028585610969565b60808301819052606083018290528251610758929091610751916129af565b6001610a94565b80825261071c908561091e565b84156107a357805161077a9060018585610969565b608083018190526060830182905282516107a0929091610799916129af565b6000610a94565b81525b505050505050565b6040805160e081018252600080825260208201819052918101829052606081018290526080810182905260a0810182905260c0810182905281906107ed61240b565b6107fb89898989858a610ad8565b919b909a50909850909650945050505050565b851561089857841561086b5761082881602001518561128f565b6020820152604081015161083f9060008585610969565b60808301819052606083018290526040830151610861929091610751916129af565b60408201526107a3565b61087981604001518561128f565b60408201819052608082015160608301516108619291610799916129af565b846108e1576108ab81604001518561128f565b604082018190526108bf9060008585610969565b60808301819052606083018290526040830151610861929091610799916129af565b6108ef81602001518561128f565b60208201526040810151608082015160608301516109119291610751916129af565b6040820152505050505050565b60008061092e83620f42406129c7565b60020b61094062ffffff8516866129e3565b61094a9190612a7e565b610955906001612aac565b90506109618185612aac565b949350505050565b6000806000610977876112b6565b9050600186600281111561098d5761098d612aed565b036109cd57836109a086620f42406129c7565b6109aa91906129c7565b62ffffff166109bc82620f4240612b03565b6109c69190612b22565b9050610a1d565b60028660028111156109e1576109e1612aed565b03610a1d57836109f486620f4240612b36565b6109fe9190612b36565b62ffffff16610a1082620f4240612b03565b610a1a9190612b22565b90505b6000620f4240610a2d8688612b36565b610a3c9062ffffff1684612b03565b610a469190612b22565b610a519060016129af565b9050620f4240610a6662ffffff881684612b03565b610a709190612b22565b610a7b9060016129af565b9350610a87848261292f565b9250505094509492505050565b600080826001811115610aa957610aa9612aed565b146000851303610ac457610abd8385612aac565b9050610ad1565b610ace8385612b54565b90505b9392505050565b6040805160e081018252600080825260208201819052918101829052606081018290526080810182905260a0810182905260c08101829052819086600003610b3357604051631f2a200560e01b815260040160405180910390fd5b84516001600160a01b0316600003610bc757886001600160a01b0316633850c7bd6040518163ffffffff1660e01b815260040160e060405180830381865afa158015610b83573d6000803e3d6000fd5b505050506040513d601f19601f82011682018060405250810190610ba79190612ba5565b5060ff1660408b015250505060020b60208701526001600160a01b031685525b84606001516001600160801b0316600003610c4d57886001600160a01b0316631a6865026040518163ffffffff1660e01b8152600401602060405180830381865afa158015610c1a573d6000803e3d6000fd5b505050506040513d601f19601f82011682018060405250810190610c3e9190612c51565b6001600160801b031660608601525b846080015160020b600003610d3a57886001600160a01b031663ddca3f436040518163ffffffff1660e01b8152600401602060405180830381865afa158015610c9a573d6000803e3d6000fd5b505050506040513d601f19601f82011682018060405250810190610cbe91906128d8565b62ffffff1660a0860152604080516334324e9f60e21b815290516001600160a01b038b169163d0c93a7c9160048083019260209291908290030181865afa158015610d0d573d6000803e3d6000fd5b505050506040513d601f19601f82011682018060405250810190610d319190612c6c565b60020b60808601525b87610d845784600001516001600160a01b0316866001600160a01b03161080610d7f575073fffd8963efd1fc6a506488495d951d5263988d266001600160a01b038716115b610db5565b84600001516001600160a01b0316866001600160a01b03161180610db557506401000276a36001600160a01b038716105b15610de2576040516328da8b5760e11b81526001600160a01b038716600482015260240160405180910390fd5b600080881390506040518060e001604052808981526020016000815260200187600001516001600160a01b03168152602001876020015160020b81526020016000815260200160006001600160801b0316815260200187606001516001600160801b031681525091505b815115801590610e725750866001600160a01b031682604001516001600160a01b031614155b15611249576040805160e081018252600080825260208201819052918101829052606081018290526080810182905260a0810182905260c081019190915260408301516001600160a01b03908116825260608401516080890151610edf928e1691635339c296918e6112d5565b1515604083015260020b60208201819052620d89e7191315610f0a57620d89e7196020820152610f3e565b610f17620d89e719612c87565b60020b816020015160020b1315610f3e57610f35620d89e719612c87565b60020b60208201525b610f4b8160200151611541565b6001600160a01b031660608201526040830151610fc0908b610f8557896001600160a01b031683606001516001600160a01b031611610f9f565b896001600160a01b031683606001516001600160a01b0316105b610fad578260600151610faf565b895b60c0860151865160a08c0151611864565b60c085015260a084015260808301526001600160a01b03166040840152811561103857610fff8160c001518260800151610ffa91906129af565b611a56565b8351849061100e908390612b54565b90525060a081015161101f90611a56565b836020015161102e9190612b54565b6020840152611083565b6110458160a00151611a56565b83518490611054908390612aac565b90525060c0810151608082015161106e91610ffa916129af565b836020015161107d9190612aac565b60208401525b60c08301516001600160801b0316156110cb576110b68160c00151600160801b8560c001516001600160801b0316611a68565b836080018181516110c791906129af565b9052505b6110db8a8885848a63ffffffff16565b80606001516001600160a01b031683604001516001600160a01b03160361120c578060400151156111df57602081015160405163f30dba9360e01b815260029190910b60048201526000906001600160a01b038d169063f30dba939060240161010060405180830381865afa158015611158573d6000803e3d6000fd5b505050506040513d601f19601f8201168201806040525081019061117c9190612ca9565b5050505050509150508a156111975761119481612d4f565b90505b600081600f0b126111b757808460c001516111b29190612d75565b6111cf565b6111c081612d4f565b8460c001516111cf9190612d97565b6001600160801b031660c0850152505b896111ee5780602001516111ff565b600181602001516111ff9190612db7565b60020b6060840152611243565b80600001516001600160a01b031683604001516001600160a01b0316146112435761123a8360400151611b1a565b60020b60608401525b50610e4c565b8015158915151461126a5760208201518251611265908a612b54565b61127c565b81516112769089612b54565b82602001515b909b909a50919850909650505050505050565b6000620f424061129f83826129c7565b6112ac9060020b856129e3565b610ad19190612a7e565b60008082136112cd576112c882612913565b6112cf565b815b92915050565b600080806112e38587612dff565b905060008660020b12801561130357506112fd8587612e39565b60020b15155b15611316578061131281612e5b565b9150505b831561141b5760008061132883611e20565b90925090506000600160ff831681901b90611343908261292f565b61134d91906129af565b90506000818c8c866040518263ffffffff1660e01b815260040161137a919060019190910b815260200190565b602060405180830381865afa158015611397573d6000803e3d6000fd5b505050506040513d601f19601f820116820180604052508101906113bb9190612e7e565b1680151596509050856113e557886113d660ff851687612db7565b6113e09190612e97565b611410565b886113ef82611e3d565b6113f99085612f24565b6114069060ff1687612db7565b6114109190612e97565b965050505050611536565b60008061143161142c846001612f47565b611e20565b90925090506000611449600160ff841681901b61292f565b1990506000818c8c866040518263ffffffff1660e01b8152600401611477919060019190910b815260200190565b602060405180830381865afa158015611494573d6000803e3d6000fd5b505050506040513d601f19601f820116820180604052508101906114b89190612e7e565b1680151596509050856114f857886114d18460ff612f24565b60ff166114df876001612f47565b6114e99190612f47565b6114f39190612e97565b61152f565b888361150383611ede565b61150d9190612f24565b60ff1661151b876001612f47565b6115259190612f47565b61152f9190612e97565b9650505050505b509550959350505050565b60008060008360020b12611558578260020b611560565b8260020b6000035b9050620d89e8811115611586576040516315e4079d60e11b815260040160405180910390fd5b60008160011660000361159d57600160801b6115af565b6ffffcb933bd6fad37aa2d162d1a5940015b70ffffffffffffffffffffffffffffffffff16905060028216156115e3576ffff97272373d413259a46990580e213a0260801c5b6004821615611602576ffff2e50f5f656932ef12357cf3c7fdcc0260801c5b6008821615611621576fffe5caca7e10e4e61c3624eaa0941cd00260801c5b6010821615611640576fffcb9843d60f6159c9db58835c9266440260801c5b602082161561165f576fff973b41fa98c081472e6896dfb254c00260801c5b604082161561167e576fff2ea16466c96a3843ec78b326b528610260801c5b608082161561169d576ffe5dee046a99a2a811c461f1969c30530260801c5b6101008216156116bd576ffcbe86c7900a88aedcffc83b479aa3a40260801c5b6102008216156116dd576ff987a7253ac413176f2b074cf7815e540260801c5b6104008216156116fd576ff3392b0822b70005940c7a398e4b70f30260801c5b61080082161561171d576fe7159475a2c29b7443b29c7fa6e889d90260801c5b61100082161561173d576fd097f3bdfd2022b8845ad8f792aa58250260801c5b61200082161561175d576fa9f746462d870fdf8a65dc1f90e061e50260801c5b61400082161561177d576f70d869a156d2a1b890bb3df62baf32f70260801c5b61800082161561179d576f31be135f97d08fd981231505542fcfa60260801c5b620100008216156117be576f09aa508b5b7a84e1c677de54f3e99bc90260801c5b620200008216156117de576e5d6af8dedb81196699c329225ee6040260801c5b620400008216156117fd576d2216e584f5fa1ea926041bedfe980260801c5b6208000082161561181a576b048a170391f7dc42444e8fa20260801c5b60008460020b131561183b57806000198161183757611837612a68565b0490505b64010000000081061561184f576001611852565b60005b60ff16602082901c0192505050919050565b60008080806001600160a01b03808916908a1610158187128015906118e957600061189d8989620f42400362ffffff16620f4240611a68565b9050826118b6576118b18c8c8c6001611fc8565b6118c3565b6118c38b8d8c6001612041565b95508581106118d4578a96506118e3565b6118e08c8b83866120f8565b96505b50611933565b81611900576118fb8b8b8b6000612041565b61190d565b61190d8a8c8b6000611fc8565b935083886000031061192157899550611933565b6119308b8a8a60000385612144565b95505b6001600160a01b038a8116908716148215611996578080156119525750815b61196857611963878d8c6001612041565b61196a565b855b9550808015611977575081155b61198d57611988878d8c6000611fc8565b61198f565b845b94506119e0565b8080156119a05750815b6119b6576119b18c888c6001611fc8565b6119b8565b855b95508080156119c5575081155b6119db576119d68c888c6000612041565b6119dd565b845b94505b811580156119f057508860000385115b156119fc578860000394505b818015611a1b57508a6001600160a01b0316876001600160a01b031614155b15611a2a578589039350611a47565b611a44868962ffffff168a620f42400362ffffff16612190565b93505b50505095509550955095915050565b6000600160ff1b82106112cd57600080fd5b6000808060001985870985870292508281108382030391505080600003611aa15760008411611a9657600080fd5b508290049050610ad1565b808411611aad57600080fd5b6000848688096000868103871696879004966002600389028118808a02820302808a02820302808a02820302808a02820302808a02820302808a02909103029181900381900460010186841190950394909402919094039290920491909117919091029150509392505050565b60006401000276a36001600160a01b03831610801590611b56575073fffd8963efd1fc6a506488495d951d5263988d266001600160a01b038316105b611b73576040516324c070df60e11b815260040160405180910390fd5b640100000000600160c01b03602083901b166001600160801b03811160071b81811c67ffffffffffffffff811160061b90811c63ffffffff811160051b90811c61ffff811160041b90811c60ff8111600390811b91821c600f811160021b90811c918211600190811b92831c97908811961790941790921717909117171760808110611c0757607f810383901c9150611c11565b80607f0383901b91505b908002607f81811c60ff83811c9190911c800280831c81831c1c800280841c81841c1c800280851c81851c1c800280861c81861c1c800280871c81871c1c800280881c81881c1c800280891c81891c1c8002808a1c818a1c1c8002808b1c818b1c1c8002808c1c818c1c1c8002808d1c818d1c1c8002808e1c9c81901c9c909c1c80029c8d901c9e9d607f198f0160401b60c09190911c678000000000000000161760c19b909b1c674000000000000000169a909a1760c29990991c672000000000000000169890981760c39790971c671000000000000000169690961760c49590951c670800000000000000169490941760c59390931c670400000000000000169290921760c69190911c670200000000000000161760c79190911c670100000000000000161760c89190911c6680000000000000161760c99190911c6640000000000000161760ca9190911c6620000000000000161760cb9190911c6610000000000000161760cc9190911c6608000000000000161760cd9190911c66040000000000001617693627a301d71055774c8581026f028f6481ab7f045a5af012a19d003aa9198101608090811d906fdb2df09e81959a81455e260799a0632f8301901d600281810b9083900b14611e1157886001600160a01b0316611df682611541565b6001600160a01b03161115611e0b5781611e13565b80611e13565b815b9998505050505050505050565b600281900b60081d6000611e3661010084612e39565b9050915091565b6000808211611e4b57600080fd5b600160801b8210611e5e57608091821c91015b680100000000000000008210611e7657604091821c91015b6401000000008210611e8a57602091821c91015b620100008210611e9c57601091821c91015b6101008210611ead57600891821c91015b60108210611ebd57600491821c91015b60048210611ecd57600291821c91015b60028210611ed9576001015b919050565b6000808211611eec57600080fd5b5060ff6001600160801b03821615611f0757607f1901611f0f565b608082901c91505b67ffffffffffffffff821615611f2857603f1901611f30565b604082901c91505b63ffffffff821615611f4557601f1901611f4d565b602082901c91505b61ffff821615611f6057600f1901611f68565b601082901c91505b60ff821615611f7a5760071901611f82565b600882901c91505b600f821615611f945760031901611f9c565b600482901c91505b6003821615611fae5760011901611fb6565b600282901c91505b6001821615611ed95760001901919050565b6000836001600160a01b0316856001600160a01b03161115611fe8579293925b8161201557612010836001600160801b03168686036001600160a01b0316600160601b611a68565b612038565b612038836001600160801b03168686036001600160a01b0316600160601b612190565b95945050505050565b6000836001600160a01b0316856001600160a01b03161115612061579293925b600160601b600160e01b03606084901b166001600160a01b03868603811690871661208b57600080fd5b836120c157866001600160a01b03166120ae8383896001600160a01b0316611a68565b816120bb576120bb612a68565b046120ed565b6120ed6120d88383896001600160a01b0316612190565b886001600160a01b0316808204910615150190565b979650505050505050565b600080856001600160a01b03161161210f57600080fd5b6000846001600160801b03161161212557600080fd5b816121375761201085858560016121d0565b61203885858560016122b6565b600080856001600160a01b03161161215b57600080fd5b6000846001600160801b03161161217157600080fd5b816121835761201085858560006122b6565b61203885858560006121d0565b600061219d848484611a68565b9050600082806121af576121af612a68565b8486091115610ad15760001981106121c657600080fd5b6001019392505050565b600081156122425760006001600160a01b038411156122065761220184600160601b876001600160801b0316611a68565b61221d565b61221d6001600160801b038616606086901b612b22565b905061223a612235826001600160a01b0389166129af565b6123a6565b915050610961565b60006001600160a01b038411156122705761226b84600160601b876001600160801b0316612190565b61228d565b61228d606085901b6001600160801b038716808204910615150190565b905080866001600160a01b0316116122a457600080fd5b6001600160a01b038616039050610961565b6000826000036122c7575083610961565b600160601b600160e01b03606085901b168215612359576001600160a01b038616848102908582816122fb576122fb612a68565b040361232b578181018281106123295761231f83896001600160a01b031683612190565b9350505050610961565b505b5061223a81856123446001600160a01b038a1683612b22565b61234e91906129af565b808204910615150190565b6001600160a01b0386168481029085828161237657612376612a68565b0414801561238357508082115b61238c57600080fd5b80820361231f612235846001600160a01b038b1684612190565b806001600160a01b0381168114611ed957600080fd5b6040518060e00160405280600081526020016000815260200160008152602001600081526020016000815260200160006001600160a01b0316815260200160006001600160a01b031681525090565b6040805161010081018252600080825260208201819052918101829052606081018290526080810182905260a0810182905260c0810182905260e081019190915290565b50805460008255600a02906000526020600020908101906124709190612473565b50565b5b808211156124e75780546001600160c01b03191681556001810180546001600160a01b0319169055600060028201819055600382018190556004820181905560058201819055600682018190556007820180546001600160b81b0319169055600882018190556009820155600a01612474565b5090565b6001600160a01b038116811461247057600080fd5b63ffffffff8116811461247057600080fd5b801515811461247057600080fd5b600080600080600060a0868803121561253857600080fd5b8535612543816124eb565b9450602086013561255381612500565b935060408601359250606086013561256a816124eb565b9150608086013561257a81612512565b809150509295509295909350565b600081518084526020808501945080840160005b83811015612675578151805180516001600160a01b039081168a528582015160020b868b01526040808301511515908b0152606080830151909116908a0152608080820151908a015260a080820151908a015260c0908101519089015283015161266060e089018280518252602080820151908301526040808201516001600160a01b03169083015260608082015160020b908301526080808201519083015260a0808201516001600160801b039081169184019190915260c09182015116910152565b506101c096909601959082019060010161259c565b509495945050505050565b6000610200855183526020860151602084015260408601516040840152606086015160608401526080860151608084015260a086015160018060a01b0380821660a08601528060c08901511660c08601528087511660e08601525050602085015160020b61010084015260ff6040860151166101208401526001600160801b03606086015116610140840152608085015161272161016085018260020b9052565b5060a085015162ffffff1661018084015260c08501516101a084015260e08501516101c08401526101e0830181905261275c81840185612588565b9695505050505050565b6040516080810167ffffffffffffffff8111828210171561279757634e487b7160e01b600052604160045260246000fd5b60405290565b60405160e0810167ffffffffffffffff8111828210171561279757634e487b7160e01b600052604160045260246000fd5b805161ffff81168114611ed957600080fd5b60008183036101408112156127f457600080fd5b6127fc612766565b8351612807816124eb565b81526020840151612817816124eb565b6020820152604084015161282a816124eb565b604082015260e0605f198301121561284157600080fd5b61284961279d565b9150612857606085016127ce565b8252612865608085016127ce565b602083015261287660a085016127ce565b604083015260c084015161288981612500565b606083015260e084015161289c81612512565b60808301526101008401516128b081612512565b60a08301526101208401516128c4816124eb565b60c083015260608101919091529392505050565b6000602082840312156128ea57600080fd5b815162ffffff81168114610ad157600080fd5b634e487b7160e01b600052601160045260246000fd5b6000600160ff1b8201612928576129286128fd565b5060000390565b600082821015612941576129416128fd565b500390565b634e487b7160e01b600052603260045260246000fd5b60006001600160a01b038381169083168181101561297c5761297c6128fd565b039392505050565b60006001600160a01b038281168482168083038211156129a6576129a66128fd565b01949350505050565b600082198211156129c2576129c26128fd565b500190565b600062ffffff8381169083168181101561297c5761297c6128fd565b60006001600160ff1b0381841382841380821686840486111615612a0957612a096128fd565b600160ff1b6000871282811687830589121615612a2857612a286128fd565b60008712925087820587128484161615612a4457612a446128fd565b87850587128184161615612a5a57612a5a6128fd565b505050929093029392505050565b634e487b7160e01b600052601260045260246000fd5b600082612a8d57612a8d612a68565b600160ff1b821460001984141615612aa757612aa76128fd565b500590565b600080821280156001600160ff1b0384900385131615612ace57612ace6128fd565b600160ff1b8390038412811615612ae757612ae76128fd565b50500190565b634e487b7160e01b600052602160045260246000fd5b6000816000190483118215151615612b1d57612b1d6128fd565b500290565b600082612b3157612b31612a68565b500490565b600062ffffff8083168185168083038211156129a6576129a66128fd565b60008083128015600160ff1b850184121615612b7257612b726128fd565b6001600160ff1b0384018313811615612b8d57612b8d6128fd565b50500390565b8051600281900b8114611ed957600080fd5b600080600080600080600060e0888a031215612bc057600080fd5b8751612bcb816124eb565b9650612bd960208901612b93565b9550612be7604089016127ce565b9450612bf5606089016127ce565b9350612c03608089016127ce565b925060a088015160ff81168114612c1957600080fd5b60c0890151909250612c2a81612512565b8091505092959891949750929550565b80516001600160801b0381168114611ed957600080fd5b600060208284031215612c6357600080fd5b610ad182612c3a565b600060208284031215612c7e57600080fd5b610ad182612b93565b60008160020b627fffff198103612ca057612ca06128fd565b60000392915050565b600080600080600080600080610100898b031215612cc657600080fd5b612ccf89612c3a565b9750602089015180600f0b8114612ce557600080fd5b80975050604089015195506060890151945060808901518060060b8114612d0b57600080fd5b60a08a0151909450612d1c816124eb565b60c08a0151909350612d2d81612500565b60e08a0151909250612d3e81612512565b809150509295985092959890939650565b600081600f0b6f7fffffffffffffffffffffffffffffff198103612ca057612ca06128fd565b60006001600160801b038083168185168083038211156129a6576129a66128fd565b60006001600160801b038381169083168181101561297c5761297c6128fd565b60008160020b8360020b6000811281627fffff1901831281151615612dde57612dde6128fd565b81627fffff018313811615612df557612df56128fd565b5090039392505050565b60008160020b8360020b80612e1657612e16612a68565b627fffff19821460001982141615612e3057612e306128fd565b90059392505050565b60008260020b80612e4c57612e4c612a68565b808360020b0791505092915050565b60008160020b627fffff198103612e7457612e746128fd565b6000190192915050565b600060208284031215612e9057600080fd5b5051919050565b60008160020b8360020b627fffff600082136000841383830485118282161615612ec357612ec36128fd565b627fffff196000851282811687830587121615612ee257612ee26128fd565b60008712925085820587128484161615612efe57612efe6128fd565b85850587128184161615612f1457612f146128fd565b5050509290910295945050505050565b600060ff821660ff841680821015612f3e57612f3e6128fd565b90039392505050565b60008160020b8360020b6000821282627fffff03821381151615612f6d57612f6d6128fd565b82627fffff19038212811615612f8557612f856128fd565b5001939250505056fea2646970667358221220075983d40ff3299f87ad3093bf9a1e8fd9c127f570a8a46ef30a599ddf73a00164736f6c634300080d0033",
  "userdoc": {
    "kind": "user",
    "methods": {},
    "version": 1
  },
  "storageLayout": {
    "storage": [
      {
        "astId": 30626,
        "contract": "contracts/utils/SwapSimulator.sol:SwapSimulator",
        "label": "_steps",
        "offset": 0,
        "slot": "0",
        "type": "t_array(t_struct(SwapStepAndState)30622_storage)dyn_storage"
      }
    ],
    "types": {
      "t_array(t_struct(SwapStepAndState)30622_storage)dyn_storage": {
        "base": "t_struct(SwapStepAndState)30622_storage",
        "encoding": "dynamic_array",
        "label": "struct SwapSimulator.SwapStepAndState[]",
        "numberOfBytes": "32"
      },
      "t_bool": {
        "encoding": "inplace",
        "label": "bool",
        "numberOfBytes": "1"
      },
      "t_int24": {
        "encoding": "inplace",
        "label": "int24",
        "numberOfBytes": "3"
      },
      "t_int256": {
        "encoding": "inplace",
        "label": "int256",
        "numberOfBytes": "32"
      },
      "t_struct(State)15664_storage": {
        "encoding": "inplace",
        "label": "struct SimulateSwap.State",
        "members": [
          {
            "astId": 15651,
            "contract": "contracts/utils/SwapSimulator.sol:SwapSimulator",
            "label": "amountSpecifiedRemaining",
            "offset": 0,
            "slot": "0",
            "type": "t_int256"
          },
          {
            "astId": 15653,
            "contract": "contracts/utils/SwapSimulator.sol:SwapSimulator",
            "label": "amountCalculated",
            "offset": 0,
            "slot": "1",
            "type": "t_int256"
          },
          {
            "astId": 15655,
            "contract": "contracts/utils/SwapSimulator.sol:SwapSimulator",
            "label": "sqrtPriceX96",
            "offset": 0,
            "slot": "2",
            "type": "t_uint160"
          },
          {
            "astId": 15657,
            "contract": "contracts/utils/SwapSimulator.sol:SwapSimulator",
            "label": "tick",
            "offset": 20,
            "slot": "2",
            "type": "t_int24"
          },
          {
            "astId": 15659,
            "contract": "contracts/utils/SwapSimulator.sol:SwapSimulator",
            "label": "feeGrowthGlobalIncreaseX128",
            "offset": 0,
            "slot": "3",
            "type": "t_uint256"
          },
          {
            "astId": 15661,
            "contract": "contracts/utils/SwapSimulator.sol:SwapSimulator",
            "label": "protocolFee",
            "offset": 0,
            "slot": "4",
            "type": "t_uint128"
          },
          {
            "astId": 15663,
            "contract": "contracts/utils/SwapSimulator.sol:SwapSimulator",
            "label": "liquidity",
            "offset": 16,
            "slot": "4",
            "type": "t_uint128"
          }
        ],
        "numberOfBytes": "160"
      },
      "t_struct(Step)15679_storage": {
        "encoding": "inplace",
        "label": "struct SimulateSwap.Step",
        "members": [
          {
            "astId": 15666,
            "contract": "contracts/utils/SwapSimulator.sol:SwapSimulator",
            "label": "sqrtPriceStartX96",
            "offset": 0,
            "slot": "0",
            "type": "t_uint160"
          },
          {
            "astId": 15668,
            "contract": "contracts/utils/SwapSimulator.sol:SwapSimulator",
            "label": "tickNext",
            "offset": 20,
            "slot": "0",
            "type": "t_int24"
          },
          {
            "astId": 15670,
            "contract": "contracts/utils/SwapSimulator.sol:SwapSimulator",
            "label": "initialized",
            "offset": 23,
            "slot": "0",
            "type": "t_bool"
          },
          {
            "astId": 15672,
            "contract": "contracts/utils/SwapSimulator.sol:SwapSimulator",
            "label": "sqrtPriceNextX96",
            "offset": 0,
            "slot": "1",
            "type": "t_uint160"
          },
          {
            "astId": 15674,
            "contract": "contracts/utils/SwapSimulator.sol:SwapSimulator",
            "label": "amountIn",
            "offset": 0,
            "slot": "2",
            "type": "t_uint256"
          },
          {
            "astId": 15676,
            "contract": "contracts/utils/SwapSimulator.sol:SwapSimulator",
            "label": "amountOut",
            "offset": 0,
            "slot": "3",
            "type": "t_uint256"
          },
          {
            "astId": 15678,
            "contract": "contracts/utils/SwapSimulator.sol:SwapSimulator",
            "label": "feeAmount",
            "offset": 0,
            "slot": "4",
            "type": "t_uint256"
          }
        ],
        "numberOfBytes": "160"
      },
      "t_struct(SwapStepAndState)30622_storage": {
        "encoding": "inplace",
        "label": "struct SwapSimulator.SwapStepAndState",
        "members": [
          {
            "astId": 30618,
            "contract": "contracts/utils/SwapSimulator.sol:SwapSimulator",
            "label": "step",
            "offset": 0,
            "slot": "0",
            "type": "t_struct(Step)15679_storage"
          },
          {
            "astId": 30621,
            "contract": "contracts/utils/SwapSimulator.sol:SwapSimulator",
            "label": "state",
            "offset": 0,
            "slot": "5",
            "type": "t_struct(State)15664_storage"
          }
        ],
        "numberOfBytes": "320"
      },
      "t_uint128": {
        "encoding": "inplace",
        "label": "uint128",
        "numberOfBytes": "16"
      },
      "t_uint160": {
        "encoding": "inplace",
        "label": "uint160",
        "numberOfBytes": "20"
      },
      "t_uint256": {
        "encoding": "inplace",
        "label": "uint256",
        "numberOfBytes": "32"
      }
    }
  }
}