{
  "address": "0x68Ac50d133Fe742B7ECF6a455cd4A0574f8a1777",
  "abi": [
    {
      "inputs": [
        {
          "internalType": "uint160",
          "name": "sqrtPriceLimitX96",
          "type": "uint160"
        }
      ],
      "name": "InvalidSqrtPriceLimit",
      "type": "error"
    },
    {
      "inputs": [],
      "name": "R",
      "type": "error"
    },
    {
      "inputs": [],
      "name": "T",
      "type": "error"
    },
    {
      "inputs": [],
      "name": "ZeroAmount",
      "type": "error"
    },
    {
      "inputs": [
        {
          "internalType": "contract IClearingHouse",
          "name": "clearingHouse",
          "type": "address"
        },
        {
          "internalType": "uint32",
          "name": "poolId",
          "type": "uint32"
        },
        {
          "internalType": "int256",
          "name": "amount",
          "type": "int256"
        },
        {
          "internalType": "uint160",
          "name": "sqrtPriceLimitX96",
          "type": "uint160"
        },
        {
          "internalType": "bool",
          "name": "isNotional",
          "type": "bool"
        }
      ],
      "name": "simulateSwap",
      "outputs": [
        {
          "components": [
            {
              "internalType": "int256",
              "name": "amountSpecified",
              "type": "int256"
            },
            {
              "internalType": "int256",
              "name": "vTokenIn",
              "type": "int256"
            },
            {
              "internalType": "int256",
              "name": "vQuoteIn",
              "type": "int256"
            },
            {
              "internalType": "uint256",
              "name": "liquidityFees",
              "type": "uint256"
            },
            {
              "internalType": "uint256",
              "name": "protocolFees",
              "type": "uint256"
            },
            {
              "internalType": "uint160",
              "name": "sqrtPriceX96Start",
              "type": "uint160"
            },
            {
              "internalType": "uint160",
              "name": "sqrtPriceX96End",
              "type": "uint160"
            }
          ],
          "internalType": "struct IVPoolWrapper.SwapResult",
          "name": "swapResult",
          "type": "tuple"
        },
        {
          "components": [
            {
              "internalType": "uint160",
              "name": "sqrtPriceX96Start",
              "type": "uint160"
            },
            {
              "internalType": "int24",
              "name": "tickStart",
              "type": "int24"
            },
            {
              "internalType": "uint8",
              "name": "feeProtocol",
              "type": "uint8"
            },
            {
              "internalType": "uint128",
              "name": "liquidityStart",
              "type": "uint128"
            },
            {
              "internalType": "int24",
              "name": "tickSpacing",
              "type": "int24"
            },
            {
              "internalType": "uint24",
              "name": "fee",
              "type": "uint24"
            },
            {
              "internalType": "uint256",
              "name": "realPriceX128",
              "type": "uint256"
            },
            {
              "internalType": "uint256",
              "name": "virtualPriceX128",
              "type": "uint256"
            }
          ],
          "internalType": "struct SimulateSwap.Cache",
          "name": "cache",
          "type": "tuple"
        },
        {
          "components": [
            {
              "components": [
                {
                  "internalType": "uint160",
                  "name": "sqrtPriceStartX96",
                  "type": "uint160"
                },
                {
                  "internalType": "int24",
                  "name": "tickNext",
                  "type": "int24"
                },
                {
                  "internalType": "bool",
                  "name": "initialized",
                  "type": "bool"
                },
                {
                  "internalType": "uint160",
                  "name": "sqrtPriceNextX96",
                  "type": "uint160"
                },
                {
                  "internalType": "uint256",
                  "name": "amountIn",
                  "type": "uint256"
                },
                {
                  "internalType": "uint256",
                  "name": "amountOut",
                  "type": "uint256"
                },
                {
                  "internalType": "uint256",
                  "name": "feeAmount",
                  "type": "uint256"
                }
              ],
              "internalType": "struct SimulateSwap.Step",
              "name": "step",
              "type": "tuple"
            },
            {
              "components": [
                {
                  "internalType": "int256",
                  "name": "amountSpecifiedRemaining",
                  "type": "int256"
                },
                {
                  "internalType": "int256",
                  "name": "amountCalculated",
                  "type": "int256"
                },
                {
                  "internalType": "uint160",
                  "name": "sqrtPriceX96",
                  "type": "uint160"
                },
                {
                  "internalType": "int24",
                  "name": "tick",
                  "type": "int24"
                },
                {
                  "internalType": "uint256",
                  "name": "feeGrowthGlobalIncreaseX128",
                  "type": "uint256"
                },
                {
                  "internalType": "uint128",
                  "name": "protocolFee",
                  "type": "uint128"
                },
                {
                  "internalType": "uint128",
                  "name": "liquidity",
                  "type": "uint128"
                }
              ],
              "internalType": "struct SimulateSwap.State",
              "name": "state",
              "type": "tuple"
            }
          ],
          "internalType": "struct SwapSimulator.SwapStepAndState[]",
          "name": "steps",
          "type": "tuple[]"
        }
      ],
      "stateMutability": "nonpayable",
      "type": "function"
    }
  ],
  "transactionHash": "0x2db4c8e9b15f11bba8a2f48702dcc708f50b36189af52293ec6320099abffdb4",
  "args": [],
  "numDeployments": 1,
  "solcInputHash": "f51e2eca45877d432ab4f6c147bdf3df",
  "bytecode": "0x608060405234801561001057600080fd5b5061310f806100206000396000f3fe608060405234801561001057600080fd5b506004361061002b5760003560e01c8063fbdeddde14610030575b600080fd5b61004361003e366004612666565b61005b565b604051610052939291906127c9565b60405180910390f35b6100ad6040518060e00160405280600081526020016000815260200160008152602001600081526020016000815260200160006001600160a01b0316815260200160006001600160a01b031681525090565b604080516101008101825260008082526020820181905281830181905260608083018290526080830182905260a0830182905260c0830182905260e083018290529251635b3876a960e11b815263ffffffff891660048201529192916001600160a01b038a169063b670ed529060240161014060405180830381865afa15801561013b573d6000803e3d6000fd5b505050506040513d601f19601f8201168201806040525081019061015f919061292a565b9050610257816020015182604001516001600160a01b03166386c8e9a76040518163ffffffff1660e01b8152600401602060405180830381865afa1580156101ab573d6000803e3d6000fd5b505050506040513d601f19601f820116820180604052508101906101cf9190612a22565b83604001516001600160a01b031663fca6fbf26040518163ffffffff1660e01b8152600401602060405180830381865afa158015610211573d6000803e3d6000fd5b505050506040513d601f19601f820116820180604052508101906102359190612a22565b60008b128961024c576102478c612a5d565b61024e565b8b5b8b6103f9610688565b60008054604080516020808402820181019092528281529498509296509091829084015b828210156103935760008481526020908190206040805161012081018252600a860290920180546001600160a01b03808216858501908152600160a01b808404600290810b6060808a0191909152600160b81b90950460ff1615156080808a0191909152600180880154861660a0808c01919091528389015460c0808d019190915260038a015460e0808e019190915260048b01546101008e0152968c528a519687018b5260058a0154875260068a0154878e015260078a01549788169a87019a909a529390950490910b948301949094526008850154938201939093526009909301546001600160801b0380821693850193909352600160801b90049091169282019290925282840152908352909201910161027b565b505085516001600160a01b031660a08801525050805190925082906103ba90600190612a79565b815181106103ca576103ca612a90565b6020908102919091018101510151604001516001600160a01b031660c085015250919790965090945092505050565b60408051808201825291825260208083019384526000805460018101825590805292518051600a9094027f290decd9548b62a8d60345a988386fc84ba6bc95484008f6362f93160ef3e5638101805483850151848701511515600160b81b027fffffffffffffffff00ffffffffffffffffffffffffffffffffffffffffffffff62ffffff928316600160a01b90810276ffffffffffffffffffffffffffffffffffffffffffffff199586166001600160a01b039c8d16171791909116919091179093556060808601517f290decd9548b62a8d60345a988386fc84ba6bc95484008f6362f93160ef3e56486018054918b1673ffffffffffffffffffffffffffffffffffffffff19929092169190911790556080808701517f290decd9548b62a8d60345a988386fc84ba6bc95484008f6362f93160ef3e56587015560a0808801517f290decd9548b62a8d60345a988386fc84ba6bc95484008f6362f93160ef3e56688015560c0978801517f290decd9548b62a8d60345a988386fc84ba6bc95484008f6362f93160ef3e5678801559a5180517f290decd9548b62a8d60345a988386fc84ba6bc95484008f6362f93160ef3e568880155978801517f290decd9548b62a8d60345a988386fc84ba6bc95484008f6362f93160ef3e569870155978701517f290decd9548b62a8d60345a988386fc84ba6bc95484008f6362f93160ef3e56a86018054928901519093169094029216929097169190911717909455918101517f290decd9548b62a8d60345a988386fc84ba6bc95484008f6362f93160ef3e56b840155928301519201516001600160801b03908116600160801b029216919091177f290decd9548b62a8d60345a988386fc84ba6bc95484008f6362f93160ef3e56c909101555050565b6106da6040518060e00160405280600081526020016000815260200160008152602001600081526020016000815260200160006001600160a01b0316815260200160006001600160a01b031681525090565b6040805161010081018252600080825260208201819052918101829052606081018290526080810182905260a0810182905260c0810182905260e0810191909152610726600080612560565b836001600160a01b031660000361077357856107605761075b600173fffd8963efd1fc6a506488495d951d5263988d26612aa6565b610770565b6107706401000276a36001612ace565b93505b84826000018181525050600080861215905060008a6001600160a01b031663ddca3f436040518163ffffffff1660e01b8152600401602060405180830381865afa1580156107c5573d6000803e3d6000fd5b505050506040513d601f19601f820116820180604052508101906107e99190612a22565b90506107f98289838d8d8961083e565b61080f6001600160a01b038c16898989896108e5565b604088019290925250602086019190915292506108308289838d8d89610981565b505097509795505050505050565b851561089f57841561085d5780516108569085610a91565b81526108dd565b805161086c9060028585610adc565b6080830181905260608301829052825161089292909161088b91612af9565b6001610c07565b8082526108569085610a91565b84156108dd5780516108b49060018585610adc565b608083018190526060830182905282516108da9290916108d391612af9565b6000610c07565b81525b505050505050565b6040805160e081018252600080825260208201819052918101829052606081018290526080810182905260a0810182905260c0810182905281906040805161010081018252600080825260208201819052918101829052606081018290526080810182905260a0810182905260c0810182905260e081019190915261096e89898989858a610c4b565b919b909a50909850909650945050505050565b8515610a0b5784156109de5761099b816020015185611402565b602082015260408101516109b29060008585610adc565b608083018190526060830182905260408301516109d492909161088b91612af9565b60408201526108dd565b6109ec816040015185611402565b60408201819052608082015160608301516109d492916108d391612af9565b84610a5457610a1e816040015185611402565b60408201819052610a329060008585610adc565b608083018190526060830182905260408301516109d49290916108d391612af9565b610a62816020015185611402565b6020820152604081015160808201516060830151610a84929161088b91612af9565b6040820152505050505050565b600080610aa183620f4240612b11565b60020b610ab362ffffff851686612b2d565b610abd9190612bca565b610ac8906001612bf8565b9050610ad48185612bf8565b949350505050565b6000806000610aea87611429565b90506001866002811115610b0057610b00612c38565b03610b405783610b1386620f4240612b11565b610b1d9190612b11565b62ffffff16610b2f82620f4240612c4e565b610b399190612c6d565b9050610b90565b6002866002811115610b5457610b54612c38565b03610b905783610b6786620f4240612c81565b610b719190612c81565b62ffffff16610b8382620f4240612c4e565b610b8d9190612c6d565b90505b6000620f4240610ba08688612c81565b610baf9062ffffff1684612c4e565b610bb99190612c6d565b610bc4906001612af9565b9050620f4240610bd962ffffff881684612c4e565b610be39190612c6d565b610bee906001612af9565b9350610bfa8482612a79565b9250505094509492505050565b600080826001811115610c1c57610c1c612c38565b146000851303610c3757610c308385612bf8565b9050610c44565b610c418385612c9f565b90505b9392505050565b6040805160e081018252600080825260208201819052918101829052606081018290526080810182905260a0810182905260c08101829052819086600003610ca657604051631f2a200560e01b815260040160405180910390fd5b84516001600160a01b0316600003610d3a57886001600160a01b0316633850c7bd6040518163ffffffff1660e01b815260040160e060405180830381865afa158015610cf6573d6000803e3d6000fd5b505050506040513d601f19601f82011682018060405250810190610d1a9190612cf0565b5060ff1660408b015250505060020b60208701526001600160a01b031685525b84606001516001600160801b0316600003610dc057886001600160a01b0316631a6865026040518163ffffffff1660e01b8152600401602060405180830381865afa158015610d8d573d6000803e3d6000fd5b505050506040513d601f19601f82011682018060405250810190610db19190612d9c565b6001600160801b031660608601525b846080015160020b600003610ead57886001600160a01b031663ddca3f436040518163ffffffff1660e01b8152600401602060405180830381865afa158015610e0d573d6000803e3d6000fd5b505050506040513d601f19601f82011682018060405250810190610e319190612a22565b62ffffff1660a0860152604080516334324e9f60e21b815290516001600160a01b038b169163d0c93a7c9160048083019260209291908290030181865afa158015610e80573d6000803e3d6000fd5b505050506040513d601f19601f82011682018060405250810190610ea49190612db7565b60020b60808601525b87610ef75784600001516001600160a01b0316866001600160a01b03161080610ef2575073fffd8963efd1fc6a506488495d951d5263988d266001600160a01b038716115b610f28565b84600001516001600160a01b0316866001600160a01b03161180610f2857506401000276a36001600160a01b038716105b15610f55576040516328da8b5760e11b81526001600160a01b038716600482015260240160405180910390fd5b600080881390506040518060e001604052808981526020016000815260200187600001516001600160a01b03168152602001876020015160020b81526020016000815260200160006001600160801b0316815260200187606001516001600160801b031681525091505b815115801590610fe55750866001600160a01b031682604001516001600160a01b031614155b156113bc576040805160e081018252600080825260208201819052918101829052606081018290526080810182905260a0810182905260c081019190915260408301516001600160a01b03908116825260608401516080890151611052928e1691635339c296918e611448565b1515604083015260020b60208201819052620d89e719131561107d57620d89e71960208201526110b1565b61108a620d89e719612dd2565b60020b816020015160020b13156110b1576110a8620d89e719612dd2565b60020b60208201525b6110be81602001516116b4565b6001600160a01b031660608201526040830151611133908b6110f857896001600160a01b031683606001516001600160a01b031611611112565b896001600160a01b031683606001516001600160a01b0316105b611120578260600151611122565b895b60c0860151865160a08c01516119d7565b60c085015260a084015260808301526001600160a01b0316604084015281156111ab576111728160c00151826080015161116d9190612af9565b611bc9565b83518490611181908390612c9f565b90525060a081015161119290611bc9565b83602001516111a19190612c9f565b60208401526111f6565b6111b88160a00151611bc9565b835184906111c7908390612bf8565b90525060c081015160808201516111e19161116d91612af9565b83602001516111f09190612bf8565b60208401525b60c08301516001600160801b03161561123e576112298160c00151600160801b8560c001516001600160801b0316611bdb565b8360800181815161123a9190612af9565b9052505b61124e8a8885848a63ffffffff16565b80606001516001600160a01b031683604001516001600160a01b03160361137f5780604001511561135257602081015160405163f30dba9360e01b815260029190910b60048201526000906001600160a01b038d169063f30dba939060240161010060405180830381865afa1580156112cb573d6000803e3d6000fd5b505050506040513d601f19601f820116820180604052508101906112ef9190612df4565b5050505050509150508a1561130a5761130781612e9a565b90505b600081600f0b1261132a57808460c001516113259190612ec0565b611342565b61133381612e9a565b8460c001516113429190612ee2565b6001600160801b031660c0850152505b89611361578060200151611372565b600181602001516113729190612f02565b60020b60608401526113b6565b80600001516001600160a01b031683604001516001600160a01b0316146113b6576113ad8360400151611c8d565b60020b60608401525b50610fbf565b801515891515146113dd57602082015182516113d8908a612c9f565b6113ef565b81516113e99089612c9f565b82602001515b909b909a50919850909650505050505050565b6000620f42406114128382612b11565b61141f9060020b85612b2d565b610c449190612bca565b60008082136114405761143b82612a5d565b611442565b815b92915050565b600080806114568587612f4a565b905060008660020b12801561147657506114708587612f84565b60020b15155b15611489578061148581612fa6565b9150505b831561158e5760008061149b83611fa0565b90925090506000600160ff831681901b906114b69082612a79565b6114c09190612af9565b90506000818c8c866040518263ffffffff1660e01b81526004016114ed919060019190910b815260200190565b602060405180830381865afa15801561150a573d6000803e3d6000fd5b505050506040513d601f19601f8201168201806040525081019061152e9190612fc9565b168015159650905085611558578861154960ff851687612f02565b6115539190612fe2565b611583565b8861156282611fbd565b61156c908561306f565b6115799060ff1687612f02565b6115839190612fe2565b9650505050506116a9565b6000806115a461159f846001613092565b611fa0565b909250905060006115bc600160ff841681901b612a79565b1990506000818c8c866040518263ffffffff1660e01b81526004016115ea919060019190910b815260200190565b602060405180830381865afa158015611607573d6000803e3d6000fd5b505050506040513d601f19601f8201168201806040525081019061162b9190612fc9565b16801515965090508561166b57886116448460ff61306f565b60ff16611652876001613092565b61165c9190613092565b6116669190612fe2565b6116a2565b88836116768361205e565b611680919061306f565b60ff1661168e876001613092565b6116989190613092565b6116a29190612fe2565b9650505050505b509550959350505050565b60008060008360020b126116cb578260020b6116d3565b8260020b6000035b9050620d89e88111156116f9576040516315e4079d60e11b815260040160405180910390fd5b60008160011660000361171057600160801b611722565b6ffffcb933bd6fad37aa2d162d1a5940015b70ffffffffffffffffffffffffffffffffff1690506002821615611756576ffff97272373d413259a46990580e213a0260801c5b6004821615611775576ffff2e50f5f656932ef12357cf3c7fdcc0260801c5b6008821615611794576fffe5caca7e10e4e61c3624eaa0941cd00260801c5b60108216156117b3576fffcb9843d60f6159c9db58835c9266440260801c5b60208216156117d2576fff973b41fa98c081472e6896dfb254c00260801c5b60408216156117f1576fff2ea16466c96a3843ec78b326b528610260801c5b6080821615611810576ffe5dee046a99a2a811c461f1969c30530260801c5b610100821615611830576ffcbe86c7900a88aedcffc83b479aa3a40260801c5b610200821615611850576ff987a7253ac413176f2b074cf7815e540260801c5b610400821615611870576ff3392b0822b70005940c7a398e4b70f30260801c5b610800821615611890576fe7159475a2c29b7443b29c7fa6e889d90260801c5b6110008216156118b0576fd097f3bdfd2022b8845ad8f792aa58250260801c5b6120008216156118d0576fa9f746462d870fdf8a65dc1f90e061e50260801c5b6140008216156118f0576f70d869a156d2a1b890bb3df62baf32f70260801c5b618000821615611910576f31be135f97d08fd981231505542fcfa60260801c5b62010000821615611931576f09aa508b5b7a84e1c677de54f3e99bc90260801c5b62020000821615611951576e5d6af8dedb81196699c329225ee6040260801c5b62040000821615611970576d2216e584f5fa1ea926041bedfe980260801c5b6208000082161561198d576b048a170391f7dc42444e8fa20260801c5b60008460020b13156119ae5780600019816119aa576119aa612bb4565b0490505b6401000000008106156119c25760016119c5565b60005b60ff16602082901c0192505050919050565b60008080806001600160a01b03808916908a161015818712801590611a5c576000611a108989620f42400362ffffff16620f4240611bdb565b905082611a2957611a248c8c8c6001612148565b611a36565b611a368b8d8c60016121c1565b9550858110611a47578a9650611a56565b611a538c8b838661228a565b96505b50611aa6565b81611a7357611a6e8b8b8b60006121c1565b611a80565b611a808a8c8b6000612148565b9350838860000310611a9457899550611aa6565b611aa38b8a8a600003856122d6565b95505b6001600160a01b038a8116908716148215611b0957808015611ac55750815b611adb57611ad6878d8c60016121c1565b611add565b855b9550808015611aea575081155b611b0057611afb878d8c6000612148565b611b02565b845b9450611b53565b808015611b135750815b611b2957611b248c888c6001612148565b611b2b565b855b9550808015611b38575081155b611b4e57611b498c888c60006121c1565b611b50565b845b94505b81158015611b6357508860000385115b15611b6f578860000394505b818015611b8e57508a6001600160a01b0316876001600160a01b031614155b15611b9d578589039350611bba565b611bb7868962ffffff168a620f42400362ffffff16612322565b93505b50505095509550955095915050565b6000600160ff1b821061144057600080fd5b6000808060001985870985870292508281108382030391505080600003611c145760008411611c0957600080fd5b508290049050610c44565b808411611c2057600080fd5b6000848688096000868103871696879004966002600389028118808a02820302808a02820302808a02820302808a02820302808a02820302808a02909103029181900381900460010186841190950394909402919094039290920491909117919091029150509392505050565b60006401000276a36001600160a01b03831610801590611cc9575073fffd8963efd1fc6a506488495d951d5263988d266001600160a01b038316105b611ce6576040516324c070df60e11b815260040160405180910390fd5b77ffffffffffffffffffffffffffffffffffffffff00000000602083901b166001600160801b03811160071b81811c67ffffffffffffffff811160061b90811c63ffffffff811160051b90811c61ffff811160041b90811c60ff8111600390811b91821c600f811160021b90811c918211600190811b92831c97908811961790941790921717909117171760808110611d8757607f810383901c9150611d91565b80607f0383901b91505b908002607f81811c60ff83811c9190911c800280831c81831c1c800280841c81841c1c800280851c81851c1c800280861c81861c1c800280871c81871c1c800280881c81881c1c800280891c81891c1c8002808a1c818a1c1c8002808b1c818b1c1c8002808c1c818c1c1c8002808d1c818d1c1c8002808e1c9c81901c9c909c1c80029c8d901c9e9d607f198f0160401b60c09190911c678000000000000000161760c19b909b1c674000000000000000169a909a1760c29990991c672000000000000000169890981760c39790971c671000000000000000169690961760c49590951c670800000000000000169490941760c59390931c670400000000000000169290921760c69190911c670200000000000000161760c79190911c670100000000000000161760c89190911c6680000000000000161760c99190911c6640000000000000161760ca9190911c6620000000000000161760cb9190911c6610000000000000161760cc9190911c6608000000000000161760cd9190911c66040000000000001617693627a301d71055774c8581026f028f6481ab7f045a5af012a19d003aa9198101608090811d906fdb2df09e81959a81455e260799a0632f8301901d600281810b9083900b14611f9157886001600160a01b0316611f76826116b4565b6001600160a01b03161115611f8b5781611f93565b80611f93565b815b9998505050505050505050565b600281900b60081d6000611fb661010084612f84565b9050915091565b6000808211611fcb57600080fd5b600160801b8210611fde57608091821c91015b680100000000000000008210611ff657604091821c91015b640100000000821061200a57602091821c91015b62010000821061201c57601091821c91015b610100821061202d57600891821c91015b6010821061203d57600491821c91015b6004821061204d57600291821c91015b60028210612059576001015b919050565b600080821161206c57600080fd5b5060ff6001600160801b0382161561208757607f190161208f565b608082901c91505b67ffffffffffffffff8216156120a857603f19016120b0565b604082901c91505b63ffffffff8216156120c557601f19016120cd565b602082901c91505b61ffff8216156120e057600f19016120e8565b601082901c91505b60ff8216156120fa5760071901612102565b600882901c91505b600f821615612114576003190161211c565b600482901c91505b600382161561212e5760011901612136565b600282901c91505b60018216156120595760001901919050565b6000836001600160a01b0316856001600160a01b03161115612168579293925b8161219557612190836001600160801b03168686036001600160a01b0316600160601b611bdb565b6121b8565b6121b8836001600160801b03168686036001600160a01b0316600160601b612322565b95945050505050565b6000836001600160a01b0316856001600160a01b031611156121e1579293925b7bffffffffffffffffffffffffffffffff000000000000000000000000606084901b166001600160a01b03868603811690871661221d57600080fd5b8361225357866001600160a01b03166122408383896001600160a01b0316611bdb565b8161224d5761224d612bb4565b0461227f565b61227f61226a8383896001600160a01b0316612322565b886001600160a01b0316808204910615150190565b979650505050505050565b600080856001600160a01b0316116122a157600080fd5b6000846001600160801b0316116122b757600080fd5b816122c9576121908585856001612362565b6121b88585856001612448565b600080856001600160a01b0316116122ed57600080fd5b6000846001600160801b03161161230357600080fd5b81612315576121908585856000612448565b6121b88585856000612362565b600061232f848484611bdb565b90506000828061234157612341612bb4565b8486091115610c4457600019811061235857600080fd5b6001019392505050565b600081156123d45760006001600160a01b038411156123985761239384600160601b876001600160801b0316611bdb565b6123af565b6123af6001600160801b038616606086901b612c6d565b90506123cc6123c7826001600160a01b038916612af9565b61254a565b915050610ad4565b60006001600160a01b03841115612402576123fd84600160601b876001600160801b0316612322565b61241f565b61241f606085901b6001600160801b038716808204910615150190565b905080866001600160a01b03161161243657600080fd5b6001600160a01b038616039050610ad4565b600082600003612459575083610ad4565b7bffffffffffffffffffffffffffffffff000000000000000000000000606085901b1682156124fd576001600160a01b0386168481029085828161249f5761249f612bb4565b04036124cf578181018281106124cd576124c383896001600160a01b031683612322565b9350505050610ad4565b505b506123cc81856124e86001600160a01b038a1683612c6d565b6124f29190612af9565b808204910615150190565b6001600160a01b0386168481029085828161251a5761251a612bb4565b0414801561252757508082115b61253057600080fd5b8082036124c36123c7846001600160a01b038b1684612322565b806001600160a01b038116811461205957600080fd5b50805460008255600a02906000526020600020908101906125819190612584565b50565b5b8082111561262d5780547fffffffffffffffff00000000000000000000000000000000000000000000000016815560018101805473ffffffffffffffffffffffffffffffffffffffff191690556000600282018190556003820181905560048201819055600582018190556006820181905560078201805476ffffffffffffffffffffffffffffffffffffffffffffff19169055600882018190556009820155600a01612585565b5090565b6001600160a01b038116811461258157600080fd5b63ffffffff8116811461258157600080fd5b801515811461258157600080fd5b600080600080600060a0868803121561267e57600080fd5b853561268981612631565b9450602086013561269981612646565b93506040860135925060608601356126b081612631565b915060808601356126c081612658565b809150509295509295909350565b600081518084526020808501945080840160005b838110156127be578151805180516001600160a01b039081168a528582015160020b868b01526040808301511515908b0152606080830151909116908a0152608080820151908a015260a080820151908a015260c090810151908901528301516127a960e089018280518252602081015160208301526001600160a01b036040820151166040830152606081015160020b60608301526080810151608083015260a08101516001600160801b0380821660a08501528060c08401511660c085015250505050565b506101c09690960195908201906001016126e2565b509495945050505050565b6000610200855183526020860151602084015260408601516040840152606086015160608401526080860151608084015260a08601516001600160a01b0380821660a08601528060c08901511660c08601528087511660e08601525050602085015160020b61010084015260ff6040860151166101208401526001600160801b03606086015116610140840152608085015161286b61016085018260020b9052565b5060a085015162ffffff1661018084015260c08501516101a084015260e08501516101c08401526101e083018190526128a6818401856126ce565b9695505050505050565b6040516080810167ffffffffffffffff811182821017156128e157634e487b7160e01b600052604160045260246000fd5b60405290565b60405160e0810167ffffffffffffffff811182821017156128e157634e487b7160e01b600052604160045260246000fd5b805161ffff8116811461205957600080fd5b600081830361014081121561293e57600080fd5b6129466128b0565b835161295181612631565b8152602084015161296181612631565b6020820152604084015161297481612631565b604082015260e0605f198301121561298b57600080fd5b6129936128e7565b91506129a160608501612918565b82526129af60808501612918565b60208301526129c060a08501612918565b604083015260c08401516129d381612646565b606083015260e08401516129e681612658565b60808301526101008401516129fa81612658565b60a0830152610120840151612a0e81612631565b60c083015260608101919091529392505050565b600060208284031215612a3457600080fd5b815162ffffff81168114610c4457600080fd5b634e487b7160e01b600052601160045260246000fd5b6000600160ff1b8201612a7257612a72612a47565b5060000390565b600082821015612a8b57612a8b612a47565b500390565b634e487b7160e01b600052603260045260246000fd5b60006001600160a01b0383811690831681811015612ac657612ac6612a47565b039392505050565b60006001600160a01b03808316818516808303821115612af057612af0612a47565b01949350505050565b60008219821115612b0c57612b0c612a47565b500190565b600062ffffff83811690831681811015612ac657612ac6612a47565b60006001600160ff1b03600084136000841385830485118282161615612b5557612b55612a47565b600160ff1b6000871282811687830589121615612b7457612b74612a47565b60008712925087820587128484161615612b9057612b90612a47565b87850587128184161615612ba657612ba6612a47565b505050929093029392505050565b634e487b7160e01b600052601260045260246000fd5b600082612bd957612bd9612bb4565b600160ff1b821460001984141615612bf357612bf3612a47565b500590565b6000808212826001600160ff1b0303841381151615612c1957612c19612a47565b600160ff1b8390038412811615612c3257612c32612a47565b50500190565b634e487b7160e01b600052602160045260246000fd5b6000816000190483118215151615612c6857612c68612a47565b500290565b600082612c7c57612c7c612bb4565b500490565b600062ffffff808316818516808303821115612af057612af0612a47565b60008083128015600160ff1b850184121615612cbd57612cbd612a47565b836001600160ff1b03018313811615612cd857612cd8612a47565b50500390565b8051600281900b811461205957600080fd5b600080600080600080600060e0888a031215612d0b57600080fd5b8751612d1681612631565b9650612d2460208901612cde565b9550612d3260408901612918565b9450612d4060608901612918565b9350612d4e60808901612918565b925060a088015160ff81168114612d6457600080fd5b60c0890151909250612d7581612658565b8091505092959891949750929550565b80516001600160801b038116811461205957600080fd5b600060208284031215612dae57600080fd5b610c4482612d85565b600060208284031215612dc957600080fd5b610c4482612cde565b60008160020b627fffff198103612deb57612deb612a47565b60000392915050565b600080600080600080600080610100898b031215612e1157600080fd5b612e1a89612d85565b9750602089015180600f0b8114612e3057600080fd5b80975050604089015195506060890151945060808901518060060b8114612e5657600080fd5b60a08a0151909450612e6781612631565b60c08a0151909350612e7881612646565b60e08a0151909250612e8981612658565b809150509295985092959890939650565b600081600f0b6f7fffffffffffffffffffffffffffffff198103612deb57612deb612a47565b60006001600160801b03808316818516808303821115612af057612af0612a47565b60006001600160801b0383811690831681811015612ac657612ac6612a47565b60008160020b8360020b6000811281627fffff1901831281151615612f2957612f29612a47565b81627fffff018313811615612f4057612f40612a47565b5090039392505050565b60008160020b8360020b80612f6157612f61612bb4565b627fffff19821460001982141615612f7b57612f7b612a47565b90059392505050565b60008260020b80612f9757612f97612bb4565b808360020b0791505092915050565b60008160020b627fffff198103612fbf57612fbf612a47565b6000190192915050565b600060208284031215612fdb57600080fd5b5051919050565b60008160020b8360020b627fffff60008213600084138383048511828216161561300e5761300e612a47565b627fffff19600085128281168783058712161561302d5761302d612a47565b6000871292508582058712848416161561304957613049612a47565b8585058712818416161561305f5761305f612a47565b5050509290910295945050505050565b600060ff821660ff84168082101561308957613089612a47565b90039392505050565b60008160020b8360020b6000821282627fffff038213811516156130b8576130b8612a47565b82627fffff190382128116156130d0576130d0612a47565b5001939250505056fea264697066735822122098f86e7381f5c21eacc6759cba621d8adaa25a26e4a8ba434f4e3afb67a96c7d64736f6c634300080d0033",
  "devdoc": {
    "kind": "dev",
    "methods": {},
    "version": 1
  },
  "userdoc": {
    "kind": "user",
    "methods": {},
    "version": 1
  },
  "storageLayout": {
    "storage": [
      {
        "astId": 28678,
        "contract": "contracts/utils/SwapSimulator.sol:SwapSimulator",
        "label": "_steps",
        "offset": 0,
        "slot": "0",
        "type": "t_array(t_struct(SwapStepAndState)28674_storage)dyn_storage"
      }
    ],
    "types": {
      "t_array(t_struct(SwapStepAndState)28674_storage)dyn_storage": {
        "base": "t_struct(SwapStepAndState)28674_storage",
        "encoding": "dynamic_array",
        "label": "struct SwapSimulator.SwapStepAndState[]",
        "numberOfBytes": "32"
      },
      "t_bool": {
        "encoding": "inplace",
        "label": "bool",
        "numberOfBytes": "1"
      },
      "t_int24": {
        "encoding": "inplace",
        "label": "int24",
        "numberOfBytes": "3"
      },
      "t_int256": {
        "encoding": "inplace",
        "label": "int256",
        "numberOfBytes": "32"
      },
      "t_struct(State)14205_storage": {
        "encoding": "inplace",
        "label": "struct SimulateSwap.State",
        "members": [
          {
            "astId": 14192,
            "contract": "contracts/utils/SwapSimulator.sol:SwapSimulator",
            "label": "amountSpecifiedRemaining",
            "offset": 0,
            "slot": "0",
            "type": "t_int256"
          },
          {
            "astId": 14194,
            "contract": "contracts/utils/SwapSimulator.sol:SwapSimulator",
            "label": "amountCalculated",
            "offset": 0,
            "slot": "1",
            "type": "t_int256"
          },
          {
            "astId": 14196,
            "contract": "contracts/utils/SwapSimulator.sol:SwapSimulator",
            "label": "sqrtPriceX96",
            "offset": 0,
            "slot": "2",
            "type": "t_uint160"
          },
          {
            "astId": 14198,
            "contract": "contracts/utils/SwapSimulator.sol:SwapSimulator",
            "label": "tick",
            "offset": 20,
            "slot": "2",
            "type": "t_int24"
          },
          {
            "astId": 14200,
            "contract": "contracts/utils/SwapSimulator.sol:SwapSimulator",
            "label": "feeGrowthGlobalIncreaseX128",
            "offset": 0,
            "slot": "3",
            "type": "t_uint256"
          },
          {
            "astId": 14202,
            "contract": "contracts/utils/SwapSimulator.sol:SwapSimulator",
            "label": "protocolFee",
            "offset": 0,
            "slot": "4",
            "type": "t_uint128"
          },
          {
            "astId": 14204,
            "contract": "contracts/utils/SwapSimulator.sol:SwapSimulator",
            "label": "liquidity",
            "offset": 16,
            "slot": "4",
            "type": "t_uint128"
          }
        ],
        "numberOfBytes": "160"
      },
      "t_struct(Step)14220_storage": {
        "encoding": "inplace",
        "label": "struct SimulateSwap.Step",
        "members": [
          {
            "astId": 14207,
            "contract": "contracts/utils/SwapSimulator.sol:SwapSimulator",
            "label": "sqrtPriceStartX96",
            "offset": 0,
            "slot": "0",
            "type": "t_uint160"
          },
          {
            "astId": 14209,
            "contract": "contracts/utils/SwapSimulator.sol:SwapSimulator",
            "label": "tickNext",
            "offset": 20,
            "slot": "0",
            "type": "t_int24"
          },
          {
            "astId": 14211,
            "contract": "contracts/utils/SwapSimulator.sol:SwapSimulator",
            "label": "initialized",
            "offset": 23,
            "slot": "0",
            "type": "t_bool"
          },
          {
            "astId": 14213,
            "contract": "contracts/utils/SwapSimulator.sol:SwapSimulator",
            "label": "sqrtPriceNextX96",
            "offset": 0,
            "slot": "1",
            "type": "t_uint160"
          },
          {
            "astId": 14215,
            "contract": "contracts/utils/SwapSimulator.sol:SwapSimulator",
            "label": "amountIn",
            "offset": 0,
            "slot": "2",
            "type": "t_uint256"
          },
          {
            "astId": 14217,
            "contract": "contracts/utils/SwapSimulator.sol:SwapSimulator",
            "label": "amountOut",
            "offset": 0,
            "slot": "3",
            "type": "t_uint256"
          },
          {
            "astId": 14219,
            "contract": "contracts/utils/SwapSimulator.sol:SwapSimulator",
            "label": "feeAmount",
            "offset": 0,
            "slot": "4",
            "type": "t_uint256"
          }
        ],
        "numberOfBytes": "160"
      },
      "t_struct(SwapStepAndState)28674_storage": {
        "encoding": "inplace",
        "label": "struct SwapSimulator.SwapStepAndState",
        "members": [
          {
            "astId": 28670,
            "contract": "contracts/utils/SwapSimulator.sol:SwapSimulator",
            "label": "step",
            "offset": 0,
            "slot": "0",
            "type": "t_struct(Step)14220_storage"
          },
          {
            "astId": 28673,
            "contract": "contracts/utils/SwapSimulator.sol:SwapSimulator",
            "label": "state",
            "offset": 0,
            "slot": "5",
            "type": "t_struct(State)14205_storage"
          }
        ],
        "numberOfBytes": "320"
      },
      "t_uint128": {
        "encoding": "inplace",
        "label": "uint128",
        "numberOfBytes": "16"
      },
      "t_uint160": {
        "encoding": "inplace",
        "label": "uint160",
        "numberOfBytes": "20"
      },
      "t_uint256": {
        "encoding": "inplace",
        "label": "uint256",
        "numberOfBytes": "32"
      }
    }
  }
}