{
  "address": "0x9994F1D4931bF26492669b830Ffc7724Ca12a105",
  "abi": [
    {
      "inputs": [
        {
          "internalType": "int24",
          "name": "tickLower",
          "type": "int24"
        },
        {
          "internalType": "int24",
          "name": "tickUpper",
          "type": "int24"
        }
      ],
      "name": "InvalidTicks",
      "type": "error"
    },
    {
      "inputs": [],
      "name": "NotClearingHouse",
      "type": "error"
    },
    {
      "inputs": [],
      "name": "NotGovernance",
      "type": "error"
    },
    {
      "inputs": [],
      "name": "NotUniswapV3Pool",
      "type": "error"
    },
    {
      "inputs": [],
      "name": "R",
      "type": "error"
    },
    {
      "inputs": [
        {
          "internalType": "uint128",
          "name": "value",
          "type": "uint128"
        }
      ],
      "name": "SafeCast_Int128Overflow",
      "type": "error"
    },
    {
      "inputs": [
        {
          "internalType": "uint256",
          "name": "value",
          "type": "uint256"
        }
      ],
      "name": "SafeCast_Int256Overflow",
      "type": "error"
    },
    {
      "inputs": [],
      "name": "T",
      "type": "error"
    },
    {
      "inputs": [],
      "name": "ZeroAmount",
      "type": "error"
    },
    {
      "anonymous": false,
      "inputs": [
        {
          "indexed": false,
          "internalType": "uint256",
          "name": "amount",
          "type": "uint256"
        }
      ],
      "name": "AccruedProtocolFeeCollected",
      "type": "event"
    },
    {
      "anonymous": false,
      "inputs": [
        {
          "indexed": false,
          "internalType": "int24",
          "name": "tickLower",
          "type": "int24"
        },
        {
          "indexed": false,
          "internalType": "int24",
          "name": "tickUpper",
          "type": "int24"
        },
        {
          "indexed": false,
          "internalType": "uint128",
          "name": "liquidity",
          "type": "uint128"
        },
        {
          "indexed": false,
          "internalType": "uint256",
          "name": "vTokenPrincipal",
          "type": "uint256"
        },
        {
          "indexed": false,
          "internalType": "uint256",
          "name": "vQuotePrincipal",
          "type": "uint256"
        }
      ],
      "name": "Burn",
      "type": "event"
    },
    {
      "anonymous": false,
      "inputs": [
        {
          "indexed": false,
          "internalType": "uint24",
          "name": "liquidityFeePips",
          "type": "uint24"
        }
      ],
      "name": "LiquidityFeeUpdated",
      "type": "event"
    },
    {
      "anonymous": false,
      "inputs": [
        {
          "indexed": false,
          "internalType": "int24",
          "name": "tickLower",
          "type": "int24"
        },
        {
          "indexed": false,
          "internalType": "int24",
          "name": "tickUpper",
          "type": "int24"
        },
        {
          "indexed": false,
          "internalType": "uint128",
          "name": "liquidity",
          "type": "uint128"
        },
        {
          "indexed": false,
          "internalType": "uint256",
          "name": "vTokenPrincipal",
          "type": "uint256"
        },
        {
          "indexed": false,
          "internalType": "uint256",
          "name": "vQuotePrincipal",
          "type": "uint256"
        }
      ],
      "name": "Mint",
      "type": "event"
    },
    {
      "anonymous": false,
      "inputs": [
        {
          "indexed": false,
          "internalType": "uint24",
          "name": "protocolFeePips",
          "type": "uint24"
        }
      ],
      "name": "ProtocolFeeUpdated",
      "type": "event"
    },
    {
      "anonymous": false,
      "inputs": [
        {
          "indexed": false,
          "internalType": "int256",
          "name": "vTokenIn",
          "type": "int256"
        },
        {
          "indexed": false,
          "internalType": "int256",
          "name": "vQuoteIn",
          "type": "int256"
        },
        {
          "indexed": false,
          "internalType": "uint256",
          "name": "liquidityFees",
          "type": "uint256"
        },
        {
          "indexed": false,
          "internalType": "uint256",
          "name": "protocolFees",
          "type": "uint256"
        }
      ],
      "name": "Swap",
      "type": "event"
    },
    {
      "inputs": [
        {
          "components": [
            {
              "internalType": "contract IClearingHouse",
              "name": "clearingHouse",
              "type": "address"
            },
            {
              "internalType": "contract IVToken",
              "name": "vToken",
              "type": "address"
            },
            {
              "internalType": "contract IVQuote",
              "name": "vQuote",
              "type": "address"
            },
            {
              "internalType": "contract IUniswapV3Pool",
              "name": "vPool",
              "type": "address"
            },
            {
              "internalType": "uint24",
              "name": "liquidityFeePips",
              "type": "uint24"
            },
            {
              "internalType": "uint24",
              "name": "protocolFeePips",
              "type": "uint24"
            }
          ],
          "internalType": "struct IVPoolWrapper.InitializeVPoolWrapperParams",
          "name": "params",
          "type": "tuple"
        }
      ],
      "name": "__initialize_VPoolWrapper",
      "outputs": [],
      "stateMutability": "nonpayable",
      "type": "function"
    },
    {
      "inputs": [],
      "name": "accruedProtocolFee",
      "outputs": [
        {
          "internalType": "uint256",
          "name": "",
          "type": "uint256"
        }
      ],
      "stateMutability": "view",
      "type": "function"
    },
    {
      "inputs": [
        {
          "internalType": "int24",
          "name": "tickLower",
          "type": "int24"
        },
        {
          "internalType": "int24",
          "name": "tickUpper",
          "type": "int24"
        },
        {
          "internalType": "uint128",
          "name": "liquidity",
          "type": "uint128"
        }
      ],
      "name": "burn",
      "outputs": [
        {
          "internalType": "uint256",
          "name": "vTokenPrincipal",
          "type": "uint256"
        },
        {
          "internalType": "uint256",
          "name": "vQuotePrincipal",
          "type": "uint256"
        },
        {
          "components": [
            {
              "internalType": "int256",
              "name": "sumAX128",
              "type": "int256"
            },
            {
              "internalType": "int256",
              "name": "sumBInsideX128",
              "type": "int256"
            },
            {
              "internalType": "int256",
              "name": "sumFpInsideX128",
              "type": "int256"
            },
            {
              "internalType": "uint256",
              "name": "sumFeeInsideX128",
              "type": "uint256"
            }
          ],
          "internalType": "struct IVPoolWrapper.WrapperValuesInside",
          "name": "wrapperValuesInside",
          "type": "tuple"
        }
      ],
      "stateMutability": "nonpayable",
      "type": "function"
    },
    {
      "inputs": [],
      "name": "clearingHouse",
      "outputs": [
        {
          "internalType": "contract IClearingHouse",
          "name": "",
          "type": "address"
        }
      ],
      "stateMutability": "view",
      "type": "function"
    },
    {
      "inputs": [],
      "name": "collectAccruedProtocolFee",
      "outputs": [
        {
          "internalType": "uint256",
          "name": "accruedProtocolFeeLast",
          "type": "uint256"
        }
      ],
      "stateMutability": "nonpayable",
      "type": "function"
    },
    {
      "inputs": [
        {
          "internalType": "bytes32",
          "name": "slot",
          "type": "bytes32"
        }
      ],
      "name": "extsload",
      "outputs": [
        {
          "internalType": "bytes32",
          "name": "val",
          "type": "bytes32"
        }
      ],
      "stateMutability": "view",
      "type": "function"
    },
    {
      "inputs": [
        {
          "internalType": "bytes32[]",
          "name": "slots",
          "type": "bytes32[]"
        }
      ],
      "name": "extsload",
      "outputs": [
        {
          "internalType": "bytes32[]",
          "name": "",
          "type": "bytes32[]"
        }
      ],
      "stateMutability": "view",
      "type": "function"
    },
    {
      "inputs": [],
      "name": "fpGlobal",
      "outputs": [
        {
          "internalType": "int256",
          "name": "sumAX128",
          "type": "int256"
        },
        {
          "internalType": "int256",
          "name": "sumBX128",
          "type": "int256"
        },
        {
          "internalType": "int256",
          "name": "sumFpX128",
          "type": "int256"
        },
        {
          "internalType": "uint48",
          "name": "timestampLast",
          "type": "uint48"
        }
      ],
      "stateMutability": "view",
      "type": "function"
    },
    {
      "inputs": [],
      "name": "getExtrapolatedSumAX128",
      "outputs": [
        {
          "internalType": "int256",
          "name": "",
          "type": "int256"
        }
      ],
      "stateMutability": "view",
      "type": "function"
    },
    {
      "inputs": [
        {
          "internalType": "int24",
          "name": "tickLower",
          "type": "int24"
        },
        {
          "internalType": "int24",
          "name": "tickUpper",
          "type": "int24"
        }
      ],
      "name": "getExtrapolatedValuesInside",
      "outputs": [
        {
          "components": [
            {
              "internalType": "int256",
              "name": "sumAX128",
              "type": "int256"
            },
            {
              "internalType": "int256",
              "name": "sumBInsideX128",
              "type": "int256"
            },
            {
              "internalType": "int256",
              "name": "sumFpInsideX128",
              "type": "int256"
            },
            {
              "internalType": "uint256",
              "name": "sumFeeInsideX128",
              "type": "uint256"
            }
          ],
          "internalType": "struct IVPoolWrapper.WrapperValuesInside",
          "name": "wrapperValuesInside",
          "type": "tuple"
        }
      ],
      "stateMutability": "view",
      "type": "function"
    },
    {
      "inputs": [],
      "name": "getSumAX128",
      "outputs": [
        {
          "internalType": "int256",
          "name": "",
          "type": "int256"
        }
      ],
      "stateMutability": "view",
      "type": "function"
    },
    {
      "inputs": [
        {
          "internalType": "int24",
          "name": "tickLower",
          "type": "int24"
        },
        {
          "internalType": "int24",
          "name": "tickUpper",
          "type": "int24"
        }
      ],
      "name": "getValuesInside",
      "outputs": [
        {
          "components": [
            {
              "internalType": "int256",
              "name": "sumAX128",
              "type": "int256"
            },
            {
              "internalType": "int256",
              "name": "sumBInsideX128",
              "type": "int256"
            },
            {
              "internalType": "int256",
              "name": "sumFpInsideX128",
              "type": "int256"
            },
            {
              "internalType": "uint256",
              "name": "sumFeeInsideX128",
              "type": "uint256"
            }
          ],
          "internalType": "struct IVPoolWrapper.WrapperValuesInside",
          "name": "wrapperValuesInside",
          "type": "tuple"
        }
      ],
      "stateMutability": "view",
      "type": "function"
    },
    {
      "inputs": [],
      "name": "liquidityFeePips",
      "outputs": [
        {
          "internalType": "uint24",
          "name": "",
          "type": "uint24"
        }
      ],
      "stateMutability": "view",
      "type": "function"
    },
    {
      "inputs": [
        {
          "internalType": "int24",
          "name": "tickLower",
          "type": "int24"
        },
        {
          "internalType": "int24",
          "name": "tickUpper",
          "type": "int24"
        },
        {
          "internalType": "uint128",
          "name": "liquidity",
          "type": "uint128"
        }
      ],
      "name": "mint",
      "outputs": [
        {
          "internalType": "uint256",
          "name": "vTokenPrincipal",
          "type": "uint256"
        },
        {
          "internalType": "uint256",
          "name": "vQuotePrincipal",
          "type": "uint256"
        },
        {
          "components": [
            {
              "internalType": "int256",
              "name": "sumAX128",
              "type": "int256"
            },
            {
              "internalType": "int256",
              "name": "sumBInsideX128",
              "type": "int256"
            },
            {
              "internalType": "int256",
              "name": "sumFpInsideX128",
              "type": "int256"
            },
            {
              "internalType": "uint256",
              "name": "sumFeeInsideX128",
              "type": "uint256"
            }
          ],
          "internalType": "struct IVPoolWrapper.WrapperValuesInside",
          "name": "wrapperValuesInside",
          "type": "tuple"
        }
      ],
      "stateMutability": "nonpayable",
      "type": "function"
    },
    {
      "inputs": [],
      "name": "protocolFeePips",
      "outputs": [
        {
          "internalType": "uint24",
          "name": "",
          "type": "uint24"
        }
      ],
      "stateMutability": "view",
      "type": "function"
    },
    {
      "inputs": [
        {
          "internalType": "uint24",
          "name": "liquidityFeePips_",
          "type": "uint24"
        }
      ],
      "name": "setLiquidityFee",
      "outputs": [],
      "stateMutability": "nonpayable",
      "type": "function"
    },
    {
      "inputs": [
        {
          "internalType": "uint24",
          "name": "protocolFeePips_",
          "type": "uint24"
        }
      ],
      "name": "setProtocolFee",
      "outputs": [],
      "stateMutability": "nonpayable",
      "type": "function"
    },
    {
      "inputs": [],
      "name": "sumFeeGlobalX128",
      "outputs": [
        {
          "internalType": "uint256",
          "name": "",
          "type": "uint256"
        }
      ],
      "stateMutability": "view",
      "type": "function"
    },
    {
      "inputs": [
        {
          "internalType": "bool",
          "name": "swapVTokenForVQuote",
          "type": "bool"
        },
        {
          "internalType": "int256",
          "name": "amountSpecified",
          "type": "int256"
        },
        {
          "internalType": "uint160",
          "name": "sqrtPriceLimitX96",
          "type": "uint160"
        }
      ],
      "name": "swap",
      "outputs": [
        {
          "internalType": "int256",
          "name": "vTokenAmount",
          "type": "int256"
        },
        {
          "internalType": "int256",
          "name": "vQuoteAmount",
          "type": "int256"
        }
      ],
      "stateMutability": "nonpayable",
      "type": "function"
    },
    {
      "inputs": [
        {
          "internalType": "int24",
          "name": "",
          "type": "int24"
        }
      ],
      "name": "ticksExtended",
      "outputs": [
        {
          "internalType": "int256",
          "name": "sumALastX128",
          "type": "int256"
        },
        {
          "internalType": "int256",
          "name": "sumBOutsideX128",
          "type": "int256"
        },
        {
          "internalType": "int256",
          "name": "sumFpOutsideX128",
          "type": "int256"
        },
        {
          "internalType": "uint256",
          "name": "sumFeeOutsideX128",
          "type": "uint256"
        }
      ],
      "stateMutability": "view",
      "type": "function"
    },
    {
      "inputs": [
        {
          "internalType": "uint256",
          "name": "vTokenAmount",
          "type": "uint256"
        },
        {
          "internalType": "uint256",
          "name": "vQuoteAmount",
          "type": "uint256"
        },
        {
          "internalType": "bytes",
          "name": "",
          "type": "bytes"
        }
      ],
      "name": "uniswapV3MintCallback",
      "outputs": [],
      "stateMutability": "nonpayable",
      "type": "function"
    },
    {
      "inputs": [
        {
          "internalType": "int256",
          "name": "amount0Delta",
          "type": "int256"
        },
        {
          "internalType": "int256",
          "name": "amount1Delta",
          "type": "int256"
        },
        {
          "internalType": "bytes",
          "name": "",
          "type": "bytes"
        }
      ],
      "name": "uniswapV3SwapCallback",
      "outputs": [],
      "stateMutability": "nonpayable",
      "type": "function"
    },
    {
      "inputs": [],
      "name": "updateGlobalFundingState",
      "outputs": [],
      "stateMutability": "nonpayable",
      "type": "function"
    },
    {
      "inputs": [],
      "name": "vPool",
      "outputs": [
        {
          "internalType": "contract IUniswapV3Pool",
          "name": "",
          "type": "address"
        }
      ],
      "stateMutability": "view",
      "type": "function"
    },
    {
      "inputs": [],
      "name": "vQuote",
      "outputs": [
        {
          "internalType": "contract IVQuote",
          "name": "",
          "type": "address"
        }
      ],
      "stateMutability": "view",
      "type": "function"
    },
    {
      "inputs": [],
      "name": "vToken",
      "outputs": [
        {
          "internalType": "contract IVToken",
          "name": "",
          "type": "address"
        }
      ],
      "stateMutability": "view",
      "type": "function"
    }
  ],
  "transactionHash": "0x9f863f9b87aa9f50f587a224f4baf4f5f8391abf4f35cd2b19dd2556bc185340",
  "args": [],
  "numDeployments": 1,
  "solcInputHash": "97c2ac41bdbb1817cc5efce63d1431e3",
  "bytecode": "0x608060405234801561001057600080fd5b506149bc806100206000396000f3fe608060405234801561001057600080fd5b506004361061018e5760003560e01c806386c8e9a7116100de578063acfd792811610097578063dbd035ff11610071578063dbd035ff146103e4578063dee4c1a614610404578063fa461e3314610417578063fca6fbf21461042a57600080fd5b8063acfd7928146103bf578063c04b98c4146103c8578063d3487997146103d157600080fd5b806386c8e9a7146103415780638b1e97811461036b5780639bb1a99c1461037e578063a34123a714610391578063a3a1e7e9146103a4578063a3c35e2c146103ac57600080fd5b806348aaa8c01161014b5780636719578c116101255780636719578c146102cd5780636c544335146102e05780637779815c146103265780637feedaa11461032e57600080fd5b806348aaa8c01461025d5780634bc36bd6146102b25780635e622abc146102c557600080fd5b80630af9680014610193578063195cd92c146101c95780631dce5fcf146101f15780631e2eaeaf146102135780632a99a7921461023357806333f9096314610253575b600080fd5b6000546101ac906201000090046001600160a01b031681565b6040516001600160a01b0390911681526020015b60405180910390f35b6101dc6101d7366004613eb6565b610440565b604080519283526020830191909152016101c0565b6102046101ff366004613f1c565b6107b2565b6040516101c093929190613f5c565b610225610221366004613f98565b5490565b6040519081526020016101c0565b610246610241366004613fb1565b610997565b6040516101c09190613fea565b61025b610ac3565b005b61029261026b366004614015565b600a6020526000908152604090208054600182015460028301546003909301549192909184565b6040805194855260208501939093529183015260608201526080016101c0565b6002546101ac906001600160a01b031681565b610225610b75565b6003546101ac906001600160a01b031681565b6005546006546007546008546102fe9392919065ffffffffffff1684565b6040805194855260208501939093529183015265ffffffffffff1660608201526080016101c0565b600554610225565b61025b61033c366004614043565b610bf4565b60035461035790600160a01b900462ffffff1681565b60405162ffffff90911681526020016101c0565b61025b610379366004614043565b610cf5565b6001546101ac906001600160a01b031681565b61020461039f366004613f1c565b610def565b610225610fb9565b6102466103ba366004613fb1565b611072565b61022560045481565b61022560095481565b61025b6103df3660046140a2565b61120f565b6103f76103f236600461410b565b611317565b6040516101c091906141c9565b61025b61041236600461420d565b611345565b61025b6104253660046140a2565b61153b565b60035461035790600160b81b900462ffffff1681565b6000805481906201000090046001600160a01b0316331461047457604051638597d08b60e01b815260040160405180910390fd5b60008412156001600160a01b0384166104c357856104b0576104ab600173fffd8963efd1fc6a506488495d951d5263988d2661423b565b6104c0565b6104c06401000276a36001614263565b93505b6104f56040518060a0016040528060008152602001600081526020016000815260200160008152602001600081525090565b85815260035461052390839089906101f49062ffffff600160a01b8204811691600160b81b90041686611704565b60408051610100810182526000808252602082018190529181018290526060810182905260c0810182905260e08101829052600a60808201526101f460a082015290546001546001600160a01b036201000090920482169163da0479969161058b91166117af565b6040516001600160e01b031960e084901b16815263ffffffff9190911660048201526024016040805180830381865afa1580156105cc573d6000803e3d6000fd5b505050506040513d601f19601f820116820180604052508101906105f0919061428e565b60e083015260c082015281516003546000918291610620916001600160a01b03909116908c908b876117bf611937565b6003548651604051630251596160e31b81523060048201528e1515602482015260448101919091526001600160a01b038c8116606483015260a06084830152600060a4830152939550919350919091169063128acb089060c40160408051808303816000875af1158015610698573d6000803e3d6000fd5b505050506040513d601f19601f820116820180604052508101906106bc919061428e565b604086015260208501819052821480156106d95750836040015181145b6106e5576106e56142b2565b50506003546107139150839089906101f49062ffffff600160a01b8204811691600160b81b9004168661209a565b80608001516004600082825461072991906142c8565b9091555061073790506121aa565b7fb0ecd2f0335c5433548e5039eef18bcfbe9cd48abfb781dfa0cc522164cb876f8160200151826040015183606001518460800151604051610792949392919093845260208401929092526040830152606082015260800190565b60405180910390a180602001518160400151935093505050935093915050565b6000806107e06040518060800160405280600081526020016000815260200160008152602001600081525090565b6000546201000090046001600160a01b0316331461081157604051638597d08b60e01b815260040160405180910390fd5b85858060020b8260020b12158061082f5750620d89e719600283900b125b8061084b5750610842620d89e7196142e0565b60020b8160020b135b80610862575061085c600a83614319565b60020b15155b806108795750610873600a82614319565b60020b15155b156108aa5760405163957b5ed560e01b8152600283810b600483015282900b60248201526044015b60405180910390fd5b6108b2610ac3565b6108e388886108c9896001600160801b031661234d565b6003546108de906001600160a01b031661238b565b6123fc565b600354604051633c8a7d8d60e01b815230600482015260028b810b60248301528a900b60448201526001600160801b038916606482015260a06084820152600060a4820181905292955082916001600160a01b031690633c8a7d8d9060c40160408051808303816000875af1158015610960573d6000803e3d6000fd5b505050506040513d601f19601f82011682018060405250810190610984919061428e565b909b909a50949850939650505050505050565b6109c26040518060800160405280600081526020016000815260200160008152602001600081525090565b60035460408051633850c7bd60e01b815290516000926001600160a01b031691633850c7bd9160048083019260e09291908290030181865afa158015610a0c573d6000803e3d6000fd5b505050506040513d601f19601f82011682018060405250810190610a309190614358565b505060408051608081018252600554815260065460208201526007549181019190915260085465ffffffffffff166060820152939550929350610a769250610fb9915050565b808252600554600654600754610a8b9361254d565b604082015280518352600954610aab90600a90879087908690869061257d565b60608601526040850152602084015250909392505050565b6000805460015482916001600160a01b036201000090910481169163da04799691610aee91166117af565b6040516001600160e01b031960e084901b16815263ffffffff9190911660048201526024016040805180830381865afa158015610b2f573d6000803e3d6000fd5b505050506040513d601f19601f82011682018060405250810190610b53919061428e565b91509150610b7160006001610b654290565b600592919086866126d5565b5050565b600080546201000090046001600160a01b03163314610ba757604051638597d08b60e01b815260040160405180910390fd5b6001600454610bb691906143f0565b60016004556040518181529091507f889bbef14ccbbb6f97773359c9c09396f67ed97695236771816a304ec5d886119060200160405180910390a190565b600060029054906101000a90046001600160a01b03166001600160a01b0316635aa6e6756040518163ffffffff1660e01b8152600401602060405180830381865afa158015610c47573d6000803e3d6000fd5b505050506040513d601f19601f82011682018060405250810190610c6b9190614407565b6001600160a01b0316336001600160a01b031614610c9c57604051632d5be4cb60e21b815260040160405180910390fd5b6003805462ffffff60b81b1916600160b81b62ffffff8416908102919091179091556040519081527f2edf7eef14cb246dab2aac555e300928981632918159d9e33fcaa24dcd38cb40906020015b60405180910390a150565b600060029054906101000a90046001600160a01b03166001600160a01b0316635aa6e6756040518163ffffffff1660e01b8152600401602060405180830381865afa158015610d48573d6000803e3d6000fd5b505050506040513d601f19601f82011682018060405250810190610d6c9190614407565b6001600160a01b0316336001600160a01b031614610d9d57604051632d5be4cb60e21b815260040160405180910390fd5b6003805462ffffff60a01b1916600160a01b62ffffff8416908102919091179091556040519081527f5e286c9a939d59334080ddf15517957037c2228384e26bb92a368ce44c531edd90602001610cea565b600080610e1d6040518060800160405280600081526020016000815260200160008152602001600081525090565b6000546201000090046001600160a01b03163314610e4e57604051638597d08b60e01b815260040160405180910390fd5b85858060020b8260020b121580610e6c5750620d89e719600283900b125b80610e885750610e7f620d89e7196142e0565b60020b8160020b135b80610e9f5750610e99600a83614319565b60020b15155b80610eb65750610eb0600a82614319565b60020b15155b15610ee25760405163957b5ed560e01b8152600283810b600483015282900b60248201526044016108a1565b610eea610ac3565b610f0a8888610f01896001600160801b031661234d565b6108c990614424565b60035460405163a34123a760e01b815260028b810b60048301528a900b60248201526001600160801b038916604482015291945060009182916001600160a01b03169063a34123a79060640160408051808303816000875af1158015610f74573d6000803e3d6000fd5b505050506040513d601f19601f82011682018060405250810190610f98919061428e565b91509150819650809550610fac8a8a6127e6565b5050505093509350939050565b60008054600154829182916001600160a01b036201000090920482169163da04799691610fe691166117af565b6040516001600160e01b031960e084901b16815263ffffffff9190911660048201526024016040805180830381865afa158015611027573d6000803e3d6000fd5b505050506040513d601f19601f8201168201806040525081019061104b919061428e565b60055460085492945090925061106b9165ffffffffffff16428585612883565b9250505090565b61109d6040518060800160405280600081526020016000815260200160008152602001600081525090565b82828060020b8260020b1215806110bb5750620d89e719600283900b125b806110d757506110ce620d89e7196142e0565b60020b8160020b135b806110ee57506110e8600a83614319565b60020b15155b8061110557506110ff600a82614319565b60020b15155b156111315760405163957b5ed560e01b8152600283810b600483015282900b60248201526044016108a1565b60035460408051633850c7bd60e01b815290516000926001600160a01b031691633850c7bd9160048083019260e09291908290030181865afa15801561117b573d6000803e3d6000fd5b505050506040513d601f19601f8201168201806040525081019061119f9190614358565b50506040805160808101825260055480825260065460208301526007549282019290925260085465ffffffffffff166060820152908a5260095494965094506111f593600a93508b92508a91508690869061257d565b606088015260408701526020860152509295945050505050565b6003546001600160a01b0316331461123a576040516308458b2b60e21b815260040160405180910390fd5b82156112a5576002546040516340c10f1960e01b8152336004820152602481018590526001600160a01b03909116906340c10f1990604401600060405180830381600087803b15801561128c57600080fd5b505af11580156112a0573d6000803e3d6000fd5b505050505b8315611311576001546040516340c10f1960e01b8152336004820152602481018690526001600160a01b03909116906340c10f19906044015b600060405180830381600087803b1580156112f857600080fd5b505af115801561130c573d6000803e3d6000fd5b505050505b50505050565b606060208251028201602001602083015b8181101561133d578051548152602001611328565b509192915050565b600054610100900460ff166113605760005460ff1615611364565b303b155b6113c75760405162461bcd60e51b815260206004820152602e60248201527f496e697469616c697a61626c653a20636f6e747261637420697320616c72656160448201526d191e481a5b9a5d1a585b1a5e995960921b60648201526084016108a1565b600054610100900460ff161580156113e9576000805461ffff19166101011790555b6113f6602083018361444b565b600080546001600160a01b0392909216620100000262010000600160b01b031990921691909117905561142f604083016020840161444b565b600180546001600160a01b0319166001600160a01b039290921691909117905561145f606083016040840161444b565b600280546001600160a01b0319166001600160a01b039290921691909117905561148f608083016060840161444b565b600380546001600160a01b0319166001600160a01b03929092169190911790556114bf60a0830160808401614043565b6003805462ffffff92909216600160a01b0262ffffff60a01b199092169190911790556114f260c0830160a08401614043565b6003805462ffffff92909216600160b81b0262ffffff60b81b199092169190911790556115266005600060014281806126d5565b8015610b71576000805461ff00191690555050565b6003546001600160a01b03163314611566576040516308458b2b60e21b815260040160405180910390fd5b600084131561164c57600360009054906101000a90046001600160a01b03166001600160a01b0316630dfe16816040518163ffffffff1660e01b8152600401602060405180830381865afa1580156115c2573d6000803e3d6000fd5b505050506040513d601f19601f820116820180604052508101906115e69190614407565b6003546040516340c10f1960e01b81526001600160a01b039182166004820152602481018790529116906340c10f1990604401600060405180830381600087803b15801561163357600080fd5b505af1158015611647573d6000803e3d6000fd5b505050505b600083131561131157600360009054906101000a90046001600160a01b03166001600160a01b031663d21220a76040518163ffffffff1660e01b8152600401602060405180830381865afa1580156116a8573d6000803e3d6000fd5b505050506040513d601f19601f820116820180604052508101906116cc9190614407565b6003546040516340c10f1960e01b81526001600160a01b039182166004820152602481018690529116906340c10f19906044016112de565b851561176557841561172357805161171c90856128a5565b81526117a7565b805161173290600285856128e8565b60808301819052606083018290528251611758929091611751916142c8565b6001612a15565b80825261171c90856128a5565b8461176f576117a7565b805161177e90600185856128e8565b608083018190526060830182905282516117a492909161179d916142c8565b6000612a15565b81525b505050505050565b600063ffffffff82165b92915050565b600080856117d6578260a0015183608001516117e1565b82608001518360a001515b9150915060006118146117f383612a5a565b60035460009062ffffff600160a01b8204811691600160b81b9004166128e8565b50905060008560c001516001600160801b03161180156118345750600083115b156118bc57611886876118585761184a84612a5a565b61185390614468565b611861565b61186184612a5a565b60c08701516001600160801b03164260c08a015160e08b0151600594939291906126d5565b60c08501516118a5908290600160801b906001600160801b0316612a83565b600960008282546118b691906142c8565b90915550505b83606001516001600160a01b031685604001516001600160a01b0316141561192e5783604001511561192e57602080850151604080516080810182526005548152600654938101939093526007549083015260085465ffffffffffff16606083015260095461192e92600a9291612b36565b50505050505050565b6000808561195857604051631f2a200560e01b815260040160405180910390fd5b876001600160a01b0316633850c7bd6040518163ffffffff1660e01b815260040160e060405180830381865afa158015611996573d6000803e3d6000fd5b505050506040513d601f19601f820116820180604052508101906119ba9190614358565b5060ff166040808b019190915260029490940b6020808b01919091526001600160a01b039586168a528451630d34328160e11b81529451958e1695631a68650295600480820196509294509092508290030181865afa158015611a21573d6000803e3d6000fd5b505050506040513d601f19601f82011682018060405250810190611a459190614485565b6001600160801b03166060850152608084015160020b611b3d57876001600160a01b031663ddca3f436040518163ffffffff1660e01b8152600401602060405180830381865afa158015611a9d573d6000803e3d6000fd5b505050506040513d601f19601f82011682018060405250810190611ac191906144a2565b62ffffff1660a0850152604080516334324e9f60e21b815290516001600160a01b038a169163d0c93a7c9160048083019260209291908290030181865afa158015611b10573d6000803e3d6000fd5b505050506040513d601f19601f82011682018060405250810190611b3491906144bf565b60020b60808501525b86611b885783600001516001600160a01b0316856001600160a01b0316118015611b83575073fffd8963efd1fc6a506488495d951d5263988d266001600160a01b038616105b611bba565b83600001516001600160a01b0316856001600160a01b0316108015611bba57506401000276a36001600160a01b038616115b611bec5760405162461bcd60e51b815260206004820152600360248201526214d41360ea1b60448201526064016108a1565b6000808713905060006040518060e001604052808981526020016000815260200187600001516001600160a01b03168152602001876020015160020b81526020016000815260200160006001600160801b0316815260200187606001516001600160801b031681525090505b805115801590611c7e5750866001600160a01b031681604001516001600160a01b031614155b15612056576040805160e081018252600080825260208201819052918101829052606081018290526080810182905260a0810182905260c081019190915260408201516001600160a01b03908116825260608301516080890151611ceb928e1691635339c296918e612bb7565b1515604083015260020b60208201819052620d89e7191315611d1657620d89e7196020820152611d4a565b611d23620d89e7196142e0565b60020b816020015160020b1315611d4a57611d41620d89e7196142e0565b60020b60208201525b611d578160200151612e23565b6001600160a01b031660608201526040820151611dcc908b611d9157896001600160a01b031683606001516001600160a01b031611611dab565b896001600160a01b031683606001516001600160a01b0316105b611db9578260600151611dbb565b895b60c0850151855160a08c0151613143565b60c085015260a084015260808301526001600160a01b031660408301528215611e4457611e0b8160c001518260800151611e0691906142c8565b613335565b82518390611e1a9083906144dc565b90525060a0810151611e2b90613335565b8260200151611e3a91906144dc565b6020830152611e8f565b611e518160a00151613335565b82518390611e6090839061451b565b90525060c08101516080820151611e7a91611e06916142c8565b8260200151611e89919061451b565b60208301525b60c08201516001600160801b031615611ed757611ec28160c00151600160801b8460c001516001600160801b0316612a83565b82608001818151611ed391906142c8565b9052505b611ee78a8884848a63ffffffff16565b80606001516001600160a01b031682604001516001600160a01b0316141561201957806040015115611fec57602081015160405163f30dba9360e01b815260029190910b60048201526000906001600160a01b038d169063f30dba939060240161010060405180830381865afa158015611f65573d6000803e3d6000fd5b505050506040513d601f19601f82011682018060405250810190611f89919061455c565b5050505050509150508a15611fa457611fa181614424565b90505b600081600f0b12611fc457808360c00151611fbf919061460a565b611fdc565b611fcd81614424565b8360c00151611fdc919061462c565b6001600160801b031660c0840152505b89611ffb57806020015161200c565b6001816020015161200c919061464c565b60020b6060830152612050565b80600001516001600160a01b031682604001516001600160a01b031614612050576120478260400151613347565b60020b60608301525b50611c58565b811515891515146120775760208101518151612072908a6144dc565b612089565b805161208390896144dc565b81602001515b935093505050965096945050505050565b85156121245784156120f7576120b481602001518561364d565b602082015260408101516120cb90600085856128e8565b608083018190526060830182905260408301516120ed929091611751916142c8565b60408201526117a7565b61210581604001518561364d565b60408201819052608082015160608301516120ed929161179d916142c8565b8461216d5761213781604001518561364d565b6040820181905261214b90600085856128e8565b608083018190526060830182905260408301516120ed92909161179d916142c8565b61217b81602001518561364d565b602082015260408101516080820151606083015161219d9291611751916142c8565b6040820152505050505050565b6002546040516370a0823160e01b81523060048201526000916001600160a01b0316906370a0823190602401602060405180830381865afa1580156121f3573d6000803e3d6000fd5b505050506040513d601f19601f820116820180604052508101906122179190614694565b9050801561227e57600254604051630852cd8d60e31b8152600481018390526001600160a01b03909116906342966c6890602401600060405180830381600087803b15801561226557600080fd5b505af1158015612279573d6000803e3d6000fd5b505050505b6001546040516370a0823160e01b81523060048201526000916001600160a01b0316906370a0823190602401602060405180830381865afa1580156122c7573d6000803e3d6000fd5b505050506040513d601f19601f820116820180604052508101906122eb9190614694565b90508015610b7157600154604051630852cd8d60e31b8152600481018390526001600160a01b03909116906342966c6890602401600060405180830381600087803b15801561233957600080fd5b505af11580156117a7573d6000803e3d6000fd5b60006001607f1b826001600160801b0316106123875760405163832da39d60e01b81526001600160801b03831660048201526024016108a1565b5090565b6000816001600160a01b0316633850c7bd6040518163ffffffff1660e01b815260040160e060405180830381865afa1580156123cb573d6000803e3d6000fd5b505050506040513d601f19601f820116820180604052508101906123ef9190614358565b5093979650505050505050565b6124276040518060800160405280600081526020016000815260200160008152602001600081525090565b60408051608081018252600554815260065460208201526007549181019190915260085465ffffffffffff166060820152600954600080600f87900b156124c95783516020850151604086015160035461249793600a938e938c938e939291908b906001600160a01b0316613674565b8451602086015160408701516003549395506124c693600a938d938c938e938b906001600160a01b0316613674565b90505b6124d38989611072565b9450600087600f0b121561254157811561251157600289810b6000908152600a60205260408120818155600181018290559182018190556003909101555b801561254157600288810b6000908152600a60205260408120818155600181018290559182018190556003909101555b50505050949350505050565b600061256861255c86846144dc565b8590600160801b613780565b612572908461451b565b90505b949350505050565b600285810b60009081526020889052604080822087840b83529082206001820154825494830154875194958695869594939286926125be929091859161254d565b90506000846003015490508a60020b8d60020b131561260857828a602001516125e791906144dc565b9250818a604001516125f991906144dc565b9150612605818a6143f0565b90505b6001840154845460028601548c5160009261262792909185919061254d565b90506000866003015490508d60020b8f60020b1361267057828d6020015161264f91906144dc565b9250818d6040015161266191906144dc565b915061266d818d6143f0565b90505b82868e6020015161268191906144dc565b61268b91906144dc565b9a5081858e6040015161269e91906144dc565b6126a891906144dc565b9950806126b5858e6143f0565b6126bf91906143f0565b9850505050505050505096509650969350505050565b60038601546000906126f19065ffffffffffff168585856137dd565b6001880154909150612709908290600160801b61380c565b87600201600082825461271c919061451b565b909155505086548190889060009061273590849061451b565b9091555061274a905086600160801b87613780565b87600101600082825461275d919061451b565b909155505060038701805465ffffffffffff861665ffffffffffff199091168117909155604080518954815260018a0154602082015260028a01548183015260608101929092526080820185905260a08201849052517faa55fabd6f264910ebc37d1f213e504b0952aeed471eac51bb24a792cf40ce789181900360c00190a150505050505050565b6003546040516309e3d67b60e31b8152306004820152600284810b602483015283900b60448201526001600160801b036064820181905260848201526001600160a01b0390911690634f1eb3d89060a40160408051808303816000875af1158015612855573d6000803e3d6000fd5b505050506040513d601f19601f8201168201806040525081019061287991906146ad565b5050610b716121aa565b6000612891858585856137dd565b61289b908761451b565b9695505050505050565b6000806128b583620f42406146dc565b60020b6128c762ffffff8516866146f8565b6128d1919061477d565b6128dc90600161451b565b9050612575818561451b565b60008060006128f68761385a565b9050600186600281111561290c5761290c6147ab565b141561294d578361292086620f42406146dc565b61292a91906146dc565b62ffffff1661293c82620f42406147c1565b61294691906147e0565b905061299e565b6002866002811115612961576129616147ab565b141561299e578361297586620f42406147f4565b61297f91906147f4565b62ffffff1661299182620f42406147c1565b61299b91906147e0565b90505b6000620f42406129ae86886147f4565b6129bd9062ffffff16846147c1565b6129c791906147e0565b6129d29060016142c8565b9050620f42406129e762ffffff8816846147c1565b6129f191906147e0565b6129fc9060016142c8565b9350612a0884826143f0565b9250505094509492505050565b600080826001811115612a2a57612a2a6147ab565b14600085131415612a4657612a3f838561451b565b9050612a53565b612a5083856144dc565b90505b9392505050565b6000600160ff1b8210612387576040516320c82def60e21b8152600481018390526024016108a1565b600080806000198587098587029250828110838203039150508060001415612abd5760008411612ab257600080fd5b508290049050612a53565b808411612ac957600080fd5b6000848688096000868103871696879004966002600389028118808a02820302808a02820302808a02820302808a02820302808a02820302808a02909103029181900381900460010186841190950394909402919094039290920491909117919091029150509392505050565b600283810b6000908152602086905260408120805460018201549382015486519294612b649390919061254d565b8451835560018301546020860151919250612b7e916144dc565b60018301556040840151612b939082906144dc565b60028301556003820154612ba790846143f0565b8260030181905550505050505050565b60008080612bc58587614812565b905060008660020b128015612be55750612bdf8587614319565b60020b15155b15612bf85780612bf48161484c565b9150505b8315612cfd57600080612c0a83613871565b90925090506000600160ff831681901b90612c2590826143f0565b612c2f91906142c8565b90506000818c8c866040518263ffffffff1660e01b8152600401612c5c919060019190910b815260200190565b602060405180830381865afa158015612c79573d6000803e3d6000fd5b505050506040513d601f19601f82011682018060405250810190612c9d9190614694565b168015159650905085612cc75788612cb860ff85168761464c565b612cc29190614870565b612cf2565b88612cd18261388e565b612cdb90856148fd565b612ce89060ff168761464c565b612cf29190614870565b965050505050612e18565b600080612d13612d0e846001614920565b613871565b90925090506000612d2b600160ff841681901b6143f0565b1990506000818c8c866040518263ffffffff1660e01b8152600401612d59919060019190910b815260200190565b602060405180830381865afa158015612d76573d6000803e3d6000fd5b505050506040513d601f19601f82011682018060405250810190612d9a9190614694565b168015159650905085612dda5788612db38460ff6148fd565b60ff16612dc1876001614920565b612dcb9190614920565b612dd59190614870565b612e11565b8883612de58361392f565b612def91906148fd565b60ff16612dfd876001614920565b612e079190614920565b612e119190614870565b9650505050505b509550959350505050565b60008060008360020b12612e3a578260020b612e42565b8260020b6000035b9050620d89e8811115612e68576040516315e4079d60e11b815260040160405180910390fd5b600060018216612e7c57600160801b612e8e565b6ffffcb933bd6fad37aa2d162d1a5940015b70ffffffffffffffffffffffffffffffffff1690506002821615612ec2576ffff97272373d413259a46990580e213a0260801c5b6004821615612ee1576ffff2e50f5f656932ef12357cf3c7fdcc0260801c5b6008821615612f00576fffe5caca7e10e4e61c3624eaa0941cd00260801c5b6010821615612f1f576fffcb9843d60f6159c9db58835c9266440260801c5b6020821615612f3e576fff973b41fa98c081472e6896dfb254c00260801c5b6040821615612f5d576fff2ea16466c96a3843ec78b326b528610260801c5b6080821615612f7c576ffe5dee046a99a2a811c461f1969c30530260801c5b610100821615612f9c576ffcbe86c7900a88aedcffc83b479aa3a40260801c5b610200821615612fbc576ff987a7253ac413176f2b074cf7815e540260801c5b610400821615612fdc576ff3392b0822b70005940c7a398e4b70f30260801c5b610800821615612ffc576fe7159475a2c29b7443b29c7fa6e889d90260801c5b61100082161561301c576fd097f3bdfd2022b8845ad8f792aa58250260801c5b61200082161561303c576fa9f746462d870fdf8a65dc1f90e061e50260801c5b61400082161561305c576f70d869a156d2a1b890bb3df62baf32f70260801c5b61800082161561307c576f31be135f97d08fd981231505542fcfa60260801c5b6201000082161561309d576f09aa508b5b7a84e1c677de54f3e99bc90260801c5b620200008216156130bd576e5d6af8dedb81196699c329225ee6040260801c5b620400008216156130dc576d2216e584f5fa1ea926041bedfe980260801c5b620800008216156130f9576b048a170391f7dc42444e8fa20260801c5b60008460020b131561311a57806000198161311657613116614303565b0490505b64010000000081061561312e576001613131565b60005b60ff16602082901c0192505050919050565b60008080806001600160a01b03808916908a1610158187128015906131c857600061317c8989620f42400362ffffff16620f4240612a83565b905082613195576131908c8c8c6001613a19565b6131a2565b6131a28b8d8c6001613a89565b95508581106131b3578a96506131c2565b6131bf8c8b8386613b40565b96505b50613212565b816131df576131da8b8b8b6000613a89565b6131ec565b6131ec8a8c8b6000613a19565b935083886000031061320057899550613212565b61320f8b8a8a60000385613b8c565b95505b6001600160a01b038a8116908716148215613275578080156132315750815b61324757613242878d8c6001613a89565b613249565b855b9550808015613256575081155b61326c57613267878d8c6000613a19565b61326e565b845b94506132bf565b80801561327f5750815b613295576132908c888c6001613a19565b613297565b855b95508080156132a4575081155b6132ba576132b58c888c6000613a89565b6132bc565b845b94505b811580156132cf57508860000385115b156132db578860000394505b8180156132fa57508a6001600160a01b0316876001600160a01b031614155b15613309578589039350613326565b613323868962ffffff168a620f42400362ffffff16613bd8565b93505b50505095509550955095915050565b6000600160ff1b821061238757600080fd5b60006401000276a36001600160a01b03831610801590613383575073fffd8963efd1fc6a506488495d951d5263988d266001600160a01b038316105b6133a0576040516324c070df60e11b815260040160405180910390fd5b640100000000600160c01b03602083901b166001600160801b03811160071b81811c67ffffffffffffffff811160061b90811c63ffffffff811160051b90811c61ffff811160041b90811c60ff8111600390811b91821c600f811160021b90811c918211600190811b92831c9790881196179094179092171790911717176080811061343457607f810383901c915061343e565b80607f0383901b91505b908002607f81811c60ff83811c9190911c800280831c81831c1c800280841c81841c1c800280851c81851c1c800280861c81861c1c800280871c81871c1c800280881c81881c1c800280891c81891c1c8002808a1c818a1c1c8002808b1c818b1c1c8002808c1c818c1c1c8002808d1c818d1c1c8002808e1c9c81901c9c909c1c80029c8d901c9e9d607f198f0160401b60c09190911c678000000000000000161760c19b909b1c674000000000000000169a909a1760c29990991c672000000000000000169890981760c39790971c671000000000000000169690961760c49590951c670800000000000000169490941760c59390931c670400000000000000169290921760c69190911c670200000000000000161760c79190911c670100000000000000161760c89190911c6680000000000000161760c99190911c6640000000000000161760ca9190911c6620000000000000161760cb9190911c6610000000000000161760cc9190911c6608000000000000161760cd9190911c66040000000000001617693627a301d71055774c8581026f028f6481ab7f045a5af012a19d003aa9198101608090811d906fdb2df09e81959a81455e260799a0632f8301901d600281810b9083900b1461363e57886001600160a01b031661362382612e23565b6001600160a01b031611156136385781613640565b80613640565b815b9998505050505050505050565b6000620f424061365d83826146dc565b61366a9060020b856146f8565b612a53919061477d565b600288900b600081815260208b90526040808220905163f30dba9360e01b81526004810193909352909182906001600160a01b0385169063f30dba939060240161010060405180830381865afa1580156136d2573d6000803e3d6000fd5b505050506040513d601f19601f820116820180604052508101906136f6919061455c565b5050505050505090506000808a600f0b1261371a576137158a8361460a565b61372d565b6137238a614424565b61372d908361462c565b6001600160801b038381161590821615811415955090915015613770578a60020b8c60020b13613770578883556001830188905560028301879055600383018690555b5050509998505050505050505050565b600060018180806137918885613c18565b9450925061379f8785613c18565b945091506137ad8685613c18565b945090506137bf611e06848484612a83565b9450836137d2576137cf85614468565b94505b505050509392505050565b60006125726137ec8686614967565b65ffffffffffff166201518061380585878282826144dc565b9190613c45565b6000613819848484613780565b9050600081128015613849575061384961383285613c82565b61383b85613c82565b61384485613c82565b613c8d565b15612a5357612a506000198261451b565b60008082136123875761386c82614468565b6117b9565b600281900b60081d600061388761010084614319565b9050915091565b600080821161389c57600080fd5b600160801b82106138af57608091821c91015b6801000000000000000082106138c757604091821c91015b64010000000082106138db57602091821c91015b6201000082106138ed57601091821c91015b61010082106138fe57600891821c91015b6010821061390e57600491821c91015b6004821061391e57600291821c91015b6002821061392a576001015b919050565b600080821161393d57600080fd5b5060ff6001600160801b0382161561395857607f1901613960565b608082901c91505b67ffffffffffffffff82161561397957603f1901613981565b604082901c91505b63ffffffff82161561399657601f190161399e565b602082901c91505b61ffff8216156139b157600f19016139b9565b601082901c91505b60ff8216156139cb57600719016139d3565b600882901c91505b600f8216156139e557600319016139ed565b600482901c91505b60038216156139ff5760011901613a07565b600282901c91505b600182161561392a5760001901919050565b6000836001600160a01b0316856001600160a01b03161115613a39579293925b81613a6657613a61836001600160801b03168686036001600160a01b0316600160601b612a83565b612572565b612572836001600160801b03168686036001600160a01b0316600160601b613bd8565b6000836001600160a01b0316856001600160a01b03161115613aa9579293925b600160601b600160e01b03606084901b166001600160a01b038686038116908716613ad357600080fd5b83613b0957866001600160a01b0316613af68383896001600160a01b0316612a83565b81613b0357613b03614303565b04613b35565b613b35613b208383896001600160a01b0316613bd8565b886001600160a01b0316808204910615150190565b979650505050505050565b600080856001600160a01b031611613b5757600080fd5b6000846001600160801b031611613b6d57600080fd5b81613b7f57613a618585856001613ca6565b6125728585856001613d8c565b600080856001600160a01b031611613ba357600080fd5b6000846001600160801b031611613bb957600080fd5b81613bcb57613a618585856000613d8c565b6125728585856000613ca6565b6000613be5848484612a83565b905060008280613bf757613bf7614303565b8486091115612a53576000198110613c0e57600080fd5b6001019392505050565b6000806000841215613c3757911591613c3084614468565b9150613c3b565b8391505b50815b9250929050565b6000613c6e611e0660008612613c5b5785613c67565b613c67866000196146f8565b8585612a83565b90506000841215612a5357612a5081614468565b60006117b98261385a565b6000818385098015613c9e57600191505b509392505050565b60008115613d185760006001600160a01b03841115613cdc57613cd784600160601b876001600160801b0316612a83565b613cf3565b613cf36001600160801b038616606086901b6147e0565b9050613d10613d0b826001600160a01b0389166142c8565b613e7a565b915050612575565b60006001600160a01b03841115613d4657613d4184600160601b876001600160801b0316613bd8565b613d63565b613d63606085901b6001600160801b038716808204910615150190565b905080866001600160a01b031611613d7a57600080fd5b6001600160a01b038616039050612575565b600082613d9a575083612575565b600160601b600160e01b03606085901b168215613e2d576001600160a01b03861684810290858281613dce57613dce614303565b041415613dff57818101828110613dfd57613df383896001600160a01b031683613bd8565b9350505050612575565b505b50613d108185613e186001600160a01b038a16836147e0565b613e2291906142c8565b808204910615150190565b6001600160a01b03861684810290858281613e4a57613e4a614303565b04148015613e5757508082115b613e6057600080fd5b808203613df3613d0b846001600160a01b038b1684613bd8565b806001600160a01b038116811461392a57600080fd5b8015158114613e9e57600080fd5b50565b6001600160a01b0381168114613e9e57600080fd5b600080600060608486031215613ecb57600080fd5b8335613ed681613e90565b9250602084013591506040840135613eed81613ea1565b809150509250925092565b8060020b8114613e9e57600080fd5b6001600160801b0381168114613e9e57600080fd5b600080600060608486031215613f3157600080fd5b8335613f3c81613ef8565b92506020840135613f4c81613ef8565b91506040840135613eed81613f07565b8381526020810183905260c081016125756040830184805182526020810151602083015260408101516040830152606081015160608301525050565b600060208284031215613faa57600080fd5b5035919050565b60008060408385031215613fc457600080fd5b8235613fcf81613ef8565b91506020830135613fdf81613ef8565b809150509250929050565b81518152602080830151908201526040808301519082015260608083015190820152608081016117b9565b60006020828403121561402757600080fd5b8135612a5381613ef8565b62ffffff81168114613e9e57600080fd5b60006020828403121561405557600080fd5b8135612a5381614032565b60008083601f84011261407257600080fd5b50813567ffffffffffffffff81111561408a57600080fd5b602083019150836020828501011115613c3e57600080fd5b600080600080606085870312156140b857600080fd5b8435935060208501359250604085013567ffffffffffffffff8111156140dd57600080fd5b6140e987828801614060565b95989497509550505050565b634e487b7160e01b600052604160045260246000fd5b6000602080838503121561411e57600080fd5b823567ffffffffffffffff8082111561413657600080fd5b818501915085601f83011261414a57600080fd5b81358181111561415c5761415c6140f5565b8060051b604051601f19603f83011681018181108582111715614181576141816140f5565b60405291825284820192508381018501918883111561419f57600080fd5b938501935b828510156141bd578435845293850193928501926141a4565b98975050505050505050565b6020808252825182820181905260009190848201906040850190845b81811015614201578351835292840192918401916001016141e5565b50909695505050505050565b600060c0828403121561421f57600080fd5b50919050565b634e487b7160e01b600052601160045260246000fd5b60006001600160a01b038381169083168181101561425b5761425b614225565b039392505050565b60006001600160a01b0382811684821680830382111561428557614285614225565b01949350505050565b600080604083850312156142a157600080fd5b505080516020909101519092909150565b634e487b7160e01b600052600160045260246000fd5b600082198211156142db576142db614225565b500190565b60008160020b627fffff198114156142fa576142fa614225565b60000392915050565b634e487b7160e01b600052601260045260246000fd5b60008260020b8061432c5761432c614303565b808360020b0791505092915050565b805161ffff8116811461392a57600080fd5b805161392a81613e90565b600080600080600080600060e0888a03121561437357600080fd5b875161437e81613ea1565b602089015190975061438f81613ef8565b955061439d6040890161433b565b94506143ab6060890161433b565b93506143b96080890161433b565b925060a088015160ff811681146143cf57600080fd5b60c08901519092506143e081613e90565b8091505092959891949750929550565b60008282101561440257614402614225565b500390565b60006020828403121561441957600080fd5b8151612a5381613ea1565b600081600f0b6f7fffffffffffffffffffffffffffffff198114156142fa576142fa614225565b60006020828403121561445d57600080fd5b8135612a5381613ea1565b6000600160ff1b82141561447e5761447e614225565b5060000390565b60006020828403121561449757600080fd5b8151612a5381613f07565b6000602082840312156144b457600080fd5b8151612a5381614032565b6000602082840312156144d157600080fd5b8151612a5381613ef8565b60008083128015600160ff1b8501841216156144fa576144fa614225565b6001600160ff1b038401831381161561451557614515614225565b50500390565b600080821280156001600160ff1b038490038513161561453d5761453d614225565b600160ff1b839003841281161561455657614556614225565b50500190565b600080600080600080600080610100898b03121561457957600080fd5b885161458481613f07565b80985050602089015180600f0b811461459c57600080fd5b80975050604089015195506060890151945060808901518060060b81146145c257600080fd5b60a08a01519094506145d381613ea1565b60c08a015190935063ffffffff811681146145ed57600080fd5b91506145fb60e08a0161434d565b90509295985092959890939650565b60006001600160801b0380831681851680830382111561428557614285614225565b60006001600160801b038381169083168181101561425b5761425b614225565b60008160020b8360020b6000811281627fffff190183128115161561467357614673614225565b81627fffff01831381161561468a5761468a614225565b5090039392505050565b6000602082840312156146a657600080fd5b5051919050565b600080604083850312156146c057600080fd5b82516146cb81613f07565b6020840151909250613fdf81613f07565b600062ffffff8381169083168181101561425b5761425b614225565b60006001600160ff1b038184138284138082168684048611161561471e5761471e614225565b600160ff1b600087128281168783058912161561473d5761473d614225565b6000871292508782058712848416161561475957614759614225565b8785058712818416161561476f5761476f614225565b505050929093029392505050565b60008261478c5761478c614303565b600160ff1b8214600019841416156147a6576147a6614225565b500590565b634e487b7160e01b600052602160045260246000fd5b60008160001904831182151516156147db576147db614225565b500290565b6000826147ef576147ef614303565b500490565b600062ffffff80831681851680830382111561428557614285614225565b60008160020b8360020b8061482957614829614303565b627fffff1982146000198214161561484357614843614225565b90059392505050565b60008160020b627fffff1981141561486657614866614225565b6000190192915050565b60008160020b8360020b627fffff60008213600084138383048511828216161561489c5761489c614225565b627fffff1960008512828116878305871216156148bb576148bb614225565b600087129250858205871284841616156148d7576148d7614225565b858505871281841616156148ed576148ed614225565b5050509290910295945050505050565b600060ff821660ff84168082101561491757614917614225565b90039392505050565b60008160020b8360020b6000821282627fffff0382138115161561494657614946614225565b82627fffff1903821281161561495e5761495e614225565b50019392505050565b600065ffffffffffff8381169083168181101561425b5761425b61422556fea264697066735822122068def39e04f67a5dd9fbcb5d3e0b4b3fc6110bd11c50f77108e4ac12687b86a664736f6c634300080c0033",
  "devdoc": {
    "kind": "dev",
    "methods": {
      "swap(bool,int256,uint160)": {
        "params": {
          "amountSpecified": ": The amount of the swap, which implicitly configures the swap as exact input (positive), or exact output (negative)",
          "sqrtPriceLimitX96": ": The Q64.96 sqrt price limit. If zero for one, the price cannot be less than this value after the swap. If one for zero, the price cannot be greater than this value after the swap.",
          "swapVTokenForVQuote": ": The direction of the swap, true for vToken to vQuote, false for vQuote to vToken"
        }
      }
    },
    "version": 1
  },
  "userdoc": {
    "kind": "user",
    "methods": {
      "__initialize_VPoolWrapper((address,address,address,address,uint24,uint24))": {
        "notice": "PLATFORM FUNCTIONS"
      },
      "getSumAX128()": {
        "notice": "VIEW METHODS"
      },
      "setLiquidityFee(uint24)": {
        "notice": "ADMIN FUNCTIONS"
      },
      "swap(bool,int256,uint160)": {
        "notice": "Swap vToken for vQuote, or vQuote for vToken"
      },
      "uniswapV3SwapCallback(int256,int256,bytes)": {
        "notice": "UNISWAP V3 POOL CALLBACkS"
      }
    },
    "version": 1
  },
  "storageLayout": {
    "storage": [
      {
        "astId": 299,
        "contract": "contracts/protocol/wrapper/VPoolWrapper.sol:VPoolWrapper",
        "label": "_initialized",
        "offset": 0,
        "slot": "0",
        "type": "t_bool"
      },
      {
        "astId": 302,
        "contract": "contracts/protocol/wrapper/VPoolWrapper.sol:VPoolWrapper",
        "label": "_initializing",
        "offset": 1,
        "slot": "0",
        "type": "t_bool"
      },
      {
        "astId": 22213,
        "contract": "contracts/protocol/wrapper/VPoolWrapper.sol:VPoolWrapper",
        "label": "clearingHouse",
        "offset": 2,
        "slot": "0",
        "type": "t_contract(IClearingHouse)7964"
      },
      {
        "astId": 22216,
        "contract": "contracts/protocol/wrapper/VPoolWrapper.sol:VPoolWrapper",
        "label": "vToken",
        "offset": 0,
        "slot": "1",
        "type": "t_contract(IVToken)8258"
      },
      {
        "astId": 22219,
        "contract": "contracts/protocol/wrapper/VPoolWrapper.sol:VPoolWrapper",
        "label": "vQuote",
        "offset": 0,
        "slot": "2",
        "type": "t_contract(IVQuote)8234"
      },
      {
        "astId": 22222,
        "contract": "contracts/protocol/wrapper/VPoolWrapper.sol:VPoolWrapper",
        "label": "vPool",
        "offset": 0,
        "slot": "3",
        "type": "t_contract(IUniswapV3Pool)5523"
      },
      {
        "astId": 22224,
        "contract": "contracts/protocol/wrapper/VPoolWrapper.sol:VPoolWrapper",
        "label": "liquidityFeePips",
        "offset": 20,
        "slot": "3",
        "type": "t_uint24"
      },
      {
        "astId": 22226,
        "contract": "contracts/protocol/wrapper/VPoolWrapper.sol:VPoolWrapper",
        "label": "protocolFeePips",
        "offset": 23,
        "slot": "3",
        "type": "t_uint24"
      },
      {
        "astId": 22228,
        "contract": "contracts/protocol/wrapper/VPoolWrapper.sol:VPoolWrapper",
        "label": "accruedProtocolFee",
        "offset": 0,
        "slot": "4",
        "type": "t_uint256"
      },
      {
        "astId": 22231,
        "contract": "contracts/protocol/wrapper/VPoolWrapper.sol:VPoolWrapper",
        "label": "fpGlobal",
        "offset": 0,
        "slot": "5",
        "type": "t_struct(Info)11044_storage"
      },
      {
        "astId": 22233,
        "contract": "contracts/protocol/wrapper/VPoolWrapper.sol:VPoolWrapper",
        "label": "sumFeeGlobalX128",
        "offset": 0,
        "slot": "9",
        "type": "t_uint256"
      },
      {
        "astId": 22238,
        "contract": "contracts/protocol/wrapper/VPoolWrapper.sol:VPoolWrapper",
        "label": "ticksExtended",
        "offset": 0,
        "slot": "10",
        "type": "t_mapping(t_int24,t_struct(Info)15426_storage)"
      }
    ],
    "types": {
      "t_bool": {
        "encoding": "inplace",
        "label": "bool",
        "numberOfBytes": "1"
      },
      "t_contract(IClearingHouse)7964": {
        "encoding": "inplace",
        "label": "contract IClearingHouse",
        "numberOfBytes": "20"
      },
      "t_contract(IUniswapV3Pool)5523": {
        "encoding": "inplace",
        "label": "contract IUniswapV3Pool",
        "numberOfBytes": "20"
      },
      "t_contract(IVQuote)8234": {
        "encoding": "inplace",
        "label": "contract IVQuote",
        "numberOfBytes": "20"
      },
      "t_contract(IVToken)8258": {
        "encoding": "inplace",
        "label": "contract IVToken",
        "numberOfBytes": "20"
      },
      "t_int24": {
        "encoding": "inplace",
        "label": "int24",
        "numberOfBytes": "3"
      },
      "t_int256": {
        "encoding": "inplace",
        "label": "int256",
        "numberOfBytes": "32"
      },
      "t_mapping(t_int24,t_struct(Info)15426_storage)": {
        "encoding": "mapping",
        "key": "t_int24",
        "label": "mapping(int24 => struct TickExtended.Info)",
        "numberOfBytes": "32",
        "value": "t_struct(Info)15426_storage"
      },
      "t_struct(Info)11044_storage": {
        "encoding": "inplace",
        "label": "struct FundingPayment.Info",
        "members": [
          {
            "astId": 11037,
            "contract": "contracts/protocol/wrapper/VPoolWrapper.sol:VPoolWrapper",
            "label": "sumAX128",
            "offset": 0,
            "slot": "0",
            "type": "t_int256"
          },
          {
            "astId": 11039,
            "contract": "contracts/protocol/wrapper/VPoolWrapper.sol:VPoolWrapper",
            "label": "sumBX128",
            "offset": 0,
            "slot": "1",
            "type": "t_int256"
          },
          {
            "astId": 11041,
            "contract": "contracts/protocol/wrapper/VPoolWrapper.sol:VPoolWrapper",
            "label": "sumFpX128",
            "offset": 0,
            "slot": "2",
            "type": "t_int256"
          },
          {
            "astId": 11043,
            "contract": "contracts/protocol/wrapper/VPoolWrapper.sol:VPoolWrapper",
            "label": "timestampLast",
            "offset": 0,
            "slot": "3",
            "type": "t_uint48"
          }
        ],
        "numberOfBytes": "128"
      },
      "t_struct(Info)15426_storage": {
        "encoding": "inplace",
        "label": "struct TickExtended.Info",
        "members": [
          {
            "astId": 15419,
            "contract": "contracts/protocol/wrapper/VPoolWrapper.sol:VPoolWrapper",
            "label": "sumALastX128",
            "offset": 0,
            "slot": "0",
            "type": "t_int256"
          },
          {
            "astId": 15421,
            "contract": "contracts/protocol/wrapper/VPoolWrapper.sol:VPoolWrapper",
            "label": "sumBOutsideX128",
            "offset": 0,
            "slot": "1",
            "type": "t_int256"
          },
          {
            "astId": 15423,
            "contract": "contracts/protocol/wrapper/VPoolWrapper.sol:VPoolWrapper",
            "label": "sumFpOutsideX128",
            "offset": 0,
            "slot": "2",
            "type": "t_int256"
          },
          {
            "astId": 15425,
            "contract": "contracts/protocol/wrapper/VPoolWrapper.sol:VPoolWrapper",
            "label": "sumFeeOutsideX128",
            "offset": 0,
            "slot": "3",
            "type": "t_uint256"
          }
        ],
        "numberOfBytes": "128"
      },
      "t_uint24": {
        "encoding": "inplace",
        "label": "uint24",
        "numberOfBytes": "3"
      },
      "t_uint256": {
        "encoding": "inplace",
        "label": "uint256",
        "numberOfBytes": "32"
      },
      "t_uint48": {
        "encoding": "inplace",
        "label": "uint48",
        "numberOfBytes": "6"
      }
    }
  }
}