{
  "address": "0x83DA9DD6fA62046743269c5F8afCd4469755d399",
  "abi": [
    {
      "inputs": [
        {
          "internalType": "int24",
          "name": "tickLower",
          "type": "int24"
        },
        {
          "internalType": "int24",
          "name": "tickUpper",
          "type": "int24"
        }
      ],
      "name": "InvalidTicks",
      "type": "error"
    },
    {
      "inputs": [],
      "name": "NotClearingHouse",
      "type": "error"
    },
    {
      "inputs": [],
      "name": "NotGovernance",
      "type": "error"
    },
    {
      "inputs": [],
      "name": "NotUniswapV3Pool",
      "type": "error"
    },
    {
      "inputs": [
        {
          "internalType": "uint128",
          "name": "value",
          "type": "uint128"
        }
      ],
      "name": "SafeCast_Int128Overflow",
      "type": "error"
    },
    {
      "inputs": [
        {
          "internalType": "uint256",
          "name": "value",
          "type": "uint256"
        }
      ],
      "name": "SafeCast_Int256Overflow",
      "type": "error"
    },
    {
      "inputs": [],
      "name": "ZeroAmount",
      "type": "error"
    },
    {
      "anonymous": false,
      "inputs": [
        {
          "indexed": false,
          "internalType": "uint256",
          "name": "amount",
          "type": "uint256"
        }
      ],
      "name": "AccruedProtocolFeeCollected",
      "type": "event"
    },
    {
      "anonymous": false,
      "inputs": [
        {
          "indexed": false,
          "internalType": "int24",
          "name": "tickLower",
          "type": "int24"
        },
        {
          "indexed": false,
          "internalType": "int24",
          "name": "tickUpper",
          "type": "int24"
        },
        {
          "indexed": false,
          "internalType": "uint128",
          "name": "liquidity",
          "type": "uint128"
        },
        {
          "indexed": false,
          "internalType": "uint256",
          "name": "vTokenPrincipal",
          "type": "uint256"
        },
        {
          "indexed": false,
          "internalType": "uint256",
          "name": "vQuotePrincipal",
          "type": "uint256"
        }
      ],
      "name": "Burn",
      "type": "event"
    },
    {
      "anonymous": false,
      "inputs": [
        {
          "indexed": false,
          "internalType": "uint24",
          "name": "liquidityFeePips",
          "type": "uint24"
        }
      ],
      "name": "LiquidityFeeUpdated",
      "type": "event"
    },
    {
      "anonymous": false,
      "inputs": [
        {
          "indexed": false,
          "internalType": "int24",
          "name": "tickLower",
          "type": "int24"
        },
        {
          "indexed": false,
          "internalType": "int24",
          "name": "tickUpper",
          "type": "int24"
        },
        {
          "indexed": false,
          "internalType": "uint128",
          "name": "liquidity",
          "type": "uint128"
        },
        {
          "indexed": false,
          "internalType": "uint256",
          "name": "vTokenPrincipal",
          "type": "uint256"
        },
        {
          "indexed": false,
          "internalType": "uint256",
          "name": "vQuotePrincipal",
          "type": "uint256"
        }
      ],
      "name": "Mint",
      "type": "event"
    },
    {
      "anonymous": false,
      "inputs": [
        {
          "indexed": false,
          "internalType": "uint24",
          "name": "protocolFeePips",
          "type": "uint24"
        }
      ],
      "name": "ProtocolFeeUpdated",
      "type": "event"
    },
    {
      "anonymous": false,
      "inputs": [
        {
          "indexed": false,
          "internalType": "int256",
          "name": "vTokenIn",
          "type": "int256"
        },
        {
          "indexed": false,
          "internalType": "int256",
          "name": "vQuoteIn",
          "type": "int256"
        },
        {
          "indexed": false,
          "internalType": "uint256",
          "name": "liquidityFees",
          "type": "uint256"
        },
        {
          "indexed": false,
          "internalType": "uint256",
          "name": "protocolFees",
          "type": "uint256"
        }
      ],
      "name": "Swap",
      "type": "event"
    },
    {
      "inputs": [
        {
          "components": [
            {
              "internalType": "contract IClearingHouse",
              "name": "clearingHouse",
              "type": "address"
            },
            {
              "internalType": "contract IVToken",
              "name": "vToken",
              "type": "address"
            },
            {
              "internalType": "contract IVQuote",
              "name": "vQuote",
              "type": "address"
            },
            {
              "internalType": "contract IUniswapV3Pool",
              "name": "vPool",
              "type": "address"
            },
            {
              "internalType": "uint24",
              "name": "liquidityFeePips",
              "type": "uint24"
            },
            {
              "internalType": "uint24",
              "name": "protocolFeePips",
              "type": "uint24"
            },
            {
              "internalType": "uint24",
              "name": "UNISWAP_V3_DEFAULT_FEE_TIER",
              "type": "uint24"
            }
          ],
          "internalType": "struct IVPoolWrapper.InitializeVPoolWrapperParams",
          "name": "params",
          "type": "tuple"
        }
      ],
      "name": "__initialize_VPoolWrapper",
      "outputs": [],
      "stateMutability": "nonpayable",
      "type": "function"
    },
    {
      "inputs": [],
      "name": "accruedProtocolFee",
      "outputs": [
        {
          "internalType": "uint256",
          "name": "",
          "type": "uint256"
        }
      ],
      "stateMutability": "view",
      "type": "function"
    },
    {
      "inputs": [
        {
          "internalType": "int24",
          "name": "tickLower",
          "type": "int24"
        },
        {
          "internalType": "int24",
          "name": "tickUpper",
          "type": "int24"
        },
        {
          "internalType": "uint128",
          "name": "liquidity",
          "type": "uint128"
        }
      ],
      "name": "burn",
      "outputs": [
        {
          "internalType": "uint256",
          "name": "vTokenPrincipal",
          "type": "uint256"
        },
        {
          "internalType": "uint256",
          "name": "vQuotePrincipal",
          "type": "uint256"
        },
        {
          "components": [
            {
              "internalType": "int256",
              "name": "sumAX128",
              "type": "int256"
            },
            {
              "internalType": "int256",
              "name": "sumBInsideX128",
              "type": "int256"
            },
            {
              "internalType": "int256",
              "name": "sumFpInsideX128",
              "type": "int256"
            },
            {
              "internalType": "uint256",
              "name": "sumFeeInsideX128",
              "type": "uint256"
            }
          ],
          "internalType": "struct IVPoolWrapper.WrapperValuesInside",
          "name": "wrapperValuesInside",
          "type": "tuple"
        }
      ],
      "stateMutability": "nonpayable",
      "type": "function"
    },
    {
      "inputs": [],
      "name": "clearingHouse",
      "outputs": [
        {
          "internalType": "contract IClearingHouse",
          "name": "",
          "type": "address"
        }
      ],
      "stateMutability": "view",
      "type": "function"
    },
    {
      "inputs": [],
      "name": "collectAccruedProtocolFee",
      "outputs": [
        {
          "internalType": "uint256",
          "name": "accruedProtocolFeeLast",
          "type": "uint256"
        }
      ],
      "stateMutability": "nonpayable",
      "type": "function"
    },
    {
      "inputs": [
        {
          "internalType": "bytes32",
          "name": "slot",
          "type": "bytes32"
        }
      ],
      "name": "extsload",
      "outputs": [
        {
          "internalType": "bytes32",
          "name": "val",
          "type": "bytes32"
        }
      ],
      "stateMutability": "view",
      "type": "function"
    },
    {
      "inputs": [
        {
          "internalType": "bytes32[]",
          "name": "slots",
          "type": "bytes32[]"
        }
      ],
      "name": "extsload",
      "outputs": [
        {
          "internalType": "bytes32[]",
          "name": "",
          "type": "bytes32[]"
        }
      ],
      "stateMutability": "view",
      "type": "function"
    },
    {
      "inputs": [],
      "name": "fpGlobal",
      "outputs": [
        {
          "internalType": "int256",
          "name": "sumAX128",
          "type": "int256"
        },
        {
          "internalType": "int256",
          "name": "sumBX128",
          "type": "int256"
        },
        {
          "internalType": "int256",
          "name": "sumFpX128",
          "type": "int256"
        },
        {
          "internalType": "uint48",
          "name": "timestampLast",
          "type": "uint48"
        }
      ],
      "stateMutability": "view",
      "type": "function"
    },
    {
      "inputs": [],
      "name": "getExtrapolatedSumAX128",
      "outputs": [
        {
          "internalType": "int256",
          "name": "",
          "type": "int256"
        }
      ],
      "stateMutability": "view",
      "type": "function"
    },
    {
      "inputs": [
        {
          "internalType": "int24",
          "name": "tickLower",
          "type": "int24"
        },
        {
          "internalType": "int24",
          "name": "tickUpper",
          "type": "int24"
        }
      ],
      "name": "getExtrapolatedValuesInside",
      "outputs": [
        {
          "components": [
            {
              "internalType": "int256",
              "name": "sumAX128",
              "type": "int256"
            },
            {
              "internalType": "int256",
              "name": "sumBInsideX128",
              "type": "int256"
            },
            {
              "internalType": "int256",
              "name": "sumFpInsideX128",
              "type": "int256"
            },
            {
              "internalType": "uint256",
              "name": "sumFeeInsideX128",
              "type": "uint256"
            }
          ],
          "internalType": "struct IVPoolWrapper.WrapperValuesInside",
          "name": "wrapperValuesInside",
          "type": "tuple"
        }
      ],
      "stateMutability": "view",
      "type": "function"
    },
    {
      "inputs": [],
      "name": "getSumAX128",
      "outputs": [
        {
          "internalType": "int256",
          "name": "",
          "type": "int256"
        }
      ],
      "stateMutability": "view",
      "type": "function"
    },
    {
      "inputs": [
        {
          "internalType": "int24",
          "name": "tickLower",
          "type": "int24"
        },
        {
          "internalType": "int24",
          "name": "tickUpper",
          "type": "int24"
        }
      ],
      "name": "getValuesInside",
      "outputs": [
        {
          "components": [
            {
              "internalType": "int256",
              "name": "sumAX128",
              "type": "int256"
            },
            {
              "internalType": "int256",
              "name": "sumBInsideX128",
              "type": "int256"
            },
            {
              "internalType": "int256",
              "name": "sumFpInsideX128",
              "type": "int256"
            },
            {
              "internalType": "uint256",
              "name": "sumFeeInsideX128",
              "type": "uint256"
            }
          ],
          "internalType": "struct IVPoolWrapper.WrapperValuesInside",
          "name": "wrapperValuesInside",
          "type": "tuple"
        }
      ],
      "stateMutability": "view",
      "type": "function"
    },
    {
      "inputs": [],
      "name": "liquidityFeePips",
      "outputs": [
        {
          "internalType": "uint24",
          "name": "",
          "type": "uint24"
        }
      ],
      "stateMutability": "view",
      "type": "function"
    },
    {
      "inputs": [
        {
          "internalType": "int24",
          "name": "tickLower",
          "type": "int24"
        },
        {
          "internalType": "int24",
          "name": "tickUpper",
          "type": "int24"
        },
        {
          "internalType": "uint128",
          "name": "liquidity",
          "type": "uint128"
        }
      ],
      "name": "mint",
      "outputs": [
        {
          "internalType": "uint256",
          "name": "vTokenPrincipal",
          "type": "uint256"
        },
        {
          "internalType": "uint256",
          "name": "vQuotePrincipal",
          "type": "uint256"
        },
        {
          "components": [
            {
              "internalType": "int256",
              "name": "sumAX128",
              "type": "int256"
            },
            {
              "internalType": "int256",
              "name": "sumBInsideX128",
              "type": "int256"
            },
            {
              "internalType": "int256",
              "name": "sumFpInsideX128",
              "type": "int256"
            },
            {
              "internalType": "uint256",
              "name": "sumFeeInsideX128",
              "type": "uint256"
            }
          ],
          "internalType": "struct IVPoolWrapper.WrapperValuesInside",
          "name": "wrapperValuesInside",
          "type": "tuple"
        }
      ],
      "stateMutability": "nonpayable",
      "type": "function"
    },
    {
      "inputs": [],
      "name": "protocolFeePips",
      "outputs": [
        {
          "internalType": "uint24",
          "name": "",
          "type": "uint24"
        }
      ],
      "stateMutability": "view",
      "type": "function"
    },
    {
      "inputs": [
        {
          "internalType": "uint24",
          "name": "liquidityFeePips_",
          "type": "uint24"
        }
      ],
      "name": "setLiquidityFee",
      "outputs": [],
      "stateMutability": "nonpayable",
      "type": "function"
    },
    {
      "inputs": [
        {
          "internalType": "uint24",
          "name": "protocolFeePips_",
          "type": "uint24"
        }
      ],
      "name": "setProtocolFee",
      "outputs": [],
      "stateMutability": "nonpayable",
      "type": "function"
    },
    {
      "inputs": [],
      "name": "sumFeeGlobalX128",
      "outputs": [
        {
          "internalType": "uint256",
          "name": "",
          "type": "uint256"
        }
      ],
      "stateMutability": "view",
      "type": "function"
    },
    {
      "inputs": [
        {
          "internalType": "bool",
          "name": "swapVTokenForVQuote",
          "type": "bool"
        },
        {
          "internalType": "int256",
          "name": "amountSpecified",
          "type": "int256"
        },
        {
          "internalType": "uint160",
          "name": "sqrtPriceLimitX96",
          "type": "uint160"
        }
      ],
      "name": "swap",
      "outputs": [
        {
          "internalType": "int256",
          "name": "vTokenAmount",
          "type": "int256"
        },
        {
          "internalType": "int256",
          "name": "vQuoteAmount",
          "type": "int256"
        }
      ],
      "stateMutability": "nonpayable",
      "type": "function"
    },
    {
      "inputs": [
        {
          "internalType": "int24",
          "name": "",
          "type": "int24"
        }
      ],
      "name": "ticksExtended",
      "outputs": [
        {
          "internalType": "int256",
          "name": "sumALastX128",
          "type": "int256"
        },
        {
          "internalType": "int256",
          "name": "sumBOutsideX128",
          "type": "int256"
        },
        {
          "internalType": "int256",
          "name": "sumFpOutsideX128",
          "type": "int256"
        },
        {
          "internalType": "uint256",
          "name": "sumFeeOutsideX128",
          "type": "uint256"
        }
      ],
      "stateMutability": "view",
      "type": "function"
    },
    {
      "inputs": [],
      "name": "uniswapFeePips",
      "outputs": [
        {
          "internalType": "uint24",
          "name": "",
          "type": "uint24"
        }
      ],
      "stateMutability": "view",
      "type": "function"
    },
    {
      "inputs": [
        {
          "internalType": "uint256",
          "name": "vTokenAmount",
          "type": "uint256"
        },
        {
          "internalType": "uint256",
          "name": "vQuoteAmount",
          "type": "uint256"
        },
        {
          "internalType": "bytes",
          "name": "",
          "type": "bytes"
        }
      ],
      "name": "uniswapV3MintCallback",
      "outputs": [],
      "stateMutability": "nonpayable",
      "type": "function"
    },
    {
      "inputs": [
        {
          "internalType": "int256",
          "name": "amount0Delta",
          "type": "int256"
        },
        {
          "internalType": "int256",
          "name": "amount1Delta",
          "type": "int256"
        },
        {
          "internalType": "bytes",
          "name": "",
          "type": "bytes"
        }
      ],
      "name": "uniswapV3SwapCallback",
      "outputs": [],
      "stateMutability": "nonpayable",
      "type": "function"
    },
    {
      "inputs": [],
      "name": "updateGlobalFundingState",
      "outputs": [],
      "stateMutability": "nonpayable",
      "type": "function"
    },
    {
      "inputs": [],
      "name": "vPool",
      "outputs": [
        {
          "internalType": "contract IUniswapV3Pool",
          "name": "",
          "type": "address"
        }
      ],
      "stateMutability": "view",
      "type": "function"
    },
    {
      "inputs": [],
      "name": "vQuote",
      "outputs": [
        {
          "internalType": "contract IVQuote",
          "name": "",
          "type": "address"
        }
      ],
      "stateMutability": "view",
      "type": "function"
    },
    {
      "inputs": [],
      "name": "vToken",
      "outputs": [
        {
          "internalType": "contract IVToken",
          "name": "",
          "type": "address"
        }
      ],
      "stateMutability": "view",
      "type": "function"
    }
  ],
  "transactionHash": "0x8612b473728b3ebd52dbb8dc6a0fb5d872e52465f226ac49f537aa7994afce23",
  "args": [],
  "numDeployments": 1,
  "solcInputHash": "01d5054bacc9f7c19ab36217e6273f93",
  "bytecode": "0x608060405234801561001057600080fd5b50614a27806100206000396000f3fe608060405234801561001057600080fd5b50600436106101a95760003560e01c80637feedaa1116100f9578063acfd792811610097578063d9fe08d411610071578063d9fe08d414610415578063dbd035ff14610428578063fa461e3314610448578063fca6fbf21461045b57600080fd5b8063acfd7928146103f0578063c04b98c4146103f9578063d34879971461040257600080fd5b80639bb1a99c116100d35780639bb1a99c146103af578063a34123a7146103c2578063a3a1e7e9146103d5578063a3c35e2c146103dd57600080fd5b80637feedaa11461037357806386c8e9a7146103865780638b1e97811461039c57600080fd5b806333f90963116101665780635e622abc116101405780635e622abc1461030a5780636719578c146103125780636c544335146103255780637779815c1461036b57600080fd5b806333f909631461029857806348aaa8c0146102a25780634bc36bd6146102f757600080fd5b806302dc9951146101ae5780630af96800146101dd578063195cd92c1461020e5780631dce5fcf146102365780631e2eaeaf146102585780632a99a79214610278575b600080fd5b6003546101c490600160a01b900462ffffff1681565b60405162ffffff90911681526020015b60405180910390f35b6000546101f6906201000090046001600160a01b031681565b6040516001600160a01b0390911681526020016101d4565b61022161021c366004613f63565b610471565b604080519283526020830191909152016101d4565b610249610244366004613fc9565b610718565b6040516101d493929190614009565b61026a610266366004614045565b5490565b6040519081526020016101d4565b61028b61028636600461405e565b6108fd565b6040516101d49190614097565b6102a0610a29565b005b6102d76102b03660046140c2565b600a6020526000908152604090208054600182015460028301546003909301549192909184565b6040805194855260208501939093529183015260608201526080016101d4565b6002546101f6906001600160a01b031681565b61026a610ac4565b6003546101f6906001600160a01b031681565b6005546006546007546008546103439392919065ffffffffffff1684565b6040805194855260208501939093529183015265ffffffffffff1660608201526080016101d4565b60055461026a565b6102a06103813660046140f0565b610b43565b6003546101c490600160b81b900462ffffff1681565b6102a06103aa3660046140f0565b610c44565b6001546101f6906001600160a01b031681565b6102496103d0366004613fc9565b610d3e565b61026a610f08565b61028b6103eb36600461405e565b610fa9565b61026a60045481565b61026a60095481565b6102a061041036600461414f565b611146565b6102a06104233660046141a2565b61124e565b61043b6104363660046141d0565b611477565b6040516101d4919061428e565b6102a061045636600461414f565b6114a5565b6003546101c490600160d01b900462ffffff1681565b6000805481906201000090046001600160a01b031633146104a557604051638597d08b60e01b815260040160405180910390fd5b60008412156001600160a01b0384166104f457856104e1576104dc600173fffd8963efd1fc6a506488495d951d5263988d266142e8565b6104f1565b6104f16401000276a36001614310565b93505b6105266040518060a0016040528060008152602001600081526020016000815260200160008152602001600081525090565b85815260035461055b908390899062ffffff600160a01b8204811691600160b81b8104821691600160d01b909104168661166e565b80516003546000918291610580916001600160a01b03909116908b908a6117196118ff565b6003548551604051630251596160e31b81523060048201528d1515602482015260448101919091526001600160a01b038b8116606483015260a06084830152600060a4830152939550919350919091169063128acb089060c40160408051808303816000875af11580156105f8573d6000803e3d6000fd5b505050506040513d601f19601f8201168201806040525081019061061c919061433b565b604085015260208401819052821480156106395750826040015181145b6106455761064561435f565b5050600354610679908390899062ffffff600160a01b8204811691600160b81b8104821691600160d01b909104168661197f565b80608001516004600082825461068f9190614375565b9091555061069d9050611a8f565b7fb0ecd2f0335c5433548e5039eef18bcfbe9cd48abfb781dfa0cc522164cb876f81602001518260400151836060015184608001516040516106f8949392919093845260208401929092526040830152606082015260800190565b60405180910390a180602001518160400151935093505050935093915050565b6000806107466040518060800160405280600081526020016000815260200160008152602001600081525090565b6000546201000090046001600160a01b0316331461077757604051638597d08b60e01b815260040160405180910390fd5b85858060020b8260020b1215806107955750620d89e719600283900b125b806107b157506107a8620d89e71961438d565b60020b8160020b135b806107c857506107c2600a836143c6565b60020b15155b806107df57506107d9600a826143c6565b60020b15155b156108105760405163957b5ed560e01b8152600283810b600483015282900b60248201526044015b60405180910390fd5b610818610a29565b610849888861082f896001600160801b0316611c32565b600354610844906001600160a01b0316611c70565b611ce1565b600354604051633c8a7d8d60e01b815230600482015260028b810b60248301528a900b60448201526001600160801b038916606482015260a06084820152600060a4820181905292955082916001600160a01b031690633c8a7d8d9060c40160408051808303816000875af11580156108c6573d6000803e3d6000fd5b505050506040513d601f19601f820116820180604052508101906108ea919061433b565b909b909a50949850939650505050505050565b6109286040518060800160405280600081526020016000815260200160008152602001600081525090565b60035460408051633850c7bd60e01b815290516000926001600160a01b031691633850c7bd9160048083019260e09291908290030181865afa158015610972573d6000803e3d6000fd5b505050506040513d601f19601f820116820180604052508101906109969190614405565b505060408051608081018252600554815260065460208201526007549181019190915260085465ffffffffffff1660608201529395509293506109dc9250610f08915050565b8082526005546006546007546109f193611e32565b604082015280518352600954610a1190600a908790879086908690611e62565b60608601526040850152602084015250909392505050565b60008054600154604051631e01a95960e11b81526001600160a01b039182166004820152839262010000900490911690633c0352b2906024016040805180830381865afa158015610a7e573d6000803e3d6000fd5b505050506040513d601f19601f82011682018060405250810190610aa2919061433b565b91509150610ac060006001610ab44290565b60059291908686611fba565b5050565b600080546201000090046001600160a01b03163314610af657604051638597d08b60e01b815260040160405180910390fd5b6001600454610b05919061449d565b60016004556040518181529091507f889bbef14ccbbb6f97773359c9c09396f67ed97695236771816a304ec5d886119060200160405180910390a190565b600060029054906101000a90046001600160a01b03166001600160a01b0316635aa6e6756040518163ffffffff1660e01b8152600401602060405180830381865afa158015610b96573d6000803e3d6000fd5b505050506040513d601f19601f82011682018060405250810190610bba91906144b4565b6001600160a01b0316336001600160a01b031614610beb57604051632d5be4cb60e21b815260040160405180910390fd5b6003805462ffffff60d01b1916600160d01b62ffffff8416908102919091179091556040519081527f2edf7eef14cb246dab2aac555e300928981632918159d9e33fcaa24dcd38cb40906020015b60405180910390a150565b600060029054906101000a90046001600160a01b03166001600160a01b0316635aa6e6756040518163ffffffff1660e01b8152600401602060405180830381865afa158015610c97573d6000803e3d6000fd5b505050506040513d601f19601f82011682018060405250810190610cbb91906144b4565b6001600160a01b0316336001600160a01b031614610cec57604051632d5be4cb60e21b815260040160405180910390fd5b6003805462ffffff60b81b1916600160b81b62ffffff8416908102919091179091556040519081527f5e286c9a939d59334080ddf15517957037c2228384e26bb92a368ce44c531edd90602001610c39565b600080610d6c6040518060800160405280600081526020016000815260200160008152602001600081525090565b6000546201000090046001600160a01b03163314610d9d57604051638597d08b60e01b815260040160405180910390fd5b85858060020b8260020b121580610dbb5750620d89e719600283900b125b80610dd75750610dce620d89e71961438d565b60020b8160020b135b80610dee5750610de8600a836143c6565b60020b15155b80610e055750610dff600a826143c6565b60020b15155b15610e315760405163957b5ed560e01b8152600283810b600483015282900b6024820152604401610807565b610e39610a29565b610e598888610e50896001600160801b0316611c32565b61082f906144d1565b60035460405163a34123a760e01b815260028b810b60048301528a900b60248201526001600160801b038916604482015291945060009182916001600160a01b03169063a34123a79060640160408051808303816000875af1158015610ec3573d6000803e3d6000fd5b505050506040513d601f19601f82011682018060405250810190610ee7919061433b565b91509150819650809550610efb8a8a6120bd565b5050505093509350939050565b60008054600154604051631e01a95960e11b81526001600160a01b03918216600482015283928392620100009091041690633c0352b2906024016040805180830381865afa158015610f5e573d6000803e3d6000fd5b505050506040513d601f19601f82011682018060405250810190610f82919061433b565b600554600854929450909250610fa29165ffffffffffff1642858561215a565b9250505090565b610fd46040518060800160405280600081526020016000815260200160008152602001600081525090565b82828060020b8260020b121580610ff25750620d89e719600283900b125b8061100e5750611005620d89e71961438d565b60020b8160020b135b80611025575061101f600a836143c6565b60020b15155b8061103c5750611036600a826143c6565b60020b15155b156110685760405163957b5ed560e01b8152600283810b600483015282900b6024820152604401610807565b60035460408051633850c7bd60e01b815290516000926001600160a01b031691633850c7bd9160048083019260e09291908290030181865afa1580156110b2573d6000803e3d6000fd5b505050506040513d601f19601f820116820180604052508101906110d69190614405565b50506040805160808101825260055480825260065460208301526007549282019290925260085465ffffffffffff166060820152908a52600954949650945061112c93600a93508b92508a915086908690611e62565b606088015260408701526020860152509295945050505050565b6003546001600160a01b03163314611171576040516308458b2b60e21b815260040160405180910390fd5b82156111dc576002546040516340c10f1960e01b8152336004820152602481018590526001600160a01b03909116906340c10f1990604401600060405180830381600087803b1580156111c357600080fd5b505af11580156111d7573d6000803e3d6000fd5b505050505b8315611248576001546040516340c10f1960e01b8152336004820152602481018690526001600160a01b03909116906340c10f19906044015b600060405180830381600087803b15801561122f57600080fd5b505af1158015611243573d6000803e3d6000fd5b505050505b50505050565b600054610100900460ff166112695760005460ff161561126d565b303b155b6112d05760405162461bcd60e51b815260206004820152602e60248201527f496e697469616c697a61626c653a20636f6e747261637420697320616c72656160448201526d191e481a5b9a5d1a585b1a5e995960921b6064820152608401610807565b600054610100900460ff161580156112f2576000805461ffff19166101011790555b6112ff60208301836144f8565b600080546001600160a01b0392909216620100000262010000600160b01b031990921691909117905561133860408301602084016144f8565b600180546001600160a01b0319166001600160a01b039290921691909117905561136860608301604084016144f8565b600280546001600160a01b0319166001600160a01b039290921691909117905561139860808301606084016144f8565b600380546001600160a01b0319166001600160a01b03929092169190911790556113c860a08301608084016140f0565b6003805462ffffff92909216600160b81b0262ffffff60b81b199092169190911790556113fb60c0830160a084016140f0565b6003805462ffffff92909216600160d01b0262ffffff60d01b1990921691909117905561142e60e0830160c084016140f0565b6003805462ffffff92909216600160a01b0262ffffff60a01b19909216919091179055611462600560006001428180611fba565b8015610ac0576000805461ff00191690555050565b606060208251028201602001602083015b8181101561149d578051548152602001611488565b509192915050565b6003546001600160a01b031633146114d0576040516308458b2b60e21b815260040160405180910390fd5b60008413156115b657600360009054906101000a90046001600160a01b03166001600160a01b0316630dfe16816040518163ffffffff1660e01b8152600401602060405180830381865afa15801561152c573d6000803e3d6000fd5b505050506040513d601f19601f8201168201806040525081019061155091906144b4565b6003546040516340c10f1960e01b81526001600160a01b039182166004820152602481018790529116906340c10f1990604401600060405180830381600087803b15801561159d57600080fd5b505af11580156115b1573d6000803e3d6000fd5b505050505b600083131561124857600360009054906101000a90046001600160a01b03166001600160a01b031663d21220a76040518163ffffffff1660e01b8152600401602060405180830381865afa158015611612573d6000803e3d6000fd5b505050506040513d601f19601f8201168201806040525081019061163691906144b4565b6003546040516340c10f1960e01b81526001600160a01b039182166004820152602481018690529116906340c10f1990604401611215565b85156116cf57841561168d578051611686908561217c565b8152611711565b805161169c90600285856121bf565b608083018190526060830182905282516116c29290916116bb91614375565b60016122ec565b808252611686908561217c565b846116d957611711565b80516116e890600185856121bf565b6080830181905260608301829052825161170e92909161170791614375565b60006122ec565b81525b505050505050565b60008085611730578260a00151836080015161173b565b82608001518360a001515b91509150600061176e61174d83612331565b60035460009062ffffff600160b81b8204811691600160d01b9004166121bf565b50905060008560c001516001600160801b031611801561178e5750600083115b156118845760008054600154604051631e01a95960e11b81526001600160a01b039182166004820152839262010000900490911690633c0352b2906024016040805180830381865afa1580156117e8573d6000803e3d6000fd5b505050506040513d601f19601f8201168201806040525081019061180c919061433b565b9150915061184c8961182f5761182186612331565b61182a90614515565b611838565b61183886612331565b60c08901516001600160801b031642610ab4565b60c087015161186b908490600160801b906001600160801b031661235a565b6009600082825461187c9190614375565b909155505050505b83606001516001600160a01b031685604001516001600160a01b031614156118f6578360400151156118f657602080850151604080516080810182526005548152600654938101939093526007549083015260085465ffffffffffff1660608301526009546118f692600a9291612408565b50505050505050565b600080611971878787878b6001600160a01b031663ddca3f436040518163ffffffff1660e01b8152600401602060405180830381865afa158015611947573d6000803e3d6000fd5b505050506040513d601f19601f8201168201806040525081019061196b9190614532565b88612489565b915091509550959350505050565b8515611a095784156119dc57611999816020015185612b99565b602082015260408101516119b090600085856121bf565b608083018190526060830182905260408301516119d29290916116bb91614375565b6040820152611711565b6119ea816040015185612b99565b60408201819052608082015160608301516119d2929161170791614375565b84611a5257611a1c816040015185612b99565b60408201819052611a3090600085856121bf565b608083018190526060830182905260408301516119d292909161170791614375565b611a60816020015185612b99565b6020820152604081015160808201516060830151611a8292916116bb91614375565b6040820152505050505050565b6002546040516370a0823160e01b81523060048201526000916001600160a01b0316906370a0823190602401602060405180830381865afa158015611ad8573d6000803e3d6000fd5b505050506040513d601f19601f82011682018060405250810190611afc919061454f565b90508015611b6357600254604051630852cd8d60e31b8152600481018390526001600160a01b03909116906342966c6890602401600060405180830381600087803b158015611b4a57600080fd5b505af1158015611b5e573d6000803e3d6000fd5b505050505b6001546040516370a0823160e01b81523060048201526000916001600160a01b0316906370a0823190602401602060405180830381865afa158015611bac573d6000803e3d6000fd5b505050506040513d601f19601f82011682018060405250810190611bd0919061454f565b90508015610ac057600154604051630852cd8d60e31b8152600481018390526001600160a01b03909116906342966c6890602401600060405180830381600087803b158015611c1e57600080fd5b505af1158015611711573d6000803e3d6000fd5b60006001607f1b826001600160801b031610611c6c5760405163832da39d60e01b81526001600160801b0383166004820152602401610807565b5090565b6000816001600160a01b0316633850c7bd6040518163ffffffff1660e01b815260040160e060405180830381865afa158015611cb0573d6000803e3d6000fd5b505050506040513d601f19601f82011682018060405250810190611cd49190614405565b5093979650505050505050565b611d0c6040518060800160405280600081526020016000815260200160008152602001600081525090565b60408051608081018252600554815260065460208201526007549181019190915260085465ffffffffffff166060820152600954600080600f87900b15611dae57835160208501516040860151600354611d7c93600a938e938c938e939291908b906001600160a01b0316612bc0565b845160208601516040870151600354939550611dab93600a938d938c938e938b906001600160a01b0316612bc0565b90505b611db88989610fa9565b9450600087600f0b1215611e26578115611df657600289810b6000908152600a60205260408120818155600181018290559182018190556003909101555b8015611e2657600288810b6000908152600a60205260408120818155600181018290559182018190556003909101555b50505050949350505050565b6000611e4d611e418684614568565b8590600160801b612caa565b611e5790846145a7565b90505b949350505050565b600285810b60009081526020889052604080822087840b8352908220600182015482549483015487519495869586959493928692611ea39290918591611e32565b90506000846003015490508a60020b8d60020b1315611eed57828a60200151611ecc9190614568565b9250818a60400151611ede9190614568565b9150611eea818a61449d565b90505b6001840154845460028601548c51600092611f0c929091859190611e32565b90506000866003015490508d60020b8f60020b13611f5557828d60200151611f349190614568565b9250818d60400151611f469190614568565b9150611f52818d61449d565b90505b82868e60200151611f669190614568565b611f709190614568565b9a5081858e60400151611f839190614568565b611f8d9190614568565b995080611f9a858e61449d565b611fa4919061449d565b9850505050505050505096509650969350505050565b6003860154600090611fd69065ffffffffffff16858585612d07565b6001880154909150611fee908290600160801b612d36565b87600201600082825461200191906145a7565b909155505086548190889060009061201a9084906145a7565b9091555061202f905086600160801b87612caa565b87600101600082825461204291906145a7565b909155505060038701805465ffffffffffff861665ffffffffffff199091168117909155604080518954815260018a0154602082015260028a0154818301526060810192909252517f56d845af0301cb63e3fc997dd12196cdfc06529656d23e27bcf1b16393013bf79181900360800190a150505050505050565b6003546040516309e3d67b60e31b8152306004820152600284810b602483015283900b60448201526001600160801b036064820181905260848201526001600160a01b0390911690634f1eb3d89060a40160408051808303816000875af115801561212c573d6000803e3d6000fd5b505050506040513d601f19601f8201168201806040525081019061215091906145e8565b5050610ac0611a8f565b600061216885858585612d07565b61217290876145a7565b9695505050505050565b60008061218c83620f4240614617565b60020b61219e62ffffff851686614633565b6121a891906146b8565b6121b39060016145a7565b9050611e5a81856145a7565b60008060006121cd87612d84565b905060018660028111156121e3576121e36146e6565b141561222457836121f786620f4240614617565b6122019190614617565b62ffffff1661221382620f42406146fc565b61221d919061471b565b9050612275565b6002866002811115612238576122386146e6565b1415612275578361224c86620f424061472f565b612256919061472f565b62ffffff1661226882620f42406146fc565b612272919061471b565b90505b6000620f4240612285868861472f565b6122949062ffffff16846146fc565b61229e919061471b565b6122a9906001614375565b9050620f42406122be62ffffff8816846146fc565b6122c8919061471b565b6122d3906001614375565b93506122df848261449d565b9250505094509492505050565b600080826001811115612301576123016146e6565b1460008513141561231d5761231683856145a7565b905061232a565b6123278385614568565b90505b9392505050565b6000600160ff1b8210611c6c576040516320c82def60e21b815260048101839052602401610807565b600080806000198587098587029250828110838203039150508060001415612394576000841161238957600080fd5b50829004905061232a565b8084116123a057600080fd5b600084868809851960019081018716968790046003810260029081188083028203028083028203028083028203028083028203028083028203029182029003026000889003889004909101858311909403939093029303949094049190911702949350505050565b600283810b600090815260208690526040812080546001820154938201548651929461243693909190611e32565b845183556001830154602086015191925061245091614568565b60018301556040840151612465908290614568565b60028301556003820154612479908461449d565b8260030181905550505050505050565b600080856124aa57604051631f2a200560e01b815260040160405180910390fd5b6040805160c081018252600080825260208201819052918101829052606081018290526080810182905260a0810191909152886001600160a01b0316633850c7bd6040518163ffffffff1660e01b815260040160e060405180830381865afa15801561251a573d6000803e3d6000fd5b505050506040513d601f19601f8201168201806040525081019061253e9190614405565b5060ff1660408088019190915260029490940b6020808801919091526001600160a01b0395861687528451630d34328160e11b81529451958f1695631a68650295600480820196509294509092508290030181865afa1580156125a5573d6000803e3d6000fd5b505050506040513d601f19601f820116820180604052508101906125c9919061474d565b6001600160801b03166060820152604080516334324e9f60e21b815290516001600160a01b038b169163d0c93a7c9160048083019260209291908290030181865afa15801561261c573d6000803e3d6000fd5b505050506040513d601f19601f82011682018060405250810190612640919061476a565b60020b608082015262ffffff851660a08201528761269e5780600001516001600160a01b0316866001600160a01b0316118015612699575073fffd8963efd1fc6a506488495d951d5263988d266001600160a01b038716105b6126d0565b80600001516001600160a01b0316866001600160a01b03161080156126d057506401000276a36001600160a01b038716115b6127025760405162461bcd60e51b815260206004820152600360248201526214d41360ea1b6044820152606401610807565b6000808813905060006040518060e001604052808a81526020016000815260200184600001516001600160a01b03168152602001846020015160020b81526020016000815260200160006001600160801b0316815260200184606001516001600160801b031681525090505b8051158015906127945750876001600160a01b031681604001516001600160a01b031614155b15612b54576040805160e081018252600080825260208201819052918101829052606081018290526080810182905260a0810182905260c081019190915260408201516001600160a01b03908116825260608301516080860151612801928f1691635339c296918f612d9c565b1515604083015260020b60208201819052620d89e719131561282c57620d89e7196020820152612860565b612839620d89e71961438d565b60020b816020015160020b131561286057612857620d89e71961438d565b60020b60208201525b61286d8160200151613008565b6001600160a01b0316606082015260408201516128e2908c6128a7578a6001600160a01b031683606001516001600160a01b0316116128c1565b8a6001600160a01b031683606001516001600160a01b0316105b6128cf5782606001516128d1565b8a5b60c0850151855160a089015161333b565b60c085015260a084015260808301526001600160a01b03166040830152821561295a576129218160c00151826080015161291c9190614375565b61352d565b82518390612930908390614568565b90525060a08101516129419061352d565b82602001516129509190614568565b60208301526129a5565b6129678160a0015161352d565b825183906129769083906145a7565b90525060c081015160808201516129909161291c91614375565b826020015161299f91906145a7565b60208301525b60c08201516001600160801b0316156129ed576129d88160c00151600160801b8460c001516001600160801b031661235a565b826080018181516129e99190614375565b9052505b63ffffffff611248811690881614612a0f57612a0f8b8584848b63ffffffff16565b80606001516001600160a01b031682604001516001600160a01b03161415612b1757806040015115612aea57602081015160405163f30dba9360e01b815260029190910b60048201526000906001600160a01b038e169063f30dba939060240161010060405180830381865afa158015612a8d573d6000803e3d6000fd5b505050506040513d601f19601f82011682018060405250810190612ab19190614787565b5050505050509150508b15612acc57612ac9816144d1565b90505b612ada8360c001518261353f565b6001600160801b031660c0840152505b8a612af9578060200151612b0a565b60018160200151612b0a9190614835565b60020b6060830152612b4e565b80600001516001600160a01b031682604001516001600160a01b031614612b4e57612b4582604001516135e1565b60020b60608301525b5061276e565b8115158a151514612b755760208101518151612b70908b614568565b612b87565b8051612b81908a614568565b81602001515b94509450505050965096945050505050565b6000620f4240612ba98382614617565b612bb69060020b85614633565b61232a91906146b8565b600288900b600081815260208b90526040808220905163f30dba9360e01b81526004810193909352909182906001600160a01b0385169063f30dba939060240161010060405180830381865afa158015612c1e573d6000803e3d6000fd5b505050506040513d601f19601f82011682018060405250810190612c429190614787565b5050505050505090506000612c57828b61353f565b6001600160801b038381161590821615811415955090915015612c9a578a60020b8c60020b13612c9a578883556001830188905560028301879055600383018690555b5050509998505050505050505050565b60006001818080612cbb88856138fa565b94509250612cc987856138fa565b94509150612cd786856138fa565b94509050612ce961291c84848461235a565b945083612cfc57612cf985614515565b94505b505050509392505050565b6000611e57612d16868661487d565b65ffffffffffff1662015180612d2f8587828282614568565b9190613927565b6000612d43848484612caa565b9050600081128015612d735750612d73612d5c85613964565b612d6585613964565b612d6e85613964565b61396f565b1561232a57612327600019826145a7565b6000808213611c6c57612d9682614515565b92915050565b60008080612daa858761489c565b905060008660020b128015612dca5750612dc485876143c6565b60020b15155b15612ddd5780612dd9816148d6565b9150505b8315612ee257600080612def83613988565b90925090506000600160ff831681901b90612e0a908261449d565b612e149190614375565b90506000818c8c866040518263ffffffff1660e01b8152600401612e41919060019190910b815260200190565b602060405180830381865afa158015612e5e573d6000803e3d6000fd5b505050506040513d601f19601f82011682018060405250810190612e82919061454f565b168015159650905085612eac5788612e9d60ff851687614835565b612ea791906148fa565b612ed7565b88612eb6826139a5565b612ec09085614987565b612ecd9060ff1687614835565b612ed791906148fa565b965050505050612ffd565b600080612ef8612ef38460016149aa565b613988565b90925090506000612f10600160ff841681901b61449d565b1990506000818c8c866040518263ffffffff1660e01b8152600401612f3e919060019190910b815260200190565b602060405180830381865afa158015612f5b573d6000803e3d6000fd5b505050506040513d601f19601f82011682018060405250810190612f7f919061454f565b168015159650905085612fbf5788612f988460ff614987565b60ff16612fa68760016149aa565b612fb091906149aa565b612fba91906148fa565b612ff6565b8883612fca83613a46565b612fd49190614987565b60ff16612fe28760016149aa565b612fec91906149aa565b612ff691906148fa565b9650505050505b509550959350505050565b60008060008360020b1261301f578260020b613027565b8260020b6000035b9050620d89e88111156130605760405162461bcd60e51b81526020600482015260016024820152601560fa1b6044820152606401610807565b60006001821661307457600160801b613086565b6ffffcb933bd6fad37aa2d162d1a5940015b70ffffffffffffffffffffffffffffffffff16905060028216156130ba576ffff97272373d413259a46990580e213a0260801c5b60048216156130d9576ffff2e50f5f656932ef12357cf3c7fdcc0260801c5b60088216156130f8576fffe5caca7e10e4e61c3624eaa0941cd00260801c5b6010821615613117576fffcb9843d60f6159c9db58835c9266440260801c5b6020821615613136576fff973b41fa98c081472e6896dfb254c00260801c5b6040821615613155576fff2ea16466c96a3843ec78b326b528610260801c5b6080821615613174576ffe5dee046a99a2a811c461f1969c30530260801c5b610100821615613194576ffcbe86c7900a88aedcffc83b479aa3a40260801c5b6102008216156131b4576ff987a7253ac413176f2b074cf7815e540260801c5b6104008216156131d4576ff3392b0822b70005940c7a398e4b70f30260801c5b6108008216156131f4576fe7159475a2c29b7443b29c7fa6e889d90260801c5b611000821615613214576fd097f3bdfd2022b8845ad8f792aa58250260801c5b612000821615613234576fa9f746462d870fdf8a65dc1f90e061e50260801c5b614000821615613254576f70d869a156d2a1b890bb3df62baf32f70260801c5b618000821615613274576f31be135f97d08fd981231505542fcfa60260801c5b62010000821615613295576f09aa508b5b7a84e1c677de54f3e99bc90260801c5b620200008216156132b5576e5d6af8dedb81196699c329225ee6040260801c5b620400008216156132d4576d2216e584f5fa1ea926041bedfe980260801c5b620800008216156132f1576b048a170391f7dc42444e8fa20260801c5b60008460020b131561331257806000198161330e5761330e6143b0565b0490505b640100000000810615613326576001613329565b60005b60ff16602082901c0192505050919050565b60008080806001600160a01b03808916908a1610158187128015906133c05760006133748989620f42400362ffffff16620f424061235a565b90508261338d576133888c8c8c6001613b30565b61339a565b61339a8b8d8c6001613ba0565b95508581106133ab578a96506133ba565b6133b78c8b8386613c57565b96505b5061340a565b816133d7576133d28b8b8b6000613ba0565b6133e4565b6133e48a8c8b6000613b30565b93508388600003106133f85789955061340a565b6134078b8a8a60000385613ca3565b95505b6001600160a01b038a811690871614821561346d578080156134295750815b61343f5761343a878d8c6001613ba0565b613441565b855b955080801561344e575081155b6134645761345f878d8c6000613b30565b613466565b845b94506134b7565b8080156134775750815b61348d576134888c888c6001613b30565b61348f565b855b955080801561349c575081155b6134b2576134ad8c888c6000613ba0565b6134b4565b845b94505b811580156134c757508860000385115b156134d3578860000394505b8180156134f257508a6001600160a01b0316876001600160a01b031614155b1561350157858903935061351e565b61351b868962ffffff168a620f42400362ffffff16613cef565b93505b50505095509550955095915050565b6000600160ff1b8210611c6c57600080fd5b60008082600f0b121561359557508082016001600160801b03808416908216106135905760405162461bcd60e51b81526020600482015260026024820152614c5360f01b6044820152606401610807565b612d96565b826001600160801b03168284019150816001600160801b03161015612d965760405162461bcd60e51b81526020600482015260026024820152614c4160f01b6044820152606401610807565b60006401000276a36001600160a01b0383161080159061361d575073fffd8963efd1fc6a506488495d951d5263988d266001600160a01b038316105b61364d5760405162461bcd60e51b81526020600482015260016024820152602960f91b6044820152606401610807565b640100000000600160c01b03602083901b166001600160801b03811160071b81811c67ffffffffffffffff811160061b90811c63ffffffff811160051b90811c61ffff811160041b90811c60ff8111600390811b91821c600f811160021b90811c918211600190811b92831c979088119617909417909217179091171717608081106136e157607f810383901c91506136eb565b80607f0383901b91505b908002607f81811c60ff83811c9190911c800280831c81831c1c800280841c81841c1c800280851c81851c1c800280861c81861c1c800280871c81871c1c800280881c81881c1c800280891c81891c1c8002808a1c818a1c1c8002808b1c818b1c1c8002808c1c818c1c1c8002808d1c818d1c1c8002808e1c9c81901c9c909c1c80029c8d901c9e9d607f198f0160401b60c09190911c678000000000000000161760c19b909b1c674000000000000000169a909a1760c29990991c672000000000000000169890981760c39790971c671000000000000000169690961760c49590951c670800000000000000169490941760c59390931c670400000000000000169290921760c69190911c670200000000000000161760c79190911c670100000000000000161760c89190911c6680000000000000161760c99190911c6640000000000000161760ca9190911c6620000000000000161760cb9190911c6610000000000000161760cc9190911c6608000000000000161760cd9190911c66040000000000001617693627a301d71055774c8581026f028f6481ab7f045a5af012a19d003aa9198101608090811d906fdb2df09e81959a81455e260799a0632f8301901d600281810b9083900b146138eb57886001600160a01b03166138d082613008565b6001600160a01b031611156138e557816138ed565b806138ed565b815b9998505050505050505050565b60008060008412156139195791159161391284614515565b915061391d565b8391505b50815b9250929050565b600061395061291c6000861261393d5785613949565b61394986600019614633565b858561235a565b9050600084121561232a5761232781614515565b6000612d9682612d84565b600081838509801561398057600191505b509392505050565b600281900b60081d600061399e610100846143c6565b9050915091565b60008082116139b357600080fd5b600160801b82106139c657608091821c91015b6801000000000000000082106139de57604091821c91015b64010000000082106139f257602091821c91015b620100008210613a0457601091821c91015b6101008210613a1557600891821c91015b60108210613a2557600491821c91015b60048210613a3557600291821c91015b60028210613a41576001015b919050565b6000808211613a5457600080fd5b5060ff6001600160801b03821615613a6f57607f1901613a77565b608082901c91505b67ffffffffffffffff821615613a9057603f1901613a98565b604082901c91505b63ffffffff821615613aad57601f1901613ab5565b602082901c91505b61ffff821615613ac857600f1901613ad0565b601082901c91505b60ff821615613ae25760071901613aea565b600882901c91505b600f821615613afc5760031901613b04565b600482901c91505b6003821615613b165760011901613b1e565b600282901c91505b6001821615613a415760001901919050565b6000836001600160a01b0316856001600160a01b03161115613b50579293925b81613b7d57613b78836001600160801b03168686036001600160a01b0316600160601b61235a565b611e57565b611e57836001600160801b03168686036001600160a01b0316600160601b613cef565b6000836001600160a01b0316856001600160a01b03161115613bc0579293925b600160601b600160e01b03606084901b166001600160a01b038686038116908716613bea57600080fd5b83613c2057866001600160a01b0316613c0d8383896001600160a01b031661235a565b81613c1a57613c1a6143b0565b04613c4c565b613c4c613c378383896001600160a01b0316613cef565b886001600160a01b0316808204910615150190565b979650505050505050565b600080856001600160a01b031611613c6e57600080fd5b6000846001600160801b031611613c8457600080fd5b81613c9657613b788585856001613d2f565b611e578585856001613e1c565b600080856001600160a01b031611613cba57600080fd5b6000846001600160801b031611613cd057600080fd5b81613ce257613b788585856000613e1c565b611e578585856000613d2f565b6000613cfc84848461235a565b905060008280613d0e57613d0e6143b0565b848609111561232a576000198110613d2557600080fd5b6001019392505050565b60008115613da85760006001600160a01b03841115613d6557613d6084600160601b876001600160801b031661235a565b613d83565b6001600160801b038516606085901b81613d8157613d816143b0565b045b9050613da0613d9b6001600160a01b03881683613f17565b613f27565b915050611e5a565b60006001600160a01b03841115613dd657613dd184600160601b876001600160801b0316613cef565b613df3565b613df3606085901b6001600160801b038716808204910615150190565b905080866001600160a01b031611613e0a57600080fd5b6001600160a01b038616039050611e5a565b600082613e2a575083611e5a565b600160601b600160e01b03606085901b168215613eca576001600160a01b03861684810290858281613e5e57613e5e6143b0565b041415613e8f57818101828110613e8d57613e8383896001600160a01b031683613cef565b9350505050611e5a565b505b613ec182613eb6878a6001600160a01b03168681613eaf57613eaf6143b0565b0490613f17565b808204910615150190565b92505050611e5a565b6001600160a01b03861684810290858281613ee757613ee76143b0565b04148015613ef457508082115b613efd57600080fd5b808203613e83613d9b846001600160a01b038b1684613cef565b80820182811015612d9657600080fd5b806001600160a01b0381168114613a4157600080fd5b8015158114613f4b57600080fd5b50565b6001600160a01b0381168114613f4b57600080fd5b600080600060608486031215613f7857600080fd5b8335613f8381613f3d565b9250602084013591506040840135613f9a81613f4e565b809150509250925092565b8060020b8114613f4b57600080fd5b6001600160801b0381168114613f4b57600080fd5b600080600060608486031215613fde57600080fd5b8335613fe981613fa5565b92506020840135613ff981613fa5565b91506040840135613f9a81613fb4565b8381526020810183905260c08101611e5a6040830184805182526020810151602083015260408101516040830152606081015160608301525050565b60006020828403121561405757600080fd5b5035919050565b6000806040838503121561407157600080fd5b823561407c81613fa5565b9150602083013561408c81613fa5565b809150509250929050565b8151815260208083015190820152604080830151908201526060808301519082015260808101612d96565b6000602082840312156140d457600080fd5b813561232a81613fa5565b62ffffff81168114613f4b57600080fd5b60006020828403121561410257600080fd5b813561232a816140df565b60008083601f84011261411f57600080fd5b50813567ffffffffffffffff81111561413757600080fd5b60208301915083602082850101111561392057600080fd5b6000806000806060858703121561416557600080fd5b8435935060208501359250604085013567ffffffffffffffff81111561418a57600080fd5b6141968782880161410d565b95989497509550505050565b600060e082840312156141b457600080fd5b50919050565b634e487b7160e01b600052604160045260246000fd5b600060208083850312156141e357600080fd5b823567ffffffffffffffff808211156141fb57600080fd5b818501915085601f83011261420f57600080fd5b813581811115614221576142216141ba565b8060051b604051601f19603f83011681018181108582111715614246576142466141ba565b60405291825284820192508381018501918883111561426457600080fd5b938501935b8285101561428257843584529385019392850192614269565b98975050505050505050565b6020808252825182820181905260009190848201906040850190845b818110156142c6578351835292840192918401916001016142aa565b50909695505050505050565b634e487b7160e01b600052601160045260246000fd5b60006001600160a01b0383811690831681811015614308576143086142d2565b039392505050565b60006001600160a01b03828116848216808303821115614332576143326142d2565b01949350505050565b6000806040838503121561434e57600080fd5b505080516020909101519092909150565b634e487b7160e01b600052600160045260246000fd5b60008219821115614388576143886142d2565b500190565b60008160020b627fffff198114156143a7576143a76142d2565b60000392915050565b634e487b7160e01b600052601260045260246000fd5b60008260020b806143d9576143d96143b0565b808360020b0791505092915050565b805161ffff81168114613a4157600080fd5b8051613a4181613f3d565b600080600080600080600060e0888a03121561442057600080fd5b875161442b81613f4e565b602089015190975061443c81613fa5565b955061444a604089016143e8565b9450614458606089016143e8565b9350614466608089016143e8565b925060a088015160ff8116811461447c57600080fd5b60c089015190925061448d81613f3d565b8091505092959891949750929550565b6000828210156144af576144af6142d2565b500390565b6000602082840312156144c657600080fd5b815161232a81613f4e565b600081600f0b6f7fffffffffffffffffffffffffffffff198114156143a7576143a76142d2565b60006020828403121561450a57600080fd5b813561232a81613f4e565b6000600160ff1b82141561452b5761452b6142d2565b5060000390565b60006020828403121561454457600080fd5b815161232a816140df565b60006020828403121561456157600080fd5b5051919050565b60008083128015600160ff1b850184121615614586576145866142d2565b6001600160ff1b03840183138116156145a1576145a16142d2565b50500390565b600080821280156001600160ff1b03849003851316156145c9576145c96142d2565b600160ff1b83900384128116156145e2576145e26142d2565b50500190565b600080604083850312156145fb57600080fd5b825161460681613fb4565b602084015190925061408c81613fb4565b600062ffffff83811690831681811015614308576143086142d2565b60006001600160ff1b0381841382841380821686840486111615614659576146596142d2565b600160ff1b6000871282811687830589121615614678576146786142d2565b60008712925087820587128484161615614694576146946142d2565b878505871281841616156146aa576146aa6142d2565b505050929093029392505050565b6000826146c7576146c76143b0565b600160ff1b8214600019841416156146e1576146e16142d2565b500590565b634e487b7160e01b600052602160045260246000fd5b6000816000190483118215151615614716576147166142d2565b500290565b60008261472a5761472a6143b0565b500490565b600062ffffff808316818516808303821115614332576143326142d2565b60006020828403121561475f57600080fd5b815161232a81613fb4565b60006020828403121561477c57600080fd5b815161232a81613fa5565b600080600080600080600080610100898b0312156147a457600080fd5b88516147af81613fb4565b80985050602089015180600f0b81146147c757600080fd5b80975050604089015195506060890151945060808901518060060b81146147ed57600080fd5b60a08a01519094506147fe81613f4e565b60c08a015190935063ffffffff8116811461481857600080fd5b915061482660e08a016143fa565b90509295985092959890939650565b60008160020b8360020b6000811281627fffff190183128115161561485c5761485c6142d2565b81627fffff018313811615614873576148736142d2565b5090039392505050565b600065ffffffffffff83811690831681811015614308576143086142d2565b60008160020b8360020b806148b3576148b36143b0565b627fffff198214600019821416156148cd576148cd6142d2565b90059392505050565b60008160020b627fffff198114156148f0576148f06142d2565b6000190192915050565b60008160020b8360020b627fffff600082136000841383830485118282161615614926576149266142d2565b627fffff196000851282811687830587121615614945576149456142d2565b60008712925085820587128484161615614961576149616142d2565b85850587128184161615614977576149776142d2565b5050509290910295945050505050565b600060ff821660ff8416808210156149a1576149a16142d2565b90039392505050565b60008160020b8360020b6000821282627fffff038213811516156149d0576149d06142d2565b82627fffff190382128116156149e8576149e86142d2565b5001939250505056fea2646970667358221220500c6466c4fdfa214dcbb1a4d8f674b80d55a79847c6d40c32a15ec9bf158b8764736f6c634300080c0033",
  "devdoc": {
    "kind": "dev",
    "methods": {
      "swap(bool,int256,uint160)": {
        "params": {
          "amountSpecified": ": The amount of the swap, which implicitly configures the swap as exact input (positive), or exact output (negative)",
          "sqrtPriceLimitX96": ": The Q64.96 sqrt price limit. If zero for one, the price cannot be less than this value after the swap. If one for zero, the price cannot be greater than this value after the swap.",
          "swapVTokenForVQuote": ": The direction of the swap, true for vToken to vQuote, false for vQuote to vToken"
        }
      }
    },
    "version": 1
  },
  "userdoc": {
    "kind": "user",
    "methods": {
      "__initialize_VPoolWrapper((address,address,address,address,uint24,uint24,uint24))": {
        "notice": "PLATFORM FUNCTIONS"
      },
      "getSumAX128()": {
        "notice": "VIEW METHODS"
      },
      "setLiquidityFee(uint24)": {
        "notice": "ADMIN FUNCTIONS"
      },
      "swap(bool,int256,uint160)": {
        "notice": "Swap vToken for vQuote, or vQuote for vToken"
      },
      "uniswapV3SwapCallback(int256,int256,bytes)": {
        "notice": "UNISWAP V3 POOL CALLBACkS"
      }
    },
    "version": 1
  },
  "storageLayout": {
    "storage": [
      {
        "astId": 299,
        "contract": "contracts/protocol/wrapper/VPoolWrapper.sol:VPoolWrapper",
        "label": "_initialized",
        "offset": 0,
        "slot": "0",
        "type": "t_bool"
      },
      {
        "astId": 302,
        "contract": "contracts/protocol/wrapper/VPoolWrapper.sol:VPoolWrapper",
        "label": "_initializing",
        "offset": 1,
        "slot": "0",
        "type": "t_bool"
      },
      {
        "astId": 22588,
        "contract": "contracts/protocol/wrapper/VPoolWrapper.sol:VPoolWrapper",
        "label": "clearingHouse",
        "offset": 2,
        "slot": "0",
        "type": "t_contract(IClearingHouse)8042"
      },
      {
        "astId": 22591,
        "contract": "contracts/protocol/wrapper/VPoolWrapper.sol:VPoolWrapper",
        "label": "vToken",
        "offset": 0,
        "slot": "1",
        "type": "t_contract(IVToken)8343"
      },
      {
        "astId": 22594,
        "contract": "contracts/protocol/wrapper/VPoolWrapper.sol:VPoolWrapper",
        "label": "vQuote",
        "offset": 0,
        "slot": "2",
        "type": "t_contract(IVQuote)8319"
      },
      {
        "astId": 22597,
        "contract": "contracts/protocol/wrapper/VPoolWrapper.sol:VPoolWrapper",
        "label": "vPool",
        "offset": 0,
        "slot": "3",
        "type": "t_contract(IUniswapV3Pool)5513"
      },
      {
        "astId": 22599,
        "contract": "contracts/protocol/wrapper/VPoolWrapper.sol:VPoolWrapper",
        "label": "uniswapFeePips",
        "offset": 20,
        "slot": "3",
        "type": "t_uint24"
      },
      {
        "astId": 22601,
        "contract": "contracts/protocol/wrapper/VPoolWrapper.sol:VPoolWrapper",
        "label": "liquidityFeePips",
        "offset": 23,
        "slot": "3",
        "type": "t_uint24"
      },
      {
        "astId": 22603,
        "contract": "contracts/protocol/wrapper/VPoolWrapper.sol:VPoolWrapper",
        "label": "protocolFeePips",
        "offset": 26,
        "slot": "3",
        "type": "t_uint24"
      },
      {
        "astId": 22605,
        "contract": "contracts/protocol/wrapper/VPoolWrapper.sol:VPoolWrapper",
        "label": "accruedProtocolFee",
        "offset": 0,
        "slot": "4",
        "type": "t_uint256"
      },
      {
        "astId": 22608,
        "contract": "contracts/protocol/wrapper/VPoolWrapper.sol:VPoolWrapper",
        "label": "fpGlobal",
        "offset": 0,
        "slot": "5",
        "type": "t_struct(Info)11140_storage"
      },
      {
        "astId": 22610,
        "contract": "contracts/protocol/wrapper/VPoolWrapper.sol:VPoolWrapper",
        "label": "sumFeeGlobalX128",
        "offset": 0,
        "slot": "9",
        "type": "t_uint256"
      },
      {
        "astId": 22615,
        "contract": "contracts/protocol/wrapper/VPoolWrapper.sol:VPoolWrapper",
        "label": "ticksExtended",
        "offset": 0,
        "slot": "10",
        "type": "t_mapping(t_int24,t_struct(Info)15366_storage)"
      }
    ],
    "types": {
      "t_bool": {
        "encoding": "inplace",
        "label": "bool",
        "numberOfBytes": "1"
      },
      "t_contract(IClearingHouse)8042": {
        "encoding": "inplace",
        "label": "contract IClearingHouse",
        "numberOfBytes": "20"
      },
      "t_contract(IUniswapV3Pool)5513": {
        "encoding": "inplace",
        "label": "contract IUniswapV3Pool",
        "numberOfBytes": "20"
      },
      "t_contract(IVQuote)8319": {
        "encoding": "inplace",
        "label": "contract IVQuote",
        "numberOfBytes": "20"
      },
      "t_contract(IVToken)8343": {
        "encoding": "inplace",
        "label": "contract IVToken",
        "numberOfBytes": "20"
      },
      "t_int24": {
        "encoding": "inplace",
        "label": "int24",
        "numberOfBytes": "3"
      },
      "t_int256": {
        "encoding": "inplace",
        "label": "int256",
        "numberOfBytes": "32"
      },
      "t_mapping(t_int24,t_struct(Info)15366_storage)": {
        "encoding": "mapping",
        "key": "t_int24",
        "label": "mapping(int24 => struct Tick.Info)",
        "numberOfBytes": "32",
        "value": "t_struct(Info)15366_storage"
      },
      "t_struct(Info)11140_storage": {
        "encoding": "inplace",
        "label": "struct FundingPayment.Info",
        "members": [
          {
            "astId": 11133,
            "contract": "contracts/protocol/wrapper/VPoolWrapper.sol:VPoolWrapper",
            "label": "sumAX128",
            "offset": 0,
            "slot": "0",
            "type": "t_int256"
          },
          {
            "astId": 11135,
            "contract": "contracts/protocol/wrapper/VPoolWrapper.sol:VPoolWrapper",
            "label": "sumBX128",
            "offset": 0,
            "slot": "1",
            "type": "t_int256"
          },
          {
            "astId": 11137,
            "contract": "contracts/protocol/wrapper/VPoolWrapper.sol:VPoolWrapper",
            "label": "sumFpX128",
            "offset": 0,
            "slot": "2",
            "type": "t_int256"
          },
          {
            "astId": 11139,
            "contract": "contracts/protocol/wrapper/VPoolWrapper.sol:VPoolWrapper",
            "label": "timestampLast",
            "offset": 0,
            "slot": "3",
            "type": "t_uint48"
          }
        ],
        "numberOfBytes": "128"
      },
      "t_struct(Info)15366_storage": {
        "encoding": "inplace",
        "label": "struct Tick.Info",
        "members": [
          {
            "astId": 15359,
            "contract": "contracts/protocol/wrapper/VPoolWrapper.sol:VPoolWrapper",
            "label": "sumALastX128",
            "offset": 0,
            "slot": "0",
            "type": "t_int256"
          },
          {
            "astId": 15361,
            "contract": "contracts/protocol/wrapper/VPoolWrapper.sol:VPoolWrapper",
            "label": "sumBOutsideX128",
            "offset": 0,
            "slot": "1",
            "type": "t_int256"
          },
          {
            "astId": 15363,
            "contract": "contracts/protocol/wrapper/VPoolWrapper.sol:VPoolWrapper",
            "label": "sumFpOutsideX128",
            "offset": 0,
            "slot": "2",
            "type": "t_int256"
          },
          {
            "astId": 15365,
            "contract": "contracts/protocol/wrapper/VPoolWrapper.sol:VPoolWrapper",
            "label": "sumFeeOutsideX128",
            "offset": 0,
            "slot": "3",
            "type": "t_uint256"
          }
        ],
        "numberOfBytes": "128"
      },
      "t_uint24": {
        "encoding": "inplace",
        "label": "uint24",
        "numberOfBytes": "3"
      },
      "t_uint256": {
        "encoding": "inplace",
        "label": "uint256",
        "numberOfBytes": "32"
      },
      "t_uint48": {
        "encoding": "inplace",
        "label": "uint48",
        "numberOfBytes": "6"
      }
    }
  }
}