{
  "address": "0x147D339641c41E2EfCD3cd2053fF7E7D2D43b479",
  "abi": [
    {
      "inputs": [
        {
          "internalType": "uint160",
          "name": "sqrtPriceLimitX96",
          "type": "uint160"
        }
      ],
      "name": "InvalidSqrtPriceLimit",
      "type": "error"
    },
    {
      "inputs": [
        {
          "internalType": "int24",
          "name": "tickLower",
          "type": "int24"
        },
        {
          "internalType": "int24",
          "name": "tickUpper",
          "type": "int24"
        }
      ],
      "name": "InvalidTicks",
      "type": "error"
    },
    {
      "inputs": [],
      "name": "NotClearingHouse",
      "type": "error"
    },
    {
      "inputs": [],
      "name": "NotGovernance",
      "type": "error"
    },
    {
      "inputs": [],
      "name": "NotUniswapV3Pool",
      "type": "error"
    },
    {
      "inputs": [],
      "name": "R",
      "type": "error"
    },
    {
      "inputs": [
        {
          "internalType": "uint128",
          "name": "value",
          "type": "uint128"
        }
      ],
      "name": "SafeCast_Int128Overflow",
      "type": "error"
    },
    {
      "inputs": [
        {
          "internalType": "uint256",
          "name": "value",
          "type": "uint256"
        }
      ],
      "name": "SafeCast_Int256Overflow",
      "type": "error"
    },
    {
      "inputs": [],
      "name": "T",
      "type": "error"
    },
    {
      "inputs": [],
      "name": "ZeroAmount",
      "type": "error"
    },
    {
      "anonymous": false,
      "inputs": [
        {
          "indexed": false,
          "internalType": "uint256",
          "name": "amount",
          "type": "uint256"
        }
      ],
      "name": "AccruedProtocolFeeCollected",
      "type": "event"
    },
    {
      "anonymous": false,
      "inputs": [
        {
          "indexed": false,
          "internalType": "int24",
          "name": "tickLower",
          "type": "int24"
        },
        {
          "indexed": false,
          "internalType": "int24",
          "name": "tickUpper",
          "type": "int24"
        },
        {
          "indexed": false,
          "internalType": "uint128",
          "name": "liquidity",
          "type": "uint128"
        },
        {
          "indexed": false,
          "internalType": "uint256",
          "name": "vTokenPrincipal",
          "type": "uint256"
        },
        {
          "indexed": false,
          "internalType": "uint256",
          "name": "vQuotePrincipal",
          "type": "uint256"
        }
      ],
      "name": "Burn",
      "type": "event"
    },
    {
      "anonymous": false,
      "inputs": [
        {
          "indexed": false,
          "internalType": "uint24",
          "name": "liquidityFeePips",
          "type": "uint24"
        }
      ],
      "name": "LiquidityFeeUpdated",
      "type": "event"
    },
    {
      "anonymous": false,
      "inputs": [
        {
          "indexed": false,
          "internalType": "int24",
          "name": "tickLower",
          "type": "int24"
        },
        {
          "indexed": false,
          "internalType": "int24",
          "name": "tickUpper",
          "type": "int24"
        },
        {
          "indexed": false,
          "internalType": "uint128",
          "name": "liquidity",
          "type": "uint128"
        },
        {
          "indexed": false,
          "internalType": "uint256",
          "name": "vTokenPrincipal",
          "type": "uint256"
        },
        {
          "indexed": false,
          "internalType": "uint256",
          "name": "vQuotePrincipal",
          "type": "uint256"
        }
      ],
      "name": "Mint",
      "type": "event"
    },
    {
      "anonymous": false,
      "inputs": [
        {
          "indexed": false,
          "internalType": "uint24",
          "name": "protocolFeePips",
          "type": "uint24"
        }
      ],
      "name": "ProtocolFeeUpdated",
      "type": "event"
    },
    {
      "anonymous": false,
      "inputs": [
        {
          "components": [
            {
              "internalType": "int256",
              "name": "amountSpecified",
              "type": "int256"
            },
            {
              "internalType": "int256",
              "name": "vTokenIn",
              "type": "int256"
            },
            {
              "internalType": "int256",
              "name": "vQuoteIn",
              "type": "int256"
            },
            {
              "internalType": "uint256",
              "name": "liquidityFees",
              "type": "uint256"
            },
            {
              "internalType": "uint256",
              "name": "protocolFees",
              "type": "uint256"
            },
            {
              "internalType": "uint160",
              "name": "sqrtPriceX96Start",
              "type": "uint160"
            },
            {
              "internalType": "uint160",
              "name": "sqrtPriceX96End",
              "type": "uint160"
            }
          ],
          "indexed": false,
          "internalType": "struct IVPoolWrapper.SwapResult",
          "name": "swapResult",
          "type": "tuple"
        }
      ],
      "name": "Swap",
      "type": "event"
    },
    {
      "inputs": [
        {
          "components": [
            {
              "internalType": "contract IClearingHouse",
              "name": "clearingHouse",
              "type": "address"
            },
            {
              "internalType": "contract IVToken",
              "name": "vToken",
              "type": "address"
            },
            {
              "internalType": "contract IVQuote",
              "name": "vQuote",
              "type": "address"
            },
            {
              "internalType": "contract IUniswapV3Pool",
              "name": "vPool",
              "type": "address"
            },
            {
              "internalType": "uint24",
              "name": "liquidityFeePips",
              "type": "uint24"
            },
            {
              "internalType": "uint24",
              "name": "protocolFeePips",
              "type": "uint24"
            }
          ],
          "internalType": "struct IVPoolWrapper.InitializeVPoolWrapperParams",
          "name": "params",
          "type": "tuple"
        }
      ],
      "name": "__initialize_VPoolWrapper",
      "outputs": [],
      "stateMutability": "nonpayable",
      "type": "function"
    },
    {
      "inputs": [],
      "name": "accruedProtocolFee",
      "outputs": [
        {
          "internalType": "uint256",
          "name": "",
          "type": "uint256"
        }
      ],
      "stateMutability": "view",
      "type": "function"
    },
    {
      "inputs": [
        {
          "internalType": "int24",
          "name": "tickLower",
          "type": "int24"
        },
        {
          "internalType": "int24",
          "name": "tickUpper",
          "type": "int24"
        },
        {
          "internalType": "uint128",
          "name": "liquidity",
          "type": "uint128"
        }
      ],
      "name": "burn",
      "outputs": [
        {
          "internalType": "uint256",
          "name": "vTokenPrincipal",
          "type": "uint256"
        },
        {
          "internalType": "uint256",
          "name": "vQuotePrincipal",
          "type": "uint256"
        },
        {
          "components": [
            {
              "internalType": "int256",
              "name": "sumAX128",
              "type": "int256"
            },
            {
              "internalType": "int256",
              "name": "sumBInsideX128",
              "type": "int256"
            },
            {
              "internalType": "int256",
              "name": "sumFpInsideX128",
              "type": "int256"
            },
            {
              "internalType": "uint256",
              "name": "sumFeeInsideX128",
              "type": "uint256"
            }
          ],
          "internalType": "struct IVPoolWrapper.WrapperValuesInside",
          "name": "wrapperValuesInside",
          "type": "tuple"
        }
      ],
      "stateMutability": "nonpayable",
      "type": "function"
    },
    {
      "inputs": [],
      "name": "clearingHouse",
      "outputs": [
        {
          "internalType": "contract IClearingHouse",
          "name": "",
          "type": "address"
        }
      ],
      "stateMutability": "view",
      "type": "function"
    },
    {
      "inputs": [],
      "name": "collectAccruedProtocolFee",
      "outputs": [
        {
          "internalType": "uint256",
          "name": "accruedProtocolFeeLast",
          "type": "uint256"
        }
      ],
      "stateMutability": "nonpayable",
      "type": "function"
    },
    {
      "inputs": [
        {
          "internalType": "bytes32",
          "name": "slot",
          "type": "bytes32"
        }
      ],
      "name": "extsload",
      "outputs": [
        {
          "internalType": "bytes32",
          "name": "val",
          "type": "bytes32"
        }
      ],
      "stateMutability": "view",
      "type": "function"
    },
    {
      "inputs": [
        {
          "internalType": "bytes32[]",
          "name": "slots",
          "type": "bytes32[]"
        }
      ],
      "name": "extsload",
      "outputs": [
        {
          "internalType": "bytes32[]",
          "name": "",
          "type": "bytes32[]"
        }
      ],
      "stateMutability": "view",
      "type": "function"
    },
    {
      "inputs": [],
      "name": "fpGlobal",
      "outputs": [
        {
          "internalType": "int256",
          "name": "sumAX128",
          "type": "int256"
        },
        {
          "internalType": "int256",
          "name": "sumBX128",
          "type": "int256"
        },
        {
          "internalType": "int256",
          "name": "sumFpX128",
          "type": "int256"
        },
        {
          "internalType": "uint48",
          "name": "timestampLast",
          "type": "uint48"
        }
      ],
      "stateMutability": "view",
      "type": "function"
    },
    {
      "inputs": [],
      "name": "getExtrapolatedSumAX128",
      "outputs": [
        {
          "internalType": "int256",
          "name": "",
          "type": "int256"
        }
      ],
      "stateMutability": "view",
      "type": "function"
    },
    {
      "inputs": [
        {
          "internalType": "int24",
          "name": "tickLower",
          "type": "int24"
        },
        {
          "internalType": "int24",
          "name": "tickUpper",
          "type": "int24"
        }
      ],
      "name": "getExtrapolatedValuesInside",
      "outputs": [
        {
          "components": [
            {
              "internalType": "int256",
              "name": "sumAX128",
              "type": "int256"
            },
            {
              "internalType": "int256",
              "name": "sumBInsideX128",
              "type": "int256"
            },
            {
              "internalType": "int256",
              "name": "sumFpInsideX128",
              "type": "int256"
            },
            {
              "internalType": "uint256",
              "name": "sumFeeInsideX128",
              "type": "uint256"
            }
          ],
          "internalType": "struct IVPoolWrapper.WrapperValuesInside",
          "name": "wrapperValuesInside",
          "type": "tuple"
        }
      ],
      "stateMutability": "view",
      "type": "function"
    },
    {
      "inputs": [],
      "name": "getSumAX128",
      "outputs": [
        {
          "internalType": "int256",
          "name": "",
          "type": "int256"
        }
      ],
      "stateMutability": "view",
      "type": "function"
    },
    {
      "inputs": [
        {
          "internalType": "int24",
          "name": "tickLower",
          "type": "int24"
        },
        {
          "internalType": "int24",
          "name": "tickUpper",
          "type": "int24"
        }
      ],
      "name": "getValuesInside",
      "outputs": [
        {
          "components": [
            {
              "internalType": "int256",
              "name": "sumAX128",
              "type": "int256"
            },
            {
              "internalType": "int256",
              "name": "sumBInsideX128",
              "type": "int256"
            },
            {
              "internalType": "int256",
              "name": "sumFpInsideX128",
              "type": "int256"
            },
            {
              "internalType": "uint256",
              "name": "sumFeeInsideX128",
              "type": "uint256"
            }
          ],
          "internalType": "struct IVPoolWrapper.WrapperValuesInside",
          "name": "wrapperValuesInside",
          "type": "tuple"
        }
      ],
      "stateMutability": "view",
      "type": "function"
    },
    {
      "inputs": [],
      "name": "liquidityFeePips",
      "outputs": [
        {
          "internalType": "uint24",
          "name": "",
          "type": "uint24"
        }
      ],
      "stateMutability": "view",
      "type": "function"
    },
    {
      "inputs": [
        {
          "internalType": "int24",
          "name": "tickLower",
          "type": "int24"
        },
        {
          "internalType": "int24",
          "name": "tickUpper",
          "type": "int24"
        },
        {
          "internalType": "uint128",
          "name": "liquidity",
          "type": "uint128"
        }
      ],
      "name": "mint",
      "outputs": [
        {
          "internalType": "uint256",
          "name": "vTokenPrincipal",
          "type": "uint256"
        },
        {
          "internalType": "uint256",
          "name": "vQuotePrincipal",
          "type": "uint256"
        },
        {
          "components": [
            {
              "internalType": "int256",
              "name": "sumAX128",
              "type": "int256"
            },
            {
              "internalType": "int256",
              "name": "sumBInsideX128",
              "type": "int256"
            },
            {
              "internalType": "int256",
              "name": "sumFpInsideX128",
              "type": "int256"
            },
            {
              "internalType": "uint256",
              "name": "sumFeeInsideX128",
              "type": "uint256"
            }
          ],
          "internalType": "struct IVPoolWrapper.WrapperValuesInside",
          "name": "wrapperValuesInside",
          "type": "tuple"
        }
      ],
      "stateMutability": "nonpayable",
      "type": "function"
    },
    {
      "inputs": [],
      "name": "protocolFeePips",
      "outputs": [
        {
          "internalType": "uint24",
          "name": "",
          "type": "uint24"
        }
      ],
      "stateMutability": "view",
      "type": "function"
    },
    {
      "inputs": [
        {
          "internalType": "uint24",
          "name": "liquidityFeePips_",
          "type": "uint24"
        }
      ],
      "name": "setLiquidityFee",
      "outputs": [],
      "stateMutability": "nonpayable",
      "type": "function"
    },
    {
      "inputs": [
        {
          "internalType": "uint24",
          "name": "protocolFeePips_",
          "type": "uint24"
        }
      ],
      "name": "setProtocolFee",
      "outputs": [],
      "stateMutability": "nonpayable",
      "type": "function"
    },
    {
      "inputs": [],
      "name": "sumFeeGlobalX128",
      "outputs": [
        {
          "internalType": "uint256",
          "name": "",
          "type": "uint256"
        }
      ],
      "stateMutability": "view",
      "type": "function"
    },
    {
      "inputs": [
        {
          "internalType": "bool",
          "name": "swapVTokenForVQuote",
          "type": "bool"
        },
        {
          "internalType": "int256",
          "name": "amountSpecified",
          "type": "int256"
        },
        {
          "internalType": "uint160",
          "name": "sqrtPriceLimitX96",
          "type": "uint160"
        }
      ],
      "name": "swap",
      "outputs": [
        {
          "components": [
            {
              "internalType": "int256",
              "name": "amountSpecified",
              "type": "int256"
            },
            {
              "internalType": "int256",
              "name": "vTokenIn",
              "type": "int256"
            },
            {
              "internalType": "int256",
              "name": "vQuoteIn",
              "type": "int256"
            },
            {
              "internalType": "uint256",
              "name": "liquidityFees",
              "type": "uint256"
            },
            {
              "internalType": "uint256",
              "name": "protocolFees",
              "type": "uint256"
            },
            {
              "internalType": "uint160",
              "name": "sqrtPriceX96Start",
              "type": "uint160"
            },
            {
              "internalType": "uint160",
              "name": "sqrtPriceX96End",
              "type": "uint160"
            }
          ],
          "internalType": "struct IVPoolWrapper.SwapResult",
          "name": "swapResult",
          "type": "tuple"
        }
      ],
      "stateMutability": "nonpayable",
      "type": "function"
    },
    {
      "inputs": [
        {
          "internalType": "int24",
          "name": "",
          "type": "int24"
        }
      ],
      "name": "ticksExtended",
      "outputs": [
        {
          "internalType": "int256",
          "name": "sumALastX128",
          "type": "int256"
        },
        {
          "internalType": "int256",
          "name": "sumBOutsideX128",
          "type": "int256"
        },
        {
          "internalType": "int256",
          "name": "sumFpOutsideX128",
          "type": "int256"
        },
        {
          "internalType": "uint256",
          "name": "sumFeeOutsideX128",
          "type": "uint256"
        }
      ],
      "stateMutability": "view",
      "type": "function"
    },
    {
      "inputs": [
        {
          "internalType": "uint256",
          "name": "vTokenAmount",
          "type": "uint256"
        },
        {
          "internalType": "uint256",
          "name": "vQuoteAmount",
          "type": "uint256"
        },
        {
          "internalType": "bytes",
          "name": "",
          "type": "bytes"
        }
      ],
      "name": "uniswapV3MintCallback",
      "outputs": [],
      "stateMutability": "nonpayable",
      "type": "function"
    },
    {
      "inputs": [
        {
          "internalType": "int256",
          "name": "amount0Delta",
          "type": "int256"
        },
        {
          "internalType": "int256",
          "name": "amount1Delta",
          "type": "int256"
        },
        {
          "internalType": "bytes",
          "name": "",
          "type": "bytes"
        }
      ],
      "name": "uniswapV3SwapCallback",
      "outputs": [],
      "stateMutability": "nonpayable",
      "type": "function"
    },
    {
      "inputs": [
        {
          "internalType": "uint256",
          "name": "realPriceX128",
          "type": "uint256"
        },
        {
          "internalType": "uint256",
          "name": "virtualPriceX128",
          "type": "uint256"
        }
      ],
      "name": "updateGlobalFundingState",
      "outputs": [],
      "stateMutability": "nonpayable",
      "type": "function"
    },
    {
      "inputs": [],
      "name": "vPool",
      "outputs": [
        {
          "internalType": "contract IUniswapV3Pool",
          "name": "",
          "type": "address"
        }
      ],
      "stateMutability": "view",
      "type": "function"
    },
    {
      "inputs": [],
      "name": "vQuote",
      "outputs": [
        {
          "internalType": "contract IVQuote",
          "name": "",
          "type": "address"
        }
      ],
      "stateMutability": "view",
      "type": "function"
    },
    {
      "inputs": [],
      "name": "vToken",
      "outputs": [
        {
          "internalType": "contract IVToken",
          "name": "",
          "type": "address"
        }
      ],
      "stateMutability": "view",
      "type": "function"
    }
  ],
  "transactionHash": "0x5e376744c80d7ed293612918df34dccc706a1d134b7fd89e84c30e0707b54359",
  "args": [],
  "numDeployments": 1,
  "solcInputHash": "64ebba1625aa43ef47315b431f1caaa1",
  "bytecode": "0x608060405234801561001057600080fd5b50614ad7806100206000396000f3fe608060405234801561001057600080fd5b506004361061018e5760003560e01c806386c8e9a7116100de578063acfd792811610097578063dbd035ff11610071578063dbd035ff146103e7578063dee4c1a614610407578063fa461e331461041a578063fca6fbf21461042d57600080fd5b8063acfd7928146103c2578063c04b98c4146103cb578063d3487997146103d457600080fd5b806386c8e9a7146103445780638b1e97811461036e5780639bb1a99c14610381578063a34123a714610394578063a3a1e7e9146103a7578063a3c35e2c146103af57600080fd5b80634bc36bd61161014b5780636c544335116101255780636c544335146102ce5780636d87989a146103145780637779815c146103295780637feedaa11461033157600080fd5b80634bc36bd6146102a05780635e622abc146102b35780636719578c146102bb57600080fd5b80630af9680014610193578063195cd92c146101c95780631dce5fcf146101e95780631e2eaeaf1461020b5780632a99a7921461022b57806348aaa8c01461024b575b600080fd5b6000546101ac906201000090046001600160a01b031681565b6040516001600160a01b0390911681526020015b60405180910390f35b6101dc6101d7366004613f5b565b610443565b6040516101c09190613f9d565b6101fc6101f7366004614019565b6107cc565b6040516101c093929190614059565b61021d610219366004614095565b5490565b6040519081526020016101c0565b61023e6102393660046140ae565b6109b1565b6040516101c091906140e7565b610280610259366004614112565b600a6020526000908152604090208054600182015460028301546003909301549192909184565b6040805194855260208501939093529183015260608201526080016101c0565b6002546101ac906001600160a01b031681565b61021d610add565b6003546101ac906001600160a01b031681565b6005546006546007546008546102ec9392919065ffffffffffff1684565b6040805194855260208501939093529183015265ffffffffffff1660608201526080016101c0565b61032761032236600461412f565b610b5c565b005b60055461021d565b61032761033f366004614162565b610ba6565b60035461035a90600160a01b900462ffffff1681565b60405162ffffff90911681526020016101c0565b61032761037c366004614162565b610ca7565b6001546101ac906001600160a01b031681565b6101fc6103a2366004614019565b610da1565b61021d610f6b565b61023e6103bd3660046140ae565b611024565b61021d60045481565b61021d60095481565b6103276103e23660046141c1565b6111c1565b6103fa6103f536600461422a565b6112c9565b6040516101c091906142e8565b61032761041536600461432c565b6112f7565b6103276104283660046141c1565b6114ed565b60035461035a90600160b81b900462ffffff1681565b6104956040518060e00160405280600081526020016000815260200160008152602001600081526020016000815260200160006001600160a01b0316815260200160006001600160a01b031681525090565b6000546201000090046001600160a01b031633146104c657604051638597d08b60e01b815260040160405180910390fd5b600080841215906001600160a01b0384169003610519578461050657610501600173fffd8963efd1fc6a506488495d951d5263988d2661435a565b610516565b6105166401000276a36001614382565b92505b83825260035461054790829087906101f49062ffffff600160a01b8204811691600160b81b900416876116b6565b60408051610100810182526000808252602082018190529181018290526060810182905260c0810182905260e08101829052600a60808201526101f460a082015290546001546001600160a01b036201000090920482169163da047996916105af911661175d565b6040516001600160e01b031960e084901b16815263ffffffff9190911660048201526024016040805180830381865afa1580156105f0573d6000803e3d6000fd5b505050506040513d601f19601f8201168201806040525081019061061491906143ad565b60e083015260c0820152825160035460009182918291610644916001600160a01b0316908b908a8861176d6118e4565b86516001600160a01b0390811660a08b0152604080830151821660c08c01526003548b519151630251596160e31b8152959850939650919450919091169163128acb08916106cf9130918e918d906004016001600160a01b03948516815292151560208401526040830191909152909116606082015260a06080820181905260009082015260c00190565b60408051808303816000875af11580156106ed573d6000803e3d6000fd5b505050506040513d601f19601f8201168201806040525081019061071191906143ad565b6040880152602087018190528314801561072e5750856040015182145b61073a5761073a6143d1565b5050600354610769925083915087906101f49062ffffff600160a01b8204811691600160b81b90041687612097565b81608001516004600082825461077f91906143e7565b9091555061078d90506121a7565b7f374e2c00db0195ec47718dc83fbed946c07c24c240e8332e547d9b4ac086fd47826040516107bc9190613f9d565b60405180910390a1509392505050565b6000806107fa6040518060800160405280600081526020016000815260200160008152602001600081525090565b6000546201000090046001600160a01b0316331461082b57604051638597d08b60e01b815260040160405180910390fd5b85858060020b8260020b1215806108495750620d89e719600283900b125b80610865575061085c620d89e7196143ff565b60020b8160020b135b8061087c5750610876600a83614437565b60020b15155b80610893575061088d600a82614437565b60020b15155b156108c45760405163957b5ed560e01b8152600283810b600483015282900b60248201526044015b60405180910390fd5b6108cc61234a565b6108fd88886108e3896001600160801b03166123ec565b6003546108f8906001600160a01b031661242a565b61249b565b600354604051633c8a7d8d60e01b815230600482015260028b810b60248301528a900b60448201526001600160801b038916606482015260a06084820152600060a4820181905292955082916001600160a01b031690633c8a7d8d9060c40160408051808303816000875af115801561097a573d6000803e3d6000fd5b505050506040513d601f19601f8201168201806040525081019061099e91906143ad565b909b909a50949850939650505050505050565b6109dc6040518060800160405280600081526020016000815260200160008152602001600081525090565b60035460408051633850c7bd60e01b815290516000926001600160a01b031691633850c7bd9160048083019260e09291908290030181865afa158015610a26573d6000803e3d6000fd5b505050506040513d601f19601f82011682018060405250810190610a4a9190614476565b505060408051608081018252600554815260065460208201526007549181019190915260085465ffffffffffff166060820152939550929350610a909250610f6b915050565b808252600554600654600754610aa5936125ec565b604082015280518352600954610ac590600a90879087908690869061261c565b60608601526040850152602084015250909392505050565b600080546201000090046001600160a01b03163314610b0f57604051638597d08b60e01b815260040160405180910390fd5b6001600454610b1e919061450e565b60016004556040518181529091507f889bbef14ccbbb6f97773359c9c09396f67ed97695236771816a304ec5d886119060200160405180910390a190565b6000546201000090046001600160a01b03163314610b8d57604051638597d08b60e01b815260040160405180910390fd5b610ba260006001425b60059291908686612774565b5050565b600060029054906101000a90046001600160a01b03166001600160a01b0316635aa6e6756040518163ffffffff1660e01b8152600401602060405180830381865afa158015610bf9573d6000803e3d6000fd5b505050506040513d601f19601f82011682018060405250810190610c1d9190614525565b6001600160a01b0316336001600160a01b031614610c4e57604051632d5be4cb60e21b815260040160405180910390fd5b6003805462ffffff60b81b1916600160b81b62ffffff8416908102919091179091556040519081527f2edf7eef14cb246dab2aac555e300928981632918159d9e33fcaa24dcd38cb40906020015b60405180910390a150565b600060029054906101000a90046001600160a01b03166001600160a01b0316635aa6e6756040518163ffffffff1660e01b8152600401602060405180830381865afa158015610cfa573d6000803e3d6000fd5b505050506040513d601f19601f82011682018060405250810190610d1e9190614525565b6001600160a01b0316336001600160a01b031614610d4f57604051632d5be4cb60e21b815260040160405180910390fd5b6003805462ffffff60a01b1916600160a01b62ffffff8416908102919091179091556040519081527f5e286c9a939d59334080ddf15517957037c2228384e26bb92a368ce44c531edd90602001610c9c565b600080610dcf6040518060800160405280600081526020016000815260200160008152602001600081525090565b6000546201000090046001600160a01b03163314610e0057604051638597d08b60e01b815260040160405180910390fd5b85858060020b8260020b121580610e1e5750620d89e719600283900b125b80610e3a5750610e31620d89e7196143ff565b60020b8160020b135b80610e515750610e4b600a83614437565b60020b15155b80610e685750610e62600a82614437565b60020b15155b15610e945760405163957b5ed560e01b8152600283810b600483015282900b60248201526044016108bb565b610e9c61234a565b610ebc8888610eb3896001600160801b03166123ec565b6108e390614542565b60035460405163a34123a760e01b815260028b810b60048301528a900b60248201526001600160801b038916604482015291945060009182916001600160a01b03169063a34123a79060640160408051808303816000875af1158015610f26573d6000803e3d6000fd5b505050506040513d601f19601f82011682018060405250810190610f4a91906143ad565b91509150819650809550610f5e8a8a612885565b5050505093509350939050565b60008054600154829182916001600160a01b036201000090920482169163da04799691610f98911661175d565b6040516001600160e01b031960e084901b16815263ffffffff9190911660048201526024016040805180830381865afa158015610fd9573d6000803e3d6000fd5b505050506040513d601f19601f82011682018060405250810190610ffd91906143ad565b60055460085492945090925061101d9165ffffffffffff16428585612922565b9250505090565b61104f6040518060800160405280600081526020016000815260200160008152602001600081525090565b82828060020b8260020b12158061106d5750620d89e719600283900b125b806110895750611080620d89e7196143ff565b60020b8160020b135b806110a0575061109a600a83614437565b60020b15155b806110b757506110b1600a82614437565b60020b15155b156110e35760405163957b5ed560e01b8152600283810b600483015282900b60248201526044016108bb565b60035460408051633850c7bd60e01b815290516000926001600160a01b031691633850c7bd9160048083019260e09291908290030181865afa15801561112d573d6000803e3d6000fd5b505050506040513d601f19601f820116820180604052508101906111519190614476565b50506040805160808101825260055480825260065460208301526007549282019290925260085465ffffffffffff166060820152908a5260095494965094506111a793600a93508b92508a91508690869061261c565b606088015260408701526020860152509295945050505050565b6003546001600160a01b031633146111ec576040516308458b2b60e21b815260040160405180910390fd5b8215611257576002546040516340c10f1960e01b8152336004820152602481018590526001600160a01b03909116906340c10f1990604401600060405180830381600087803b15801561123e57600080fd5b505af1158015611252573d6000803e3d6000fd5b505050505b83156112c3576001546040516340c10f1960e01b8152336004820152602481018690526001600160a01b03909116906340c10f19906044015b600060405180830381600087803b1580156112aa57600080fd5b505af11580156112be573d6000803e3d6000fd5b505050505b50505050565b606060208251028201602001602083015b818110156112ef5780515481526020016112da565b509192915050565b600054610100900460ff166113125760005460ff1615611316565b303b155b6113795760405162461bcd60e51b815260206004820152602e60248201527f496e697469616c697a61626c653a20636f6e747261637420697320616c72656160448201526d191e481a5b9a5d1a585b1a5e995960921b60648201526084016108bb565b600054610100900460ff1615801561139b576000805461ffff19166101011790555b6113a86020830183614568565b600080546001600160a01b0392909216620100000262010000600160b01b03199092169190911790556113e16040830160208401614568565b600180546001600160a01b0319166001600160a01b03929092169190911790556114116060830160408401614568565b600280546001600160a01b0319166001600160a01b03929092169190911790556114416080830160608401614568565b600380546001600160a01b0319166001600160a01b039290921691909117905561147160a0830160808401614162565b6003805462ffffff92909216600160a01b0262ffffff60a01b199092169190911790556114a460c0830160a08401614162565b6003805462ffffff92909216600160b81b0262ffffff60b81b199092169190911790556114d8600560006001428180612774565b8015610ba2576000805461ff00191690555050565b6003546001600160a01b03163314611518576040516308458b2b60e21b815260040160405180910390fd5b60008413156115fe57600360009054906101000a90046001600160a01b03166001600160a01b0316630dfe16816040518163ffffffff1660e01b8152600401602060405180830381865afa158015611574573d6000803e3d6000fd5b505050506040513d601f19601f820116820180604052508101906115989190614525565b6003546040516340c10f1960e01b81526001600160a01b039182166004820152602481018790529116906340c10f1990604401600060405180830381600087803b1580156115e557600080fd5b505af11580156115f9573d6000803e3d6000fd5b505050505b60008313156112c357600360009054906101000a90046001600160a01b03166001600160a01b031663d21220a76040518163ffffffff1660e01b8152600401602060405180830381865afa15801561165a573d6000803e3d6000fd5b505050506040513d601f19601f8201168201806040525081019061167e9190614525565b6003546040516340c10f1960e01b81526001600160a01b039182166004820152602481018690529116906340c10f1990604401611290565b85156117175784156116d55780516116ce9085612944565b8152611755565b80516116e49060028585612987565b6080830181905260608301829052825161170a929091611703916143e7565b6001612ab2565b8082526116ce9085612944565b841561175557805161172c9060018585612987565b6080830181905260608301829052825161175292909161174b916143e7565b6000612ab2565b81525b505050505050565b600063ffffffff82165b92915050565b60008085611784578260a00151836080015161178f565b82608001518360a001515b9150915060006117c26117a183612af6565b60035460009062ffffff600160a01b8204811691600160b81b900416612987565b50905060008560c001516001600160801b03161180156117e25750600083115b1561186a5761183487611806576117f884612af6565b61180190614585565b61180f565b61180f84612af6565b60c08701516001600160801b03164260c08a015160e08b015160059493929190612774565b60c0850151611853908290600160801b906001600160801b0316612b1f565b6009600082825461186491906143e7565b90915550505b83606001516001600160a01b031685604001516001600160a01b0316036118db578360400151156118db57602080850151604080516080810182526005548152600654938101939093526007549083015260085465ffffffffffff1660608301526009546118db92600a9291612bd1565b50505050505050565b6040805160e081018252600080825260208201819052918101829052606081018290526080810182905260a0810182905260c0810182905281908660000361193f57604051631f2a200560e01b815260040160405180910390fd5b84516001600160a01b03166000036119d357886001600160a01b0316633850c7bd6040518163ffffffff1660e01b815260040160e060405180830381865afa15801561198f573d6000803e3d6000fd5b505050506040513d601f19601f820116820180604052508101906119b39190614476565b5060ff1660408b015250505060020b60208701526001600160a01b031685525b84606001516001600160801b0316600003611a5957886001600160a01b0316631a6865026040518163ffffffff1660e01b8152600401602060405180830381865afa158015611a26573d6000803e3d6000fd5b505050506040513d601f19601f82011682018060405250810190611a4a91906145a1565b6001600160801b031660608601525b846080015160020b600003611b4657886001600160a01b031663ddca3f436040518163ffffffff1660e01b8152600401602060405180830381865afa158015611aa6573d6000803e3d6000fd5b505050506040513d601f19601f82011682018060405250810190611aca91906145be565b62ffffff1660a0860152604080516334324e9f60e21b815290516001600160a01b038b169163d0c93a7c9160048083019260209291908290030181865afa158015611b19573d6000803e3d6000fd5b505050506040513d601f19601f82011682018060405250810190611b3d91906145db565b60020b60808601525b87611b905784600001516001600160a01b0316866001600160a01b03161080611b8b575073fffd8963efd1fc6a506488495d951d5263988d266001600160a01b038716115b611bc1565b84600001516001600160a01b0316866001600160a01b03161180611bc157506401000276a36001600160a01b038716105b15611bea576040516328da8b5760e11b81526001600160a01b03871660048201526024016108bb565b600080881390506040518060e001604052808981526020016000815260200187600001516001600160a01b03168152602001876020015160020b81526020016000815260200160006001600160801b0316815260200187606001516001600160801b031681525091505b815115801590611c7a5750866001600160a01b031682604001516001600160a01b031614155b15612051576040805160e081018252600080825260208201819052918101829052606081018290526080810182905260a0810182905260c081019190915260408301516001600160a01b03908116825260608401516080890151611ce7928e1691635339c296918e612c52565b1515604083015260020b60208201819052620d89e7191315611d1257620d89e7196020820152611d46565b611d1f620d89e7196143ff565b60020b816020015160020b1315611d4657611d3d620d89e7196143ff565b60020b60208201525b611d538160200151612ebe565b6001600160a01b031660608201526040830151611dc8908b611d8d57896001600160a01b031683606001516001600160a01b031611611da7565b896001600160a01b031683606001516001600160a01b0316105b611db5578260600151611db7565b895b60c0860151865160a08c01516131e1565b60c085015260a084015260808301526001600160a01b031660408401528115611e4057611e078160c001518260800151611e0291906143e7565b6133d3565b83518490611e169083906145f8565b90525060a0810151611e27906133d3565b8360200151611e3691906145f8565b6020840152611e8b565b611e4d8160a001516133d3565b83518490611e5c908390614637565b90525060c08101516080820151611e7691611e02916143e7565b8360200151611e859190614637565b60208401525b60c08301516001600160801b031615611ed357611ebe8160c00151600160801b8560c001516001600160801b0316612b1f565b83608001818151611ecf91906143e7565b9052505b611ee38a8885848a63ffffffff16565b80606001516001600160a01b031683604001516001600160a01b03160361201457806040015115611fe757602081015160405163f30dba9360e01b815260029190910b60048201526000906001600160a01b038d169063f30dba939060240161010060405180830381865afa158015611f60573d6000803e3d6000fd5b505050506040513d601f19601f82011682018060405250810190611f849190614678565b5050505050509150508a15611f9f57611f9c81614542565b90505b600081600f0b12611fbf57808460c00151611fba9190614726565b611fd7565b611fc881614542565b8460c00151611fd79190614748565b6001600160801b031660c0850152505b89611ff6578060200151612007565b600181602001516120079190614768565b60020b606084015261204b565b80600001516001600160a01b031683604001516001600160a01b03161461204b5761204283604001516133e5565b60020b60608401525b50611c54565b80151589151514612072576020820151825161206d908a6145f8565b612084565b815161207e90896145f8565b82602001515b909b909a50919850909650505050505050565b85156121215784156120f4576120b18160200151856136eb565b602082015260408101516120c89060008585612987565b608083018190526060830182905260408301516120ea929091611703916143e7565b6040820152611755565b6121028160400151856136eb565b60408201819052608082015160608301516120ea929161174b916143e7565b8461216a576121348160400151856136eb565b604082018190526121489060008585612987565b608083018190526060830182905260408301516120ea92909161174b916143e7565b6121788160200151856136eb565b602082015260408101516080820151606083015161219a9291611703916143e7565b6040820152505050505050565b6002546040516370a0823160e01b81523060048201526000916001600160a01b0316906370a0823190602401602060405180830381865afa1580156121f0573d6000803e3d6000fd5b505050506040513d601f19601f8201168201806040525081019061221491906147b0565b9050801561227b57600254604051630852cd8d60e31b8152600481018390526001600160a01b03909116906342966c6890602401600060405180830381600087803b15801561226257600080fd5b505af1158015612276573d6000803e3d6000fd5b505050505b6001546040516370a0823160e01b81523060048201526000916001600160a01b0316906370a0823190602401602060405180830381865afa1580156122c4573d6000803e3d6000fd5b505050506040513d601f19601f820116820180604052508101906122e891906147b0565b90508015610ba257600154604051630852cd8d60e31b8152600481018390526001600160a01b03909116906342966c6890602401600060405180830381600087803b15801561233657600080fd5b505af1158015611755573d6000803e3d6000fd5b6000805460015482916001600160a01b036201000090910481169163da04799691612375911661175d565b6040516001600160e01b031960e084901b16815263ffffffff9190911660048201526024016040805180830381865afa1580156123b6573d6000803e3d6000fd5b505050506040513d601f19601f820116820180604052508101906123da91906143ad565b91509150610ba260006001610b964290565b60006001607f1b826001600160801b0316106124265760405163832da39d60e01b81526001600160801b03831660048201526024016108bb565b5090565b6000816001600160a01b0316633850c7bd6040518163ffffffff1660e01b815260040160e060405180830381865afa15801561246a573d6000803e3d6000fd5b505050506040513d601f19601f8201168201806040525081019061248e9190614476565b5093979650505050505050565b6124c66040518060800160405280600081526020016000815260200160008152602001600081525090565b60408051608081018252600554815260065460208201526007549181019190915260085465ffffffffffff166060820152600954600080600f87900b156125685783516020850151604086015160035461253693600a938e938c938e939291908b906001600160a01b0316613712565b84516020860151604087015160035493955061256593600a938d938c938e938b906001600160a01b0316613712565b90505b6125728989611024565b9450600087600f0b12156125e05781156125b057600289810b6000908152600a60205260408120818155600181018290559182018190556003909101555b80156125e057600288810b6000908152600a60205260408120818155600181018290559182018190556003909101555b50505050949350505050565b60006126076125fb86846145f8565b8590600160801b613823565b6126119084614637565b90505b949350505050565b600285810b60009081526020889052604080822087840b835290822060018201548254948301548751949586958695949392869261265d92909185916125ec565b90506000846003015490508a60020b8d60020b13156126a757828a6020015161268691906145f8565b9250818a6040015161269891906145f8565b91506126a4818a61450e565b90505b6001840154845460028601548c516000926126c69290918591906125ec565b90506000866003015490508d60020b8f60020b1361270f57828d602001516126ee91906145f8565b9250818d6040015161270091906145f8565b915061270c818d61450e565b90505b82868e6020015161272091906145f8565b61272a91906145f8565b9a5081858e6040015161273d91906145f8565b61274791906145f8565b995080612754858e61450e565b61275e919061450e565b9850505050505050505096509650969350505050565b60038601546000906127909065ffffffffffff16858585613880565b60018801549091506127a8908290600160801b6138af565b8760020160008282546127bb9190614637565b90915550508654819088906000906127d4908490614637565b909155506127e9905086600160801b87613823565b8760010160008282546127fc9190614637565b909155505060038701805465ffffffffffff861665ffffffffffff199091168117909155604080518954815260018a0154602082015260028a01548183015260608101929092526080820185905260a08201849052517faa55fabd6f264910ebc37d1f213e504b0952aeed471eac51bb24a792cf40ce789181900360c00190a150505050505050565b6003546040516309e3d67b60e31b8152306004820152600284810b602483015283900b60448201526001600160801b036064820181905260848201526001600160a01b0390911690634f1eb3d89060a40160408051808303816000875af11580156128f4573d6000803e3d6000fd5b505050506040513d601f19601f8201168201806040525081019061291891906147c9565b5050610ba26121a7565b600061293085858585613880565b61293a9087614637565b9695505050505050565b60008061295483620f42406147f8565b60020b61296662ffffff851686614814565b6129709190614899565b61297b906001614637565b90506126148185614637565b6000806000612995876138fd565b905060018660028111156129ab576129ab6148c7565b036129eb57836129be86620f42406147f8565b6129c891906147f8565b62ffffff166129da82620f42406148dd565b6129e491906148fc565b9050612a3b565b60028660028111156129ff576129ff6148c7565b03612a3b5783612a1286620f4240614910565b612a1c9190614910565b62ffffff16612a2e82620f42406148dd565b612a3891906148fc565b90505b6000620f4240612a4b8688614910565b612a5a9062ffffff16846148dd565b612a6491906148fc565b612a6f9060016143e7565b9050620f4240612a8462ffffff8816846148dd565b612a8e91906148fc565b612a999060016143e7565b9350612aa5848261450e565b9250505094509492505050565b600080826001811115612ac757612ac76148c7565b146000851303612ae257612adb8385614637565b9050612aef565b612aec83856145f8565b90505b9392505050565b6000600160ff1b8210612426576040516320c82def60e21b8152600481018390526024016108bb565b6000808060001985870985870292508281108382030391505080600003612b585760008411612b4d57600080fd5b508290049050612aef565b808411612b6457600080fd5b6000848688096000868103871696879004966002600389028118808a02820302808a02820302808a02820302808a02820302808a02820302808a02909103029181900381900460010186841190950394909402919094039290920491909117919091029150509392505050565b600283810b6000908152602086905260408120805460018201549382015486519294612bff939091906125ec565b8451835560018301546020860151919250612c19916145f8565b60018301556040840151612c2e9082906145f8565b60028301556003820154612c42908461450e565b8260030181905550505050505050565b60008080612c60858761492e565b905060008660020b128015612c805750612c7a8587614437565b60020b15155b15612c935780612c8f81614968565b9150505b8315612d9857600080612ca583613914565b90925090506000600160ff831681901b90612cc0908261450e565b612cca91906143e7565b90506000818c8c866040518263ffffffff1660e01b8152600401612cf7919060019190910b815260200190565b602060405180830381865afa158015612d14573d6000803e3d6000fd5b505050506040513d601f19601f82011682018060405250810190612d3891906147b0565b168015159650905085612d625788612d5360ff851687614768565b612d5d919061498b565b612d8d565b88612d6c82613931565b612d769085614a18565b612d839060ff1687614768565b612d8d919061498b565b965050505050612eb3565b600080612dae612da9846001614a3b565b613914565b90925090506000612dc6600160ff841681901b61450e565b1990506000818c8c866040518263ffffffff1660e01b8152600401612df4919060019190910b815260200190565b602060405180830381865afa158015612e11573d6000803e3d6000fd5b505050506040513d601f19601f82011682018060405250810190612e3591906147b0565b168015159650905085612e755788612e4e8460ff614a18565b60ff16612e5c876001614a3b565b612e669190614a3b565b612e70919061498b565b612eac565b8883612e80836139d2565b612e8a9190614a18565b60ff16612e98876001614a3b565b612ea29190614a3b565b612eac919061498b565b9650505050505b509550959350505050565b60008060008360020b12612ed5578260020b612edd565b8260020b6000035b9050620d89e8811115612f03576040516315e4079d60e11b815260040160405180910390fd5b600081600116600003612f1a57600160801b612f2c565b6ffffcb933bd6fad37aa2d162d1a5940015b70ffffffffffffffffffffffffffffffffff1690506002821615612f60576ffff97272373d413259a46990580e213a0260801c5b6004821615612f7f576ffff2e50f5f656932ef12357cf3c7fdcc0260801c5b6008821615612f9e576fffe5caca7e10e4e61c3624eaa0941cd00260801c5b6010821615612fbd576fffcb9843d60f6159c9db58835c9266440260801c5b6020821615612fdc576fff973b41fa98c081472e6896dfb254c00260801c5b6040821615612ffb576fff2ea16466c96a3843ec78b326b528610260801c5b608082161561301a576ffe5dee046a99a2a811c461f1969c30530260801c5b61010082161561303a576ffcbe86c7900a88aedcffc83b479aa3a40260801c5b61020082161561305a576ff987a7253ac413176f2b074cf7815e540260801c5b61040082161561307a576ff3392b0822b70005940c7a398e4b70f30260801c5b61080082161561309a576fe7159475a2c29b7443b29c7fa6e889d90260801c5b6110008216156130ba576fd097f3bdfd2022b8845ad8f792aa58250260801c5b6120008216156130da576fa9f746462d870fdf8a65dc1f90e061e50260801c5b6140008216156130fa576f70d869a156d2a1b890bb3df62baf32f70260801c5b61800082161561311a576f31be135f97d08fd981231505542fcfa60260801c5b6201000082161561313b576f09aa508b5b7a84e1c677de54f3e99bc90260801c5b6202000082161561315b576e5d6af8dedb81196699c329225ee6040260801c5b6204000082161561317a576d2216e584f5fa1ea926041bedfe980260801c5b62080000821615613197576b048a170391f7dc42444e8fa20260801c5b60008460020b13156131b85780600019816131b4576131b4614421565b0490505b6401000000008106156131cc5760016131cf565b60005b60ff16602082901c0192505050919050565b60008080806001600160a01b03808916908a16101581871280159061326657600061321a8989620f42400362ffffff16620f4240612b1f565b9050826132335761322e8c8c8c6001613abc565b613240565b6132408b8d8c6001613b2c565b9550858110613251578a9650613260565b61325d8c8b8386613be3565b96505b506132b0565b8161327d576132788b8b8b6000613b2c565b61328a565b61328a8a8c8b6000613abc565b935083886000031061329e578995506132b0565b6132ad8b8a8a60000385613c2f565b95505b6001600160a01b038a8116908716148215613313578080156132cf5750815b6132e5576132e0878d8c6001613b2c565b6132e7565b855b95508080156132f4575081155b61330a57613305878d8c6000613abc565b61330c565b845b945061335d565b80801561331d5750815b6133335761332e8c888c6001613abc565b613335565b855b9550808015613342575081155b613358576133538c888c6000613b2c565b61335a565b845b94505b8115801561336d57508860000385115b15613379578860000394505b81801561339857508a6001600160a01b0316876001600160a01b031614155b156133a75785890393506133c4565b6133c1868962ffffff168a620f42400362ffffff16613c7b565b93505b50505095509550955095915050565b6000600160ff1b821061242657600080fd5b60006401000276a36001600160a01b03831610801590613421575073fffd8963efd1fc6a506488495d951d5263988d266001600160a01b038316105b61343e576040516324c070df60e11b815260040160405180910390fd5b640100000000600160c01b03602083901b166001600160801b03811160071b81811c67ffffffffffffffff811160061b90811c63ffffffff811160051b90811c61ffff811160041b90811c60ff8111600390811b91821c600f811160021b90811c918211600190811b92831c979088119617909417909217179091171717608081106134d257607f810383901c91506134dc565b80607f0383901b91505b908002607f81811c60ff83811c9190911c800280831c81831c1c800280841c81841c1c800280851c81851c1c800280861c81861c1c800280871c81871c1c800280881c81881c1c800280891c81891c1c8002808a1c818a1c1c8002808b1c818b1c1c8002808c1c818c1c1c8002808d1c818d1c1c8002808e1c9c81901c9c909c1c80029c8d901c9e9d607f198f0160401b60c09190911c678000000000000000161760c19b909b1c674000000000000000169a909a1760c29990991c672000000000000000169890981760c39790971c671000000000000000169690961760c49590951c670800000000000000169490941760c59390931c670400000000000000169290921760c69190911c670200000000000000161760c79190911c670100000000000000161760c89190911c6680000000000000161760c99190911c6640000000000000161760ca9190911c6620000000000000161760cb9190911c6610000000000000161760cc9190911c6608000000000000161760cd9190911c66040000000000001617693627a301d71055774c8581026f028f6481ab7f045a5af012a19d003aa9198101608090811d906fdb2df09e81959a81455e260799a0632f8301901d600281810b9083900b146136dc57886001600160a01b03166136c182612ebe565b6001600160a01b031611156136d657816136de565b806136de565b815b9998505050505050505050565b6000620f42406136fb83826147f8565b6137089060020b85614814565b612aef9190614899565b600288900b600081815260208b90526040808220905163f30dba9360e01b81526004810193909352909182906001600160a01b0385169063f30dba939060240161010060405180830381865afa158015613770573d6000803e3d6000fd5b505050506040513d601f19601f820116820180604052508101906137949190614678565b5050505050505090506000808a600f0b126137b8576137b38a83614726565b6137cb565b6137c18a614542565b6137cb9083614748565b6001600160801b0380821615908416801591909114159550909150600003613813578a60020b8c60020b13613813578883556001830188905560028301879055600383018690555b5050509998505050505050505050565b600060018180806138348885613cbb565b945092506138428785613cbb565b945091506138508685613cbb565b94509050613862611e02848484612b1f565b9450836138755761387285614585565b94505b505050509392505050565b600061261161388f8686614a82565b65ffffffffffff16620151806138a885878282826145f8565b9190613ce8565b60006138bc848484613823565b90506000811280156138ec57506138ec6138d585613d25565b6138de85613d25565b6138e785613d25565b613d30565b15612aef57612aec60001982614637565b60008082136124265761390f82614585565b611767565b600281900b60081d600061392a61010084614437565b9050915091565b600080821161393f57600080fd5b600160801b821061395257608091821c91015b68010000000000000000821061396a57604091821c91015b640100000000821061397e57602091821c91015b62010000821061399057601091821c91015b61010082106139a157600891821c91015b601082106139b157600491821c91015b600482106139c157600291821c91015b600282106139cd576001015b919050565b60008082116139e057600080fd5b5060ff6001600160801b038216156139fb57607f1901613a03565b608082901c91505b67ffffffffffffffff821615613a1c57603f1901613a24565b604082901c91505b63ffffffff821615613a3957601f1901613a41565b602082901c91505b61ffff821615613a5457600f1901613a5c565b601082901c91505b60ff821615613a6e5760071901613a76565b600882901c91505b600f821615613a885760031901613a90565b600482901c91505b6003821615613aa25760011901613aaa565b600282901c91505b60018216156139cd5760001901919050565b6000836001600160a01b0316856001600160a01b03161115613adc579293925b81613b0957613b04836001600160801b03168686036001600160a01b0316600160601b612b1f565b612611565b612611836001600160801b03168686036001600160a01b0316600160601b613c7b565b6000836001600160a01b0316856001600160a01b03161115613b4c579293925b600160601b600160e01b03606084901b166001600160a01b038686038116908716613b7657600080fd5b83613bac57866001600160a01b0316613b998383896001600160a01b0316612b1f565b81613ba657613ba6614421565b04613bd8565b613bd8613bc38383896001600160a01b0316613c7b565b886001600160a01b0316808204910615150190565b979650505050505050565b600080856001600160a01b031611613bfa57600080fd5b6000846001600160801b031611613c1057600080fd5b81613c2257613b048585856001613d49565b6126118585856001613e2f565b600080856001600160a01b031611613c4657600080fd5b6000846001600160801b031611613c5c57600080fd5b81613c6e57613b048585856000613e2f565b6126118585856000613d49565b6000613c88848484612b1f565b905060008280613c9a57613c9a614421565b8486091115612aef576000198110613cb157600080fd5b6001019392505050565b6000806000841215613cda57911591613cd384614585565b9150613cde565b8391505b50815b9250929050565b6000613d11611e0260008612613cfe5785613d0a565b613d0a86600019614814565b8585612b1f565b90506000841215612aef57612aec81614585565b6000611767826138fd565b6000818385098015613d4157600191505b509392505050565b60008115613dbb5760006001600160a01b03841115613d7f57613d7a84600160601b876001600160801b0316612b1f565b613d96565b613d966001600160801b038616606086901b6148fc565b9050613db3613dae826001600160a01b0389166143e7565b613f1f565b915050612614565b60006001600160a01b03841115613de957613de484600160601b876001600160801b0316613c7b565b613e06565b613e06606085901b6001600160801b038716808204910615150190565b905080866001600160a01b031611613e1d57600080fd5b6001600160a01b038616039050612614565b600082600003613e40575083612614565b600160601b600160e01b03606085901b168215613ed2576001600160a01b03861684810290858281613e7457613e74614421565b0403613ea457818101828110613ea257613e9883896001600160a01b031683613c7b565b9350505050612614565b505b50613db38185613ebd6001600160a01b038a16836148fc565b613ec791906143e7565b808204910615150190565b6001600160a01b03861684810290858281613eef57613eef614421565b04148015613efc57508082115b613f0557600080fd5b808203613e98613dae846001600160a01b038b1684613c7b565b806001600160a01b03811681146139cd57600080fd5b8015158114613f4357600080fd5b50565b6001600160a01b0381168114613f4357600080fd5b600080600060608486031215613f7057600080fd5b8335613f7b81613f35565b9250602084013591506040840135613f9281613f46565b809150509250925092565b815181526020808301519082015260408083015190820152606080830151908201526080808301519082015260a0808301516001600160a01b039081169183019190915260c092830151169181019190915260e00190565b8060020b8114613f4357600080fd5b6001600160801b0381168114613f4357600080fd5b60008060006060848603121561402e57600080fd5b833561403981613ff5565b9250602084013561404981613ff5565b91506040840135613f9281614004565b8381526020810183905260c081016126146040830184805182526020810151602083015260408101516040830152606081015160608301525050565b6000602082840312156140a757600080fd5b5035919050565b600080604083850312156140c157600080fd5b82356140cc81613ff5565b915060208301356140dc81613ff5565b809150509250929050565b8151815260208083015190820152604080830151908201526060808301519082015260808101611767565b60006020828403121561412457600080fd5b8135612aef81613ff5565b6000806040838503121561414257600080fd5b50508035926020909101359150565b62ffffff81168114613f4357600080fd5b60006020828403121561417457600080fd5b8135612aef81614151565b60008083601f84011261419157600080fd5b50813567ffffffffffffffff8111156141a957600080fd5b602083019150836020828501011115613ce157600080fd5b600080600080606085870312156141d757600080fd5b8435935060208501359250604085013567ffffffffffffffff8111156141fc57600080fd5b6142088782880161417f565b95989497509550505050565b634e487b7160e01b600052604160045260246000fd5b6000602080838503121561423d57600080fd5b823567ffffffffffffffff8082111561425557600080fd5b818501915085601f83011261426957600080fd5b81358181111561427b5761427b614214565b8060051b604051601f19603f830116810181811085821117156142a0576142a0614214565b6040529182528482019250838101850191888311156142be57600080fd5b938501935b828510156142dc578435845293850193928501926142c3565b98975050505050505050565b6020808252825182820181905260009190848201906040850190845b8181101561432057835183529284019291840191600101614304565b50909695505050505050565b600060c0828403121561433e57600080fd5b50919050565b634e487b7160e01b600052601160045260246000fd5b60006001600160a01b038381169083168181101561437a5761437a614344565b039392505050565b60006001600160a01b038281168482168083038211156143a4576143a4614344565b01949350505050565b600080604083850312156143c057600080fd5b505080516020909101519092909150565b634e487b7160e01b600052600160045260246000fd5b600082198211156143fa576143fa614344565b500190565b60008160020b627fffff19810361441857614418614344565b60000392915050565b634e487b7160e01b600052601260045260246000fd5b60008260020b8061444a5761444a614421565b808360020b0791505092915050565b805161ffff811681146139cd57600080fd5b80516139cd81613f35565b600080600080600080600060e0888a03121561449157600080fd5b875161449c81613f46565b60208901519097506144ad81613ff5565b95506144bb60408901614459565b94506144c960608901614459565b93506144d760808901614459565b925060a088015160ff811681146144ed57600080fd5b60c08901519092506144fe81613f35565b8091505092959891949750929550565b60008282101561452057614520614344565b500390565b60006020828403121561453757600080fd5b8151612aef81613f46565b600081600f0b6f7fffffffffffffffffffffffffffffff19810361441857614418614344565b60006020828403121561457a57600080fd5b8135612aef81613f46565b6000600160ff1b820161459a5761459a614344565b5060000390565b6000602082840312156145b357600080fd5b8151612aef81614004565b6000602082840312156145d057600080fd5b8151612aef81614151565b6000602082840312156145ed57600080fd5b8151612aef81613ff5565b60008083128015600160ff1b85018412161561461657614616614344565b6001600160ff1b038401831381161561463157614631614344565b50500390565b600080821280156001600160ff1b038490038513161561465957614659614344565b600160ff1b839003841281161561467257614672614344565b50500190565b600080600080600080600080610100898b03121561469557600080fd5b88516146a081614004565b80985050602089015180600f0b81146146b857600080fd5b80975050604089015195506060890151945060808901518060060b81146146de57600080fd5b60a08a01519094506146ef81613f46565b60c08a015190935063ffffffff8116811461470957600080fd5b915061471760e08a0161446b565b90509295985092959890939650565b60006001600160801b038083168185168083038211156143a4576143a4614344565b60006001600160801b038381169083168181101561437a5761437a614344565b60008160020b8360020b6000811281627fffff190183128115161561478f5761478f614344565b81627fffff0183138116156147a6576147a6614344565b5090039392505050565b6000602082840312156147c257600080fd5b5051919050565b600080604083850312156147dc57600080fd5b82516147e781614004565b60208401519092506140dc81614004565b600062ffffff8381169083168181101561437a5761437a614344565b60006001600160ff1b038184138284138082168684048611161561483a5761483a614344565b600160ff1b600087128281168783058912161561485957614859614344565b6000871292508782058712848416161561487557614875614344565b8785058712818416161561488b5761488b614344565b505050929093029392505050565b6000826148a8576148a8614421565b600160ff1b8214600019841416156148c2576148c2614344565b500590565b634e487b7160e01b600052602160045260246000fd5b60008160001904831182151516156148f7576148f7614344565b500290565b60008261490b5761490b614421565b500490565b600062ffffff8083168185168083038211156143a4576143a4614344565b60008160020b8360020b8061494557614945614421565b627fffff1982146000198214161561495f5761495f614344565b90059392505050565b60008160020b627fffff19810361498157614981614344565b6000190192915050565b60008160020b8360020b627fffff6000821360008413838304851182821616156149b7576149b7614344565b627fffff1960008512828116878305871216156149d6576149d6614344565b600087129250858205871284841616156149f2576149f2614344565b85850587128184161615614a0857614a08614344565b5050509290910295945050505050565b600060ff821660ff841680821015614a3257614a32614344565b90039392505050565b60008160020b8360020b6000821282627fffff03821381151615614a6157614a61614344565b82627fffff19038212811615614a7957614a79614344565b50019392505050565b600065ffffffffffff8381169083168181101561437a5761437a61434456fea2646970667358221220a0c0ce5dbe0eecc8883bec4c09838f90bb1d2df1761738865f54fdc8f8a9c5c564736f6c634300080d0033",
  "devdoc": {
    "kind": "dev",
    "methods": {
      "swap(bool,int256,uint160)": {
        "params": {
          "amountSpecified": ": The amount of the swap, which implicitly configures the swap as exact input (positive), or exact output (negative)",
          "sqrtPriceLimitX96": ": The Q64.96 sqrt price limit. If zero for one, the price cannot be less than this value after the swap. If one for zero, the price cannot be greater than this value after the swap.",
          "swapVTokenForVQuote": ": The direction of the swap, true for vToken to vQuote, false for vQuote to vToken"
        },
        "returns": {
          "swapResult": "swap return values, which contain the execution details of the swap"
        }
      },
      "updateGlobalFundingState(uint256,uint256)": {
        "details": "Done when clearing house is paused or unpaused, to prevent funding payments from being received     or paid when clearing house is in paused mode.",
        "params": {
          "realPriceX128": "real price from clearing house",
          "virtualPriceX128": "virtual price from clearing house"
        }
      }
    },
    "version": 1
  },
  "userdoc": {
    "kind": "user",
    "methods": {
      "__initialize_VPoolWrapper((address,address,address,address,uint24,uint24))": {
        "notice": "PLATFORM FUNCTIONS"
      },
      "getSumAX128()": {
        "notice": "VIEW METHODS"
      },
      "setLiquidityFee(uint24)": {
        "notice": "ADMIN FUNCTIONS"
      },
      "swap(bool,int256,uint160)": {
        "notice": "Swap vToken for vQuote, or vQuote for vToken"
      },
      "uniswapV3SwapCallback(int256,int256,bytes)": {
        "notice": "UNISWAP V3 POOL CALLBACkS"
      },
      "updateGlobalFundingState(uint256,uint256)": {
        "notice": "Update the global funding state, from clearing house"
      }
    },
    "version": 1
  },
  "storageLayout": {
    "storage": [
      {
        "astId": 52,
        "contract": "contracts/protocol/wrapper/VPoolWrapper.sol:VPoolWrapper",
        "label": "_initialized",
        "offset": 0,
        "slot": "0",
        "type": "t_bool"
      },
      {
        "astId": 55,
        "contract": "contracts/protocol/wrapper/VPoolWrapper.sol:VPoolWrapper",
        "label": "_initializing",
        "offset": 1,
        "slot": "0",
        "type": "t_bool"
      },
      {
        "astId": 21517,
        "contract": "contracts/protocol/wrapper/VPoolWrapper.sol:VPoolWrapper",
        "label": "clearingHouse",
        "offset": 2,
        "slot": "0",
        "type": "t_contract(IClearingHouse)7805"
      },
      {
        "astId": 21520,
        "contract": "contracts/protocol/wrapper/VPoolWrapper.sol:VPoolWrapper",
        "label": "vToken",
        "offset": 0,
        "slot": "1",
        "type": "t_contract(IVToken)8112"
      },
      {
        "astId": 21523,
        "contract": "contracts/protocol/wrapper/VPoolWrapper.sol:VPoolWrapper",
        "label": "vQuote",
        "offset": 0,
        "slot": "2",
        "type": "t_contract(IVQuote)8088"
      },
      {
        "astId": 21526,
        "contract": "contracts/protocol/wrapper/VPoolWrapper.sol:VPoolWrapper",
        "label": "vPool",
        "offset": 0,
        "slot": "3",
        "type": "t_contract(IUniswapV3Pool)5364"
      },
      {
        "astId": 21528,
        "contract": "contracts/protocol/wrapper/VPoolWrapper.sol:VPoolWrapper",
        "label": "liquidityFeePips",
        "offset": 20,
        "slot": "3",
        "type": "t_uint24"
      },
      {
        "astId": 21530,
        "contract": "contracts/protocol/wrapper/VPoolWrapper.sol:VPoolWrapper",
        "label": "protocolFeePips",
        "offset": 23,
        "slot": "3",
        "type": "t_uint24"
      },
      {
        "astId": 21532,
        "contract": "contracts/protocol/wrapper/VPoolWrapper.sol:VPoolWrapper",
        "label": "accruedProtocolFee",
        "offset": 0,
        "slot": "4",
        "type": "t_uint256"
      },
      {
        "astId": 21535,
        "contract": "contracts/protocol/wrapper/VPoolWrapper.sol:VPoolWrapper",
        "label": "fpGlobal",
        "offset": 0,
        "slot": "5",
        "type": "t_struct(Info)10644_storage"
      },
      {
        "astId": 21537,
        "contract": "contracts/protocol/wrapper/VPoolWrapper.sol:VPoolWrapper",
        "label": "sumFeeGlobalX128",
        "offset": 0,
        "slot": "9",
        "type": "t_uint256"
      },
      {
        "astId": 21542,
        "contract": "contracts/protocol/wrapper/VPoolWrapper.sol:VPoolWrapper",
        "label": "ticksExtended",
        "offset": 0,
        "slot": "10",
        "type": "t_mapping(t_int24,t_struct(Info)15127_storage)"
      }
    ],
    "types": {
      "t_bool": {
        "encoding": "inplace",
        "label": "bool",
        "numberOfBytes": "1"
      },
      "t_contract(IClearingHouse)7805": {
        "encoding": "inplace",
        "label": "contract IClearingHouse",
        "numberOfBytes": "20"
      },
      "t_contract(IUniswapV3Pool)5364": {
        "encoding": "inplace",
        "label": "contract IUniswapV3Pool",
        "numberOfBytes": "20"
      },
      "t_contract(IVQuote)8088": {
        "encoding": "inplace",
        "label": "contract IVQuote",
        "numberOfBytes": "20"
      },
      "t_contract(IVToken)8112": {
        "encoding": "inplace",
        "label": "contract IVToken",
        "numberOfBytes": "20"
      },
      "t_int24": {
        "encoding": "inplace",
        "label": "int24",
        "numberOfBytes": "3"
      },
      "t_int256": {
        "encoding": "inplace",
        "label": "int256",
        "numberOfBytes": "32"
      },
      "t_mapping(t_int24,t_struct(Info)15127_storage)": {
        "encoding": "mapping",
        "key": "t_int24",
        "label": "mapping(int24 => struct TickExtended.Info)",
        "numberOfBytes": "32",
        "value": "t_struct(Info)15127_storage"
      },
      "t_struct(Info)10644_storage": {
        "encoding": "inplace",
        "label": "struct FundingPayment.Info",
        "members": [
          {
            "astId": 10637,
            "contract": "contracts/protocol/wrapper/VPoolWrapper.sol:VPoolWrapper",
            "label": "sumAX128",
            "offset": 0,
            "slot": "0",
            "type": "t_int256"
          },
          {
            "astId": 10639,
            "contract": "contracts/protocol/wrapper/VPoolWrapper.sol:VPoolWrapper",
            "label": "sumBX128",
            "offset": 0,
            "slot": "1",
            "type": "t_int256"
          },
          {
            "astId": 10641,
            "contract": "contracts/protocol/wrapper/VPoolWrapper.sol:VPoolWrapper",
            "label": "sumFpX128",
            "offset": 0,
            "slot": "2",
            "type": "t_int256"
          },
          {
            "astId": 10643,
            "contract": "contracts/protocol/wrapper/VPoolWrapper.sol:VPoolWrapper",
            "label": "timestampLast",
            "offset": 0,
            "slot": "3",
            "type": "t_uint48"
          }
        ],
        "numberOfBytes": "128"
      },
      "t_struct(Info)15127_storage": {
        "encoding": "inplace",
        "label": "struct TickExtended.Info",
        "members": [
          {
            "astId": 15120,
            "contract": "contracts/protocol/wrapper/VPoolWrapper.sol:VPoolWrapper",
            "label": "sumALastX128",
            "offset": 0,
            "slot": "0",
            "type": "t_int256"
          },
          {
            "astId": 15122,
            "contract": "contracts/protocol/wrapper/VPoolWrapper.sol:VPoolWrapper",
            "label": "sumBOutsideX128",
            "offset": 0,
            "slot": "1",
            "type": "t_int256"
          },
          {
            "astId": 15124,
            "contract": "contracts/protocol/wrapper/VPoolWrapper.sol:VPoolWrapper",
            "label": "sumFpOutsideX128",
            "offset": 0,
            "slot": "2",
            "type": "t_int256"
          },
          {
            "astId": 15126,
            "contract": "contracts/protocol/wrapper/VPoolWrapper.sol:VPoolWrapper",
            "label": "sumFeeOutsideX128",
            "offset": 0,
            "slot": "3",
            "type": "t_uint256"
          }
        ],
        "numberOfBytes": "128"
      },
      "t_uint24": {
        "encoding": "inplace",
        "label": "uint24",
        "numberOfBytes": "3"
      },
      "t_uint256": {
        "encoding": "inplace",
        "label": "uint256",
        "numberOfBytes": "32"
      },
      "t_uint48": {
        "encoding": "inplace",
        "label": "uint48",
        "numberOfBytes": "6"
      }
    }
  }
}