{
  "address": "0x2A13e9fE24fd6aa1736120Dc83138E3c182551FB",
  "abi": [
    {
      "inputs": [
        {
          "internalType": "uint160",
          "name": "sqrtPriceLimitX96",
          "type": "uint160"
        }
      ],
      "name": "InvalidSqrtPriceLimit",
      "type": "error"
    },
    {
      "inputs": [
        {
          "internalType": "int24",
          "name": "tickLower",
          "type": "int24"
        },
        {
          "internalType": "int24",
          "name": "tickUpper",
          "type": "int24"
        }
      ],
      "name": "InvalidTicks",
      "type": "error"
    },
    {
      "inputs": [],
      "name": "NotClearingHouse",
      "type": "error"
    },
    {
      "inputs": [],
      "name": "NotGovernance",
      "type": "error"
    },
    {
      "inputs": [],
      "name": "NotUniswapV3Pool",
      "type": "error"
    },
    {
      "inputs": [],
      "name": "R",
      "type": "error"
    },
    {
      "inputs": [
        {
          "internalType": "uint128",
          "name": "value",
          "type": "uint128"
        }
      ],
      "name": "SafeCast_Int128Overflow",
      "type": "error"
    },
    {
      "inputs": [
        {
          "internalType": "uint256",
          "name": "value",
          "type": "uint256"
        }
      ],
      "name": "SafeCast_Int256Overflow",
      "type": "error"
    },
    {
      "inputs": [],
      "name": "T",
      "type": "error"
    },
    {
      "inputs": [],
      "name": "ZeroAmount",
      "type": "error"
    },
    {
      "anonymous": false,
      "inputs": [
        {
          "indexed": false,
          "internalType": "uint256",
          "name": "amount",
          "type": "uint256"
        }
      ],
      "name": "AccruedProtocolFeeCollected",
      "type": "event"
    },
    {
      "anonymous": false,
      "inputs": [
        {
          "indexed": false,
          "internalType": "int24",
          "name": "tickLower",
          "type": "int24"
        },
        {
          "indexed": false,
          "internalType": "int24",
          "name": "tickUpper",
          "type": "int24"
        },
        {
          "indexed": false,
          "internalType": "uint128",
          "name": "liquidity",
          "type": "uint128"
        },
        {
          "indexed": false,
          "internalType": "uint256",
          "name": "vTokenPrincipal",
          "type": "uint256"
        },
        {
          "indexed": false,
          "internalType": "uint256",
          "name": "vQuotePrincipal",
          "type": "uint256"
        }
      ],
      "name": "Burn",
      "type": "event"
    },
    {
      "anonymous": false,
      "inputs": [
        {
          "indexed": false,
          "internalType": "int256",
          "name": "fundingRateOverrideX128",
          "type": "int256"
        }
      ],
      "name": "FundingRateOverrideUpdated",
      "type": "event"
    },
    {
      "anonymous": false,
      "inputs": [
        {
          "indexed": false,
          "internalType": "uint24",
          "name": "liquidityFeePips",
          "type": "uint24"
        }
      ],
      "name": "LiquidityFeeUpdated",
      "type": "event"
    },
    {
      "anonymous": false,
      "inputs": [
        {
          "indexed": false,
          "internalType": "int24",
          "name": "tickLower",
          "type": "int24"
        },
        {
          "indexed": false,
          "internalType": "int24",
          "name": "tickUpper",
          "type": "int24"
        },
        {
          "indexed": false,
          "internalType": "uint128",
          "name": "liquidity",
          "type": "uint128"
        },
        {
          "indexed": false,
          "internalType": "uint256",
          "name": "vTokenPrincipal",
          "type": "uint256"
        },
        {
          "indexed": false,
          "internalType": "uint256",
          "name": "vQuotePrincipal",
          "type": "uint256"
        }
      ],
      "name": "Mint",
      "type": "event"
    },
    {
      "anonymous": false,
      "inputs": [
        {
          "indexed": false,
          "internalType": "uint24",
          "name": "protocolFeePips",
          "type": "uint24"
        }
      ],
      "name": "ProtocolFeeUpdated",
      "type": "event"
    },
    {
      "anonymous": false,
      "inputs": [
        {
          "components": [
            {
              "internalType": "int256",
              "name": "amountSpecified",
              "type": "int256"
            },
            {
              "internalType": "int256",
              "name": "vTokenIn",
              "type": "int256"
            },
            {
              "internalType": "int256",
              "name": "vQuoteIn",
              "type": "int256"
            },
            {
              "internalType": "uint256",
              "name": "liquidityFees",
              "type": "uint256"
            },
            {
              "internalType": "uint256",
              "name": "protocolFees",
              "type": "uint256"
            },
            {
              "internalType": "uint160",
              "name": "sqrtPriceX96Start",
              "type": "uint160"
            },
            {
              "internalType": "uint160",
              "name": "sqrtPriceX96End",
              "type": "uint160"
            }
          ],
          "indexed": false,
          "internalType": "struct IVPoolWrapper.SwapResult",
          "name": "swapResult",
          "type": "tuple"
        }
      ],
      "name": "Swap",
      "type": "event"
    },
    {
      "inputs": [],
      "name": "accruedProtocolFee",
      "outputs": [
        {
          "internalType": "uint256",
          "name": "",
          "type": "uint256"
        }
      ],
      "stateMutability": "view",
      "type": "function"
    },
    {
      "inputs": [
        {
          "internalType": "int24",
          "name": "tickLower",
          "type": "int24"
        },
        {
          "internalType": "int24",
          "name": "tickUpper",
          "type": "int24"
        },
        {
          "internalType": "uint128",
          "name": "liquidity",
          "type": "uint128"
        }
      ],
      "name": "burn",
      "outputs": [
        {
          "internalType": "uint256",
          "name": "vTokenPrincipal",
          "type": "uint256"
        },
        {
          "internalType": "uint256",
          "name": "vQuotePrincipal",
          "type": "uint256"
        },
        {
          "components": [
            {
              "internalType": "int256",
              "name": "sumAX128",
              "type": "int256"
            },
            {
              "internalType": "int256",
              "name": "sumBInsideX128",
              "type": "int256"
            },
            {
              "internalType": "int256",
              "name": "sumFpInsideX128",
              "type": "int256"
            },
            {
              "internalType": "uint256",
              "name": "sumFeeInsideX128",
              "type": "uint256"
            }
          ],
          "internalType": "struct IVPoolWrapper.WrapperValuesInside",
          "name": "wrapperValuesInside",
          "type": "tuple"
        }
      ],
      "stateMutability": "nonpayable",
      "type": "function"
    },
    {
      "inputs": [],
      "name": "clearingHouse",
      "outputs": [
        {
          "internalType": "contract IClearingHouse",
          "name": "",
          "type": "address"
        }
      ],
      "stateMutability": "view",
      "type": "function"
    },
    {
      "inputs": [],
      "name": "collectAccruedProtocolFee",
      "outputs": [
        {
          "internalType": "uint256",
          "name": "accruedProtocolFeeLast",
          "type": "uint256"
        }
      ],
      "stateMutability": "nonpayable",
      "type": "function"
    },
    {
      "inputs": [
        {
          "internalType": "bytes32",
          "name": "slot",
          "type": "bytes32"
        }
      ],
      "name": "extsload",
      "outputs": [
        {
          "internalType": "bytes32",
          "name": "val",
          "type": "bytes32"
        }
      ],
      "stateMutability": "view",
      "type": "function"
    },
    {
      "inputs": [
        {
          "internalType": "bytes32[]",
          "name": "slots",
          "type": "bytes32[]"
        }
      ],
      "name": "extsload",
      "outputs": [
        {
          "internalType": "bytes32[]",
          "name": "",
          "type": "bytes32[]"
        }
      ],
      "stateMutability": "view",
      "type": "function"
    },
    {
      "inputs": [],
      "name": "fpGlobal",
      "outputs": [
        {
          "internalType": "int256",
          "name": "sumAX128",
          "type": "int256"
        },
        {
          "internalType": "int256",
          "name": "sumBX128",
          "type": "int256"
        },
        {
          "internalType": "int256",
          "name": "sumFpX128",
          "type": "int256"
        },
        {
          "internalType": "uint48",
          "name": "timestampLast",
          "type": "uint48"
        }
      ],
      "stateMutability": "view",
      "type": "function"
    },
    {
      "inputs": [],
      "name": "fundingRateOverrideX128",
      "outputs": [
        {
          "internalType": "int256",
          "name": "",
          "type": "int256"
        }
      ],
      "stateMutability": "view",
      "type": "function"
    },
    {
      "inputs": [],
      "name": "getExtrapolatedSumAX128",
      "outputs": [
        {
          "internalType": "int256",
          "name": "",
          "type": "int256"
        }
      ],
      "stateMutability": "view",
      "type": "function"
    },
    {
      "inputs": [
        {
          "internalType": "int24",
          "name": "tickLower",
          "type": "int24"
        },
        {
          "internalType": "int24",
          "name": "tickUpper",
          "type": "int24"
        }
      ],
      "name": "getExtrapolatedValuesInside",
      "outputs": [
        {
          "components": [
            {
              "internalType": "int256",
              "name": "sumAX128",
              "type": "int256"
            },
            {
              "internalType": "int256",
              "name": "sumBInsideX128",
              "type": "int256"
            },
            {
              "internalType": "int256",
              "name": "sumFpInsideX128",
              "type": "int256"
            },
            {
              "internalType": "uint256",
              "name": "sumFeeInsideX128",
              "type": "uint256"
            }
          ],
          "internalType": "struct IVPoolWrapper.WrapperValuesInside",
          "name": "wrapperValuesInside",
          "type": "tuple"
        }
      ],
      "stateMutability": "view",
      "type": "function"
    },
    {
      "inputs": [],
      "name": "getFundingRateAndVirtualPrice",
      "outputs": [
        {
          "internalType": "int256",
          "name": "fundingRateX128",
          "type": "int256"
        },
        {
          "internalType": "uint256",
          "name": "virtualPriceX128",
          "type": "uint256"
        }
      ],
      "stateMutability": "view",
      "type": "function"
    },
    {
      "inputs": [],
      "name": "getSumAX128",
      "outputs": [
        {
          "internalType": "int256",
          "name": "",
          "type": "int256"
        }
      ],
      "stateMutability": "view",
      "type": "function"
    },
    {
      "inputs": [
        {
          "internalType": "int24",
          "name": "tickLower",
          "type": "int24"
        },
        {
          "internalType": "int24",
          "name": "tickUpper",
          "type": "int24"
        }
      ],
      "name": "getValuesInside",
      "outputs": [
        {
          "components": [
            {
              "internalType": "int256",
              "name": "sumAX128",
              "type": "int256"
            },
            {
              "internalType": "int256",
              "name": "sumBInsideX128",
              "type": "int256"
            },
            {
              "internalType": "int256",
              "name": "sumFpInsideX128",
              "type": "int256"
            },
            {
              "internalType": "uint256",
              "name": "sumFeeInsideX128",
              "type": "uint256"
            }
          ],
          "internalType": "struct IVPoolWrapper.WrapperValuesInside",
          "name": "wrapperValuesInside",
          "type": "tuple"
        }
      ],
      "stateMutability": "view",
      "type": "function"
    },
    {
      "inputs": [
        {
          "components": [
            {
              "internalType": "contract IClearingHouse",
              "name": "clearingHouse",
              "type": "address"
            },
            {
              "internalType": "contract IVToken",
              "name": "vToken",
              "type": "address"
            },
            {
              "internalType": "contract IVQuote",
              "name": "vQuote",
              "type": "address"
            },
            {
              "internalType": "contract IUniswapV3Pool",
              "name": "vPool",
              "type": "address"
            },
            {
              "internalType": "uint24",
              "name": "liquidityFeePips",
              "type": "uint24"
            },
            {
              "internalType": "uint24",
              "name": "protocolFeePips",
              "type": "uint24"
            }
          ],
          "internalType": "struct IVPoolWrapper.InitializeVPoolWrapperParams",
          "name": "params",
          "type": "tuple"
        }
      ],
      "name": "initialize",
      "outputs": [],
      "stateMutability": "nonpayable",
      "type": "function"
    },
    {
      "inputs": [],
      "name": "liquidityFeePips",
      "outputs": [
        {
          "internalType": "uint24",
          "name": "",
          "type": "uint24"
        }
      ],
      "stateMutability": "view",
      "type": "function"
    },
    {
      "inputs": [
        {
          "internalType": "int24",
          "name": "tickLower",
          "type": "int24"
        },
        {
          "internalType": "int24",
          "name": "tickUpper",
          "type": "int24"
        },
        {
          "internalType": "uint128",
          "name": "liquidity",
          "type": "uint128"
        }
      ],
      "name": "mint",
      "outputs": [
        {
          "internalType": "uint256",
          "name": "vTokenPrincipal",
          "type": "uint256"
        },
        {
          "internalType": "uint256",
          "name": "vQuotePrincipal",
          "type": "uint256"
        },
        {
          "components": [
            {
              "internalType": "int256",
              "name": "sumAX128",
              "type": "int256"
            },
            {
              "internalType": "int256",
              "name": "sumBInsideX128",
              "type": "int256"
            },
            {
              "internalType": "int256",
              "name": "sumFpInsideX128",
              "type": "int256"
            },
            {
              "internalType": "uint256",
              "name": "sumFeeInsideX128",
              "type": "uint256"
            }
          ],
          "internalType": "struct IVPoolWrapper.WrapperValuesInside",
          "name": "wrapperValuesInside",
          "type": "tuple"
        }
      ],
      "stateMutability": "nonpayable",
      "type": "function"
    },
    {
      "inputs": [],
      "name": "protocolFeePips",
      "outputs": [
        {
          "internalType": "uint24",
          "name": "",
          "type": "uint24"
        }
      ],
      "stateMutability": "view",
      "type": "function"
    },
    {
      "inputs": [
        {
          "internalType": "int256",
          "name": "fundingRateOverrideX128_",
          "type": "int256"
        }
      ],
      "name": "setFundingRateOverride",
      "outputs": [],
      "stateMutability": "nonpayable",
      "type": "function"
    },
    {
      "inputs": [
        {
          "internalType": "uint24",
          "name": "liquidityFeePips_",
          "type": "uint24"
        }
      ],
      "name": "setLiquidityFee",
      "outputs": [],
      "stateMutability": "nonpayable",
      "type": "function"
    },
    {
      "inputs": [
        {
          "internalType": "uint24",
          "name": "protocolFeePips_",
          "type": "uint24"
        }
      ],
      "name": "setProtocolFee",
      "outputs": [],
      "stateMutability": "nonpayable",
      "type": "function"
    },
    {
      "inputs": [],
      "name": "sumFeeGlobalX128",
      "outputs": [
        {
          "internalType": "uint256",
          "name": "",
          "type": "uint256"
        }
      ],
      "stateMutability": "view",
      "type": "function"
    },
    {
      "inputs": [
        {
          "internalType": "bool",
          "name": "swapVTokenForVQuote",
          "type": "bool"
        },
        {
          "internalType": "int256",
          "name": "amountSpecified",
          "type": "int256"
        },
        {
          "internalType": "uint160",
          "name": "sqrtPriceLimitX96",
          "type": "uint160"
        }
      ],
      "name": "swap",
      "outputs": [
        {
          "components": [
            {
              "internalType": "int256",
              "name": "amountSpecified",
              "type": "int256"
            },
            {
              "internalType": "int256",
              "name": "vTokenIn",
              "type": "int256"
            },
            {
              "internalType": "int256",
              "name": "vQuoteIn",
              "type": "int256"
            },
            {
              "internalType": "uint256",
              "name": "liquidityFees",
              "type": "uint256"
            },
            {
              "internalType": "uint256",
              "name": "protocolFees",
              "type": "uint256"
            },
            {
              "internalType": "uint160",
              "name": "sqrtPriceX96Start",
              "type": "uint160"
            },
            {
              "internalType": "uint160",
              "name": "sqrtPriceX96End",
              "type": "uint160"
            }
          ],
          "internalType": "struct IVPoolWrapper.SwapResult",
          "name": "swapResult",
          "type": "tuple"
        }
      ],
      "stateMutability": "nonpayable",
      "type": "function"
    },
    {
      "inputs": [
        {
          "internalType": "int24",
          "name": "",
          "type": "int24"
        }
      ],
      "name": "ticksExtended",
      "outputs": [
        {
          "internalType": "int256",
          "name": "sumALastX128",
          "type": "int256"
        },
        {
          "internalType": "int256",
          "name": "sumBOutsideX128",
          "type": "int256"
        },
        {
          "internalType": "int256",
          "name": "sumFpOutsideX128",
          "type": "int256"
        },
        {
          "internalType": "uint256",
          "name": "sumFeeOutsideX128",
          "type": "uint256"
        }
      ],
      "stateMutability": "view",
      "type": "function"
    },
    {
      "inputs": [
        {
          "internalType": "uint256",
          "name": "vTokenAmount",
          "type": "uint256"
        },
        {
          "internalType": "uint256",
          "name": "vQuoteAmount",
          "type": "uint256"
        },
        {
          "internalType": "bytes",
          "name": "",
          "type": "bytes"
        }
      ],
      "name": "uniswapV3MintCallback",
      "outputs": [],
      "stateMutability": "nonpayable",
      "type": "function"
    },
    {
      "inputs": [
        {
          "internalType": "int256",
          "name": "amount0Delta",
          "type": "int256"
        },
        {
          "internalType": "int256",
          "name": "amount1Delta",
          "type": "int256"
        },
        {
          "internalType": "bytes",
          "name": "",
          "type": "bytes"
        }
      ],
      "name": "uniswapV3SwapCallback",
      "outputs": [],
      "stateMutability": "nonpayable",
      "type": "function"
    },
    {
      "inputs": [
        {
          "internalType": "bool",
          "name": "useZeroFundingRate",
          "type": "bool"
        }
      ],
      "name": "updateGlobalFundingState",
      "outputs": [],
      "stateMutability": "nonpayable",
      "type": "function"
    },
    {
      "inputs": [],
      "name": "vPool",
      "outputs": [
        {
          "internalType": "contract IUniswapV3Pool",
          "name": "",
          "type": "address"
        }
      ],
      "stateMutability": "view",
      "type": "function"
    },
    {
      "inputs": [],
      "name": "vQuote",
      "outputs": [
        {
          "internalType": "contract IVQuote",
          "name": "",
          "type": "address"
        }
      ],
      "stateMutability": "view",
      "type": "function"
    },
    {
      "inputs": [],
      "name": "vToken",
      "outputs": [
        {
          "internalType": "contract IVToken",
          "name": "",
          "type": "address"
        }
      ],
      "stateMutability": "view",
      "type": "function"
    },
    {
      "anonymous": false,
      "inputs": [
        {
          "components": [
            {
              "internalType": "int256",
              "name": "sumAX128",
              "type": "int256"
            },
            {
              "internalType": "int256",
              "name": "sumBX128",
              "type": "int256"
            },
            {
              "internalType": "int256",
              "name": "sumFpX128",
              "type": "int256"
            },
            {
              "internalType": "uint48",
              "name": "timestampLast",
              "type": "uint48"
            }
          ],
          "indexed": false,
          "internalType": "struct FundingPayment.Info",
          "name": "fundingPayment",
          "type": "tuple"
        },
        {
          "indexed": false,
          "internalType": "int256",
          "name": "fundingRateX128",
          "type": "int256"
        },
        {
          "indexed": false,
          "internalType": "uint256",
          "name": "virtualPriceX128",
          "type": "uint256"
        }
      ],
      "name": "FundingPaymentStateUpdated",
      "type": "event"
    }
  ],
  "transactionHash": "0x69a0a8f021efe49377a2ff366768cc73c391739acba10b805ebca3b4bcf4aa1a",
  "args": [],
  "numDeployments": 1,
  "solcInputHash": "5255782a5c309683447bc8877c20bc93",
  "bytecode": "0x608060405234801561001057600080fd5b50614c86806100206000396000f3fe608060405234801561001057600080fd5b50600436106101cf5760003560e01c80637feedaa111610104578063a3c35e2c116100a2578063dbd035ff11610071578063dbd035ff14610457578063fa461e3314610477578063fb7e3e241461048a578063fca6fbf2146104a757600080fd5b8063a3c35e2c1461041f578063acfd792814610432578063c04b98c41461043b578063d34879971461044457600080fd5b80639bb1a99c116100de5780639bb1a99c146103de5780639f883c12146103f1578063a34123a714610404578063a3a1e7e91461041757600080fd5b80637feedaa11461038e57806386c8e9a7146103a15780638b1e9781146103cb57600080fd5b80634bc36bd6116101715780635e622abc1161014b5780635e622abc146103255780636719578c1461032d5780636c544335146103405780637779815c1461038657600080fd5b80634bc36bd6146102ea57806351240336146102fd57806356d15a881461031257600080fd5b80631e2eaeaf116101ad5780631e2eaeaf1461024c5780632a99a7921461026c5780633b231e011461028c57806348aaa8c01461029557600080fd5b80630af96800146101d4578063195cd92c1461020a5780631dce5fcf1461022a575b600080fd5b6000546101ed906201000090046001600160a01b031681565b6040516001600160a01b0390911681526020015b60405180910390f35b61021d61021836600461410f565b6104bd565b6040516102019190614151565b61023d6102383660046141cd565b61080e565b6040516102019392919061420d565b61025e61025a366004614249565b5490565b604051908152602001610201565b61027f61027a366004614262565b6109f3565b604051610201919061429b565b61025e600a5481565b6102ca6102a33660046142c6565b600b6020526000908152604090208054600182015460028301546003909301549192909184565b604080519485526020850193909352918301526060820152608001610201565b6002546101ed906001600160a01b031681565b61031061030b3660046142e3565b610b1f565b005b610310610320366004614300565b610b8c565b61025e610d99565b6003546101ed906001600160a01b031681565b60055460065460075460085461035e9392919065ffffffffffff1684565b6040805194855260208501939093529183015265ffffffffffff166060820152608001610201565b60055461025e565b61031061039c366004614329565b610e18565b6003546103b790600160a01b900462ffffff1681565b60405162ffffff9091168152602001610201565b6103106103d9366004614329565b610f19565b6001546101ed906001600160a01b031681565b6103106103ff366004614249565b611013565b61023d6104123660046141cd565b6110f0565b61025e6112ba565b61027f61042d366004614262565b6112ee565b61025e60045481565b61025e60095481565b610310610452366004614388565b61148b565b61046a6104653660046143f1565b611593565b60405161020191906144af565b610310610485366004614388565b6115c1565b61049261178a565b60408051928352602083019190915201610201565b6003546103b790600160b81b900462ffffff1681565b61050f6040518060e00160405280600081526020016000815260200160008152602001600081526020016000815260200160006001600160a01b0316815260200160006001600160a01b031681525090565b6000546201000090046001600160a01b0316331461054057604051638597d08b60e01b815260040160405180910390fd5b600080841215906001600160a01b038416900361059357846105805761057b600173fffd8963efd1fc6a506488495d951d5263988d26614509565b610590565b6105906401000276a36001614531565b92505b8382526003546105c190829087906101f49062ffffff600160a01b8204811691600160b81b900416876118cc565b60408051610100810182526000808252602082018190529181018290526060810182905260c0810182905260e08101829052600a60808201526101f460a0820152908061060c61178a565b60c0850181905260e085018290529092509050845160035460009182918291610645916001600160a01b0316908d908c8a611973611aeb565b92509250925085600001518860a001906001600160a01b031690816001600160a01b03168152505080604001518860c001906001600160a01b031690816001600160a01b031681525050600360009054906101000a90046001600160a01b03166001600160a01b031663128acb08308d8b600001518d6040518563ffffffff1660e01b815260040161070f94939291906001600160a01b03948516815292151560208401526040830191909152909116606082015260a06080820181905260009082015260c00190565b60408051808303816000875af115801561072d573d6000803e3d6000fd5b505050506040513d601f19601f82011682018060405250810190610751919061455c565b60408a0152602089018190528314801561076e5750876040015182145b61077a5761077a614580565b50506003546107ab94508593508992506101f4915062ffffff600160a01b8204811691600160b81b9004168761229e565b8160800151600460008282546107c19190614596565b909155506107cf90506123ae565b7f374e2c00db0195ec47718dc83fbed946c07c24c240e8332e547d9b4ac086fd47826040516107fe9190614151565b60405180910390a1509392505050565b60008061083c6040518060800160405280600081526020016000815260200160008152602001600081525090565b6000546201000090046001600160a01b0316331461086d57604051638597d08b60e01b815260040160405180910390fd5b85858060020b8260020b12158061088b5750620d89e719600283900b125b806108a7575061089e620d89e7196145ae565b60020b8160020b135b806108be57506108b8600a836145e6565b60020b15155b806108d557506108cf600a826145e6565b60020b15155b156109065760405163957b5ed560e01b8152600283810b600483015282900b60248201526044015b60405180910390fd5b61090e612551565b61093f8888610925896001600160801b031661257a565b60035461093a906001600160a01b03166125b8565b612629565b600354604051633c8a7d8d60e01b815230600482015260028b810b60248301528a900b60448201526001600160801b038916606482015260a06084820152600060a4820181905292955082916001600160a01b031690633c8a7d8d9060c40160408051808303816000875af11580156109bc573d6000803e3d6000fd5b505050506040513d601f19601f820116820180604052508101906109e0919061455c565b909b909a50949850939650505050505050565b610a1e6040518060800160405280600081526020016000815260200160008152602001600081525090565b60035460408051633850c7bd60e01b815290516000926001600160a01b031691633850c7bd9160048083019260e09291908290030181865afa158015610a68573d6000803e3d6000fd5b505050506040513d601f19601f82011682018060405250810190610a8c9190614625565b505060408051608081018252600554815260065460208201526007549181019190915260085465ffffffffffff166060820152939550929350610ad292506112ba915050565b808252600554600654600754610ae79361277a565b604082015280518352600954610b0790600b9087908790869086906127aa565b60608601526040850152602084015250909392505050565b6000546201000090046001600160a01b03163314610b5057604051638597d08b60e01b815260040160405180910390fd5b600080610b5b61178a565b91509150610b8760006001610b6d4290565b86610b785785610b7b565b60005b60059392919086612902565b505050565b600054610100900460ff16610ba75760005460ff1615610bab565b303b155b610c0e5760405162461bcd60e51b815260206004820152602e60248201527f496e697469616c697a61626c653a20636f6e747261637420697320616c72656160448201526d191e481a5b9a5d1a585b1a5e995960921b60648201526084016108fd565b600054610100900460ff16158015610c30576000805461ffff19166101011790555b610c3d60208301836146bd565b600080546001600160a01b0392909216620100000262010000600160b01b0319909216919091179055610c7660408301602084016146bd565b600180546001600160a01b0319166001600160a01b0392909216919091179055610ca660608301604084016146bd565b600280546001600160a01b0319166001600160a01b0392909216919091179055610cd660808301606084016146bd565b600380546001600160a01b0319166001600160a01b0392909216919091179055610d0660a0830160808401614329565b6003805462ffffff92909216600160a01b0262ffffff60a01b19909216919091179055610d3960c0830160a08401614329565b6003805462ffffff92909216600160b81b0262ffffff60b81b199092169190911790556001600160ff1b03600a55610d8360006001610d754290565b600592919060006001612902565b8015610d95576000805461ff00191690555b5050565b600080546201000090046001600160a01b03163314610dcb57604051638597d08b60e01b815260040160405180910390fd5b6001600454610dda91906146da565b60016004556040518181529091507f889bbef14ccbbb6f97773359c9c09396f67ed97695236771816a304ec5d886119060200160405180910390a190565b600060029054906101000a90046001600160a01b03166001600160a01b0316635aa6e6756040518163ffffffff1660e01b8152600401602060405180830381865afa158015610e6b573d6000803e3d6000fd5b505050506040513d601f19601f82011682018060405250810190610e8f91906146f1565b6001600160a01b0316336001600160a01b031614610ec057604051632d5be4cb60e21b815260040160405180910390fd5b6003805462ffffff60b81b1916600160b81b62ffffff8416908102919091179091556040519081527f2edf7eef14cb246dab2aac555e300928981632918159d9e33fcaa24dcd38cb40906020015b60405180910390a150565b600060029054906101000a90046001600160a01b03166001600160a01b0316635aa6e6756040518163ffffffff1660e01b8152600401602060405180830381865afa158015610f6c573d6000803e3d6000fd5b505050506040513d601f19601f82011682018060405250810190610f9091906146f1565b6001600160a01b0316336001600160a01b031614610fc157604051632d5be4cb60e21b815260040160405180910390fd5b6003805462ffffff60a01b1916600160a01b62ffffff8416908102919091179091556040519081527f5e286c9a939d59334080ddf15517957037c2228384e26bb92a368ce44c531edd90602001610f0e565b600060029054906101000a90046001600160a01b03166001600160a01b0316635aa6e6756040518163ffffffff1660e01b8152600401602060405180830381865afa158015611066573d6000803e3d6000fd5b505050506040513d601f19601f8201168201806040525081019061108a91906146f1565b6001600160a01b0316336001600160a01b0316146110bb57604051632d5be4cb60e21b815260040160405180910390fd5b600a8190556040518181527fe71127eab59a3a0c0415330d6b03fb027923dc6710978f16940a31355cbf83e890602001610f0e565b60008061111e6040518060800160405280600081526020016000815260200160008152602001600081525090565b6000546201000090046001600160a01b0316331461114f57604051638597d08b60e01b815260040160405180910390fd5b85858060020b8260020b12158061116d5750620d89e719600283900b125b806111895750611180620d89e7196145ae565b60020b8160020b135b806111a0575061119a600a836145e6565b60020b15155b806111b757506111b1600a826145e6565b60020b15155b156111e35760405163957b5ed560e01b8152600283810b600483015282900b60248201526044016108fd565b6111eb612551565b61120b8888611202896001600160801b031661257a565b6109259061470e565b60035460405163a34123a760e01b815260028b810b60048301528a900b60248201526001600160801b038916604482015291945060009182916001600160a01b03169063a34123a79060640160408051808303816000875af1158015611275573d6000803e3d6000fd5b505050506040513d601f19601f82011682018060405250810190611299919061455c565b915091508196508095506112ad8a8a612a13565b5050505093509350939050565b60008060006112c761178a565b6005546008549294509092506112e79165ffffffffffff16428585612ab0565b9250505090565b6113196040518060800160405280600081526020016000815260200160008152602001600081525090565b82828060020b8260020b1215806113375750620d89e719600283900b125b80611353575061134a620d89e7196145ae565b60020b8160020b135b8061136a5750611364600a836145e6565b60020b15155b80611381575061137b600a826145e6565b60020b15155b156113ad5760405163957b5ed560e01b8152600283810b600483015282900b60248201526044016108fd565b60035460408051633850c7bd60e01b815290516000926001600160a01b031691633850c7bd9160048083019260e09291908290030181865afa1580156113f7573d6000803e3d6000fd5b505050506040513d601f19601f8201168201806040525081019061141b9190614625565b50506040805160808101825260055480825260065460208301526007549282019290925260085465ffffffffffff166060820152908a52600954949650945061147193600b93508b92508a9150869086906127aa565b606088015260408701526020860152509295945050505050565b6003546001600160a01b031633146114b6576040516308458b2b60e21b815260040160405180910390fd5b8215611521576002546040516340c10f1960e01b8152336004820152602481018590526001600160a01b03909116906340c10f1990604401600060405180830381600087803b15801561150857600080fd5b505af115801561151c573d6000803e3d6000fd5b505050505b831561158d576001546040516340c10f1960e01b8152336004820152602481018690526001600160a01b03909116906340c10f19906044015b600060405180830381600087803b15801561157457600080fd5b505af1158015611588573d6000803e3d6000fd5b505050505b50505050565b606060208251028201602001602083015b818110156115b95780515481526020016115a4565b509192915050565b6003546001600160a01b031633146115ec576040516308458b2b60e21b815260040160405180910390fd5b60008413156116d257600360009054906101000a90046001600160a01b03166001600160a01b0316630dfe16816040518163ffffffff1660e01b8152600401602060405180830381865afa158015611648573d6000803e3d6000fd5b505050506040513d601f19601f8201168201806040525081019061166c91906146f1565b6003546040516340c10f1960e01b81526001600160a01b039182166004820152602481018790529116906340c10f1990604401600060405180830381600087803b1580156116b957600080fd5b505af11580156116cd573d6000803e3d6000fd5b505050505b600083131561158d57600360009054906101000a90046001600160a01b03166001600160a01b031663d21220a76040518163ffffffff1660e01b8152600401602060405180830381865afa15801561172e573d6000803e3d6000fd5b505050506040513d601f19601f8201168201806040525081019061175291906146f1565b6003546040516340c10f1960e01b81526001600160a01b039182166004820152602481018690529116906340c10f199060440161155a565b600a5460015460009182916001600160ff1b0382149083906117b4906001600160a01b0316612ad2565b6000546040516367260c6f60e11b815263ffffffff831660048201529192506201000090046001600160a01b03169063ce4c18de90602401602060405180830381865afa158015611809573d6000803e3d6000fd5b505050506040513d601f19601f8201168201806040525081019061182d9190614734565b935081156118c1576000805460405163706bdd2560e01b815263ffffffff84166004820152620100009091046001600160a01b03169063706bdd2590602401602060405180830381865afa158015611889573d6000803e3d6000fd5b505050506040513d601f19601f820116820180604052508101906118ad9190614734565b90506118b98186612ae2565b9550506118c5565b8294505b5050509091565b851561192d5784156118eb5780516118e49085612b13565b815261196b565b80516118fa9060028585612b56565b6080830181905260608301829052825161192092909161191991614596565b6001612c81565b8082526118e49085612b13565b841561196b5780516119429060018585612b56565b6080830181905260608301829052825161196892909161196191614596565b6000612c81565b81525b505050505050565b6000808561198a578260a001518360800151611995565b82608001518360a001515b9150915060006119c86119a783612cbb565b60035460009062ffffff600160a01b8204811691600160b81b900416612b56565b50905060008560c001516001600160801b03161180156119e85750600083115b15611a715760c086015160e0870151611a3989611a1657611a0886612cbb565b611a119061474d565b611a1f565b611a1f86612cbb565b60c0890151600591906001600160801b0316428587612902565b60c0870151611a58908490600160801b906001600160801b0316612ce4565b60096000828254611a699190614596565b909155505050505b83606001516001600160a01b031685604001516001600160a01b031603611ae257836040015115611ae257602080850151604080516080810182526005548152600654938101939093526007549083015260085465ffffffffffff166060830152600954611ae292600b9291612d96565b50505050505050565b6040805160e081018252600080825260208201819052918101829052606081018290526080810182905260a0810182905260c08101829052819086600003611b4657604051631f2a200560e01b815260040160405180910390fd5b84516001600160a01b0316600003611bda57886001600160a01b0316633850c7bd6040518163ffffffff1660e01b815260040160e060405180830381865afa158015611b96573d6000803e3d6000fd5b505050506040513d601f19601f82011682018060405250810190611bba9190614625565b5060ff1660408b015250505060020b60208701526001600160a01b031685525b84606001516001600160801b0316600003611c6057886001600160a01b0316631a6865026040518163ffffffff1660e01b8152600401602060405180830381865afa158015611c2d573d6000803e3d6000fd5b505050506040513d601f19601f82011682018060405250810190611c519190614769565b6001600160801b031660608601525b846080015160020b600003611d4d57886001600160a01b031663ddca3f436040518163ffffffff1660e01b8152600401602060405180830381865afa158015611cad573d6000803e3d6000fd5b505050506040513d601f19601f82011682018060405250810190611cd19190614786565b62ffffff1660a0860152604080516334324e9f60e21b815290516001600160a01b038b169163d0c93a7c9160048083019260209291908290030181865afa158015611d20573d6000803e3d6000fd5b505050506040513d601f19601f82011682018060405250810190611d4491906147a3565b60020b60808601525b87611d975784600001516001600160a01b0316866001600160a01b03161080611d92575073fffd8963efd1fc6a506488495d951d5263988d266001600160a01b038716115b611dc8565b84600001516001600160a01b0316866001600160a01b03161180611dc857506401000276a36001600160a01b038716105b15611df1576040516328da8b5760e11b81526001600160a01b03871660048201526024016108fd565b600080881390506040518060e001604052808981526020016000815260200187600001516001600160a01b03168152602001876020015160020b81526020016000815260200160006001600160801b0316815260200187606001516001600160801b031681525091505b815115801590611e815750866001600160a01b031682604001516001600160a01b031614155b15612258576040805160e081018252600080825260208201819052918101829052606081018290526080810182905260a0810182905260c081019190915260408301516001600160a01b03908116825260608401516080890151611eee928e1691635339c296918e612e17565b1515604083015260020b60208201819052620d89e7191315611f1957620d89e7196020820152611f4d565b611f26620d89e7196145ae565b60020b816020015160020b1315611f4d57611f44620d89e7196145ae565b60020b60208201525b611f5a8160200151613083565b6001600160a01b031660608201526040830151611fcf908b611f9457896001600160a01b031683606001516001600160a01b031611611fae565b896001600160a01b031683606001516001600160a01b0316105b611fbc578260600151611fbe565b895b60c0860151865160a08c01516133a6565b60c085015260a084015260808301526001600160a01b0316604084015281156120475761200e8160c0015182608001516120099190614596565b613598565b8351849061201d9083906147c0565b90525060a081015161202e90613598565b836020015161203d91906147c0565b6020840152612092565b6120548160a00151613598565b835184906120639083906147ff565b90525060c0810151608082015161207d9161200991614596565b836020015161208c91906147ff565b60208401525b60c08301516001600160801b0316156120da576120c58160c00151600160801b8560c001516001600160801b0316612ce4565b836080018181516120d69190614596565b9052505b6120ea8a8885848a63ffffffff16565b80606001516001600160a01b031683604001516001600160a01b03160361221b578060400151156121ee57602081015160405163f30dba9360e01b815260029190910b60048201526000906001600160a01b038d169063f30dba939060240161010060405180830381865afa158015612167573d6000803e3d6000fd5b505050506040513d601f19601f8201168201806040525081019061218b9190614840565b5050505050509150508a156121a6576121a38161470e565b90505b600081600f0b126121c657808460c001516121c191906148ee565b6121de565b6121cf8161470e565b8460c001516121de9190614910565b6001600160801b031660c0850152505b896121fd57806020015161220e565b6001816020015161220e9190614930565b60020b6060840152612252565b80600001516001600160a01b031683604001516001600160a01b0316146122525761224983604001516135aa565b60020b60608401525b50611e5b565b801515891515146122795760208201518251612274908a6147c0565b61228b565b815161228590896147c0565b82602001515b909b909a50919850909650505050505050565b85156123285784156122fb576122b88160200151856138b0565b602082015260408101516122cf9060008585612b56565b608083018190526060830182905260408301516122f192909161191991614596565b604082015261196b565b6123098160400151856138b0565b60408201819052608082015160608301516122f1929161196191614596565b846123715761233b8160400151856138b0565b6040820181905261234f9060008585612b56565b608083018190526060830182905260408301516122f192909161196191614596565b61237f8160200151856138b0565b60208201526040810151608082015160608301516123a1929161191991614596565b6040820152505050505050565b6002546040516370a0823160e01b81523060048201526000916001600160a01b0316906370a0823190602401602060405180830381865afa1580156123f7573d6000803e3d6000fd5b505050506040513d601f19601f8201168201806040525081019061241b9190614734565b9050801561248257600254604051630852cd8d60e31b8152600481018390526001600160a01b03909116906342966c6890602401600060405180830381600087803b15801561246957600080fd5b505af115801561247d573d6000803e3d6000fd5b505050505b6001546040516370a0823160e01b81523060048201526000916001600160a01b0316906370a0823190602401602060405180830381865afa1580156124cb573d6000803e3d6000fd5b505050506040513d601f19601f820116820180604052508101906124ef9190614734565b90508015610d9557600154604051630852cd8d60e31b8152600481018390526001600160a01b03909116906342966c6890602401600060405180830381600087803b15801561253d57600080fd5b505af115801561196b573d6000803e3d6000fd5b60008061255c61178a565b91509150610d956000600161256e4290565b60059291908686612902565b60006001607f1b826001600160801b0316106125b45760405163832da39d60e01b81526001600160801b03831660048201526024016108fd565b5090565b6000816001600160a01b0316633850c7bd6040518163ffffffff1660e01b815260040160e060405180830381865afa1580156125f8573d6000803e3d6000fd5b505050506040513d601f19601f8201168201806040525081019061261c9190614625565b5093979650505050505050565b6126546040518060800160405280600081526020016000815260200160008152602001600081525090565b60408051608081018252600554815260065460208201526007549181019190915260085465ffffffffffff166060820152600954600080600f87900b156126f6578351602085015160408601516003546126c493600b938e938c938e939291908b906001600160a01b03166138cd565b8451602086015160408701516003549395506126f393600b938d938c938e938b906001600160a01b03166138cd565b90505b61270089896112ee565b9450600087600f0b121561276e57811561273e57600289810b6000908152600b60205260408120818155600181018290559182018190556003909101555b801561276e57600288810b6000908152600b60205260408120818155600181018290559182018190556003909101555b50505050949350505050565b600061279561278986846147c0565b8590600160801b6139de565b61279f90846147ff565b90505b949350505050565b600285810b60009081526020889052604080822087840b83529082206001820154825494830154875194958695869594939286926127eb929091859161277a565b90506000846003015490508a60020b8d60020b131561283557828a6020015161281491906147c0565b9250818a6040015161282691906147c0565b9150612832818a6146da565b90505b6001840154845460028601548c5160009261285492909185919061277a565b90506000866003015490508d60020b8f60020b1361289d57828d6020015161287c91906147c0565b9250818d6040015161288e91906147c0565b915061289a818d6146da565b90505b82868e602001516128ae91906147c0565b6128b891906147c0565b9a5081858e604001516128cb91906147c0565b6128d591906147c0565b9950806128e2858e6146da565b6128ec91906146da565b9850505050505050505096509650969350505050565b600386015460009061291e9065ffffffffffff16858585613a3b565b6001880154909150612936908290600160801b613a63565b87600201600082825461294991906147ff565b90915550508654819088906000906129629084906147ff565b90915550612977905086600160801b876139de565b87600101600082825461298a91906147ff565b909155505060038701805465ffffffffffff861665ffffffffffff199091168117909155604080518954815260018a0154602082015260028a01548183015260608101929092526080820185905260a08201849052517f62187ed3f133848cd15541a988e634a4c2e6a75750e025c69ea914b1ea2263cc9181900360c00190a150505050505050565b6003546040516309e3d67b60e31b8152306004820152600284810b602483015283900b60448201526001600160801b036064820181905260848201526001600160a01b0390911690634f1eb3d89060a40160408051808303816000875af1158015612a82573d6000803e3d6000fd5b505050506040513d601f19601f82011682018060405250810190612aa69190614978565b5050610d956123ae565b6000612abe85858585613a3b565b612ac890876147ff565b9695505050505050565b600063ffffffff82165b92915050565b600062015180612b02600160801b85612afb86826147c0565b9190613ab1565b612b0c91906149a7565b9392505050565b600080612b2383620f42406149d5565b60020b612b3562ffffff8516866149f1565b612b3f91906149a7565b612b4a9060016147ff565b90506127a281856147ff565b6000806000612b6487613aee565b90506001866002811115612b7a57612b7a614a76565b03612bba5783612b8d86620f42406149d5565b612b9791906149d5565b62ffffff16612ba982620f4240614a8c565b612bb39190614aab565b9050612c0a565b6002866002811115612bce57612bce614a76565b03612c0a5783612be186620f4240614abf565b612beb9190614abf565b62ffffff16612bfd82620f4240614a8c565b612c079190614aab565b90505b6000620f4240612c1a8688614abf565b612c299062ffffff1684614a8c565b612c339190614aab565b612c3e906001614596565b9050620f4240612c5362ffffff881684614a8c565b612c5d9190614aab565b612c68906001614596565b9350612c7484826146da565b9250505094509492505050565b600080826001811115612c9657612c96614a76565b146000851303612cb157612caa83856147ff565b9050612b0c565b6127a283856147c0565b6000600160ff1b82106125b4576040516320c82def60e21b8152600481018390526024016108fd565b6000808060001985870985870292508281108382030391505080600003612d1d5760008411612d1257600080fd5b508290049050612b0c565b808411612d2957600080fd5b6000848688096000868103871696879004966002600389028118808a02820302808a02820302808a02820302808a02820302808a02820302808a02909103029181900381900460010186841190950394909402919094039290920491909117919091029150509392505050565b600283810b6000908152602086905260408120805460018201549382015486519294612dc49390919061277a565b8451835560018301546020860151919250612dde916147c0565b60018301556040840151612df39082906147c0565b60028301556003820154612e0790846146da565b8260030181905550505050505050565b60008080612e258587614add565b905060008660020b128015612e455750612e3f85876145e6565b60020b15155b15612e585780612e5481614b17565b9150505b8315612f5d57600080612e6a83613b05565b90925090506000600160ff831681901b90612e8590826146da565b612e8f9190614596565b90506000818c8c866040518263ffffffff1660e01b8152600401612ebc919060019190910b815260200190565b602060405180830381865afa158015612ed9573d6000803e3d6000fd5b505050506040513d601f19601f82011682018060405250810190612efd9190614734565b168015159650905085612f275788612f1860ff851687614930565b612f229190614b3a565b612f52565b88612f3182613b22565b612f3b9085614bc7565b612f489060ff1687614930565b612f529190614b3a565b965050505050613078565b600080612f73612f6e846001614bea565b613b05565b90925090506000612f8b600160ff841681901b6146da565b1990506000818c8c866040518263ffffffff1660e01b8152600401612fb9919060019190910b815260200190565b602060405180830381865afa158015612fd6573d6000803e3d6000fd5b505050506040513d601f19601f82011682018060405250810190612ffa9190614734565b16801515965090508561303a57886130138460ff614bc7565b60ff16613021876001614bea565b61302b9190614bea565b6130359190614b3a565b613071565b888361304583613bc3565b61304f9190614bc7565b60ff1661305d876001614bea565b6130679190614bea565b6130719190614b3a565b9650505050505b509550959350505050565b60008060008360020b1261309a578260020b6130a2565b8260020b6000035b9050620d89e88111156130c8576040516315e4079d60e11b815260040160405180910390fd5b6000816001166000036130df57600160801b6130f1565b6ffffcb933bd6fad37aa2d162d1a5940015b70ffffffffffffffffffffffffffffffffff1690506002821615613125576ffff97272373d413259a46990580e213a0260801c5b6004821615613144576ffff2e50f5f656932ef12357cf3c7fdcc0260801c5b6008821615613163576fffe5caca7e10e4e61c3624eaa0941cd00260801c5b6010821615613182576fffcb9843d60f6159c9db58835c9266440260801c5b60208216156131a1576fff973b41fa98c081472e6896dfb254c00260801c5b60408216156131c0576fff2ea16466c96a3843ec78b326b528610260801c5b60808216156131df576ffe5dee046a99a2a811c461f1969c30530260801c5b6101008216156131ff576ffcbe86c7900a88aedcffc83b479aa3a40260801c5b61020082161561321f576ff987a7253ac413176f2b074cf7815e540260801c5b61040082161561323f576ff3392b0822b70005940c7a398e4b70f30260801c5b61080082161561325f576fe7159475a2c29b7443b29c7fa6e889d90260801c5b61100082161561327f576fd097f3bdfd2022b8845ad8f792aa58250260801c5b61200082161561329f576fa9f746462d870fdf8a65dc1f90e061e50260801c5b6140008216156132bf576f70d869a156d2a1b890bb3df62baf32f70260801c5b6180008216156132df576f31be135f97d08fd981231505542fcfa60260801c5b62010000821615613300576f09aa508b5b7a84e1c677de54f3e99bc90260801c5b62020000821615613320576e5d6af8dedb81196699c329225ee6040260801c5b6204000082161561333f576d2216e584f5fa1ea926041bedfe980260801c5b6208000082161561335c576b048a170391f7dc42444e8fa20260801c5b60008460020b131561337d578060001981613379576133796145d0565b0490505b640100000000810615613391576001613394565b60005b60ff16602082901c0192505050919050565b60008080806001600160a01b03808916908a16101581871280159061342b5760006133df8989620f42400362ffffff16620f4240612ce4565b9050826133f8576133f38c8c8c6001613cad565b613405565b6134058b8d8c6001613d1d565b9550858110613416578a9650613425565b6134228c8b8386613dd4565b96505b50613475565b816134425761343d8b8b8b6000613d1d565b61344f565b61344f8a8c8b6000613cad565b935083886000031061346357899550613475565b6134728b8a8a60000385613e20565b95505b6001600160a01b038a81169087161482156134d8578080156134945750815b6134aa576134a5878d8c6001613d1d565b6134ac565b855b95508080156134b9575081155b6134cf576134ca878d8c6000613cad565b6134d1565b845b9450613522565b8080156134e25750815b6134f8576134f38c888c6001613cad565b6134fa565b855b9550808015613507575081155b61351d576135188c888c6000613d1d565b61351f565b845b94505b8115801561353257508860000385115b1561353e578860000394505b81801561355d57508a6001600160a01b0316876001600160a01b031614155b1561356c578589039350613589565b613586868962ffffff168a620f42400362ffffff16613e6c565b93505b50505095509550955095915050565b6000600160ff1b82106125b457600080fd5b60006401000276a36001600160a01b038316108015906135e6575073fffd8963efd1fc6a506488495d951d5263988d266001600160a01b038316105b613603576040516324c070df60e11b815260040160405180910390fd5b640100000000600160c01b03602083901b166001600160801b03811160071b81811c67ffffffffffffffff811160061b90811c63ffffffff811160051b90811c61ffff811160041b90811c60ff8111600390811b91821c600f811160021b90811c918211600190811b92831c9790881196179094179092171790911717176080811061369757607f810383901c91506136a1565b80607f0383901b91505b908002607f81811c60ff83811c9190911c800280831c81831c1c800280841c81841c1c800280851c81851c1c800280861c81861c1c800280871c81871c1c800280881c81881c1c800280891c81891c1c8002808a1c818a1c1c8002808b1c818b1c1c8002808c1c818c1c1c8002808d1c818d1c1c8002808e1c9c81901c9c909c1c80029c8d901c9e9d607f198f0160401b60c09190911c678000000000000000161760c19b909b1c674000000000000000169a909a1760c29990991c672000000000000000169890981760c39790971c671000000000000000169690961760c49590951c670800000000000000169490941760c59390931c670400000000000000169290921760c69190911c670200000000000000161760c79190911c670100000000000000161760c89190911c6680000000000000161760c99190911c6640000000000000161760ca9190911c6620000000000000161760cb9190911c6610000000000000161760cc9190911c6608000000000000161760cd9190911c66040000000000001617693627a301d71055774c8581026f028f6481ab7f045a5af012a19d003aa9198101608090811d906fdb2df09e81959a81455e260799a0632f8301901d600281810b9083900b146138a157886001600160a01b031661388682613083565b6001600160a01b0316111561389b57816138a3565b806138a3565b815b9998505050505050505050565b6000620f42406138c083826149d5565b612b029060020b856149f1565b600288900b600081815260208b90526040808220905163f30dba9360e01b81526004810193909352909182906001600160a01b0385169063f30dba939060240161010060405180830381865afa15801561392b573d6000803e3d6000fd5b505050506040513d601f19601f8201168201806040525081019061394f9190614840565b5050505050505090506000808a600f0b126139735761396e8a836148ee565b613986565b61397c8a61470e565b6139869083614910565b6001600160801b03808216159084168015919091141595509091506000036139ce578a60020b8c60020b136139ce578883556001830188905560028301879055600383018690555b5050509998505050505050505050565b600060018180806139ef8885613eac565b945092506139fd8785613eac565b94509150613a0b8685613eac565b94509050613a1d612009848484612ce4565b945083613a3057613a2d8561474d565b94505b505050509392505050565b6000613a478585614c31565b60050b613a598484600160801b613ab1565b61279f91906149f1565b6000613a708484846139de565b9050600081128015613aa05750613aa0613a8985613ed9565b613a9285613ed9565b613a9b85613ed9565b613ee4565b15612b0c576127a2600019826147ff565b6000613ada61200960008612613ac75785613ad3565b613ad3866000196149f1565b8585612ce4565b90506000841215612b0c576127a28161474d565b60008082136125b457613b008261474d565b612adc565b600281900b60081d6000613b1b610100846145e6565b9050915091565b6000808211613b3057600080fd5b600160801b8210613b4357608091821c91015b680100000000000000008210613b5b57604091821c91015b6401000000008210613b6f57602091821c91015b620100008210613b8157601091821c91015b6101008210613b9257600891821c91015b60108210613ba257600491821c91015b60048210613bb257600291821c91015b60028210613bbe576001015b919050565b6000808211613bd157600080fd5b5060ff6001600160801b03821615613bec57607f1901613bf4565b608082901c91505b67ffffffffffffffff821615613c0d57603f1901613c15565b604082901c91505b63ffffffff821615613c2a57601f1901613c32565b602082901c91505b61ffff821615613c4557600f1901613c4d565b601082901c91505b60ff821615613c5f5760071901613c67565b600882901c91505b600f821615613c795760031901613c81565b600482901c91505b6003821615613c935760011901613c9b565b600282901c91505b6001821615613bbe5760001901919050565b6000836001600160a01b0316856001600160a01b03161115613ccd579293925b81613cfa57613cf5836001600160801b03168686036001600160a01b0316600160601b612ce4565b61279f565b61279f836001600160801b03168686036001600160a01b0316600160601b613e6c565b6000836001600160a01b0316856001600160a01b03161115613d3d579293925b600160601b600160e01b03606084901b166001600160a01b038686038116908716613d6757600080fd5b83613d9d57866001600160a01b0316613d8a8383896001600160a01b0316612ce4565b81613d9757613d976145d0565b04613dc9565b613dc9613db48383896001600160a01b0316613e6c565b886001600160a01b0316808204910615150190565b979650505050505050565b600080856001600160a01b031611613deb57600080fd5b6000846001600160801b031611613e0157600080fd5b81613e1357613cf58585856001613efd565b61279f8585856001613fe3565b600080856001600160a01b031611613e3757600080fd5b6000846001600160801b031611613e4d57600080fd5b81613e5f57613cf58585856000613fe3565b61279f8585856000613efd565b6000613e79848484612ce4565b905060008280613e8b57613e8b6145d0565b8486091115612b0c576000198110613ea257600080fd5b6001019392505050565b6000806000841215613ecb57911591613ec48461474d565b9150613ecf565b8391505b50815b9250929050565b6000612adc82613aee565b6000818385098015613ef557600191505b509392505050565b60008115613f6f5760006001600160a01b03841115613f3357613f2e84600160601b876001600160801b0316612ce4565b613f4a565b613f4a6001600160801b038616606086901b614aab565b9050613f67613f62826001600160a01b038916614596565b6140d3565b9150506127a2565b60006001600160a01b03841115613f9d57613f9884600160601b876001600160801b0316613e6c565b613fba565b613fba606085901b6001600160801b038716808204910615150190565b905080866001600160a01b031611613fd157600080fd5b6001600160a01b0386160390506127a2565b600082600003613ff45750836127a2565b600160601b600160e01b03606085901b168215614086576001600160a01b03861684810290858281614028576140286145d0565b0403614058578181018281106140565761404c83896001600160a01b031683613e6c565b93505050506127a2565b505b50613f6781856140716001600160a01b038a1683614aab565b61407b9190614596565b808204910615150190565b6001600160a01b038616848102908582816140a3576140a36145d0565b041480156140b057508082115b6140b957600080fd5b80820361404c613f62846001600160a01b038b1684613e6c565b806001600160a01b0381168114613bbe57600080fd5b80151581146140f757600080fd5b50565b6001600160a01b03811681146140f757600080fd5b60008060006060848603121561412457600080fd5b833561412f816140e9565b9250602084013591506040840135614146816140fa565b809150509250925092565b815181526020808301519082015260408083015190820152606080830151908201526080808301519082015260a0808301516001600160a01b039081169183019190915260c092830151169181019190915260e00190565b8060020b81146140f757600080fd5b6001600160801b03811681146140f757600080fd5b6000806000606084860312156141e257600080fd5b83356141ed816141a9565b925060208401356141fd816141a9565b91506040840135614146816141b8565b8381526020810183905260c081016127a26040830184805182526020810151602083015260408101516040830152606081015160608301525050565b60006020828403121561425b57600080fd5b5035919050565b6000806040838503121561427557600080fd5b8235614280816141a9565b91506020830135614290816141a9565b809150509250929050565b8151815260208083015190820152604080830151908201526060808301519082015260808101612adc565b6000602082840312156142d857600080fd5b8135612b0c816141a9565b6000602082840312156142f557600080fd5b8135612b0c816140e9565b600060c0828403121561431257600080fd5b50919050565b62ffffff811681146140f757600080fd5b60006020828403121561433b57600080fd5b8135612b0c81614318565b60008083601f84011261435857600080fd5b50813567ffffffffffffffff81111561437057600080fd5b602083019150836020828501011115613ed257600080fd5b6000806000806060858703121561439e57600080fd5b8435935060208501359250604085013567ffffffffffffffff8111156143c357600080fd5b6143cf87828801614346565b95989497509550505050565b634e487b7160e01b600052604160045260246000fd5b6000602080838503121561440457600080fd5b823567ffffffffffffffff8082111561441c57600080fd5b818501915085601f83011261443057600080fd5b813581811115614442576144426143db565b8060051b604051601f19603f83011681018181108582111715614467576144676143db565b60405291825284820192508381018501918883111561448557600080fd5b938501935b828510156144a35784358452938501939285019261448a565b98975050505050505050565b6020808252825182820181905260009190848201906040850190845b818110156144e7578351835292840192918401916001016144cb565b50909695505050505050565b634e487b7160e01b600052601160045260246000fd5b60006001600160a01b0383811690831681811015614529576145296144f3565b039392505050565b60006001600160a01b03828116848216808303821115614553576145536144f3565b01949350505050565b6000806040838503121561456f57600080fd5b505080516020909101519092909150565b634e487b7160e01b600052600160045260246000fd5b600082198211156145a9576145a96144f3565b500190565b60008160020b627fffff1981036145c7576145c76144f3565b60000392915050565b634e487b7160e01b600052601260045260246000fd5b60008260020b806145f9576145f96145d0565b808360020b0791505092915050565b805161ffff81168114613bbe57600080fd5b8051613bbe816140e9565b600080600080600080600060e0888a03121561464057600080fd5b875161464b816140fa565b602089015190975061465c816141a9565b955061466a60408901614608565b945061467860608901614608565b935061468660808901614608565b925060a088015160ff8116811461469c57600080fd5b60c08901519092506146ad816140e9565b8091505092959891949750929550565b6000602082840312156146cf57600080fd5b8135612b0c816140fa565b6000828210156146ec576146ec6144f3565b500390565b60006020828403121561470357600080fd5b8151612b0c816140fa565b600081600f0b6f7fffffffffffffffffffffffffffffff1981036145c7576145c76144f3565b60006020828403121561474657600080fd5b5051919050565b6000600160ff1b8201614762576147626144f3565b5060000390565b60006020828403121561477b57600080fd5b8151612b0c816141b8565b60006020828403121561479857600080fd5b8151612b0c81614318565b6000602082840312156147b557600080fd5b8151612b0c816141a9565b60008083128015600160ff1b8501841216156147de576147de6144f3565b6001600160ff1b03840183138116156147f9576147f96144f3565b50500390565b600080821280156001600160ff1b0384900385131615614821576148216144f3565b600160ff1b839003841281161561483a5761483a6144f3565b50500190565b600080600080600080600080610100898b03121561485d57600080fd5b8851614868816141b8565b80985050602089015180600f0b811461488057600080fd5b80975050604089015195506060890151945060808901518060060b81146148a657600080fd5b60a08a01519094506148b7816140fa565b60c08a015190935063ffffffff811681146148d157600080fd5b91506148df60e08a0161461a565b90509295985092959890939650565b60006001600160801b03808316818516808303821115614553576145536144f3565b60006001600160801b0383811690831681811015614529576145296144f3565b60008160020b8360020b6000811281627fffff1901831281151615614957576149576144f3565b81627fffff01831381161561496e5761496e6144f3565b5090039392505050565b6000806040838503121561498b57600080fd5b8251614996816141b8565b6020840151909250614290816141b8565b6000826149b6576149b66145d0565b600160ff1b8214600019841416156149d0576149d06144f3565b500590565b600062ffffff83811690831681811015614529576145296144f3565b60006001600160ff1b0381841382841380821686840486111615614a1757614a176144f3565b600160ff1b6000871282811687830589121615614a3657614a366144f3565b60008712925087820587128484161615614a5257614a526144f3565b87850587128184161615614a6857614a686144f3565b505050929093029392505050565b634e487b7160e01b600052602160045260246000fd5b6000816000190483118215151615614aa657614aa66144f3565b500290565b600082614aba57614aba6145d0565b500490565b600062ffffff808316818516808303821115614553576145536144f3565b60008160020b8360020b80614af457614af46145d0565b627fffff19821460001982141615614b0e57614b0e6144f3565b90059392505050565b60008160020b627fffff198103614b3057614b306144f3565b6000190192915050565b60008160020b8360020b627fffff600082136000841383830485118282161615614b6657614b666144f3565b627fffff196000851282811687830587121615614b8557614b856144f3565b60008712925085820587128484161615614ba157614ba16144f3565b85850587128184161615614bb757614bb76144f3565b5050509290910295945050505050565b600060ff821660ff841680821015614be157614be16144f3565b90039392505050565b60008160020b8360020b6000821282627fffff03821381151615614c1057614c106144f3565b82627fffff19038212811615614c2857614c286144f3565b50019392505050565b600065ffffffffffff83811690831681811015614529576145296144f356fea264697066735822122042409afa64edb6dde57f8bf3ab81ffe2fae20771ad9b9c6687db0a988bdaa28d64736f6c634300080d0033",
  "userdoc": {
    "events": {
      "AccruedProtocolFeeCollected(uint256)": {
        "notice": "Emitted whenever clearing house enquired about the accrued protocol fees"
      },
      "Burn(int24,int24,uint128,uint256,uint256)": {
        "notice": "Emitted whenever liquidity is removed"
      },
      "FundingRateOverrideUpdated(int256)": {
        "notice": "Emitted when funding rate override is updated"
      },
      "LiquidityFeeUpdated(uint24)": {
        "notice": "Emitted when governance updates the liquidity fees"
      },
      "Mint(int24,int24,uint128,uint256,uint256)": {
        "notice": "Emitted whenever liquidity is added"
      },
      "ProtocolFeeUpdated(uint24)": {
        "notice": "Emitted when governance updates the protocol fees"
      },
      "Swap((int256,int256,int256,uint256,uint256,uint160,uint160))": {
        "notice": "Emitted whenever a swap takes place"
      }
    },
    "kind": "user",
    "methods": {
      "collectAccruedProtocolFee()": {
        "notice": "Used by clearing house to know how much protocol fee was collected."
      },
      "extsload(bytes32)": {
        "notice": "Returns a value from the storage."
      },
      "extsload(bytes32[])": {
        "notice": "Returns multiple values from storage."
      },
      "getFundingRateAndVirtualPrice()": {
        "notice": "VIEW METHODS"
      },
      "initialize((address,address,address,address,uint24,uint24))": {
        "notice": "PLATFORM FUNCTIONS"
      },
      "setLiquidityFee(uint24)": {
        "notice": "ADMIN FUNCTIONS"
      },
      "swap(bool,int256,uint160)": {
        "notice": "Swap vToken for vQuote, or vQuote for vToken"
      },
      "uniswapV3SwapCallback(int256,int256,bytes)": {
        "notice": "UNISWAP V3 POOL CALLBACkS"
      },
      "updateGlobalFundingState(bool)": {
        "notice": "Update the global funding state, from clearing house"
      }
    },
    "version": 1
  },
  "storageLayout": {
    "storage": [
      {
        "astId": 93,
        "contract": "contracts/protocol/wrapper/VPoolWrapper.sol:VPoolWrapper",
        "label": "_initialized",
        "offset": 0,
        "slot": "0",
        "type": "t_bool"
      },
      {
        "astId": 96,
        "contract": "contracts/protocol/wrapper/VPoolWrapper.sol:VPoolWrapper",
        "label": "_initializing",
        "offset": 1,
        "slot": "0",
        "type": "t_bool"
      },
      {
        "astId": 23571,
        "contract": "contracts/protocol/wrapper/VPoolWrapper.sol:VPoolWrapper",
        "label": "clearingHouse",
        "offset": 2,
        "slot": "0",
        "type": "t_contract(IClearingHouse)8911"
      },
      {
        "astId": 23574,
        "contract": "contracts/protocol/wrapper/VPoolWrapper.sol:VPoolWrapper",
        "label": "vToken",
        "offset": 0,
        "slot": "1",
        "type": "t_contract(IVToken)9251"
      },
      {
        "astId": 23577,
        "contract": "contracts/protocol/wrapper/VPoolWrapper.sol:VPoolWrapper",
        "label": "vQuote",
        "offset": 0,
        "slot": "2",
        "type": "t_contract(IVQuote)9227"
      },
      {
        "astId": 23580,
        "contract": "contracts/protocol/wrapper/VPoolWrapper.sol:VPoolWrapper",
        "label": "vPool",
        "offset": 0,
        "slot": "3",
        "type": "t_contract(IUniswapV3Pool)6184"
      },
      {
        "astId": 23582,
        "contract": "contracts/protocol/wrapper/VPoolWrapper.sol:VPoolWrapper",
        "label": "liquidityFeePips",
        "offset": 20,
        "slot": "3",
        "type": "t_uint24"
      },
      {
        "astId": 23584,
        "contract": "contracts/protocol/wrapper/VPoolWrapper.sol:VPoolWrapper",
        "label": "protocolFeePips",
        "offset": 23,
        "slot": "3",
        "type": "t_uint24"
      },
      {
        "astId": 23586,
        "contract": "contracts/protocol/wrapper/VPoolWrapper.sol:VPoolWrapper",
        "label": "accruedProtocolFee",
        "offset": 0,
        "slot": "4",
        "type": "t_uint256"
      },
      {
        "astId": 23589,
        "contract": "contracts/protocol/wrapper/VPoolWrapper.sol:VPoolWrapper",
        "label": "fpGlobal",
        "offset": 0,
        "slot": "5",
        "type": "t_struct(Info)12105_storage"
      },
      {
        "astId": 23591,
        "contract": "contracts/protocol/wrapper/VPoolWrapper.sol:VPoolWrapper",
        "label": "sumFeeGlobalX128",
        "offset": 0,
        "slot": "9",
        "type": "t_uint256"
      },
      {
        "astId": 23600,
        "contract": "contracts/protocol/wrapper/VPoolWrapper.sol:VPoolWrapper",
        "label": "fundingRateOverrideX128",
        "offset": 0,
        "slot": "10",
        "type": "t_int256"
      },
      {
        "astId": 23605,
        "contract": "contracts/protocol/wrapper/VPoolWrapper.sol:VPoolWrapper",
        "label": "ticksExtended",
        "offset": 0,
        "slot": "11",
        "type": "t_mapping(t_int24,t_struct(Info)16943_storage)"
      }
    ],
    "types": {
      "t_bool": {
        "encoding": "inplace",
        "label": "bool",
        "numberOfBytes": "1"
      },
      "t_contract(IClearingHouse)8911": {
        "encoding": "inplace",
        "label": "contract IClearingHouse",
        "numberOfBytes": "20"
      },
      "t_contract(IUniswapV3Pool)6184": {
        "encoding": "inplace",
        "label": "contract IUniswapV3Pool",
        "numberOfBytes": "20"
      },
      "t_contract(IVQuote)9227": {
        "encoding": "inplace",
        "label": "contract IVQuote",
        "numberOfBytes": "20"
      },
      "t_contract(IVToken)9251": {
        "encoding": "inplace",
        "label": "contract IVToken",
        "numberOfBytes": "20"
      },
      "t_int24": {
        "encoding": "inplace",
        "label": "int24",
        "numberOfBytes": "3"
      },
      "t_int256": {
        "encoding": "inplace",
        "label": "int256",
        "numberOfBytes": "32"
      },
      "t_mapping(t_int24,t_struct(Info)16943_storage)": {
        "encoding": "mapping",
        "key": "t_int24",
        "label": "mapping(int24 => struct TickExtended.Info)",
        "numberOfBytes": "32",
        "value": "t_struct(Info)16943_storage"
      },
      "t_struct(Info)12105_storage": {
        "encoding": "inplace",
        "label": "struct FundingPayment.Info",
        "members": [
          {
            "astId": 12098,
            "contract": "contracts/protocol/wrapper/VPoolWrapper.sol:VPoolWrapper",
            "label": "sumAX128",
            "offset": 0,
            "slot": "0",
            "type": "t_int256"
          },
          {
            "astId": 12100,
            "contract": "contracts/protocol/wrapper/VPoolWrapper.sol:VPoolWrapper",
            "label": "sumBX128",
            "offset": 0,
            "slot": "1",
            "type": "t_int256"
          },
          {
            "astId": 12102,
            "contract": "contracts/protocol/wrapper/VPoolWrapper.sol:VPoolWrapper",
            "label": "sumFpX128",
            "offset": 0,
            "slot": "2",
            "type": "t_int256"
          },
          {
            "astId": 12104,
            "contract": "contracts/protocol/wrapper/VPoolWrapper.sol:VPoolWrapper",
            "label": "timestampLast",
            "offset": 0,
            "slot": "3",
            "type": "t_uint48"
          }
        ],
        "numberOfBytes": "128"
      },
      "t_struct(Info)16943_storage": {
        "encoding": "inplace",
        "label": "struct TickExtended.Info",
        "members": [
          {
            "astId": 16936,
            "contract": "contracts/protocol/wrapper/VPoolWrapper.sol:VPoolWrapper",
            "label": "sumALastX128",
            "offset": 0,
            "slot": "0",
            "type": "t_int256"
          },
          {
            "astId": 16938,
            "contract": "contracts/protocol/wrapper/VPoolWrapper.sol:VPoolWrapper",
            "label": "sumBOutsideX128",
            "offset": 0,
            "slot": "1",
            "type": "t_int256"
          },
          {
            "astId": 16940,
            "contract": "contracts/protocol/wrapper/VPoolWrapper.sol:VPoolWrapper",
            "label": "sumFpOutsideX128",
            "offset": 0,
            "slot": "2",
            "type": "t_int256"
          },
          {
            "astId": 16942,
            "contract": "contracts/protocol/wrapper/VPoolWrapper.sol:VPoolWrapper",
            "label": "sumFeeOutsideX128",
            "offset": 0,
            "slot": "3",
            "type": "t_uint256"
          }
        ],
        "numberOfBytes": "128"
      },
      "t_uint24": {
        "encoding": "inplace",
        "label": "uint24",
        "numberOfBytes": "3"
      },
      "t_uint256": {
        "encoding": "inplace",
        "label": "uint256",
        "numberOfBytes": "32"
      },
      "t_uint48": {
        "encoding": "inplace",
        "label": "uint48",
        "numberOfBytes": "6"
      }
    }
  }
}