{
  "address": "0x80Fe2ca9c7D5e77934CdAaF6f2eAe002991cb679",
  "abi": [
    {
      "inputs": [
        {
          "internalType": "uint256",
          "name": "errorCode",
          "type": "uint256"
        }
      ],
      "name": "InvalidSetting",
      "type": "error"
    },
    {
      "inputs": [
        {
          "internalType": "uint160",
          "name": "sqrtPriceLimitX96",
          "type": "uint160"
        }
      ],
      "name": "InvalidSqrtPriceLimit",
      "type": "error"
    },
    {
      "inputs": [
        {
          "internalType": "int24",
          "name": "tickLower",
          "type": "int24"
        },
        {
          "internalType": "int24",
          "name": "tickUpper",
          "type": "int24"
        }
      ],
      "name": "InvalidTicks",
      "type": "error"
    },
    {
      "inputs": [],
      "name": "NotClearingHouse",
      "type": "error"
    },
    {
      "inputs": [],
      "name": "NotGovernance",
      "type": "error"
    },
    {
      "inputs": [],
      "name": "NotGovernanceOrTeamMultisig",
      "type": "error"
    },
    {
      "inputs": [],
      "name": "NotUniswapV3Pool",
      "type": "error"
    },
    {
      "inputs": [],
      "name": "R",
      "type": "error"
    },
    {
      "inputs": [
        {
          "internalType": "uint128",
          "name": "value",
          "type": "uint128"
        }
      ],
      "name": "SafeCast_Int128Overflow",
      "type": "error"
    },
    {
      "inputs": [
        {
          "internalType": "uint256",
          "name": "value",
          "type": "uint256"
        }
      ],
      "name": "SafeCast_Int256Overflow",
      "type": "error"
    },
    {
      "inputs": [],
      "name": "T",
      "type": "error"
    },
    {
      "inputs": [],
      "name": "ZeroAmount",
      "type": "error"
    },
    {
      "anonymous": false,
      "inputs": [
        {
          "indexed": false,
          "internalType": "uint256",
          "name": "amount",
          "type": "uint256"
        }
      ],
      "name": "AccruedProtocolFeeCollected",
      "type": "event"
    },
    {
      "anonymous": false,
      "inputs": [
        {
          "indexed": false,
          "internalType": "int24",
          "name": "tickLower",
          "type": "int24"
        },
        {
          "indexed": false,
          "internalType": "int24",
          "name": "tickUpper",
          "type": "int24"
        },
        {
          "indexed": false,
          "internalType": "uint128",
          "name": "liquidity",
          "type": "uint128"
        },
        {
          "indexed": false,
          "internalType": "uint256",
          "name": "vTokenPrincipal",
          "type": "uint256"
        },
        {
          "indexed": false,
          "internalType": "uint256",
          "name": "vQuotePrincipal",
          "type": "uint256"
        }
      ],
      "name": "Burn",
      "type": "event"
    },
    {
      "anonymous": false,
      "inputs": [
        {
          "indexed": false,
          "internalType": "int256",
          "name": "fundingRateOverrideX128",
          "type": "int256"
        }
      ],
      "name": "FundingRateOverrideUpdated",
      "type": "event"
    },
    {
      "anonymous": false,
      "inputs": [
        {
          "indexed": false,
          "internalType": "uint24",
          "name": "liquidityFeePips",
          "type": "uint24"
        }
      ],
      "name": "LiquidityFeeUpdated",
      "type": "event"
    },
    {
      "anonymous": false,
      "inputs": [
        {
          "indexed": false,
          "internalType": "int24",
          "name": "tickLower",
          "type": "int24"
        },
        {
          "indexed": false,
          "internalType": "int24",
          "name": "tickUpper",
          "type": "int24"
        },
        {
          "indexed": false,
          "internalType": "uint128",
          "name": "liquidity",
          "type": "uint128"
        },
        {
          "indexed": false,
          "internalType": "uint256",
          "name": "vTokenPrincipal",
          "type": "uint256"
        },
        {
          "indexed": false,
          "internalType": "uint256",
          "name": "vQuotePrincipal",
          "type": "uint256"
        }
      ],
      "name": "Mint",
      "type": "event"
    },
    {
      "anonymous": false,
      "inputs": [
        {
          "indexed": false,
          "internalType": "uint24",
          "name": "protocolFeePips",
          "type": "uint24"
        }
      ],
      "name": "ProtocolFeeUpdated",
      "type": "event"
    },
    {
      "anonymous": false,
      "inputs": [
        {
          "components": [
            {
              "internalType": "int256",
              "name": "amountSpecified",
              "type": "int256"
            },
            {
              "internalType": "int256",
              "name": "vTokenIn",
              "type": "int256"
            },
            {
              "internalType": "int256",
              "name": "vQuoteIn",
              "type": "int256"
            },
            {
              "internalType": "uint256",
              "name": "liquidityFees",
              "type": "uint256"
            },
            {
              "internalType": "uint256",
              "name": "protocolFees",
              "type": "uint256"
            },
            {
              "internalType": "uint160",
              "name": "sqrtPriceX96Start",
              "type": "uint160"
            },
            {
              "internalType": "uint160",
              "name": "sqrtPriceX96End",
              "type": "uint160"
            }
          ],
          "indexed": false,
          "internalType": "struct IVPoolWrapper.SwapResult",
          "name": "swapResult",
          "type": "tuple"
        }
      ],
      "name": "Swap",
      "type": "event"
    },
    {
      "inputs": [],
      "name": "accruedProtocolFee",
      "outputs": [
        {
          "internalType": "uint256",
          "name": "",
          "type": "uint256"
        }
      ],
      "stateMutability": "view",
      "type": "function"
    },
    {
      "inputs": [
        {
          "internalType": "int24",
          "name": "tickLower",
          "type": "int24"
        },
        {
          "internalType": "int24",
          "name": "tickUpper",
          "type": "int24"
        },
        {
          "internalType": "uint128",
          "name": "liquidity",
          "type": "uint128"
        }
      ],
      "name": "burn",
      "outputs": [
        {
          "internalType": "uint256",
          "name": "vTokenPrincipal",
          "type": "uint256"
        },
        {
          "internalType": "uint256",
          "name": "vQuotePrincipal",
          "type": "uint256"
        },
        {
          "components": [
            {
              "internalType": "int256",
              "name": "sumAX128",
              "type": "int256"
            },
            {
              "internalType": "int256",
              "name": "sumBInsideX128",
              "type": "int256"
            },
            {
              "internalType": "int256",
              "name": "sumFpInsideX128",
              "type": "int256"
            },
            {
              "internalType": "uint256",
              "name": "sumFeeInsideX128",
              "type": "uint256"
            }
          ],
          "internalType": "struct IVPoolWrapper.WrapperValuesInside",
          "name": "wrapperValuesInside",
          "type": "tuple"
        }
      ],
      "stateMutability": "nonpayable",
      "type": "function"
    },
    {
      "inputs": [],
      "name": "clearingHouse",
      "outputs": [
        {
          "internalType": "contract IClearingHouse",
          "name": "",
          "type": "address"
        }
      ],
      "stateMutability": "view",
      "type": "function"
    },
    {
      "inputs": [],
      "name": "collectAccruedProtocolFee",
      "outputs": [
        {
          "internalType": "uint256",
          "name": "accruedProtocolFeeLast",
          "type": "uint256"
        }
      ],
      "stateMutability": "nonpayable",
      "type": "function"
    },
    {
      "inputs": [
        {
          "internalType": "bytes32",
          "name": "slot",
          "type": "bytes32"
        }
      ],
      "name": "extsload",
      "outputs": [
        {
          "internalType": "bytes32",
          "name": "val",
          "type": "bytes32"
        }
      ],
      "stateMutability": "view",
      "type": "function"
    },
    {
      "inputs": [
        {
          "internalType": "bytes32[]",
          "name": "slots",
          "type": "bytes32[]"
        }
      ],
      "name": "extsload",
      "outputs": [
        {
          "internalType": "bytes32[]",
          "name": "",
          "type": "bytes32[]"
        }
      ],
      "stateMutability": "view",
      "type": "function"
    },
    {
      "inputs": [],
      "name": "fpGlobal",
      "outputs": [
        {
          "internalType": "int256",
          "name": "sumAX128",
          "type": "int256"
        },
        {
          "internalType": "int256",
          "name": "sumBX128",
          "type": "int256"
        },
        {
          "internalType": "int256",
          "name": "sumFpX128",
          "type": "int256"
        },
        {
          "internalType": "uint48",
          "name": "timestampLast",
          "type": "uint48"
        }
      ],
      "stateMutability": "view",
      "type": "function"
    },
    {
      "inputs": [],
      "name": "fundingRateOverrideX128",
      "outputs": [
        {
          "internalType": "int256",
          "name": "",
          "type": "int256"
        }
      ],
      "stateMutability": "view",
      "type": "function"
    },
    {
      "inputs": [],
      "name": "getExtrapolatedSumAX128",
      "outputs": [
        {
          "internalType": "int256",
          "name": "",
          "type": "int256"
        }
      ],
      "stateMutability": "view",
      "type": "function"
    },
    {
      "inputs": [
        {
          "internalType": "int24",
          "name": "tickLower",
          "type": "int24"
        },
        {
          "internalType": "int24",
          "name": "tickUpper",
          "type": "int24"
        }
      ],
      "name": "getExtrapolatedValuesInside",
      "outputs": [
        {
          "components": [
            {
              "internalType": "int256",
              "name": "sumAX128",
              "type": "int256"
            },
            {
              "internalType": "int256",
              "name": "sumBInsideX128",
              "type": "int256"
            },
            {
              "internalType": "int256",
              "name": "sumFpInsideX128",
              "type": "int256"
            },
            {
              "internalType": "uint256",
              "name": "sumFeeInsideX128",
              "type": "uint256"
            }
          ],
          "internalType": "struct IVPoolWrapper.WrapperValuesInside",
          "name": "wrapperValuesInside",
          "type": "tuple"
        }
      ],
      "stateMutability": "view",
      "type": "function"
    },
    {
      "inputs": [],
      "name": "getFundingRateAndVirtualPrice",
      "outputs": [
        {
          "internalType": "int256",
          "name": "fundingRateX128",
          "type": "int256"
        },
        {
          "internalType": "uint256",
          "name": "virtualPriceX128",
          "type": "uint256"
        }
      ],
      "stateMutability": "view",
      "type": "function"
    },
    {
      "inputs": [],
      "name": "getSumAX128",
      "outputs": [
        {
          "internalType": "int256",
          "name": "",
          "type": "int256"
        }
      ],
      "stateMutability": "view",
      "type": "function"
    },
    {
      "inputs": [
        {
          "internalType": "int24",
          "name": "tickLower",
          "type": "int24"
        },
        {
          "internalType": "int24",
          "name": "tickUpper",
          "type": "int24"
        }
      ],
      "name": "getValuesInside",
      "outputs": [
        {
          "components": [
            {
              "internalType": "int256",
              "name": "sumAX128",
              "type": "int256"
            },
            {
              "internalType": "int256",
              "name": "sumBInsideX128",
              "type": "int256"
            },
            {
              "internalType": "int256",
              "name": "sumFpInsideX128",
              "type": "int256"
            },
            {
              "internalType": "uint256",
              "name": "sumFeeInsideX128",
              "type": "uint256"
            }
          ],
          "internalType": "struct IVPoolWrapper.WrapperValuesInside",
          "name": "wrapperValuesInside",
          "type": "tuple"
        }
      ],
      "stateMutability": "view",
      "type": "function"
    },
    {
      "inputs": [
        {
          "components": [
            {
              "internalType": "address",
              "name": "clearingHouse",
              "type": "address"
            },
            {
              "internalType": "contract IVToken",
              "name": "vToken",
              "type": "address"
            },
            {
              "internalType": "contract IVQuote",
              "name": "vQuote",
              "type": "address"
            },
            {
              "internalType": "contract IUniswapV3Pool",
              "name": "vPool",
              "type": "address"
            },
            {
              "internalType": "uint24",
              "name": "liquidityFeePips",
              "type": "uint24"
            },
            {
              "internalType": "uint24",
              "name": "protocolFeePips",
              "type": "uint24"
            }
          ],
          "internalType": "struct IVPoolWrapper.InitializeVPoolWrapperParams",
          "name": "params",
          "type": "tuple"
        }
      ],
      "name": "initialize",
      "outputs": [],
      "stateMutability": "nonpayable",
      "type": "function"
    },
    {
      "inputs": [],
      "name": "liquidityFeePips",
      "outputs": [
        {
          "internalType": "uint24",
          "name": "",
          "type": "uint24"
        }
      ],
      "stateMutability": "view",
      "type": "function"
    },
    {
      "inputs": [
        {
          "internalType": "int24",
          "name": "tickLower",
          "type": "int24"
        },
        {
          "internalType": "int24",
          "name": "tickUpper",
          "type": "int24"
        },
        {
          "internalType": "uint128",
          "name": "liquidity",
          "type": "uint128"
        }
      ],
      "name": "mint",
      "outputs": [
        {
          "internalType": "uint256",
          "name": "vTokenPrincipal",
          "type": "uint256"
        },
        {
          "internalType": "uint256",
          "name": "vQuotePrincipal",
          "type": "uint256"
        },
        {
          "components": [
            {
              "internalType": "int256",
              "name": "sumAX128",
              "type": "int256"
            },
            {
              "internalType": "int256",
              "name": "sumBInsideX128",
              "type": "int256"
            },
            {
              "internalType": "int256",
              "name": "sumFpInsideX128",
              "type": "int256"
            },
            {
              "internalType": "uint256",
              "name": "sumFeeInsideX128",
              "type": "uint256"
            }
          ],
          "internalType": "struct IVPoolWrapper.WrapperValuesInside",
          "name": "wrapperValuesInside",
          "type": "tuple"
        }
      ],
      "stateMutability": "nonpayable",
      "type": "function"
    },
    {
      "inputs": [],
      "name": "protocolFeePips",
      "outputs": [
        {
          "internalType": "uint24",
          "name": "",
          "type": "uint24"
        }
      ],
      "stateMutability": "view",
      "type": "function"
    },
    {
      "inputs": [
        {
          "internalType": "int256",
          "name": "fundingRateOverrideX128_",
          "type": "int256"
        }
      ],
      "name": "setFundingRateOverride",
      "outputs": [],
      "stateMutability": "nonpayable",
      "type": "function"
    },
    {
      "inputs": [
        {
          "internalType": "uint24",
          "name": "liquidityFeePips_",
          "type": "uint24"
        }
      ],
      "name": "setLiquidityFee",
      "outputs": [],
      "stateMutability": "nonpayable",
      "type": "function"
    },
    {
      "inputs": [
        {
          "internalType": "uint24",
          "name": "protocolFeePips_",
          "type": "uint24"
        }
      ],
      "name": "setProtocolFee",
      "outputs": [],
      "stateMutability": "nonpayable",
      "type": "function"
    },
    {
      "inputs": [],
      "name": "sumFeeGlobalX128",
      "outputs": [
        {
          "internalType": "uint256",
          "name": "",
          "type": "uint256"
        }
      ],
      "stateMutability": "view",
      "type": "function"
    },
    {
      "inputs": [
        {
          "internalType": "bool",
          "name": "swapVTokenForVQuote",
          "type": "bool"
        },
        {
          "internalType": "int256",
          "name": "amountSpecified",
          "type": "int256"
        },
        {
          "internalType": "uint160",
          "name": "sqrtPriceLimitX96",
          "type": "uint160"
        }
      ],
      "name": "swap",
      "outputs": [
        {
          "components": [
            {
              "internalType": "int256",
              "name": "amountSpecified",
              "type": "int256"
            },
            {
              "internalType": "int256",
              "name": "vTokenIn",
              "type": "int256"
            },
            {
              "internalType": "int256",
              "name": "vQuoteIn",
              "type": "int256"
            },
            {
              "internalType": "uint256",
              "name": "liquidityFees",
              "type": "uint256"
            },
            {
              "internalType": "uint256",
              "name": "protocolFees",
              "type": "uint256"
            },
            {
              "internalType": "uint160",
              "name": "sqrtPriceX96Start",
              "type": "uint160"
            },
            {
              "internalType": "uint160",
              "name": "sqrtPriceX96End",
              "type": "uint160"
            }
          ],
          "internalType": "struct IVPoolWrapper.SwapResult",
          "name": "swapResult",
          "type": "tuple"
        }
      ],
      "stateMutability": "nonpayable",
      "type": "function"
    },
    {
      "inputs": [
        {
          "internalType": "int24",
          "name": "",
          "type": "int24"
        }
      ],
      "name": "ticksExtended",
      "outputs": [
        {
          "internalType": "int256",
          "name": "sumALastX128",
          "type": "int256"
        },
        {
          "internalType": "int256",
          "name": "sumBOutsideX128",
          "type": "int256"
        },
        {
          "internalType": "int256",
          "name": "sumFpOutsideX128",
          "type": "int256"
        },
        {
          "internalType": "uint256",
          "name": "sumFeeOutsideX128",
          "type": "uint256"
        }
      ],
      "stateMutability": "view",
      "type": "function"
    },
    {
      "inputs": [
        {
          "internalType": "uint256",
          "name": "vTokenAmount",
          "type": "uint256"
        },
        {
          "internalType": "uint256",
          "name": "vQuoteAmount",
          "type": "uint256"
        },
        {
          "internalType": "bytes",
          "name": "",
          "type": "bytes"
        }
      ],
      "name": "uniswapV3MintCallback",
      "outputs": [],
      "stateMutability": "nonpayable",
      "type": "function"
    },
    {
      "inputs": [
        {
          "internalType": "int256",
          "name": "amount0Delta",
          "type": "int256"
        },
        {
          "internalType": "int256",
          "name": "amount1Delta",
          "type": "int256"
        },
        {
          "internalType": "bytes",
          "name": "",
          "type": "bytes"
        }
      ],
      "name": "uniswapV3SwapCallback",
      "outputs": [],
      "stateMutability": "nonpayable",
      "type": "function"
    },
    {
      "inputs": [
        {
          "internalType": "bool",
          "name": "useZeroFundingRate",
          "type": "bool"
        }
      ],
      "name": "updateGlobalFundingState",
      "outputs": [],
      "stateMutability": "nonpayable",
      "type": "function"
    },
    {
      "inputs": [],
      "name": "vPool",
      "outputs": [
        {
          "internalType": "contract IUniswapV3Pool",
          "name": "",
          "type": "address"
        }
      ],
      "stateMutability": "view",
      "type": "function"
    },
    {
      "inputs": [],
      "name": "vQuote",
      "outputs": [
        {
          "internalType": "contract IVQuote",
          "name": "",
          "type": "address"
        }
      ],
      "stateMutability": "view",
      "type": "function"
    },
    {
      "inputs": [],
      "name": "vToken",
      "outputs": [
        {
          "internalType": "contract IVToken",
          "name": "",
          "type": "address"
        }
      ],
      "stateMutability": "view",
      "type": "function"
    },
    {
      "anonymous": false,
      "inputs": [
        {
          "components": [
            {
              "internalType": "int256",
              "name": "sumAX128",
              "type": "int256"
            },
            {
              "internalType": "int256",
              "name": "sumBX128",
              "type": "int256"
            },
            {
              "internalType": "int256",
              "name": "sumFpX128",
              "type": "int256"
            },
            {
              "internalType": "uint48",
              "name": "timestampLast",
              "type": "uint48"
            }
          ],
          "indexed": false,
          "internalType": "struct FundingPayment.Info",
          "name": "fundingPayment",
          "type": "tuple"
        },
        {
          "indexed": false,
          "internalType": "int256",
          "name": "fundingRateX128",
          "type": "int256"
        },
        {
          "indexed": false,
          "internalType": "uint256",
          "name": "virtualPriceX128",
          "type": "uint256"
        }
      ],
      "name": "FundingPaymentStateUpdated",
      "type": "event"
    },
    {
      "inputs": [
        {
          "internalType": "uint160",
          "name": "sqrtPriceX96",
          "type": "uint160"
        }
      ],
      "name": "IllegalSqrtPrice",
      "type": "error"
    },
    {
      "inputs": [
        {
          "internalType": "uint256",
          "name": "value",
          "type": "uint256"
        }
      ],
      "name": "SafeCast_UInt224Overflow",
      "type": "error"
    },
    {
      "inputs": [],
      "name": "UV3PH_OracleConsultFailed",
      "type": "error"
    }
  ],
  "transactionHash": "0x12d509b8be3285fa2a3637c99002d5fc6e9a16807baa0bb9bc5b5fde55be3245",
  "args": [],
  "numDeployments": 1,
  "solcInputHash": "a0f251f14be82fcda6f51ae633510bf0",
  "bytecode": "0x60808060405234610017576159eb90816200001d8239f35b600080fdfe60806040526004361015610013575b600080fd5b60003560e01c80630af9680014610257578063195cd92c1461024e5780631dce5fcf146102455780631e2eaeaf1461023c5780632a99a792146102335780633b231e011461022a57806348aaa8c0146102215780634bc36bd614610218578063512403361461020f57806356d15a88146102065780635e622abc146101fd5780636719578c146101f45780636c544335146101eb5780637779815c146101e25780637feedaa1146101d957806386c8e9a7146101d05780638b1e9781146101c75780639bb1a99c146101be5780639f883c12146101b5578063a34123a7146101ac578063a3a1e7e9146101a3578063a3c35e2c1461019a578063acfd792814610191578063c04b98c414610188578063d34879971461017f578063dbd035ff14610176578063fa461e331461016d578063fb7e3e24146101645763fca6fbf21461015c57600080fd5b61000e6117ae565b5061000e611786565b5061000e6114de565b5061000e611439565b5061000e611198565b5061000e61114b565b5061000e61112c565b5061000e6110dd565b5061000e6110b9565b5061000e611010565b5061000e610eab565b5061000e610e83565b5061000e610dca565b5061000e610da3565b5061000e610cb0565b5061000e610c84565b5061000e610c44565b5061000e610c1c565b5061000e610b85565b5061000e610a21565b5061000e6109c3565b5061000e61099b565b5061000e610940565b5061000e610921565b5061000e61080a565b5061000e610796565b5061000e6106a0565b5061000e6102b1565b5061000e61026b565b600091031261000e57565b503461000e57600060031936011261000e5760206001600160a01b0360005460101c16604051908152f35b8015150361000e57565b6001600160a01b0381160361000e57565b503461000e57606060031936011261000e576004356102cf81610296565b604435906024356102df836102a0565b6102e76124e9565b916001600160a01b039360009480865460101c1633036105de578185929482888212159216156105af575b835260035493878162ffffff94858860b81c1687878a60a01c1691610338928589613f02565b88610341612540565b600a60808201529889926101f460a085015261035b614d1f565b60c086015260e0850152895191169361037394612891565b90919751610387906001600160a01b031690565b6001600160a01b031660a088015260409889809201516103ad906001600160a01b031690565b6001600160a01b0390811660c08a0152600354895184517f128acb0800000000000000000000000000000000000000000000000000000000815230600482015288151560248201526044810191909152928216606484015260a06084840152600060a48401529194859260c492849291165af16105639a61046a986104559483156105a2575b8293610571575b50828b8a01528160208a0152149182610567575b50506125b4565b60035492808460b81c169360a01c169161401f565b61048261047d6080840151600454612618565b600455565b61048a6155f9565b7f374e2c00db0195ec47718dc83fbed946c07c24c240e8332e547d9b4ac086fd47815180610507858291909160c060e08201938051835260208101516020840152604081015160408401526060810151606084015260808101516080840152816001600160a01b03918260a08201511660a0860152015116910152565b0390a1519182918291909160c060e08201938051835260208101516020840152604081015160408401526060810151606084015260808101516080840152816001600160a01b03918260a08201511660a0860152015116910152565b0390f35b149050388061044e565b90925061059491508a3d8c1161059b575b61058c818361139d565b81019061259e565b913861043a565b503d610582565b6105aa612339565b610433565b945083156105c4576401000276a45b94610312565b73fffd8963efd1fc6a506488495d951d5263988d256105be565b60046040517f8597d08b000000000000000000000000000000000000000000000000000000008152fd5b8060020b0361000e57565b6fffffffffffffffffffffffffffffffff81160361000e57565b600319606091011261000e5760043561064581610608565b9060243561065281610608565b9060443561065f81610613565b90565b60409061069e939594929560c0820196825260208201520190606080918051845260208101516020850152604081015160408501520151910152565b565b503461000e576106af3661062d565b90916106b9614a2f565b506001600160a01b0360005460101c1633036105de578260020b8160020b9080821291821592610788575b821561077b575b821561076a575b50811561075a575b5061071c57906105639261070d92614a54565b60409391935193849384610662565b6040517f957b5ed5000000000000000000000000000000000000000000000000000000008152600291820b600482015292900b602483015250604490fd5b600a91500760020b1515386106fa565b600a900760020b15159150386106f2565b620d89e8821392506106eb565b620d89e719811292506106e4565b503461000e57602060031936011261000e57602060043554604051908152f35b600319604091011261000e576004356107ce81610608565b9060243561065f81610608565b61069e909291926080810193606080918051845260208101516020850152604081015160408501520151910152565b503461000e576105636108c461081f366107b6565b9190610829614a2f565b92600460e061084f6108436003546001600160a01b031690565b6001600160a01b031690565b604051928380927f3850c7bd0000000000000000000000000000000000000000000000000000000082525afa908115610914575b6000916108df575b5061089461509a565b916108b26108a0614f1b565b80855260055460065460075491615211565b604084015282518652600954936150ce565b606084015260408301526020820152604051918291826107db565b610900915060e03d811161090d575b6108f8818361139d565b81019061263e565b505050505090503861088b565b503d6108ee565b61091c612339565b610883565b503461000e57600060031936011261000e576020600a54604051908152f35b503461000e57602060031936011261000e5760043561095e81610608565b60020b600052600b602052608060406000208054906001810154906003600282015491015491604051938452602084015260408301526060820152f35b503461000e57600060031936011261000e5760206001600160a01b0360025416604051908152f35b503461000e57602060031936011261000e576004356109e181610296565b6001600160a01b0360005460101c1633036105de57610a1a90610a02614d1f565b9115610a1c575060005b65ffffffffffff4216611abe565b005b610a0c565b503461000e5760c060031936011261000e5760005460ff8160081c169081600014610b7c5750303b155b15610af8571580610a92575b610a5f6117ed565b610a6557005b610a1a7fffffffffffffffffffffffffffffffffffffffffffffffffffffffffffff00ff60005416600055565b610ac36101007fffffffffffffffffffffffffffffffffffffffffffffffffffffffffffff00ff6000541617600055565b610af360017fffffffffffffffffffffffffffffffffffffffffffffffffffffffffffffff006000541617600055565b610a57565b60846040517f08c379a000000000000000000000000000000000000000000000000000000000815260206004820152602e60248201527f496e697469616c697a61626c653a20636f6e747261637420697320616c72656160448201527f647920696e697469616c697a65640000000000000000000000000000000000006064820152fd5b60ff1615610a4b565b503461000e57600060031936011261000e576001600160a01b0360005460101c1633036105de57610563600060045480610bf5575b507f889bbef14ccbbb6f97773359c9c09396f67ed97695236771816a304ec5d886116020604051838152a16040519081529081906020820190565b600019915060018110610c0f575b01600160045538610bba565b610c17611992565b610c03565b503461000e57600060031936011261000e5760206001600160a01b0360035416604051908152f35b503461000e57600060031936011261000e57608060055460065460075465ffffffffffff6008541691604051938452602084015260408301526060820152f35b503461000e57600060031936011261000e576020600554604051908152f35b62ffffff81160361000e57565b503461000e57602060031936011261000e57600435610cce81610ca3565b6001600160a01b0360046020610cf18360005460101c166001600160a01b031690565b604051928380927f5aa6e6750000000000000000000000000000000000000000000000000000000082525afa908115610d96575b600091610d68575b50163303610d3e57610a1a90612402565b60046040517fb56f932c000000000000000000000000000000000000000000000000000000008152fd5b610d89915060203d8111610d8f575b610d81818361139d565b810190612324565b38610d2d565b503d610d77565b610d9e612339565b610d25565b503461000e57600060031936011261000e57602062ffffff60035460a01c16604051908152f35b503461000e57602060031936011261000e57600435610de881610ca3565b6001600160a01b0360046020610e0b8360005460101c166001600160a01b031690565b604051928380927f5aa6e6750000000000000000000000000000000000000000000000000000000082525afa908115610e76575b600091610e58575b50163303610d3e57610a1a90612346565b610e70915060203d8111610d8f57610d81818361139d565b38610e47565b610e7e612339565b610e3f565b503461000e57600060031936011261000e5760206001600160a01b0360015416604051908152f35b503461000e5760208060031936011261000e57600054610ed69060101c6001600160a01b0316610843565b90604051907f5aa6e6750000000000000000000000000000000000000000000000000000000082528082600481865afa918215611003575b600092610fe4575b506001600160a01b038092163314159283610f68575b505050610f3e57610a1a6004356124b8565b60046040517f52d335a7000000000000000000000000000000000000000000000000000000008152fd5b8192935090600491604051928380927fdbc0c0850000000000000000000000000000000000000000000000000000000082525afa918215610fd7575b600092610fba575b505016331415388080610f2c565b610fd09250803d10610d8f57610d81818361139d565b3880610fac565b610fdf612339565b610fa4565b81610ffc9293503d8411610d8f57610d81818361139d565b9038610f16565b61100b612339565b610f0e565b503461000e5761101f3661062d565b9091611029614a2f565b506001600160a01b0360005460101c1633036105de578260020b8160020b90808212918215926110ab575b821561109e575b821561108d575b50811561107d575b5061071c57906105639261070d92614c30565b600a91500760020b15153861106a565b600a900760020b1515915038611062565b620d89e88213925061105b565b620d89e71981129250611054565b503461000e57600060031936011261000e5760206110d5614f1b565b604051908152f35b503461000e5760806110ff6110f1366107b6565b906110fa614a2f565b614f45565b61112a6040518092606080918051845260208101516020850152604081015160408501520151910152565bf35b503461000e57600060031936011261000e576020600454604051908152f35b503461000e57600060031936011261000e576020600954604051908152f35b9181601f8401121561000e5782359167ffffffffffffffff831161000e576020838186019501011161000e57565b503461000e57606060031936011261000e5760043560243560443567ffffffffffffffff811161000e576111d090369060040161116a565b50506001600160a01b03600354163303611306578061127c575b50806111f257005b6112076108436001546001600160a01b031690565b803b1561000e576040517f40c10f1900000000000000000000000000000000000000000000000000000000815233600482015260248101929092526000908290604490829084905af1801561126f575b15610a1a5780611269610a1a92611360565b80610260565b611277612339565b611257565b6112916108436002546001600160a01b031690565b803b1561000e576040517f40c10f1900000000000000000000000000000000000000000000000000000000815233600482015260248101929092526000908290604490829084905af180156112f9575b156111ea57806112696112f392611360565b386111ea565b611301612339565b6112e1565b60046040517f21162cac000000000000000000000000000000000000000000000000000000008152fd5b507f4e487b7100000000000000000000000000000000000000000000000000000000600052604160045260246000fd5b67ffffffffffffffff811161137457604052565b61137c611330565b604052565b6080810190811067ffffffffffffffff82111761137457604052565b90601f7fffffffffffffffffffffffffffffffffffffffffffffffffffffffffffffffe0910116810190811067ffffffffffffffff82111761137457604052565b6040519060e0820182811067ffffffffffffffff82111761137457604052565b6020908160408183019282815285518094520193019160005b828110611425575050505090565b835185529381019392810192600101611417565b503461000e5760208060031936011261000e5767ffffffffffffffff60043581811161000e573660238201121561000e5780600401359182116114d1575b8160051b6040519261148b8583018561139d565b83526024848401918301019136831161000e57602401905b8282106114c2576105636114b6856157df565b604051918291826113fe565b813581529084019084016114a3565b6114d9611330565b611477565b503461000e57606060031936011261000e57600480359060243560443567ffffffffffffffff811161000e57611517903690840161116a565b50506001600160a01b039081600354169182330361175d57600094859384821361165f575b505082821361154c575b82604051f35b6115616108436003546001600160a01b031690565b906040517fd21220a70000000000000000000000000000000000000000000000000000000081526020818781865afa908115611652575b8591611634575b501690813b1561163057836115f895604051968795869485937f40c10f190000000000000000000000000000000000000000000000000000000085528401602090939291936001600160a01b0360408201951681520152565b03925af18015611623575b611610575b818180611546565b8061126961161d92611360565b38611608565b61162b612339565b611603565b8380fd5b61164c915060203d8111610d8f57610d81818361139d565b3861159f565b61165a612339565b611598565b826040517f0dfe16810000000000000000000000000000000000000000000000000000000081526020818981865afa908115611750575b8791611732575b501691823b1561172e576116f8928692836040518096819582947f40c10f190000000000000000000000000000000000000000000000000000000084528d8401602090939291936001600160a01b0360408201951681520152565b03925af18015611721575b61170e575b8061153c565b8061126961171b92611360565b38611708565b611729612339565b611703565b8580fd5b61174a915060203d8111610d8f57610d81818361139d565b3861169d565b611758612339565b611696565b836040517f21162cac000000000000000000000000000000000000000000000000000000008152fd5b503461000e57600060031936011261000e5760406117a2614d1f565b82519182526020820152f35b503461000e57600060031936011261000e57602062ffffff60035460b81c16604051908152f35b60843561065f81610ca3565b60a43561065f81610ca3565b6004356117f9816102a0565b7fffffffffffffffffffff0000000000000000000000000000000000000000ffff75ffffffffffffffffffffffffffffffffffffffff00006000549260101b1691161760005560243561184b816102a0565b6001600160a01b03807fffffffffffffffffffffffff000000000000000000000000000000000000000092168260015416176001558060443561188d816102a0565b168260025416176002556064356118a3816102a0565b169060035416176003556119016118b86117d5565b7fffffffffffffffffff000000ffffffffffffffffffffffffffffffffffffffff76ffffff00000000000000000000000000000000000000006003549260a01b16911617600355565b61195861190c6117e1565b7fffffffffffff000000ffffffffffffffffffffffffffffffffffffffffffffff79ffffff00000000000000000000000000000000000000000000006003549260b81b16911617600355565b6119817f7fffffffffffffffffffffffffffffffffffffffffffffffffffffffffffffff600a55565b61069e65ffffffffffff4216611c2d565b507f4e487b7100000000000000000000000000000000000000000000000000000000600052601160045260246000fd5b600081129060001991817f7fffffffffffffffffffffffffffffffffffffffffffffffffffffffffffffff038313811516611a16575b81600160ff1b03831216611a0a570190565b611a12611992565b0190565b611a1e611992565b6119f8565b60008112817f7fffffffffffffffffffffffffffffffffffffffffffffffffffffffffffffff03600013811516611a6f575b81600160ff1b0360001216611a675790565b61065f611992565b611a77611992565b611a55565b60008112817f7fffffffffffffffffffffffffffffffffffffffffffffffffffffffffffffff038313811516611a165781600160ff1b03831216611a0a570190565b907f62187ed3f133848cd15541a988e634a4c2e6a75750e025c69ea914b1ea2263cc929165ffffffffffff196008549165ffffffffffff90611b04868683858816611ed7565b611b3a60065491611b2f611b18848361229b565b6000811280611bf7575b611be9575b600754611a7c565b600755600554611a7c565b6005556000811290807f7fffffffffffffffffffffffffffffffffffffffffffffffffffffffffffffff03600013821516611bdc575b600160ff1b0360001216611bcf575b16911617600855611bca6040519283928360a0909392919360c081019460055482526006546020830152600754604083015265ffffffffffff60085416606083015260808201520152565b0390a1565b611bd7611992565b611b7f565b611be4611992565b611b70565b611bf2906119c2565b611b27565b50611c01836122ce565b700100000000000000000000000000000000611c1c876122ce565b6000920915611b2257506001611b22565b65ffffffffffff1960085465ffffffffffff8093169281168310611d22575b611c89600654611c73611c5e82612259565b6000811280611cf457611be957600754611a7c565b600755611c81600554611a23565b600555611a23565b60065516176008557f62187ed3f133848cd15541a988e634a4c2e6a75750e025c69ea914b1ea2263cc60405180611bca8190600160a060c084019360055481526006546020820152600754604082015265ffffffffffff600854166060820152600060808201520152565b50611cfe836122ce565b700100000000000000000000000000000000600091820915611b2257506001611b22565b611d2a611992565b611c4c565b65ffffffffffff19907f62187ed3f133848cd15541a988e634a4c2e6a75750e025c69ea914b1ea2263cc959493611de4600854948593611dd9611dd4611dce611d838c8c8965ffffffffffff809c16611ed7565b93611dad60065495611b2f611d98888361229b565b6000811280611e4957611be957600754611a7c565b600555600190600080821215611e42579150611dc890611fe1565b956122e3565b94611ff9565b61224a565b9115611e3257611a7c565b60065516911617600855611bca6040519283928360a0909392919360c081019460055482526006546020830152600754604083015265ffffffffffff60085416606083015260808201520152565b90611e3c90611fe1565b90611a7c565b50956122e3565b50611e53836122ce565b700100000000000000000000000000000000611c1c8b6122ce565b60016000198183600160ff1b058212600085131616611eca575b827f7fffffffffffffffffffffffffffffffffffffffffffffffffffffffffffffff0513600083121616611ebd575b60000390565b611ec5611992565b611eb7565b611ed2611992565b611e88565b600083129391929091611efd91611dd491908615611ef857611ef890611e6e565b6121cd565b92611fd1575b65ffffffffffff80809316911690818110611fc4575b031660050b90600082136000821390837f7fffffffffffffffffffffffffffffffffffffffffffffffffffffffffffffff818104851183851616611fb7575b6000821292600160ff1b94848787058512911616611faa575b82600087129505861290851616611f9d575b058312911616611f91570290565b611f99611992565b0290565b611fa5611992565b611f83565b611fb2611992565b611f71565b611fbf611992565b611f58565b611fcc611992565b611f19565b91611fdb90611fe1565b91611f03565b600160ff1b8114611ebd5760000390565b1561000e57565b70010000000000000000000000000000000091600019838309928260801b9283808610950394808603951461208557908291612036868411611ff2565b0981806000031680920460028082600302188083028203028083028203028083028203028083028203028083028203028092029003029360018380600003040190848311900302920304170290565b50509150612094821515611ff2565b0490565b90600019818309818302918280831092039180830392146120f657620f4240908282111561000e577fde8f6cefed634549b62c77574f722e1ac57e23f24d8fd5cb790fb65668c26139940990828211900360fa1b910360061c170290565b5050620f424091500490565b6c0100000000000000000000000091600019838309928260601b9283808610950394808603951461208557908291612036868411611ff2565b6000198282099082810292838084109303928084039314612180576c01000000000000000000000000918383111561000e570990828211900360a01b910360601c1790565b50505060601c90565b6000906000198183099081156121c857700100000000000000000000000000000000908282111561163057830990811515900360801b910360801c1790565b505090565b600019828209908281029283808410930392808403931461221657700100000000000000000000000000000000918383111561000e570990828211900360801b910360801c1790565b50505060801c90565b9091600019838309928083029283808610950394808603951461208557908291612036868411611ff2565b600160ff1b81101561000e5790565b906001600083121561228e575061227c611dd4612277600094611fe1565b612189565b911561228457565b9061065f90611fe1565b91611dd461227c91612189565b611dd46122c161227c929493946001600082126000146122c75750611dc8600091611fe1565b946121cd565b90956122e3565b60008113156122da5790565b61065f90611fe1565b9190600083121561065f576122f9901592611fe1565b9190565b6000199060018110611a0a570190565b818110612318570390565b612320611992565b0390565b9081602091031261000e575161065f816102a0565b506040513d6000823e3d90fd5b62ffffff811690620186a082116123d1577f5e286c9a939d59334080ddf15517957037c2228384e26bb92a368ce44c531edd916123c86020927fffffffffffffffffff000000ffffffffffffffffffffffffffffffffffffffff76ffffff00000000000000000000000000000000000000006003549260a01b16911617600355565b604051908152a1565b60246040517fd4131ba200000000000000000000000000000000000000000000000000000000815260106004820152fd5b62ffffff811690620186a08211612487577f2edf7eef14cb246dab2aac555e300928981632918159d9e33fcaa24dcd38cb40916123c86020927fffffffffffff000000ffffffffffffffffffffffffffffffffffffffffffffff79ffffff00000000000000000000000000000000000000000000006003549260b81b16911617600355565b60246040517fd4131ba200000000000000000000000000000000000000000000000000000000815260206004820152fd5b60207fe71127eab59a3a0c0415330d6b03fb027923dc6710978f16940a31355cbf83e89180600a55604051908152a1565b6040519060e0820182811067ffffffffffffffff821117612533575b6040528160c06000918281528260208201528260408201528260608201528260808201528260a08201520152565b61253b611330565b612505565b60405190610100820182811067ffffffffffffffff821117612591575b6040528160e06000918281528260208201528260408201528260608201528260808201528260a08201528260c08201520152565b612599611330565b61255d565b919082604091031261000e576020825192015190565b156125bb57565b7f4e487b7100000000000000000000000000000000000000000000000000000000600052600160045260246000fd5b6001907ffffffffffffffffffffffffffffffffffffffffffffffffffffffffffffffffe8111611a0a570190565b81198111611a0a570190565b519061ffff8216820361000e57565b519061069e82610296565b908160e091031261000e578051612654816102a0565b91602082015161266381610608565b9161267060408201612624565b9161267d60608301612624565b9161268a60808201612624565b9160a082015160ff8116810361000e5760c09092015161065f81610296565b9081602091031261000e575161065f81610613565b9081602091031261000e575161065f81610ca3565b9081602091031261000e575161065f81610608565b6000821282600160ff1b01821281151661272b575b827f7fffffffffffffffffffffffffffffffffffffffffffffffffffffffffffffff01821316612318570390565b612733611992565b6126fd565b91908261010091031261000e57815161275081610613565b91602081015180600f0b810361000e579160408201519160608101519160808201518060060b810361000e579160a081015161278b816102a0565b9160c082015163ffffffff8116810361000e5760e061065f919301612633565b600f0b7fffffffffffffffffffffffffffffffff800000000000000000000000000000008114611ebd5760000390565b906fffffffffffffffffffffffffffffffff8080931691168092038111611a0a570190565b6fffffffffffffffffffffffffffffffff9182169116818110612318570390565b6000199060020b7fffffffffffffffffffffffffffffffffffffffffffffffffffffffffff8000018112600116611a0a570190565b60020b9060020b906000821282627fffff19018212811516612884575b82627fffff01821316612318570390565b61288c611992565b612873565b919493949290926128a06124e9565b50801561320a576001600160a01b036128c087516001600160a01b031690565b1615613150575b60608601946fffffffffffffffffffffffffffffffff6128f787516fffffffffffffffffffffffffffffffff1690565b16156130ae575b608087015160020b15612f84575b8415612f375761292661084388516001600160a01b031690565b6001600160a01b038416908111908115612f28575b505b612eee576129da61295588516001600160a01b031690565b966129b361298161296a60208c015160020b90565b92516fffffffffffffffffffffffffffffffff1690565b916129a961298d6113de565b878152600060208201526001600160a01b03909b1660408c0152565b60020b60608a0152565b60006080890181905260a08901526fffffffffffffffffffffffffffffffff1660c0880152565b855b8651151580612ed4575b15612e955786612a63612a59612a4f898c612a3f6080612a366060612a096124e9565b99612a2e612a2160408301516001600160a01b031690565b6001600160a01b03168c52565b015160020b90565b92015160020b90565b906001600160a01b038c1661451e565b1515604085015290565b60020b6020830152565b602081015160020b620d89e719811215612e7d5750620d89e71960208201525b612aac612a9c612a97602084015160020b90565b61382e565b6001600160a01b03166060830152565b612b47612b1e612ac660408b01516001600160a01b031690565b8915612e655760608401516001600160a01b038981169116105b15612e4a578b8b895b612b1860a0612b0b60c08501516fffffffffffffffffffffffffffffffff1690565b935194015162ffffff1690565b93613234565b60c0860190815260a08601918252608086019283526001600160a01b0390931660408d01529192565b6000871315612e125790612b6e612b67611dd4612b859451865190612618565b8c516126e8565b8b52612b7f60208c0151915161224a565b906126e8565b60208a01525b612bc0612bab60c08b01516fffffffffffffffffffffffffffffffff1690565b6fffffffffffffffffffffffffffffffff1690565b9081612dee575b5050612bd581898b8a615808565b60408801516001600160a01b031690612bfb61084360608301516001600160a01b031690565b6001600160a01b038316908103612dbc57506040810151612c3c9250612c4d575b8715612c415760200151612c329060020b612821565b60020b6060890152565b6129dc565b6020015160020b612c32565b612d278989612caf612c63602086015160020b90565b604051907ff30dba93000000000000000000000000000000000000000000000000000000008252818d816001600160a01b038161010097889660048301919091602081019260020b9052565b0392165afa918215612daf575b600092612d7a575b50508091612d6a575b50600081600f0b12600014612d2c57612d08612bab612d0260c0612d0e9501516fffffffffffffffffffffffffffffffff1690565b926127ab565b90612800565b6fffffffffffffffffffffffffffffffff1660c08b0152565b612c1c565b612d4c60c0612d659301516fffffffffffffffffffffffffffffffff1690565b906fffffffffffffffffffffffffffffffff16906127db565b612d0e565b612d7491506127ab565b38612ccd565b612d999250803d10612da8575b612d91818361139d565b810190612738565b50505050505090503880612cc4565b503d612d87565b612db7612339565b612cbc565b9051612dd0906001600160a01b0316610843565b03612ddc575b506129dc565b612c32612de891613bd5565b38612dd6565b612e0691612dfc9151611ff9565b60808a0151612618565b60808901523880612bc7565b612e29612e22612e40935161224a565b8c51611a7c565b8b52611e3c611dd460208d01519251855190612618565b60208a0152612b8b565b8b8b612e6060608701516001600160a01b031690565b612ae9565b60608401516001600160a01b03898116911611612ae0565b620d89e81215612a8357620d89e86020820152612a83565b949250955091506000821390151514600014612ec057612eb96020918451906126e8565b9201519192565b60208301519251612ed0916126e8565b9192565b5060408701516001600160a01b03858116911614156129e6565b6040517f51b516ae0000000000000000000000000000000000000000000000000000000081526001600160a01b0384166004820152602490fd5b6401000276a39150103861293b565b612f4b61084388516001600160a01b031690565b6001600160a01b038416908110908115612f66575b5061293d565b73fffd8963efd1fc6a506488495d951d5263988d2691501138612f60565b613030612fe860046001600160a01b038716604051907fddca3f43000000000000000000000000000000000000000000000000000000008252602093828d8682878297875afa9182156130a1575b60009261306f575b5060a0019062ffffff169052565b604051928380927fd0c93a7c0000000000000000000000000000000000000000000000000000000082525afa918215613062575b600092613035575b505060020b6080890152565b61290c565b6130549250803d1061305b575b61304c818361139d565b8101906126d3565b3880613024565b503d613042565b61306a612339565b61301c565b60a091925061309390863d881161309a575b61308b818361139d565b8101906126be565b9190612fda565b503d613081565b6130a9612339565b612fd2565b6131106040517f1a6865020000000000000000000000000000000000000000000000000000000081526020816004816001600160a01b038a165afa908115613143575b600091613115575b506fffffffffffffffffffffffffffffffff168752565b6128fe565b613136915060203d811161313c575b61312e818361139d565b8101906126a9565b386130f9565b503d613124565b61314b612339565b6130f1565b6131c56040517f3850c7bd00000000000000000000000000000000000000000000000000000000815260e0816004816001600160a01b0389165afa80156131fd575b600090819082906131ca575b60ff1660408b01529091506131b8905b60020b60208a0152565b6001600160a01b03168752565b6128c7565b5050506131b86131ea6131ae9260e03d811161090d576108f8818361139d565b509492505050939091905083925061319e565b613205612339565b613192565b60046040517f1f2a2005000000000000000000000000000000000000000000000000000000008152fd5b949190928594600080806001600160a01b03908189169283838c161015978b8389129b898d15988c8a6000146133d55790508492915061327e62ffffff8c620f424003168d612098565b81156133c35783613290818786613728565b955b8683106133b157505050509e8f965b8716968789149c600014613359578c80613352575b15613343575050505b9b8c998061333c575b1561332c5750505b985b80613321575b613316575b508261330b575b5050156132f057500390565b905061065f915062ffffff8082620f42400316911685613456565b1415905038806132e4565b8590039750386132dd565b5085810389116132d8565b61333792508d61378f565b6132d0565b508b6132c8565b61334d9350613728565b6132bf565b50896132b6565b809392918d806133aa575b1561339b575050505b9c8d9a80613394575b15613385575050505b986132d2565b61338f93506136cd565b61337f565b508c613376565b6133a593506137ca565b61336d565b508a613364565b6133bb9450613491565b9e8f966132a1565b836133cf8185886137ca565b95613292565b909385939296508160001461341457836133f081838661378f565b915b919789039188831061340a57505050509e8f966132a1565b6133bb9450613621565b836134208185846136cd565b916133f2565b507f4e487b7100000000000000000000000000000000000000000000000000000000600052601260045260246000fd5b92919061346482828661221f565b938215613484575b0961347357565b9060001981101561000e5760010190565b61348c613426565b61346c565b926001600160a01b039081851691821561000e576fffffffffffffffffffffffffffffffff841691821561000e57600090156134d4575050505061065f92613524565b5061065f95506134f49492935090919081116134f95760601b0490612618565b61360d565b9061350391612102565b90612618565b8015613517575b6000190490565b61351f613426565b613510565b919081156121c8577bffffffffffffffffffffffffffffffff0000000000000000000000009060601b16906001600160a01b038093168082028183820414613594575b50908161357b9215613587575b8304612618565b80820615159104011690565b61358f613426565b613574565b83018381106135675791506135a892613456565b1690565b919081156121c8577bffffffffffffffffffffffffffffffff0000000000000000000000006001600160a01b039160601b16921691828083029283041480613604575b1561000e5761065f926134f492820391613456565b508181116135ef565b906001600160a01b03821691820361000e57565b919290926001600160a01b039384841693841561000e576fffffffffffffffffffffffffffffffff821693841561000e57156136be57506000905084821161367f575060601b908082061515910401905b8181111561000e57031690565b90916c010000000000000000000000006136998285612102565b93096136a7575b5090613672565b6000198210156136bb5750600101386136a0565b80fd5b919350915061065f93506135ac565b91906001600160a01b039182821683851611613720575b82841693841561000e57837bffffffffffffffffffffffffffffffff000000000000000000000000916120949585169403169160601b1661221f565b9290926136e4565b91906001600160a01b039182821683851611613787575b82841693841561000e57837bffffffffffffffffffffffffffffffff0000000000000000000000009161377b9585169403169160601b16613456565b90808206151591040190565b92909261373f565b61065f92916fffffffffffffffffffffffffffffffff916001600160a01b0391828116838316116137c4575b0316911661213b565b906137bb565b6c01000000000000000000000000916fffffffffffffffffffffffffffffffff916001600160a01b039182811683831611613828575b031692169161380f818461213b565b92096138185790565b60001981101561000e5760010190565b90613800565b60020b6000811215613bcf57806000035b620d89e88111613ba5576001600160a01b03916001821615613b7c5770ffffffffffffffffffffffffffffffffff6ffffcb933bd6fad37aa2d162d1a5940015b169160028116613b60575b60048116613b44575b60088116613b28575b60108116613b0c575b60208116613af0575b60408116613ad4575b608090818116613ab9575b6101008116613a9e575b6102008116613a83575b6104008116613a68575b6108008116613a4d575b6110008116613a32575b6120008116613a17575b61400081166139fc575b61800081166139e1575b6201000081166139c6575b6202000081166139ac575b620400008116613992575b6208000016613977575b50600012613969575b63ffffffff81166139605760ff60005b169060201c011690565b60ff6001613956565b61397290613509565b613946565b6b048a170391f7dc42444e8fa26000929302901c919061393d565b6d2216e584f5fa1ea926041bedfe98909302811c92613933565b926e5d6af8dedb81196699c329225ee60402811c92613928565b926f09aa508b5b7a84e1c677de54f3e99bc902811c9261391d565b926f31be135f97d08fd981231505542fcfa602811c92613912565b926f70d869a156d2a1b890bb3df62baf32f702811c92613908565b926fa9f746462d870fdf8a65dc1f90e061e502811c926138fe565b926fd097f3bdfd2022b8845ad8f792aa582502811c926138f4565b926fe7159475a2c29b7443b29c7fa6e889d902811c926138ea565b926ff3392b0822b70005940c7a398e4b70f302811c926138e0565b926ff987a7253ac413176f2b074cf7815e5402811c926138d6565b926ffcbe86c7900a88aedcffc83b479aa3a402811c926138cc565b926ffe5dee046a99a2a811c461f1969c305302811c926138c2565b916fff2ea16466c96a3843ec78b326b528610260801c916138b7565b916fff973b41fa98c081472e6896dfb254c00260801c916138ae565b916fffcb9843d60f6159c9db58835c9266440260801c916138a5565b916fffe5caca7e10e4e61c3624eaa0941cd00260801c9161389c565b916ffff2e50f5f656932ef12357cf3c7fdcc0260801c91613893565b916ffff97272373d413259a46990580e213a0260801c9161388a565b70ffffffffffffffffffffffffffffffffff70010000000000000000000000000000000061387f565b60046040517f2bc80f3a000000000000000000000000000000000000000000000000000000008152fd5b8061383f565b6001600160a01b038116906401000276a382101580613ee5575b15613ebb5777ffffffffffffffffffffffffffffffffffffffff000000009060201b16806fffffffffffffffffffffffffffffffff811160071b9181831c9267ffffffffffffffff841160061b93841c9363ffffffff851160051b94851c9461ffff861160041b95861c60ff9687821160031b91821c92600f841160021b93841c94600160038711811b96871c119617171717171717916080831015600014613eaf57507fffffffffffffffffffffffffffffffffffffffffffffffffffffffffffffff8182011c5b8002607f928392828493841c81841c1c800280851c81851c1c800280861c81861c1c800280871c81871c1c80029081881c82881c1c80029283891c84891c1c800294858a1c868a1c1c800296878b1c888b1c1c800298898c1c8a8c1c1c80029a8b8d1c8c821c1c8002809d1c8d821c1c8002809e81901c90821c1c80029e8f80911c911c1c800260cd1c6604000000000000169d60cc1c6608000000000000169c60cb1c6610000000000000169b60ca1c6620000000000000169a60c91c6640000000000000169960c81c6680000000000000169860c71c670100000000000000169760c61c670200000000000000169660c51c670400000000000000169560c41c670800000000000000169460c31c671000000000000000169360c21c672000000000000000169260c11c674000000000000000169160c01c67800000000000000016907fffffffffffffffffffffffffffffffffffffffffffffffffffffffffffffff800160401b1717171717171717171717171717693627a301d71055774c85027ffffffffffffffffffffffffffffffffffd709b7e5480fba5a50fed5e62ffc556810160801d60020b906fdb2df09e81959a81455e260799a0632f0160801d60020b91600090838314600014613e93575050905090565b613e9f6108438561382e565b119050613eaa575090565b905090565b905081607f031b613cb8565b60046040517f4980e1be000000000000000000000000000000000000000000000000000000008152fd5b5073fffd8963efd1fc6a506488495d951d5263988d268210613bef565b15613f565715613f1c575050613f188151614102565b9052565b613f48613f31613f1893613f4e9386516142b4565b806080879493940152826060870152855192612618565b9061438b565b808352614102565b613f5f57505050565b613ff2613fd3613fbe613fc5613f1895613f81613f7c89516122ce565b614271565b613fcb62ffffff918280613f948b6140ee565b1681861690818110614012575b0316908115614005575b0492613fc583620f42409788938c61429c565b1685614289565b046125ea565b961690614289565b8281809410613ff8575b03806080860152826060860152845192612618565b9061436d565b614000611992565b613fdd565b61400d613426565b613fab565b61401a611992565b613fa1565b919392911561409557156140695790613f486060614056613f18946020850161404881516141ec565b90526040850196875161433d565b9184836080849701520152845192612618565b509050613f186040820191613ff261408184516141ec565b918285526080606082015191015190612618565b6140bd5790613ff26060614056613f189460408501966140b588516141ec565b80895261433d565b509050602081016140ce81516141ec565b9052613f186040820191613f488351916080606082015191015190612618565b62ffffff16620f4240818110612318570390565b61065f9060017e4189374bc6a7ef9db22d0e5604189374bc6a7ef9db22d0e5604189374bc6a782116000831316166141df575b60017fffbe76c8b4395810624dd2f1a9fbe76c8b4395810624dd2f1a9fbe76c8b4395982126000831216166141d2575b6001620f404c6101f483020560008112817f7fffffffffffffffffffffffffffffffffffffffffffffffffffffffffffffff0383138115166141c5575b81600160ff1b038312166141b8575b0190611a7c565b6141c0611992565b6141b1565b6141cd611992565b6141a2565b6141da611992565b614165565b6141e7611992565b614135565b620f404c620f42409160017d08648ed44d2db5ee0837f89d8553b31787ac4f44c07f66701aab8bdfa3408211600083131616614264575b60017ffffff79b712bb2d24a11f7c807627aac4ce87853b0bb3f80998fe55474205cc0821260008312161661425757020590565b61425f611992565b020590565b61426c611992565b614223565b620f4240908060001904821181151516611f91570290565b8060001904821181151516611f91570290565b9062ffffff8080931691168092038111611a0a570190565b91613fc56142c9613f7c6143169496956122ce565b61431062ffffff91613fc583891693614309620f42409788948784038611614330575b836142f9838a890161429c565b16908115614323575b049b61429c565b1689614289565b95614289565b8281809410612318570390565b61432b613426565b614302565b614338611992565b6142ec565b613fc5614316929493613fbe613fcb614358613fc5956122ce565b92620f424095869162ffffff9485918c61429c565b90600082136001036143825761065f91611a7c565b61065f916126e8565b90600082136143825761065f91611a7c565b60020b9060020b9081156143cd575b6000198214627fffff198214166143c1570590565b6143c9611992565b0590565b6143d5613426565b6143ac565b9060020b9081156143ed575b60020b0790565b6143f5613426565b6143e6565b6000199060020b627fffff198114611a0a570190565b60019060020b6000811281627fffff03831381151661443c575b81627fffff1903831216611a0a570190565b614444611992565b61442a565b60020b9060020b906000811281627fffff03831381151661443c5781627fffff1903831216611a0a570190565b9081602091031261000e575190565b60ff168060ff10614497575b60ff0390565b61449f611992565b614491565b60ff9182169116818110612318570390565b60020b9060020b9060008213600082139083627fffff818104851183851616614511575b6000821292627fffff1994848787058512911616611faa5782600087129505861290851616611f9d57058312911616611f91570290565b614519611992565b6144da565b9291909161452c828461439d565b928260008260020b129182614793575b5050614783575b15614671576145628260020b9060ff6101008360081d60010b93071690565b90936145c2602060ff8416966145836001891b61457e816122fd565b612618565b9360405180809581947f5339c29600000000000000000000000000000000000000000000000000000000835260048301919091602081019260010b9052565b03915afa908115614664575b600091614636575b501680158015959061462257509261461461460961460361461a946145fd61461f986147b1565b906144a4565b60ff1690565b62ffffff1660020b90565b90612856565b6144b6565b91565b61461a925061461f94915060020b90612856565b614657915060203d811161465d575b61464f818361139d565b810190614476565b386145d6565b503d614645565b61466c612339565b6145ce565b6020926146ea61469961468385614410565b60020b9060ff6101008360081d60010b93071690565b95906146aa600160ff89161b6122fd565b199360405180809581947f5339c29600000000000000000000000000000000000000000000000000000000835260048301919091602081019260010b9052565b03915afa908115614776575b600091614758575b5016801580159490614738579061473261460961460361461a9461472d61472761461f99614410565b9561489f565b6144a4565b90614449565b61461a915061473261460961460361475261461f97614410565b93614485565b614770915060203d811161465d5761464f818361139d565b386146fe565b61477e612339565b6146f6565b9161478d906143fa565b91614543565b6147a89250906147a2916143da565b60020b90565b1515823861453c565b906000916147c0811515611ff2565b700100000000000000000000000000000000811015614894575b80680100000000000000006002921015614885575b640100000000811015614876575b62010000811015614867575b610100811015614858575b6010811015614849575b600481101561483b575b101561483057565b90600160ff91011690565b92810160ff1692811c614828565b600493840160ff16931c61481e565b600893840160ff16931c614814565b601093840160ff16931c614809565b602093840160ff16931c6147fd565b604093840160ff16931c6147ef565b60809250821c6147da565b906148ab821515611ff2565b60ff6fffffffffffffffffffffffffffffffff831615614a255750607f5b67ffffffffffffffff831615614a1b577fffffffffffffffffffffffffffffffffffffffffffffffffffffffffffffffc00160ff165b63ffffffff831615614a11577fffffffffffffffffffffffffffffffffffffffffffffffffffffffffffffffe00160ff165b61ffff831615614a07577ffffffffffffffffffffffffffffffffffffffffffffffffffffffffffffffff00160ff165b60ff8316156149fd577ffffffffffffffffffffffffffffffffffffffffffffffffffffffffffffffff80160ff165b600f8316156149f3576003190160ff165b60038316156149e75760ff7ffffffffffffffffffffffffffffffffffffffffffffffffffffffffffffffffe6001920116925b166149db57565b9060001960ff91011690565b9160019060021c6149d4565b9160041c916149a1565b9160081c91614990565b9160101c91614961565b9160201c91614931565b9160401c916148ff565b9160801c916148c9565b60405190614a3c82611381565b60006060838281528260208201528260408201520152565b90604090939293614a75614a66614d1f565b9065ffffffffffff4216611abe565b60c4614a8086614b53565b936000614aa46001600160a01b0396614a9c8860035416614bb4565b908685615398565b95600354166fffffffffffffffffffffffffffffffff8651998a9687957f3c8a7d8d00000000000000000000000000000000000000000000000000000000875230600488015260020b602487015260020b604486015216606484015260a060848401528160a48401525af1928315614b46575b6000908194614b2557509291565b9050614b4091935060403d811161059b5761058c818361139d565b92909291565b614b4e612339565b614b17565b6fffffffffffffffffffffffffffffffff166f80000000000000000000000000000000811015614b8357600f0b90565b602490604051907f832da39d0000000000000000000000000000000000000000000000000000000082526004820152fd5b60e06001600160a01b03916004604051809481937f3850c7bd000000000000000000000000000000000000000000000000000000008352165afa908115614c23575b600091614c01575090565b614c19915060e03d811161090d576108f8818361139d565b5050505050905090565b614c2b612339565b614bf6565b9192614c3a61538d565b614c4b614c4685614b53565b6127ab565b9160406fffffffffffffffffffffffffffffffff6064614c826001600160a01b0396614c7a8860035416614bb4565b90868a615398565b95600354169760008451998a9485937fa34123a70000000000000000000000000000000000000000000000000000000085528b60020b60048601528860020b60248601521660448401525af1948515614d12575b6000908196614ced575b509061069e91959461524d565b61069e929650614d0b915060403d811161059b5761058c818361139d565b9591614ce0565b614d1a612339565b614cd6565b600a54614d43614d3a6108436001546001600160a01b031690565b63ffffffff1690565b600054614d5b9060101c6001600160a01b0316610843565b6040517fce4c18de00000000000000000000000000000000000000000000000000000000815263ffffffff83166004820152906020908183602481845afa928315614e83575b600093614e64575b5082947f7fffffffffffffffffffffffffffffffffffffffffffffffffffffffffffffff8114600014614e5c57506040517f706bdd2500000000000000000000000000000000000000000000000000000000815263ffffffff94909416600485015261461f93908290829060249082905afa918215614e4f575b600092614e32575b5050614e90565b614e489250803d1061465d5761464f818361139d565b3880614e2b565b614e57612339565b614e23565b935050505091565b614e7c919350823d841161465d5761464f818361139d565b9138614da9565b614e8b612339565b614da1565b614ec9611dd4614eaf614ea66201518095614edb565b612b7f85614edb565b6000811293908415614ec457614ec490611e6e565b611ff9565b90614ed2570590565b6143c990611fe1565b600160ff1b811015614eea5790565b602490604051907f8320b7bc0000000000000000000000000000000000000000000000000000000082526004820152fd5b61065f611e3c614f29614d1f565b6005929192549265ffffffffffff806008541690421690611ed7565b918060020b8260020b908082129182159261508c575b821561507f575b821561506e575b50811561505e575b506150225790614fde91600460e06001600160a01b0360035416604051928380927f3850c7bd0000000000000000000000000000000000000000000000000000000082525afa908115615015575b600091614ff0575b50614fd061509a565b9182518652600954936150ce565b60608401526040830152602082015290565b615008915060e03d811161090d576108f8818361139d565b5050505050905038614fc7565b61501d612339565b614fbf565b6040517f957b5ed5000000000000000000000000000000000000000000000000000000008152600292830b6004820152910b6024820152604490fd5b600a91500760020b151538614f71565b600a900760020b1515915038614f69565b620d89e882139250614f62565b620d89e71981129250614f5b565b604051906150a782611381565b60055482526006546020830152600754604083015260085465ffffffffffff166060830152565b9061065f92849694926150ee8160020b600052600b602052604060002090565b6151058460020b600052600b602052604060002090565b916001820154600361512084546002860154848b5192615211565b9301549460020b809260020b136151e2575b89600185015492600361514e87546002890154878d5192615211565b9601549760020b1315615195575b5091604061518261517d9361517d61518a979660206151909b9c01516126e8565b6126e8565b9b01516126e8565b9561230d565b61230d565b92906151828861517d60409360206151d06151909c6151ca61518a9c896151c261517d9d878b01516126e8565b9801516126e8565b9a61230d565b9b50509496975050935050508961515c565b6152046151f961520b9260208a98969801516126e8565b9560408901516126e8565b928a61230d565b93615132565b90615222611e3c9261065f956126e8565b9061229b565b919082604091031261000e576020825161524181610613565b92015161065f81610613565b9060409060a46001600160a01b0360035416936000845195869485937f4f1eb3d800000000000000000000000000000000000000000000000000000000855230600486015260020b602485015260020b60448401526fffffffffffffffffffffffffffffffff80606485015260848401525af18015615302575b6152d5575b5061069e6155f9565b6152f59060403d81116152fb575b6152ed818361139d565b810190615228565b506152cc565b503d6152e3565b61530a612339565b6152c7565b9060039160020b600052600b60205260406000209061536d825491604060018501918254926153646153556002890197611e3c61534f8a549287516126e8565b8861229b565b948351895560208401516126e8565b905501516126e8565b9055019081549081811061538057039055565b615388611992565b039055565b61069e614a66614d1f565b93929091936153a5614a2f565b506153ae61509a565b9160095492600091829488600f0b9889615456575b5050505060006153d685846110fa614a2f565b96126153e3575b50505050565b615426575b506153f6575b8080806153dd565b6154209060009060020b8152600b6020526003604082208281558260018201558260028201550155565b386153ee565b6154509060009060020b8152600b6020526003604082208281558260018201558260028201550155565b386153e8565b90919280965061549f945051906020870180519161548d888660408c01958651906001600160a01b0398868c8b60035416966154a9565b9851915192519360035416958a6154a9565b91388080806153c3565b909796979492949391936154ca8260020b600052600b602052604060002090565b6040517ff30dba93000000000000000000000000000000000000000000000000000000008152600284900b60048201526101009a9196918b90829060249082906001600160a01b03165afa9a8b156155ec575b60009b6155c6575b5050600081600f0b126000146155a557615544612bab61554a926127ab565b8a612800565b6fffffffffffffffffffffffffffffffff809a1615998a911615141598615575575b50505050505050565b60020b9060020b131561558a575b808061556c565b60039383556001830155600282015501553880808080615583565b6155c1906fffffffffffffffffffffffffffffffff168a6127db565b61554a565b6155dd929b50803d10612da857612d91818361139d565b50505050505050983880615525565b6155f4612339565b61551d565b61560e6108436002546001600160a01b031690565b6040517f70a08231000000000000000000000000000000000000000000000000000000008082523060048301526020929091908382602481845afa9182156157d2575b6000926157b3575b508161573e575b50506156776108436001546001600160a01b031690565b604051918252306004830152908281602481855afa928315615731575b600093615712575b5050816156a7575050565b803b1561000e576040517f42966c6800000000000000000000000000000000000000000000000000000000815260048101929092526000908290602490829084905af18015615705575b6156f85750565b8061126961069e92611360565b61570d612339565b6156f1565b615729929350803d1061465d5761464f818361139d565b90388061569c565b615739612339565b615694565b803b1561000e576040517f42966c6800000000000000000000000000000000000000000000000000000000815260048101929092526000908290602490829084905af180156157a6575b615793575b80615660565b806112696157a092611360565b3861578d565b6157ae612339565b615788565b6157cb919250843d861161465d5761464f818361139d565b9038615659565b6157da612339565b615651565b805160051b810160209081018183015b8181106157fc5750505090565b805154815282016157ef565b9161589b926040928160001461599f5760808601519161584761582e60a0890151614edb565b6003549062ffffff808360b81c169260a01c169061433d565b5060c08501936fffffffffffffffffffffffffffffffff8061587987516fffffffffffffffffffffffffffffffff1690565b16151580615996575b6158ec575b50505050505001516001600160a01b031690565b6001600160a01b036158ba61084360608501516001600160a01b031690565b9116146158c45750565b60408101516158d05750565b6020015160095461069e9160020b6158e661509a565b9061530f565b6159759561594c6159689561596294612bab946159146159709a9060e060c083015192015190565b9290936000146159805761592790614edb565b85516fffffffffffffffffffffffffffffffff164265ffffffffffff16921690611d2f565b516fffffffffffffffffffffffffffffffff1690565b90611ff9565b600954612618565b600955565b388080808080615887565b61598c61599191614edb565b611fe1565b615927565b50811515615882565b60a08601519161584761582e6080890151614edb56fea26469706673582212200868cc6bdfca4a84b0891ebe1545209b272a9e3310d9944572b95971645aa14e64736f6c634300080e0033",
  "devdoc": {
    "kind": "dev",
    "methods": {
      "collectAccruedProtocolFee()": {
        "details": "Does not do any token transfer, just reduces the state in wrapper by accruedProtocolFeeLast.     Clearing house already has the amount of settlement tokens to send to treasury.",
        "returns": {
          "accruedProtocolFeeLast": "amount of protocol fees accrued since last collection."
        }
      },
      "extsload(bytes32)": {
        "params": {
          "slot": "to read from."
        },
        "returns": {
          "val": "stored at the slot."
        }
      },
      "extsload(bytes32[])": {
        "params": {
          "slots": "to read from."
        },
        "returns": {
          "_0": "values stored at the slots."
        }
      },
      "swap(bool,int256,uint160)": {
        "params": {
          "amountSpecified": ": The amount of the swap, which implicitly configures the swap as exact input (positive), or exact output (negative)",
          "sqrtPriceLimitX96": ": The Q64.96 sqrt price limit. If zero for one, the price cannot be less than this value after the swap. If one for zero, the price cannot be greater than this value after the swap.",
          "swapVTokenForVQuote": ": The direction of the swap, true for vToken to vQuote, false for vQuote to vToken"
        },
        "returns": {
          "swapResult": "swap return values, which contain the execution details of the swap"
        }
      },
      "updateGlobalFundingState(bool)": {
        "details": "Done when clearing house is paused or unpaused, to prevent funding payments from being received     or paid when clearing house is in paused mode."
      }
    },
    "version": 1
  },
  "userdoc": {
    "events": {
      "AccruedProtocolFeeCollected(uint256)": {
        "notice": "Emitted whenever clearing house enquired about the accrued protocol fees"
      },
      "Burn(int24,int24,uint128,uint256,uint256)": {
        "notice": "Emitted whenever liquidity is removed"
      },
      "FundingRateOverrideUpdated(int256)": {
        "notice": "Emitted when funding rate override is updated"
      },
      "LiquidityFeeUpdated(uint24)": {
        "notice": "Emitted when governance updates the liquidity fees"
      },
      "Mint(int24,int24,uint128,uint256,uint256)": {
        "notice": "Emitted whenever liquidity is added"
      },
      "ProtocolFeeUpdated(uint24)": {
        "notice": "Emitted when governance updates the protocol fees"
      },
      "Swap((int256,int256,int256,uint256,uint256,uint160,uint160))": {
        "notice": "Emitted whenever a swap takes place"
      }
    },
    "kind": "user",
    "methods": {
      "collectAccruedProtocolFee()": {
        "notice": "Used by clearing house to know how much protocol fee was collected."
      },
      "extsload(bytes32)": {
        "notice": "Returns a value from the storage."
      },
      "extsload(bytes32[])": {
        "notice": "Returns multiple values from storage."
      },
      "getFundingRateAndVirtualPrice()": {
        "notice": "VIEW METHODS"
      },
      "initialize((address,address,address,address,uint24,uint24))": {
        "notice": "PLATFORM FUNCTIONS"
      },
      "setLiquidityFee(uint24)": {
        "notice": "ADMIN FUNCTIONS"
      },
      "swap(bool,int256,uint160)": {
        "notice": "Swap vToken for vQuote, or vQuote for vToken"
      },
      "uniswapV3SwapCallback(int256,int256,bytes)": {
        "notice": "UNISWAP V3 POOL CALLBACkS"
      },
      "updateGlobalFundingState(bool)": {
        "notice": "Update the global funding state, from clearing house"
      }
    },
    "version": 1
  },
  "storageLayout": {
    "storage": [
      {
        "astId": 93,
        "contract": "contracts/protocol/wrapper/VPoolWrapper.sol:VPoolWrapper",
        "label": "_initialized",
        "offset": 0,
        "slot": "0",
        "type": "t_bool"
      },
      {
        "astId": 96,
        "contract": "contracts/protocol/wrapper/VPoolWrapper.sol:VPoolWrapper",
        "label": "_initializing",
        "offset": 1,
        "slot": "0",
        "type": "t_bool"
      },
      {
        "astId": 27679,
        "contract": "contracts/protocol/wrapper/VPoolWrapper.sol:VPoolWrapper",
        "label": "clearingHouse",
        "offset": 2,
        "slot": "0",
        "type": "t_contract(IClearingHouse)11306"
      },
      {
        "astId": 27682,
        "contract": "contracts/protocol/wrapper/VPoolWrapper.sol:VPoolWrapper",
        "label": "vToken",
        "offset": 0,
        "slot": "1",
        "type": "t_contract(IVToken)11656"
      },
      {
        "astId": 27685,
        "contract": "contracts/protocol/wrapper/VPoolWrapper.sol:VPoolWrapper",
        "label": "vQuote",
        "offset": 0,
        "slot": "2",
        "type": "t_contract(IVQuote)11632"
      },
      {
        "astId": 27688,
        "contract": "contracts/protocol/wrapper/VPoolWrapper.sol:VPoolWrapper",
        "label": "vPool",
        "offset": 0,
        "slot": "3",
        "type": "t_contract(IUniswapV3Pool)6184"
      },
      {
        "astId": 27693,
        "contract": "contracts/protocol/wrapper/VPoolWrapper.sol:VPoolWrapper",
        "label": "liquidityFeePips",
        "offset": 20,
        "slot": "3",
        "type": "t_uint24"
      },
      {
        "astId": 27695,
        "contract": "contracts/protocol/wrapper/VPoolWrapper.sol:VPoolWrapper",
        "label": "protocolFeePips",
        "offset": 23,
        "slot": "3",
        "type": "t_uint24"
      },
      {
        "astId": 27697,
        "contract": "contracts/protocol/wrapper/VPoolWrapper.sol:VPoolWrapper",
        "label": "accruedProtocolFee",
        "offset": 0,
        "slot": "4",
        "type": "t_uint256"
      },
      {
        "astId": 27700,
        "contract": "contracts/protocol/wrapper/VPoolWrapper.sol:VPoolWrapper",
        "label": "fpGlobal",
        "offset": 0,
        "slot": "5",
        "type": "t_struct(Info)15061_storage"
      },
      {
        "astId": 27702,
        "contract": "contracts/protocol/wrapper/VPoolWrapper.sol:VPoolWrapper",
        "label": "sumFeeGlobalX128",
        "offset": 0,
        "slot": "9",
        "type": "t_uint256"
      },
      {
        "astId": 27711,
        "contract": "contracts/protocol/wrapper/VPoolWrapper.sol:VPoolWrapper",
        "label": "fundingRateOverrideX128",
        "offset": 0,
        "slot": "10",
        "type": "t_int256"
      },
      {
        "astId": 27716,
        "contract": "contracts/protocol/wrapper/VPoolWrapper.sol:VPoolWrapper",
        "label": "ticksExtended",
        "offset": 0,
        "slot": "11",
        "type": "t_mapping(t_int24,t_struct(Info)20065_storage)"
      }
    ],
    "types": {
      "t_bool": {
        "encoding": "inplace",
        "label": "bool",
        "numberOfBytes": "1"
      },
      "t_contract(IClearingHouse)11306": {
        "encoding": "inplace",
        "label": "contract IClearingHouse",
        "numberOfBytes": "20"
      },
      "t_contract(IUniswapV3Pool)6184": {
        "encoding": "inplace",
        "label": "contract IUniswapV3Pool",
        "numberOfBytes": "20"
      },
      "t_contract(IVQuote)11632": {
        "encoding": "inplace",
        "label": "contract IVQuote",
        "numberOfBytes": "20"
      },
      "t_contract(IVToken)11656": {
        "encoding": "inplace",
        "label": "contract IVToken",
        "numberOfBytes": "20"
      },
      "t_int24": {
        "encoding": "inplace",
        "label": "int24",
        "numberOfBytes": "3"
      },
      "t_int256": {
        "encoding": "inplace",
        "label": "int256",
        "numberOfBytes": "32"
      },
      "t_mapping(t_int24,t_struct(Info)20065_storage)": {
        "encoding": "mapping",
        "key": "t_int24",
        "label": "mapping(int24 => struct TickExtended.Info)",
        "numberOfBytes": "32",
        "value": "t_struct(Info)20065_storage"
      },
      "t_struct(Info)15061_storage": {
        "encoding": "inplace",
        "label": "struct FundingPayment.Info",
        "members": [
          {
            "astId": 15054,
            "contract": "contracts/protocol/wrapper/VPoolWrapper.sol:VPoolWrapper",
            "label": "sumAX128",
            "offset": 0,
            "slot": "0",
            "type": "t_int256"
          },
          {
            "astId": 15056,
            "contract": "contracts/protocol/wrapper/VPoolWrapper.sol:VPoolWrapper",
            "label": "sumBX128",
            "offset": 0,
            "slot": "1",
            "type": "t_int256"
          },
          {
            "astId": 15058,
            "contract": "contracts/protocol/wrapper/VPoolWrapper.sol:VPoolWrapper",
            "label": "sumFpX128",
            "offset": 0,
            "slot": "2",
            "type": "t_int256"
          },
          {
            "astId": 15060,
            "contract": "contracts/protocol/wrapper/VPoolWrapper.sol:VPoolWrapper",
            "label": "timestampLast",
            "offset": 0,
            "slot": "3",
            "type": "t_uint48"
          }
        ],
        "numberOfBytes": "128"
      },
      "t_struct(Info)20065_storage": {
        "encoding": "inplace",
        "label": "struct TickExtended.Info",
        "members": [
          {
            "astId": 20058,
            "contract": "contracts/protocol/wrapper/VPoolWrapper.sol:VPoolWrapper",
            "label": "sumALastX128",
            "offset": 0,
            "slot": "0",
            "type": "t_int256"
          },
          {
            "astId": 20060,
            "contract": "contracts/protocol/wrapper/VPoolWrapper.sol:VPoolWrapper",
            "label": "sumBOutsideX128",
            "offset": 0,
            "slot": "1",
            "type": "t_int256"
          },
          {
            "astId": 20062,
            "contract": "contracts/protocol/wrapper/VPoolWrapper.sol:VPoolWrapper",
            "label": "sumFpOutsideX128",
            "offset": 0,
            "slot": "2",
            "type": "t_int256"
          },
          {
            "astId": 20064,
            "contract": "contracts/protocol/wrapper/VPoolWrapper.sol:VPoolWrapper",
            "label": "sumFeeOutsideX128",
            "offset": 0,
            "slot": "3",
            "type": "t_uint256"
          }
        ],
        "numberOfBytes": "128"
      },
      "t_uint24": {
        "encoding": "inplace",
        "label": "uint24",
        "numberOfBytes": "3"
      },
      "t_uint256": {
        "encoding": "inplace",
        "label": "uint256",
        "numberOfBytes": "32"
      },
      "t_uint48": {
        "encoding": "inplace",
        "label": "uint48",
        "numberOfBytes": "6"
      }
    }
  }
}