{
  "address": "0xCFe88cA1a17A7950c4C564f62c0a27e51b844715",
  "abi": [
    {
      "inputs": [
        {
          "internalType": "int24",
          "name": "tickLower",
          "type": "int24"
        },
        {
          "internalType": "int24",
          "name": "tickUpper",
          "type": "int24"
        }
      ],
      "name": "InvalidTicks",
      "type": "error"
    },
    {
      "inputs": [],
      "name": "NotClearingHouse",
      "type": "error"
    },
    {
      "inputs": [],
      "name": "NotGovernance",
      "type": "error"
    },
    {
      "inputs": [],
      "name": "NotUniswapV3Pool",
      "type": "error"
    },
    {
      "anonymous": false,
      "inputs": [
        {
          "indexed": false,
          "internalType": "int256",
          "name": "vTokenIn",
          "type": "int256"
        },
        {
          "indexed": false,
          "internalType": "int256",
          "name": "vBaseIn",
          "type": "int256"
        },
        {
          "indexed": false,
          "internalType": "uint256",
          "name": "liquidityFees",
          "type": "uint256"
        },
        {
          "indexed": false,
          "internalType": "uint256",
          "name": "protocolFees",
          "type": "uint256"
        }
      ],
      "name": "Swap",
      "type": "event"
    },
    {
      "inputs": [
        {
          "components": [
            {
              "internalType": "contract IClearingHouse",
              "name": "clearingHouse",
              "type": "address"
            },
            {
              "internalType": "contract IVToken",
              "name": "vToken",
              "type": "address"
            },
            {
              "internalType": "contract IVBase",
              "name": "vBase",
              "type": "address"
            },
            {
              "internalType": "contract IUniswapV3Pool",
              "name": "vPool",
              "type": "address"
            },
            {
              "internalType": "uint24",
              "name": "liquidityFeePips",
              "type": "uint24"
            },
            {
              "internalType": "uint24",
              "name": "protocolFeePips",
              "type": "uint24"
            },
            {
              "internalType": "uint24",
              "name": "UNISWAP_V3_DEFAULT_FEE_TIER",
              "type": "uint24"
            }
          ],
          "internalType": "struct IVPoolWrapper.InitializeVPoolWrapperParams",
          "name": "params",
          "type": "tuple"
        }
      ],
      "name": "__VPoolWrapper_init",
      "outputs": [],
      "stateMutability": "nonpayable",
      "type": "function"
    },
    {
      "inputs": [],
      "name": "accruedProtocolFee",
      "outputs": [
        {
          "internalType": "uint256",
          "name": "",
          "type": "uint256"
        }
      ],
      "stateMutability": "view",
      "type": "function"
    },
    {
      "inputs": [],
      "name": "clearingHouse",
      "outputs": [
        {
          "internalType": "contract IClearingHouse",
          "name": "",
          "type": "address"
        }
      ],
      "stateMutability": "view",
      "type": "function"
    },
    {
      "inputs": [],
      "name": "collectAccruedProtocolFee",
      "outputs": [
        {
          "internalType": "uint256",
          "name": "accruedProtocolFeeLast",
          "type": "uint256"
        }
      ],
      "stateMutability": "nonpayable",
      "type": "function"
    },
    {
      "inputs": [
        {
          "internalType": "bytes32",
          "name": "slot",
          "type": "bytes32"
        }
      ],
      "name": "extsload",
      "outputs": [
        {
          "internalType": "bytes32",
          "name": "val",
          "type": "bytes32"
        }
      ],
      "stateMutability": "view",
      "type": "function"
    },
    {
      "inputs": [
        {
          "internalType": "bytes32[]",
          "name": "slots",
          "type": "bytes32[]"
        }
      ],
      "name": "extsload",
      "outputs": [
        {
          "internalType": "bytes32[]",
          "name": "",
          "type": "bytes32[]"
        }
      ],
      "stateMutability": "view",
      "type": "function"
    },
    {
      "inputs": [],
      "name": "fpGlobal",
      "outputs": [
        {
          "internalType": "int256",
          "name": "sumAX128",
          "type": "int256"
        },
        {
          "internalType": "int256",
          "name": "sumBX128",
          "type": "int256"
        },
        {
          "internalType": "int256",
          "name": "sumFpX128",
          "type": "int256"
        },
        {
          "internalType": "uint48",
          "name": "timestampLast",
          "type": "uint48"
        }
      ],
      "stateMutability": "view",
      "type": "function"
    },
    {
      "inputs": [],
      "name": "getExtrapolatedSumAX128",
      "outputs": [
        {
          "internalType": "int256",
          "name": "",
          "type": "int256"
        }
      ],
      "stateMutability": "view",
      "type": "function"
    },
    {
      "inputs": [
        {
          "internalType": "int24",
          "name": "tickLower",
          "type": "int24"
        },
        {
          "internalType": "int24",
          "name": "tickUpper",
          "type": "int24"
        }
      ],
      "name": "getExtrapolatedValuesInside",
      "outputs": [
        {
          "components": [
            {
              "internalType": "int256",
              "name": "sumAX128",
              "type": "int256"
            },
            {
              "internalType": "int256",
              "name": "sumBInsideX128",
              "type": "int256"
            },
            {
              "internalType": "int256",
              "name": "sumFpInsideX128",
              "type": "int256"
            },
            {
              "internalType": "uint256",
              "name": "sumFeeInsideX128",
              "type": "uint256"
            }
          ],
          "internalType": "struct IVPoolWrapper.WrapperValuesInside",
          "name": "wrapperValuesInside",
          "type": "tuple"
        }
      ],
      "stateMutability": "view",
      "type": "function"
    },
    {
      "inputs": [],
      "name": "getSumAX128",
      "outputs": [
        {
          "internalType": "int256",
          "name": "",
          "type": "int256"
        }
      ],
      "stateMutability": "view",
      "type": "function"
    },
    {
      "inputs": [
        {
          "internalType": "int24",
          "name": "tickLower",
          "type": "int24"
        },
        {
          "internalType": "int24",
          "name": "tickUpper",
          "type": "int24"
        }
      ],
      "name": "getValuesInside",
      "outputs": [
        {
          "components": [
            {
              "internalType": "int256",
              "name": "sumAX128",
              "type": "int256"
            },
            {
              "internalType": "int256",
              "name": "sumBInsideX128",
              "type": "int256"
            },
            {
              "internalType": "int256",
              "name": "sumFpInsideX128",
              "type": "int256"
            },
            {
              "internalType": "uint256",
              "name": "sumFeeInsideX128",
              "type": "uint256"
            }
          ],
          "internalType": "struct IVPoolWrapper.WrapperValuesInside",
          "name": "wrapperValuesInside",
          "type": "tuple"
        }
      ],
      "stateMutability": "view",
      "type": "function"
    },
    {
      "inputs": [
        {
          "internalType": "int24",
          "name": "tickLower",
          "type": "int24"
        },
        {
          "internalType": "int24",
          "name": "tickUpper",
          "type": "int24"
        },
        {
          "internalType": "int128",
          "name": "liquidityDelta",
          "type": "int128"
        }
      ],
      "name": "liquidityChange",
      "outputs": [
        {
          "internalType": "int256",
          "name": "basePrincipal",
          "type": "int256"
        },
        {
          "internalType": "int256",
          "name": "vTokenPrincipal",
          "type": "int256"
        },
        {
          "components": [
            {
              "internalType": "int256",
              "name": "sumAX128",
              "type": "int256"
            },
            {
              "internalType": "int256",
              "name": "sumBInsideX128",
              "type": "int256"
            },
            {
              "internalType": "int256",
              "name": "sumFpInsideX128",
              "type": "int256"
            },
            {
              "internalType": "uint256",
              "name": "sumFeeInsideX128",
              "type": "uint256"
            }
          ],
          "internalType": "struct IVPoolWrapper.WrapperValuesInside",
          "name": "wrapperValuesInside",
          "type": "tuple"
        }
      ],
      "stateMutability": "nonpayable",
      "type": "function"
    },
    {
      "inputs": [],
      "name": "liquidityFeePips",
      "outputs": [
        {
          "internalType": "uint24",
          "name": "",
          "type": "uint24"
        }
      ],
      "stateMutability": "view",
      "type": "function"
    },
    {
      "inputs": [],
      "name": "protocolFeePips",
      "outputs": [
        {
          "internalType": "uint24",
          "name": "",
          "type": "uint24"
        }
      ],
      "stateMutability": "view",
      "type": "function"
    },
    {
      "inputs": [
        {
          "internalType": "uint24",
          "name": "liquidityFeePips_",
          "type": "uint24"
        }
      ],
      "name": "setLiquidityFee",
      "outputs": [],
      "stateMutability": "nonpayable",
      "type": "function"
    },
    {
      "inputs": [
        {
          "internalType": "uint24",
          "name": "protocolFeePips_",
          "type": "uint24"
        }
      ],
      "name": "setProtocolFee",
      "outputs": [],
      "stateMutability": "nonpayable",
      "type": "function"
    },
    {
      "inputs": [],
      "name": "sumFeeGlobalX128",
      "outputs": [
        {
          "internalType": "uint256",
          "name": "",
          "type": "uint256"
        }
      ],
      "stateMutability": "view",
      "type": "function"
    },
    {
      "inputs": [
        {
          "internalType": "bool",
          "name": "swapVTokenForVBase",
          "type": "bool"
        },
        {
          "internalType": "int256",
          "name": "amountSpecified",
          "type": "int256"
        },
        {
          "internalType": "uint160",
          "name": "sqrtPriceLimitX96",
          "type": "uint160"
        }
      ],
      "name": "swap",
      "outputs": [
        {
          "internalType": "int256",
          "name": "",
          "type": "int256"
        },
        {
          "internalType": "int256",
          "name": "",
          "type": "int256"
        }
      ],
      "stateMutability": "nonpayable",
      "type": "function"
    },
    {
      "inputs": [
        {
          "internalType": "int256",
          "name": "amount",
          "type": "int256"
        },
        {
          "internalType": "uint160",
          "name": "sqrtPriceLimitX96",
          "type": "uint160"
        },
        {
          "internalType": "bool",
          "name": "isNotional",
          "type": "bool"
        }
      ],
      "name": "swapToken",
      "outputs": [
        {
          "internalType": "int256",
          "name": "vTokenAmount",
          "type": "int256"
        },
        {
          "internalType": "int256",
          "name": "vBaseAmount",
          "type": "int256"
        }
      ],
      "stateMutability": "nonpayable",
      "type": "function"
    },
    {
      "inputs": [
        {
          "internalType": "int24",
          "name": "",
          "type": "int24"
        }
      ],
      "name": "ticksExtended",
      "outputs": [
        {
          "internalType": "int256",
          "name": "sumALastX128",
          "type": "int256"
        },
        {
          "internalType": "int256",
          "name": "sumBOutsideX128",
          "type": "int256"
        },
        {
          "internalType": "int256",
          "name": "sumFpOutsideX128",
          "type": "int256"
        },
        {
          "internalType": "uint256",
          "name": "sumFeeOutsideX128",
          "type": "uint256"
        }
      ],
      "stateMutability": "view",
      "type": "function"
    },
    {
      "inputs": [],
      "name": "uniswapFeePips",
      "outputs": [
        {
          "internalType": "uint24",
          "name": "",
          "type": "uint24"
        }
      ],
      "stateMutability": "view",
      "type": "function"
    },
    {
      "inputs": [
        {
          "internalType": "uint256",
          "name": "vTokenAmount",
          "type": "uint256"
        },
        {
          "internalType": "uint256",
          "name": "vBaseAmount",
          "type": "uint256"
        },
        {
          "internalType": "bytes",
          "name": "",
          "type": "bytes"
        }
      ],
      "name": "uniswapV3MintCallback",
      "outputs": [],
      "stateMutability": "nonpayable",
      "type": "function"
    },
    {
      "inputs": [
        {
          "internalType": "int256",
          "name": "amount0Delta",
          "type": "int256"
        },
        {
          "internalType": "int256",
          "name": "amount1Delta",
          "type": "int256"
        },
        {
          "internalType": "bytes",
          "name": "",
          "type": "bytes"
        }
      ],
      "name": "uniswapV3SwapCallback",
      "outputs": [],
      "stateMutability": "nonpayable",
      "type": "function"
    },
    {
      "inputs": [],
      "name": "updateGlobalFundingState",
      "outputs": [],
      "stateMutability": "nonpayable",
      "type": "function"
    },
    {
      "inputs": [],
      "name": "vBase",
      "outputs": [
        {
          "internalType": "contract IVBase",
          "name": "",
          "type": "address"
        }
      ],
      "stateMutability": "view",
      "type": "function"
    },
    {
      "inputs": [],
      "name": "vPool",
      "outputs": [
        {
          "internalType": "contract IUniswapV3Pool",
          "name": "",
          "type": "address"
        }
      ],
      "stateMutability": "view",
      "type": "function"
    },
    {
      "inputs": [],
      "name": "vToken",
      "outputs": [
        {
          "internalType": "contract IVToken",
          "name": "",
          "type": "address"
        }
      ],
      "stateMutability": "view",
      "type": "function"
    }
  ],
  "transactionHash": "0x1faf56418de47a139cde2d5e2ce6114263ac186650bf8450f9786da695678ee3",
  "args": [],
  "solcInputHash": "de5b7ef675dbe66c3113d5589dbb98d9",
  "bytecode": "0x608060405234801561001057600080fd5b506148af806100206000396000f3fe608060405234801561001057600080fd5b50600436106101a95760003560e01c806386c8e9a7116100f9578063c04b98c411610097578063d440c42011610071578063d440c42014610406578063dbd035ff14610428578063fa461e3314610448578063fca6fbf21461045b57600080fd5b8063c04b98c4146103d7578063c5f1916c146103e0578063d3487997146103f357600080fd5b8063a3a1e7e9116100d3578063a3a1e7e9146103a0578063a3c35e2c146103a8578063acfd7928146103bb578063bb152c53146103c457600080fd5b806386c8e9a7146103645780638b1e97811461037a5780639bb1a99c1461038d57600080fd5b806348aaa8c0116101665780636c544335116101405780636c544335146102f05780637779815c146103365780637aba8e681461033e5780637feedaa11461035157600080fd5b806348aaa8c0146102805780635e622abc146102d55780636719578c146102dd57600080fd5b806302dc9951146101ae5780630af96800146101dd578063195cd92c1461020e5780631e2eaeaf146102365780632a99a7921461025657806333f9096314610276575b600080fd5b6003546101c490600160a01b900462ffffff1681565b60405162ffffff90911681526020015b60405180910390f35b6000546101f6906201000090046001600160a01b031681565b6040516001600160a01b0390911681526020016101d4565b61022161021c366004613d87565b610471565b604080519283526020830191909152016101d4565b610248610244366004613dc9565b5490565b6040519081526020016101d4565b610269610264366004613df1565b610718565b6040516101d49190613e2a565b61027e610844565b005b6102b561028e366004613e55565b600a6020526000908152604090208054600182015460028301546003909301549192909184565b6040805194855260208501939093529183015260608201526080016101d4565b6102486108df565b6003546101f6906001600160a01b031681565b60055460065460075460085461030e9392919065ffffffffffff1684565b6040805194855260208501939093529183015265ffffffffffff1660608201526080016101d4565b600554610248565b61027e61034c366004613e72565b61092a565b61027e61035f366004613e9b565b610b52565b6003546101c490600160b81b900462ffffff1681565b61027e610388366004613e9b565b610c1e565b6001546101f6906001600160a01b031681565b610248610cea565b6102696103b6366004613df1565b610d8b565b61024860045481565b6102216103d2366004613eb8565b610f28565b61024860095481565b6002546101f6906001600160a01b031681565b61027e610401366004613f31565b610f59565b610419610414366004613f93565b611061565b6040516101d493929190613fd3565b61043b610436366004614025565b61133a565b6040516101d491906140e3565b61027e610456366004613f31565b611368565b6003546101c490600160d01b900462ffffff1681565b6000805481906201000090046001600160a01b031633146104a557604051638597d08b60e01b815260040160405180910390fd5b60008412156001600160a01b0384166104f457856104e1576104dc600173fffd8963efd1fc6a506488495d951d5263988d2661413d565b6104f1565b6104f16401000276a36001614165565b93505b6105266040518060a0016040528060008152602001600081526020016000815260200160008152602001600081525090565b85815260035461055b908390899062ffffff600160a01b8204811691600160b81b8104821691600160d01b9091041686611531565b80516003546000918291610580916001600160a01b03909116908b908a6115dc6117c2565b6003548551604051630251596160e31b81523060048201528d1515602482015260448101919091526001600160a01b038b8116606483015260a06084830152600060a4830152939550919350919091169063128acb089060c40160408051808303816000875af11580156105f8573d6000803e3d6000fd5b505050506040513d601f19601f8201168201806040525081019061061c9190614190565b604085015260208401819052821480156106395750826040015181145b610645576106456141b4565b5050600354610679908390899062ffffff600160a01b8204811691600160b81b8104821691600160d01b9091041686611842565b80608001516004600082825461068f91906141ca565b9091555061069d9050611952565b7fb0ecd2f0335c5433548e5039eef18bcfbe9cd48abfb781dfa0cc522164cb876f81602001518260400151836060015184608001516040516106f8949392919093845260208401929092526040830152606082015260800190565b60405180910390a180602001518160400151935093505050935093915050565b6107436040518060800160405280600081526020016000815260200160008152602001600081525090565b60035460408051633850c7bd60e01b815290516000926001600160a01b031691633850c7bd9160048083019260e09291908290030181865afa15801561078d573d6000803e3d6000fd5b505050506040513d601f19601f820116820180604052508101906107b191906141f4565b505060408051608081018252600554815260065460208201526007549181019190915260085465ffffffffffff1660608201529395509293506107f79250610cea915050565b80825260055460065460075461080c93611af5565b60408201528051835260095461082c90600a908790879086908690611b25565b60608601526040850152602084015250909392505050565b6000805460015460405163d257be2b60e01b81526001600160a01b03918216600482015283926201000090049091169063d257be2b906024016040805180830381865afa158015610899573d6000803e3d6000fd5b505050506040513d601f19601f820116820180604052508101906108bd9190614190565b915091506108db600060016108cf4290565b60059291908686611c7d565b5050565b600080546201000090046001600160a01b0316331461091157604051638597d08b60e01b815260040160405180910390fd5b6001600454610920919061428c565b6001600455919050565b600054610100900460ff1680610943575060005460ff16155b6109ab5760405162461bcd60e51b815260206004820152602e60248201527f496e697469616c697a61626c653a20636f6e747261637420697320616c72656160448201526d191e481a5b9a5d1a585b1a5e995960921b60648201526084015b60405180910390fd5b600054610100900460ff161580156109cd576000805461ffff19166101011790555b6109da60208301836142a3565b600080546001600160a01b0392909216620100000262010000600160b01b0319909216919091179055610a1360408301602084016142a3565b600180546001600160a01b0319166001600160a01b0392909216919091179055610a4360608301604084016142a3565b600280546001600160a01b0319166001600160a01b0392909216919091179055610a7360808301606084016142a3565b600380546001600160a01b0319166001600160a01b0392909216919091179055610aa360a0830160808401613e9b565b6003805462ffffff92909216600160b81b0262ffffff60b81b19909216919091179055610ad660c0830160a08401613e9b565b6003805462ffffff92909216600160d01b0262ffffff60d01b19909216919091179055610b0960e0830160c08401613e9b565b6003805462ffffff92909216600160a01b0262ffffff60a01b19909216919091179055610b3d600560006001428180611c7d565b80156108db576000805461ff00191690555050565b600060029054906101000a90046001600160a01b03166001600160a01b0316635aa6e6756040518163ffffffff1660e01b8152600401602060405180830381865afa158015610ba5573d6000803e3d6000fd5b505050506040513d601f19601f82011682018060405250810190610bc991906142c0565b6001600160a01b0316336001600160a01b031614610bfa57604051632d5be4cb60e21b815260040160405180910390fd5b6003805462ffffff909216600160d01b0262ffffff60d01b19909216919091179055565b600060029054906101000a90046001600160a01b03166001600160a01b0316635aa6e6756040518163ffffffff1660e01b8152600401602060405180830381865afa158015610c71573d6000803e3d6000fd5b505050506040513d601f19601f82011682018060405250810190610c9591906142c0565b6001600160a01b0316336001600160a01b031614610cc657604051632d5be4cb60e21b815260040160405180910390fd5b6003805462ffffff909216600160b81b0262ffffff60b81b19909216919091179055565b6000805460015460405163d257be2b60e01b81526001600160a01b0391821660048201528392839262010000909104169063d257be2b906024016040805180830381865afa158015610d40573d6000803e3d6000fd5b505050506040513d601f19601f82011682018060405250810190610d649190614190565b600554600854929450909250610d849165ffffffffffff16428585611d33565b9250505090565b610db66040518060800160405280600081526020016000815260200160008152602001600081525090565b82828060020b8260020b121580610dd45750620d89e719600283900b125b80610df05750610de7620d89e7196142dd565b60020b8160020b135b80610e075750610e01600a83614316565b60020b15155b80610e1e5750610e18600a82614316565b60020b15155b15610e4a5760405163957b5ed560e01b8152600283810b600483015282900b60248201526044016109a2565b60035460408051633850c7bd60e01b815290516000926001600160a01b031691633850c7bd9160048083019260e09291908290030181865afa158015610e94573d6000803e3d6000fd5b505050506040513d601f19601f82011682018060405250810190610eb891906141f4565b50506040805160808101825260055480825260065460208301526007549282019290925260085465ffffffffffff166060820152908a526009549496509450610f0e93600a93508b92508a915086908690611b25565b606088015260408701526020860152509295945050505050565b600080610f4d6000861284610f4557610f4087614338565b610f47565b865b86610471565b91509150935093915050565b6003546001600160a01b03163314610f84576040516308458b2b60e21b815260040160405180910390fd5b8215610fef576002546040516340c10f1960e01b8152336004820152602481018590526001600160a01b03909116906340c10f1990604401600060405180830381600087803b158015610fd657600080fd5b505af1158015610fea573d6000803e3d6000fd5b505050505b831561105b576001546040516340c10f1960e01b8152336004820152602481018690526001600160a01b03909116906340c10f19906044015b600060405180830381600087803b15801561104257600080fd5b505af1158015611056573d6000803e3d6000fd5b505050505b50505050565b60008061108f6040518060800160405280600081526020016000815260200160008152602001600081525090565b6000546201000090046001600160a01b031633146110c057604051638597d08b60e01b815260040160405180910390fd5b85858060020b8260020b1215806110de5750620d89e719600283900b125b806110fa57506110f1620d89e7196142dd565b60020b8160020b135b80611111575061110b600a83614316565b60020b15155b806111285750611122600a82614316565b60020b15155b156111545760405163957b5ed560e01b8152600283810b600483015282900b60248201526044016109a2565b61115c610844565b6003546111809089908990899061117b906001600160a01b0316611d55565b611dc6565b9250600086600f0b131561125057600354604051633c8a7d8d60e01b815230600482015260028a810b602483015289900b60448201526001600160801b038816606482015260a06084820152600060a482018190529182916001600160a01b0390911690633c8a7d8d9060c40160408051808303816000875af115801561120b573d6000803e3d6000fd5b505050506040513d601f19601f8201168201806040525081019061122f9190614190565b9150915061123c82611f17565b955061124781611f17565b9650505061132f565b60035460009081906001600160a01b031663a34123a78b8b6112748c600019614355565b6040516001600160e01b031960e086901b168152600293840b60048201529190920b60248201526001600160801b03909116604482015260640160408051808303816000875af11580156112cc573d6000803e3d6000fd5b505050506040513d601f19601f820116820180604052508101906112f09190614190565b915091506112fd82611f17565b611309906000196143f3565b955061131481611f17565b611320906000196143f3565b965061132c8a8a611f2d565b50505b505093509350939050565b606060208251028201602001602083015b8181101561136057805154815260200161134b565b509192915050565b6003546001600160a01b03163314611393576040516308458b2b60e21b815260040160405180910390fd5b600084131561147957600360009054906101000a90046001600160a01b03166001600160a01b0316630dfe16816040518163ffffffff1660e01b8152600401602060405180830381865afa1580156113ef573d6000803e3d6000fd5b505050506040513d601f19601f8201168201806040525081019061141391906142c0565b6003546040516340c10f1960e01b81526001600160a01b039182166004820152602481018790529116906340c10f1990604401600060405180830381600087803b15801561146057600080fd5b505af1158015611474573d6000803e3d6000fd5b505050505b600083131561105b57600360009054906101000a90046001600160a01b03166001600160a01b031663d21220a76040518163ffffffff1660e01b8152600401602060405180830381865afa1580156114d5573d6000803e3d6000fd5b505050506040513d601f19601f820116820180604052508101906114f991906142c0565b6003546040516340c10f1960e01b81526001600160a01b039182166004820152602481018690529116906340c10f1990604401611028565b85156115925784156115505780516115499085611fca565b81526115d4565b805161155f906002858561200d565b6080830181905260608301829052825161158592909161157e916141ca565b600161213a565b8082526115499085611fca565b8461159c576115d4565b80516115ab906001858561200d565b608083018190526060830182905282516115d19290916115ca916141ca565b600061213a565b81525b505050505050565b600080856115f3578260a0015183608001516115fe565b82608001518360a001515b91509150600061163161161083611f17565b60035460009062ffffff600160b81b8204811691600160d01b90041661200d565b50905060008560c001516001600160801b03161180156116515750600083115b15611747576000805460015460405163d257be2b60e01b81526001600160a01b03918216600482015283926201000090049091169063d257be2b906024016040805180830381865afa1580156116ab573d6000803e3d6000fd5b505050506040513d601f19601f820116820180604052508101906116cf9190614190565b9150915061170f896116f2576116e486611f17565b6116ed90614338565b6116fb565b6116fb86611f17565b60c08901516001600160801b0316426108cf565b60c087015161172e908490600160801b906001600160801b031661217f565b6009600082825461173f91906141ca565b909155505050505b83606001516001600160a01b031685604001516001600160a01b031614156117b9578360400151156117b957602080850151604080516080810182526005548152600654938101939093526007549083015260085465ffffffffffff1660608301526009546117b992600a929161222d565b50505050505050565b600080611834878787878b6001600160a01b031663ddca3f436040518163ffffffff1660e01b8152600401602060405180830381865afa15801561180a573d6000803e3d6000fd5b505050506040513d601f19601f8201168201806040525081019061182e9190614478565b886122ae565b915091509550959350505050565b85156118cc57841561189f5761185c8160200151856129d2565b60208201526040810151611873906000858561200d565b6080830181905260608301829052604083015161189592909161157e916141ca565b60408201526115d4565b6118ad8160400151856129d2565b604082018190526080820151606083015161189592916115ca916141ca565b84611915576118df8160400151856129d2565b604082018190526118f3906000858561200d565b608083018190526060830182905260408301516118959290916115ca916141ca565b6119238160200151856129d2565b6020820152604081015160808201516060830151611945929161157e916141ca565b6040820152505050505050565b6002546040516370a0823160e01b81523060048201526000916001600160a01b0316906370a0823190602401602060405180830381865afa15801561199b573d6000803e3d6000fd5b505050506040513d601f19601f820116820180604052508101906119bf9190614495565b90508015611a2657600254604051630852cd8d60e31b8152600481018390526001600160a01b03909116906342966c6890602401600060405180830381600087803b158015611a0d57600080fd5b505af1158015611a21573d6000803e3d6000fd5b505050505b6001546040516370a0823160e01b81523060048201526000916001600160a01b0316906370a0823190602401602060405180830381865afa158015611a6f573d6000803e3d6000fd5b505050506040513d601f19601f82011682018060405250810190611a939190614495565b905080156108db57600154604051630852cd8d60e31b8152600481018390526001600160a01b03909116906342966c6890602401600060405180830381600087803b158015611ae157600080fd5b505af11580156115d4573d6000803e3d6000fd5b6000611b10611b0486846144ae565b8590600160801b6129f9565b611b1a90846144ed565b90505b949350505050565b600285810b60009081526020889052604080822087840b8352908220600182015482549483015487519495869586959493928692611b669290918591611af5565b90506000846003015490508a60020b8d60020b1315611bb057828a60200151611b8f91906144ae565b9250818a60400151611ba191906144ae565b9150611bad818a61428c565b90505b6001840154845460028601548c51600092611bcf929091859190611af5565b90506000866003015490508d60020b8f60020b13611c1857828d60200151611bf791906144ae565b9250818d60400151611c0991906144ae565b9150611c15818d61428c565b90505b82868e60200151611c2991906144ae565b611c3391906144ae565b9a5081858e60400151611c4691906144ae565b611c5091906144ae565b995080611c5d858e61428c565b611c67919061428c565b9850505050505050505096509650969350505050565b6003860154600090611c999065ffffffffffff16858585612a56565b6001880154909150611cb1908290600160801b612a85565b876002016000828254611cc491906144ed565b9091555050865481908890600090611cdd9084906144ed565b90915550611cf2905086600160801b876129f9565b876001016000828254611d0591906144ed565b90915550505050600394909401805465ffffffffffff191665ffffffffffff92909216919091179055505050565b6000611d4185858585612a56565b611d4b90876144ed565b9695505050505050565b6000816001600160a01b0316633850c7bd6040518163ffffffff1660e01b815260040160e060405180830381865afa158015611d95573d6000803e3d6000fd5b505050506040513d601f19601f82011682018060405250810190611db991906141f4565b5093979650505050505050565b611df16040518060800160405280600081526020016000815260200160008152602001600081525090565b60408051608081018252600554815260065460208201526007549181019190915260085465ffffffffffff166060820152600954600080600f87900b15611e9357835160208501516040860151600354611e6193600a938e938c938e939291908b906001600160a01b0316612ad3565b845160208601516040870151600354939550611e9093600a938d938c938e938b906001600160a01b0316612ad3565b90505b611e9d8989610d8b565b9450600087600f0b1215611f0b578115611edb57600289810b6000908152600a60205260408120818155600181018290559182018190556003909101555b8015611f0b57600288810b6000908152600a60205260408120818155600181018290559182018190556003909101555b50505050949350505050565b6000600160ff1b8210611f2957600080fd5b5090565b6003546040516309e3d67b60e31b8152306004820152600284810b602483015283900b60448201526001600160801b036064820181905260848201526001600160a01b0390911690634f1eb3d89060a40160408051808303816000875af1158015611f9c573d6000803e3d6000fd5b505050506040513d601f19601f82011682018060405250810190611fc09190614545565b50506108db611952565b600080611fda83620f4240614578565b60020b611fec62ffffff8516866143f3565b611ff69190614594565b6120019060016144ed565b9050611b1d81856144ed565b600080600061201b87612bbd565b90506001866002811115612031576120316145c2565b1415612072578361204586620f4240614578565b61204f9190614578565b62ffffff1661206182620f42406145d8565b61206b91906145f7565b90506120c3565b6002866002811115612086576120866145c2565b14156120c3578361209a86620f424061460b565b6120a4919061460b565b62ffffff166120b682620f42406145d8565b6120c091906145f7565b90505b6000620f42406120d3868861460b565b6120e29062ffffff16846145d8565b6120ec91906145f7565b6120f79060016141ca565b9050620f424061210c62ffffff8816846145d8565b61211691906145f7565b6121219060016141ca565b935061212d848261428c565b9250505094509492505050565b60008082600181111561214f5761214f6145c2565b1460008513141561216b5761216483856144ed565b9050612178565b61217583856144ae565b90505b9392505050565b6000808060001985870985870292508281108382030391505080600014156121b957600084116121ae57600080fd5b508290049050612178565b8084116121c557600080fd5b600084868809851960019081018716968790046003810260029081188083028203028083028203028083028203028083028203028083028203029182029003026000889003889004909101858311909403939093029303949094049190911702949350505050565b600283810b600090815260208690526040812080546001820154938201548651929461225b93909190611af5565b8451835560018301546020860151919250612275916144ae565b6001830155604084015161228a9082906144ae565b6002830155600382015461229e908461428c565b8260030181905550505050505050565b600080856122e35760405162461bcd60e51b8152602060048201526002602482015261415360f01b60448201526064016109a2565b6040805160c081018252600080825260208201819052918101829052606081018290526080810182905260a0810191909152886001600160a01b0316633850c7bd6040518163ffffffff1660e01b815260040160e060405180830381865afa158015612353573d6000803e3d6000fd5b505050506040513d601f19601f8201168201806040525081019061237791906141f4565b5060ff1660408088019190915260029490940b6020808801919091526001600160a01b0395861687528451630d34328160e11b81529451958f1695631a68650295600480820196509294509092508290030181865afa1580156123de573d6000803e3d6000fd5b505050506040513d601f19601f820116820180604052508101906124029190614629565b6001600160801b03166060820152604080516334324e9f60e21b815290516001600160a01b038b169163d0c93a7c9160048083019260209291908290030181865afa158015612455573d6000803e3d6000fd5b505050506040513d601f19601f820116820180604052508101906124799190614644565b60020b608082015262ffffff851660a0820152876124d75780600001516001600160a01b0316866001600160a01b03161180156124d2575073fffd8963efd1fc6a506488495d951d5263988d266001600160a01b038716105b612509565b80600001516001600160a01b0316866001600160a01b031610801561250957506401000276a36001600160a01b038716115b61253b5760405162461bcd60e51b815260206004820152600360248201526214d41360ea1b60448201526064016109a2565b6000808813905060006040518060e001604052808a81526020016000815260200184600001516001600160a01b03168152602001846020015160020b81526020016000815260200160006001600160801b0316815260200184606001516001600160801b031681525090505b8051158015906125cd5750876001600160a01b031681604001516001600160a01b031614155b1561298d576040805160e081018252600080825260208201819052918101829052606081018290526080810182905260a0810182905260c081019190915260408201516001600160a01b0390811682526060830151608086015161263a928f1691635339c296918f612bd5565b1515604083015260020b60208201819052620d89e719131561266557620d89e7196020820152612699565b612672620d89e7196142dd565b60020b816020015160020b131561269957612690620d89e7196142dd565b60020b60208201525b6126a68160200151612e41565b6001600160a01b03166060820152604082015161271b908c6126e0578a6001600160a01b031683606001516001600160a01b0316116126fa565b8a6001600160a01b031683606001516001600160a01b0316105b61270857826060015161270a565b8a5b60c0850151855160a0890151613174565b60c085015260a084015260808301526001600160a01b0316604083015282156127935761275a8160c00151826080015161275591906141ca565b611f17565b825183906127699083906144ae565b90525060a081015161277a90611f17565b826020015161278991906144ae565b60208301526127de565b6127a08160a00151611f17565b825183906127af9083906144ed565b90525060c081015160808201516127c991612755916141ca565b82602001516127d891906144ed565b60208301525b60c08201516001600160801b031615612826576128118160c00151600160801b8460c001516001600160801b031661217f565b8260800181815161282291906141ca565b9052505b63ffffffff61105b811690881614612848576128488b8584848b63ffffffff16565b80606001516001600160a01b031682604001516001600160a01b031614156129505780604001511561292357602081015160405163f30dba9360e01b815260029190910b60048201526000906001600160a01b038e169063f30dba939060240161010060405180830381865afa1580156128c6573d6000803e3d6000fd5b505050506040513d601f19601f820116820180604052508101906128ea9190614661565b5050505050509150508b15612905576129028161470a565b90505b6129138360c0015182613366565b6001600160801b031660c0840152505b8a612932578060200151612943565b600181602001516129439190614728565b60020b6060830152612987565b80600001516001600160a01b031682604001516001600160a01b0316146129875761297e8260400151613408565b60020b60608301525b506125a7565b8115158a1515146129ae57602081015181516129a9908b6144ae565b6129c0565b80516129ba908a6144ae565b81602001515b94509450505050965096945050505050565b6000620f42406129e28382614578565b6129ef9060020b856143f3565b6121789190614594565b60006001818080612a0a8885613721565b94509250612a188785613721565b94509150612a268685613721565b94509050612a3861275584848461217f565b945083612a4b57612a4885614338565b94505b505050509392505050565b6000611b1a612a658686614770565b65ffffffffffff1662015180612a7e85878282826144ae565b919061374e565b6000612a928484846129f9565b9050600081128015612ac25750612ac2612aab85613788565b612ab485613788565b612abd85613788565b613793565b1561217857612175600019826144ed565b600288900b600081815260208b90526040808220905163f30dba9360e01b81526004810193909352909182906001600160a01b0385169063f30dba939060240161010060405180830381865afa158015612b31573d6000803e3d6000fd5b505050506040513d601f19601f82011682018060405250810190612b559190614661565b5050505050505090506000612b6a828b613366565b6001600160801b038381161590821615811415955090915015612bad578a60020b8c60020b13612bad578883556001830188905560028301879055600383018690555b5050509998505050505050505050565b6000808213611f2957612bcf82614338565b92915050565b60008080612be3858761478f565b905060008660020b128015612c035750612bfd8587614316565b60020b15155b15612c165780612c12816147c9565b9150505b8315612d1b57600080612c28836137ac565b90925090506000600160ff831681901b90612c43908261428c565b612c4d91906141ca565b90506000818c8c866040518263ffffffff1660e01b8152600401612c7a919060019190910b815260200190565b602060405180830381865afa158015612c97573d6000803e3d6000fd5b505050506040513d601f19601f82011682018060405250810190612cbb9190614495565b168015159650905085612ce55788612cd660ff851687614728565b612ce091906147ed565b612d10565b88612cef826137c9565b612cf99085614838565b612d069060ff1687614728565b612d1091906147ed565b965050505050612e36565b600080612d31612d2c84600161485b565b6137ac565b90925090506000612d49600160ff841681901b61428c565b1990506000818c8c866040518263ffffffff1660e01b8152600401612d77919060019190910b815260200190565b602060405180830381865afa158015612d94573d6000803e3d6000fd5b505050506040513d601f19601f82011682018060405250810190612db89190614495565b168015159650905085612df85788612dd18460ff614838565b60ff16612ddf87600161485b565b612de9919061485b565b612df391906147ed565b612e2f565b8883612e038361386a565b612e0d9190614838565b60ff16612e1b87600161485b565b612e25919061485b565b612e2f91906147ed565b9650505050505b509550959350505050565b60008060008360020b12612e58578260020b612e60565b8260020b6000035b9050620d89e8811115612e995760405162461bcd60e51b81526020600482015260016024820152601560fa1b60448201526064016109a2565b600060018216612ead57600160801b612ebf565b6ffffcb933bd6fad37aa2d162d1a5940015b70ffffffffffffffffffffffffffffffffff1690506002821615612ef3576ffff97272373d413259a46990580e213a0260801c5b6004821615612f12576ffff2e50f5f656932ef12357cf3c7fdcc0260801c5b6008821615612f31576fffe5caca7e10e4e61c3624eaa0941cd00260801c5b6010821615612f50576fffcb9843d60f6159c9db58835c9266440260801c5b6020821615612f6f576fff973b41fa98c081472e6896dfb254c00260801c5b6040821615612f8e576fff2ea16466c96a3843ec78b326b528610260801c5b6080821615612fad576ffe5dee046a99a2a811c461f1969c30530260801c5b610100821615612fcd576ffcbe86c7900a88aedcffc83b479aa3a40260801c5b610200821615612fed576ff987a7253ac413176f2b074cf7815e540260801c5b61040082161561300d576ff3392b0822b70005940c7a398e4b70f30260801c5b61080082161561302d576fe7159475a2c29b7443b29c7fa6e889d90260801c5b61100082161561304d576fd097f3bdfd2022b8845ad8f792aa58250260801c5b61200082161561306d576fa9f746462d870fdf8a65dc1f90e061e50260801c5b61400082161561308d576f70d869a156d2a1b890bb3df62baf32f70260801c5b6180008216156130ad576f31be135f97d08fd981231505542fcfa60260801c5b620100008216156130ce576f09aa508b5b7a84e1c677de54f3e99bc90260801c5b620200008216156130ee576e5d6af8dedb81196699c329225ee6040260801c5b6204000082161561310d576d2216e584f5fa1ea926041bedfe980260801c5b6208000082161561312a576b048a170391f7dc42444e8fa20260801c5b60008460020b131561314b57806000198161314757613147614300565b0490505b64010000000081061561315f576001613162565b60005b60ff16602082901c0192505050919050565b60008080806001600160a01b03808916908a1610158187128015906131f95760006131ad8989620f42400362ffffff16620f424061217f565b9050826131c6576131c18c8c8c6001613954565b6131d3565b6131d38b8d8c60016139c4565b95508581106131e4578a96506131f3565b6131f08c8b8386613a7b565b96505b50613243565b816132105761320b8b8b8b60006139c4565b61321d565b61321d8a8c8b6000613954565b935083886000031061323157899550613243565b6132408b8a8a60000385613ac7565b95505b6001600160a01b038a81169087161482156132a6578080156132625750815b61327857613273878d8c60016139c4565b61327a565b855b9550808015613287575081155b61329d57613298878d8c6000613954565b61329f565b845b94506132f0565b8080156132b05750815b6132c6576132c18c888c6001613954565b6132c8565b855b95508080156132d5575081155b6132eb576132e68c888c60006139c4565b6132ed565b845b94505b8115801561330057508860000385115b1561330c578860000394505b81801561332b57508a6001600160a01b0316876001600160a01b031614155b1561333a578589039350613357565b613354868962ffffff168a620f42400362ffffff16613b13565b93505b50505095509550955095915050565b60008082600f0b12156133bc57508082016001600160801b03808416908216106133b75760405162461bcd60e51b81526020600482015260026024820152614c5360f01b60448201526064016109a2565b612bcf565b826001600160801b03168284019150816001600160801b03161015612bcf5760405162461bcd60e51b81526020600482015260026024820152614c4160f01b60448201526064016109a2565b60006401000276a36001600160a01b03831610801590613444575073fffd8963efd1fc6a506488495d951d5263988d266001600160a01b038316105b6134745760405162461bcd60e51b81526020600482015260016024820152602960f91b60448201526064016109a2565b640100000000600160c01b03602083901b166001600160801b03811160071b81811c67ffffffffffffffff811160061b90811c63ffffffff811160051b90811c61ffff811160041b90811c60ff8111600390811b91821c600f811160021b90811c918211600190811b92831c9790881196179094179092171790911717176080811061350857607f810383901c9150613512565b80607f0383901b91505b908002607f81811c60ff83811c9190911c800280831c81831c1c800280841c81841c1c800280851c81851c1c800280861c81861c1c800280871c81871c1c800280881c81881c1c800280891c81891c1c8002808a1c818a1c1c8002808b1c818b1c1c8002808c1c818c1c1c8002808d1c818d1c1c8002808e1c9c81901c9c909c1c80029c8d901c9e9d607f198f0160401b60c09190911c678000000000000000161760c19b909b1c674000000000000000169a909a1760c29990991c672000000000000000169890981760c39790971c671000000000000000169690961760c49590951c670800000000000000169490941760c59390931c670400000000000000169290921760c69190911c670200000000000000161760c79190911c670100000000000000161760c89190911c6680000000000000161760c99190911c6640000000000000161760ca9190911c6620000000000000161760cb9190911c6610000000000000161760cc9190911c6608000000000000161760cd9190911c66040000000000001617693627a301d71055774c8581026f028f6481ab7f045a5af012a19d003aa9198101608090811d906fdb2df09e81959a81455e260799a0632f8301901d600281810b9083900b1461371257886001600160a01b03166136f782612e41565b6001600160a01b0316111561370c5781613714565b80613714565b815b9998505050505050505050565b60008060008412156137405791159161373984614338565b9150613744565b8391505b50815b9250929050565b600061377460008512613761578461376d565b61376d856000196143f3565b848461217f565b905060008412156121785761217581614338565b6000612bcf82612bbd565b60008183850980156137a457600191505b509392505050565b600281900b60081d60006137c261010084614316565b9050915091565b60008082116137d757600080fd5b600160801b82106137ea57608091821c91015b68010000000000000000821061380257604091821c91015b640100000000821061381657602091821c91015b62010000821061382857601091821c91015b610100821061383957600891821c91015b6010821061384957600491821c91015b6004821061385957600291821c91015b60028210613865576001015b919050565b600080821161387857600080fd5b5060ff6001600160801b0382161561389357607f190161389b565b608082901c91505b67ffffffffffffffff8216156138b457603f19016138bc565b604082901c91505b63ffffffff8216156138d157601f19016138d9565b602082901c91505b61ffff8216156138ec57600f19016138f4565b601082901c91505b60ff821615613906576007190161390e565b600882901c91505b600f8216156139205760031901613928565b600482901c91505b600382161561393a5760011901613942565b600282901c91505b60018216156138655760001901919050565b6000836001600160a01b0316856001600160a01b03161115613974579293925b816139a15761399c836001600160801b03168686036001600160a01b0316600160601b61217f565b611b1a565b611b1a836001600160801b03168686036001600160a01b0316600160601b613b13565b6000836001600160a01b0316856001600160a01b031611156139e4579293925b600160601b600160e01b03606084901b166001600160a01b038686038116908716613a0e57600080fd5b83613a4457866001600160a01b0316613a318383896001600160a01b031661217f565b81613a3e57613a3e614300565b04613a70565b613a70613a5b8383896001600160a01b0316613b13565b886001600160a01b0316808204910615150190565b979650505050505050565b600080856001600160a01b031611613a9257600080fd5b6000846001600160801b031611613aa857600080fd5b81613aba5761399c8585856001613b53565b611b1a8585856001613c40565b600080856001600160a01b031611613ade57600080fd5b6000846001600160801b031611613af457600080fd5b81613b065761399c8585856000613c40565b611b1a8585856000613b53565b6000613b2084848461217f565b905060008280613b3257613b32614300565b8486091115612178576000198110613b4957600080fd5b6001019392505050565b60008115613bcc5760006001600160a01b03841115613b8957613b8484600160601b876001600160801b031661217f565b613ba7565b6001600160801b038516606085901b81613ba557613ba5614300565b045b9050613bc4613bbf6001600160a01b03881683613d3b565b613d4b565b915050611b1d565b60006001600160a01b03841115613bfa57613bf584600160601b876001600160801b0316613b13565b613c17565b613c17606085901b6001600160801b038716808204910615150190565b905080866001600160a01b031611613c2e57600080fd5b6001600160a01b038616039050611b1d565b600082613c4e575083611b1d565b600160601b600160e01b03606085901b168215613cee576001600160a01b03861684810290858281613c8257613c82614300565b041415613cb357818101828110613cb157613ca783896001600160a01b031683613b13565b9350505050611b1d565b505b613ce582613cda878a6001600160a01b03168681613cd357613cd3614300565b0490613d3b565b808204910615150190565b92505050611b1d565b6001600160a01b03861684810290858281613d0b57613d0b614300565b04148015613d1857508082115b613d2157600080fd5b808203613ca7613bbf846001600160a01b038b1684613b13565b80820182811015612bcf57600080fd5b806001600160a01b038116811461386557600080fd5b8015158114613d6f57600080fd5b50565b6001600160a01b0381168114613d6f57600080fd5b600080600060608486031215613d9c57600080fd5b8335613da781613d61565b9250602084013591506040840135613dbe81613d72565b809150509250925092565b600060208284031215613ddb57600080fd5b5035919050565b8060020b8114613d6f57600080fd5b60008060408385031215613e0457600080fd5b8235613e0f81613de2565b91506020830135613e1f81613de2565b809150509250929050565b8151815260208083015190820152604080830151908201526060808301519082015260808101612bcf565b600060208284031215613e6757600080fd5b813561217881613de2565b600060e08284031215613e8457600080fd5b50919050565b62ffffff81168114613d6f57600080fd5b600060208284031215613ead57600080fd5b813561217881613e8a565b600080600060608486031215613ecd57600080fd5b833592506020840135613edf81613d72565b91506040840135613dbe81613d61565b60008083601f840112613f0157600080fd5b50813567ffffffffffffffff811115613f1957600080fd5b60208301915083602082850101111561374757600080fd5b60008060008060608587031215613f4757600080fd5b8435935060208501359250604085013567ffffffffffffffff811115613f6c57600080fd5b613f7887828801613eef565b95989497509550505050565b80600f0b8114613d6f57600080fd5b600080600060608486031215613fa857600080fd5b8335613fb381613de2565b92506020840135613fc381613de2565b91506040840135613dbe81613f84565b8381526020810183905260c08101611b1d6040830184805182526020810151602083015260408101516040830152606081015160608301525050565b634e487b7160e01b600052604160045260246000fd5b6000602080838503121561403857600080fd5b823567ffffffffffffffff8082111561405057600080fd5b818501915085601f83011261406457600080fd5b8135818111156140765761407661400f565b8060051b604051601f19603f8301168101818110858211171561409b5761409b61400f565b6040529182528482019250838101850191888311156140b957600080fd5b938501935b828510156140d7578435845293850193928501926140be565b98975050505050505050565b6020808252825182820181905260009190848201906040850190845b8181101561411b578351835292840192918401916001016140ff565b50909695505050505050565b634e487b7160e01b600052601160045260246000fd5b60006001600160a01b038381169083168181101561415d5761415d614127565b039392505050565b60006001600160a01b0382811684821680830382111561418757614187614127565b01949350505050565b600080604083850312156141a357600080fd5b505080516020909101519092909150565b634e487b7160e01b600052600160045260246000fd5b600082198211156141dd576141dd614127565b500190565b805161ffff8116811461386557600080fd5b600080600080600080600060e0888a03121561420f57600080fd5b875161421a81613d72565b602089015190975061422b81613de2565b9550614239604089016141e2565b9450614247606089016141e2565b9350614255608089016141e2565b925060a088015160ff8116811461426b57600080fd5b60c089015190925061427c81613d61565b8091505092959891949750929550565b60008282101561429e5761429e614127565b500390565b6000602082840312156142b557600080fd5b813561217881613d72565b6000602082840312156142d257600080fd5b815161217881613d72565b60008160020b627fffff198114156142f7576142f7614127565b60000392915050565b634e487b7160e01b600052601260045260246000fd5b60008260020b8061432957614329614300565b808360020b0791505092915050565b6000600160ff1b82141561434e5761434e614127565b5060000390565b600081600f0b83600f0b60016001607f1b0360008213600084138383048511828216161561438557614385614127565b6f7fffffffffffffffffffffffffffffff1960008512828116878305871216156143b1576143b1614127565b600087129250858205871284841616156143cd576143cd614127565b858505871281841616156143e3576143e3614127565b5050509290910295945050505050565b60006001600160ff1b038184138284138082168684048611161561441957614419614127565b600160ff1b600087128281168783058912161561443857614438614127565b6000871292508782058712848416161561445457614454614127565b8785058712818416161561446a5761446a614127565b505050929093029392505050565b60006020828403121561448a57600080fd5b815161217881613e8a565b6000602082840312156144a757600080fd5b5051919050565b60008083128015600160ff1b8501841216156144cc576144cc614127565b6001600160ff1b03840183138116156144e7576144e7614127565b50500390565b600080821280156001600160ff1b038490038513161561450f5761450f614127565b600160ff1b839003841281161561452857614528614127565b50500190565b80516001600160801b038116811461386557600080fd5b6000806040838503121561455857600080fd5b6145618361452e565b915061456f6020840161452e565b90509250929050565b600062ffffff8381169083168181101561415d5761415d614127565b6000826145a3576145a3614300565b600160ff1b8214600019841416156145bd576145bd614127565b500590565b634e487b7160e01b600052602160045260246000fd5b60008160001904831182151516156145f2576145f2614127565b500290565b60008261460657614606614300565b500490565b600062ffffff80831681851680830382111561418757614187614127565b60006020828403121561463b57600080fd5b6121788261452e565b60006020828403121561465657600080fd5b815161217881613de2565b600080600080600080600080610100898b03121561467e57600080fd5b6146878961452e565b9750602089015161469781613f84565b80975050604089015195506060890151945060808901518060060b81146146bd57600080fd5b60a08a01519094506146ce81613d72565b60c08a015190935063ffffffff811681146146e857600080fd5b60e08a01519092506146f981613d61565b809150509295985092959890939650565b600081600f0b60016001607f1b03198114156142f7576142f7614127565b60008160020b8360020b6000811281627fffff190183128115161561474f5761474f614127565b81627fffff01831381161561476657614766614127565b5090039392505050565b600065ffffffffffff8381169083168181101561415d5761415d614127565b60008160020b8360020b806147a6576147a6614300565b627fffff198214600019821416156147c0576147c0614127565b90059392505050565b60008160020b627fffff198114156147e3576147e3614127565b6000190192915050565b60008160020b8360020b627fffff60008213600084138383048511828216161561481957614819614127565b627fffff1960008512828116878305871216156143b1576143b1614127565b600060ff821660ff84168082101561485257614852614127565b90039392505050565b60008160020b8360020b6000821282627fffff0382138115161561488157614881614127565b82627fffff1903821281161561489957614899614127565b5001939250505056fea164736f6c634300080a000a",
  "devdoc": {
    "kind": "dev",
    "methods": {
      "swap(bool,int256,uint160)": {
        "params": {
          "amountSpecified": ": The amount of the swap, which implicitly configures the swap as exact input (positive), or exact output (negative)",
          "sqrtPriceLimitX96": ": The Q64.96 sqrt price limit. If zero for one, the price cannot be less than this value after the swap. If one for zero, the price cannot be greater than this value after the swap.",
          "swapVTokenForVBase": ": The direction of the swap, true for vToken to vBase, false for vBase to vToken"
        }
      },
      "swapToken(int256,uint160,bool)": {
        "params": {
          "amount": ": positive means long, negative means short",
          "isNotional": ": true means amountSpecified is dollar amount",
          "sqrtPriceLimitX96": ": The Q64.96 sqrt price limit. If zero for one, the price cannot be less than this value after the swap. If one for zero, the price cannot be greater than this value after the swap."
        }
      }
    },
    "version": 1
  },
  "userdoc": {
    "kind": "user",
    "methods": {
      "__VPoolWrapper_init((address,address,address,address,uint24,uint24,uint24))": {
        "notice": "PLATFORM FUNCTIONS"
      },
      "getSumAX128()": {
        "notice": "VIEW METHODS"
      },
      "setLiquidityFee(uint24)": {
        "notice": "ADMIN FUNCTIONS"
      },
      "swap(bool,int256,uint160)": {
        "notice": "Swap vToken for vBase, or vBase for vToken"
      },
      "swapToken(int256,uint160,bool)": {
        "notice": "swaps token"
      },
      "uniswapV3SwapCallback(int256,int256,bytes)": {
        "notice": "UNISWAP V3 POOL CALLBACkS"
      }
    },
    "version": 1
  },
  "storageLayout": {
    "storage": [
      {
        "astId": 298,
        "contract": "contracts/protocol/wrapper/VPoolWrapper.sol:VPoolWrapper",
        "label": "_initialized",
        "offset": 0,
        "slot": "0",
        "type": "t_bool"
      },
      {
        "astId": 301,
        "contract": "contracts/protocol/wrapper/VPoolWrapper.sol:VPoolWrapper",
        "label": "_initializing",
        "offset": 1,
        "slot": "0",
        "type": "t_bool"
      },
      {
        "astId": 22002,
        "contract": "contracts/protocol/wrapper/VPoolWrapper.sol:VPoolWrapper",
        "label": "clearingHouse",
        "offset": 2,
        "slot": "0",
        "type": "t_contract(IClearingHouse)8136"
      },
      {
        "astId": 22005,
        "contract": "contracts/protocol/wrapper/VPoolWrapper.sol:VPoolWrapper",
        "label": "vToken",
        "offset": 0,
        "slot": "1",
        "type": "t_contract(IVToken)8387"
      },
      {
        "astId": 22008,
        "contract": "contracts/protocol/wrapper/VPoolWrapper.sol:VPoolWrapper",
        "label": "vBase",
        "offset": 0,
        "slot": "2",
        "type": "t_contract(IVBase)8218"
      },
      {
        "astId": 22011,
        "contract": "contracts/protocol/wrapper/VPoolWrapper.sol:VPoolWrapper",
        "label": "vPool",
        "offset": 0,
        "slot": "3",
        "type": "t_contract(IUniswapV3Pool)5143"
      },
      {
        "astId": 22013,
        "contract": "contracts/protocol/wrapper/VPoolWrapper.sol:VPoolWrapper",
        "label": "uniswapFeePips",
        "offset": 20,
        "slot": "3",
        "type": "t_uint24"
      },
      {
        "astId": 22015,
        "contract": "contracts/protocol/wrapper/VPoolWrapper.sol:VPoolWrapper",
        "label": "liquidityFeePips",
        "offset": 23,
        "slot": "3",
        "type": "t_uint24"
      },
      {
        "astId": 22017,
        "contract": "contracts/protocol/wrapper/VPoolWrapper.sol:VPoolWrapper",
        "label": "protocolFeePips",
        "offset": 26,
        "slot": "3",
        "type": "t_uint24"
      },
      {
        "astId": 22019,
        "contract": "contracts/protocol/wrapper/VPoolWrapper.sol:VPoolWrapper",
        "label": "accruedProtocolFee",
        "offset": 0,
        "slot": "4",
        "type": "t_uint256"
      },
      {
        "astId": 22022,
        "contract": "contracts/protocol/wrapper/VPoolWrapper.sol:VPoolWrapper",
        "label": "fpGlobal",
        "offset": 0,
        "slot": "5",
        "type": "t_struct(Info)10632_storage"
      },
      {
        "astId": 22024,
        "contract": "contracts/protocol/wrapper/VPoolWrapper.sol:VPoolWrapper",
        "label": "sumFeeGlobalX128",
        "offset": 0,
        "slot": "9",
        "type": "t_uint256"
      },
      {
        "astId": 22029,
        "contract": "contracts/protocol/wrapper/VPoolWrapper.sol:VPoolWrapper",
        "label": "ticksExtended",
        "offset": 0,
        "slot": "10",
        "type": "t_mapping(t_int24,t_struct(Info)14145_storage)"
      }
    ],
    "types": {
      "t_bool": {
        "encoding": "inplace",
        "label": "bool",
        "numberOfBytes": "1"
      },
      "t_contract(IClearingHouse)8136": {
        "encoding": "inplace",
        "label": "contract IClearingHouse",
        "numberOfBytes": "20"
      },
      "t_contract(IUniswapV3Pool)5143": {
        "encoding": "inplace",
        "label": "contract IUniswapV3Pool",
        "numberOfBytes": "20"
      },
      "t_contract(IVBase)8218": {
        "encoding": "inplace",
        "label": "contract IVBase",
        "numberOfBytes": "20"
      },
      "t_contract(IVToken)8387": {
        "encoding": "inplace",
        "label": "contract IVToken",
        "numberOfBytes": "20"
      },
      "t_int24": {
        "encoding": "inplace",
        "label": "int24",
        "numberOfBytes": "3"
      },
      "t_int256": {
        "encoding": "inplace",
        "label": "int256",
        "numberOfBytes": "32"
      },
      "t_mapping(t_int24,t_struct(Info)14145_storage)": {
        "encoding": "mapping",
        "key": "t_int24",
        "label": "mapping(int24 => struct Tick.Info)",
        "numberOfBytes": "32",
        "value": "t_struct(Info)14145_storage"
      },
      "t_struct(Info)10632_storage": {
        "encoding": "inplace",
        "label": "struct FundingPayment.Info",
        "members": [
          {
            "astId": 10625,
            "contract": "contracts/protocol/wrapper/VPoolWrapper.sol:VPoolWrapper",
            "label": "sumAX128",
            "offset": 0,
            "slot": "0",
            "type": "t_int256"
          },
          {
            "astId": 10627,
            "contract": "contracts/protocol/wrapper/VPoolWrapper.sol:VPoolWrapper",
            "label": "sumBX128",
            "offset": 0,
            "slot": "1",
            "type": "t_int256"
          },
          {
            "astId": 10629,
            "contract": "contracts/protocol/wrapper/VPoolWrapper.sol:VPoolWrapper",
            "label": "sumFpX128",
            "offset": 0,
            "slot": "2",
            "type": "t_int256"
          },
          {
            "astId": 10631,
            "contract": "contracts/protocol/wrapper/VPoolWrapper.sol:VPoolWrapper",
            "label": "timestampLast",
            "offset": 0,
            "slot": "3",
            "type": "t_uint48"
          }
        ],
        "numberOfBytes": "128"
      },
      "t_struct(Info)14145_storage": {
        "encoding": "inplace",
        "label": "struct Tick.Info",
        "members": [
          {
            "astId": 14138,
            "contract": "contracts/protocol/wrapper/VPoolWrapper.sol:VPoolWrapper",
            "label": "sumALastX128",
            "offset": 0,
            "slot": "0",
            "type": "t_int256"
          },
          {
            "astId": 14140,
            "contract": "contracts/protocol/wrapper/VPoolWrapper.sol:VPoolWrapper",
            "label": "sumBOutsideX128",
            "offset": 0,
            "slot": "1",
            "type": "t_int256"
          },
          {
            "astId": 14142,
            "contract": "contracts/protocol/wrapper/VPoolWrapper.sol:VPoolWrapper",
            "label": "sumFpOutsideX128",
            "offset": 0,
            "slot": "2",
            "type": "t_int256"
          },
          {
            "astId": 14144,
            "contract": "contracts/protocol/wrapper/VPoolWrapper.sol:VPoolWrapper",
            "label": "sumFeeOutsideX128",
            "offset": 0,
            "slot": "3",
            "type": "t_uint256"
          }
        ],
        "numberOfBytes": "128"
      },
      "t_uint24": {
        "encoding": "inplace",
        "label": "uint24",
        "numberOfBytes": "3"
      },
      "t_uint256": {
        "encoding": "inplace",
        "label": "uint256",
        "numberOfBytes": "32"
      },
      "t_uint48": {
        "encoding": "inplace",
        "label": "uint48",
        "numberOfBytes": "6"
      }
    }
  }
}