{
  "address": "0x1bF78DD519868722D7bEb438A8168e67D7beeD56",
  "abi": [
    {
      "inputs": [
        {
          "internalType": "int24",
          "name": "tickLower",
          "type": "int24"
        },
        {
          "internalType": "int24",
          "name": "tickUpper",
          "type": "int24"
        }
      ],
      "name": "InvalidTicks",
      "type": "error"
    },
    {
      "inputs": [],
      "name": "NotClearingHouse",
      "type": "error"
    },
    {
      "inputs": [],
      "name": "NotGovernance",
      "type": "error"
    },
    {
      "inputs": [],
      "name": "NotUniswapV3Pool",
      "type": "error"
    },
    {
      "inputs": [
        {
          "internalType": "uint128",
          "name": "value",
          "type": "uint128"
        }
      ],
      "name": "SafeCaseInt128Overflow",
      "type": "error"
    },
    {
      "inputs": [
        {
          "internalType": "uint256",
          "name": "value",
          "type": "uint256"
        }
      ],
      "name": "SafeCastInt256Overflow",
      "type": "error"
    },
    {
      "anonymous": false,
      "inputs": [
        {
          "indexed": false,
          "internalType": "uint256",
          "name": "amount",
          "type": "uint256"
        }
      ],
      "name": "AccruedProtocolFeeCollected",
      "type": "event"
    },
    {
      "anonymous": false,
      "inputs": [
        {
          "indexed": false,
          "internalType": "int24",
          "name": "tickLower",
          "type": "int24"
        },
        {
          "indexed": false,
          "internalType": "int24",
          "name": "tickUpper",
          "type": "int24"
        },
        {
          "indexed": false,
          "internalType": "uint128",
          "name": "liquidity",
          "type": "uint128"
        },
        {
          "indexed": false,
          "internalType": "uint256",
          "name": "vTokenPrincipal",
          "type": "uint256"
        },
        {
          "indexed": false,
          "internalType": "uint256",
          "name": "basePrincipal",
          "type": "uint256"
        }
      ],
      "name": "Burn",
      "type": "event"
    },
    {
      "anonymous": false,
      "inputs": [
        {
          "indexed": false,
          "internalType": "uint24",
          "name": "liquidityFeePips",
          "type": "uint24"
        }
      ],
      "name": "LiquidityFeeUpdated",
      "type": "event"
    },
    {
      "anonymous": false,
      "inputs": [
        {
          "indexed": false,
          "internalType": "int24",
          "name": "tickLower",
          "type": "int24"
        },
        {
          "indexed": false,
          "internalType": "int24",
          "name": "tickUpper",
          "type": "int24"
        },
        {
          "indexed": false,
          "internalType": "uint128",
          "name": "liquidity",
          "type": "uint128"
        },
        {
          "indexed": false,
          "internalType": "uint256",
          "name": "vTokenPrincipal",
          "type": "uint256"
        },
        {
          "indexed": false,
          "internalType": "uint256",
          "name": "basePrincipal",
          "type": "uint256"
        }
      ],
      "name": "Mint",
      "type": "event"
    },
    {
      "anonymous": false,
      "inputs": [
        {
          "indexed": false,
          "internalType": "uint24",
          "name": "protocolFeePips",
          "type": "uint24"
        }
      ],
      "name": "ProtocolFeeUpdated",
      "type": "event"
    },
    {
      "anonymous": false,
      "inputs": [
        {
          "indexed": false,
          "internalType": "int256",
          "name": "vTokenIn",
          "type": "int256"
        },
        {
          "indexed": false,
          "internalType": "int256",
          "name": "vBaseIn",
          "type": "int256"
        },
        {
          "indexed": false,
          "internalType": "uint256",
          "name": "liquidityFees",
          "type": "uint256"
        },
        {
          "indexed": false,
          "internalType": "uint256",
          "name": "protocolFees",
          "type": "uint256"
        }
      ],
      "name": "Swap",
      "type": "event"
    },
    {
      "inputs": [
        {
          "components": [
            {
              "internalType": "contract IClearingHouse",
              "name": "clearingHouse",
              "type": "address"
            },
            {
              "internalType": "contract IVToken",
              "name": "vToken",
              "type": "address"
            },
            {
              "internalType": "contract IVBase",
              "name": "vBase",
              "type": "address"
            },
            {
              "internalType": "contract IUniswapV3Pool",
              "name": "vPool",
              "type": "address"
            },
            {
              "internalType": "uint24",
              "name": "liquidityFeePips",
              "type": "uint24"
            },
            {
              "internalType": "uint24",
              "name": "protocolFeePips",
              "type": "uint24"
            },
            {
              "internalType": "uint24",
              "name": "UNISWAP_V3_DEFAULT_FEE_TIER",
              "type": "uint24"
            }
          ],
          "internalType": "struct IVPoolWrapper.InitializeVPoolWrapperParams",
          "name": "params",
          "type": "tuple"
        }
      ],
      "name": "__initialize_VPoolWrapper",
      "outputs": [],
      "stateMutability": "nonpayable",
      "type": "function"
    },
    {
      "inputs": [],
      "name": "accruedProtocolFee",
      "outputs": [
        {
          "internalType": "uint256",
          "name": "",
          "type": "uint256"
        }
      ],
      "stateMutability": "view",
      "type": "function"
    },
    {
      "inputs": [
        {
          "internalType": "int24",
          "name": "tickLower",
          "type": "int24"
        },
        {
          "internalType": "int24",
          "name": "tickUpper",
          "type": "int24"
        },
        {
          "internalType": "uint128",
          "name": "liquidity",
          "type": "uint128"
        }
      ],
      "name": "burn",
      "outputs": [
        {
          "internalType": "uint256",
          "name": "vTokenPrincipal",
          "type": "uint256"
        },
        {
          "internalType": "uint256",
          "name": "basePrincipal",
          "type": "uint256"
        },
        {
          "components": [
            {
              "internalType": "int256",
              "name": "sumAX128",
              "type": "int256"
            },
            {
              "internalType": "int256",
              "name": "sumBInsideX128",
              "type": "int256"
            },
            {
              "internalType": "int256",
              "name": "sumFpInsideX128",
              "type": "int256"
            },
            {
              "internalType": "uint256",
              "name": "sumFeeInsideX128",
              "type": "uint256"
            }
          ],
          "internalType": "struct IVPoolWrapper.WrapperValuesInside",
          "name": "wrapperValuesInside",
          "type": "tuple"
        }
      ],
      "stateMutability": "nonpayable",
      "type": "function"
    },
    {
      "inputs": [],
      "name": "clearingHouse",
      "outputs": [
        {
          "internalType": "contract IClearingHouse",
          "name": "",
          "type": "address"
        }
      ],
      "stateMutability": "view",
      "type": "function"
    },
    {
      "inputs": [],
      "name": "collectAccruedProtocolFee",
      "outputs": [
        {
          "internalType": "uint256",
          "name": "accruedProtocolFeeLast",
          "type": "uint256"
        }
      ],
      "stateMutability": "nonpayable",
      "type": "function"
    },
    {
      "inputs": [
        {
          "internalType": "bytes32",
          "name": "slot",
          "type": "bytes32"
        }
      ],
      "name": "extsload",
      "outputs": [
        {
          "internalType": "bytes32",
          "name": "val",
          "type": "bytes32"
        }
      ],
      "stateMutability": "view",
      "type": "function"
    },
    {
      "inputs": [
        {
          "internalType": "bytes32[]",
          "name": "slots",
          "type": "bytes32[]"
        }
      ],
      "name": "extsload",
      "outputs": [
        {
          "internalType": "bytes32[]",
          "name": "",
          "type": "bytes32[]"
        }
      ],
      "stateMutability": "view",
      "type": "function"
    },
    {
      "inputs": [],
      "name": "fpGlobal",
      "outputs": [
        {
          "internalType": "int256",
          "name": "sumAX128",
          "type": "int256"
        },
        {
          "internalType": "int256",
          "name": "sumBX128",
          "type": "int256"
        },
        {
          "internalType": "int256",
          "name": "sumFpX128",
          "type": "int256"
        },
        {
          "internalType": "uint48",
          "name": "timestampLast",
          "type": "uint48"
        }
      ],
      "stateMutability": "view",
      "type": "function"
    },
    {
      "inputs": [],
      "name": "getExtrapolatedSumAX128",
      "outputs": [
        {
          "internalType": "int256",
          "name": "",
          "type": "int256"
        }
      ],
      "stateMutability": "view",
      "type": "function"
    },
    {
      "inputs": [
        {
          "internalType": "int24",
          "name": "tickLower",
          "type": "int24"
        },
        {
          "internalType": "int24",
          "name": "tickUpper",
          "type": "int24"
        }
      ],
      "name": "getExtrapolatedValuesInside",
      "outputs": [
        {
          "components": [
            {
              "internalType": "int256",
              "name": "sumAX128",
              "type": "int256"
            },
            {
              "internalType": "int256",
              "name": "sumBInsideX128",
              "type": "int256"
            },
            {
              "internalType": "int256",
              "name": "sumFpInsideX128",
              "type": "int256"
            },
            {
              "internalType": "uint256",
              "name": "sumFeeInsideX128",
              "type": "uint256"
            }
          ],
          "internalType": "struct IVPoolWrapper.WrapperValuesInside",
          "name": "wrapperValuesInside",
          "type": "tuple"
        }
      ],
      "stateMutability": "view",
      "type": "function"
    },
    {
      "inputs": [],
      "name": "getSumAX128",
      "outputs": [
        {
          "internalType": "int256",
          "name": "",
          "type": "int256"
        }
      ],
      "stateMutability": "view",
      "type": "function"
    },
    {
      "inputs": [
        {
          "internalType": "int24",
          "name": "tickLower",
          "type": "int24"
        },
        {
          "internalType": "int24",
          "name": "tickUpper",
          "type": "int24"
        }
      ],
      "name": "getValuesInside",
      "outputs": [
        {
          "components": [
            {
              "internalType": "int256",
              "name": "sumAX128",
              "type": "int256"
            },
            {
              "internalType": "int256",
              "name": "sumBInsideX128",
              "type": "int256"
            },
            {
              "internalType": "int256",
              "name": "sumFpInsideX128",
              "type": "int256"
            },
            {
              "internalType": "uint256",
              "name": "sumFeeInsideX128",
              "type": "uint256"
            }
          ],
          "internalType": "struct IVPoolWrapper.WrapperValuesInside",
          "name": "wrapperValuesInside",
          "type": "tuple"
        }
      ],
      "stateMutability": "view",
      "type": "function"
    },
    {
      "inputs": [],
      "name": "liquidityFeePips",
      "outputs": [
        {
          "internalType": "uint24",
          "name": "",
          "type": "uint24"
        }
      ],
      "stateMutability": "view",
      "type": "function"
    },
    {
      "inputs": [
        {
          "internalType": "int24",
          "name": "tickLower",
          "type": "int24"
        },
        {
          "internalType": "int24",
          "name": "tickUpper",
          "type": "int24"
        },
        {
          "internalType": "uint128",
          "name": "liquidity",
          "type": "uint128"
        }
      ],
      "name": "mint",
      "outputs": [
        {
          "internalType": "uint256",
          "name": "vTokenPrincipal",
          "type": "uint256"
        },
        {
          "internalType": "uint256",
          "name": "basePrincipal",
          "type": "uint256"
        },
        {
          "components": [
            {
              "internalType": "int256",
              "name": "sumAX128",
              "type": "int256"
            },
            {
              "internalType": "int256",
              "name": "sumBInsideX128",
              "type": "int256"
            },
            {
              "internalType": "int256",
              "name": "sumFpInsideX128",
              "type": "int256"
            },
            {
              "internalType": "uint256",
              "name": "sumFeeInsideX128",
              "type": "uint256"
            }
          ],
          "internalType": "struct IVPoolWrapper.WrapperValuesInside",
          "name": "wrapperValuesInside",
          "type": "tuple"
        }
      ],
      "stateMutability": "nonpayable",
      "type": "function"
    },
    {
      "inputs": [],
      "name": "protocolFeePips",
      "outputs": [
        {
          "internalType": "uint24",
          "name": "",
          "type": "uint24"
        }
      ],
      "stateMutability": "view",
      "type": "function"
    },
    {
      "inputs": [
        {
          "internalType": "uint24",
          "name": "liquidityFeePips_",
          "type": "uint24"
        }
      ],
      "name": "setLiquidityFee",
      "outputs": [],
      "stateMutability": "nonpayable",
      "type": "function"
    },
    {
      "inputs": [
        {
          "internalType": "uint24",
          "name": "protocolFeePips_",
          "type": "uint24"
        }
      ],
      "name": "setProtocolFee",
      "outputs": [],
      "stateMutability": "nonpayable",
      "type": "function"
    },
    {
      "inputs": [],
      "name": "sumFeeGlobalX128",
      "outputs": [
        {
          "internalType": "uint256",
          "name": "",
          "type": "uint256"
        }
      ],
      "stateMutability": "view",
      "type": "function"
    },
    {
      "inputs": [
        {
          "internalType": "bool",
          "name": "swapVTokenForVBase",
          "type": "bool"
        },
        {
          "internalType": "int256",
          "name": "amountSpecified",
          "type": "int256"
        },
        {
          "internalType": "uint160",
          "name": "sqrtPriceLimitX96",
          "type": "uint160"
        }
      ],
      "name": "swap",
      "outputs": [
        {
          "internalType": "int256",
          "name": "",
          "type": "int256"
        },
        {
          "internalType": "int256",
          "name": "",
          "type": "int256"
        }
      ],
      "stateMutability": "nonpayable",
      "type": "function"
    },
    {
      "inputs": [
        {
          "internalType": "int256",
          "name": "amount",
          "type": "int256"
        },
        {
          "internalType": "uint160",
          "name": "sqrtPriceLimitX96",
          "type": "uint160"
        },
        {
          "internalType": "bool",
          "name": "isNotional",
          "type": "bool"
        }
      ],
      "name": "swapToken",
      "outputs": [
        {
          "internalType": "int256",
          "name": "vTokenAmount",
          "type": "int256"
        },
        {
          "internalType": "int256",
          "name": "vBaseAmount",
          "type": "int256"
        }
      ],
      "stateMutability": "nonpayable",
      "type": "function"
    },
    {
      "inputs": [
        {
          "internalType": "int24",
          "name": "",
          "type": "int24"
        }
      ],
      "name": "ticksExtended",
      "outputs": [
        {
          "internalType": "int256",
          "name": "sumALastX128",
          "type": "int256"
        },
        {
          "internalType": "int256",
          "name": "sumBOutsideX128",
          "type": "int256"
        },
        {
          "internalType": "int256",
          "name": "sumFpOutsideX128",
          "type": "int256"
        },
        {
          "internalType": "uint256",
          "name": "sumFeeOutsideX128",
          "type": "uint256"
        }
      ],
      "stateMutability": "view",
      "type": "function"
    },
    {
      "inputs": [],
      "name": "uniswapFeePips",
      "outputs": [
        {
          "internalType": "uint24",
          "name": "",
          "type": "uint24"
        }
      ],
      "stateMutability": "view",
      "type": "function"
    },
    {
      "inputs": [
        {
          "internalType": "uint256",
          "name": "vTokenAmount",
          "type": "uint256"
        },
        {
          "internalType": "uint256",
          "name": "vBaseAmount",
          "type": "uint256"
        },
        {
          "internalType": "bytes",
          "name": "",
          "type": "bytes"
        }
      ],
      "name": "uniswapV3MintCallback",
      "outputs": [],
      "stateMutability": "nonpayable",
      "type": "function"
    },
    {
      "inputs": [
        {
          "internalType": "int256",
          "name": "amount0Delta",
          "type": "int256"
        },
        {
          "internalType": "int256",
          "name": "amount1Delta",
          "type": "int256"
        },
        {
          "internalType": "bytes",
          "name": "",
          "type": "bytes"
        }
      ],
      "name": "uniswapV3SwapCallback",
      "outputs": [],
      "stateMutability": "nonpayable",
      "type": "function"
    },
    {
      "inputs": [],
      "name": "updateGlobalFundingState",
      "outputs": [],
      "stateMutability": "nonpayable",
      "type": "function"
    },
    {
      "inputs": [],
      "name": "vBase",
      "outputs": [
        {
          "internalType": "contract IVBase",
          "name": "",
          "type": "address"
        }
      ],
      "stateMutability": "view",
      "type": "function"
    },
    {
      "inputs": [],
      "name": "vPool",
      "outputs": [
        {
          "internalType": "contract IUniswapV3Pool",
          "name": "",
          "type": "address"
        }
      ],
      "stateMutability": "view",
      "type": "function"
    },
    {
      "inputs": [],
      "name": "vToken",
      "outputs": [
        {
          "internalType": "contract IVToken",
          "name": "",
          "type": "address"
        }
      ],
      "stateMutability": "view",
      "type": "function"
    }
  ],
  "transactionHash": "0x8a99c63669a07cbfb709169f1a452759483808bf6e6be6fadb5530aa443e5656",
  "args": [],
  "solcInputHash": "b610aa6e689876642b3952c8de631e3b",
  "bytecode": "0x608060405234801561001057600080fd5b50614a9f806100206000396000f3fe608060405234801561001057600080fd5b50600436106101c45760003560e01c80638b1e9781116100f9578063c04b98c411610097578063d9fe08d411610071578063d9fe08d414610443578063dbd035ff14610456578063fa461e3314610476578063fca6fbf21461048957600080fd5b8063c04b98c414610414578063c5f1916c1461041d578063d34879971461043057600080fd5b8063a3a1e7e9116100d3578063a3a1e7e9146103dd578063a3c35e2c146103e5578063acfd7928146103f8578063bb152c531461040157600080fd5b80638b1e9781146103a45780639bb1a99c146103b7578063a34123a7146103ca57600080fd5b806348aaa8c0116101665780636c544335116101405780636c5443351461032d5780637779815c146103735780637feedaa11461037b57806386c8e9a71461038e57600080fd5b806348aaa8c0146102bd5780635e622abc146103125780636719578c1461031a57600080fd5b80631dce5fcf116101a25780631dce5fcf146102515780631e2eaeaf146102735780632a99a7921461029357806333f90963146102b357600080fd5b806302dc9951146101c95780630af96800146101f8578063195cd92c14610229575b600080fd5b6003546101df90600160a01b900462ffffff1681565b60405162ffffff90911681526020015b60405180910390f35b600054610211906201000090046001600160a01b031681565b6040516001600160a01b0390911681526020016101ef565b61023c610237366004613fcd565b61049f565b604080519283526020830191909152016101ef565b61026461025f366004614033565b610746565b6040516101ef93929190614073565b6102856102813660046140af565b5490565b6040519081526020016101ef565b6102a66102a13660046140c8565b61092b565b6040516101ef9190614101565b6102bb610a57565b005b6102f26102cb36600461412c565b600a6020526000908152604090208054600182015460028301546003909301549192909184565b6040805194855260208501939093529183015260608201526080016101ef565b610285610af2565b600354610211906001600160a01b031681565b60055460065460075460085461034b9392919065ffffffffffff1684565b6040805194855260208501939093529183015265ffffffffffff1660608201526080016101ef565b600554610285565b6102bb61038936600461415a565b610b71565b6003546101df90600160b81b900462ffffff1681565b6102bb6103b236600461415a565b610c72565b600154610211906001600160a01b031681565b6102646103d8366004614033565b610d6c565b610285610f36565b6102a66103f33660046140c8565b610fd7565b61028560045481565b61023c61040f366004614177565b611174565b61028560095481565b600254610211906001600160a01b031681565b6102bb61043e3660046141f0565b6111a5565b6102bb610451366004614243565b6112ad565b610469610464366004614271565b6114d0565b6040516101ef919061432f565b6102bb6104843660046141f0565b6114fe565b6003546101df90600160d01b900462ffffff1681565b6000805481906201000090046001600160a01b031633146104d357604051638597d08b60e01b815260040160405180910390fd5b60008412156001600160a01b038416610522578561050f5761050a600173fffd8963efd1fc6a506488495d951d5263988d26614389565b61051f565b61051f6401000276a360016143b1565b93505b6105546040518060a0016040528060008152602001600081526020016000815260200160008152602001600081525090565b858152600354610589908390899062ffffff600160a01b8204811691600160b81b8104821691600160d01b90910416866116c7565b805160035460009182916105ae916001600160a01b03909116908b908a611772611958565b6003548551604051630251596160e31b81523060048201528d1515602482015260448101919091526001600160a01b038b8116606483015260a06084830152600060a4830152939550919350919091169063128acb089060c40160408051808303816000875af1158015610626573d6000803e3d6000fd5b505050506040513d601f19601f8201168201806040525081019061064a91906143dc565b604085015260208401819052821480156106675750826040015181145b61067357610673614400565b50506003546106a7908390899062ffffff600160a01b8204811691600160b81b8104821691600160d01b90910416866119d8565b8060800151600460008282546106bd9190614416565b909155506106cb9050611ae8565b7fb0ecd2f0335c5433548e5039eef18bcfbe9cd48abfb781dfa0cc522164cb876f8160200151826040015183606001518460800151604051610726949392919093845260208401929092526040830152606082015260800190565b60405180910390a180602001518160400151935093505050935093915050565b6000806107746040518060800160405280600081526020016000815260200160008152602001600081525090565b6000546201000090046001600160a01b031633146107a557604051638597d08b60e01b815260040160405180910390fd5b85858060020b8260020b1215806107c35750620d89e719600283900b125b806107df57506107d6620d89e71961442e565b60020b8160020b135b806107f657506107f0600a83614467565b60020b15155b8061080d5750610807600a82614467565b60020b15155b1561083e5760405163957b5ed560e01b8152600283810b600483015282900b60248201526044015b60405180910390fd5b610846610a57565b610877888861085d896001600160801b0316611c8b565b600354610872906001600160a01b0316611cc9565b611d3a565b600354604051633c8a7d8d60e01b815230600482015260028b810b60248301528a900b60448201526001600160801b038916606482015260a06084820152600060a4820181905292955082916001600160a01b031690633c8a7d8d9060c40160408051808303816000875af11580156108f4573d6000803e3d6000fd5b505050506040513d601f19601f8201168201806040525081019061091891906143dc565b909b909a50949850939650505050505050565b6109566040518060800160405280600081526020016000815260200160008152602001600081525090565b60035460408051633850c7bd60e01b815290516000926001600160a01b031691633850c7bd9160048083019260e09291908290030181865afa1580156109a0573d6000803e3d6000fd5b505050506040513d601f19601f820116820180604052508101906109c491906144a6565b505060408051608081018252600554815260065460208201526007549181019190915260085465ffffffffffff166060820152939550929350610a0a9250610f36915050565b808252600554600654600754610a1f93611e8b565b604082015280518352600954610a3f90600a908790879086908690611ebb565b60608601526040850152602084015250909392505050565b6000805460015460405163d257be2b60e01b81526001600160a01b03918216600482015283926201000090049091169063d257be2b906024016040805180830381865afa158015610aac573d6000803e3d6000fd5b505050506040513d601f19601f82011682018060405250810190610ad091906143dc565b91509150610aee60006001610ae24290565b60059291908686612013565b5050565b600080546201000090046001600160a01b03163314610b2457604051638597d08b60e01b815260040160405180910390fd5b6001600454610b33919061453e565b60016004556040518181529091507f889bbef14ccbbb6f97773359c9c09396f67ed97695236771816a304ec5d886119060200160405180910390a190565b600060029054906101000a90046001600160a01b03166001600160a01b0316635aa6e6756040518163ffffffff1660e01b8152600401602060405180830381865afa158015610bc4573d6000803e3d6000fd5b505050506040513d601f19601f82011682018060405250810190610be89190614555565b6001600160a01b0316336001600160a01b031614610c1957604051632d5be4cb60e21b815260040160405180910390fd5b6003805462ffffff60d01b1916600160d01b62ffffff8416908102919091179091556040519081527f2edf7eef14cb246dab2aac555e300928981632918159d9e33fcaa24dcd38cb40906020015b60405180910390a150565b600060029054906101000a90046001600160a01b03166001600160a01b0316635aa6e6756040518163ffffffff1660e01b8152600401602060405180830381865afa158015610cc5573d6000803e3d6000fd5b505050506040513d601f19601f82011682018060405250810190610ce99190614555565b6001600160a01b0316336001600160a01b031614610d1a57604051632d5be4cb60e21b815260040160405180910390fd5b6003805462ffffff60b81b1916600160b81b62ffffff8416908102919091179091556040519081527f5e286c9a939d59334080ddf15517957037c2228384e26bb92a368ce44c531edd90602001610c67565b600080610d9a6040518060800160405280600081526020016000815260200160008152602001600081525090565b6000546201000090046001600160a01b03163314610dcb57604051638597d08b60e01b815260040160405180910390fd5b85858060020b8260020b121580610de95750620d89e719600283900b125b80610e055750610dfc620d89e71961442e565b60020b8160020b135b80610e1c5750610e16600a83614467565b60020b15155b80610e335750610e2d600a82614467565b60020b15155b15610e5f5760405163957b5ed560e01b8152600283810b600483015282900b6024820152604401610835565b610e67610a57565b610e878888610e7e896001600160801b0316611c8b565b61085d90614572565b60035460405163a34123a760e01b815260028b810b60048301528a900b60248201526001600160801b038916604482015291945060009182916001600160a01b03169063a34123a79060640160408051808303816000875af1158015610ef1573d6000803e3d6000fd5b505050506040513d601f19601f82011682018060405250810190610f1591906143dc565b91509150819650809550610f298a8a612116565b5050505093509350939050565b6000805460015460405163d257be2b60e01b81526001600160a01b0391821660048201528392839262010000909104169063d257be2b906024016040805180830381865afa158015610f8c573d6000803e3d6000fd5b505050506040513d601f19601f82011682018060405250810190610fb091906143dc565b600554600854929450909250610fd09165ffffffffffff164285856121b3565b9250505090565b6110026040518060800160405280600081526020016000815260200160008152602001600081525090565b82828060020b8260020b1215806110205750620d89e719600283900b125b8061103c5750611033620d89e71961442e565b60020b8160020b135b80611053575061104d600a83614467565b60020b15155b8061106a5750611064600a82614467565b60020b15155b156110965760405163957b5ed560e01b8152600283810b600483015282900b6024820152604401610835565b60035460408051633850c7bd60e01b815290516000926001600160a01b031691633850c7bd9160048083019260e09291908290030181865afa1580156110e0573d6000803e3d6000fd5b505050506040513d601f19601f8201168201806040525081019061110491906144a6565b50506040805160808101825260055480825260065460208301526007549282019290925260085465ffffffffffff166060820152908a52600954949650945061115a93600a93508b92508a915086908690611ebb565b606088015260408701526020860152509295945050505050565b60008061119960008612846111915761118c87614599565b611193565b865b8661049f565b91509150935093915050565b6003546001600160a01b031633146111d0576040516308458b2b60e21b815260040160405180910390fd5b821561123b576002546040516340c10f1960e01b8152336004820152602481018590526001600160a01b03909116906340c10f1990604401600060405180830381600087803b15801561122257600080fd5b505af1158015611236573d6000803e3d6000fd5b505050505b83156112a7576001546040516340c10f1960e01b8152336004820152602481018690526001600160a01b03909116906340c10f19906044015b600060405180830381600087803b15801561128e57600080fd5b505af11580156112a2573d6000803e3d6000fd5b505050505b50505050565b600054610100900460ff16806112c6575060005460ff16155b6113295760405162461bcd60e51b815260206004820152602e60248201527f496e697469616c697a61626c653a20636f6e747261637420697320616c72656160448201526d191e481a5b9a5d1a585b1a5e995960921b6064820152608401610835565b600054610100900460ff1615801561134b576000805461ffff19166101011790555b61135860208301836145b6565b600080546001600160a01b0392909216620100000262010000600160b01b031990921691909117905561139160408301602084016145b6565b600180546001600160a01b0319166001600160a01b03929092169190911790556113c160608301604084016145b6565b600280546001600160a01b0319166001600160a01b03929092169190911790556113f160808301606084016145b6565b600380546001600160a01b0319166001600160a01b039290921691909117905561142160a083016080840161415a565b6003805462ffffff92909216600160b81b0262ffffff60b81b1990921691909117905561145460c0830160a0840161415a565b6003805462ffffff92909216600160d01b0262ffffff60d01b1990921691909117905561148760e0830160c0840161415a565b6003805462ffffff92909216600160a01b0262ffffff60a01b199092169190911790556114bb600560006001428180612013565b8015610aee576000805461ff00191690555050565b606060208251028201602001602083015b818110156114f65780515481526020016114e1565b509192915050565b6003546001600160a01b03163314611529576040516308458b2b60e21b815260040160405180910390fd5b600084131561160f57600360009054906101000a90046001600160a01b03166001600160a01b0316630dfe16816040518163ffffffff1660e01b8152600401602060405180830381865afa158015611585573d6000803e3d6000fd5b505050506040513d601f19601f820116820180604052508101906115a99190614555565b6003546040516340c10f1960e01b81526001600160a01b039182166004820152602481018790529116906340c10f1990604401600060405180830381600087803b1580156115f657600080fd5b505af115801561160a573d6000803e3d6000fd5b505050505b60008313156112a757600360009054906101000a90046001600160a01b03166001600160a01b031663d21220a76040518163ffffffff1660e01b8152600401602060405180830381865afa15801561166b573d6000803e3d6000fd5b505050506040513d601f19601f8201168201806040525081019061168f9190614555565b6003546040516340c10f1960e01b81526001600160a01b039182166004820152602481018690529116906340c10f1990604401611274565b85156117285784156116e65780516116df90856121d5565b815261176a565b80516116f59060028585612218565b6080830181905260608301829052825161171b92909161171491614416565b6001612345565b8082526116df90856121d5565b846117325761176a565b80516117419060018585612218565b6080830181905260608301829052825161176792909161176091614416565b6000612345565b81525b505050505050565b60008085611789578260a001518360800151611794565b82608001518360a001515b9150915060006117c76117a68361238a565b60035460009062ffffff600160b81b8204811691600160d01b900416612218565b50905060008560c001516001600160801b03161180156117e75750600083115b156118dd576000805460015460405163d257be2b60e01b81526001600160a01b03918216600482015283926201000090049091169063d257be2b906024016040805180830381865afa158015611841573d6000803e3d6000fd5b505050506040513d601f19601f8201168201806040525081019061186591906143dc565b915091506118a5896118885761187a8661238a565b61188390614599565b611891565b6118918661238a565b60c08901516001600160801b031642610ae2565b60c08701516118c4908490600160801b906001600160801b03166123b3565b600960008282546118d59190614416565b909155505050505b83606001516001600160a01b031685604001516001600160a01b0316141561194f5783604001511561194f57602080850151604080516080810182526005548152600654938101939093526007549083015260085465ffffffffffff16606083015260095461194f92600a9291612461565b50505050505050565b6000806119ca878787878b6001600160a01b031663ddca3f436040518163ffffffff1660e01b8152600401602060405180830381865afa1580156119a0573d6000803e3d6000fd5b505050506040513d601f19601f820116820180604052508101906119c491906145d3565b886124e2565b915091509550959350505050565b8515611a62578415611a35576119f2816020015185612c06565b60208201526040810151611a099060008585612218565b60808301819052606083018290526040830151611a2b92909161171491614416565b604082015261176a565b611a43816040015185612c06565b6040820181905260808201516060830151611a2b929161176091614416565b84611aab57611a75816040015185612c06565b60408201819052611a899060008585612218565b60808301819052606083018290526040830151611a2b92909161176091614416565b611ab9816020015185612c06565b6020820152604081015160808201516060830151611adb929161171491614416565b6040820152505050505050565b6002546040516370a0823160e01b81523060048201526000916001600160a01b0316906370a0823190602401602060405180830381865afa158015611b31573d6000803e3d6000fd5b505050506040513d601f19601f82011682018060405250810190611b5591906145f0565b90508015611bbc57600254604051630852cd8d60e31b8152600481018390526001600160a01b03909116906342966c6890602401600060405180830381600087803b158015611ba357600080fd5b505af1158015611bb7573d6000803e3d6000fd5b505050505b6001546040516370a0823160e01b81523060048201526000916001600160a01b0316906370a0823190602401602060405180830381865afa158015611c05573d6000803e3d6000fd5b505050506040513d601f19601f82011682018060405250810190611c2991906145f0565b90508015610aee57600154604051630852cd8d60e31b8152600481018390526001600160a01b03909116906342966c6890602401600060405180830381600087803b158015611c7757600080fd5b505af115801561176a573d6000803e3d6000fd5b60006001607f1b826001600160801b031610611cc55760405163a9543f4d60e01b81526001600160801b0383166004820152602401610835565b5090565b6000816001600160a01b0316633850c7bd6040518163ffffffff1660e01b815260040160e060405180830381865afa158015611d09573d6000803e3d6000fd5b505050506040513d601f19601f82011682018060405250810190611d2d91906144a6565b5093979650505050505050565b611d656040518060800160405280600081526020016000815260200160008152602001600081525090565b60408051608081018252600554815260065460208201526007549181019190915260085465ffffffffffff166060820152600954600080600f87900b15611e0757835160208501516040860151600354611dd593600a938e938c938e939291908b906001600160a01b0316612c2d565b845160208601516040870151600354939550611e0493600a938d938c938e938b906001600160a01b0316612c2d565b90505b611e118989610fd7565b9450600087600f0b1215611e7f578115611e4f57600289810b6000908152600a60205260408120818155600181018290559182018190556003909101555b8015611e7f57600288810b6000908152600a60205260408120818155600181018290559182018190556003909101555b50505050949350505050565b6000611ea6611e9a8684614609565b8590600160801b612d17565b611eb09084614648565b90505b949350505050565b600285810b60009081526020889052604080822087840b8352908220600182015482549483015487519495869586959493928692611efc9290918591611e8b565b90506000846003015490508a60020b8d60020b1315611f4657828a60200151611f259190614609565b9250818a60400151611f379190614609565b9150611f43818a61453e565b90505b6001840154845460028601548c51600092611f65929091859190611e8b565b90506000866003015490508d60020b8f60020b13611fae57828d60200151611f8d9190614609565b9250818d60400151611f9f9190614609565b9150611fab818d61453e565b90505b82868e60200151611fbf9190614609565b611fc99190614609565b9a5081858e60400151611fdc9190614609565b611fe69190614609565b995080611ff3858e61453e565b611ffd919061453e565b9850505050505050505096509650969350505050565b600386015460009061202f9065ffffffffffff16858585612d74565b6001880154909150612047908290600160801b612da3565b87600201600082825461205a9190614648565b9091555050865481908890600090612073908490614648565b90915550612088905086600160801b87612d17565b87600101600082825461209b9190614648565b909155505060038701805465ffffffffffff861665ffffffffffff199091168117909155604080518954815260018a0154602082015260028a0154818301526060810192909252517f56d845af0301cb63e3fc997dd12196cdfc06529656d23e27bcf1b16393013bf79181900360800190a150505050505050565b6003546040516309e3d67b60e31b8152306004820152600284810b602483015283900b60448201526001600160801b036064820181905260848201526001600160a01b0390911690634f1eb3d89060a40160408051808303816000875af1158015612185573d6000803e3d6000fd5b505050506040513d601f19601f820116820180604052508101906121a99190614689565b5050610aee611ae8565b60006121c185858585612d74565b6121cb9087614648565b9695505050505050565b6000806121e583620f42406146b8565b60020b6121f762ffffff8516866146d4565b6122019190614759565b61220c906001614648565b9050611eb38185614648565b600080600061222687612df1565b9050600186600281111561223c5761223c614787565b141561227d578361225086620f42406146b8565b61225a91906146b8565b62ffffff1661226c82620f424061479d565b61227691906147bc565b90506122ce565b600286600281111561229157612291614787565b14156122ce57836122a586620f42406147d0565b6122af91906147d0565b62ffffff166122c182620f424061479d565b6122cb91906147bc565b90505b6000620f42406122de86886147d0565b6122ed9062ffffff168461479d565b6122f791906147bc565b612302906001614416565b9050620f424061231762ffffff88168461479d565b61232191906147bc565b61232c906001614416565b9350612338848261453e565b9250505094509492505050565b60008082600181111561235a5761235a614787565b146000851314156123765761236f8385614648565b9050612383565b6123808385614609565b90505b9392505050565b6000600160ff1b8210611cc557604051630c9687e760e21b815260048101839052602401610835565b6000808060001985870985870292508281108382030391505080600014156123ed57600084116123e257600080fd5b508290049050612383565b8084116123f957600080fd5b600084868809851960019081018716968790046003810260029081188083028203028083028203028083028203028083028203028083028203029182029003026000889003889004909101858311909403939093029303949094049190911702949350505050565b600283810b600090815260208690526040812080546001820154938201548651929461248f93909190611e8b565b84518355600183015460208601519192506124a991614609565b600183015560408401516124be908290614609565b600283015560038201546124d2908461453e565b8260030181905550505050505050565b600080856125175760405162461bcd60e51b8152602060048201526002602482015261415360f01b6044820152606401610835565b6040805160c081018252600080825260208201819052918101829052606081018290526080810182905260a0810191909152886001600160a01b0316633850c7bd6040518163ffffffff1660e01b815260040160e060405180830381865afa158015612587573d6000803e3d6000fd5b505050506040513d601f19601f820116820180604052508101906125ab91906144a6565b5060ff1660408088019190915260029490940b6020808801919091526001600160a01b0395861687528451630d34328160e11b81529451958f1695631a68650295600480820196509294509092508290030181865afa158015612612573d6000803e3d6000fd5b505050506040513d601f19601f8201168201806040525081019061263691906147ee565b6001600160801b03166060820152604080516334324e9f60e21b815290516001600160a01b038b169163d0c93a7c9160048083019260209291908290030181865afa158015612689573d6000803e3d6000fd5b505050506040513d601f19601f820116820180604052508101906126ad919061480b565b60020b608082015262ffffff851660a08201528761270b5780600001516001600160a01b0316866001600160a01b0316118015612706575073fffd8963efd1fc6a506488495d951d5263988d266001600160a01b038716105b61273d565b80600001516001600160a01b0316866001600160a01b031610801561273d57506401000276a36001600160a01b038716115b61276f5760405162461bcd60e51b815260206004820152600360248201526214d41360ea1b6044820152606401610835565b6000808813905060006040518060e001604052808a81526020016000815260200184600001516001600160a01b03168152602001846020015160020b81526020016000815260200160006001600160801b0316815260200184606001516001600160801b031681525090505b8051158015906128015750876001600160a01b031681604001516001600160a01b031614155b15612bc1576040805160e081018252600080825260208201819052918101829052606081018290526080810182905260a0810182905260c081019190915260408201516001600160a01b0390811682526060830151608086015161286e928f1691635339c296918f612e09565b1515604083015260020b60208201819052620d89e719131561289957620d89e71960208201526128cd565b6128a6620d89e71961442e565b60020b816020015160020b13156128cd576128c4620d89e71961442e565b60020b60208201525b6128da8160200151613075565b6001600160a01b03166060820152604082015161294f908c612914578a6001600160a01b031683606001516001600160a01b03161161292e565b8a6001600160a01b031683606001516001600160a01b0316105b61293c57826060015161293e565b8a5b60c0850151855160a08901516133a8565b60c085015260a084015260808301526001600160a01b0316604083015282156129c75761298e8160c0015182608001516129899190614416565b61359a565b8251839061299d908390614609565b90525060a08101516129ae9061359a565b82602001516129bd9190614609565b6020830152612a12565b6129d48160a0015161359a565b825183906129e3908390614648565b90525060c081015160808201516129fd9161298991614416565b8260200151612a0c9190614648565b60208301525b60c08201516001600160801b031615612a5a57612a458160c00151600160801b8460c001516001600160801b03166123b3565b82608001818151612a569190614416565b9052505b63ffffffff6112a7811690881614612a7c57612a7c8b8584848b63ffffffff16565b80606001516001600160a01b031682604001516001600160a01b03161415612b8457806040015115612b5757602081015160405163f30dba9360e01b815260029190910b60048201526000906001600160a01b038e169063f30dba939060240161010060405180830381865afa158015612afa573d6000803e3d6000fd5b505050506040513d601f19601f82011682018060405250810190612b1e9190614828565b5050505050509150508b15612b3957612b3681614572565b90505b612b478360c00151826135ac565b6001600160801b031660c0840152505b8a612b66578060200151612b77565b60018160200151612b7791906148d6565b60020b6060830152612bbb565b80600001516001600160a01b031682604001516001600160a01b031614612bbb57612bb2826040015161364e565b60020b60608301525b506127db565b8115158a151514612be25760208101518151612bdd908b614609565b612bf4565b8051612bee908a614609565b81602001515b94509450505050965096945050505050565b6000620f4240612c1683826146b8565b612c239060020b856146d4565b6123839190614759565b600288900b600081815260208b90526040808220905163f30dba9360e01b81526004810193909352909182906001600160a01b0385169063f30dba939060240161010060405180830381865afa158015612c8b573d6000803e3d6000fd5b505050506040513d601f19601f82011682018060405250810190612caf9190614828565b5050505050505090506000612cc4828b6135ac565b6001600160801b038381161590821615811415955090915015612d07578a60020b8c60020b13612d07578883556001830188905560028301879055600383018690555b5050509998505050505050505050565b60006001818080612d288885613967565b94509250612d368785613967565b94509150612d448685613967565b94509050612d566129898484846123b3565b945083612d6957612d6685614599565b94505b505050509392505050565b6000611eb0612d83868661491e565b65ffffffffffff1662015180612d9c8587828282614609565b9190613994565b6000612db0848484612d17565b9050600081128015612de05750612de0612dc9856139ce565b612dd2856139ce565b612ddb856139ce565b6139d9565b156123835761238060001982614648565b6000808213611cc557612e0382614599565b92915050565b60008080612e17858761493d565b905060008660020b128015612e375750612e318587614467565b60020b15155b15612e4a5780612e4681614977565b9150505b8315612f4f57600080612e5c836139f2565b90925090506000600160ff831681901b90612e77908261453e565b612e819190614416565b90506000818c8c866040518263ffffffff1660e01b8152600401612eae919060019190910b815260200190565b602060405180830381865afa158015612ecb573d6000803e3d6000fd5b505050506040513d601f19601f82011682018060405250810190612eef91906145f0565b168015159650905085612f195788612f0a60ff8516876148d6565b612f14919061499b565b612f44565b88612f2382613a0f565b612f2d9085614a28565b612f3a9060ff16876148d6565b612f44919061499b565b96505050505061306a565b600080612f65612f60846001614a4b565b6139f2565b90925090506000612f7d600160ff841681901b61453e565b1990506000818c8c866040518263ffffffff1660e01b8152600401612fab919060019190910b815260200190565b602060405180830381865afa158015612fc8573d6000803e3d6000fd5b505050506040513d601f19601f82011682018060405250810190612fec91906145f0565b16801515965090508561302c57886130058460ff614a28565b60ff16613013876001614a4b565b61301d9190614a4b565b613027919061499b565b613063565b888361303783613ab0565b6130419190614a28565b60ff1661304f876001614a4b565b6130599190614a4b565b613063919061499b565b9650505050505b509550959350505050565b60008060008360020b1261308c578260020b613094565b8260020b6000035b9050620d89e88111156130cd5760405162461bcd60e51b81526020600482015260016024820152601560fa1b6044820152606401610835565b6000600182166130e157600160801b6130f3565b6ffffcb933bd6fad37aa2d162d1a5940015b70ffffffffffffffffffffffffffffffffff1690506002821615613127576ffff97272373d413259a46990580e213a0260801c5b6004821615613146576ffff2e50f5f656932ef12357cf3c7fdcc0260801c5b6008821615613165576fffe5caca7e10e4e61c3624eaa0941cd00260801c5b6010821615613184576fffcb9843d60f6159c9db58835c9266440260801c5b60208216156131a3576fff973b41fa98c081472e6896dfb254c00260801c5b60408216156131c2576fff2ea16466c96a3843ec78b326b528610260801c5b60808216156131e1576ffe5dee046a99a2a811c461f1969c30530260801c5b610100821615613201576ffcbe86c7900a88aedcffc83b479aa3a40260801c5b610200821615613221576ff987a7253ac413176f2b074cf7815e540260801c5b610400821615613241576ff3392b0822b70005940c7a398e4b70f30260801c5b610800821615613261576fe7159475a2c29b7443b29c7fa6e889d90260801c5b611000821615613281576fd097f3bdfd2022b8845ad8f792aa58250260801c5b6120008216156132a1576fa9f746462d870fdf8a65dc1f90e061e50260801c5b6140008216156132c1576f70d869a156d2a1b890bb3df62baf32f70260801c5b6180008216156132e1576f31be135f97d08fd981231505542fcfa60260801c5b62010000821615613302576f09aa508b5b7a84e1c677de54f3e99bc90260801c5b62020000821615613322576e5d6af8dedb81196699c329225ee6040260801c5b62040000821615613341576d2216e584f5fa1ea926041bedfe980260801c5b6208000082161561335e576b048a170391f7dc42444e8fa20260801c5b60008460020b131561337f57806000198161337b5761337b614451565b0490505b640100000000810615613393576001613396565b60005b60ff16602082901c0192505050919050565b60008080806001600160a01b03808916908a16101581871280159061342d5760006133e18989620f42400362ffffff16620f42406123b3565b9050826133fa576133f58c8c8c6001613b9a565b613407565b6134078b8d8c6001613c0a565b9550858110613418578a9650613427565b6134248c8b8386613cc1565b96505b50613477565b816134445761343f8b8b8b6000613c0a565b613451565b6134518a8c8b6000613b9a565b935083886000031061346557899550613477565b6134748b8a8a60000385613d0d565b95505b6001600160a01b038a81169087161482156134da578080156134965750815b6134ac576134a7878d8c6001613c0a565b6134ae565b855b95508080156134bb575081155b6134d1576134cc878d8c6000613b9a565b6134d3565b845b9450613524565b8080156134e45750815b6134fa576134f58c888c6001613b9a565b6134fc565b855b9550808015613509575081155b61351f5761351a8c888c6000613c0a565b613521565b845b94505b8115801561353457508860000385115b15613540578860000394505b81801561355f57508a6001600160a01b0316876001600160a01b031614155b1561356e57858903935061358b565b613588868962ffffff168a620f42400362ffffff16613d59565b93505b50505095509550955095915050565b6000600160ff1b8210611cc557600080fd5b60008082600f0b121561360257508082016001600160801b03808416908216106135fd5760405162461bcd60e51b81526020600482015260026024820152614c5360f01b6044820152606401610835565b612e03565b826001600160801b03168284019150816001600160801b03161015612e035760405162461bcd60e51b81526020600482015260026024820152614c4160f01b6044820152606401610835565b60006401000276a36001600160a01b0383161080159061368a575073fffd8963efd1fc6a506488495d951d5263988d266001600160a01b038316105b6136ba5760405162461bcd60e51b81526020600482015260016024820152602960f91b6044820152606401610835565b640100000000600160c01b03602083901b166001600160801b03811160071b81811c67ffffffffffffffff811160061b90811c63ffffffff811160051b90811c61ffff811160041b90811c60ff8111600390811b91821c600f811160021b90811c918211600190811b92831c9790881196179094179092171790911717176080811061374e57607f810383901c9150613758565b80607f0383901b91505b908002607f81811c60ff83811c9190911c800280831c81831c1c800280841c81841c1c800280851c81851c1c800280861c81861c1c800280871c81871c1c800280881c81881c1c800280891c81891c1c8002808a1c818a1c1c8002808b1c818b1c1c8002808c1c818c1c1c8002808d1c818d1c1c8002808e1c9c81901c9c909c1c80029c8d901c9e9d607f198f0160401b60c09190911c678000000000000000161760c19b909b1c674000000000000000169a909a1760c29990991c672000000000000000169890981760c39790971c671000000000000000169690961760c49590951c670800000000000000169490941760c59390931c670400000000000000169290921760c69190911c670200000000000000161760c79190911c670100000000000000161760c89190911c6680000000000000161760c99190911c6640000000000000161760ca9190911c6620000000000000161760cb9190911c6610000000000000161760cc9190911c6608000000000000161760cd9190911c66040000000000001617693627a301d71055774c8581026f028f6481ab7f045a5af012a19d003aa9198101608090811d906fdb2df09e81959a81455e260799a0632f8301901d600281810b9083900b1461395857886001600160a01b031661393d82613075565b6001600160a01b03161115613952578161395a565b8061395a565b815b9998505050505050505050565b60008060008412156139865791159161397f84614599565b915061398a565b8391505b50815b9250929050565b60006139ba600085126139a757846139b3565b6139b3856000196146d4565b84846123b3565b905060008412156123835761238081614599565b6000612e0382612df1565b60008183850980156139ea57600191505b509392505050565b600281900b60081d6000613a0861010084614467565b9050915091565b6000808211613a1d57600080fd5b600160801b8210613a3057608091821c91015b680100000000000000008210613a4857604091821c91015b6401000000008210613a5c57602091821c91015b620100008210613a6e57601091821c91015b6101008210613a7f57600891821c91015b60108210613a8f57600491821c91015b60048210613a9f57600291821c91015b60028210613aab576001015b919050565b6000808211613abe57600080fd5b5060ff6001600160801b03821615613ad957607f1901613ae1565b608082901c91505b67ffffffffffffffff821615613afa57603f1901613b02565b604082901c91505b63ffffffff821615613b1757601f1901613b1f565b602082901c91505b61ffff821615613b3257600f1901613b3a565b601082901c91505b60ff821615613b4c5760071901613b54565b600882901c91505b600f821615613b665760031901613b6e565b600482901c91505b6003821615613b805760011901613b88565b600282901c91505b6001821615613aab5760001901919050565b6000836001600160a01b0316856001600160a01b03161115613bba579293925b81613be757613be2836001600160801b03168686036001600160a01b0316600160601b6123b3565b611eb0565b611eb0836001600160801b03168686036001600160a01b0316600160601b613d59565b6000836001600160a01b0316856001600160a01b03161115613c2a579293925b600160601b600160e01b03606084901b166001600160a01b038686038116908716613c5457600080fd5b83613c8a57866001600160a01b0316613c778383896001600160a01b03166123b3565b81613c8457613c84614451565b04613cb6565b613cb6613ca18383896001600160a01b0316613d59565b886001600160a01b0316808204910615150190565b979650505050505050565b600080856001600160a01b031611613cd857600080fd5b6000846001600160801b031611613cee57600080fd5b81613d0057613be28585856001613d99565b611eb08585856001613e86565b600080856001600160a01b031611613d2457600080fd5b6000846001600160801b031611613d3a57600080fd5b81613d4c57613be28585856000613e86565b611eb08585856000613d99565b6000613d668484846123b3565b905060008280613d7857613d78614451565b8486091115612383576000198110613d8f57600080fd5b6001019392505050565b60008115613e125760006001600160a01b03841115613dcf57613dca84600160601b876001600160801b03166123b3565b613ded565b6001600160801b038516606085901b81613deb57613deb614451565b045b9050613e0a613e056001600160a01b03881683613f81565b613f91565b915050611eb3565b60006001600160a01b03841115613e4057613e3b84600160601b876001600160801b0316613d59565b613e5d565b613e5d606085901b6001600160801b038716808204910615150190565b905080866001600160a01b031611613e7457600080fd5b6001600160a01b038616039050611eb3565b600082613e94575083611eb3565b600160601b600160e01b03606085901b168215613f34576001600160a01b03861684810290858281613ec857613ec8614451565b041415613ef957818101828110613ef757613eed83896001600160a01b031683613d59565b9350505050611eb3565b505b613f2b82613f20878a6001600160a01b03168681613f1957613f19614451565b0490613f81565b808204910615150190565b92505050611eb3565b6001600160a01b03861684810290858281613f5157613f51614451565b04148015613f5e57508082115b613f6757600080fd5b808203613eed613e05846001600160a01b038b1684613d59565b80820182811015612e0357600080fd5b806001600160a01b0381168114613aab57600080fd5b8015158114613fb557600080fd5b50565b6001600160a01b0381168114613fb557600080fd5b600080600060608486031215613fe257600080fd5b8335613fed81613fa7565b925060208401359150604084013561400481613fb8565b809150509250925092565b8060020b8114613fb557600080fd5b6001600160801b0381168114613fb557600080fd5b60008060006060848603121561404857600080fd5b83356140538161400f565b925060208401356140638161400f565b915060408401356140048161401e565b8381526020810183905260c08101611eb36040830184805182526020810151602083015260408101516040830152606081015160608301525050565b6000602082840312156140c157600080fd5b5035919050565b600080604083850312156140db57600080fd5b82356140e68161400f565b915060208301356140f68161400f565b809150509250929050565b8151815260208083015190820152604080830151908201526060808301519082015260808101612e03565b60006020828403121561413e57600080fd5b81356123838161400f565b62ffffff81168114613fb557600080fd5b60006020828403121561416c57600080fd5b813561238381614149565b60008060006060848603121561418c57600080fd5b83359250602084013561419e81613fb8565b9150604084013561400481613fa7565b60008083601f8401126141c057600080fd5b50813567ffffffffffffffff8111156141d857600080fd5b60208301915083602082850101111561398d57600080fd5b6000806000806060858703121561420657600080fd5b8435935060208501359250604085013567ffffffffffffffff81111561422b57600080fd5b614237878288016141ae565b95989497509550505050565b600060e0828403121561425557600080fd5b50919050565b634e487b7160e01b600052604160045260246000fd5b6000602080838503121561428457600080fd5b823567ffffffffffffffff8082111561429c57600080fd5b818501915085601f8301126142b057600080fd5b8135818111156142c2576142c261425b565b8060051b604051601f19603f830116810181811085821117156142e7576142e761425b565b60405291825284820192508381018501918883111561430557600080fd5b938501935b828510156143235784358452938501939285019261430a565b98975050505050505050565b6020808252825182820181905260009190848201906040850190845b818110156143675783518352928401929184019160010161434b565b50909695505050505050565b634e487b7160e01b600052601160045260246000fd5b60006001600160a01b03838116908316818110156143a9576143a9614373565b039392505050565b60006001600160a01b038281168482168083038211156143d3576143d3614373565b01949350505050565b600080604083850312156143ef57600080fd5b505080516020909101519092909150565b634e487b7160e01b600052600160045260246000fd5b6000821982111561442957614429614373565b500190565b60008160020b627fffff1981141561444857614448614373565b60000392915050565b634e487b7160e01b600052601260045260246000fd5b60008260020b8061447a5761447a614451565b808360020b0791505092915050565b805161ffff81168114613aab57600080fd5b8051613aab81613fa7565b600080600080600080600060e0888a0312156144c157600080fd5b87516144cc81613fb8565b60208901519097506144dd8161400f565b95506144eb60408901614489565b94506144f960608901614489565b935061450760808901614489565b925060a088015160ff8116811461451d57600080fd5b60c089015190925061452e81613fa7565b8091505092959891949750929550565b60008282101561455057614550614373565b500390565b60006020828403121561456757600080fd5b815161238381613fb8565b600081600f0b6f7fffffffffffffffffffffffffffffff1981141561444857614448614373565b6000600160ff1b8214156145af576145af614373565b5060000390565b6000602082840312156145c857600080fd5b813561238381613fb8565b6000602082840312156145e557600080fd5b815161238381614149565b60006020828403121561460257600080fd5b5051919050565b60008083128015600160ff1b85018412161561462757614627614373565b6001600160ff1b038401831381161561464257614642614373565b50500390565b600080821280156001600160ff1b038490038513161561466a5761466a614373565b600160ff1b839003841281161561468357614683614373565b50500190565b6000806040838503121561469c57600080fd5b82516146a78161401e565b60208401519092506140f68161401e565b600062ffffff838116908316818110156143a9576143a9614373565b60006001600160ff1b03818413828413808216868404861116156146fa576146fa614373565b600160ff1b600087128281168783058912161561471957614719614373565b6000871292508782058712848416161561473557614735614373565b8785058712818416161561474b5761474b614373565b505050929093029392505050565b60008261476857614768614451565b600160ff1b82146000198414161561478257614782614373565b500590565b634e487b7160e01b600052602160045260246000fd5b60008160001904831182151516156147b7576147b7614373565b500290565b6000826147cb576147cb614451565b500490565b600062ffffff8083168185168083038211156143d3576143d3614373565b60006020828403121561480057600080fd5b81516123838161401e565b60006020828403121561481d57600080fd5b81516123838161400f565b600080600080600080600080610100898b03121561484557600080fd5b88516148508161401e565b80985050602089015180600f0b811461486857600080fd5b80975050604089015195506060890151945060808901518060060b811461488e57600080fd5b60a08a015190945061489f81613fb8565b60c08a015190935063ffffffff811681146148b957600080fd5b91506148c760e08a0161449b565b90509295985092959890939650565b60008160020b8360020b6000811281627fffff19018312811516156148fd576148fd614373565b81627fffff01831381161561491457614914614373565b5090039392505050565b600065ffffffffffff838116908316818110156143a9576143a9614373565b60008160020b8360020b8061495457614954614451565b627fffff1982146000198214161561496e5761496e614373565b90059392505050565b60008160020b627fffff1981141561499157614991614373565b6000190192915050565b60008160020b8360020b627fffff6000821360008413838304851182821616156149c7576149c7614373565b627fffff1960008512828116878305871216156149e6576149e6614373565b60008712925085820587128484161615614a0257614a02614373565b85850587128184161615614a1857614a18614373565b5050509290910295945050505050565b600060ff821660ff841680821015614a4257614a42614373565b90039392505050565b60008160020b8360020b6000821282627fffff03821381151615614a7157614a71614373565b82627fffff19038212811615614a8957614a89614373565b5001939250505056fea164736f6c634300080c000a",
  "devdoc": {
    "kind": "dev",
    "methods": {
      "swap(bool,int256,uint160)": {
        "params": {
          "amountSpecified": ": The amount of the swap, which implicitly configures the swap as exact input (positive), or exact output (negative)",
          "sqrtPriceLimitX96": ": The Q64.96 sqrt price limit. If zero for one, the price cannot be less than this value after the swap. If one for zero, the price cannot be greater than this value after the swap.",
          "swapVTokenForVBase": ": The direction of the swap, true for vToken to vBase, false for vBase to vToken"
        }
      },
      "swapToken(int256,uint160,bool)": {
        "params": {
          "amount": ": positive means long, negative means short",
          "isNotional": ": true means amountSpecified is dollar amount",
          "sqrtPriceLimitX96": ": The Q64.96 sqrt price limit. If zero for one, the price cannot be less than this value after the swap. If one for zero, the price cannot be greater than this value after the swap."
        }
      }
    },
    "version": 1
  },
  "userdoc": {
    "kind": "user",
    "methods": {
      "__initialize_VPoolWrapper((address,address,address,address,uint24,uint24,uint24))": {
        "notice": "PLATFORM FUNCTIONS"
      },
      "getSumAX128()": {
        "notice": "VIEW METHODS"
      },
      "setLiquidityFee(uint24)": {
        "notice": "ADMIN FUNCTIONS"
      },
      "swap(bool,int256,uint160)": {
        "notice": "Swap vToken for vBase, or vBase for vToken"
      },
      "swapToken(int256,uint160,bool)": {
        "notice": "swaps token"
      },
      "uniswapV3SwapCallback(int256,int256,bytes)": {
        "notice": "UNISWAP V3 POOL CALLBACkS"
      }
    },
    "version": 1
  },
  "storageLayout": {
    "storage": [
      {
        "astId": 298,
        "contract": "contracts/protocol/wrapper/VPoolWrapper.sol:VPoolWrapper",
        "label": "_initialized",
        "offset": 0,
        "slot": "0",
        "type": "t_bool"
      },
      {
        "astId": 301,
        "contract": "contracts/protocol/wrapper/VPoolWrapper.sol:VPoolWrapper",
        "label": "_initializing",
        "offset": 1,
        "slot": "0",
        "type": "t_bool"
      },
      {
        "astId": 22274,
        "contract": "contracts/protocol/wrapper/VPoolWrapper.sol:VPoolWrapper",
        "label": "clearingHouse",
        "offset": 2,
        "slot": "0",
        "type": "t_contract(IClearingHouse)7672"
      },
      {
        "astId": 22277,
        "contract": "contracts/protocol/wrapper/VPoolWrapper.sol:VPoolWrapper",
        "label": "vToken",
        "offset": 0,
        "slot": "1",
        "type": "t_contract(IVToken)7973"
      },
      {
        "astId": 22280,
        "contract": "contracts/protocol/wrapper/VPoolWrapper.sol:VPoolWrapper",
        "label": "vBase",
        "offset": 0,
        "slot": "2",
        "type": "t_contract(IVBase)7754"
      },
      {
        "astId": 22283,
        "contract": "contracts/protocol/wrapper/VPoolWrapper.sol:VPoolWrapper",
        "label": "vPool",
        "offset": 0,
        "slot": "3",
        "type": "t_contract(IUniswapV3Pool)5143"
      },
      {
        "astId": 22285,
        "contract": "contracts/protocol/wrapper/VPoolWrapper.sol:VPoolWrapper",
        "label": "uniswapFeePips",
        "offset": 20,
        "slot": "3",
        "type": "t_uint24"
      },
      {
        "astId": 22287,
        "contract": "contracts/protocol/wrapper/VPoolWrapper.sol:VPoolWrapper",
        "label": "liquidityFeePips",
        "offset": 23,
        "slot": "3",
        "type": "t_uint24"
      },
      {
        "astId": 22289,
        "contract": "contracts/protocol/wrapper/VPoolWrapper.sol:VPoolWrapper",
        "label": "protocolFeePips",
        "offset": 26,
        "slot": "3",
        "type": "t_uint24"
      },
      {
        "astId": 22291,
        "contract": "contracts/protocol/wrapper/VPoolWrapper.sol:VPoolWrapper",
        "label": "accruedProtocolFee",
        "offset": 0,
        "slot": "4",
        "type": "t_uint256"
      },
      {
        "astId": 22294,
        "contract": "contracts/protocol/wrapper/VPoolWrapper.sol:VPoolWrapper",
        "label": "fpGlobal",
        "offset": 0,
        "slot": "5",
        "type": "t_struct(Info)10746_storage"
      },
      {
        "astId": 22296,
        "contract": "contracts/protocol/wrapper/VPoolWrapper.sol:VPoolWrapper",
        "label": "sumFeeGlobalX128",
        "offset": 0,
        "slot": "9",
        "type": "t_uint256"
      },
      {
        "astId": 22301,
        "contract": "contracts/protocol/wrapper/VPoolWrapper.sol:VPoolWrapper",
        "label": "ticksExtended",
        "offset": 0,
        "slot": "10",
        "type": "t_mapping(t_int24,t_struct(Info)14938_storage)"
      }
    ],
    "types": {
      "t_bool": {
        "encoding": "inplace",
        "label": "bool",
        "numberOfBytes": "1"
      },
      "t_contract(IClearingHouse)7672": {
        "encoding": "inplace",
        "label": "contract IClearingHouse",
        "numberOfBytes": "20"
      },
      "t_contract(IUniswapV3Pool)5143": {
        "encoding": "inplace",
        "label": "contract IUniswapV3Pool",
        "numberOfBytes": "20"
      },
      "t_contract(IVBase)7754": {
        "encoding": "inplace",
        "label": "contract IVBase",
        "numberOfBytes": "20"
      },
      "t_contract(IVToken)7973": {
        "encoding": "inplace",
        "label": "contract IVToken",
        "numberOfBytes": "20"
      },
      "t_int24": {
        "encoding": "inplace",
        "label": "int24",
        "numberOfBytes": "3"
      },
      "t_int256": {
        "encoding": "inplace",
        "label": "int256",
        "numberOfBytes": "32"
      },
      "t_mapping(t_int24,t_struct(Info)14938_storage)": {
        "encoding": "mapping",
        "key": "t_int24",
        "label": "mapping(int24 => struct Tick.Info)",
        "numberOfBytes": "32",
        "value": "t_struct(Info)14938_storage"
      },
      "t_struct(Info)10746_storage": {
        "encoding": "inplace",
        "label": "struct FundingPayment.Info",
        "members": [
          {
            "astId": 10739,
            "contract": "contracts/protocol/wrapper/VPoolWrapper.sol:VPoolWrapper",
            "label": "sumAX128",
            "offset": 0,
            "slot": "0",
            "type": "t_int256"
          },
          {
            "astId": 10741,
            "contract": "contracts/protocol/wrapper/VPoolWrapper.sol:VPoolWrapper",
            "label": "sumBX128",
            "offset": 0,
            "slot": "1",
            "type": "t_int256"
          },
          {
            "astId": 10743,
            "contract": "contracts/protocol/wrapper/VPoolWrapper.sol:VPoolWrapper",
            "label": "sumFpX128",
            "offset": 0,
            "slot": "2",
            "type": "t_int256"
          },
          {
            "astId": 10745,
            "contract": "contracts/protocol/wrapper/VPoolWrapper.sol:VPoolWrapper",
            "label": "timestampLast",
            "offset": 0,
            "slot": "3",
            "type": "t_uint48"
          }
        ],
        "numberOfBytes": "128"
      },
      "t_struct(Info)14938_storage": {
        "encoding": "inplace",
        "label": "struct Tick.Info",
        "members": [
          {
            "astId": 14931,
            "contract": "contracts/protocol/wrapper/VPoolWrapper.sol:VPoolWrapper",
            "label": "sumALastX128",
            "offset": 0,
            "slot": "0",
            "type": "t_int256"
          },
          {
            "astId": 14933,
            "contract": "contracts/protocol/wrapper/VPoolWrapper.sol:VPoolWrapper",
            "label": "sumBOutsideX128",
            "offset": 0,
            "slot": "1",
            "type": "t_int256"
          },
          {
            "astId": 14935,
            "contract": "contracts/protocol/wrapper/VPoolWrapper.sol:VPoolWrapper",
            "label": "sumFpOutsideX128",
            "offset": 0,
            "slot": "2",
            "type": "t_int256"
          },
          {
            "astId": 14937,
            "contract": "contracts/protocol/wrapper/VPoolWrapper.sol:VPoolWrapper",
            "label": "sumFeeOutsideX128",
            "offset": 0,
            "slot": "3",
            "type": "t_uint256"
          }
        ],
        "numberOfBytes": "128"
      },
      "t_uint24": {
        "encoding": "inplace",
        "label": "uint24",
        "numberOfBytes": "3"
      },
      "t_uint256": {
        "encoding": "inplace",
        "label": "uint256",
        "numberOfBytes": "32"
      },
      "t_uint48": {
        "encoding": "inplace",
        "label": "uint48",
        "numberOfBytes": "6"
      }
    }
  }
}