{
  "address": "0xcD15A3903A073266fcdc6805e2533c3b9F1F03b8",
  "abi": [
    {
      "inputs": [
        {
          "internalType": "int24",
          "name": "tickLower",
          "type": "int24"
        },
        {
          "internalType": "int24",
          "name": "tickUpper",
          "type": "int24"
        }
      ],
      "name": "InvalidTicks",
      "type": "error"
    },
    {
      "inputs": [],
      "name": "NotClearingHouse",
      "type": "error"
    },
    {
      "inputs": [],
      "name": "NotGovernance",
      "type": "error"
    },
    {
      "inputs": [],
      "name": "NotUniswapV3Pool",
      "type": "error"
    },
    {
      "anonymous": false,
      "inputs": [
        {
          "indexed": false,
          "internalType": "int256",
          "name": "vTokenIn",
          "type": "int256"
        },
        {
          "indexed": false,
          "internalType": "int256",
          "name": "vBaseIn",
          "type": "int256"
        },
        {
          "indexed": false,
          "internalType": "uint256",
          "name": "liquidityFees",
          "type": "uint256"
        },
        {
          "indexed": false,
          "internalType": "uint256",
          "name": "protocolFees",
          "type": "uint256"
        }
      ],
      "name": "Swap",
      "type": "event"
    },
    {
      "inputs": [
        {
          "components": [
            {
              "internalType": "contract IClearingHouse",
              "name": "clearingHouse",
              "type": "address"
            },
            {
              "internalType": "contract IVToken",
              "name": "vToken",
              "type": "address"
            },
            {
              "internalType": "contract IVBase",
              "name": "vBase",
              "type": "address"
            },
            {
              "internalType": "contract IUniswapV3Pool",
              "name": "vPool",
              "type": "address"
            },
            {
              "internalType": "uint24",
              "name": "liquidityFeePips",
              "type": "uint24"
            },
            {
              "internalType": "uint24",
              "name": "protocolFeePips",
              "type": "uint24"
            },
            {
              "internalType": "uint24",
              "name": "UNISWAP_V3_DEFAULT_FEE_TIER",
              "type": "uint24"
            }
          ],
          "internalType": "struct IVPoolWrapper.InitializeVPoolWrapperParams",
          "name": "params",
          "type": "tuple"
        }
      ],
      "name": "__initialize_VPoolWrapper",
      "outputs": [],
      "stateMutability": "nonpayable",
      "type": "function"
    },
    {
      "inputs": [],
      "name": "accruedProtocolFee",
      "outputs": [
        {
          "internalType": "uint256",
          "name": "",
          "type": "uint256"
        }
      ],
      "stateMutability": "view",
      "type": "function"
    },
    {
      "inputs": [],
      "name": "clearingHouse",
      "outputs": [
        {
          "internalType": "contract IClearingHouse",
          "name": "",
          "type": "address"
        }
      ],
      "stateMutability": "view",
      "type": "function"
    },
    {
      "inputs": [],
      "name": "collectAccruedProtocolFee",
      "outputs": [
        {
          "internalType": "uint256",
          "name": "accruedProtocolFeeLast",
          "type": "uint256"
        }
      ],
      "stateMutability": "nonpayable",
      "type": "function"
    },
    {
      "inputs": [
        {
          "internalType": "bytes32",
          "name": "slot",
          "type": "bytes32"
        }
      ],
      "name": "extsload",
      "outputs": [
        {
          "internalType": "bytes32",
          "name": "val",
          "type": "bytes32"
        }
      ],
      "stateMutability": "view",
      "type": "function"
    },
    {
      "inputs": [
        {
          "internalType": "bytes32[]",
          "name": "slots",
          "type": "bytes32[]"
        }
      ],
      "name": "extsload",
      "outputs": [
        {
          "internalType": "bytes32[]",
          "name": "",
          "type": "bytes32[]"
        }
      ],
      "stateMutability": "view",
      "type": "function"
    },
    {
      "inputs": [],
      "name": "fpGlobal",
      "outputs": [
        {
          "internalType": "int256",
          "name": "sumAX128",
          "type": "int256"
        },
        {
          "internalType": "int256",
          "name": "sumBX128",
          "type": "int256"
        },
        {
          "internalType": "int256",
          "name": "sumFpX128",
          "type": "int256"
        },
        {
          "internalType": "uint48",
          "name": "timestampLast",
          "type": "uint48"
        }
      ],
      "stateMutability": "view",
      "type": "function"
    },
    {
      "inputs": [],
      "name": "getExtrapolatedSumAX128",
      "outputs": [
        {
          "internalType": "int256",
          "name": "",
          "type": "int256"
        }
      ],
      "stateMutability": "view",
      "type": "function"
    },
    {
      "inputs": [
        {
          "internalType": "int24",
          "name": "tickLower",
          "type": "int24"
        },
        {
          "internalType": "int24",
          "name": "tickUpper",
          "type": "int24"
        }
      ],
      "name": "getExtrapolatedValuesInside",
      "outputs": [
        {
          "components": [
            {
              "internalType": "int256",
              "name": "sumAX128",
              "type": "int256"
            },
            {
              "internalType": "int256",
              "name": "sumBInsideX128",
              "type": "int256"
            },
            {
              "internalType": "int256",
              "name": "sumFpInsideX128",
              "type": "int256"
            },
            {
              "internalType": "uint256",
              "name": "sumFeeInsideX128",
              "type": "uint256"
            }
          ],
          "internalType": "struct IVPoolWrapper.WrapperValuesInside",
          "name": "wrapperValuesInside",
          "type": "tuple"
        }
      ],
      "stateMutability": "view",
      "type": "function"
    },
    {
      "inputs": [],
      "name": "getSumAX128",
      "outputs": [
        {
          "internalType": "int256",
          "name": "",
          "type": "int256"
        }
      ],
      "stateMutability": "view",
      "type": "function"
    },
    {
      "inputs": [
        {
          "internalType": "int24",
          "name": "tickLower",
          "type": "int24"
        },
        {
          "internalType": "int24",
          "name": "tickUpper",
          "type": "int24"
        }
      ],
      "name": "getValuesInside",
      "outputs": [
        {
          "components": [
            {
              "internalType": "int256",
              "name": "sumAX128",
              "type": "int256"
            },
            {
              "internalType": "int256",
              "name": "sumBInsideX128",
              "type": "int256"
            },
            {
              "internalType": "int256",
              "name": "sumFpInsideX128",
              "type": "int256"
            },
            {
              "internalType": "uint256",
              "name": "sumFeeInsideX128",
              "type": "uint256"
            }
          ],
          "internalType": "struct IVPoolWrapper.WrapperValuesInside",
          "name": "wrapperValuesInside",
          "type": "tuple"
        }
      ],
      "stateMutability": "view",
      "type": "function"
    },
    {
      "inputs": [
        {
          "internalType": "int24",
          "name": "tickLower",
          "type": "int24"
        },
        {
          "internalType": "int24",
          "name": "tickUpper",
          "type": "int24"
        },
        {
          "internalType": "int128",
          "name": "liquidityDelta",
          "type": "int128"
        }
      ],
      "name": "liquidityChange",
      "outputs": [
        {
          "internalType": "int256",
          "name": "basePrincipal",
          "type": "int256"
        },
        {
          "internalType": "int256",
          "name": "vTokenPrincipal",
          "type": "int256"
        },
        {
          "components": [
            {
              "internalType": "int256",
              "name": "sumAX128",
              "type": "int256"
            },
            {
              "internalType": "int256",
              "name": "sumBInsideX128",
              "type": "int256"
            },
            {
              "internalType": "int256",
              "name": "sumFpInsideX128",
              "type": "int256"
            },
            {
              "internalType": "uint256",
              "name": "sumFeeInsideX128",
              "type": "uint256"
            }
          ],
          "internalType": "struct IVPoolWrapper.WrapperValuesInside",
          "name": "wrapperValuesInside",
          "type": "tuple"
        }
      ],
      "stateMutability": "nonpayable",
      "type": "function"
    },
    {
      "inputs": [],
      "name": "liquidityFeePips",
      "outputs": [
        {
          "internalType": "uint24",
          "name": "",
          "type": "uint24"
        }
      ],
      "stateMutability": "view",
      "type": "function"
    },
    {
      "inputs": [],
      "name": "protocolFeePips",
      "outputs": [
        {
          "internalType": "uint24",
          "name": "",
          "type": "uint24"
        }
      ],
      "stateMutability": "view",
      "type": "function"
    },
    {
      "inputs": [
        {
          "internalType": "uint24",
          "name": "liquidityFeePips_",
          "type": "uint24"
        }
      ],
      "name": "setLiquidityFee",
      "outputs": [],
      "stateMutability": "nonpayable",
      "type": "function"
    },
    {
      "inputs": [
        {
          "internalType": "uint24",
          "name": "protocolFeePips_",
          "type": "uint24"
        }
      ],
      "name": "setProtocolFee",
      "outputs": [],
      "stateMutability": "nonpayable",
      "type": "function"
    },
    {
      "inputs": [],
      "name": "sumFeeGlobalX128",
      "outputs": [
        {
          "internalType": "uint256",
          "name": "",
          "type": "uint256"
        }
      ],
      "stateMutability": "view",
      "type": "function"
    },
    {
      "inputs": [
        {
          "internalType": "bool",
          "name": "swapVTokenForVBase",
          "type": "bool"
        },
        {
          "internalType": "int256",
          "name": "amountSpecified",
          "type": "int256"
        },
        {
          "internalType": "uint160",
          "name": "sqrtPriceLimitX96",
          "type": "uint160"
        }
      ],
      "name": "swap",
      "outputs": [
        {
          "internalType": "int256",
          "name": "",
          "type": "int256"
        },
        {
          "internalType": "int256",
          "name": "",
          "type": "int256"
        }
      ],
      "stateMutability": "nonpayable",
      "type": "function"
    },
    {
      "inputs": [
        {
          "internalType": "int256",
          "name": "amount",
          "type": "int256"
        },
        {
          "internalType": "uint160",
          "name": "sqrtPriceLimitX96",
          "type": "uint160"
        },
        {
          "internalType": "bool",
          "name": "isNotional",
          "type": "bool"
        }
      ],
      "name": "swapToken",
      "outputs": [
        {
          "internalType": "int256",
          "name": "vTokenAmount",
          "type": "int256"
        },
        {
          "internalType": "int256",
          "name": "vBaseAmount",
          "type": "int256"
        }
      ],
      "stateMutability": "nonpayable",
      "type": "function"
    },
    {
      "inputs": [
        {
          "internalType": "int24",
          "name": "",
          "type": "int24"
        }
      ],
      "name": "ticksExtended",
      "outputs": [
        {
          "internalType": "int256",
          "name": "sumALastX128",
          "type": "int256"
        },
        {
          "internalType": "int256",
          "name": "sumBOutsideX128",
          "type": "int256"
        },
        {
          "internalType": "int256",
          "name": "sumFpOutsideX128",
          "type": "int256"
        },
        {
          "internalType": "uint256",
          "name": "sumFeeOutsideX128",
          "type": "uint256"
        }
      ],
      "stateMutability": "view",
      "type": "function"
    },
    {
      "inputs": [],
      "name": "uniswapFeePips",
      "outputs": [
        {
          "internalType": "uint24",
          "name": "",
          "type": "uint24"
        }
      ],
      "stateMutability": "view",
      "type": "function"
    },
    {
      "inputs": [
        {
          "internalType": "uint256",
          "name": "vTokenAmount",
          "type": "uint256"
        },
        {
          "internalType": "uint256",
          "name": "vBaseAmount",
          "type": "uint256"
        },
        {
          "internalType": "bytes",
          "name": "",
          "type": "bytes"
        }
      ],
      "name": "uniswapV3MintCallback",
      "outputs": [],
      "stateMutability": "nonpayable",
      "type": "function"
    },
    {
      "inputs": [
        {
          "internalType": "int256",
          "name": "amount0Delta",
          "type": "int256"
        },
        {
          "internalType": "int256",
          "name": "amount1Delta",
          "type": "int256"
        },
        {
          "internalType": "bytes",
          "name": "",
          "type": "bytes"
        }
      ],
      "name": "uniswapV3SwapCallback",
      "outputs": [],
      "stateMutability": "nonpayable",
      "type": "function"
    },
    {
      "inputs": [],
      "name": "updateGlobalFundingState",
      "outputs": [],
      "stateMutability": "nonpayable",
      "type": "function"
    },
    {
      "inputs": [],
      "name": "vBase",
      "outputs": [
        {
          "internalType": "contract IVBase",
          "name": "",
          "type": "address"
        }
      ],
      "stateMutability": "view",
      "type": "function"
    },
    {
      "inputs": [],
      "name": "vPool",
      "outputs": [
        {
          "internalType": "contract IUniswapV3Pool",
          "name": "",
          "type": "address"
        }
      ],
      "stateMutability": "view",
      "type": "function"
    },
    {
      "inputs": [],
      "name": "vToken",
      "outputs": [
        {
          "internalType": "contract IVToken",
          "name": "",
          "type": "address"
        }
      ],
      "stateMutability": "view",
      "type": "function"
    }
  ],
  "transactionHash": "0x5eec54eebf676c0bae5c231cbd0f0818cddb65492d596f92b5078e8985443c7d",
  "args": [],
  "numDeployments": 1,
  "solcInputHash": "bc4a250175ad4126c7e090586e5e47b6",
  "bytecode": "0x608060405234801561001057600080fd5b506148de806100206000396000f3fe608060405234801561001057600080fd5b50600436106101a95760003560e01c80638b1e9781116100f9578063c5f1916c11610097578063d9fe08d411610071578063d9fe08d414610415578063dbd035ff14610428578063fa461e3314610448578063fca6fbf21461045b57600080fd5b8063c5f1916c146103cd578063d3487997146103e0578063d440c420146103f357600080fd5b8063a3c35e2c116100d3578063a3c35e2c14610395578063acfd7928146103a8578063bb152c53146103b1578063c04b98c4146103c457600080fd5b80638b1e9781146103675780639bb1a99c1461037a578063a3a1e7e91461038d57600080fd5b806348aaa8c0116101665780636c544335116101405780636c544335146102f05780637779815c146103365780637feedaa11461033e57806386c8e9a71461035157600080fd5b806348aaa8c0146102805780635e622abc146102d55780636719578c146102dd57600080fd5b806302dc9951146101ae5780630af96800146101dd578063195cd92c1461020e5780631e2eaeaf146102365780632a99a7921461025657806333f9096314610276575b600080fd5b6003546101c490600160a01b900462ffffff1681565b60405162ffffff90911681526020015b60405180910390f35b6000546101f6906201000090046001600160a01b031681565b6040516001600160a01b0390911681526020016101d4565b61022161021c366004613d8d565b610471565b604080519283526020830191909152016101d4565b610248610244366004613dcf565b5490565b6040519081526020016101d4565b610269610264366004613df7565b610718565b6040516101d49190613e30565b61027e610844565b005b6102b561028e366004613e5b565b600a6020526000908152604090208054600182015460028301546003909301549192909184565b6040805194855260208501939093529183015260608201526080016101d4565b6102486108df565b6003546101f6906001600160a01b031681565b60055460065460075460085461030e9392919065ffffffffffff1684565b6040805194855260208501939093529183015265ffffffffffff1660608201526080016101d4565b600554610248565b61027e61034c366004613e89565b61092a565b6003546101c490600160b81b900462ffffff1681565b61027e610375366004613e89565b6109f6565b6001546101f6906001600160a01b031681565b610248610ac2565b6102696103a3366004613df7565b610b63565b61024860045481565b6102216103bf366004613ea6565b610d05565b61024860095481565b6002546101f6906001600160a01b031681565b61027e6103ee366004613f1f565b610d36565b610406610401366004613f81565b610e3e565b6040516101d493929190613fc1565b61027e610423366004613ffd565b611117565b61043b61043636600461402b565b611340565b6040516101d491906140e9565b61027e610456366004613f1f565b61136e565b6003546101c490600160d01b900462ffffff1681565b6000805481906201000090046001600160a01b031633146104a557604051638597d08b60e01b815260040160405180910390fd5b60008412156001600160a01b0384166104f457856104e1576104dc600173fffd8963efd1fc6a506488495d951d5263988d26614143565b6104f1565b6104f16401000276a3600161416b565b93505b6105266040518060a0016040528060008152602001600081526020016000815260200160008152602001600081525090565b85815260035461055b908390899062ffffff600160a01b8204811691600160b81b8104821691600160d01b9091041686611537565b80516003546000918291610580916001600160a01b03909116908b908a6115e26117c8565b6003548551604051630251596160e31b81523060048201528d1515602482015260448101919091526001600160a01b038b8116606483015260a06084830152600060a4830152939550919350919091169063128acb089060c40160408051808303816000875af11580156105f8573d6000803e3d6000fd5b505050506040513d601f19601f8201168201806040525081019061061c9190614196565b604085015260208401819052821480156106395750826040015181145b610645576106456141ba565b5050600354610679908390899062ffffff600160a01b8204811691600160b81b8104821691600160d01b9091041686611848565b80608001516004600082825461068f91906141d0565b9091555061069d9050611958565b7fb0ecd2f0335c5433548e5039eef18bcfbe9cd48abfb781dfa0cc522164cb876f81602001518260400151836060015184608001516040516106f8949392919093845260208401929092526040830152606082015260800190565b60405180910390a180602001518160400151935093505050935093915050565b6107436040518060800160405280600081526020016000815260200160008152602001600081525090565b60035460408051633850c7bd60e01b815290516000926001600160a01b031691633850c7bd9160048083019260e09291908290030181865afa15801561078d573d6000803e3d6000fd5b505050506040513d601f19601f820116820180604052508101906107b191906141fa565b505060408051608081018252600554815260065460208201526007549181019190915260085465ffffffffffff1660608201529395509293506107f79250610ac2915050565b80825260055460065460075461080c93611afb565b60408201528051835260095461082c90600a908790879086908690611b2b565b60608601526040850152602084015250909392505050565b6000805460015460405163d257be2b60e01b81526001600160a01b03918216600482015283926201000090049091169063d257be2b906024016040805180830381865afa158015610899573d6000803e3d6000fd5b505050506040513d601f19601f820116820180604052508101906108bd9190614196565b915091506108db600060016108cf4290565b60059291908686611c83565b5050565b600080546201000090046001600160a01b0316331461091157604051638597d08b60e01b815260040160405180910390fd5b60016004546109209190614292565b6001600455919050565b600060029054906101000a90046001600160a01b03166001600160a01b0316635aa6e6756040518163ffffffff1660e01b8152600401602060405180830381865afa15801561097d573d6000803e3d6000fd5b505050506040513d601f19601f820116820180604052508101906109a191906142a9565b6001600160a01b0316336001600160a01b0316146109d257604051632d5be4cb60e21b815260040160405180910390fd5b6003805462ffffff909216600160d01b0262ffffff60d01b19909216919091179055565b600060029054906101000a90046001600160a01b03166001600160a01b0316635aa6e6756040518163ffffffff1660e01b8152600401602060405180830381865afa158015610a49573d6000803e3d6000fd5b505050506040513d601f19601f82011682018060405250810190610a6d91906142a9565b6001600160a01b0316336001600160a01b031614610a9e57604051632d5be4cb60e21b815260040160405180910390fd5b6003805462ffffff909216600160b81b0262ffffff60b81b19909216919091179055565b6000805460015460405163d257be2b60e01b81526001600160a01b0391821660048201528392839262010000909104169063d257be2b906024016040805180830381865afa158015610b18573d6000803e3d6000fd5b505050506040513d601f19601f82011682018060405250810190610b3c9190614196565b600554600854929450909250610b5c9165ffffffffffff16428585611d39565b9250505090565b610b8e6040518060800160405280600081526020016000815260200160008152602001600081525090565b82828060020b8260020b121580610bac5750620d89e719600283900b125b80610bc85750610bbf620d89e7196142c6565b60020b8160020b135b80610bdf5750610bd9600a836142ff565b60020b15155b80610bf65750610bf0600a826142ff565b60020b15155b15610c275760405163957b5ed560e01b8152600283810b600483015282900b60248201526044015b60405180910390fd5b60035460408051633850c7bd60e01b815290516000926001600160a01b031691633850c7bd9160048083019260e09291908290030181865afa158015610c71573d6000803e3d6000fd5b505050506040513d601f19601f82011682018060405250810190610c9591906141fa565b50506040805160808101825260055480825260065460208301526007549282019290925260085465ffffffffffff166060820152908a526009549496509450610ceb93600a93508b92508a915086908690611b2b565b606088015260408701526020860152509295945050505050565b600080610d2a6000861284610d2257610d1d87614321565b610d24565b865b86610471565b91509150935093915050565b6003546001600160a01b03163314610d61576040516308458b2b60e21b815260040160405180910390fd5b8215610dcc576002546040516340c10f1960e01b8152336004820152602481018590526001600160a01b03909116906340c10f1990604401600060405180830381600087803b158015610db357600080fd5b505af1158015610dc7573d6000803e3d6000fd5b505050505b8315610e38576001546040516340c10f1960e01b8152336004820152602481018690526001600160a01b03909116906340c10f19906044015b600060405180830381600087803b158015610e1f57600080fd5b505af1158015610e33573d6000803e3d6000fd5b505050505b50505050565b600080610e6c6040518060800160405280600081526020016000815260200160008152602001600081525090565b6000546201000090046001600160a01b03163314610e9d57604051638597d08b60e01b815260040160405180910390fd5b85858060020b8260020b121580610ebb5750620d89e719600283900b125b80610ed75750610ece620d89e7196142c6565b60020b8160020b135b80610eee5750610ee8600a836142ff565b60020b15155b80610f055750610eff600a826142ff565b60020b15155b15610f315760405163957b5ed560e01b8152600283810b600483015282900b6024820152604401610c1e565b610f39610844565b600354610f5d90899089908990610f58906001600160a01b0316611d5b565b611dcc565b9250600086600f0b131561102d57600354604051633c8a7d8d60e01b815230600482015260028a810b602483015289900b60448201526001600160801b038816606482015260a06084820152600060a482018190529182916001600160a01b0390911690633c8a7d8d9060c40160408051808303816000875af1158015610fe8573d6000803e3d6000fd5b505050506040513d601f19601f8201168201806040525081019061100c9190614196565b9150915061101982611f1d565b955061102481611f1d565b9650505061110c565b60035460009081906001600160a01b031663a34123a78b8b6110518c60001961433e565b6040516001600160e01b031960e086901b168152600293840b60048201529190920b60248201526001600160801b03909116604482015260640160408051808303816000875af11580156110a9573d6000803e3d6000fd5b505050506040513d601f19601f820116820180604052508101906110cd9190614196565b915091506110da82611f1d565b6110e6906000196143dc565b95506110f181611f1d565b6110fd906000196143dc565b96506111098a8a611f33565b50505b505093509350939050565b600054610100900460ff166111325760005460ff1615611136565b303b155b6111995760405162461bcd60e51b815260206004820152602e60248201527f496e697469616c697a61626c653a20636f6e747261637420697320616c72656160448201526d191e481a5b9a5d1a585b1a5e995960921b6064820152608401610c1e565b600054610100900460ff161580156111bb576000805461ffff19166101011790555b6111c86020830183614461565b600080546001600160a01b0392909216620100000262010000600160b01b03199092169190911790556112016040830160208401614461565b600180546001600160a01b0319166001600160a01b03929092169190911790556112316060830160408401614461565b600280546001600160a01b0319166001600160a01b03929092169190911790556112616080830160608401614461565b600380546001600160a01b0319166001600160a01b039290921691909117905561129160a0830160808401613e89565b6003805462ffffff92909216600160b81b0262ffffff60b81b199092169190911790556112c460c0830160a08401613e89565b6003805462ffffff92909216600160d01b0262ffffff60d01b199092169190911790556112f760e0830160c08401613e89565b6003805462ffffff92909216600160a01b0262ffffff60a01b1990921691909117905561132b600560006001428180611c83565b80156108db576000805461ff00191690555050565b606060208251028201602001602083015b81811015611366578051548152602001611351565b509192915050565b6003546001600160a01b03163314611399576040516308458b2b60e21b815260040160405180910390fd5b600084131561147f57600360009054906101000a90046001600160a01b03166001600160a01b0316630dfe16816040518163ffffffff1660e01b8152600401602060405180830381865afa1580156113f5573d6000803e3d6000fd5b505050506040513d601f19601f8201168201806040525081019061141991906142a9565b6003546040516340c10f1960e01b81526001600160a01b039182166004820152602481018790529116906340c10f1990604401600060405180830381600087803b15801561146657600080fd5b505af115801561147a573d6000803e3d6000fd5b505050505b6000831315610e3857600360009054906101000a90046001600160a01b03166001600160a01b031663d21220a76040518163ffffffff1660e01b8152600401602060405180830381865afa1580156114db573d6000803e3d6000fd5b505050506040513d601f19601f820116820180604052508101906114ff91906142a9565b6003546040516340c10f1960e01b81526001600160a01b039182166004820152602481018690529116906340c10f1990604401610e05565b851561159857841561155657805161154f9085611fd0565b81526115da565b80516115659060028585612013565b6080830181905260608301829052825161158b929091611584916141d0565b6001612140565b80825261154f9085611fd0565b846115a2576115da565b80516115b19060018585612013565b608083018190526060830182905282516115d79290916115d0916141d0565b6000612140565b81525b505050505050565b600080856115f9578260a001518360800151611604565b82608001518360a001515b91509150600061163761161683611f1d565b60035460009062ffffff600160b81b8204811691600160d01b900416612013565b50905060008560c001516001600160801b03161180156116575750600083115b1561174d576000805460015460405163d257be2b60e01b81526001600160a01b03918216600482015283926201000090049091169063d257be2b906024016040805180830381865afa1580156116b1573d6000803e3d6000fd5b505050506040513d601f19601f820116820180604052508101906116d59190614196565b91509150611715896116f8576116ea86611f1d565b6116f390614321565b611701565b61170186611f1d565b60c08901516001600160801b0316426108cf565b60c0870151611734908490600160801b906001600160801b0316612185565b6009600082825461174591906141d0565b909155505050505b83606001516001600160a01b031685604001516001600160a01b031614156117bf578360400151156117bf57602080850151604080516080810182526005548152600654938101939093526007549083015260085465ffffffffffff1660608301526009546117bf92600a9291612233565b50505050505050565b60008061183a878787878b6001600160a01b031663ddca3f436040518163ffffffff1660e01b8152600401602060405180830381865afa158015611810573d6000803e3d6000fd5b505050506040513d601f19601f82011682018060405250810190611834919061447e565b886122b4565b915091509550959350505050565b85156118d25784156118a5576118628160200151856129d8565b602082015260408101516118799060008585612013565b6080830181905260608301829052604083015161189b929091611584916141d0565b60408201526115da565b6118b38160400151856129d8565b604082018190526080820151606083015161189b92916115d0916141d0565b8461191b576118e58160400151856129d8565b604082018190526118f99060008585612013565b6080830181905260608301829052604083015161189b9290916115d0916141d0565b6119298160200151856129d8565b602082015260408101516080820151606083015161194b9291611584916141d0565b6040820152505050505050565b6002546040516370a0823160e01b81523060048201526000916001600160a01b0316906370a0823190602401602060405180830381865afa1580156119a1573d6000803e3d6000fd5b505050506040513d601f19601f820116820180604052508101906119c5919061449b565b90508015611a2c57600254604051630852cd8d60e31b8152600481018390526001600160a01b03909116906342966c6890602401600060405180830381600087803b158015611a1357600080fd5b505af1158015611a27573d6000803e3d6000fd5b505050505b6001546040516370a0823160e01b81523060048201526000916001600160a01b0316906370a0823190602401602060405180830381865afa158015611a75573d6000803e3d6000fd5b505050506040513d601f19601f82011682018060405250810190611a99919061449b565b905080156108db57600154604051630852cd8d60e31b8152600481018390526001600160a01b03909116906342966c6890602401600060405180830381600087803b158015611ae757600080fd5b505af11580156115da573d6000803e3d6000fd5b6000611b16611b0a86846144b4565b8590600160801b6129ff565b611b2090846144f3565b90505b949350505050565b600285810b60009081526020889052604080822087840b8352908220600182015482549483015487519495869586959493928692611b6c9290918591611afb565b90506000846003015490508a60020b8d60020b1315611bb657828a60200151611b9591906144b4565b9250818a60400151611ba791906144b4565b9150611bb3818a614292565b90505b6001840154845460028601548c51600092611bd5929091859190611afb565b90506000866003015490508d60020b8f60020b13611c1e57828d60200151611bfd91906144b4565b9250818d60400151611c0f91906144b4565b9150611c1b818d614292565b90505b82868e60200151611c2f91906144b4565b611c3991906144b4565b9a5081858e60400151611c4c91906144b4565b611c5691906144b4565b995080611c63858e614292565b611c6d9190614292565b9850505050505050505096509650969350505050565b6003860154600090611c9f9065ffffffffffff16858585612a5c565b6001880154909150611cb7908290600160801b612a8b565b876002016000828254611cca91906144f3565b9091555050865481908890600090611ce39084906144f3565b90915550611cf8905086600160801b876129ff565b876001016000828254611d0b91906144f3565b90915550505050600394909401805465ffffffffffff191665ffffffffffff92909216919091179055505050565b6000611d4785858585612a5c565b611d5190876144f3565b9695505050505050565b6000816001600160a01b0316633850c7bd6040518163ffffffff1660e01b815260040160e060405180830381865afa158015611d9b573d6000803e3d6000fd5b505050506040513d601f19601f82011682018060405250810190611dbf91906141fa565b5093979650505050505050565b611df76040518060800160405280600081526020016000815260200160008152602001600081525090565b60408051608081018252600554815260065460208201526007549181019190915260085465ffffffffffff166060820152600954600080600f87900b15611e9957835160208501516040860151600354611e6793600a938e938c938e939291908b906001600160a01b0316612ad9565b845160208601516040870151600354939550611e9693600a938d938c938e938b906001600160a01b0316612ad9565b90505b611ea38989610b63565b9450600087600f0b1215611f11578115611ee157600289810b6000908152600a60205260408120818155600181018290559182018190556003909101555b8015611f1157600288810b6000908152600a60205260408120818155600181018290559182018190556003909101555b50505050949350505050565b6000600160ff1b8210611f2f57600080fd5b5090565b6003546040516309e3d67b60e31b8152306004820152600284810b602483015283900b60448201526001600160801b036064820181905260848201526001600160a01b0390911690634f1eb3d89060a40160408051808303816000875af1158015611fa2573d6000803e3d6000fd5b505050506040513d601f19601f82011682018060405250810190611fc6919061454b565b50506108db611958565b600080611fe083620f424061457e565b60020b611ff262ffffff8516866143dc565b611ffc919061459a565b6120079060016144f3565b9050611b2381856144f3565b600080600061202187612bc3565b90506001866002811115612037576120376145c8565b1415612078578361204b86620f424061457e565b612055919061457e565b62ffffff1661206782620f42406145de565b61207191906145fd565b90506120c9565b600286600281111561208c5761208c6145c8565b14156120c957836120a086620f4240614611565b6120aa9190614611565b62ffffff166120bc82620f42406145de565b6120c691906145fd565b90505b6000620f42406120d98688614611565b6120e89062ffffff16846145de565b6120f291906145fd565b6120fd9060016141d0565b9050620f424061211262ffffff8816846145de565b61211c91906145fd565b6121279060016141d0565b93506121338482614292565b9250505094509492505050565b600080826001811115612155576121556145c8565b146000851314156121715761216a83856144f3565b905061217e565b61217b83856144b4565b90505b9392505050565b6000808060001985870985870292508281108382030391505080600014156121bf57600084116121b457600080fd5b50829004905061217e565b8084116121cb57600080fd5b600084868809851960019081018716968790046003810260029081188083028203028083028203028083028203028083028203028083028203029182029003026000889003889004909101858311909403939093029303949094049190911702949350505050565b600283810b600090815260208690526040812080546001820154938201548651929461226193909190611afb565b845183556001830154602086015191925061227b916144b4565b600183015560408401516122909082906144b4565b600283015560038201546122a49084614292565b8260030181905550505050505050565b600080856122e95760405162461bcd60e51b8152602060048201526002602482015261415360f01b6044820152606401610c1e565b6040805160c081018252600080825260208201819052918101829052606081018290526080810182905260a0810191909152886001600160a01b0316633850c7bd6040518163ffffffff1660e01b815260040160e060405180830381865afa158015612359573d6000803e3d6000fd5b505050506040513d601f19601f8201168201806040525081019061237d91906141fa565b5060ff1660408088019190915260029490940b6020808801919091526001600160a01b0395861687528451630d34328160e11b81529451958f1695631a68650295600480820196509294509092508290030181865afa1580156123e4573d6000803e3d6000fd5b505050506040513d601f19601f82011682018060405250810190612408919061462f565b6001600160801b03166060820152604080516334324e9f60e21b815290516001600160a01b038b169163d0c93a7c9160048083019260209291908290030181865afa15801561245b573d6000803e3d6000fd5b505050506040513d601f19601f8201168201806040525081019061247f919061464a565b60020b608082015262ffffff851660a0820152876124dd5780600001516001600160a01b0316866001600160a01b03161180156124d8575073fffd8963efd1fc6a506488495d951d5263988d266001600160a01b038716105b61250f565b80600001516001600160a01b0316866001600160a01b031610801561250f57506401000276a36001600160a01b038716115b6125415760405162461bcd60e51b815260206004820152600360248201526214d41360ea1b6044820152606401610c1e565b6000808813905060006040518060e001604052808a81526020016000815260200184600001516001600160a01b03168152602001846020015160020b81526020016000815260200160006001600160801b0316815260200184606001516001600160801b031681525090505b8051158015906125d35750876001600160a01b031681604001516001600160a01b031614155b15612993576040805160e081018252600080825260208201819052918101829052606081018290526080810182905260a0810182905260c081019190915260408201516001600160a01b03908116825260608301516080860151612640928f1691635339c296918f612bdb565b1515604083015260020b60208201819052620d89e719131561266b57620d89e719602082015261269f565b612678620d89e7196142c6565b60020b816020015160020b131561269f57612696620d89e7196142c6565b60020b60208201525b6126ac8160200151612e47565b6001600160a01b031660608201526040820151612721908c6126e6578a6001600160a01b031683606001516001600160a01b031611612700565b8a6001600160a01b031683606001516001600160a01b0316105b61270e578260600151612710565b8a5b60c0850151855160a089015161317a565b60c085015260a084015260808301526001600160a01b031660408301528215612799576127608160c00151826080015161275b91906141d0565b611f1d565b8251839061276f9083906144b4565b90525060a081015161278090611f1d565b826020015161278f91906144b4565b60208301526127e4565b6127a68160a00151611f1d565b825183906127b59083906144f3565b90525060c081015160808201516127cf9161275b916141d0565b82602001516127de91906144f3565b60208301525b60c08201516001600160801b03161561282c576128178160c00151600160801b8460c001516001600160801b0316612185565b8260800181815161282891906141d0565b9052505b63ffffffff610e3881169088161461284e5761284e8b8584848b63ffffffff16565b80606001516001600160a01b031682604001516001600160a01b031614156129565780604001511561292957602081015160405163f30dba9360e01b815260029190910b60048201526000906001600160a01b038e169063f30dba939060240161010060405180830381865afa1580156128cc573d6000803e3d6000fd5b505050506040513d601f19601f820116820180604052508101906128f09190614667565b5050505050509150508b1561290b5761290881614710565b90505b6129198360c001518261336c565b6001600160801b031660c0840152505b8a612938578060200151612949565b60018160200151612949919061472e565b60020b606083015261298d565b80600001516001600160a01b031682604001516001600160a01b03161461298d57612984826040015161340e565b60020b60608301525b506125ad565b8115158a1515146129b457602081015181516129af908b6144b4565b6129c6565b80516129c0908a6144b4565b81602001515b94509450505050965096945050505050565b6000620f42406129e8838261457e565b6129f59060020b856143dc565b61217e919061459a565b60006001818080612a108885613727565b94509250612a1e8785613727565b94509150612a2c8685613727565b94509050612a3e61275b848484612185565b945083612a5157612a4e85614321565b94505b505050509392505050565b6000611b20612a6b8686614776565b65ffffffffffff1662015180612a8485878282826144b4565b9190613754565b6000612a988484846129ff565b9050600081128015612ac85750612ac8612ab18561378e565b612aba8561378e565b612ac38561378e565b613799565b1561217e5761217b600019826144f3565b600288900b600081815260208b90526040808220905163f30dba9360e01b81526004810193909352909182906001600160a01b0385169063f30dba939060240161010060405180830381865afa158015612b37573d6000803e3d6000fd5b505050506040513d601f19601f82011682018060405250810190612b5b9190614667565b5050505050505090506000612b70828b61336c565b6001600160801b038381161590821615811415955090915015612bb3578a60020b8c60020b13612bb3578883556001830188905560028301879055600383018690555b5050509998505050505050505050565b6000808213611f2f57612bd582614321565b92915050565b60008080612be98587614795565b905060008660020b128015612c095750612c0385876142ff565b60020b15155b15612c1c5780612c18816147cf565b9150505b8315612d2157600080612c2e836137b2565b90925090506000600160ff831681901b90612c499082614292565b612c5391906141d0565b90506000818c8c866040518263ffffffff1660e01b8152600401612c80919060019190910b815260200190565b602060405180830381865afa158015612c9d573d6000803e3d6000fd5b505050506040513d601f19601f82011682018060405250810190612cc1919061449b565b168015159650905085612ceb5788612cdc60ff85168761472e565b612ce691906147f3565b612d16565b88612cf5826137cf565b612cff908561483e565b612d0c9060ff168761472e565b612d1691906147f3565b965050505050612e3c565b600080612d37612d32846001614861565b6137b2565b90925090506000612d4f600160ff841681901b614292565b1990506000818c8c866040518263ffffffff1660e01b8152600401612d7d919060019190910b815260200190565b602060405180830381865afa158015612d9a573d6000803e3d6000fd5b505050506040513d601f19601f82011682018060405250810190612dbe919061449b565b168015159650905085612dfe5788612dd78460ff61483e565b60ff16612de5876001614861565b612def9190614861565b612df991906147f3565b612e35565b8883612e0983613870565b612e13919061483e565b60ff16612e21876001614861565b612e2b9190614861565b612e3591906147f3565b9650505050505b509550959350505050565b60008060008360020b12612e5e578260020b612e66565b8260020b6000035b9050620d89e8811115612e9f5760405162461bcd60e51b81526020600482015260016024820152601560fa1b6044820152606401610c1e565b600060018216612eb357600160801b612ec5565b6ffffcb933bd6fad37aa2d162d1a5940015b70ffffffffffffffffffffffffffffffffff1690506002821615612ef9576ffff97272373d413259a46990580e213a0260801c5b6004821615612f18576ffff2e50f5f656932ef12357cf3c7fdcc0260801c5b6008821615612f37576fffe5caca7e10e4e61c3624eaa0941cd00260801c5b6010821615612f56576fffcb9843d60f6159c9db58835c9266440260801c5b6020821615612f75576fff973b41fa98c081472e6896dfb254c00260801c5b6040821615612f94576fff2ea16466c96a3843ec78b326b528610260801c5b6080821615612fb3576ffe5dee046a99a2a811c461f1969c30530260801c5b610100821615612fd3576ffcbe86c7900a88aedcffc83b479aa3a40260801c5b610200821615612ff3576ff987a7253ac413176f2b074cf7815e540260801c5b610400821615613013576ff3392b0822b70005940c7a398e4b70f30260801c5b610800821615613033576fe7159475a2c29b7443b29c7fa6e889d90260801c5b611000821615613053576fd097f3bdfd2022b8845ad8f792aa58250260801c5b612000821615613073576fa9f746462d870fdf8a65dc1f90e061e50260801c5b614000821615613093576f70d869a156d2a1b890bb3df62baf32f70260801c5b6180008216156130b3576f31be135f97d08fd981231505542fcfa60260801c5b620100008216156130d4576f09aa508b5b7a84e1c677de54f3e99bc90260801c5b620200008216156130f4576e5d6af8dedb81196699c329225ee6040260801c5b62040000821615613113576d2216e584f5fa1ea926041bedfe980260801c5b62080000821615613130576b048a170391f7dc42444e8fa20260801c5b60008460020b131561315157806000198161314d5761314d6142e9565b0490505b640100000000810615613165576001613168565b60005b60ff16602082901c0192505050919050565b60008080806001600160a01b03808916908a1610158187128015906131ff5760006131b38989620f42400362ffffff16620f4240612185565b9050826131cc576131c78c8c8c600161395a565b6131d9565b6131d98b8d8c60016139ca565b95508581106131ea578a96506131f9565b6131f68c8b8386613a81565b96505b50613249565b81613216576132118b8b8b60006139ca565b613223565b6132238a8c8b600061395a565b935083886000031061323757899550613249565b6132468b8a8a60000385613acd565b95505b6001600160a01b038a81169087161482156132ac578080156132685750815b61327e57613279878d8c60016139ca565b613280565b855b955080801561328d575081155b6132a35761329e878d8c600061395a565b6132a5565b845b94506132f6565b8080156132b65750815b6132cc576132c78c888c600161395a565b6132ce565b855b95508080156132db575081155b6132f1576132ec8c888c60006139ca565b6132f3565b845b94505b8115801561330657508860000385115b15613312578860000394505b81801561333157508a6001600160a01b0316876001600160a01b031614155b1561334057858903935061335d565b61335a868962ffffff168a620f42400362ffffff16613b19565b93505b50505095509550955095915050565b60008082600f0b12156133c257508082016001600160801b03808416908216106133bd5760405162461bcd60e51b81526020600482015260026024820152614c5360f01b6044820152606401610c1e565b612bd5565b826001600160801b03168284019150816001600160801b03161015612bd55760405162461bcd60e51b81526020600482015260026024820152614c4160f01b6044820152606401610c1e565b60006401000276a36001600160a01b0383161080159061344a575073fffd8963efd1fc6a506488495d951d5263988d266001600160a01b038316105b61347a5760405162461bcd60e51b81526020600482015260016024820152602960f91b6044820152606401610c1e565b640100000000600160c01b03602083901b166001600160801b03811160071b81811c67ffffffffffffffff811160061b90811c63ffffffff811160051b90811c61ffff811160041b90811c60ff8111600390811b91821c600f811160021b90811c918211600190811b92831c9790881196179094179092171790911717176080811061350e57607f810383901c9150613518565b80607f0383901b91505b908002607f81811c60ff83811c9190911c800280831c81831c1c800280841c81841c1c800280851c81851c1c800280861c81861c1c800280871c81871c1c800280881c81881c1c800280891c81891c1c8002808a1c818a1c1c8002808b1c818b1c1c8002808c1c818c1c1c8002808d1c818d1c1c8002808e1c9c81901c9c909c1c80029c8d901c9e9d607f198f0160401b60c09190911c678000000000000000161760c19b909b1c674000000000000000169a909a1760c29990991c672000000000000000169890981760c39790971c671000000000000000169690961760c49590951c670800000000000000169490941760c59390931c670400000000000000169290921760c69190911c670200000000000000161760c79190911c670100000000000000161760c89190911c6680000000000000161760c99190911c6640000000000000161760ca9190911c6620000000000000161760cb9190911c6610000000000000161760cc9190911c6608000000000000161760cd9190911c66040000000000001617693627a301d71055774c8581026f028f6481ab7f045a5af012a19d003aa9198101608090811d906fdb2df09e81959a81455e260799a0632f8301901d600281810b9083900b1461371857886001600160a01b03166136fd82612e47565b6001600160a01b03161115613712578161371a565b8061371a565b815b9998505050505050505050565b60008060008412156137465791159161373f84614321565b915061374a565b8391505b50815b9250929050565b600061377a600085126137675784613773565b613773856000196143dc565b8484612185565b9050600084121561217e5761217b81614321565b6000612bd582612bc3565b60008183850980156137aa57600191505b509392505050565b600281900b60081d60006137c8610100846142ff565b9050915091565b60008082116137dd57600080fd5b600160801b82106137f057608091821c91015b68010000000000000000821061380857604091821c91015b640100000000821061381c57602091821c91015b62010000821061382e57601091821c91015b610100821061383f57600891821c91015b6010821061384f57600491821c91015b6004821061385f57600291821c91015b6002821061386b576001015b919050565b600080821161387e57600080fd5b5060ff6001600160801b0382161561389957607f19016138a1565b608082901c91505b67ffffffffffffffff8216156138ba57603f19016138c2565b604082901c91505b63ffffffff8216156138d757601f19016138df565b602082901c91505b61ffff8216156138f257600f19016138fa565b601082901c91505b60ff82161561390c5760071901613914565b600882901c91505b600f821615613926576003190161392e565b600482901c91505b60038216156139405760011901613948565b600282901c91505b600182161561386b5760001901919050565b6000836001600160a01b0316856001600160a01b0316111561397a579293925b816139a7576139a2836001600160801b03168686036001600160a01b0316600160601b612185565b611b20565b611b20836001600160801b03168686036001600160a01b0316600160601b613b19565b6000836001600160a01b0316856001600160a01b031611156139ea579293925b600160601b600160e01b03606084901b166001600160a01b038686038116908716613a1457600080fd5b83613a4a57866001600160a01b0316613a378383896001600160a01b0316612185565b81613a4457613a446142e9565b04613a76565b613a76613a618383896001600160a01b0316613b19565b886001600160a01b0316808204910615150190565b979650505050505050565b600080856001600160a01b031611613a9857600080fd5b6000846001600160801b031611613aae57600080fd5b81613ac0576139a28585856001613b59565b611b208585856001613c46565b600080856001600160a01b031611613ae457600080fd5b6000846001600160801b031611613afa57600080fd5b81613b0c576139a28585856000613c46565b611b208585856000613b59565b6000613b26848484612185565b905060008280613b3857613b386142e9565b848609111561217e576000198110613b4f57600080fd5b6001019392505050565b60008115613bd25760006001600160a01b03841115613b8f57613b8a84600160601b876001600160801b0316612185565b613bad565b6001600160801b038516606085901b81613bab57613bab6142e9565b045b9050613bca613bc56001600160a01b03881683613d41565b613d51565b915050611b23565b60006001600160a01b03841115613c0057613bfb84600160601b876001600160801b0316613b19565b613c1d565b613c1d606085901b6001600160801b038716808204910615150190565b905080866001600160a01b031611613c3457600080fd5b6001600160a01b038616039050611b23565b600082613c54575083611b23565b600160601b600160e01b03606085901b168215613cf4576001600160a01b03861684810290858281613c8857613c886142e9565b041415613cb957818101828110613cb757613cad83896001600160a01b031683613b19565b9350505050611b23565b505b613ceb82613ce0878a6001600160a01b03168681613cd957613cd96142e9565b0490613d41565b808204910615150190565b92505050611b23565b6001600160a01b03861684810290858281613d1157613d116142e9565b04148015613d1e57508082115b613d2757600080fd5b808203613cad613bc5846001600160a01b038b1684613b19565b80820182811015612bd557600080fd5b806001600160a01b038116811461386b57600080fd5b8015158114613d7557600080fd5b50565b6001600160a01b0381168114613d7557600080fd5b600080600060608486031215613da257600080fd5b8335613dad81613d67565b9250602084013591506040840135613dc481613d78565b809150509250925092565b600060208284031215613de157600080fd5b5035919050565b8060020b8114613d7557600080fd5b60008060408385031215613e0a57600080fd5b8235613e1581613de8565b91506020830135613e2581613de8565b809150509250929050565b8151815260208083015190820152604080830151908201526060808301519082015260808101612bd5565b600060208284031215613e6d57600080fd5b813561217e81613de8565b62ffffff81168114613d7557600080fd5b600060208284031215613e9b57600080fd5b813561217e81613e78565b600080600060608486031215613ebb57600080fd5b833592506020840135613ecd81613d78565b91506040840135613dc481613d67565b60008083601f840112613eef57600080fd5b50813567ffffffffffffffff811115613f0757600080fd5b60208301915083602082850101111561374d57600080fd5b60008060008060608587031215613f3557600080fd5b8435935060208501359250604085013567ffffffffffffffff811115613f5a57600080fd5b613f6687828801613edd565b95989497509550505050565b80600f0b8114613d7557600080fd5b600080600060608486031215613f9657600080fd5b8335613fa181613de8565b92506020840135613fb181613de8565b91506040840135613dc481613f72565b8381526020810183905260c08101611b236040830184805182526020810151602083015260408101516040830152606081015160608301525050565b600060e0828403121561400f57600080fd5b50919050565b634e487b7160e01b600052604160045260246000fd5b6000602080838503121561403e57600080fd5b823567ffffffffffffffff8082111561405657600080fd5b818501915085601f83011261406a57600080fd5b81358181111561407c5761407c614015565b8060051b604051601f19603f830116810181811085821117156140a1576140a1614015565b6040529182528482019250838101850191888311156140bf57600080fd5b938501935b828510156140dd578435845293850193928501926140c4565b98975050505050505050565b6020808252825182820181905260009190848201906040850190845b8181101561412157835183529284019291840191600101614105565b50909695505050505050565b634e487b7160e01b600052601160045260246000fd5b60006001600160a01b03838116908316818110156141635761416361412d565b039392505050565b60006001600160a01b0382811684821680830382111561418d5761418d61412d565b01949350505050565b600080604083850312156141a957600080fd5b505080516020909101519092909150565b634e487b7160e01b600052600160045260246000fd5b600082198211156141e3576141e361412d565b500190565b805161ffff8116811461386b57600080fd5b600080600080600080600060e0888a03121561421557600080fd5b875161422081613d78565b602089015190975061423181613de8565b955061423f604089016141e8565b945061424d606089016141e8565b935061425b608089016141e8565b925060a088015160ff8116811461427157600080fd5b60c089015190925061428281613d67565b8091505092959891949750929550565b6000828210156142a4576142a461412d565b500390565b6000602082840312156142bb57600080fd5b815161217e81613d78565b60008160020b627fffff198114156142e0576142e061412d565b60000392915050565b634e487b7160e01b600052601260045260246000fd5b60008260020b80614312576143126142e9565b808360020b0791505092915050565b6000600160ff1b8214156143375761433761412d565b5060000390565b600081600f0b83600f0b60016001607f1b0360008213600084138383048511828216161561436e5761436e61412d565b6f7fffffffffffffffffffffffffffffff19600085128281168783058712161561439a5761439a61412d565b600087129250858205871284841616156143b6576143b661412d565b858505871281841616156143cc576143cc61412d565b5050509290910295945050505050565b60006001600160ff1b03818413828413808216868404861116156144025761440261412d565b600160ff1b60008712828116878305891216156144215761442161412d565b6000871292508782058712848416161561443d5761443d61412d565b878505871281841616156144535761445361412d565b505050929093029392505050565b60006020828403121561447357600080fd5b813561217e81613d78565b60006020828403121561449057600080fd5b815161217e81613e78565b6000602082840312156144ad57600080fd5b5051919050565b60008083128015600160ff1b8501841216156144d2576144d261412d565b6001600160ff1b03840183138116156144ed576144ed61412d565b50500390565b600080821280156001600160ff1b03849003851316156145155761451561412d565b600160ff1b839003841281161561452e5761452e61412d565b50500190565b80516001600160801b038116811461386b57600080fd5b6000806040838503121561455e57600080fd5b61456783614534565b915061457560208401614534565b90509250929050565b600062ffffff838116908316818110156141635761416361412d565b6000826145a9576145a96142e9565b600160ff1b8214600019841416156145c3576145c361412d565b500590565b634e487b7160e01b600052602160045260246000fd5b60008160001904831182151516156145f8576145f861412d565b500290565b60008261460c5761460c6142e9565b500490565b600062ffffff80831681851680830382111561418d5761418d61412d565b60006020828403121561464157600080fd5b61217e82614534565b60006020828403121561465c57600080fd5b815161217e81613de8565b600080600080600080600080610100898b03121561468457600080fd5b61468d89614534565b9750602089015161469d81613f72565b80975050604089015195506060890151945060808901518060060b81146146c357600080fd5b60a08a01519094506146d481613d78565b60c08a015190935063ffffffff811681146146ee57600080fd5b60e08a01519092506146ff81613d67565b809150509295985092959890939650565b600081600f0b60016001607f1b03198114156142e0576142e061412d565b60008160020b8360020b6000811281627fffff19018312811516156147555761475561412d565b81627fffff01831381161561476c5761476c61412d565b5090039392505050565b600065ffffffffffff838116908316818110156141635761416361412d565b60008160020b8360020b806147ac576147ac6142e9565b627fffff198214600019821416156147c6576147c661412d565b90059392505050565b60008160020b627fffff198114156147e9576147e961412d565b6000190192915050565b60008160020b8360020b627fffff60008213600084138383048511828216161561481f5761481f61412d565b627fffff19600085128281168783058712161561439a5761439a61412d565b600060ff821660ff8416808210156148585761485861412d565b90039392505050565b60008160020b8360020b6000821282627fffff038213811516156148875761488761412d565b82627fffff1903821281161561489f5761489f61412d565b5001939250505056fea2646970667358221220b55870a48fcf754806cdbb046b04cb86b700a884c8b652ad1b4dca54496cffa664736f6c634300080c0033",
  "devdoc": {
    "kind": "dev",
    "methods": {
      "swap(bool,int256,uint160)": {
        "params": {
          "amountSpecified": ": The amount of the swap, which implicitly configures the swap as exact input (positive), or exact output (negative)",
          "sqrtPriceLimitX96": ": The Q64.96 sqrt price limit. If zero for one, the price cannot be less than this value after the swap. If one for zero, the price cannot be greater than this value after the swap.",
          "swapVTokenForVBase": ": The direction of the swap, true for vToken to vBase, false for vBase to vToken"
        }
      },
      "swapToken(int256,uint160,bool)": {
        "params": {
          "amount": ": positive means long, negative means short",
          "isNotional": ": true means amountSpecified is dollar amount",
          "sqrtPriceLimitX96": ": The Q64.96 sqrt price limit. If zero for one, the price cannot be less than this value after the swap. If one for zero, the price cannot be greater than this value after the swap."
        }
      }
    },
    "version": 1
  },
  "userdoc": {
    "kind": "user",
    "methods": {
      "__initialize_VPoolWrapper((address,address,address,address,uint24,uint24,uint24))": {
        "notice": "PLATFORM FUNCTIONS"
      },
      "getSumAX128()": {
        "notice": "VIEW METHODS"
      },
      "setLiquidityFee(uint24)": {
        "notice": "ADMIN FUNCTIONS"
      },
      "swap(bool,int256,uint160)": {
        "notice": "Swap vToken for vBase, or vBase for vToken"
      },
      "swapToken(int256,uint160,bool)": {
        "notice": "swaps token"
      },
      "uniswapV3SwapCallback(int256,int256,bytes)": {
        "notice": "UNISWAP V3 POOL CALLBACkS"
      }
    },
    "version": 1
  },
  "storageLayout": {
    "storage": [
      {
        "astId": 299,
        "contract": "contracts/protocol/wrapper/VPoolWrapper.sol:VPoolWrapper",
        "label": "_initialized",
        "offset": 0,
        "slot": "0",
        "type": "t_bool"
      },
      {
        "astId": 302,
        "contract": "contracts/protocol/wrapper/VPoolWrapper.sol:VPoolWrapper",
        "label": "_initializing",
        "offset": 1,
        "slot": "0",
        "type": "t_bool"
      },
      {
        "astId": 22338,
        "contract": "contracts/protocol/wrapper/VPoolWrapper.sol:VPoolWrapper",
        "label": "clearingHouse",
        "offset": 2,
        "slot": "0",
        "type": "t_contract(IClearingHouse)7931"
      },
      {
        "astId": 22341,
        "contract": "contracts/protocol/wrapper/VPoolWrapper.sol:VPoolWrapper",
        "label": "vToken",
        "offset": 0,
        "slot": "1",
        "type": "t_contract(IVToken)8182"
      },
      {
        "astId": 22344,
        "contract": "contracts/protocol/wrapper/VPoolWrapper.sol:VPoolWrapper",
        "label": "vBase",
        "offset": 0,
        "slot": "2",
        "type": "t_contract(IVBase)8013"
      },
      {
        "astId": 22347,
        "contract": "contracts/protocol/wrapper/VPoolWrapper.sol:VPoolWrapper",
        "label": "vPool",
        "offset": 0,
        "slot": "3",
        "type": "t_contract(IUniswapV3Pool)5402"
      },
      {
        "astId": 22349,
        "contract": "contracts/protocol/wrapper/VPoolWrapper.sol:VPoolWrapper",
        "label": "uniswapFeePips",
        "offset": 20,
        "slot": "3",
        "type": "t_uint24"
      },
      {
        "astId": 22351,
        "contract": "contracts/protocol/wrapper/VPoolWrapper.sol:VPoolWrapper",
        "label": "liquidityFeePips",
        "offset": 23,
        "slot": "3",
        "type": "t_uint24"
      },
      {
        "astId": 22353,
        "contract": "contracts/protocol/wrapper/VPoolWrapper.sol:VPoolWrapper",
        "label": "protocolFeePips",
        "offset": 26,
        "slot": "3",
        "type": "t_uint24"
      },
      {
        "astId": 22355,
        "contract": "contracts/protocol/wrapper/VPoolWrapper.sol:VPoolWrapper",
        "label": "accruedProtocolFee",
        "offset": 0,
        "slot": "4",
        "type": "t_uint256"
      },
      {
        "astId": 22358,
        "contract": "contracts/protocol/wrapper/VPoolWrapper.sol:VPoolWrapper",
        "label": "fpGlobal",
        "offset": 0,
        "slot": "5",
        "type": "t_struct(Info)10975_storage"
      },
      {
        "astId": 22360,
        "contract": "contracts/protocol/wrapper/VPoolWrapper.sol:VPoolWrapper",
        "label": "sumFeeGlobalX128",
        "offset": 0,
        "slot": "9",
        "type": "t_uint256"
      },
      {
        "astId": 22365,
        "contract": "contracts/protocol/wrapper/VPoolWrapper.sol:VPoolWrapper",
        "label": "ticksExtended",
        "offset": 0,
        "slot": "10",
        "type": "t_mapping(t_int24,t_struct(Info)15003_storage)"
      }
    ],
    "types": {
      "t_bool": {
        "encoding": "inplace",
        "label": "bool",
        "numberOfBytes": "1"
      },
      "t_contract(IClearingHouse)7931": {
        "encoding": "inplace",
        "label": "contract IClearingHouse",
        "numberOfBytes": "20"
      },
      "t_contract(IUniswapV3Pool)5402": {
        "encoding": "inplace",
        "label": "contract IUniswapV3Pool",
        "numberOfBytes": "20"
      },
      "t_contract(IVBase)8013": {
        "encoding": "inplace",
        "label": "contract IVBase",
        "numberOfBytes": "20"
      },
      "t_contract(IVToken)8182": {
        "encoding": "inplace",
        "label": "contract IVToken",
        "numberOfBytes": "20"
      },
      "t_int24": {
        "encoding": "inplace",
        "label": "int24",
        "numberOfBytes": "3"
      },
      "t_int256": {
        "encoding": "inplace",
        "label": "int256",
        "numberOfBytes": "32"
      },
      "t_mapping(t_int24,t_struct(Info)15003_storage)": {
        "encoding": "mapping",
        "key": "t_int24",
        "label": "mapping(int24 => struct Tick.Info)",
        "numberOfBytes": "32",
        "value": "t_struct(Info)15003_storage"
      },
      "t_struct(Info)10975_storage": {
        "encoding": "inplace",
        "label": "struct FundingPayment.Info",
        "members": [
          {
            "astId": 10968,
            "contract": "contracts/protocol/wrapper/VPoolWrapper.sol:VPoolWrapper",
            "label": "sumAX128",
            "offset": 0,
            "slot": "0",
            "type": "t_int256"
          },
          {
            "astId": 10970,
            "contract": "contracts/protocol/wrapper/VPoolWrapper.sol:VPoolWrapper",
            "label": "sumBX128",
            "offset": 0,
            "slot": "1",
            "type": "t_int256"
          },
          {
            "astId": 10972,
            "contract": "contracts/protocol/wrapper/VPoolWrapper.sol:VPoolWrapper",
            "label": "sumFpX128",
            "offset": 0,
            "slot": "2",
            "type": "t_int256"
          },
          {
            "astId": 10974,
            "contract": "contracts/protocol/wrapper/VPoolWrapper.sol:VPoolWrapper",
            "label": "timestampLast",
            "offset": 0,
            "slot": "3",
            "type": "t_uint48"
          }
        ],
        "numberOfBytes": "128"
      },
      "t_struct(Info)15003_storage": {
        "encoding": "inplace",
        "label": "struct Tick.Info",
        "members": [
          {
            "astId": 14996,
            "contract": "contracts/protocol/wrapper/VPoolWrapper.sol:VPoolWrapper",
            "label": "sumALastX128",
            "offset": 0,
            "slot": "0",
            "type": "t_int256"
          },
          {
            "astId": 14998,
            "contract": "contracts/protocol/wrapper/VPoolWrapper.sol:VPoolWrapper",
            "label": "sumBOutsideX128",
            "offset": 0,
            "slot": "1",
            "type": "t_int256"
          },
          {
            "astId": 15000,
            "contract": "contracts/protocol/wrapper/VPoolWrapper.sol:VPoolWrapper",
            "label": "sumFpOutsideX128",
            "offset": 0,
            "slot": "2",
            "type": "t_int256"
          },
          {
            "astId": 15002,
            "contract": "contracts/protocol/wrapper/VPoolWrapper.sol:VPoolWrapper",
            "label": "sumFeeOutsideX128",
            "offset": 0,
            "slot": "3",
            "type": "t_uint256"
          }
        ],
        "numberOfBytes": "128"
      },
      "t_uint24": {
        "encoding": "inplace",
        "label": "uint24",
        "numberOfBytes": "3"
      },
      "t_uint256": {
        "encoding": "inplace",
        "label": "uint256",
        "numberOfBytes": "32"
      },
      "t_uint48": {
        "encoding": "inplace",
        "label": "uint48",
        "numberOfBytes": "6"
      }
    }
  }
}