{
  "address": "0xEA674577C34F32B04Db0e05cC39c2286529b74C2",
  "abi": [
    {
      "inputs": [
        {
          "internalType": "uint160",
          "name": "sqrtPriceLimitX96",
          "type": "uint160"
        }
      ],
      "name": "InvalidSqrtPriceLimit",
      "type": "error"
    },
    {
      "inputs": [
        {
          "internalType": "int24",
          "name": "tickLower",
          "type": "int24"
        },
        {
          "internalType": "int24",
          "name": "tickUpper",
          "type": "int24"
        }
      ],
      "name": "InvalidTicks",
      "type": "error"
    },
    {
      "inputs": [],
      "name": "NotClearingHouse",
      "type": "error"
    },
    {
      "inputs": [],
      "name": "NotGovernance",
      "type": "error"
    },
    {
      "inputs": [],
      "name": "NotUniswapV3Pool",
      "type": "error"
    },
    {
      "inputs": [],
      "name": "R",
      "type": "error"
    },
    {
      "inputs": [
        {
          "internalType": "uint128",
          "name": "value",
          "type": "uint128"
        }
      ],
      "name": "SafeCast_Int128Overflow",
      "type": "error"
    },
    {
      "inputs": [
        {
          "internalType": "uint256",
          "name": "value",
          "type": "uint256"
        }
      ],
      "name": "SafeCast_Int256Overflow",
      "type": "error"
    },
    {
      "inputs": [],
      "name": "T",
      "type": "error"
    },
    {
      "inputs": [],
      "name": "ZeroAmount",
      "type": "error"
    },
    {
      "anonymous": false,
      "inputs": [
        {
          "indexed": false,
          "internalType": "uint256",
          "name": "amount",
          "type": "uint256"
        }
      ],
      "name": "AccruedProtocolFeeCollected",
      "type": "event"
    },
    {
      "anonymous": false,
      "inputs": [
        {
          "indexed": false,
          "internalType": "int24",
          "name": "tickLower",
          "type": "int24"
        },
        {
          "indexed": false,
          "internalType": "int24",
          "name": "tickUpper",
          "type": "int24"
        },
        {
          "indexed": false,
          "internalType": "uint128",
          "name": "liquidity",
          "type": "uint128"
        },
        {
          "indexed": false,
          "internalType": "uint256",
          "name": "vTokenPrincipal",
          "type": "uint256"
        },
        {
          "indexed": false,
          "internalType": "uint256",
          "name": "vQuotePrincipal",
          "type": "uint256"
        }
      ],
      "name": "Burn",
      "type": "event"
    },
    {
      "anonymous": false,
      "inputs": [
        {
          "indexed": false,
          "internalType": "int256",
          "name": "fundingRateOverrideX128",
          "type": "int256"
        }
      ],
      "name": "FundingRateOverrideUpdated",
      "type": "event"
    },
    {
      "anonymous": false,
      "inputs": [
        {
          "indexed": false,
          "internalType": "uint24",
          "name": "liquidityFeePips",
          "type": "uint24"
        }
      ],
      "name": "LiquidityFeeUpdated",
      "type": "event"
    },
    {
      "anonymous": false,
      "inputs": [
        {
          "indexed": false,
          "internalType": "int24",
          "name": "tickLower",
          "type": "int24"
        },
        {
          "indexed": false,
          "internalType": "int24",
          "name": "tickUpper",
          "type": "int24"
        },
        {
          "indexed": false,
          "internalType": "uint128",
          "name": "liquidity",
          "type": "uint128"
        },
        {
          "indexed": false,
          "internalType": "uint256",
          "name": "vTokenPrincipal",
          "type": "uint256"
        },
        {
          "indexed": false,
          "internalType": "uint256",
          "name": "vQuotePrincipal",
          "type": "uint256"
        }
      ],
      "name": "Mint",
      "type": "event"
    },
    {
      "anonymous": false,
      "inputs": [
        {
          "indexed": false,
          "internalType": "uint24",
          "name": "protocolFeePips",
          "type": "uint24"
        }
      ],
      "name": "ProtocolFeeUpdated",
      "type": "event"
    },
    {
      "anonymous": false,
      "inputs": [
        {
          "components": [
            {
              "internalType": "int256",
              "name": "amountSpecified",
              "type": "int256"
            },
            {
              "internalType": "int256",
              "name": "vTokenIn",
              "type": "int256"
            },
            {
              "internalType": "int256",
              "name": "vQuoteIn",
              "type": "int256"
            },
            {
              "internalType": "uint256",
              "name": "liquidityFees",
              "type": "uint256"
            },
            {
              "internalType": "uint256",
              "name": "protocolFees",
              "type": "uint256"
            },
            {
              "internalType": "uint160",
              "name": "sqrtPriceX96Start",
              "type": "uint160"
            },
            {
              "internalType": "uint160",
              "name": "sqrtPriceX96End",
              "type": "uint160"
            }
          ],
          "indexed": false,
          "internalType": "struct IVPoolWrapper.SwapResult",
          "name": "swapResult",
          "type": "tuple"
        }
      ],
      "name": "Swap",
      "type": "event"
    },
    {
      "inputs": [
        {
          "components": [
            {
              "internalType": "contract IClearingHouse",
              "name": "clearingHouse",
              "type": "address"
            },
            {
              "internalType": "contract IVToken",
              "name": "vToken",
              "type": "address"
            },
            {
              "internalType": "contract IVQuote",
              "name": "vQuote",
              "type": "address"
            },
            {
              "internalType": "contract IUniswapV3Pool",
              "name": "vPool",
              "type": "address"
            },
            {
              "internalType": "uint24",
              "name": "liquidityFeePips",
              "type": "uint24"
            },
            {
              "internalType": "uint24",
              "name": "protocolFeePips",
              "type": "uint24"
            }
          ],
          "internalType": "struct IVPoolWrapper.InitializeVPoolWrapperParams",
          "name": "params",
          "type": "tuple"
        }
      ],
      "name": "__initialize_VPoolWrapper",
      "outputs": [],
      "stateMutability": "nonpayable",
      "type": "function"
    },
    {
      "inputs": [],
      "name": "accruedProtocolFee",
      "outputs": [
        {
          "internalType": "uint256",
          "name": "",
          "type": "uint256"
        }
      ],
      "stateMutability": "view",
      "type": "function"
    },
    {
      "inputs": [
        {
          "internalType": "int24",
          "name": "tickLower",
          "type": "int24"
        },
        {
          "internalType": "int24",
          "name": "tickUpper",
          "type": "int24"
        },
        {
          "internalType": "uint128",
          "name": "liquidity",
          "type": "uint128"
        }
      ],
      "name": "burn",
      "outputs": [
        {
          "internalType": "uint256",
          "name": "vTokenPrincipal",
          "type": "uint256"
        },
        {
          "internalType": "uint256",
          "name": "vQuotePrincipal",
          "type": "uint256"
        },
        {
          "components": [
            {
              "internalType": "int256",
              "name": "sumAX128",
              "type": "int256"
            },
            {
              "internalType": "int256",
              "name": "sumBInsideX128",
              "type": "int256"
            },
            {
              "internalType": "int256",
              "name": "sumFpInsideX128",
              "type": "int256"
            },
            {
              "internalType": "uint256",
              "name": "sumFeeInsideX128",
              "type": "uint256"
            }
          ],
          "internalType": "struct IVPoolWrapper.WrapperValuesInside",
          "name": "wrapperValuesInside",
          "type": "tuple"
        }
      ],
      "stateMutability": "nonpayable",
      "type": "function"
    },
    {
      "inputs": [],
      "name": "clearingHouse",
      "outputs": [
        {
          "internalType": "contract IClearingHouse",
          "name": "",
          "type": "address"
        }
      ],
      "stateMutability": "view",
      "type": "function"
    },
    {
      "inputs": [],
      "name": "collectAccruedProtocolFee",
      "outputs": [
        {
          "internalType": "uint256",
          "name": "accruedProtocolFeeLast",
          "type": "uint256"
        }
      ],
      "stateMutability": "nonpayable",
      "type": "function"
    },
    {
      "inputs": [
        {
          "internalType": "bytes32",
          "name": "slot",
          "type": "bytes32"
        }
      ],
      "name": "extsload",
      "outputs": [
        {
          "internalType": "bytes32",
          "name": "val",
          "type": "bytes32"
        }
      ],
      "stateMutability": "view",
      "type": "function"
    },
    {
      "inputs": [
        {
          "internalType": "bytes32[]",
          "name": "slots",
          "type": "bytes32[]"
        }
      ],
      "name": "extsload",
      "outputs": [
        {
          "internalType": "bytes32[]",
          "name": "",
          "type": "bytes32[]"
        }
      ],
      "stateMutability": "view",
      "type": "function"
    },
    {
      "inputs": [],
      "name": "fpGlobal",
      "outputs": [
        {
          "internalType": "int256",
          "name": "sumAX128",
          "type": "int256"
        },
        {
          "internalType": "int256",
          "name": "sumBX128",
          "type": "int256"
        },
        {
          "internalType": "int256",
          "name": "sumFpX128",
          "type": "int256"
        },
        {
          "internalType": "uint48",
          "name": "timestampLast",
          "type": "uint48"
        }
      ],
      "stateMutability": "view",
      "type": "function"
    },
    {
      "inputs": [],
      "name": "fundingRateOverrideX128",
      "outputs": [
        {
          "internalType": "int256",
          "name": "",
          "type": "int256"
        }
      ],
      "stateMutability": "view",
      "type": "function"
    },
    {
      "inputs": [],
      "name": "getExtrapolatedSumAX128",
      "outputs": [
        {
          "internalType": "int256",
          "name": "",
          "type": "int256"
        }
      ],
      "stateMutability": "view",
      "type": "function"
    },
    {
      "inputs": [
        {
          "internalType": "int24",
          "name": "tickLower",
          "type": "int24"
        },
        {
          "internalType": "int24",
          "name": "tickUpper",
          "type": "int24"
        }
      ],
      "name": "getExtrapolatedValuesInside",
      "outputs": [
        {
          "components": [
            {
              "internalType": "int256",
              "name": "sumAX128",
              "type": "int256"
            },
            {
              "internalType": "int256",
              "name": "sumBInsideX128",
              "type": "int256"
            },
            {
              "internalType": "int256",
              "name": "sumFpInsideX128",
              "type": "int256"
            },
            {
              "internalType": "uint256",
              "name": "sumFeeInsideX128",
              "type": "uint256"
            }
          ],
          "internalType": "struct IVPoolWrapper.WrapperValuesInside",
          "name": "wrapperValuesInside",
          "type": "tuple"
        }
      ],
      "stateMutability": "view",
      "type": "function"
    },
    {
      "inputs": [],
      "name": "getSumAX128",
      "outputs": [
        {
          "internalType": "int256",
          "name": "",
          "type": "int256"
        }
      ],
      "stateMutability": "view",
      "type": "function"
    },
    {
      "inputs": [
        {
          "internalType": "int24",
          "name": "tickLower",
          "type": "int24"
        },
        {
          "internalType": "int24",
          "name": "tickUpper",
          "type": "int24"
        }
      ],
      "name": "getValuesInside",
      "outputs": [
        {
          "components": [
            {
              "internalType": "int256",
              "name": "sumAX128",
              "type": "int256"
            },
            {
              "internalType": "int256",
              "name": "sumBInsideX128",
              "type": "int256"
            },
            {
              "internalType": "int256",
              "name": "sumFpInsideX128",
              "type": "int256"
            },
            {
              "internalType": "uint256",
              "name": "sumFeeInsideX128",
              "type": "uint256"
            }
          ],
          "internalType": "struct IVPoolWrapper.WrapperValuesInside",
          "name": "wrapperValuesInside",
          "type": "tuple"
        }
      ],
      "stateMutability": "view",
      "type": "function"
    },
    {
      "inputs": [],
      "name": "liquidityFeePips",
      "outputs": [
        {
          "internalType": "uint24",
          "name": "",
          "type": "uint24"
        }
      ],
      "stateMutability": "view",
      "type": "function"
    },
    {
      "inputs": [
        {
          "internalType": "int24",
          "name": "tickLower",
          "type": "int24"
        },
        {
          "internalType": "int24",
          "name": "tickUpper",
          "type": "int24"
        },
        {
          "internalType": "uint128",
          "name": "liquidity",
          "type": "uint128"
        }
      ],
      "name": "mint",
      "outputs": [
        {
          "internalType": "uint256",
          "name": "vTokenPrincipal",
          "type": "uint256"
        },
        {
          "internalType": "uint256",
          "name": "vQuotePrincipal",
          "type": "uint256"
        },
        {
          "components": [
            {
              "internalType": "int256",
              "name": "sumAX128",
              "type": "int256"
            },
            {
              "internalType": "int256",
              "name": "sumBInsideX128",
              "type": "int256"
            },
            {
              "internalType": "int256",
              "name": "sumFpInsideX128",
              "type": "int256"
            },
            {
              "internalType": "uint256",
              "name": "sumFeeInsideX128",
              "type": "uint256"
            }
          ],
          "internalType": "struct IVPoolWrapper.WrapperValuesInside",
          "name": "wrapperValuesInside",
          "type": "tuple"
        }
      ],
      "stateMutability": "nonpayable",
      "type": "function"
    },
    {
      "inputs": [],
      "name": "protocolFeePips",
      "outputs": [
        {
          "internalType": "uint24",
          "name": "",
          "type": "uint24"
        }
      ],
      "stateMutability": "view",
      "type": "function"
    },
    {
      "inputs": [
        {
          "internalType": "int256",
          "name": "fundingRateOverrideX128_",
          "type": "int256"
        }
      ],
      "name": "setFundingRateOverride",
      "outputs": [],
      "stateMutability": "nonpayable",
      "type": "function"
    },
    {
      "inputs": [
        {
          "internalType": "uint24",
          "name": "liquidityFeePips_",
          "type": "uint24"
        }
      ],
      "name": "setLiquidityFee",
      "outputs": [],
      "stateMutability": "nonpayable",
      "type": "function"
    },
    {
      "inputs": [
        {
          "internalType": "uint24",
          "name": "protocolFeePips_",
          "type": "uint24"
        }
      ],
      "name": "setProtocolFee",
      "outputs": [],
      "stateMutability": "nonpayable",
      "type": "function"
    },
    {
      "inputs": [],
      "name": "sumFeeGlobalX128",
      "outputs": [
        {
          "internalType": "uint256",
          "name": "",
          "type": "uint256"
        }
      ],
      "stateMutability": "view",
      "type": "function"
    },
    {
      "inputs": [
        {
          "internalType": "bool",
          "name": "swapVTokenForVQuote",
          "type": "bool"
        },
        {
          "internalType": "int256",
          "name": "amountSpecified",
          "type": "int256"
        },
        {
          "internalType": "uint160",
          "name": "sqrtPriceLimitX96",
          "type": "uint160"
        }
      ],
      "name": "swap",
      "outputs": [
        {
          "components": [
            {
              "internalType": "int256",
              "name": "amountSpecified",
              "type": "int256"
            },
            {
              "internalType": "int256",
              "name": "vTokenIn",
              "type": "int256"
            },
            {
              "internalType": "int256",
              "name": "vQuoteIn",
              "type": "int256"
            },
            {
              "internalType": "uint256",
              "name": "liquidityFees",
              "type": "uint256"
            },
            {
              "internalType": "uint256",
              "name": "protocolFees",
              "type": "uint256"
            },
            {
              "internalType": "uint160",
              "name": "sqrtPriceX96Start",
              "type": "uint160"
            },
            {
              "internalType": "uint160",
              "name": "sqrtPriceX96End",
              "type": "uint160"
            }
          ],
          "internalType": "struct IVPoolWrapper.SwapResult",
          "name": "swapResult",
          "type": "tuple"
        }
      ],
      "stateMutability": "nonpayable",
      "type": "function"
    },
    {
      "inputs": [
        {
          "internalType": "int24",
          "name": "",
          "type": "int24"
        }
      ],
      "name": "ticksExtended",
      "outputs": [
        {
          "internalType": "int256",
          "name": "sumALastX128",
          "type": "int256"
        },
        {
          "internalType": "int256",
          "name": "sumBOutsideX128",
          "type": "int256"
        },
        {
          "internalType": "int256",
          "name": "sumFpOutsideX128",
          "type": "int256"
        },
        {
          "internalType": "uint256",
          "name": "sumFeeOutsideX128",
          "type": "uint256"
        }
      ],
      "stateMutability": "view",
      "type": "function"
    },
    {
      "inputs": [
        {
          "internalType": "uint256",
          "name": "vTokenAmount",
          "type": "uint256"
        },
        {
          "internalType": "uint256",
          "name": "vQuoteAmount",
          "type": "uint256"
        },
        {
          "internalType": "bytes",
          "name": "",
          "type": "bytes"
        }
      ],
      "name": "uniswapV3MintCallback",
      "outputs": [],
      "stateMutability": "nonpayable",
      "type": "function"
    },
    {
      "inputs": [
        {
          "internalType": "int256",
          "name": "amount0Delta",
          "type": "int256"
        },
        {
          "internalType": "int256",
          "name": "amount1Delta",
          "type": "int256"
        },
        {
          "internalType": "bytes",
          "name": "",
          "type": "bytes"
        }
      ],
      "name": "uniswapV3SwapCallback",
      "outputs": [],
      "stateMutability": "nonpayable",
      "type": "function"
    },
    {
      "inputs": [
        {
          "internalType": "uint256",
          "name": "realPriceX128",
          "type": "uint256"
        },
        {
          "internalType": "uint256",
          "name": "virtualPriceX128",
          "type": "uint256"
        }
      ],
      "name": "updateGlobalFundingState",
      "outputs": [],
      "stateMutability": "nonpayable",
      "type": "function"
    },
    {
      "inputs": [],
      "name": "vPool",
      "outputs": [
        {
          "internalType": "contract IUniswapV3Pool",
          "name": "",
          "type": "address"
        }
      ],
      "stateMutability": "view",
      "type": "function"
    },
    {
      "inputs": [],
      "name": "vQuote",
      "outputs": [
        {
          "internalType": "contract IVQuote",
          "name": "",
          "type": "address"
        }
      ],
      "stateMutability": "view",
      "type": "function"
    },
    {
      "inputs": [],
      "name": "vToken",
      "outputs": [
        {
          "internalType": "contract IVToken",
          "name": "",
          "type": "address"
        }
      ],
      "stateMutability": "view",
      "type": "function"
    }
  ],
  "transactionHash": "0xec3a840d203de62698dde7021be4f912244d50f93a44f89d3ff9b5a23899739a",
  "args": [],
  "numDeployments": 1,
  "solcInputHash": "f51e2eca45877d432ab4f6c147bdf3df",
  "bytecode": "0x608060405234801561001057600080fd5b50614d3d806100206000396000f3fe608060405234801561001057600080fd5b50600436106101c45760003560e01c806386c8e9a7116100f9578063acfd792811610097578063dbd035ff11610071578063dbd035ff14610491578063dee4c1a6146104b1578063fa461e33146104c4578063fca6fbf2146104d757600080fd5b8063acfd79281461046c578063c04b98c414610475578063d34879971461047e57600080fd5b80639f883c12116100d35780639f883c121461042b578063a34123a71461043e578063a3a1e7e914610451578063a3c35e2c1461045957600080fd5b806386c8e9a7146103db5780638b1e9781146104055780639bb1a99c1461041857600080fd5b80634bc36bd6116101665780636c544335116101405780636c544335146103655780636d87989a146103ab5780637779815c146103c05780637feedaa1146103c857600080fd5b80634bc36bd6146103375780635e622abc1461034a5780636719578c1461035257600080fd5b80631e2eaeaf116101a25780631e2eaeaf146102995780632a99a792146102b95780633b231e01146102d957806348aaa8c0146102e257600080fd5b80630af96800146101c9578063195cd92c146101ff5780631dce5fcf14610277575b600080fd5b6000546101e2906201000090046001600160a01b031681565b6040516001600160a01b0390911681526020015b60405180910390f35b61021261020d366004614218565b6104ed565b6040516101f69190600060e082019050825182526020830151602083015260408301516040830152606083015160608301526080830151608083015260a08301516001600160a01b0380821660a08501528060c08601511660c0850152505092915050565b61028a61028536600461427e565b6108ce565b6040516101f6939291906142be565b6102ab6102a73660046142fa565b5490565b6040519081526020016101f6565b6102cc6102c7366004614313565b610ab3565b6040516101f6919061434c565b6102ab600a5481565b6103176102f0366004614377565b600b6020526000908152604090208054600182015460028301546003909301549192909184565b6040805194855260208501939093529183015260608201526080016101f6565b6002546101e2906001600160a01b031681565b6102ab610bdf565b6003546101e2906001600160a01b031681565b6005546006546007546008546103839392919065ffffffffffff1684565b6040805194855260208501939093529183015265ffffffffffff1660608201526080016101f6565b6103be6103b9366004614394565b610c5e565b005b6005546102ab565b6103be6103d63660046143c7565b610cae565b6003546103f190600160a01b900462ffffff1681565b60405162ffffff90911681526020016101f6565b6103be6104133660046143c7565b610daf565b6001546101e2906001600160a01b031681565b6103be6104393660046142fa565b610ea9565b61028a61044c36600461427e565b610f86565b6102ab611150565b6102cc610467366004614313565b61120c565b6102ab60045481565b6102ab60095481565b6103be61048c366004614426565b6113a9565b6104a461049f36600461448f565b6114b1565b6040516101f6919061454d565b6103be6104bf366004614591565b6114df565b6103be6104d2366004614426565b61173c565b6003546103f190600160b81b900462ffffff1681565b61053f6040518060e00160405280600081526020016000815260200160008152602001600081526020016000815260200160006001600160a01b0316815260200160006001600160a01b031681525090565b6000546201000090046001600160a01b0316331461057057604051638597d08b60e01b815260040160405180910390fd5b600080841215906001600160a01b03841690036105c357846105b0576105ab600173fffd8963efd1fc6a506488495d951d5263988d266145bf565b6105c0565b6105c06401000276a360016145e7565b92505b8382526003546105f190829087906101f49062ffffff600160a01b8204811691600160b81b90041687611905565b60408051610100810182526000808252602082018190529181018290526060810182905260c0810182905260e08101829052600a60808201526101f460a082015290546001546001600160a01b036201000090920482169163da0479969161065991166119ac565b6040516001600160e01b031960e084901b16815263ffffffff9190911660048201526024016040805180830381865afa15801561069a573d6000803e3d6000fd5b505050506040513d601f19601f820116820180604052508101906106be9190614612565b60e083015260c08201528251600354600091829182916106ee916001600160a01b0316908b908a886119bc611b37565b86516001600160a01b0390811660a08b0152604080830151821660c08c01526003548b519151630251596160e31b8152959850939650919450919091169163128acb08916107799130918e918d906004016001600160a01b03948516815292151560208401526040830191909152909116606082015260a06080820181905260009082015260c00190565b60408051808303816000875af1158015610797573d6000803e3d6000fd5b505050506040513d601f19601f820116820180604052508101906107bb9190614612565b604088015260208701819052831480156107d85750856040015182145b6107e4576107e4614636565b5050600354610813925083915087906101f49062ffffff600160a01b8204811691600160b81b900416876122ea565b816080015160046000828254610829919061464c565b9091555061083790506123fa565b7f374e2c00db0195ec47718dc83fbed946c07c24c240e8332e547d9b4ac086fd47826040516108be9190600060e082019050825182526020830151602083015260408301516040830152606083015160608301526080830151608083015260a08301516001600160a01b0380821660a08501528060c08601511660c0850152505092915050565b60405180910390a1509392505050565b6000806108fc6040518060800160405280600081526020016000815260200160008152602001600081525090565b6000546201000090046001600160a01b0316331461092d57604051638597d08b60e01b815260040160405180910390fd5b85858060020b8260020b12158061094b5750620d89e719600283900b125b80610967575061095e620d89e719614664565b60020b8160020b135b8061097e5750610978600a8361469c565b60020b15155b80610995575061098f600a8261469c565b60020b15155b156109c65760405163957b5ed560e01b8152600283810b600483015282900b60248201526044015b60405180910390fd5b6109ce61259d565b6109ff88886109e5896001600160801b031661263f565b6003546109fa906001600160a01b0316612689565b6126fa565b600354604051633c8a7d8d60e01b815230600482015260028b810b60248301528a900b60448201526001600160801b038916606482015260a06084820152600060a4820181905292955082916001600160a01b031690633c8a7d8d9060c40160408051808303816000875af1158015610a7c573d6000803e3d6000fd5b505050506040513d601f19601f82011682018060405250810190610aa09190614612565b909b909a50949850939650505050505050565b610ade6040518060800160405280600081526020016000815260200160008152602001600081525090565b60035460408051633850c7bd60e01b815290516000926001600160a01b031691633850c7bd9160048083019260e09291908290030181865afa158015610b28573d6000803e3d6000fd5b505050506040513d601f19601f82011682018060405250810190610b4c91906146db565b505060408051608081018252600554815260065460208201526007549181019190915260085465ffffffffffff166060820152939550929350610b929250611150915050565b808252600554600654600754610ba79361284b565b604082015280518352600954610bc790600b90879087908690869061287b565b60608601526040850152602084015250909392505050565b600080546201000090046001600160a01b03163314610c1157604051638597d08b60e01b815260040160405180910390fd5b6001600454610c209190614773565b60016004556040518181529091507f889bbef14ccbbb6f97773359c9c09396f67ed97695236771816a304ec5d886119060200160405180910390a190565b6000546201000090046001600160a01b03163314610c8f57604051638597d08b60e01b815260040160405180910390fd5b610caa60006001425b600a54600593929190879087906129d3565b5050565b600060029054906101000a90046001600160a01b03166001600160a01b0316635aa6e6756040518163ffffffff1660e01b8152600401602060405180830381865afa158015610d01573d6000803e3d6000fd5b505050506040513d601f19601f82011682018060405250810190610d25919061478a565b6001600160a01b0316336001600160a01b031614610d5657604051632d5be4cb60e21b815260040160405180910390fd5b6003805462ffffff60b81b1916600160b81b62ffffff8416908102919091179091556040519081527f2edf7eef14cb246dab2aac555e300928981632918159d9e33fcaa24dcd38cb40906020015b60405180910390a150565b600060029054906101000a90046001600160a01b03166001600160a01b0316635aa6e6756040518163ffffffff1660e01b8152600401602060405180830381865afa158015610e02573d6000803e3d6000fd5b505050506040513d601f19601f82011682018060405250810190610e26919061478a565b6001600160a01b0316336001600160a01b031614610e5757604051632d5be4cb60e21b815260040160405180910390fd5b6003805462ffffff60a01b1916600160a01b62ffffff8416908102919091179091556040519081527f5e286c9a939d59334080ddf15517957037c2228384e26bb92a368ce44c531edd90602001610da4565b600060029054906101000a90046001600160a01b03166001600160a01b0316635aa6e6756040518163ffffffff1660e01b8152600401602060405180830381865afa158015610efc573d6000803e3d6000fd5b505050506040513d601f19601f82011682018060405250810190610f20919061478a565b6001600160a01b0316336001600160a01b031614610f5157604051632d5be4cb60e21b815260040160405180910390fd5b600a8190556040518181527fe71127eab59a3a0c0415330d6b03fb027923dc6710978f16940a31355cbf83e890602001610da4565b600080610fb46040518060800160405280600081526020016000815260200160008152602001600081525090565b6000546201000090046001600160a01b03163314610fe557604051638597d08b60e01b815260040160405180910390fd5b85858060020b8260020b1215806110035750620d89e719600283900b125b8061101f5750611016620d89e719614664565b60020b8160020b135b806110365750611030600a8361469c565b60020b15155b8061104d5750611047600a8261469c565b60020b15155b156110795760405163957b5ed560e01b8152600283810b600483015282900b60248201526044016109bd565b61108161259d565b6110a18888611098896001600160801b031661263f565b6109e5906147a7565b60035460405163a34123a760e01b815260028b810b60048301528a900b60248201526001600160801b038916604482015291945060009182916001600160a01b03169063a34123a79060640160408051808303816000875af115801561110b573d6000803e3d6000fd5b505050506040513d601f19601f8201168201806040525081019061112f9190614612565b915091508196508095506111438a8a612ae6565b5050505093509350939050565b60008054600154829182916001600160a01b036201000090920482169163da0479969161117d91166119ac565b6040516001600160e01b031960e084901b16815263ffffffff9190911660048201526024016040805180830381865afa1580156111be573d6000803e3d6000fd5b505050506040513d601f19601f820116820180604052508101906111e29190614612565b6005546008549294509092506112059165ffffffffffff16428585600a54612b83565b9250505090565b6112376040518060800160405280600081526020016000815260200160008152602001600081525090565b82828060020b8260020b1215806112555750620d89e719600283900b125b806112715750611268620d89e719614664565b60020b8160020b135b806112885750611282600a8361469c565b60020b15155b8061129f5750611299600a8261469c565b60020b15155b156112cb5760405163957b5ed560e01b8152600283810b600483015282900b60248201526044016109bd565b60035460408051633850c7bd60e01b815290516000926001600160a01b031691633850c7bd9160048083019260e09291908290030181865afa158015611315573d6000803e3d6000fd5b505050506040513d601f19601f8201168201806040525081019061133991906146db565b50506040805160808101825260055480825260065460208301526007549282019290925260085465ffffffffffff166060820152908a52600954949650945061138f93600b93508b92508a91508690869061287b565b606088015260408701526020860152509295945050505050565b6003546001600160a01b031633146113d4576040516308458b2b60e21b815260040160405180910390fd5b821561143f576002546040516340c10f1960e01b8152336004820152602481018590526001600160a01b03909116906340c10f1990604401600060405180830381600087803b15801561142657600080fd5b505af115801561143a573d6000803e3d6000fd5b505050505b83156114ab576001546040516340c10f1960e01b8152336004820152602481018690526001600160a01b03909116906340c10f19906044015b600060405180830381600087803b15801561149257600080fd5b505af11580156114a6573d6000803e3d6000fd5b505050505b50505050565b606060208251028201602001602083015b818110156114d75780515481526020016114c2565b509192915050565b600054610100900460ff166114fa5760005460ff16156114fe565b303b155b6115705760405162461bcd60e51b815260206004820152602e60248201527f496e697469616c697a61626c653a20636f6e747261637420697320616c72656160448201527f647920696e697469616c697a656400000000000000000000000000000000000060648201526084016109bd565b600054610100900460ff16158015611592576000805461ffff19166101011790555b61159f60208301836147cd565b600080546001600160a01b039290921662010000027fffffffffffffffffffff0000000000000000000000000000000000000000ffff9092169190911790556115ee60408301602084016147cd565b6001805473ffffffffffffffffffffffffffffffffffffffff19166001600160a01b039290921691909117905561162b60608301604084016147cd565b6002805473ffffffffffffffffffffffffffffffffffffffff19166001600160a01b039290921691909117905561166860808301606084016147cd565b6003805473ffffffffffffffffffffffffffffffffffffffff19166001600160a01b03929092169190911790556116a560a08301608084016143c7565b6003805462ffffff92909216600160a01b0262ffffff60a01b199092169190911790556116d860c0830160a084016143c7565b6003805462ffffff92909216600160b81b0262ffffff60b81b199092169190911790556001600160ff1b03600a55611727600060016117144290565b600a5460059392919060019081906129d3565b8015610caa576000805461ff00191690555050565b6003546001600160a01b03163314611767576040516308458b2b60e21b815260040160405180910390fd5b600084131561184d57600360009054906101000a90046001600160a01b03166001600160a01b0316630dfe16816040518163ffffffff1660e01b8152600401602060405180830381865afa1580156117c3573d6000803e3d6000fd5b505050506040513d601f19601f820116820180604052508101906117e7919061478a565b6003546040516340c10f1960e01b81526001600160a01b039182166004820152602481018790529116906340c10f1990604401600060405180830381600087803b15801561183457600080fd5b505af1158015611848573d6000803e3d6000fd5b505050505b60008313156114ab57600360009054906101000a90046001600160a01b03166001600160a01b031663d21220a76040518163ffffffff1660e01b8152600401602060405180830381865afa1580156118a9573d6000803e3d6000fd5b505050506040513d601f19601f820116820180604052508101906118cd919061478a565b6003546040516340c10f1960e01b81526001600160a01b039182166004820152602481018690529116906340c10f1990604401611478565b851561196657841561192457805161191d9085612ba7565b81526119a4565b80516119339060028585612bea565b608083018190526060830182905282516119599290916119529161464c565b6001612d15565b80825261191d9085612ba7565b84156119a457805161197b9060018585612bea565b608083018190526060830182905282516119a192909161199a9161464c565b6000612d15565b81525b505050505050565b600063ffffffff82165b92915050565b600080856119d3578260a0015183608001516119de565b82608001518360a001515b915091506000611a116119f083612d59565b60035460009062ffffff600160a01b8204811691600160b81b900416612bea565b50905060008560c001516001600160801b0316118015611a315750600083115b15611abd57611a8787611a5557611a4784612d59565b611a50906147ea565b611a5e565b611a5e84612d59565b60c08701516001600160801b03164260c08a015160e08b0151600a5460059594939291906129d3565b60c0850151611aa6908290600160801b906001600160801b0316612d82565b60096000828254611ab7919061464c565b90915550505b83606001516001600160a01b031685604001516001600160a01b031603611b2e57836040015115611b2e57602080850151604080516080810182526005548152600654938101939093526007549083015260085465ffffffffffff166060830152600954611b2e92600b9291612e34565b50505050505050565b6040805160e081018252600080825260208201819052918101829052606081018290526080810182905260a0810182905260c08101829052819086600003611b9257604051631f2a200560e01b815260040160405180910390fd5b84516001600160a01b0316600003611c2657886001600160a01b0316633850c7bd6040518163ffffffff1660e01b815260040160e060405180830381865afa158015611be2573d6000803e3d6000fd5b505050506040513d601f19601f82011682018060405250810190611c0691906146db565b5060ff1660408b015250505060020b60208701526001600160a01b031685525b84606001516001600160801b0316600003611cac57886001600160a01b0316631a6865026040518163ffffffff1660e01b8152600401602060405180830381865afa158015611c79573d6000803e3d6000fd5b505050506040513d601f19601f82011682018060405250810190611c9d9190614806565b6001600160801b031660608601525b846080015160020b600003611d9957886001600160a01b031663ddca3f436040518163ffffffff1660e01b8152600401602060405180830381865afa158015611cf9573d6000803e3d6000fd5b505050506040513d601f19601f82011682018060405250810190611d1d9190614823565b62ffffff1660a0860152604080516334324e9f60e21b815290516001600160a01b038b169163d0c93a7c9160048083019260209291908290030181865afa158015611d6c573d6000803e3d6000fd5b505050506040513d601f19601f82011682018060405250810190611d909190614840565b60020b60808601525b87611de35784600001516001600160a01b0316866001600160a01b03161080611dde575073fffd8963efd1fc6a506488495d951d5263988d266001600160a01b038716115b611e14565b84600001516001600160a01b0316866001600160a01b03161180611e1457506401000276a36001600160a01b038716105b15611e3d576040516328da8b5760e11b81526001600160a01b03871660048201526024016109bd565b600080881390506040518060e001604052808981526020016000815260200187600001516001600160a01b03168152602001876020015160020b81526020016000815260200160006001600160801b0316815260200187606001516001600160801b031681525091505b815115801590611ecd5750866001600160a01b031682604001516001600160a01b031614155b156122a4576040805160e081018252600080825260208201819052918101829052606081018290526080810182905260a0810182905260c081019190915260408301516001600160a01b03908116825260608401516080890151611f3a928e1691635339c296918e612eb5565b1515604083015260020b60208201819052620d89e7191315611f6557620d89e7196020820152611f99565b611f72620d89e719614664565b60020b816020015160020b1315611f9957611f90620d89e719614664565b60020b60208201525b611fa68160200151613121565b6001600160a01b03166060820152604083015161201b908b611fe057896001600160a01b031683606001516001600160a01b031611611ffa565b896001600160a01b031683606001516001600160a01b0316105b61200857826060015161200a565b895b60c0860151865160a08c0151613444565b60c085015260a084015260808301526001600160a01b0316604084015281156120935761205a8160c001518260800151612055919061464c565b613636565b8351849061206990839061485d565b90525060a081015161207a90613636565b8360200151612089919061485d565b60208401526120de565b6120a08160a00151613636565b835184906120af90839061489c565b90525060c081015160808201516120c9916120559161464c565b83602001516120d8919061489c565b60208401525b60c08301516001600160801b031615612126576121118160c00151600160801b8560c001516001600160801b0316612d82565b83608001818151612122919061464c565b9052505b6121368a8885848a63ffffffff16565b80606001516001600160a01b031683604001516001600160a01b0316036122675780604001511561223a57602081015160405163f30dba9360e01b815260029190910b60048201526000906001600160a01b038d169063f30dba939060240161010060405180830381865afa1580156121b3573d6000803e3d6000fd5b505050506040513d601f19601f820116820180604052508101906121d791906148dc565b5050505050509150508a156121f2576121ef816147a7565b90505b600081600f0b1261221257808460c0015161220d919061498a565b61222a565b61221b816147a7565b8460c0015161222a91906149ac565b6001600160801b031660c0850152505b8961224957806020015161225a565b6001816020015161225a91906149cc565b60020b606084015261229e565b80600001516001600160a01b031683604001516001600160a01b03161461229e576122958360400151613648565b60020b60608401525b50611ea7565b801515891515146122c557602082015182516122c0908a61485d565b6122d7565b81516122d1908961485d565b82602001515b909b909a50919850909650505050505050565b85156123745784156123475761230481602001518561395b565b6020820152604081015161231b9060008585612bea565b6080830181905260608301829052604083015161233d9290916119529161464c565b60408201526119a4565b61235581604001518561395b565b604082018190526080820151606083015161233d929161199a9161464c565b846123bd5761238781604001518561395b565b6040820181905261239b9060008585612bea565b6080830181905260608301829052604083015161233d92909161199a9161464c565b6123cb81602001518561395b565b60208201526040810151608082015160608301516123ed92916119529161464c565b6040820152505050505050565b6002546040516370a0823160e01b81523060048201526000916001600160a01b0316906370a0823190602401602060405180830381865afa158015612443573d6000803e3d6000fd5b505050506040513d601f19601f820116820180604052508101906124679190614a14565b905080156124ce57600254604051630852cd8d60e31b8152600481018390526001600160a01b03909116906342966c6890602401600060405180830381600087803b1580156124b557600080fd5b505af11580156124c9573d6000803e3d6000fd5b505050505b6001546040516370a0823160e01b81523060048201526000916001600160a01b0316906370a0823190602401602060405180830381865afa158015612517573d6000803e3d6000fd5b505050506040513d601f19601f8201168201806040525081019061253b9190614a14565b90508015610caa57600154604051630852cd8d60e31b8152600481018390526001600160a01b03909116906342966c6890602401600060405180830381600087803b15801561258957600080fd5b505af11580156119a4573d6000803e3d6000fd5b6000805460015482916001600160a01b036201000090910481169163da047996916125c891166119ac565b6040516001600160e01b031960e084901b16815263ffffffff9190911660048201526024016040805180830381865afa158015612609573d6000803e3d6000fd5b505050506040513d601f19601f8201168201806040525081019061262d9190614612565b91509150610caa60006001610c984290565b60006f80000000000000000000000000000000826001600160801b0316106126855760405163832da39d60e01b81526001600160801b03831660048201526024016109bd565b5090565b6000816001600160a01b0316633850c7bd6040518163ffffffff1660e01b815260040160e060405180830381865afa1580156126c9573d6000803e3d6000fd5b505050506040513d601f19601f820116820180604052508101906126ed91906146db565b5093979650505050505050565b6127256040518060800160405280600081526020016000815260200160008152602001600081525090565b60408051608081018252600554815260065460208201526007549181019190915260085465ffffffffffff166060820152600954600080600f87900b156127c75783516020850151604086015160035461279593600b938e938c938e939291908b906001600160a01b0316613982565b8451602086015160408701516003549395506127c493600b938d938c938e938b906001600160a01b0316613982565b90505b6127d1898961120c565b9450600087600f0b121561283f57811561280f57600289810b6000908152600b60205260408120818155600181018290559182018190556003909101555b801561283f57600288810b6000908152600b60205260408120818155600181018290559182018190556003909101555b50505050949350505050565b600061286661285a868461485d565b8590600160801b613a93565b612870908461489c565b90505b949350505050565b600285810b60009081526020889052604080822087840b83529082206001820154825494830154875194958695869594939286926128bc929091859161284b565b90506000846003015490508a60020b8d60020b131561290657828a602001516128e5919061485d565b9250818a604001516128f7919061485d565b9150612903818a614773565b90505b6001840154845460028601548c5160009261292592909185919061284b565b90506000866003015490508d60020b8f60020b1361296e57828d6020015161294d919061485d565b9250818d6040015161295f919061485d565b915061296b818d614773565b90505b82868e6020015161297f919061485d565b612989919061485d565b9a5081858e6040015161299c919061485d565b6129a6919061485d565b9950806129b3858e614773565b6129bd9190614773565b9850505050505050505096509650969350505050565b60038701546000906129f09065ffffffffffff1686868686613af0565b6001890154909150612a08908290600160801b613b53565b886002016000828254612a1b919061489c565b9091555050875481908990600090612a3490849061489c565b90915550612a49905087600160801b88613a93565b886001016000828254612a5c919061489c565b909155505060038801805465ffffffffffff871665ffffffffffff199091168117909155604080518a54815260018b0154602082015260028b01548183015260608101929092526080820186905260a08201859052517faa55fabd6f264910ebc37d1f213e504b0952aeed471eac51bb24a792cf40ce789181900360c00190a15050505050505050565b6003546040516309e3d67b60e31b8152306004820152600284810b602483015283900b60448201526001600160801b036064820181905260848201526001600160a01b0390911690634f1eb3d89060a40160408051808303816000875af1158015612b55573d6000803e3d6000fd5b505050506040513d601f19601f82011682018060405250810190612b799190614a2d565b5050610caa6123fa565b6000612b928686868686613af0565b612b9c908861489c565b979650505050505050565b600080612bb783620f4240614a5c565b60020b612bc962ffffff851686614a78565b612bd39190614aff565b612bde90600161489c565b9050612873818561489c565b6000806000612bf887613ba1565b90506001866002811115612c0e57612c0e614b2d565b03612c4e5783612c2186620f4240614a5c565b612c2b9190614a5c565b62ffffff16612c3d82620f4240614b43565b612c479190614b62565b9050612c9e565b6002866002811115612c6257612c62614b2d565b03612c9e5783612c7586620f4240614b76565b612c7f9190614b76565b62ffffff16612c9182620f4240614b43565b612c9b9190614b62565b90505b6000620f4240612cae8688614b76565b612cbd9062ffffff1684614b43565b612cc79190614b62565b612cd290600161464c565b9050620f4240612ce762ffffff881684614b43565b612cf19190614b62565b612cfc90600161464c565b9350612d088482614773565b9250505094509492505050565b600080826001811115612d2a57612d2a614b2d565b146000851303612d4557612d3e838561489c565b9050612d52565b612d4f838561485d565b90505b9392505050565b6000600160ff1b8210612685576040516320c82def60e21b8152600481018390526024016109bd565b6000808060001985870985870292508281108382030391505080600003612dbb5760008411612db057600080fd5b508290049050612d52565b808411612dc757600080fd5b6000848688096000868103871696879004966002600389028118808a02820302808a02820302808a02820302808a02820302808a02820302808a02909103029181900381900460010186841190950394909402919094039290920491909117919091029150509392505050565b600283810b6000908152602086905260408120805460018201549382015486519294612e629390919061284b565b8451835560018301546020860151919250612e7c9161485d565b60018301556040840151612e9190829061485d565b60028301556003820154612ea59084614773565b8260030181905550505050505050565b60008080612ec38587614b94565b905060008660020b128015612ee35750612edd858761469c565b60020b15155b15612ef65780612ef281614bce565b9150505b8315612ffb57600080612f0883613bb8565b90925090506000600160ff831681901b90612f239082614773565b612f2d919061464c565b90506000818c8c866040518263ffffffff1660e01b8152600401612f5a919060019190910b815260200190565b602060405180830381865afa158015612f77573d6000803e3d6000fd5b505050506040513d601f19601f82011682018060405250810190612f9b9190614a14565b168015159650905085612fc55788612fb660ff8516876149cc565b612fc09190614bf1565b612ff0565b88612fcf82613bd5565b612fd99085614c7e565b612fe69060ff16876149cc565b612ff09190614bf1565b965050505050613116565b60008061301161300c846001614ca1565b613bb8565b90925090506000613029600160ff841681901b614773565b1990506000818c8c866040518263ffffffff1660e01b8152600401613057919060019190910b815260200190565b602060405180830381865afa158015613074573d6000803e3d6000fd5b505050506040513d601f19601f820116820180604052508101906130989190614a14565b1680151596509050856130d857886130b18460ff614c7e565b60ff166130bf876001614ca1565b6130c99190614ca1565b6130d39190614bf1565b61310f565b88836130e383613c76565b6130ed9190614c7e565b60ff166130fb876001614ca1565b6131059190614ca1565b61310f9190614bf1565b9650505050505b509550959350505050565b60008060008360020b12613138578260020b613140565b8260020b6000035b9050620d89e8811115613166576040516315e4079d60e11b815260040160405180910390fd5b60008160011660000361317d57600160801b61318f565b6ffffcb933bd6fad37aa2d162d1a5940015b70ffffffffffffffffffffffffffffffffff16905060028216156131c3576ffff97272373d413259a46990580e213a0260801c5b60048216156131e2576ffff2e50f5f656932ef12357cf3c7fdcc0260801c5b6008821615613201576fffe5caca7e10e4e61c3624eaa0941cd00260801c5b6010821615613220576fffcb9843d60f6159c9db58835c9266440260801c5b602082161561323f576fff973b41fa98c081472e6896dfb254c00260801c5b604082161561325e576fff2ea16466c96a3843ec78b326b528610260801c5b608082161561327d576ffe5dee046a99a2a811c461f1969c30530260801c5b61010082161561329d576ffcbe86c7900a88aedcffc83b479aa3a40260801c5b6102008216156132bd576ff987a7253ac413176f2b074cf7815e540260801c5b6104008216156132dd576ff3392b0822b70005940c7a398e4b70f30260801c5b6108008216156132fd576fe7159475a2c29b7443b29c7fa6e889d90260801c5b61100082161561331d576fd097f3bdfd2022b8845ad8f792aa58250260801c5b61200082161561333d576fa9f746462d870fdf8a65dc1f90e061e50260801c5b61400082161561335d576f70d869a156d2a1b890bb3df62baf32f70260801c5b61800082161561337d576f31be135f97d08fd981231505542fcfa60260801c5b6201000082161561339e576f09aa508b5b7a84e1c677de54f3e99bc90260801c5b620200008216156133be576e5d6af8dedb81196699c329225ee6040260801c5b620400008216156133dd576d2216e584f5fa1ea926041bedfe980260801c5b620800008216156133fa576b048a170391f7dc42444e8fa20260801c5b60008460020b131561341b57806000198161341757613417614686565b0490505b64010000000081061561342f576001613432565b60005b60ff16602082901c0192505050919050565b60008080806001600160a01b03808916908a1610158187128015906134c957600061347d8989620f42400362ffffff16620f4240612d82565b905082613496576134918c8c8c6001613d60565b6134a3565b6134a38b8d8c6001613dd0565b95508581106134b4578a96506134c3565b6134c08c8b8386613e8e565b96505b50613513565b816134e0576134db8b8b8b6000613dd0565b6134ed565b6134ed8a8c8b6000613d60565b935083886000031061350157899550613513565b6135108b8a8a60000385613eda565b95505b6001600160a01b038a8116908716148215613576578080156135325750815b61354857613543878d8c6001613dd0565b61354a565b855b9550808015613557575081155b61356d57613568878d8c6000613d60565b61356f565b845b94506135c0565b8080156135805750815b613596576135918c888c6001613d60565b613598565b855b95508080156135a5575081155b6135bb576135b68c888c6000613dd0565b6135bd565b845b94505b811580156135d057508860000385115b156135dc578860000394505b8180156135fb57508a6001600160a01b0316876001600160a01b031614155b1561360a578589039350613627565b613624868962ffffff168a620f42400362ffffff16613f26565b93505b50505095509550955095915050565b6000600160ff1b821061268557600080fd5b60006401000276a36001600160a01b03831610801590613684575073fffd8963efd1fc6a506488495d951d5263988d266001600160a01b038316105b6136a1576040516324c070df60e11b815260040160405180910390fd5b77ffffffffffffffffffffffffffffffffffffffff00000000602083901b166001600160801b03811160071b81811c67ffffffffffffffff811160061b90811c63ffffffff811160051b90811c61ffff811160041b90811c60ff8111600390811b91821c600f811160021b90811c918211600190811b92831c9790881196179094179092171790911717176080811061374257607f810383901c915061374c565b80607f0383901b91505b908002607f81811c60ff83811c9190911c800280831c81831c1c800280841c81841c1c800280851c81851c1c800280861c81861c1c800280871c81871c1c800280881c81881c1c800280891c81891c1c8002808a1c818a1c1c8002808b1c818b1c1c8002808c1c818c1c1c8002808d1c818d1c1c8002808e1c9c81901c9c909c1c80029c8d901c9e9d607f198f0160401b60c09190911c678000000000000000161760c19b909b1c674000000000000000169a909a1760c29990991c672000000000000000169890981760c39790971c671000000000000000169690961760c49590951c670800000000000000169490941760c59390931c670400000000000000169290921760c69190911c670200000000000000161760c79190911c670100000000000000161760c89190911c6680000000000000161760c99190911c6640000000000000161760ca9190911c6620000000000000161760cb9190911c6610000000000000161760cc9190911c6608000000000000161760cd9190911c66040000000000001617693627a301d71055774c8581026f028f6481ab7f045a5af012a19d003aa9198101608090811d906fdb2df09e81959a81455e260799a0632f8301901d600281810b9083900b1461394c57886001600160a01b031661393182613121565b6001600160a01b03161115613946578161394e565b8061394e565b815b9998505050505050505050565b6000620f424061396b8382614a5c565b6139789060020b85614a78565b612d529190614aff565b600288900b600081815260208b90526040808220905163f30dba9360e01b81526004810193909352909182906001600160a01b0385169063f30dba939060240161010060405180830381865afa1580156139e0573d6000803e3d6000fd5b505050506040513d601f19601f82011682018060405250810190613a0491906148dc565b5050505050505090506000808a600f0b12613a2857613a238a8361498a565b613a3b565b613a318a6147a7565b613a3b90836149ac565b6001600160801b0380821615908416801591909114159550909150600003613a83578a60020b8c60020b13613a83578883556001830188905560028301879055600383018690555b5050509998505050505050505050565b60006001818080613aa48885613f66565b94509250613ab28785613f66565b94509150613ac08685613f66565b94509050613ad2612055848484612d82565b945083613ae557613ae2856147ea565b94505b505050509392505050565b60006001600160ff1b038214613b1c57613b0a8686614ce8565b613b179060050b83614a78565b613b49565b613b49613b298787614ce8565b65ffffffffffff1662015180613b42868882828261485d565b9190613f93565b9695505050505050565b6000613b60848484613a93565b9050600081128015613b905750613b90613b7985613fd0565b613b8285613fd0565b613b8b85613fd0565b613fdb565b15612d5257612d4f6000198261489c565b600080821361268557613bb3826147ea565b6119b6565b600281900b60081d6000613bce6101008461469c565b9050915091565b6000808211613be357600080fd5b600160801b8210613bf657608091821c91015b680100000000000000008210613c0e57604091821c91015b6401000000008210613c2257602091821c91015b620100008210613c3457601091821c91015b6101008210613c4557600891821c91015b60108210613c5557600491821c91015b60048210613c6557600291821c91015b60028210613c71576001015b919050565b6000808211613c8457600080fd5b5060ff6001600160801b03821615613c9f57607f1901613ca7565b608082901c91505b67ffffffffffffffff821615613cc057603f1901613cc8565b604082901c91505b63ffffffff821615613cdd57601f1901613ce5565b602082901c91505b61ffff821615613cf857600f1901613d00565b601082901c91505b60ff821615613d125760071901613d1a565b600882901c91505b600f821615613d2c5760031901613d34565b600482901c91505b6003821615613d465760011901613d4e565b600282901c91505b6001821615613c715760001901919050565b6000836001600160a01b0316856001600160a01b03161115613d80579293925b81613dad57613da8836001600160801b03168686036001600160a01b0316600160601b612d82565b612870565b612870836001600160801b03168686036001600160a01b0316600160601b613f26565b6000836001600160a01b0316856001600160a01b03161115613df0579293925b7bffffffffffffffffffffffffffffffff000000000000000000000000606084901b166001600160a01b038686038116908716613e2c57600080fd5b83613e6257866001600160a01b0316613e4f8383896001600160a01b0316612d82565b81613e5c57613e5c614686565b04612b9c565b612b9c613e798383896001600160a01b0316613f26565b886001600160a01b0316808204910615150190565b600080856001600160a01b031611613ea557600080fd5b6000846001600160801b031611613ebb57600080fd5b81613ecd57613da88585856001613ff4565b61287085858560016140da565b600080856001600160a01b031611613ef157600080fd5b6000846001600160801b031611613f0757600080fd5b81613f1957613da885858560006140da565b6128708585856000613ff4565b6000613f33848484612d82565b905060008280613f4557613f45614686565b8486091115612d52576000198110613f5c57600080fd5b6001019392505050565b6000806000841215613f8557911591613f7e846147ea565b9150613f89565b8391505b50815b9250929050565b6000613fbc61205560008612613fa95785613fb5565b613fb586600019614a78565b8585612d82565b90506000841215612d5257612d4f816147ea565b60006119b682613ba1565b6000818385098015613fec57600191505b509392505050565b600081156140665760006001600160a01b0384111561402a5761402584600160601b876001600160801b0316612d82565b614041565b6140416001600160801b038616606086901b614b62565b905061405e614059826001600160a01b03891661464c565b6141dc565b915050612873565b60006001600160a01b038411156140945761408f84600160601b876001600160801b0316613f26565b6140b1565b6140b1606085901b6001600160801b038716808204910615150190565b905080866001600160a01b0316116140c857600080fd5b6001600160a01b038616039050612873565b6000826000036140eb575083612873565b7bffffffffffffffffffffffffffffffff000000000000000000000000606085901b16821561418f576001600160a01b0386168481029085828161413157614131614686565b04036141615781810182811061415f5761415583896001600160a01b031683613f26565b9350505050612873565b505b5061405e818561417a6001600160a01b038a1683614b62565b614184919061464c565b808204910615150190565b6001600160a01b038616848102908582816141ac576141ac614686565b041480156141b957508082115b6141c257600080fd5b808203614155614059846001600160a01b038b1684613f26565b806001600160a01b0381168114613c7157600080fd5b801515811461420057600080fd5b50565b6001600160a01b038116811461420057600080fd5b60008060006060848603121561422d57600080fd5b8335614238816141f2565b925060208401359150604084013561424f81614203565b809150509250925092565b8060020b811461420057600080fd5b6001600160801b038116811461420057600080fd5b60008060006060848603121561429357600080fd5b833561429e8161425a565b925060208401356142ae8161425a565b9150604084013561424f81614269565b8381526020810183905260c081016128736040830184805182526020810151602083015260408101516040830152606081015160608301525050565b60006020828403121561430c57600080fd5b5035919050565b6000806040838503121561432657600080fd5b82356143318161425a565b915060208301356143418161425a565b809150509250929050565b81518152602080830151908201526040808301519082015260608083015190820152608081016119b6565b60006020828403121561438957600080fd5b8135612d528161425a565b600080604083850312156143a757600080fd5b50508035926020909101359150565b62ffffff8116811461420057600080fd5b6000602082840312156143d957600080fd5b8135612d52816143b6565b60008083601f8401126143f657600080fd5b50813567ffffffffffffffff81111561440e57600080fd5b602083019150836020828501011115613f8c57600080fd5b6000806000806060858703121561443c57600080fd5b8435935060208501359250604085013567ffffffffffffffff81111561446157600080fd5b61446d878288016143e4565b95989497509550505050565b634e487b7160e01b600052604160045260246000fd5b600060208083850312156144a257600080fd5b823567ffffffffffffffff808211156144ba57600080fd5b818501915085601f8301126144ce57600080fd5b8135818111156144e0576144e0614479565b8060051b604051601f19603f8301168101818110858211171561450557614505614479565b60405291825284820192508381018501918883111561452357600080fd5b938501935b8285101561454157843584529385019392850192614528565b98975050505050505050565b6020808252825182820181905260009190848201906040850190845b8181101561458557835183529284019291840191600101614569565b50909695505050505050565b600060c082840312156145a357600080fd5b50919050565b634e487b7160e01b600052601160045260246000fd5b60006001600160a01b03838116908316818110156145df576145df6145a9565b039392505050565b60006001600160a01b03808316818516808303821115614609576146096145a9565b01949350505050565b6000806040838503121561462557600080fd5b505080516020909101519092909150565b634e487b7160e01b600052600160045260246000fd5b6000821982111561465f5761465f6145a9565b500190565b60008160020b627fffff19810361467d5761467d6145a9565b60000392915050565b634e487b7160e01b600052601260045260246000fd5b60008260020b806146af576146af614686565b808360020b0791505092915050565b805161ffff81168114613c7157600080fd5b8051613c71816141f2565b600080600080600080600060e0888a0312156146f657600080fd5b875161470181614203565b60208901519097506147128161425a565b9550614720604089016146be565b945061472e606089016146be565b935061473c608089016146be565b925060a088015160ff8116811461475257600080fd5b60c0890151909250614763816141f2565b8091505092959891949750929550565b600082821015614785576147856145a9565b500390565b60006020828403121561479c57600080fd5b8151612d5281614203565b600081600f0b6f7fffffffffffffffffffffffffffffff19810361467d5761467d6145a9565b6000602082840312156147df57600080fd5b8135612d5281614203565b6000600160ff1b82016147ff576147ff6145a9565b5060000390565b60006020828403121561481857600080fd5b8151612d5281614269565b60006020828403121561483557600080fd5b8151612d52816143b6565b60006020828403121561485257600080fd5b8151612d528161425a565b60008083128015600160ff1b85018412161561487b5761487b6145a9565b836001600160ff1b03018313811615614896576148966145a9565b50500390565b6000808212826001600160ff1b03038413811516156148bd576148bd6145a9565b600160ff1b83900384128116156148d6576148d66145a9565b50500190565b600080600080600080600080610100898b0312156148f957600080fd5b885161490481614269565b80985050602089015180600f0b811461491c57600080fd5b80975050604089015195506060890151945060808901518060060b811461494257600080fd5b60a08a015190945061495381614203565b60c08a015190935063ffffffff8116811461496d57600080fd5b915061497b60e08a016146d0565b90509295985092959890939650565b60006001600160801b03808316818516808303821115614609576146096145a9565b60006001600160801b03838116908316818110156145df576145df6145a9565b60008160020b8360020b6000811281627fffff19018312811516156149f3576149f36145a9565b81627fffff018313811615614a0a57614a0a6145a9565b5090039392505050565b600060208284031215614a2657600080fd5b5051919050565b60008060408385031215614a4057600080fd5b8251614a4b81614269565b602084015190925061434181614269565b600062ffffff838116908316818110156145df576145df6145a9565b60006001600160ff1b03600084136000841385830485118282161615614aa057614aa06145a9565b600160ff1b6000871282811687830589121615614abf57614abf6145a9565b60008712925087820587128484161615614adb57614adb6145a9565b87850587128184161615614af157614af16145a9565b505050929093029392505050565b600082614b0e57614b0e614686565b600160ff1b821460001984141615614b2857614b286145a9565b500590565b634e487b7160e01b600052602160045260246000fd5b6000816000190483118215151615614b5d57614b5d6145a9565b500290565b600082614b7157614b71614686565b500490565b600062ffffff808316818516808303821115614609576146096145a9565b60008160020b8360020b80614bab57614bab614686565b627fffff19821460001982141615614bc557614bc56145a9565b90059392505050565b60008160020b627fffff198103614be757614be76145a9565b6000190192915050565b60008160020b8360020b627fffff600082136000841383830485118282161615614c1d57614c1d6145a9565b627fffff196000851282811687830587121615614c3c57614c3c6145a9565b60008712925085820587128484161615614c5857614c586145a9565b85850587128184161615614c6e57614c6e6145a9565b5050509290910295945050505050565b600060ff821660ff841680821015614c9857614c986145a9565b90039392505050565b60008160020b8360020b6000821282627fffff03821381151615614cc757614cc76145a9565b82627fffff19038212811615614cdf57614cdf6145a9565b50019392505050565b600065ffffffffffff838116908316818110156145df576145df6145a956fea2646970667358221220bc488953bb519497e2f65d7a9887784e77d5d1bedb4ea04f46d4f1b389bdd33b64736f6c634300080d0033",
  "devdoc": {
    "kind": "dev",
    "methods": {
      "extsload(bytes32)": {
        "params": {
          "slot": "to read from."
        },
        "returns": {
          "val": "stored at the slot."
        }
      },
      "extsload(bytes32[])": {
        "params": {
          "slots": "to read from."
        },
        "returns": {
          "_0": "values stored at the slots."
        }
      },
      "swap(bool,int256,uint160)": {
        "params": {
          "amountSpecified": ": The amount of the swap, which implicitly configures the swap as exact input (positive), or exact output (negative)",
          "sqrtPriceLimitX96": ": The Q64.96 sqrt price limit. If zero for one, the price cannot be less than this value after the swap. If one for zero, the price cannot be greater than this value after the swap.",
          "swapVTokenForVQuote": ": The direction of the swap, true for vToken to vQuote, false for vQuote to vToken"
        },
        "returns": {
          "swapResult": "swap return values, which contain the execution details of the swap"
        }
      },
      "updateGlobalFundingState(uint256,uint256)": {
        "details": "Done when clearing house is paused or unpaused, to prevent funding payments from being received     or paid when clearing house is in paused mode.",
        "params": {
          "realPriceX128": "real price from clearing house",
          "virtualPriceX128": "virtual price from clearing house"
        }
      }
    },
    "version": 1
  },
  "userdoc": {
    "kind": "user",
    "methods": {
      "__initialize_VPoolWrapper((address,address,address,address,uint24,uint24))": {
        "notice": "PLATFORM FUNCTIONS"
      },
      "extsload(bytes32)": {
        "notice": "Returns a value from the storage."
      },
      "extsload(bytes32[])": {
        "notice": "Returns multiple values from storage."
      },
      "getSumAX128()": {
        "notice": "VIEW METHODS"
      },
      "setLiquidityFee(uint24)": {
        "notice": "ADMIN FUNCTIONS"
      },
      "swap(bool,int256,uint160)": {
        "notice": "Swap vToken for vQuote, or vQuote for vToken"
      },
      "uniswapV3SwapCallback(int256,int256,bytes)": {
        "notice": "UNISWAP V3 POOL CALLBACkS"
      },
      "updateGlobalFundingState(uint256,uint256)": {
        "notice": "Update the global funding state, from clearing house"
      }
    },
    "version": 1
  },
  "storageLayout": {
    "storage": [
      {
        "astId": 52,
        "contract": "contracts/protocol/wrapper/VPoolWrapper.sol:VPoolWrapper",
        "label": "_initialized",
        "offset": 0,
        "slot": "0",
        "type": "t_bool"
      },
      {
        "astId": 55,
        "contract": "contracts/protocol/wrapper/VPoolWrapper.sol:VPoolWrapper",
        "label": "_initializing",
        "offset": 1,
        "slot": "0",
        "type": "t_bool"
      },
      {
        "astId": 21876,
        "contract": "contracts/protocol/wrapper/VPoolWrapper.sol:VPoolWrapper",
        "label": "clearingHouse",
        "offset": 2,
        "slot": "0",
        "type": "t_contract(IClearingHouse)8077"
      },
      {
        "astId": 21879,
        "contract": "contracts/protocol/wrapper/VPoolWrapper.sol:VPoolWrapper",
        "label": "vToken",
        "offset": 0,
        "slot": "1",
        "type": "t_contract(IVToken)8410"
      },
      {
        "astId": 21882,
        "contract": "contracts/protocol/wrapper/VPoolWrapper.sol:VPoolWrapper",
        "label": "vQuote",
        "offset": 0,
        "slot": "2",
        "type": "t_contract(IVQuote)8386"
      },
      {
        "astId": 21885,
        "contract": "contracts/protocol/wrapper/VPoolWrapper.sol:VPoolWrapper",
        "label": "vPool",
        "offset": 0,
        "slot": "3",
        "type": "t_contract(IUniswapV3Pool)5364"
      },
      {
        "astId": 21887,
        "contract": "contracts/protocol/wrapper/VPoolWrapper.sol:VPoolWrapper",
        "label": "liquidityFeePips",
        "offset": 20,
        "slot": "3",
        "type": "t_uint24"
      },
      {
        "astId": 21889,
        "contract": "contracts/protocol/wrapper/VPoolWrapper.sol:VPoolWrapper",
        "label": "protocolFeePips",
        "offset": 23,
        "slot": "3",
        "type": "t_uint24"
      },
      {
        "astId": 21891,
        "contract": "contracts/protocol/wrapper/VPoolWrapper.sol:VPoolWrapper",
        "label": "accruedProtocolFee",
        "offset": 0,
        "slot": "4",
        "type": "t_uint256"
      },
      {
        "astId": 21894,
        "contract": "contracts/protocol/wrapper/VPoolWrapper.sol:VPoolWrapper",
        "label": "fpGlobal",
        "offset": 0,
        "slot": "5",
        "type": "t_struct(Info)11024_storage"
      },
      {
        "astId": 21896,
        "contract": "contracts/protocol/wrapper/VPoolWrapper.sol:VPoolWrapper",
        "label": "sumFeeGlobalX128",
        "offset": 0,
        "slot": "9",
        "type": "t_uint256"
      },
      {
        "astId": 21898,
        "contract": "contracts/protocol/wrapper/VPoolWrapper.sol:VPoolWrapper",
        "label": "fundingRateOverrideX128",
        "offset": 0,
        "slot": "10",
        "type": "t_int256"
      },
      {
        "astId": 21903,
        "contract": "contracts/protocol/wrapper/VPoolWrapper.sol:VPoolWrapper",
        "label": "ticksExtended",
        "offset": 0,
        "slot": "11",
        "type": "t_mapping(t_int24,t_struct(Info)15488_storage)"
      }
    ],
    "types": {
      "t_bool": {
        "encoding": "inplace",
        "label": "bool",
        "numberOfBytes": "1"
      },
      "t_contract(IClearingHouse)8077": {
        "encoding": "inplace",
        "label": "contract IClearingHouse",
        "numberOfBytes": "20"
      },
      "t_contract(IUniswapV3Pool)5364": {
        "encoding": "inplace",
        "label": "contract IUniswapV3Pool",
        "numberOfBytes": "20"
      },
      "t_contract(IVQuote)8386": {
        "encoding": "inplace",
        "label": "contract IVQuote",
        "numberOfBytes": "20"
      },
      "t_contract(IVToken)8410": {
        "encoding": "inplace",
        "label": "contract IVToken",
        "numberOfBytes": "20"
      },
      "t_int24": {
        "encoding": "inplace",
        "label": "int24",
        "numberOfBytes": "3"
      },
      "t_int256": {
        "encoding": "inplace",
        "label": "int256",
        "numberOfBytes": "32"
      },
      "t_mapping(t_int24,t_struct(Info)15488_storage)": {
        "encoding": "mapping",
        "key": "t_int24",
        "label": "mapping(int24 => struct TickExtended.Info)",
        "numberOfBytes": "32",
        "value": "t_struct(Info)15488_storage"
      },
      "t_struct(Info)11024_storage": {
        "encoding": "inplace",
        "label": "struct FundingPayment.Info",
        "members": [
          {
            "astId": 11017,
            "contract": "contracts/protocol/wrapper/VPoolWrapper.sol:VPoolWrapper",
            "label": "sumAX128",
            "offset": 0,
            "slot": "0",
            "type": "t_int256"
          },
          {
            "astId": 11019,
            "contract": "contracts/protocol/wrapper/VPoolWrapper.sol:VPoolWrapper",
            "label": "sumBX128",
            "offset": 0,
            "slot": "1",
            "type": "t_int256"
          },
          {
            "astId": 11021,
            "contract": "contracts/protocol/wrapper/VPoolWrapper.sol:VPoolWrapper",
            "label": "sumFpX128",
            "offset": 0,
            "slot": "2",
            "type": "t_int256"
          },
          {
            "astId": 11023,
            "contract": "contracts/protocol/wrapper/VPoolWrapper.sol:VPoolWrapper",
            "label": "timestampLast",
            "offset": 0,
            "slot": "3",
            "type": "t_uint48"
          }
        ],
        "numberOfBytes": "128"
      },
      "t_struct(Info)15488_storage": {
        "encoding": "inplace",
        "label": "struct TickExtended.Info",
        "members": [
          {
            "astId": 15481,
            "contract": "contracts/protocol/wrapper/VPoolWrapper.sol:VPoolWrapper",
            "label": "sumALastX128",
            "offset": 0,
            "slot": "0",
            "type": "t_int256"
          },
          {
            "astId": 15483,
            "contract": "contracts/protocol/wrapper/VPoolWrapper.sol:VPoolWrapper",
            "label": "sumBOutsideX128",
            "offset": 0,
            "slot": "1",
            "type": "t_int256"
          },
          {
            "astId": 15485,
            "contract": "contracts/protocol/wrapper/VPoolWrapper.sol:VPoolWrapper",
            "label": "sumFpOutsideX128",
            "offset": 0,
            "slot": "2",
            "type": "t_int256"
          },
          {
            "astId": 15487,
            "contract": "contracts/protocol/wrapper/VPoolWrapper.sol:VPoolWrapper",
            "label": "sumFeeOutsideX128",
            "offset": 0,
            "slot": "3",
            "type": "t_uint256"
          }
        ],
        "numberOfBytes": "128"
      },
      "t_uint24": {
        "encoding": "inplace",
        "label": "uint24",
        "numberOfBytes": "3"
      },
      "t_uint256": {
        "encoding": "inplace",
        "label": "uint256",
        "numberOfBytes": "32"
      },
      "t_uint48": {
        "encoding": "inplace",
        "label": "uint48",
        "numberOfBytes": "6"
      }
    }
  }
}