{
  "address": "0xcfe43D0247AF20d75d2CE0c533Ff48bA0B51D88b",
  "abi": [
    {
      "inputs": [
        {
          "internalType": "uint32",
          "name": "",
          "type": "uint32"
        }
      ],
      "name": "getTwapPriceX128",
      "outputs": [
        {
          "internalType": "uint256",
          "name": "priceX128",
          "type": "uint256"
        }
      ],
      "stateMutability": "pure",
      "type": "function"
    }
  ],
  "transactionHash": "0x203596725623fd4c8a5010662596be7e874509f6fdc8d996d6f4c2b081b08662",
  "args": [],
  "numDeployments": 1,
  "solcInputHash": "e2d022a5c828f2ed8f5d3781fb319748",
  "bytecode": "0x608080604052346100155760b6908161001b8239f35b600080fdfe6080806040526004361015601257600080fd5b600090813560e01c63dd86c10114602857600080fd5b34607c5760207ffffffffffffffffffffffffffffffffffffffffffffffffffffffffffffffffc360112607c5760043563ffffffff811603607c578070010000000000000000000000000000000060209252f35b5080fdfea2646970667358221220bd81cd24a40737663bfe18cce64c6e37a6e93e9e9779801c3315d748e6a9db0064736f6c634300080e0033",
  "devdoc": {
    "kind": "dev",
    "methods": {},
    "version": 1
  },
  "userdoc": {
    "kind": "user",
    "methods": {},
    "version": 1
  },
  "storageLayout": {
    "storage": [],
    "types": null
  }
}