{
  "address": "0x37a0ebA317525E98FC76723C886f8922F7374C87",
  "abi": [
    {
      "inputs": [
        {
          "internalType": "uint32",
          "name": "",
          "type": "uint32"
        }
      ],
      "name": "getTwapPriceX128",
      "outputs": [
        {
          "internalType": "uint256",
          "name": "priceX128",
          "type": "uint256"
        }
      ],
      "stateMutability": "pure",
      "type": "function"
    }
  ],
  "transactionHash": "0xa7fe8d38b51923794c9c35081506ed1a2c276209582e21a3151f15e085ff58c3",
  "args": [],
  "numDeployments": 1,
  "solcInputHash": "118dfdf9347a297901d14939117b8e58",
  "bytecode": "0x608080604052346100155760b6908161001b8239f35b600080fdfe6080806040526004361015601257600080fd5b600090813560e01c63dd86c10114602857600080fd5b34607c5760207ffffffffffffffffffffffffffffffffffffffffffffffffffffffffffffffffc360112607c5760043563ffffffff811603607c578070010000000000000000000000000000000060209252f35b5080fdfea2646970667358221220bd81cd24a40737663bfe18cce64c6e37a6e93e9e9779801c3315d748e6a9db0064736f6c634300080e0033",
  "devdoc": {
    "kind": "dev",
    "methods": {},
    "version": 1
  },
  "userdoc": {
    "kind": "user",
    "methods": {},
    "version": 1
  },
  "storageLayout": {
    "storage": [],
    "types": null
  }
}