{
  "address": "0x2de516ddC7C48541009F76E5838D3f60534E37C3",
  "abi": [
    {
      "inputs": [],
      "stateMutability": "nonpayable",
      "type": "constructor"
    },
    {
      "inputs": [
        {
          "internalType": "uint32",
          "name": "",
          "type": "uint32"
        }
      ],
      "name": "getTwapSqrtPriceX96",
      "outputs": [
        {
          "internalType": "uint160",
          "name": "sqrtPriceX96",
          "type": "uint160"
        }
      ],
      "stateMutability": "view",
      "type": "function"
    },
    {
      "inputs": [
        {
          "internalType": "uint160",
          "name": "sqrtPriceX96",
          "type": "uint160"
        }
      ],
      "name": "setSqrtPrice",
      "outputs": [],
      "stateMutability": "nonpayable",
      "type": "function"
    }
  ],
  "transactionHash": "0x8fcd7cf7fd4664b329852621447a6653ef42936e3eb3b522a0cbf01dbef1ffa9",
  "args": [],
  "solcInputHash": "11fe70ca772ffd2defe9ec97f4437e59",
  "bytecode": "0x608060405234801561001057600080fd5b50600080546001600160a01b0319166c0100000000000000000000000017905560fc8061003e6000396000f3fe6080604052348015600f57600080fd5b506004361060325760003560e01c806372b6bb3814603757806382a2423e14606e575b600080fd5b60526042366004609d565b506000546001600160a01b031690565b6040516001600160a01b03909116815260200160405180910390f35b609b607936600460c8565b600080546001600160a01b0319166001600160a01b0392909216919091179055565b005b60006020828403121560ae57600080fd5b813563ffffffff8116811460c157600080fd5b9392505050565b60006020828403121560d957600080fd5b81356001600160a01b038116811460c157600080fdfea164736f6c634300080a000a",
  "devdoc": {
    "kind": "dev",
    "methods": {},
    "version": 1
  },
  "userdoc": {
    "kind": "user",
    "methods": {},
    "version": 1
  },
  "storageLayout": {
    "storage": [
      {
        "astId": 25890,
        "contract": "contracts/test/mocks/OracleMock.sol:OracleMock",
        "label": "_sqrtPriceX96",
        "offset": 0,
        "slot": "0",
        "type": "t_uint160"
      }
    ],
    "types": {
      "t_uint160": {
        "encoding": "inplace",
        "label": "uint160",
        "numberOfBytes": "20"
      }
    }
  }
}