{
  "address": "0x0d7459241C71CC840d95F98c937A8687Be2DC95C",
  "abi": [
    {
      "inputs": [
        {
          "internalType": "address",
          "name": "senderAddress",
          "type": "address"
        }
      ],
      "name": "AccessDenied",
      "type": "error"
    },
    {
      "inputs": [],
      "name": "CannotPauseIfUnpauseInProgress",
      "type": "error"
    },
    {
      "inputs": [],
      "name": "CannotUnpauseIfPauseInProgress",
      "type": "error"
    },
    {
      "inputs": [
        {
          "internalType": "uint32",
          "name": "collateralId",
          "type": "uint32"
        }
      ],
      "name": "CollateralDoesNotExist",
      "type": "error"
    },
    {
      "inputs": [
        {
          "internalType": "uint32",
          "name": "collateralId",
          "type": "uint32"
        }
      ],
      "name": "CollateralNotAllowedForUse",
      "type": "error"
    },
    {
      "inputs": [
        {
          "internalType": "uint160",
          "name": "sqrtPriceX96",
          "type": "uint160"
        }
      ],
      "name": "IllegalSqrtPrice",
      "type": "error"
    },
    {
      "inputs": [
        {
          "internalType": "contract IERC20",
          "name": "incorrectAddress",
          "type": "address"
        },
        {
          "internalType": "contract IERC20",
          "name": "correctAddress",
          "type": "address"
        }
      ],
      "name": "IncorrectCollateralAddress",
      "type": "error"
    },
    {
      "inputs": [
        {
          "internalType": "address",
          "name": "invalidAddress",
          "type": "address"
        }
      ],
      "name": "InvalidCollateralAddress",
      "type": "error"
    },
    {
      "inputs": [
        {
          "internalType": "enum IClearingHouseEnums.MulticallOperationType",
          "name": "multicallOperationType",
          "type": "uint8"
        }
      ],
      "name": "InvalidMulticallOperationType",
      "type": "error"
    },
    {
      "inputs": [
        {
          "internalType": "uint256",
          "name": "errorCode",
          "type": "uint256"
        }
      ],
      "name": "InvalidSetting",
      "type": "error"
    },
    {
      "inputs": [],
      "name": "InvalidTokenLiquidationParameters",
      "type": "error"
    },
    {
      "inputs": [
        {
          "internalType": "int256",
          "name": "keeperFee",
          "type": "int256"
        }
      ],
      "name": "KeeperFeeNotPositive",
      "type": "error"
    },
    {
      "inputs": [
        {
          "internalType": "uint256",
          "name": "notionalValue",
          "type": "uint256"
        }
      ],
      "name": "LowNotionalValue",
      "type": "error"
    },
    {
      "inputs": [],
      "name": "NotRageTradeFactory",
      "type": "error"
    },
    {
      "inputs": [
        {
          "internalType": "uint32",
          "name": "poolId",
          "type": "uint32"
        }
      ],
      "name": "PoolDoesNotExist",
      "type": "error"
    },
    {
      "inputs": [
        {
          "internalType": "uint32",
          "name": "poolId",
          "type": "uint32"
        }
      ],
      "name": "PoolNotAllowedForTrade",
      "type": "error"
    },
    {
      "inputs": [
        {
          "internalType": "uint256",
          "name": "value",
          "type": "uint256"
        }
      ],
      "name": "SafeCast_UInt224Overflow",
      "type": "error"
    },
    {
      "inputs": [],
      "name": "SlippageBeyondTolerance",
      "type": "error"
    },
    {
      "inputs": [],
      "name": "T",
      "type": "error"
    },
    {
      "inputs": [],
      "name": "Unauthorised",
      "type": "error"
    },
    {
      "inputs": [],
      "name": "ZeroAddress",
      "type": "error"
    },
    {
      "inputs": [],
      "name": "ZeroAmount",
      "type": "error"
    },
    {
      "anonymous": false,
      "inputs": [
        {
          "indexed": true,
          "internalType": "address",
          "name": "ownerAddress",
          "type": "address"
        },
        {
          "indexed": false,
          "internalType": "uint256",
          "name": "accountId",
          "type": "uint256"
        }
      ],
      "name": "AccountCreated",
      "type": "event"
    },
    {
      "anonymous": false,
      "inputs": [
        {
          "indexed": false,
          "internalType": "contract IERC20",
          "name": "cToken",
          "type": "address"
        },
        {
          "components": [
            {
              "internalType": "contract IOracle",
              "name": "oracle",
              "type": "address"
            },
            {
              "internalType": "uint32",
              "name": "twapDuration",
              "type": "uint32"
            },
            {
              "internalType": "bool",
              "name": "isAllowedForDeposit",
              "type": "bool"
            }
          ],
          "indexed": false,
          "internalType": "struct IClearingHouseStructures.CollateralSettings",
          "name": "cTokenInfo",
          "type": "tuple"
        }
      ],
      "name": "CollateralSettingsUpdated",
      "type": "event"
    },
    {
      "anonymous": false,
      "inputs": [
        {
          "indexed": true,
          "internalType": "address",
          "name": "previousGovernancePending",
          "type": "address"
        },
        {
          "indexed": true,
          "internalType": "address",
          "name": "newGovernancePending",
          "type": "address"
        }
      ],
      "name": "GovernancePending",
      "type": "event"
    },
    {
      "anonymous": false,
      "inputs": [
        {
          "indexed": true,
          "internalType": "address",
          "name": "previousGovernance",
          "type": "address"
        },
        {
          "indexed": true,
          "internalType": "address",
          "name": "newGovernance",
          "type": "address"
        }
      ],
      "name": "GovernanceTransferred",
      "type": "event"
    },
    {
      "anonymous": false,
      "inputs": [
        {
          "indexed": false,
          "internalType": "address",
          "name": "account",
          "type": "address"
        }
      ],
      "name": "Paused",
      "type": "event"
    },
    {
      "anonymous": false,
      "inputs": [
        {
          "indexed": false,
          "internalType": "bool",
          "name": "paused",
          "type": "bool"
        }
      ],
      "name": "PausedUpdated",
      "type": "event"
    },
    {
      "anonymous": false,
      "inputs": [
        {
          "indexed": false,
          "internalType": "uint32",
          "name": "poolId",
          "type": "uint32"
        },
        {
          "components": [
            {
              "internalType": "uint16",
              "name": "initialMarginRatioBps",
              "type": "uint16"
            },
            {
              "internalType": "uint16",
              "name": "maintainanceMarginRatioBps",
              "type": "uint16"
            },
            {
              "internalType": "uint16",
              "name": "maxVirtualPriceDeviationRatioBps",
              "type": "uint16"
            },
            {
              "internalType": "uint32",
              "name": "twapDuration",
              "type": "uint32"
            },
            {
              "internalType": "bool",
              "name": "isAllowedForTrade",
              "type": "bool"
            },
            {
              "internalType": "bool",
              "name": "isCrossMargined",
              "type": "bool"
            },
            {
              "internalType": "contract IOracle",
              "name": "oracle",
              "type": "address"
            }
          ],
          "indexed": false,
          "internalType": "struct IClearingHouseStructures.PoolSettings",
          "name": "settings",
          "type": "tuple"
        }
      ],
      "name": "PoolSettingsUpdated",
      "type": "event"
    },
    {
      "anonymous": false,
      "inputs": [
        {
          "components": [
            {
              "internalType": "uint16",
              "name": "rangeLiquidationFeeFraction",
              "type": "uint16"
            },
            {
              "internalType": "uint16",
              "name": "tokenLiquidationFeeFraction",
              "type": "uint16"
            },
            {
              "internalType": "uint16",
              "name": "closeFactorMMThresholdBps",
              "type": "uint16"
            },
            {
              "internalType": "uint16",
              "name": "partialLiquidationCloseFactorBps",
              "type": "uint16"
            },
            {
              "internalType": "uint16",
              "name": "insuranceFundFeeShareBps",
              "type": "uint16"
            },
            {
              "internalType": "uint16",
              "name": "liquidationSlippageSqrtToleranceBps",
              "type": "uint16"
            },
            {
              "internalType": "uint64",
              "name": "maxRangeLiquidationFees",
              "type": "uint64"
            },
            {
              "internalType": "uint64",
              "name": "minNotionalLiquidatable",
              "type": "uint64"
            }
          ],
          "indexed": false,
          "internalType": "struct IClearingHouseStructures.LiquidationParams",
          "name": "liquidationParams",
          "type": "tuple"
        },
        {
          "indexed": false,
          "internalType": "uint256",
          "name": "removeLimitOrderFee",
          "type": "uint256"
        },
        {
          "indexed": false,
          "internalType": "uint256",
          "name": "minimumOrderNotional",
          "type": "uint256"
        },
        {
          "indexed": false,
          "internalType": "uint256",
          "name": "minRequiredMargin",
          "type": "uint256"
        }
      ],
      "name": "ProtocolSettingsUpdated",
      "type": "event"
    },
    {
      "anonymous": false,
      "inputs": [
        {
          "indexed": true,
          "internalType": "address",
          "name": "previousTeamMultisigPending",
          "type": "address"
        },
        {
          "indexed": true,
          "internalType": "address",
          "name": "newTeamMultisigPending",
          "type": "address"
        }
      ],
      "name": "TeamMultisigPending",
      "type": "event"
    },
    {
      "anonymous": false,
      "inputs": [
        {
          "indexed": true,
          "internalType": "address",
          "name": "previousTeamMultisig",
          "type": "address"
        },
        {
          "indexed": true,
          "internalType": "address",
          "name": "newTeamMultisig",
          "type": "address"
        }
      ],
      "name": "TeamMultisigTransferred",
      "type": "event"
    },
    {
      "anonymous": false,
      "inputs": [
        {
          "indexed": false,
          "internalType": "address",
          "name": "account",
          "type": "address"
        }
      ],
      "name": "Unpaused",
      "type": "event"
    },
    {
      "inputs": [],
      "name": "acceptGovernanceTransfer",
      "outputs": [],
      "stateMutability": "nonpayable",
      "type": "function"
    },
    {
      "inputs": [],
      "name": "acceptTeamMultisigTransfer",
      "outputs": [],
      "stateMutability": "nonpayable",
      "type": "function"
    },
    {
      "inputs": [],
      "name": "createAccount",
      "outputs": [
        {
          "internalType": "uint256",
          "name": "newAccountId",
          "type": "uint256"
        }
      ],
      "stateMutability": "nonpayable",
      "type": "function"
    },
    {
      "inputs": [
        {
          "internalType": "uint32",
          "name": "collateralId",
          "type": "uint32"
        },
        {
          "internalType": "uint256",
          "name": "amount",
          "type": "uint256"
        }
      ],
      "name": "createAccountAndAddMargin",
      "outputs": [
        {
          "internalType": "uint256",
          "name": "newAccountId",
          "type": "uint256"
        }
      ],
      "stateMutability": "nonpayable",
      "type": "function"
    },
    {
      "inputs": [
        {
          "internalType": "bytes32",
          "name": "slot",
          "type": "bytes32"
        }
      ],
      "name": "extsload",
      "outputs": [
        {
          "internalType": "bytes32",
          "name": "val",
          "type": "bytes32"
        }
      ],
      "stateMutability": "view",
      "type": "function"
    },
    {
      "inputs": [
        {
          "internalType": "bytes32[]",
          "name": "slots",
          "type": "bytes32[]"
        }
      ],
      "name": "extsload",
      "outputs": [
        {
          "internalType": "bytes32[]",
          "name": "",
          "type": "bytes32[]"
        }
      ],
      "stateMutability": "view",
      "type": "function"
    },
    {
      "inputs": [
        {
          "internalType": "uint256",
          "name": "accountId",
          "type": "uint256"
        },
        {
          "internalType": "bool",
          "name": "isInitialMargin",
          "type": "bool"
        }
      ],
      "name": "getAccountMarketValueAndRequiredMargin",
      "outputs": [
        {
          "internalType": "int256",
          "name": "marketValue",
          "type": "int256"
        },
        {
          "internalType": "int256",
          "name": "requiredMargin",
          "type": "int256"
        }
      ],
      "stateMutability": "view",
      "type": "function"
    },
    {
      "inputs": [
        {
          "internalType": "uint256",
          "name": "accountId",
          "type": "uint256"
        }
      ],
      "name": "getAccountNetProfit",
      "outputs": [
        {
          "internalType": "int256",
          "name": "accountNetProfit",
          "type": "int256"
        }
      ],
      "stateMutability": "view",
      "type": "function"
    },
    {
      "inputs": [
        {
          "internalType": "uint256",
          "name": "accountId",
          "type": "uint256"
        },
        {
          "internalType": "uint32",
          "name": "poolId",
          "type": "uint32"
        }
      ],
      "name": "getAccountNetTokenPosition",
      "outputs": [
        {
          "internalType": "int256",
          "name": "netPosition",
          "type": "int256"
        }
      ],
      "stateMutability": "view",
      "type": "function"
    },
    {
      "inputs": [
        {
          "internalType": "uint32",
          "name": "poolId",
          "type": "uint32"
        }
      ],
      "name": "getRealTwapPriceX128",
      "outputs": [
        {
          "internalType": "uint256",
          "name": "realPriceX128",
          "type": "uint256"
        }
      ],
      "stateMutability": "view",
      "type": "function"
    },
    {
      "inputs": [
        {
          "internalType": "uint32",
          "name": "poolId",
          "type": "uint32"
        }
      ],
      "name": "getVirtualTwapPriceX128",
      "outputs": [
        {
          "internalType": "uint256",
          "name": "virtualPriceX128",
          "type": "uint256"
        }
      ],
      "stateMutability": "view",
      "type": "function"
    },
    {
      "inputs": [],
      "name": "governance",
      "outputs": [
        {
          "internalType": "address",
          "name": "",
          "type": "address"
        }
      ],
      "stateMutability": "view",
      "type": "function"
    },
    {
      "inputs": [],
      "name": "governancePending",
      "outputs": [
        {
          "internalType": "address",
          "name": "",
          "type": "address"
        }
      ],
      "stateMutability": "view",
      "type": "function"
    },
    {
      "inputs": [
        {
          "internalType": "address",
          "name": "_rageTradeFactoryAddress",
          "type": "address"
        },
        {
          "internalType": "address",
          "name": "initialGovernance",
          "type": "address"
        },
        {
          "internalType": "address",
          "name": "initialTeamMultisig",
          "type": "address"
        },
        {
          "internalType": "contract IERC20",
          "name": "_defaultCollateralToken",
          "type": "address"
        },
        {
          "internalType": "contract IOracle",
          "name": "_defaultCollateralTokenOracle",
          "type": "address"
        },
        {
          "internalType": "contract IInsuranceFund",
          "name": "_insuranceFund",
          "type": "address"
        },
        {
          "internalType": "contract IVQuote",
          "name": "_vQuote",
          "type": "address"
        }
      ],
      "name": "initialize",
      "outputs": [],
      "stateMutability": "nonpayable",
      "type": "function"
    },
    {
      "inputs": [
        {
          "internalType": "address",
          "name": "newGovernancePending",
          "type": "address"
        }
      ],
      "name": "initiateGovernanceTransfer",
      "outputs": [],
      "stateMutability": "nonpayable",
      "type": "function"
    },
    {
      "inputs": [
        {
          "internalType": "address",
          "name": "newTeamMultisigPending",
          "type": "address"
        }
      ],
      "name": "initiateTeamMultisigTransfer",
      "outputs": [],
      "stateMutability": "nonpayable",
      "type": "function"
    },
    {
      "inputs": [],
      "name": "insuranceFund",
      "outputs": [
        {
          "internalType": "contract IInsuranceFund",
          "name": "",
          "type": "address"
        }
      ],
      "stateMutability": "view",
      "type": "function"
    },
    {
      "inputs": [
        {
          "internalType": "uint256",
          "name": "accountId",
          "type": "uint256"
        }
      ],
      "name": "liquidateLiquidityPositions",
      "outputs": [],
      "stateMutability": "nonpayable",
      "type": "function"
    },
    {
      "inputs": [
        {
          "internalType": "uint256",
          "name": "targetAccountId",
          "type": "uint256"
        },
        {
          "internalType": "uint32",
          "name": "poolId",
          "type": "uint32"
        }
      ],
      "name": "liquidateTokenPosition",
      "outputs": [
        {
          "internalType": "int256",
          "name": "keeperFee",
          "type": "int256"
        }
      ],
      "stateMutability": "nonpayable",
      "type": "function"
    },
    {
      "inputs": [
        {
          "internalType": "bytes[]",
          "name": "data",
          "type": "bytes[]"
        }
      ],
      "name": "multicall",
      "outputs": [
        {
          "internalType": "bytes[]",
          "name": "results",
          "type": "bytes[]"
        }
      ],
      "stateMutability": "payable",
      "type": "function"
    },
    {
      "inputs": [
        {
          "internalType": "uint256",
          "name": "accountId",
          "type": "uint256"
        },
        {
          "components": [
            {
              "internalType": "enum IClearingHouseEnums.MulticallOperationType",
              "name": "operationType",
              "type": "uint8"
            },
            {
              "internalType": "bytes",
              "name": "data",
              "type": "bytes"
            }
          ],
          "internalType": "struct IClearingHouseStructures.MulticallOperation[]",
          "name": "operations",
          "type": "tuple[]"
        }
      ],
      "name": "multicallWithSingleMarginCheck",
      "outputs": [
        {
          "internalType": "bytes[]",
          "name": "results",
          "type": "bytes[]"
        }
      ],
      "stateMutability": "nonpayable",
      "type": "function"
    },
    {
      "inputs": [],
      "name": "numAccounts",
      "outputs": [
        {
          "internalType": "uint256",
          "name": "",
          "type": "uint256"
        }
      ],
      "stateMutability": "view",
      "type": "function"
    },
    {
      "inputs": [
        {
          "internalType": "uint256",
          "name": "numberOfPoolsToUpdateInThisTx",
          "type": "uint256"
        }
      ],
      "name": "pause",
      "outputs": [],
      "stateMutability": "nonpayable",
      "type": "function"
    },
    {
      "inputs": [],
      "name": "paused",
      "outputs": [
        {
          "internalType": "bool",
          "name": "",
          "type": "bool"
        }
      ],
      "stateMutability": "view",
      "type": "function"
    },
    {
      "inputs": [],
      "name": "rageTradeFactoryAddress",
      "outputs": [
        {
          "internalType": "address",
          "name": "",
          "type": "address"
        }
      ],
      "stateMutability": "view",
      "type": "function"
    },
    {
      "inputs": [
        {
          "components": [
            {
              "internalType": "contract IVToken",
              "name": "vToken",
              "type": "address"
            },
            {
              "internalType": "contract IUniswapV3Pool",
              "name": "vPool",
              "type": "address"
            },
            {
              "internalType": "contract IVPoolWrapper",
              "name": "vPoolWrapper",
              "type": "address"
            },
            {
              "components": [
                {
                  "internalType": "uint16",
                  "name": "initialMarginRatioBps",
                  "type": "uint16"
                },
                {
                  "internalType": "uint16",
                  "name": "maintainanceMarginRatioBps",
                  "type": "uint16"
                },
                {
                  "internalType": "uint16",
                  "name": "maxVirtualPriceDeviationRatioBps",
                  "type": "uint16"
                },
                {
                  "internalType": "uint32",
                  "name": "twapDuration",
                  "type": "uint32"
                },
                {
                  "internalType": "bool",
                  "name": "isAllowedForTrade",
                  "type": "bool"
                },
                {
                  "internalType": "bool",
                  "name": "isCrossMargined",
                  "type": "bool"
                },
                {
                  "internalType": "contract IOracle",
                  "name": "oracle",
                  "type": "address"
                }
              ],
              "internalType": "struct IClearingHouseStructures.PoolSettings",
              "name": "settings",
              "type": "tuple"
            }
          ],
          "internalType": "struct IClearingHouseStructures.Pool",
          "name": "poolInfo",
          "type": "tuple"
        }
      ],
      "name": "registerPool",
      "outputs": [],
      "stateMutability": "nonpayable",
      "type": "function"
    },
    {
      "inputs": [
        {
          "internalType": "uint256",
          "name": "accountId",
          "type": "uint256"
        },
        {
          "internalType": "uint32",
          "name": "poolId",
          "type": "uint32"
        },
        {
          "internalType": "int24",
          "name": "tickLower",
          "type": "int24"
        },
        {
          "internalType": "int24",
          "name": "tickUpper",
          "type": "int24"
        }
      ],
      "name": "removeLimitOrder",
      "outputs": [],
      "stateMutability": "nonpayable",
      "type": "function"
    },
    {
      "inputs": [
        {
          "internalType": "uint256",
          "name": "accountId",
          "type": "uint256"
        }
      ],
      "name": "settleProfit",
      "outputs": [],
      "stateMutability": "nonpayable",
      "type": "function"
    },
    {
      "inputs": [
        {
          "internalType": "uint256",
          "name": "accountId",
          "type": "uint256"
        },
        {
          "internalType": "uint32",
          "name": "poolId",
          "type": "uint32"
        },
        {
          "components": [
            {
              "internalType": "int256",
              "name": "amount",
              "type": "int256"
            },
            {
              "internalType": "uint160",
              "name": "sqrtPriceLimit",
              "type": "uint160"
            },
            {
              "internalType": "bool",
              "name": "isNotional",
              "type": "bool"
            },
            {
              "internalType": "bool",
              "name": "isPartialAllowed",
              "type": "bool"
            },
            {
              "internalType": "bool",
              "name": "settleProfit",
              "type": "bool"
            }
          ],
          "internalType": "struct IClearingHouseStructures.SwapParams",
          "name": "swapParams",
          "type": "tuple"
        }
      ],
      "name": "swapToken",
      "outputs": [
        {
          "internalType": "int256",
          "name": "vTokenAmountOut",
          "type": "int256"
        },
        {
          "internalType": "int256",
          "name": "vQuoteAmountOut",
          "type": "int256"
        }
      ],
      "stateMutability": "nonpayable",
      "type": "function"
    },
    {
      "inputs": [],
      "name": "teamMultisig",
      "outputs": [
        {
          "internalType": "address",
          "name": "",
          "type": "address"
        }
      ],
      "stateMutability": "view",
      "type": "function"
    },
    {
      "inputs": [],
      "name": "teamMultisigPending",
      "outputs": [
        {
          "internalType": "address",
          "name": "",
          "type": "address"
        }
      ],
      "stateMutability": "view",
      "type": "function"
    },
    {
      "inputs": [
        {
          "internalType": "uint256",
          "name": "numberOfPoolsToUpdateInThisTx",
          "type": "uint256"
        }
      ],
      "name": "unpause",
      "outputs": [],
      "stateMutability": "nonpayable",
      "type": "function"
    },
    {
      "inputs": [
        {
          "internalType": "contract IERC20",
          "name": "cToken",
          "type": "address"
        },
        {
          "components": [
            {
              "internalType": "contract IOracle",
              "name": "oracle",
              "type": "address"
            },
            {
              "internalType": "uint32",
              "name": "twapDuration",
              "type": "uint32"
            },
            {
              "internalType": "bool",
              "name": "isAllowedForDeposit",
              "type": "bool"
            }
          ],
          "internalType": "struct IClearingHouseStructures.CollateralSettings",
          "name": "collateralSettings",
          "type": "tuple"
        }
      ],
      "name": "updateCollateralSettings",
      "outputs": [],
      "stateMutability": "nonpayable",
      "type": "function"
    },
    {
      "inputs": [
        {
          "internalType": "uint256",
          "name": "accountId",
          "type": "uint256"
        },
        {
          "internalType": "uint32",
          "name": "collateralId",
          "type": "uint32"
        },
        {
          "internalType": "int256",
          "name": "amount",
          "type": "int256"
        }
      ],
      "name": "updateMargin",
      "outputs": [],
      "stateMutability": "nonpayable",
      "type": "function"
    },
    {
      "inputs": [
        {
          "internalType": "uint32",
          "name": "poolId",
          "type": "uint32"
        },
        {
          "components": [
            {
              "internalType": "uint16",
              "name": "initialMarginRatioBps",
              "type": "uint16"
            },
            {
              "internalType": "uint16",
              "name": "maintainanceMarginRatioBps",
              "type": "uint16"
            },
            {
              "internalType": "uint16",
              "name": "maxVirtualPriceDeviationRatioBps",
              "type": "uint16"
            },
            {
              "internalType": "uint32",
              "name": "twapDuration",
              "type": "uint32"
            },
            {
              "internalType": "bool",
              "name": "isAllowedForTrade",
              "type": "bool"
            },
            {
              "internalType": "bool",
              "name": "isCrossMargined",
              "type": "bool"
            },
            {
              "internalType": "contract IOracle",
              "name": "oracle",
              "type": "address"
            }
          ],
          "internalType": "struct IClearingHouseStructures.PoolSettings",
          "name": "newSettings",
          "type": "tuple"
        }
      ],
      "name": "updatePoolSettings",
      "outputs": [],
      "stateMutability": "nonpayable",
      "type": "function"
    },
    {
      "inputs": [
        {
          "internalType": "uint256",
          "name": "accountId",
          "type": "uint256"
        },
        {
          "internalType": "int256",
          "name": "amount",
          "type": "int256"
        }
      ],
      "name": "updateProfit",
      "outputs": [],
      "stateMutability": "nonpayable",
      "type": "function"
    },
    {
      "inputs": [
        {
          "components": [
            {
              "internalType": "uint16",
              "name": "rangeLiquidationFeeFraction",
              "type": "uint16"
            },
            {
              "internalType": "uint16",
              "name": "tokenLiquidationFeeFraction",
              "type": "uint16"
            },
            {
              "internalType": "uint16",
              "name": "closeFactorMMThresholdBps",
              "type": "uint16"
            },
            {
              "internalType": "uint16",
              "name": "partialLiquidationCloseFactorBps",
              "type": "uint16"
            },
            {
              "internalType": "uint16",
              "name": "insuranceFundFeeShareBps",
              "type": "uint16"
            },
            {
              "internalType": "uint16",
              "name": "liquidationSlippageSqrtToleranceBps",
              "type": "uint16"
            },
            {
              "internalType": "uint64",
              "name": "maxRangeLiquidationFees",
              "type": "uint64"
            },
            {
              "internalType": "uint64",
              "name": "minNotionalLiquidatable",
              "type": "uint64"
            }
          ],
          "internalType": "struct IClearingHouseStructures.LiquidationParams",
          "name": "_liquidationParams",
          "type": "tuple"
        },
        {
          "internalType": "uint256",
          "name": "_removeLimitOrderFee",
          "type": "uint256"
        },
        {
          "internalType": "uint256",
          "name": "_minimumOrderNotional",
          "type": "uint256"
        },
        {
          "internalType": "uint256",
          "name": "_minRequiredMargin",
          "type": "uint256"
        }
      ],
      "name": "updateProtocolSettings",
      "outputs": [],
      "stateMutability": "nonpayable",
      "type": "function"
    },
    {
      "inputs": [
        {
          "internalType": "uint256",
          "name": "accountId",
          "type": "uint256"
        },
        {
          "internalType": "uint32",
          "name": "poolId",
          "type": "uint32"
        },
        {
          "components": [
            {
              "internalType": "int24",
              "name": "tickLower",
              "type": "int24"
            },
            {
              "internalType": "int24",
              "name": "tickUpper",
              "type": "int24"
            },
            {
              "internalType": "int128",
              "name": "liquidityDelta",
              "type": "int128"
            },
            {
              "internalType": "uint160",
              "name": "sqrtPriceCurrent",
              "type": "uint160"
            },
            {
              "internalType": "uint16",
              "name": "slippageToleranceBps",
              "type": "uint16"
            },
            {
              "internalType": "bool",
              "name": "closeTokenPosition",
              "type": "bool"
            },
            {
              "internalType": "enum IClearingHouseEnums.LimitOrderType",
              "name": "limitOrderType",
              "type": "uint8"
            },
            {
              "internalType": "bool",
              "name": "settleProfit",
              "type": "bool"
            }
          ],
          "internalType": "struct IClearingHouseStructures.LiquidityChangeParams",
          "name": "liquidityChangeParams",
          "type": "tuple"
        }
      ],
      "name": "updateRangeOrder",
      "outputs": [
        {
          "internalType": "int256",
          "name": "vTokenAmountOut",
          "type": "int256"
        },
        {
          "internalType": "int256",
          "name": "vQuoteAmountOut",
          "type": "int256"
        }
      ],
      "stateMutability": "nonpayable",
      "type": "function"
    },
    {
      "inputs": [
        {
          "internalType": "uint256",
          "name": "numberOfPoolsToUpdateInThisTx",
          "type": "uint256"
        }
      ],
      "name": "withdrawProtocolFee",
      "outputs": [],
      "stateMutability": "nonpayable",
      "type": "function"
    },
    {
      "inputs": [],
      "name": "InsufficientCollateralBalance",
      "type": "error"
    },
    {
      "inputs": [
        {
          "internalType": "int256",
          "name": "accountMarketValue",
          "type": "int256"
        },
        {
          "internalType": "int256",
          "name": "totalRequiredMargin",
          "type": "int256"
        }
      ],
      "name": "InvalidLiquidationAccountAboveWater",
      "type": "error"
    },
    {
      "inputs": [
        {
          "internalType": "uint32",
          "name": "poolId",
          "type": "uint32"
        }
      ],
      "name": "InvalidLiquidationActiveRangePresent",
      "type": "error"
    },
    {
      "inputs": [
        {
          "internalType": "int256",
          "name": "accountMarketValue",
          "type": "int256"
        },
        {
          "internalType": "int256",
          "name": "totalRequiredMargin",
          "type": "int256"
        }
      ],
      "name": "InvalidTransactionNotEnoughMargin",
      "type": "error"
    },
    {
      "inputs": [
        {
          "internalType": "int256",
          "name": "totalProfit",
          "type": "int256"
        }
      ],
      "name": "InvalidTransactionNotEnoughProfit",
      "type": "error"
    },
    {
      "inputs": [
        {
          "internalType": "int24",
          "name": "tickLower",
          "type": "int24"
        },
        {
          "internalType": "int24",
          "name": "tickUpper",
          "type": "int24"
        },
        {
          "internalType": "uint256",
          "name": "liquidity",
          "type": "uint256"
        }
      ],
      "name": "LPS_DeactivationFailed",
      "type": "error"
    },
    {
      "inputs": [
        {
          "internalType": "int24",
          "name": "tickLower",
          "type": "int24"
        },
        {
          "internalType": "int24",
          "name": "tickUpper",
          "type": "int24"
        }
      ],
      "name": "LPS_IllegalTicks",
      "type": "error"
    },
    {
      "inputs": [],
      "name": "LPS_InactiveRange",
      "type": "error"
    },
    {
      "inputs": [],
      "name": "LP_AlreadyInitialized",
      "type": "error"
    },
    {
      "inputs": [],
      "name": "LP_IneligibleLimitOrderRemoval",
      "type": "error"
    },
    {
      "inputs": [
        {
          "internalType": "uint256",
          "name": "y_target",
          "type": "uint256"
        },
        {
          "internalType": "uint160",
          "name": "x_lower",
          "type": "uint160"
        },
        {
          "internalType": "uint160",
          "name": "x_upper",
          "type": "uint160"
        }
      ],
      "name": "SolutionOutOfBounds",
      "type": "error"
    },
    {
      "inputs": [
        {
          "internalType": "uint32",
          "name": "element",
          "type": "uint32"
        }
      ],
      "name": "U32L8_IllegalElement",
      "type": "error"
    },
    {
      "inputs": [
        {
          "internalType": "uint32",
          "name": "element",
          "type": "uint32"
        }
      ],
      "name": "U32L8_NoSpaceLeftToInsert",
      "type": "error"
    },
    {
      "inputs": [
        {
          "internalType": "uint48",
          "name": "element",
          "type": "uint48"
        }
      ],
      "name": "U48L5_IllegalElement",
      "type": "error"
    },
    {
      "inputs": [
        {
          "internalType": "uint48",
          "name": "element",
          "type": "uint48"
        }
      ],
      "name": "U48L5_NoSpaceLeftToInsert",
      "type": "error"
    },
    {
      "inputs": [
        {
          "internalType": "uint32",
          "name": "poolId",
          "type": "uint32"
        }
      ],
      "name": "VPS_DeactivationFailed",
      "type": "error"
    },
    {
      "inputs": [
        {
          "internalType": "uint32",
          "name": "poolId",
          "type": "uint32"
        }
      ],
      "name": "VPS_TokenInactive",
      "type": "error"
    },
    {
      "anonymous": false,
      "inputs": [
        {
          "indexed": true,
          "internalType": "uint256",
          "name": "accountId",
          "type": "uint256"
        },
        {
          "indexed": true,
          "internalType": "address",
          "name": "keeperAddress",
          "type": "address"
        },
        {
          "indexed": false,
          "internalType": "int256",
          "name": "liquidationFee",
          "type": "int256"
        },
        {
          "indexed": false,
          "internalType": "int256",
          "name": "keeperFee",
          "type": "int256"
        },
        {
          "indexed": false,
          "internalType": "int256",
          "name": "insuranceFundFee",
          "type": "int256"
        },
        {
          "indexed": false,
          "internalType": "int256",
          "name": "accountMarketValueFinal",
          "type": "int256"
        }
      ],
      "name": "LiquidityPositionsLiquidated",
      "type": "event"
    },
    {
      "anonymous": false,
      "inputs": [
        {
          "indexed": true,
          "internalType": "uint256",
          "name": "accountId",
          "type": "uint256"
        },
        {
          "indexed": true,
          "internalType": "uint32",
          "name": "collateralId",
          "type": "uint32"
        },
        {
          "indexed": false,
          "internalType": "int256",
          "name": "amount",
          "type": "int256"
        },
        {
          "indexed": false,
          "internalType": "bool",
          "name": "isSettleProfit",
          "type": "bool"
        }
      ],
      "name": "MarginUpdated",
      "type": "event"
    },
    {
      "anonymous": false,
      "inputs": [
        {
          "indexed": true,
          "internalType": "uint256",
          "name": "accountId",
          "type": "uint256"
        },
        {
          "indexed": false,
          "internalType": "int256",
          "name": "amount",
          "type": "int256"
        }
      ],
      "name": "ProfitUpdated",
      "type": "event"
    },
    {
      "anonymous": false,
      "inputs": [
        {
          "indexed": true,
          "internalType": "uint256",
          "name": "accountId",
          "type": "uint256"
        },
        {
          "indexed": true,
          "internalType": "uint32",
          "name": "poolId",
          "type": "uint32"
        },
        {
          "indexed": false,
          "internalType": "int256",
          "name": "keeperFee",
          "type": "int256"
        },
        {
          "indexed": false,
          "internalType": "int256",
          "name": "insuranceFundFee",
          "type": "int256"
        },
        {
          "indexed": false,
          "internalType": "int256",
          "name": "accountMarketValueFinal",
          "type": "int256"
        }
      ],
      "name": "TokenPositionLiquidated",
      "type": "event"
    },
    {
      "anonymous": false,
      "inputs": [
        {
          "indexed": true,
          "internalType": "uint256",
          "name": "accountId",
          "type": "uint256"
        },
        {
          "indexed": true,
          "internalType": "uint32",
          "name": "poolId",
          "type": "uint32"
        },
        {
          "indexed": false,
          "internalType": "int24",
          "name": "tickLower",
          "type": "int24"
        },
        {
          "indexed": false,
          "internalType": "int24",
          "name": "tickUpper",
          "type": "int24"
        },
        {
          "indexed": false,
          "internalType": "int128",
          "name": "liquidityDelta",
          "type": "int128"
        },
        {
          "indexed": false,
          "internalType": "enum IClearingHouseEnums.LimitOrderType",
          "name": "limitOrderType",
          "type": "uint8"
        },
        {
          "indexed": false,
          "internalType": "int256",
          "name": "vTokenAmountOut",
          "type": "int256"
        },
        {
          "indexed": false,
          "internalType": "int256",
          "name": "vQuoteAmountOut",
          "type": "int256"
        },
        {
          "indexed": false,
          "internalType": "uint160",
          "name": "sqrtPriceX96",
          "type": "uint160"
        }
      ],
      "name": "LiquidityChanged",
      "type": "event"
    },
    {
      "anonymous": false,
      "inputs": [
        {
          "indexed": true,
          "internalType": "uint256",
          "name": "accountId",
          "type": "uint256"
        },
        {
          "indexed": true,
          "internalType": "uint32",
          "name": "poolId",
          "type": "uint32"
        },
        {
          "indexed": false,
          "internalType": "int24",
          "name": "tickLower",
          "type": "int24"
        },
        {
          "indexed": false,
          "internalType": "int24",
          "name": "tickUpper",
          "type": "int24"
        },
        {
          "indexed": false,
          "internalType": "int256",
          "name": "amount",
          "type": "int256"
        }
      ],
      "name": "LiquidityPositionEarningsRealized",
      "type": "event"
    },
    {
      "anonymous": false,
      "inputs": [
        {
          "indexed": true,
          "internalType": "uint256",
          "name": "accountId",
          "type": "uint256"
        },
        {
          "indexed": true,
          "internalType": "uint32",
          "name": "poolId",
          "type": "uint32"
        },
        {
          "indexed": false,
          "internalType": "int24",
          "name": "tickLower",
          "type": "int24"
        },
        {
          "indexed": false,
          "internalType": "int24",
          "name": "tickUpper",
          "type": "int24"
        },
        {
          "indexed": false,
          "internalType": "int256",
          "name": "amount",
          "type": "int256"
        },
        {
          "indexed": false,
          "internalType": "int256",
          "name": "sumALastX128",
          "type": "int256"
        },
        {
          "indexed": false,
          "internalType": "int256",
          "name": "sumBInsideLastX128",
          "type": "int256"
        },
        {
          "indexed": false,
          "internalType": "int256",
          "name": "sumFpInsideLastX128",
          "type": "int256"
        },
        {
          "indexed": false,
          "internalType": "uint256",
          "name": "sumFeeInsideLastX128",
          "type": "uint256"
        }
      ],
      "name": "LiquidityPositionFundingPaymentRealized",
      "type": "event"
    },
    {
      "anonymous": false,
      "inputs": [
        {
          "indexed": true,
          "internalType": "uint256",
          "name": "accountId",
          "type": "uint256"
        },
        {
          "indexed": true,
          "internalType": "uint32",
          "name": "poolId",
          "type": "uint32"
        },
        {
          "indexed": false,
          "internalType": "int24",
          "name": "tickLower",
          "type": "int24"
        },
        {
          "indexed": false,
          "internalType": "int24",
          "name": "tickUpper",
          "type": "int24"
        },
        {
          "indexed": false,
          "internalType": "int256",
          "name": "vTokenAmountOut",
          "type": "int256"
        }
      ],
      "name": "TokenPositionChangedDueToLiquidityChanged",
      "type": "event"
    },
    {
      "inputs": [],
      "name": "VPS_IncorrectUpdate",
      "type": "error"
    },
    {
      "anonymous": false,
      "inputs": [
        {
          "indexed": true,
          "internalType": "uint256",
          "name": "accountId",
          "type": "uint256"
        },
        {
          "indexed": true,
          "internalType": "uint32",
          "name": "poolId",
          "type": "uint32"
        },
        {
          "indexed": false,
          "internalType": "int256",
          "name": "vTokenAmountOut",
          "type": "int256"
        },
        {
          "indexed": false,
          "internalType": "int256",
          "name": "vQuoteAmountOut",
          "type": "int256"
        },
        {
          "indexed": false,
          "internalType": "uint160",
          "name": "sqrtPriceX96Start",
          "type": "uint160"
        },
        {
          "indexed": false,
          "internalType": "uint160",
          "name": "sqrtPriceX96End",
          "type": "uint160"
        }
      ],
      "name": "TokenPositionChanged",
      "type": "event"
    },
    {
      "anonymous": false,
      "inputs": [
        {
          "indexed": true,
          "internalType": "uint256",
          "name": "accountId",
          "type": "uint256"
        },
        {
          "indexed": true,
          "internalType": "uint32",
          "name": "poolId",
          "type": "uint32"
        },
        {
          "indexed": false,
          "internalType": "int256",
          "name": "amount",
          "type": "int256"
        },
        {
          "indexed": false,
          "internalType": "int256",
          "name": "sumALastX128",
          "type": "int256"
        }
      ],
      "name": "TokenPositionFundingPaymentRealized",
      "type": "event"
    }
  ],
  "transactionHash": "0x8ef477eb429575b6d2c78e1f9afdb8672832960a0330c62ab7be61132405005f",
  "args": [],
  "numDeployments": 1,
  "solcInputHash": "e57f996027e70c38f3149e5d14eb0907",
  "bytecode": "0x6080604052346200011b5761013d805460ff8160081c1690816000146200010c57506200002e303b1562000120565b159081620000f6575b5460ff8160081c1680156200009d57156200008e57506200005a303b1562000120565b62000066333362000184565b6200007c575b604051615f859081620002098239f35b61013d805461ff00191690556200006c565b60ff6200005a91161562000120565b60405162461bcd60e51b815260206004820152602b60248201527f496e697469616c697a61626c653a20636f6e7472616374206973206e6f74206960448201526a6e697469616c697a696e6760a81b6064820152608490fd5b61013d805461ffff191661010117905562000037565b60ff6200002e91161562000120565b600080fd5b156200012857565b60405162461bcd60e51b815260206004820152602e60248201527f496e697469616c697a61626c653a20636f6e747261637420697320616c72656160448201526d191e481a5b9a5d1a585b1a5e995960921b6064820152608490fd5b6101a280546001600160a01b039283166001600160a01b0319918216811790925560405190936000937f39355f2f5c8206286978f443aa8126bbd29fa09c53c04569502647f3a59c8cb29385939290847f5f56bee8cffbe9a78652a74a60705edede02af10b0bbb888ca44b79a0d42ce808186a31694856101a391825416179055a356fe60806040526004361015610013575b600080fd5b60003560e01c806304a6f2641461031f5780630df181ea14610316578063134015511461030d578063136439dd146103045780631e2eaeaf146102fb5780632a90b8da146102f25780633562490c146102e957806335876476146102e05780633d0aea3d146102d75780633d56a35e146102ce5780633ffe794c146102c557806340c4f69b146102bc578063424cd833146102b357806343afafba146102aa578063569634d3146102a15780635aa6e675146102985780635c975abb1461028f5780636a486482146102865780636ae732301461027d578063706bdd25146102745780637cc2f4f51461026b5780637d2efe071461026257806383d778eb146102595780638ce25a93146102505780638f24ab11146102475780638f8022bc1461023e5780639cd1be58146102355780639dca362f1461022c578063a05c8baf14610223578063ac9650d81461021a578063b790230314610211578063c7505c1514610208578063ce4c18de146101ff578063dbc0c085146101f6578063dbd035ff146101ed578063e3d41c18146101e4578063e450f6f4146101db578063e67ed1df146101d25763fabc1cbc146101ca57600080fd5b61000e6126d4565b5061000e6125fb565b5061000e61248d565b5061000e6123f9565b5061000e612362565b5061000e6122d7565b5061000e6122af565b5061000e612115565b5061000e6120ed565b5061000e61200c565b5061000e611d8c565b5061000e611d2e565b5061000e611bf7565b5061000e611b71565b5061000e61196a565b5061000e61194b565b5061000e6116ff565b5061000e611509565b5061000e6114b0565b5061000e611472565b5061000e6113be565b5061000e6112e5565b5061000e6112c0565b5061000e611297565b5061000e611269565b5061000e611221565b5061000e611096565b5061000e610b82565b5061000e610978565b5061000e610950565b5061000e6108a4565b5061000e6106a7565b5061000e6105ee565b5061000e61056e565b5061000e61054e565b5061000e61044a565b5061000e610421565b5061000e61035c565b5061000e610333565b600091031261000e57565b503461000e57600060031936011261000e5760206001600160a01b036101a55416604051908152f35b503461000e576000602060031936011261041e5761038060ff6101705416156133fd565b61038b600435615b0a565b61039481613b30565b81733FaB135e76c5c0E85A60bf50f100c8cd912f7E5691823b1561041a576044604051809481937feaf393260000000000000000000000000000000000000000000000000000000083526004830152606460248301525af4801561040d575b6103fe575b50604051f35b610407906107a7565b386103f8565b610415613795565b6103f3565b5080fd5b80fd5b503461000e57600060031936011261000e5760206001600160a01b036101a45416604051908152f35b503461000e57602060031936011261000e576001600160a01b03806101a35416331415908161053e575b506105145761017061048a60ff825416156133fd565b60d7546104ea5761049f600435606654613470565b6104a6575b005b600160ff1982546104ba60ff8216156133fd565b161790557f62e78cea01bee320cd4e420270b5ea74000d11b0c9f74754ebdbfc544b05a2586020604051338152a1005b60046040517fd2067f43000000000000000000000000000000000000000000000000000000008152fd5b60046040517fd7a2ae6a000000000000000000000000000000000000000000000000000000008152fd5b6101a25416331415905038610474565b503461000e57602060031936011261000e57602060043554604051908152f35b503461000e57600060031936011261000e576101a48054906001600160a01b0390818316803303610514576000936101a2805492806040519685167f5f56bee8cffbe9a78652a74a60705edede02af10b0bbb888ca44b79a0d42ce808989a373ffffffffffffffffffffffffffffffffffffffff19809416179055169055f35b503461000e57600060031936011261000e576101a58054906001600160a01b0390818316803303610514576000936101a3805492806040519685167f39355f2f5c8206286978f443aa8126bbd29fa09c53c04569502647f3a59c8cb28989a373ffffffffffffffffffffffffffffffffffffffff19809416179055169055f35b6001600160a01b0381160361000e57565b610124359061068d8261066e565b565b60e4359061068d8261066e565b359061068d8261066e565b503461000e5760e060031936011261000e576004356106c58161066e565b61073f6024356106d48161066e565b6044356106e08161066e565b6064356106ec8161066e565b608435906106f98261066e565b60a435926107068461066e565b60c435946107138661066e565b61013d5460ff8160081c1690816000146107835750610733303b156127a8565b15978861075657612819565b61074557005b6104a461013d61ff00198154169055565b61076b61013d61010061ff0019825416179055565b61077e61013d600160ff19825416179055565b612819565b60ff6107339116156127a8565b50634e487b7160e01b600052604160045260246000fd5b67ffffffffffffffff81116107bb57604052565b6107c3610790565b604052565b60a0810190811067ffffffffffffffff8211176107bb57604052565b6040810190811067ffffffffffffffff8211176107bb57604052565b6060810190811067ffffffffffffffff8211176107bb57604052565b90601f601f19910116810190811067ffffffffffffffff8211176107bb57604052565b6040519061068d826107e4565b63ffffffff81160361000e57565b8015150361000e57565b60e4359061068d8261085a565b610104359061068d8261085a565b60a4359061068d8261085a565b60c4359061068d8261085a565b359061068d8261085a565b503461000e57608060031936011261000e576004356108c28161066e565b60607fffffffffffffffffffffffffffffffffffffffffffffffffffffffffffffffdc36011261000e576040516104a4916060820167ffffffffffffffff811183821017610943575b60405260243561091a8161066e565b82526044356109288161084c565b60208301526064356109398161085a565b6040830152612fec565b61094b610790565b61090b565b503461000e57600060031936011261000e5760206001600160a01b0360d45416604051908152f35b503461000e5761014060031936011261000e576001600160a01b038060d454163303610a4d576109d163ffffffff6004356109b28161066e565b1691826000526064602052604060002054166001600160a01b03161590565b15610a3757610a3281610a1d610a187f4182acc9c169391ef7e765eb446fc15c9d49bc73060c678bf4c424a5c0dbdbcb9463ffffffff166000526064602052604060002090565b612c59565b610a2681612e2b565b60405191829182612ec4565b0390a1005b634e487b7160e01b600052600160045260246000fd5b60046040517f85734f31000000000000000000000000000000000000000000000000000000008152fd5b9181601f8401121561000e5782359167ffffffffffffffff831161000e576020808501948460051b01011161000e57565b918091926000905b828210610ac8575011610ac1575050565b6000910152565b91508060209183015181860152018291610ab0565b90601f19601f602093610afb81518092818752878088019101610aa8565b0116010190565b602080820190808352835180925260408301928160408460051b8301019501936000915b848310610b365750505050505090565b9091929394958480610b72837fffffffffffffffffffffffffffffffffffffffffffffffffffffffffffffffc086600196030187528a51610add565b9801930193019194939290610b26565b503461000e5760408060031936011261000e57600480359160243567ffffffffffffffff811161000e57610bb99036908401610a77565b610bc58194929461387a565b93610bda8660005260d3602052604060002090565b95610be487613b30565b60008781938295835b818110610d5f5750505050610d4f575b50610cb8575b610c19575b815180610c158582610b02565b0390f35b733FaB135e76c5c0E85A60bf50f100c8cd912f7E5690813b1561000e5782517f998c53350000000000000000000000000000000000000000000000000000000081529081019485526001602086015260646040860152610c159490916000918391908290819060600103915af48015610cab575b15610c085780610c9f610ca5926107a7565b80610328565b38610c08565b610cb3613795565b610c8d565b733FaB135e76c5c0E85A60bf50f100c8cd912f7E56803b1561000e576000845180927f651524ed0000000000000000000000000000000000000000000000000000000082528180610d198b8983016020606491939293604081019481520152565b03915af48015610d42575b610d2f575b50610c03565b80610c9f610d3c926107a7565b38610d29565b610d4a613795565b610d24565b610d5890615b0a565b5038610bfd565b9091929693610d77610d728385876138c3565b61393a565b610d8081613928565b610dd8575080610dc0610daf610da7610d9d610dc59587896138c3565b6020810190613965565b810190613b11565b906001978015610dce575b9a614a64565b613460565b908a9291610bed565b5060008212610dba565b939650610de9610d728284866138c3565b93610df385613928565b6001948503610e425750610e16610e0e610d9d8385876138c3565b810190613b02565b93610e21858d614e4f565b6000819512610e35575b50610dc590613460565b9650869550610dc5610e2b565b6002610e55610d728486889c969c6138c3565b610e5e81613928565b03610edf575050610eb1610ebf610e768884866138c3565b610e9a8d610e94610e8c60209485810190613965565b810190613a7c565b91615162565b8c5192830191825260208201529092839160400190565b03601f19810183528261081c565b610ec9878b613a02565b52610ed4868a613a02565b50610dc58396613460565b6003610eef610d728a86886138c3565b610ef881613928565b03610f34575050610eb1610ebf610f108884866138c3565b610e9a8d610f2e610f2660209485810190613965565b810190613a57565b91614f36565b93509587610f46610d728385876138c3565b610f4f81613928565b03610f815780610f7b610f74610f6c610d9d610dc59587896138c3565b810190613a24565b91896156cf565b50613460565b6005610f91610d728385876138c3565b610f9a81613928565b03610fd05780610f7b610fcb610fc2610fba610d9d610dc596888a6138c3565b81019061145a565b63ffffffff1690565b6153b9565b6006610fe0610d728385876138c3565b610fe981613928565b036110505780610ffd610dc59284866138c3565b61103b61102963ffffffff61102261101a60209586810190613965565b8101906139b6565b911661559e565b8c519283019081528290602001610eb1565b611045828d613a02565b52610f7b818c613a02565b611063610d72611092928a948c966138c3565b92519283927f62c9ca420000000000000000000000000000000000000000000000000000000084528301613947565b0390fd5b503461000e5760208060031936011261000e5760665460d85460049283358215611218575b600090806111f55750508293915b8481106110e65750505081036110e15750600060d855005b60d855005b8060008361113e611132600261112463ffffffff61110661118799612ddd565b90549060031b1c1663ffffffff166000526064602052604060002090565b01546001600160a01b031690565b6001600160a01b031690565b86604051809481937f5e622abc0000000000000000000000000000000000000000000000000000000083525af19081156111e8575b6000916111bb575b508061118c5750613460565b6110c9565b6111b5906111a26067546001600160a01b031690565b6001600160a01b036101a3541690614b6b565b38610f7b565b6111db9150843d86116111e1575b6111d3818361081c565b810190613ef2565b3861117b565b503d6111c9565b6111f0613795565b611173565b6111ff9084613448565b905083811015611211575b93916110c9565b508261120a565b600092506110bb565b503461000e57604060031936011261000e5760206112616024356004356112478261084c565b8060005260d3845261125c6040600020613b30565b61559e565b604051908152f35b503461000e57602060031936011261000e576104a46004358060005260d3602052610fcb6040600020613b30565b503461000e57600060031936011261000e5760206001600160a01b036101a25416604051908152f35b503461000e57600060031936011261000e57602060ff61017054166040519015158152f35b503461000e57604060031936011261000e57610c156024356113068161084c565b60043560005260d360205263ffffffff604060002091604051927f7188a1ed000000000000000000000000000000000000000000000000000000008452600484015216602482015260646044820152602081606481733FaB135e76c5c0E85A60bf50f100c8cd912f7E565af49081156113b1575b600091611393575b506040519081529081906020820190565b6113ab915060203d81116111e1576111d3818361081c565b38611382565b6113b9613795565b61137a565b503461000e57602060031936011261000e576004356113dc8161066e565b6001600160a01b03806101a354163314158061144b575b610514576000916101a59073ffffffffffffffffffffffffffffffffffffffff19838354921691826040519582167f9b068aae3039a2512c2f13bffb5fd9d95b1895b276b5c7ddf1d4fa24ec3686588888a316179055f35b5033816101a2541614156113f3565b9081602091031261000e573561146f8161084c565b90565b503461000e57602060031936011261000e5760206112616004356114958161084c565b615def565b8060020b0361000e57565b359061068d8261149a565b503461000e57608060031936011261000e576104a46004356024356114d48161084c565b604435906114e18261149a565b606435926114ee8461149a565b8060005260d36020526115046040600020613b30565b6156cf565b503461000e57606060031936011261000e576024356115278161084c565b6044356101709061153c60ff835416156133fd565b611547600435615b0a565b9161155183613b30565b60009361156560ff868512935416156133fd565b846115708383615b55565b94733FaB135e76c5c0E85A60bf50f100c8cd912f7E56803b15611678576040517ff5a284a1000000000000000000000000000000000000000000000000000000008152600481019290925263ffffffff93909316602482015260448101859052606480820152831515608482015291829060a49082905af4801561166b575b611658575b5083821315611620575061161261161b92546001600160a01b031690565b30903390614bdd565b604051f35b61162c575b5050604051f35b61164961164361165193546001600160a01b031690565b91614508565b903390614b6b565b3880611625565b80610c9f611665926107a7565b386115f4565b611673613795565b6115ef565b8280fd5b7fffffffffffffffffffffffffffffffffffffffffffffffffffffffffffffffbc60a091011261000e57604051906116b3826107c8565b8160443581526064356116c58161066e565b60208201526084356116d68161085a565b604082015260a4356116e78161085a565b6060820152608060c435916116fb8361085a565b0152565b503461000e5760e060031936011261000e5760243561171d8161084c565b6117263661167c565b809161017061173960ff825416156133fd565b61175b60ff611749600435615b0a565b9261175384613b30565b5416156133fd565b61176482615c00565b604091829161179f835195869384937f140cf61e00000000000000000000000000000000000000000000000000000000855260048501615352565b0381733FaB135e76c5c0E85A60bf50f100c8cd912f7E565af492831561193e575b6000928394611909575b506117d484614543565b606c5481106118d757506001600160a01b036117fa60208301516001600160a01b031690565b161515806118c1575b61181a575b50519081526020810191909152604090f35b818101906118288251151590565b91826118a5575b821561186c575b5050156118435738611808565b600490517f07a1db07000000000000000000000000000000000000000000000000000000008152fd5b519091501561187a565b1590565b9081611889575b503880611836565b905061189e61189784614543565b9151614543565b1438611881565b91506118b085614543565b6118ba8251614543565b149161182f565b506118d26118766060830151151590565b611803565b82517f256d6b9a0000000000000000000000000000000000000000000000000000000081526004810191909152602490fd5b9093508161192d9293503d8411611937575b611925818361081c565b81019061533c565b91909192386117ca565b503d61191b565b611946613795565b6117c0565b503461000e57600060031936011261000e57602060d254604051908152f35b503461000e5761010060031936011261000e57600480359061198b8261084c565b60e07fffffffffffffffffffffffffffffffffffffffffffffffffffffffffffffffdc36011261000e576001600160a01b036101a254163303611b49576119ed60036119e78463ffffffff166000526064602052604060002090565b01612a7b565b611a086119fb611132612a62565b6001600160a01b03161590565b611b2b5763ffffffff61012c81611a1d612a3d565b1610908115611b15575b50611af65761ffff6127108082611a3c612a0f565b1611611ad857611a54611a4d612a1b565b61ffff1690565b11611aba576107d090611a65612a27565b1611611a9b576040517f4182acc9c169391ef7e765eb446fc15c9d49bc73060c678bf4c424a5c0dbdbcb9080610a328582612f68565b604051636a098dd160e11b815260249181019182529081906020010390fd5b604051636a098dd160e11b8152602381840190815281906020010390fd5b604051636a098dd160e11b8152602281850190815281906020010390fd5b604051636a098dd160e11b815260219181019182529081906020010390fd5b620151809150611b23612a3d565b161138611a27565b604051636a098dd160e11b8152602091810182815290918291010390fd5b6040517fd7a2ae6a000000000000000000000000000000000000000000000000000000008152fd5b503461000e57602060031936011261000e57600435611b8f8161066e565b6001600160a01b03806101a254163303610514576000916101a49073ffffffffffffffffffffffffffffffffffffffff19838354921691826040519582167f8c405decc72a19ef328c92989ce6db4e4a498e1c246413fd60997a3051ba5cff8888a316179055f35b503461000e57604060031936011261000e57602435610170611c1d60ff825416156133fd565b611c2d60ff611749600435615b0a565b8115611d0457733FaB135e76c5c0E85A60bf50f100c8cd912f7E56803b1561000e576040517fd25c4a6f000000000000000000000000000000000000000000000000000000008152600481019290925260248201839052606460448301819052600190830152600090829060849082905af48015611cf7575b611ce4575b506000811315611ccb576104a4906116126067546001600160a01b031690565b6104a4906116496116436067546001600160a01b031690565b80610c9f611cf1926107a7565b38611cab565b611cff613795565b611ca6565b60046040517f1f2a2005000000000000000000000000000000000000000000000000000000008152fd5b503461000e57600060031936011261000e5760206112616136c0565b60031961010091011261000e57600490565b7fffffffffffffffffffffffffffffffffffffffffffffffffffffffffffffffbc61010091011261000e57604490565b503461000e5761016060031936011261000e57611da836611d4a565b610104356101243591610144356001600160a01b036101a254163303610514576127109361ffff8581611dda86612a33565b1611611ff35785611df0611a4d60208701612a33565b11611fda5760409580611e07611a4d898801612a33565b11611fc25780611e1c611a4d60608801612a33565b11611faa57611e30611a4d60808701612a33565b11611f92576103e890611e4560a08601612a33565b1611611f7a57633b9aca008067ffffffffffffffff611e6660c087016130a4565b1611611f625780611e89611e7c60e087016130a4565b67ffffffffffffffff1690565b11611f4a57808511611f3257808211611f1a578211611f025791611efc60009594927f697aec6e94e319190380ab0f1f10018d81b64da2479eb874be92c9a733e0a83794611ed6846130ae565b611edf85606b55565b611ee881606c55565b611ef182606a55565b865194859485613311565b0390a151f35b8451636a098dd160e11b8152603a6004820152602490fd5b8551636a098dd160e11b815260396004820152602490fd5b8551636a098dd160e11b815260386004820152602490fd5b8551636a098dd160e11b815260376004820152602490fd5b8551636a098dd160e11b815260366004820152602490fd5b8451636a098dd160e11b815260356004820152602490fd5b8551636a098dd160e11b815260346004820152602490fd5b8651636a098dd160e11b815260336004820152602490fd5b8651636a098dd160e11b815260326004820152602490fd5b604051636a098dd160e11b815260316004820152602490fd5b604051636a098dd160e11b815260306004820152602490fd5b50602060031936011261000e576004803567ffffffffffffffff811161000e576120399036908301610a77565b906120438261387a565b9160005b81811061205c5760405180610c158682610b02565b60008061206a838587615eb8565b6040939161207c855180938193615ee2565b0390305af49061208a614dce565b918290156120b3575050906120ae916120a38287613a02565b52610f7b8186613a02565b612047565b826044899394511061000e5761109291836120d8920160248091518301019101615ef0565b925192839262461bcd60e51b84528301614dfe565b503461000e57600060031936011261000e5760206001600160a01b0360d55416604051908152f35b503461000e5761014060031936011261000e576024356121348161084c565b606061213f36611d5c565b916101709261215260ff855416156133fd565b61217f60ff612176612165600435615b0a565b9361216f85613b30565b36906137bd565b955416156133fd565b61218882615c00565b828401516001600160a01b03168061228f575b506121d360405194859384937fc27789d100000000000000000000000000000000000000000000000000000000855260048501615050565b0381733FaB135e76c5c0E85A60bf50f100c8cd912f7E565af48015612282575b6000908192829161224e575b50606c54811061221b5750604080519182526020820192909252f35b6040517f256d6b9a0000000000000000000000000000000000000000000000000000000081526004810191909152602490fd5b915050612272915060603d811161227b575b61226a818361081c565b810190615028565b919091386121ff565b503d612260565b61228a613795565b6121f3565b6122a9906122a2608087015161ffff1690565b9084615cdd565b3861219b565b503461000e57602060031936011261000e5760206112616004356122d28161084c565b615e4d565b503461000e57600060031936011261000e5760206001600160a01b036101a35416604051908152f35b60209067ffffffffffffffff811161231a575b60051b0190565b612322610790565b612313565b6020908160408183019282815285518094520193019160005b82811061234e575050505090565b835185529381019392810192600101612340565b503461000e5760208060031936011261000e5760043567ffffffffffffffff811161000e573660238201121561000e578060040135906123a182612300565b916123af604051938461081c565b80835260248484019160051b8301019136831161000e57602401905b8282106123ea57610c156123de85615e8f565b60405191829182612327565b813581529084019084016123cb565b503461000e57602060031936011261000e5760043560005260d3602052610c156040600020604051907fc4b22b86000000000000000000000000000000000000000000000000000000008252600482015260646024820152602081604481733FaB135e76c5c0E85A60bf50f100c8cd912f7E565af49081156113b15760009161139357506040519081529081906020820190565b503461000e57604060031936011261000e576004356124ab8161084c565b602435906124b76136c0565b90610170926124ca60ff855416156133fd565b6124d383615b0a565b936124dd85613b30565b6124ef60ff60008412925416156133fd565b6124f98184615b55565b92733FaB135e76c5c0E85A60bf50f100c8cd912f7E5690813b1561000e576040517ff5a284a1000000000000000000000000000000000000000000000000000000008152600481019790975263ffffffff166024870152604486018390526064808701528115156084870152610c159590600090829060a49082905af480156125ee575b6125db575b5060008213156125b157506116126125a192546001600160a01b031690565b6040519081529081906020820190565b6125bd575b50506125a1565b6116496116436125d493546001600160a01b031690565b38806125b6565b80610c9f6125e8926107a7565b38612582565b6125f6613795565b61257d565b503461000e5760408060031936011261000e5760243561261a8161085a565b60043560005260d360205281600020908251917f0c6d7f34000000000000000000000000000000000000000000000000000000008352600483015215156024820152606460448201528181606481733FaB135e76c5c0E85A60bf50f100c8cd912f7E565af49182156126c7575b60009182936126a25750519081526020810191909152604090f35b816126bf929450610c1593503d851161193757611925818361081c565b929091611808565b6126cf613795565b612687565b503461000e57602060031936011261000e576001600160a01b03806101a354163314159081612798575b506105145761017061271360ff825416613675565b60d65461276e5761272860043560665461358a565b61272e57005b60ff19815461273f60ff8216613675565b1690557f5db9ee0a495bf2e6ff9c91a7834c1ba4fdd244a5e8aa4e537bd38aeae4b073aa6020604051338152a1005b60046040517ffc23b9cd000000000000000000000000000000000000000000000000000000008152fd5b6101a254163314159050386126fe565b156127af57565b608460405162461bcd60e51b815260206004820152602e60248201527f496e697469616c697a61626c653a20636f6e747261637420697320616c72656160448201527f647920696e697469616c697a65640000000000000000000000000000000000006064820152fd5b93916128b87f39355f2f5c8206286978f443aa8126bbd29fa09c53c04569502647f3a59c8cb2936000958694986001600160a01b039a8b80928173ffffffffffffffffffffffffffffffffffffffff199c168c60d454161760d4558185168c6067541617606755168a60d554161760d5551688606854161760685589604051926128a284610800565b168252603c602083015260016040830152615942565b61013d9680885460ff8160081c169081861461297057506128da303b156127a8565b159788612943575b16916101a2838882541617905560405192847f5f56bee8cffbe9a78652a74a60705edede02af10b0bbb888ca44b79a0d42ce808186a31694856101a391825416179055a3612934575b5061068d61297d565b61ff001981541690553861292b565b61295861013d61010061ff0019825416179055565b61296b61013d600160ff19825416179055565b6128e2565b60ff6128da9116156127a8565b60ff61013d5460081c16156129995761017060ff198154169055565b608460405162461bcd60e51b815260206004820152602b60248201527f496e697469616c697a61626c653a20636f6e7472616374206973206e6f74206960448201527f6e697469616c697a696e670000000000000000000000000000000000000000006064820152fd5b61ffff81160361000e57565b60243561146f81612a03565b60443561146f81612a03565b60643561146f81612a03565b3561146f81612a03565b60843561146f8161084c565b60e43561146f8161085a565b6101043561146f8161085a565b60e43561146f8161066e565b6101243561146f8161066e565b61068d90612abd602435612a8e81612a03565b829061ffff167fffffffffffffffffffffffffffffffffffffffffffffffffffffffffffff0000825416179055565b612b01604435612acc81612a03565b82547fffffffffffffffffffffffffffffffffffffffffffffffffffffffff0000ffff1660109190911b63ffff000016178255565b612b47606435612b1081612a03565b82547fffffffffffffffffffffffffffffffffffffffffffffffffffff0000ffffffff1660209190911b65ffff0000000016178255565b608435612b538161084c565b7fffffffffffffffffffffffffffffffffffffffffffff00000000ffffffffffff69ffffffff00000000000083549260301b169116178155612bd660a435612b9a8161085a565b82547fffffffffffffffffffffffffffffffffffffffffff00ffffffffffffffffffff1690151560501b6aff0000000000000000000016178255565b612c2260c435612be58161085a565b82547fffffffffffffffffffffffffffffffffffffffff00ffffffffffffffffffffff1690151560581b6bff000000000000000000000016178255565b60e43590612c2f8261066e565b906bffffffffffffffffffffffff6bffffffffffffffffffffffff1983549260601b169116179055565b600361068d91612c97600435612c6e8161066e565b82906001600160a01b031673ffffffffffffffffffffffffffffffffffffffff19825416179055565b612cd2602435612ca68161066e565b60018301906001600160a01b031673ffffffffffffffffffffffffffffffffffffffff19825416179055565b612d0d604435612ce18161066e565b60028301906001600160a01b031673ffffffffffffffffffffffffffffffffffffffff19825416179055565b01612d1d606435612a8e81612a03565b612d2c608435612acc81612a03565b612d3b60a435612b1081612a03565b60c435612d478161084c565b7fffffffffffffffffffffffffffffffffffffffffffff00000000ffffffffffff69ffffffff00000000000083549260301b169116178155612d8a612b9a612a49565b612d95612be5612a55565b612d9d612a6e565b6bffffffffffffffffffffffff6bffffffffffffffffffffffff1983549260601b169116179055565b50634e487b7160e01b600052603260045260246000fd5b90606654821015612e1e575b6066600052601c8260031c7f46501879b8ca8525e8c2fd519e2fbfcfa2ebea26501294aa02cbfcfb12e94354019260021b1690565b612e26612dc6565b612de9565b6066549068010000000000000000821015612eac575b6001820180606655821015612e9f575b60666000528160031c7f46501879b8ca8525e8c2fd519e2fbfcfa2ebea26501294aa02cbfcfb12e94354019160e083549160051b169163ffffffff9283811b93849216901b16911916179055565b612ea7612dc6565b612e51565b612eb4610790565b612e41565b359061068d82612a03565b63ffffffff91821681526101008101929161068d9190606435612ee681612a03565b61ffff809116602084015280608435612efe81612a03565b16604084015260a435612f1081612a03565b16606083015260c435612f228161084c565b166080820152612f3c612f33610864565b151560a0830152565b612f50612f47610871565b151560c0830152565b60e0612f5a61067f565b6001600160a01b0316910152565b63ffffffff91821681526101008101929161068d9190602435612f8a81612a03565b61ffff809116602084015280604435612fa281612a03565b166040840152606435612fb481612a03565b166060830152608435612fc68161084c565b166080820152612fd7612f3361087f565b612fe2612f4761088c565b60e0612f5a61068f565b906001600160a01b03806101a254163303610514578151161561304b576201518063ffffffff613023602084015163ffffffff1690565b16116130325761068d91615942565b604051636a098dd160e11b815260116004820152602490fd5b604051636a098dd160e11b815260106004820152602490fd5b50634e487b7160e01b600052601160045260246000fd5b50634e487b7160e01b600052601260045260246000fd5b67ffffffffffffffff81160361000e57565b3561146f81613092565b6132b860e061068d9261ffff81356130c581612a03565b167fffffffffffffffffffffffffffffffffffffffffffffffffffffffffffff00006069541617606955613136602082013561310081612a03565b7fffffffffffffffffffffffffffffffffffffffffffffffffffffffff0000ffff63ffff00006069549260101b16911617606955565b61317f604082013561314781612a03565b7fffffffffffffffffffffffffffffffffffffffffffffffffffff0000ffffffff65ffff000000006069549260201b16911617606955565b606081013561318d81612a03565b7fffffffffffffffffffffffffffffffffffffffffffffffff0000ffffffffffff67ffff0000000000006069549260301b169116176069556132106131d460808301612a33565b7fffffffffffffffffffffffffffffffffffffffffffff0000ffffffffffffffff69ffff00000000000000006069549260401b16911617606955565b61325d61321f60a08301612a33565b7fffffffffffffffffffffffffffffffffffffffff0000ffffffffffffffffffff6bffff000000000000000000006069549260501b16911617606955565b6132b261326c60c083016130a4565b7fffffffffffffffffffffffff0000000000000000ffffffffffffffffffffffff73ffffffffffffffff0000000000000000000000006069549260601b16911617606955565b016130a4565b7fffffffff0000000000000000ffffffffffffffffffffffffffffffffffffffff7bffffffffffffffff00000000000000000000000000000000000000006069549260a01b16911617606955565b359061068d82613092565b90949392610140926133ed6133dc60e0610160860199803561333281612a03565b61ffff8091168852602082013561334881612a03565b16602088015261336861335d60408301612eb9565b61ffff166040890152565b61338261337760608301612eb9565b61ffff166060890152565b61339c61339160808301612eb9565b61ffff166080890152565b6133b66133ab60a08301612eb9565b61ffff1660a0890152565b6133d66133c560c08301613306565b67ffffffffffffffff1660c0890152565b01613306565b67ffffffffffffffff1660e0850152565b6101008301526101208201520152565b1561340457565b606460405162461bcd60e51b815260206004820152601060248201527f5061757361626c653a20706175736564000000000000000000000000000000006044820152fd5b81198111613454570190565b61345c613064565b0190565b6001906000198114613454570190565b60d65492918315613581575b6000908061355f57505080925b8381106134a7575082149182156134a25750600060d655565b60d655565b63ffffffff6134b582612ddd565b90549060031b1c1660005260646020526040906134e3611132600284600020016001600160a01b0390541690565b803b1561000e576000613540935180927f5124033600000000000000000000000000000000000000000000000000000000825281838161352b60048201906000602083019252565b03925af18015613552575b6135455750613460565b613489565b80610c9f6111b5926107a7565b61355a613795565b613536565b6135699085613448565b90508181101561357a575b92613489565b5080613574565b6000935061347c565b60d7549291831561366c575b6000908061364a57505080925b8381106135c1575082149182156135bc5750600060d755565b60d755565b63ffffffff6135cf82612ddd565b90549060031b1c1660005260646020526040906001600160a01b03600283600020015416803b1561000e576000809160246136459551809481937f51240336000000000000000000000000000000000000000000000000000000008352600160048401525af18015613552576135455750613460565b6135a3565b6136549085613448565b905081811015613665575b926135a3565b508061365f565b60009350613596565b1561367c57565b606460405162461bcd60e51b815260206004820152601460248201527f5061757361626c653a206e6f74207061757365640000000000000000000000006044820152fd5b6136d060ff6101705416156133fd565b60d2547ffffffffffffffffffffffffffffffffffffffffffffffffffffffffffffffffe8111613788575b6001810160d255600081815260d36020526040902080546bffffffffffffffffffffffff163360601b6bffffffffffffffffffffffff19161781556bffffffffffffffffffffffff82166bffffffffffffffffffffffff198254161790556040518181527f7325fb14450d3e5eb288c620b4ff1d6b43a41b33b4a4f143ae88cd4c12f99ea360203392a290565b613790613064565b6136fb565b506040513d6000823e3d90fd5b359081600f0b820361000e57565b3590600382101561000e57565b809291610100918291031261000e5760405190810181811067ffffffffffffffff82111761386d575b60405260e06138688183956137fa816114a5565b8552613808602082016114a5565b6020860152613819604082016137a2565b604086015261382a6060820161069c565b606086015261383b60808201612eb9565b608086015261384c60a08201610899565b60a086015261385d60c082016137b0565b60c086015201610899565b910152565b613875610790565b6137e6565b9061388482612300565b613891604051918261081c565b828152601f196138a18294612300565b019060005b8281106138b257505050565b8060606020809385010152016138a6565b9190811015613904575b60051b810135907fffffffffffffffffffffffffffffffffffffffffffffffffffffffffffffffc18136030182121561000e570190565b61390c612dc6565b6138cd565b50634e487b7160e01b600052602160045260246000fd5b6007111561393257565b61068d613911565b35600781101561000e5790565b91906020830192600782101561395a5752565b613962613911565b52565b9035907fffffffffffffffffffffffffffffffffffffffffffffffffffffffffffffffe18136030182121561000e570180359067ffffffffffffffff821161000e5760200191813603831361000e57565b919082604091031261000e57602082356139cf8161084c565b92013561146f8161084c565b6020908051156139e9570190565b61345c612dc6565b6040908051600110156139e9570190565b6020918151811015613a17575b60051b010190565b613a1f612dc6565b613a0f565b9081606091031261000e578035613a3a8161084c565b9160406020830135613a4b8161149a565b92013561146f8161149a565b91906101208382031261000e5761146f9060208435613a758161084c565b94016137bd565b809291039160c0831261000e5760a0601f198235613a998161084c565b94011261000e5760a060405191613aaf836107c8565b602081013583526040810135613ac48161066e565b60208401526060810135613ad78161085a565b60408401526080810135613aea8161085a565b60608401520135613afa8161085a565b608082015290565b9081602091031261000e573590565b919082604091031261000e5760208235613b2a8161084c565b92013590565b60005b60088060ff83161015613b9257811015613b97575b63ffffffff60018260031c8401015460e08360051b161c16908115613b9257613b72600192613c1c565b60ff809116908114613b85575b01613b33565b613b8d613064565b613b7f565b505050565b613b9f612dc6565b613b48565b60008212827f8000000000000000000000000000000000000000000000000000000000000000018212811516613c0f575b827f7fffffffffffffffffffffffffffffffffffffffffffffffffffffffffffffff01821316613c03570390565b613c0b613064565b0390565b613c17613064565b613bd5565b613c24613f01565b613c3e8263ffffffff16600052606d602052604060002090565b805463ffffffff838116911614613b9257613c5883614403565b613c69613c6485614022565b613fad565b937c010000000000000000000000000000000000000000000000000000000080831090811591613e35575b50613e2e5761068d94613d49613d4e613dcf94613cd56003613cc9613d9a9763ffffffff166000526064602052604060002090565b015460201c61ffff1690565b613cf561ffff613ced613ce88886613ba4565b614543565b921683613e40565b1015613dff57613d49600188017c01000000000000000000000000000000000000000000000000000000007fffffff00ffffffffffffffffffffffffffffffffffffffffffffffffffffffff825416179055565b614492565b60018601907bffffffffffffffffffffffffffffffffffffffffffffffffffffffff167fffffffff00000000000000000000000000000000000000000000000000000000825416179055565b825463ffffffff1660209190911b7fffffffffffffffffffffffffffffffffffffffffffffffffffffffff0000000016178255565b9063ffffffff167fffffffffffffffffffffffffffffffffffffffffffffffffffffffff00000000825416179055565b613d49600188017fffffff00ffffffffffffffffffffffffffffffffffffffffffffffffffffffff8154169055565b5050505050565b905085101538613c94565b9060001981830981830291828083109203918083039214613e9d57612710908282111561000e577fbc01a36e2eb1c432ca57a786c226809d495182a9930be0ded288ce703afb7e91940990828211900360fc1b910360041c170290565b505061271091500490565b6000198282099082810292838084109303928084039314613ee95768010000000000000000918383111561000e570990828211900360c01b910360401c1790565b50505060401c90565b9081602091031261000e575190565b61a4b146148015613fa1575b8015613f95575b15613f8b5763ffffffff6040517fa3b1b31d00000000000000000000000000000000000000000000000000000000815260208160048160645afa908115613f7e575b600091613f6257501690565b613f7a915060203d81116111e1576111d3818361081c565b1690565b613f86613795565b613f56565b63ffffffff431690565b5062066eec4614613f14565b5062066eeb4614613f0d565b6001600160a01b03166401000276a381108015614004575b613fd3578061146f91613ea8565b602490604051907f5d236c450000000000000000000000000000000000000000000000000000000082526004820152fd5b5073fffd8963efd1fc6a506488495d951d5263988d26811015613fc5565b61403c9063ffffffff166000526064602052604060002090565b60036140666001600160a01b0392836001820154169063ffffffff938491015460301c169061484c565b60020b9060008212156143fd5781600003915b620d89e883116143d35760018316156143aa5770ffffffffffffffffffffffffffffffffff6ffffcb933bd6fad37aa2d162d1a5940015b16926002811661438e575b60048116614372575b60088116614356575b6010811661433a575b6020811661431e575b60408116614302575b6080908181166142e7575b61010081166142cc575b61020081166142b1575b6104008116614296575b610800811661427b575b6110008116614260575b6120008116614245575b614000811661422a575b618000811661420f575b6201000081166141f4575b6202000081166141da575b6204000081166141c0575b62080000166141a5575b50600012614195575b811661418c5760ff60005b169060201c011690565b60ff6001614182565b9061419f90614558565b90614177565b6b048a170391f7dc42444e8fa26000929402901c929061416e565b6d2216e584f5fa1ea926041bedfe98909402811c93614164565b936e5d6af8dedb81196699c329225ee60402811c93614159565b936f09aa508b5b7a84e1c677de54f3e99bc902811c9361414e565b936f31be135f97d08fd981231505542fcfa602811c93614143565b936f70d869a156d2a1b890bb3df62baf32f702811c93614139565b936fa9f746462d870fdf8a65dc1f90e061e502811c9361412f565b936fd097f3bdfd2022b8845ad8f792aa582502811c93614125565b936fe7159475a2c29b7443b29c7fa6e889d902811c9361411b565b936ff3392b0822b70005940c7a398e4b70f302811c93614111565b936ff987a7253ac413176f2b074cf7815e5402811c93614107565b936ffcbe86c7900a88aedcffc83b479aa3a402811c936140fd565b936ffe5dee046a99a2a811c461f1969c305302811c936140f3565b926fff2ea16466c96a3843ec78b326b528610260801c926140e8565b926fff973b41fa98c081472e6896dfb254c00260801c926140df565b926fffcb9843d60f6159c9db58835c9266440260801c926140d6565b926fffe5caca7e10e4e61c3624eaa0941cd00260801c926140cd565b926ffff2e50f5f656932ef12357cf3c7fdcc0260801c926140c4565b926ffff97272373d413259a46990580e213a0260801c926140bb565b70ffffffffffffffffffffffffffffffffff7001000000000000000000000000000000006140b0565b60046040517f2bc80f3a000000000000000000000000000000000000000000000000000000008152fd5b81614079565b63ffffffff80911660005260646020526020600360406000200154916024604051809481937fdd86c1010000000000000000000000000000000000000000000000000000000083528160301c16600483015260601c5afa908115614485575b60009161446d575090565b61146f915060203d81116111e1576111d3818361081c565b61448d613795565b614462565b7c010000000000000000000000000000000000000000000000000000000081116144d7577bffffffffffffffffffffffffffffffffffffffffffffffffffffffff1690565b602490604051907f1ba344530000000000000000000000000000000000000000000000000000000082526004820152fd5b7f80000000000000000000000000000000000000000000000000000000000000008114614536575b60000390565b61453e613064565b614530565b600081131561454f5790565b61146f90614508565b8015614566575b6000190490565b61456e61307b565b61455f565b6040519061458082610800565b600282526040366020840137565b81601f8201121561000e578051916145a583612300565b926145b3604051948561081c565b808452602092838086019260051b82010192831161000e578301905b8282106145dd575050505090565b83809183516145eb8161066e565b8152019101906145cf565b91909160408184031261000e5780519267ffffffffffffffff9384811161000e5782019381601f8601121561000e5784519461463186612300565b9061463f604051928361081c565b868252602096878084019160051b8301019185831161000e578801905b82821061467b575050509483015190811161000e5761146f920161458e565b81518060060b810361000e57815290880190880161465c565b6020908160408183019282815285518094520193019160005b8281106146bb575050505090565b835163ffffffff16855293810193928101926001016146ad565b60060b9060060b9060008212827fffffffffffffffffffffffffffffffffffffffffffffffffff80000000000000018212811516614723575b82667fffffffffffff01821316613c03570390565b61472b613064565b61470e565b60060b9060060b90811561477c575b60001982147fffffffffffffffffffffffffffffffffffffffffffffffffff80000000000000821416614770570590565b614778613064565b0590565b61478461307b565b61473f565b9060060b90811561479c575b60060b0790565b6147a461307b565b614795565b6000199060020b7fffffffffffffffffffffffffffffffffffffffffffffffffffffffffff8000008114613454570190565b908160e091031261000e5780516147f18161066e565b9160208201516148008161149a565b91604081015161480f81612a03565b91606082015161481e81612a03565b91608081015161482d81612a03565b9160a082015160ff8116810361000e5760c09092015161146f8161085a565b9063ffffffff81168015614a04576148cb6001600160a01b0393614886614871614573565b9461487b866139db565b9063ffffffff169052565b600094859182614895876139f1565b521693604051809381927f883bdbfd00000000000000000000000000000000000000000000000000000000835260048301614694565b0381865afa8491816149df575b5061496057505060e0600491604051928380927f3850c7bd0000000000000000000000000000000000000000000000000000000082525afa918215614953575b91614921575090565b614942915060e03d811161494c575b61493a818361081c565b8101906147db565b5050505050905090565b503d614930565b61495b613795565b614918565b61498b91925061498561497861497f614978846139f1565b5160060b90565b926139db565b906146d5565b9060060b6149a261499c8284614730565b60020b90565b928260060b1291826149c1575b50506149b85790565b61146f906147a9565b6149d69250906149d091614789565b60060b90565b151538806149af565b6149fc9192503d8087833e6149f4818361081c565b8101906145f6565b5090386148d8565b505061146f9060e06001600160a01b03916004604051809481937f3850c7bd000000000000000000000000000000000000000000000000000000008352165afa908115614a57575b600091614921575090565b614a5f613795565b614a4c565b919091614a7760ff6101705416156133fd565b6000821290614a868285615b55565b93733FaB135e76c5c0E85A60bf50f100c8cd912f7E5691823b1561000e576040517ff5a284a1000000000000000000000000000000000000000000000000000000008152600481019190915263ffffffff919091166024820152604481018490526064808201526000608482018190529091829060a49082905af48015614b5e575b614b4b575b506000821315614b2c575061161261068d92546001600160a01b031690565b614b34575050565b61164961164361068d93546001600160a01b031690565b80610c9f614b58926107a7565b38614b0d565b614b66613795565b614b08565b61068d926001600160a01b03604051937fa9059cbb0000000000000000000000000000000000000000000000000000000060208601521660248401526044830152604482526080820182811067ffffffffffffffff821117614bd0575b604052614cfc565b614bd8610790565b614bc8565b909261068d93604051937f23b872dd0000000000000000000000000000000000000000000000000000000060208601526001600160a01b03809216602486015216604484015260648301526064825260a0820182811067ffffffffffffffff821117614bd057604052614cfc565b601f19601f60209267ffffffffffffffff8111614c69575b01160190565b614c71610790565b614c63565b9081602091031261000e575161146f8161085a565b15614c9257565b608460405162461bcd60e51b815260206004820152602a60248201527f5361666545524332303a204552433230206f7065726174696f6e20646964206e60448201527f6f742073756363656564000000000000000000000000000000000000000000006064820152fd5b6001600160a01b03169060405190614d13826107e4565b6020928383527f5361666545524332303a206c6f772d6c6576656c2063616c6c206661696c656484840152803b15614d8a5760008281928287614d659796519301915af1614d5f614dce565b90614e0f565b80519081614d7257505050565b8261068d93614d85938301019101614c76565b614c8b565b6064846040519062461bcd60e51b82526004820152601d60248201527f416464726573733a2063616c6c20746f206e6f6e2d636f6e74726163740000006044820152fd5b3d15614df9573d90614ddf82614c4b565b91614ded604051938461081c565b82523d6000602084013e565b606090565b90602061146f928181520190610add565b90919015614e1b575090565b815115614e2b5750805190602001fd5b6110929060405191829162461bcd60e51b8352602060048401526024830190610add565b614e5f60ff6101705416156133fd565b8115611d0457733FaB135e76c5c0E85A60bf50f100c8cd912f7E56803b1561000e576040517fd25c4a6f000000000000000000000000000000000000000000000000000000008152600481019290925260248201839052606460448301819052600090830181905290829060849082905af48015614f29575b614f16575b506000811315614efd5761068d906116126067546001600160a01b031690565b61068d906116496116436067546001600160a01b031690565b80610c9f614f23926107a7565b38614edd565b614f31613795565b614ed8565b90606091939293614f4d60ff6101705416156133fd565b614f5682615c00565b828501516001600160a01b03168061500f575b50614fa160405195869384937fc27789d1000000000000000000000000000000000000000000000000000000008552600485016150f7565b0381733FaB135e76c5c0E85A60bf50f100c8cd912f7E565af48015615002575b60009081938291614fdc575b50606c54811061221b57509190565b915050614ff891925060603d811161227b5761226a818361081c565b9291909238614fcd565b61500a613795565b614fc1565b615022906122a2608088015161ffff1690565b38614f69565b9081606091031261000e578051916040602083015192015190565b90600382101561395a5752565b6150e860e061016093969563ffffffff61068d966101808601998652166020850152805160020b6040850152602081015160020b60608501526040810151600f0b60808501526150b0606082015160a08601906001600160a01b03169052565b608081015161ffff1660c085015260a08101511515848301526150dc60c0820151610100860190615043565b01511515610120830152565b60646101408201520160019052565b61515660e061016093969563ffffffff6000966101808601998652166020850152805160020b6040850152602081015160020b60608501526040810151600f0b60808501526150b0606082015160a08601906001600160a01b03169052565b60646101408201520152565b908293929161517760ff6101705416156133fd565b61518082615c00565b6040918291615219835195869384937f140cf61e00000000000000000000000000000000000000000000000000000000855260048501608061010092959463ffffffff6000956101208501988552166020840152805160408401526001600160a01b03602082015116606084015260408101511515828401526060810151151560a08401520151151560c0820152606460e08201520152565b0381733FaB135e76c5c0E85A60bf50f100c8cd912f7E565af493841561532f575b600092839561530a575b5061524e85614543565b606c5481106118d757506001600160a01b0361527460208301516001600160a01b031690565b161515806152f4575b615288575b50509190565b818101906152968251151590565b91826152d8575b82156152b1575b5050156118435780615282565b51159150816152c3575b5038806152a4565b90506152d161189784614543565b14386152bb565b91506152e386614543565b6152ed8251614543565b149161529d565b506153056118766060830151151590565b61527d565b909450816153259293503d841161193757611925818361081c565b9190919338615244565b615337613795565b61523a565b919082604091031261000e576020825192015190565b608061010092959463ffffffff61068d956101208501988552166020840152805160408401526001600160a01b03602082015116606084015260408101511515828401526060810151151560a08401520151151560c0820152606460e08201520160019052565b6153c960ff6101705416156133fd565b61542360606153e28360005260d3602052604060002090565b604051809381927fdf19bf09000000000000000000000000000000000000000000000000000000008352600483016020606491939293604081019481520152565b0381733FaB135e76c5c0E85A60bf50f100c8cd912f7E565af4918215615525575b600092839284916154ff575b5061545b8385615532565b9260008513156154cd57907f688f0846fe2852572c467d5e769db101b0fea55e8849406d85c9fb322b95299b916154a58661549e6067546001600160a01b031690565b3390614b6b565b6154ae816157bf565b604080519586526020860187905285015260608401523392608090a390565b6040517fef37dcc700000000000000000000000000000000000000000000000000000000815260048101869052602490fd5b9193505061551b915060603d811161227b5761226a818361081c565b9192909138615450565b61552d613795565b615444565b60008112817f7fffffffffffffffffffffffffffffffffffffffffffffffffffffffffffffff038313811516615591575b817f800000000000000000000000000000000000000000000000000000000000000003831216613454570190565b615599613064565b615563565b61561d916155c86040926155b860ff6101705416156133fd565b60005260d3602052604060002090565b6155d182615c00565b825193849283927fec1464960000000000000000000000000000000000000000000000000000000084526004840160409063ffffffff6064939594606083019683521660208201520152565b0381733FaB135e76c5c0E85A60bf50f100c8cd912f7E565af480156156c2575b60009182916156a2575b5060008213156156705761146f9061566b8361549e6067546001600160a01b031690565b6157bf565b6040517fef37dcc700000000000000000000000000000000000000000000000000000000815260048101839052602490fd5b90506156bc915060403d811161193757611925818361081c565b38615647565b6156ca613795565b61563d565b929091926156e360ff6101705416156133fd565b60005260d36020526040600020916156fa81615c00565b606b5493733FaB135e76c5c0E85A60bf50f100c8cd912f7E5693843b1561000e5763ffffffff9460009460c49360405197889687957fe0448f0a000000000000000000000000000000000000000000000000000000008752600487015216602485015260020b604484015260020b6064830152866084830152606460a48301525af480156157b2575b61579f575b5061146f8161549e6067546001600160a01b031690565b80610c9f6157ac926107a7565b38615788565b6157ba613795565b615783565b60008113156157e45761068d906001600160a01b0380606754169060d5541690614b6b565b6157f96001600160a01b0360d5541691614508565b813b1561000e576000916024839260405194859384927f379607f500000000000000000000000000000000000000000000000000000000845260048401525af18015615850575b6158475750565b61068d906107a7565b615858613795565b615840565b6158ce602060016001600160a01b039361589d8587511682906001600160a01b031673ffffffffffffffffffffffffffffffffffffffff19825416179055565b019301519182511683906001600160a01b031673ffffffffffffffffffffffffffffffffffffffff19825416179055565b6020810151907fffffffffffffff0000000000ffffffffffffffffffffffffffffffffffffffff77ffffffff000000000000000000000000000000000000000078ff00000000000000000000000000000000000000000000000060408654940151151560c01b169360a01b16911617179055565b919063ffffffff83166001600160a01b03841615615ad85761598a6118766119fb61597d8463ffffffff166000526065602052604060002090565b546001600160a01b031690565b80615a9d575b615a3d57926159f47f52983c04d8ccd4808cd0fcb24e6e48106ecb41e803d6270c6c94a15e3ebd08d293946159ef6159c661083f565b6001600160a01b03851681529185602084015263ffffffff166000526065602052604060002090565b61585d565b615a3860405192839283909291604060609160808401956001600160a01b038091168552815116602085015263ffffffff6020820151168285015201511515910152565b0390a1565b615a5b61597d859263ffffffff166000526065602052604060002090565b6040517fa5d4d0b50000000000000000000000000000000000000000000000000000000081526001600160a01b03928316600482015291166024820152604490fd5b50615ad361187685615ac261597d8563ffffffff166000526065602052604060002090565b6001600160a01b0390811691161490565b615990565b6040517f76d8a93100000000000000000000000000000000000000000000000000000000815260006004820152602490fd5b60005260d3602052604060002090815460601c3303615b2557565b60246040517f0504a20d000000000000000000000000000000000000000000000000000000008152336004820152fd5b63ffffffff90929192168060005260656020526040600020926001600160a01b0384541615615bcf571580615bbd575b615b8c5750565b602490604051907f9150f8c80000000000000000000000000000000000000000000000000000000082526004820152fd5b5060ff600184015460c01c1615615b85565b602482604051907f6b9c1a9d0000000000000000000000000000000000000000000000000000000082526004820152fd5b63ffffffff1680600052606460205260406000206001600160a01b0381541615615c67576003015460501c60ff1615615c365750565b602490604051907fb0fdd2020000000000000000000000000000000000000000000000000000000082526004820152fd5b602482604051907fb842f5a70000000000000000000000000000000000000000000000000000000082526004820152fd5b6001600160a01b039182169116818110613c03570390565b6001600160a01b039182809216918291169204821181151516615cd1570290565b615cd9613064565b0290565b63ffffffff166000526064602052615d7b611132615d6a6001600160a01b039361ffff600460e08760016040600020015416604051928380927f3850c7bd0000000000000000000000000000000000000000000000000000000082525afa908115615de2575b600091615dbe575b50828781168289161115615dae57615d6291615c98565b965b16615cb0565b6001600160a01b0361271091160490565b911611615d8457565b60046040517f07a1db07000000000000000000000000000000000000000000000000000000008152fd5b90615db891615c98565b96615d64565b615dd6915060e03d811161494c5761493a818361081c565b50505050505038615d4b565b615dea613795565b615d43565b615df7613f01565b9063ffffffff91828216600052606d60205260406000209280845416911614600014615e435750600101547bffffffffffffffffffffffffffffffffffffffffffffffffffffffff1690565b61146f9150614403565b615e55613f01565b9063ffffffff808216600052606d60205280604060002054931690831614600014615e81575060201c90565b61146f9150613c6490614022565b805160051b810160209081018183015b818110615eac5750505090565b80515481528201615e9f565b9091615ed192811015615ed5575b60051b810190613965565b9091565b615edd612dc6565b615ec6565b908092918237016000815290565b60208183031261000e5780519067ffffffffffffffff821161000e570181601f8201121561000e578051615f2381614c4b565b92615f31604051948561081c565b8184526020828401011161000e5761146f9160208085019101610aa856fea2646970667358221220a17ee6737ebff31f3432faa264c9c3e22031a16d93c7a52c8d9f83bde14583db64736f6c634300080e0033",
  "deployedBytecode": "0x60806040526004361015610013575b600080fd5b60003560e01c806304a6f2641461031f5780630df181ea14610316578063134015511461030d578063136439dd146103045780631e2eaeaf146102fb5780632a90b8da146102f25780633562490c146102e957806335876476146102e05780633d0aea3d146102d75780633d56a35e146102ce5780633ffe794c146102c557806340c4f69b146102bc578063424cd833146102b357806343afafba146102aa578063569634d3146102a15780635aa6e675146102985780635c975abb1461028f5780636a486482146102865780636ae732301461027d578063706bdd25146102745780637cc2f4f51461026b5780637d2efe071461026257806383d778eb146102595780638ce25a93146102505780638f24ab11146102475780638f8022bc1461023e5780639cd1be58146102355780639dca362f1461022c578063a05c8baf14610223578063ac9650d81461021a578063b790230314610211578063c7505c1514610208578063ce4c18de146101ff578063dbc0c085146101f6578063dbd035ff146101ed578063e3d41c18146101e4578063e450f6f4146101db578063e67ed1df146101d25763fabc1cbc146101ca57600080fd5b61000e6126d4565b5061000e6125fb565b5061000e61248d565b5061000e6123f9565b5061000e612362565b5061000e6122d7565b5061000e6122af565b5061000e612115565b5061000e6120ed565b5061000e61200c565b5061000e611d8c565b5061000e611d2e565b5061000e611bf7565b5061000e611b71565b5061000e61196a565b5061000e61194b565b5061000e6116ff565b5061000e611509565b5061000e6114b0565b5061000e611472565b5061000e6113be565b5061000e6112e5565b5061000e6112c0565b5061000e611297565b5061000e611269565b5061000e611221565b5061000e611096565b5061000e610b82565b5061000e610978565b5061000e610950565b5061000e6108a4565b5061000e6106a7565b5061000e6105ee565b5061000e61056e565b5061000e61054e565b5061000e61044a565b5061000e610421565b5061000e61035c565b5061000e610333565b600091031261000e57565b503461000e57600060031936011261000e5760206001600160a01b036101a55416604051908152f35b503461000e576000602060031936011261041e5761038060ff6101705416156133fd565b61038b600435615b0a565b61039481613b30565b8173__$86182d6e9eac51236f2aa8dd2a3ddeab6c$__91823b1561041a576044604051809481937feaf393260000000000000000000000000000000000000000000000000000000083526004830152606460248301525af4801561040d575b6103fe575b50604051f35b610407906107a7565b386103f8565b610415613795565b6103f3565b5080fd5b80fd5b503461000e57600060031936011261000e5760206001600160a01b036101a45416604051908152f35b503461000e57602060031936011261000e576001600160a01b03806101a35416331415908161053e575b506105145761017061048a60ff825416156133fd565b60d7546104ea5761049f600435606654613470565b6104a6575b005b600160ff1982546104ba60ff8216156133fd565b161790557f62e78cea01bee320cd4e420270b5ea74000d11b0c9f74754ebdbfc544b05a2586020604051338152a1005b60046040517fd2067f43000000000000000000000000000000000000000000000000000000008152fd5b60046040517fd7a2ae6a000000000000000000000000000000000000000000000000000000008152fd5b6101a25416331415905038610474565b503461000e57602060031936011261000e57602060043554604051908152f35b503461000e57600060031936011261000e576101a48054906001600160a01b0390818316803303610514576000936101a2805492806040519685167f5f56bee8cffbe9a78652a74a60705edede02af10b0bbb888ca44b79a0d42ce808989a373ffffffffffffffffffffffffffffffffffffffff19809416179055169055f35b503461000e57600060031936011261000e576101a58054906001600160a01b0390818316803303610514576000936101a3805492806040519685167f39355f2f5c8206286978f443aa8126bbd29fa09c53c04569502647f3a59c8cb28989a373ffffffffffffffffffffffffffffffffffffffff19809416179055169055f35b6001600160a01b0381160361000e57565b610124359061068d8261066e565b565b60e4359061068d8261066e565b359061068d8261066e565b503461000e5760e060031936011261000e576004356106c58161066e565b61073f6024356106d48161066e565b6044356106e08161066e565b6064356106ec8161066e565b608435906106f98261066e565b60a435926107068461066e565b60c435946107138661066e565b61013d5460ff8160081c1690816000146107835750610733303b156127a8565b15978861075657612819565b61074557005b6104a461013d61ff00198154169055565b61076b61013d61010061ff0019825416179055565b61077e61013d600160ff19825416179055565b612819565b60ff6107339116156127a8565b50634e487b7160e01b600052604160045260246000fd5b67ffffffffffffffff81116107bb57604052565b6107c3610790565b604052565b60a0810190811067ffffffffffffffff8211176107bb57604052565b6040810190811067ffffffffffffffff8211176107bb57604052565b6060810190811067ffffffffffffffff8211176107bb57604052565b90601f601f19910116810190811067ffffffffffffffff8211176107bb57604052565b6040519061068d826107e4565b63ffffffff81160361000e57565b8015150361000e57565b60e4359061068d8261085a565b610104359061068d8261085a565b60a4359061068d8261085a565b60c4359061068d8261085a565b359061068d8261085a565b503461000e57608060031936011261000e576004356108c28161066e565b60607fffffffffffffffffffffffffffffffffffffffffffffffffffffffffffffffdc36011261000e576040516104a4916060820167ffffffffffffffff811183821017610943575b60405260243561091a8161066e565b82526044356109288161084c565b60208301526064356109398161085a565b6040830152612fec565b61094b610790565b61090b565b503461000e57600060031936011261000e5760206001600160a01b0360d45416604051908152f35b503461000e5761014060031936011261000e576001600160a01b038060d454163303610a4d576109d163ffffffff6004356109b28161066e565b1691826000526064602052604060002054166001600160a01b03161590565b15610a3757610a3281610a1d610a187f4182acc9c169391ef7e765eb446fc15c9d49bc73060c678bf4c424a5c0dbdbcb9463ffffffff166000526064602052604060002090565b612c59565b610a2681612e2b565b60405191829182612ec4565b0390a1005b634e487b7160e01b600052600160045260246000fd5b60046040517f85734f31000000000000000000000000000000000000000000000000000000008152fd5b9181601f8401121561000e5782359167ffffffffffffffff831161000e576020808501948460051b01011161000e57565b918091926000905b828210610ac8575011610ac1575050565b6000910152565b91508060209183015181860152018291610ab0565b90601f19601f602093610afb81518092818752878088019101610aa8565b0116010190565b602080820190808352835180925260408301928160408460051b8301019501936000915b848310610b365750505050505090565b9091929394958480610b72837fffffffffffffffffffffffffffffffffffffffffffffffffffffffffffffffc086600196030187528a51610add565b9801930193019194939290610b26565b503461000e5760408060031936011261000e57600480359160243567ffffffffffffffff811161000e57610bb99036908401610a77565b610bc58194929461387a565b93610bda8660005260d3602052604060002090565b95610be487613b30565b60008781938295835b818110610d5f5750505050610d4f575b50610cb8575b610c19575b815180610c158582610b02565b0390f35b73__$86182d6e9eac51236f2aa8dd2a3ddeab6c$__90813b1561000e5782517f998c53350000000000000000000000000000000000000000000000000000000081529081019485526001602086015260646040860152610c159490916000918391908290819060600103915af48015610cab575b15610c085780610c9f610ca5926107a7565b80610328565b38610c08565b610cb3613795565b610c8d565b73__$86182d6e9eac51236f2aa8dd2a3ddeab6c$__803b1561000e576000845180927f651524ed0000000000000000000000000000000000000000000000000000000082528180610d198b8983016020606491939293604081019481520152565b03915af48015610d42575b610d2f575b50610c03565b80610c9f610d3c926107a7565b38610d29565b610d4a613795565b610d24565b610d5890615b0a565b5038610bfd565b9091929693610d77610d728385876138c3565b61393a565b610d8081613928565b610dd8575080610dc0610daf610da7610d9d610dc59587896138c3565b6020810190613965565b810190613b11565b906001978015610dce575b9a614a64565b613460565b908a9291610bed565b5060008212610dba565b939650610de9610d728284866138c3565b93610df385613928565b6001948503610e425750610e16610e0e610d9d8385876138c3565b810190613b02565b93610e21858d614e4f565b6000819512610e35575b50610dc590613460565b9650869550610dc5610e2b565b6002610e55610d728486889c969c6138c3565b610e5e81613928565b03610edf575050610eb1610ebf610e768884866138c3565b610e9a8d610e94610e8c60209485810190613965565b810190613a7c565b91615162565b8c5192830191825260208201529092839160400190565b03601f19810183528261081c565b610ec9878b613a02565b52610ed4868a613a02565b50610dc58396613460565b6003610eef610d728a86886138c3565b610ef881613928565b03610f34575050610eb1610ebf610f108884866138c3565b610e9a8d610f2e610f2660209485810190613965565b810190613a57565b91614f36565b93509587610f46610d728385876138c3565b610f4f81613928565b03610f815780610f7b610f74610f6c610d9d610dc59587896138c3565b810190613a24565b91896156cf565b50613460565b6005610f91610d728385876138c3565b610f9a81613928565b03610fd05780610f7b610fcb610fc2610fba610d9d610dc596888a6138c3565b81019061145a565b63ffffffff1690565b6153b9565b6006610fe0610d728385876138c3565b610fe981613928565b036110505780610ffd610dc59284866138c3565b61103b61102963ffffffff61102261101a60209586810190613965565b8101906139b6565b911661559e565b8c519283019081528290602001610eb1565b611045828d613a02565b52610f7b818c613a02565b611063610d72611092928a948c966138c3565b92519283927f62c9ca420000000000000000000000000000000000000000000000000000000084528301613947565b0390fd5b503461000e5760208060031936011261000e5760665460d85460049283358215611218575b600090806111f55750508293915b8481106110e65750505081036110e15750600060d855005b60d855005b8060008361113e611132600261112463ffffffff61110661118799612ddd565b90549060031b1c1663ffffffff166000526064602052604060002090565b01546001600160a01b031690565b6001600160a01b031690565b86604051809481937f5e622abc0000000000000000000000000000000000000000000000000000000083525af19081156111e8575b6000916111bb575b508061118c5750613460565b6110c9565b6111b5906111a26067546001600160a01b031690565b6001600160a01b036101a3541690614b6b565b38610f7b565b6111db9150843d86116111e1575b6111d3818361081c565b810190613ef2565b3861117b565b503d6111c9565b6111f0613795565b611173565b6111ff9084613448565b905083811015611211575b93916110c9565b508261120a565b600092506110bb565b503461000e57604060031936011261000e5760206112616024356004356112478261084c565b8060005260d3845261125c6040600020613b30565b61559e565b604051908152f35b503461000e57602060031936011261000e576104a46004358060005260d3602052610fcb6040600020613b30565b503461000e57600060031936011261000e5760206001600160a01b036101a25416604051908152f35b503461000e57600060031936011261000e57602060ff61017054166040519015158152f35b503461000e57604060031936011261000e57610c156024356113068161084c565b60043560005260d360205263ffffffff604060002091604051927f7188a1ed00000000000000000000000000000000000000000000000000000000845260048401521660248201526064604482015260208160648173__$86182d6e9eac51236f2aa8dd2a3ddeab6c$__5af49081156113b1575b600091611393575b506040519081529081906020820190565b6113ab915060203d81116111e1576111d3818361081c565b38611382565b6113b9613795565b61137a565b503461000e57602060031936011261000e576004356113dc8161066e565b6001600160a01b03806101a354163314158061144b575b610514576000916101a59073ffffffffffffffffffffffffffffffffffffffff19838354921691826040519582167f9b068aae3039a2512c2f13bffb5fd9d95b1895b276b5c7ddf1d4fa24ec3686588888a316179055f35b5033816101a2541614156113f3565b9081602091031261000e573561146f8161084c565b90565b503461000e57602060031936011261000e5760206112616004356114958161084c565b615def565b8060020b0361000e57565b359061068d8261149a565b503461000e57608060031936011261000e576104a46004356024356114d48161084c565b604435906114e18261149a565b606435926114ee8461149a565b8060005260d36020526115046040600020613b30565b6156cf565b503461000e57606060031936011261000e576024356115278161084c565b6044356101709061153c60ff835416156133fd565b611547600435615b0a565b9161155183613b30565b60009361156560ff868512935416156133fd565b846115708383615b55565b9473__$86182d6e9eac51236f2aa8dd2a3ddeab6c$__803b15611678576040517ff5a284a1000000000000000000000000000000000000000000000000000000008152600481019290925263ffffffff93909316602482015260448101859052606480820152831515608482015291829060a49082905af4801561166b575b611658575b5083821315611620575061161261161b92546001600160a01b031690565b30903390614bdd565b604051f35b61162c575b5050604051f35b61164961164361165193546001600160a01b031690565b91614508565b903390614b6b565b3880611625565b80610c9f611665926107a7565b386115f4565b611673613795565b6115ef565b8280fd5b7fffffffffffffffffffffffffffffffffffffffffffffffffffffffffffffffbc60a091011261000e57604051906116b3826107c8565b8160443581526064356116c58161066e565b60208201526084356116d68161085a565b604082015260a4356116e78161085a565b6060820152608060c435916116fb8361085a565b0152565b503461000e5760e060031936011261000e5760243561171d8161084c565b6117263661167c565b809161017061173960ff825416156133fd565b61175b60ff611749600435615b0a565b9261175384613b30565b5416156133fd565b61176482615c00565b604091829161179f835195869384937f140cf61e00000000000000000000000000000000000000000000000000000000855260048501615352565b038173__$86182d6e9eac51236f2aa8dd2a3ddeab6c$__5af492831561193e575b6000928394611909575b506117d484614543565b606c5481106118d757506001600160a01b036117fa60208301516001600160a01b031690565b161515806118c1575b61181a575b50519081526020810191909152604090f35b818101906118288251151590565b91826118a5575b821561186c575b5050156118435738611808565b600490517f07a1db07000000000000000000000000000000000000000000000000000000008152fd5b519091501561187a565b1590565b9081611889575b503880611836565b905061189e61189784614543565b9151614543565b1438611881565b91506118b085614543565b6118ba8251614543565b149161182f565b506118d26118766060830151151590565b611803565b82517f256d6b9a0000000000000000000000000000000000000000000000000000000081526004810191909152602490fd5b9093508161192d9293503d8411611937575b611925818361081c565b81019061533c565b91909192386117ca565b503d61191b565b611946613795565b6117c0565b503461000e57600060031936011261000e57602060d254604051908152f35b503461000e5761010060031936011261000e57600480359061198b8261084c565b60e07fffffffffffffffffffffffffffffffffffffffffffffffffffffffffffffffdc36011261000e576001600160a01b036101a254163303611b49576119ed60036119e78463ffffffff166000526064602052604060002090565b01612a7b565b611a086119fb611132612a62565b6001600160a01b03161590565b611b2b5763ffffffff61012c81611a1d612a3d565b1610908115611b15575b50611af65761ffff6127108082611a3c612a0f565b1611611ad857611a54611a4d612a1b565b61ffff1690565b11611aba576107d090611a65612a27565b1611611a9b576040517f4182acc9c169391ef7e765eb446fc15c9d49bc73060c678bf4c424a5c0dbdbcb9080610a328582612f68565b604051636a098dd160e11b815260249181019182529081906020010390fd5b604051636a098dd160e11b8152602381840190815281906020010390fd5b604051636a098dd160e11b8152602281850190815281906020010390fd5b604051636a098dd160e11b815260219181019182529081906020010390fd5b620151809150611b23612a3d565b161138611a27565b604051636a098dd160e11b8152602091810182815290918291010390fd5b6040517fd7a2ae6a000000000000000000000000000000000000000000000000000000008152fd5b503461000e57602060031936011261000e57600435611b8f8161066e565b6001600160a01b03806101a254163303610514576000916101a49073ffffffffffffffffffffffffffffffffffffffff19838354921691826040519582167f8c405decc72a19ef328c92989ce6db4e4a498e1c246413fd60997a3051ba5cff8888a316179055f35b503461000e57604060031936011261000e57602435610170611c1d60ff825416156133fd565b611c2d60ff611749600435615b0a565b8115611d045773__$86182d6e9eac51236f2aa8dd2a3ddeab6c$__803b1561000e576040517fd25c4a6f000000000000000000000000000000000000000000000000000000008152600481019290925260248201839052606460448301819052600190830152600090829060849082905af48015611cf7575b611ce4575b506000811315611ccb576104a4906116126067546001600160a01b031690565b6104a4906116496116436067546001600160a01b031690565b80610c9f611cf1926107a7565b38611cab565b611cff613795565b611ca6565b60046040517f1f2a2005000000000000000000000000000000000000000000000000000000008152fd5b503461000e57600060031936011261000e5760206112616136c0565b60031961010091011261000e57600490565b7fffffffffffffffffffffffffffffffffffffffffffffffffffffffffffffffbc61010091011261000e57604490565b503461000e5761016060031936011261000e57611da836611d4a565b610104356101243591610144356001600160a01b036101a254163303610514576127109361ffff8581611dda86612a33565b1611611ff35785611df0611a4d60208701612a33565b11611fda5760409580611e07611a4d898801612a33565b11611fc25780611e1c611a4d60608801612a33565b11611faa57611e30611a4d60808701612a33565b11611f92576103e890611e4560a08601612a33565b1611611f7a57633b9aca008067ffffffffffffffff611e6660c087016130a4565b1611611f625780611e89611e7c60e087016130a4565b67ffffffffffffffff1690565b11611f4a57808511611f3257808211611f1a578211611f025791611efc60009594927f697aec6e94e319190380ab0f1f10018d81b64da2479eb874be92c9a733e0a83794611ed6846130ae565b611edf85606b55565b611ee881606c55565b611ef182606a55565b865194859485613311565b0390a151f35b8451636a098dd160e11b8152603a6004820152602490fd5b8551636a098dd160e11b815260396004820152602490fd5b8551636a098dd160e11b815260386004820152602490fd5b8551636a098dd160e11b815260376004820152602490fd5b8551636a098dd160e11b815260366004820152602490fd5b8451636a098dd160e11b815260356004820152602490fd5b8551636a098dd160e11b815260346004820152602490fd5b8651636a098dd160e11b815260336004820152602490fd5b8651636a098dd160e11b815260326004820152602490fd5b604051636a098dd160e11b815260316004820152602490fd5b604051636a098dd160e11b815260306004820152602490fd5b50602060031936011261000e576004803567ffffffffffffffff811161000e576120399036908301610a77565b906120438261387a565b9160005b81811061205c5760405180610c158682610b02565b60008061206a838587615eb8565b6040939161207c855180938193615ee2565b0390305af49061208a614dce565b918290156120b3575050906120ae916120a38287613a02565b52610f7b8186613a02565b612047565b826044899394511061000e5761109291836120d8920160248091518301019101615ef0565b925192839262461bcd60e51b84528301614dfe565b503461000e57600060031936011261000e5760206001600160a01b0360d55416604051908152f35b503461000e5761014060031936011261000e576024356121348161084c565b606061213f36611d5c565b916101709261215260ff855416156133fd565b61217f60ff612176612165600435615b0a565b9361216f85613b30565b36906137bd565b955416156133fd565b61218882615c00565b828401516001600160a01b03168061228f575b506121d360405194859384937fc27789d100000000000000000000000000000000000000000000000000000000855260048501615050565b038173__$86182d6e9eac51236f2aa8dd2a3ddeab6c$__5af48015612282575b6000908192829161224e575b50606c54811061221b5750604080519182526020820192909252f35b6040517f256d6b9a0000000000000000000000000000000000000000000000000000000081526004810191909152602490fd5b915050612272915060603d811161227b575b61226a818361081c565b810190615028565b919091386121ff565b503d612260565b61228a613795565b6121f3565b6122a9906122a2608087015161ffff1690565b9084615cdd565b3861219b565b503461000e57602060031936011261000e5760206112616004356122d28161084c565b615e4d565b503461000e57600060031936011261000e5760206001600160a01b036101a35416604051908152f35b60209067ffffffffffffffff811161231a575b60051b0190565b612322610790565b612313565b6020908160408183019282815285518094520193019160005b82811061234e575050505090565b835185529381019392810192600101612340565b503461000e5760208060031936011261000e5760043567ffffffffffffffff811161000e573660238201121561000e578060040135906123a182612300565b916123af604051938461081c565b80835260248484019160051b8301019136831161000e57602401905b8282106123ea57610c156123de85615e8f565b60405191829182612327565b813581529084019084016123cb565b503461000e57602060031936011261000e5760043560005260d3602052610c156040600020604051907fc4b22b8600000000000000000000000000000000000000000000000000000000825260048201526064602482015260208160448173__$86182d6e9eac51236f2aa8dd2a3ddeab6c$__5af49081156113b15760009161139357506040519081529081906020820190565b503461000e57604060031936011261000e576004356124ab8161084c565b602435906124b76136c0565b90610170926124ca60ff855416156133fd565b6124d383615b0a565b936124dd85613b30565b6124ef60ff60008412925416156133fd565b6124f98184615b55565b9273__$86182d6e9eac51236f2aa8dd2a3ddeab6c$__90813b1561000e576040517ff5a284a1000000000000000000000000000000000000000000000000000000008152600481019790975263ffffffff166024870152604486018390526064808701528115156084870152610c159590600090829060a49082905af480156125ee575b6125db575b5060008213156125b157506116126125a192546001600160a01b031690565b6040519081529081906020820190565b6125bd575b50506125a1565b6116496116436125d493546001600160a01b031690565b38806125b6565b80610c9f6125e8926107a7565b38612582565b6125f6613795565b61257d565b503461000e5760408060031936011261000e5760243561261a8161085a565b60043560005260d360205281600020908251917f0c6d7f3400000000000000000000000000000000000000000000000000000000835260048301521515602482015260646044820152818160648173__$86182d6e9eac51236f2aa8dd2a3ddeab6c$__5af49182156126c7575b60009182936126a25750519081526020810191909152604090f35b816126bf929450610c1593503d851161193757611925818361081c565b929091611808565b6126cf613795565b612687565b503461000e57602060031936011261000e576001600160a01b03806101a354163314159081612798575b506105145761017061271360ff825416613675565b60d65461276e5761272860043560665461358a565b61272e57005b60ff19815461273f60ff8216613675565b1690557f5db9ee0a495bf2e6ff9c91a7834c1ba4fdd244a5e8aa4e537bd38aeae4b073aa6020604051338152a1005b60046040517ffc23b9cd000000000000000000000000000000000000000000000000000000008152fd5b6101a254163314159050386126fe565b156127af57565b608460405162461bcd60e51b815260206004820152602e60248201527f496e697469616c697a61626c653a20636f6e747261637420697320616c72656160448201527f647920696e697469616c697a65640000000000000000000000000000000000006064820152fd5b93916128b87f39355f2f5c8206286978f443aa8126bbd29fa09c53c04569502647f3a59c8cb2936000958694986001600160a01b039a8b80928173ffffffffffffffffffffffffffffffffffffffff199c168c60d454161760d4558185168c6067541617606755168a60d554161760d5551688606854161760685589604051926128a284610800565b168252603c602083015260016040830152615942565b61013d9680885460ff8160081c169081861461297057506128da303b156127a8565b159788612943575b16916101a2838882541617905560405192847f5f56bee8cffbe9a78652a74a60705edede02af10b0bbb888ca44b79a0d42ce808186a31694856101a391825416179055a3612934575b5061068d61297d565b61ff001981541690553861292b565b61295861013d61010061ff0019825416179055565b61296b61013d600160ff19825416179055565b6128e2565b60ff6128da9116156127a8565b60ff61013d5460081c16156129995761017060ff198154169055565b608460405162461bcd60e51b815260206004820152602b60248201527f496e697469616c697a61626c653a20636f6e7472616374206973206e6f74206960448201527f6e697469616c697a696e670000000000000000000000000000000000000000006064820152fd5b61ffff81160361000e57565b60243561146f81612a03565b60443561146f81612a03565b60643561146f81612a03565b3561146f81612a03565b60843561146f8161084c565b60e43561146f8161085a565b6101043561146f8161085a565b60e43561146f8161066e565b6101243561146f8161066e565b61068d90612abd602435612a8e81612a03565b829061ffff167fffffffffffffffffffffffffffffffffffffffffffffffffffffffffffff0000825416179055565b612b01604435612acc81612a03565b82547fffffffffffffffffffffffffffffffffffffffffffffffffffffffff0000ffff1660109190911b63ffff000016178255565b612b47606435612b1081612a03565b82547fffffffffffffffffffffffffffffffffffffffffffffffffffff0000ffffffff1660209190911b65ffff0000000016178255565b608435612b538161084c565b7fffffffffffffffffffffffffffffffffffffffffffff00000000ffffffffffff69ffffffff00000000000083549260301b169116178155612bd660a435612b9a8161085a565b82547fffffffffffffffffffffffffffffffffffffffffff00ffffffffffffffffffff1690151560501b6aff0000000000000000000016178255565b612c2260c435612be58161085a565b82547fffffffffffffffffffffffffffffffffffffffff00ffffffffffffffffffffff1690151560581b6bff000000000000000000000016178255565b60e43590612c2f8261066e565b906bffffffffffffffffffffffff6bffffffffffffffffffffffff1983549260601b169116179055565b600361068d91612c97600435612c6e8161066e565b82906001600160a01b031673ffffffffffffffffffffffffffffffffffffffff19825416179055565b612cd2602435612ca68161066e565b60018301906001600160a01b031673ffffffffffffffffffffffffffffffffffffffff19825416179055565b612d0d604435612ce18161066e565b60028301906001600160a01b031673ffffffffffffffffffffffffffffffffffffffff19825416179055565b01612d1d606435612a8e81612a03565b612d2c608435612acc81612a03565b612d3b60a435612b1081612a03565b60c435612d478161084c565b7fffffffffffffffffffffffffffffffffffffffffffff00000000ffffffffffff69ffffffff00000000000083549260301b169116178155612d8a612b9a612a49565b612d95612be5612a55565b612d9d612a6e565b6bffffffffffffffffffffffff6bffffffffffffffffffffffff1983549260601b169116179055565b50634e487b7160e01b600052603260045260246000fd5b90606654821015612e1e575b6066600052601c8260031c7f46501879b8ca8525e8c2fd519e2fbfcfa2ebea26501294aa02cbfcfb12e94354019260021b1690565b612e26612dc6565b612de9565b6066549068010000000000000000821015612eac575b6001820180606655821015612e9f575b60666000528160031c7f46501879b8ca8525e8c2fd519e2fbfcfa2ebea26501294aa02cbfcfb12e94354019160e083549160051b169163ffffffff9283811b93849216901b16911916179055565b612ea7612dc6565b612e51565b612eb4610790565b612e41565b359061068d82612a03565b63ffffffff91821681526101008101929161068d9190606435612ee681612a03565b61ffff809116602084015280608435612efe81612a03565b16604084015260a435612f1081612a03565b16606083015260c435612f228161084c565b166080820152612f3c612f33610864565b151560a0830152565b612f50612f47610871565b151560c0830152565b60e0612f5a61067f565b6001600160a01b0316910152565b63ffffffff91821681526101008101929161068d9190602435612f8a81612a03565b61ffff809116602084015280604435612fa281612a03565b166040840152606435612fb481612a03565b166060830152608435612fc68161084c565b166080820152612fd7612f3361087f565b612fe2612f4761088c565b60e0612f5a61068f565b906001600160a01b03806101a254163303610514578151161561304b576201518063ffffffff613023602084015163ffffffff1690565b16116130325761068d91615942565b604051636a098dd160e11b815260116004820152602490fd5b604051636a098dd160e11b815260106004820152602490fd5b50634e487b7160e01b600052601160045260246000fd5b50634e487b7160e01b600052601260045260246000fd5b67ffffffffffffffff81160361000e57565b3561146f81613092565b6132b860e061068d9261ffff81356130c581612a03565b167fffffffffffffffffffffffffffffffffffffffffffffffffffffffffffff00006069541617606955613136602082013561310081612a03565b7fffffffffffffffffffffffffffffffffffffffffffffffffffffffff0000ffff63ffff00006069549260101b16911617606955565b61317f604082013561314781612a03565b7fffffffffffffffffffffffffffffffffffffffffffffffffffff0000ffffffff65ffff000000006069549260201b16911617606955565b606081013561318d81612a03565b7fffffffffffffffffffffffffffffffffffffffffffffffff0000ffffffffffff67ffff0000000000006069549260301b169116176069556132106131d460808301612a33565b7fffffffffffffffffffffffffffffffffffffffffffff0000ffffffffffffffff69ffff00000000000000006069549260401b16911617606955565b61325d61321f60a08301612a33565b7fffffffffffffffffffffffffffffffffffffffff0000ffffffffffffffffffff6bffff000000000000000000006069549260501b16911617606955565b6132b261326c60c083016130a4565b7fffffffffffffffffffffffff0000000000000000ffffffffffffffffffffffff73ffffffffffffffff0000000000000000000000006069549260601b16911617606955565b016130a4565b7fffffffff0000000000000000ffffffffffffffffffffffffffffffffffffffff7bffffffffffffffff00000000000000000000000000000000000000006069549260a01b16911617606955565b359061068d82613092565b90949392610140926133ed6133dc60e0610160860199803561333281612a03565b61ffff8091168852602082013561334881612a03565b16602088015261336861335d60408301612eb9565b61ffff166040890152565b61338261337760608301612eb9565b61ffff166060890152565b61339c61339160808301612eb9565b61ffff166080890152565b6133b66133ab60a08301612eb9565b61ffff1660a0890152565b6133d66133c560c08301613306565b67ffffffffffffffff1660c0890152565b01613306565b67ffffffffffffffff1660e0850152565b6101008301526101208201520152565b1561340457565b606460405162461bcd60e51b815260206004820152601060248201527f5061757361626c653a20706175736564000000000000000000000000000000006044820152fd5b81198111613454570190565b61345c613064565b0190565b6001906000198114613454570190565b60d65492918315613581575b6000908061355f57505080925b8381106134a7575082149182156134a25750600060d655565b60d655565b63ffffffff6134b582612ddd565b90549060031b1c1660005260646020526040906134e3611132600284600020016001600160a01b0390541690565b803b1561000e576000613540935180927f5124033600000000000000000000000000000000000000000000000000000000825281838161352b60048201906000602083019252565b03925af18015613552575b6135455750613460565b613489565b80610c9f6111b5926107a7565b61355a613795565b613536565b6135699085613448565b90508181101561357a575b92613489565b5080613574565b6000935061347c565b60d7549291831561366c575b6000908061364a57505080925b8381106135c1575082149182156135bc5750600060d755565b60d755565b63ffffffff6135cf82612ddd565b90549060031b1c1660005260646020526040906001600160a01b03600283600020015416803b1561000e576000809160246136459551809481937f51240336000000000000000000000000000000000000000000000000000000008352600160048401525af18015613552576135455750613460565b6135a3565b6136549085613448565b905081811015613665575b926135a3565b508061365f565b60009350613596565b1561367c57565b606460405162461bcd60e51b815260206004820152601460248201527f5061757361626c653a206e6f74207061757365640000000000000000000000006044820152fd5b6136d060ff6101705416156133fd565b60d2547ffffffffffffffffffffffffffffffffffffffffffffffffffffffffffffffffe8111613788575b6001810160d255600081815260d36020526040902080546bffffffffffffffffffffffff163360601b6bffffffffffffffffffffffff19161781556bffffffffffffffffffffffff82166bffffffffffffffffffffffff198254161790556040518181527f7325fb14450d3e5eb288c620b4ff1d6b43a41b33b4a4f143ae88cd4c12f99ea360203392a290565b613790613064565b6136fb565b506040513d6000823e3d90fd5b359081600f0b820361000e57565b3590600382101561000e57565b809291610100918291031261000e5760405190810181811067ffffffffffffffff82111761386d575b60405260e06138688183956137fa816114a5565b8552613808602082016114a5565b6020860152613819604082016137a2565b604086015261382a6060820161069c565b606086015261383b60808201612eb9565b608086015261384c60a08201610899565b60a086015261385d60c082016137b0565b60c086015201610899565b910152565b613875610790565b6137e6565b9061388482612300565b613891604051918261081c565b828152601f196138a18294612300565b019060005b8281106138b257505050565b8060606020809385010152016138a6565b9190811015613904575b60051b810135907fffffffffffffffffffffffffffffffffffffffffffffffffffffffffffffffc18136030182121561000e570190565b61390c612dc6565b6138cd565b50634e487b7160e01b600052602160045260246000fd5b6007111561393257565b61068d613911565b35600781101561000e5790565b91906020830192600782101561395a5752565b613962613911565b52565b9035907fffffffffffffffffffffffffffffffffffffffffffffffffffffffffffffffe18136030182121561000e570180359067ffffffffffffffff821161000e5760200191813603831361000e57565b919082604091031261000e57602082356139cf8161084c565b92013561146f8161084c565b6020908051156139e9570190565b61345c612dc6565b6040908051600110156139e9570190565b6020918151811015613a17575b60051b010190565b613a1f612dc6565b613a0f565b9081606091031261000e578035613a3a8161084c565b9160406020830135613a4b8161149a565b92013561146f8161149a565b91906101208382031261000e5761146f9060208435613a758161084c565b94016137bd565b809291039160c0831261000e5760a0601f198235613a998161084c565b94011261000e5760a060405191613aaf836107c8565b602081013583526040810135613ac48161066e565b60208401526060810135613ad78161085a565b60408401526080810135613aea8161085a565b60608401520135613afa8161085a565b608082015290565b9081602091031261000e573590565b919082604091031261000e5760208235613b2a8161084c565b92013590565b60005b60088060ff83161015613b9257811015613b97575b63ffffffff60018260031c8401015460e08360051b161c16908115613b9257613b72600192613c1c565b60ff809116908114613b85575b01613b33565b613b8d613064565b613b7f565b505050565b613b9f612dc6565b613b48565b60008212827f8000000000000000000000000000000000000000000000000000000000000000018212811516613c0f575b827f7fffffffffffffffffffffffffffffffffffffffffffffffffffffffffffffff01821316613c03570390565b613c0b613064565b0390565b613c17613064565b613bd5565b613c24613f01565b613c3e8263ffffffff16600052606d602052604060002090565b805463ffffffff838116911614613b9257613c5883614403565b613c69613c6485614022565b613fad565b937c010000000000000000000000000000000000000000000000000000000080831090811591613e35575b50613e2e5761068d94613d49613d4e613dcf94613cd56003613cc9613d9a9763ffffffff166000526064602052604060002090565b015460201c61ffff1690565b613cf561ffff613ced613ce88886613ba4565b614543565b921683613e40565b1015613dff57613d49600188017c01000000000000000000000000000000000000000000000000000000007fffffff00ffffffffffffffffffffffffffffffffffffffffffffffffffffffff825416179055565b614492565b60018601907bffffffffffffffffffffffffffffffffffffffffffffffffffffffff167fffffffff00000000000000000000000000000000000000000000000000000000825416179055565b825463ffffffff1660209190911b7fffffffffffffffffffffffffffffffffffffffffffffffffffffffff0000000016178255565b9063ffffffff167fffffffffffffffffffffffffffffffffffffffffffffffffffffffff00000000825416179055565b613d49600188017fffffff00ffffffffffffffffffffffffffffffffffffffffffffffffffffffff8154169055565b5050505050565b905085101538613c94565b9060001981830981830291828083109203918083039214613e9d57612710908282111561000e577fbc01a36e2eb1c432ca57a786c226809d495182a9930be0ded288ce703afb7e91940990828211900360fc1b910360041c170290565b505061271091500490565b6000198282099082810292838084109303928084039314613ee95768010000000000000000918383111561000e570990828211900360c01b910360401c1790565b50505060401c90565b9081602091031261000e575190565b61a4b146148015613fa1575b8015613f95575b15613f8b5763ffffffff6040517fa3b1b31d00000000000000000000000000000000000000000000000000000000815260208160048160645afa908115613f7e575b600091613f6257501690565b613f7a915060203d81116111e1576111d3818361081c565b1690565b613f86613795565b613f56565b63ffffffff431690565b5062066eec4614613f14565b5062066eeb4614613f0d565b6001600160a01b03166401000276a381108015614004575b613fd3578061146f91613ea8565b602490604051907f5d236c450000000000000000000000000000000000000000000000000000000082526004820152fd5b5073fffd8963efd1fc6a506488495d951d5263988d26811015613fc5565b61403c9063ffffffff166000526064602052604060002090565b60036140666001600160a01b0392836001820154169063ffffffff938491015460301c169061484c565b60020b9060008212156143fd5781600003915b620d89e883116143d35760018316156143aa5770ffffffffffffffffffffffffffffffffff6ffffcb933bd6fad37aa2d162d1a5940015b16926002811661438e575b60048116614372575b60088116614356575b6010811661433a575b6020811661431e575b60408116614302575b6080908181166142e7575b61010081166142cc575b61020081166142b1575b6104008116614296575b610800811661427b575b6110008116614260575b6120008116614245575b614000811661422a575b618000811661420f575b6201000081166141f4575b6202000081166141da575b6204000081166141c0575b62080000166141a5575b50600012614195575b811661418c5760ff60005b169060201c011690565b60ff6001614182565b9061419f90614558565b90614177565b6b048a170391f7dc42444e8fa26000929402901c929061416e565b6d2216e584f5fa1ea926041bedfe98909402811c93614164565b936e5d6af8dedb81196699c329225ee60402811c93614159565b936f09aa508b5b7a84e1c677de54f3e99bc902811c9361414e565b936f31be135f97d08fd981231505542fcfa602811c93614143565b936f70d869a156d2a1b890bb3df62baf32f702811c93614139565b936fa9f746462d870fdf8a65dc1f90e061e502811c9361412f565b936fd097f3bdfd2022b8845ad8f792aa582502811c93614125565b936fe7159475a2c29b7443b29c7fa6e889d902811c9361411b565b936ff3392b0822b70005940c7a398e4b70f302811c93614111565b936ff987a7253ac413176f2b074cf7815e5402811c93614107565b936ffcbe86c7900a88aedcffc83b479aa3a402811c936140fd565b936ffe5dee046a99a2a811c461f1969c305302811c936140f3565b926fff2ea16466c96a3843ec78b326b528610260801c926140e8565b926fff973b41fa98c081472e6896dfb254c00260801c926140df565b926fffcb9843d60f6159c9db58835c9266440260801c926140d6565b926fffe5caca7e10e4e61c3624eaa0941cd00260801c926140cd565b926ffff2e50f5f656932ef12357cf3c7fdcc0260801c926140c4565b926ffff97272373d413259a46990580e213a0260801c926140bb565b70ffffffffffffffffffffffffffffffffff7001000000000000000000000000000000006140b0565b60046040517f2bc80f3a000000000000000000000000000000000000000000000000000000008152fd5b81614079565b63ffffffff80911660005260646020526020600360406000200154916024604051809481937fdd86c1010000000000000000000000000000000000000000000000000000000083528160301c16600483015260601c5afa908115614485575b60009161446d575090565b61146f915060203d81116111e1576111d3818361081c565b61448d613795565b614462565b7c010000000000000000000000000000000000000000000000000000000081116144d7577bffffffffffffffffffffffffffffffffffffffffffffffffffffffff1690565b602490604051907f1ba344530000000000000000000000000000000000000000000000000000000082526004820152fd5b7f80000000000000000000000000000000000000000000000000000000000000008114614536575b60000390565b61453e613064565b614530565b600081131561454f5790565b61146f90614508565b8015614566575b6000190490565b61456e61307b565b61455f565b6040519061458082610800565b600282526040366020840137565b81601f8201121561000e578051916145a583612300565b926145b3604051948561081c565b808452602092838086019260051b82010192831161000e578301905b8282106145dd575050505090565b83809183516145eb8161066e565b8152019101906145cf565b91909160408184031261000e5780519267ffffffffffffffff9384811161000e5782019381601f8601121561000e5784519461463186612300565b9061463f604051928361081c565b868252602096878084019160051b8301019185831161000e578801905b82821061467b575050509483015190811161000e5761146f920161458e565b81518060060b810361000e57815290880190880161465c565b6020908160408183019282815285518094520193019160005b8281106146bb575050505090565b835163ffffffff16855293810193928101926001016146ad565b60060b9060060b9060008212827fffffffffffffffffffffffffffffffffffffffffffffffffff80000000000000018212811516614723575b82667fffffffffffff01821316613c03570390565b61472b613064565b61470e565b60060b9060060b90811561477c575b60001982147fffffffffffffffffffffffffffffffffffffffffffffffffff80000000000000821416614770570590565b614778613064565b0590565b61478461307b565b61473f565b9060060b90811561479c575b60060b0790565b6147a461307b565b614795565b6000199060020b7fffffffffffffffffffffffffffffffffffffffffffffffffffffffffff8000008114613454570190565b908160e091031261000e5780516147f18161066e565b9160208201516148008161149a565b91604081015161480f81612a03565b91606082015161481e81612a03565b91608081015161482d81612a03565b9160a082015160ff8116810361000e5760c09092015161146f8161085a565b9063ffffffff81168015614a04576148cb6001600160a01b0393614886614871614573565b9461487b866139db565b9063ffffffff169052565b600094859182614895876139f1565b521693604051809381927f883bdbfd00000000000000000000000000000000000000000000000000000000835260048301614694565b0381865afa8491816149df575b5061496057505060e0600491604051928380927f3850c7bd0000000000000000000000000000000000000000000000000000000082525afa918215614953575b91614921575090565b614942915060e03d811161494c575b61493a818361081c565b8101906147db565b5050505050905090565b503d614930565b61495b613795565b614918565b61498b91925061498561497861497f614978846139f1565b5160060b90565b926139db565b906146d5565b9060060b6149a261499c8284614730565b60020b90565b928260060b1291826149c1575b50506149b85790565b61146f906147a9565b6149d69250906149d091614789565b60060b90565b151538806149af565b6149fc9192503d8087833e6149f4818361081c565b8101906145f6565b5090386148d8565b505061146f9060e06001600160a01b03916004604051809481937f3850c7bd000000000000000000000000000000000000000000000000000000008352165afa908115614a57575b600091614921575090565b614a5f613795565b614a4c565b919091614a7760ff6101705416156133fd565b6000821290614a868285615b55565b9373__$86182d6e9eac51236f2aa8dd2a3ddeab6c$__91823b1561000e576040517ff5a284a1000000000000000000000000000000000000000000000000000000008152600481019190915263ffffffff919091166024820152604481018490526064808201526000608482018190529091829060a49082905af48015614b5e575b614b4b575b506000821315614b2c575061161261068d92546001600160a01b031690565b614b34575050565b61164961164361068d93546001600160a01b031690565b80610c9f614b58926107a7565b38614b0d565b614b66613795565b614b08565b61068d926001600160a01b03604051937fa9059cbb0000000000000000000000000000000000000000000000000000000060208601521660248401526044830152604482526080820182811067ffffffffffffffff821117614bd0575b604052614cfc565b614bd8610790565b614bc8565b909261068d93604051937f23b872dd0000000000000000000000000000000000000000000000000000000060208601526001600160a01b03809216602486015216604484015260648301526064825260a0820182811067ffffffffffffffff821117614bd057604052614cfc565b601f19601f60209267ffffffffffffffff8111614c69575b01160190565b614c71610790565b614c63565b9081602091031261000e575161146f8161085a565b15614c9257565b608460405162461bcd60e51b815260206004820152602a60248201527f5361666545524332303a204552433230206f7065726174696f6e20646964206e60448201527f6f742073756363656564000000000000000000000000000000000000000000006064820152fd5b6001600160a01b03169060405190614d13826107e4565b6020928383527f5361666545524332303a206c6f772d6c6576656c2063616c6c206661696c656484840152803b15614d8a5760008281928287614d659796519301915af1614d5f614dce565b90614e0f565b80519081614d7257505050565b8261068d93614d85938301019101614c76565b614c8b565b6064846040519062461bcd60e51b82526004820152601d60248201527f416464726573733a2063616c6c20746f206e6f6e2d636f6e74726163740000006044820152fd5b3d15614df9573d90614ddf82614c4b565b91614ded604051938461081c565b82523d6000602084013e565b606090565b90602061146f928181520190610add565b90919015614e1b575090565b815115614e2b5750805190602001fd5b6110929060405191829162461bcd60e51b8352602060048401526024830190610add565b614e5f60ff6101705416156133fd565b8115611d045773__$86182d6e9eac51236f2aa8dd2a3ddeab6c$__803b1561000e576040517fd25c4a6f000000000000000000000000000000000000000000000000000000008152600481019290925260248201839052606460448301819052600090830181905290829060849082905af48015614f29575b614f16575b506000811315614efd5761068d906116126067546001600160a01b031690565b61068d906116496116436067546001600160a01b031690565b80610c9f614f23926107a7565b38614edd565b614f31613795565b614ed8565b90606091939293614f4d60ff6101705416156133fd565b614f5682615c00565b828501516001600160a01b03168061500f575b50614fa160405195869384937fc27789d1000000000000000000000000000000000000000000000000000000008552600485016150f7565b038173__$86182d6e9eac51236f2aa8dd2a3ddeab6c$__5af48015615002575b60009081938291614fdc575b50606c54811061221b57509190565b915050614ff891925060603d811161227b5761226a818361081c565b9291909238614fcd565b61500a613795565b614fc1565b615022906122a2608088015161ffff1690565b38614f69565b9081606091031261000e578051916040602083015192015190565b90600382101561395a5752565b6150e860e061016093969563ffffffff61068d966101808601998652166020850152805160020b6040850152602081015160020b60608501526040810151600f0b60808501526150b0606082015160a08601906001600160a01b03169052565b608081015161ffff1660c085015260a08101511515848301526150dc60c0820151610100860190615043565b01511515610120830152565b60646101408201520160019052565b61515660e061016093969563ffffffff6000966101808601998652166020850152805160020b6040850152602081015160020b60608501526040810151600f0b60808501526150b0606082015160a08601906001600160a01b03169052565b60646101408201520152565b908293929161517760ff6101705416156133fd565b61518082615c00565b6040918291615219835195869384937f140cf61e00000000000000000000000000000000000000000000000000000000855260048501608061010092959463ffffffff6000956101208501988552166020840152805160408401526001600160a01b03602082015116606084015260408101511515828401526060810151151560a08401520151151560c0820152606460e08201520152565b038173__$86182d6e9eac51236f2aa8dd2a3ddeab6c$__5af493841561532f575b600092839561530a575b5061524e85614543565b606c5481106118d757506001600160a01b0361527460208301516001600160a01b031690565b161515806152f4575b615288575b50509190565b818101906152968251151590565b91826152d8575b82156152b1575b5050156118435780615282565b51159150816152c3575b5038806152a4565b90506152d161189784614543565b14386152bb565b91506152e386614543565b6152ed8251614543565b149161529d565b506153056118766060830151151590565b61527d565b909450816153259293503d841161193757611925818361081c565b9190919338615244565b615337613795565b61523a565b919082604091031261000e576020825192015190565b608061010092959463ffffffff61068d956101208501988552166020840152805160408401526001600160a01b03602082015116606084015260408101511515828401526060810151151560a08401520151151560c0820152606460e08201520160019052565b6153c960ff6101705416156133fd565b61542360606153e28360005260d3602052604060002090565b604051809381927fdf19bf09000000000000000000000000000000000000000000000000000000008352600483016020606491939293604081019481520152565b038173__$86182d6e9eac51236f2aa8dd2a3ddeab6c$__5af4918215615525575b600092839284916154ff575b5061545b8385615532565b9260008513156154cd57907f688f0846fe2852572c467d5e769db101b0fea55e8849406d85c9fb322b95299b916154a58661549e6067546001600160a01b031690565b3390614b6b565b6154ae816157bf565b604080519586526020860187905285015260608401523392608090a390565b6040517fef37dcc700000000000000000000000000000000000000000000000000000000815260048101869052602490fd5b9193505061551b915060603d811161227b5761226a818361081c565b9192909138615450565b61552d613795565b615444565b60008112817f7fffffffffffffffffffffffffffffffffffffffffffffffffffffffffffffff038313811516615591575b817f800000000000000000000000000000000000000000000000000000000000000003831216613454570190565b615599613064565b615563565b61561d916155c86040926155b860ff6101705416156133fd565b60005260d3602052604060002090565b6155d182615c00565b825193849283927fec1464960000000000000000000000000000000000000000000000000000000084526004840160409063ffffffff6064939594606083019683521660208201520152565b038173__$86182d6e9eac51236f2aa8dd2a3ddeab6c$__5af480156156c2575b60009182916156a2575b5060008213156156705761146f9061566b8361549e6067546001600160a01b031690565b6157bf565b6040517fef37dcc700000000000000000000000000000000000000000000000000000000815260048101839052602490fd5b90506156bc915060403d811161193757611925818361081c565b38615647565b6156ca613795565b61563d565b929091926156e360ff6101705416156133fd565b60005260d36020526040600020916156fa81615c00565b606b549373__$86182d6e9eac51236f2aa8dd2a3ddeab6c$__93843b1561000e5763ffffffff9460009460c49360405197889687957fe0448f0a000000000000000000000000000000000000000000000000000000008752600487015216602485015260020b604484015260020b6064830152866084830152606460a48301525af480156157b2575b61579f575b5061146f8161549e6067546001600160a01b031690565b80610c9f6157ac926107a7565b38615788565b6157ba613795565b615783565b60008113156157e45761068d906001600160a01b0380606754169060d5541690614b6b565b6157f96001600160a01b0360d5541691614508565b813b1561000e576000916024839260405194859384927f379607f500000000000000000000000000000000000000000000000000000000845260048401525af18015615850575b6158475750565b61068d906107a7565b615858613795565b615840565b6158ce602060016001600160a01b039361589d8587511682906001600160a01b031673ffffffffffffffffffffffffffffffffffffffff19825416179055565b019301519182511683906001600160a01b031673ffffffffffffffffffffffffffffffffffffffff19825416179055565b6020810151907fffffffffffffff0000000000ffffffffffffffffffffffffffffffffffffffff77ffffffff000000000000000000000000000000000000000078ff00000000000000000000000000000000000000000000000060408654940151151560c01b169360a01b16911617179055565b919063ffffffff83166001600160a01b03841615615ad85761598a6118766119fb61597d8463ffffffff166000526065602052604060002090565b546001600160a01b031690565b80615a9d575b615a3d57926159f47f52983c04d8ccd4808cd0fcb24e6e48106ecb41e803d6270c6c94a15e3ebd08d293946159ef6159c661083f565b6001600160a01b03851681529185602084015263ffffffff166000526065602052604060002090565b61585d565b615a3860405192839283909291604060609160808401956001600160a01b038091168552815116602085015263ffffffff6020820151168285015201511515910152565b0390a1565b615a5b61597d859263ffffffff166000526065602052604060002090565b6040517fa5d4d0b50000000000000000000000000000000000000000000000000000000081526001600160a01b03928316600482015291166024820152604490fd5b50615ad361187685615ac261597d8563ffffffff166000526065602052604060002090565b6001600160a01b0390811691161490565b615990565b6040517f76d8a93100000000000000000000000000000000000000000000000000000000815260006004820152602490fd5b60005260d3602052604060002090815460601c3303615b2557565b60246040517f0504a20d000000000000000000000000000000000000000000000000000000008152336004820152fd5b63ffffffff90929192168060005260656020526040600020926001600160a01b0384541615615bcf571580615bbd575b615b8c5750565b602490604051907f9150f8c80000000000000000000000000000000000000000000000000000000082526004820152fd5b5060ff600184015460c01c1615615b85565b602482604051907f6b9c1a9d0000000000000000000000000000000000000000000000000000000082526004820152fd5b63ffffffff1680600052606460205260406000206001600160a01b0381541615615c67576003015460501c60ff1615615c365750565b602490604051907fb0fdd2020000000000000000000000000000000000000000000000000000000082526004820152fd5b602482604051907fb842f5a70000000000000000000000000000000000000000000000000000000082526004820152fd5b6001600160a01b039182169116818110613c03570390565b6001600160a01b039182809216918291169204821181151516615cd1570290565b615cd9613064565b0290565b63ffffffff166000526064602052615d7b611132615d6a6001600160a01b039361ffff600460e08760016040600020015416604051928380927f3850c7bd0000000000000000000000000000000000000000000000000000000082525afa908115615de2575b600091615dbe575b50828781168289161115615dae57615d6291615c98565b965b16615cb0565b6001600160a01b0361271091160490565b911611615d8457565b60046040517f07a1db07000000000000000000000000000000000000000000000000000000008152fd5b90615db891615c98565b96615d64565b615dd6915060e03d811161494c5761493a818361081c565b50505050505038615d4b565b615dea613795565b615d43565b615df7613f01565b9063ffffffff91828216600052606d60205260406000209280845416911614600014615e435750600101547bffffffffffffffffffffffffffffffffffffffffffffffffffffffff1690565b61146f9150614403565b615e55613f01565b9063ffffffff808216600052606d60205280604060002054931690831614600014615e81575060201c90565b61146f9150613c6490614022565b805160051b810160209081018183015b818110615eac5750505090565b80515481528201615e9f565b9091615ed192811015615ed5575b60051b810190613965565b9091565b615edd612dc6565b615ec6565b908092918237016000815290565b60208183031261000e5780519067ffffffffffffffff821161000e570181601f8201121561000e578051615f2381614c4b565b92615f31604051948561081c565b8184526020828401011161000e5761146f9160208085019101610aa856fea2646970667358221220a17ee6737ebff31f3432faa264c9c3e22031a16d93c7a52c8d9f83bde14583db64736f6c634300080e0033",
  "libraries": {
    "Account": "0x3FaB135e76c5c0E85A60bf50f100c8cd912f7E56"
  },
  "devdoc": {
    "errors": {
      "AccessDenied(address)": [
        {
          "params": {
            "senderAddress": "address of msg sender"
          }
        }
      ],
      "CollateralDoesNotExist(uint32)": [
        {
          "params": {
            "collateralId": "address of token"
          }
        }
      ],
      "CollateralNotAllowedForUse(uint32)": [
        {
          "params": {
            "collateralId": "address of token"
          }
        }
      ],
      "IncorrectCollateralAddress(address,address)": [
        {
          "params": {
            "correctAddress": "correct address of collateral token",
            "incorrectAddress": "incorrect address of collateral token"
          }
        }
      ],
      "InvalidCollateralAddress(address)": [
        {
          "params": {
            "invalidAddress": "invalid address of collateral token"
          }
        }
      ],
      "InvalidMulticallOperationType(uint8)": [
        {
          "params": {
            "multicallOperationType": "is the value that is out of bounds"
          }
        }
      ],
      "LowNotionalValue(uint256)": [
        {
          "params": {
            "notionalValue": "notional value of txn"
          }
        }
      ],
      "PoolDoesNotExist(uint32)": [
        {
          "params": {
            "poolId": "unitialized truncated address supplied"
          }
        }
      ],
      "PoolNotAllowedForTrade(uint32)": [
        {
          "params": {
            "poolId": "address of token"
          }
        }
      ]
    },
    "kind": "dev",
    "methods": {
      "createAccount()": {
        "returns": {
          "newAccountId": "- serial number of the new account created"
        }
      },
      "createAccountAndAddMargin(uint32,uint256)": {
        "params": {
          "amount": "amount of token to deposit",
          "collateralId": "truncated address of collateral token to deposit"
        },
        "returns": {
          "newAccountId": "- serial number of the new account created"
        }
      },
      "extsload(bytes32)": {
        "params": {
          "slot": "to read from."
        },
        "returns": {
          "val": "stored at the slot."
        }
      },
      "extsload(bytes32[])": {
        "params": {
          "slots": "to read from."
        },
        "returns": {
          "_0": "values stored at the slots."
        }
      },
      "getAccountMarketValueAndRequiredMargin(uint256,bool)": {
        "details": "This method can be used to check if an account is under water or not.     If accountMarketValue < requiredMargin then liquidation can take place.",
        "params": {
          "accountId": "the account id",
          "isInitialMargin": "true is initial margin, false is maintainance margin"
        },
        "returns": {
          "marketValue": "the market value of the account, due to collateral and positions",
          "requiredMargin": "margin needed due to positions"
        }
      },
      "getAccountNetProfit(uint256)": {
        "params": {
          "accountId": "the account id"
        },
        "returns": {
          "accountNetProfit": "the net profit of the account"
        }
      },
      "getAccountNetTokenPosition(uint256,uint32)": {
        "params": {
          "accountId": "the account id",
          "poolId": "the id of the pool (vETH, ... etc)"
        },
        "returns": {
          "netPosition": "the net position of the account"
        }
      },
      "getRealTwapPriceX128(uint32)": {
        "params": {
          "poolId": "the id of the pool"
        },
        "returns": {
          "realPriceX128": "the real price of the pool"
        }
      },
      "getVirtualTwapPriceX128(uint32)": {
        "params": {
          "poolId": "the id of the pool"
        },
        "returns": {
          "virtualPriceX128": "the virtual price of the pool"
        }
      },
      "initiateGovernanceTransfer(address)": {
        "params": {
          "newGovernancePending": "the new governance address"
        }
      },
      "initiateTeamMultisigTransfer(address)": {
        "params": {
          "newTeamMultisigPending": "the new team multisig address"
        }
      },
      "liquidateLiquidityPositions(uint256)": {
        "details": "removes all the active range positions and gives liquidator a percent of notional amount closed + fixedFee",
        "params": {
          "accountId": "account id"
        }
      },
      "liquidateTokenPosition(uint256,uint32)": {
        "details": "transfers the fraction of token position at a discount to current price to liquidators account and gives liquidator some fixedFee",
        "params": {
          "poolId": "truncated address of token to withdraw",
          "targetAccountId": "account id"
        },
        "returns": {
          "keeperFee": "- amount of fees transferred to keeper"
        }
      },
      "multicall(bytes[])": {
        "details": "The `msg.value` should not be trusted for any method callable from multicall.",
        "params": {
          "data": "The encoded function data for each of the calls to make to this contract"
        },
        "returns": {
          "results": "The results from each of the calls passed in via data"
        }
      },
      "paused()": {
        "details": "Returns true if the contract is paused, and false otherwise."
      },
      "removeLimitOrder(uint256,uint32,int24,int24)": {
        "details": "checks the position of current price relative to limit order and checks limitOrderType",
        "params": {
          "accountId": "account id",
          "poolId": "truncated address of token to withdraw",
          "tickLower": "liquidity change parameters",
          "tickUpper": "liquidity change parameters"
        }
      },
      "settleProfit(uint256)": {
        "params": {
          "accountId": "account id"
        }
      },
      "swapToken(uint256,uint32,(int256,uint160,bool,bool,bool))": {
        "params": {
          "accountId": "account id",
          "poolId": "truncated address of token to withdraw",
          "swapParams": "swap parameters"
        }
      },
      "updateMargin(uint256,uint32,int256)": {
        "params": {
          "accountId": "account id",
          "amount": "amount of token to deposit",
          "collateralId": "truncated address of token to deposit"
        }
      },
      "updatePoolSettings(uint32,(uint16,uint16,uint16,uint32,bool,bool,address))": {
        "params": {
          "newSettings": "updated rage trade pool settings",
          "poolId": "rage trade pool id"
        }
      },
      "updateProfit(uint256,int256)": {
        "params": {
          "accountId": "account id",
          "amount": "amount of token to withdraw"
        }
      },
      "updateRangeOrder(uint256,uint32,(int24,int24,int128,uint160,uint16,bool,uint8,bool))": {
        "params": {
          "accountId": "account id",
          "liquidityChangeParams": "liquidity change parameters",
          "poolId": "truncated address of token to withdraw"
        }
      },
      "withdrawProtocolFee(uint256)": {
        "params": {
          "numberOfPoolsToUpdateInThisTx": "number of pools to collect fees from"
        }
      }
    },
    "version": 1
  },
  "userdoc": {
    "errors": {
      "AccessDenied(address)": [
        {
          "notice": "error to denote invalid account access"
        }
      ],
      "CannotPauseIfUnpauseInProgress()": [
        {
          "notice": "error to denote unpause is in progress, hence cannot pause"
        }
      ],
      "CannotUnpauseIfPauseInProgress()": [
        {
          "notice": "error to denote pause is in progress, hence cannot unpause"
        }
      ],
      "CollateralDoesNotExist(uint32)": [
        {
          "notice": "error to denote usage of uninitialized token"
        }
      ],
      "CollateralNotAllowedForUse(uint32)": [
        {
          "notice": "error to denote usage of unsupported collateral token"
        }
      ],
      "IncorrectCollateralAddress(address,address)": [
        {
          "notice": "error to denote incorrect address is supplied while updating collateral settings"
        }
      ],
      "InvalidCollateralAddress(address)": [
        {
          "notice": "error to denote invalid address supplied as a collateral token"
        }
      ],
      "InvalidMulticallOperationType(uint8)": [
        {
          "notice": "this is errored when the enum (uint8) value is out of bounds"
        }
      ],
      "InvalidSetting(uint256)": [
        {
          "notice": "error to denote an invalid setting for parameters"
        }
      ],
      "InvalidTokenLiquidationParameters()": [
        {
          "notice": "error to denote invalid token liquidation (fraction to liquidate> 1)"
        }
      ],
      "KeeperFeeNotPositive(int256)": [
        {
          "notice": "error to denote that keeper fee is negative or zero"
        }
      ],
      "LowNotionalValue(uint256)": [
        {
          "notice": "error to denote low notional value of txn"
        }
      ],
      "NotRageTradeFactory()": [
        {
          "notice": "error to denote that caller is not ragetrade factory"
        }
      ],
      "PoolDoesNotExist(uint32)": [
        {
          "notice": "error to denote usage of uninitialized pool"
        }
      ],
      "PoolNotAllowedForTrade(uint32)": [
        {
          "notice": "error to denote usage of unsupported pool"
        }
      ],
      "SlippageBeyondTolerance()": [
        {
          "notice": "error to denote slippage of txn beyond set threshold"
        }
      ],
      "ZeroAmount()": [
        {
          "notice": "error to denote that zero amount is passed and it's prohibited"
        }
      ]
    },
    "events": {
      "AccountCreated(address,uint256)": {
        "notice": "denotes new account creation"
      },
      "CollateralSettingsUpdated(address,(address,uint32,bool))": {
        "notice": "new collateral supported as margin"
      },
      "PoolSettingsUpdated(uint32,(uint16,uint16,uint16,uint32,bool,bool,address))": {
        "notice": "maintainance margin ratio of a pool changed"
      },
      "ProtocolSettingsUpdated((uint16,uint16,uint16,uint16,uint16,uint16,uint64,uint64),uint256,uint256,uint256)": {
        "notice": "protocol settings changed"
      }
    },
    "kind": "user",
    "methods": {
      "acceptGovernanceTransfer()": {
        "notice": "Completes governance transfer, on being called by _governancePending."
      },
      "acceptTeamMultisigTransfer()": {
        "notice": "Completes teamMultisig transfer, on being called by _teamMultisigPending."
      },
      "createAccount()": {
        "notice": "creates a new account and adds it to the accounts map"
      },
      "createAccountAndAddMargin(uint32,uint256)": {
        "notice": "creates a new account and deposits 'amount' of token associated with 'poolId'"
      },
      "extsload(bytes32)": {
        "notice": "Returns a value from the storage."
      },
      "extsload(bytes32[])": {
        "notice": "Returns multiple values from storage."
      },
      "getAccountMarketValueAndRequiredMargin(uint256,bool)": {
        "notice": "Gets the market value and required margin of an account"
      },
      "getAccountNetProfit(uint256)": {
        "notice": "Gets the net profit of an account"
      },
      "getAccountNetTokenPosition(uint256,uint32)": {
        "notice": "Gets the net position of an account"
      },
      "getRealTwapPriceX128(uint32)": {
        "notice": "Gets the real twap price from the respective oracle of the given poolId"
      },
      "getVirtualTwapPriceX128(uint32)": {
        "notice": "Gets the virtual twap price from the respective oracle of the given poolId"
      },
      "governance()": {
        "notice": "Returns the address of the current governance."
      },
      "governancePending()": {
        "notice": "Returns the address of the current governance."
      },
      "initialize(address,address,address,address,address,address,address)": {
        "notice": "SYSTEM FUNCTIONS"
      },
      "initiateGovernanceTransfer(address)": {
        "notice": "Initiates governance transfer to a new account (`newGovernancePending`)."
      },
      "initiateTeamMultisigTransfer(address)": {
        "notice": "Initiates teamMultisig transfer to a new account (`newTeamMultisigPending`)."
      },
      "liquidateLiquidityPositions(uint256)": {
        "notice": "keeper call for liquidation of range position"
      },
      "liquidateTokenPosition(uint256,uint32)": {
        "notice": "keeper call for liquidation of token position"
      },
      "multicall(bytes[])": {
        "notice": "Call multiple functions in the current contract and return the data from all of them if they all succeed"
      },
      "multicallWithSingleMarginCheck(uint256,(uint8,bytes)[])": {
        "notice": "MULTICALL"
      },
      "removeLimitOrder(uint256,uint32,int24,int24)": {
        "notice": "keeper call to remove a limit order"
      },
      "settleProfit(uint256)": {
        "notice": "settles the profit/loss made with the settlement token collateral deposits"
      },
      "swapToken(uint256,uint32,(int256,uint160,bool,bool,bool))": {
        "notice": "swaps token associated with 'poolId' by 'amount' (Long if amount>0 else Short)"
      },
      "teamMultisig()": {
        "notice": "Returns the address of the current team multisig.transferTeamMultisig"
      },
      "teamMultisigPending()": {
        "notice": "Returns the address of the current team multisig.transferTeamMultisig"
      },
      "updateCollateralSettings(address,(address,uint32,bool))": {
        "notice": "ADMIN FUNCTIONS"
      },
      "updateMargin(uint256,uint32,int256)": {
        "notice": "deposits 'amount' of token associated with 'poolId'"
      },
      "updatePoolSettings(uint32,(uint16,uint16,uint16,uint32,bool,bool,address))": {
        "notice": "updates the rage trade pool settings"
      },
      "updateProfit(uint256,int256)": {
        "notice": "withdraws 'amount' of settlement token from the profit made"
      },
      "updateRangeOrder(uint256,uint32,(int24,int24,int128,uint160,uint16,bool,uint8,bool))": {
        "notice": "updates range order of token associated with 'poolId' by 'liquidityDelta' (Adds if amount>0 else Removes)also can be used to update limitOrderType"
      },
      "withdrawProtocolFee(uint256)": {
        "notice": "withdraws protocol fees collected in the supplied wrappers to team multisig"
      }
    },
    "version": 1
  },
  "storageLayout": {
    "storage": [
      {
        "astId": 26758,
        "contract": "contracts/protocol/clearinghouse/ClearingHouse.sol:ClearingHouse",
        "label": "_emptySlots1",
        "offset": 0,
        "slot": "0",
        "type": "t_array(t_uint256)100_storage"
      },
      {
        "astId": 26761,
        "contract": "contracts/protocol/clearinghouse/ClearingHouse.sol:ClearingHouse",
        "label": "protocol",
        "offset": 0,
        "slot": "100",
        "type": "t_struct(Info)17645_storage"
      },
      {
        "astId": 26763,
        "contract": "contracts/protocol/clearinghouse/ClearingHouse.sol:ClearingHouse",
        "label": "numAccounts",
        "offset": 0,
        "slot": "210",
        "type": "t_uint256"
      },
      {
        "astId": 26768,
        "contract": "contracts/protocol/clearinghouse/ClearingHouse.sol:ClearingHouse",
        "label": "accounts",
        "offset": 0,
        "slot": "211",
        "type": "t_mapping(t_uint256,t_struct(Info)13042_storage)"
      },
      {
        "astId": 26770,
        "contract": "contracts/protocol/clearinghouse/ClearingHouse.sol:ClearingHouse",
        "label": "rageTradeFactoryAddress",
        "offset": 0,
        "slot": "212",
        "type": "t_address"
      },
      {
        "astId": 26773,
        "contract": "contracts/protocol/clearinghouse/ClearingHouse.sol:ClearingHouse",
        "label": "insuranceFund",
        "offset": 0,
        "slot": "213",
        "type": "t_contract(IInsuranceFund)11389"
      },
      {
        "astId": 26776,
        "contract": "contracts/protocol/clearinghouse/ClearingHouse.sol:ClearingHouse",
        "label": "pauseLoop",
        "offset": 0,
        "slot": "214",
        "type": "t_struct(Info)14472_storage"
      },
      {
        "astId": 26779,
        "contract": "contracts/protocol/clearinghouse/ClearingHouse.sol:ClearingHouse",
        "label": "unpauseLoop",
        "offset": 0,
        "slot": "215",
        "type": "t_struct(Info)14472_storage"
      },
      {
        "astId": 26782,
        "contract": "contracts/protocol/clearinghouse/ClearingHouse.sol:ClearingHouse",
        "label": "withdrawProtocolFeeLoop",
        "offset": 0,
        "slot": "216",
        "type": "t_struct(Info)14472_storage"
      },
      {
        "astId": 26786,
        "contract": "contracts/protocol/clearinghouse/ClearingHouse.sol:ClearingHouse",
        "label": "_emptySlots2",
        "offset": 0,
        "slot": "217",
        "type": "t_array(t_uint256)100_storage"
      },
      {
        "astId": 93,
        "contract": "contracts/protocol/clearinghouse/ClearingHouse.sol:ClearingHouse",
        "label": "_initialized",
        "offset": 0,
        "slot": "317",
        "type": "t_bool"
      },
      {
        "astId": 96,
        "contract": "contracts/protocol/clearinghouse/ClearingHouse.sol:ClearingHouse",
        "label": "_initializing",
        "offset": 1,
        "slot": "317",
        "type": "t_bool"
      },
      {
        "astId": 1271,
        "contract": "contracts/protocol/clearinghouse/ClearingHouse.sol:ClearingHouse",
        "label": "__gap",
        "offset": 0,
        "slot": "318",
        "type": "t_array(t_uint256)50_storage"
      },
      {
        "astId": 181,
        "contract": "contracts/protocol/clearinghouse/ClearingHouse.sol:ClearingHouse",
        "label": "_paused",
        "offset": 0,
        "slot": "368",
        "type": "t_bool"
      },
      {
        "astId": 270,
        "contract": "contracts/protocol/clearinghouse/ClearingHouse.sol:ClearingHouse",
        "label": "__gap",
        "offset": 0,
        "slot": "369",
        "type": "t_array(t_uint256)49_storage"
      },
      {
        "astId": 35294,
        "contract": "contracts/protocol/clearinghouse/ClearingHouse.sol:ClearingHouse",
        "label": "_governance",
        "offset": 0,
        "slot": "418",
        "type": "t_address"
      },
      {
        "astId": 35296,
        "contract": "contracts/protocol/clearinghouse/ClearingHouse.sol:ClearingHouse",
        "label": "_teamMultisig",
        "offset": 0,
        "slot": "419",
        "type": "t_address"
      },
      {
        "astId": 35298,
        "contract": "contracts/protocol/clearinghouse/ClearingHouse.sol:ClearingHouse",
        "label": "_governancePending",
        "offset": 0,
        "slot": "420",
        "type": "t_address"
      },
      {
        "astId": 35300,
        "contract": "contracts/protocol/clearinghouse/ClearingHouse.sol:ClearingHouse",
        "label": "_teamMultisigPending",
        "offset": 0,
        "slot": "421",
        "type": "t_address"
      }
    ],
    "types": {
      "t_address": {
        "encoding": "inplace",
        "label": "address",
        "numberOfBytes": "20"
      },
      "t_array(t_uint256)100_storage": {
        "base": "t_uint256",
        "encoding": "inplace",
        "label": "uint256[100]",
        "numberOfBytes": "3200"
      },
      "t_array(t_uint256)49_storage": {
        "base": "t_uint256",
        "encoding": "inplace",
        "label": "uint256[49]",
        "numberOfBytes": "1568"
      },
      "t_array(t_uint256)50_storage": {
        "base": "t_uint256",
        "encoding": "inplace",
        "label": "uint256[50]",
        "numberOfBytes": "1600"
      },
      "t_array(t_uint32)8_storage": {
        "base": "t_uint32",
        "encoding": "inplace",
        "label": "uint32[8]",
        "numberOfBytes": "32"
      },
      "t_array(t_uint32)dyn_storage": {
        "base": "t_uint32",
        "encoding": "dynamic_array",
        "label": "uint32[]",
        "numberOfBytes": "32"
      },
      "t_array(t_uint48)5_storage": {
        "base": "t_uint48",
        "encoding": "inplace",
        "label": "uint48[5]",
        "numberOfBytes": "32"
      },
      "t_bool": {
        "encoding": "inplace",
        "label": "bool",
        "numberOfBytes": "1"
      },
      "t_contract(IERC20)4189": {
        "encoding": "inplace",
        "label": "contract IERC20",
        "numberOfBytes": "20"
      },
      "t_contract(IInsuranceFund)11389": {
        "encoding": "inplace",
        "label": "contract IInsuranceFund",
        "numberOfBytes": "20"
      },
      "t_contract(IOracle)11399": {
        "encoding": "inplace",
        "label": "contract IOracle",
        "numberOfBytes": "20"
      },
      "t_contract(IUniswapV3Pool)6184": {
        "encoding": "inplace",
        "label": "contract IUniswapV3Pool",
        "numberOfBytes": "20"
      },
      "t_contract(IVPoolWrapper)11608": {
        "encoding": "inplace",
        "label": "contract IVPoolWrapper",
        "numberOfBytes": "20"
      },
      "t_contract(IVQuote)11632": {
        "encoding": "inplace",
        "label": "contract IVQuote",
        "numberOfBytes": "20"
      },
      "t_contract(IVToken)11656": {
        "encoding": "inplace",
        "label": "contract IVToken",
        "numberOfBytes": "20"
      },
      "t_enum(LimitOrderType)11856": {
        "encoding": "inplace",
        "label": "enum IClearingHouseEnums.LimitOrderType",
        "numberOfBytes": "1"
      },
      "t_int24": {
        "encoding": "inplace",
        "label": "int24",
        "numberOfBytes": "3"
      },
      "t_int256": {
        "encoding": "inplace",
        "label": "int256",
        "numberOfBytes": "32"
      },
      "t_mapping(t_uint256,t_struct(Info)13042_storage)": {
        "encoding": "mapping",
        "key": "t_uint256",
        "label": "mapping(uint256 => struct Account.Info)",
        "numberOfBytes": "32",
        "value": "t_struct(Info)13042_storage"
      },
      "t_mapping(t_uint32,t_struct(Collateral)11995_storage)": {
        "encoding": "mapping",
        "key": "t_uint32",
        "label": "mapping(uint32 => struct IClearingHouseStructures.Collateral)",
        "numberOfBytes": "32",
        "value": "t_struct(Collateral)11995_storage"
      },
      "t_mapping(t_uint32,t_struct(Info)21337_storage)": {
        "encoding": "mapping",
        "key": "t_uint32",
        "label": "mapping(uint32 => struct VTokenPosition.Info)",
        "numberOfBytes": "32",
        "value": "t_struct(Info)21337_storage"
      },
      "t_mapping(t_uint32,t_struct(Pool)12083_storage)": {
        "encoding": "mapping",
        "key": "t_uint32",
        "label": "mapping(uint32 => struct IClearingHouseStructures.Pool)",
        "numberOfBytes": "32",
        "value": "t_struct(Pool)12083_storage"
      },
      "t_mapping(t_uint32,t_struct(PriceCache)17607_storage)": {
        "encoding": "mapping",
        "key": "t_uint32",
        "label": "mapping(uint32 => struct Protocol.PriceCache)",
        "numberOfBytes": "32",
        "value": "t_struct(PriceCache)17607_storage"
      },
      "t_mapping(t_uint32,t_uint256)": {
        "encoding": "mapping",
        "key": "t_uint32",
        "label": "mapping(uint32 => uint256)",
        "numberOfBytes": "32",
        "value": "t_uint256"
      },
      "t_mapping(t_uint48,t_struct(Info)15527_storage)": {
        "encoding": "mapping",
        "key": "t_uint48",
        "label": "mapping(uint48 => struct LiquidityPosition.Info)",
        "numberOfBytes": "32",
        "value": "t_struct(Info)15527_storage"
      },
      "t_struct(Collateral)11995_storage": {
        "encoding": "inplace",
        "label": "struct IClearingHouseStructures.Collateral",
        "members": [
          {
            "astId": 11991,
            "contract": "contracts/protocol/clearinghouse/ClearingHouse.sol:ClearingHouse",
            "label": "token",
            "offset": 0,
            "slot": "0",
            "type": "t_contract(IERC20)4189"
          },
          {
            "astId": 11994,
            "contract": "contracts/protocol/clearinghouse/ClearingHouse.sol:ClearingHouse",
            "label": "settings",
            "offset": 0,
            "slot": "1",
            "type": "t_struct(CollateralSettings)12003_storage"
          }
        ],
        "numberOfBytes": "64"
      },
      "t_struct(CollateralSettings)12003_storage": {
        "encoding": "inplace",
        "label": "struct IClearingHouseStructures.CollateralSettings",
        "members": [
          {
            "astId": 11998,
            "contract": "contracts/protocol/clearinghouse/ClearingHouse.sol:ClearingHouse",
            "label": "oracle",
            "offset": 0,
            "slot": "0",
            "type": "t_contract(IOracle)11399"
          },
          {
            "astId": 12000,
            "contract": "contracts/protocol/clearinghouse/ClearingHouse.sol:ClearingHouse",
            "label": "twapDuration",
            "offset": 20,
            "slot": "0",
            "type": "t_uint32"
          },
          {
            "astId": 12002,
            "contract": "contracts/protocol/clearinghouse/ClearingHouse.sol:ClearingHouse",
            "label": "isAllowedForDeposit",
            "offset": 24,
            "slot": "0",
            "type": "t_bool"
          }
        ],
        "numberOfBytes": "32"
      },
      "t_struct(Info)13042_storage": {
        "encoding": "inplace",
        "label": "struct Account.Info",
        "members": [
          {
            "astId": 13029,
            "contract": "contracts/protocol/clearinghouse/ClearingHouse.sol:ClearingHouse",
            "label": "id",
            "offset": 0,
            "slot": "0",
            "type": "t_uint96"
          },
          {
            "astId": 13031,
            "contract": "contracts/protocol/clearinghouse/ClearingHouse.sol:ClearingHouse",
            "label": "owner",
            "offset": 12,
            "slot": "0",
            "type": "t_address"
          },
          {
            "astId": 13034,
            "contract": "contracts/protocol/clearinghouse/ClearingHouse.sol:ClearingHouse",
            "label": "tokenPositions",
            "offset": 0,
            "slot": "1",
            "type": "t_struct(Set)21323_storage"
          },
          {
            "astId": 13037,
            "contract": "contracts/protocol/clearinghouse/ClearingHouse.sol:ClearingHouse",
            "label": "collateralDeposits",
            "offset": 0,
            "slot": "104",
            "type": "t_struct(Set)14796_storage"
          },
          {
            "astId": 13041,
            "contract": "contracts/protocol/clearinghouse/ClearingHouse.sol:ClearingHouse",
            "label": "_emptySlots",
            "offset": 0,
            "slot": "206",
            "type": "t_array(t_uint256)100_storage"
          }
        ],
        "numberOfBytes": "9792"
      },
      "t_struct(Info)14472_storage": {
        "encoding": "inplace",
        "label": "struct BatchedLoop.Info",
        "members": [
          {
            "astId": 14471,
            "contract": "contracts/protocol/clearinghouse/ClearingHouse.sol:ClearingHouse",
            "label": "progress",
            "offset": 0,
            "slot": "0",
            "type": "t_uint256"
          }
        ],
        "numberOfBytes": "32"
      },
      "t_struct(Info)15527_storage": {
        "encoding": "inplace",
        "label": "struct LiquidityPosition.Info",
        "members": [
          {
            "astId": 15506,
            "contract": "contracts/protocol/clearinghouse/ClearingHouse.sol:ClearingHouse",
            "label": "limitOrderType",
            "offset": 0,
            "slot": "0",
            "type": "t_enum(LimitOrderType)11856"
          },
          {
            "astId": 15508,
            "contract": "contracts/protocol/clearinghouse/ClearingHouse.sol:ClearingHouse",
            "label": "tickLower",
            "offset": 1,
            "slot": "0",
            "type": "t_int24"
          },
          {
            "astId": 15510,
            "contract": "contracts/protocol/clearinghouse/ClearingHouse.sol:ClearingHouse",
            "label": "tickUpper",
            "offset": 4,
            "slot": "0",
            "type": "t_int24"
          },
          {
            "astId": 15512,
            "contract": "contracts/protocol/clearinghouse/ClearingHouse.sol:ClearingHouse",
            "label": "liquidity",
            "offset": 7,
            "slot": "0",
            "type": "t_uint128"
          },
          {
            "astId": 15514,
            "contract": "contracts/protocol/clearinghouse/ClearingHouse.sol:ClearingHouse",
            "label": "vTokenAmountIn",
            "offset": 0,
            "slot": "1",
            "type": "t_int256"
          },
          {
            "astId": 15516,
            "contract": "contracts/protocol/clearinghouse/ClearingHouse.sol:ClearingHouse",
            "label": "sumALastX128",
            "offset": 0,
            "slot": "2",
            "type": "t_int256"
          },
          {
            "astId": 15518,
            "contract": "contracts/protocol/clearinghouse/ClearingHouse.sol:ClearingHouse",
            "label": "sumBInsideLastX128",
            "offset": 0,
            "slot": "3",
            "type": "t_int256"
          },
          {
            "astId": 15520,
            "contract": "contracts/protocol/clearinghouse/ClearingHouse.sol:ClearingHouse",
            "label": "sumFpInsideLastX128",
            "offset": 0,
            "slot": "4",
            "type": "t_int256"
          },
          {
            "astId": 15522,
            "contract": "contracts/protocol/clearinghouse/ClearingHouse.sol:ClearingHouse",
            "label": "sumFeeInsideLastX128",
            "offset": 0,
            "slot": "5",
            "type": "t_uint256"
          },
          {
            "astId": 15526,
            "contract": "contracts/protocol/clearinghouse/ClearingHouse.sol:ClearingHouse",
            "label": "_emptySlots",
            "offset": 0,
            "slot": "6",
            "type": "t_array(t_uint256)100_storage"
          }
        ],
        "numberOfBytes": "3392"
      },
      "t_struct(Info)17645_storage": {
        "encoding": "inplace",
        "label": "struct Protocol.Info",
        "members": [
          {
            "astId": 17612,
            "contract": "contracts/protocol/clearinghouse/ClearingHouse.sol:ClearingHouse",
            "label": "pools",
            "offset": 0,
            "slot": "0",
            "type": "t_mapping(t_uint32,t_struct(Pool)12083_storage)"
          },
          {
            "astId": 17617,
            "contract": "contracts/protocol/clearinghouse/ClearingHouse.sol:ClearingHouse",
            "label": "collaterals",
            "offset": 0,
            "slot": "1",
            "type": "t_mapping(t_uint32,t_struct(Collateral)11995_storage)"
          },
          {
            "astId": 17620,
            "contract": "contracts/protocol/clearinghouse/ClearingHouse.sol:ClearingHouse",
            "label": "poolIds",
            "offset": 0,
            "slot": "2",
            "type": "t_array(t_uint32)dyn_storage"
          },
          {
            "astId": 17623,
            "contract": "contracts/protocol/clearinghouse/ClearingHouse.sol:ClearingHouse",
            "label": "settlementToken",
            "offset": 0,
            "slot": "3",
            "type": "t_contract(IERC20)4189"
          },
          {
            "astId": 17626,
            "contract": "contracts/protocol/clearinghouse/ClearingHouse.sol:ClearingHouse",
            "label": "vQuote",
            "offset": 0,
            "slot": "4",
            "type": "t_contract(IVQuote)11632"
          },
          {
            "astId": 17629,
            "contract": "contracts/protocol/clearinghouse/ClearingHouse.sol:ClearingHouse",
            "label": "liquidationParams",
            "offset": 0,
            "slot": "5",
            "type": "t_struct(LiquidationParams)12064_storage"
          },
          {
            "astId": 17631,
            "contract": "contracts/protocol/clearinghouse/ClearingHouse.sol:ClearingHouse",
            "label": "minRequiredMargin",
            "offset": 0,
            "slot": "6",
            "type": "t_uint256"
          },
          {
            "astId": 17633,
            "contract": "contracts/protocol/clearinghouse/ClearingHouse.sol:ClearingHouse",
            "label": "removeLimitOrderFee",
            "offset": 0,
            "slot": "7",
            "type": "t_uint256"
          },
          {
            "astId": 17635,
            "contract": "contracts/protocol/clearinghouse/ClearingHouse.sol:ClearingHouse",
            "label": "minimumOrderNotional",
            "offset": 0,
            "slot": "8",
            "type": "t_uint256"
          },
          {
            "astId": 17640,
            "contract": "contracts/protocol/clearinghouse/ClearingHouse.sol:ClearingHouse",
            "label": "priceCache",
            "offset": 0,
            "slot": "9",
            "type": "t_mapping(t_uint32,t_struct(PriceCache)17607_storage)"
          },
          {
            "astId": 17644,
            "contract": "contracts/protocol/clearinghouse/ClearingHouse.sol:ClearingHouse",
            "label": "_emptySlots",
            "offset": 0,
            "slot": "10",
            "type": "t_array(t_uint256)100_storage"
          }
        ],
        "numberOfBytes": "3520"
      },
      "t_struct(Info)21337_storage": {
        "encoding": "inplace",
        "label": "struct VTokenPosition.Info",
        "members": [
          {
            "astId": 21325,
            "contract": "contracts/protocol/clearinghouse/ClearingHouse.sol:ClearingHouse",
            "label": "balance",
            "offset": 0,
            "slot": "0",
            "type": "t_int256"
          },
          {
            "astId": 21327,
            "contract": "contracts/protocol/clearinghouse/ClearingHouse.sol:ClearingHouse",
            "label": "netTraderPosition",
            "offset": 0,
            "slot": "1",
            "type": "t_int256"
          },
          {
            "astId": 21329,
            "contract": "contracts/protocol/clearinghouse/ClearingHouse.sol:ClearingHouse",
            "label": "sumALastX128",
            "offset": 0,
            "slot": "2",
            "type": "t_int256"
          },
          {
            "astId": 21332,
            "contract": "contracts/protocol/clearinghouse/ClearingHouse.sol:ClearingHouse",
            "label": "liquidityPositions",
            "offset": 0,
            "slot": "3",
            "type": "t_struct(Set)15503_storage"
          },
          {
            "astId": 21336,
            "contract": "contracts/protocol/clearinghouse/ClearingHouse.sol:ClearingHouse",
            "label": "_emptySlots",
            "offset": 0,
            "slot": "105",
            "type": "t_array(t_uint256)100_storage"
          }
        ],
        "numberOfBytes": "6560"
      },
      "t_struct(LiquidationParams)12064_storage": {
        "encoding": "inplace",
        "label": "struct IClearingHouseStructures.LiquidationParams",
        "members": [
          {
            "astId": 12049,
            "contract": "contracts/protocol/clearinghouse/ClearingHouse.sol:ClearingHouse",
            "label": "rangeLiquidationFeeFraction",
            "offset": 0,
            "slot": "0",
            "type": "t_uint16"
          },
          {
            "astId": 12051,
            "contract": "contracts/protocol/clearinghouse/ClearingHouse.sol:ClearingHouse",
            "label": "tokenLiquidationFeeFraction",
            "offset": 2,
            "slot": "0",
            "type": "t_uint16"
          },
          {
            "astId": 12053,
            "contract": "contracts/protocol/clearinghouse/ClearingHouse.sol:ClearingHouse",
            "label": "closeFactorMMThresholdBps",
            "offset": 4,
            "slot": "0",
            "type": "t_uint16"
          },
          {
            "astId": 12055,
            "contract": "contracts/protocol/clearinghouse/ClearingHouse.sol:ClearingHouse",
            "label": "partialLiquidationCloseFactorBps",
            "offset": 6,
            "slot": "0",
            "type": "t_uint16"
          },
          {
            "astId": 12057,
            "contract": "contracts/protocol/clearinghouse/ClearingHouse.sol:ClearingHouse",
            "label": "insuranceFundFeeShareBps",
            "offset": 8,
            "slot": "0",
            "type": "t_uint16"
          },
          {
            "astId": 12059,
            "contract": "contracts/protocol/clearinghouse/ClearingHouse.sol:ClearingHouse",
            "label": "liquidationSlippageSqrtToleranceBps",
            "offset": 10,
            "slot": "0",
            "type": "t_uint16"
          },
          {
            "astId": 12061,
            "contract": "contracts/protocol/clearinghouse/ClearingHouse.sol:ClearingHouse",
            "label": "maxRangeLiquidationFees",
            "offset": 12,
            "slot": "0",
            "type": "t_uint64"
          },
          {
            "astId": 12063,
            "contract": "contracts/protocol/clearinghouse/ClearingHouse.sol:ClearingHouse",
            "label": "minNotionalLiquidatable",
            "offset": 20,
            "slot": "0",
            "type": "t_uint64"
          }
        ],
        "numberOfBytes": "32"
      },
      "t_struct(Pool)12083_storage": {
        "encoding": "inplace",
        "label": "struct IClearingHouseStructures.Pool",
        "members": [
          {
            "astId": 12073,
            "contract": "contracts/protocol/clearinghouse/ClearingHouse.sol:ClearingHouse",
            "label": "vToken",
            "offset": 0,
            "slot": "0",
            "type": "t_contract(IVToken)11656"
          },
          {
            "astId": 12076,
            "contract": "contracts/protocol/clearinghouse/ClearingHouse.sol:ClearingHouse",
            "label": "vPool",
            "offset": 0,
            "slot": "1",
            "type": "t_contract(IUniswapV3Pool)6184"
          },
          {
            "astId": 12079,
            "contract": "contracts/protocol/clearinghouse/ClearingHouse.sol:ClearingHouse",
            "label": "vPoolWrapper",
            "offset": 0,
            "slot": "2",
            "type": "t_contract(IVPoolWrapper)11608"
          },
          {
            "astId": 12082,
            "contract": "contracts/protocol/clearinghouse/ClearingHouse.sol:ClearingHouse",
            "label": "settings",
            "offset": 0,
            "slot": "3",
            "type": "t_struct(PoolSettings)12099_storage"
          }
        ],
        "numberOfBytes": "128"
      },
      "t_struct(PoolSettings)12099_storage": {
        "encoding": "inplace",
        "label": "struct IClearingHouseStructures.PoolSettings",
        "members": [
          {
            "astId": 12085,
            "contract": "contracts/protocol/clearinghouse/ClearingHouse.sol:ClearingHouse",
            "label": "initialMarginRatioBps",
            "offset": 0,
            "slot": "0",
            "type": "t_uint16"
          },
          {
            "astId": 12087,
            "contract": "contracts/protocol/clearinghouse/ClearingHouse.sol:ClearingHouse",
            "label": "maintainanceMarginRatioBps",
            "offset": 2,
            "slot": "0",
            "type": "t_uint16"
          },
          {
            "astId": 12089,
            "contract": "contracts/protocol/clearinghouse/ClearingHouse.sol:ClearingHouse",
            "label": "maxVirtualPriceDeviationRatioBps",
            "offset": 4,
            "slot": "0",
            "type": "t_uint16"
          },
          {
            "astId": 12091,
            "contract": "contracts/protocol/clearinghouse/ClearingHouse.sol:ClearingHouse",
            "label": "twapDuration",
            "offset": 6,
            "slot": "0",
            "type": "t_uint32"
          },
          {
            "astId": 12093,
            "contract": "contracts/protocol/clearinghouse/ClearingHouse.sol:ClearingHouse",
            "label": "isAllowedForTrade",
            "offset": 10,
            "slot": "0",
            "type": "t_bool"
          },
          {
            "astId": 12095,
            "contract": "contracts/protocol/clearinghouse/ClearingHouse.sol:ClearingHouse",
            "label": "isCrossMargined",
            "offset": 11,
            "slot": "0",
            "type": "t_bool"
          },
          {
            "astId": 12098,
            "contract": "contracts/protocol/clearinghouse/ClearingHouse.sol:ClearingHouse",
            "label": "oracle",
            "offset": 12,
            "slot": "0",
            "type": "t_contract(IOracle)11399"
          }
        ],
        "numberOfBytes": "32"
      },
      "t_struct(PriceCache)17607_storage": {
        "encoding": "inplace",
        "label": "struct Protocol.PriceCache",
        "members": [
          {
            "astId": 17600,
            "contract": "contracts/protocol/clearinghouse/ClearingHouse.sol:ClearingHouse",
            "label": "updateBlockNumber",
            "offset": 0,
            "slot": "0",
            "type": "t_uint32"
          },
          {
            "astId": 17602,
            "contract": "contracts/protocol/clearinghouse/ClearingHouse.sol:ClearingHouse",
            "label": "virtualPriceX128",
            "offset": 4,
            "slot": "0",
            "type": "t_uint224"
          },
          {
            "astId": 17604,
            "contract": "contracts/protocol/clearinghouse/ClearingHouse.sol:ClearingHouse",
            "label": "realPriceX128",
            "offset": 0,
            "slot": "1",
            "type": "t_uint224"
          },
          {
            "astId": 17606,
            "contract": "contracts/protocol/clearinghouse/ClearingHouse.sol:ClearingHouse",
            "label": "isDeviationBreached",
            "offset": 28,
            "slot": "1",
            "type": "t_bool"
          }
        ],
        "numberOfBytes": "64"
      },
      "t_struct(Set)14796_storage": {
        "encoding": "inplace",
        "label": "struct CollateralDeposit.Set",
        "members": [
          {
            "astId": 14787,
            "contract": "contracts/protocol/clearinghouse/ClearingHouse.sol:ClearingHouse",
            "label": "active",
            "offset": 0,
            "slot": "0",
            "type": "t_array(t_uint32)8_storage"
          },
          {
            "astId": 14791,
            "contract": "contracts/protocol/clearinghouse/ClearingHouse.sol:ClearingHouse",
            "label": "deposits",
            "offset": 0,
            "slot": "1",
            "type": "t_mapping(t_uint32,t_uint256)"
          },
          {
            "astId": 14795,
            "contract": "contracts/protocol/clearinghouse/ClearingHouse.sol:ClearingHouse",
            "label": "_emptySlots",
            "offset": 0,
            "slot": "2",
            "type": "t_array(t_uint256)100_storage"
          }
        ],
        "numberOfBytes": "3264"
      },
      "t_struct(Set)15503_storage": {
        "encoding": "inplace",
        "label": "struct LiquidityPosition.Set",
        "members": [
          {
            "astId": 15493,
            "contract": "contracts/protocol/clearinghouse/ClearingHouse.sol:ClearingHouse",
            "label": "active",
            "offset": 0,
            "slot": "0",
            "type": "t_array(t_uint48)5_storage"
          },
          {
            "astId": 15498,
            "contract": "contracts/protocol/clearinghouse/ClearingHouse.sol:ClearingHouse",
            "label": "positions",
            "offset": 0,
            "slot": "1",
            "type": "t_mapping(t_uint48,t_struct(Info)15527_storage)"
          },
          {
            "astId": 15502,
            "contract": "contracts/protocol/clearinghouse/ClearingHouse.sol:ClearingHouse",
            "label": "_emptySlots",
            "offset": 0,
            "slot": "2",
            "type": "t_array(t_uint256)100_storage"
          }
        ],
        "numberOfBytes": "3264"
      },
      "t_struct(Set)21323_storage": {
        "encoding": "inplace",
        "label": "struct VTokenPosition.Set",
        "members": [
          {
            "astId": 21311,
            "contract": "contracts/protocol/clearinghouse/ClearingHouse.sol:ClearingHouse",
            "label": "active",
            "offset": 0,
            "slot": "0",
            "type": "t_array(t_uint32)8_storage"
          },
          {
            "astId": 21316,
            "contract": "contracts/protocol/clearinghouse/ClearingHouse.sol:ClearingHouse",
            "label": "positions",
            "offset": 0,
            "slot": "1",
            "type": "t_mapping(t_uint32,t_struct(Info)21337_storage)"
          },
          {
            "astId": 21318,
            "contract": "contracts/protocol/clearinghouse/ClearingHouse.sol:ClearingHouse",
            "label": "vQuoteBalance",
            "offset": 0,
            "slot": "2",
            "type": "t_int256"
          },
          {
            "astId": 21322,
            "contract": "contracts/protocol/clearinghouse/ClearingHouse.sol:ClearingHouse",
            "label": "_emptySlots",
            "offset": 0,
            "slot": "3",
            "type": "t_array(t_uint256)100_storage"
          }
        ],
        "numberOfBytes": "3296"
      },
      "t_uint128": {
        "encoding": "inplace",
        "label": "uint128",
        "numberOfBytes": "16"
      },
      "t_uint16": {
        "encoding": "inplace",
        "label": "uint16",
        "numberOfBytes": "2"
      },
      "t_uint224": {
        "encoding": "inplace",
        "label": "uint224",
        "numberOfBytes": "28"
      },
      "t_uint256": {
        "encoding": "inplace",
        "label": "uint256",
        "numberOfBytes": "32"
      },
      "t_uint32": {
        "encoding": "inplace",
        "label": "uint32",
        "numberOfBytes": "4"
      },
      "t_uint48": {
        "encoding": "inplace",
        "label": "uint48",
        "numberOfBytes": "6"
      },
      "t_uint64": {
        "encoding": "inplace",
        "label": "uint64",
        "numberOfBytes": "8"
      },
      "t_uint96": {
        "encoding": "inplace",
        "label": "uint96",
        "numberOfBytes": "12"
      }
    }
  }
}