{
  "address": "0xb10C6B050da0Ca0249fa38750281143efDe2feDA",
  "abi": [
    {
      "inputs": [
        {
          "internalType": "address",
          "name": "senderAddress",
          "type": "address"
        }
      ],
      "name": "AccessDenied",
      "type": "error"
    },
    {
      "inputs": [],
      "name": "CannotPauseIfUnpauseInProgress",
      "type": "error"
    },
    {
      "inputs": [],
      "name": "CannotUnpauseIfPauseInProgress",
      "type": "error"
    },
    {
      "inputs": [
        {
          "internalType": "uint32",
          "name": "collateralId",
          "type": "uint32"
        }
      ],
      "name": "CollateralDoesNotExist",
      "type": "error"
    },
    {
      "inputs": [
        {
          "internalType": "uint32",
          "name": "collateralId",
          "type": "uint32"
        }
      ],
      "name": "CollateralNotAllowedForUse",
      "type": "error"
    },
    {
      "inputs": [
        {
          "internalType": "uint160",
          "name": "sqrtPriceX96",
          "type": "uint160"
        }
      ],
      "name": "IllegalSqrtPrice",
      "type": "error"
    },
    {
      "inputs": [
        {
          "internalType": "contract IERC20",
          "name": "incorrectAddress",
          "type": "address"
        },
        {
          "internalType": "contract IERC20",
          "name": "correctAddress",
          "type": "address"
        }
      ],
      "name": "IncorrectCollateralAddress",
      "type": "error"
    },
    {
      "inputs": [
        {
          "internalType": "address",
          "name": "invalidAddress",
          "type": "address"
        }
      ],
      "name": "InvalidCollateralAddress",
      "type": "error"
    },
    {
      "inputs": [
        {
          "internalType": "enum IClearingHouseEnums.MulticallOperationType",
          "name": "multicallOperationType",
          "type": "uint8"
        }
      ],
      "name": "InvalidMulticallOperationType",
      "type": "error"
    },
    {
      "inputs": [
        {
          "internalType": "uint256",
          "name": "errorCode",
          "type": "uint256"
        }
      ],
      "name": "InvalidSetting",
      "type": "error"
    },
    {
      "inputs": [],
      "name": "InvalidTokenLiquidationParameters",
      "type": "error"
    },
    {
      "inputs": [
        {
          "internalType": "int256",
          "name": "keeperFee",
          "type": "int256"
        }
      ],
      "name": "KeeperFeeNotPositive",
      "type": "error"
    },
    {
      "inputs": [
        {
          "internalType": "uint256",
          "name": "notionalValue",
          "type": "uint256"
        }
      ],
      "name": "LowNotionalValue",
      "type": "error"
    },
    {
      "inputs": [],
      "name": "NotRageTradeFactory",
      "type": "error"
    },
    {
      "inputs": [
        {
          "internalType": "uint32",
          "name": "poolId",
          "type": "uint32"
        }
      ],
      "name": "PoolDoesNotExist",
      "type": "error"
    },
    {
      "inputs": [
        {
          "internalType": "uint32",
          "name": "poolId",
          "type": "uint32"
        }
      ],
      "name": "PoolNotAllowedForTrade",
      "type": "error"
    },
    {
      "inputs": [
        {
          "internalType": "uint256",
          "name": "value",
          "type": "uint256"
        }
      ],
      "name": "SafeCast_UInt224Overflow",
      "type": "error"
    },
    {
      "inputs": [],
      "name": "SlippageBeyondTolerance",
      "type": "error"
    },
    {
      "inputs": [],
      "name": "T",
      "type": "error"
    },
    {
      "inputs": [],
      "name": "Unauthorised",
      "type": "error"
    },
    {
      "inputs": [],
      "name": "ZeroAddress",
      "type": "error"
    },
    {
      "inputs": [],
      "name": "ZeroAmount",
      "type": "error"
    },
    {
      "anonymous": false,
      "inputs": [
        {
          "indexed": true,
          "internalType": "address",
          "name": "ownerAddress",
          "type": "address"
        },
        {
          "indexed": false,
          "internalType": "uint256",
          "name": "accountId",
          "type": "uint256"
        }
      ],
      "name": "AccountCreated",
      "type": "event"
    },
    {
      "anonymous": false,
      "inputs": [
        {
          "indexed": false,
          "internalType": "contract IERC20",
          "name": "cToken",
          "type": "address"
        },
        {
          "components": [
            {
              "internalType": "contract IOracle",
              "name": "oracle",
              "type": "address"
            },
            {
              "internalType": "uint32",
              "name": "twapDuration",
              "type": "uint32"
            },
            {
              "internalType": "bool",
              "name": "isAllowedForDeposit",
              "type": "bool"
            }
          ],
          "indexed": false,
          "internalType": "struct IClearingHouseStructures.CollateralSettings",
          "name": "cTokenInfo",
          "type": "tuple"
        }
      ],
      "name": "CollateralSettingsUpdated",
      "type": "event"
    },
    {
      "anonymous": false,
      "inputs": [
        {
          "indexed": true,
          "internalType": "address",
          "name": "previousGovernancePending",
          "type": "address"
        },
        {
          "indexed": true,
          "internalType": "address",
          "name": "newGovernancePending",
          "type": "address"
        }
      ],
      "name": "GovernancePending",
      "type": "event"
    },
    {
      "anonymous": false,
      "inputs": [
        {
          "indexed": true,
          "internalType": "address",
          "name": "previousGovernance",
          "type": "address"
        },
        {
          "indexed": true,
          "internalType": "address",
          "name": "newGovernance",
          "type": "address"
        }
      ],
      "name": "GovernanceTransferred",
      "type": "event"
    },
    {
      "anonymous": false,
      "inputs": [
        {
          "indexed": false,
          "internalType": "address",
          "name": "account",
          "type": "address"
        }
      ],
      "name": "Paused",
      "type": "event"
    },
    {
      "anonymous": false,
      "inputs": [
        {
          "indexed": false,
          "internalType": "bool",
          "name": "paused",
          "type": "bool"
        }
      ],
      "name": "PausedUpdated",
      "type": "event"
    },
    {
      "anonymous": false,
      "inputs": [
        {
          "indexed": false,
          "internalType": "uint32",
          "name": "poolId",
          "type": "uint32"
        },
        {
          "components": [
            {
              "internalType": "uint16",
              "name": "initialMarginRatioBps",
              "type": "uint16"
            },
            {
              "internalType": "uint16",
              "name": "maintainanceMarginRatioBps",
              "type": "uint16"
            },
            {
              "internalType": "uint16",
              "name": "maxVirtualPriceDeviationRatioBps",
              "type": "uint16"
            },
            {
              "internalType": "uint32",
              "name": "twapDuration",
              "type": "uint32"
            },
            {
              "internalType": "bool",
              "name": "isAllowedForTrade",
              "type": "bool"
            },
            {
              "internalType": "bool",
              "name": "isCrossMargined",
              "type": "bool"
            },
            {
              "internalType": "contract IOracle",
              "name": "oracle",
              "type": "address"
            }
          ],
          "indexed": false,
          "internalType": "struct IClearingHouseStructures.PoolSettings",
          "name": "settings",
          "type": "tuple"
        }
      ],
      "name": "PoolSettingsUpdated",
      "type": "event"
    },
    {
      "anonymous": false,
      "inputs": [
        {
          "components": [
            {
              "internalType": "uint16",
              "name": "rangeLiquidationFeeFraction",
              "type": "uint16"
            },
            {
              "internalType": "uint16",
              "name": "tokenLiquidationFeeFraction",
              "type": "uint16"
            },
            {
              "internalType": "uint16",
              "name": "closeFactorMMThresholdBps",
              "type": "uint16"
            },
            {
              "internalType": "uint16",
              "name": "partialLiquidationCloseFactorBps",
              "type": "uint16"
            },
            {
              "internalType": "uint16",
              "name": "insuranceFundFeeShareBps",
              "type": "uint16"
            },
            {
              "internalType": "uint16",
              "name": "liquidationSlippageSqrtToleranceBps",
              "type": "uint16"
            },
            {
              "internalType": "uint64",
              "name": "maxRangeLiquidationFees",
              "type": "uint64"
            },
            {
              "internalType": "uint64",
              "name": "minNotionalLiquidatable",
              "type": "uint64"
            }
          ],
          "indexed": false,
          "internalType": "struct IClearingHouseStructures.LiquidationParams",
          "name": "liquidationParams",
          "type": "tuple"
        },
        {
          "indexed": false,
          "internalType": "uint256",
          "name": "removeLimitOrderFee",
          "type": "uint256"
        },
        {
          "indexed": false,
          "internalType": "uint256",
          "name": "minimumOrderNotional",
          "type": "uint256"
        },
        {
          "indexed": false,
          "internalType": "uint256",
          "name": "minRequiredMargin",
          "type": "uint256"
        }
      ],
      "name": "ProtocolSettingsUpdated",
      "type": "event"
    },
    {
      "anonymous": false,
      "inputs": [
        {
          "indexed": true,
          "internalType": "address",
          "name": "previousTeamMultisigPending",
          "type": "address"
        },
        {
          "indexed": true,
          "internalType": "address",
          "name": "newTeamMultisigPending",
          "type": "address"
        }
      ],
      "name": "TeamMultisigPending",
      "type": "event"
    },
    {
      "anonymous": false,
      "inputs": [
        {
          "indexed": true,
          "internalType": "address",
          "name": "previousTeamMultisig",
          "type": "address"
        },
        {
          "indexed": true,
          "internalType": "address",
          "name": "newTeamMultisig",
          "type": "address"
        }
      ],
      "name": "TeamMultisigTransferred",
      "type": "event"
    },
    {
      "anonymous": false,
      "inputs": [
        {
          "indexed": false,
          "internalType": "address",
          "name": "account",
          "type": "address"
        }
      ],
      "name": "Unpaused",
      "type": "event"
    },
    {
      "inputs": [],
      "name": "acceptGovernanceTransfer",
      "outputs": [],
      "stateMutability": "nonpayable",
      "type": "function"
    },
    {
      "inputs": [],
      "name": "acceptTeamMultisigTransfer",
      "outputs": [],
      "stateMutability": "nonpayable",
      "type": "function"
    },
    {
      "inputs": [],
      "name": "createAccount",
      "outputs": [
        {
          "internalType": "uint256",
          "name": "newAccountId",
          "type": "uint256"
        }
      ],
      "stateMutability": "nonpayable",
      "type": "function"
    },
    {
      "inputs": [
        {
          "internalType": "uint32",
          "name": "collateralId",
          "type": "uint32"
        },
        {
          "internalType": "uint256",
          "name": "amount",
          "type": "uint256"
        }
      ],
      "name": "createAccountAndAddMargin",
      "outputs": [
        {
          "internalType": "uint256",
          "name": "newAccountId",
          "type": "uint256"
        }
      ],
      "stateMutability": "nonpayable",
      "type": "function"
    },
    {
      "inputs": [
        {
          "internalType": "bytes32",
          "name": "slot",
          "type": "bytes32"
        }
      ],
      "name": "extsload",
      "outputs": [
        {
          "internalType": "bytes32",
          "name": "val",
          "type": "bytes32"
        }
      ],
      "stateMutability": "view",
      "type": "function"
    },
    {
      "inputs": [
        {
          "internalType": "bytes32[]",
          "name": "slots",
          "type": "bytes32[]"
        }
      ],
      "name": "extsload",
      "outputs": [
        {
          "internalType": "bytes32[]",
          "name": "",
          "type": "bytes32[]"
        }
      ],
      "stateMutability": "view",
      "type": "function"
    },
    {
      "inputs": [
        {
          "internalType": "uint256",
          "name": "accountId",
          "type": "uint256"
        },
        {
          "internalType": "bool",
          "name": "isInitialMargin",
          "type": "bool"
        }
      ],
      "name": "getAccountMarketValueAndRequiredMargin",
      "outputs": [
        {
          "internalType": "int256",
          "name": "marketValue",
          "type": "int256"
        },
        {
          "internalType": "int256",
          "name": "requiredMargin",
          "type": "int256"
        }
      ],
      "stateMutability": "view",
      "type": "function"
    },
    {
      "inputs": [
        {
          "internalType": "uint256",
          "name": "accountId",
          "type": "uint256"
        }
      ],
      "name": "getAccountNetProfit",
      "outputs": [
        {
          "internalType": "int256",
          "name": "accountNetProfit",
          "type": "int256"
        }
      ],
      "stateMutability": "view",
      "type": "function"
    },
    {
      "inputs": [
        {
          "internalType": "uint256",
          "name": "accountId",
          "type": "uint256"
        },
        {
          "internalType": "uint32",
          "name": "poolId",
          "type": "uint32"
        }
      ],
      "name": "getAccountNetTokenPosition",
      "outputs": [
        {
          "internalType": "int256",
          "name": "netPosition",
          "type": "int256"
        }
      ],
      "stateMutability": "view",
      "type": "function"
    },
    {
      "inputs": [
        {
          "internalType": "uint32",
          "name": "poolId",
          "type": "uint32"
        }
      ],
      "name": "getRealTwapPriceX128",
      "outputs": [
        {
          "internalType": "uint256",
          "name": "realPriceX128",
          "type": "uint256"
        }
      ],
      "stateMutability": "view",
      "type": "function"
    },
    {
      "inputs": [
        {
          "internalType": "uint32",
          "name": "poolId",
          "type": "uint32"
        }
      ],
      "name": "getVirtualTwapPriceX128",
      "outputs": [
        {
          "internalType": "uint256",
          "name": "virtualPriceX128",
          "type": "uint256"
        }
      ],
      "stateMutability": "view",
      "type": "function"
    },
    {
      "inputs": [],
      "name": "governance",
      "outputs": [
        {
          "internalType": "address",
          "name": "",
          "type": "address"
        }
      ],
      "stateMutability": "view",
      "type": "function"
    },
    {
      "inputs": [],
      "name": "governancePending",
      "outputs": [
        {
          "internalType": "address",
          "name": "",
          "type": "address"
        }
      ],
      "stateMutability": "view",
      "type": "function"
    },
    {
      "inputs": [
        {
          "internalType": "address",
          "name": "_rageTradeFactoryAddress",
          "type": "address"
        },
        {
          "internalType": "address",
          "name": "initialGovernance",
          "type": "address"
        },
        {
          "internalType": "address",
          "name": "initialTeamMultisig",
          "type": "address"
        },
        {
          "internalType": "contract IERC20",
          "name": "_defaultCollateralToken",
          "type": "address"
        },
        {
          "internalType": "contract IOracle",
          "name": "_defaultCollateralTokenOracle",
          "type": "address"
        },
        {
          "internalType": "contract IInsuranceFund",
          "name": "_insuranceFund",
          "type": "address"
        },
        {
          "internalType": "contract IVQuote",
          "name": "_vQuote",
          "type": "address"
        }
      ],
      "name": "initialize",
      "outputs": [],
      "stateMutability": "nonpayable",
      "type": "function"
    },
    {
      "inputs": [
        {
          "internalType": "address",
          "name": "newGovernancePending",
          "type": "address"
        }
      ],
      "name": "initiateGovernanceTransfer",
      "outputs": [],
      "stateMutability": "nonpayable",
      "type": "function"
    },
    {
      "inputs": [
        {
          "internalType": "address",
          "name": "newTeamMultisigPending",
          "type": "address"
        }
      ],
      "name": "initiateTeamMultisigTransfer",
      "outputs": [],
      "stateMutability": "nonpayable",
      "type": "function"
    },
    {
      "inputs": [],
      "name": "insuranceFund",
      "outputs": [
        {
          "internalType": "contract IInsuranceFund",
          "name": "",
          "type": "address"
        }
      ],
      "stateMutability": "view",
      "type": "function"
    },
    {
      "inputs": [
        {
          "internalType": "uint256",
          "name": "accountId",
          "type": "uint256"
        }
      ],
      "name": "liquidateLiquidityPositions",
      "outputs": [],
      "stateMutability": "nonpayable",
      "type": "function"
    },
    {
      "inputs": [
        {
          "internalType": "uint256",
          "name": "targetAccountId",
          "type": "uint256"
        },
        {
          "internalType": "uint32",
          "name": "poolId",
          "type": "uint32"
        }
      ],
      "name": "liquidateTokenPosition",
      "outputs": [
        {
          "internalType": "int256",
          "name": "keeperFee",
          "type": "int256"
        }
      ],
      "stateMutability": "nonpayable",
      "type": "function"
    },
    {
      "inputs": [
        {
          "internalType": "bytes[]",
          "name": "data",
          "type": "bytes[]"
        }
      ],
      "name": "multicall",
      "outputs": [
        {
          "internalType": "bytes[]",
          "name": "results",
          "type": "bytes[]"
        }
      ],
      "stateMutability": "payable",
      "type": "function"
    },
    {
      "inputs": [
        {
          "internalType": "uint256",
          "name": "accountId",
          "type": "uint256"
        },
        {
          "components": [
            {
              "internalType": "enum IClearingHouseEnums.MulticallOperationType",
              "name": "operationType",
              "type": "uint8"
            },
            {
              "internalType": "bytes",
              "name": "data",
              "type": "bytes"
            }
          ],
          "internalType": "struct IClearingHouseStructures.MulticallOperation[]",
          "name": "operations",
          "type": "tuple[]"
        }
      ],
      "name": "multicallWithSingleMarginCheck",
      "outputs": [
        {
          "internalType": "bytes[]",
          "name": "results",
          "type": "bytes[]"
        }
      ],
      "stateMutability": "nonpayable",
      "type": "function"
    },
    {
      "inputs": [],
      "name": "numAccounts",
      "outputs": [
        {
          "internalType": "uint256",
          "name": "",
          "type": "uint256"
        }
      ],
      "stateMutability": "view",
      "type": "function"
    },
    {
      "inputs": [
        {
          "internalType": "uint256",
          "name": "numberOfPoolsToUpdateInThisTx",
          "type": "uint256"
        }
      ],
      "name": "pause",
      "outputs": [],
      "stateMutability": "nonpayable",
      "type": "function"
    },
    {
      "inputs": [],
      "name": "paused",
      "outputs": [
        {
          "internalType": "bool",
          "name": "",
          "type": "bool"
        }
      ],
      "stateMutability": "view",
      "type": "function"
    },
    {
      "inputs": [],
      "name": "rageTradeFactoryAddress",
      "outputs": [
        {
          "internalType": "address",
          "name": "",
          "type": "address"
        }
      ],
      "stateMutability": "view",
      "type": "function"
    },
    {
      "inputs": [
        {
          "components": [
            {
              "internalType": "contract IVToken",
              "name": "vToken",
              "type": "address"
            },
            {
              "internalType": "contract IUniswapV3Pool",
              "name": "vPool",
              "type": "address"
            },
            {
              "internalType": "contract IVPoolWrapper",
              "name": "vPoolWrapper",
              "type": "address"
            },
            {
              "components": [
                {
                  "internalType": "uint16",
                  "name": "initialMarginRatioBps",
                  "type": "uint16"
                },
                {
                  "internalType": "uint16",
                  "name": "maintainanceMarginRatioBps",
                  "type": "uint16"
                },
                {
                  "internalType": "uint16",
                  "name": "maxVirtualPriceDeviationRatioBps",
                  "type": "uint16"
                },
                {
                  "internalType": "uint32",
                  "name": "twapDuration",
                  "type": "uint32"
                },
                {
                  "internalType": "bool",
                  "name": "isAllowedForTrade",
                  "type": "bool"
                },
                {
                  "internalType": "bool",
                  "name": "isCrossMargined",
                  "type": "bool"
                },
                {
                  "internalType": "contract IOracle",
                  "name": "oracle",
                  "type": "address"
                }
              ],
              "internalType": "struct IClearingHouseStructures.PoolSettings",
              "name": "settings",
              "type": "tuple"
            }
          ],
          "internalType": "struct IClearingHouseStructures.Pool",
          "name": "poolInfo",
          "type": "tuple"
        }
      ],
      "name": "registerPool",
      "outputs": [],
      "stateMutability": "nonpayable",
      "type": "function"
    },
    {
      "inputs": [
        {
          "internalType": "uint256",
          "name": "accountId",
          "type": "uint256"
        },
        {
          "internalType": "uint32",
          "name": "poolId",
          "type": "uint32"
        },
        {
          "internalType": "int24",
          "name": "tickLower",
          "type": "int24"
        },
        {
          "internalType": "int24",
          "name": "tickUpper",
          "type": "int24"
        }
      ],
      "name": "removeLimitOrder",
      "outputs": [],
      "stateMutability": "nonpayable",
      "type": "function"
    },
    {
      "inputs": [
        {
          "internalType": "uint256",
          "name": "accountId",
          "type": "uint256"
        }
      ],
      "name": "settleProfit",
      "outputs": [],
      "stateMutability": "nonpayable",
      "type": "function"
    },
    {
      "inputs": [
        {
          "internalType": "uint256",
          "name": "accountId",
          "type": "uint256"
        },
        {
          "internalType": "uint32",
          "name": "poolId",
          "type": "uint32"
        },
        {
          "components": [
            {
              "internalType": "int256",
              "name": "amount",
              "type": "int256"
            },
            {
              "internalType": "uint160",
              "name": "sqrtPriceLimit",
              "type": "uint160"
            },
            {
              "internalType": "bool",
              "name": "isNotional",
              "type": "bool"
            },
            {
              "internalType": "bool",
              "name": "isPartialAllowed",
              "type": "bool"
            },
            {
              "internalType": "bool",
              "name": "settleProfit",
              "type": "bool"
            }
          ],
          "internalType": "struct IClearingHouseStructures.SwapParams",
          "name": "swapParams",
          "type": "tuple"
        }
      ],
      "name": "swapToken",
      "outputs": [
        {
          "internalType": "int256",
          "name": "vTokenAmountOut",
          "type": "int256"
        },
        {
          "internalType": "int256",
          "name": "vQuoteAmountOut",
          "type": "int256"
        }
      ],
      "stateMutability": "nonpayable",
      "type": "function"
    },
    {
      "inputs": [],
      "name": "teamMultisig",
      "outputs": [
        {
          "internalType": "address",
          "name": "",
          "type": "address"
        }
      ],
      "stateMutability": "view",
      "type": "function"
    },
    {
      "inputs": [],
      "name": "teamMultisigPending",
      "outputs": [
        {
          "internalType": "address",
          "name": "",
          "type": "address"
        }
      ],
      "stateMutability": "view",
      "type": "function"
    },
    {
      "inputs": [
        {
          "internalType": "uint256",
          "name": "numberOfPoolsToUpdateInThisTx",
          "type": "uint256"
        }
      ],
      "name": "unpause",
      "outputs": [],
      "stateMutability": "nonpayable",
      "type": "function"
    },
    {
      "inputs": [
        {
          "internalType": "contract IERC20",
          "name": "cToken",
          "type": "address"
        },
        {
          "components": [
            {
              "internalType": "contract IOracle",
              "name": "oracle",
              "type": "address"
            },
            {
              "internalType": "uint32",
              "name": "twapDuration",
              "type": "uint32"
            },
            {
              "internalType": "bool",
              "name": "isAllowedForDeposit",
              "type": "bool"
            }
          ],
          "internalType": "struct IClearingHouseStructures.CollateralSettings",
          "name": "collateralSettings",
          "type": "tuple"
        }
      ],
      "name": "updateCollateralSettings",
      "outputs": [],
      "stateMutability": "nonpayable",
      "type": "function"
    },
    {
      "inputs": [
        {
          "internalType": "uint256",
          "name": "accountId",
          "type": "uint256"
        },
        {
          "internalType": "uint32",
          "name": "collateralId",
          "type": "uint32"
        },
        {
          "internalType": "int256",
          "name": "amount",
          "type": "int256"
        }
      ],
      "name": "updateMargin",
      "outputs": [],
      "stateMutability": "nonpayable",
      "type": "function"
    },
    {
      "inputs": [
        {
          "internalType": "uint32",
          "name": "poolId",
          "type": "uint32"
        },
        {
          "components": [
            {
              "internalType": "uint16",
              "name": "initialMarginRatioBps",
              "type": "uint16"
            },
            {
              "internalType": "uint16",
              "name": "maintainanceMarginRatioBps",
              "type": "uint16"
            },
            {
              "internalType": "uint16",
              "name": "maxVirtualPriceDeviationRatioBps",
              "type": "uint16"
            },
            {
              "internalType": "uint32",
              "name": "twapDuration",
              "type": "uint32"
            },
            {
              "internalType": "bool",
              "name": "isAllowedForTrade",
              "type": "bool"
            },
            {
              "internalType": "bool",
              "name": "isCrossMargined",
              "type": "bool"
            },
            {
              "internalType": "contract IOracle",
              "name": "oracle",
              "type": "address"
            }
          ],
          "internalType": "struct IClearingHouseStructures.PoolSettings",
          "name": "newSettings",
          "type": "tuple"
        }
      ],
      "name": "updatePoolSettings",
      "outputs": [],
      "stateMutability": "nonpayable",
      "type": "function"
    },
    {
      "inputs": [
        {
          "internalType": "uint256",
          "name": "accountId",
          "type": "uint256"
        },
        {
          "internalType": "int256",
          "name": "amount",
          "type": "int256"
        }
      ],
      "name": "updateProfit",
      "outputs": [],
      "stateMutability": "nonpayable",
      "type": "function"
    },
    {
      "inputs": [
        {
          "components": [
            {
              "internalType": "uint16",
              "name": "rangeLiquidationFeeFraction",
              "type": "uint16"
            },
            {
              "internalType": "uint16",
              "name": "tokenLiquidationFeeFraction",
              "type": "uint16"
            },
            {
              "internalType": "uint16",
              "name": "closeFactorMMThresholdBps",
              "type": "uint16"
            },
            {
              "internalType": "uint16",
              "name": "partialLiquidationCloseFactorBps",
              "type": "uint16"
            },
            {
              "internalType": "uint16",
              "name": "insuranceFundFeeShareBps",
              "type": "uint16"
            },
            {
              "internalType": "uint16",
              "name": "liquidationSlippageSqrtToleranceBps",
              "type": "uint16"
            },
            {
              "internalType": "uint64",
              "name": "maxRangeLiquidationFees",
              "type": "uint64"
            },
            {
              "internalType": "uint64",
              "name": "minNotionalLiquidatable",
              "type": "uint64"
            }
          ],
          "internalType": "struct IClearingHouseStructures.LiquidationParams",
          "name": "_liquidationParams",
          "type": "tuple"
        },
        {
          "internalType": "uint256",
          "name": "_removeLimitOrderFee",
          "type": "uint256"
        },
        {
          "internalType": "uint256",
          "name": "_minimumOrderNotional",
          "type": "uint256"
        },
        {
          "internalType": "uint256",
          "name": "_minRequiredMargin",
          "type": "uint256"
        }
      ],
      "name": "updateProtocolSettings",
      "outputs": [],
      "stateMutability": "nonpayable",
      "type": "function"
    },
    {
      "inputs": [
        {
          "internalType": "uint256",
          "name": "accountId",
          "type": "uint256"
        },
        {
          "internalType": "uint32",
          "name": "poolId",
          "type": "uint32"
        },
        {
          "components": [
            {
              "internalType": "int24",
              "name": "tickLower",
              "type": "int24"
            },
            {
              "internalType": "int24",
              "name": "tickUpper",
              "type": "int24"
            },
            {
              "internalType": "int128",
              "name": "liquidityDelta",
              "type": "int128"
            },
            {
              "internalType": "uint160",
              "name": "sqrtPriceCurrent",
              "type": "uint160"
            },
            {
              "internalType": "uint16",
              "name": "slippageToleranceBps",
              "type": "uint16"
            },
            {
              "internalType": "bool",
              "name": "closeTokenPosition",
              "type": "bool"
            },
            {
              "internalType": "enum IClearingHouseEnums.LimitOrderType",
              "name": "limitOrderType",
              "type": "uint8"
            },
            {
              "internalType": "bool",
              "name": "settleProfit",
              "type": "bool"
            }
          ],
          "internalType": "struct IClearingHouseStructures.LiquidityChangeParams",
          "name": "liquidityChangeParams",
          "type": "tuple"
        }
      ],
      "name": "updateRangeOrder",
      "outputs": [
        {
          "internalType": "int256",
          "name": "vTokenAmountOut",
          "type": "int256"
        },
        {
          "internalType": "int256",
          "name": "vQuoteAmountOut",
          "type": "int256"
        }
      ],
      "stateMutability": "nonpayable",
      "type": "function"
    },
    {
      "inputs": [
        {
          "internalType": "uint256",
          "name": "numberOfPoolsToUpdateInThisTx",
          "type": "uint256"
        }
      ],
      "name": "withdrawProtocolFee",
      "outputs": [],
      "stateMutability": "nonpayable",
      "type": "function"
    },
    {
      "inputs": [],
      "name": "withdrawUSDCToTeamMultisig",
      "outputs": [],
      "stateMutability": "nonpayable",
      "type": "function"
    },
    {
      "inputs": [],
      "name": "InsufficientCollateralBalance",
      "type": "error"
    },
    {
      "inputs": [
        {
          "internalType": "int256",
          "name": "accountMarketValue",
          "type": "int256"
        },
        {
          "internalType": "int256",
          "name": "totalRequiredMargin",
          "type": "int256"
        }
      ],
      "name": "InvalidLiquidationAccountAboveWater",
      "type": "error"
    },
    {
      "inputs": [
        {
          "internalType": "uint32",
          "name": "poolId",
          "type": "uint32"
        }
      ],
      "name": "InvalidLiquidationActiveRangePresent",
      "type": "error"
    },
    {
      "inputs": [
        {
          "internalType": "int256",
          "name": "accountMarketValue",
          "type": "int256"
        },
        {
          "internalType": "int256",
          "name": "totalRequiredMargin",
          "type": "int256"
        }
      ],
      "name": "InvalidTransactionNotEnoughMargin",
      "type": "error"
    },
    {
      "inputs": [
        {
          "internalType": "int256",
          "name": "totalProfit",
          "type": "int256"
        }
      ],
      "name": "InvalidTransactionNotEnoughProfit",
      "type": "error"
    },
    {
      "inputs": [
        {
          "internalType": "int24",
          "name": "tickLower",
          "type": "int24"
        },
        {
          "internalType": "int24",
          "name": "tickUpper",
          "type": "int24"
        },
        {
          "internalType": "uint256",
          "name": "liquidity",
          "type": "uint256"
        }
      ],
      "name": "LPS_DeactivationFailed",
      "type": "error"
    },
    {
      "inputs": [
        {
          "internalType": "int24",
          "name": "tickLower",
          "type": "int24"
        },
        {
          "internalType": "int24",
          "name": "tickUpper",
          "type": "int24"
        }
      ],
      "name": "LPS_IllegalTicks",
      "type": "error"
    },
    {
      "inputs": [],
      "name": "LPS_InactiveRange",
      "type": "error"
    },
    {
      "inputs": [],
      "name": "LP_AlreadyInitialized",
      "type": "error"
    },
    {
      "inputs": [],
      "name": "LP_IneligibleLimitOrderRemoval",
      "type": "error"
    },
    {
      "inputs": [
        {
          "internalType": "uint256",
          "name": "y_target",
          "type": "uint256"
        },
        {
          "internalType": "uint160",
          "name": "x_lower",
          "type": "uint160"
        },
        {
          "internalType": "uint160",
          "name": "x_upper",
          "type": "uint160"
        }
      ],
      "name": "SolutionOutOfBounds",
      "type": "error"
    },
    {
      "inputs": [
        {
          "internalType": "uint32",
          "name": "element",
          "type": "uint32"
        }
      ],
      "name": "U32L8_IllegalElement",
      "type": "error"
    },
    {
      "inputs": [
        {
          "internalType": "uint32",
          "name": "element",
          "type": "uint32"
        }
      ],
      "name": "U32L8_NoSpaceLeftToInsert",
      "type": "error"
    },
    {
      "inputs": [
        {
          "internalType": "uint48",
          "name": "element",
          "type": "uint48"
        }
      ],
      "name": "U48L5_IllegalElement",
      "type": "error"
    },
    {
      "inputs": [
        {
          "internalType": "uint48",
          "name": "element",
          "type": "uint48"
        }
      ],
      "name": "U48L5_NoSpaceLeftToInsert",
      "type": "error"
    },
    {
      "inputs": [
        {
          "internalType": "uint32",
          "name": "poolId",
          "type": "uint32"
        }
      ],
      "name": "VPS_DeactivationFailed",
      "type": "error"
    },
    {
      "inputs": [
        {
          "internalType": "uint32",
          "name": "poolId",
          "type": "uint32"
        }
      ],
      "name": "VPS_TokenInactive",
      "type": "error"
    },
    {
      "anonymous": false,
      "inputs": [
        {
          "indexed": true,
          "internalType": "uint256",
          "name": "accountId",
          "type": "uint256"
        },
        {
          "indexed": true,
          "internalType": "address",
          "name": "keeperAddress",
          "type": "address"
        },
        {
          "indexed": false,
          "internalType": "int256",
          "name": "liquidationFee",
          "type": "int256"
        },
        {
          "indexed": false,
          "internalType": "int256",
          "name": "keeperFee",
          "type": "int256"
        },
        {
          "indexed": false,
          "internalType": "int256",
          "name": "insuranceFundFee",
          "type": "int256"
        },
        {
          "indexed": false,
          "internalType": "int256",
          "name": "accountMarketValueFinal",
          "type": "int256"
        }
      ],
      "name": "LiquidityPositionsLiquidated",
      "type": "event"
    },
    {
      "anonymous": false,
      "inputs": [
        {
          "indexed": true,
          "internalType": "uint256",
          "name": "accountId",
          "type": "uint256"
        },
        {
          "indexed": true,
          "internalType": "uint32",
          "name": "collateralId",
          "type": "uint32"
        },
        {
          "indexed": false,
          "internalType": "int256",
          "name": "amount",
          "type": "int256"
        },
        {
          "indexed": false,
          "internalType": "bool",
          "name": "isSettleProfit",
          "type": "bool"
        }
      ],
      "name": "MarginUpdated",
      "type": "event"
    },
    {
      "anonymous": false,
      "inputs": [
        {
          "indexed": true,
          "internalType": "uint256",
          "name": "accountId",
          "type": "uint256"
        },
        {
          "indexed": false,
          "internalType": "int256",
          "name": "amount",
          "type": "int256"
        }
      ],
      "name": "ProfitUpdated",
      "type": "event"
    },
    {
      "anonymous": false,
      "inputs": [
        {
          "indexed": true,
          "internalType": "uint256",
          "name": "accountId",
          "type": "uint256"
        },
        {
          "indexed": true,
          "internalType": "uint32",
          "name": "poolId",
          "type": "uint32"
        },
        {
          "indexed": false,
          "internalType": "int256",
          "name": "keeperFee",
          "type": "int256"
        },
        {
          "indexed": false,
          "internalType": "int256",
          "name": "insuranceFundFee",
          "type": "int256"
        },
        {
          "indexed": false,
          "internalType": "int256",
          "name": "accountMarketValueFinal",
          "type": "int256"
        }
      ],
      "name": "TokenPositionLiquidated",
      "type": "event"
    },
    {
      "anonymous": false,
      "inputs": [
        {
          "indexed": true,
          "internalType": "uint256",
          "name": "accountId",
          "type": "uint256"
        },
        {
          "indexed": true,
          "internalType": "uint32",
          "name": "poolId",
          "type": "uint32"
        },
        {
          "indexed": false,
          "internalType": "int24",
          "name": "tickLower",
          "type": "int24"
        },
        {
          "indexed": false,
          "internalType": "int24",
          "name": "tickUpper",
          "type": "int24"
        },
        {
          "indexed": false,
          "internalType": "int128",
          "name": "liquidityDelta",
          "type": "int128"
        },
        {
          "indexed": false,
          "internalType": "enum IClearingHouseEnums.LimitOrderType",
          "name": "limitOrderType",
          "type": "uint8"
        },
        {
          "indexed": false,
          "internalType": "int256",
          "name": "vTokenAmountOut",
          "type": "int256"
        },
        {
          "indexed": false,
          "internalType": "int256",
          "name": "vQuoteAmountOut",
          "type": "int256"
        },
        {
          "indexed": false,
          "internalType": "uint160",
          "name": "sqrtPriceX96",
          "type": "uint160"
        }
      ],
      "name": "LiquidityChanged",
      "type": "event"
    },
    {
      "anonymous": false,
      "inputs": [
        {
          "indexed": true,
          "internalType": "uint256",
          "name": "accountId",
          "type": "uint256"
        },
        {
          "indexed": true,
          "internalType": "uint32",
          "name": "poolId",
          "type": "uint32"
        },
        {
          "indexed": false,
          "internalType": "int24",
          "name": "tickLower",
          "type": "int24"
        },
        {
          "indexed": false,
          "internalType": "int24",
          "name": "tickUpper",
          "type": "int24"
        },
        {
          "indexed": false,
          "internalType": "int256",
          "name": "amount",
          "type": "int256"
        }
      ],
      "name": "LiquidityPositionEarningsRealized",
      "type": "event"
    },
    {
      "anonymous": false,
      "inputs": [
        {
          "indexed": true,
          "internalType": "uint256",
          "name": "accountId",
          "type": "uint256"
        },
        {
          "indexed": true,
          "internalType": "uint32",
          "name": "poolId",
          "type": "uint32"
        },
        {
          "indexed": false,
          "internalType": "int24",
          "name": "tickLower",
          "type": "int24"
        },
        {
          "indexed": false,
          "internalType": "int24",
          "name": "tickUpper",
          "type": "int24"
        },
        {
          "indexed": false,
          "internalType": "int256",
          "name": "amount",
          "type": "int256"
        },
        {
          "indexed": false,
          "internalType": "int256",
          "name": "sumALastX128",
          "type": "int256"
        },
        {
          "indexed": false,
          "internalType": "int256",
          "name": "sumBInsideLastX128",
          "type": "int256"
        },
        {
          "indexed": false,
          "internalType": "int256",
          "name": "sumFpInsideLastX128",
          "type": "int256"
        },
        {
          "indexed": false,
          "internalType": "uint256",
          "name": "sumFeeInsideLastX128",
          "type": "uint256"
        }
      ],
      "name": "LiquidityPositionFundingPaymentRealized",
      "type": "event"
    },
    {
      "anonymous": false,
      "inputs": [
        {
          "indexed": true,
          "internalType": "uint256",
          "name": "accountId",
          "type": "uint256"
        },
        {
          "indexed": true,
          "internalType": "uint32",
          "name": "poolId",
          "type": "uint32"
        },
        {
          "indexed": false,
          "internalType": "int24",
          "name": "tickLower",
          "type": "int24"
        },
        {
          "indexed": false,
          "internalType": "int24",
          "name": "tickUpper",
          "type": "int24"
        },
        {
          "indexed": false,
          "internalType": "int256",
          "name": "vTokenAmountOut",
          "type": "int256"
        }
      ],
      "name": "TokenPositionChangedDueToLiquidityChanged",
      "type": "event"
    },
    {
      "inputs": [],
      "name": "VPS_IncorrectUpdate",
      "type": "error"
    },
    {
      "anonymous": false,
      "inputs": [
        {
          "indexed": true,
          "internalType": "uint256",
          "name": "accountId",
          "type": "uint256"
        },
        {
          "indexed": true,
          "internalType": "uint32",
          "name": "poolId",
          "type": "uint32"
        },
        {
          "indexed": false,
          "internalType": "int256",
          "name": "vTokenAmountOut",
          "type": "int256"
        },
        {
          "indexed": false,
          "internalType": "int256",
          "name": "vQuoteAmountOut",
          "type": "int256"
        },
        {
          "indexed": false,
          "internalType": "uint160",
          "name": "sqrtPriceX96Start",
          "type": "uint160"
        },
        {
          "indexed": false,
          "internalType": "uint160",
          "name": "sqrtPriceX96End",
          "type": "uint160"
        }
      ],
      "name": "TokenPositionChanged",
      "type": "event"
    },
    {
      "anonymous": false,
      "inputs": [
        {
          "indexed": true,
          "internalType": "uint256",
          "name": "accountId",
          "type": "uint256"
        },
        {
          "indexed": true,
          "internalType": "uint32",
          "name": "poolId",
          "type": "uint32"
        },
        {
          "indexed": false,
          "internalType": "int256",
          "name": "amount",
          "type": "int256"
        },
        {
          "indexed": false,
          "internalType": "int256",
          "name": "sumALastX128",
          "type": "int256"
        }
      ],
      "name": "TokenPositionFundingPaymentRealized",
      "type": "event"
    }
  ],
  "transactionHash": "0x60fe63bd2fd6f8e6c1653619d64545594f4cfb58248d5efc2b7d110c5301090e",
  "args": [],
  "numDeployments": 2,
  "solcInputHash": "22b7028cc81d5cf62f774cbaec4dae64",
  "bytecode": "0x6080604052346200011b5761013d805460ff8160081c1690816000146200010c57506200002e303b1562000120565b159081620000f6575b5460ff8160081c1680156200009d57156200008e57506200005a303b1562000120565b62000066333362000184565b6200007c575b604051615cf89081620002098239f35b61013d805461ff00191690556200006c565b60ff6200005a91161562000120565b60405162461bcd60e51b815260206004820152602b60248201527f496e697469616c697a61626c653a20636f6e7472616374206973206e6f74206960448201526a6e697469616c697a696e6760a81b6064820152608490fd5b61013d805461ffff191661010117905562000037565b60ff6200002e91161562000120565b600080fd5b156200012857565b60405162461bcd60e51b815260206004820152602e60248201527f496e697469616c697a61626c653a20636f6e747261637420697320616c72656160448201526d191e481a5b9a5d1a585b1a5e995960921b6064820152608490fd5b6101a280546001600160a01b039283166001600160a01b0319918216811790925560405190936000937f39355f2f5c8206286978f443aa8126bbd29fa09c53c04569502647f3a59c8cb29385939290847f5f56bee8cffbe9a78652a74a60705edede02af10b0bbb888ca44b79a0d42ce808186a31694856101a391825416179055a356fe60806040526004361015610013575b600080fd5b60003560e01c806304a6f264146103335780630df181ea1461032a5780631340155114610321578063136439dd146103185780631e2eaeaf1461030f5780632a90b8da146103065780633562490c146102fd57806335876476146102f45780633d0aea3d146102eb5780633d48e983146102e25780633d56a35e146102d95780633ffe794c146102d057806340c4f69b146102c7578063424cd833146102be57806343afafba146102b5578063569634d3146102ac5780635aa6e675146102a35780635c975abb1461029a5780636a486482146102915780636ae7323014610288578063706bdd251461027f5780637cc2f4f5146102765780637d2efe071461026d57806383d778eb146102645780638ce25a931461025b5780638f24ab11146102525780638f8022bc146102495780639cd1be58146102405780639dca362f14610237578063a05c8baf1461022e578063ac9650d814610225578063b79023031461021c578063c7505c1514610213578063ce4c18de1461020a578063dbc0c08514610201578063dbd035ff146101f8578063e3d41c18146101ef578063e450f6f4146101e6578063e67ed1df146101dd5763fabc1cbc146101d557600080fd5b61000e6126ca565b5061000e6125f1565b5061000e61249c565b5061000e612408565b5061000e612371565b5061000e6122e6565b5061000e6122be565b5061000e612124565b5061000e6120fc565b5061000e61201b565b5061000e611d9b565b5061000e611d5b565b5061000e611c24565b5061000e611bab565b5061000e6119c2565b5061000e6119a3565b5061000e611757565b5061000e611598565b5061000e61153f565b5061000e611501565b5061000e61145a565b5061000e611381565b5061000e61135c565b5061000e611333565b5061000e611305565b5061000e6112bd565b5061000e611142565b5061000e610c2e565b5061000e610a24565b5061000e6109fc565b5061000e61092c565b5061000e61089e565b5061000e6106a1565b5061000e6105f5565b5061000e610582565b5061000e610562565b5061000e61045e565b5061000e610435565b5061000e610370565b5061000e610347565b600091031261000e57565b503461000e57600060031936011261000e5760206001600160a01b036101a55416604051908152f35b503461000e57600060206003193601126104325761039460ff610170541615613585565b61039f600435615896565b6103a881613cab565b81733fab135e76c5c0e85a60bf50f100c8cd912f7e5691823b1561042e576044604051809481937feaf393260000000000000000000000000000000000000000000000000000000083526004830152606460248301525af48015610421575b610412575b50604051f35b61041b906107a1565b3861040c565b610429612f42565b610407565b5080fd5b80fd5b503461000e57600060031936011261000e5760206001600160a01b036101a45416604051908152f35b503461000e57602060031936011261000e576001600160a01b03806101a354163314159081610552575b506105285761017061049e60ff82541615613585565b60d7546104fe576104b36004356066546135f8565b6104ba575b005b600160ff1982546104ce60ff821615613585565b161790557f62e78cea01bee320cd4e420270b5ea74000d11b0c9f74754ebdbfc544b05a2586020604051338152a1005b60046040517fd2067f43000000000000000000000000000000000000000000000000000000008152fd5b60046040517fd7a2ae6a000000000000000000000000000000000000000000000000000000008152fd5b6101a25416331415905038610488565b503461000e57602060031936011261000e57602060043554604051908152f35b503461000e57600060031936011261000e576101a48054906001600160a01b0390818316803303610528576000936101a2805492806040519685167f5f56bee8cffbe9a78652a74a60705edede02af10b0bbb888ca44b79a0d42ce808989a36001600160a01b0319809416179055169055f35b503461000e57600060031936011261000e576101a58054906001600160a01b0390818316803303610528576000936101a3805492806040519685167f39355f2f5c8206286978f443aa8126bbd29fa09c53c04569502647f3a59c8cb28989a36001600160a01b0319809416179055169055f35b6001600160a01b0381160361000e57565b610124359061068782610668565b565b60e4359061068782610668565b359061068782610668565b503461000e5760e060031936011261000e576004356106bf81610668565b6107396024356106ce81610668565b6044356106da81610668565b6064356106e681610668565b608435906106f382610668565b60a4359261070084610668565b60c4359461070d86610668565b61013d5460ff8160081c16908160001461077d575061072d303b1561279e565b1597886107505761280f565b61073f57005b6104b861013d61ff00198154169055565b61076561013d61010061ff0019825416179055565b61077861013d600160ff19825416179055565b61280f565b60ff61072d91161561279e565b50634e487b7160e01b600052604160045260246000fd5b67ffffffffffffffff81116107b557604052565b6107bd61078a565b604052565b60a0810190811067ffffffffffffffff8211176107b557604052565b6040810190811067ffffffffffffffff8211176107b557604052565b6060810190811067ffffffffffffffff8211176107b557604052565b90601f601f19910116810190811067ffffffffffffffff8211176107b557604052565b60405190610687826107de565b63ffffffff81160361000e57565b8015150361000e57565b60e4359061068782610854565b610104359061068782610854565b60a4359061068782610854565b60c4359061068782610854565b359061068782610854565b503461000e57608060031936011261000e576004356108bc81610668565b606060231936011261000e576040516104b8916060820167ffffffffffffffff81118382101761091f575b6040526024356108f681610668565b825260443561090481610846565b602083015260643561091581610854565b60408301526131c5565b61092761078a565b6108e7565b503461000e57600060031936011261000e576001600160a01b03806101a3541633811415806109ed575b610528576067546040517f70a082310000000000000000000000000000000000000000000000000000000081523060048201526104b89390929116602083602481845afa9283156109e0575b6000936109b0575b50612f4f565b6109d291935060203d81116109d9575b6109ca8183610816565b810190612f33565b91386109aa565b503d6109c0565b6109e8612f42565b6109a2565b5033826101a254161415610956565b503461000e57600060031936011261000e5760206001600160a01b0360d45416604051908152f35b503461000e5761014060031936011261000e576001600160a01b038060d454163303610af957610a7d63ffffffff600435610a5e81610668565b1691826000526064602052604060002054166001600160a01b03161590565b15610ae357610ade81610ac9610ac47f4182acc9c169391ef7e765eb446fc15c9d49bc73060c678bf4c424a5c0dbdbcb9463ffffffff166000526064602052604060002090565b612bdc565b610ad281612d72565b60405191829182612e0b565b0390a1005b634e487b7160e01b600052600160045260246000fd5b60046040517f85734f31000000000000000000000000000000000000000000000000000000008152fd5b9181601f8401121561000e5782359167ffffffffffffffff831161000e576020808501948460051b01011161000e57565b918091926000905b828210610b74575011610b6d575050565b6000910152565b91508060209183015181860152018291610b5c565b90601f19601f602093610ba781518092818752878088019101610b54565b0116010190565b602080820190808352835180925260408301928160408460051b8301019501936000915b848310610be25750505050505090565b9091929394958480610c1e837fffffffffffffffffffffffffffffffffffffffffffffffffffffffffffffffc086600196030187528a51610b89565b9801930193019194939290610bd2565b503461000e5760408060031936011261000e57600480359160243567ffffffffffffffff811161000e57610c659036908401610b23565b610c71819492946139f5565b93610c868660005260d3602052604060002090565b95610c9087613cab565b60008781938295835b818110610e0b5750505050610dfb575b50610d64575b610cc5575b815180610cc18582610bae565b0390f35b733fab135e76c5c0e85a60bf50f100c8cd912f7e5690813b1561000e5782517f998c53350000000000000000000000000000000000000000000000000000000081529081019485526001602086015260646040860152610cc19490916000918391908290819060600103915af48015610d57575b15610cb45780610d4b610d51926107a1565b8061033c565b38610cb4565b610d5f612f42565b610d39565b733fab135e76c5c0e85a60bf50f100c8cd912f7e56803b1561000e576000845180927f651524ed0000000000000000000000000000000000000000000000000000000082528180610dc58b8983016020606491939293604081019481520152565b03915af48015610dee575b610ddb575b50610caf565b80610d4b610de8926107a1565b38610dd5565b610df6612f42565b610dd0565b610e0490615896565b5038610ca9565b9091929693610e23610e1e838587613a3e565b613ab5565b610e2c81613aa3565b610e84575080610e6c610e5b610e53610e49610e71958789613a3e565b6020810190613ae0565b810190613c8c565b906001978015610e7a575b9a614ab5565b6135e8565b908a9291610c99565b5060008212610e66565b939650610e95610e1e828486613a3e565b93610e9f85613aa3565b6001948503610eee5750610ec2610eba610e49838587613a3e565b810190613c7d565b93610ecd858d614c11565b6000819512610ee1575b50610e71906135e8565b9650869550610e71610ed7565b6002610f01610e1e8486889c969c613a3e565b610f0a81613aa3565b03610f8b575050610f5d610f6b610f22888486613a3e565b610f468d610f40610f3860209485810190613ae0565b810190613bf7565b91614f24565b8c5192830191825260208201529092839160400190565b03601f198101835282610816565b610f75878b613b7d565b52610f80868a613b7d565b50610e7183966135e8565b6003610f9b610e1e8a8688613a3e565b610fa481613aa3565b03610fe0575050610f5d610f6b610fbc888486613a3e565b610f468d610fda610fd260209485810190613ae0565b810190613bd2565b91614cf8565b93509587610ff2610e1e838587613a3e565b610ffb81613aa3565b0361102d5780611027611020611018610e49610e71958789613a3e565b810190613b9f565b9189615475565b506135e8565b600561103d610e1e838587613a3e565b61104681613aa3565b0361107c578061102761107761106e611066610e49610e7196888a613a3e565b8101906114e9565b63ffffffff1690565b61517b565b600661108c610e1e838587613a3e565b61109581613aa3565b036110fc57806110a9610e71928486613a3e565b6110e76110d563ffffffff6110ce6110c660209586810190613ae0565b810190613b31565b9116615344565b8c519283019081528290602001610f5d565b6110f1828d613b7d565b52611027818c613b7d565b61110f610e1e61113e928a948c96613a3e565b92519283927f62c9ca420000000000000000000000000000000000000000000000000000000084528301613ac2565b0390fd5b503461000e5760208060031936011261000e5760665460d854600492833582156112b4575b600090806112915750508293915b84811061119257505050810361118d5750600060d855005b60d855005b806000836111ea6111de60026111d063ffffffff6111b261123399612d24565b90549060031b1c1663ffffffff166000526064602052604060002090565b01546001600160a01b031690565b6001600160a01b031690565b86604051809481937f5e622abc0000000000000000000000000000000000000000000000000000000083525af1908115611284575b600091611267575b508061123857506135e8565b611175565b6112619061124e6067546001600160a01b031690565b6001600160a01b036101a3541690612f4f565b38611027565b61127e9150843d86116109d9576109ca8183610816565b38611227565b61128c612f42565b61121f565b61129b90846135d0565b9050838110156112ad575b9391611175565b50826112a6565b60009250611167565b503461000e57604060031936011261000e5760206112fd6024356004356112e382610846565b8060005260d384526112f86040600020613cab565b615344565b604051908152f35b503461000e57602060031936011261000e576104b86004358060005260d36020526110776040600020613cab565b503461000e57600060031936011261000e5760206001600160a01b036101a25416604051908152f35b503461000e57600060031936011261000e57602060ff61017054166040519015158152f35b503461000e57604060031936011261000e57610cc16024356113a281610846565b60043560005260d360205263ffffffff604060002091604051927f7188a1ed000000000000000000000000000000000000000000000000000000008452600484015216602482015260646044820152602081606481733fab135e76c5c0e85a60bf50f100c8cd912f7e565af490811561144d575b60009161142f575b506040519081529081906020820190565b611447915060203d81116109d9576109ca8183610816565b3861141e565b611455612f42565b611416565b503461000e57602060031936011261000e5760043561147881610668565b6001600160a01b03806101a35416331415806114da575b610528576000916101a5906001600160a01b0319838354921691826040519582167f9b068aae3039a2512c2f13bffb5fd9d95b1895b276b5c7ddf1d4fa24ec3686588888a316179055f35b5033816101a25416141561148f565b9081602091031261000e57356114fe81610846565b90565b503461000e57602060031936011261000e5760206112fd60043561152481610846565b615b62565b8060020b0361000e57565b359061068782611529565b503461000e57608060031936011261000e576104b860043560243561156381610846565b6044359061157082611529565b6064359261157d84611529565b8060005260d36020526115936040600020613cab565b615475565b503461000e57606060031936011261000e576024356115b681610846565b604435610170906115cb60ff83541615613585565b6115d6600435615896565b916115e083613cab565b6000936115f460ff86851293541615613585565b846115ff83836158e1565b94733fab135e76c5c0e85a60bf50f100c8cd912f7e56803b156116ee5760405163f5a284a160e01b8152600481019290925263ffffffff93909316602482015260448101859052606480820152831515608482015291829060a49082905af480156116e1575b6116ce575b5083821315611696575061168861169192546001600160a01b031690565b30903390614ba3565b604051f35b6116a2575b5050604051f35b6116bf6116b96116c793546001600160a01b031690565b916145d7565b903390612f4f565b388061169b565b80610d4b6116db926107a1565b3861166a565b6116e9612f42565b611665565b8280fd5b60431960a091011261000e576040519061170b826107c2565b81604435815260643561171d81610668565b602082015260843561172e81610854565b604082015260a43561173f81610854565b6060820152608060c4359161175383610854565b0152565b503461000e5760e060031936011261000e5760243561177581610846565b61177e366116f2565b809161017061179160ff82541615613585565b6117b360ff6117a1600435615896565b926117ab84613cab565b541615613585565b6117bc8261598c565b60409182916117f7835195869384937f140cf61e00000000000000000000000000000000000000000000000000000000855260048501615114565b0381733fab135e76c5c0e85a60bf50f100c8cd912f7e565af4928315611996575b6000928394611961575b5061182c846145f6565b606c54811061192f57506001600160a01b0361185260208301516001600160a01b031690565b16151580611919575b611872575b50519081526020810191909152604090f35b818101906118808251151590565b91826118fd575b82156118c4575b50501561189b5738611860565b600490517f07a1db07000000000000000000000000000000000000000000000000000000008152fd5b51909150156118d2565b1590565b90816118e1575b50388061188e565b90506118f66118ef846145f6565b91516145f6565b14386118d9565b9150611908856145f6565b61191282516145f6565b1491611887565b5061192a6118ce6060830151151590565b61185b565b82517f256d6b9a0000000000000000000000000000000000000000000000000000000081526004810191909152602490fd5b909350816119859293503d841161198f575b61197d8183610816565b8101906150fe565b9190919238611822565b503d611973565b61199e612f42565b611818565b503461000e57600060031936011261000e57602060d254604051908152f35b503461000e5761010060031936011261000e5760048035906119e382610846565b60e060231936011261000e576001600160a01b036101a254163303611b8357611a276003611a218463ffffffff166000526064602052604060002090565b01612a64565b611a42611a356111de612a4b565b6001600160a01b03161590565b611b655763ffffffff61012c81611a57612a26565b1610908115611b4f575b50611b305761ffff6127108082611a766129f8565b1611611b1257611a8e611a87612a04565b61ffff1690565b11611af4576107d090611a9f612a10565b1611611ad5576040517f4182acc9c169391ef7e765eb446fc15c9d49bc73060c678bf4c424a5c0dbdbcb9080610ade8582612eaf565b604051636a098dd160e11b815260249181019182529081906020010390fd5b604051636a098dd160e11b8152602381840190815281906020010390fd5b604051636a098dd160e11b8152602281850190815281906020010390fd5b604051636a098dd160e11b815260219181019182529081906020010390fd5b620151809150611b5d612a26565b161138611a61565b604051636a098dd160e11b8152602091810182815290918291010390fd5b6040517fd7a2ae6a000000000000000000000000000000000000000000000000000000008152fd5b503461000e57602060031936011261000e57600435611bc981610668565b6001600160a01b03806101a254163303610528576000916101a4906001600160a01b0319838354921691826040519582167f8c405decc72a19ef328c92989ce6db4e4a498e1c246413fd60997a3051ba5cff8888a316179055f35b503461000e57604060031936011261000e57602435610170611c4a60ff82541615613585565b611c5a60ff6117a1600435615896565b8115611d3157733fab135e76c5c0e85a60bf50f100c8cd912f7e56803b1561000e576040517fd25c4a6f000000000000000000000000000000000000000000000000000000008152600481019290925260248201839052606460448301819052600190830152600090829060849082905af48015611d24575b611d11575b506000811315611cf8576104b8906116886067546001600160a01b031690565b6104b8906116bf6116b96067546001600160a01b031690565b80610d4b611d1e926107a1565b38611cd8565b611d2c612f42565b611cd3565b60046040517f1f2a2005000000000000000000000000000000000000000000000000000000008152fd5b503461000e57600060031936011261000e5760206112fd613848565b60031961010091011261000e57600490565b60431961010091011261000e57604490565b503461000e5761016060031936011261000e57611db736611d77565b610104356101243591610144356001600160a01b036101a254163303610528576127109361ffff8581611de986612a1c565b16116120025785611dff611a8760208701612a1c565b11611fe95760409580611e16611a87898801612a1c565b11611fd15780611e2b611a8760608801612a1c565b11611fb957611e3f611a8760808701612a1c565b11611fa1576103e890611e5460a08601612a1c565b1611611f8957633b9aca008067ffffffffffffffff611e7560c0870161327d565b1611611f715780611e98611e8b60e0870161327d565b67ffffffffffffffff1690565b11611f5957808511611f4157808211611f29578211611f115791611f0b60009594927f697aec6e94e319190380ab0f1f10018d81b64da2479eb874be92c9a733e0a83794611ee584613287565b611eee85606b55565b611ef781606c55565b611f0082606a55565b865194859485613499565b0390a151f35b8451636a098dd160e11b8152603a6004820152602490fd5b8551636a098dd160e11b815260396004820152602490fd5b8551636a098dd160e11b815260386004820152602490fd5b8551636a098dd160e11b815260376004820152602490fd5b8551636a098dd160e11b815260366004820152602490fd5b8451636a098dd160e11b815260356004820152602490fd5b8551636a098dd160e11b815260346004820152602490fd5b8651636a098dd160e11b815260336004820152602490fd5b8651636a098dd160e11b815260326004820152602490fd5b604051636a098dd160e11b815260316004820152602490fd5b604051636a098dd160e11b815260306004820152602490fd5b50602060031936011261000e576004803567ffffffffffffffff811161000e576120489036908301610b23565b90612052826139f5565b9160005b81811061206b5760405180610cc18682610bae565b600080612079838587615c2b565b6040939161208b855180938193615c55565b0390305af490612099613144565b918290156120c2575050906120bd916120b28287613b7d565b526110278186613b7d565b612056565b826044899394511061000e5761113e91836120e7920160248091518301019101615c63565b925192839262461bcd60e51b84528301613174565b503461000e57600060031936011261000e5760206001600160a01b0360d55416604051908152f35b503461000e5761014060031936011261000e5760243561214381610846565b606061214e36611d89565b916101709261216160ff85541615613585565b61218e60ff612185612174600435615896565b9361217e85613cab565b3690613938565b95541615613585565b6121978261598c565b828401516001600160a01b03168061229e575b506121e260405194859384937fc27789d100000000000000000000000000000000000000000000000000000000855260048501614e12565b0381733fab135e76c5c0e85a60bf50f100c8cd912f7e565af48015612291575b6000908192829161225d575b50606c54811061222a5750604080519182526020820192909252f35b6040517f256d6b9a0000000000000000000000000000000000000000000000000000000081526004810191909152602490fd5b915050612281915060603d811161228a575b6122798183610816565b810190614dea565b9190913861220e565b503d61226f565b612299612f42565b612202565b6122b8906122b1608087015161ffff1690565b9084615a69565b386121aa565b503461000e57602060031936011261000e5760206112fd6004356122e181610846565b615bc0565b503461000e57600060031936011261000e5760206001600160a01b036101a35416604051908152f35b60209067ffffffffffffffff8111612329575b60051b0190565b61233161078a565b612322565b6020908160408183019282815285518094520193019160005b82811061235d575050505090565b83518552938101939281019260010161234f565b503461000e5760208060031936011261000e5760043567ffffffffffffffff811161000e573660238201121561000e578060040135906123b08261230f565b916123be6040519384610816565b80835260248484019160051b8301019136831161000e57602401905b8282106123f957610cc16123ed85615c02565b60405191829182612336565b813581529084019084016123da565b503461000e57602060031936011261000e5760043560005260d3602052610cc16040600020604051907fc4b22b86000000000000000000000000000000000000000000000000000000008252600482015260646024820152602081604481733fab135e76c5c0e85a60bf50f100c8cd912f7e565af490811561144d5760009161142f57506040519081529081906020820190565b503461000e57604060031936011261000e576004356124ba81610846565b602435906124c6613848565b90610170926124d960ff85541615613585565b6124e283615896565b936124ec85613cab565b6124fe60ff6000841292541615613585565b61250881846158e1565b92733fab135e76c5c0e85a60bf50f100c8cd912f7e5690813b1561000e5760405163f5a284a160e01b8152600481019790975263ffffffff166024870152604486018390526064808701528115156084870152610cc19590600090829060a49082905af480156125e4575b6125d1575b5060008213156125a7575061168861259792546001600160a01b031690565b6040519081529081906020820190565b6125b3575b5050612597565b6116bf6116b96125ca93546001600160a01b031690565b38806125ac565b80610d4b6125de926107a1565b38612578565b6125ec612f42565b612573565b503461000e5760408060031936011261000e5760243561261081610854565b60043560005260d360205281600020908251917f0c6d7f34000000000000000000000000000000000000000000000000000000008352600483015215156024820152606460448201528181606481733fab135e76c5c0e85a60bf50f100c8cd912f7e565af49182156126bd575b60009182936126985750519081526020810191909152604090f35b816126b5929450610cc193503d851161198f5761197d8183610816565b929091611860565b6126c5612f42565b61267d565b503461000e57602060031936011261000e576001600160a01b03806101a35416331415908161278e575b506105285761017061270960ff8254166137fd565b60d6546127645761271e600435606654613712565b61272457005b60ff19815461273560ff82166137fd565b1690557f5db9ee0a495bf2e6ff9c91a7834c1ba4fdd244a5e8aa4e537bd38aeae4b073aa6020604051338152a1005b60046040517ffc23b9cd000000000000000000000000000000000000000000000000000000008152fd5b6101a254163314159050386126f4565b156127a557565b608460405162461bcd60e51b815260206004820152602e60248201527f496e697469616c697a61626c653a20636f6e747261637420697320616c72656160448201527f647920696e697469616c697a65640000000000000000000000000000000000006064820152fd5b93916128a17f39355f2f5c8206286978f443aa8126bbd29fa09c53c04569502647f3a59c8cb2936000958694986001600160a01b039a8b8092816001600160a01b03199c168c60d454161760d4558185168c6067541617606755168a60d554161760d55516886068541617606855896040519261288b846107fa565b168252603c6020830152600160408301526156ce565b61013d9680885460ff8160081c169081861461295957506128c3303b1561279e565b15978861292c575b16916101a2838882541617905560405192847f5f56bee8cffbe9a78652a74a60705edede02af10b0bbb888ca44b79a0d42ce808186a31694856101a391825416179055a361291d575b50610687612966565b61ff0019815416905538612914565b61294161013d61010061ff0019825416179055565b61295461013d600160ff19825416179055565b6128cb565b60ff6128c391161561279e565b60ff61013d5460081c16156129825761017060ff198154169055565b608460405162461bcd60e51b815260206004820152602b60248201527f496e697469616c697a61626c653a20636f6e7472616374206973206e6f74206960448201527f6e697469616c697a696e670000000000000000000000000000000000000000006064820152fd5b61ffff81160361000e57565b6024356114fe816129ec565b6044356114fe816129ec565b6064356114fe816129ec565b356114fe816129ec565b6084356114fe81610846565b60e4356114fe81610854565b610104356114fe81610854565b60e4356114fe81610668565b610124356114fe81610668565b61068790612a89602435612a77816129ec565b829061ffff1661ffff19825416179055565b612ab2604435612a98816129ec565b825463ffff0000191660109190911b63ffff000016178255565b612adf606435612ac1816129ec565b825465ffff00000000191660209190911b65ffff0000000016178255565b608435612aeb81610846565b69ffffffff0000000000001969ffffffff00000000000083549260301b169116178155612b5960a435612b1d81610854565b82547fffffffffffffffffffffffffffffffffffffffffff00ffffffffffffffffffff1690151560501b6aff0000000000000000000016178255565b612ba560c435612b6881610854565b82547fffffffffffffffffffffffffffffffffffffffff00ffffffffffffffffffffff1690151560581b6bff000000000000000000000016178255565b60e43590612bb282610668565b906bffffffffffffffffffffffff6bffffffffffffffffffffffff1983549260601b169116179055565b600361068791612c0d600435612bf181610668565b82906001600160a01b03166001600160a01b0319825416179055565b612c3b602435612c1c81610668565b60018301906001600160a01b03166001600160a01b0319825416179055565b612c69604435612c4a81610668565b60028301906001600160a01b03166001600160a01b0319825416179055565b01612c79606435612a77816129ec565b612c88608435612a98816129ec565b612c9760a435612ac1816129ec565b60c435612ca381610846565b69ffffffff0000000000001969ffffffff00000000000083549260301b169116178155612cd1612b1d612a32565b612cdc612b68612a3e565b612ce4612a57565b6bffffffffffffffffffffffff6bffffffffffffffffffffffff1983549260601b169116179055565b50634e487b7160e01b600052603260045260246000fd5b90606654821015612d65575b6066600052601c8260031c7f46501879b8ca8525e8c2fd519e2fbfcfa2ebea26501294aa02cbfcfb12e94354019260021b1690565b612d6d612d0d565b612d30565b6066549068010000000000000000821015612df3575b6001820180606655821015612de6575b60666000528160031c7f46501879b8ca8525e8c2fd519e2fbfcfa2ebea26501294aa02cbfcfb12e94354019160e083549160051b169163ffffffff9283811b93849216901b16911916179055565b612dee612d0d565b612d98565b612dfb61078a565b612d88565b3590610687826129ec565b63ffffffff9182168152610100810192916106879190606435612e2d816129ec565b61ffff809116602084015280608435612e45816129ec565b16604084015260a435612e57816129ec565b16606083015260c435612e6981610846565b166080820152612e83612e7a61085e565b151560a0830152565b612e97612e8e61086b565b151560c0830152565b60e0612ea1610679565b6001600160a01b0316910152565b63ffffffff9182168152610100810192916106879190602435612ed1816129ec565b61ffff809116602084015280604435612ee9816129ec565b166040840152606435612efb816129ec565b166060830152608435612f0d81610846565b166080820152612f1e612e7a610879565b612f29612e8e610886565b60e0612ea1610689565b9081602091031261000e575190565b506040513d6000823e3d90fd5b610687926001600160a01b03604051937fa9059cbb0000000000000000000000000000000000000000000000000000000060208601521660248401526044830152604482526080820182811067ffffffffffffffff821117612fb4575b604052613072565b612fbc61078a565b612fac565b601f19601f60209267ffffffffffffffff8111612fdf575b01160190565b612fe761078a565b612fd9565b9081602091031261000e57516114fe81610854565b1561300857565b608460405162461bcd60e51b815260206004820152602a60248201527f5361666545524332303a204552433230206f7065726174696f6e20646964206e60448201527f6f742073756363656564000000000000000000000000000000000000000000006064820152fd5b6001600160a01b03169060405190613089826107de565b6020928383527f5361666545524332303a206c6f772d6c6576656c2063616c6c206661696c656484840152803b1561310057600082819282876130db9796519301915af16130d5613144565b90613185565b805190816130e857505050565b82610687936130fb938301019101612fec565b613001565b6064846040519062461bcd60e51b82526004820152601d60248201527f416464726573733a2063616c6c20746f206e6f6e2d636f6e74726163740000006044820152fd5b3d1561316f573d9061315582612fc1565b916131636040519384610816565b82523d6000602084013e565b606090565b9060206114fe928181520190610b89565b90919015613191575090565b8151156131a15750805190602001fd5b61113e9060405191829162461bcd60e51b8352602060048401526024830190610b89565b906001600160a01b03806101a2541633036105285781511615613224576201518063ffffffff6131fc602084015163ffffffff1690565b161161320b57610687916156ce565b604051636a098dd160e11b815260116004820152602490fd5b604051636a098dd160e11b815260106004820152602490fd5b50634e487b7160e01b600052601160045260246000fd5b50634e487b7160e01b600052601260045260246000fd5b67ffffffffffffffff81160361000e57565b356114fe8161326b565b61344060e06106879261ffff813561329e816129ec565b1661ffff1960695416176069556132d760208201356132bc816129ec565b63ffff00001963ffff00006069549260101b16911617606955565b61330760408201356132e8816129ec565b65ffff000000001965ffff000000006069549260201b16911617606955565b6060810135613315816129ec565b7fffffffffffffffffffffffffffffffffffffffffffffffff0000ffffffffffff67ffff0000000000006069549260301b1691161760695561339861335c60808301612a1c565b7fffffffffffffffffffffffffffffffffffffffffffff0000ffffffffffffffff69ffff00000000000000006069549260401b16911617606955565b6133e56133a760a08301612a1c565b7fffffffffffffffffffffffffffffffffffffffff0000ffffffffffffffffffff6bffff000000000000000000006069549260501b16911617606955565b61343a6133f460c0830161327d565b7fffffffffffffffffffffffff0000000000000000ffffffffffffffffffffffff73ffffffffffffffff0000000000000000000000006069549260601b16911617606955565b0161327d565b7fffffffff0000000000000000ffffffffffffffffffffffffffffffffffffffff7bffffffffffffffff00000000000000000000000000000000000000006069549260a01b16911617606955565b35906106878261326b565b909493926101409261357561356460e061016086019980356134ba816129ec565b61ffff809116885260208201356134d0816129ec565b1660208801526134f06134e560408301612e00565b61ffff166040890152565b61350a6134ff60608301612e00565b61ffff166060890152565b61352461351960808301612e00565b61ffff166080890152565b61353e61353360a08301612e00565b61ffff1660a0890152565b61355e61354d60c0830161348e565b67ffffffffffffffff1660c0890152565b0161348e565b67ffffffffffffffff1660e0850152565b6101008301526101208201520152565b1561358c57565b606460405162461bcd60e51b815260206004820152601060248201527f5061757361626c653a20706175736564000000000000000000000000000000006044820152fd5b811981116135dc570190565b6135e461323d565b0190565b60019060001981146135dc570190565b60d65492918315613709575b600090806136e757505080925b83811061362f5750821491821561362a5750600060d655565b60d655565b63ffffffff61363d82612d24565b90549060031b1c16600052606460205260409061366b6111de600284600020016001600160a01b0390541690565b803b1561000e5760006136c8935180927f512403360000000000000000000000000000000000000000000000000000000082528183816136b360048201906000602083019252565b03925af180156136da575b6136cd57506135e8565b613611565b80610d4b611261926107a1565b6136e2612f42565b6136be565b6136f190856135d0565b905081811015613702575b92613611565b50806136fc565b60009350613604565b60d754929183156137f4575b600090806137d257505080925b838110613749575082149182156137445750600060d755565b60d755565b63ffffffff61375782612d24565b90549060031b1c1660005260646020526040906001600160a01b03600283600020015416803b1561000e576000809160246137cd9551809481937f51240336000000000000000000000000000000000000000000000000000000008352600160048401525af180156136da576136cd57506135e8565b61372b565b6137dc90856135d0565b9050818110156137ed575b9261372b565b50806137e7565b6000935061371e565b1561380457565b606460405162461bcd60e51b815260206004820152601460248201527f5061757361626c653a206e6f74207061757365640000000000000000000000006044820152fd5b61385860ff610170541615613585565b60d2547ffffffffffffffffffffffffffffffffffffffffffffffffffffffffffffffffe8111613910575b6001810160d255600081815260d36020526040902080546bffffffffffffffffffffffff163360601b6bffffffffffffffffffffffff19161781556bffffffffffffffffffffffff82166bffffffffffffffffffffffff198254161790556040518181527f7325fb14450d3e5eb288c620b4ff1d6b43a41b33b4a4f143ae88cd4c12f99ea360203392a290565b61391861323d565b613883565b359081600f0b820361000e57565b3590600382101561000e57565b809291610100918291031261000e5760405190810181811067ffffffffffffffff8211176139e8575b60405260e06139e381839561397581611534565b855261398360208201611534565b60208601526139946040820161391d565b60408601526139a560608201610696565b60608601526139b660808201612e00565b60808601526139c760a08201610893565b60a08601526139d860c0820161392b565b60c086015201610893565b910152565b6139f061078a565b613961565b906139ff8261230f565b613a0c6040519182610816565b828152601f19613a1c829461230f565b019060005b828110613a2d57505050565b806060602080938501015201613a21565b9190811015613a7f575b60051b810135907fffffffffffffffffffffffffffffffffffffffffffffffffffffffffffffffc18136030182121561000e570190565b613a87612d0d565b613a48565b50634e487b7160e01b600052602160045260246000fd5b60071115613aad57565b610687613a8c565b35600781101561000e5790565b919060208301926007821015613ad55752565b613add613a8c565b52565b9035907fffffffffffffffffffffffffffffffffffffffffffffffffffffffffffffffe18136030182121561000e570180359067ffffffffffffffff821161000e5760200191813603831361000e57565b919082604091031261000e5760208235613b4a81610846565b9201356114fe81610846565b602090805115613b64570190565b6135e4612d0d565b604090805160011015613b64570190565b6020918151811015613b92575b60051b010190565b613b9a612d0d565b613b8a565b9081606091031261000e578035613bb581610846565b9160406020830135613bc681611529565b9201356114fe81611529565b91906101208382031261000e576114fe9060208435613bf081610846565b9401613938565b809291039160c0831261000e5760a0601f198235613c1481610846565b94011261000e5760a060405191613c2a836107c2565b602081013583526040810135613c3f81610668565b60208401526060810135613c5281610854565b60408401526080810135613c6581610854565b60608401520135613c7581610854565b608082015290565b9081602091031261000e573590565b919082604091031261000e5760208235613ca581610846565b92013590565b60005b60088060ff83161015613d0d57811015613d12575b63ffffffff60018260031c8401015460e08360051b161c16908115613d0d57613ced600192613d7b565b60ff809116908114613d00575b01613cae565b613d0861323d565b613cfa565b505050565b613d1a612d0d565b613cc3565b6000821282600160ff1b018212811516613d6e575b827f7fffffffffffffffffffffffffffffffffffffffffffffffffffffffffffffff01821316613d62570390565b613d6a61323d565b0390565b613d7661323d565b613d34565b613d83613fe9565b613d9d8263ffffffff16600052606d602052604060002090565b805463ffffffff838116911614613d0d57613db7836144eb565b613dc8613dc38561410a565b614095565b93600160e01b80831090811591613f2c575b50613f255761068794613e76613e7b613ee194613e1b6003613e0f613ec79763ffffffff166000526064602052604060002090565b015460201c61ffff1690565b613e3b61ffff613e33613e2e8886613d1f565b6145f6565b921683613f37565b1015613ef657613e7660018801600160e01b7fffffff00ffffffffffffffffffffffffffffffffffffffffffffffffffffffff825416179055565b61457a565b60018601907bffffffffffffffffffffffffffffffffffffffffffffffffffffffff167fffffffff00000000000000000000000000000000000000000000000000000000825416179055565b825463ffffffff1660209190911b63ffffffff1916178255565b9063ffffffff1663ffffffff19825416179055565b613e76600188017fffffff00ffffffffffffffffffffffffffffffffffffffffffffffffffffffff8154169055565b5050505050565b905085101538613dda565b9060001981830981830291828083109203918083039214613f9457612710908282111561000e577fbc01a36e2eb1c432ca57a786c226809d495182a9930be0ded288ce703afb7e91940990828211900360fc1b910360041c170290565b505061271091500490565b6000198282099082810292838084109303928084039314613fe05768010000000000000000918383111561000e570990828211900360c01b910360401c1790565b50505060401c90565b61a4b146148015614089575b801561407d575b156140735763ffffffff6040517fa3b1b31d00000000000000000000000000000000000000000000000000000000815260208160048160645afa908115614066575b60009161404a57501690565b614062915060203d81116109d9576109ca8183610816565b1690565b61406e612f42565b61403e565b63ffffffff431690565b5062066eec4614613ffc565b5062066eeb4614613ff5565b6001600160a01b03166401000276a3811080156140ec575b6140bb57806114fe91613f9f565b602490604051907f5d236c450000000000000000000000000000000000000000000000000000000082526004820152fd5b5073fffd8963efd1fc6a506488495d951d5263988d268110156140ad565b6141249063ffffffff166000526064602052604060002090565b600361414e6001600160a01b0392836001820154169063ffffffff938491015460301c16906148cf565b60020b9060008212156144e55781600003915b620d89e883116144bb5760018316156144925770ffffffffffffffffffffffffffffffffff6ffffcb933bd6fad37aa2d162d1a5940015b169260028116614476575b6004811661445a575b6008811661443e575b60108116614422575b60208116614406575b604081166143ea575b6080908181166143cf575b61010081166143b4575b6102008116614399575b610400811661437e575b6108008116614363575b6110008116614348575b612000811661432d575b6140008116614312575b61800081166142f7575b6201000081166142dc575b6202000081166142c2575b6204000081166142a8575b620800001661428d575b5060001261427d575b81166142745760ff60005b169060201c011690565b60ff600161426a565b906142879061460b565b9061425f565b6b048a170391f7dc42444e8fa26000929402901c9290614256565b6d2216e584f5fa1ea926041bedfe98909402811c9361424c565b936e5d6af8dedb81196699c329225ee60402811c93614241565b936f09aa508b5b7a84e1c677de54f3e99bc902811c93614236565b936f31be135f97d08fd981231505542fcfa602811c9361422b565b936f70d869a156d2a1b890bb3df62baf32f702811c93614221565b936fa9f746462d870fdf8a65dc1f90e061e502811c93614217565b936fd097f3bdfd2022b8845ad8f792aa582502811c9361420d565b936fe7159475a2c29b7443b29c7fa6e889d902811c93614203565b936ff3392b0822b70005940c7a398e4b70f302811c936141f9565b936ff987a7253ac413176f2b074cf7815e5402811c936141ef565b936ffcbe86c7900a88aedcffc83b479aa3a402811c936141e5565b936ffe5dee046a99a2a811c461f1969c305302811c936141db565b926fff2ea16466c96a3843ec78b326b528610260801c926141d0565b926fff973b41fa98c081472e6896dfb254c00260801c926141c7565b926fffcb9843d60f6159c9db58835c9266440260801c926141be565b926fffe5caca7e10e4e61c3624eaa0941cd00260801c926141b5565b926ffff2e50f5f656932ef12357cf3c7fdcc0260801c926141ac565b926ffff97272373d413259a46990580e213a0260801c926141a3565b70ffffffffffffffffffffffffffffffffff700100000000000000000000000000000000614198565b60046040517f2bc80f3a000000000000000000000000000000000000000000000000000000008152fd5b81614161565b63ffffffff80911660005260646020526020600360406000200154916024604051809481937fdd86c1010000000000000000000000000000000000000000000000000000000083528160301c16600483015260601c5afa90811561456d575b600091614555575090565b6114fe915060203d81116109d9576109ca8183610816565b614575612f42565b61454a565b600160e01b81116145a6577bffffffffffffffffffffffffffffffffffffffffffffffffffffffff1690565b602490604051907f1ba344530000000000000000000000000000000000000000000000000000000082526004820152fd5b600160ff1b81146145e9575b60000390565b6145f161323d565b6145e3565b60008113156146025790565b6114fe906145d7565b8015614619575b6000190490565b614621613254565b614612565b60405190614633826107fa565b600282526040366020840137565b81601f8201121561000e578051916146588361230f565b926146666040519485610816565b808452602092838086019260051b82010192831161000e578301905b828210614690575050505090565b838091835161469e81610668565b815201910190614682565b91909160408184031261000e5780519267ffffffffffffffff9384811161000e5782019381601f8601121561000e578451946146e48661230f565b906146f26040519283610816565b868252602096878084019160051b8301019185831161000e578801905b82821061472e575050509483015190811161000e576114fe9201614641565b81518060060b810361000e57815290880190880161470f565b6020908160408183019282815285518094520193019160005b82811061476e575050505090565b835163ffffffff1685529381019392810192600101614760565b60060b9060060b906000821282667fffffffffffff190182128115166147be575b82667fffffffffffff01821316613d62570390565b6147c661323d565b6147a9565b60060b9060060b9081156147ff575b6000198214667fffffffffffff198214166147f3570590565b6147fb61323d565b0590565b614807613254565b6147da565b9060060b90811561481f575b60060b0790565b614827613254565b614818565b6000199060020b7fffffffffffffffffffffffffffffffffffffffffffffffffffffffffff80000081146135dc570190565b908160e091031261000e57805161487481610668565b91602082015161488381611529565b916040810151614892816129ec565b9160608201516148a1816129ec565b9160808101516148b0816129ec565b9160a082015160ff8116810361000e5760c0909201516114fe81610854565b9063ffffffff81168015614a6e5761494e6001600160a01b03936149096148f4614626565b946148fe86613b56565b9063ffffffff169052565b60009485918261491887613b6c565b521693604051809381927f883bdbfd00000000000000000000000000000000000000000000000000000000835260048301614747565b0381865afa849181614a49575b506149ca57505060e060049160405192838092633850c7bd60e01b82525afa9182156149bd575b9161498b575090565b6149ac915060e03d81116149b6575b6149a48183610816565b81019061485e565b5050505050905090565b503d61499a565b6149c5612f42565b614982565b6149f59192506149ef6149e26149e96149e284613b6c565b5160060b90565b92613b56565b90614788565b9060060b614a0c614a0682846147cb565b60020b90565b928260060b129182614a2b575b5050614a225790565b6114fe9061482c565b614a40925090614a3a9161480c565b60060b90565b15153880614a19565b614a669192503d8087833e614a5e8183610816565b8101906146a9565b50903861495b565b50506114fe9060e06001600160a01b0391600460405180948193633850c7bd60e01b8352165afa908115614aa8575b60009161498b575090565b614ab0612f42565b614a9d565b919091614ac860ff610170541615613585565b6000821290614ad782856158e1565b93733fab135e76c5c0e85a60bf50f100c8cd912f7e5691823b1561000e5760405163f5a284a160e01b8152600481019190915263ffffffff919091166024820152604481018490526064808201526000608482018190529091829060a49082905af48015614b96575b614b83575b506000821315614b64575061168861068792546001600160a01b031690565b614b6c575050565b6116bf6116b961068793546001600160a01b031690565b80610d4b614b90926107a1565b38614b45565b614b9e612f42565b614b40565b909261068793604051937f23b872dd0000000000000000000000000000000000000000000000000000000060208601526001600160a01b03809216602486015216604484015260648301526064825260a0820182811067ffffffffffffffff821117612fb457604052613072565b614c2160ff610170541615613585565b8115611d3157733fab135e76c5c0e85a60bf50f100c8cd912f7e56803b1561000e576040517fd25c4a6f000000000000000000000000000000000000000000000000000000008152600481019290925260248201839052606460448301819052600090830181905290829060849082905af48015614ceb575b614cd8575b506000811315614cbf57610687906116886067546001600160a01b031690565b610687906116bf6116b96067546001600160a01b031690565b80610d4b614ce5926107a1565b38614c9f565b614cf3612f42565b614c9a565b90606091939293614d0f60ff610170541615613585565b614d188261598c565b828501516001600160a01b031680614dd1575b50614d6360405195869384937fc27789d100000000000000000000000000000000000000000000000000000000855260048501614eb9565b0381733fab135e76c5c0e85a60bf50f100c8cd912f7e565af48015614dc4575b60009081938291614d9e575b50606c54811061222a57509190565b915050614dba91925060603d811161228a576122798183610816565b9291909238614d8f565b614dcc612f42565b614d83565b614de4906122b1608088015161ffff1690565b38614d2b565b9081606091031261000e578051916040602083015192015190565b906003821015613ad55752565b614eaa60e061016093969563ffffffff610687966101808601998652166020850152805160020b6040850152602081015160020b60608501526040810151600f0b6080850152614e72606082015160a08601906001600160a01b03169052565b608081015161ffff1660c085015260a0810151151584830152614e9e60c0820151610100860190614e05565b01511515610120830152565b60646101408201520160019052565b614f1860e061016093969563ffffffff6000966101808601998652166020850152805160020b6040850152602081015160020b60608501526040810151600f0b6080850152614e72606082015160a08601906001600160a01b03169052565b60646101408201520152565b9082939291614f3960ff610170541615613585565b614f428261598c565b6040918291614fdb835195869384937f140cf61e00000000000000000000000000000000000000000000000000000000855260048501608061010092959463ffffffff6000956101208501988552166020840152805160408401526001600160a01b03602082015116606084015260408101511515828401526060810151151560a08401520151151560c0820152606460e08201520152565b0381733fab135e76c5c0e85a60bf50f100c8cd912f7e565af49384156150f1575b60009283956150cc575b50615010856145f6565b606c54811061192f57506001600160a01b0361503660208301516001600160a01b031690565b161515806150b6575b61504a575b50509190565b818101906150588251151590565b918261509a575b8215615073575b50501561189b5780615044565b5115915081615085575b503880615066565b90506150936118ef846145f6565b143861507d565b91506150a5866145f6565b6150af82516145f6565b149161505f565b506150c76118ce6060830151151590565b61503f565b909450816150e79293503d841161198f5761197d8183610816565b9190919338615006565b6150f9612f42565b614ffc565b919082604091031261000e576020825192015190565b608061010092959463ffffffff610687956101208501988552166020840152805160408401526001600160a01b03602082015116606084015260408101511515828401526060810151151560a08401520151151560c0820152606460e08201520160019052565b61518b60ff610170541615613585565b6151e560606151a48360005260d3602052604060002090565b604051809381927fdf19bf09000000000000000000000000000000000000000000000000000000008352600483016020606491939293604081019481520152565b0381733fab135e76c5c0e85a60bf50f100c8cd912f7e565af49182156152e7575b600092839284916152c1575b5061521d83856152f4565b92600085131561528f57907f688f0846fe2852572c467d5e769db101b0fea55e8849406d85c9fb322b95299b91615267866152606067546001600160a01b031690565b3390612f4f565b61527081615565565b604080519586526020860187905285015260608401523392608090a390565b6040517fef37dcc700000000000000000000000000000000000000000000000000000000815260048101869052602490fd5b919350506152dd915060603d811161228a576122798183610816565b9192909138615212565b6152ef612f42565b615206565b60008112817f7fffffffffffffffffffffffffffffffffffffffffffffffffffffffffffffff038313811516615337575b81600160ff1b038312166135dc570190565b61533f61323d565b615325565b6153c39161536e60409261535e60ff610170541615613585565b60005260d3602052604060002090565b6153778261598c565b825193849283927fec1464960000000000000000000000000000000000000000000000000000000084526004840160409063ffffffff6064939594606083019683521660208201520152565b0381733fab135e76c5c0e85a60bf50f100c8cd912f7e565af48015615468575b6000918291615448575b506000821315615416576114fe90615411836152606067546001600160a01b031690565b615565565b6040517fef37dcc700000000000000000000000000000000000000000000000000000000815260048101839052602490fd5b9050615462915060403d811161198f5761197d8183610816565b386153ed565b615470612f42565b6153e3565b9290919261548960ff610170541615613585565b60005260d36020526040600020916154a08161598c565b606b5493733fab135e76c5c0e85a60bf50f100c8cd912f7e5693843b1561000e5763ffffffff9460009460c49360405197889687957fe0448f0a000000000000000000000000000000000000000000000000000000008752600487015216602485015260020b604484015260020b6064830152866084830152606460a48301525af48015615558575b615545575b506114fe816152606067546001600160a01b031690565b80610d4b615552926107a1565b3861552e565b615560612f42565b615529565b600081131561558a57610687906001600160a01b0380606754169060d5541690612f4f565b61559f6001600160a01b0360d55416916145d7565b813b1561000e576000916024839260405194859384927f379607f500000000000000000000000000000000000000000000000000000000845260048401525af180156155f6575b6155ed5750565b610687906107a1565b6155fe612f42565b6155e6565b61565a602060016001600160a01b03936156368587511682906001600160a01b03166001600160a01b0319825416179055565b019301519182511683906001600160a01b03166001600160a01b0319825416179055565b6020810151907fffffffffffffff0000000000ffffffffffffffffffffffffffffffffffffffff77ffffffff000000000000000000000000000000000000000078ff00000000000000000000000000000000000000000000000060408654940151151560c01b169360a01b16911617179055565b919063ffffffff83166001600160a01b03841615615864576157166118ce611a356157098463ffffffff166000526065602052604060002090565b546001600160a01b031690565b80615829575b6157c957926157807f52983c04d8ccd4808cd0fcb24e6e48106ecb41e803d6270c6c94a15e3ebd08d2939461577b615752610839565b6001600160a01b03851681529185602084015263ffffffff166000526065602052604060002090565b615603565b6157c460405192839283909291604060609160808401956001600160a01b038091168552815116602085015263ffffffff6020820151168285015201511515910152565b0390a1565b6157e7615709859263ffffffff166000526065602052604060002090565b6040517fa5d4d0b50000000000000000000000000000000000000000000000000000000081526001600160a01b03928316600482015291166024820152604490fd5b5061585f6118ce8561584e6157098563ffffffff166000526065602052604060002090565b6001600160a01b0390811691161490565b61571c565b6040517f76d8a93100000000000000000000000000000000000000000000000000000000815260006004820152602490fd5b60005260d3602052604060002090815460601c33036158b157565b60246040517f0504a20d000000000000000000000000000000000000000000000000000000008152336004820152fd5b63ffffffff90929192168060005260656020526040600020926001600160a01b038454161561595b571580615949575b6159185750565b602490604051907f9150f8c80000000000000000000000000000000000000000000000000000000082526004820152fd5b5060ff600184015460c01c1615615911565b602482604051907f6b9c1a9d0000000000000000000000000000000000000000000000000000000082526004820152fd5b63ffffffff1680600052606460205260406000206001600160a01b03815416156159f3576003015460501c60ff16156159c25750565b602490604051907fb0fdd2020000000000000000000000000000000000000000000000000000000082526004820152fd5b602482604051907fb842f5a70000000000000000000000000000000000000000000000000000000082526004820152fd5b6001600160a01b039182169116818110613d62570390565b6001600160a01b039182809216918291169204821181151516615a5d570290565b615a6561323d565b0290565b63ffffffff166000526064602052615aee6111de615add6001600160a01b039361ffff600460e0876001604060002001541660405192838092633850c7bd60e01b82525afa908115615b55575b600091615b31575b50828781168289161115615b2157615ad591615a24565b965b16615a3c565b6001600160a01b0361271091160490565b911611615af757565b60046040517f07a1db07000000000000000000000000000000000000000000000000000000008152fd5b90615b2b91615a24565b96615ad7565b615b49915060e03d81116149b6576149a48183610816565b50505050505038615abe565b615b5d612f42565b615ab6565b615b6a613fe9565b9063ffffffff91828216600052606d60205260406000209280845416911614600014615bb65750600101547bffffffffffffffffffffffffffffffffffffffffffffffffffffffff1690565b6114fe91506144eb565b615bc8613fe9565b9063ffffffff808216600052606d60205280604060002054931690831614600014615bf4575060201c90565b6114fe9150613dc39061410a565b805160051b810160209081018183015b818110615c1f5750505090565b80515481528201615c12565b9091615c4492811015615c48575b60051b810190613ae0565b9091565b615c50612d0d565b615c39565b908092918237016000815290565b60208183031261000e5780519067ffffffffffffffff821161000e570181601f8201121561000e578051615c9681612fc1565b92615ca46040519485610816565b8184526020828401011161000e576114fe9160208085019101610b5456fea2646970667358221220ce0c9dd12d7cf9ac7f88003d50982dae4b671420307d28b4df67edd28c55ad5464736f6c634300080e0033",
  "deployedBytecode": "0x60806040526004361015610013575b600080fd5b60003560e01c806304a6f264146103335780630df181ea1461032a5780631340155114610321578063136439dd146103185780631e2eaeaf1461030f5780632a90b8da146103065780633562490c146102fd57806335876476146102f45780633d0aea3d146102eb5780633d48e983146102e25780633d56a35e146102d95780633ffe794c146102d057806340c4f69b146102c7578063424cd833146102be57806343afafba146102b5578063569634d3146102ac5780635aa6e675146102a35780635c975abb1461029a5780636a486482146102915780636ae7323014610288578063706bdd251461027f5780637cc2f4f5146102765780637d2efe071461026d57806383d778eb146102645780638ce25a931461025b5780638f24ab11146102525780638f8022bc146102495780639cd1be58146102405780639dca362f14610237578063a05c8baf1461022e578063ac9650d814610225578063b79023031461021c578063c7505c1514610213578063ce4c18de1461020a578063dbc0c08514610201578063dbd035ff146101f8578063e3d41c18146101ef578063e450f6f4146101e6578063e67ed1df146101dd5763fabc1cbc146101d557600080fd5b61000e6126ca565b5061000e6125f1565b5061000e61249c565b5061000e612408565b5061000e612371565b5061000e6122e6565b5061000e6122be565b5061000e612124565b5061000e6120fc565b5061000e61201b565b5061000e611d9b565b5061000e611d5b565b5061000e611c24565b5061000e611bab565b5061000e6119c2565b5061000e6119a3565b5061000e611757565b5061000e611598565b5061000e61153f565b5061000e611501565b5061000e61145a565b5061000e611381565b5061000e61135c565b5061000e611333565b5061000e611305565b5061000e6112bd565b5061000e611142565b5061000e610c2e565b5061000e610a24565b5061000e6109fc565b5061000e61092c565b5061000e61089e565b5061000e6106a1565b5061000e6105f5565b5061000e610582565b5061000e610562565b5061000e61045e565b5061000e610435565b5061000e610370565b5061000e610347565b600091031261000e57565b503461000e57600060031936011261000e5760206001600160a01b036101a55416604051908152f35b503461000e57600060206003193601126104325761039460ff610170541615613585565b61039f600435615896565b6103a881613cab565b8173__$86182d6e9eac51236f2aa8dd2a3ddeab6c$__91823b1561042e576044604051809481937feaf393260000000000000000000000000000000000000000000000000000000083526004830152606460248301525af48015610421575b610412575b50604051f35b61041b906107a1565b3861040c565b610429612f42565b610407565b5080fd5b80fd5b503461000e57600060031936011261000e5760206001600160a01b036101a45416604051908152f35b503461000e57602060031936011261000e576001600160a01b03806101a354163314159081610552575b506105285761017061049e60ff82541615613585565b60d7546104fe576104b36004356066546135f8565b6104ba575b005b600160ff1982546104ce60ff821615613585565b161790557f62e78cea01bee320cd4e420270b5ea74000d11b0c9f74754ebdbfc544b05a2586020604051338152a1005b60046040517fd2067f43000000000000000000000000000000000000000000000000000000008152fd5b60046040517fd7a2ae6a000000000000000000000000000000000000000000000000000000008152fd5b6101a25416331415905038610488565b503461000e57602060031936011261000e57602060043554604051908152f35b503461000e57600060031936011261000e576101a48054906001600160a01b0390818316803303610528576000936101a2805492806040519685167f5f56bee8cffbe9a78652a74a60705edede02af10b0bbb888ca44b79a0d42ce808989a36001600160a01b0319809416179055169055f35b503461000e57600060031936011261000e576101a58054906001600160a01b0390818316803303610528576000936101a3805492806040519685167f39355f2f5c8206286978f443aa8126bbd29fa09c53c04569502647f3a59c8cb28989a36001600160a01b0319809416179055169055f35b6001600160a01b0381160361000e57565b610124359061068782610668565b565b60e4359061068782610668565b359061068782610668565b503461000e5760e060031936011261000e576004356106bf81610668565b6107396024356106ce81610668565b6044356106da81610668565b6064356106e681610668565b608435906106f382610668565b60a4359261070084610668565b60c4359461070d86610668565b61013d5460ff8160081c16908160001461077d575061072d303b1561279e565b1597886107505761280f565b61073f57005b6104b861013d61ff00198154169055565b61076561013d61010061ff0019825416179055565b61077861013d600160ff19825416179055565b61280f565b60ff61072d91161561279e565b50634e487b7160e01b600052604160045260246000fd5b67ffffffffffffffff81116107b557604052565b6107bd61078a565b604052565b60a0810190811067ffffffffffffffff8211176107b557604052565b6040810190811067ffffffffffffffff8211176107b557604052565b6060810190811067ffffffffffffffff8211176107b557604052565b90601f601f19910116810190811067ffffffffffffffff8211176107b557604052565b60405190610687826107de565b63ffffffff81160361000e57565b8015150361000e57565b60e4359061068782610854565b610104359061068782610854565b60a4359061068782610854565b60c4359061068782610854565b359061068782610854565b503461000e57608060031936011261000e576004356108bc81610668565b606060231936011261000e576040516104b8916060820167ffffffffffffffff81118382101761091f575b6040526024356108f681610668565b825260443561090481610846565b602083015260643561091581610854565b60408301526131c5565b61092761078a565b6108e7565b503461000e57600060031936011261000e576001600160a01b03806101a3541633811415806109ed575b610528576067546040517f70a082310000000000000000000000000000000000000000000000000000000081523060048201526104b89390929116602083602481845afa9283156109e0575b6000936109b0575b50612f4f565b6109d291935060203d81116109d9575b6109ca8183610816565b810190612f33565b91386109aa565b503d6109c0565b6109e8612f42565b6109a2565b5033826101a254161415610956565b503461000e57600060031936011261000e5760206001600160a01b0360d45416604051908152f35b503461000e5761014060031936011261000e576001600160a01b038060d454163303610af957610a7d63ffffffff600435610a5e81610668565b1691826000526064602052604060002054166001600160a01b03161590565b15610ae357610ade81610ac9610ac47f4182acc9c169391ef7e765eb446fc15c9d49bc73060c678bf4c424a5c0dbdbcb9463ffffffff166000526064602052604060002090565b612bdc565b610ad281612d72565b60405191829182612e0b565b0390a1005b634e487b7160e01b600052600160045260246000fd5b60046040517f85734f31000000000000000000000000000000000000000000000000000000008152fd5b9181601f8401121561000e5782359167ffffffffffffffff831161000e576020808501948460051b01011161000e57565b918091926000905b828210610b74575011610b6d575050565b6000910152565b91508060209183015181860152018291610b5c565b90601f19601f602093610ba781518092818752878088019101610b54565b0116010190565b602080820190808352835180925260408301928160408460051b8301019501936000915b848310610be25750505050505090565b9091929394958480610c1e837fffffffffffffffffffffffffffffffffffffffffffffffffffffffffffffffc086600196030187528a51610b89565b9801930193019194939290610bd2565b503461000e5760408060031936011261000e57600480359160243567ffffffffffffffff811161000e57610c659036908401610b23565b610c71819492946139f5565b93610c868660005260d3602052604060002090565b95610c9087613cab565b60008781938295835b818110610e0b5750505050610dfb575b50610d64575b610cc5575b815180610cc18582610bae565b0390f35b73__$86182d6e9eac51236f2aa8dd2a3ddeab6c$__90813b1561000e5782517f998c53350000000000000000000000000000000000000000000000000000000081529081019485526001602086015260646040860152610cc19490916000918391908290819060600103915af48015610d57575b15610cb45780610d4b610d51926107a1565b8061033c565b38610cb4565b610d5f612f42565b610d39565b73__$86182d6e9eac51236f2aa8dd2a3ddeab6c$__803b1561000e576000845180927f651524ed0000000000000000000000000000000000000000000000000000000082528180610dc58b8983016020606491939293604081019481520152565b03915af48015610dee575b610ddb575b50610caf565b80610d4b610de8926107a1565b38610dd5565b610df6612f42565b610dd0565b610e0490615896565b5038610ca9565b9091929693610e23610e1e838587613a3e565b613ab5565b610e2c81613aa3565b610e84575080610e6c610e5b610e53610e49610e71958789613a3e565b6020810190613ae0565b810190613c8c565b906001978015610e7a575b9a614ab5565b6135e8565b908a9291610c99565b5060008212610e66565b939650610e95610e1e828486613a3e565b93610e9f85613aa3565b6001948503610eee5750610ec2610eba610e49838587613a3e565b810190613c7d565b93610ecd858d614c11565b6000819512610ee1575b50610e71906135e8565b9650869550610e71610ed7565b6002610f01610e1e8486889c969c613a3e565b610f0a81613aa3565b03610f8b575050610f5d610f6b610f22888486613a3e565b610f468d610f40610f3860209485810190613ae0565b810190613bf7565b91614f24565b8c5192830191825260208201529092839160400190565b03601f198101835282610816565b610f75878b613b7d565b52610f80868a613b7d565b50610e7183966135e8565b6003610f9b610e1e8a8688613a3e565b610fa481613aa3565b03610fe0575050610f5d610f6b610fbc888486613a3e565b610f468d610fda610fd260209485810190613ae0565b810190613bd2565b91614cf8565b93509587610ff2610e1e838587613a3e565b610ffb81613aa3565b0361102d5780611027611020611018610e49610e71958789613a3e565b810190613b9f565b9189615475565b506135e8565b600561103d610e1e838587613a3e565b61104681613aa3565b0361107c578061102761107761106e611066610e49610e7196888a613a3e565b8101906114e9565b63ffffffff1690565b61517b565b600661108c610e1e838587613a3e565b61109581613aa3565b036110fc57806110a9610e71928486613a3e565b6110e76110d563ffffffff6110ce6110c660209586810190613ae0565b810190613b31565b9116615344565b8c519283019081528290602001610f5d565b6110f1828d613b7d565b52611027818c613b7d565b61110f610e1e61113e928a948c96613a3e565b92519283927f62c9ca420000000000000000000000000000000000000000000000000000000084528301613ac2565b0390fd5b503461000e5760208060031936011261000e5760665460d854600492833582156112b4575b600090806112915750508293915b84811061119257505050810361118d5750600060d855005b60d855005b806000836111ea6111de60026111d063ffffffff6111b261123399612d24565b90549060031b1c1663ffffffff166000526064602052604060002090565b01546001600160a01b031690565b6001600160a01b031690565b86604051809481937f5e622abc0000000000000000000000000000000000000000000000000000000083525af1908115611284575b600091611267575b508061123857506135e8565b611175565b6112619061124e6067546001600160a01b031690565b6001600160a01b036101a3541690612f4f565b38611027565b61127e9150843d86116109d9576109ca8183610816565b38611227565b61128c612f42565b61121f565b61129b90846135d0565b9050838110156112ad575b9391611175565b50826112a6565b60009250611167565b503461000e57604060031936011261000e5760206112fd6024356004356112e382610846565b8060005260d384526112f86040600020613cab565b615344565b604051908152f35b503461000e57602060031936011261000e576104b86004358060005260d36020526110776040600020613cab565b503461000e57600060031936011261000e5760206001600160a01b036101a25416604051908152f35b503461000e57600060031936011261000e57602060ff61017054166040519015158152f35b503461000e57604060031936011261000e57610cc16024356113a281610846565b60043560005260d360205263ffffffff604060002091604051927f7188a1ed00000000000000000000000000000000000000000000000000000000845260048401521660248201526064604482015260208160648173__$86182d6e9eac51236f2aa8dd2a3ddeab6c$__5af490811561144d575b60009161142f575b506040519081529081906020820190565b611447915060203d81116109d9576109ca8183610816565b3861141e565b611455612f42565b611416565b503461000e57602060031936011261000e5760043561147881610668565b6001600160a01b03806101a35416331415806114da575b610528576000916101a5906001600160a01b0319838354921691826040519582167f9b068aae3039a2512c2f13bffb5fd9d95b1895b276b5c7ddf1d4fa24ec3686588888a316179055f35b5033816101a25416141561148f565b9081602091031261000e57356114fe81610846565b90565b503461000e57602060031936011261000e5760206112fd60043561152481610846565b615b62565b8060020b0361000e57565b359061068782611529565b503461000e57608060031936011261000e576104b860043560243561156381610846565b6044359061157082611529565b6064359261157d84611529565b8060005260d36020526115936040600020613cab565b615475565b503461000e57606060031936011261000e576024356115b681610846565b604435610170906115cb60ff83541615613585565b6115d6600435615896565b916115e083613cab565b6000936115f460ff86851293541615613585565b846115ff83836158e1565b9473__$86182d6e9eac51236f2aa8dd2a3ddeab6c$__803b156116ee5760405163f5a284a160e01b8152600481019290925263ffffffff93909316602482015260448101859052606480820152831515608482015291829060a49082905af480156116e1575b6116ce575b5083821315611696575061168861169192546001600160a01b031690565b30903390614ba3565b604051f35b6116a2575b5050604051f35b6116bf6116b96116c793546001600160a01b031690565b916145d7565b903390612f4f565b388061169b565b80610d4b6116db926107a1565b3861166a565b6116e9612f42565b611665565b8280fd5b60431960a091011261000e576040519061170b826107c2565b81604435815260643561171d81610668565b602082015260843561172e81610854565b604082015260a43561173f81610854565b6060820152608060c4359161175383610854565b0152565b503461000e5760e060031936011261000e5760243561177581610846565b61177e366116f2565b809161017061179160ff82541615613585565b6117b360ff6117a1600435615896565b926117ab84613cab565b541615613585565b6117bc8261598c565b60409182916117f7835195869384937f140cf61e00000000000000000000000000000000000000000000000000000000855260048501615114565b038173__$86182d6e9eac51236f2aa8dd2a3ddeab6c$__5af4928315611996575b6000928394611961575b5061182c846145f6565b606c54811061192f57506001600160a01b0361185260208301516001600160a01b031690565b16151580611919575b611872575b50519081526020810191909152604090f35b818101906118808251151590565b91826118fd575b82156118c4575b50501561189b5738611860565b600490517f07a1db07000000000000000000000000000000000000000000000000000000008152fd5b51909150156118d2565b1590565b90816118e1575b50388061188e565b90506118f66118ef846145f6565b91516145f6565b14386118d9565b9150611908856145f6565b61191282516145f6565b1491611887565b5061192a6118ce6060830151151590565b61185b565b82517f256d6b9a0000000000000000000000000000000000000000000000000000000081526004810191909152602490fd5b909350816119859293503d841161198f575b61197d8183610816565b8101906150fe565b9190919238611822565b503d611973565b61199e612f42565b611818565b503461000e57600060031936011261000e57602060d254604051908152f35b503461000e5761010060031936011261000e5760048035906119e382610846565b60e060231936011261000e576001600160a01b036101a254163303611b8357611a276003611a218463ffffffff166000526064602052604060002090565b01612a64565b611a42611a356111de612a4b565b6001600160a01b03161590565b611b655763ffffffff61012c81611a57612a26565b1610908115611b4f575b50611b305761ffff6127108082611a766129f8565b1611611b1257611a8e611a87612a04565b61ffff1690565b11611af4576107d090611a9f612a10565b1611611ad5576040517f4182acc9c169391ef7e765eb446fc15c9d49bc73060c678bf4c424a5c0dbdbcb9080610ade8582612eaf565b604051636a098dd160e11b815260249181019182529081906020010390fd5b604051636a098dd160e11b8152602381840190815281906020010390fd5b604051636a098dd160e11b8152602281850190815281906020010390fd5b604051636a098dd160e11b815260219181019182529081906020010390fd5b620151809150611b5d612a26565b161138611a61565b604051636a098dd160e11b8152602091810182815290918291010390fd5b6040517fd7a2ae6a000000000000000000000000000000000000000000000000000000008152fd5b503461000e57602060031936011261000e57600435611bc981610668565b6001600160a01b03806101a254163303610528576000916101a4906001600160a01b0319838354921691826040519582167f8c405decc72a19ef328c92989ce6db4e4a498e1c246413fd60997a3051ba5cff8888a316179055f35b503461000e57604060031936011261000e57602435610170611c4a60ff82541615613585565b611c5a60ff6117a1600435615896565b8115611d315773__$86182d6e9eac51236f2aa8dd2a3ddeab6c$__803b1561000e576040517fd25c4a6f000000000000000000000000000000000000000000000000000000008152600481019290925260248201839052606460448301819052600190830152600090829060849082905af48015611d24575b611d11575b506000811315611cf8576104b8906116886067546001600160a01b031690565b6104b8906116bf6116b96067546001600160a01b031690565b80610d4b611d1e926107a1565b38611cd8565b611d2c612f42565b611cd3565b60046040517f1f2a2005000000000000000000000000000000000000000000000000000000008152fd5b503461000e57600060031936011261000e5760206112fd613848565b60031961010091011261000e57600490565b60431961010091011261000e57604490565b503461000e5761016060031936011261000e57611db736611d77565b610104356101243591610144356001600160a01b036101a254163303610528576127109361ffff8581611de986612a1c565b16116120025785611dff611a8760208701612a1c565b11611fe95760409580611e16611a87898801612a1c565b11611fd15780611e2b611a8760608801612a1c565b11611fb957611e3f611a8760808701612a1c565b11611fa1576103e890611e5460a08601612a1c565b1611611f8957633b9aca008067ffffffffffffffff611e7560c0870161327d565b1611611f715780611e98611e8b60e0870161327d565b67ffffffffffffffff1690565b11611f5957808511611f4157808211611f29578211611f115791611f0b60009594927f697aec6e94e319190380ab0f1f10018d81b64da2479eb874be92c9a733e0a83794611ee584613287565b611eee85606b55565b611ef781606c55565b611f0082606a55565b865194859485613499565b0390a151f35b8451636a098dd160e11b8152603a6004820152602490fd5b8551636a098dd160e11b815260396004820152602490fd5b8551636a098dd160e11b815260386004820152602490fd5b8551636a098dd160e11b815260376004820152602490fd5b8551636a098dd160e11b815260366004820152602490fd5b8451636a098dd160e11b815260356004820152602490fd5b8551636a098dd160e11b815260346004820152602490fd5b8651636a098dd160e11b815260336004820152602490fd5b8651636a098dd160e11b815260326004820152602490fd5b604051636a098dd160e11b815260316004820152602490fd5b604051636a098dd160e11b815260306004820152602490fd5b50602060031936011261000e576004803567ffffffffffffffff811161000e576120489036908301610b23565b90612052826139f5565b9160005b81811061206b5760405180610cc18682610bae565b600080612079838587615c2b565b6040939161208b855180938193615c55565b0390305af490612099613144565b918290156120c2575050906120bd916120b28287613b7d565b526110278186613b7d565b612056565b826044899394511061000e5761113e91836120e7920160248091518301019101615c63565b925192839262461bcd60e51b84528301613174565b503461000e57600060031936011261000e5760206001600160a01b0360d55416604051908152f35b503461000e5761014060031936011261000e5760243561214381610846565b606061214e36611d89565b916101709261216160ff85541615613585565b61218e60ff612185612174600435615896565b9361217e85613cab565b3690613938565b95541615613585565b6121978261598c565b828401516001600160a01b03168061229e575b506121e260405194859384937fc27789d100000000000000000000000000000000000000000000000000000000855260048501614e12565b038173__$86182d6e9eac51236f2aa8dd2a3ddeab6c$__5af48015612291575b6000908192829161225d575b50606c54811061222a5750604080519182526020820192909252f35b6040517f256d6b9a0000000000000000000000000000000000000000000000000000000081526004810191909152602490fd5b915050612281915060603d811161228a575b6122798183610816565b810190614dea565b9190913861220e565b503d61226f565b612299612f42565b612202565b6122b8906122b1608087015161ffff1690565b9084615a69565b386121aa565b503461000e57602060031936011261000e5760206112fd6004356122e181610846565b615bc0565b503461000e57600060031936011261000e5760206001600160a01b036101a35416604051908152f35b60209067ffffffffffffffff8111612329575b60051b0190565b61233161078a565b612322565b6020908160408183019282815285518094520193019160005b82811061235d575050505090565b83518552938101939281019260010161234f565b503461000e5760208060031936011261000e5760043567ffffffffffffffff811161000e573660238201121561000e578060040135906123b08261230f565b916123be6040519384610816565b80835260248484019160051b8301019136831161000e57602401905b8282106123f957610cc16123ed85615c02565b60405191829182612336565b813581529084019084016123da565b503461000e57602060031936011261000e5760043560005260d3602052610cc16040600020604051907fc4b22b8600000000000000000000000000000000000000000000000000000000825260048201526064602482015260208160448173__$86182d6e9eac51236f2aa8dd2a3ddeab6c$__5af490811561144d5760009161142f57506040519081529081906020820190565b503461000e57604060031936011261000e576004356124ba81610846565b602435906124c6613848565b90610170926124d960ff85541615613585565b6124e283615896565b936124ec85613cab565b6124fe60ff6000841292541615613585565b61250881846158e1565b9273__$86182d6e9eac51236f2aa8dd2a3ddeab6c$__90813b1561000e5760405163f5a284a160e01b8152600481019790975263ffffffff166024870152604486018390526064808701528115156084870152610cc19590600090829060a49082905af480156125e4575b6125d1575b5060008213156125a7575061168861259792546001600160a01b031690565b6040519081529081906020820190565b6125b3575b5050612597565b6116bf6116b96125ca93546001600160a01b031690565b38806125ac565b80610d4b6125de926107a1565b38612578565b6125ec612f42565b612573565b503461000e5760408060031936011261000e5760243561261081610854565b60043560005260d360205281600020908251917f0c6d7f3400000000000000000000000000000000000000000000000000000000835260048301521515602482015260646044820152818160648173__$86182d6e9eac51236f2aa8dd2a3ddeab6c$__5af49182156126bd575b60009182936126985750519081526020810191909152604090f35b816126b5929450610cc193503d851161198f5761197d8183610816565b929091611860565b6126c5612f42565b61267d565b503461000e57602060031936011261000e576001600160a01b03806101a35416331415908161278e575b506105285761017061270960ff8254166137fd565b60d6546127645761271e600435606654613712565b61272457005b60ff19815461273560ff82166137fd565b1690557f5db9ee0a495bf2e6ff9c91a7834c1ba4fdd244a5e8aa4e537bd38aeae4b073aa6020604051338152a1005b60046040517ffc23b9cd000000000000000000000000000000000000000000000000000000008152fd5b6101a254163314159050386126f4565b156127a557565b608460405162461bcd60e51b815260206004820152602e60248201527f496e697469616c697a61626c653a20636f6e747261637420697320616c72656160448201527f647920696e697469616c697a65640000000000000000000000000000000000006064820152fd5b93916128a17f39355f2f5c8206286978f443aa8126bbd29fa09c53c04569502647f3a59c8cb2936000958694986001600160a01b039a8b8092816001600160a01b03199c168c60d454161760d4558185168c6067541617606755168a60d554161760d55516886068541617606855896040519261288b846107fa565b168252603c6020830152600160408301526156ce565b61013d9680885460ff8160081c169081861461295957506128c3303b1561279e565b15978861292c575b16916101a2838882541617905560405192847f5f56bee8cffbe9a78652a74a60705edede02af10b0bbb888ca44b79a0d42ce808186a31694856101a391825416179055a361291d575b50610687612966565b61ff0019815416905538612914565b61294161013d61010061ff0019825416179055565b61295461013d600160ff19825416179055565b6128cb565b60ff6128c391161561279e565b60ff61013d5460081c16156129825761017060ff198154169055565b608460405162461bcd60e51b815260206004820152602b60248201527f496e697469616c697a61626c653a20636f6e7472616374206973206e6f74206960448201527f6e697469616c697a696e670000000000000000000000000000000000000000006064820152fd5b61ffff81160361000e57565b6024356114fe816129ec565b6044356114fe816129ec565b6064356114fe816129ec565b356114fe816129ec565b6084356114fe81610846565b60e4356114fe81610854565b610104356114fe81610854565b60e4356114fe81610668565b610124356114fe81610668565b61068790612a89602435612a77816129ec565b829061ffff1661ffff19825416179055565b612ab2604435612a98816129ec565b825463ffff0000191660109190911b63ffff000016178255565b612adf606435612ac1816129ec565b825465ffff00000000191660209190911b65ffff0000000016178255565b608435612aeb81610846565b69ffffffff0000000000001969ffffffff00000000000083549260301b169116178155612b5960a435612b1d81610854565b82547fffffffffffffffffffffffffffffffffffffffffff00ffffffffffffffffffff1690151560501b6aff0000000000000000000016178255565b612ba560c435612b6881610854565b82547fffffffffffffffffffffffffffffffffffffffff00ffffffffffffffffffffff1690151560581b6bff000000000000000000000016178255565b60e43590612bb282610668565b906bffffffffffffffffffffffff6bffffffffffffffffffffffff1983549260601b169116179055565b600361068791612c0d600435612bf181610668565b82906001600160a01b03166001600160a01b0319825416179055565b612c3b602435612c1c81610668565b60018301906001600160a01b03166001600160a01b0319825416179055565b612c69604435612c4a81610668565b60028301906001600160a01b03166001600160a01b0319825416179055565b01612c79606435612a77816129ec565b612c88608435612a98816129ec565b612c9760a435612ac1816129ec565b60c435612ca381610846565b69ffffffff0000000000001969ffffffff00000000000083549260301b169116178155612cd1612b1d612a32565b612cdc612b68612a3e565b612ce4612a57565b6bffffffffffffffffffffffff6bffffffffffffffffffffffff1983549260601b169116179055565b50634e487b7160e01b600052603260045260246000fd5b90606654821015612d65575b6066600052601c8260031c7f46501879b8ca8525e8c2fd519e2fbfcfa2ebea26501294aa02cbfcfb12e94354019260021b1690565b612d6d612d0d565b612d30565b6066549068010000000000000000821015612df3575b6001820180606655821015612de6575b60666000528160031c7f46501879b8ca8525e8c2fd519e2fbfcfa2ebea26501294aa02cbfcfb12e94354019160e083549160051b169163ffffffff9283811b93849216901b16911916179055565b612dee612d0d565b612d98565b612dfb61078a565b612d88565b3590610687826129ec565b63ffffffff9182168152610100810192916106879190606435612e2d816129ec565b61ffff809116602084015280608435612e45816129ec565b16604084015260a435612e57816129ec565b16606083015260c435612e6981610846565b166080820152612e83612e7a61085e565b151560a0830152565b612e97612e8e61086b565b151560c0830152565b60e0612ea1610679565b6001600160a01b0316910152565b63ffffffff9182168152610100810192916106879190602435612ed1816129ec565b61ffff809116602084015280604435612ee9816129ec565b166040840152606435612efb816129ec565b166060830152608435612f0d81610846565b166080820152612f1e612e7a610879565b612f29612e8e610886565b60e0612ea1610689565b9081602091031261000e575190565b506040513d6000823e3d90fd5b610687926001600160a01b03604051937fa9059cbb0000000000000000000000000000000000000000000000000000000060208601521660248401526044830152604482526080820182811067ffffffffffffffff821117612fb4575b604052613072565b612fbc61078a565b612fac565b601f19601f60209267ffffffffffffffff8111612fdf575b01160190565b612fe761078a565b612fd9565b9081602091031261000e57516114fe81610854565b1561300857565b608460405162461bcd60e51b815260206004820152602a60248201527f5361666545524332303a204552433230206f7065726174696f6e20646964206e60448201527f6f742073756363656564000000000000000000000000000000000000000000006064820152fd5b6001600160a01b03169060405190613089826107de565b6020928383527f5361666545524332303a206c6f772d6c6576656c2063616c6c206661696c656484840152803b1561310057600082819282876130db9796519301915af16130d5613144565b90613185565b805190816130e857505050565b82610687936130fb938301019101612fec565b613001565b6064846040519062461bcd60e51b82526004820152601d60248201527f416464726573733a2063616c6c20746f206e6f6e2d636f6e74726163740000006044820152fd5b3d1561316f573d9061315582612fc1565b916131636040519384610816565b82523d6000602084013e565b606090565b9060206114fe928181520190610b89565b90919015613191575090565b8151156131a15750805190602001fd5b61113e9060405191829162461bcd60e51b8352602060048401526024830190610b89565b906001600160a01b03806101a2541633036105285781511615613224576201518063ffffffff6131fc602084015163ffffffff1690565b161161320b57610687916156ce565b604051636a098dd160e11b815260116004820152602490fd5b604051636a098dd160e11b815260106004820152602490fd5b50634e487b7160e01b600052601160045260246000fd5b50634e487b7160e01b600052601260045260246000fd5b67ffffffffffffffff81160361000e57565b356114fe8161326b565b61344060e06106879261ffff813561329e816129ec565b1661ffff1960695416176069556132d760208201356132bc816129ec565b63ffff00001963ffff00006069549260101b16911617606955565b61330760408201356132e8816129ec565b65ffff000000001965ffff000000006069549260201b16911617606955565b6060810135613315816129ec565b7fffffffffffffffffffffffffffffffffffffffffffffffff0000ffffffffffff67ffff0000000000006069549260301b1691161760695561339861335c60808301612a1c565b7fffffffffffffffffffffffffffffffffffffffffffff0000ffffffffffffffff69ffff00000000000000006069549260401b16911617606955565b6133e56133a760a08301612a1c565b7fffffffffffffffffffffffffffffffffffffffff0000ffffffffffffffffffff6bffff000000000000000000006069549260501b16911617606955565b61343a6133f460c0830161327d565b7fffffffffffffffffffffffff0000000000000000ffffffffffffffffffffffff73ffffffffffffffff0000000000000000000000006069549260601b16911617606955565b0161327d565b7fffffffff0000000000000000ffffffffffffffffffffffffffffffffffffffff7bffffffffffffffff00000000000000000000000000000000000000006069549260a01b16911617606955565b35906106878261326b565b909493926101409261357561356460e061016086019980356134ba816129ec565b61ffff809116885260208201356134d0816129ec565b1660208801526134f06134e560408301612e00565b61ffff166040890152565b61350a6134ff60608301612e00565b61ffff166060890152565b61352461351960808301612e00565b61ffff166080890152565b61353e61353360a08301612e00565b61ffff1660a0890152565b61355e61354d60c0830161348e565b67ffffffffffffffff1660c0890152565b0161348e565b67ffffffffffffffff1660e0850152565b6101008301526101208201520152565b1561358c57565b606460405162461bcd60e51b815260206004820152601060248201527f5061757361626c653a20706175736564000000000000000000000000000000006044820152fd5b811981116135dc570190565b6135e461323d565b0190565b60019060001981146135dc570190565b60d65492918315613709575b600090806136e757505080925b83811061362f5750821491821561362a5750600060d655565b60d655565b63ffffffff61363d82612d24565b90549060031b1c16600052606460205260409061366b6111de600284600020016001600160a01b0390541690565b803b1561000e5760006136c8935180927f512403360000000000000000000000000000000000000000000000000000000082528183816136b360048201906000602083019252565b03925af180156136da575b6136cd57506135e8565b613611565b80610d4b611261926107a1565b6136e2612f42565b6136be565b6136f190856135d0565b905081811015613702575b92613611565b50806136fc565b60009350613604565b60d754929183156137f4575b600090806137d257505080925b838110613749575082149182156137445750600060d755565b60d755565b63ffffffff61375782612d24565b90549060031b1c1660005260646020526040906001600160a01b03600283600020015416803b1561000e576000809160246137cd9551809481937f51240336000000000000000000000000000000000000000000000000000000008352600160048401525af180156136da576136cd57506135e8565b61372b565b6137dc90856135d0565b9050818110156137ed575b9261372b565b50806137e7565b6000935061371e565b1561380457565b606460405162461bcd60e51b815260206004820152601460248201527f5061757361626c653a206e6f74207061757365640000000000000000000000006044820152fd5b61385860ff610170541615613585565b60d2547ffffffffffffffffffffffffffffffffffffffffffffffffffffffffffffffffe8111613910575b6001810160d255600081815260d36020526040902080546bffffffffffffffffffffffff163360601b6bffffffffffffffffffffffff19161781556bffffffffffffffffffffffff82166bffffffffffffffffffffffff198254161790556040518181527f7325fb14450d3e5eb288c620b4ff1d6b43a41b33b4a4f143ae88cd4c12f99ea360203392a290565b61391861323d565b613883565b359081600f0b820361000e57565b3590600382101561000e57565b809291610100918291031261000e5760405190810181811067ffffffffffffffff8211176139e8575b60405260e06139e381839561397581611534565b855261398360208201611534565b60208601526139946040820161391d565b60408601526139a560608201610696565b60608601526139b660808201612e00565b60808601526139c760a08201610893565b60a08601526139d860c0820161392b565b60c086015201610893565b910152565b6139f061078a565b613961565b906139ff8261230f565b613a0c6040519182610816565b828152601f19613a1c829461230f565b019060005b828110613a2d57505050565b806060602080938501015201613a21565b9190811015613a7f575b60051b810135907fffffffffffffffffffffffffffffffffffffffffffffffffffffffffffffffc18136030182121561000e570190565b613a87612d0d565b613a48565b50634e487b7160e01b600052602160045260246000fd5b60071115613aad57565b610687613a8c565b35600781101561000e5790565b919060208301926007821015613ad55752565b613add613a8c565b52565b9035907fffffffffffffffffffffffffffffffffffffffffffffffffffffffffffffffe18136030182121561000e570180359067ffffffffffffffff821161000e5760200191813603831361000e57565b919082604091031261000e5760208235613b4a81610846565b9201356114fe81610846565b602090805115613b64570190565b6135e4612d0d565b604090805160011015613b64570190565b6020918151811015613b92575b60051b010190565b613b9a612d0d565b613b8a565b9081606091031261000e578035613bb581610846565b9160406020830135613bc681611529565b9201356114fe81611529565b91906101208382031261000e576114fe9060208435613bf081610846565b9401613938565b809291039160c0831261000e5760a0601f198235613c1481610846565b94011261000e5760a060405191613c2a836107c2565b602081013583526040810135613c3f81610668565b60208401526060810135613c5281610854565b60408401526080810135613c6581610854565b60608401520135613c7581610854565b608082015290565b9081602091031261000e573590565b919082604091031261000e5760208235613ca581610846565b92013590565b60005b60088060ff83161015613d0d57811015613d12575b63ffffffff60018260031c8401015460e08360051b161c16908115613d0d57613ced600192613d7b565b60ff809116908114613d00575b01613cae565b613d0861323d565b613cfa565b505050565b613d1a612d0d565b613cc3565b6000821282600160ff1b018212811516613d6e575b827f7fffffffffffffffffffffffffffffffffffffffffffffffffffffffffffffff01821316613d62570390565b613d6a61323d565b0390565b613d7661323d565b613d34565b613d83613fe9565b613d9d8263ffffffff16600052606d602052604060002090565b805463ffffffff838116911614613d0d57613db7836144eb565b613dc8613dc38561410a565b614095565b93600160e01b80831090811591613f2c575b50613f255761068794613e76613e7b613ee194613e1b6003613e0f613ec79763ffffffff166000526064602052604060002090565b015460201c61ffff1690565b613e3b61ffff613e33613e2e8886613d1f565b6145f6565b921683613f37565b1015613ef657613e7660018801600160e01b7fffffff00ffffffffffffffffffffffffffffffffffffffffffffffffffffffff825416179055565b61457a565b60018601907bffffffffffffffffffffffffffffffffffffffffffffffffffffffff167fffffffff00000000000000000000000000000000000000000000000000000000825416179055565b825463ffffffff1660209190911b63ffffffff1916178255565b9063ffffffff1663ffffffff19825416179055565b613e76600188017fffffff00ffffffffffffffffffffffffffffffffffffffffffffffffffffffff8154169055565b5050505050565b905085101538613dda565b9060001981830981830291828083109203918083039214613f9457612710908282111561000e577fbc01a36e2eb1c432ca57a786c226809d495182a9930be0ded288ce703afb7e91940990828211900360fc1b910360041c170290565b505061271091500490565b6000198282099082810292838084109303928084039314613fe05768010000000000000000918383111561000e570990828211900360c01b910360401c1790565b50505060401c90565b61a4b146148015614089575b801561407d575b156140735763ffffffff6040517fa3b1b31d00000000000000000000000000000000000000000000000000000000815260208160048160645afa908115614066575b60009161404a57501690565b614062915060203d81116109d9576109ca8183610816565b1690565b61406e612f42565b61403e565b63ffffffff431690565b5062066eec4614613ffc565b5062066eeb4614613ff5565b6001600160a01b03166401000276a3811080156140ec575b6140bb57806114fe91613f9f565b602490604051907f5d236c450000000000000000000000000000000000000000000000000000000082526004820152fd5b5073fffd8963efd1fc6a506488495d951d5263988d268110156140ad565b6141249063ffffffff166000526064602052604060002090565b600361414e6001600160a01b0392836001820154169063ffffffff938491015460301c16906148cf565b60020b9060008212156144e55781600003915b620d89e883116144bb5760018316156144925770ffffffffffffffffffffffffffffffffff6ffffcb933bd6fad37aa2d162d1a5940015b169260028116614476575b6004811661445a575b6008811661443e575b60108116614422575b60208116614406575b604081166143ea575b6080908181166143cf575b61010081166143b4575b6102008116614399575b610400811661437e575b6108008116614363575b6110008116614348575b612000811661432d575b6140008116614312575b61800081166142f7575b6201000081166142dc575b6202000081166142c2575b6204000081166142a8575b620800001661428d575b5060001261427d575b81166142745760ff60005b169060201c011690565b60ff600161426a565b906142879061460b565b9061425f565b6b048a170391f7dc42444e8fa26000929402901c9290614256565b6d2216e584f5fa1ea926041bedfe98909402811c9361424c565b936e5d6af8dedb81196699c329225ee60402811c93614241565b936f09aa508b5b7a84e1c677de54f3e99bc902811c93614236565b936f31be135f97d08fd981231505542fcfa602811c9361422b565b936f70d869a156d2a1b890bb3df62baf32f702811c93614221565b936fa9f746462d870fdf8a65dc1f90e061e502811c93614217565b936fd097f3bdfd2022b8845ad8f792aa582502811c9361420d565b936fe7159475a2c29b7443b29c7fa6e889d902811c93614203565b936ff3392b0822b70005940c7a398e4b70f302811c936141f9565b936ff987a7253ac413176f2b074cf7815e5402811c936141ef565b936ffcbe86c7900a88aedcffc83b479aa3a402811c936141e5565b936ffe5dee046a99a2a811c461f1969c305302811c936141db565b926fff2ea16466c96a3843ec78b326b528610260801c926141d0565b926fff973b41fa98c081472e6896dfb254c00260801c926141c7565b926fffcb9843d60f6159c9db58835c9266440260801c926141be565b926fffe5caca7e10e4e61c3624eaa0941cd00260801c926141b5565b926ffff2e50f5f656932ef12357cf3c7fdcc0260801c926141ac565b926ffff97272373d413259a46990580e213a0260801c926141a3565b70ffffffffffffffffffffffffffffffffff700100000000000000000000000000000000614198565b60046040517f2bc80f3a000000000000000000000000000000000000000000000000000000008152fd5b81614161565b63ffffffff80911660005260646020526020600360406000200154916024604051809481937fdd86c1010000000000000000000000000000000000000000000000000000000083528160301c16600483015260601c5afa90811561456d575b600091614555575090565b6114fe915060203d81116109d9576109ca8183610816565b614575612f42565b61454a565b600160e01b81116145a6577bffffffffffffffffffffffffffffffffffffffffffffffffffffffff1690565b602490604051907f1ba344530000000000000000000000000000000000000000000000000000000082526004820152fd5b600160ff1b81146145e9575b60000390565b6145f161323d565b6145e3565b60008113156146025790565b6114fe906145d7565b8015614619575b6000190490565b614621613254565b614612565b60405190614633826107fa565b600282526040366020840137565b81601f8201121561000e578051916146588361230f565b926146666040519485610816565b808452602092838086019260051b82010192831161000e578301905b828210614690575050505090565b838091835161469e81610668565b815201910190614682565b91909160408184031261000e5780519267ffffffffffffffff9384811161000e5782019381601f8601121561000e578451946146e48661230f565b906146f26040519283610816565b868252602096878084019160051b8301019185831161000e578801905b82821061472e575050509483015190811161000e576114fe9201614641565b81518060060b810361000e57815290880190880161470f565b6020908160408183019282815285518094520193019160005b82811061476e575050505090565b835163ffffffff1685529381019392810192600101614760565b60060b9060060b906000821282667fffffffffffff190182128115166147be575b82667fffffffffffff01821316613d62570390565b6147c661323d565b6147a9565b60060b9060060b9081156147ff575b6000198214667fffffffffffff198214166147f3570590565b6147fb61323d565b0590565b614807613254565b6147da565b9060060b90811561481f575b60060b0790565b614827613254565b614818565b6000199060020b7fffffffffffffffffffffffffffffffffffffffffffffffffffffffffff80000081146135dc570190565b908160e091031261000e57805161487481610668565b91602082015161488381611529565b916040810151614892816129ec565b9160608201516148a1816129ec565b9160808101516148b0816129ec565b9160a082015160ff8116810361000e5760c0909201516114fe81610854565b9063ffffffff81168015614a6e5761494e6001600160a01b03936149096148f4614626565b946148fe86613b56565b9063ffffffff169052565b60009485918261491887613b6c565b521693604051809381927f883bdbfd00000000000000000000000000000000000000000000000000000000835260048301614747565b0381865afa849181614a49575b506149ca57505060e060049160405192838092633850c7bd60e01b82525afa9182156149bd575b9161498b575090565b6149ac915060e03d81116149b6575b6149a48183610816565b81019061485e565b5050505050905090565b503d61499a565b6149c5612f42565b614982565b6149f59192506149ef6149e26149e96149e284613b6c565b5160060b90565b92613b56565b90614788565b9060060b614a0c614a0682846147cb565b60020b90565b928260060b129182614a2b575b5050614a225790565b6114fe9061482c565b614a40925090614a3a9161480c565b60060b90565b15153880614a19565b614a669192503d8087833e614a5e8183610816565b8101906146a9565b50903861495b565b50506114fe9060e06001600160a01b0391600460405180948193633850c7bd60e01b8352165afa908115614aa8575b60009161498b575090565b614ab0612f42565b614a9d565b919091614ac860ff610170541615613585565b6000821290614ad782856158e1565b9373__$86182d6e9eac51236f2aa8dd2a3ddeab6c$__91823b1561000e5760405163f5a284a160e01b8152600481019190915263ffffffff919091166024820152604481018490526064808201526000608482018190529091829060a49082905af48015614b96575b614b83575b506000821315614b64575061168861068792546001600160a01b031690565b614b6c575050565b6116bf6116b961068793546001600160a01b031690565b80610d4b614b90926107a1565b38614b45565b614b9e612f42565b614b40565b909261068793604051937f23b872dd0000000000000000000000000000000000000000000000000000000060208601526001600160a01b03809216602486015216604484015260648301526064825260a0820182811067ffffffffffffffff821117612fb457604052613072565b614c2160ff610170541615613585565b8115611d315773__$86182d6e9eac51236f2aa8dd2a3ddeab6c$__803b1561000e576040517fd25c4a6f000000000000000000000000000000000000000000000000000000008152600481019290925260248201839052606460448301819052600090830181905290829060849082905af48015614ceb575b614cd8575b506000811315614cbf57610687906116886067546001600160a01b031690565b610687906116bf6116b96067546001600160a01b031690565b80610d4b614ce5926107a1565b38614c9f565b614cf3612f42565b614c9a565b90606091939293614d0f60ff610170541615613585565b614d188261598c565b828501516001600160a01b031680614dd1575b50614d6360405195869384937fc27789d100000000000000000000000000000000000000000000000000000000855260048501614eb9565b038173__$86182d6e9eac51236f2aa8dd2a3ddeab6c$__5af48015614dc4575b60009081938291614d9e575b50606c54811061222a57509190565b915050614dba91925060603d811161228a576122798183610816565b9291909238614d8f565b614dcc612f42565b614d83565b614de4906122b1608088015161ffff1690565b38614d2b565b9081606091031261000e578051916040602083015192015190565b906003821015613ad55752565b614eaa60e061016093969563ffffffff610687966101808601998652166020850152805160020b6040850152602081015160020b60608501526040810151600f0b6080850152614e72606082015160a08601906001600160a01b03169052565b608081015161ffff1660c085015260a0810151151584830152614e9e60c0820151610100860190614e05565b01511515610120830152565b60646101408201520160019052565b614f1860e061016093969563ffffffff6000966101808601998652166020850152805160020b6040850152602081015160020b60608501526040810151600f0b6080850152614e72606082015160a08601906001600160a01b03169052565b60646101408201520152565b9082939291614f3960ff610170541615613585565b614f428261598c565b6040918291614fdb835195869384937f140cf61e00000000000000000000000000000000000000000000000000000000855260048501608061010092959463ffffffff6000956101208501988552166020840152805160408401526001600160a01b03602082015116606084015260408101511515828401526060810151151560a08401520151151560c0820152606460e08201520152565b038173__$86182d6e9eac51236f2aa8dd2a3ddeab6c$__5af49384156150f1575b60009283956150cc575b50615010856145f6565b606c54811061192f57506001600160a01b0361503660208301516001600160a01b031690565b161515806150b6575b61504a575b50509190565b818101906150588251151590565b918261509a575b8215615073575b50501561189b5780615044565b5115915081615085575b503880615066565b90506150936118ef846145f6565b143861507d565b91506150a5866145f6565b6150af82516145f6565b149161505f565b506150c76118ce6060830151151590565b61503f565b909450816150e79293503d841161198f5761197d8183610816565b9190919338615006565b6150f9612f42565b614ffc565b919082604091031261000e576020825192015190565b608061010092959463ffffffff610687956101208501988552166020840152805160408401526001600160a01b03602082015116606084015260408101511515828401526060810151151560a08401520151151560c0820152606460e08201520160019052565b61518b60ff610170541615613585565b6151e560606151a48360005260d3602052604060002090565b604051809381927fdf19bf09000000000000000000000000000000000000000000000000000000008352600483016020606491939293604081019481520152565b038173__$86182d6e9eac51236f2aa8dd2a3ddeab6c$__5af49182156152e7575b600092839284916152c1575b5061521d83856152f4565b92600085131561528f57907f688f0846fe2852572c467d5e769db101b0fea55e8849406d85c9fb322b95299b91615267866152606067546001600160a01b031690565b3390612f4f565b61527081615565565b604080519586526020860187905285015260608401523392608090a390565b6040517fef37dcc700000000000000000000000000000000000000000000000000000000815260048101869052602490fd5b919350506152dd915060603d811161228a576122798183610816565b9192909138615212565b6152ef612f42565b615206565b60008112817f7fffffffffffffffffffffffffffffffffffffffffffffffffffffffffffffff038313811516615337575b81600160ff1b038312166135dc570190565b61533f61323d565b615325565b6153c39161536e60409261535e60ff610170541615613585565b60005260d3602052604060002090565b6153778261598c565b825193849283927fec1464960000000000000000000000000000000000000000000000000000000084526004840160409063ffffffff6064939594606083019683521660208201520152565b038173__$86182d6e9eac51236f2aa8dd2a3ddeab6c$__5af48015615468575b6000918291615448575b506000821315615416576114fe90615411836152606067546001600160a01b031690565b615565565b6040517fef37dcc700000000000000000000000000000000000000000000000000000000815260048101839052602490fd5b9050615462915060403d811161198f5761197d8183610816565b386153ed565b615470612f42565b6153e3565b9290919261548960ff610170541615613585565b60005260d36020526040600020916154a08161598c565b606b549373__$86182d6e9eac51236f2aa8dd2a3ddeab6c$__93843b1561000e5763ffffffff9460009460c49360405197889687957fe0448f0a000000000000000000000000000000000000000000000000000000008752600487015216602485015260020b604484015260020b6064830152866084830152606460a48301525af48015615558575b615545575b506114fe816152606067546001600160a01b031690565b80610d4b615552926107a1565b3861552e565b615560612f42565b615529565b600081131561558a57610687906001600160a01b0380606754169060d5541690612f4f565b61559f6001600160a01b0360d55416916145d7565b813b1561000e576000916024839260405194859384927f379607f500000000000000000000000000000000000000000000000000000000845260048401525af180156155f6575b6155ed5750565b610687906107a1565b6155fe612f42565b6155e6565b61565a602060016001600160a01b03936156368587511682906001600160a01b03166001600160a01b0319825416179055565b019301519182511683906001600160a01b03166001600160a01b0319825416179055565b6020810151907fffffffffffffff0000000000ffffffffffffffffffffffffffffffffffffffff77ffffffff000000000000000000000000000000000000000078ff00000000000000000000000000000000000000000000000060408654940151151560c01b169360a01b16911617179055565b919063ffffffff83166001600160a01b03841615615864576157166118ce611a356157098463ffffffff166000526065602052604060002090565b546001600160a01b031690565b80615829575b6157c957926157807f52983c04d8ccd4808cd0fcb24e6e48106ecb41e803d6270c6c94a15e3ebd08d2939461577b615752610839565b6001600160a01b03851681529185602084015263ffffffff166000526065602052604060002090565b615603565b6157c460405192839283909291604060609160808401956001600160a01b038091168552815116602085015263ffffffff6020820151168285015201511515910152565b0390a1565b6157e7615709859263ffffffff166000526065602052604060002090565b6040517fa5d4d0b50000000000000000000000000000000000000000000000000000000081526001600160a01b03928316600482015291166024820152604490fd5b5061585f6118ce8561584e6157098563ffffffff166000526065602052604060002090565b6001600160a01b0390811691161490565b61571c565b6040517f76d8a93100000000000000000000000000000000000000000000000000000000815260006004820152602490fd5b60005260d3602052604060002090815460601c33036158b157565b60246040517f0504a20d000000000000000000000000000000000000000000000000000000008152336004820152fd5b63ffffffff90929192168060005260656020526040600020926001600160a01b038454161561595b571580615949575b6159185750565b602490604051907f9150f8c80000000000000000000000000000000000000000000000000000000082526004820152fd5b5060ff600184015460c01c1615615911565b602482604051907f6b9c1a9d0000000000000000000000000000000000000000000000000000000082526004820152fd5b63ffffffff1680600052606460205260406000206001600160a01b03815416156159f3576003015460501c60ff16156159c25750565b602490604051907fb0fdd2020000000000000000000000000000000000000000000000000000000082526004820152fd5b602482604051907fb842f5a70000000000000000000000000000000000000000000000000000000082526004820152fd5b6001600160a01b039182169116818110613d62570390565b6001600160a01b039182809216918291169204821181151516615a5d570290565b615a6561323d565b0290565b63ffffffff166000526064602052615aee6111de615add6001600160a01b039361ffff600460e0876001604060002001541660405192838092633850c7bd60e01b82525afa908115615b55575b600091615b31575b50828781168289161115615b2157615ad591615a24565b965b16615a3c565b6001600160a01b0361271091160490565b911611615af757565b60046040517f07a1db07000000000000000000000000000000000000000000000000000000008152fd5b90615b2b91615a24565b96615ad7565b615b49915060e03d81116149b6576149a48183610816565b50505050505038615abe565b615b5d612f42565b615ab6565b615b6a613fe9565b9063ffffffff91828216600052606d60205260406000209280845416911614600014615bb65750600101547bffffffffffffffffffffffffffffffffffffffffffffffffffffffff1690565b6114fe91506144eb565b615bc8613fe9565b9063ffffffff808216600052606d60205280604060002054931690831614600014615bf4575060201c90565b6114fe9150613dc39061410a565b805160051b810160209081018183015b818110615c1f5750505090565b80515481528201615c12565b9091615c4492811015615c48575b60051b810190613ae0565b9091565b615c50612d0d565b615c39565b908092918237016000815290565b60208183031261000e5780519067ffffffffffffffff821161000e570181601f8201121561000e578051615c9681612fc1565b92615ca46040519485610816565b8184526020828401011161000e576114fe9160208085019101610b5456fea2646970667358221220ce0c9dd12d7cf9ac7f88003d50982dae4b671420307d28b4df67edd28c55ad5464736f6c634300080e0033",
  "libraries": {
    "Account": "0x3fab135e76c5c0e85a60bf50f100c8cd912f7e56"
  },
  "devdoc": {
    "errors": {
      "AccessDenied(address)": [
        {
          "params": {
            "senderAddress": "address of msg sender"
          }
        }
      ],
      "CollateralDoesNotExist(uint32)": [
        {
          "params": {
            "collateralId": "address of token"
          }
        }
      ],
      "CollateralNotAllowedForUse(uint32)": [
        {
          "params": {
            "collateralId": "address of token"
          }
        }
      ],
      "IncorrectCollateralAddress(address,address)": [
        {
          "params": {
            "correctAddress": "correct address of collateral token",
            "incorrectAddress": "incorrect address of collateral token"
          }
        }
      ],
      "InvalidCollateralAddress(address)": [
        {
          "params": {
            "invalidAddress": "invalid address of collateral token"
          }
        }
      ],
      "InvalidMulticallOperationType(uint8)": [
        {
          "params": {
            "multicallOperationType": "is the value that is out of bounds"
          }
        }
      ],
      "LowNotionalValue(uint256)": [
        {
          "params": {
            "notionalValue": "notional value of txn"
          }
        }
      ],
      "PoolDoesNotExist(uint32)": [
        {
          "params": {
            "poolId": "unitialized truncated address supplied"
          }
        }
      ],
      "PoolNotAllowedForTrade(uint32)": [
        {
          "params": {
            "poolId": "address of token"
          }
        }
      ]
    },
    "kind": "dev",
    "methods": {
      "createAccount()": {
        "returns": {
          "newAccountId": "- serial number of the new account created"
        }
      },
      "createAccountAndAddMargin(uint32,uint256)": {
        "params": {
          "amount": "amount of token to deposit",
          "collateralId": "truncated address of collateral token to deposit"
        },
        "returns": {
          "newAccountId": "- serial number of the new account created"
        }
      },
      "extsload(bytes32)": {
        "params": {
          "slot": "to read from."
        },
        "returns": {
          "val": "stored at the slot."
        }
      },
      "extsload(bytes32[])": {
        "params": {
          "slots": "to read from."
        },
        "returns": {
          "_0": "values stored at the slots."
        }
      },
      "getAccountMarketValueAndRequiredMargin(uint256,bool)": {
        "details": "This method can be used to check if an account is under water or not.     If accountMarketValue < requiredMargin then liquidation can take place.",
        "params": {
          "accountId": "the account id",
          "isInitialMargin": "true is initial margin, false is maintainance margin"
        },
        "returns": {
          "marketValue": "the market value of the account, due to collateral and positions",
          "requiredMargin": "margin needed due to positions"
        }
      },
      "getAccountNetProfit(uint256)": {
        "params": {
          "accountId": "the account id"
        },
        "returns": {
          "accountNetProfit": "the net profit of the account"
        }
      },
      "getAccountNetTokenPosition(uint256,uint32)": {
        "params": {
          "accountId": "the account id",
          "poolId": "the id of the pool (vETH, ... etc)"
        },
        "returns": {
          "netPosition": "the net position of the account"
        }
      },
      "getRealTwapPriceX128(uint32)": {
        "params": {
          "poolId": "the id of the pool"
        },
        "returns": {
          "realPriceX128": "the real price of the pool"
        }
      },
      "getVirtualTwapPriceX128(uint32)": {
        "params": {
          "poolId": "the id of the pool"
        },
        "returns": {
          "virtualPriceX128": "the virtual price of the pool"
        }
      },
      "initiateGovernanceTransfer(address)": {
        "params": {
          "newGovernancePending": "the new governance address"
        }
      },
      "initiateTeamMultisigTransfer(address)": {
        "params": {
          "newTeamMultisigPending": "the new team multisig address"
        }
      },
      "liquidateLiquidityPositions(uint256)": {
        "details": "removes all the active range positions and gives liquidator a percent of notional amount closed + fixedFee",
        "params": {
          "accountId": "account id"
        }
      },
      "liquidateTokenPosition(uint256,uint32)": {
        "details": "transfers the fraction of token position at a discount to current price to liquidators account and gives liquidator some fixedFee",
        "params": {
          "poolId": "truncated address of token to withdraw",
          "targetAccountId": "account id"
        },
        "returns": {
          "keeperFee": "- amount of fees transferred to keeper"
        }
      },
      "multicall(bytes[])": {
        "details": "The `msg.value` should not be trusted for any method callable from multicall.",
        "params": {
          "data": "The encoded function data for each of the calls to make to this contract"
        },
        "returns": {
          "results": "The results from each of the calls passed in via data"
        }
      },
      "paused()": {
        "details": "Returns true if the contract is paused, and false otherwise."
      },
      "removeLimitOrder(uint256,uint32,int24,int24)": {
        "details": "checks the position of current price relative to limit order and checks limitOrderType",
        "params": {
          "accountId": "account id",
          "poolId": "truncated address of token to withdraw",
          "tickLower": "liquidity change parameters",
          "tickUpper": "liquidity change parameters"
        }
      },
      "settleProfit(uint256)": {
        "params": {
          "accountId": "account id"
        }
      },
      "swapToken(uint256,uint32,(int256,uint160,bool,bool,bool))": {
        "params": {
          "accountId": "account id",
          "poolId": "truncated address of token to withdraw",
          "swapParams": "swap parameters"
        }
      },
      "updateMargin(uint256,uint32,int256)": {
        "params": {
          "accountId": "account id",
          "amount": "amount of token to deposit",
          "collateralId": "truncated address of token to deposit"
        }
      },
      "updatePoolSettings(uint32,(uint16,uint16,uint16,uint32,bool,bool,address))": {
        "params": {
          "newSettings": "updated rage trade pool settings",
          "poolId": "rage trade pool id"
        }
      },
      "updateProfit(uint256,int256)": {
        "params": {
          "accountId": "account id",
          "amount": "amount of token to withdraw"
        }
      },
      "updateRangeOrder(uint256,uint32,(int24,int24,int128,uint160,uint16,bool,uint8,bool))": {
        "params": {
          "accountId": "account id",
          "liquidityChangeParams": "liquidity change parameters",
          "poolId": "truncated address of token to withdraw"
        }
      },
      "withdrawProtocolFee(uint256)": {
        "params": {
          "numberOfPoolsToUpdateInThisTx": "number of pools to collect fees from"
        }
      }
    },
    "version": 1
  },
  "userdoc": {
    "errors": {
      "AccessDenied(address)": [
        {
          "notice": "error to denote invalid account access"
        }
      ],
      "CannotPauseIfUnpauseInProgress()": [
        {
          "notice": "error to denote unpause is in progress, hence cannot pause"
        }
      ],
      "CannotUnpauseIfPauseInProgress()": [
        {
          "notice": "error to denote pause is in progress, hence cannot unpause"
        }
      ],
      "CollateralDoesNotExist(uint32)": [
        {
          "notice": "error to denote usage of uninitialized token"
        }
      ],
      "CollateralNotAllowedForUse(uint32)": [
        {
          "notice": "error to denote usage of unsupported collateral token"
        }
      ],
      "IncorrectCollateralAddress(address,address)": [
        {
          "notice": "error to denote incorrect address is supplied while updating collateral settings"
        }
      ],
      "InvalidCollateralAddress(address)": [
        {
          "notice": "error to denote invalid address supplied as a collateral token"
        }
      ],
      "InvalidMulticallOperationType(uint8)": [
        {
          "notice": "this is errored when the enum (uint8) value is out of bounds"
        }
      ],
      "InvalidSetting(uint256)": [
        {
          "notice": "error to denote an invalid setting for parameters"
        }
      ],
      "InvalidTokenLiquidationParameters()": [
        {
          "notice": "error to denote invalid token liquidation (fraction to liquidate> 1)"
        }
      ],
      "KeeperFeeNotPositive(int256)": [
        {
          "notice": "error to denote that keeper fee is negative or zero"
        }
      ],
      "LowNotionalValue(uint256)": [
        {
          "notice": "error to denote low notional value of txn"
        }
      ],
      "NotRageTradeFactory()": [
        {
          "notice": "error to denote that caller is not ragetrade factory"
        }
      ],
      "PoolDoesNotExist(uint32)": [
        {
          "notice": "error to denote usage of uninitialized pool"
        }
      ],
      "PoolNotAllowedForTrade(uint32)": [
        {
          "notice": "error to denote usage of unsupported pool"
        }
      ],
      "SlippageBeyondTolerance()": [
        {
          "notice": "error to denote slippage of txn beyond set threshold"
        }
      ],
      "ZeroAmount()": [
        {
          "notice": "error to denote that zero amount is passed and it's prohibited"
        }
      ]
    },
    "events": {
      "AccountCreated(address,uint256)": {
        "notice": "denotes new account creation"
      },
      "CollateralSettingsUpdated(address,(address,uint32,bool))": {
        "notice": "new collateral supported as margin"
      },
      "PoolSettingsUpdated(uint32,(uint16,uint16,uint16,uint32,bool,bool,address))": {
        "notice": "maintainance margin ratio of a pool changed"
      },
      "ProtocolSettingsUpdated((uint16,uint16,uint16,uint16,uint16,uint16,uint64,uint64),uint256,uint256,uint256)": {
        "notice": "protocol settings changed"
      }
    },
    "kind": "user",
    "methods": {
      "acceptGovernanceTransfer()": {
        "notice": "Completes governance transfer, on being called by _governancePending."
      },
      "acceptTeamMultisigTransfer()": {
        "notice": "Completes teamMultisig transfer, on being called by _teamMultisigPending."
      },
      "createAccount()": {
        "notice": "creates a new account and adds it to the accounts map"
      },
      "createAccountAndAddMargin(uint32,uint256)": {
        "notice": "creates a new account and deposits 'amount' of token associated with 'poolId'"
      },
      "extsload(bytes32)": {
        "notice": "Returns a value from the storage."
      },
      "extsload(bytes32[])": {
        "notice": "Returns multiple values from storage."
      },
      "getAccountMarketValueAndRequiredMargin(uint256,bool)": {
        "notice": "Gets the market value and required margin of an account"
      },
      "getAccountNetProfit(uint256)": {
        "notice": "Gets the net profit of an account"
      },
      "getAccountNetTokenPosition(uint256,uint32)": {
        "notice": "Gets the net position of an account"
      },
      "getRealTwapPriceX128(uint32)": {
        "notice": "Gets the real twap price from the respective oracle of the given poolId"
      },
      "getVirtualTwapPriceX128(uint32)": {
        "notice": "Gets the virtual twap price from the respective oracle of the given poolId"
      },
      "governance()": {
        "notice": "Returns the address of the current governance."
      },
      "governancePending()": {
        "notice": "Returns the address of the current governance."
      },
      "initialize(address,address,address,address,address,address,address)": {
        "notice": "SYSTEM FUNCTIONS"
      },
      "initiateGovernanceTransfer(address)": {
        "notice": "Initiates governance transfer to a new account (`newGovernancePending`)."
      },
      "initiateTeamMultisigTransfer(address)": {
        "notice": "Initiates teamMultisig transfer to a new account (`newTeamMultisigPending`)."
      },
      "liquidateLiquidityPositions(uint256)": {
        "notice": "keeper call for liquidation of range position"
      },
      "liquidateTokenPosition(uint256,uint32)": {
        "notice": "keeper call for liquidation of token position"
      },
      "multicall(bytes[])": {
        "notice": "Call multiple functions in the current contract and return the data from all of them if they all succeed"
      },
      "multicallWithSingleMarginCheck(uint256,(uint8,bytes)[])": {
        "notice": "MULTICALL"
      },
      "removeLimitOrder(uint256,uint32,int24,int24)": {
        "notice": "keeper call to remove a limit order"
      },
      "settleProfit(uint256)": {
        "notice": "settles the profit/loss made with the settlement token collateral deposits"
      },
      "swapToken(uint256,uint32,(int256,uint160,bool,bool,bool))": {
        "notice": "swaps token associated with 'poolId' by 'amount' (Long if amount>0 else Short)"
      },
      "teamMultisig()": {
        "notice": "Returns the address of the current team multisig.transferTeamMultisig"
      },
      "teamMultisigPending()": {
        "notice": "Returns the address of the current team multisig.transferTeamMultisig"
      },
      "updateCollateralSettings(address,(address,uint32,bool))": {
        "notice": "ADMIN FUNCTIONS"
      },
      "updateMargin(uint256,uint32,int256)": {
        "notice": "deposits 'amount' of token associated with 'poolId'"
      },
      "updatePoolSettings(uint32,(uint16,uint16,uint16,uint32,bool,bool,address))": {
        "notice": "updates the rage trade pool settings"
      },
      "updateProfit(uint256,int256)": {
        "notice": "withdraws 'amount' of settlement token from the profit made"
      },
      "updateRangeOrder(uint256,uint32,(int24,int24,int128,uint160,uint16,bool,uint8,bool))": {
        "notice": "updates range order of token associated with 'poolId' by 'liquidityDelta' (Adds if amount>0 else Removes)also can be used to update limitOrderType"
      },
      "withdrawProtocolFee(uint256)": {
        "notice": "withdraws protocol fees collected in the supplied wrappers to team multisig"
      },
      "withdrawUSDCToTeamMultisig()": {
        "notice": "WITHDRAWAL FUNCTION"
      }
    },
    "version": 1
  },
  "storageLayout": {
    "storage": [
      {
        "astId": 26769,
        "contract": "contracts/protocol/clearinghouse/ClearingHouse.sol:ClearingHouse",
        "label": "_emptySlots1",
        "offset": 0,
        "slot": "0",
        "type": "t_array(t_uint256)100_storage"
      },
      {
        "astId": 26772,
        "contract": "contracts/protocol/clearinghouse/ClearingHouse.sol:ClearingHouse",
        "label": "protocol",
        "offset": 0,
        "slot": "100",
        "type": "t_struct(Info)17632_storage"
      },
      {
        "astId": 26774,
        "contract": "contracts/protocol/clearinghouse/ClearingHouse.sol:ClearingHouse",
        "label": "numAccounts",
        "offset": 0,
        "slot": "210",
        "type": "t_uint256"
      },
      {
        "astId": 26779,
        "contract": "contracts/protocol/clearinghouse/ClearingHouse.sol:ClearingHouse",
        "label": "accounts",
        "offset": 0,
        "slot": "211",
        "type": "t_mapping(t_uint256,t_struct(Info)13029_storage)"
      },
      {
        "astId": 26781,
        "contract": "contracts/protocol/clearinghouse/ClearingHouse.sol:ClearingHouse",
        "label": "rageTradeFactoryAddress",
        "offset": 0,
        "slot": "212",
        "type": "t_address"
      },
      {
        "astId": 26784,
        "contract": "contracts/protocol/clearinghouse/ClearingHouse.sol:ClearingHouse",
        "label": "insuranceFund",
        "offset": 0,
        "slot": "213",
        "type": "t_contract(IInsuranceFund)11389"
      },
      {
        "astId": 26787,
        "contract": "contracts/protocol/clearinghouse/ClearingHouse.sol:ClearingHouse",
        "label": "pauseLoop",
        "offset": 0,
        "slot": "214",
        "type": "t_struct(Info)14459_storage"
      },
      {
        "astId": 26790,
        "contract": "contracts/protocol/clearinghouse/ClearingHouse.sol:ClearingHouse",
        "label": "unpauseLoop",
        "offset": 0,
        "slot": "215",
        "type": "t_struct(Info)14459_storage"
      },
      {
        "astId": 26793,
        "contract": "contracts/protocol/clearinghouse/ClearingHouse.sol:ClearingHouse",
        "label": "withdrawProtocolFeeLoop",
        "offset": 0,
        "slot": "216",
        "type": "t_struct(Info)14459_storage"
      },
      {
        "astId": 26797,
        "contract": "contracts/protocol/clearinghouse/ClearingHouse.sol:ClearingHouse",
        "label": "_emptySlots2",
        "offset": 0,
        "slot": "217",
        "type": "t_array(t_uint256)100_storage"
      },
      {
        "astId": 93,
        "contract": "contracts/protocol/clearinghouse/ClearingHouse.sol:ClearingHouse",
        "label": "_initialized",
        "offset": 0,
        "slot": "317",
        "type": "t_bool"
      },
      {
        "astId": 96,
        "contract": "contracts/protocol/clearinghouse/ClearingHouse.sol:ClearingHouse",
        "label": "_initializing",
        "offset": 1,
        "slot": "317",
        "type": "t_bool"
      },
      {
        "astId": 1271,
        "contract": "contracts/protocol/clearinghouse/ClearingHouse.sol:ClearingHouse",
        "label": "__gap",
        "offset": 0,
        "slot": "318",
        "type": "t_array(t_uint256)50_storage"
      },
      {
        "astId": 181,
        "contract": "contracts/protocol/clearinghouse/ClearingHouse.sol:ClearingHouse",
        "label": "_paused",
        "offset": 0,
        "slot": "368",
        "type": "t_bool"
      },
      {
        "astId": 270,
        "contract": "contracts/protocol/clearinghouse/ClearingHouse.sol:ClearingHouse",
        "label": "__gap",
        "offset": 0,
        "slot": "369",
        "type": "t_array(t_uint256)49_storage"
      },
      {
        "astId": 35305,
        "contract": "contracts/protocol/clearinghouse/ClearingHouse.sol:ClearingHouse",
        "label": "_governance",
        "offset": 0,
        "slot": "418",
        "type": "t_address"
      },
      {
        "astId": 35307,
        "contract": "contracts/protocol/clearinghouse/ClearingHouse.sol:ClearingHouse",
        "label": "_teamMultisig",
        "offset": 0,
        "slot": "419",
        "type": "t_address"
      },
      {
        "astId": 35309,
        "contract": "contracts/protocol/clearinghouse/ClearingHouse.sol:ClearingHouse",
        "label": "_governancePending",
        "offset": 0,
        "slot": "420",
        "type": "t_address"
      },
      {
        "astId": 35311,
        "contract": "contracts/protocol/clearinghouse/ClearingHouse.sol:ClearingHouse",
        "label": "_teamMultisigPending",
        "offset": 0,
        "slot": "421",
        "type": "t_address"
      }
    ],
    "types": {
      "t_address": {
        "encoding": "inplace",
        "label": "address",
        "numberOfBytes": "20"
      },
      "t_array(t_uint256)100_storage": {
        "base": "t_uint256",
        "encoding": "inplace",
        "label": "uint256[100]",
        "numberOfBytes": "3200"
      },
      "t_array(t_uint256)49_storage": {
        "base": "t_uint256",
        "encoding": "inplace",
        "label": "uint256[49]",
        "numberOfBytes": "1568"
      },
      "t_array(t_uint256)50_storage": {
        "base": "t_uint256",
        "encoding": "inplace",
        "label": "uint256[50]",
        "numberOfBytes": "1600"
      },
      "t_array(t_uint32)8_storage": {
        "base": "t_uint32",
        "encoding": "inplace",
        "label": "uint32[8]",
        "numberOfBytes": "32"
      },
      "t_array(t_uint32)dyn_storage": {
        "base": "t_uint32",
        "encoding": "dynamic_array",
        "label": "uint32[]",
        "numberOfBytes": "32"
      },
      "t_array(t_uint48)5_storage": {
        "base": "t_uint48",
        "encoding": "inplace",
        "label": "uint48[5]",
        "numberOfBytes": "32"
      },
      "t_bool": {
        "encoding": "inplace",
        "label": "bool",
        "numberOfBytes": "1"
      },
      "t_contract(IERC20)4189": {
        "encoding": "inplace",
        "label": "contract IERC20",
        "numberOfBytes": "20"
      },
      "t_contract(IInsuranceFund)11389": {
        "encoding": "inplace",
        "label": "contract IInsuranceFund",
        "numberOfBytes": "20"
      },
      "t_contract(IOracle)11399": {
        "encoding": "inplace",
        "label": "contract IOracle",
        "numberOfBytes": "20"
      },
      "t_contract(IUniswapV3Pool)6184": {
        "encoding": "inplace",
        "label": "contract IUniswapV3Pool",
        "numberOfBytes": "20"
      },
      "t_contract(IVPoolWrapper)11608": {
        "encoding": "inplace",
        "label": "contract IVPoolWrapper",
        "numberOfBytes": "20"
      },
      "t_contract(IVQuote)11632": {
        "encoding": "inplace",
        "label": "contract IVQuote",
        "numberOfBytes": "20"
      },
      "t_contract(IVToken)11656": {
        "encoding": "inplace",
        "label": "contract IVToken",
        "numberOfBytes": "20"
      },
      "t_enum(LimitOrderType)11856": {
        "encoding": "inplace",
        "label": "enum IClearingHouseEnums.LimitOrderType",
        "numberOfBytes": "1"
      },
      "t_int24": {
        "encoding": "inplace",
        "label": "int24",
        "numberOfBytes": "3"
      },
      "t_int256": {
        "encoding": "inplace",
        "label": "int256",
        "numberOfBytes": "32"
      },
      "t_mapping(t_uint256,t_struct(Info)13029_storage)": {
        "encoding": "mapping",
        "key": "t_uint256",
        "label": "mapping(uint256 => struct Account.Info)",
        "numberOfBytes": "32",
        "value": "t_struct(Info)13029_storage"
      },
      "t_mapping(t_uint32,t_struct(Collateral)11995_storage)": {
        "encoding": "mapping",
        "key": "t_uint32",
        "label": "mapping(uint32 => struct IClearingHouseStructures.Collateral)",
        "numberOfBytes": "32",
        "value": "t_struct(Collateral)11995_storage"
      },
      "t_mapping(t_uint32,t_struct(Info)21324_storage)": {
        "encoding": "mapping",
        "key": "t_uint32",
        "label": "mapping(uint32 => struct VTokenPosition.Info)",
        "numberOfBytes": "32",
        "value": "t_struct(Info)21324_storage"
      },
      "t_mapping(t_uint32,t_struct(Pool)12083_storage)": {
        "encoding": "mapping",
        "key": "t_uint32",
        "label": "mapping(uint32 => struct IClearingHouseStructures.Pool)",
        "numberOfBytes": "32",
        "value": "t_struct(Pool)12083_storage"
      },
      "t_mapping(t_uint32,t_struct(PriceCache)17594_storage)": {
        "encoding": "mapping",
        "key": "t_uint32",
        "label": "mapping(uint32 => struct Protocol.PriceCache)",
        "numberOfBytes": "32",
        "value": "t_struct(PriceCache)17594_storage"
      },
      "t_mapping(t_uint32,t_uint256)": {
        "encoding": "mapping",
        "key": "t_uint32",
        "label": "mapping(uint32 => uint256)",
        "numberOfBytes": "32",
        "value": "t_uint256"
      },
      "t_mapping(t_uint48,t_struct(Info)15514_storage)": {
        "encoding": "mapping",
        "key": "t_uint48",
        "label": "mapping(uint48 => struct LiquidityPosition.Info)",
        "numberOfBytes": "32",
        "value": "t_struct(Info)15514_storage"
      },
      "t_struct(Collateral)11995_storage": {
        "encoding": "inplace",
        "label": "struct IClearingHouseStructures.Collateral",
        "members": [
          {
            "astId": 11991,
            "contract": "contracts/protocol/clearinghouse/ClearingHouse.sol:ClearingHouse",
            "label": "token",
            "offset": 0,
            "slot": "0",
            "type": "t_contract(IERC20)4189"
          },
          {
            "astId": 11994,
            "contract": "contracts/protocol/clearinghouse/ClearingHouse.sol:ClearingHouse",
            "label": "settings",
            "offset": 0,
            "slot": "1",
            "type": "t_struct(CollateralSettings)12003_storage"
          }
        ],
        "numberOfBytes": "64"
      },
      "t_struct(CollateralSettings)12003_storage": {
        "encoding": "inplace",
        "label": "struct IClearingHouseStructures.CollateralSettings",
        "members": [
          {
            "astId": 11998,
            "contract": "contracts/protocol/clearinghouse/ClearingHouse.sol:ClearingHouse",
            "label": "oracle",
            "offset": 0,
            "slot": "0",
            "type": "t_contract(IOracle)11399"
          },
          {
            "astId": 12000,
            "contract": "contracts/protocol/clearinghouse/ClearingHouse.sol:ClearingHouse",
            "label": "twapDuration",
            "offset": 20,
            "slot": "0",
            "type": "t_uint32"
          },
          {
            "astId": 12002,
            "contract": "contracts/protocol/clearinghouse/ClearingHouse.sol:ClearingHouse",
            "label": "isAllowedForDeposit",
            "offset": 24,
            "slot": "0",
            "type": "t_bool"
          }
        ],
        "numberOfBytes": "32"
      },
      "t_struct(Info)13029_storage": {
        "encoding": "inplace",
        "label": "struct Account.Info",
        "members": [
          {
            "astId": 13016,
            "contract": "contracts/protocol/clearinghouse/ClearingHouse.sol:ClearingHouse",
            "label": "id",
            "offset": 0,
            "slot": "0",
            "type": "t_uint96"
          },
          {
            "astId": 13018,
            "contract": "contracts/protocol/clearinghouse/ClearingHouse.sol:ClearingHouse",
            "label": "owner",
            "offset": 12,
            "slot": "0",
            "type": "t_address"
          },
          {
            "astId": 13021,
            "contract": "contracts/protocol/clearinghouse/ClearingHouse.sol:ClearingHouse",
            "label": "tokenPositions",
            "offset": 0,
            "slot": "1",
            "type": "t_struct(Set)21310_storage"
          },
          {
            "astId": 13024,
            "contract": "contracts/protocol/clearinghouse/ClearingHouse.sol:ClearingHouse",
            "label": "collateralDeposits",
            "offset": 0,
            "slot": "104",
            "type": "t_struct(Set)14783_storage"
          },
          {
            "astId": 13028,
            "contract": "contracts/protocol/clearinghouse/ClearingHouse.sol:ClearingHouse",
            "label": "_emptySlots",
            "offset": 0,
            "slot": "206",
            "type": "t_array(t_uint256)100_storage"
          }
        ],
        "numberOfBytes": "9792"
      },
      "t_struct(Info)14459_storage": {
        "encoding": "inplace",
        "label": "struct BatchedLoop.Info",
        "members": [
          {
            "astId": 14458,
            "contract": "contracts/protocol/clearinghouse/ClearingHouse.sol:ClearingHouse",
            "label": "progress",
            "offset": 0,
            "slot": "0",
            "type": "t_uint256"
          }
        ],
        "numberOfBytes": "32"
      },
      "t_struct(Info)15514_storage": {
        "encoding": "inplace",
        "label": "struct LiquidityPosition.Info",
        "members": [
          {
            "astId": 15493,
            "contract": "contracts/protocol/clearinghouse/ClearingHouse.sol:ClearingHouse",
            "label": "limitOrderType",
            "offset": 0,
            "slot": "0",
            "type": "t_enum(LimitOrderType)11856"
          },
          {
            "astId": 15495,
            "contract": "contracts/protocol/clearinghouse/ClearingHouse.sol:ClearingHouse",
            "label": "tickLower",
            "offset": 1,
            "slot": "0",
            "type": "t_int24"
          },
          {
            "astId": 15497,
            "contract": "contracts/protocol/clearinghouse/ClearingHouse.sol:ClearingHouse",
            "label": "tickUpper",
            "offset": 4,
            "slot": "0",
            "type": "t_int24"
          },
          {
            "astId": 15499,
            "contract": "contracts/protocol/clearinghouse/ClearingHouse.sol:ClearingHouse",
            "label": "liquidity",
            "offset": 7,
            "slot": "0",
            "type": "t_uint128"
          },
          {
            "astId": 15501,
            "contract": "contracts/protocol/clearinghouse/ClearingHouse.sol:ClearingHouse",
            "label": "vTokenAmountIn",
            "offset": 0,
            "slot": "1",
            "type": "t_int256"
          },
          {
            "astId": 15503,
            "contract": "contracts/protocol/clearinghouse/ClearingHouse.sol:ClearingHouse",
            "label": "sumALastX128",
            "offset": 0,
            "slot": "2",
            "type": "t_int256"
          },
          {
            "astId": 15505,
            "contract": "contracts/protocol/clearinghouse/ClearingHouse.sol:ClearingHouse",
            "label": "sumBInsideLastX128",
            "offset": 0,
            "slot": "3",
            "type": "t_int256"
          },
          {
            "astId": 15507,
            "contract": "contracts/protocol/clearinghouse/ClearingHouse.sol:ClearingHouse",
            "label": "sumFpInsideLastX128",
            "offset": 0,
            "slot": "4",
            "type": "t_int256"
          },
          {
            "astId": 15509,
            "contract": "contracts/protocol/clearinghouse/ClearingHouse.sol:ClearingHouse",
            "label": "sumFeeInsideLastX128",
            "offset": 0,
            "slot": "5",
            "type": "t_uint256"
          },
          {
            "astId": 15513,
            "contract": "contracts/protocol/clearinghouse/ClearingHouse.sol:ClearingHouse",
            "label": "_emptySlots",
            "offset": 0,
            "slot": "6",
            "type": "t_array(t_uint256)100_storage"
          }
        ],
        "numberOfBytes": "3392"
      },
      "t_struct(Info)17632_storage": {
        "encoding": "inplace",
        "label": "struct Protocol.Info",
        "members": [
          {
            "astId": 17599,
            "contract": "contracts/protocol/clearinghouse/ClearingHouse.sol:ClearingHouse",
            "label": "pools",
            "offset": 0,
            "slot": "0",
            "type": "t_mapping(t_uint32,t_struct(Pool)12083_storage)"
          },
          {
            "astId": 17604,
            "contract": "contracts/protocol/clearinghouse/ClearingHouse.sol:ClearingHouse",
            "label": "collaterals",
            "offset": 0,
            "slot": "1",
            "type": "t_mapping(t_uint32,t_struct(Collateral)11995_storage)"
          },
          {
            "astId": 17607,
            "contract": "contracts/protocol/clearinghouse/ClearingHouse.sol:ClearingHouse",
            "label": "poolIds",
            "offset": 0,
            "slot": "2",
            "type": "t_array(t_uint32)dyn_storage"
          },
          {
            "astId": 17610,
            "contract": "contracts/protocol/clearinghouse/ClearingHouse.sol:ClearingHouse",
            "label": "settlementToken",
            "offset": 0,
            "slot": "3",
            "type": "t_contract(IERC20)4189"
          },
          {
            "astId": 17613,
            "contract": "contracts/protocol/clearinghouse/ClearingHouse.sol:ClearingHouse",
            "label": "vQuote",
            "offset": 0,
            "slot": "4",
            "type": "t_contract(IVQuote)11632"
          },
          {
            "astId": 17616,
            "contract": "contracts/protocol/clearinghouse/ClearingHouse.sol:ClearingHouse",
            "label": "liquidationParams",
            "offset": 0,
            "slot": "5",
            "type": "t_struct(LiquidationParams)12064_storage"
          },
          {
            "astId": 17618,
            "contract": "contracts/protocol/clearinghouse/ClearingHouse.sol:ClearingHouse",
            "label": "minRequiredMargin",
            "offset": 0,
            "slot": "6",
            "type": "t_uint256"
          },
          {
            "astId": 17620,
            "contract": "contracts/protocol/clearinghouse/ClearingHouse.sol:ClearingHouse",
            "label": "removeLimitOrderFee",
            "offset": 0,
            "slot": "7",
            "type": "t_uint256"
          },
          {
            "astId": 17622,
            "contract": "contracts/protocol/clearinghouse/ClearingHouse.sol:ClearingHouse",
            "label": "minimumOrderNotional",
            "offset": 0,
            "slot": "8",
            "type": "t_uint256"
          },
          {
            "astId": 17627,
            "contract": "contracts/protocol/clearinghouse/ClearingHouse.sol:ClearingHouse",
            "label": "priceCache",
            "offset": 0,
            "slot": "9",
            "type": "t_mapping(t_uint32,t_struct(PriceCache)17594_storage)"
          },
          {
            "astId": 17631,
            "contract": "contracts/protocol/clearinghouse/ClearingHouse.sol:ClearingHouse",
            "label": "_emptySlots",
            "offset": 0,
            "slot": "10",
            "type": "t_array(t_uint256)100_storage"
          }
        ],
        "numberOfBytes": "3520"
      },
      "t_struct(Info)21324_storage": {
        "encoding": "inplace",
        "label": "struct VTokenPosition.Info",
        "members": [
          {
            "astId": 21312,
            "contract": "contracts/protocol/clearinghouse/ClearingHouse.sol:ClearingHouse",
            "label": "balance",
            "offset": 0,
            "slot": "0",
            "type": "t_int256"
          },
          {
            "astId": 21314,
            "contract": "contracts/protocol/clearinghouse/ClearingHouse.sol:ClearingHouse",
            "label": "netTraderPosition",
            "offset": 0,
            "slot": "1",
            "type": "t_int256"
          },
          {
            "astId": 21316,
            "contract": "contracts/protocol/clearinghouse/ClearingHouse.sol:ClearingHouse",
            "label": "sumALastX128",
            "offset": 0,
            "slot": "2",
            "type": "t_int256"
          },
          {
            "astId": 21319,
            "contract": "contracts/protocol/clearinghouse/ClearingHouse.sol:ClearingHouse",
            "label": "liquidityPositions",
            "offset": 0,
            "slot": "3",
            "type": "t_struct(Set)15490_storage"
          },
          {
            "astId": 21323,
            "contract": "contracts/protocol/clearinghouse/ClearingHouse.sol:ClearingHouse",
            "label": "_emptySlots",
            "offset": 0,
            "slot": "105",
            "type": "t_array(t_uint256)100_storage"
          }
        ],
        "numberOfBytes": "6560"
      },
      "t_struct(LiquidationParams)12064_storage": {
        "encoding": "inplace",
        "label": "struct IClearingHouseStructures.LiquidationParams",
        "members": [
          {
            "astId": 12049,
            "contract": "contracts/protocol/clearinghouse/ClearingHouse.sol:ClearingHouse",
            "label": "rangeLiquidationFeeFraction",
            "offset": 0,
            "slot": "0",
            "type": "t_uint16"
          },
          {
            "astId": 12051,
            "contract": "contracts/protocol/clearinghouse/ClearingHouse.sol:ClearingHouse",
            "label": "tokenLiquidationFeeFraction",
            "offset": 2,
            "slot": "0",
            "type": "t_uint16"
          },
          {
            "astId": 12053,
            "contract": "contracts/protocol/clearinghouse/ClearingHouse.sol:ClearingHouse",
            "label": "closeFactorMMThresholdBps",
            "offset": 4,
            "slot": "0",
            "type": "t_uint16"
          },
          {
            "astId": 12055,
            "contract": "contracts/protocol/clearinghouse/ClearingHouse.sol:ClearingHouse",
            "label": "partialLiquidationCloseFactorBps",
            "offset": 6,
            "slot": "0",
            "type": "t_uint16"
          },
          {
            "astId": 12057,
            "contract": "contracts/protocol/clearinghouse/ClearingHouse.sol:ClearingHouse",
            "label": "insuranceFundFeeShareBps",
            "offset": 8,
            "slot": "0",
            "type": "t_uint16"
          },
          {
            "astId": 12059,
            "contract": "contracts/protocol/clearinghouse/ClearingHouse.sol:ClearingHouse",
            "label": "liquidationSlippageSqrtToleranceBps",
            "offset": 10,
            "slot": "0",
            "type": "t_uint16"
          },
          {
            "astId": 12061,
            "contract": "contracts/protocol/clearinghouse/ClearingHouse.sol:ClearingHouse",
            "label": "maxRangeLiquidationFees",
            "offset": 12,
            "slot": "0",
            "type": "t_uint64"
          },
          {
            "astId": 12063,
            "contract": "contracts/protocol/clearinghouse/ClearingHouse.sol:ClearingHouse",
            "label": "minNotionalLiquidatable",
            "offset": 20,
            "slot": "0",
            "type": "t_uint64"
          }
        ],
        "numberOfBytes": "32"
      },
      "t_struct(Pool)12083_storage": {
        "encoding": "inplace",
        "label": "struct IClearingHouseStructures.Pool",
        "members": [
          {
            "astId": 12073,
            "contract": "contracts/protocol/clearinghouse/ClearingHouse.sol:ClearingHouse",
            "label": "vToken",
            "offset": 0,
            "slot": "0",
            "type": "t_contract(IVToken)11656"
          },
          {
            "astId": 12076,
            "contract": "contracts/protocol/clearinghouse/ClearingHouse.sol:ClearingHouse",
            "label": "vPool",
            "offset": 0,
            "slot": "1",
            "type": "t_contract(IUniswapV3Pool)6184"
          },
          {
            "astId": 12079,
            "contract": "contracts/protocol/clearinghouse/ClearingHouse.sol:ClearingHouse",
            "label": "vPoolWrapper",
            "offset": 0,
            "slot": "2",
            "type": "t_contract(IVPoolWrapper)11608"
          },
          {
            "astId": 12082,
            "contract": "contracts/protocol/clearinghouse/ClearingHouse.sol:ClearingHouse",
            "label": "settings",
            "offset": 0,
            "slot": "3",
            "type": "t_struct(PoolSettings)12099_storage"
          }
        ],
        "numberOfBytes": "128"
      },
      "t_struct(PoolSettings)12099_storage": {
        "encoding": "inplace",
        "label": "struct IClearingHouseStructures.PoolSettings",
        "members": [
          {
            "astId": 12085,
            "contract": "contracts/protocol/clearinghouse/ClearingHouse.sol:ClearingHouse",
            "label": "initialMarginRatioBps",
            "offset": 0,
            "slot": "0",
            "type": "t_uint16"
          },
          {
            "astId": 12087,
            "contract": "contracts/protocol/clearinghouse/ClearingHouse.sol:ClearingHouse",
            "label": "maintainanceMarginRatioBps",
            "offset": 2,
            "slot": "0",
            "type": "t_uint16"
          },
          {
            "astId": 12089,
            "contract": "contracts/protocol/clearinghouse/ClearingHouse.sol:ClearingHouse",
            "label": "maxVirtualPriceDeviationRatioBps",
            "offset": 4,
            "slot": "0",
            "type": "t_uint16"
          },
          {
            "astId": 12091,
            "contract": "contracts/protocol/clearinghouse/ClearingHouse.sol:ClearingHouse",
            "label": "twapDuration",
            "offset": 6,
            "slot": "0",
            "type": "t_uint32"
          },
          {
            "astId": 12093,
            "contract": "contracts/protocol/clearinghouse/ClearingHouse.sol:ClearingHouse",
            "label": "isAllowedForTrade",
            "offset": 10,
            "slot": "0",
            "type": "t_bool"
          },
          {
            "astId": 12095,
            "contract": "contracts/protocol/clearinghouse/ClearingHouse.sol:ClearingHouse",
            "label": "isCrossMargined",
            "offset": 11,
            "slot": "0",
            "type": "t_bool"
          },
          {
            "astId": 12098,
            "contract": "contracts/protocol/clearinghouse/ClearingHouse.sol:ClearingHouse",
            "label": "oracle",
            "offset": 12,
            "slot": "0",
            "type": "t_contract(IOracle)11399"
          }
        ],
        "numberOfBytes": "32"
      },
      "t_struct(PriceCache)17594_storage": {
        "encoding": "inplace",
        "label": "struct Protocol.PriceCache",
        "members": [
          {
            "astId": 17587,
            "contract": "contracts/protocol/clearinghouse/ClearingHouse.sol:ClearingHouse",
            "label": "updateBlockNumber",
            "offset": 0,
            "slot": "0",
            "type": "t_uint32"
          },
          {
            "astId": 17589,
            "contract": "contracts/protocol/clearinghouse/ClearingHouse.sol:ClearingHouse",
            "label": "virtualPriceX128",
            "offset": 4,
            "slot": "0",
            "type": "t_uint224"
          },
          {
            "astId": 17591,
            "contract": "contracts/protocol/clearinghouse/ClearingHouse.sol:ClearingHouse",
            "label": "realPriceX128",
            "offset": 0,
            "slot": "1",
            "type": "t_uint224"
          },
          {
            "astId": 17593,
            "contract": "contracts/protocol/clearinghouse/ClearingHouse.sol:ClearingHouse",
            "label": "isDeviationBreached",
            "offset": 28,
            "slot": "1",
            "type": "t_bool"
          }
        ],
        "numberOfBytes": "64"
      },
      "t_struct(Set)14783_storage": {
        "encoding": "inplace",
        "label": "struct CollateralDeposit.Set",
        "members": [
          {
            "astId": 14774,
            "contract": "contracts/protocol/clearinghouse/ClearingHouse.sol:ClearingHouse",
            "label": "active",
            "offset": 0,
            "slot": "0",
            "type": "t_array(t_uint32)8_storage"
          },
          {
            "astId": 14778,
            "contract": "contracts/protocol/clearinghouse/ClearingHouse.sol:ClearingHouse",
            "label": "deposits",
            "offset": 0,
            "slot": "1",
            "type": "t_mapping(t_uint32,t_uint256)"
          },
          {
            "astId": 14782,
            "contract": "contracts/protocol/clearinghouse/ClearingHouse.sol:ClearingHouse",
            "label": "_emptySlots",
            "offset": 0,
            "slot": "2",
            "type": "t_array(t_uint256)100_storage"
          }
        ],
        "numberOfBytes": "3264"
      },
      "t_struct(Set)15490_storage": {
        "encoding": "inplace",
        "label": "struct LiquidityPosition.Set",
        "members": [
          {
            "astId": 15480,
            "contract": "contracts/protocol/clearinghouse/ClearingHouse.sol:ClearingHouse",
            "label": "active",
            "offset": 0,
            "slot": "0",
            "type": "t_array(t_uint48)5_storage"
          },
          {
            "astId": 15485,
            "contract": "contracts/protocol/clearinghouse/ClearingHouse.sol:ClearingHouse",
            "label": "positions",
            "offset": 0,
            "slot": "1",
            "type": "t_mapping(t_uint48,t_struct(Info)15514_storage)"
          },
          {
            "astId": 15489,
            "contract": "contracts/protocol/clearinghouse/ClearingHouse.sol:ClearingHouse",
            "label": "_emptySlots",
            "offset": 0,
            "slot": "2",
            "type": "t_array(t_uint256)100_storage"
          }
        ],
        "numberOfBytes": "3264"
      },
      "t_struct(Set)21310_storage": {
        "encoding": "inplace",
        "label": "struct VTokenPosition.Set",
        "members": [
          {
            "astId": 21298,
            "contract": "contracts/protocol/clearinghouse/ClearingHouse.sol:ClearingHouse",
            "label": "active",
            "offset": 0,
            "slot": "0",
            "type": "t_array(t_uint32)8_storage"
          },
          {
            "astId": 21303,
            "contract": "contracts/protocol/clearinghouse/ClearingHouse.sol:ClearingHouse",
            "label": "positions",
            "offset": 0,
            "slot": "1",
            "type": "t_mapping(t_uint32,t_struct(Info)21324_storage)"
          },
          {
            "astId": 21305,
            "contract": "contracts/protocol/clearinghouse/ClearingHouse.sol:ClearingHouse",
            "label": "vQuoteBalance",
            "offset": 0,
            "slot": "2",
            "type": "t_int256"
          },
          {
            "astId": 21309,
            "contract": "contracts/protocol/clearinghouse/ClearingHouse.sol:ClearingHouse",
            "label": "_emptySlots",
            "offset": 0,
            "slot": "3",
            "type": "t_array(t_uint256)100_storage"
          }
        ],
        "numberOfBytes": "3296"
      },
      "t_uint128": {
        "encoding": "inplace",
        "label": "uint128",
        "numberOfBytes": "16"
      },
      "t_uint16": {
        "encoding": "inplace",
        "label": "uint16",
        "numberOfBytes": "2"
      },
      "t_uint224": {
        "encoding": "inplace",
        "label": "uint224",
        "numberOfBytes": "28"
      },
      "t_uint256": {
        "encoding": "inplace",
        "label": "uint256",
        "numberOfBytes": "32"
      },
      "t_uint32": {
        "encoding": "inplace",
        "label": "uint32",
        "numberOfBytes": "4"
      },
      "t_uint48": {
        "encoding": "inplace",
        "label": "uint48",
        "numberOfBytes": "6"
      },
      "t_uint64": {
        "encoding": "inplace",
        "label": "uint64",
        "numberOfBytes": "8"
      },
      "t_uint96": {
        "encoding": "inplace",
        "label": "uint96",
        "numberOfBytes": "12"
      }
    }
  }
}