{
  "address": "0x5f0453bD8212C3827ab6D730a5644Fe4BD9f1B00",
  "abi": [
    {
      "inputs": [
        {
          "internalType": "uint160",
          "name": "sqrtPriceLimitX96",
          "type": "uint160"
        }
      ],
      "name": "InvalidSqrtPriceLimit",
      "type": "error"
    },
    {
      "inputs": [],
      "name": "R",
      "type": "error"
    },
    {
      "inputs": [],
      "name": "T",
      "type": "error"
    },
    {
      "inputs": [],
      "name": "ZeroAmount",
      "type": "error"
    },
    {
      "inputs": [
        {
          "internalType": "contract IClearingHouse",
          "name": "clearingHouse",
          "type": "address"
        },
        {
          "internalType": "uint32",
          "name": "poolId",
          "type": "uint32"
        },
        {
          "internalType": "int256",
          "name": "amount",
          "type": "int256"
        },
        {
          "internalType": "uint160",
          "name": "sqrtPriceLimitX96",
          "type": "uint160"
        },
        {
          "internalType": "bool",
          "name": "isNotional",
          "type": "bool"
        }
      ],
      "name": "simulateSwap",
      "outputs": [
        {
          "components": [
            {
              "internalType": "int256",
              "name": "amountSpecified",
              "type": "int256"
            },
            {
              "internalType": "int256",
              "name": "vTokenIn",
              "type": "int256"
            },
            {
              "internalType": "int256",
              "name": "vQuoteIn",
              "type": "int256"
            },
            {
              "internalType": "uint256",
              "name": "liquidityFees",
              "type": "uint256"
            },
            {
              "internalType": "uint256",
              "name": "protocolFees",
              "type": "uint256"
            },
            {
              "internalType": "uint160",
              "name": "sqrtPriceX96Start",
              "type": "uint160"
            },
            {
              "internalType": "uint160",
              "name": "sqrtPriceX96End",
              "type": "uint160"
            }
          ],
          "internalType": "struct IVPoolWrapper.SwapResult",
          "name": "swapResult",
          "type": "tuple"
        },
        {
          "components": [
            {
              "internalType": "uint160",
              "name": "sqrtPriceX96Start",
              "type": "uint160"
            },
            {
              "internalType": "int24",
              "name": "tickStart",
              "type": "int24"
            },
            {
              "internalType": "uint8",
              "name": "feeProtocol",
              "type": "uint8"
            },
            {
              "internalType": "uint128",
              "name": "liquidityStart",
              "type": "uint128"
            },
            {
              "internalType": "int24",
              "name": "tickSpacing",
              "type": "int24"
            },
            {
              "internalType": "uint24",
              "name": "fee",
              "type": "uint24"
            },
            {
              "internalType": "uint256",
              "name": "value1",
              "type": "uint256"
            },
            {
              "internalType": "uint256",
              "name": "value2",
              "type": "uint256"
            }
          ],
          "internalType": "struct SimulateSwap.Cache",
          "name": "cache",
          "type": "tuple"
        },
        {
          "components": [
            {
              "components": [
                {
                  "internalType": "uint160",
                  "name": "sqrtPriceStartX96",
                  "type": "uint160"
                },
                {
                  "internalType": "int24",
                  "name": "tickNext",
                  "type": "int24"
                },
                {
                  "internalType": "bool",
                  "name": "initialized",
                  "type": "bool"
                },
                {
                  "internalType": "uint160",
                  "name": "sqrtPriceNextX96",
                  "type": "uint160"
                },
                {
                  "internalType": "uint256",
                  "name": "amountIn",
                  "type": "uint256"
                },
                {
                  "internalType": "uint256",
                  "name": "amountOut",
                  "type": "uint256"
                },
                {
                  "internalType": "uint256",
                  "name": "feeAmount",
                  "type": "uint256"
                }
              ],
              "internalType": "struct SimulateSwap.Step",
              "name": "step",
              "type": "tuple"
            },
            {
              "components": [
                {
                  "internalType": "int256",
                  "name": "amountSpecifiedRemaining",
                  "type": "int256"
                },
                {
                  "internalType": "int256",
                  "name": "amountCalculated",
                  "type": "int256"
                },
                {
                  "internalType": "uint160",
                  "name": "sqrtPriceX96",
                  "type": "uint160"
                },
                {
                  "internalType": "int24",
                  "name": "tick",
                  "type": "int24"
                },
                {
                  "internalType": "uint256",
                  "name": "feeGrowthGlobalIncreaseX128",
                  "type": "uint256"
                },
                {
                  "internalType": "uint128",
                  "name": "protocolFee",
                  "type": "uint128"
                },
                {
                  "internalType": "uint128",
                  "name": "liquidity",
                  "type": "uint128"
                }
              ],
              "internalType": "struct SimulateSwap.State",
              "name": "state",
              "type": "tuple"
            }
          ],
          "internalType": "struct SwapSimulator.SwapStepAndState[]",
          "name": "steps",
          "type": "tuple[]"
        }
      ],
      "stateMutability": "nonpayable",
      "type": "function"
    },
    {
      "inputs": [
        {
          "internalType": "contract IClearingHouse",
          "name": "clearingHouse",
          "type": "address"
        },
        {
          "internalType": "uint32",
          "name": "poolId",
          "type": "uint32"
        },
        {
          "internalType": "int256",
          "name": "amount",
          "type": "int256"
        },
        {
          "internalType": "uint160",
          "name": "sqrtPriceLimitX96",
          "type": "uint160"
        },
        {
          "internalType": "bool",
          "name": "isNotional",
          "type": "bool"
        }
      ],
      "name": "simulateSwapView",
      "outputs": [
        {
          "components": [
            {
              "internalType": "int256",
              "name": "amountSpecified",
              "type": "int256"
            },
            {
              "internalType": "int256",
              "name": "vTokenIn",
              "type": "int256"
            },
            {
              "internalType": "int256",
              "name": "vQuoteIn",
              "type": "int256"
            },
            {
              "internalType": "uint256",
              "name": "liquidityFees",
              "type": "uint256"
            },
            {
              "internalType": "uint256",
              "name": "protocolFees",
              "type": "uint256"
            },
            {
              "internalType": "uint160",
              "name": "sqrtPriceX96Start",
              "type": "uint160"
            },
            {
              "internalType": "uint160",
              "name": "sqrtPriceX96End",
              "type": "uint160"
            }
          ],
          "internalType": "struct IVPoolWrapper.SwapResult",
          "name": "swapResult",
          "type": "tuple"
        }
      ],
      "stateMutability": "view",
      "type": "function"
    }
  ],
  "transactionHash": "0xf425bf95387a9e85f6faef82832ef5682700781b7a2971571a9467787fd1a591",
  "args": [],
  "numDeployments": 1,
  "solcInputHash": "e57f996027e70c38f3149e5d14eb0907",
  "bytecode": "0x608080604052346100165761462a908161001c8239f35b600080fdfe60806040526004361015610013575b600080fd5b6000803560e01c908163e6ea15971461003e575063fbdeddde1461003657600080fd5b61000e6104a4565b346101dd57610149600461006e6101559361005836610209565b9361006897939197969296610793565b50610c2a565b92602092836040610088828801516001600160a01b031690565b9601816100ab61009f83516001600160a01b031690565b6001600160a01b031690565b604051968780927f86c8e9a70000000000000000000000000000000000000000000000000000000082525afa9485156101d0575b84956101a4575b50906100fe61009f600493516001600160a01b031690565b604051928380927ffca6fbf20000000000000000000000000000000000000000000000000000000082525afa948515610197575b8395610168575b50501561015957845b1292611186565b6040519182918261026d565b0390f35b61016285610881565b94610142565b610188929550803d10610190575b6101808183610738565b810190610829565b928980610139565b503d610176565b61019f610844565b610132565b8291955061009f6101c66100fe926004953d8611610190576101808183610738565b96929350506100e6565b6101d8610844565b6100df565b80fd5b6001600160a01b0381160361000e57565b63ffffffff81160361000e57565b8015150361000e57565b7ffffffffffffffffffffffffffffffffffffffffffffffffffffffffffffffffc60a091011261000e5760043561023f816101e0565b9060243561024c816101f1565b906044359060643561025d816101e0565b9060843561026a816101ff565b90565b6102c69092919260e081019360c0908051835260208101516020840152604081015160408401526060810151606084015260808101516080840152816001600160a01b03918260a08201511660a0860152015116910152565b565b90815180825260208080930193019160005b8281106102e8575050505090565b90919293826101c06001926103b383895180516001600160a01b038082511686528382015160020b848701526040808301511515908701526060908183015116908601526080808201519086015260a0808201519086015260c08091015190850152015160e083019060c09080518352602081015160208401526001600160a01b036040820151166040840152606081015160020b606084015260808101516080840152816fffffffffffffffffffffffffffffffff918260a08201511660a0860152015116910152565b019501939291016102da565b9061026a93926104198360e09360c0908051835260208101516020840152604081015160408401526060810151606084015260808101516080840152816001600160a01b03918260a08201511660a0860152015116910152565b80516001600160a01b031683830152602081015160020b610100840152604081015160ff1661012084015260608101516fffffffffffffffffffffffffffffffff16610140840152608081015160020b61016084015260a081015162ffffff1661018084015260c08101516101a084015201516101c082015261020090816101e082015201906102c8565b503461000e576101556104d26105a26104bc36610209565b95919290936104c9610793565b506100686107cb565b6004806020968760406104ee828701516001600160a01b031690565b95018161050561009f83516001600160a01b031690565b604051958680927f86c8e9a70000000000000000000000000000000000000000000000000000000082525afa93841561067e575b600094610657575b5051610555906001600160a01b031661009f565b604051948580927ffca6fbf20000000000000000000000000000000000000000000000000000000082525afa92831561064a575b60009361062b575b501561061a576000845b1292610f58565b92909161060e6105fe60406105b5610933565b936105da6105ca89516001600160a01b031690565b6001600160a01b031660a0890152565b6105ed6105e78651610a3e565b86610aea565b51015101516001600160a01b031690565b6001600160a01b031660c0850152565b604051938493846103bf565b600061062585610881565b9461059b565b610643919350883d8a11610190576101808183610738565b9138610591565b610652610844565b610589565b61055591945061067661009f91843d8611610190576101808183610738565b949150610541565b610686610844565b610539565b507f4e487b7100000000000000000000000000000000000000000000000000000000600052604160045260246000fd5b60e0810190811067ffffffffffffffff8211176106d757604052565b6106df61068b565b604052565b6040810190811067ffffffffffffffff8211176106d757604052565b6020810190811067ffffffffffffffff8211176106d757604052565b60a0810190811067ffffffffffffffff8211176106d757604052565b90601f7fffffffffffffffffffffffffffffffffffffffffffffffffffffffffffffffe0910116810190811067ffffffffffffffff8211176106d757604052565b604051906102c68261071c565b604051906102c6826106bb565b604051906107a0826106bb565b8160c06000918281528260208201528260408201528260608201528260808201528260a08201520152565b60405190610100820182811067ffffffffffffffff82111761081c575b6040528160e06000918281528260208201528260408201528260608201528260808201528260a08201528260c08201520152565b61082461068b565b6107e8565b9081602091031261000e575162ffffff8116810361000e5790565b506040513d6000823e3d90fd5b507f4e487b7100000000000000000000000000000000000000000000000000000000600052601160045260246000fd5b600160ff1b8114610893575b60000390565b61089b610851565b61088d565b60209067ffffffffffffffff81116108ba575b60051b0190565b6108c261068b565b6108b3565b906040516108d4816106bb565b60c060048294805484526001810154602085015260028101546001600160a01b038116604086015260a01c60020b60608501526003810154608085015201546fffffffffffffffffffffffffffffffff811660a084015260801c910152565b60005490610940826108a0565b91604061094f81519485610738565b8184526000808052906020907f290decd9548b62a8d60345a988386fc84ba6bc95484008f6362f93160ef3e563908287015b85851061099057505050505050565b600a8460019284516109a1816106e4565b85516109ac816106bb565b87546001600160a01b038116825260a081811c600290810b8785015290916109dd9060ff9060b81c161515848b0152565b610a036109f3898c01546001600160a01b031690565b6001600160a01b03166060850152565b8901546080830152600389015490820152600488015460c08201528152610a2c600588016108c7565b83820152815201930194019391610981565b6000199060018110610a4e570190565b610a56610851565b0190565b818110610a65570390565b610a6d610851565b0390565b507f4e487b7100000000000000000000000000000000000000000000000000000000600052603260045260246000fd5b602090805115610aaf570190565b610a56610a71565b604090805160011015610aaf570190565b606090805160021015610aaf570190565b608090805160031015610aaf570190565b6020918151811015610aff575b60051b010190565b610b07610a71565b610af7565b604051906080820182811067ffffffffffffffff821117610b4d575b604052816000815260006020820152600060408201526060610b48610793565b910152565b610b5561068b565b610b28565b60405190610b678261071c565b600482526080366020840137565b602090818184031261000e5780519067ffffffffffffffff821161000e57019180601f8401121561000e578251610bab816108a0565b93610bb96040519586610738565b818552838086019260051b82010192831161000e578301905b828210610be0575050505090565b81518152908301908301610bd2565b6020908160408183019282815285518094520193019160005b828110610c16575050505090565b835185529381019392810192600101610c08565b610d606001600160a01b036000610cd5610d6694969596610c63610c4c610b0c565b9863ffffffff166000526064602052604060002090565b6003610c6d610b5a565b9180610c7884610aa1565b5260018101610c8684610ab7565b5260028101610c9484610ac8565b5201610c9f82610ad9565b526040519485809481937fdbd035ff00000000000000000000000000000000000000000000000000000000835260048301610bef565b0392165afa908115610d8e575b600091610d6d575b50610d17610d0a61009f610cfd84610aa1565b516001600160a01b031690565b6001600160a01b03168652565b610d39610d2961009f610cfd84610ab7565b6001600160a01b03166020870152565b610d5b610d4b61009f610cfd84610ac8565b6001600160a01b03166040870152565b610ad9565b51610d9b565b6060830152565b610d88913d8091833e610d808183610738565b810190610b75565b38610cea565b610d96610844565b610ce2565b906102c6610e4b61009f610dad610793565b946000604051610dbc81610700565b5260405190610dca82610700565b601081811c835261ffff9182168852825180821c845282166020808a019190915283519182901c84529116604088015281519081901c825263ffffffff1660608701528051600881811c835260ff9182161515608089015282519081901c835216151560a08088019190915281519081901c9091526001600160a01b031690565b6001600160a01b031660c0840152565b620f4240908060001904821181151516610e73570290565b610e7b610851565b0290565b8060001904821181151516610e73570290565b6000805481805580610ea2575050565b6001917f199999999999999999999999999999999999999999999999999999999999999982118316610f4b575b808052600a927f290decd9548b62a8d60345a988386fc84ba6bc95484008f6362f93160ef3e5639284028301925b838110610f0b575050505050565b8083869255838382015583600282015583600382015583600482015583600582015583600682015583600782015583600882015583600982015501610efd565b610f53610851565b610ecf565b91908060046102c695602098999799610f6f610793565b9a8b97610f7a6107cb565b50610f83610e92565b88886001600160a01b0380861615611051575b84835260008512159e8f91604051998a80927fddca3f4300000000000000000000000000000000000000000000000000000000825288165afa978815611044575b60009861100e575b5091610ff5918899889989610ffa9a9796613b1e565b613205565b905099919060408801526020870152613c45565b8799889950610ffa98959492611035610ff5959360203d8111610190576101808183610738565b9a509294955099975091610fdf565b61104c610844565b610fd7565b945050508360001461106c5788886401000276a45b94610f96565b888873fffd8963efd1fc6a506488495d951d5263988d25611066565b906004908051835560208101516001840155611135600284016110e66001600160a01b0360408501511682906001600160a01b03167fffffffffffffffffffffffff0000000000000000000000000000000000000000825416179055565b606083015160020b7fffffffffffffffffff000000ffffffffffffffffffffffffffffffffffffffff82549160a01b76ffffff0000000000000000000000000000000000000000169116179055565b608081015160038401557fffffffffffffffffffffffffffffffff0000000000000000000000000000000060c06fffffffffffffffffffffffffffffffff60a08401511692015160801b1617910155565b6102c69493600491979697611199610793565b9889966001600160a01b039283831615611258575b8189526020600083121594604051978880927fddca3f4300000000000000000000000000000000000000000000000000000000825285165afa95861561124b575b600096611221575b509084611212939261120d8b8b8b8b868b613b1e565b6115da565b60408801526020870152613c45565b6112129392919650611241869160203d8111610190576101808183610738565b96919293506111f7565b611253610844565b6111ef565b9150831561126d576401000276a45b916111ae565b73fffd8963efd1fc6a506488495d951d5263988d25611267565b1561128e57565b60646040517f08c379a000000000000000000000000000000000000000000000000000000000815260206004820152600260248201527f41530000000000000000000000000000000000000000000000000000000000006044820152fd5b51908160020b820361000e57565b519061ffff8216820361000e57565b908160e091031261000e57805161131f816101e0565b9161132c602083016112ec565b91611339604082016112fa565b91611346606083016112fa565b91611353608082016112fa565b9160a082015160ff8116810361000e5760c09092015161026a816101ff565b1561137957565b60646040517f08c379a000000000000000000000000000000000000000000000000000000000815260206004820152600360248201527f53504c00000000000000000000000000000000000000000000000000000000006044820152fd5b51906fffffffffffffffffffffffffffffffff8216820361000e57565b9081602091031261000e5761026a906113d7565b9081602091031261000e5761026a906112ec565b6001907ffffffffffffffffffffffffffffffffffffffffffffffffffffffffffffffffe8111610a4e570190565b81198111610a4e570190565b60008112817f7fffffffffffffffffffffffffffffffffffffffffffffffffffffffffffffff038313811516611499575b81600160ff1b03831216610a4e570190565b6114a1610851565b611487565b6000821282600160ff1b0182128115166114e9575b827f7fffffffffffffffffffffffffffffffffffffffffffffffffffffffffffffff01821316610a65570390565b6114f1610851565b6114bb565b91908261010091031261000e5761150c826113d7565b91602081015180600f0b810361000e579160408201519160608101519160808201518060060b810361000e579160a0810151611547816101e0565b9160e060c0830151611558816101f1565b92015161026a816101ff565b906fffffffffffffffffffffffffffffffff8080931691168092038111610a4e570190565b600f0b7fffffffffffffffffffffffffffffffff8000000000000000000000000000000081146108935760000390565b6fffffffffffffffffffffffffffffffff9182169116818110610a65570390565b909193926115e9851515611287565b604051907f3850c7bd00000000000000000000000000000000000000000000000000000000825260e0826004816001600160a01b0387165afa8015611df2575b6000928391611db7575b5061179f908515611d74576116646001600160a01b0384166001600160a01b03861681109081611d65575b50611372565b6040517f1a6865020000000000000000000000000000000000000000000000000000000081526020816004816001600160a01b038a165afa908115611d58575b600091611d29575b506040517fddca3f430000000000000000000000000000000000000000000000000000000081526020816004816001600160a01b038b165afa908115611d1c575b600091611cfd575b50604051917fd0c93a7c0000000000000000000000000000000000000000000000000000000083526020836004816001600160a01b038c165afa928315611cf0575b600093611cb3575b50611789906117706117959495611766611757610779565b6001600160a01b03909b168b52565b60020b60208a0152565b6fffffffffffffffffffffffffffffffff166040880152565b62ffffff166060860152565b60020b6080840152565b81516001600160a01b0316946118276117bc602085015160020b90565b61180e6117dc60408701516fffffffffffffffffffffffffffffffff1690565b916118046117e8610779565b8c8152600060208201526001600160a01b03909b1660408c0152565b60020b60608a0152565b6fffffffffffffffffffffffffffffffff166080880152565b8551151580611c99575b15611c5d5761183e610793565b61186261185560408901516001600160a01b031690565b6001600160a01b03168252565b6118a661189c6118928861187a60608c015160020b90565b608089015160020b906001600160a01b038b16611e94565b1515604085015290565b60020b6020830152565b602081015160020b620d89e719811215611c455750620d89e71960208201525b6118dc6118d7602083015160020b90565b612b31565b6001600160a01b0316606082019081529061197d61195561190760408b01516001600160a01b031690565b8915611c305784516001600160a01b038881169116105b15611c2057865b60808c01516fffffffffffffffffffffffffffffffff168c519161194f60608c015162ffffff1690565b936123aa565b60c0860190815260a08601918252608086019283526001600160a01b0390931660408d015292565b60008c1315611be4579161199b6119a6926119b09451905101611e06565b8b51038b5251611e06565b60208a01516114a6565b60208901525b6119de61009f6119d060408b01516001600160a01b031690565b93516001600160a01b031690565b6001600160a01b038316908103611bb257506040810151611a1f9250611a30575b8615611a2457602001516000199060020b0160020b5b60020b6060880152565b611827565b6020015160020b611a15565b611b1f8888611a92611a46602086015160020b90565b604051907ff30dba93000000000000000000000000000000000000000000000000000000008252818c816001600160a01b038161010097889660048301919091602081019260020b9052565b0392165afa918215611ba5575b600092611b70575b50508091611b62575b50600081600f0b12600014611b2457611b00611aeb611ae56080611b069501516fffffffffffffffffffffffffffffffff1690565b92611589565b6fffffffffffffffffffffffffffffffff1690565b906115b9565b6fffffffffffffffffffffffffffffffff1660808a0152565b6119ff565b611b446080611b5d9301516fffffffffffffffffffffffffffffffff1690565b906fffffffffffffffffffffffffffffffff1690611564565b611b06565b9050600003600f0b38611ab0565b611b8f9250803d10611b9e575b611b878183610738565b8101906114f6565b50505050505090503880611aa7565b503d611b7d565b611bad610844565b611a9f565b9051611bc6906001600160a01b031661009f565b03611bd2575b50611827565b611a15611bde91612ed8565b38611bcc565b611c0c91611c0791611bf9611c169551611e06565b8d51018d525190519061144a565b611e06565b60208a0151611456565b60208901526119b6565b84516001600160a01b0316611925565b84516001600160a01b0388811691161161191e565b620d89e812156118c657620d89e860208201526118c6565b959315156000851314159250611c8591505057611c7e6020918351906114a6565b9101519091565b60208201519151611c95916114a6565b9091565b5060408601516001600160a01b0383811691161415611831565b611795935090611770611ce06117899360203d602011611ce9575b611cd88183610738565b810190611408565b9450509061173f565b503d611cce565b611cf8610844565b611737565b611d16915060203d602011610190576101808183610738565b386116f5565b611d24610844565b6116ed565b611d4b915060203d602011611d51575b611d438183610738565b8101906113f4565b386116ac565b503d611d39565b611d60610844565b6116a4565b6401000276a39150113861165e565b6116646001600160a01b0384166001600160a01b03861681119081611d995750611372565b73fffd8963efd1fc6a506488495d951d5263988d269150103861165e565b61179f9350611ddd915060e03d8111611deb575b611dd58183610738565b810190611309565b505050505092909290611633565b503d611dcb565b611dfa610844565b611629565b1561000e57565b600160ff1b81101561000e5790565b507f4e487b7100000000000000000000000000000000000000000000000000000000600052601260045260246000fd5b9060020b908115611e58575b60020b0590565b611e60611e15565b611e51565b9060020b908115611e78575b60020b0790565b611e80611e15565b611e71565b9081602091031261000e575190565b919092611ea18285611e45565b9060029483600082880b1291826120f0575b50506120e3575b15611fed57611f2b9293611ede8260020b906101008260081d60010b920760ff1690565b949095602060ff8716976001891b9260405180809681947f5339c29600000000000000000000000000000000000000000000000000000000835260048301919091602081019260010b9052565b03915afa918215611fe0575b600092611fac575b508060001991010116908115159586600014611f9c57505090611f8a611f7f611f79611f9996611f71611f929661210e565b60ff91031690565b60ff1690565b62ffffff1660020b90565b900360020b90565b0260020b90565b91565b91508094500b9003820b02900b91565b600019919250611fd29060203d8111611fd9575b611fca8183610738565b810190611e85565b9190611f3f565b503d611fc0565b611fe8610844565b611f37565b600101830b61205060206120118360020b906101008260081d60010b920760ff1690565b9560405180809581947f5339c29600000000000000000000000000000000000000000000000000000000835260048301919091602081019260010b9052565b03915afa9081156120d6575b6000916120b8575b50600160ff85161b6000190119168015801595906120a557509061209e611f7f611f79611f9996612097611f92966121fc565b0360ff1690565b0160020b90565b9360ff8092500316830b01820b02900b91565b6120d0915060203d8111611fd957611fca8183610738565b38612064565b6120de610844565b61205c565b9060001901840b90611eba565b6121059250906120ff91611e65565b60020b90565b15158338611eb3565b9060009161211d811515611dff565b7001000000000000000000000000000000008110156121f1575b806801000000000000000060029210156121e2575b6401000000008110156121d3575b620100008110156121c4575b6101008110156121b5575b60108110156121a6575b6004811015612198575b101561218d57565b90600160ff91011690565b92810160ff1692811c612185565b600493840160ff16931c61217b565b600893840160ff16931c612171565b601093840160ff16931c612166565b602093840160ff16931c61215a565b604093840160ff16931c61214c565b60809250821c612137565b90612208821515611dff565b60ff6fffffffffffffffffffffffffffffffff8316156123a05750607f5b67ffffffffffffffff831615612396577fffffffffffffffffffffffffffffffffffffffffffffffffffffffffffffffc00160ff165b63ffffffff83161561238c577fffffffffffffffffffffffffffffffffffffffffffffffffffffffffffffffe00160ff165b61ffff831615612382577ffffffffffffffffffffffffffffffffffffffffffffffffffffffffffffffff00160ff165b60ff831615612378577ffffffffffffffffffffffffffffffffffffffffffffffffffffffffffffffff80160ff165b600f83161561236e577ffffffffffffffffffffffffffffffffffffffffffffffffffffffffffffffffc0160ff165b60038316156123625760ff7ffffffffffffffffffffffffffffffffffffffffffffffffffffffffffffffffe6001920116925b1661235657565b9060001960ff91011690565b9160019060021c61234f565b9160041c9161231c565b9160081c916122ed565b9160101c916122be565b9160201c9161228e565b9160401c9161225c565b9160801c91612226565b949190928594600080806001600160a01b03908189169283838c161015978b8389129b898d15988c8a60001461254b579050849291506123f462ffffff8c620f424003168d61259c565b81156125395783612406818786612a2b565b955b86831061252757505050509e8f965b8716968789149c6000146124cf578c806124c8575b156124b9575050505b9b8c99806124b2575b156124a25750505b985b80612497575b61248c575b5082612481575b50501561246657500390565b905061026a915062ffffff8082620f42400316911685612757565b14159050388061245a565b859003975038612453565b50858103891161244e565b6124ad92508d612a92565b612446565b508b61243e565b6124c39350612a2b565b612435565b508961242c565b809392918d80612520575b15612511575050505b9c8d9a8061250a575b156124fb575050505b98612448565b61250593506129d0565b6124f5565b508c6124ec565b61251b9350612acd565b6124e3565b508a6124da565b6125319450612792565b9e8f96612417565b83612545818588612acd565b95612408565b909385939296508160001461258a5783612566818386612a92565b915b919789039188831061258057505050509e8f96612417565b6125319450612927565b836125968185846129d0565b91612568565b90600019818309818302918280831092039180830392146125fa57620f4240908282111561000e577fde8f6cefed634549b62c77574f722e1ac57e23f24d8fd5cb790fb65668c26139940990828211900360fa1b910360061c170290565b5050620f424091500490565b6c0100000000000000000000000091600019838309928260601b9283808610950394808603951461268e5790829161263f868411611dff565b0981806000031680920460028082600302188083028203028083028203028083028203028083028203028083028203028092029003029360018380600003040190848311900302920304170290565b5050915061269d821515611dff565b0490565b60001982820990828102928380841093039280840393146126e6576c01000000000000000000000000918383111561000e570990828211900360a01b910360601c1790565b50505060601c90565b70010000000000000000000000000000000091600019838309928260801b9283808610950394808603951461268e5790829161263f868411611dff565b9091600019838309928083029283808610950394808603951461268e5790829161263f868411611dff565b92919061276582828661272c565b938215612785575b0961277457565b9060001981101561000e5760010190565b61278d611e15565b61276d565b926001600160a01b039081851691821561000e576fffffffffffffffffffffffffffffffff841691821561000e57600090156127d5575050505061026a92612825565b5061026a95506127f59492935090919081116127fa5760601b049061144a565b612913565b9061280491612606565b9061144a565b8015612818575b6000190490565b612820611e15565b612811565b919081156128ad577bffffffffffffffffffffffffffffffff0000000000000000000000009060601b16906001600160a01b038093168082028183820414612895575b50908161287c9215612888575b830461144a565b80820615159104011690565b612890611e15565b612875565b83018381106128685791506128a992612757565b1690565b505090565b919081156128ad577bffffffffffffffffffffffffffffffff0000000000000000000000006001600160a01b039160601b1692169182808302928304148061290a575b1561000e5761026a926127f592820391612757565b508181116128f5565b906001600160a01b03821691820361000e57565b919290926001600160a01b039384841693841561000e576fffffffffffffffffffffffffffffffff821693841561000e57156129c1575060009050848211612985575060601b908082061515910401905b8181111561000e57031690565b90916c0100000000000000000000000061299f8285612606565b93096129ad575b5090612978565b6000198210156101dd5750600101386129a6565b919350915061026a93506128b2565b91906001600160a01b039182821683851611612a23575b82841693841561000e57837bffffffffffffffffffffffffffffffff0000000000000000000000009161269d9585169403169160601b1661272c565b9290926129e7565b91906001600160a01b039182821683851611612a8a575b82841693841561000e57837bffffffffffffffffffffffffffffffff00000000000000000000000091612a7e9585169403169160601b16612757565b90808206151591040190565b929092612a42565b61026a92916fffffffffffffffffffffffffffffffff916001600160a01b039182811683831611612ac7575b031691166126a1565b90612abe565b6c01000000000000000000000000916fffffffffffffffffffffffffffffffff916001600160a01b039182811683831611612b2b575b0316921691612b1281846126a1565b9209612b1b5790565b60001981101561000e5760010190565b90612b03565b60020b6000811215612ed257806000035b620d89e88111612ea8576001600160a01b03916001821615612e7f5770ffffffffffffffffffffffffffffffffff6ffffcb933bd6fad37aa2d162d1a5940015b169160028116612e63575b60048116612e47575b60088116612e2b575b60108116612e0f575b60208116612df3575b60408116612dd7575b608090818116612dbc575b6101008116612da1575b6102008116612d86575b6104008116612d6b575b6108008116612d50575b6110008116612d35575b6120008116612d1a575b6140008116612cff575b6180008116612ce4575b620100008116612cc9575b620200008116612caf575b620400008116612c95575b6208000016612c7a575b50600012612c6c575b63ffffffff8116612c635760ff60005b169060201c011690565b60ff6001612c59565b612c759061280a565b612c49565b6b048a170391f7dc42444e8fa26000929302901c9190612c40565b6d2216e584f5fa1ea926041bedfe98909302811c92612c36565b926e5d6af8dedb81196699c329225ee60402811c92612c2b565b926f09aa508b5b7a84e1c677de54f3e99bc902811c92612c20565b926f31be135f97d08fd981231505542fcfa602811c92612c15565b926f70d869a156d2a1b890bb3df62baf32f702811c92612c0b565b926fa9f746462d870fdf8a65dc1f90e061e502811c92612c01565b926fd097f3bdfd2022b8845ad8f792aa582502811c92612bf7565b926fe7159475a2c29b7443b29c7fa6e889d902811c92612bed565b926ff3392b0822b70005940c7a398e4b70f302811c92612be3565b926ff987a7253ac413176f2b074cf7815e5402811c92612bd9565b926ffcbe86c7900a88aedcffc83b479aa3a402811c92612bcf565b926ffe5dee046a99a2a811c461f1969c305302811c92612bc5565b916fff2ea16466c96a3843ec78b326b528610260801c91612bba565b916fff973b41fa98c081472e6896dfb254c00260801c91612bb1565b916fffcb9843d60f6159c9db58835c9266440260801c91612ba8565b916fffe5caca7e10e4e61c3624eaa0941cd00260801c91612b9f565b916ffff2e50f5f656932ef12357cf3c7fdcc0260801c91612b96565b916ffff97272373d413259a46990580e213a0260801c91612b8d565b70ffffffffffffffffffffffffffffffffff700100000000000000000000000000000000612b82565b60046040517f2bc80f3a000000000000000000000000000000000000000000000000000000008152fd5b80612b42565b6001600160a01b038116906401000276a3821015806131e8575b156131be5777ffffffffffffffffffffffffffffffffffffffff000000009060201b16806fffffffffffffffffffffffffffffffff811160071b9181831c9267ffffffffffffffff841160061b93841c9363ffffffff851160051b94851c9461ffff861160041b95861c60ff9687821160031b91821c92600f841160021b93841c94600160038711811b96871c1196171717171717179160808310156000146131b257507fffffffffffffffffffffffffffffffffffffffffffffffffffffffffffffff8182011c5b8002607f928392828493841c81841c1c800280851c81851c1c800280861c81861c1c800280871c81871c1c80029081881c82881c1c80029283891c84891c1c800294858a1c868a1c1c800296878b1c888b1c1c800298898c1c8a8c1c1c80029a8b8d1c8c821c1c8002809d1c8d821c1c8002809e81901c90821c1c80029e8f80911c911c1c800260cd1c6604000000000000169d60cc1c6608000000000000169c60cb1c6610000000000000169b60ca1c6620000000000000169a60c91c6640000000000000169960c81c6680000000000000169860c71c670100000000000000169760c61c670200000000000000169660c51c670400000000000000169560c41c670800000000000000169460c31c671000000000000000169360c21c672000000000000000169260c11c674000000000000000169160c01c67800000000000000016907fffffffffffffffffffffffffffffffffffffffffffffffffffffffffffffff800160401b1717171717171717171717171717693627a301d71055774c85027ffffffffffffffffffffffffffffffffffd709b7e5480fba5a50fed5e62ffc556810160801d60020b906fdb2df09e81959a81455e260799a0632f0160801d60020b91600090838314600014613196575050905090565b6131a261009f85612b31565b1190506131ad575090565b905090565b905081607f031b612fbb565b60046040517f4980e1be000000000000000000000000000000000000000000000000000000008152fd5b5073fffd8963efd1fc6a506488495d951d5263988d268210612ef2565b90919392613211610793565b5061321a6107cb565b94613223610793565b508015613a84576001600160a01b0361324387516001600160a01b031690565b16156139d0575b60608601946fffffffffffffffffffffffffffffffff61327a87516fffffffffffffffffffffffffffffffff1690565b161561393e575b608087015160020b15613834575b84156137e7576132a961009f88516001600160a01b031690565b6001600160a01b0384169081119081156137d8575b505b61379e576133536132d888516001600160a01b031690565b9661332c6133046132ed60208c015160020b90565b92516fffffffffffffffffffffffffffffffff1690565b91611804613310610786565b878152600060208201526001600160a01b03909b1660408c0152565b60006080890181905260a08901526fffffffffffffffffffffffffffffffff1660c0880152565b8551151580613784575b1561374557856133c661189c611892888b6133b660806133ad6060613380610793565b996133a561339860408301516001600160a01b031690565b6001600160a01b03168c52565b015160020b90565b92015160020b90565b906001600160a01b038b16614116565b602081015160020b620d89e71981121561372d5750620d89e71960208201525b61340a6133fa6118d7602084015160020b90565b6001600160a01b03166060830152565b61349f61347661342460408a01516001600160a01b031690565b88156137155760608401516001600160a01b038881169116105b156136fa578a8a885b61194f60a061346960c08501516fffffffffffffffffffffffffffffffff1690565b935194015162ffffff1690565b60c0860190815260a08601918252608086019283526001600160a01b0390931660408c01529192565b60008613156136bc57906134c66134bf611c076134dd945186519061144a565b8b516114a6565b8a526134d760208b01519151611e06565b906114a6565b60208901525b613503611aeb60c08a01516fffffffffffffffffffffffffffffffff1690565b9081613698575b5050613516818861437f565b60408701516001600160a01b03169061353c61009f60608301516001600160a01b031690565b6001600160a01b038316908103613666575060408101516135739250613578575b8615611a245760200151611a159060020b613aae565b613353565b6135fa888861358e611a46602086015160020b90565b0392165afa918215613659575b600092613634575b50508091613624575b50600081600f0b126000146135ff57611b00611aeb611ae560c06135e19501516fffffffffffffffffffffffffffffffff1690565b6fffffffffffffffffffffffffffffffff1660c08a0152565b61355d565b611b4460c061361f9301516fffffffffffffffffffffffffffffffff1690565b6135e1565b61362e9150611589565b386135ac565b61364a9250803d10611b9e57611b878183610738565b505050505050905038806135a3565b613661610844565b61359b565b905161367a906001600160a01b031661009f565b03613686575b50613353565b611a1561369291612ed8565b38613680565b6136b0916136a691516126ef565b608089015161144a565b6080880152388061350a565b6136d36136cc6136f09351611e06565b8b51611456565b8a526136ea611c0760208c0151925185519061144a565b90611456565b60208901526134e3565b8a8a61371060608701516001600160a01b031690565b613447565b60608401516001600160a01b0388811691161161343e565b620d89e812156133e657620d89e860208201526133e6565b9594939092501515600083131415905061376e578151613764916114a6565b9160208201519293565b916137806020830151938351906114a6565b9293565b5060408601516001600160a01b038481169116141561335d565b6040517f51b516ae0000000000000000000000000000000000000000000000000000000081526001600160a01b0384166004820152602490fd5b6401000276a3915010386132be565b6137fb61009f88516001600160a01b031690565b6001600160a01b038416908110908115613816575b506132c0565b73fffd8963efd1fc6a506488495d951d5263988d2691501138613810565b6138e061389860046001600160a01b038716604051907fddca3f43000000000000000000000000000000000000000000000000000000008252602093828d8682878297875afa918215613931575b60009261390f575b5060a0019062ffffff169052565b604051928380927fd0c93a7c0000000000000000000000000000000000000000000000000000000082525afa918215613902575b6000926138e5575b505060020b6080890152565b61328f565b6138fb9250803d10611ce957611cd88183610738565b38806138d4565b61390a610844565b6138cc565b60a091925061392a90863d8811610190576101808183610738565b919061388a565b613939610844565b613882565b6139a06040517f1a6865020000000000000000000000000000000000000000000000000000000081526020816004816001600160a01b038a165afa9081156139c3575b6000916139a5575b506fffffffffffffffffffffffffffffffff168752565b613281565b6139bd915060203d8111611d5157611d438183610738565b38613989565b6139cb610844565b613981565b613a3f6040517f3850c7bd00000000000000000000000000000000000000000000000000000000815260e0816004816001600160a01b0389165afa8015613a77575b60009081908290613a44575b60ff1660408b0152909150613a3290611766565b6001600160a01b03168752565b61324a565b505050613a32613a646117669260e03d8111611deb57611dd58183610738565b5094925050509390919050839250613a1e565b613a7f610844565b613a12565b60046040517f1f2a2005000000000000000000000000000000000000000000000000000000008152fd5b6000199060020b7fffffffffffffffffffffffffffffffffffffffffffffffffffffffffff8000018112600116610a4e570190565b60020b9060020b906000821282627fffff19018212811516613b11575b82627fffff01821316610a65570390565b613b19610851565b613b00565b91929115613b765715613b3c5750613b3891508251613dca565b9052565b613b68613b51613b3894613b6e938751613ebc565b80608088949394015282606088015286519261144a565b90613fb6565b808452613dca565b909150613b8257505050565b613c17613c03613bfc613be7613bee613b3896613baa895160008113600014613c3757610e5b565b613bf462ffffff918280613bbd8c613db6565b1681861690818110613c2a575b0316908115613c1d575b0492613bee83620f42409788938d613ea4565b1685610e7f565b0461141c565b971690610e7f565b8093610a5a565b80608086015282606086015284519261144a565b90613f98565b613c25611e15565b613bd4565b613c32610851565b613bca565b613c4090610881565b610e5b565b919492939115613cbe5715613c92576060613c7f613b6892613b389596613c7160208701918251613e81565b905260408501968751613f4d565b918483608084970152015284519261144a565b50613b389150613c17613caa60408301948551613e81565b91828552608060608201519101519061144a565b91929091613ceb576060613c7f8493613c1793613ce36040613b389801988951613e81565b808952613f4d565b505090613cfd60208301918251613e81565b9052613b386040820191613b68835191608060608201519101519061144a565b600082136000821390837f7fffffffffffffffffffffffffffffffffffffffffffffffffffffffffffffff818104851183851616613da9575b6000821292600160ff1b94848787058512911616613d9c575b82600087129505861290851616613d8f575b058312911616610e73570290565b613d97610851565b613d81565b613da4610851565b613d6f565b613db1610851565b613d56565b62ffffff16620f4240818110610a65570390565b600161026a9262ffffff613de9613de382841686613d1d565b92613db6565b1660020b8015613e74575b600160ff1b91600019821483821416613e67575b0590816000811291817f7fffffffffffffffffffffffffffffffffffffffffffffffffffffffffffffff038513831516613e5a575b03831216613e4d575b0190611456565b613e55610851565b613e46565b613e62610851565b613e3d565b613e6f610851565b613e08565b613e7c611e15565b613df4565b613ea09062ffffff613e96620f424094613db6565b1660020b90613d1d565b0590565b9062ffffff8080931691168092038111610a4e570190565b91613bee613ed9613f2693959460008113600014613c3757610e5b565b613f2062ffffff91613bee83891693613f19620f42409788948784038611613f40575b83613f09838a8901613ea4565b16908115613f33575b049b613ea4565b1689610e7f565b95610e7f565b8281809410610a65570390565b613f3b611e15565b613f12565b613f48610851565b613efc565b613bee613f26929493613be7613f81613bee9460008113600014613f8957925b620f424095869162ffffff9485918c613ea4565b961690610e7f565b613f9290610881565b92613f6d565b9060008213600103613fad5761026a91611456565b61026a916114a6565b9060008213613fad5761026a91611456565b60020b9060020b908115613ff4575b6000198214627fffff19821416613fec570590565b613ea0610851565b613ffc611e15565b613fd7565b6000199060020b627fffff198114610a4e570190565b60019060020b6000811281627fffff038313811516614043575b81627fffff1903831216610a4e570190565b61404b610851565b614031565b60020b9060020b906000811281627fffff0383138115166140435781627fffff1903831216610a4e570190565b60ff168060ff1061408f575b60ff0390565b614097610851565b614089565b60ff9182169116818110610a65570390565b60020b9060020b9060008213600082139083627fffff818104851183851616614109575b6000821292627fffff1994848787058512911616613d9c5782600087129505861290851616613d8f57058312911616610e73570290565b614111610851565b6140d2565b929190916141248284613fc8565b928260008260020b129182614367575b5050614357575b156142455761415a8260020b9060ff6101008360081d60010b93071690565b90936141ba602060ff84169661417b6001891b61417681610a3e565b61144a565b9360405180809581947f5339c29600000000000000000000000000000000000000000000000000000000835260048301919091602081019260010b9052565b03915afa908115614238575b60009161421a575b50168015801595906142065750926141fb611f7f611f79614201946141f5611f999861210e565b9061409c565b90613ae3565b6140ae565b6142019250611f9994915060020b90613ae3565b614232915060203d8111611fd957611fca8183610738565b386141ce565b614240610844565b6141c6565b6020926142be61426d61425785614017565b60020b9060ff6101008360081d60010b93071690565b959061427e600160ff89161b610a3e565b199360405180809581947f5339c29600000000000000000000000000000000000000000000000000000000835260048301919091602081019260010b9052565b03915afa90811561434a575b60009161432c575b501680158015949061430c5790614306611f7f611f79614201946143016142fb611f9999614017565b956121fc565b61409c565b90614050565b6142019150614306611f7f611f79614326611f9997614017565b9361407d565b614344915060203d8111611fd957611fca8183610738565b386142d2565b614352610844565b6142ca565b9161436190614001565b9161413b565b6143769250906120ff91611e65565b15158238614134565b907f290decd9548b62a8d60345a988386fc84ba6bc95484008f6362f93160ef3e5686102c692604051926143b2846106e4565b83526020830190815260c0600a600054680100000000000000008110156145e7575b60018101806000558110156145da575b600080520293847f290decd9548b62a8d60345a988386fc84ba6bc95484008f6362f93160ef3e563019051906144526001600160a01b0383511682906001600160a01b03167fffffffffffffffffffffffff0000000000000000000000000000000000000000825416179055565b6144a6602083015160020b82907fffffffffffffffffff000000ffffffffffffffffffffffffffffffffffffffff82549160a01b76ffffff0000000000000000000000000000000000000000169116179055565b604082015181547fffffffffffffffff00ffffffffffffffffffffffffffffffffffffffffffffff1690151560b81b77ff000000000000000000000000000000000000000000000016179055606081015161455a906001600160a01b03167f290decd9548b62a8d60345a988386fc84ba6bc95484008f6362f93160ef3e5648701906001600160a01b03167fffffffffffffffffffffffff0000000000000000000000000000000000000000825416179055565b60808101517f290decd9548b62a8d60345a988386fc84ba6bc95484008f6362f93160ef3e56586015560a08101517f290decd9548b62a8d60345a988386fc84ba6bc95484008f6362f93160ef3e56686015501517f290decd9548b62a8d60345a988386fc84ba6bc95484008f6362f93160ef3e567840155519101611088565b6145e2610a71565b6143e4565b6145ef61068b565b6143d456fea2646970667358221220504be9dbc9df65bb6d2fc4125c16bc9fd31c421655023065b3641d61ae00058164736f6c634300080e0033",
  "devdoc": {
    "kind": "dev",
    "methods": {},
    "version": 1
  },
  "userdoc": {
    "kind": "user",
    "methods": {
      "simulateSwap(address,uint32,int256,uint160,bool)": {
        "notice": "Simulate Swap with detailed tick cross info"
      },
      "simulateSwapView(address,uint32,int256,uint160,bool)": {
        "notice": "Simulate Swap with only swap amounts"
      }
    },
    "version": 1
  },
  "storageLayout": {
    "storage": [
      {
        "astId": 12578,
        "contract": "contracts/lens/SwapSimulator.sol:SwapSimulator",
        "label": "_steps",
        "offset": 0,
        "slot": "0",
        "type": "t_array(t_struct(SwapStepAndState)12574_storage)dyn_storage"
      }
    ],
    "types": {
      "t_array(t_struct(SwapStepAndState)12574_storage)dyn_storage": {
        "base": "t_struct(SwapStepAndState)12574_storage",
        "encoding": "dynamic_array",
        "label": "struct SwapSimulator.SwapStepAndState[]",
        "numberOfBytes": "32"
      },
      "t_bool": {
        "encoding": "inplace",
        "label": "bool",
        "numberOfBytes": "1"
      },
      "t_int24": {
        "encoding": "inplace",
        "label": "int24",
        "numberOfBytes": "3"
      },
      "t_int256": {
        "encoding": "inplace",
        "label": "int256",
        "numberOfBytes": "32"
      },
      "t_struct(State)18786_storage": {
        "encoding": "inplace",
        "label": "struct SimulateSwap.State",
        "members": [
          {
            "astId": 18773,
            "contract": "contracts/lens/SwapSimulator.sol:SwapSimulator",
            "label": "amountSpecifiedRemaining",
            "offset": 0,
            "slot": "0",
            "type": "t_int256"
          },
          {
            "astId": 18775,
            "contract": "contracts/lens/SwapSimulator.sol:SwapSimulator",
            "label": "amountCalculated",
            "offset": 0,
            "slot": "1",
            "type": "t_int256"
          },
          {
            "astId": 18777,
            "contract": "contracts/lens/SwapSimulator.sol:SwapSimulator",
            "label": "sqrtPriceX96",
            "offset": 0,
            "slot": "2",
            "type": "t_uint160"
          },
          {
            "astId": 18779,
            "contract": "contracts/lens/SwapSimulator.sol:SwapSimulator",
            "label": "tick",
            "offset": 20,
            "slot": "2",
            "type": "t_int24"
          },
          {
            "astId": 18781,
            "contract": "contracts/lens/SwapSimulator.sol:SwapSimulator",
            "label": "feeGrowthGlobalIncreaseX128",
            "offset": 0,
            "slot": "3",
            "type": "t_uint256"
          },
          {
            "astId": 18783,
            "contract": "contracts/lens/SwapSimulator.sol:SwapSimulator",
            "label": "protocolFee",
            "offset": 0,
            "slot": "4",
            "type": "t_uint128"
          },
          {
            "astId": 18785,
            "contract": "contracts/lens/SwapSimulator.sol:SwapSimulator",
            "label": "liquidity",
            "offset": 16,
            "slot": "4",
            "type": "t_uint128"
          }
        ],
        "numberOfBytes": "160"
      },
      "t_struct(Step)18801_storage": {
        "encoding": "inplace",
        "label": "struct SimulateSwap.Step",
        "members": [
          {
            "astId": 18788,
            "contract": "contracts/lens/SwapSimulator.sol:SwapSimulator",
            "label": "sqrtPriceStartX96",
            "offset": 0,
            "slot": "0",
            "type": "t_uint160"
          },
          {
            "astId": 18790,
            "contract": "contracts/lens/SwapSimulator.sol:SwapSimulator",
            "label": "tickNext",
            "offset": 20,
            "slot": "0",
            "type": "t_int24"
          },
          {
            "astId": 18792,
            "contract": "contracts/lens/SwapSimulator.sol:SwapSimulator",
            "label": "initialized",
            "offset": 23,
            "slot": "0",
            "type": "t_bool"
          },
          {
            "astId": 18794,
            "contract": "contracts/lens/SwapSimulator.sol:SwapSimulator",
            "label": "sqrtPriceNextX96",
            "offset": 0,
            "slot": "1",
            "type": "t_uint160"
          },
          {
            "astId": 18796,
            "contract": "contracts/lens/SwapSimulator.sol:SwapSimulator",
            "label": "amountIn",
            "offset": 0,
            "slot": "2",
            "type": "t_uint256"
          },
          {
            "astId": 18798,
            "contract": "contracts/lens/SwapSimulator.sol:SwapSimulator",
            "label": "amountOut",
            "offset": 0,
            "slot": "3",
            "type": "t_uint256"
          },
          {
            "astId": 18800,
            "contract": "contracts/lens/SwapSimulator.sol:SwapSimulator",
            "label": "feeAmount",
            "offset": 0,
            "slot": "4",
            "type": "t_uint256"
          }
        ],
        "numberOfBytes": "160"
      },
      "t_struct(SwapStepAndState)12574_storage": {
        "encoding": "inplace",
        "label": "struct SwapSimulator.SwapStepAndState",
        "members": [
          {
            "astId": 12570,
            "contract": "contracts/lens/SwapSimulator.sol:SwapSimulator",
            "label": "step",
            "offset": 0,
            "slot": "0",
            "type": "t_struct(Step)18801_storage"
          },
          {
            "astId": 12573,
            "contract": "contracts/lens/SwapSimulator.sol:SwapSimulator",
            "label": "state",
            "offset": 0,
            "slot": "5",
            "type": "t_struct(State)18786_storage"
          }
        ],
        "numberOfBytes": "320"
      },
      "t_uint128": {
        "encoding": "inplace",
        "label": "uint128",
        "numberOfBytes": "16"
      },
      "t_uint160": {
        "encoding": "inplace",
        "label": "uint160",
        "numberOfBytes": "20"
      },
      "t_uint256": {
        "encoding": "inplace",
        "label": "uint256",
        "numberOfBytes": "32"
      }
    }
  }
}