{
  "address": "0xd8dab97F71E2F91D82E658F848be6A49ddeb9CC5",
  "abi": [
    {
      "inputs": [
        {
          "internalType": "uint256",
          "name": "errorCode",
          "type": "uint256"
        }
      ],
      "name": "InvalidSetting",
      "type": "error"
    },
    {
      "inputs": [
        {
          "internalType": "uint160",
          "name": "sqrtPriceLimitX96",
          "type": "uint160"
        }
      ],
      "name": "InvalidSqrtPriceLimit",
      "type": "error"
    },
    {
      "inputs": [
        {
          "internalType": "int24",
          "name": "tickLower",
          "type": "int24"
        },
        {
          "internalType": "int24",
          "name": "tickUpper",
          "type": "int24"
        }
      ],
      "name": "InvalidTicks",
      "type": "error"
    },
    {
      "inputs": [],
      "name": "NotClearingHouse",
      "type": "error"
    },
    {
      "inputs": [],
      "name": "NotGovernance",
      "type": "error"
    },
    {
      "inputs": [],
      "name": "NotGovernanceOrTeamMultisig",
      "type": "error"
    },
    {
      "inputs": [],
      "name": "NotUniswapV3Pool",
      "type": "error"
    },
    {
      "inputs": [],
      "name": "R",
      "type": "error"
    },
    {
      "inputs": [
        {
          "internalType": "uint128",
          "name": "value",
          "type": "uint128"
        }
      ],
      "name": "SafeCast_Int128Overflow",
      "type": "error"
    },
    {
      "inputs": [
        {
          "internalType": "uint256",
          "name": "value",
          "type": "uint256"
        }
      ],
      "name": "SafeCast_Int256Overflow",
      "type": "error"
    },
    {
      "inputs": [],
      "name": "T",
      "type": "error"
    },
    {
      "inputs": [],
      "name": "ZeroAmount",
      "type": "error"
    },
    {
      "anonymous": false,
      "inputs": [
        {
          "indexed": false,
          "internalType": "uint256",
          "name": "amount",
          "type": "uint256"
        }
      ],
      "name": "AccruedProtocolFeeCollected",
      "type": "event"
    },
    {
      "anonymous": false,
      "inputs": [
        {
          "indexed": false,
          "internalType": "int24",
          "name": "tickLower",
          "type": "int24"
        },
        {
          "indexed": false,
          "internalType": "int24",
          "name": "tickUpper",
          "type": "int24"
        },
        {
          "indexed": false,
          "internalType": "uint128",
          "name": "liquidity",
          "type": "uint128"
        },
        {
          "indexed": false,
          "internalType": "uint256",
          "name": "vTokenPrincipal",
          "type": "uint256"
        },
        {
          "indexed": false,
          "internalType": "uint256",
          "name": "vQuotePrincipal",
          "type": "uint256"
        }
      ],
      "name": "Burn",
      "type": "event"
    },
    {
      "anonymous": false,
      "inputs": [
        {
          "indexed": false,
          "internalType": "int256",
          "name": "fundingRateOverrideX128",
          "type": "int256"
        }
      ],
      "name": "FundingRateOverrideUpdated",
      "type": "event"
    },
    {
      "anonymous": false,
      "inputs": [
        {
          "indexed": false,
          "internalType": "uint24",
          "name": "liquidityFeePips",
          "type": "uint24"
        }
      ],
      "name": "LiquidityFeeUpdated",
      "type": "event"
    },
    {
      "anonymous": false,
      "inputs": [
        {
          "indexed": false,
          "internalType": "int24",
          "name": "tickLower",
          "type": "int24"
        },
        {
          "indexed": false,
          "internalType": "int24",
          "name": "tickUpper",
          "type": "int24"
        },
        {
          "indexed": false,
          "internalType": "uint128",
          "name": "liquidity",
          "type": "uint128"
        },
        {
          "indexed": false,
          "internalType": "uint256",
          "name": "vTokenPrincipal",
          "type": "uint256"
        },
        {
          "indexed": false,
          "internalType": "uint256",
          "name": "vQuotePrincipal",
          "type": "uint256"
        }
      ],
      "name": "Mint",
      "type": "event"
    },
    {
      "anonymous": false,
      "inputs": [
        {
          "indexed": false,
          "internalType": "uint24",
          "name": "protocolFeePips",
          "type": "uint24"
        }
      ],
      "name": "ProtocolFeeUpdated",
      "type": "event"
    },
    {
      "anonymous": false,
      "inputs": [
        {
          "components": [
            {
              "internalType": "int256",
              "name": "amountSpecified",
              "type": "int256"
            },
            {
              "internalType": "int256",
              "name": "vTokenIn",
              "type": "int256"
            },
            {
              "internalType": "int256",
              "name": "vQuoteIn",
              "type": "int256"
            },
            {
              "internalType": "uint256",
              "name": "liquidityFees",
              "type": "uint256"
            },
            {
              "internalType": "uint256",
              "name": "protocolFees",
              "type": "uint256"
            },
            {
              "internalType": "uint160",
              "name": "sqrtPriceX96Start",
              "type": "uint160"
            },
            {
              "internalType": "uint160",
              "name": "sqrtPriceX96End",
              "type": "uint160"
            }
          ],
          "indexed": false,
          "internalType": "struct IVPoolWrapper.SwapResult",
          "name": "swapResult",
          "type": "tuple"
        }
      ],
      "name": "Swap",
      "type": "event"
    },
    {
      "inputs": [],
      "name": "accruedProtocolFee",
      "outputs": [
        {
          "internalType": "uint256",
          "name": "",
          "type": "uint256"
        }
      ],
      "stateMutability": "view",
      "type": "function"
    },
    {
      "inputs": [
        {
          "internalType": "int24",
          "name": "tickLower",
          "type": "int24"
        },
        {
          "internalType": "int24",
          "name": "tickUpper",
          "type": "int24"
        },
        {
          "internalType": "uint128",
          "name": "liquidity",
          "type": "uint128"
        }
      ],
      "name": "burn",
      "outputs": [
        {
          "internalType": "uint256",
          "name": "vTokenPrincipal",
          "type": "uint256"
        },
        {
          "internalType": "uint256",
          "name": "vQuotePrincipal",
          "type": "uint256"
        },
        {
          "components": [
            {
              "internalType": "int256",
              "name": "sumAX128",
              "type": "int256"
            },
            {
              "internalType": "int256",
              "name": "sumBInsideX128",
              "type": "int256"
            },
            {
              "internalType": "int256",
              "name": "sumFpInsideX128",
              "type": "int256"
            },
            {
              "internalType": "uint256",
              "name": "sumFeeInsideX128",
              "type": "uint256"
            }
          ],
          "internalType": "struct IVPoolWrapper.WrapperValuesInside",
          "name": "wrapperValuesInside",
          "type": "tuple"
        }
      ],
      "stateMutability": "nonpayable",
      "type": "function"
    },
    {
      "inputs": [],
      "name": "clearingHouse",
      "outputs": [
        {
          "internalType": "contract IClearingHouse",
          "name": "",
          "type": "address"
        }
      ],
      "stateMutability": "view",
      "type": "function"
    },
    {
      "inputs": [],
      "name": "collectAccruedProtocolFee",
      "outputs": [
        {
          "internalType": "uint256",
          "name": "accruedProtocolFeeLast",
          "type": "uint256"
        }
      ],
      "stateMutability": "nonpayable",
      "type": "function"
    },
    {
      "inputs": [
        {
          "internalType": "bytes32",
          "name": "slot",
          "type": "bytes32"
        }
      ],
      "name": "extsload",
      "outputs": [
        {
          "internalType": "bytes32",
          "name": "val",
          "type": "bytes32"
        }
      ],
      "stateMutability": "view",
      "type": "function"
    },
    {
      "inputs": [
        {
          "internalType": "bytes32[]",
          "name": "slots",
          "type": "bytes32[]"
        }
      ],
      "name": "extsload",
      "outputs": [
        {
          "internalType": "bytes32[]",
          "name": "",
          "type": "bytes32[]"
        }
      ],
      "stateMutability": "view",
      "type": "function"
    },
    {
      "inputs": [],
      "name": "fpGlobal",
      "outputs": [
        {
          "internalType": "int256",
          "name": "sumAX128",
          "type": "int256"
        },
        {
          "internalType": "int256",
          "name": "sumBX128",
          "type": "int256"
        },
        {
          "internalType": "int256",
          "name": "sumFpX128",
          "type": "int256"
        },
        {
          "internalType": "uint48",
          "name": "timestampLast",
          "type": "uint48"
        }
      ],
      "stateMutability": "view",
      "type": "function"
    },
    {
      "inputs": [],
      "name": "fundingRateOverrideX128",
      "outputs": [
        {
          "internalType": "int256",
          "name": "",
          "type": "int256"
        }
      ],
      "stateMutability": "view",
      "type": "function"
    },
    {
      "inputs": [],
      "name": "getExtrapolatedSumAX128",
      "outputs": [
        {
          "internalType": "int256",
          "name": "",
          "type": "int256"
        }
      ],
      "stateMutability": "view",
      "type": "function"
    },
    {
      "inputs": [
        {
          "internalType": "int24",
          "name": "tickLower",
          "type": "int24"
        },
        {
          "internalType": "int24",
          "name": "tickUpper",
          "type": "int24"
        }
      ],
      "name": "getExtrapolatedValuesInside",
      "outputs": [
        {
          "components": [
            {
              "internalType": "int256",
              "name": "sumAX128",
              "type": "int256"
            },
            {
              "internalType": "int256",
              "name": "sumBInsideX128",
              "type": "int256"
            },
            {
              "internalType": "int256",
              "name": "sumFpInsideX128",
              "type": "int256"
            },
            {
              "internalType": "uint256",
              "name": "sumFeeInsideX128",
              "type": "uint256"
            }
          ],
          "internalType": "struct IVPoolWrapper.WrapperValuesInside",
          "name": "wrapperValuesInside",
          "type": "tuple"
        }
      ],
      "stateMutability": "view",
      "type": "function"
    },
    {
      "inputs": [],
      "name": "getFundingRateAndVirtualPrice",
      "outputs": [
        {
          "internalType": "int256",
          "name": "fundingRateX128",
          "type": "int256"
        },
        {
          "internalType": "uint256",
          "name": "virtualPriceX128",
          "type": "uint256"
        }
      ],
      "stateMutability": "view",
      "type": "function"
    },
    {
      "inputs": [],
      "name": "getSumAX128",
      "outputs": [
        {
          "internalType": "int256",
          "name": "",
          "type": "int256"
        }
      ],
      "stateMutability": "view",
      "type": "function"
    },
    {
      "inputs": [
        {
          "internalType": "int24",
          "name": "tickLower",
          "type": "int24"
        },
        {
          "internalType": "int24",
          "name": "tickUpper",
          "type": "int24"
        }
      ],
      "name": "getValuesInside",
      "outputs": [
        {
          "components": [
            {
              "internalType": "int256",
              "name": "sumAX128",
              "type": "int256"
            },
            {
              "internalType": "int256",
              "name": "sumBInsideX128",
              "type": "int256"
            },
            {
              "internalType": "int256",
              "name": "sumFpInsideX128",
              "type": "int256"
            },
            {
              "internalType": "uint256",
              "name": "sumFeeInsideX128",
              "type": "uint256"
            }
          ],
          "internalType": "struct IVPoolWrapper.WrapperValuesInside",
          "name": "wrapperValuesInside",
          "type": "tuple"
        }
      ],
      "stateMutability": "view",
      "type": "function"
    },
    {
      "inputs": [
        {
          "components": [
            {
              "internalType": "address",
              "name": "clearingHouse",
              "type": "address"
            },
            {
              "internalType": "contract IVToken",
              "name": "vToken",
              "type": "address"
            },
            {
              "internalType": "contract IVQuote",
              "name": "vQuote",
              "type": "address"
            },
            {
              "internalType": "contract IUniswapV3Pool",
              "name": "vPool",
              "type": "address"
            },
            {
              "internalType": "uint24",
              "name": "liquidityFeePips",
              "type": "uint24"
            },
            {
              "internalType": "uint24",
              "name": "protocolFeePips",
              "type": "uint24"
            }
          ],
          "internalType": "struct IVPoolWrapper.InitializeVPoolWrapperParams",
          "name": "params",
          "type": "tuple"
        }
      ],
      "name": "initialize",
      "outputs": [],
      "stateMutability": "nonpayable",
      "type": "function"
    },
    {
      "inputs": [],
      "name": "liquidityFeePips",
      "outputs": [
        {
          "internalType": "uint24",
          "name": "",
          "type": "uint24"
        }
      ],
      "stateMutability": "view",
      "type": "function"
    },
    {
      "inputs": [
        {
          "internalType": "int24",
          "name": "tickLower",
          "type": "int24"
        },
        {
          "internalType": "int24",
          "name": "tickUpper",
          "type": "int24"
        },
        {
          "internalType": "uint128",
          "name": "liquidity",
          "type": "uint128"
        }
      ],
      "name": "mint",
      "outputs": [
        {
          "internalType": "uint256",
          "name": "vTokenPrincipal",
          "type": "uint256"
        },
        {
          "internalType": "uint256",
          "name": "vQuotePrincipal",
          "type": "uint256"
        },
        {
          "components": [
            {
              "internalType": "int256",
              "name": "sumAX128",
              "type": "int256"
            },
            {
              "internalType": "int256",
              "name": "sumBInsideX128",
              "type": "int256"
            },
            {
              "internalType": "int256",
              "name": "sumFpInsideX128",
              "type": "int256"
            },
            {
              "internalType": "uint256",
              "name": "sumFeeInsideX128",
              "type": "uint256"
            }
          ],
          "internalType": "struct IVPoolWrapper.WrapperValuesInside",
          "name": "wrapperValuesInside",
          "type": "tuple"
        }
      ],
      "stateMutability": "nonpayable",
      "type": "function"
    },
    {
      "inputs": [],
      "name": "protocolFeePips",
      "outputs": [
        {
          "internalType": "uint24",
          "name": "",
          "type": "uint24"
        }
      ],
      "stateMutability": "view",
      "type": "function"
    },
    {
      "inputs": [
        {
          "internalType": "int256",
          "name": "fundingRateOverrideX128_",
          "type": "int256"
        }
      ],
      "name": "setFundingRateOverride",
      "outputs": [],
      "stateMutability": "nonpayable",
      "type": "function"
    },
    {
      "inputs": [
        {
          "internalType": "uint24",
          "name": "liquidityFeePips_",
          "type": "uint24"
        }
      ],
      "name": "setLiquidityFee",
      "outputs": [],
      "stateMutability": "nonpayable",
      "type": "function"
    },
    {
      "inputs": [
        {
          "internalType": "uint24",
          "name": "protocolFeePips_",
          "type": "uint24"
        }
      ],
      "name": "setProtocolFee",
      "outputs": [],
      "stateMutability": "nonpayable",
      "type": "function"
    },
    {
      "inputs": [],
      "name": "sumFeeGlobalX128",
      "outputs": [
        {
          "internalType": "uint256",
          "name": "",
          "type": "uint256"
        }
      ],
      "stateMutability": "view",
      "type": "function"
    },
    {
      "inputs": [
        {
          "internalType": "bool",
          "name": "swapVTokenForVQuote",
          "type": "bool"
        },
        {
          "internalType": "int256",
          "name": "amountSpecified",
          "type": "int256"
        },
        {
          "internalType": "uint160",
          "name": "sqrtPriceLimitX96",
          "type": "uint160"
        }
      ],
      "name": "swap",
      "outputs": [
        {
          "components": [
            {
              "internalType": "int256",
              "name": "amountSpecified",
              "type": "int256"
            },
            {
              "internalType": "int256",
              "name": "vTokenIn",
              "type": "int256"
            },
            {
              "internalType": "int256",
              "name": "vQuoteIn",
              "type": "int256"
            },
            {
              "internalType": "uint256",
              "name": "liquidityFees",
              "type": "uint256"
            },
            {
              "internalType": "uint256",
              "name": "protocolFees",
              "type": "uint256"
            },
            {
              "internalType": "uint160",
              "name": "sqrtPriceX96Start",
              "type": "uint160"
            },
            {
              "internalType": "uint160",
              "name": "sqrtPriceX96End",
              "type": "uint160"
            }
          ],
          "internalType": "struct IVPoolWrapper.SwapResult",
          "name": "swapResult",
          "type": "tuple"
        }
      ],
      "stateMutability": "nonpayable",
      "type": "function"
    },
    {
      "inputs": [
        {
          "internalType": "int24",
          "name": "",
          "type": "int24"
        }
      ],
      "name": "ticksExtended",
      "outputs": [
        {
          "internalType": "int256",
          "name": "sumALastX128",
          "type": "int256"
        },
        {
          "internalType": "int256",
          "name": "sumBOutsideX128",
          "type": "int256"
        },
        {
          "internalType": "int256",
          "name": "sumFpOutsideX128",
          "type": "int256"
        },
        {
          "internalType": "uint256",
          "name": "sumFeeOutsideX128",
          "type": "uint256"
        }
      ],
      "stateMutability": "view",
      "type": "function"
    },
    {
      "inputs": [
        {
          "internalType": "uint256",
          "name": "vTokenAmount",
          "type": "uint256"
        },
        {
          "internalType": "uint256",
          "name": "vQuoteAmount",
          "type": "uint256"
        },
        {
          "internalType": "bytes",
          "name": "",
          "type": "bytes"
        }
      ],
      "name": "uniswapV3MintCallback",
      "outputs": [],
      "stateMutability": "nonpayable",
      "type": "function"
    },
    {
      "inputs": [
        {
          "internalType": "int256",
          "name": "amount0Delta",
          "type": "int256"
        },
        {
          "internalType": "int256",
          "name": "amount1Delta",
          "type": "int256"
        },
        {
          "internalType": "bytes",
          "name": "",
          "type": "bytes"
        }
      ],
      "name": "uniswapV3SwapCallback",
      "outputs": [],
      "stateMutability": "nonpayable",
      "type": "function"
    },
    {
      "inputs": [
        {
          "internalType": "bool",
          "name": "useZeroFundingRate",
          "type": "bool"
        }
      ],
      "name": "updateGlobalFundingState",
      "outputs": [],
      "stateMutability": "nonpayable",
      "type": "function"
    },
    {
      "inputs": [],
      "name": "vPool",
      "outputs": [
        {
          "internalType": "contract IUniswapV3Pool",
          "name": "",
          "type": "address"
        }
      ],
      "stateMutability": "view",
      "type": "function"
    },
    {
      "inputs": [],
      "name": "vQuote",
      "outputs": [
        {
          "internalType": "contract IVQuote",
          "name": "",
          "type": "address"
        }
      ],
      "stateMutability": "view",
      "type": "function"
    },
    {
      "inputs": [],
      "name": "vToken",
      "outputs": [
        {
          "internalType": "contract IVToken",
          "name": "",
          "type": "address"
        }
      ],
      "stateMutability": "view",
      "type": "function"
    },
    {
      "anonymous": false,
      "inputs": [
        {
          "components": [
            {
              "internalType": "int256",
              "name": "sumAX128",
              "type": "int256"
            },
            {
              "internalType": "int256",
              "name": "sumBX128",
              "type": "int256"
            },
            {
              "internalType": "int256",
              "name": "sumFpX128",
              "type": "int256"
            },
            {
              "internalType": "uint48",
              "name": "timestampLast",
              "type": "uint48"
            }
          ],
          "indexed": false,
          "internalType": "struct FundingPayment.Info",
          "name": "fundingPayment",
          "type": "tuple"
        },
        {
          "indexed": false,
          "internalType": "int256",
          "name": "fundingRateX128",
          "type": "int256"
        },
        {
          "indexed": false,
          "internalType": "uint256",
          "name": "virtualPriceX128",
          "type": "uint256"
        }
      ],
      "name": "FundingPaymentStateUpdated",
      "type": "event"
    },
    {
      "inputs": [
        {
          "internalType": "uint160",
          "name": "sqrtPriceX96",
          "type": "uint160"
        }
      ],
      "name": "IllegalSqrtPrice",
      "type": "error"
    },
    {
      "inputs": [
        {
          "internalType": "uint256",
          "name": "value",
          "type": "uint256"
        }
      ],
      "name": "SafeCast_UInt224Overflow",
      "type": "error"
    },
    {
      "inputs": [],
      "name": "UV3PH_OracleConsultFailed",
      "type": "error"
    }
  ],
  "transactionHash": "0x1a5ebfdc8c2c62fd3b691678a021757b578d3e8e92b212fdf889b28b3db303e4",
  "args": [],
  "numDeployments": 1,
  "solcInputHash": "e57f996027e70c38f3149e5d14eb0907",
  "bytecode": "0x6080806040523461001757615a6c90816200001d8239f35b600080fdfe60806040526004361015610013575b600080fd5b60003560e01c80630af9680014610257578063195cd92c1461024e5780631dce5fcf146102455780631e2eaeaf1461023c5780632a99a792146102335780633b231e011461022a57806348aaa8c0146102215780634bc36bd614610218578063512403361461020f57806356d15a88146102065780635e622abc146101fd5780636719578c146101f45780636c544335146101eb5780637779815c146101e25780637feedaa1146101d957806386c8e9a7146101d05780638b1e9781146101c75780639bb1a99c146101be5780639f883c12146101b5578063a34123a7146101ac578063a3a1e7e9146101a3578063a3c35e2c1461019a578063acfd792814610191578063c04b98c414610188578063d34879971461017f578063dbd035ff14610176578063fa461e331461016d578063fb7e3e24146101645763fca6fbf21461015c57600080fd5b61000e6117ae565b5061000e611786565b5061000e6114de565b5061000e611439565b5061000e611198565b5061000e61114b565b5061000e61112c565b5061000e6110dd565b5061000e6110b9565b5061000e611010565b5061000e610eab565b5061000e610e83565b5061000e610dca565b5061000e610da3565b5061000e610cb0565b5061000e610c84565b5061000e610c44565b5061000e610c1c565b5061000e610b85565b5061000e610a21565b5061000e6109c3565b5061000e61099b565b5061000e610940565b5061000e610921565b5061000e61080a565b5061000e610796565b5061000e6106a0565b5061000e6102b1565b5061000e61026b565b600091031261000e57565b503461000e57600060031936011261000e5760206001600160a01b0360005460101c16604051908152f35b8015150361000e57565b6001600160a01b0381160361000e57565b503461000e57606060031936011261000e576004356102cf81610296565b604435906024356102df836102a0565b6102e76125b5565b916001600160a01b039360009480865460101c1633036105de578185929482888212159216156105af575b835260035493878162ffffff94858860b81c1687878a60a01c1691610338928589613f83565b8861034161260c565b600a60808201529889926101f460a085015261035b614da0565b60c086015260e085015289519116936103739461295d565b90919751610387906001600160a01b031690565b6001600160a01b031660a088015260409889809201516103ad906001600160a01b031690565b6001600160a01b0390811660c08a0152600354895184517f128acb0800000000000000000000000000000000000000000000000000000000815230600482015288151560248201526044810191909152928216606484015260a06084840152600060a48401529194859260c492849291165af16105639a61046a986104559483156105a2575b8293610571575b50828b8a01528160208a0152149182610567575b5050612680565b60035492808460b81c169360a01c16916140a0565b61048261047d60808401516004546126e4565b600455565b61048a61567a565b7f374e2c00db0195ec47718dc83fbed946c07c24c240e8332e547d9b4ac086fd47815180610507858291909160c060e08201938051835260208101516020840152604081015160408401526060810151606084015260808101516080840152816001600160a01b03918260a08201511660a0860152015116910152565b0390a1519182918291909160c060e08201938051835260208101516020840152604081015160408401526060810151606084015260808101516080840152816001600160a01b03918260a08201511660a0860152015116910152565b0390f35b149050388061044e565b90925061059491508a3d8c1161059b575b61058c818361139d565b81019061266a565b913861043a565b503d610582565b6105aa612339565b610433565b945083156105c4576401000276a45b94610312565b73fffd8963efd1fc6a506488495d951d5263988d256105be565b60046040517f8597d08b000000000000000000000000000000000000000000000000000000008152fd5b8060020b0361000e57565b6fffffffffffffffffffffffffffffffff81160361000e57565b600319606091011261000e5760043561064581610608565b9060243561065281610608565b9060443561065f81610613565b90565b60409061069e939594929560c0820196825260208201520190606080918051845260208101516020850152604081015160408501520151910152565b565b503461000e576106af3661062d565b90916106b9614ab0565b506001600160a01b0360005460101c1633036105de578260020b8160020b9080821291821592610788575b821561077b575b821561076a575b50811561075a575b5061071c57906105639261070d92614ad5565b60409391935193849384610662565b6040517f957b5ed5000000000000000000000000000000000000000000000000000000008152600291820b600482015292900b602483015250604490fd5b600a91500760020b1515386106fa565b600a900760020b15159150386106f2565b620d89e8821392506106eb565b620d89e719811292506106e4565b503461000e57602060031936011261000e57602060043554604051908152f35b600319604091011261000e576004356107ce81610608565b9060243561065f81610608565b61069e909291926080810193606080918051845260208101516020850152604081015160408501520151910152565b503461000e576105636108c461081f366107b6565b9190610829614ab0565b92600460e061084f6108436003546001600160a01b031690565b6001600160a01b031690565b604051928380927f3850c7bd0000000000000000000000000000000000000000000000000000000082525afa908115610914575b6000916108df575b5061089461511b565b916108b26108a0614f9c565b80855260055460065460075491615292565b6040840152825186526009549361514f565b606084015260408301526020820152604051918291826107db565b610900915060e03d811161090d575b6108f8818361139d565b81019061270a565b505050505090503861088b565b503d6108ee565b61091c612339565b610883565b503461000e57600060031936011261000e576020600a54604051908152f35b503461000e57602060031936011261000e5760043561095e81610608565b60020b600052600b602052608060406000208054906001810154906003600282015491015491604051938452602084015260408301526060820152f35b503461000e57600060031936011261000e5760206001600160a01b0360025416604051908152f35b503461000e57602060031936011261000e576004356109e181610296565b6001600160a01b0360005460101c1633036105de57610a1a90610a02614da0565b9115610a1c575060005b65ffffffffffff4216611abe565b005b610a0c565b503461000e5760c060031936011261000e5760005460ff8160081c169081600014610b7c5750303b155b15610af8571580610a92575b610a5f6117ed565b610a6557005b610a1a7fffffffffffffffffffffffffffffffffffffffffffffffffffffffffffff00ff60005416600055565b610ac36101007fffffffffffffffffffffffffffffffffffffffffffffffffffffffffffff00ff6000541617600055565b610af360017fffffffffffffffffffffffffffffffffffffffffffffffffffffffffffffff006000541617600055565b610a57565b60846040517f08c379a000000000000000000000000000000000000000000000000000000000815260206004820152602e60248201527f496e697469616c697a61626c653a20636f6e747261637420697320616c72656160448201527f647920696e697469616c697a65640000000000000000000000000000000000006064820152fd5b60ff1615610a4b565b503461000e57600060031936011261000e576001600160a01b0360005460101c1633036105de57610563600060045480610bf5575b507f889bbef14ccbbb6f97773359c9c09396f67ed97695236771816a304ec5d886116020604051838152a16040519081529081906020820190565b600019915060018110610c0f575b01600160045538610bba565b610c17611992565b610c03565b503461000e57600060031936011261000e5760206001600160a01b0360035416604051908152f35b503461000e57600060031936011261000e57608060055460065460075465ffffffffffff6008541691604051938452602084015260408301526060820152f35b503461000e57600060031936011261000e576020600554604051908152f35b62ffffff81160361000e57565b503461000e57602060031936011261000e57600435610cce81610ca3565b6001600160a01b0360046020610cf18360005460101c166001600160a01b031690565b604051928380927f5aa6e6750000000000000000000000000000000000000000000000000000000082525afa908115610d96575b600091610d68575b50163303610d3e57610a1a90612402565b60046040517fb56f932c000000000000000000000000000000000000000000000000000000008152fd5b610d89915060203d8111610d8f575b610d81818361139d565b810190612324565b38610d2d565b503d610d77565b610d9e612339565b610d25565b503461000e57600060031936011261000e57602062ffffff60035460a01c16604051908152f35b503461000e57602060031936011261000e57600435610de881610ca3565b6001600160a01b0360046020610e0b8360005460101c166001600160a01b031690565b604051928380927f5aa6e6750000000000000000000000000000000000000000000000000000000082525afa908115610e76575b600091610e58575b50163303610d3e57610a1a90612346565b610e70915060203d8111610d8f57610d81818361139d565b38610e47565b610e7e612339565b610e3f565b503461000e57600060031936011261000e5760206001600160a01b0360015416604051908152f35b503461000e5760208060031936011261000e57600054610ed69060101c6001600160a01b0316610843565b90604051907f5aa6e6750000000000000000000000000000000000000000000000000000000082528082600481865afa918215611003575b600092610fe4575b506001600160a01b038092163314159283610f68575b505050610f3e57610a1a600435612503565b60046040517f52d335a7000000000000000000000000000000000000000000000000000000008152fd5b8192935090600491604051928380927fdbc0c0850000000000000000000000000000000000000000000000000000000082525afa918215610fd7575b600092610fba575b505016331415388080610f2c565b610fd09250803d10610d8f57610d81818361139d565b3880610fac565b610fdf612339565b610fa4565b81610ffc9293503d8411610d8f57610d81818361139d565b9038610f16565b61100b612339565b610f0e565b503461000e5761101f3661062d565b9091611029614ab0565b506001600160a01b0360005460101c1633036105de578260020b8160020b90808212918215926110ab575b821561109e575b821561108d575b50811561107d575b5061071c57906105639261070d92614cb1565b600a91500760020b15153861106a565b600a900760020b1515915038611062565b620d89e88213925061105b565b620d89e71981129250611054565b503461000e57600060031936011261000e5760206110d5614f9c565b604051908152f35b503461000e5760806110ff6110f1366107b6565b906110fa614ab0565b614fc6565b61112a6040518092606080918051845260208101516020850152604081015160408501520151910152565bf35b503461000e57600060031936011261000e576020600454604051908152f35b503461000e57600060031936011261000e576020600954604051908152f35b9181601f8401121561000e5782359167ffffffffffffffff831161000e576020838186019501011161000e57565b503461000e57606060031936011261000e5760043560243560443567ffffffffffffffff811161000e576111d090369060040161116a565b50506001600160a01b03600354163303611306578061127c575b50806111f257005b6112076108436001546001600160a01b031690565b803b1561000e576040517f40c10f1900000000000000000000000000000000000000000000000000000000815233600482015260248101929092526000908290604490829084905af1801561126f575b15610a1a5780611269610a1a92611360565b80610260565b611277612339565b611257565b6112916108436002546001600160a01b031690565b803b1561000e576040517f40c10f1900000000000000000000000000000000000000000000000000000000815233600482015260248101929092526000908290604490829084905af180156112f9575b156111ea57806112696112f392611360565b386111ea565b611301612339565b6112e1565b60046040517f21162cac000000000000000000000000000000000000000000000000000000008152fd5b507f4e487b7100000000000000000000000000000000000000000000000000000000600052604160045260246000fd5b67ffffffffffffffff811161137457604052565b61137c611330565b604052565b6080810190811067ffffffffffffffff82111761137457604052565b90601f7fffffffffffffffffffffffffffffffffffffffffffffffffffffffffffffffe0910116810190811067ffffffffffffffff82111761137457604052565b6040519060e0820182811067ffffffffffffffff82111761137457604052565b6020908160408183019282815285518094520193019160005b828110611425575050505090565b835185529381019392810192600101611417565b503461000e5760208060031936011261000e5767ffffffffffffffff60043581811161000e573660238201121561000e5780600401359182116114d1575b8160051b6040519261148b8583018561139d565b83526024848401918301019136831161000e57602401905b8282106114c2576105636114b685615860565b604051918291826113fe565b813581529084019084016114a3565b6114d9611330565b611477565b503461000e57606060031936011261000e57600480359060243560443567ffffffffffffffff811161000e57611517903690840161116a565b50506001600160a01b039081600354169182330361175d57600094859384821361165f575b505082821361154c575b82604051f35b6115616108436003546001600160a01b031690565b906040517fd21220a70000000000000000000000000000000000000000000000000000000081526020818781865afa908115611652575b8591611634575b501690813b1561163057836115f895604051968795869485937f40c10f190000000000000000000000000000000000000000000000000000000085528401602090939291936001600160a01b0360408201951681520152565b03925af18015611623575b611610575b818180611546565b8061126961161d92611360565b38611608565b61162b612339565b611603565b8380fd5b61164c915060203d8111610d8f57610d81818361139d565b3861159f565b61165a612339565b611598565b826040517f0dfe16810000000000000000000000000000000000000000000000000000000081526020818981865afa908115611750575b8791611732575b501691823b1561172e576116f8928692836040518096819582947f40c10f190000000000000000000000000000000000000000000000000000000084528d8401602090939291936001600160a01b0360408201951681520152565b03925af18015611721575b61170e575b8061153c565b8061126961171b92611360565b38611708565b611729612339565b611703565b8580fd5b61174a915060203d8111610d8f57610d81818361139d565b3861169d565b611758612339565b611696565b836040517f21162cac000000000000000000000000000000000000000000000000000000008152fd5b503461000e57600060031936011261000e5760406117a2614da0565b82519182526020820152f35b503461000e57600060031936011261000e57602062ffffff60035460b81c16604051908152f35b60843561065f81610ca3565b60a43561065f81610ca3565b6004356117f9816102a0565b7fffffffffffffffffffff0000000000000000000000000000000000000000ffff75ffffffffffffffffffffffffffffffffffffffff00006000549260101b1691161760005560243561184b816102a0565b6001600160a01b03807fffffffffffffffffffffffff000000000000000000000000000000000000000092168260015416176001558060443561188d816102a0565b168260025416176002556064356118a3816102a0565b169060035416176003556119016118b86117d5565b7fffffffffffffffffff000000ffffffffffffffffffffffffffffffffffffffff76ffffff00000000000000000000000000000000000000006003549260a01b16911617600355565b61195861190c6117e1565b7fffffffffffff000000ffffffffffffffffffffffffffffffffffffffffffffff79ffffff00000000000000000000000000000000000000000000006003549260b81b16911617600355565b6119817f7fffffffffffffffffffffffffffffffffffffffffffffffffffffffffffffff600a55565b61069e65ffffffffffff4216611c2d565b507f4e487b7100000000000000000000000000000000000000000000000000000000600052601160045260246000fd5b600081129060001991817f7fffffffffffffffffffffffffffffffffffffffffffffffffffffffffffffff038313811516611a16575b81600160ff1b03831216611a0a570190565b611a12611992565b0190565b611a1e611992565b6119f8565b60008112817f7fffffffffffffffffffffffffffffffffffffffffffffffffffffffffffffff03600013811516611a6f575b81600160ff1b0360001216611a675790565b61065f611992565b611a77611992565b611a55565b60008112817f7fffffffffffffffffffffffffffffffffffffffffffffffffffffffffffffff038313811516611a165781600160ff1b03831216611a0a570190565b907f62187ed3f133848cd15541a988e634a4c2e6a75750e025c69ea914b1ea2263cc929165ffffffffffff196008549165ffffffffffff90611b04868683858816611ed7565b611b3a60065491611b2f611b18848361229b565b6000811280611bf7575b611be9575b600754611a7c565b600755600554611a7c565b6005556000811290807f7fffffffffffffffffffffffffffffffffffffffffffffffffffffffffffffff03600013821516611bdc575b600160ff1b0360001216611bcf575b16911617600855611bca6040519283928360a0909392919360c081019460055482526006546020830152600754604083015265ffffffffffff60085416606083015260808201520152565b0390a1565b611bd7611992565b611b7f565b611be4611992565b611b70565b611bf2906119c2565b611b27565b50611c01836122ce565b700100000000000000000000000000000000611c1c876122ce565b6000920915611b2257506001611b22565b65ffffffffffff1960085465ffffffffffff8093169281168310611d22575b611c89600654611c73611c5e82612259565b6000811280611cf457611be957600754611a7c565b600755611c81600554611a23565b600555611a23565b60065516176008557f62187ed3f133848cd15541a988e634a4c2e6a75750e025c69ea914b1ea2263cc60405180611bca8190600160a060c084019360055481526006546020820152600754604082015265ffffffffffff600854166060820152600060808201520152565b50611cfe836122ce565b700100000000000000000000000000000000600091820915611b2257506001611b22565b611d2a611992565b611c4c565b65ffffffffffff19907f62187ed3f133848cd15541a988e634a4c2e6a75750e025c69ea914b1ea2263cc959493611de4600854948593611dd9611dd4611dce611d838c8c8965ffffffffffff809c16611ed7565b93611dad60065495611b2f611d98888361229b565b6000811280611e4957611be957600754611a7c565b600555600190600080821215611e42579150611dc890611fe1565b956122e3565b94611ff9565b61224a565b9115611e3257611a7c565b60065516911617600855611bca6040519283928360a0909392919360c081019460055482526006546020830152600754604083015265ffffffffffff60085416606083015260808201520152565b90611e3c90611fe1565b90611a7c565b50956122e3565b50611e53836122ce565b700100000000000000000000000000000000611c1c8b6122ce565b60016000198183600160ff1b058212600085131616611eca575b827f7fffffffffffffffffffffffffffffffffffffffffffffffffffffffffffffff0513600083121616611ebd575b60000390565b611ec5611992565b611eb7565b611ed2611992565b611e88565b600083129391929091611efd91611dd491908615611ef857611ef890611e6e565b6121cd565b92611fd1575b65ffffffffffff80809316911690818110611fc4575b031660050b90600082136000821390837f7fffffffffffffffffffffffffffffffffffffffffffffffffffffffffffffff818104851183851616611fb7575b6000821292600160ff1b94848787058512911616611faa575b82600087129505861290851616611f9d575b058312911616611f91570290565b611f99611992565b0290565b611fa5611992565b611f83565b611fb2611992565b611f71565b611fbf611992565b611f58565b611fcc611992565b611f19565b91611fdb90611fe1565b91611f03565b600160ff1b8114611ebd5760000390565b1561000e57565b70010000000000000000000000000000000091600019838309928260801b9283808610950394808603951461208557908291612036868411611ff2565b0981806000031680920460028082600302188083028203028083028203028083028203028083028203028083028203028092029003029360018380600003040190848311900302920304170290565b50509150612094821515611ff2565b0490565b90600019818309818302918280831092039180830392146120f657620f4240908282111561000e577fde8f6cefed634549b62c77574f722e1ac57e23f24d8fd5cb790fb65668c26139940990828211900360fa1b910360061c170290565b5050620f424091500490565b6c0100000000000000000000000091600019838309928260601b9283808610950394808603951461208557908291612036868411611ff2565b6000198282099082810292838084109303928084039314612180576c01000000000000000000000000918383111561000e570990828211900360a01b910360601c1790565b50505060601c90565b6000906000198183099081156121c857700100000000000000000000000000000000908282111561163057830990811515900360801b910360801c1790565b505090565b600019828209908281029283808410930392808403931461221657700100000000000000000000000000000000918383111561000e570990828211900360801b910360801c1790565b50505060801c90565b9091600019838309928083029283808610950394808603951461208557908291612036868411611ff2565b600160ff1b81101561000e5790565b906001600083121561228e575061227c611dd4612277600094611fe1565b612189565b911561228457565b9061065f90611fe1565b91611dd461227c91612189565b611dd46122c161227c929493946001600082126000146122c75750611dc8600091611fe1565b946121cd565b90956122e3565b60008113156122da5790565b61065f90611fe1565b9190600083121561065f576122f9901592611fe1565b9190565b6000199060018110611a0a570190565b818110612318570390565b612320611992565b0390565b9081602091031261000e575161065f816102a0565b506040513d6000823e3d90fd5b62ffffff811690620186a082116123d1577f5e286c9a939d59334080ddf15517957037c2228384e26bb92a368ce44c531edd916123c86020927fffffffffffffffffff000000ffffffffffffffffffffffffffffffffffffffff76ffffff00000000000000000000000000000000000000006003549260a01b16911617600355565b604051908152a1565b60246040517fd4131ba200000000000000000000000000000000000000000000000000000000815260106004820152fd5b62ffffff811690620186a08211612487577f2edf7eef14cb246dab2aac555e300928981632918159d9e33fcaa24dcd38cb40916123c86020927fffffffffffff000000ffffffffffffffffffffffffffffffffffffffffffffff79ffffff00000000000000000000000000000000000000000000006003549260b81b16911617600355565b60246040517fd4131ba200000000000000000000000000000000000000000000000000000000815260206004820152fd5b507f4e487b7100000000000000000000000000000000000000000000000000000000600052601260045260246000fd5b80156124f6575b6000190490565b6124fe6124b8565b6124ef565b61250c816122ce565b7f7fffffffffffffffffffffffffffffffffffffffffffffffffffffffffffffff821415908161259e575b5061256d576020817fe71127eab59a3a0c0415330d6b03fb027923dc6710978f16940a31355cbf83e892600a55604051908152a1565b60246040517fd4131ba200000000000000000000000000000000000000000000000000000000815260306004820152fd5b6c883148f5cb1270b85273b667ae91501138612537565b6040519060e0820182811067ffffffffffffffff8211176125ff575b6040528160c06000918281528260208201528260408201528260608201528260808201528260a08201520152565b612607611330565b6125d1565b60405190610100820182811067ffffffffffffffff82111761265d575b6040528160e06000918281528260208201528260408201528260608201528260808201528260a08201528260c08201520152565b612665611330565b612629565b919082604091031261000e576020825192015190565b1561268757565b7f4e487b7100000000000000000000000000000000000000000000000000000000600052600160045260246000fd5b6001907ffffffffffffffffffffffffffffffffffffffffffffffffffffffffffffffffe8111611a0a570190565b81198111611a0a570190565b519061ffff8216820361000e57565b519061069e82610296565b908160e091031261000e578051612720816102a0565b91602082015161272f81610608565b9161273c604082016126f0565b91612749606083016126f0565b91612756608082016126f0565b9160a082015160ff8116810361000e5760c09092015161065f81610296565b9081602091031261000e575161065f81610613565b9081602091031261000e575161065f81610ca3565b9081602091031261000e575161065f81610608565b6000821282600160ff1b0182128115166127f7575b827f7fffffffffffffffffffffffffffffffffffffffffffffffffffffffffffffff01821316612318570390565b6127ff611992565b6127c9565b91908261010091031261000e57815161281c81610613565b91602081015180600f0b810361000e579160408201519160608101519160808201518060060b810361000e579160a0810151612857816102a0565b9160c082015163ffffffff8116810361000e5760e061065f9193016126ff565b600f0b7fffffffffffffffffffffffffffffffff800000000000000000000000000000008114611ebd5760000390565b906fffffffffffffffffffffffffffffffff8080931691168092038111611a0a570190565b6fffffffffffffffffffffffffffffffff9182169116818110612318570390565b6000199060020b7fffffffffffffffffffffffffffffffffffffffffffffffffffffffffff8000018112600116611a0a570190565b60020b9060020b906000821282627fffff19018212811516612950575b82627fffff01821316612318570390565b612958611992565b61293f565b9194939492909261296c6125b5565b5080156132d6576001600160a01b0361298c87516001600160a01b031690565b161561321c575b60608601946fffffffffffffffffffffffffffffffff6129c387516fffffffffffffffffffffffffffffffff1690565b161561317a575b608087015160020b15613050575b8415613003576129f261084388516001600160a01b031690565b6001600160a01b038416908111908115612ff4575b505b612fba57612aa6612a2188516001600160a01b031690565b96612a7f612a4d612a3660208c015160020b90565b92516fffffffffffffffffffffffffffffffff1690565b91612a75612a596113de565b878152600060208201526001600160a01b03909b1660408c0152565b60020b60608a0152565b60006080890181905260a08901526fffffffffffffffffffffffffffffffff1660c0880152565b855b8651151580612fa0575b15612f615786612b2f612b25612b1b898c612b0b6080612b026060612ad56125b5565b99612afa612aed60408301516001600160a01b031690565b6001600160a01b03168c52565b015160020b90565b92015160020b90565b906001600160a01b038c1661459f565b1515604085015290565b60020b6020830152565b602081015160020b620d89e719811215612f495750620d89e71960208201525b612b78612b68612b63602084015160020b90565b6138af565b6001600160a01b03166060830152565b612c13612bea612b9260408b01516001600160a01b031690565b8915612f315760608401516001600160a01b038981169116105b15612f16578b8b895b612be460a0612bd760c08501516fffffffffffffffffffffffffffffffff1690565b935194015162ffffff1690565b93613300565b60c0860190815260a08601918252608086019283526001600160a01b0390931660408d01529192565b6000871315612ede5790612c3a612c33611dd4612c5194518651906126e4565b8c516127b4565b8b52612c4b60208c0151915161224a565b906127b4565b60208a01525b612c8c612c7760c08b01516fffffffffffffffffffffffffffffffff1690565b6fffffffffffffffffffffffffffffffff1690565b9081612eba575b5050612ca181898b8a615889565b60408801516001600160a01b031690612cc761084360608301516001600160a01b031690565b6001600160a01b038316908103612e8857506040810151612d089250612d19575b8715612d0d5760200151612cfe9060020b6128ed565b60020b6060890152565b612aa8565b6020015160020b612cfe565b612df38989612d7b612d2f602086015160020b90565b604051907ff30dba93000000000000000000000000000000000000000000000000000000008252818d816001600160a01b038161010097889660048301919091602081019260020b9052565b0392165afa918215612e7b575b600092612e46575b50508091612e36575b50600081600f0b12600014612df857612dd4612c77612dce60c0612dda9501516fffffffffffffffffffffffffffffffff1690565b92612877565b906128cc565b6fffffffffffffffffffffffffffffffff1660c08b0152565b612ce8565b612e1860c0612e319301516fffffffffffffffffffffffffffffffff1690565b906fffffffffffffffffffffffffffffffff16906128a7565b612dda565b612e409150612877565b38612d99565b612e659250803d10612e74575b612e5d818361139d565b810190612804565b50505050505090503880612d90565b503d612e53565b612e83612339565b612d88565b9051612e9c906001600160a01b0316610843565b03612ea8575b50612aa8565b612cfe612eb491613c56565b38612ea2565b612ed291612ec89151611ff9565b60808a01516126e4565b60808901523880612c93565b612ef5612eee612f0c935161224a565b8c51611a7c565b8b52611e3c611dd460208d015192518551906126e4565b60208a0152612c57565b8b8b612f2c60608701516001600160a01b031690565b612bb5565b60608401516001600160a01b03898116911611612bac565b620d89e81215612b4f57620d89e86020820152612b4f565b949250955091506000821390151514600014612f8c57612f856020918451906127b4565b9201519192565b60208301519251612f9c916127b4565b9192565b5060408701516001600160a01b0385811691161415612ab2565b6040517f51b516ae0000000000000000000000000000000000000000000000000000000081526001600160a01b0384166004820152602490fd5b6401000276a391501038612a07565b61301761084388516001600160a01b031690565b6001600160a01b038416908110908115613032575b50612a09565b73fffd8963efd1fc6a506488495d951d5263988d269150113861302c565b6130fc6130b460046001600160a01b038716604051907fddca3f43000000000000000000000000000000000000000000000000000000008252602093828d8682878297875afa91821561316d575b60009261313b575b5060a0019062ffffff169052565b604051928380927fd0c93a7c0000000000000000000000000000000000000000000000000000000082525afa91821561312e575b600092613101575b505060020b6080890152565b6129d8565b6131209250803d10613127575b613118818361139d565b81019061279f565b38806130f0565b503d61310e565b613136612339565b6130e8565b60a091925061315f90863d8811613166575b613157818361139d565b81019061278a565b91906130a6565b503d61314d565b613175612339565b61309e565b6131dc6040517f1a6865020000000000000000000000000000000000000000000000000000000081526020816004816001600160a01b038a165afa90811561320f575b6000916131e1575b506fffffffffffffffffffffffffffffffff168752565b6129ca565b613202915060203d8111613208575b6131fa818361139d565b810190612775565b386131c5565b503d6131f0565b613217612339565b6131bd565b6132916040517f3850c7bd00000000000000000000000000000000000000000000000000000000815260e0816004816001600160a01b0389165afa80156132c9575b60009081908290613296575b60ff1660408b0152909150613284905b60020b60208a0152565b6001600160a01b03168752565b612993565b5050506132846132b661327a9260e03d811161090d576108f8818361139d565b509492505050939091905083925061326a565b6132d1612339565b61325e565b60046040517f1f2a2005000000000000000000000000000000000000000000000000000000008152fd5b949190928594600080806001600160a01b03908189169283838c161015978b8389129b898d15988c8a6000146134a15790508492915061334a62ffffff8c620f424003168d612098565b811561348f578361335c8187866137a9565b955b86831061347d57505050509e8f965b8716968789149c600014613425578c8061341e575b1561340f575050505b9b8c9980613408575b156133f85750505b985b806133ed575b6133e2575b50826133d7575b5050156133bc57500390565b905061065f915062ffffff8082620f424003169116856134f2565b1415905038806133b0565b8590039750386133a9565b5085810389116133a4565b61340392508d613810565b61339c565b508b613394565b61341993506137a9565b61338b565b5089613382565b809392918d80613476575b15613467575050505b9c8d9a80613460575b15613451575050505b9861339e565b61345b935061374e565b61344b565b508c613442565b613471935061384b565b613439565b508a613430565b613487945061352d565b9e8f9661336d565b8361349b81858861384b565b9561335e565b90938593929650816000146134e057836134bc818386613810565b915b91978903918883106134d657505050509e8f9661336d565b61348794506136a2565b836134ec81858461374e565b916134be565b92919061350082828661221f565b938215613520575b0961350f57565b9060001981101561000e5760010190565b6135286124b8565b613508565b926001600160a01b039081851691821561000e576fffffffffffffffffffffffffffffffff841691821561000e5760009015613570575050505061065f926135a5565b5061065f95506135909492935090919081116135955760601b04906126e4565b61368e565b9061359f91612102565b906126e4565b919081156121c8577bffffffffffffffffffffffffffffffff0000000000000000000000009060601b16906001600160a01b038093168082028183820414613615575b5090816135fc9215613608575b83046126e4565b80820615159104011690565b6136106124b8565b6135f5565b83018381106135e8579150613629926134f2565b1690565b919081156121c8577bffffffffffffffffffffffffffffffff0000000000000000000000006001600160a01b039160601b16921691828083029283041480613685575b1561000e5761065f92613590928203916134f2565b50818111613670565b906001600160a01b03821691820361000e57565b919290926001600160a01b039384841693841561000e576fffffffffffffffffffffffffffffffff821693841561000e571561373f575060009050848211613700575060601b908082061515910401905b8181111561000e57031690565b90916c0100000000000000000000000061371a8285612102565b9309613728575b50906136f3565b60001982101561373c575060010138613721565b80fd5b919350915061065f935061362d565b91906001600160a01b0391828216838516116137a1575b82841693841561000e57837bffffffffffffffffffffffffffffffff000000000000000000000000916120949585169403169160601b1661221f565b929092613765565b91906001600160a01b039182821683851611613808575b82841693841561000e57837bffffffffffffffffffffffffffffffff000000000000000000000000916137fc9585169403169160601b166134f2565b90808206151591040190565b9290926137c0565b61065f92916fffffffffffffffffffffffffffffffff916001600160a01b039182811683831611613845575b0316911661213b565b9061383c565b6c01000000000000000000000000916fffffffffffffffffffffffffffffffff916001600160a01b0391828116838316116138a9575b0316921691613890818461213b565b92096138995790565b60001981101561000e5760010190565b90613881565b60020b6000811215613c5057806000035b620d89e88111613c26576001600160a01b03916001821615613bfd5770ffffffffffffffffffffffffffffffffff6ffffcb933bd6fad37aa2d162d1a5940015b169160028116613be1575b60048116613bc5575b60088116613ba9575b60108116613b8d575b60208116613b71575b60408116613b55575b608090818116613b3a575b6101008116613b1f575b6102008116613b04575b6104008116613ae9575b6108008116613ace575b6110008116613ab3575b6120008116613a98575b6140008116613a7d575b6180008116613a62575b620100008116613a47575b620200008116613a2d575b620400008116613a13575b62080000166139f8575b506000126139ea575b63ffffffff81166139e15760ff60005b169060201c011690565b60ff60016139d7565b6139f3906124e8565b6139c7565b6b048a170391f7dc42444e8fa26000929302901c91906139be565b6d2216e584f5fa1ea926041bedfe98909302811c926139b4565b926e5d6af8dedb81196699c329225ee60402811c926139a9565b926f09aa508b5b7a84e1c677de54f3e99bc902811c9261399e565b926f31be135f97d08fd981231505542fcfa602811c92613993565b926f70d869a156d2a1b890bb3df62baf32f702811c92613989565b926fa9f746462d870fdf8a65dc1f90e061e502811c9261397f565b926fd097f3bdfd2022b8845ad8f792aa582502811c92613975565b926fe7159475a2c29b7443b29c7fa6e889d902811c9261396b565b926ff3392b0822b70005940c7a398e4b70f302811c92613961565b926ff987a7253ac413176f2b074cf7815e5402811c92613957565b926ffcbe86c7900a88aedcffc83b479aa3a402811c9261394d565b926ffe5dee046a99a2a811c461f1969c305302811c92613943565b916fff2ea16466c96a3843ec78b326b528610260801c91613938565b916fff973b41fa98c081472e6896dfb254c00260801c9161392f565b916fffcb9843d60f6159c9db58835c9266440260801c91613926565b916fffe5caca7e10e4e61c3624eaa0941cd00260801c9161391d565b916ffff2e50f5f656932ef12357cf3c7fdcc0260801c91613914565b916ffff97272373d413259a46990580e213a0260801c9161390b565b70ffffffffffffffffffffffffffffffffff700100000000000000000000000000000000613900565b60046040517f2bc80f3a000000000000000000000000000000000000000000000000000000008152fd5b806138c0565b6001600160a01b038116906401000276a382101580613f66575b15613f3c5777ffffffffffffffffffffffffffffffffffffffff000000009060201b16806fffffffffffffffffffffffffffffffff811160071b9181831c9267ffffffffffffffff841160061b93841c9363ffffffff851160051b94851c9461ffff861160041b95861c60ff9687821160031b91821c92600f841160021b93841c94600160038711811b96871c119617171717171717916080831015600014613f3057507fffffffffffffffffffffffffffffffffffffffffffffffffffffffffffffff8182011c5b8002607f928392828493841c81841c1c800280851c81851c1c800280861c81861c1c800280871c81871c1c80029081881c82881c1c80029283891c84891c1c800294858a1c868a1c1c800296878b1c888b1c1c800298898c1c8a8c1c1c80029a8b8d1c8c821c1c8002809d1c8d821c1c8002809e81901c90821c1c80029e8f80911c911c1c800260cd1c6604000000000000169d60cc1c6608000000000000169c60cb1c6610000000000000169b60ca1c6620000000000000169a60c91c6640000000000000169960c81c6680000000000000169860c71c670100000000000000169760c61c670200000000000000169660c51c670400000000000000169560c41c670800000000000000169460c31c671000000000000000169360c21c672000000000000000169260c11c674000000000000000169160c01c67800000000000000016907fffffffffffffffffffffffffffffffffffffffffffffffffffffffffffffff800160401b1717171717171717171717171717693627a301d71055774c85027ffffffffffffffffffffffffffffffffffd709b7e5480fba5a50fed5e62ffc556810160801d60020b906fdb2df09e81959a81455e260799a0632f0160801d60020b91600090838314600014613f14575050905090565b613f20610843856138af565b119050613f2b575090565b905090565b905081607f031b613d39565b60046040517f4980e1be000000000000000000000000000000000000000000000000000000008152fd5b5073fffd8963efd1fc6a506488495d951d5263988d268210613c70565b15613fd75715613f9d575050613f998151614183565b9052565b613fc9613fb2613f9993613fcf938651614335565b8060808794939401528260608701528551926126e4565b9061440c565b808352614183565b613fe057505050565b61407361405461403f614046613f9995614002613ffd89516122ce565b6142f2565b61404c62ffffff9182806140158b61416f565b1681861690818110614093575b0316908115614086575b049261404683620f42409788938c61431d565b168561430a565b046126b6565b96169061430a565b8281809410614079575b038060808601528260608601528451926126e4565b906143ee565b614081611992565b61405e565b61408e6124b8565b61402c565b61409b611992565b614022565b919392911561411657156140ea5790613fc960606140d7613f9994602085016140c9815161426d565b9052604085019687516143be565b91848360808497015201528451926126e4565b509050613f996040820191614073614102845161426d565b9182855260806060820151910151906126e4565b61413e579061407360606140d7613f99946040850196614136885161426d565b8089526143be565b5090506020810161414f815161426d565b9052613f996040820191613fc983519160806060820151910151906126e4565b62ffffff16620f4240818110612318570390565b61065f9060017e4189374bc6a7ef9db22d0e5604189374bc6a7ef9db22d0e5604189374bc6a78211600083131616614260575b60017fffbe76c8b4395810624dd2f1a9fbe76c8b4395810624dd2f1a9fbe76c8b439598212600083121616614253575b6001620f404c6101f483020560008112817f7fffffffffffffffffffffffffffffffffffffffffffffffffffffffffffffff038313811516614246575b81600160ff1b03831216614239575b0190611a7c565b614241611992565b614232565b61424e611992565b614223565b61425b611992565b6141e6565b614268611992565b6141b6565b620f404c620f42409160017d08648ed44d2db5ee0837f89d8553b31787ac4f44c07f66701aab8bdfa34082116000831316166142e5575b60017ffffff79b712bb2d24a11f7c807627aac4ce87853b0bb3f80998fe55474205cc082126000831216166142d857020590565b6142e0611992565b020590565b6142ed611992565b6142a4565b620f4240908060001904821181151516611f91570290565b8060001904821181151516611f91570290565b9062ffffff8080931691168092038111611a0a570190565b9161404661434a613ffd6143979496956122ce565b61439162ffffff916140468389169361438a620f424097889487840386116143b1575b8361437a838a890161431d565b169081156143a4575b049b61431d565b168961430a565b9561430a565b8281809410612318570390565b6143ac6124b8565b614383565b6143b9611992565b61436d565b61404661439792949361403f61404c6143d9614046956122ce565b92620f424095869162ffffff9485918c61431d565b90600082136001036144035761065f91611a7c565b61065f916127b4565b90600082136144035761065f91611a7c565b60020b9060020b90811561444e575b6000198214627fffff19821416614442570590565b61444a611992565b0590565b6144566124b8565b61442d565b9060020b90811561446e575b60020b0790565b6144766124b8565b614467565b6000199060020b627fffff198114611a0a570190565b60019060020b6000811281627fffff0383138115166144bd575b81627fffff1903831216611a0a570190565b6144c5611992565b6144ab565b60020b9060020b906000811281627fffff0383138115166144bd5781627fffff1903831216611a0a570190565b9081602091031261000e575190565b60ff168060ff10614518575b60ff0390565b614520611992565b614512565b60ff9182169116818110612318570390565b60020b9060020b9060008213600082139083627fffff818104851183851616614592575b6000821292627fffff1994848787058512911616611faa5782600087129505861290851616611f9d57058312911616611f91570290565b61459a611992565b61455b565b929190916145ad828461441e565b928260008260020b129182614814575b5050614804575b156146f2576145e38260020b9060ff6101008360081d60010b93071690565b9093614643602060ff8416966146046001891b6145ff816122fd565b6126e4565b9360405180809581947f5339c29600000000000000000000000000000000000000000000000000000000835260048301919091602081019260010b9052565b03915afa9081156146e5575b6000916146b7575b50168015801595906146a357509261469561468a61468461469b9461467e6146a098614832565b90614525565b60ff1690565b62ffffff1660020b90565b90612922565b614537565b91565b61469b92506146a094915060020b90612922565b6146d8915060203d81116146de575b6146d0818361139d565b8101906144f7565b38614657565b503d6146c6565b6146ed612339565b61464f565b60209261476b61471a61470485614491565b60020b9060ff6101008360081d60010b93071690565b959061472b600160ff89161b6122fd565b199360405180809581947f5339c29600000000000000000000000000000000000000000000000000000000835260048301919091602081019260010b9052565b03915afa9081156147f7575b6000916147d9575b50168015801594906147b957906147b361468a61468461469b946147ae6147a86146a099614491565b95614920565b614525565b906144ca565b61469b91506147b361468a6146846147d36146a097614491565b93614506565b6147f1915060203d81116146de576146d0818361139d565b3861477f565b6147ff612339565b614777565b9161480e9061447b565b916145c4565b6148299250906148239161445b565b60020b90565b151582386145bd565b90600091614841811515611ff2565b700100000000000000000000000000000000811015614915575b80680100000000000000006002921015614906575b6401000000008110156148f7575b620100008110156148e8575b6101008110156148d9575b60108110156148ca575b60048110156148bc575b10156148b157565b90600160ff91011690565b92810160ff1692811c6148a9565b600493840160ff16931c61489f565b600893840160ff16931c614895565b601093840160ff16931c61488a565b602093840160ff16931c61487e565b604093840160ff16931c614870565b60809250821c61485b565b9061492c821515611ff2565b60ff6fffffffffffffffffffffffffffffffff831615614aa65750607f5b67ffffffffffffffff831615614a9c577fffffffffffffffffffffffffffffffffffffffffffffffffffffffffffffffc00160ff165b63ffffffff831615614a92577fffffffffffffffffffffffffffffffffffffffffffffffffffffffffffffffe00160ff165b61ffff831615614a88577ffffffffffffffffffffffffffffffffffffffffffffffffffffffffffffffff00160ff165b60ff831615614a7e577ffffffffffffffffffffffffffffffffffffffffffffffffffffffffffffffff80160ff165b600f831615614a74576003190160ff165b6003831615614a685760ff7ffffffffffffffffffffffffffffffffffffffffffffffffffffffffffffffffe6001920116925b16614a5c57565b9060001960ff91011690565b9160019060021c614a55565b9160041c91614a22565b9160081c91614a11565b9160101c916149e2565b9160201c916149b2565b9160401c91614980565b9160801c9161494a565b60405190614abd82611381565b60006060838281528260208201528260408201520152565b90604090939293614af6614ae7614da0565b9065ffffffffffff4216611abe565b60c4614b0186614bd4565b936000614b256001600160a01b0396614b1d8860035416614c35565b908685615419565b95600354166fffffffffffffffffffffffffffffffff8651998a9687957f3c8a7d8d00000000000000000000000000000000000000000000000000000000875230600488015260020b602487015260020b604486015216606484015260a060848401528160a48401525af1928315614bc7575b6000908194614ba657509291565b9050614bc191935060403d811161059b5761058c818361139d565b92909291565b614bcf612339565b614b98565b6fffffffffffffffffffffffffffffffff166f80000000000000000000000000000000811015614c0457600f0b90565b602490604051907f832da39d0000000000000000000000000000000000000000000000000000000082526004820152fd5b60e06001600160a01b03916004604051809481937f3850c7bd000000000000000000000000000000000000000000000000000000008352165afa908115614ca4575b600091614c82575090565b614c9a915060e03d811161090d576108f8818361139d565b5050505050905090565b614cac612339565b614c77565b9192614cbb61540e565b614ccc614cc785614bd4565b612877565b9160406fffffffffffffffffffffffffffffffff6064614d036001600160a01b0396614cfb8860035416614c35565b90868a615419565b95600354169760008451998a9485937fa34123a70000000000000000000000000000000000000000000000000000000085528b60020b60048601528860020b60248601521660448401525af1948515614d93575b6000908196614d6e575b509061069e9195946152ce565b61069e929650614d8c915060403d811161059b5761058c818361139d565b9591614d61565b614d9b612339565b614d57565b600a54614dc4614dbb6108436001546001600160a01b031690565b63ffffffff1690565b600054614ddc9060101c6001600160a01b0316610843565b6040517fce4c18de00000000000000000000000000000000000000000000000000000000815263ffffffff83166004820152906020908183602481845afa928315614f04575b600093614ee5575b5082947f7fffffffffffffffffffffffffffffffffffffffffffffffffffffffffffffff8114600014614edd57506040517f706bdd2500000000000000000000000000000000000000000000000000000000815263ffffffff9490941660048501526146a093908290829060249082905afa918215614ed0575b600092614eb3575b5050614f11565b614ec99250803d106146de576146d0818361139d565b3880614eac565b614ed8612339565b614ea4565b935050505091565b614efd919350823d84116146de576146d0818361139d565b9138614e2a565b614f0c612339565b614e22565b614f4a611dd4614f30614f276201518095614f5c565b612c4b85614f5c565b6000811293908415614f4557614f4590611e6e565b611ff9565b90614f53570590565b61444a90611fe1565b600160ff1b811015614f6b5790565b602490604051907f8320b7bc0000000000000000000000000000000000000000000000000000000082526004820152fd5b61065f611e3c614faa614da0565b6005929192549265ffffffffffff806008541690421690611ed7565b918060020b8260020b908082129182159261510d575b8215615100575b82156150ef575b5081156150df575b506150a3579061505f91600460e06001600160a01b0360035416604051928380927f3850c7bd0000000000000000000000000000000000000000000000000000000082525afa908115615096575b600091615071575b5061505161511b565b91825186526009549361514f565b60608401526040830152602082015290565b615089915060e03d811161090d576108f8818361139d565b5050505050905038615048565b61509e612339565b615040565b6040517f957b5ed5000000000000000000000000000000000000000000000000000000008152600292830b6004820152910b6024820152604490fd5b600a91500760020b151538614ff2565b600a900760020b1515915038614fea565b620d89e882139250614fe3565b620d89e71981129250614fdc565b6040519061512882611381565b60055482526006546020830152600754604083015260085465ffffffffffff166060830152565b9061065f928496949261516f8160020b600052600b602052604060002090565b6151868460020b600052600b602052604060002090565b91600182015460036151a184546002860154848b5192615292565b9301549460020b809260020b13615263575b8960018501549260036151cf87546002890154878d5192615292565b9601549760020b1315615216575b509160406152036151fe936151fe61520b979660206152119b9c01516127b4565b6127b4565b9b01516127b4565b9561230d565b61230d565b9290615203886151fe60409360206152516152119c61524b61520b9c896152436151fe9d878b01516127b4565b9801516127b4565b9a61230d565b9b5050949697505093505050896151dd565b61528561527a61528c9260208a98969801516127b4565b9560408901516127b4565b928a61230d565b936151b3565b906152a3611e3c9261065f956127b4565b9061229b565b919082604091031261000e57602082516152c281610613565b92015161065f81610613565b9060409060a46001600160a01b0360035416936000845195869485937f4f1eb3d800000000000000000000000000000000000000000000000000000000855230600486015260020b602485015260020b60448401526fffffffffffffffffffffffffffffffff80606485015260848401525af18015615383575b615356575b5061069e61567a565b6153769060403d811161537c575b61536e818361139d565b8101906152a9565b5061534d565b503d615364565b61538b612339565b615348565b9060039160020b600052600b6020526040600020906153ee825491604060018501918254926153e56153d66002890197611e3c6153d08a549287516127b4565b8861229b565b948351895560208401516127b4565b905501516127b4565b9055019081549081811061540157039055565b615409611992565b039055565b61069e614ae7614da0565b9392909193615426614ab0565b5061542f61511b565b9160095492600091829488600f0b98896154d7575b50505050600061545785846110fa614ab0565b9612615464575b50505050565b6154a7575b50615477575b80808061545e565b6154a19060009060020b8152600b6020526003604082208281558260018201558260028201550155565b3861546f565b6154d19060009060020b8152600b6020526003604082208281558260018201558260028201550155565b38615469565b909192809650615520945051906020870180519161550e888660408c01958651906001600160a01b0398868c8b600354169661552a565b9851915192519360035416958a61552a565b9138808080615444565b9097969794929493919361554b8260020b600052600b602052604060002090565b6040517ff30dba93000000000000000000000000000000000000000000000000000000008152600284900b60048201526101009a9196918b90829060249082906001600160a01b03165afa9a8b1561566d575b60009b615647575b5050600081600f0b12600014615626576155c5612c776155cb92612877565b8a6128cc565b6fffffffffffffffffffffffffffffffff809a1615998a9116151415986155f6575b50505050505050565b60020b9060020b131561560b575b80806155ed565b60039383556001830155600282015501553880808080615604565b615642906fffffffffffffffffffffffffffffffff168a6128a7565b6155cb565b61565e929b50803d10612e7457612e5d818361139d565b505050505050509838806155a6565b615675612339565b61559e565b61568f6108436002546001600160a01b031690565b6040517f70a08231000000000000000000000000000000000000000000000000000000008082523060048301526020929091908382602481845afa918215615853575b600092615834575b50816157bf575b50506156f86108436001546001600160a01b031690565b604051918252306004830152908281602481855afa9283156157b2575b600093615793575b505081615728575050565b803b1561000e576040517f42966c6800000000000000000000000000000000000000000000000000000000815260048101929092526000908290602490829084905af18015615786575b6157795750565b8061126961069e92611360565b61578e612339565b615772565b6157aa929350803d106146de576146d0818361139d565b90388061571d565b6157ba612339565b615715565b803b1561000e576040517f42966c6800000000000000000000000000000000000000000000000000000000815260048101929092526000908290602490829084905af18015615827575b615814575b806156e1565b8061126961582192611360565b3861580e565b61582f612339565b615809565b61584c919250843d86116146de576146d0818361139d565b90386156da565b61585b612339565b6156d2565b805160051b810160209081018183015b81811061587d5750505090565b80515481528201615870565b9161591c9260409281600014615a20576080860151916158c86158af60a0890151614f5c565b6003549062ffffff808360b81c169260a01c16906143be565b5060c08501936fffffffffffffffffffffffffffffffff806158fa87516fffffffffffffffffffffffffffffffff1690565b16151580615a17575b61596d575b50505050505001516001600160a01b031690565b6001600160a01b0361593b61084360608501516001600160a01b031690565b9116146159455750565b60408101516159515750565b6020015160095461069e9160020b61596761511b565b90615390565b6159f6956159cd6159e9956159e394612c77946159956159f19a9060e060c083015192015190565b929093600014615a01576159a890614f5c565b85516fffffffffffffffffffffffffffffffff164265ffffffffffff16921690611d2f565b516fffffffffffffffffffffffffffffffff1690565b90611ff9565b6009546126e4565b600955565b388080808080615908565b615a0d615a1291614f5c565b611fe1565b6159a8565b50811515615903565b60a0860151916158c86158af6080890151614f5c56fea26469706673582212206313713df3ff7b63161ffac3bf1e52f5a6c379e531da6f79b7f764179aaa62f764736f6c634300080e0033",
  "devdoc": {
    "kind": "dev",
    "methods": {
      "collectAccruedProtocolFee()": {
        "details": "Does not do any token transfer, just reduces the state in wrapper by accruedProtocolFeeLast.     Clearing house already has the amount of settlement tokens to send to treasury.",
        "returns": {
          "accruedProtocolFeeLast": "amount of protocol fees accrued since last collection."
        }
      },
      "extsload(bytes32)": {
        "params": {
          "slot": "to read from."
        },
        "returns": {
          "val": "stored at the slot."
        }
      },
      "extsload(bytes32[])": {
        "params": {
          "slots": "to read from."
        },
        "returns": {
          "_0": "values stored at the slots."
        }
      },
      "swap(bool,int256,uint160)": {
        "params": {
          "amountSpecified": ": The amount of the swap, which implicitly configures the swap as exact input (positive), or exact output (negative)",
          "sqrtPriceLimitX96": ": The Q64.96 sqrt price limit. If zero for one, the price cannot be less than this value after the swap. If one for zero, the price cannot be greater than this value after the swap.",
          "swapVTokenForVQuote": ": The direction of the swap, true for vToken to vQuote, false for vQuote to vToken"
        },
        "returns": {
          "swapResult": "swap return values, which contain the execution details of the swap"
        }
      },
      "updateGlobalFundingState(bool)": {
        "details": "Done when clearing house is paused or unpaused, to prevent funding payments from being received     or paid when clearing house is in paused mode."
      }
    },
    "version": 1
  },
  "userdoc": {
    "events": {
      "AccruedProtocolFeeCollected(uint256)": {
        "notice": "Emitted whenever clearing house enquired about the accrued protocol fees"
      },
      "Burn(int24,int24,uint128,uint256,uint256)": {
        "notice": "Emitted whenever liquidity is removed"
      },
      "FundingRateOverrideUpdated(int256)": {
        "notice": "Emitted when funding rate override is updated"
      },
      "LiquidityFeeUpdated(uint24)": {
        "notice": "Emitted when governance updates the liquidity fees"
      },
      "Mint(int24,int24,uint128,uint256,uint256)": {
        "notice": "Emitted whenever liquidity is added"
      },
      "ProtocolFeeUpdated(uint24)": {
        "notice": "Emitted when governance updates the protocol fees"
      },
      "Swap((int256,int256,int256,uint256,uint256,uint160,uint160))": {
        "notice": "Emitted whenever a swap takes place"
      }
    },
    "kind": "user",
    "methods": {
      "collectAccruedProtocolFee()": {
        "notice": "Used by clearing house to know how much protocol fee was collected."
      },
      "extsload(bytes32)": {
        "notice": "Returns a value from the storage."
      },
      "extsload(bytes32[])": {
        "notice": "Returns multiple values from storage."
      },
      "getFundingRateAndVirtualPrice()": {
        "notice": "VIEW METHODS"
      },
      "initialize((address,address,address,address,uint24,uint24))": {
        "notice": "PLATFORM FUNCTIONS"
      },
      "setLiquidityFee(uint24)": {
        "notice": "ADMIN FUNCTIONS"
      },
      "swap(bool,int256,uint160)": {
        "notice": "Swap vToken for vQuote, or vQuote for vToken"
      },
      "uniswapV3SwapCallback(int256,int256,bytes)": {
        "notice": "UNISWAP V3 POOL CALLBACkS"
      },
      "updateGlobalFundingState(bool)": {
        "notice": "Update the global funding state, from clearing house"
      }
    },
    "version": 1
  },
  "storageLayout": {
    "storage": [
      {
        "astId": 93,
        "contract": "contracts/protocol/wrapper/VPoolWrapper.sol:VPoolWrapper",
        "label": "_initialized",
        "offset": 0,
        "slot": "0",
        "type": "t_bool"
      },
      {
        "astId": 96,
        "contract": "contracts/protocol/wrapper/VPoolWrapper.sol:VPoolWrapper",
        "label": "_initializing",
        "offset": 1,
        "slot": "0",
        "type": "t_bool"
      },
      {
        "astId": 27679,
        "contract": "contracts/protocol/wrapper/VPoolWrapper.sol:VPoolWrapper",
        "label": "clearingHouse",
        "offset": 2,
        "slot": "0",
        "type": "t_contract(IClearingHouse)11306"
      },
      {
        "astId": 27682,
        "contract": "contracts/protocol/wrapper/VPoolWrapper.sol:VPoolWrapper",
        "label": "vToken",
        "offset": 0,
        "slot": "1",
        "type": "t_contract(IVToken)11656"
      },
      {
        "astId": 27685,
        "contract": "contracts/protocol/wrapper/VPoolWrapper.sol:VPoolWrapper",
        "label": "vQuote",
        "offset": 0,
        "slot": "2",
        "type": "t_contract(IVQuote)11632"
      },
      {
        "astId": 27688,
        "contract": "contracts/protocol/wrapper/VPoolWrapper.sol:VPoolWrapper",
        "label": "vPool",
        "offset": 0,
        "slot": "3",
        "type": "t_contract(IUniswapV3Pool)6184"
      },
      {
        "astId": 27693,
        "contract": "contracts/protocol/wrapper/VPoolWrapper.sol:VPoolWrapper",
        "label": "liquidityFeePips",
        "offset": 20,
        "slot": "3",
        "type": "t_uint24"
      },
      {
        "astId": 27695,
        "contract": "contracts/protocol/wrapper/VPoolWrapper.sol:VPoolWrapper",
        "label": "protocolFeePips",
        "offset": 23,
        "slot": "3",
        "type": "t_uint24"
      },
      {
        "astId": 27697,
        "contract": "contracts/protocol/wrapper/VPoolWrapper.sol:VPoolWrapper",
        "label": "accruedProtocolFee",
        "offset": 0,
        "slot": "4",
        "type": "t_uint256"
      },
      {
        "astId": 27700,
        "contract": "contracts/protocol/wrapper/VPoolWrapper.sol:VPoolWrapper",
        "label": "fpGlobal",
        "offset": 0,
        "slot": "5",
        "type": "t_struct(Info)15061_storage"
      },
      {
        "astId": 27702,
        "contract": "contracts/protocol/wrapper/VPoolWrapper.sol:VPoolWrapper",
        "label": "sumFeeGlobalX128",
        "offset": 0,
        "slot": "9",
        "type": "t_uint256"
      },
      {
        "astId": 27711,
        "contract": "contracts/protocol/wrapper/VPoolWrapper.sol:VPoolWrapper",
        "label": "fundingRateOverrideX128",
        "offset": 0,
        "slot": "10",
        "type": "t_int256"
      },
      {
        "astId": 27716,
        "contract": "contracts/protocol/wrapper/VPoolWrapper.sol:VPoolWrapper",
        "label": "ticksExtended",
        "offset": 0,
        "slot": "11",
        "type": "t_mapping(t_int24,t_struct(Info)20065_storage)"
      }
    ],
    "types": {
      "t_bool": {
        "encoding": "inplace",
        "label": "bool",
        "numberOfBytes": "1"
      },
      "t_contract(IClearingHouse)11306": {
        "encoding": "inplace",
        "label": "contract IClearingHouse",
        "numberOfBytes": "20"
      },
      "t_contract(IUniswapV3Pool)6184": {
        "encoding": "inplace",
        "label": "contract IUniswapV3Pool",
        "numberOfBytes": "20"
      },
      "t_contract(IVQuote)11632": {
        "encoding": "inplace",
        "label": "contract IVQuote",
        "numberOfBytes": "20"
      },
      "t_contract(IVToken)11656": {
        "encoding": "inplace",
        "label": "contract IVToken",
        "numberOfBytes": "20"
      },
      "t_int24": {
        "encoding": "inplace",
        "label": "int24",
        "numberOfBytes": "3"
      },
      "t_int256": {
        "encoding": "inplace",
        "label": "int256",
        "numberOfBytes": "32"
      },
      "t_mapping(t_int24,t_struct(Info)20065_storage)": {
        "encoding": "mapping",
        "key": "t_int24",
        "label": "mapping(int24 => struct TickExtended.Info)",
        "numberOfBytes": "32",
        "value": "t_struct(Info)20065_storage"
      },
      "t_struct(Info)15061_storage": {
        "encoding": "inplace",
        "label": "struct FundingPayment.Info",
        "members": [
          {
            "astId": 15054,
            "contract": "contracts/protocol/wrapper/VPoolWrapper.sol:VPoolWrapper",
            "label": "sumAX128",
            "offset": 0,
            "slot": "0",
            "type": "t_int256"
          },
          {
            "astId": 15056,
            "contract": "contracts/protocol/wrapper/VPoolWrapper.sol:VPoolWrapper",
            "label": "sumBX128",
            "offset": 0,
            "slot": "1",
            "type": "t_int256"
          },
          {
            "astId": 15058,
            "contract": "contracts/protocol/wrapper/VPoolWrapper.sol:VPoolWrapper",
            "label": "sumFpX128",
            "offset": 0,
            "slot": "2",
            "type": "t_int256"
          },
          {
            "astId": 15060,
            "contract": "contracts/protocol/wrapper/VPoolWrapper.sol:VPoolWrapper",
            "label": "timestampLast",
            "offset": 0,
            "slot": "3",
            "type": "t_uint48"
          }
        ],
        "numberOfBytes": "128"
      },
      "t_struct(Info)20065_storage": {
        "encoding": "inplace",
        "label": "struct TickExtended.Info",
        "members": [
          {
            "astId": 20058,
            "contract": "contracts/protocol/wrapper/VPoolWrapper.sol:VPoolWrapper",
            "label": "sumALastX128",
            "offset": 0,
            "slot": "0",
            "type": "t_int256"
          },
          {
            "astId": 20060,
            "contract": "contracts/protocol/wrapper/VPoolWrapper.sol:VPoolWrapper",
            "label": "sumBOutsideX128",
            "offset": 0,
            "slot": "1",
            "type": "t_int256"
          },
          {
            "astId": 20062,
            "contract": "contracts/protocol/wrapper/VPoolWrapper.sol:VPoolWrapper",
            "label": "sumFpOutsideX128",
            "offset": 0,
            "slot": "2",
            "type": "t_int256"
          },
          {
            "astId": 20064,
            "contract": "contracts/protocol/wrapper/VPoolWrapper.sol:VPoolWrapper",
            "label": "sumFeeOutsideX128",
            "offset": 0,
            "slot": "3",
            "type": "t_uint256"
          }
        ],
        "numberOfBytes": "128"
      },
      "t_uint24": {
        "encoding": "inplace",
        "label": "uint24",
        "numberOfBytes": "3"
      },
      "t_uint256": {
        "encoding": "inplace",
        "label": "uint256",
        "numberOfBytes": "32"
      },
      "t_uint48": {
        "encoding": "inplace",
        "label": "uint48",
        "numberOfBytes": "6"
      }
    }
  }
}